{"contracts/LNBridge.sol":{"LNBridge":{"abi":[{"inputs":[{"internalType":"uint256","name":"value","type":"uint256"},{"internalType":"uint256","name":"length","type":"uint256"}],"name":"StringsInsufficientHexLength","type":"error"},{"inputs":[{"internalType":"bytes","name":"rawTxP_locked","type":"bytes"},{"internalType":"bytes","name":"sigV","type":"bytes"},{"internalType":"bytes","name":"rawTxV_unlocked","type":"bytes"},{"internalType":"bytes","name":"sigP","type":"bytes"}],"name":"dispute","outputs":[],"stateMutability":"nonpayable","type":"function"},{"inputs":[{"internalType":"bytes","name":"_txBytes","type":"bytes"}],"name":"readThreeOutputs","outputs":[{"internalType":"uint256","name":"","type":"uint256"},{"internalType":"bytes32","name":"","type":"bytes32"},{"internalType":"uint256","name":"","type":"uint256"},{"internalType":"bytes32","name":"","type":"bytes32"},{"internalType":"uint256","name":"","type":"uint256"},{"internalType":"bytes32","name":"","type":"bytes32"}],"stateMutability":"nonpayable","type":"function"},{"inputs":[{"internalType":"bytes","name":"oldRevSecret","type":"bytes"},{"internalType":"bytes","name":"rawTxP_unlocked","type":"bytes"},{"internalType":"bytes","name":"sigV","type":"bytes"}],"name":"resolveDispute","outputs":[],"stateMutability":"nonpayable","type":"function"},{"inputs":[],"name":"settle","outputs":[],"stateMutability":"nonpayable","type":"function"},{"inputs":[{"internalType":"bytes32","name":"_fundingTxId","type":"bytes32"},{"internalType":"bytes32","name":"_pkProver","type":"bytes32"},{"internalType":"bytes32","name":"_pkVerifier","type":"bytes32"},{"internalType":"uint256","name":"_index","type":"uint256"},{"internalType":"uint256","name":"_timestamp","type":"uint256"}],"name":"setup","outputs":[],"stateMutability":"nonpayable","type":"function"},{"inputs":[{"internalType":"bytes","name":"rawTxP_unlocked","type":"bytes"},{"internalType":"bytes","name":"sigV","type":"bytes"},{"internalType":"bytes","name":"rawTxV_unlocked","type":"bytes"},{"internalType":"bytes","name":"sigP","type":"bytes"}],"name":"submitProof","outputs":[],"stateMutability":"nonpayable","type":"function"},{"inputs":[],"name":"timestamp","outputs":[{"internalType":"uint256","name":"","type":"uint256"}],"stateMutability":"view","type":"function"},{"inputs":[],"name":"timestamp_dispute","outputs":[{"internalType":"uint256","name":"","type":"uint256"}],"stateMutability":"view","type":"function"},{"inputs":[{"internalType":"bytes","name":"pk","type":"bytes"},{"internalType":"bytes32","name":"digest","type":"bytes32"},{"internalType":"uint8","name":"v","type":"uint8"},{"internalType":"bytes32","name":"r","type":"bytes32"},{"internalType":"bytes32","name":"s","type":"bytes32"}],"name":"verifySignature","outputs":[{"internalType":"bool","name":"","type":"bool"}],"stateMutability":"view","type":"function"}],"evm":{"bytecode":{"linkReferences":{},"object":"608060405234801561001057600080fd5b506128ae806100206000396000f3fe608060405234801561001057600080fd5b50600436106100935760003560e01c806343f104d21161006657806343f104d21461010f57806347aa95731461012b57806379a85bd91461015b578063a5dd32ac14610177578063b80777ea1461019557610093565b806306ac0e261461009857806311da60b4146100b45780633740d249146100be5780633c1c0699146100da575b600080fd5b6100b260048036038101906100ad9190611c78565b6101b3565b005b6100bc6101dd565b005b6100d860048036038101906100d39190611e39565b6101df565b005b6100f460048036038101906100ef9190611f10565b6101e5565b60405161010696959493929190611f77565b60405180910390f35b61012960048036038101906101249190611e39565b6103da565b005b61014560048036038101906101409190612011565b6103e0565b60405161015291906120c3565b60405180910390f35b610175600480360381019061017091906120de565b6103fa565b005b61017f6103ff565b60405161018c9190612185565b60405180910390f35b61019d610405565b6040516101aa9190612185565b60405180910390f35b84600081905550836001819055508260028190555081600381905550806004819055505050505050565b565b50505050565b6000806000806000806000806000806000806102008d61040b565b809650819750829850839950849a50859b505050505050506102576040518060400160405280601581526020017f436865636b2076616c75655f6f75747075745f313a000000000000000000000081525087610716565b6102a36040518060400160405280601481526020017f436865636b207363726970745f646174615f313a00000000000000000000000081525061029e8760001c60206107b2565b6109f8565b6102e26040518060400160405280601581526020017f436865636b2076616c75655f6f75747075745f323a000000000000000000000081525085610716565b61032e6040518060400160405280601481526020017f436865636b207363726970745f646174615f323a0000000000000000000000008152506103298560001c60206107b2565b6109f8565b61036d6040518060400160405280601581526020017f436865636b2076616c75655f6f75747075745f333a000000000000000000000081525083610716565b6103b96040518060400160405280601481526020017f436865636b207363726970745f646174615f333a0000000000000000000000008152506103b48360001c60206107b2565b6109f8565b8585858585859b509b509b509b509b509b5050505050505091939550919395565b50505050565b60006103ef8686868686610a94565b905095945050505050565b505050565b60055481565b60045481565b600080600080600080600080600267ffffffffffffffff81111561043257610431611d0e565b5b6040519080825280602002602001820160405280156104605781602001602082028036833780820191505090505b5090506000600367ffffffffffffffff8111156104805761047f611d0e565b5b6040519080825280602002602001820160405280156104ae5781602001602082028036833780820191505090505b5090506000600367ffffffffffffffff8111156104ce576104cd611d0e565b5b6040519080825280602002602001820160405280156104fc5781602001602082028036833780820191505090505b5090506000600367ffffffffffffffff81111561051c5761051b611d0e565b5b60405190808252806020026020018201604052801561054a5781602001602082028036833780820191505090505b5090506000600367ffffffffffffffff81111561056a57610569611d0e565b5b6040519080825280602002602001820160405280156105985781602001602082028036833780820191505090505b509050600495506105ab8d876000610b76565b80975081965050506105bf8d876000610c88565b8099508197508296508395505050505060005b600381101561065257600061061c8f8684815181106105f4576105f36121a0565b5b602002602001015188858151811061060f5761060e6121a0565b5b6020026020010151610e7f565b905080838381518110610632576106316121a0565b5b60200260200101818152505050808061064a906121fe565b9150506105d2565b5081600081518110610667576106666121a0565b5b602002602001015181600081518110610683576106826121a0565b5b60200260200101518360018151811061069f5761069e6121a0565b5b6020026020010151836001815181106106bb576106ba6121a0565b5b6020026020010151856002815181106106d7576106d66121a0565b5b6020026020010151856002815181106106f3576106f26121a0565b5b60200260200101519b509b509b509b509b509b5050505050505091939550919395565b6107ae828260405160240161072c9291906122c5565b6040516020818303038152906040527fb60e72cc000000000000000000000000000000000000000000000000000000007bffffffffffffffffffffffffffffffffffffffffffffffffffffffff19166020820180517bffffffffffffffffffffffffffffffffffffffffffffffffffffffff8381831617835250505050610f34565b5050565b60606000839050600060028460026107ca91906122f5565b6107d49190612337565b67ffffffffffffffff8111156107ed576107ec611d0e565b5b6040519080825280601f01601f19166020018201604052801561081f5781602001600182028036833780820191505090505b5090507f300000000000000000000000000000000000000000000000000000000000000081600081518110610857576108566121a0565b5b60200101907effffffffffffffffffffffffffffffffffffffffffffffffffffffffffffff1916908160001a9053507f7800000000000000000000000000000000000000000000000000000000000000816001815181106108bb576108ba6121a0565b5b60200101907effffffffffffffffffffffffffffffffffffffffffffffffffffffffffffff1916908160001a905350600060018560026108fb91906122f5565b6109059190612337565b90505b60018111156109a5577f3031323334353637383961626364656600000000000000000000000000000000600f841660108110610947576109466121a0565b5b1a60f81b82828151811061095e5761095d6121a0565b5b60200101907effffffffffffffffffffffffffffffffffffffffffffffffffffffffffffff1916908160001a905350600483901c92508061099e9061236b565b9050610908565b50600082146109ed5784846040517fe22e27eb0000000000000000000000000000000000000000000000000000000081526004016109e4929190612394565b60405180910390fd5b809250505092915050565b610a908282604051602401610a0e9291906123bd565b6040516020818303038152906040527f4b5c4277000000000000000000000000000000000000000000000000000000007bffffffffffffffffffffffffffffffffffffffffffffffffffffffff19166020820180517bffffffffffffffffffffffffffffffffffffffffffffffffffffffff8381831617835250505050610f34565b5050565b60006040865114610ada576040517f08c379a0000000000000000000000000000000000000000000000000000000008152600401610ad19061248c565b60405180910390fd5b6000610ae587610f4e565b9050600060018787878760405160008152602001604052604051610b0c94939291906124bb565b6020604051602081039080840390855afa158015610b2e573d6000803e3d6000fd5b5050506020604051035190508173ffffffffffffffffffffffffffffffffffffffff168173ffffffffffffffffffffffffffffffffffffffff16149250505095945050505050565b6060600080600080610b888888610fc6565b80985081945050506000861480610b9e57508286115b15610bab57829150610baf565b8591505b60008267ffffffffffffffff811115610bcb57610bca611d0e565b5b604051908082528060200260200182016040528015610bf95781602001602082028036833780820191505090505b50905060005b83811015610c7557602489610c149190612337565b9850610c208a8a610fc6565b809a50819450505082828281518110610c3c57610c3b6121a0565b5b602002602001018181525050600483610c559190612337565b89610c609190612337565b98508080610c6d906121fe565b915050610bff565b5080889550955050505050935093915050565b6060806060600080600080610c9d8a8a610fc6565b809a5081945050506000881480610cb357508288115b15610cc057829150610cc4565b8791505b60008267ffffffffffffffff811115610ce057610cdf611d0e565b5b604051908082528060200260200182016040528015610d0e5781602001602082028036833780820191505090505b50905060008367ffffffffffffffff811115610d2d57610d2c611d0e565b5b604051908082528060200260200182016040528015610d5b5781602001602082028036833780820191505090505b50905060008467ffffffffffffffff811115610d7a57610d79611d0e565b5b604051908082528060200260200182016040528015610da85781602001602082028036833780820191505090505b50905060005b85811015610e6357610dc28e8e60406110ae565b828281518110610dd557610dd46121a0565b5b60200260200101818152505060088d610dee9190612337565b9c50610dfa8e8e610fc6565b809e5081965050508c848281518110610e1657610e156121a0565b5b60200260200101818152505084838281518110610e3657610e356121a0565b5b602002602001018181525050848d610e4e9190612337565b9c508080610e5b906121fe565b915050610dae565b508083838e995099509950995050505050505093509350935093565b6000610e8c848484611519565b15610ebd57610ea784600385610ea29190612337565b6116de565b6bffffffffffffffffffffffff19169050610f2d565b610ec88484846117c1565b15610ef957610ee384600285610ede9190612337565b6116de565b6bffffffffffffffffffffffff19169050610f2d565b610f048484846118de565b15610f2657610f1f84600285610f1a9190612337565b6119a1565b9050610f2d565b6000801b90505b9392505050565b610f4b81610f43611a2c611a4d565b63ffffffff16565b50565b60006040825114610f94576040517f08c379a0000000000000000000000000000000000000000000000000000000008152600401610f8b90612572565b60405180910390fd5b6000610fb8610fad600085611a5890919063ffffffff16565b62ffffff1916611a83565b90508060001c915050919050565b6000806000848481518110610fde57610fdd6121a0565b5b602001015160f81c60f81b60f81c9050600184610ffb9190612337565b935060fd8160ff16101561101b5780848160ff16915092509250506110a7565b60fd8160ff160361104957611032858560106110ae565b60028561103f9190612337565b92509250506110a7565b60fe8160ff160361107757611060858560206110ae565b60048561106d9190612337565b92509250506110a7565b60ff8160ff16036110a55761108e858560406110ae565b60088561109b9190612337565b92509250506110a7565b505b9250929050565b6000600882036110e3578383815181106110cb576110ca6121a0565b5b602001015160f81c60f81b60f81c60ff169050611512565b6010820361116557610100846001856110fc9190612337565b8151811061110d5761110c6121a0565b5b602001015160f81c60f81b60f81c60ff1661112891906125a0565b61ffff1684848151811061113f5761113e6121a0565b5b602001015160f81c60f81b60f81c60ff1661ffff1661115e9190612337565b9050611512565b60208203611288576301000000846003856111809190612337565b81518110611191576111906121a0565b5b602001015160f81c60f81b60f81c60ff166111ac91906125ed565b63ffffffff1662010000856002866111c49190612337565b815181106111d5576111d46121a0565b5b602001015160f81c60f81b60f81c60ff166111f091906125ed565b63ffffffff16610100866001876112079190612337565b81518110611218576112176121a0565b5b602001015160f81c60f81b60f81c60ff1661123391906125ed565b63ffffffff1686868151811061124c5761124b6121a0565b5b602001015160f81c60f81b60f81c60ff1663ffffffff1661126d9190612337565b6112779190612337565b6112819190612337565b9050611512565b6040820361151157670100000000000000846007856112a79190612337565b815181106112b8576112b76121a0565b5b602001015160f81c60f81b60f81c60ff166112d3919061263e565b67ffffffffffffffff166601000000000000856006866112f39190612337565b81518110611304576113036121a0565b5b602001015160f81c60f81b60f81c60ff1661131f919061263e565b67ffffffffffffffff16650100000000008660058761133e9190612337565b8151811061134f5761134e6121a0565b5b602001015160f81c60f81b60f81c60ff1661136a919061263e565b67ffffffffffffffff16640100000000876004886113889190612337565b81518110611399576113986121a0565b5b602001015160f81c60f81b60f81c60ff166113b4919061263e565b67ffffffffffffffff166301000000886003896113d19190612337565b815181106113e2576113e16121a0565b5b602001015160f81c60f81b60f81c60ff166113fd919061263e565b67ffffffffffffffff16620100008960028a6114199190612337565b8151811061142a576114296121a0565b5b602001015160f81c60f81b60f81c60ff16611445919061263e565b67ffffffffffffffff166101008a60018b6114609190612337565b81518110611471576114706121a0565b5b602001015160f81c60f81b60f81c60ff1661148c919061263e565b67ffffffffffffffff168a8a815181106114a9576114a86121a0565b5b602001015160f81c60f81b60f81c60ff1667ffffffffffffffff166114ce9190612337565b6114d89190612337565b6114e29190612337565b6114ec9190612337565b6114f69190612337565b6115009190612337565b61150a9190612337565b9050611512565b5b9392505050565b600060198214801561156d5750607660f81b84848151811061153e5761153d6121a0565b5b602001015160f81c60f81b7effffffffffffffffffffffffffffffffffffffffffffffffffffffffffffff1916145b80156115c7575060a960f81b846001856115879190612337565b81518110611598576115976121a0565b5b602001015160f81c60f81b7effffffffffffffffffffffffffffffffffffffffffffffffffffffffffffff1916145b80156116215750601460f81b846002856115e19190612337565b815181106115f2576115f16121a0565b5b602001015160f81c60f81b7effffffffffffffffffffffffffffffffffffffffffffffffffffffffffffff1916145b801561167b5750608860f81b8460178561163b9190612337565b8151811061164c5761164b6121a0565b5b602001015160f81c60f81b7effffffffffffffffffffffffffffffffffffffffffffffffffffffffffffff1916145b80156116d5575060ac60f81b846018856116959190612337565b815181106116a6576116a56121a0565b5b602001015160f81c60f81b7effffffffffffffffffffffffffffffffffffffffffffffffffffffffffffff1916145b90509392505050565b6000806000905060005b60148173ffffffffffffffffffffffffffffffffffffffff1610156117b357806013611714919061269b565b600861172091906126e3565b73ffffffffffffffffffffffffffffffffffffffff1685858373ffffffffffffffffffffffffffffffffffffffff166117599190612337565b8151811061176a576117696121a0565b5b602001015160f81c60f81b60f81c60ff1673ffffffffffffffffffffffffffffffffffffffff16901b8261179e9190612725565b915080806117ab9061276d565b9150506116e8565b508060601b91505092915050565b6000601782148015611821575060a960f81b846000856117e19190612337565b815181106117f2576117f16121a0565b5b602001015160f81c60f81b7effffffffffffffffffffffffffffffffffffffffffffffffffffffffffffff1916145b801561187b5750601460f81b8460018561183b9190612337565b8151811061184c5761184b6121a0565b5b602001015160f81c60f81b7effffffffffffffffffffffffffffffffffffffffffffffffffffffffffffff1916145b80156118d55750608760f81b846016856118959190612337565b815181106118a6576118a56121a0565b5b602001015160f81c60f81b7effffffffffffffffffffffffffffffffffffffffffffffffffffffffffffff1916145b90509392505050565b600060228214801561193e5750606a60f81b846000856118fe9190612337565b8151811061190f5761190e6121a0565b5b602001015160f81c60f81b7effffffffffffffffffffffffffffffffffffffffffffffffffffffffffffff1916145b80156119985750602060f81b846001856119589190612337565b81518110611969576119686121a0565b5b602001015160f81c60f81b7effffffffffffffffffffffffffffffffffffffffffffffffffffffffffffff1916145b90509392505050565b6000806000905060005b6020811015611a1e5780601f6119c191906127a9565b60086119cd91906122f5565b8585836119da9190612337565b815181106119eb576119ea6121a0565b5b602001015160f81c60f81b60f81c60ff16901b82611a099190612337565b91508080611a16906121fe565b9150506119ab565b508060001b91505092915050565b60006a636f6e736f6c652e6c6f679050600080835160208501845afa505050565b611bee819050919050565b600080835190506000602085019050611a798464ffffffffff168284611ac6565b9250505092915050565b600080611a8f83611b34565b6bffffffffffffffffffffffff1690506000611aaa84611b54565b6bffffffffffffffffffffffff16905080822092505050919050565b600080611adc8385611b7490919063ffffffff16565b9050604051811115611aed57600090505b60008103611b1e577fffffffffffffffffffffffffffffffffffffffffffffffffffffffffff000000915050611b2d565b611b29858585611bcd565b9150505b9392505050565b6000806bffffffffffffffffffffffff9050808360781c16915050919050565b6000806bffffffffffffffffffffffff9050808360181c16915050919050565b60008183611b829190612337565b905082811015611bc7576040517f08c379a0000000000000000000000000000000000000000000000000000000008152600401611bbe90612829565b60405180910390fd5b92915050565b600083811760601b905082811760601b905081811760181b90509392505050565b611bf6612849565b565b6000604051905090565b600080fd5b600080fd5b6000819050919050565b611c1f81611c0c565b8114611c2a57600080fd5b50565b600081359050611c3c81611c16565b92915050565b6000819050919050565b611c5581611c42565b8114611c6057600080fd5b50565b600081359050611c7281611c4c565b92915050565b600080600080600060a08688031215611c9457611c93611c02565b5b6000611ca288828901611c2d565b9550506020611cb388828901611c2d565b9450506040611cc488828901611c2d565b9350506060611cd588828901611c63565b9250506080611ce688828901611c63565b9150509295509295909350565b600080fd5b600080fd5b6000601f19601f8301169050919050565b7f4e487b7100000000000000000000000000000000000000000000000000000000600052604160045260246000fd5b611d4682611cfd565b810181811067ffffffffffffffff82111715611d6557611d64611d0e565b5b80604052505050565b6000611d78611bf8565b9050611d848282611d3d565b919050565b600067ffffffffffffffff821115611da457611da3611d0e565b5b611dad82611cfd565b9050602081019050919050565b82818337600083830152505050565b6000611ddc611dd784611d89565b611d6e565b905082815260208101848484011115611df857611df7611cf8565b5b611e03848285611dba565b509392505050565b600082601f830112611e2057611e1f611cf3565b5b8135611e30848260208601611dc9565b91505092915050565b60008060008060808587031215611e5357611e52611c02565b5b600085013567ffffffffffffffff811115611e7157611e70611c07565b5b611e7d87828801611e0b565b945050602085013567ffffffffffffffff811115611e9e57611e9d611c07565b5b611eaa87828801611e0b565b935050604085013567ffffffffffffffff811115611ecb57611eca611c07565b5b611ed787828801611e0b565b925050606085013567ffffffffffffffff811115611ef857611ef7611c07565b5b611f0487828801611e0b565b91505092959194509250565b600060208284031215611f2657611f25611c02565b5b600082013567ffffffffffffffff811115611f4457611f43611c07565b5b611f5084828501611e0b565b91505092915050565b611f6281611c42565b82525050565b611f7181611c0c565b82525050565b600060c082019050611f8c6000830189611f59565b611f996020830188611f68565b611fa66040830187611f59565b611fb36060830186611f68565b611fc06080830185611f59565b611fcd60a0830184611f68565b979650505050505050565b600060ff82169050919050565b611fee81611fd8565b8114611ff957600080fd5b50565b60008135905061200b81611fe5565b92915050565b600080600080600060a0868803121561202d5761202c611c02565b5b600086013567ffffffffffffffff81111561204b5761204a611c07565b5b61205788828901611e0b565b955050602061206888828901611c2d565b945050604061207988828901611ffc565b935050606061208a88828901611c2d565b925050608061209b88828901611c2d565b9150509295509295909350565b60008115159050919050565b6120bd816120a8565b82525050565b60006020820190506120d860008301846120b4565b92915050565b6000806000606084860312156120f7576120f6611c02565b5b600084013567ffffffffffffffff81111561211557612114611c07565b5b61212186828701611e0b565b935050602084013567ffffffffffffffff81111561214257612141611c07565b5b61214e86828701611e0b565b925050604084013567ffffffffffffffff81111561216f5761216e611c07565b5b61217b86828701611e0b565b9150509250925092565b600060208201905061219a6000830184611f59565b92915050565b7f4e487b7100000000000000000000000000000000000000000000000000000000600052603260045260246000fd5b7f4e487b7100000000000000000000000000000000000000000000000000000000600052601160045260246000fd5b600061220982611c42565b91507fffffffffffffffffffffffffffffffffffffffffffffffffffffffffffffffff820361223b5761223a6121cf565b5b600182019050919050565b600081519050919050565b600082825260208201905092915050565b60005b83811015612280578082015181840152602081019050612265565b60008484015250505050565b600061229782612246565b6122a18185612251565b93506122b1818560208601612262565b6122ba81611cfd565b840191505092915050565b600060408201905081810360008301526122df818561228c565b90506122ee6020830184611f59565b9392505050565b600061230082611c42565b915061230b83611c42565b925082820261231981611c42565b915082820484148315176123305761232f6121cf565b5b5092915050565b600061234282611c42565b915061234d83611c42565b9250828201905080821115612365576123646121cf565b5b92915050565b600061237682611c42565b915060008203612389576123886121cf565b5b600182039050919050565b60006040820190506123a96000830185611f59565b6123b66020830184611f59565b9392505050565b600060408201905081810360008301526123d7818561228c565b905081810360208301526123eb818461228c565b90509392505050565b7f436865636b426974636f696e536967732f636865636b536967202d2d2052657160008201527f756972657320756e636f6d7072657373656420756e707265666978656420707560208201527f626b657900000000000000000000000000000000000000000000000000000000604082015250565b6000612476604483612251565b9150612481826123f4565b606082019050919050565b600060208201905081810360008301526124a581612469565b9050919050565b6124b581611fd8565b82525050565b60006080820190506124d06000830187611f68565b6124dd60208301866124ac565b6124ea6040830185611f68565b6124f76060830184611f68565b95945050505050565b7f5075626b6579206d7573742062652036342d62797465207261772c20756e636f60008201527f6d70726573736564206b65792e00000000000000000000000000000000000000602082015250565b600061255c602d83612251565b915061256782612500565b604082019050919050565b6000602082019050818103600083015261258b8161254f565b9050919050565b600061ffff82169050919050565b60006125ab82612592565b91506125b683612592565b92508282026125c481612592565b91508082146125d6576125d56121cf565b5b5092915050565b600063ffffffff82169050919050565b60006125f8826125dd565b9150612603836125dd565b9250828202612611816125dd565b9150808214612623576126226121cf565b5b5092915050565b600067ffffffffffffffff82169050919050565b60006126498261262a565b91506126548361262a565b92508282026126628161262a565b9150808214612674576126736121cf565b5b5092915050565b600073ffffffffffffffffffffffffffffffffffffffff82169050919050565b60006126a68261267b565b91506126b18361267b565b9250828203905073ffffffffffffffffffffffffffffffffffffffff8111156126dd576126dc6121cf565b5b92915050565b60006126ee8261267b565b91506126f98361267b565b92508282026127078161267b565b9150828204841483151761271e5761271d6121cf565b5b5092915050565b60006127308261267b565b915061273b8361267b565b9250828201905073ffffffffffffffffffffffffffffffffffffffff811115612767576127666121cf565b5b92915050565b60006127788261267b565b915073ffffffffffffffffffffffffffffffffffffffff820361279e5761279d6121cf565b5b600182019050919050565b60006127b482611c42565b91506127bf83611c42565b92508282039050818111156127d7576127d66121cf565b5b92915050565b7f4f766572666c6f7720647572696e67206164646974696f6e2e00000000000000600082015250565b6000612813601983612251565b915061281e826127dd565b602082019050919050565b6000602082019050818103600083015261284281612806565b9050919050565b7f4e487b7100000000000000000000000000000000000000000000000000000000600052605160045260246000fdfea26469706673582212206e6f05ed2ad8d48324548ea0433526e9c0becc6240a8f4dcdeca8ae0a94674b564736f6c63430008130033","opcodes":"PUSH1 0x80 PUSH1 0x40 MSTORE CALLVALUE DUP1 ISZERO PUSH2 0x10 JUMPI PUSH1 0x0 DUP1 REVERT JUMPDEST POP PUSH2 0x28AE DUP1 PUSH2 0x20 PUSH1 0x0 CODECOPY PUSH1 0x0 RETURN INVALID PUSH1 0x80 PUSH1 0x40 MSTORE CALLVALUE DUP1 ISZERO PUSH2 0x10 JUMPI PUSH1 0x0 DUP1 REVERT JUMPDEST POP PUSH1 0x4 CALLDATASIZE LT PUSH2 0x93 JUMPI PUSH1 0x0 CALLDATALOAD PUSH1 0xE0 SHR DUP1 PUSH4 0x43F104D2 GT PUSH2 0x66 JUMPI DUP1 PUSH4 0x43F104D2 EQ PUSH2 0x10F JUMPI DUP1 PUSH4 0x47AA9573 EQ PUSH2 0x12B JUMPI DUP1 PUSH4 0x79A85BD9 EQ PUSH2 0x15B JUMPI DUP1 PUSH4 0xA5DD32AC EQ PUSH2 0x177 JUMPI DUP1 PUSH4 0xB80777EA EQ PUSH2 0x195 JUMPI PUSH2 0x93 JUMP JUMPDEST DUP1 PUSH4 0x6AC0E26 EQ PUSH2 0x98 JUMPI DUP1 PUSH4 0x11DA60B4 EQ PUSH2 0xB4 JUMPI DUP1 PUSH4 0x3740D249 EQ PUSH2 0xBE JUMPI DUP1 PUSH4 0x3C1C0699 EQ PUSH2 0xDA JUMPI JUMPDEST PUSH1 0x0 DUP1 REVERT JUMPDEST PUSH2 0xB2 PUSH1 0x4 DUP1 CALLDATASIZE SUB DUP2 ADD SWAP1 PUSH2 0xAD SWAP2 SWAP1 PUSH2 0x1C78 JUMP JUMPDEST PUSH2 0x1B3 JUMP JUMPDEST STOP JUMPDEST PUSH2 0xBC PUSH2 0x1DD JUMP JUMPDEST STOP JUMPDEST PUSH2 0xD8 PUSH1 0x4 DUP1 CALLDATASIZE SUB DUP2 ADD SWAP1 PUSH2 0xD3 SWAP2 SWAP1 PUSH2 0x1E39 JUMP JUMPDEST PUSH2 0x1DF JUMP JUMPDEST STOP JUMPDEST PUSH2 0xF4 PUSH1 0x4 DUP1 CALLDATASIZE SUB DUP2 ADD SWAP1 PUSH2 0xEF SWAP2 SWAP1 PUSH2 0x1F10 JUMP JUMPDEST PUSH2 0x1E5 JUMP JUMPDEST PUSH1 0x40 MLOAD PUSH2 0x106 SWAP7 SWAP6 SWAP5 SWAP4 SWAP3 SWAP2 SWAP1 PUSH2 0x1F77 JUMP JUMPDEST PUSH1 0x40 MLOAD DUP1 SWAP2 SUB SWAP1 RETURN JUMPDEST PUSH2 0x129 PUSH1 0x4 DUP1 CALLDATASIZE SUB DUP2 ADD SWAP1 PUSH2 0x124 SWAP2 SWAP1 PUSH2 0x1E39 JUMP JUMPDEST PUSH2 0x3DA JUMP JUMPDEST STOP JUMPDEST PUSH2 0x145 PUSH1 0x4 DUP1 CALLDATASIZE SUB DUP2 ADD SWAP1 PUSH2 0x140 SWAP2 SWAP1 PUSH2 0x2011 JUMP JUMPDEST PUSH2 0x3E0 JUMP JUMPDEST PUSH1 0x40 MLOAD PUSH2 0x152 SWAP2 SWAP1 PUSH2 0x20C3 JUMP JUMPDEST PUSH1 0x40 MLOAD DUP1 SWAP2 SUB SWAP1 RETURN JUMPDEST PUSH2 0x175 PUSH1 0x4 DUP1 CALLDATASIZE SUB DUP2 ADD SWAP1 PUSH2 0x170 SWAP2 SWAP1 PUSH2 0x20DE JUMP JUMPDEST PUSH2 0x3FA JUMP JUMPDEST STOP JUMPDEST PUSH2 0x17F PUSH2 0x3FF JUMP JUMPDEST PUSH1 0x40 MLOAD PUSH2 0x18C SWAP2 SWAP1 PUSH2 0x2185 JUMP JUMPDEST PUSH1 0x40 MLOAD DUP1 SWAP2 SUB SWAP1 RETURN JUMPDEST PUSH2 0x19D PUSH2 0x405 JUMP JUMPDEST PUSH1 0x40 MLOAD PUSH2 0x1AA SWAP2 SWAP1 PUSH2 0x2185 JUMP JUMPDEST PUSH1 0x40 MLOAD DUP1 SWAP2 SUB SWAP1 RETURN JUMPDEST DUP5 PUSH1 0x0 DUP2 SWAP1 SSTORE POP DUP4 PUSH1 0x1 DUP2 SWAP1 SSTORE POP DUP3 PUSH1 0x2 DUP2 SWAP1 SSTORE POP DUP2 PUSH1 0x3 DUP2 SWAP1 SSTORE POP DUP1 PUSH1 0x4 DUP2 SWAP1 SSTORE POP POP POP POP POP POP JUMP JUMPDEST JUMP JUMPDEST POP POP POP POP JUMP JUMPDEST PUSH1 0x0 DUP1 PUSH1 0x0 DUP1 PUSH1 0x0 DUP1 PUSH1 0x0 DUP1 PUSH1 0x0 DUP1 PUSH1 0x0 DUP1 PUSH2 0x200 DUP14 PUSH2 0x40B JUMP JUMPDEST DUP1 SWAP7 POP DUP2 SWAP8 POP DUP3 SWAP9 POP DUP4 SWAP10 POP DUP5 SWAP11 POP DUP6 SWAP12 POP POP POP POP POP POP POP PUSH2 0x257 PUSH1 0x40 MLOAD DUP1 PUSH1 0x40 ADD PUSH1 0x40 MSTORE DUP1 PUSH1 0x15 DUP2 MSTORE PUSH1 0x20 ADD PUSH32 0x436865636B2076616C75655F6F75747075745F313A0000000000000000000000 DUP2 MSTORE POP DUP8 PUSH2 0x716 JUMP JUMPDEST PUSH2 0x2A3 PUSH1 0x40 MLOAD DUP1 PUSH1 0x40 ADD PUSH1 0x40 MSTORE DUP1 PUSH1 0x14 DUP2 MSTORE PUSH1 0x20 ADD PUSH32 0x436865636B207363726970745F646174615F313A000000000000000000000000 DUP2 MSTORE POP PUSH2 0x29E DUP8 PUSH1 0x0 SHR PUSH1 0x20 PUSH2 0x7B2 JUMP JUMPDEST PUSH2 0x9F8 JUMP JUMPDEST PUSH2 0x2E2 PUSH1 0x40 MLOAD DUP1 PUSH1 0x40 ADD PUSH1 0x40 MSTORE DUP1 PUSH1 0x15 DUP2 MSTORE PUSH1 0x20 ADD PUSH32 0x436865636B2076616C75655F6F75747075745F323A0000000000000000000000 DUP2 MSTORE POP DUP6 PUSH2 0x716 JUMP JUMPDEST PUSH2 0x32E PUSH1 0x40 MLOAD DUP1 PUSH1 0x40 ADD PUSH1 0x40 MSTORE DUP1 PUSH1 0x14 DUP2 MSTORE PUSH1 0x20 ADD PUSH32 0x436865636B207363726970745F646174615F323A000000000000000000000000 DUP2 MSTORE POP PUSH2 0x329 DUP6 PUSH1 0x0 SHR PUSH1 0x20 PUSH2 0x7B2 JUMP JUMPDEST PUSH2 0x9F8 JUMP JUMPDEST PUSH2 0x36D PUSH1 0x40 MLOAD DUP1 PUSH1 0x40 ADD PUSH1 0x40 MSTORE DUP1 PUSH1 0x15 DUP2 MSTORE PUSH1 0x20 ADD PUSH32 0x436865636B2076616C75655F6F75747075745F333A0000000000000000000000 DUP2 MSTORE POP DUP4 PUSH2 0x716 JUMP JUMPDEST PUSH2 0x3B9 PUSH1 0x40 MLOAD DUP1 PUSH1 0x40 ADD PUSH1 0x40 MSTORE DUP1 PUSH1 0x14 DUP2 MSTORE PUSH1 0x20 ADD PUSH32 0x436865636B207363726970745F646174615F333A000000000000000000000000 DUP2 MSTORE POP PUSH2 0x3B4 DUP4 PUSH1 0x0 SHR PUSH1 0x20 PUSH2 0x7B2 JUMP JUMPDEST PUSH2 0x9F8 JUMP JUMPDEST DUP6 DUP6 DUP6 DUP6 DUP6 DUP6 SWAP12 POP SWAP12 POP SWAP12 POP SWAP12 POP SWAP12 POP SWAP12 POP POP POP POP POP POP POP SWAP2 SWAP4 SWAP6 POP SWAP2 SWAP4 SWAP6 JUMP JUMPDEST POP POP POP POP JUMP JUMPDEST PUSH1 0x0 PUSH2 0x3EF DUP7 DUP7 DUP7 DUP7 DUP7 PUSH2 0xA94 JUMP JUMPDEST SWAP1 POP SWAP6 SWAP5 POP POP POP POP POP JUMP JUMPDEST POP POP POP JUMP JUMPDEST PUSH1 0x5 SLOAD DUP2 JUMP JUMPDEST PUSH1 0x4 SLOAD DUP2 JUMP JUMPDEST PUSH1 0x0 DUP1 PUSH1 0x0 DUP1 PUSH1 0x0 DUP1 PUSH1 0x0 DUP1 PUSH1 0x2 PUSH8 0xFFFFFFFFFFFFFFFF DUP2 GT ISZERO PUSH2 0x432 JUMPI PUSH2 0x431 PUSH2 0x1D0E JUMP JUMPDEST JUMPDEST PUSH1 0x40 MLOAD SWAP1 DUP1 DUP3 MSTORE DUP1 PUSH1 0x20 MUL PUSH1 0x20 ADD DUP3 ADD PUSH1 0x40 MSTORE DUP1 ISZERO PUSH2 0x460 JUMPI DUP2 PUSH1 0x20 ADD PUSH1 0x20 DUP3 MUL DUP1 CALLDATASIZE DUP4 CALLDATACOPY DUP1 DUP3 ADD SWAP2 POP POP SWAP1 POP JUMPDEST POP SWAP1 POP PUSH1 0x0 PUSH1 0x3 PUSH8 0xFFFFFFFFFFFFFFFF DUP2 GT ISZERO PUSH2 0x480 JUMPI PUSH2 0x47F PUSH2 0x1D0E JUMP JUMPDEST JUMPDEST PUSH1 0x40 MLOAD SWAP1 DUP1 DUP3 MSTORE DUP1 PUSH1 0x20 MUL PUSH1 0x20 ADD DUP3 ADD PUSH1 0x40 MSTORE DUP1 ISZERO PUSH2 0x4AE JUMPI DUP2 PUSH1 0x20 ADD PUSH1 0x20 DUP3 MUL DUP1 CALLDATASIZE DUP4 CALLDATACOPY DUP1 DUP3 ADD SWAP2 POP POP SWAP1 POP JUMPDEST POP SWAP1 POP PUSH1 0x0 PUSH1 0x3 PUSH8 0xFFFFFFFFFFFFFFFF DUP2 GT ISZERO PUSH2 0x4CE JUMPI PUSH2 0x4CD PUSH2 0x1D0E JUMP JUMPDEST JUMPDEST PUSH1 0x40 MLOAD SWAP1 DUP1 DUP3 MSTORE DUP1 PUSH1 0x20 MUL PUSH1 0x20 ADD DUP3 ADD PUSH1 0x40 MSTORE DUP1 ISZERO PUSH2 0x4FC JUMPI DUP2 PUSH1 0x20 ADD PUSH1 0x20 DUP3 MUL DUP1 CALLDATASIZE DUP4 CALLDATACOPY DUP1 DUP3 ADD SWAP2 POP POP SWAP1 POP JUMPDEST POP SWAP1 POP PUSH1 0x0 PUSH1 0x3 PUSH8 0xFFFFFFFFFFFFFFFF DUP2 GT ISZERO PUSH2 0x51C JUMPI PUSH2 0x51B PUSH2 0x1D0E JUMP JUMPDEST JUMPDEST PUSH1 0x40 MLOAD SWAP1 DUP1 DUP3 MSTORE DUP1 PUSH1 0x20 MUL PUSH1 0x20 ADD DUP3 ADD PUSH1 0x40 MSTORE DUP1 ISZERO PUSH2 0x54A JUMPI DUP2 PUSH1 0x20 ADD PUSH1 0x20 DUP3 MUL DUP1 CALLDATASIZE DUP4 CALLDATACOPY DUP1 DUP3 ADD SWAP2 POP POP SWAP1 POP JUMPDEST POP SWAP1 POP PUSH1 0x0 PUSH1 0x3 PUSH8 0xFFFFFFFFFFFFFFFF DUP2 GT ISZERO PUSH2 0x56A JUMPI PUSH2 0x569 PUSH2 0x1D0E JUMP JUMPDEST JUMPDEST PUSH1 0x40 MLOAD SWAP1 DUP1 DUP3 MSTORE DUP1 PUSH1 0x20 MUL PUSH1 0x20 ADD DUP3 ADD PUSH1 0x40 MSTORE DUP1 ISZERO PUSH2 0x598 JUMPI DUP2 PUSH1 0x20 ADD PUSH1 0x20 DUP3 MUL DUP1 CALLDATASIZE DUP4 CALLDATACOPY DUP1 DUP3 ADD SWAP2 POP POP SWAP1 POP JUMPDEST POP SWAP1 POP PUSH1 0x4 SWAP6 POP PUSH2 0x5AB DUP14 DUP8 PUSH1 0x0 PUSH2 0xB76 JUMP JUMPDEST DUP1 SWAP8 POP DUP2 SWAP7 POP POP POP PUSH2 0x5BF DUP14 DUP8 PUSH1 0x0 PUSH2 0xC88 JUMP JUMPDEST DUP1 SWAP10 POP DUP2 SWAP8 POP DUP3 SWAP7 POP DUP4 SWAP6 POP POP POP POP POP PUSH1 0x0 JUMPDEST PUSH1 0x3 DUP2 LT ISZERO PUSH2 0x652 JUMPI PUSH1 0x0 PUSH2 0x61C DUP16 DUP7 DUP5 DUP2 MLOAD DUP2 LT PUSH2 0x5F4 JUMPI PUSH2 0x5F3 PUSH2 0x21A0 JUMP JUMPDEST JUMPDEST PUSH1 0x20 MUL PUSH1 0x20 ADD ADD MLOAD DUP9 DUP6 DUP2 MLOAD DUP2 LT PUSH2 0x60F JUMPI PUSH2 0x60E PUSH2 0x21A0 JUMP JUMPDEST JUMPDEST PUSH1 0x20 MUL PUSH1 0x20 ADD ADD MLOAD PUSH2 0xE7F JUMP JUMPDEST SWAP1 POP DUP1 DUP4 DUP4 DUP2 MLOAD DUP2 LT PUSH2 0x632 JUMPI PUSH2 0x631 PUSH2 0x21A0 JUMP JUMPDEST JUMPDEST PUSH1 0x20 MUL PUSH1 0x20 ADD ADD DUP2 DUP2 MSTORE POP POP POP DUP1 DUP1 PUSH2 0x64A SWAP1 PUSH2 0x21FE JUMP JUMPDEST SWAP2 POP POP PUSH2 0x5D2 JUMP JUMPDEST POP DUP2 PUSH1 0x0 DUP2 MLOAD DUP2 LT PUSH2 0x667 JUMPI PUSH2 0x666 PUSH2 0x21A0 JUMP JUMPDEST JUMPDEST PUSH1 0x20 MUL PUSH1 0x20 ADD ADD MLOAD DUP2 PUSH1 0x0 DUP2 MLOAD DUP2 LT PUSH2 0x683 JUMPI PUSH2 0x682 PUSH2 0x21A0 JUMP JUMPDEST JUMPDEST PUSH1 0x20 MUL PUSH1 0x20 ADD ADD MLOAD DUP4 PUSH1 0x1 DUP2 MLOAD DUP2 LT PUSH2 0x69F JUMPI PUSH2 0x69E PUSH2 0x21A0 JUMP JUMPDEST JUMPDEST PUSH1 0x20 MUL PUSH1 0x20 ADD ADD MLOAD DUP4 PUSH1 0x1 DUP2 MLOAD DUP2 LT PUSH2 0x6BB JUMPI PUSH2 0x6BA PUSH2 0x21A0 JUMP JUMPDEST JUMPDEST PUSH1 0x20 MUL PUSH1 0x20 ADD ADD MLOAD DUP6 PUSH1 0x2 DUP2 MLOAD DUP2 LT PUSH2 0x6D7 JUMPI PUSH2 0x6D6 PUSH2 0x21A0 JUMP JUMPDEST JUMPDEST PUSH1 0x20 MUL PUSH1 0x20 ADD ADD MLOAD DUP6 PUSH1 0x2 DUP2 MLOAD DUP2 LT PUSH2 0x6F3 JUMPI PUSH2 0x6F2 PUSH2 0x21A0 JUMP JUMPDEST JUMPDEST PUSH1 0x20 MUL PUSH1 0x20 ADD ADD MLOAD SWAP12 POP SWAP12 POP SWAP12 POP SWAP12 POP SWAP12 POP SWAP12 POP POP POP POP POP POP POP SWAP2 SWAP4 SWAP6 POP SWAP2 SWAP4 SWAP6 JUMP JUMPDEST PUSH2 0x7AE DUP3 DUP3 PUSH1 0x40 MLOAD PUSH1 0x24 ADD PUSH2 0x72C SWAP3 SWAP2 SWAP1 PUSH2 0x22C5 JUMP JUMPDEST PUSH1 0x40 MLOAD PUSH1 0x20 DUP2 DUP4 SUB SUB DUP2 MSTORE SWAP1 PUSH1 0x40 MSTORE PUSH32 0xB60E72CC00000000000000000000000000000000000000000000000000000000 PUSH28 0xFFFFFFFFFFFFFFFFFFFFFFFFFFFFFFFFFFFFFFFFFFFFFFFFFFFFFFFF NOT AND PUSH1 0x20 DUP3 ADD DUP1 MLOAD PUSH28 0xFFFFFFFFFFFFFFFFFFFFFFFFFFFFFFFFFFFFFFFFFFFFFFFFFFFFFFFF DUP4 DUP2 DUP4 AND OR DUP4 MSTORE POP POP POP POP PUSH2 0xF34 JUMP JUMPDEST POP POP JUMP JUMPDEST PUSH1 0x60 PUSH1 0x0 DUP4 SWAP1 POP PUSH1 0x0 PUSH1 0x2 DUP5 PUSH1 0x2 PUSH2 0x7CA SWAP2 SWAP1 PUSH2 0x22F5 JUMP JUMPDEST PUSH2 0x7D4 SWAP2 SWAP1 PUSH2 0x2337 JUMP JUMPDEST PUSH8 0xFFFFFFFFFFFFFFFF DUP2 GT ISZERO PUSH2 0x7ED JUMPI PUSH2 0x7EC PUSH2 0x1D0E JUMP JUMPDEST JUMPDEST PUSH1 0x40 MLOAD SWAP1 DUP1 DUP3 MSTORE DUP1 PUSH1 0x1F ADD PUSH1 0x1F NOT AND PUSH1 0x20 ADD DUP3 ADD PUSH1 0x40 MSTORE DUP1 ISZERO PUSH2 0x81F JUMPI DUP2 PUSH1 0x20 ADD PUSH1 0x1 DUP3 MUL DUP1 CALLDATASIZE DUP4 CALLDATACOPY DUP1 DUP3 ADD SWAP2 POP POP SWAP1 POP JUMPDEST POP SWAP1 POP PUSH32 0x3000000000000000000000000000000000000000000000000000000000000000 DUP2 PUSH1 0x0 DUP2 MLOAD DUP2 LT PUSH2 0x857 JUMPI PUSH2 0x856 PUSH2 0x21A0 JUMP JUMPDEST JUMPDEST PUSH1 0x20 ADD ADD SWAP1 PUSH31 0xFFFFFFFFFFFFFFFFFFFFFFFFFFFFFFFFFFFFFFFFFFFFFFFFFFFFFFFFFFFFFF NOT AND SWAP1 DUP2 PUSH1 0x0 BYTE SWAP1 MSTORE8 POP PUSH32 0x7800000000000000000000000000000000000000000000000000000000000000 DUP2 PUSH1 0x1 DUP2 MLOAD DUP2 LT PUSH2 0x8BB JUMPI PUSH2 0x8BA PUSH2 0x21A0 JUMP JUMPDEST JUMPDEST PUSH1 0x20 ADD ADD SWAP1 PUSH31 0xFFFFFFFFFFFFFFFFFFFFFFFFFFFFFFFFFFFFFFFFFFFFFFFFFFFFFFFFFFFFFF NOT AND SWAP1 DUP2 PUSH1 0x0 BYTE SWAP1 MSTORE8 POP PUSH1 0x0 PUSH1 0x1 DUP6 PUSH1 0x2 PUSH2 0x8FB SWAP2 SWAP1 PUSH2 0x22F5 JUMP JUMPDEST PUSH2 0x905 SWAP2 SWAP1 PUSH2 0x2337 JUMP JUMPDEST SWAP1 POP JUMPDEST PUSH1 0x1 DUP2 GT ISZERO PUSH2 0x9A5 JUMPI PUSH32 0x3031323334353637383961626364656600000000000000000000000000000000 PUSH1 0xF DUP5 AND PUSH1 0x10 DUP2 LT PUSH2 0x947 JUMPI PUSH2 0x946 PUSH2 0x21A0 JUMP JUMPDEST JUMPDEST BYTE PUSH1 0xF8 SHL DUP3 DUP3 DUP2 MLOAD DUP2 LT PUSH2 0x95E JUMPI PUSH2 0x95D PUSH2 0x21A0 JUMP JUMPDEST JUMPDEST PUSH1 0x20 ADD ADD SWAP1 PUSH31 0xFFFFFFFFFFFFFFFFFFFFFFFFFFFFFFFFFFFFFFFFFFFFFFFFFFFFFFFFFFFFFF NOT AND SWAP1 DUP2 PUSH1 0x0 BYTE SWAP1 MSTORE8 POP PUSH1 0x4 DUP4 SWAP1 SHR SWAP3 POP DUP1 PUSH2 0x99E SWAP1 PUSH2 0x236B JUMP JUMPDEST SWAP1 POP PUSH2 0x908 JUMP JUMPDEST POP PUSH1 0x0 DUP3 EQ PUSH2 0x9ED JUMPI DUP5 DUP5 PUSH1 0x40 MLOAD PUSH32 0xE22E27EB00000000000000000000000000000000000000000000000000000000 DUP2 MSTORE PUSH1 0x4 ADD PUSH2 0x9E4 SWAP3 SWAP2 SWAP1 PUSH2 0x2394 JUMP JUMPDEST PUSH1 0x40 MLOAD DUP1 SWAP2 SUB SWAP1 REVERT JUMPDEST DUP1 SWAP3 POP POP POP SWAP3 SWAP2 POP POP JUMP JUMPDEST PUSH2 0xA90 DUP3 DUP3 PUSH1 0x40 MLOAD PUSH1 0x24 ADD PUSH2 0xA0E SWAP3 SWAP2 SWAP1 PUSH2 0x23BD JUMP JUMPDEST PUSH1 0x40 MLOAD PUSH1 0x20 DUP2 DUP4 SUB SUB DUP2 MSTORE SWAP1 PUSH1 0x40 MSTORE PUSH32 0x4B5C427700000000000000000000000000000000000000000000000000000000 PUSH28 0xFFFFFFFFFFFFFFFFFFFFFFFFFFFFFFFFFFFFFFFFFFFFFFFFFFFFFFFF NOT AND PUSH1 0x20 DUP3 ADD DUP1 MLOAD PUSH28 0xFFFFFFFFFFFFFFFFFFFFFFFFFFFFFFFFFFFFFFFFFFFFFFFFFFFFFFFF DUP4 DUP2 DUP4 AND OR DUP4 MSTORE POP POP POP POP PUSH2 0xF34 JUMP JUMPDEST POP POP JUMP JUMPDEST PUSH1 0x0 PUSH1 0x40 DUP7 MLOAD EQ PUSH2 0xADA JUMPI PUSH1 0x40 MLOAD PUSH32 0x8C379A000000000000000000000000000000000000000000000000000000000 DUP2 MSTORE PUSH1 0x4 ADD PUSH2 0xAD1 SWAP1 PUSH2 0x248C JUMP JUMPDEST PUSH1 0x40 MLOAD DUP1 SWAP2 SUB SWAP1 REVERT JUMPDEST PUSH1 0x0 PUSH2 0xAE5 DUP8 PUSH2 0xF4E JUMP JUMPDEST SWAP1 POP PUSH1 0x0 PUSH1 0x1 DUP8 DUP8 DUP8 DUP8 PUSH1 0x40 MLOAD PUSH1 0x0 DUP2 MSTORE PUSH1 0x20 ADD PUSH1 0x40 MSTORE PUSH1 0x40 MLOAD PUSH2 0xB0C SWAP5 SWAP4 SWAP3 SWAP2 SWAP1 PUSH2 0x24BB JUMP JUMPDEST PUSH1 0x20 PUSH1 0x40 MLOAD PUSH1 0x20 DUP2 SUB SWAP1 DUP1 DUP5 SUB SWAP1 DUP6 GAS STATICCALL ISZERO DUP1 ISZERO PUSH2 0xB2E JUMPI RETURNDATASIZE PUSH1 0x0 DUP1 RETURNDATACOPY RETURNDATASIZE PUSH1 0x0 REVERT JUMPDEST POP POP POP PUSH1 0x20 PUSH1 0x40 MLOAD SUB MLOAD SWAP1 POP DUP2 PUSH20 0xFFFFFFFFFFFFFFFFFFFFFFFFFFFFFFFFFFFFFFFF AND DUP2 PUSH20 0xFFFFFFFFFFFFFFFFFFFFFFFFFFFFFFFFFFFFFFFF AND EQ SWAP3 POP POP POP SWAP6 SWAP5 POP POP POP POP POP JUMP JUMPDEST PUSH1 0x60 PUSH1 0x0 DUP1 PUSH1 0x0 DUP1 PUSH2 0xB88 DUP9 DUP9 PUSH2 0xFC6 JUMP JUMPDEST DUP1 SWAP9 POP DUP2 SWAP5 POP POP POP PUSH1 0x0 DUP7 EQ DUP1 PUSH2 0xB9E JUMPI POP DUP3 DUP7 GT JUMPDEST ISZERO PUSH2 0xBAB JUMPI DUP3 SWAP2 POP PUSH2 0xBAF JUMP JUMPDEST DUP6 SWAP2 POP JUMPDEST PUSH1 0x0 DUP3 PUSH8 0xFFFFFFFFFFFFFFFF DUP2 GT ISZERO PUSH2 0xBCB JUMPI PUSH2 0xBCA PUSH2 0x1D0E JUMP JUMPDEST JUMPDEST PUSH1 0x40 MLOAD SWAP1 DUP1 DUP3 MSTORE DUP1 PUSH1 0x20 MUL PUSH1 0x20 ADD DUP3 ADD PUSH1 0x40 MSTORE DUP1 ISZERO PUSH2 0xBF9 JUMPI DUP2 PUSH1 0x20 ADD PUSH1 0x20 DUP3 MUL DUP1 CALLDATASIZE DUP4 CALLDATACOPY DUP1 DUP3 ADD SWAP2 POP POP SWAP1 POP JUMPDEST POP SWAP1 POP PUSH1 0x0 JUMPDEST DUP4 DUP2 LT ISZERO PUSH2 0xC75 JUMPI PUSH1 0x24 DUP10 PUSH2 0xC14 SWAP2 SWAP1 PUSH2 0x2337 JUMP JUMPDEST SWAP9 POP PUSH2 0xC20 DUP11 DUP11 PUSH2 0xFC6 JUMP JUMPDEST DUP1 SWAP11 POP DUP2 SWAP5 POP POP POP DUP3 DUP3 DUP3 DUP2 MLOAD DUP2 LT PUSH2 0xC3C JUMPI PUSH2 0xC3B PUSH2 0x21A0 JUMP JUMPDEST JUMPDEST PUSH1 0x20 MUL PUSH1 0x20 ADD ADD DUP2 DUP2 MSTORE POP POP PUSH1 0x4 DUP4 PUSH2 0xC55 SWAP2 SWAP1 PUSH2 0x2337 JUMP JUMPDEST DUP10 PUSH2 0xC60 SWAP2 SWAP1 PUSH2 0x2337 JUMP JUMPDEST SWAP9 POP DUP1 DUP1 PUSH2 0xC6D SWAP1 PUSH2 0x21FE JUMP JUMPDEST SWAP2 POP POP PUSH2 0xBFF JUMP JUMPDEST POP DUP1 DUP9 SWAP6 POP SWAP6 POP POP POP POP POP SWAP4 POP SWAP4 SWAP2 POP POP JUMP JUMPDEST PUSH1 0x60 DUP1 PUSH1 0x60 PUSH1 0x0 DUP1 PUSH1 0x0 DUP1 PUSH2 0xC9D DUP11 DUP11 PUSH2 0xFC6 JUMP JUMPDEST DUP1 SWAP11 POP DUP2 SWAP5 POP POP POP PUSH1 0x0 DUP9 EQ DUP1 PUSH2 0xCB3 JUMPI POP DUP3 DUP9 GT JUMPDEST ISZERO PUSH2 0xCC0 JUMPI DUP3 SWAP2 POP PUSH2 0xCC4 JUMP JUMPDEST DUP8 SWAP2 POP JUMPDEST PUSH1 0x0 DUP3 PUSH8 0xFFFFFFFFFFFFFFFF DUP2 GT ISZERO PUSH2 0xCE0 JUMPI PUSH2 0xCDF PUSH2 0x1D0E JUMP JUMPDEST JUMPDEST PUSH1 0x40 MLOAD SWAP1 DUP1 DUP3 MSTORE DUP1 PUSH1 0x20 MUL PUSH1 0x20 ADD DUP3 ADD PUSH1 0x40 MSTORE DUP1 ISZERO PUSH2 0xD0E JUMPI DUP2 PUSH1 0x20 ADD PUSH1 0x20 DUP3 MUL DUP1 CALLDATASIZE DUP4 CALLDATACOPY DUP1 DUP3 ADD SWAP2 POP POP SWAP1 POP JUMPDEST POP SWAP1 POP PUSH1 0x0 DUP4 PUSH8 0xFFFFFFFFFFFFFFFF DUP2 GT ISZERO PUSH2 0xD2D JUMPI PUSH2 0xD2C PUSH2 0x1D0E JUMP JUMPDEST JUMPDEST PUSH1 0x40 MLOAD SWAP1 DUP1 DUP3 MSTORE DUP1 PUSH1 0x20 MUL PUSH1 0x20 ADD DUP3 ADD PUSH1 0x40 MSTORE DUP1 ISZERO PUSH2 0xD5B JUMPI DUP2 PUSH1 0x20 ADD PUSH1 0x20 DUP3 MUL DUP1 CALLDATASIZE DUP4 CALLDATACOPY DUP1 DUP3 ADD SWAP2 POP POP SWAP1 POP JUMPDEST POP SWAP1 POP PUSH1 0x0 DUP5 PUSH8 0xFFFFFFFFFFFFFFFF DUP2 GT ISZERO PUSH2 0xD7A JUMPI PUSH2 0xD79 PUSH2 0x1D0E JUMP JUMPDEST JUMPDEST PUSH1 0x40 MLOAD SWAP1 DUP1 DUP3 MSTORE DUP1 PUSH1 0x20 MUL PUSH1 0x20 ADD DUP3 ADD PUSH1 0x40 MSTORE DUP1 ISZERO PUSH2 0xDA8 JUMPI DUP2 PUSH1 0x20 ADD PUSH1 0x20 DUP3 MUL DUP1 CALLDATASIZE DUP4 CALLDATACOPY DUP1 DUP3 ADD SWAP2 POP POP SWAP1 POP JUMPDEST POP SWAP1 POP PUSH1 0x0 JUMPDEST DUP6 DUP2 LT ISZERO PUSH2 0xE63 JUMPI PUSH2 0xDC2 DUP15 DUP15 PUSH1 0x40 PUSH2 0x10AE JUMP JUMPDEST DUP3 DUP3 DUP2 MLOAD DUP2 LT PUSH2 0xDD5 JUMPI PUSH2 0xDD4 PUSH2 0x21A0 JUMP JUMPDEST JUMPDEST PUSH1 0x20 MUL PUSH1 0x20 ADD ADD DUP2 DUP2 MSTORE POP POP PUSH1 0x8 DUP14 PUSH2 0xDEE SWAP2 SWAP1 PUSH2 0x2337 JUMP JUMPDEST SWAP13 POP PUSH2 0xDFA DUP15 DUP15 PUSH2 0xFC6 JUMP JUMPDEST DUP1 SWAP15 POP DUP2 SWAP7 POP POP POP DUP13 DUP5 DUP3 DUP2 MLOAD DUP2 LT PUSH2 0xE16 JUMPI PUSH2 0xE15 PUSH2 0x21A0 JUMP JUMPDEST JUMPDEST PUSH1 0x20 MUL PUSH1 0x20 ADD ADD DUP2 DUP2 MSTORE POP POP DUP5 DUP4 DUP3 DUP2 MLOAD DUP2 LT PUSH2 0xE36 JUMPI PUSH2 0xE35 PUSH2 0x21A0 JUMP JUMPDEST JUMPDEST PUSH1 0x20 MUL PUSH1 0x20 ADD ADD DUP2 DUP2 MSTORE POP POP DUP5 DUP14 PUSH2 0xE4E SWAP2 SWAP1 PUSH2 0x2337 JUMP JUMPDEST SWAP13 POP DUP1 DUP1 PUSH2 0xE5B SWAP1 PUSH2 0x21FE JUMP JUMPDEST SWAP2 POP POP PUSH2 0xDAE JUMP JUMPDEST POP DUP1 DUP4 DUP4 DUP15 SWAP10 POP SWAP10 POP SWAP10 POP SWAP10 POP POP POP POP POP POP POP SWAP4 POP SWAP4 POP SWAP4 POP SWAP4 JUMP JUMPDEST PUSH1 0x0 PUSH2 0xE8C DUP5 DUP5 DUP5 PUSH2 0x1519 JUMP JUMPDEST ISZERO PUSH2 0xEBD JUMPI PUSH2 0xEA7 DUP5 PUSH1 0x3 DUP6 PUSH2 0xEA2 SWAP2 SWAP1 PUSH2 0x2337 JUMP JUMPDEST PUSH2 0x16DE JUMP JUMPDEST PUSH12 0xFFFFFFFFFFFFFFFFFFFFFFFF NOT AND SWAP1 POP PUSH2 0xF2D JUMP JUMPDEST PUSH2 0xEC8 DUP5 DUP5 DUP5 PUSH2 0x17C1 JUMP JUMPDEST ISZERO PUSH2 0xEF9 JUMPI PUSH2 0xEE3 DUP5 PUSH1 0x2 DUP6 PUSH2 0xEDE SWAP2 SWAP1 PUSH2 0x2337 JUMP JUMPDEST PUSH2 0x16DE JUMP JUMPDEST PUSH12 0xFFFFFFFFFFFFFFFFFFFFFFFF NOT AND SWAP1 POP PUSH2 0xF2D JUMP JUMPDEST PUSH2 0xF04 DUP5 DUP5 DUP5 PUSH2 0x18DE JUMP JUMPDEST ISZERO PUSH2 0xF26 JUMPI PUSH2 0xF1F DUP5 PUSH1 0x2 DUP6 PUSH2 0xF1A SWAP2 SWAP1 PUSH2 0x2337 JUMP JUMPDEST PUSH2 0x19A1 JUMP JUMPDEST SWAP1 POP PUSH2 0xF2D JUMP JUMPDEST PUSH1 0x0 DUP1 SHL SWAP1 POP JUMPDEST SWAP4 SWAP3 POP POP POP JUMP JUMPDEST PUSH2 0xF4B DUP2 PUSH2 0xF43 PUSH2 0x1A2C PUSH2 0x1A4D JUMP JUMPDEST PUSH4 0xFFFFFFFF AND JUMP JUMPDEST POP JUMP JUMPDEST PUSH1 0x0 PUSH1 0x40 DUP3 MLOAD EQ PUSH2 0xF94 JUMPI PUSH1 0x40 MLOAD PUSH32 0x8C379A000000000000000000000000000000000000000000000000000000000 DUP2 MSTORE PUSH1 0x4 ADD PUSH2 0xF8B SWAP1 PUSH2 0x2572 JUMP JUMPDEST PUSH1 0x40 MLOAD DUP1 SWAP2 SUB SWAP1 REVERT JUMPDEST PUSH1 0x0 PUSH2 0xFB8 PUSH2 0xFAD PUSH1 0x0 DUP6 PUSH2 0x1A58 SWAP1 SWAP2 SWAP1 PUSH4 0xFFFFFFFF AND JUMP JUMPDEST PUSH3 0xFFFFFF NOT AND PUSH2 0x1A83 JUMP JUMPDEST SWAP1 POP DUP1 PUSH1 0x0 SHR SWAP2 POP POP SWAP2 SWAP1 POP JUMP JUMPDEST PUSH1 0x0 DUP1 PUSH1 0x0 DUP5 DUP5 DUP2 MLOAD DUP2 LT PUSH2 0xFDE JUMPI PUSH2 0xFDD PUSH2 0x21A0 JUMP JUMPDEST JUMPDEST PUSH1 0x20 ADD ADD MLOAD PUSH1 0xF8 SHR PUSH1 0xF8 SHL PUSH1 0xF8 SHR SWAP1 POP PUSH1 0x1 DUP5 PUSH2 0xFFB SWAP2 SWAP1 PUSH2 0x2337 JUMP JUMPDEST SWAP4 POP PUSH1 0xFD DUP2 PUSH1 0xFF AND LT ISZERO PUSH2 0x101B JUMPI DUP1 DUP5 DUP2 PUSH1 0xFF AND SWAP2 POP SWAP3 POP SWAP3 POP POP PUSH2 0x10A7 JUMP JUMPDEST PUSH1 0xFD DUP2 PUSH1 0xFF AND SUB PUSH2 0x1049 JUMPI PUSH2 0x1032 DUP6 DUP6 PUSH1 0x10 PUSH2 0x10AE JUMP JUMPDEST PUSH1 0x2 DUP6 PUSH2 0x103F SWAP2 SWAP1 PUSH2 0x2337 JUMP JUMPDEST SWAP3 POP SWAP3 POP POP PUSH2 0x10A7 JUMP JUMPDEST PUSH1 0xFE DUP2 PUSH1 0xFF AND SUB PUSH2 0x1077 JUMPI PUSH2 0x1060 DUP6 DUP6 PUSH1 0x20 PUSH2 0x10AE JUMP JUMPDEST PUSH1 0x4 DUP6 PUSH2 0x106D SWAP2 SWAP1 PUSH2 0x2337 JUMP JUMPDEST SWAP3 POP SWAP3 POP POP PUSH2 0x10A7 JUMP JUMPDEST PUSH1 0xFF DUP2 PUSH1 0xFF AND SUB PUSH2 0x10A5 JUMPI PUSH2 0x108E DUP6 DUP6 PUSH1 0x40 PUSH2 0x10AE JUMP JUMPDEST PUSH1 0x8 DUP6 PUSH2 0x109B SWAP2 SWAP1 PUSH2 0x2337 JUMP JUMPDEST SWAP3 POP SWAP3 POP POP PUSH2 0x10A7 JUMP JUMPDEST POP JUMPDEST SWAP3 POP SWAP3 SWAP1 POP JUMP JUMPDEST PUSH1 0x0 PUSH1 0x8 DUP3 SUB PUSH2 0x10E3 JUMPI DUP4 DUP4 DUP2 MLOAD DUP2 LT PUSH2 0x10CB JUMPI PUSH2 0x10CA PUSH2 0x21A0 JUMP JUMPDEST JUMPDEST PUSH1 0x20 ADD ADD MLOAD PUSH1 0xF8 SHR PUSH1 0xF8 SHL PUSH1 0xF8 SHR PUSH1 0xFF AND SWAP1 POP PUSH2 0x1512 JUMP JUMPDEST PUSH1 0x10 DUP3 SUB PUSH2 0x1165 JUMPI PUSH2 0x100 DUP5 PUSH1 0x1 DUP6 PUSH2 0x10FC SWAP2 SWAP1 PUSH2 0x2337 JUMP JUMPDEST DUP2 MLOAD DUP2 LT PUSH2 0x110D JUMPI PUSH2 0x110C PUSH2 0x21A0 JUMP JUMPDEST JUMPDEST PUSH1 0x20 ADD ADD MLOAD PUSH1 0xF8 SHR PUSH1 0xF8 SHL PUSH1 0xF8 SHR PUSH1 0xFF AND PUSH2 0x1128 SWAP2 SWAP1 PUSH2 0x25A0 JUMP JUMPDEST PUSH2 0xFFFF AND DUP5 DUP5 DUP2 MLOAD DUP2 LT PUSH2 0x113F JUMPI PUSH2 0x113E PUSH2 0x21A0 JUMP JUMPDEST JUMPDEST PUSH1 0x20 ADD ADD MLOAD PUSH1 0xF8 SHR PUSH1 0xF8 SHL PUSH1 0xF8 SHR PUSH1 0xFF AND PUSH2 0xFFFF AND PUSH2 0x115E SWAP2 SWAP1 PUSH2 0x2337 JUMP JUMPDEST SWAP1 POP PUSH2 0x1512 JUMP JUMPDEST PUSH1 0x20 DUP3 SUB PUSH2 0x1288 JUMPI PUSH4 0x1000000 DUP5 PUSH1 0x3 DUP6 PUSH2 0x1180 SWAP2 SWAP1 PUSH2 0x2337 JUMP JUMPDEST DUP2 MLOAD DUP2 LT PUSH2 0x1191 JUMPI PUSH2 0x1190 PUSH2 0x21A0 JUMP JUMPDEST JUMPDEST PUSH1 0x20 ADD ADD MLOAD PUSH1 0xF8 SHR PUSH1 0xF8 SHL PUSH1 0xF8 SHR PUSH1 0xFF AND PUSH2 0x11AC SWAP2 SWAP1 PUSH2 0x25ED JUMP JUMPDEST PUSH4 0xFFFFFFFF AND PUSH3 0x10000 DUP6 PUSH1 0x2 DUP7 PUSH2 0x11C4 SWAP2 SWAP1 PUSH2 0x2337 JUMP JUMPDEST DUP2 MLOAD DUP2 LT PUSH2 0x11D5 JUMPI PUSH2 0x11D4 PUSH2 0x21A0 JUMP JUMPDEST JUMPDEST PUSH1 0x20 ADD ADD MLOAD PUSH1 0xF8 SHR PUSH1 0xF8 SHL PUSH1 0xF8 SHR PUSH1 0xFF AND PUSH2 0x11F0 SWAP2 SWAP1 PUSH2 0x25ED JUMP JUMPDEST PUSH4 0xFFFFFFFF AND PUSH2 0x100 DUP7 PUSH1 0x1 DUP8 PUSH2 0x1207 SWAP2 SWAP1 PUSH2 0x2337 JUMP JUMPDEST DUP2 MLOAD DUP2 LT PUSH2 0x1218 JUMPI PUSH2 0x1217 PUSH2 0x21A0 JUMP JUMPDEST JUMPDEST PUSH1 0x20 ADD ADD MLOAD PUSH1 0xF8 SHR PUSH1 0xF8 SHL PUSH1 0xF8 SHR PUSH1 0xFF AND PUSH2 0x1233 SWAP2 SWAP1 PUSH2 0x25ED JUMP JUMPDEST PUSH4 0xFFFFFFFF AND DUP7 DUP7 DUP2 MLOAD DUP2 LT PUSH2 0x124C JUMPI PUSH2 0x124B PUSH2 0x21A0 JUMP JUMPDEST JUMPDEST PUSH1 0x20 ADD ADD MLOAD PUSH1 0xF8 SHR PUSH1 0xF8 SHL PUSH1 0xF8 SHR PUSH1 0xFF AND PUSH4 0xFFFFFFFF AND PUSH2 0x126D SWAP2 SWAP1 PUSH2 0x2337 JUMP JUMPDEST PUSH2 0x1277 SWAP2 SWAP1 PUSH2 0x2337 JUMP JUMPDEST PUSH2 0x1281 SWAP2 SWAP1 PUSH2 0x2337 JUMP JUMPDEST SWAP1 POP PUSH2 0x1512 JUMP JUMPDEST PUSH1 0x40 DUP3 SUB PUSH2 0x1511 JUMPI PUSH8 0x100000000000000 DUP5 PUSH1 0x7 DUP6 PUSH2 0x12A7 SWAP2 SWAP1 PUSH2 0x2337 JUMP JUMPDEST DUP2 MLOAD DUP2 LT PUSH2 0x12B8 JUMPI PUSH2 0x12B7 PUSH2 0x21A0 JUMP JUMPDEST JUMPDEST PUSH1 0x20 ADD ADD MLOAD PUSH1 0xF8 SHR PUSH1 0xF8 SHL PUSH1 0xF8 SHR PUSH1 0xFF AND PUSH2 0x12D3 SWAP2 SWAP1 PUSH2 0x263E JUMP JUMPDEST PUSH8 0xFFFFFFFFFFFFFFFF AND PUSH7 0x1000000000000 DUP6 PUSH1 0x6 DUP7 PUSH2 0x12F3 SWAP2 SWAP1 PUSH2 0x2337 JUMP JUMPDEST DUP2 MLOAD DUP2 LT PUSH2 0x1304 JUMPI PUSH2 0x1303 PUSH2 0x21A0 JUMP JUMPDEST JUMPDEST PUSH1 0x20 ADD ADD MLOAD PUSH1 0xF8 SHR PUSH1 0xF8 SHL PUSH1 0xF8 SHR PUSH1 0xFF AND PUSH2 0x131F SWAP2 SWAP1 PUSH2 0x263E JUMP JUMPDEST PUSH8 0xFFFFFFFFFFFFFFFF AND PUSH6 0x10000000000 DUP7 PUSH1 0x5 DUP8 PUSH2 0x133E SWAP2 SWAP1 PUSH2 0x2337 JUMP JUMPDEST DUP2 MLOAD DUP2 LT PUSH2 0x134F JUMPI PUSH2 0x134E PUSH2 0x21A0 JUMP JUMPDEST JUMPDEST PUSH1 0x20 ADD ADD MLOAD PUSH1 0xF8 SHR PUSH1 0xF8 SHL PUSH1 0xF8 SHR PUSH1 0xFF AND PUSH2 0x136A SWAP2 SWAP1 PUSH2 0x263E JUMP JUMPDEST PUSH8 0xFFFFFFFFFFFFFFFF AND PUSH5 0x100000000 DUP8 PUSH1 0x4 DUP9 PUSH2 0x1388 SWAP2 SWAP1 PUSH2 0x2337 JUMP JUMPDEST DUP2 MLOAD DUP2 LT PUSH2 0x1399 JUMPI PUSH2 0x1398 PUSH2 0x21A0 JUMP JUMPDEST JUMPDEST PUSH1 0x20 ADD ADD MLOAD PUSH1 0xF8 SHR PUSH1 0xF8 SHL PUSH1 0xF8 SHR PUSH1 0xFF AND PUSH2 0x13B4 SWAP2 SWAP1 PUSH2 0x263E JUMP JUMPDEST PUSH8 0xFFFFFFFFFFFFFFFF AND PUSH4 0x1000000 DUP9 PUSH1 0x3 DUP10 PUSH2 0x13D1 SWAP2 SWAP1 PUSH2 0x2337 JUMP JUMPDEST DUP2 MLOAD DUP2 LT PUSH2 0x13E2 JUMPI PUSH2 0x13E1 PUSH2 0x21A0 JUMP JUMPDEST JUMPDEST PUSH1 0x20 ADD ADD MLOAD PUSH1 0xF8 SHR PUSH1 0xF8 SHL PUSH1 0xF8 SHR PUSH1 0xFF AND PUSH2 0x13FD SWAP2 SWAP1 PUSH2 0x263E JUMP JUMPDEST PUSH8 0xFFFFFFFFFFFFFFFF AND PUSH3 0x10000 DUP10 PUSH1 0x2 DUP11 PUSH2 0x1419 SWAP2 SWAP1 PUSH2 0x2337 JUMP JUMPDEST DUP2 MLOAD DUP2 LT PUSH2 0x142A JUMPI PUSH2 0x1429 PUSH2 0x21A0 JUMP JUMPDEST JUMPDEST PUSH1 0x20 ADD ADD MLOAD PUSH1 0xF8 SHR PUSH1 0xF8 SHL PUSH1 0xF8 SHR PUSH1 0xFF AND PUSH2 0x1445 SWAP2 SWAP1 PUSH2 0x263E JUMP JUMPDEST PUSH8 0xFFFFFFFFFFFFFFFF AND PUSH2 0x100 DUP11 PUSH1 0x1 DUP12 PUSH2 0x1460 SWAP2 SWAP1 PUSH2 0x2337 JUMP JUMPDEST DUP2 MLOAD DUP2 LT PUSH2 0x1471 JUMPI PUSH2 0x1470 PUSH2 0x21A0 JUMP JUMPDEST JUMPDEST PUSH1 0x20 ADD ADD MLOAD PUSH1 0xF8 SHR PUSH1 0xF8 SHL PUSH1 0xF8 SHR PUSH1 0xFF AND PUSH2 0x148C SWAP2 SWAP1 PUSH2 0x263E JUMP JUMPDEST PUSH8 0xFFFFFFFFFFFFFFFF AND DUP11 DUP11 DUP2 MLOAD DUP2 LT PUSH2 0x14A9 JUMPI PUSH2 0x14A8 PUSH2 0x21A0 JUMP JUMPDEST JUMPDEST PUSH1 0x20 ADD ADD MLOAD PUSH1 0xF8 SHR PUSH1 0xF8 SHL PUSH1 0xF8 SHR PUSH1 0xFF AND PUSH8 0xFFFFFFFFFFFFFFFF AND PUSH2 0x14CE SWAP2 SWAP1 PUSH2 0x2337 JUMP JUMPDEST PUSH2 0x14D8 SWAP2 SWAP1 PUSH2 0x2337 JUMP JUMPDEST PUSH2 0x14E2 SWAP2 SWAP1 PUSH2 0x2337 JUMP JUMPDEST PUSH2 0x14EC SWAP2 SWAP1 PUSH2 0x2337 JUMP JUMPDEST PUSH2 0x14F6 SWAP2 SWAP1 PUSH2 0x2337 JUMP JUMPDEST PUSH2 0x1500 SWAP2 SWAP1 PUSH2 0x2337 JUMP JUMPDEST PUSH2 0x150A SWAP2 SWAP1 PUSH2 0x2337 JUMP JUMPDEST SWAP1 POP PUSH2 0x1512 JUMP JUMPDEST JUMPDEST SWAP4 SWAP3 POP POP POP JUMP JUMPDEST PUSH1 0x0 PUSH1 0x19 DUP3 EQ DUP1 ISZERO PUSH2 0x156D JUMPI POP PUSH1 0x76 PUSH1 0xF8 SHL DUP5 DUP5 DUP2 MLOAD DUP2 LT PUSH2 0x153E JUMPI PUSH2 0x153D PUSH2 0x21A0 JUMP JUMPDEST JUMPDEST PUSH1 0x20 ADD ADD MLOAD PUSH1 0xF8 SHR PUSH1 0xF8 SHL PUSH31 0xFFFFFFFFFFFFFFFFFFFFFFFFFFFFFFFFFFFFFFFFFFFFFFFFFFFFFFFFFFFFFF NOT AND EQ JUMPDEST DUP1 ISZERO PUSH2 0x15C7 JUMPI POP PUSH1 0xA9 PUSH1 0xF8 SHL DUP5 PUSH1 0x1 DUP6 PUSH2 0x1587 SWAP2 SWAP1 PUSH2 0x2337 JUMP JUMPDEST DUP2 MLOAD DUP2 LT PUSH2 0x1598 JUMPI PUSH2 0x1597 PUSH2 0x21A0 JUMP JUMPDEST JUMPDEST PUSH1 0x20 ADD ADD MLOAD PUSH1 0xF8 SHR PUSH1 0xF8 SHL PUSH31 0xFFFFFFFFFFFFFFFFFFFFFFFFFFFFFFFFFFFFFFFFFFFFFFFFFFFFFFFFFFFFFF NOT AND EQ JUMPDEST DUP1 ISZERO PUSH2 0x1621 JUMPI POP PUSH1 0x14 PUSH1 0xF8 SHL DUP5 PUSH1 0x2 DUP6 PUSH2 0x15E1 SWAP2 SWAP1 PUSH2 0x2337 JUMP JUMPDEST DUP2 MLOAD DUP2 LT PUSH2 0x15F2 JUMPI PUSH2 0x15F1 PUSH2 0x21A0 JUMP JUMPDEST JUMPDEST PUSH1 0x20 ADD ADD MLOAD PUSH1 0xF8 SHR PUSH1 0xF8 SHL PUSH31 0xFFFFFFFFFFFFFFFFFFFFFFFFFFFFFFFFFFFFFFFFFFFFFFFFFFFFFFFFFFFFFF NOT AND EQ JUMPDEST DUP1 ISZERO PUSH2 0x167B JUMPI POP PUSH1 0x88 PUSH1 0xF8 SHL DUP5 PUSH1 0x17 DUP6 PUSH2 0x163B SWAP2 SWAP1 PUSH2 0x2337 JUMP JUMPDEST DUP2 MLOAD DUP2 LT PUSH2 0x164C JUMPI PUSH2 0x164B PUSH2 0x21A0 JUMP JUMPDEST JUMPDEST PUSH1 0x20 ADD ADD MLOAD PUSH1 0xF8 SHR PUSH1 0xF8 SHL PUSH31 0xFFFFFFFFFFFFFFFFFFFFFFFFFFFFFFFFFFFFFFFFFFFFFFFFFFFFFFFFFFFFFF NOT AND EQ JUMPDEST DUP1 ISZERO PUSH2 0x16D5 JUMPI POP PUSH1 0xAC PUSH1 0xF8 SHL DUP5 PUSH1 0x18 DUP6 PUSH2 0x1695 SWAP2 SWAP1 PUSH2 0x2337 JUMP JUMPDEST DUP2 MLOAD DUP2 LT PUSH2 0x16A6 JUMPI PUSH2 0x16A5 PUSH2 0x21A0 JUMP JUMPDEST JUMPDEST PUSH1 0x20 ADD ADD MLOAD PUSH1 0xF8 SHR PUSH1 0xF8 SHL PUSH31 0xFFFFFFFFFFFFFFFFFFFFFFFFFFFFFFFFFFFFFFFFFFFFFFFFFFFFFFFFFFFFFF NOT AND EQ JUMPDEST SWAP1 POP SWAP4 SWAP3 POP POP POP JUMP JUMPDEST PUSH1 0x0 DUP1 PUSH1 0x0 SWAP1 POP PUSH1 0x0 JUMPDEST PUSH1 0x14 DUP2 PUSH20 0xFFFFFFFFFFFFFFFFFFFFFFFFFFFFFFFFFFFFFFFF AND LT ISZERO PUSH2 0x17B3 JUMPI DUP1 PUSH1 0x13 PUSH2 0x1714 SWAP2 SWAP1 PUSH2 0x269B JUMP JUMPDEST PUSH1 0x8 PUSH2 0x1720 SWAP2 SWAP1 PUSH2 0x26E3 JUMP JUMPDEST PUSH20 0xFFFFFFFFFFFFFFFFFFFFFFFFFFFFFFFFFFFFFFFF AND DUP6 DUP6 DUP4 PUSH20 0xFFFFFFFFFFFFFFFFFFFFFFFFFFFFFFFFFFFFFFFF AND PUSH2 0x1759 SWAP2 SWAP1 PUSH2 0x2337 JUMP JUMPDEST DUP2 MLOAD DUP2 LT PUSH2 0x176A JUMPI PUSH2 0x1769 PUSH2 0x21A0 JUMP JUMPDEST JUMPDEST PUSH1 0x20 ADD ADD MLOAD PUSH1 0xF8 SHR PUSH1 0xF8 SHL PUSH1 0xF8 SHR PUSH1 0xFF AND PUSH20 0xFFFFFFFFFFFFFFFFFFFFFFFFFFFFFFFFFFFFFFFF AND SWAP1 SHL DUP3 PUSH2 0x179E SWAP2 SWAP1 PUSH2 0x2725 JUMP JUMPDEST SWAP2 POP DUP1 DUP1 PUSH2 0x17AB SWAP1 PUSH2 0x276D JUMP JUMPDEST SWAP2 POP POP PUSH2 0x16E8 JUMP JUMPDEST POP DUP1 PUSH1 0x60 SHL SWAP2 POP POP SWAP3 SWAP2 POP POP JUMP JUMPDEST PUSH1 0x0 PUSH1 0x17 DUP3 EQ DUP1 ISZERO PUSH2 0x1821 JUMPI POP PUSH1 0xA9 PUSH1 0xF8 SHL DUP5 PUSH1 0x0 DUP6 PUSH2 0x17E1 SWAP2 SWAP1 PUSH2 0x2337 JUMP JUMPDEST DUP2 MLOAD DUP2 LT PUSH2 0x17F2 JUMPI PUSH2 0x17F1 PUSH2 0x21A0 JUMP JUMPDEST JUMPDEST PUSH1 0x20 ADD ADD MLOAD PUSH1 0xF8 SHR PUSH1 0xF8 SHL PUSH31 0xFFFFFFFFFFFFFFFFFFFFFFFFFFFFFFFFFFFFFFFFFFFFFFFFFFFFFFFFFFFFFF NOT AND EQ JUMPDEST DUP1 ISZERO PUSH2 0x187B JUMPI POP PUSH1 0x14 PUSH1 0xF8 SHL DUP5 PUSH1 0x1 DUP6 PUSH2 0x183B SWAP2 SWAP1 PUSH2 0x2337 JUMP JUMPDEST DUP2 MLOAD DUP2 LT PUSH2 0x184C JUMPI PUSH2 0x184B PUSH2 0x21A0 JUMP JUMPDEST JUMPDEST PUSH1 0x20 ADD ADD MLOAD PUSH1 0xF8 SHR PUSH1 0xF8 SHL PUSH31 0xFFFFFFFFFFFFFFFFFFFFFFFFFFFFFFFFFFFFFFFFFFFFFFFFFFFFFFFFFFFFFF NOT AND EQ JUMPDEST DUP1 ISZERO PUSH2 0x18D5 JUMPI POP PUSH1 0x87 PUSH1 0xF8 SHL DUP5 PUSH1 0x16 DUP6 PUSH2 0x1895 SWAP2 SWAP1 PUSH2 0x2337 JUMP JUMPDEST DUP2 MLOAD DUP2 LT PUSH2 0x18A6 JUMPI PUSH2 0x18A5 PUSH2 0x21A0 JUMP JUMPDEST JUMPDEST PUSH1 0x20 ADD ADD MLOAD PUSH1 0xF8 SHR PUSH1 0xF8 SHL PUSH31 0xFFFFFFFFFFFFFFFFFFFFFFFFFFFFFFFFFFFFFFFFFFFFFFFFFFFFFFFFFFFFFF NOT AND EQ JUMPDEST SWAP1 POP SWAP4 SWAP3 POP POP POP JUMP JUMPDEST PUSH1 0x0 PUSH1 0x22 DUP3 EQ DUP1 ISZERO PUSH2 0x193E JUMPI POP PUSH1 0x6A PUSH1 0xF8 SHL DUP5 PUSH1 0x0 DUP6 PUSH2 0x18FE SWAP2 SWAP1 PUSH2 0x2337 JUMP JUMPDEST DUP2 MLOAD DUP2 LT PUSH2 0x190F JUMPI PUSH2 0x190E PUSH2 0x21A0 JUMP JUMPDEST JUMPDEST PUSH1 0x20 ADD ADD MLOAD PUSH1 0xF8 SHR PUSH1 0xF8 SHL PUSH31 0xFFFFFFFFFFFFFFFFFFFFFFFFFFFFFFFFFFFFFFFFFFFFFFFFFFFFFFFFFFFFFF NOT AND EQ JUMPDEST DUP1 ISZERO PUSH2 0x1998 JUMPI POP PUSH1 0x20 PUSH1 0xF8 SHL DUP5 PUSH1 0x1 DUP6 PUSH2 0x1958 SWAP2 SWAP1 PUSH2 0x2337 JUMP JUMPDEST DUP2 MLOAD DUP2 LT PUSH2 0x1969 JUMPI PUSH2 0x1968 PUSH2 0x21A0 JUMP JUMPDEST JUMPDEST PUSH1 0x20 ADD ADD MLOAD PUSH1 0xF8 SHR PUSH1 0xF8 SHL PUSH31 0xFFFFFFFFFFFFFFFFFFFFFFFFFFFFFFFFFFFFFFFFFFFFFFFFFFFFFFFFFFFFFF NOT AND EQ JUMPDEST SWAP1 POP SWAP4 SWAP3 POP POP POP JUMP JUMPDEST PUSH1 0x0 DUP1 PUSH1 0x0 SWAP1 POP PUSH1 0x0 JUMPDEST PUSH1 0x20 DUP2 LT ISZERO PUSH2 0x1A1E JUMPI DUP1 PUSH1 0x1F PUSH2 0x19C1 SWAP2 SWAP1 PUSH2 0x27A9 JUMP JUMPDEST PUSH1 0x8 PUSH2 0x19CD SWAP2 SWAP1 PUSH2 0x22F5 JUMP JUMPDEST DUP6 DUP6 DUP4 PUSH2 0x19DA SWAP2 SWAP1 PUSH2 0x2337 JUMP JUMPDEST DUP2 MLOAD DUP2 LT PUSH2 0x19EB JUMPI PUSH2 0x19EA PUSH2 0x21A0 JUMP JUMPDEST JUMPDEST PUSH1 0x20 ADD ADD MLOAD PUSH1 0xF8 SHR PUSH1 0xF8 SHL PUSH1 0xF8 SHR PUSH1 0xFF AND SWAP1 SHL DUP3 PUSH2 0x1A09 SWAP2 SWAP1 PUSH2 0x2337 JUMP JUMPDEST SWAP2 POP DUP1 DUP1 PUSH2 0x1A16 SWAP1 PUSH2 0x21FE JUMP JUMPDEST SWAP2 POP POP PUSH2 0x19AB JUMP JUMPDEST POP DUP1 PUSH1 0x0 SHL SWAP2 POP POP SWAP3 SWAP2 POP POP JUMP JUMPDEST PUSH1 0x0 PUSH11 0x636F6E736F6C652E6C6F67 SWAP1 POP PUSH1 0x0 DUP1 DUP4 MLOAD PUSH1 0x20 DUP6 ADD DUP5 GAS STATICCALL POP POP POP JUMP JUMPDEST PUSH2 0x1BEE DUP2 SWAP1 POP SWAP2 SWAP1 POP JUMP JUMPDEST PUSH1 0x0 DUP1 DUP4 MLOAD SWAP1 POP PUSH1 0x0 PUSH1 0x20 DUP6 ADD SWAP1 POP PUSH2 0x1A79 DUP5 PUSH5 0xFFFFFFFFFF AND DUP3 DUP5 PUSH2 0x1AC6 JUMP JUMPDEST SWAP3 POP POP POP SWAP3 SWAP2 POP POP JUMP JUMPDEST PUSH1 0x0 DUP1 PUSH2 0x1A8F DUP4 PUSH2 0x1B34 JUMP JUMPDEST PUSH12 0xFFFFFFFFFFFFFFFFFFFFFFFF AND SWAP1 POP PUSH1 0x0 PUSH2 0x1AAA DUP5 PUSH2 0x1B54 JUMP JUMPDEST PUSH12 0xFFFFFFFFFFFFFFFFFFFFFFFF AND SWAP1 POP DUP1 DUP3 KECCAK256 SWAP3 POP POP POP SWAP2 SWAP1 POP JUMP JUMPDEST PUSH1 0x0 DUP1 PUSH2 0x1ADC DUP4 DUP6 PUSH2 0x1B74 SWAP1 SWAP2 SWAP1 PUSH4 0xFFFFFFFF AND JUMP JUMPDEST SWAP1 POP PUSH1 0x40 MLOAD DUP2 GT ISZERO PUSH2 0x1AED JUMPI PUSH1 0x0 SWAP1 POP JUMPDEST PUSH1 0x0 DUP2 SUB PUSH2 0x1B1E JUMPI PUSH32 0xFFFFFFFFFFFFFFFFFFFFFFFFFFFFFFFFFFFFFFFFFFFFFFFFFFFFFFFFFF000000 SWAP2 POP POP PUSH2 0x1B2D JUMP JUMPDEST PUSH2 0x1B29 DUP6 DUP6 DUP6 PUSH2 0x1BCD JUMP JUMPDEST SWAP2 POP POP JUMPDEST SWAP4 SWAP3 POP POP POP JUMP JUMPDEST PUSH1 0x0 DUP1 PUSH12 0xFFFFFFFFFFFFFFFFFFFFFFFF SWAP1 POP DUP1 DUP4 PUSH1 0x78 SHR AND SWAP2 POP POP SWAP2 SWAP1 POP JUMP JUMPDEST PUSH1 0x0 DUP1 PUSH12 0xFFFFFFFFFFFFFFFFFFFFFFFF SWAP1 POP DUP1 DUP4 PUSH1 0x18 SHR AND SWAP2 POP POP SWAP2 SWAP1 POP JUMP JUMPDEST PUSH1 0x0 DUP2 DUP4 PUSH2 0x1B82 SWAP2 SWAP1 PUSH2 0x2337 JUMP JUMPDEST SWAP1 POP DUP3 DUP2 LT ISZERO PUSH2 0x1BC7 JUMPI PUSH1 0x40 MLOAD PUSH32 0x8C379A000000000000000000000000000000000000000000000000000000000 DUP2 MSTORE PUSH1 0x4 ADD PUSH2 0x1BBE SWAP1 PUSH2 0x2829 JUMP JUMPDEST PUSH1 0x40 MLOAD DUP1 SWAP2 SUB SWAP1 REVERT JUMPDEST SWAP3 SWAP2 POP POP JUMP JUMPDEST PUSH1 0x0 DUP4 DUP2 OR PUSH1 0x60 SHL SWAP1 POP DUP3 DUP2 OR PUSH1 0x60 SHL SWAP1 POP DUP2 DUP2 OR PUSH1 0x18 SHL SWAP1 POP SWAP4 SWAP3 POP POP POP JUMP JUMPDEST PUSH2 0x1BF6 PUSH2 0x2849 JUMP JUMPDEST JUMP JUMPDEST PUSH1 0x0 PUSH1 0x40 MLOAD SWAP1 POP SWAP1 JUMP JUMPDEST PUSH1 0x0 DUP1 REVERT JUMPDEST PUSH1 0x0 DUP1 REVERT JUMPDEST PUSH1 0x0 DUP2 SWAP1 POP SWAP2 SWAP1 POP JUMP JUMPDEST PUSH2 0x1C1F DUP2 PUSH2 0x1C0C JUMP JUMPDEST DUP2 EQ PUSH2 0x1C2A JUMPI PUSH1 0x0 DUP1 REVERT JUMPDEST POP JUMP JUMPDEST PUSH1 0x0 DUP2 CALLDATALOAD SWAP1 POP PUSH2 0x1C3C DUP2 PUSH2 0x1C16 JUMP JUMPDEST SWAP3 SWAP2 POP POP JUMP JUMPDEST PUSH1 0x0 DUP2 SWAP1 POP SWAP2 SWAP1 POP JUMP JUMPDEST PUSH2 0x1C55 DUP2 PUSH2 0x1C42 JUMP JUMPDEST DUP2 EQ PUSH2 0x1C60 JUMPI PUSH1 0x0 DUP1 REVERT JUMPDEST POP JUMP JUMPDEST PUSH1 0x0 DUP2 CALLDATALOAD SWAP1 POP PUSH2 0x1C72 DUP2 PUSH2 0x1C4C JUMP JUMPDEST SWAP3 SWAP2 POP POP JUMP JUMPDEST PUSH1 0x0 DUP1 PUSH1 0x0 DUP1 PUSH1 0x0 PUSH1 0xA0 DUP7 DUP9 SUB SLT ISZERO PUSH2 0x1C94 JUMPI PUSH2 0x1C93 PUSH2 0x1C02 JUMP JUMPDEST JUMPDEST PUSH1 0x0 PUSH2 0x1CA2 DUP9 DUP3 DUP10 ADD PUSH2 0x1C2D JUMP JUMPDEST SWAP6 POP POP PUSH1 0x20 PUSH2 0x1CB3 DUP9 DUP3 DUP10 ADD PUSH2 0x1C2D JUMP JUMPDEST SWAP5 POP POP PUSH1 0x40 PUSH2 0x1CC4 DUP9 DUP3 DUP10 ADD PUSH2 0x1C2D JUMP JUMPDEST SWAP4 POP POP PUSH1 0x60 PUSH2 0x1CD5 DUP9 DUP3 DUP10 ADD PUSH2 0x1C63 JUMP JUMPDEST SWAP3 POP POP PUSH1 0x80 PUSH2 0x1CE6 DUP9 DUP3 DUP10 ADD PUSH2 0x1C63 JUMP JUMPDEST SWAP2 POP POP SWAP3 SWAP6 POP SWAP3 SWAP6 SWAP1 SWAP4 POP JUMP JUMPDEST PUSH1 0x0 DUP1 REVERT JUMPDEST PUSH1 0x0 DUP1 REVERT JUMPDEST PUSH1 0x0 PUSH1 0x1F NOT PUSH1 0x1F DUP4 ADD AND SWAP1 POP SWAP2 SWAP1 POP JUMP JUMPDEST PUSH32 0x4E487B7100000000000000000000000000000000000000000000000000000000 PUSH1 0x0 MSTORE PUSH1 0x41 PUSH1 0x4 MSTORE PUSH1 0x24 PUSH1 0x0 REVERT JUMPDEST PUSH2 0x1D46 DUP3 PUSH2 0x1CFD JUMP JUMPDEST DUP2 ADD DUP2 DUP2 LT PUSH8 0xFFFFFFFFFFFFFFFF DUP3 GT OR ISZERO PUSH2 0x1D65 JUMPI PUSH2 0x1D64 PUSH2 0x1D0E JUMP JUMPDEST JUMPDEST DUP1 PUSH1 0x40 MSTORE POP POP POP JUMP JUMPDEST PUSH1 0x0 PUSH2 0x1D78 PUSH2 0x1BF8 JUMP JUMPDEST SWAP1 POP PUSH2 0x1D84 DUP3 DUP3 PUSH2 0x1D3D JUMP JUMPDEST SWAP2 SWAP1 POP JUMP JUMPDEST PUSH1 0x0 PUSH8 0xFFFFFFFFFFFFFFFF DUP3 GT ISZERO PUSH2 0x1DA4 JUMPI PUSH2 0x1DA3 PUSH2 0x1D0E JUMP JUMPDEST JUMPDEST PUSH2 0x1DAD DUP3 PUSH2 0x1CFD JUMP JUMPDEST SWAP1 POP PUSH1 0x20 DUP2 ADD SWAP1 POP SWAP2 SWAP1 POP JUMP JUMPDEST DUP3 DUP2 DUP4 CALLDATACOPY PUSH1 0x0 DUP4 DUP4 ADD MSTORE POP POP POP JUMP JUMPDEST PUSH1 0x0 PUSH2 0x1DDC PUSH2 0x1DD7 DUP5 PUSH2 0x1D89 JUMP JUMPDEST PUSH2 0x1D6E JUMP JUMPDEST SWAP1 POP DUP3 DUP2 MSTORE PUSH1 0x20 DUP2 ADD DUP5 DUP5 DUP5 ADD GT ISZERO PUSH2 0x1DF8 JUMPI PUSH2 0x1DF7 PUSH2 0x1CF8 JUMP JUMPDEST JUMPDEST PUSH2 0x1E03 DUP5 DUP3 DUP6 PUSH2 0x1DBA JUMP JUMPDEST POP SWAP4 SWAP3 POP POP POP JUMP JUMPDEST PUSH1 0x0 DUP3 PUSH1 0x1F DUP4 ADD SLT PUSH2 0x1E20 JUMPI PUSH2 0x1E1F PUSH2 0x1CF3 JUMP JUMPDEST JUMPDEST DUP2 CALLDATALOAD PUSH2 0x1E30 DUP5 DUP3 PUSH1 0x20 DUP7 ADD PUSH2 0x1DC9 JUMP JUMPDEST SWAP2 POP POP SWAP3 SWAP2 POP POP JUMP JUMPDEST PUSH1 0x0 DUP1 PUSH1 0x0 DUP1 PUSH1 0x80 DUP6 DUP8 SUB SLT ISZERO PUSH2 0x1E53 JUMPI PUSH2 0x1E52 PUSH2 0x1C02 JUMP JUMPDEST JUMPDEST PUSH1 0x0 DUP6 ADD CALLDATALOAD PUSH8 0xFFFFFFFFFFFFFFFF DUP2 GT ISZERO PUSH2 0x1E71 JUMPI PUSH2 0x1E70 PUSH2 0x1C07 JUMP JUMPDEST JUMPDEST PUSH2 0x1E7D DUP8 DUP3 DUP9 ADD PUSH2 0x1E0B JUMP JUMPDEST SWAP5 POP POP PUSH1 0x20 DUP6 ADD CALLDATALOAD PUSH8 0xFFFFFFFFFFFFFFFF DUP2 GT ISZERO PUSH2 0x1E9E JUMPI PUSH2 0x1E9D PUSH2 0x1C07 JUMP JUMPDEST JUMPDEST PUSH2 0x1EAA DUP8 DUP3 DUP9 ADD PUSH2 0x1E0B JUMP JUMPDEST SWAP4 POP POP PUSH1 0x40 DUP6 ADD CALLDATALOAD PUSH8 0xFFFFFFFFFFFFFFFF DUP2 GT ISZERO PUSH2 0x1ECB JUMPI PUSH2 0x1ECA PUSH2 0x1C07 JUMP JUMPDEST JUMPDEST PUSH2 0x1ED7 DUP8 DUP3 DUP9 ADD PUSH2 0x1E0B JUMP JUMPDEST SWAP3 POP POP PUSH1 0x60 DUP6 ADD CALLDATALOAD PUSH8 0xFFFFFFFFFFFFFFFF DUP2 GT ISZERO PUSH2 0x1EF8 JUMPI PUSH2 0x1EF7 PUSH2 0x1C07 JUMP JUMPDEST JUMPDEST PUSH2 0x1F04 DUP8 DUP3 DUP9 ADD PUSH2 0x1E0B JUMP JUMPDEST SWAP2 POP POP SWAP3 SWAP6 SWAP2 SWAP5 POP SWAP3 POP JUMP JUMPDEST PUSH1 0x0 PUSH1 0x20 DUP3 DUP5 SUB SLT ISZERO PUSH2 0x1F26 JUMPI PUSH2 0x1F25 PUSH2 0x1C02 JUMP JUMPDEST JUMPDEST PUSH1 0x0 DUP3 ADD CALLDATALOAD PUSH8 0xFFFFFFFFFFFFFFFF DUP2 GT ISZERO PUSH2 0x1F44 JUMPI PUSH2 0x1F43 PUSH2 0x1C07 JUMP JUMPDEST JUMPDEST PUSH2 0x1F50 DUP5 DUP3 DUP6 ADD PUSH2 0x1E0B JUMP JUMPDEST SWAP2 POP POP SWAP3 SWAP2 POP POP JUMP JUMPDEST PUSH2 0x1F62 DUP2 PUSH2 0x1C42 JUMP JUMPDEST DUP3 MSTORE POP POP JUMP JUMPDEST PUSH2 0x1F71 DUP2 PUSH2 0x1C0C JUMP JUMPDEST DUP3 MSTORE POP POP JUMP JUMPDEST PUSH1 0x0 PUSH1 0xC0 DUP3 ADD SWAP1 POP PUSH2 0x1F8C PUSH1 0x0 DUP4 ADD DUP10 PUSH2 0x1F59 JUMP JUMPDEST PUSH2 0x1F99 PUSH1 0x20 DUP4 ADD DUP9 PUSH2 0x1F68 JUMP JUMPDEST PUSH2 0x1FA6 PUSH1 0x40 DUP4 ADD DUP8 PUSH2 0x1F59 JUMP JUMPDEST PUSH2 0x1FB3 PUSH1 0x60 DUP4 ADD DUP7 PUSH2 0x1F68 JUMP JUMPDEST PUSH2 0x1FC0 PUSH1 0x80 DUP4 ADD DUP6 PUSH2 0x1F59 JUMP JUMPDEST PUSH2 0x1FCD PUSH1 0xA0 DUP4 ADD DUP5 PUSH2 0x1F68 JUMP JUMPDEST SWAP8 SWAP7 POP POP POP POP POP POP POP JUMP JUMPDEST PUSH1 0x0 PUSH1 0xFF DUP3 AND SWAP1 POP SWAP2 SWAP1 POP JUMP JUMPDEST PUSH2 0x1FEE DUP2 PUSH2 0x1FD8 JUMP JUMPDEST DUP2 EQ PUSH2 0x1FF9 JUMPI PUSH1 0x0 DUP1 REVERT JUMPDEST POP JUMP JUMPDEST PUSH1 0x0 DUP2 CALLDATALOAD SWAP1 POP PUSH2 0x200B DUP2 PUSH2 0x1FE5 JUMP JUMPDEST SWAP3 SWAP2 POP POP JUMP JUMPDEST PUSH1 0x0 DUP1 PUSH1 0x0 DUP1 PUSH1 0x0 PUSH1 0xA0 DUP7 DUP9 SUB SLT ISZERO PUSH2 0x202D JUMPI PUSH2 0x202C PUSH2 0x1C02 JUMP JUMPDEST JUMPDEST PUSH1 0x0 DUP7 ADD CALLDATALOAD PUSH8 0xFFFFFFFFFFFFFFFF DUP2 GT ISZERO PUSH2 0x204B JUMPI PUSH2 0x204A PUSH2 0x1C07 JUMP JUMPDEST JUMPDEST PUSH2 0x2057 DUP9 DUP3 DUP10 ADD PUSH2 0x1E0B JUMP JUMPDEST SWAP6 POP POP PUSH1 0x20 PUSH2 0x2068 DUP9 DUP3 DUP10 ADD PUSH2 0x1C2D JUMP JUMPDEST SWAP5 POP POP PUSH1 0x40 PUSH2 0x2079 DUP9 DUP3 DUP10 ADD PUSH2 0x1FFC JUMP JUMPDEST SWAP4 POP POP PUSH1 0x60 PUSH2 0x208A DUP9 DUP3 DUP10 ADD PUSH2 0x1C2D JUMP JUMPDEST SWAP3 POP POP PUSH1 0x80 PUSH2 0x209B DUP9 DUP3 DUP10 ADD PUSH2 0x1C2D JUMP JUMPDEST SWAP2 POP POP SWAP3 SWAP6 POP SWAP3 SWAP6 SWAP1 SWAP4 POP JUMP JUMPDEST PUSH1 0x0 DUP2 ISZERO ISZERO SWAP1 POP SWAP2 SWAP1 POP JUMP JUMPDEST PUSH2 0x20BD DUP2 PUSH2 0x20A8 JUMP JUMPDEST DUP3 MSTORE POP POP JUMP JUMPDEST PUSH1 0x0 PUSH1 0x20 DUP3 ADD SWAP1 POP PUSH2 0x20D8 PUSH1 0x0 DUP4 ADD DUP5 PUSH2 0x20B4 JUMP JUMPDEST SWAP3 SWAP2 POP POP JUMP JUMPDEST PUSH1 0x0 DUP1 PUSH1 0x0 PUSH1 0x60 DUP5 DUP7 SUB SLT ISZERO PUSH2 0x20F7 JUMPI PUSH2 0x20F6 PUSH2 0x1C02 JUMP JUMPDEST JUMPDEST PUSH1 0x0 DUP5 ADD CALLDATALOAD PUSH8 0xFFFFFFFFFFFFFFFF DUP2 GT ISZERO PUSH2 0x2115 JUMPI PUSH2 0x2114 PUSH2 0x1C07 JUMP JUMPDEST JUMPDEST PUSH2 0x2121 DUP7 DUP3 DUP8 ADD PUSH2 0x1E0B JUMP JUMPDEST SWAP4 POP POP PUSH1 0x20 DUP5 ADD CALLDATALOAD PUSH8 0xFFFFFFFFFFFFFFFF DUP2 GT ISZERO PUSH2 0x2142 JUMPI PUSH2 0x2141 PUSH2 0x1C07 JUMP JUMPDEST JUMPDEST PUSH2 0x214E DUP7 DUP3 DUP8 ADD PUSH2 0x1E0B JUMP JUMPDEST SWAP3 POP POP PUSH1 0x40 DUP5 ADD CALLDATALOAD PUSH8 0xFFFFFFFFFFFFFFFF DUP2 GT ISZERO PUSH2 0x216F JUMPI PUSH2 0x216E PUSH2 0x1C07 JUMP JUMPDEST JUMPDEST PUSH2 0x217B DUP7 DUP3 DUP8 ADD PUSH2 0x1E0B JUMP JUMPDEST SWAP2 POP POP SWAP3 POP SWAP3 POP SWAP3 JUMP JUMPDEST PUSH1 0x0 PUSH1 0x20 DUP3 ADD SWAP1 POP PUSH2 0x219A PUSH1 0x0 DUP4 ADD DUP5 PUSH2 0x1F59 JUMP JUMPDEST SWAP3 SWAP2 POP POP JUMP JUMPDEST PUSH32 0x4E487B7100000000000000000000000000000000000000000000000000000000 PUSH1 0x0 MSTORE PUSH1 0x32 PUSH1 0x4 MSTORE PUSH1 0x24 PUSH1 0x0 REVERT JUMPDEST PUSH32 0x4E487B7100000000000000000000000000000000000000000000000000000000 PUSH1 0x0 MSTORE PUSH1 0x11 PUSH1 0x4 MSTORE PUSH1 0x24 PUSH1 0x0 REVERT JUMPDEST PUSH1 0x0 PUSH2 0x2209 DUP3 PUSH2 0x1C42 JUMP JUMPDEST SWAP2 POP PUSH32 0xFFFFFFFFFFFFFFFFFFFFFFFFFFFFFFFFFFFFFFFFFFFFFFFFFFFFFFFFFFFFFFFF DUP3 SUB PUSH2 0x223B JUMPI PUSH2 0x223A PUSH2 0x21CF JUMP JUMPDEST JUMPDEST PUSH1 0x1 DUP3 ADD SWAP1 POP SWAP2 SWAP1 POP JUMP JUMPDEST PUSH1 0x0 DUP2 MLOAD SWAP1 POP SWAP2 SWAP1 POP JUMP JUMPDEST PUSH1 0x0 DUP3 DUP3 MSTORE PUSH1 0x20 DUP3 ADD SWAP1 POP SWAP3 SWAP2 POP POP JUMP JUMPDEST PUSH1 0x0 JUMPDEST DUP4 DUP2 LT ISZERO PUSH2 0x2280 JUMPI DUP1 DUP3 ADD MLOAD DUP2 DUP5 ADD MSTORE PUSH1 0x20 DUP2 ADD SWAP1 POP PUSH2 0x2265 JUMP JUMPDEST PUSH1 0x0 DUP5 DUP5 ADD MSTORE POP POP POP POP JUMP JUMPDEST PUSH1 0x0 PUSH2 0x2297 DUP3 PUSH2 0x2246 JUMP JUMPDEST PUSH2 0x22A1 DUP2 DUP6 PUSH2 0x2251 JUMP JUMPDEST SWAP4 POP PUSH2 0x22B1 DUP2 DUP6 PUSH1 0x20 DUP7 ADD PUSH2 0x2262 JUMP JUMPDEST PUSH2 0x22BA DUP2 PUSH2 0x1CFD JUMP JUMPDEST DUP5 ADD SWAP2 POP POP SWAP3 SWAP2 POP POP JUMP JUMPDEST PUSH1 0x0 PUSH1 0x40 DUP3 ADD SWAP1 POP DUP2 DUP2 SUB PUSH1 0x0 DUP4 ADD MSTORE PUSH2 0x22DF DUP2 DUP6 PUSH2 0x228C JUMP JUMPDEST SWAP1 POP PUSH2 0x22EE PUSH1 0x20 DUP4 ADD DUP5 PUSH2 0x1F59 JUMP JUMPDEST SWAP4 SWAP3 POP POP POP JUMP JUMPDEST PUSH1 0x0 PUSH2 0x2300 DUP3 PUSH2 0x1C42 JUMP JUMPDEST SWAP2 POP PUSH2 0x230B DUP4 PUSH2 0x1C42 JUMP JUMPDEST SWAP3 POP DUP3 DUP3 MUL PUSH2 0x2319 DUP2 PUSH2 0x1C42 JUMP JUMPDEST SWAP2 POP DUP3 DUP3 DIV DUP5 EQ DUP4 ISZERO OR PUSH2 0x2330 JUMPI PUSH2 0x232F PUSH2 0x21CF JUMP JUMPDEST JUMPDEST POP SWAP3 SWAP2 POP POP JUMP JUMPDEST PUSH1 0x0 PUSH2 0x2342 DUP3 PUSH2 0x1C42 JUMP JUMPDEST SWAP2 POP PUSH2 0x234D DUP4 PUSH2 0x1C42 JUMP JUMPDEST SWAP3 POP DUP3 DUP3 ADD SWAP1 POP DUP1 DUP3 GT ISZERO PUSH2 0x2365 JUMPI PUSH2 0x2364 PUSH2 0x21CF JUMP JUMPDEST JUMPDEST SWAP3 SWAP2 POP POP JUMP JUMPDEST PUSH1 0x0 PUSH2 0x2376 DUP3 PUSH2 0x1C42 JUMP JUMPDEST SWAP2 POP PUSH1 0x0 DUP3 SUB PUSH2 0x2389 JUMPI PUSH2 0x2388 PUSH2 0x21CF JUMP JUMPDEST JUMPDEST PUSH1 0x1 DUP3 SUB SWAP1 POP SWAP2 SWAP1 POP JUMP JUMPDEST PUSH1 0x0 PUSH1 0x40 DUP3 ADD SWAP1 POP PUSH2 0x23A9 PUSH1 0x0 DUP4 ADD DUP6 PUSH2 0x1F59 JUMP JUMPDEST PUSH2 0x23B6 PUSH1 0x20 DUP4 ADD DUP5 PUSH2 0x1F59 JUMP JUMPDEST SWAP4 SWAP3 POP POP POP JUMP JUMPDEST PUSH1 0x0 PUSH1 0x40 DUP3 ADD SWAP1 POP DUP2 DUP2 SUB PUSH1 0x0 DUP4 ADD MSTORE PUSH2 0x23D7 DUP2 DUP6 PUSH2 0x228C JUMP JUMPDEST SWAP1 POP DUP2 DUP2 SUB PUSH1 0x20 DUP4 ADD MSTORE PUSH2 0x23EB DUP2 DUP5 PUSH2 0x228C JUMP JUMPDEST SWAP1 POP SWAP4 SWAP3 POP POP POP JUMP JUMPDEST PUSH32 0x436865636B426974636F696E536967732F636865636B536967202D2D20526571 PUSH1 0x0 DUP3 ADD MSTORE PUSH32 0x756972657320756E636F6D7072657373656420756E7072656669786564207075 PUSH1 0x20 DUP3 ADD MSTORE PUSH32 0x626B657900000000000000000000000000000000000000000000000000000000 PUSH1 0x40 DUP3 ADD MSTORE POP JUMP JUMPDEST PUSH1 0x0 PUSH2 0x2476 PUSH1 0x44 DUP4 PUSH2 0x2251 JUMP JUMPDEST SWAP2 POP PUSH2 0x2481 DUP3 PUSH2 0x23F4 JUMP JUMPDEST PUSH1 0x60 DUP3 ADD SWAP1 POP SWAP2 SWAP1 POP JUMP JUMPDEST PUSH1 0x0 PUSH1 0x20 DUP3 ADD SWAP1 POP DUP2 DUP2 SUB PUSH1 0x0 DUP4 ADD MSTORE PUSH2 0x24A5 DUP2 PUSH2 0x2469 JUMP JUMPDEST SWAP1 POP SWAP2 SWAP1 POP JUMP JUMPDEST PUSH2 0x24B5 DUP2 PUSH2 0x1FD8 JUMP JUMPDEST DUP3 MSTORE POP POP JUMP JUMPDEST PUSH1 0x0 PUSH1 0x80 DUP3 ADD SWAP1 POP PUSH2 0x24D0 PUSH1 0x0 DUP4 ADD DUP8 PUSH2 0x1F68 JUMP JUMPDEST PUSH2 0x24DD PUSH1 0x20 DUP4 ADD DUP7 PUSH2 0x24AC JUMP JUMPDEST PUSH2 0x24EA PUSH1 0x40 DUP4 ADD DUP6 PUSH2 0x1F68 JUMP JUMPDEST PUSH2 0x24F7 PUSH1 0x60 DUP4 ADD DUP5 PUSH2 0x1F68 JUMP JUMPDEST SWAP6 SWAP5 POP POP POP POP POP JUMP JUMPDEST PUSH32 0x5075626B6579206D7573742062652036342D62797465207261772C20756E636F PUSH1 0x0 DUP3 ADD MSTORE PUSH32 0x6D70726573736564206B65792E00000000000000000000000000000000000000 PUSH1 0x20 DUP3 ADD MSTORE POP JUMP JUMPDEST PUSH1 0x0 PUSH2 0x255C PUSH1 0x2D DUP4 PUSH2 0x2251 JUMP JUMPDEST SWAP2 POP PUSH2 0x2567 DUP3 PUSH2 0x2500 JUMP JUMPDEST PUSH1 0x40 DUP3 ADD SWAP1 POP SWAP2 SWAP1 POP JUMP JUMPDEST PUSH1 0x0 PUSH1 0x20 DUP3 ADD SWAP1 POP DUP2 DUP2 SUB PUSH1 0x0 DUP4 ADD MSTORE PUSH2 0x258B DUP2 PUSH2 0x254F JUMP JUMPDEST SWAP1 POP SWAP2 SWAP1 POP JUMP JUMPDEST PUSH1 0x0 PUSH2 0xFFFF DUP3 AND SWAP1 POP SWAP2 SWAP1 POP JUMP JUMPDEST PUSH1 0x0 PUSH2 0x25AB DUP3 PUSH2 0x2592 JUMP JUMPDEST SWAP2 POP PUSH2 0x25B6 DUP4 PUSH2 0x2592 JUMP JUMPDEST SWAP3 POP DUP3 DUP3 MUL PUSH2 0x25C4 DUP2 PUSH2 0x2592 JUMP JUMPDEST SWAP2 POP DUP1 DUP3 EQ PUSH2 0x25D6 JUMPI PUSH2 0x25D5 PUSH2 0x21CF JUMP JUMPDEST JUMPDEST POP SWAP3 SWAP2 POP POP JUMP JUMPDEST PUSH1 0x0 PUSH4 0xFFFFFFFF DUP3 AND SWAP1 POP SWAP2 SWAP1 POP JUMP JUMPDEST PUSH1 0x0 PUSH2 0x25F8 DUP3 PUSH2 0x25DD JUMP JUMPDEST SWAP2 POP PUSH2 0x2603 DUP4 PUSH2 0x25DD JUMP JUMPDEST SWAP3 POP DUP3 DUP3 MUL PUSH2 0x2611 DUP2 PUSH2 0x25DD JUMP JUMPDEST SWAP2 POP DUP1 DUP3 EQ PUSH2 0x2623 JUMPI PUSH2 0x2622 PUSH2 0x21CF JUMP JUMPDEST JUMPDEST POP SWAP3 SWAP2 POP POP JUMP JUMPDEST PUSH1 0x0 PUSH8 0xFFFFFFFFFFFFFFFF DUP3 AND SWAP1 POP SWAP2 SWAP1 POP JUMP JUMPDEST PUSH1 0x0 PUSH2 0x2649 DUP3 PUSH2 0x262A JUMP JUMPDEST SWAP2 POP PUSH2 0x2654 DUP4 PUSH2 0x262A JUMP JUMPDEST SWAP3 POP DUP3 DUP3 MUL PUSH2 0x2662 DUP2 PUSH2 0x262A JUMP JUMPDEST SWAP2 POP DUP1 DUP3 EQ PUSH2 0x2674 JUMPI PUSH2 0x2673 PUSH2 0x21CF JUMP JUMPDEST JUMPDEST POP SWAP3 SWAP2 POP POP JUMP JUMPDEST PUSH1 0x0 PUSH20 0xFFFFFFFFFFFFFFFFFFFFFFFFFFFFFFFFFFFFFFFF DUP3 AND SWAP1 POP SWAP2 SWAP1 POP JUMP JUMPDEST PUSH1 0x0 PUSH2 0x26A6 DUP3 PUSH2 0x267B JUMP JUMPDEST SWAP2 POP PUSH2 0x26B1 DUP4 PUSH2 0x267B JUMP JUMPDEST SWAP3 POP DUP3 DUP3 SUB SWAP1 POP PUSH20 0xFFFFFFFFFFFFFFFFFFFFFFFFFFFFFFFFFFFFFFFF DUP2 GT ISZERO PUSH2 0x26DD JUMPI PUSH2 0x26DC PUSH2 0x21CF JUMP JUMPDEST JUMPDEST SWAP3 SWAP2 POP POP JUMP JUMPDEST PUSH1 0x0 PUSH2 0x26EE DUP3 PUSH2 0x267B JUMP JUMPDEST SWAP2 POP PUSH2 0x26F9 DUP4 PUSH2 0x267B JUMP JUMPDEST SWAP3 POP DUP3 DUP3 MUL PUSH2 0x2707 DUP2 PUSH2 0x267B JUMP JUMPDEST SWAP2 POP DUP3 DUP3 DIV DUP5 EQ DUP4 ISZERO OR PUSH2 0x271E JUMPI PUSH2 0x271D PUSH2 0x21CF JUMP JUMPDEST JUMPDEST POP SWAP3 SWAP2 POP POP JUMP JUMPDEST PUSH1 0x0 PUSH2 0x2730 DUP3 PUSH2 0x267B JUMP JUMPDEST SWAP2 POP PUSH2 0x273B DUP4 PUSH2 0x267B JUMP JUMPDEST SWAP3 POP DUP3 DUP3 ADD SWAP1 POP PUSH20 0xFFFFFFFFFFFFFFFFFFFFFFFFFFFFFFFFFFFFFFFF DUP2 GT ISZERO PUSH2 0x2767 JUMPI PUSH2 0x2766 PUSH2 0x21CF JUMP JUMPDEST JUMPDEST SWAP3 SWAP2 POP POP JUMP JUMPDEST PUSH1 0x0 PUSH2 0x2778 DUP3 PUSH2 0x267B JUMP JUMPDEST SWAP2 POP PUSH20 0xFFFFFFFFFFFFFFFFFFFFFFFFFFFFFFFFFFFFFFFF DUP3 SUB PUSH2 0x279E JUMPI PUSH2 0x279D PUSH2 0x21CF JUMP JUMPDEST JUMPDEST PUSH1 0x1 DUP3 ADD SWAP1 POP SWAP2 SWAP1 POP JUMP JUMPDEST PUSH1 0x0 PUSH2 0x27B4 DUP3 PUSH2 0x1C42 JUMP JUMPDEST SWAP2 POP PUSH2 0x27BF DUP4 PUSH2 0x1C42 JUMP JUMPDEST SWAP3 POP DUP3 DUP3 SUB SWAP1 POP DUP2 DUP2 GT ISZERO PUSH2 0x27D7 JUMPI PUSH2 0x27D6 PUSH2 0x21CF JUMP JUMPDEST JUMPDEST SWAP3 SWAP2 POP POP JUMP JUMPDEST PUSH32 0x4F766572666C6F7720647572696E67206164646974696F6E2E00000000000000 PUSH1 0x0 DUP3 ADD MSTORE POP JUMP JUMPDEST PUSH1 0x0 PUSH2 0x2813 PUSH1 0x19 DUP4 PUSH2 0x2251 JUMP JUMPDEST SWAP2 POP PUSH2 0x281E DUP3 PUSH2 0x27DD JUMP JUMPDEST PUSH1 0x20 DUP3 ADD SWAP1 POP SWAP2 SWAP1 POP JUMP JUMPDEST PUSH1 0x0 PUSH1 0x20 DUP3 ADD SWAP1 POP DUP2 DUP2 SUB PUSH1 0x0 DUP4 ADD MSTORE PUSH2 0x2842 DUP2 PUSH2 0x2806 JUMP JUMPDEST SWAP1 POP SWAP2 SWAP1 POP JUMP JUMPDEST PUSH32 0x4E487B7100000000000000000000000000000000000000000000000000000000 PUSH1 0x0 MSTORE PUSH1 0x51 PUSH1 0x4 MSTORE PUSH1 0x24 PUSH1 0x0 REVERT INVALID LOG2 PUSH5 0x6970667358 0x22 SLT KECCAK256 PUSH15 0x6F05ED2AD8D48324548EA0433526E9 0xC0 0xBE 0xCC PUSH3 0x40A8F4 0xDC 0xDE 0xCA DUP11 0xE0 0xA9 CHAINID PUSH21 0xB564736F6C63430008130033000000000000000000 "},"methodIdentifiers":{"dispute(bytes,bytes,bytes,bytes)":"43f104d2","readThreeOutputs(bytes)":"3c1c0699","resolveDispute(bytes,bytes,bytes)":"79a85bd9","settle()":"11da60b4","setup(bytes32,bytes32,bytes32,uint256,uint256)":"06ac0e26","submitProof(bytes,bytes,bytes,bytes)":"3740d249","timestamp()":"b80777ea","timestamp_dispute()":"a5dd32ac","verifySignature(bytes,bytes32,uint8,bytes32,bytes32)":"47aa9573"}}}}}