{"contracts/LNBridge.sol":{"LNBridge":{"abi":[{"inputs":[{"internalType":"bytes","name":"rawTxP_locked","type":"bytes"},{"internalType":"bytes","name":"sigV","type":"bytes"},{"internalType":"bytes","name":"rawTxV_unlocked","type":"bytes"},{"internalType":"bytes","name":"sigP","type":"bytes"}],"name":"dispute","outputs":[],"stateMutability":"nonpayable","type":"function"},{"inputs":[{"internalType":"bytes","name":"oldRevSecret","type":"bytes"},{"internalType":"bytes","name":"rawTxP_unlocked","type":"bytes"},{"internalType":"bytes","name":"sigV","type":"bytes"}],"name":"resolveDispute","outputs":[],"stateMutability":"nonpayable","type":"function"},{"inputs":[],"name":"settle","outputs":[],"stateMutability":"nonpayable","type":"function"},{"inputs":[{"internalType":"bytes32","name":"_fundingTxId","type":"bytes32"},{"internalType":"bytes32","name":"_pkProver","type":"bytes32"},{"internalType":"bytes32","name":"_pkVerifier","type":"bytes32"},{"internalType":"uint256","name":"_index","type":"uint256"},{"internalType":"uint256","name":"_timestamp","type":"uint256"}],"name":"setup","outputs":[],"stateMutability":"nonpayable","type":"function"},{"inputs":[{"internalType":"bytes","name":"rawTxP_unlocked","type":"bytes"},{"internalType":"bytes","name":"sigV","type":"bytes"},{"internalType":"bytes","name":"rawTxV_unlocked","type":"bytes"},{"internalType":"bytes","name":"sigP","type":"bytes"}],"name":"submitProof","outputs":[],"stateMutability":"nonpayable","type":"function"},{"inputs":[],"name":"timestamp","outputs":[{"internalType":"uint256","name":"","type":"uint256"}],"stateMutability":"view","type":"function"},{"inputs":[],"name":"timestamp_dispute","outputs":[{"internalType":"uint256","name":"","type":"uint256"}],"stateMutability":"view","type":"function"},{"inputs":[{"internalType":"bytes32","name":"message","type":"bytes32"},{"internalType":"bytes","name":"signature","type":"bytes"}],"name":"verifySignature","outputs":[{"internalType":"address","name":"","type":"address"}],"stateMutability":"view","type":"function"}],"evm":{"bytecode":{"linkReferences":{},"object":"608060405234801561001057600080fd5b50610c25806100206000396000f3fe608060405234801561001057600080fd5b50600436106100885760003560e01c806379a85bd91161005b57806379a85bd9146100eb578063a5dd32ac14610107578063b80777ea14610125578063daca6f781461014357610088565b806306ac0e261461008d57806311da60b4146100a95780633740d249146100b357806343f104d2146100cf575b600080fd5b6100a760048036038101906100a291906104ed565b610173565b005b6100b161019d565b005b6100cd60048036038101906100c891906106ae565b61019f565b005b6100e960048036038101906100e491906106ae565b6101a5565b005b61010560048036038101906101009190610785565b6101ab565b005b61010f6101b0565b60405161011c919061083b565b60405180910390f35b61012d6101b6565b60405161013a919061083b565b60405180910390f35b61015d60048036038101906101589190610856565b6101bc565b60405161016a91906108f3565b60405180910390f35b84600081905550836001819055508260028190555081600381905550806004819055505050505050565b565b50505050565b50505050565b505050565b60055481565b60045481565b60006101c883836101d0565b905092915050565b6000604182510361022a5760008060006020850151925060408501519150606085015160001a9050601b8160ff16101561021457601b81610211919061094a565b90505b61022086828585610299565b9350505050610293565b604082510361025857600080602084015191506040840151905061024f858383610423565b92505050610293565b6040517f08c379a000000000000000000000000000000000000000000000000000000000815260040161028a906109dc565b60405180910390fd5b92915050565b60007f7fffffffffffffffffffffffffffffff5d576e7357a4501ddfe92f46681b20a08260001c1115610301576040517f08c379a00000000000000000000000000000000000000000000000000000000081526004016102f890610a6e565b60405180910390fd5b601b8460ff1614806103165750601c8460ff16145b610355576040517f08c379a000000000000000000000000000000000000000000000000000000000815260040161034c90610b00565b60405180910390fd5b60006001868686866040516000815260200160405260405161037a9493929190610b3e565b6020604051602081039080840390855afa15801561039c573d6000803e3d6000fd5b505050602060405103519050600073ffffffffffffffffffffffffffffffffffffffff168173ffffffffffffffffffffffffffffffffffffffff1603610417576040517f08c379a000000000000000000000000000000000000000000000000000000000815260040161040e90610bcf565b60405180910390fd5b80915050949350505050565b60008060007f7fffffffffffffffffffffffffffffffffffffffffffffffffffffffffffffff84169150601b8460ff1c01905061046286828785610299565b925050509392505050565b6000604051905090565b600080fd5b600080fd5b6000819050919050565b61049481610481565b811461049f57600080fd5b50565b6000813590506104b18161048b565b92915050565b6000819050919050565b6104ca816104b7565b81146104d557600080fd5b50565b6000813590506104e7816104c1565b92915050565b600080600080600060a0868803121561050957610508610477565b5b6000610517888289016104a2565b9550506020610528888289016104a2565b9450506040610539888289016104a2565b935050606061054a888289016104d8565b925050608061055b888289016104d8565b9150509295509295909350565b600080fd5b600080fd5b6000601f19601f8301169050919050565b7f4e487b7100000000000000000000000000000000000000000000000000000000600052604160045260246000fd5b6105bb82610572565b810181811067ffffffffffffffff821117156105da576105d9610583565b5b80604052505050565b60006105ed61046d565b90506105f982826105b2565b919050565b600067ffffffffffffffff82111561061957610618610583565b5b61062282610572565b9050602081019050919050565b82818337600083830152505050565b600061065161064c846105fe565b6105e3565b90508281526020810184848401111561066d5761066c61056d565b5b61067884828561062f565b509392505050565b600082601f83011261069557610694610568565b5b81356106a584826020860161063e565b91505092915050565b600080600080608085870312156106c8576106c7610477565b5b600085013567ffffffffffffffff8111156106e6576106e561047c565b5b6106f287828801610680565b945050602085013567ffffffffffffffff8111156107135761071261047c565b5b61071f87828801610680565b935050604085013567ffffffffffffffff8111156107405761073f61047c565b5b61074c87828801610680565b925050606085013567ffffffffffffffff81111561076d5761076c61047c565b5b61077987828801610680565b91505092959194509250565b60008060006060848603121561079e5761079d610477565b5b600084013567ffffffffffffffff8111156107bc576107bb61047c565b5b6107c886828701610680565b935050602084013567ffffffffffffffff8111156107e9576107e861047c565b5b6107f586828701610680565b925050604084013567ffffffffffffffff8111156108165761081561047c565b5b61082286828701610680565b9150509250925092565b610835816104b7565b82525050565b6000602082019050610850600083018461082c565b92915050565b6000806040838503121561086d5761086c610477565b5b600061087b858286016104a2565b925050602083013567ffffffffffffffff81111561089c5761089b61047c565b5b6108a885828601610680565b9150509250929050565b600073ffffffffffffffffffffffffffffffffffffffff82169050919050565b60006108dd826108b2565b9050919050565b6108ed816108d2565b82525050565b600060208201905061090860008301846108e4565b92915050565b600060ff82169050919050565b7f4e487b7100000000000000000000000000000000000000000000000000000000600052601160045260246000fd5b60006109558261090e565b91506109608361090e565b9250828201905060ff8111156109795761097861091b565b5b92915050565b600082825260208201905092915050565b7f45434453413a20696e76616c6964207369676e6174757265206c656e67746800600082015250565b60006109c6601f8361097f565b91506109d182610990565b602082019050919050565b600060208201905081810360008301526109f5816109b9565b9050919050565b7f45434453413a20696e76616c6964207369676e6174757265202773272076616c60008201527f7565000000000000000000000000000000000000000000000000000000000000602082015250565b6000610a5860228361097f565b9150610a63826109fc565b604082019050919050565b60006020820190508181036000830152610a8781610a4b565b9050919050565b7f45434453413a20696e76616c6964207369676e6174757265202776272076616c60008201527f7565000000000000000000000000000000000000000000000000000000000000602082015250565b6000610aea60228361097f565b9150610af582610a8e565b604082019050919050565b60006020820190508181036000830152610b1981610add565b9050919050565b610b2981610481565b82525050565b610b388161090e565b82525050565b6000608082019050610b536000830187610b20565b610b606020830186610b2f565b610b6d6040830185610b20565b610b7a6060830184610b20565b95945050505050565b7f45434453413a20696e76616c6964207369676e61747572650000000000000000600082015250565b6000610bb960188361097f565b9150610bc482610b83565b602082019050919050565b60006020820190508181036000830152610be881610bac565b905091905056fea2646970667358221220a46c1f9d44743b01f3b6ec2dd8e19aae94decbad1dfa445bbd2dbe228b70f6ab64736f6c63430008130033","opcodes":"PUSH1 0x80 PUSH1 0x40 MSTORE CALLVALUE DUP1 ISZERO PUSH2 0x10 JUMPI PUSH1 0x0 DUP1 REVERT JUMPDEST POP PUSH2 0xC25 DUP1 PUSH2 0x20 PUSH1 0x0 CODECOPY PUSH1 0x0 RETURN INVALID PUSH1 0x80 PUSH1 0x40 MSTORE CALLVALUE DUP1 ISZERO PUSH2 0x10 JUMPI PUSH1 0x0 DUP1 REVERT JUMPDEST POP PUSH1 0x4 CALLDATASIZE LT PUSH2 0x88 JUMPI PUSH1 0x0 CALLDATALOAD PUSH1 0xE0 SHR DUP1 PUSH4 0x79A85BD9 GT PUSH2 0x5B JUMPI DUP1 PUSH4 0x79A85BD9 EQ PUSH2 0xEB JUMPI DUP1 PUSH4 0xA5DD32AC EQ PUSH2 0x107 JUMPI DUP1 PUSH4 0xB80777EA EQ PUSH2 0x125 JUMPI DUP1 PUSH4 0xDACA6F78 EQ PUSH2 0x143 JUMPI PUSH2 0x88 JUMP JUMPDEST DUP1 PUSH4 0x6AC0E26 EQ PUSH2 0x8D JUMPI DUP1 PUSH4 0x11DA60B4 EQ PUSH2 0xA9 JUMPI DUP1 PUSH4 0x3740D249 EQ PUSH2 0xB3 JUMPI DUP1 PUSH4 0x43F104D2 EQ PUSH2 0xCF JUMPI JUMPDEST PUSH1 0x0 DUP1 REVERT JUMPDEST PUSH2 0xA7 PUSH1 0x4 DUP1 CALLDATASIZE SUB DUP2 ADD SWAP1 PUSH2 0xA2 SWAP2 SWAP1 PUSH2 0x4ED JUMP JUMPDEST PUSH2 0x173 JUMP JUMPDEST STOP JUMPDEST PUSH2 0xB1 PUSH2 0x19D JUMP JUMPDEST STOP JUMPDEST PUSH2 0xCD PUSH1 0x4 DUP1 CALLDATASIZE SUB DUP2 ADD SWAP1 PUSH2 0xC8 SWAP2 SWAP1 PUSH2 0x6AE JUMP JUMPDEST PUSH2 0x19F JUMP JUMPDEST STOP JUMPDEST PUSH2 0xE9 PUSH1 0x4 DUP1 CALLDATASIZE SUB DUP2 ADD SWAP1 PUSH2 0xE4 SWAP2 SWAP1 PUSH2 0x6AE JUMP JUMPDEST PUSH2 0x1A5 JUMP JUMPDEST STOP JUMPDEST PUSH2 0x105 PUSH1 0x4 DUP1 CALLDATASIZE SUB DUP2 ADD SWAP1 PUSH2 0x100 SWAP2 SWAP1 PUSH2 0x785 JUMP JUMPDEST PUSH2 0x1AB JUMP JUMPDEST STOP JUMPDEST PUSH2 0x10F PUSH2 0x1B0 JUMP JUMPDEST PUSH1 0x40 MLOAD PUSH2 0x11C SWAP2 SWAP1 PUSH2 0x83B JUMP JUMPDEST PUSH1 0x40 MLOAD DUP1 SWAP2 SUB SWAP1 RETURN JUMPDEST PUSH2 0x12D PUSH2 0x1B6 JUMP JUMPDEST PUSH1 0x40 MLOAD PUSH2 0x13A SWAP2 SWAP1 PUSH2 0x83B JUMP JUMPDEST PUSH1 0x40 MLOAD DUP1 SWAP2 SUB SWAP1 RETURN JUMPDEST PUSH2 0x15D PUSH1 0x4 DUP1 CALLDATASIZE SUB DUP2 ADD SWAP1 PUSH2 0x158 SWAP2 SWAP1 PUSH2 0x856 JUMP JUMPDEST PUSH2 0x1BC JUMP JUMPDEST PUSH1 0x40 MLOAD PUSH2 0x16A SWAP2 SWAP1 PUSH2 0x8F3 JUMP JUMPDEST PUSH1 0x40 MLOAD DUP1 SWAP2 SUB SWAP1 RETURN JUMPDEST DUP5 PUSH1 0x0 DUP2 SWAP1 SSTORE POP DUP4 PUSH1 0x1 DUP2 SWAP1 SSTORE POP DUP3 PUSH1 0x2 DUP2 SWAP1 SSTORE POP DUP2 PUSH1 0x3 DUP2 SWAP1 SSTORE POP DUP1 PUSH1 0x4 DUP2 SWAP1 SSTORE POP POP POP POP POP POP JUMP JUMPDEST JUMP JUMPDEST POP POP POP POP JUMP JUMPDEST POP POP POP POP JUMP JUMPDEST POP POP POP JUMP JUMPDEST PUSH1 0x5 SLOAD DUP2 JUMP JUMPDEST PUSH1 0x4 SLOAD DUP2 JUMP JUMPDEST PUSH1 0x0 PUSH2 0x1C8 DUP4 DUP4 PUSH2 0x1D0 JUMP JUMPDEST SWAP1 POP SWAP3 SWAP2 POP POP JUMP JUMPDEST PUSH1 0x0 PUSH1 0x41 DUP3 MLOAD SUB PUSH2 0x22A JUMPI PUSH1 0x0 DUP1 PUSH1 0x0 PUSH1 0x20 DUP6 ADD MLOAD SWAP3 POP PUSH1 0x40 DUP6 ADD MLOAD SWAP2 POP PUSH1 0x60 DUP6 ADD MLOAD PUSH1 0x0 BYTE SWAP1 POP PUSH1 0x1B DUP2 PUSH1 0xFF AND LT ISZERO PUSH2 0x214 JUMPI PUSH1 0x1B DUP2 PUSH2 0x211 SWAP2 SWAP1 PUSH2 0x94A JUMP JUMPDEST SWAP1 POP JUMPDEST PUSH2 0x220 DUP7 DUP3 DUP6 DUP6 PUSH2 0x299 JUMP JUMPDEST SWAP4 POP POP POP POP PUSH2 0x293 JUMP JUMPDEST PUSH1 0x40 DUP3 MLOAD SUB PUSH2 0x258 JUMPI PUSH1 0x0 DUP1 PUSH1 0x20 DUP5 ADD MLOAD SWAP2 POP PUSH1 0x40 DUP5 ADD MLOAD SWAP1 POP PUSH2 0x24F DUP6 DUP4 DUP4 PUSH2 0x423 JUMP JUMPDEST SWAP3 POP POP POP PUSH2 0x293 JUMP JUMPDEST PUSH1 0x40 MLOAD PUSH32 0x8C379A000000000000000000000000000000000000000000000000000000000 DUP2 MSTORE PUSH1 0x4 ADD PUSH2 0x28A SWAP1 PUSH2 0x9DC JUMP JUMPDEST PUSH1 0x40 MLOAD DUP1 SWAP2 SUB SWAP1 REVERT JUMPDEST SWAP3 SWAP2 POP POP JUMP JUMPDEST PUSH1 0x0 PUSH32 0x7FFFFFFFFFFFFFFFFFFFFFFFFFFFFFFF5D576E7357A4501DDFE92F46681B20A0 DUP3 PUSH1 0x0 SHR GT ISZERO PUSH2 0x301 JUMPI PUSH1 0x40 MLOAD PUSH32 0x8C379A000000000000000000000000000000000000000000000000000000000 DUP2 MSTORE PUSH1 0x4 ADD PUSH2 0x2F8 SWAP1 PUSH2 0xA6E JUMP JUMPDEST PUSH1 0x40 MLOAD DUP1 SWAP2 SUB SWAP1 REVERT JUMPDEST PUSH1 0x1B DUP5 PUSH1 0xFF AND EQ DUP1 PUSH2 0x316 JUMPI POP PUSH1 0x1C DUP5 PUSH1 0xFF AND EQ JUMPDEST PUSH2 0x355 JUMPI PUSH1 0x40 MLOAD PUSH32 0x8C379A000000000000000000000000000000000000000000000000000000000 DUP2 MSTORE PUSH1 0x4 ADD PUSH2 0x34C SWAP1 PUSH2 0xB00 JUMP JUMPDEST PUSH1 0x40 MLOAD DUP1 SWAP2 SUB SWAP1 REVERT JUMPDEST PUSH1 0x0 PUSH1 0x1 DUP7 DUP7 DUP7 DUP7 PUSH1 0x40 MLOAD PUSH1 0x0 DUP2 MSTORE PUSH1 0x20 ADD PUSH1 0x40 MSTORE PUSH1 0x40 MLOAD PUSH2 0x37A SWAP5 SWAP4 SWAP3 SWAP2 SWAP1 PUSH2 0xB3E JUMP JUMPDEST PUSH1 0x20 PUSH1 0x40 MLOAD PUSH1 0x20 DUP2 SUB SWAP1 DUP1 DUP5 SUB SWAP1 DUP6 GAS STATICCALL ISZERO DUP1 ISZERO PUSH2 0x39C JUMPI RETURNDATASIZE PUSH1 0x0 DUP1 RETURNDATACOPY RETURNDATASIZE PUSH1 0x0 REVERT JUMPDEST POP POP POP PUSH1 0x20 PUSH1 0x40 MLOAD SUB MLOAD SWAP1 POP PUSH1 0x0 PUSH20 0xFFFFFFFFFFFFFFFFFFFFFFFFFFFFFFFFFFFFFFFF AND DUP2 PUSH20 0xFFFFFFFFFFFFFFFFFFFFFFFFFFFFFFFFFFFFFFFF AND SUB PUSH2 0x417 JUMPI PUSH1 0x40 MLOAD PUSH32 0x8C379A000000000000000000000000000000000000000000000000000000000 DUP2 MSTORE PUSH1 0x4 ADD PUSH2 0x40E SWAP1 PUSH2 0xBCF JUMP JUMPDEST PUSH1 0x40 MLOAD DUP1 SWAP2 SUB SWAP1 REVERT JUMPDEST DUP1 SWAP2 POP POP SWAP5 SWAP4 POP POP POP POP JUMP JUMPDEST PUSH1 0x0 DUP1 PUSH1 0x0 PUSH32 0x7FFFFFFFFFFFFFFFFFFFFFFFFFFFFFFFFFFFFFFFFFFFFFFFFFFFFFFFFFFFFFFF DUP5 AND SWAP2 POP PUSH1 0x1B DUP5 PUSH1 0xFF SHR ADD SWAP1 POP PUSH2 0x462 DUP7 DUP3 DUP8 DUP6 PUSH2 0x299 JUMP JUMPDEST SWAP3 POP POP POP SWAP4 SWAP3 POP POP POP JUMP JUMPDEST PUSH1 0x0 PUSH1 0x40 MLOAD SWAP1 POP SWAP1 JUMP JUMPDEST PUSH1 0x0 DUP1 REVERT JUMPDEST PUSH1 0x0 DUP1 REVERT JUMPDEST PUSH1 0x0 DUP2 SWAP1 POP SWAP2 SWAP1 POP JUMP JUMPDEST PUSH2 0x494 DUP2 PUSH2 0x481 JUMP JUMPDEST DUP2 EQ PUSH2 0x49F JUMPI PUSH1 0x0 DUP1 REVERT JUMPDEST POP JUMP JUMPDEST PUSH1 0x0 DUP2 CALLDATALOAD SWAP1 POP PUSH2 0x4B1 DUP2 PUSH2 0x48B JUMP JUMPDEST SWAP3 SWAP2 POP POP JUMP JUMPDEST PUSH1 0x0 DUP2 SWAP1 POP SWAP2 SWAP1 POP JUMP JUMPDEST PUSH2 0x4CA DUP2 PUSH2 0x4B7 JUMP JUMPDEST DUP2 EQ PUSH2 0x4D5 JUMPI PUSH1 0x0 DUP1 REVERT JUMPDEST POP JUMP JUMPDEST PUSH1 0x0 DUP2 CALLDATALOAD SWAP1 POP PUSH2 0x4E7 DUP2 PUSH2 0x4C1 JUMP JUMPDEST SWAP3 SWAP2 POP POP JUMP JUMPDEST PUSH1 0x0 DUP1 PUSH1 0x0 DUP1 PUSH1 0x0 PUSH1 0xA0 DUP7 DUP9 SUB SLT ISZERO PUSH2 0x509 JUMPI PUSH2 0x508 PUSH2 0x477 JUMP JUMPDEST JUMPDEST PUSH1 0x0 PUSH2 0x517 DUP9 DUP3 DUP10 ADD PUSH2 0x4A2 JUMP JUMPDEST SWAP6 POP POP PUSH1 0x20 PUSH2 0x528 DUP9 DUP3 DUP10 ADD PUSH2 0x4A2 JUMP JUMPDEST SWAP5 POP POP PUSH1 0x40 PUSH2 0x539 DUP9 DUP3 DUP10 ADD PUSH2 0x4A2 JUMP JUMPDEST SWAP4 POP POP PUSH1 0x60 PUSH2 0x54A DUP9 DUP3 DUP10 ADD PUSH2 0x4D8 JUMP JUMPDEST SWAP3 POP POP PUSH1 0x80 PUSH2 0x55B DUP9 DUP3 DUP10 ADD PUSH2 0x4D8 JUMP JUMPDEST SWAP2 POP POP SWAP3 SWAP6 POP SWAP3 SWAP6 SWAP1 SWAP4 POP JUMP JUMPDEST PUSH1 0x0 DUP1 REVERT JUMPDEST PUSH1 0x0 DUP1 REVERT JUMPDEST PUSH1 0x0 PUSH1 0x1F NOT PUSH1 0x1F DUP4 ADD AND SWAP1 POP SWAP2 SWAP1 POP JUMP JUMPDEST PUSH32 0x4E487B7100000000000000000000000000000000000000000000000000000000 PUSH1 0x0 MSTORE PUSH1 0x41 PUSH1 0x4 MSTORE PUSH1 0x24 PUSH1 0x0 REVERT JUMPDEST PUSH2 0x5BB DUP3 PUSH2 0x572 JUMP JUMPDEST DUP2 ADD DUP2 DUP2 LT PUSH8 0xFFFFFFFFFFFFFFFF DUP3 GT OR ISZERO PUSH2 0x5DA JUMPI PUSH2 0x5D9 PUSH2 0x583 JUMP JUMPDEST JUMPDEST DUP1 PUSH1 0x40 MSTORE POP POP POP JUMP JUMPDEST PUSH1 0x0 PUSH2 0x5ED PUSH2 0x46D JUMP JUMPDEST SWAP1 POP PUSH2 0x5F9 DUP3 DUP3 PUSH2 0x5B2 JUMP JUMPDEST SWAP2 SWAP1 POP JUMP JUMPDEST PUSH1 0x0 PUSH8 0xFFFFFFFFFFFFFFFF DUP3 GT ISZERO PUSH2 0x619 JUMPI PUSH2 0x618 PUSH2 0x583 JUMP JUMPDEST JUMPDEST PUSH2 0x622 DUP3 PUSH2 0x572 JUMP JUMPDEST SWAP1 POP PUSH1 0x20 DUP2 ADD SWAP1 POP SWAP2 SWAP1 POP JUMP JUMPDEST DUP3 DUP2 DUP4 CALLDATACOPY PUSH1 0x0 DUP4 DUP4 ADD MSTORE POP POP POP JUMP JUMPDEST PUSH1 0x0 PUSH2 0x651 PUSH2 0x64C DUP5 PUSH2 0x5FE JUMP JUMPDEST PUSH2 0x5E3 JUMP JUMPDEST SWAP1 POP DUP3 DUP2 MSTORE PUSH1 0x20 DUP2 ADD DUP5 DUP5 DUP5 ADD GT ISZERO PUSH2 0x66D JUMPI PUSH2 0x66C PUSH2 0x56D JUMP JUMPDEST JUMPDEST PUSH2 0x678 DUP5 DUP3 DUP6 PUSH2 0x62F JUMP JUMPDEST POP SWAP4 SWAP3 POP POP POP JUMP JUMPDEST PUSH1 0x0 DUP3 PUSH1 0x1F DUP4 ADD SLT PUSH2 0x695 JUMPI PUSH2 0x694 PUSH2 0x568 JUMP JUMPDEST JUMPDEST DUP2 CALLDATALOAD PUSH2 0x6A5 DUP5 DUP3 PUSH1 0x20 DUP7 ADD PUSH2 0x63E JUMP JUMPDEST SWAP2 POP POP SWAP3 SWAP2 POP POP JUMP JUMPDEST PUSH1 0x0 DUP1 PUSH1 0x0 DUP1 PUSH1 0x80 DUP6 DUP8 SUB SLT ISZERO PUSH2 0x6C8 JUMPI PUSH2 0x6C7 PUSH2 0x477 JUMP JUMPDEST JUMPDEST PUSH1 0x0 DUP6 ADD CALLDATALOAD PUSH8 0xFFFFFFFFFFFFFFFF DUP2 GT ISZERO PUSH2 0x6E6 JUMPI PUSH2 0x6E5 PUSH2 0x47C JUMP JUMPDEST JUMPDEST PUSH2 0x6F2 DUP8 DUP3 DUP9 ADD PUSH2 0x680 JUMP JUMPDEST SWAP5 POP POP PUSH1 0x20 DUP6 ADD CALLDATALOAD PUSH8 0xFFFFFFFFFFFFFFFF DUP2 GT ISZERO PUSH2 0x713 JUMPI PUSH2 0x712 PUSH2 0x47C JUMP JUMPDEST JUMPDEST PUSH2 0x71F DUP8 DUP3 DUP9 ADD PUSH2 0x680 JUMP JUMPDEST SWAP4 POP POP PUSH1 0x40 DUP6 ADD CALLDATALOAD PUSH8 0xFFFFFFFFFFFFFFFF DUP2 GT ISZERO PUSH2 0x740 JUMPI PUSH2 0x73F PUSH2 0x47C JUMP JUMPDEST JUMPDEST PUSH2 0x74C DUP8 DUP3 DUP9 ADD PUSH2 0x680 JUMP JUMPDEST SWAP3 POP POP PUSH1 0x60 DUP6 ADD CALLDATALOAD PUSH8 0xFFFFFFFFFFFFFFFF DUP2 GT ISZERO PUSH2 0x76D JUMPI PUSH2 0x76C PUSH2 0x47C JUMP JUMPDEST JUMPDEST PUSH2 0x779 DUP8 DUP3 DUP9 ADD PUSH2 0x680 JUMP JUMPDEST SWAP2 POP POP SWAP3 SWAP6 SWAP2 SWAP5 POP SWAP3 POP JUMP JUMPDEST PUSH1 0x0 DUP1 PUSH1 0x0 PUSH1 0x60 DUP5 DUP7 SUB SLT ISZERO PUSH2 0x79E JUMPI PUSH2 0x79D PUSH2 0x477 JUMP JUMPDEST JUMPDEST PUSH1 0x0 DUP5 ADD CALLDATALOAD PUSH8 0xFFFFFFFFFFFFFFFF DUP2 GT ISZERO PUSH2 0x7BC JUMPI PUSH2 0x7BB PUSH2 0x47C JUMP JUMPDEST JUMPDEST PUSH2 0x7C8 DUP7 DUP3 DUP8 ADD PUSH2 0x680 JUMP JUMPDEST SWAP4 POP POP PUSH1 0x20 DUP5 ADD CALLDATALOAD PUSH8 0xFFFFFFFFFFFFFFFF DUP2 GT ISZERO PUSH2 0x7E9 JUMPI PUSH2 0x7E8 PUSH2 0x47C JUMP JUMPDEST JUMPDEST PUSH2 0x7F5 DUP7 DUP3 DUP8 ADD PUSH2 0x680 JUMP JUMPDEST SWAP3 POP POP PUSH1 0x40 DUP5 ADD CALLDATALOAD PUSH8 0xFFFFFFFFFFFFFFFF DUP2 GT ISZERO PUSH2 0x816 JUMPI PUSH2 0x815 PUSH2 0x47C JUMP JUMPDEST JUMPDEST PUSH2 0x822 DUP7 DUP3 DUP8 ADD PUSH2 0x680 JUMP JUMPDEST SWAP2 POP POP SWAP3 POP SWAP3 POP SWAP3 JUMP JUMPDEST PUSH2 0x835 DUP2 PUSH2 0x4B7 JUMP JUMPDEST DUP3 MSTORE POP POP JUMP JUMPDEST PUSH1 0x0 PUSH1 0x20 DUP3 ADD SWAP1 POP PUSH2 0x850 PUSH1 0x0 DUP4 ADD DUP5 PUSH2 0x82C JUMP JUMPDEST SWAP3 SWAP2 POP POP JUMP JUMPDEST PUSH1 0x0 DUP1 PUSH1 0x40 DUP4 DUP6 SUB SLT ISZERO PUSH2 0x86D JUMPI PUSH2 0x86C PUSH2 0x477 JUMP JUMPDEST JUMPDEST PUSH1 0x0 PUSH2 0x87B DUP6 DUP3 DUP7 ADD PUSH2 0x4A2 JUMP JUMPDEST SWAP3 POP POP PUSH1 0x20 DUP4 ADD CALLDATALOAD PUSH8 0xFFFFFFFFFFFFFFFF DUP2 GT ISZERO PUSH2 0x89C JUMPI PUSH2 0x89B PUSH2 0x47C JUMP JUMPDEST JUMPDEST PUSH2 0x8A8 DUP6 DUP3 DUP7 ADD PUSH2 0x680 JUMP JUMPDEST SWAP2 POP POP SWAP3 POP SWAP3 SWAP1 POP JUMP JUMPDEST PUSH1 0x0 PUSH20 0xFFFFFFFFFFFFFFFFFFFFFFFFFFFFFFFFFFFFFFFF DUP3 AND SWAP1 POP SWAP2 SWAP1 POP JUMP JUMPDEST PUSH1 0x0 PUSH2 0x8DD DUP3 PUSH2 0x8B2 JUMP JUMPDEST SWAP1 POP SWAP2 SWAP1 POP JUMP JUMPDEST PUSH2 0x8ED DUP2 PUSH2 0x8D2 JUMP JUMPDEST DUP3 MSTORE POP POP JUMP JUMPDEST PUSH1 0x0 PUSH1 0x20 DUP3 ADD SWAP1 POP PUSH2 0x908 PUSH1 0x0 DUP4 ADD DUP5 PUSH2 0x8E4 JUMP JUMPDEST SWAP3 SWAP2 POP POP JUMP JUMPDEST PUSH1 0x0 PUSH1 0xFF DUP3 AND SWAP1 POP SWAP2 SWAP1 POP JUMP JUMPDEST PUSH32 0x4E487B7100000000000000000000000000000000000000000000000000000000 PUSH1 0x0 MSTORE PUSH1 0x11 PUSH1 0x4 MSTORE PUSH1 0x24 PUSH1 0x0 REVERT JUMPDEST PUSH1 0x0 PUSH2 0x955 DUP3 PUSH2 0x90E JUMP JUMPDEST SWAP2 POP PUSH2 0x960 DUP4 PUSH2 0x90E JUMP JUMPDEST SWAP3 POP DUP3 DUP3 ADD SWAP1 POP PUSH1 0xFF DUP2 GT ISZERO PUSH2 0x979 JUMPI PUSH2 0x978 PUSH2 0x91B JUMP JUMPDEST JUMPDEST SWAP3 SWAP2 POP POP JUMP JUMPDEST PUSH1 0x0 DUP3 DUP3 MSTORE PUSH1 0x20 DUP3 ADD SWAP1 POP SWAP3 SWAP2 POP POP JUMP JUMPDEST PUSH32 0x45434453413A20696E76616C6964207369676E6174757265206C656E67746800 PUSH1 0x0 DUP3 ADD MSTORE POP JUMP JUMPDEST PUSH1 0x0 PUSH2 0x9C6 PUSH1 0x1F DUP4 PUSH2 0x97F JUMP JUMPDEST SWAP2 POP PUSH2 0x9D1 DUP3 PUSH2 0x990 JUMP JUMPDEST PUSH1 0x20 DUP3 ADD SWAP1 POP SWAP2 SWAP1 POP JUMP JUMPDEST PUSH1 0x0 PUSH1 0x20 DUP3 ADD SWAP1 POP DUP2 DUP2 SUB PUSH1 0x0 DUP4 ADD MSTORE PUSH2 0x9F5 DUP2 PUSH2 0x9B9 JUMP JUMPDEST SWAP1 POP SWAP2 SWAP1 POP JUMP JUMPDEST PUSH32 0x45434453413A20696E76616C6964207369676E6174757265202773272076616C PUSH1 0x0 DUP3 ADD MSTORE PUSH32 0x7565000000000000000000000000000000000000000000000000000000000000 PUSH1 0x20 DUP3 ADD MSTORE POP JUMP JUMPDEST PUSH1 0x0 PUSH2 0xA58 PUSH1 0x22 DUP4 PUSH2 0x97F JUMP JUMPDEST SWAP2 POP PUSH2 0xA63 DUP3 PUSH2 0x9FC JUMP JUMPDEST PUSH1 0x40 DUP3 ADD SWAP1 POP SWAP2 SWAP1 POP JUMP JUMPDEST PUSH1 0x0 PUSH1 0x20 DUP3 ADD SWAP1 POP DUP2 DUP2 SUB PUSH1 0x0 DUP4 ADD MSTORE PUSH2 0xA87 DUP2 PUSH2 0xA4B JUMP JUMPDEST SWAP1 POP SWAP2 SWAP1 POP JUMP JUMPDEST PUSH32 0x45434453413A20696E76616C6964207369676E6174757265202776272076616C PUSH1 0x0 DUP3 ADD MSTORE PUSH32 0x7565000000000000000000000000000000000000000000000000000000000000 PUSH1 0x20 DUP3 ADD MSTORE POP JUMP JUMPDEST PUSH1 0x0 PUSH2 0xAEA PUSH1 0x22 DUP4 PUSH2 0x97F JUMP JUMPDEST SWAP2 POP PUSH2 0xAF5 DUP3 PUSH2 0xA8E JUMP JUMPDEST PUSH1 0x40 DUP3 ADD SWAP1 POP SWAP2 SWAP1 POP JUMP JUMPDEST PUSH1 0x0 PUSH1 0x20 DUP3 ADD SWAP1 POP DUP2 DUP2 SUB PUSH1 0x0 DUP4 ADD MSTORE PUSH2 0xB19 DUP2 PUSH2 0xADD JUMP JUMPDEST SWAP1 POP SWAP2 SWAP1 POP JUMP JUMPDEST PUSH2 0xB29 DUP2 PUSH2 0x481 JUMP JUMPDEST DUP3 MSTORE POP POP JUMP JUMPDEST PUSH2 0xB38 DUP2 PUSH2 0x90E JUMP JUMPDEST DUP3 MSTORE POP POP JUMP JUMPDEST PUSH1 0x0 PUSH1 0x80 DUP3 ADD SWAP1 POP PUSH2 0xB53 PUSH1 0x0 DUP4 ADD DUP8 PUSH2 0xB20 JUMP JUMPDEST PUSH2 0xB60 PUSH1 0x20 DUP4 ADD DUP7 PUSH2 0xB2F JUMP JUMPDEST PUSH2 0xB6D PUSH1 0x40 DUP4 ADD DUP6 PUSH2 0xB20 JUMP JUMPDEST PUSH2 0xB7A PUSH1 0x60 DUP4 ADD DUP5 PUSH2 0xB20 JUMP JUMPDEST SWAP6 SWAP5 POP POP POP POP POP JUMP JUMPDEST PUSH32 0x45434453413A20696E76616C6964207369676E61747572650000000000000000 PUSH1 0x0 DUP3 ADD MSTORE POP JUMP JUMPDEST PUSH1 0x0 PUSH2 0xBB9 PUSH1 0x18 DUP4 PUSH2 0x97F JUMP JUMPDEST SWAP2 POP PUSH2 0xBC4 DUP3 PUSH2 0xB83 JUMP JUMPDEST PUSH1 0x20 DUP3 ADD SWAP1 POP SWAP2 SWAP1 POP JUMP JUMPDEST PUSH1 0x0 PUSH1 0x20 DUP3 ADD SWAP1 POP DUP2 DUP2 SUB PUSH1 0x0 DUP4 ADD MSTORE PUSH2 0xBE8 DUP2 PUSH2 0xBAC JUMP JUMPDEST SWAP1 POP SWAP2 SWAP1 POP JUMP INVALID LOG2 PUSH5 0x6970667358 0x22 SLT KECCAK256 LOG4 PUSH13 0x1F9D44743B01F3B6EC2DD8E19A 0xAE SWAP5 0xDE 0xCB 0xAD SAR STATICCALL PREVRANDAO JUMPDEST 0xBD 0x2D 0xBE 0x22 DUP12 PUSH17 0xF6AB64736F6C6343000813003300000000 "},"methodIdentifiers":{"dispute(bytes,bytes,bytes,bytes)":"43f104d2","resolveDispute(bytes,bytes,bytes)":"79a85bd9","settle()":"11da60b4","setup(bytes32,bytes32,bytes32,uint256,uint256)":"06ac0e26","submitProof(bytes,bytes,bytes,bytes)":"3740d249","timestamp()":"b80777ea","timestamp_dispute()":"a5dd32ac","verifySignature(bytes32,bytes)":"daca6f78"}}}}}