{"contracts/LNBridge.sol":{"LNBridge":{"abi":[{"inputs":[{"internalType":"uint256","name":"value","type":"uint256"},{"internalType":"uint256","name":"length","type":"uint256"}],"name":"StringsInsufficientHexLength","type":"error"},{"inputs":[],"name":"bridge","outputs":[{"internalType":"bytes32","name":"fundingTxId","type":"bytes32"},{"internalType":"bytes32","name":"pkProver","type":"bytes32"},{"internalType":"bytes32","name":"pkVerifier","type":"bytes32"},{"internalType":"uint256","name":"index","type":"uint256"},{"internalType":"uint256","name":"timelock","type":"uint256"},{"internalType":"uint256","name":"timelock_dispute","type":"uint256"}],"stateMutability":"view","type":"function"},{"inputs":[{"internalType":"bytes","name":"rawTxP_locked","type":"bytes"},{"internalType":"bytes","name":"sigV","type":"bytes"},{"internalType":"bytes","name":"rawTxV_unlocked","type":"bytes"},{"internalType":"bytes","name":"sigP","type":"bytes"}],"name":"dispute","outputs":[],"stateMutability":"nonpayable","type":"function"},{"inputs":[{"internalType":"bytes","name":"_txBytes","type":"bytes"}],"name":"getInputsData","outputs":[{"internalType":"bytes1","name":"","type":"bytes1"},{"internalType":"bytes32","name":"","type":"bytes32"},{"internalType":"bytes4","name":"","type":"bytes4"}],"stateMutability":"nonpayable","type":"function"},{"inputs":[{"internalType":"bytes","name":"_txBytes","type":"bytes"}],"name":"getOutputsData","outputs":[{"internalType":"uint256","name":"","type":"uint256"},{"internalType":"bytes32","name":"","type":"bytes32"},{"internalType":"bytes32","name":"","type":"bytes32"},{"internalType":"bytes32","name":"","type":"bytes32"},{"internalType":"uint256","name":"","type":"uint256"},{"internalType":"bytes32","name":"","type":"bytes32"},{"internalType":"uint256","name":"","type":"uint256"},{"internalType":"bytes32","name":"","type":"bytes32"}],"stateMutability":"nonpayable","type":"function"},{"inputs":[{"internalType":"bytes","name":"_txBytes","type":"bytes"}],"name":"getSignatures","outputs":[{"components":[{"internalType":"uint8","name":"v","type":"uint8"},{"internalType":"bytes32","name":"r","type":"bytes32"},{"internalType":"bytes32","name":"s","type":"bytes32"}],"internalType":"struct LNBridge.Signature[]","name":"","type":"tuple[]"}],"stateMutability":"nonpayable","type":"function"},{"inputs":[{"internalType":"bytes","name":"_txBytes","type":"bytes"}],"name":"getTimelock","outputs":[{"internalType":"bytes4","name":"","type":"bytes4"}],"stateMutability":"nonpayable","type":"function"},{"inputs":[],"name":"htlc","outputs":[{"internalType":"uint256","name":"value","type":"uint256"},{"internalType":"bytes32","name":"pk1","type":"bytes32"},{"internalType":"bytes32","name":"pk2","type":"bytes32"},{"internalType":"bytes32","name":"rev_secret","type":"bytes32"}],"stateMutability":"view","type":"function"},{"inputs":[],"name":"opreturn","outputs":[{"internalType":"uint256","name":"value","type":"uint256"},{"internalType":"bytes32","name":"data","type":"bytes32"}],"stateMutability":"view","type":"function"},{"inputs":[],"name":"out_aux","outputs":[{"internalType":"uint256","name":"pos","type":"uint256"}],"stateMutability":"view","type":"function"},{"inputs":[],"name":"p2pkh","outputs":[{"internalType":"uint256","name":"value","type":"uint256"},{"internalType":"bytes32","name":"pkhash","type":"bytes32"}],"stateMutability":"view","type":"function"},{"inputs":[{"internalType":"bytes","name":"oldRevSecret","type":"bytes"},{"internalType":"bytes","name":"rawTxP_unlocked","type":"bytes"},{"internalType":"bytes","name":"sigV","type":"bytes"}],"name":"resolveDispute","outputs":[],"stateMutability":"nonpayable","type":"function"},{"inputs":[],"name":"settle","outputs":[],"stateMutability":"nonpayable","type":"function"},{"inputs":[{"internalType":"bytes32","name":"_fundingTxId","type":"bytes32"},{"internalType":"bytes32","name":"_pkProver","type":"bytes32"},{"internalType":"bytes32","name":"_pkVerifier","type":"bytes32"},{"internalType":"uint256","name":"_index","type":"uint256"},{"internalType":"uint256","name":"_timelock","type":"uint256"}],"name":"setup","outputs":[],"stateMutability":"nonpayable","type":"function"},{"inputs":[{"internalType":"bytes","name":"rawTxP_unlocked","type":"bytes"},{"internalType":"bytes","name":"sigV","type":"bytes"},{"internalType":"bytes","name":"rawTxV_unlocked","type":"bytes"},{"internalType":"bytes","name":"sigP","type":"bytes"}],"name":"submitProof","outputs":[],"stateMutability":"nonpayable","type":"function"}],"evm":{"bytecode":{"linkReferences":{},"object":"608060405234801561001057600080fd5b506133c1806100206000396000f3fe608060405234801561001057600080fd5b50600436106100ea5760003560e01c806366b85d571161008c57806379a85bd91161006657806379a85bd9146102535780638504b3b91461026f578063e4b23d0c1461028e578063e78cea92146102af576100ea565b806366b85d57146101e65780636b45b4e31461020457806372ca346f14610234576100ea565b80633740d249116100c85780633740d2491461014557806343f104d214610161578063497c6cf61461017d5780634f500ea9146101b4576100ea565b806306ac0e26146100ef57806311da60b41461010b5780633694648014610115575b600080fd5b61010960048036038101906101049190612513565b6102d2565b005b61011361030b565b005b61012f600480360381019061012a91906126d4565b61030d565b60405161013c9190612758565b60405180910390f35b61015f600480360381019061015a9190612773565b610343565b005b61017b60048036038101906101769190612773565b610349565b005b610197600480360381019061019291906126d4565b61034f565b6040516101ab989796959493929190612868565b60405180910390f35b6101ce60048036038101906101c991906126d4565b610645565b6040516101dd93929190612921565b60405180910390f35b6101ee6106fe565b6040516101fb9190612958565b60405180910390f35b61021e600480360381019061021991906126d4565b61070a565b60405161022b9190612a8f565b60405180910390f35b61023c610716565b60405161024a929190612ab1565b60405180910390f35b61026d60048036038101906102689190612ada565b610728565b005b61027761072d565b604051610285929190612ab1565b60405180910390f35b61029661073f565b6040516102a69493929190612b81565b60405180910390f35b6102b761075d565b6040516102c996959493929190612bc6565b60405180910390f35b84600d6000018190555083600d6001018190555082600d6002018190555081600d6003018190555080600d600401819055505050505050565b565b60008082519050600061032e846005846103279190612c56565b6004610787565b61033790612cc7565b90508092505050919050565b50505050565b50505050565b60008060008060008060008060046008600001819055506103778960086000015460006108a5565b600860010160006008600001600084919050558391905090805190602001906103a192919061241f565b5050506103b58960086000015460006109b7565b6008600401600060086003016000600860020160006008600001600088919050558791905090805190602001906103ed92919061241f565b5086919050908051906020019061040592919061241f565b5085919050908051906020019061041d92919061241f565b505050505060005b60038110156105fa57600081036104d3576104838a6008600301838154811061045157610450612d2e565b5b90600052602060002001546008600201848154811061047357610472612d2e565b5b9060005260206000200154610bae565b60006001016000806003016000806002016000869190505585919050558491905055505050600860040181815481106104bf576104be612d2e565b5b906000526020600020015460008001819055505b6001810361055d576105288a600860030183815481106104f6576104f5612d2e565b5b90600052602060002001546008600201848154811061051857610517612d2e565b5b9060005260206000200154610c6a565b6006600101819055506008600401818154811061054857610547612d2e565b5b90600052602060002001546006600001819055505b600281036105e7576105b28a600860030183815481106105805761057f612d2e565b5b9060005260206000200154600860020184815481106105a2576105a1612d2e565b5b9060005260206000200154610c6a565b600460010181905550600860040181815481106105d2576105d1612d2e565b5b90600052602060002001546004600001819055505b80806105f290612d5d565b915050610425565b50600080015460006001015460006003015460006002015460066000015460066001015460046000015460046001015497509750975097509750975097509750919395975091939597565b6000806000806106588560256004610787565b61066190612cc7565b905060006106836106758760056025610787565b61067e90612dba565b610e44565b905060006106948760046001610787565b61069d90612e36565b90506106eb6040518060400160405280600781526020017f74786964313a20000000000000000000000000000000000000000000000000008152506106e68460001c6020610f42565b611188565b8082849550955095505050509193909250565b60088060000154905081565b60608080915050919050565b60068060000154908060010154905082565b505050565b60048060000154908060010154905082565b60008060000154908060010154908060020154908060030154905084565b600d8060000154908060010154908060020154908060030154908060040154908060050154905086565b606081601f836107979190612e9d565b10156107d8576040517f08c379a00000000000000000000000000000000000000000000000000000000081526004016107cf90612f2e565b60405180910390fd5b81836107e49190612e9d565b84511015610827576040517f08c379a000000000000000000000000000000000000000000000000000000000815260040161081e90612f9a565b60405180910390fd5b60608215600081146108485760405191506000825260208201604052610899565b6040519150601f8416801560200281840101858101878315602002848b0101015b818310156108865780518352602083019250602081019050610869565b50868552601f19601f8301166040525050505b50809150509392505050565b60606000806000806108b78888611224565b809850819450505060008614806108cd57508286115b156108da578291506108de565b8591505b60008267ffffffffffffffff8111156108fa576108f96125a9565b5b6040519080825280602002602001820160405280156109285781602001602082028036833780820191505090505b50905060005b838110156109a4576024896109439190612e9d565b985061094f8a8a611224565b809a5081945050508282828151811061096b5761096a612d2e565b5b6020026020010181815250506004836109849190612e9d565b8961098f9190612e9d565b9850808061099c90612d5d565b91505061092e565b5080889550955050505050935093915050565b60608060606000806000806109cc8a8a611224565b809a50819450505060008814806109e257508288115b156109ef578291506109f3565b8791505b60008267ffffffffffffffff811115610a0f57610a0e6125a9565b5b604051908082528060200260200182016040528015610a3d5781602001602082028036833780820191505090505b50905060008367ffffffffffffffff811115610a5c57610a5b6125a9565b5b604051908082528060200260200182016040528015610a8a5781602001602082028036833780820191505090505b50905060008467ffffffffffffffff811115610aa957610aa86125a9565b5b604051908082528060200260200182016040528015610ad75781602001602082028036833780820191505090505b50905060005b85811015610b9257610af18e8e604061134e565b828281518110610b0457610b03612d2e565b5b60200260200101818152505060088d610b1d9190612e9d565b9c50610b298e8e611224565b809e5081965050508c848281518110610b4557610b44612d2e565b5b60200260200101818152505084838281518110610b6557610b64612d2e565b5b602002602001018181525050848d610b7d9190612e9d565b9c508080610b8a90612d5d565b915050610add565b508083838e995099509950995050505050505093509350935093565b6000806000610bbe8686866117b9565b15610c4e57610c016040518060400160405280601b81526020017f506172736564204c696768746e696e6748544c43206f75747075740000000000815250611d68565b610c1786600387610c129190612e9d565b611e01565b610c2d87602888610c289190612e9d565b611e01565b610c4388604c89610c3e9190612e9d565b611e01565b925092509250610c61565b6000801b6000801b6000801b9250925092505b93509350939050565b6000610c77848484611e8c565b15610ce657610cba6040518060400160405280601381526020017f506172736564205032504b48206f757470757400000000000000000000000000815250611d68565b610cd084600385610ccb9190612e9d565b612051565b6bffffffffffffffffffffffff19169050610e3d565b610cf1848484612134565b15610d6057610d346040518060400160405280601281526020017f5061727365642050325348206f75747075740000000000000000000000000000815250611d68565b610d4a84600285610d459190612e9d565b612051565b6bffffffffffffffffffffffff19169050610e3d565b610d6b848484612251565b15610dcb57610dae6040518060400160405280601781526020017f506172736564204f505f52455455524e206f7574707574000000000000000000815250611d68565b610dc484600285610dbf9190612e9d565b611e01565b9050610e3d565b610dd68484846117b9565b15610e3657610e196040518060400160405280601b81526020017f506172736564204c696768746e696e6748544c43206f75747075740000000000815250611d68565b610e2f84600285610e2a9190612e9d565b611e01565b9050610e3d565b6000801b90505b9392505050565b600080602060ff1667ffffffffffffffff811115610e6557610e646125a9565b5b6040519080825280601f01601f191660200182016040528015610e975781602001600182028036833780820191505090505b50905060005b602060ff16811015610f3057838160208110610ebc57610ebb612d2e565b5b1a60f81b82600183602060ff16610ed39190612c56565b610edd9190612c56565b81518110610eee57610eed612d2e565b5b60200101907effffffffffffffffffffffffffffffffffffffffffffffffffffffffffffff1916908160001a9053508080610f2890612d5d565b915050610e9d565b50610f3a81612314565b915050919050565b6060600083905060006002846002610f5a9190612fba565b610f649190612e9d565b67ffffffffffffffff811115610f7d57610f7c6125a9565b5b6040519080825280601f01601f191660200182016040528015610faf5781602001600182028036833780820191505090505b5090507f300000000000000000000000000000000000000000000000000000000000000081600081518110610fe757610fe6612d2e565b5b60200101907effffffffffffffffffffffffffffffffffffffffffffffffffffffffffffff1916908160001a9053507f78000000000000000000000000000000000000000000000000000000000000008160018151811061104b5761104a612d2e565b5b60200101907effffffffffffffffffffffffffffffffffffffffffffffffffffffffffffff1916908160001a9053506000600185600261108b9190612fba565b6110959190612e9d565b90505b6001811115611135577f3031323334353637383961626364656600000000000000000000000000000000600f8416601081106110d7576110d6612d2e565b5b1a60f81b8282815181106110ee576110ed612d2e565b5b60200101907effffffffffffffffffffffffffffffffffffffffffffffffffffffffffffff1916908160001a905350600483901c92508061112e90612ffc565b9050611098565b506000821461117d5784846040517fe22e27eb000000000000000000000000000000000000000000000000000000008152600401611174929190613025565b60405180910390fd5b809250505092915050565b611220828260405160240161119e9291906130bc565b6040516020818303038152906040527f4b5c4277000000000000000000000000000000000000000000000000000000007bffffffffffffffffffffffffffffffffffffffffffffffffffffffff19166020820180517bffffffffffffffffffffffffffffffffffffffffffffffffffffffff838183161783525050505061233d565b5050565b600080600084848151811061123c5761123b612d2e565b5b602001015160f81c60f81b60f81c905061128e6040518060400160405280600681526020017f696269743a2000000000000000000000000000000000000000000000000000008152508260ff16612357565b60018461129b9190612e9d565b935060fd8160ff1610156112bb5780848160ff1691509250925050611347565b60fd8160ff16036112e9576112d28585601061134e565b6002856112df9190612e9d565b9250925050611347565b60fe8160ff1603611317576113008585602061134e565b60048561130d9190612e9d565b9250925050611347565b60ff8160ff16036113455761132e8585604061134e565b60088561133b9190612e9d565b9250925050611347565b505b9250929050565b6000600882036113835783838151811061136b5761136a612d2e565b5b602001015160f81c60f81b60f81c60ff1690506117b2565b60108203611405576101008460018561139c9190612e9d565b815181106113ad576113ac612d2e565b5b602001015160f81c60f81b60f81c60ff166113c89190613101565b61ffff168484815181106113df576113de612d2e565b5b602001015160f81c60f81b60f81c60ff1661ffff166113fe9190612e9d565b90506117b2565b60208203611528576301000000846003856114209190612e9d565b8151811061143157611430612d2e565b5b602001015160f81c60f81b60f81c60ff1661144c919061314e565b63ffffffff1662010000856002866114649190612e9d565b8151811061147557611474612d2e565b5b602001015160f81c60f81b60f81c60ff16611490919061314e565b63ffffffff16610100866001876114a79190612e9d565b815181106114b8576114b7612d2e565b5b602001015160f81c60f81b60f81c60ff166114d3919061314e565b63ffffffff168686815181106114ec576114eb612d2e565b5b602001015160f81c60f81b60f81c60ff1663ffffffff1661150d9190612e9d565b6115179190612e9d565b6115219190612e9d565b90506117b2565b604082036117b157670100000000000000846007856115479190612e9d565b8151811061155857611557612d2e565b5b602001015160f81c60f81b60f81c60ff16611573919061319f565b67ffffffffffffffff166601000000000000856006866115939190612e9d565b815181106115a4576115a3612d2e565b5b602001015160f81c60f81b60f81c60ff166115bf919061319f565b67ffffffffffffffff1665010000000000866005876115de9190612e9d565b815181106115ef576115ee612d2e565b5b602001015160f81c60f81b60f81c60ff1661160a919061319f565b67ffffffffffffffff16640100000000876004886116289190612e9d565b8151811061163957611638612d2e565b5b602001015160f81c60f81b60f81c60ff16611654919061319f565b67ffffffffffffffff166301000000886003896116719190612e9d565b8151811061168257611681612d2e565b5b602001015160f81c60f81b60f81c60ff1661169d919061319f565b67ffffffffffffffff16620100008960028a6116b99190612e9d565b815181106116ca576116c9612d2e565b5b602001015160f81c60f81b60f81c60ff166116e5919061319f565b67ffffffffffffffff166101008a60018b6117009190612e9d565b8151811061171157611710612d2e565b5b602001015160f81c60f81b60f81c60ff1661172c919061319f565b67ffffffffffffffff168a8a8151811061174957611748612d2e565b5b602001015160f81c60f81b60f81c60ff1667ffffffffffffffff1661176e9190612e9d565b6117789190612e9d565b6117829190612e9d565b61178c9190612e9d565b6117969190612e9d565b6117a09190612e9d565b6117aa9190612e9d565b90506117b2565b5b9392505050565b60006072821480156118195750607660f81b846000856117d99190612e9d565b815181106117ea576117e9612d2e565b5b602001015160f81c60f81b7effffffffffffffffffffffffffffffffffffffffffffffffffffffffffffff1916145b80156118735750602160f81b846001856118339190612e9d565b8151811061184457611843612d2e565b5b602001015160f81c60f81b7effffffffffffffffffffffffffffffffffffffffffffffffffffffffffffff1916145b80156118cd575060ac60f81b8460238561188d9190612e9d565b8151811061189e5761189d612d2e565b5b602001015160f81c60f81b7effffffffffffffffffffffffffffffffffffffffffffffffffffffffffffff1916145b80156119275750606360f81b846024856118e79190612e9d565b815181106118f8576118f7612d2e565b5b602001015160f81c60f81b7effffffffffffffffffffffffffffffffffffffffffffffffffffffffffffff1916145b80156119815750607560f81b846025856119419190612e9d565b8151811061195257611951612d2e565b5b602001015160f81c60f81b7effffffffffffffffffffffffffffffffffffffffffffffffffffffffffffff1916145b80156119db575060aa60f81b8460268561199b9190612e9d565b815181106119ac576119ab612d2e565b5b602001015160f81c60f81b7effffffffffffffffffffffffffffffffffffffffffffffffffffffffffffff1916145b8015611a355750602060f81b846027856119f59190612e9d565b81518110611a0657611a05612d2e565b5b602001015160f81c60f81b7effffffffffffffffffffffffffffffffffffffffffffffffffffffffffffff1916145b8015611a8f5750608860f81b84604885611a4f9190612e9d565b81518110611a6057611a5f612d2e565b5b602001015160f81c60f81b7effffffffffffffffffffffffffffffffffffffffffffffffffffffffffffff1916145b8015611ae95750606760f81b84604985611aa99190612e9d565b81518110611aba57611ab9612d2e565b5b602001015160f81c60f81b7effffffffffffffffffffffffffffffffffffffffffffffffffffffffffffff1916145b8015611b435750602160f81b84604a85611b039190612e9d565b81518110611b1457611b13612d2e565b5b602001015160f81c60f81b7effffffffffffffffffffffffffffffffffffffffffffffffffffffffffffff1916145b8015611b9d575060ad60f81b84606c85611b5d9190612e9d565b81518110611b6e57611b6d612d2e565b5b602001015160f81c60f81b7effffffffffffffffffffffffffffffffffffffffffffffffffffffffffffff1916145b8015611bf75750605260f81b84606d85611bb79190612e9d565b81518110611bc857611bc7612d2e565b5b602001015160f81c60f81b7effffffffffffffffffffffffffffffffffffffffffffffffffffffffffffff1916145b8015611c51575060b260f81b84606e85611c119190612e9d565b81518110611c2257611c21612d2e565b5b602001015160f81c60f81b7effffffffffffffffffffffffffffffffffffffffffffffffffffffffffffff1916145b8015611cab5750607560f81b84606f85611c6b9190612e9d565b81518110611c7c57611c7b612d2e565b5b602001015160f81c60f81b7effffffffffffffffffffffffffffffffffffffffffffffffffffffffffffff1916145b8015611d055750606860f81b84607085611cc59190612e9d565b81518110611cd657611cd5612d2e565b5b602001015160f81c60f81b7effffffffffffffffffffffffffffffffffffffffffffffffffffffffffffff1916145b8015611d5f5750605160f81b84607185611d1f9190612e9d565b81518110611d3057611d2f612d2e565b5b602001015160f81c60f81b7effffffffffffffffffffffffffffffffffffffffffffffffffffffffffffff1916145b90509392505050565b611dfe81604051602401611d7c91906131dc565b6040516020818303038152906040527f41304fac000000000000000000000000000000000000000000000000000000007bffffffffffffffffffffffffffffffffffffffffffffffffffffffff19166020820180517bffffffffffffffffffffffffffffffffffffffffffffffffffffffff838183161783525050505061233d565b50565b6000806000905060005b6020811015611e7e5780601f611e219190612c56565b6008611e2d9190612fba565b858583611e3a9190612e9d565b81518110611e4b57611e4a612d2e565b5b602001015160f81c60f81b60f81c60ff16901b82611e699190612e9d565b91508080611e7690612d5d565b915050611e0b565b508060001b91505092915050565b6000601982148015611ee05750607660f81b848481518110611eb157611eb0612d2e565b5b602001015160f81c60f81b7effffffffffffffffffffffffffffffffffffffffffffffffffffffffffffff1916145b8015611f3a575060a960f81b84600185611efa9190612e9d565b81518110611f0b57611f0a612d2e565b5b602001015160f81c60f81b7effffffffffffffffffffffffffffffffffffffffffffffffffffffffffffff1916145b8015611f945750601460f81b84600285611f549190612e9d565b81518110611f6557611f64612d2e565b5b602001015160f81c60f81b7effffffffffffffffffffffffffffffffffffffffffffffffffffffffffffff1916145b8015611fee5750608860f81b84601785611fae9190612e9d565b81518110611fbf57611fbe612d2e565b5b602001015160f81c60f81b7effffffffffffffffffffffffffffffffffffffffffffffffffffffffffffff1916145b8015612048575060ac60f81b846018856120089190612e9d565b8151811061201957612018612d2e565b5b602001015160f81c60f81b7effffffffffffffffffffffffffffffffffffffffffffffffffffffffffffff1916145b90509392505050565b6000806000905060005b60148173ffffffffffffffffffffffffffffffffffffffff16101561212657806013612087919061321e565b60086120939190613266565b73ffffffffffffffffffffffffffffffffffffffff1685858373ffffffffffffffffffffffffffffffffffffffff166120cc9190612e9d565b815181106120dd576120dc612d2e565b5b602001015160f81c60f81b60f81c60ff1673ffffffffffffffffffffffffffffffffffffffff16901b8261211191906132a8565b9150808061211e906132f0565b91505061205b565b508060601b91505092915050565b6000601782148015612194575060a960f81b846000856121549190612e9d565b8151811061216557612164612d2e565b5b602001015160f81c60f81b7effffffffffffffffffffffffffffffffffffffffffffffffffffffffffffff1916145b80156121ee5750601460f81b846001856121ae9190612e9d565b815181106121bf576121be612d2e565b5b602001015160f81c60f81b7effffffffffffffffffffffffffffffffffffffffffffffffffffffffffffff1916145b80156122485750608760f81b846016856122089190612e9d565b8151811061221957612218612d2e565b5b602001015160f81c60f81b7effffffffffffffffffffffffffffffffffffffffffffffffffffffffffffff1916145b90509392505050565b60006022821480156122b15750606a60f81b846000856122719190612e9d565b8151811061228257612281612d2e565b5b602001015160f81c60f81b7effffffffffffffffffffffffffffffffffffffffffffffffffffffffffffff1916145b801561230b5750602060f81b846001856122cb9190612e9d565b815181106122dc576122db612d2e565b5b602001015160f81c60f81b7effffffffffffffffffffffffffffffffffffffffffffffffffffffffffffff1916145b90509392505050565b600080829050600081510361232f576000801b915050612338565b60208301519150505b919050565b6123548161234c6123f3612414565b63ffffffff16565b50565b6123ef828260405160240161236d92919061332c565b6040516020818303038152906040527fb60e72cc000000000000000000000000000000000000000000000000000000007bffffffffffffffffffffffffffffffffffffffffffffffffffffffff19166020820180517bffffffffffffffffffffffffffffffffffffffffffffffffffffffff838183161783525050505061233d565b5050565b60006a636f6e736f6c652e6c6f679050600080835160208501845afa505050565b61246c819050919050565b82805482825590600052602060002090810192821561245b579160200282015b8281111561245a57825182559160200191906001019061243f565b5b5090506124689190612476565b5090565b61247461335c565b565b5b8082111561248f576000816000905550600101612477565b5090565b6000604051905090565b600080fd5b600080fd5b6000819050919050565b6124ba816124a7565b81146124c557600080fd5b50565b6000813590506124d7816124b1565b92915050565b6000819050919050565b6124f0816124dd565b81146124fb57600080fd5b50565b60008135905061250d816124e7565b92915050565b600080600080600060a0868803121561252f5761252e61249d565b5b600061253d888289016124c8565b955050602061254e888289016124c8565b945050604061255f888289016124c8565b9350506060612570888289016124fe565b9250506080612581888289016124fe565b9150509295509295909350565b600080fd5b600080fd5b6000601f19601f8301169050919050565b7f4e487b7100000000000000000000000000000000000000000000000000000000600052604160045260246000fd5b6125e182612598565b810181811067ffffffffffffffff82111715612600576125ff6125a9565b5b80604052505050565b6000612613612493565b905061261f82826125d8565b919050565b600067ffffffffffffffff82111561263f5761263e6125a9565b5b61264882612598565b9050602081019050919050565b82818337600083830152505050565b600061267761267284612624565b612609565b90508281526020810184848401111561269357612692612593565b5b61269e848285612655565b509392505050565b600082601f8301126126bb576126ba61258e565b5b81356126cb848260208601612664565b91505092915050565b6000602082840312156126ea576126e961249d565b5b600082013567ffffffffffffffff811115612708576127076124a2565b5b612714848285016126a6565b91505092915050565b60007fffffffff0000000000000000000000000000000000000000000000000000000082169050919050565b6127528161271d565b82525050565b600060208201905061276d6000830184612749565b92915050565b6000806000806080858703121561278d5761278c61249d565b5b600085013567ffffffffffffffff8111156127ab576127aa6124a2565b5b6127b7878288016126a6565b945050602085013567ffffffffffffffff8111156127d8576127d76124a2565b5b6127e4878288016126a6565b935050604085013567ffffffffffffffff811115612805576128046124a2565b5b612811878288016126a6565b925050606085013567ffffffffffffffff811115612832576128316124a2565b5b61283e878288016126a6565b91505092959194509250565b612853816124dd565b82525050565b612862816124a7565b82525050565b60006101008201905061287e600083018b61284a565b61288b602083018a612859565b6128986040830189612859565b6128a56060830188612859565b6128b2608083018761284a565b6128bf60a0830186612859565b6128cc60c083018561284a565b6128d960e0830184612859565b9998505050505050505050565b60007fff0000000000000000000000000000000000000000000000000000000000000082169050919050565b61291b816128e6565b82525050565b60006060820190506129366000830186612912565b6129436020830185612859565b6129506040830184612749565b949350505050565b600060208201905061296d600083018461284a565b92915050565b600081519050919050565b600082825260208201905092915050565b6000819050602082019050919050565b600060ff82169050919050565b6129b58161299f565b82525050565b6129c4816124a7565b82525050565b6060820160008201516129e060008501826129ac565b5060208201516129f360208501826129bb565b506040820151612a0660408501826129bb565b50505050565b6000612a1883836129ca565b60608301905092915050565b6000602082019050919050565b6000612a3c82612973565b612a46818561297e565b9350612a518361298f565b8060005b83811015612a82578151612a698882612a0c565b9750612a7483612a24565b925050600181019050612a55565b5085935050505092915050565b60006020820190508181036000830152612aa98184612a31565b905092915050565b6000604082019050612ac6600083018561284a565b612ad36020830184612859565b9392505050565b600080600060608486031215612af357612af261249d565b5b600084013567ffffffffffffffff811115612b1157612b106124a2565b5b612b1d868287016126a6565b935050602084013567ffffffffffffffff811115612b3e57612b3d6124a2565b5b612b4a868287016126a6565b925050604084013567ffffffffffffffff811115612b6b57612b6a6124a2565b5b612b77868287016126a6565b9150509250925092565b6000608082019050612b96600083018761284a565b612ba36020830186612859565b612bb06040830185612859565b612bbd6060830184612859565b95945050505050565b600060c082019050612bdb6000830189612859565b612be86020830188612859565b612bf56040830187612859565b612c02606083018661284a565b612c0f608083018561284a565b612c1c60a083018461284a565b979650505050505050565b7f4e487b7100000000000000000000000000000000000000000000000000000000600052601160045260246000fd5b6000612c61826124dd565b9150612c6c836124dd565b9250828203905081811115612c8457612c83612c27565b5b92915050565b600081519050919050565b6000819050602082019050919050565b6000612cb1825161271d565b80915050919050565b600082821b905092915050565b6000612cd282612c8a565b82612cdc84612c95565b9050612ce781612ca5565b92506004821015612d2757612d227fffffffff0000000000000000000000000000000000000000000000000000000083600403600802612cba565b831692505b5050919050565b7f4e487b7100000000000000000000000000000000000000000000000000000000600052603260045260246000fd5b6000612d68826124dd565b91507fffffffffffffffffffffffffffffffffffffffffffffffffffffffffffffffff8203612d9a57612d99612c27565b5b600182019050919050565b6000612db182516124a7565b80915050919050565b6000612dc582612c8a565b82612dcf84612c95565b9050612dda81612da5565b92506020821015612e1a57612e157fffffffffffffffffffffffffffffffffffffffffffffffffffffffffffffffff83602003600802612cba565b831692505b5050919050565b6000612e2d82516128e6565b80915050919050565b6000612e4182612c8a565b82612e4b84612c95565b9050612e5681612e21565b92506001821015612e9657612e917fff0000000000000000000000000000000000000000000000000000000000000083600103600802612cba565b831692505b5050919050565b6000612ea8826124dd565b9150612eb3836124dd565b9250828201905080821115612ecb57612eca612c27565b5b92915050565b600082825260208201905092915050565b7f736c6963655f6f766572666c6f77000000000000000000000000000000000000600082015250565b6000612f18600e83612ed1565b9150612f2382612ee2565b602082019050919050565b60006020820190508181036000830152612f4781612f0b565b9050919050565b7f736c6963655f6f75744f66426f756e6473000000000000000000000000000000600082015250565b6000612f84601183612ed1565b9150612f8f82612f4e565b602082019050919050565b60006020820190508181036000830152612fb381612f77565b9050919050565b6000612fc5826124dd565b9150612fd0836124dd565b9250828202612fde816124dd565b91508282048414831517612ff557612ff4612c27565b5b5092915050565b6000613007826124dd565b91506000820361301a57613019612c27565b5b600182039050919050565b600060408201905061303a600083018561284a565b613047602083018461284a565b9392505050565b600081519050919050565b60005b8381101561307757808201518184015260208101905061305c565b60008484015250505050565b600061308e8261304e565b6130988185612ed1565b93506130a8818560208601613059565b6130b181612598565b840191505092915050565b600060408201905081810360008301526130d68185613083565b905081810360208301526130ea8184613083565b90509392505050565b600061ffff82169050919050565b600061310c826130f3565b9150613117836130f3565b9250828202613125816130f3565b915080821461313757613136612c27565b5b5092915050565b600063ffffffff82169050919050565b60006131598261313e565b91506131648361313e565b92508282026131728161313e565b915080821461318457613183612c27565b5b5092915050565b600067ffffffffffffffff82169050919050565b60006131aa8261318b565b91506131b58361318b565b92508282026131c38161318b565b91508082146131d5576131d4612c27565b5b5092915050565b600060208201905081810360008301526131f68184613083565b905092915050565b600073ffffffffffffffffffffffffffffffffffffffff82169050919050565b6000613229826131fe565b9150613234836131fe565b9250828203905073ffffffffffffffffffffffffffffffffffffffff8111156132605761325f612c27565b5b92915050565b6000613271826131fe565b915061327c836131fe565b925082820261328a816131fe565b915082820484148315176132a1576132a0612c27565b5b5092915050565b60006132b3826131fe565b91506132be836131fe565b9250828201905073ffffffffffffffffffffffffffffffffffffffff8111156132ea576132e9612c27565b5b92915050565b60006132fb826131fe565b915073ffffffffffffffffffffffffffffffffffffffff820361332157613320612c27565b5b600182019050919050565b600060408201905081810360008301526133468185613083565b9050613355602083018461284a565b9392505050565b7f4e487b7100000000000000000000000000000000000000000000000000000000600052605160045260246000fdfea264697066735822122067f5d02a7c891d37d8bdfef1c7adf558fd88011a40fc4055f5047ca88106717364736f6c63430008130033","opcodes":"PUSH1 0x80 PUSH1 0x40 MSTORE CALLVALUE DUP1 ISZERO PUSH2 0x10 JUMPI PUSH1 0x0 DUP1 REVERT JUMPDEST POP PUSH2 0x33C1 DUP1 PUSH2 0x20 PUSH1 0x0 CODECOPY PUSH1 0x0 RETURN INVALID PUSH1 0x80 PUSH1 0x40 MSTORE CALLVALUE DUP1 ISZERO PUSH2 0x10 JUMPI PUSH1 0x0 DUP1 REVERT JUMPDEST POP PUSH1 0x4 CALLDATASIZE LT PUSH2 0xEA JUMPI PUSH1 0x0 CALLDATALOAD PUSH1 0xE0 SHR DUP1 PUSH4 0x66B85D57 GT PUSH2 0x8C JUMPI DUP1 PUSH4 0x79A85BD9 GT PUSH2 0x66 JUMPI DUP1 PUSH4 0x79A85BD9 EQ PUSH2 0x253 JUMPI DUP1 PUSH4 0x8504B3B9 EQ PUSH2 0x26F JUMPI DUP1 PUSH4 0xE4B23D0C EQ PUSH2 0x28E JUMPI DUP1 PUSH4 0xE78CEA92 EQ PUSH2 0x2AF JUMPI PUSH2 0xEA JUMP JUMPDEST DUP1 PUSH4 0x66B85D57 EQ PUSH2 0x1E6 JUMPI DUP1 PUSH4 0x6B45B4E3 EQ PUSH2 0x204 JUMPI DUP1 PUSH4 0x72CA346F EQ PUSH2 0x234 JUMPI PUSH2 0xEA JUMP JUMPDEST DUP1 PUSH4 0x3740D249 GT PUSH2 0xC8 JUMPI DUP1 PUSH4 0x3740D249 EQ PUSH2 0x145 JUMPI DUP1 PUSH4 0x43F104D2 EQ PUSH2 0x161 JUMPI DUP1 PUSH4 0x497C6CF6 EQ PUSH2 0x17D JUMPI DUP1 PUSH4 0x4F500EA9 EQ PUSH2 0x1B4 JUMPI PUSH2 0xEA JUMP JUMPDEST DUP1 PUSH4 0x6AC0E26 EQ PUSH2 0xEF JUMPI DUP1 PUSH4 0x11DA60B4 EQ PUSH2 0x10B JUMPI DUP1 PUSH4 0x36946480 EQ PUSH2 0x115 JUMPI JUMPDEST PUSH1 0x0 DUP1 REVERT JUMPDEST PUSH2 0x109 PUSH1 0x4 DUP1 CALLDATASIZE SUB DUP2 ADD SWAP1 PUSH2 0x104 SWAP2 SWAP1 PUSH2 0x2513 JUMP JUMPDEST PUSH2 0x2D2 JUMP JUMPDEST STOP JUMPDEST PUSH2 0x113 PUSH2 0x30B JUMP JUMPDEST STOP JUMPDEST PUSH2 0x12F PUSH1 0x4 DUP1 CALLDATASIZE SUB DUP2 ADD SWAP1 PUSH2 0x12A SWAP2 SWAP1 PUSH2 0x26D4 JUMP JUMPDEST PUSH2 0x30D JUMP JUMPDEST PUSH1 0x40 MLOAD PUSH2 0x13C SWAP2 SWAP1 PUSH2 0x2758 JUMP JUMPDEST PUSH1 0x40 MLOAD DUP1 SWAP2 SUB SWAP1 RETURN JUMPDEST PUSH2 0x15F PUSH1 0x4 DUP1 CALLDATASIZE SUB DUP2 ADD SWAP1 PUSH2 0x15A SWAP2 SWAP1 PUSH2 0x2773 JUMP JUMPDEST PUSH2 0x343 JUMP JUMPDEST STOP JUMPDEST PUSH2 0x17B PUSH1 0x4 DUP1 CALLDATASIZE SUB DUP2 ADD SWAP1 PUSH2 0x176 SWAP2 SWAP1 PUSH2 0x2773 JUMP JUMPDEST PUSH2 0x349 JUMP JUMPDEST STOP JUMPDEST PUSH2 0x197 PUSH1 0x4 DUP1 CALLDATASIZE SUB DUP2 ADD SWAP1 PUSH2 0x192 SWAP2 SWAP1 PUSH2 0x26D4 JUMP JUMPDEST PUSH2 0x34F JUMP JUMPDEST PUSH1 0x40 MLOAD PUSH2 0x1AB SWAP9 SWAP8 SWAP7 SWAP6 SWAP5 SWAP4 SWAP3 SWAP2 SWAP1 PUSH2 0x2868 JUMP JUMPDEST PUSH1 0x40 MLOAD DUP1 SWAP2 SUB SWAP1 RETURN JUMPDEST PUSH2 0x1CE PUSH1 0x4 DUP1 CALLDATASIZE SUB DUP2 ADD SWAP1 PUSH2 0x1C9 SWAP2 SWAP1 PUSH2 0x26D4 JUMP JUMPDEST PUSH2 0x645 JUMP JUMPDEST PUSH1 0x40 MLOAD PUSH2 0x1DD SWAP4 SWAP3 SWAP2 SWAP1 PUSH2 0x2921 JUMP JUMPDEST PUSH1 0x40 MLOAD DUP1 SWAP2 SUB SWAP1 RETURN JUMPDEST PUSH2 0x1EE PUSH2 0x6FE JUMP JUMPDEST PUSH1 0x40 MLOAD PUSH2 0x1FB SWAP2 SWAP1 PUSH2 0x2958 JUMP JUMPDEST PUSH1 0x40 MLOAD DUP1 SWAP2 SUB SWAP1 RETURN JUMPDEST PUSH2 0x21E PUSH1 0x4 DUP1 CALLDATASIZE SUB DUP2 ADD SWAP1 PUSH2 0x219 SWAP2 SWAP1 PUSH2 0x26D4 JUMP JUMPDEST PUSH2 0x70A JUMP JUMPDEST PUSH1 0x40 MLOAD PUSH2 0x22B SWAP2 SWAP1 PUSH2 0x2A8F JUMP JUMPDEST PUSH1 0x40 MLOAD DUP1 SWAP2 SUB SWAP1 RETURN JUMPDEST PUSH2 0x23C PUSH2 0x716 JUMP JUMPDEST PUSH1 0x40 MLOAD PUSH2 0x24A SWAP3 SWAP2 SWAP1 PUSH2 0x2AB1 JUMP JUMPDEST PUSH1 0x40 MLOAD DUP1 SWAP2 SUB SWAP1 RETURN JUMPDEST PUSH2 0x26D PUSH1 0x4 DUP1 CALLDATASIZE SUB DUP2 ADD SWAP1 PUSH2 0x268 SWAP2 SWAP1 PUSH2 0x2ADA JUMP JUMPDEST PUSH2 0x728 JUMP JUMPDEST STOP JUMPDEST PUSH2 0x277 PUSH2 0x72D JUMP JUMPDEST PUSH1 0x40 MLOAD PUSH2 0x285 SWAP3 SWAP2 SWAP1 PUSH2 0x2AB1 JUMP JUMPDEST PUSH1 0x40 MLOAD DUP1 SWAP2 SUB SWAP1 RETURN JUMPDEST PUSH2 0x296 PUSH2 0x73F JUMP JUMPDEST PUSH1 0x40 MLOAD PUSH2 0x2A6 SWAP5 SWAP4 SWAP3 SWAP2 SWAP1 PUSH2 0x2B81 JUMP JUMPDEST PUSH1 0x40 MLOAD DUP1 SWAP2 SUB SWAP1 RETURN JUMPDEST PUSH2 0x2B7 PUSH2 0x75D JUMP JUMPDEST PUSH1 0x40 MLOAD PUSH2 0x2C9 SWAP7 SWAP6 SWAP5 SWAP4 SWAP3 SWAP2 SWAP1 PUSH2 0x2BC6 JUMP JUMPDEST PUSH1 0x40 MLOAD DUP1 SWAP2 SUB SWAP1 RETURN JUMPDEST DUP5 PUSH1 0xD PUSH1 0x0 ADD DUP2 SWAP1 SSTORE POP DUP4 PUSH1 0xD PUSH1 0x1 ADD DUP2 SWAP1 SSTORE POP DUP3 PUSH1 0xD PUSH1 0x2 ADD DUP2 SWAP1 SSTORE POP DUP2 PUSH1 0xD PUSH1 0x3 ADD DUP2 SWAP1 SSTORE POP DUP1 PUSH1 0xD PUSH1 0x4 ADD DUP2 SWAP1 SSTORE POP POP POP POP POP POP JUMP JUMPDEST JUMP JUMPDEST PUSH1 0x0 DUP1 DUP3 MLOAD SWAP1 POP PUSH1 0x0 PUSH2 0x32E DUP5 PUSH1 0x5 DUP5 PUSH2 0x327 SWAP2 SWAP1 PUSH2 0x2C56 JUMP JUMPDEST PUSH1 0x4 PUSH2 0x787 JUMP JUMPDEST PUSH2 0x337 SWAP1 PUSH2 0x2CC7 JUMP JUMPDEST SWAP1 POP DUP1 SWAP3 POP POP POP SWAP2 SWAP1 POP JUMP JUMPDEST POP POP POP POP JUMP JUMPDEST POP POP POP POP JUMP JUMPDEST PUSH1 0x0 DUP1 PUSH1 0x0 DUP1 PUSH1 0x0 DUP1 PUSH1 0x0 DUP1 PUSH1 0x4 PUSH1 0x8 PUSH1 0x0 ADD DUP2 SWAP1 SSTORE POP PUSH2 0x377 DUP10 PUSH1 0x8 PUSH1 0x0 ADD SLOAD PUSH1 0x0 PUSH2 0x8A5 JUMP JUMPDEST PUSH1 0x8 PUSH1 0x1 ADD PUSH1 0x0 PUSH1 0x8 PUSH1 0x0 ADD PUSH1 0x0 DUP5 SWAP2 SWAP1 POP SSTORE DUP4 SWAP2 SWAP1 POP SWAP1 DUP1 MLOAD SWAP1 PUSH1 0x20 ADD SWAP1 PUSH2 0x3A1 SWAP3 SWAP2 SWAP1 PUSH2 0x241F JUMP JUMPDEST POP POP POP PUSH2 0x3B5 DUP10 PUSH1 0x8 PUSH1 0x0 ADD SLOAD PUSH1 0x0 PUSH2 0x9B7 JUMP JUMPDEST PUSH1 0x8 PUSH1 0x4 ADD PUSH1 0x0 PUSH1 0x8 PUSH1 0x3 ADD PUSH1 0x0 PUSH1 0x8 PUSH1 0x2 ADD PUSH1 0x0 PUSH1 0x8 PUSH1 0x0 ADD PUSH1 0x0 DUP9 SWAP2 SWAP1 POP SSTORE DUP8 SWAP2 SWAP1 POP SWAP1 DUP1 MLOAD SWAP1 PUSH1 0x20 ADD SWAP1 PUSH2 0x3ED SWAP3 SWAP2 SWAP1 PUSH2 0x241F JUMP JUMPDEST POP DUP7 SWAP2 SWAP1 POP SWAP1 DUP1 MLOAD SWAP1 PUSH1 0x20 ADD SWAP1 PUSH2 0x405 SWAP3 SWAP2 SWAP1 PUSH2 0x241F JUMP JUMPDEST POP DUP6 SWAP2 SWAP1 POP SWAP1 DUP1 MLOAD SWAP1 PUSH1 0x20 ADD SWAP1 PUSH2 0x41D SWAP3 SWAP2 SWAP1 PUSH2 0x241F JUMP JUMPDEST POP POP POP POP POP PUSH1 0x0 JUMPDEST PUSH1 0x3 DUP2 LT ISZERO PUSH2 0x5FA JUMPI PUSH1 0x0 DUP2 SUB PUSH2 0x4D3 JUMPI PUSH2 0x483 DUP11 PUSH1 0x8 PUSH1 0x3 ADD DUP4 DUP2 SLOAD DUP2 LT PUSH2 0x451 JUMPI PUSH2 0x450 PUSH2 0x2D2E JUMP JUMPDEST JUMPDEST SWAP1 PUSH1 0x0 MSTORE PUSH1 0x20 PUSH1 0x0 KECCAK256 ADD SLOAD PUSH1 0x8 PUSH1 0x2 ADD DUP5 DUP2 SLOAD DUP2 LT PUSH2 0x473 JUMPI PUSH2 0x472 PUSH2 0x2D2E JUMP JUMPDEST JUMPDEST SWAP1 PUSH1 0x0 MSTORE PUSH1 0x20 PUSH1 0x0 KECCAK256 ADD SLOAD PUSH2 0xBAE JUMP JUMPDEST PUSH1 0x0 PUSH1 0x1 ADD PUSH1 0x0 DUP1 PUSH1 0x3 ADD PUSH1 0x0 DUP1 PUSH1 0x2 ADD PUSH1 0x0 DUP7 SWAP2 SWAP1 POP SSTORE DUP6 SWAP2 SWAP1 POP SSTORE DUP5 SWAP2 SWAP1 POP SSTORE POP POP POP PUSH1 0x8 PUSH1 0x4 ADD DUP2 DUP2 SLOAD DUP2 LT PUSH2 0x4BF JUMPI PUSH2 0x4BE PUSH2 0x2D2E JUMP JUMPDEST JUMPDEST SWAP1 PUSH1 0x0 MSTORE PUSH1 0x20 PUSH1 0x0 KECCAK256 ADD SLOAD PUSH1 0x0 DUP1 ADD DUP2 SWAP1 SSTORE POP JUMPDEST PUSH1 0x1 DUP2 SUB PUSH2 0x55D JUMPI PUSH2 0x528 DUP11 PUSH1 0x8 PUSH1 0x3 ADD DUP4 DUP2 SLOAD DUP2 LT PUSH2 0x4F6 JUMPI PUSH2 0x4F5 PUSH2 0x2D2E JUMP JUMPDEST JUMPDEST SWAP1 PUSH1 0x0 MSTORE PUSH1 0x20 PUSH1 0x0 KECCAK256 ADD SLOAD PUSH1 0x8 PUSH1 0x2 ADD DUP5 DUP2 SLOAD DUP2 LT PUSH2 0x518 JUMPI PUSH2 0x517 PUSH2 0x2D2E JUMP JUMPDEST JUMPDEST SWAP1 PUSH1 0x0 MSTORE PUSH1 0x20 PUSH1 0x0 KECCAK256 ADD SLOAD PUSH2 0xC6A JUMP JUMPDEST PUSH1 0x6 PUSH1 0x1 ADD DUP2 SWAP1 SSTORE POP PUSH1 0x8 PUSH1 0x4 ADD DUP2 DUP2 SLOAD DUP2 LT PUSH2 0x548 JUMPI PUSH2 0x547 PUSH2 0x2D2E JUMP JUMPDEST JUMPDEST SWAP1 PUSH1 0x0 MSTORE PUSH1 0x20 PUSH1 0x0 KECCAK256 ADD SLOAD PUSH1 0x6 PUSH1 0x0 ADD DUP2 SWAP1 SSTORE POP JUMPDEST PUSH1 0x2 DUP2 SUB PUSH2 0x5E7 JUMPI PUSH2 0x5B2 DUP11 PUSH1 0x8 PUSH1 0x3 ADD DUP4 DUP2 SLOAD DUP2 LT PUSH2 0x580 JUMPI PUSH2 0x57F PUSH2 0x2D2E JUMP JUMPDEST JUMPDEST SWAP1 PUSH1 0x0 MSTORE PUSH1 0x20 PUSH1 0x0 KECCAK256 ADD SLOAD PUSH1 0x8 PUSH1 0x2 ADD DUP5 DUP2 SLOAD DUP2 LT PUSH2 0x5A2 JUMPI PUSH2 0x5A1 PUSH2 0x2D2E JUMP JUMPDEST JUMPDEST SWAP1 PUSH1 0x0 MSTORE PUSH1 0x20 PUSH1 0x0 KECCAK256 ADD SLOAD PUSH2 0xC6A JUMP JUMPDEST PUSH1 0x4 PUSH1 0x1 ADD DUP2 SWAP1 SSTORE POP PUSH1 0x8 PUSH1 0x4 ADD DUP2 DUP2 SLOAD DUP2 LT PUSH2 0x5D2 JUMPI PUSH2 0x5D1 PUSH2 0x2D2E JUMP JUMPDEST JUMPDEST SWAP1 PUSH1 0x0 MSTORE PUSH1 0x20 PUSH1 0x0 KECCAK256 ADD SLOAD PUSH1 0x4 PUSH1 0x0 ADD DUP2 SWAP1 SSTORE POP JUMPDEST DUP1 DUP1 PUSH2 0x5F2 SWAP1 PUSH2 0x2D5D JUMP JUMPDEST SWAP2 POP POP PUSH2 0x425 JUMP JUMPDEST POP PUSH1 0x0 DUP1 ADD SLOAD PUSH1 0x0 PUSH1 0x1 ADD SLOAD PUSH1 0x0 PUSH1 0x3 ADD SLOAD PUSH1 0x0 PUSH1 0x2 ADD SLOAD PUSH1 0x6 PUSH1 0x0 ADD SLOAD PUSH1 0x6 PUSH1 0x1 ADD SLOAD PUSH1 0x4 PUSH1 0x0 ADD SLOAD PUSH1 0x4 PUSH1 0x1 ADD SLOAD SWAP8 POP SWAP8 POP SWAP8 POP SWAP8 POP SWAP8 POP SWAP8 POP SWAP8 POP SWAP8 POP SWAP2 SWAP4 SWAP6 SWAP8 POP SWAP2 SWAP4 SWAP6 SWAP8 JUMP JUMPDEST PUSH1 0x0 DUP1 PUSH1 0x0 DUP1 PUSH2 0x658 DUP6 PUSH1 0x25 PUSH1 0x4 PUSH2 0x787 JUMP JUMPDEST PUSH2 0x661 SWAP1 PUSH2 0x2CC7 JUMP JUMPDEST SWAP1 POP PUSH1 0x0 PUSH2 0x683 PUSH2 0x675 DUP8 PUSH1 0x5 PUSH1 0x25 PUSH2 0x787 JUMP JUMPDEST PUSH2 0x67E SWAP1 PUSH2 0x2DBA JUMP JUMPDEST PUSH2 0xE44 JUMP JUMPDEST SWAP1 POP PUSH1 0x0 PUSH2 0x694 DUP8 PUSH1 0x4 PUSH1 0x1 PUSH2 0x787 JUMP JUMPDEST PUSH2 0x69D SWAP1 PUSH2 0x2E36 JUMP JUMPDEST SWAP1 POP PUSH2 0x6EB PUSH1 0x40 MLOAD DUP1 PUSH1 0x40 ADD PUSH1 0x40 MSTORE DUP1 PUSH1 0x7 DUP2 MSTORE PUSH1 0x20 ADD PUSH32 0x74786964313A2000000000000000000000000000000000000000000000000000 DUP2 MSTORE POP PUSH2 0x6E6 DUP5 PUSH1 0x0 SHR PUSH1 0x20 PUSH2 0xF42 JUMP JUMPDEST PUSH2 0x1188 JUMP JUMPDEST DUP1 DUP3 DUP5 SWAP6 POP SWAP6 POP SWAP6 POP POP POP POP SWAP2 SWAP4 SWAP1 SWAP3 POP JUMP JUMPDEST PUSH1 0x8 DUP1 PUSH1 0x0 ADD SLOAD SWAP1 POP DUP2 JUMP JUMPDEST PUSH1 0x60 DUP1 DUP1 SWAP2 POP POP SWAP2 SWAP1 POP JUMP JUMPDEST PUSH1 0x6 DUP1 PUSH1 0x0 ADD SLOAD SWAP1 DUP1 PUSH1 0x1 ADD SLOAD SWAP1 POP DUP3 JUMP JUMPDEST POP POP POP JUMP JUMPDEST PUSH1 0x4 DUP1 PUSH1 0x0 ADD SLOAD SWAP1 DUP1 PUSH1 0x1 ADD SLOAD SWAP1 POP DUP3 JUMP JUMPDEST PUSH1 0x0 DUP1 PUSH1 0x0 ADD SLOAD SWAP1 DUP1 PUSH1 0x1 ADD SLOAD SWAP1 DUP1 PUSH1 0x2 ADD SLOAD SWAP1 DUP1 PUSH1 0x3 ADD SLOAD SWAP1 POP DUP5 JUMP JUMPDEST PUSH1 0xD DUP1 PUSH1 0x0 ADD SLOAD SWAP1 DUP1 PUSH1 0x1 ADD SLOAD SWAP1 DUP1 PUSH1 0x2 ADD SLOAD SWAP1 DUP1 PUSH1 0x3 ADD SLOAD SWAP1 DUP1 PUSH1 0x4 ADD SLOAD SWAP1 DUP1 PUSH1 0x5 ADD SLOAD SWAP1 POP DUP7 JUMP JUMPDEST PUSH1 0x60 DUP2 PUSH1 0x1F DUP4 PUSH2 0x797 SWAP2 SWAP1 PUSH2 0x2E9D JUMP JUMPDEST LT ISZERO PUSH2 0x7D8 JUMPI PUSH1 0x40 MLOAD PUSH32 0x8C379A000000000000000000000000000000000000000000000000000000000 DUP2 MSTORE PUSH1 0x4 ADD PUSH2 0x7CF SWAP1 PUSH2 0x2F2E JUMP JUMPDEST PUSH1 0x40 MLOAD DUP1 SWAP2 SUB SWAP1 REVERT JUMPDEST DUP2 DUP4 PUSH2 0x7E4 SWAP2 SWAP1 PUSH2 0x2E9D JUMP JUMPDEST DUP5 MLOAD LT ISZERO PUSH2 0x827 JUMPI PUSH1 0x40 MLOAD PUSH32 0x8C379A000000000000000000000000000000000000000000000000000000000 DUP2 MSTORE PUSH1 0x4 ADD PUSH2 0x81E SWAP1 PUSH2 0x2F9A JUMP JUMPDEST PUSH1 0x40 MLOAD DUP1 SWAP2 SUB SWAP1 REVERT JUMPDEST PUSH1 0x60 DUP3 ISZERO PUSH1 0x0 DUP2 EQ PUSH2 0x848 JUMPI PUSH1 0x40 MLOAD SWAP2 POP PUSH1 0x0 DUP3 MSTORE PUSH1 0x20 DUP3 ADD PUSH1 0x40 MSTORE PUSH2 0x899 JUMP JUMPDEST PUSH1 0x40 MLOAD SWAP2 POP PUSH1 0x1F DUP5 AND DUP1 ISZERO PUSH1 0x20 MUL DUP2 DUP5 ADD ADD DUP6 DUP2 ADD DUP8 DUP4 ISZERO PUSH1 0x20 MUL DUP5 DUP12 ADD ADD ADD JUMPDEST DUP2 DUP4 LT ISZERO PUSH2 0x886 JUMPI DUP1 MLOAD DUP4 MSTORE PUSH1 0x20 DUP4 ADD SWAP3 POP PUSH1 0x20 DUP2 ADD SWAP1 POP PUSH2 0x869 JUMP JUMPDEST POP DUP7 DUP6 MSTORE PUSH1 0x1F NOT PUSH1 0x1F DUP4 ADD AND PUSH1 0x40 MSTORE POP POP POP JUMPDEST POP DUP1 SWAP2 POP POP SWAP4 SWAP3 POP POP POP JUMP JUMPDEST PUSH1 0x60 PUSH1 0x0 DUP1 PUSH1 0x0 DUP1 PUSH2 0x8B7 DUP9 DUP9 PUSH2 0x1224 JUMP JUMPDEST DUP1 SWAP9 POP DUP2 SWAP5 POP POP POP PUSH1 0x0 DUP7 EQ DUP1 PUSH2 0x8CD JUMPI POP DUP3 DUP7 GT JUMPDEST ISZERO PUSH2 0x8DA JUMPI DUP3 SWAP2 POP PUSH2 0x8DE JUMP JUMPDEST DUP6 SWAP2 POP JUMPDEST PUSH1 0x0 DUP3 PUSH8 0xFFFFFFFFFFFFFFFF DUP2 GT ISZERO PUSH2 0x8FA JUMPI PUSH2 0x8F9 PUSH2 0x25A9 JUMP JUMPDEST JUMPDEST PUSH1 0x40 MLOAD SWAP1 DUP1 DUP3 MSTORE DUP1 PUSH1 0x20 MUL PUSH1 0x20 ADD DUP3 ADD PUSH1 0x40 MSTORE DUP1 ISZERO PUSH2 0x928 JUMPI DUP2 PUSH1 0x20 ADD PUSH1 0x20 DUP3 MUL DUP1 CALLDATASIZE DUP4 CALLDATACOPY DUP1 DUP3 ADD SWAP2 POP POP SWAP1 POP JUMPDEST POP SWAP1 POP PUSH1 0x0 JUMPDEST DUP4 DUP2 LT ISZERO PUSH2 0x9A4 JUMPI PUSH1 0x24 DUP10 PUSH2 0x943 SWAP2 SWAP1 PUSH2 0x2E9D JUMP JUMPDEST SWAP9 POP PUSH2 0x94F DUP11 DUP11 PUSH2 0x1224 JUMP JUMPDEST DUP1 SWAP11 POP DUP2 SWAP5 POP POP POP DUP3 DUP3 DUP3 DUP2 MLOAD DUP2 LT PUSH2 0x96B JUMPI PUSH2 0x96A PUSH2 0x2D2E JUMP JUMPDEST JUMPDEST PUSH1 0x20 MUL PUSH1 0x20 ADD ADD DUP2 DUP2 MSTORE POP POP PUSH1 0x4 DUP4 PUSH2 0x984 SWAP2 SWAP1 PUSH2 0x2E9D JUMP JUMPDEST DUP10 PUSH2 0x98F SWAP2 SWAP1 PUSH2 0x2E9D JUMP JUMPDEST SWAP9 POP DUP1 DUP1 PUSH2 0x99C SWAP1 PUSH2 0x2D5D JUMP JUMPDEST SWAP2 POP POP PUSH2 0x92E JUMP JUMPDEST POP DUP1 DUP9 SWAP6 POP SWAP6 POP POP POP POP POP SWAP4 POP SWAP4 SWAP2 POP POP JUMP JUMPDEST PUSH1 0x60 DUP1 PUSH1 0x60 PUSH1 0x0 DUP1 PUSH1 0x0 DUP1 PUSH2 0x9CC DUP11 DUP11 PUSH2 0x1224 JUMP JUMPDEST DUP1 SWAP11 POP DUP2 SWAP5 POP POP POP PUSH1 0x0 DUP9 EQ DUP1 PUSH2 0x9E2 JUMPI POP DUP3 DUP9 GT JUMPDEST ISZERO PUSH2 0x9EF JUMPI DUP3 SWAP2 POP PUSH2 0x9F3 JUMP JUMPDEST DUP8 SWAP2 POP JUMPDEST PUSH1 0x0 DUP3 PUSH8 0xFFFFFFFFFFFFFFFF DUP2 GT ISZERO PUSH2 0xA0F JUMPI PUSH2 0xA0E PUSH2 0x25A9 JUMP JUMPDEST JUMPDEST PUSH1 0x40 MLOAD SWAP1 DUP1 DUP3 MSTORE DUP1 PUSH1 0x20 MUL PUSH1 0x20 ADD DUP3 ADD PUSH1 0x40 MSTORE DUP1 ISZERO PUSH2 0xA3D JUMPI DUP2 PUSH1 0x20 ADD PUSH1 0x20 DUP3 MUL DUP1 CALLDATASIZE DUP4 CALLDATACOPY DUP1 DUP3 ADD SWAP2 POP POP SWAP1 POP JUMPDEST POP SWAP1 POP PUSH1 0x0 DUP4 PUSH8 0xFFFFFFFFFFFFFFFF DUP2 GT ISZERO PUSH2 0xA5C JUMPI PUSH2 0xA5B PUSH2 0x25A9 JUMP JUMPDEST JUMPDEST PUSH1 0x40 MLOAD SWAP1 DUP1 DUP3 MSTORE DUP1 PUSH1 0x20 MUL PUSH1 0x20 ADD DUP3 ADD PUSH1 0x40 MSTORE DUP1 ISZERO PUSH2 0xA8A JUMPI DUP2 PUSH1 0x20 ADD PUSH1 0x20 DUP3 MUL DUP1 CALLDATASIZE DUP4 CALLDATACOPY DUP1 DUP3 ADD SWAP2 POP POP SWAP1 POP JUMPDEST POP SWAP1 POP PUSH1 0x0 DUP5 PUSH8 0xFFFFFFFFFFFFFFFF DUP2 GT ISZERO PUSH2 0xAA9 JUMPI PUSH2 0xAA8 PUSH2 0x25A9 JUMP JUMPDEST JUMPDEST PUSH1 0x40 MLOAD SWAP1 DUP1 DUP3 MSTORE DUP1 PUSH1 0x20 MUL PUSH1 0x20 ADD DUP3 ADD PUSH1 0x40 MSTORE DUP1 ISZERO PUSH2 0xAD7 JUMPI DUP2 PUSH1 0x20 ADD PUSH1 0x20 DUP3 MUL DUP1 CALLDATASIZE DUP4 CALLDATACOPY DUP1 DUP3 ADD SWAP2 POP POP SWAP1 POP JUMPDEST POP SWAP1 POP PUSH1 0x0 JUMPDEST DUP6 DUP2 LT ISZERO PUSH2 0xB92 JUMPI PUSH2 0xAF1 DUP15 DUP15 PUSH1 0x40 PUSH2 0x134E JUMP JUMPDEST DUP3 DUP3 DUP2 MLOAD DUP2 LT PUSH2 0xB04 JUMPI PUSH2 0xB03 PUSH2 0x2D2E JUMP JUMPDEST JUMPDEST PUSH1 0x20 MUL PUSH1 0x20 ADD ADD DUP2 DUP2 MSTORE POP POP PUSH1 0x8 DUP14 PUSH2 0xB1D SWAP2 SWAP1 PUSH2 0x2E9D JUMP JUMPDEST SWAP13 POP PUSH2 0xB29 DUP15 DUP15 PUSH2 0x1224 JUMP JUMPDEST DUP1 SWAP15 POP DUP2 SWAP7 POP POP POP DUP13 DUP5 DUP3 DUP2 MLOAD DUP2 LT PUSH2 0xB45 JUMPI PUSH2 0xB44 PUSH2 0x2D2E JUMP JUMPDEST JUMPDEST PUSH1 0x20 MUL PUSH1 0x20 ADD ADD DUP2 DUP2 MSTORE POP POP DUP5 DUP4 DUP3 DUP2 MLOAD DUP2 LT PUSH2 0xB65 JUMPI PUSH2 0xB64 PUSH2 0x2D2E JUMP JUMPDEST JUMPDEST PUSH1 0x20 MUL PUSH1 0x20 ADD ADD DUP2 DUP2 MSTORE POP POP DUP5 DUP14 PUSH2 0xB7D SWAP2 SWAP1 PUSH2 0x2E9D JUMP JUMPDEST SWAP13 POP DUP1 DUP1 PUSH2 0xB8A SWAP1 PUSH2 0x2D5D JUMP JUMPDEST SWAP2 POP POP PUSH2 0xADD JUMP JUMPDEST POP DUP1 DUP4 DUP4 DUP15 SWAP10 POP SWAP10 POP SWAP10 POP SWAP10 POP POP POP POP POP POP POP SWAP4 POP SWAP4 POP SWAP4 POP SWAP4 JUMP JUMPDEST PUSH1 0x0 DUP1 PUSH1 0x0 PUSH2 0xBBE DUP7 DUP7 DUP7 PUSH2 0x17B9 JUMP JUMPDEST ISZERO PUSH2 0xC4E JUMPI PUSH2 0xC01 PUSH1 0x40 MLOAD DUP1 PUSH1 0x40 ADD PUSH1 0x40 MSTORE DUP1 PUSH1 0x1B DUP2 MSTORE PUSH1 0x20 ADD PUSH32 0x506172736564204C696768746E696E6748544C43206F75747075740000000000 DUP2 MSTORE POP PUSH2 0x1D68 JUMP JUMPDEST PUSH2 0xC17 DUP7 PUSH1 0x3 DUP8 PUSH2 0xC12 SWAP2 SWAP1 PUSH2 0x2E9D JUMP JUMPDEST PUSH2 0x1E01 JUMP JUMPDEST PUSH2 0xC2D DUP8 PUSH1 0x28 DUP9 PUSH2 0xC28 SWAP2 SWAP1 PUSH2 0x2E9D JUMP JUMPDEST PUSH2 0x1E01 JUMP JUMPDEST PUSH2 0xC43 DUP9 PUSH1 0x4C DUP10 PUSH2 0xC3E SWAP2 SWAP1 PUSH2 0x2E9D JUMP JUMPDEST PUSH2 0x1E01 JUMP JUMPDEST SWAP3 POP SWAP3 POP SWAP3 POP PUSH2 0xC61 JUMP JUMPDEST PUSH1 0x0 DUP1 SHL PUSH1 0x0 DUP1 SHL PUSH1 0x0 DUP1 SHL SWAP3 POP SWAP3 POP SWAP3 POP JUMPDEST SWAP4 POP SWAP4 POP SWAP4 SWAP1 POP JUMP JUMPDEST PUSH1 0x0 PUSH2 0xC77 DUP5 DUP5 DUP5 PUSH2 0x1E8C JUMP JUMPDEST ISZERO PUSH2 0xCE6 JUMPI PUSH2 0xCBA PUSH1 0x40 MLOAD DUP1 PUSH1 0x40 ADD PUSH1 0x40 MSTORE DUP1 PUSH1 0x13 DUP2 MSTORE PUSH1 0x20 ADD PUSH32 0x506172736564205032504B48206F757470757400000000000000000000000000 DUP2 MSTORE POP PUSH2 0x1D68 JUMP JUMPDEST PUSH2 0xCD0 DUP5 PUSH1 0x3 DUP6 PUSH2 0xCCB SWAP2 SWAP1 PUSH2 0x2E9D JUMP JUMPDEST PUSH2 0x2051 JUMP JUMPDEST PUSH12 0xFFFFFFFFFFFFFFFFFFFFFFFF NOT AND SWAP1 POP PUSH2 0xE3D JUMP JUMPDEST PUSH2 0xCF1 DUP5 DUP5 DUP5 PUSH2 0x2134 JUMP JUMPDEST ISZERO PUSH2 0xD60 JUMPI PUSH2 0xD34 PUSH1 0x40 MLOAD DUP1 PUSH1 0x40 ADD PUSH1 0x40 MSTORE DUP1 PUSH1 0x12 DUP2 MSTORE PUSH1 0x20 ADD PUSH32 0x5061727365642050325348206F75747075740000000000000000000000000000 DUP2 MSTORE POP PUSH2 0x1D68 JUMP JUMPDEST PUSH2 0xD4A DUP5 PUSH1 0x2 DUP6 PUSH2 0xD45 SWAP2 SWAP1 PUSH2 0x2E9D JUMP JUMPDEST PUSH2 0x2051 JUMP JUMPDEST PUSH12 0xFFFFFFFFFFFFFFFFFFFFFFFF NOT AND SWAP1 POP PUSH2 0xE3D JUMP JUMPDEST PUSH2 0xD6B DUP5 DUP5 DUP5 PUSH2 0x2251 JUMP JUMPDEST ISZERO PUSH2 0xDCB JUMPI PUSH2 0xDAE PUSH1 0x40 MLOAD DUP1 PUSH1 0x40 ADD PUSH1 0x40 MSTORE DUP1 PUSH1 0x17 DUP2 MSTORE PUSH1 0x20 ADD PUSH32 0x506172736564204F505F52455455524E206F7574707574000000000000000000 DUP2 MSTORE POP PUSH2 0x1D68 JUMP JUMPDEST PUSH2 0xDC4 DUP5 PUSH1 0x2 DUP6 PUSH2 0xDBF SWAP2 SWAP1 PUSH2 0x2E9D JUMP JUMPDEST PUSH2 0x1E01 JUMP JUMPDEST SWAP1 POP PUSH2 0xE3D JUMP JUMPDEST PUSH2 0xDD6 DUP5 DUP5 DUP5 PUSH2 0x17B9 JUMP JUMPDEST ISZERO PUSH2 0xE36 JUMPI PUSH2 0xE19 PUSH1 0x40 MLOAD DUP1 PUSH1 0x40 ADD PUSH1 0x40 MSTORE DUP1 PUSH1 0x1B DUP2 MSTORE PUSH1 0x20 ADD PUSH32 0x506172736564204C696768746E696E6748544C43206F75747075740000000000 DUP2 MSTORE POP PUSH2 0x1D68 JUMP JUMPDEST PUSH2 0xE2F DUP5 PUSH1 0x2 DUP6 PUSH2 0xE2A SWAP2 SWAP1 PUSH2 0x2E9D JUMP JUMPDEST PUSH2 0x1E01 JUMP JUMPDEST SWAP1 POP PUSH2 0xE3D JUMP JUMPDEST PUSH1 0x0 DUP1 SHL SWAP1 POP JUMPDEST SWAP4 SWAP3 POP POP POP JUMP JUMPDEST PUSH1 0x0 DUP1 PUSH1 0x20 PUSH1 0xFF AND PUSH8 0xFFFFFFFFFFFFFFFF DUP2 GT ISZERO PUSH2 0xE65 JUMPI PUSH2 0xE64 PUSH2 0x25A9 JUMP JUMPDEST JUMPDEST PUSH1 0x40 MLOAD SWAP1 DUP1 DUP3 MSTORE DUP1 PUSH1 0x1F ADD PUSH1 0x1F NOT AND PUSH1 0x20 ADD DUP3 ADD PUSH1 0x40 MSTORE DUP1 ISZERO PUSH2 0xE97 JUMPI DUP2 PUSH1 0x20 ADD PUSH1 0x1 DUP3 MUL DUP1 CALLDATASIZE DUP4 CALLDATACOPY DUP1 DUP3 ADD SWAP2 POP POP SWAP1 POP JUMPDEST POP SWAP1 POP PUSH1 0x0 JUMPDEST PUSH1 0x20 PUSH1 0xFF AND DUP2 LT ISZERO PUSH2 0xF30 JUMPI DUP4 DUP2 PUSH1 0x20 DUP2 LT PUSH2 0xEBC JUMPI PUSH2 0xEBB PUSH2 0x2D2E JUMP JUMPDEST JUMPDEST BYTE PUSH1 0xF8 SHL DUP3 PUSH1 0x1 DUP4 PUSH1 0x20 PUSH1 0xFF AND PUSH2 0xED3 SWAP2 SWAP1 PUSH2 0x2C56 JUMP JUMPDEST PUSH2 0xEDD SWAP2 SWAP1 PUSH2 0x2C56 JUMP JUMPDEST DUP2 MLOAD DUP2 LT PUSH2 0xEEE JUMPI PUSH2 0xEED PUSH2 0x2D2E JUMP JUMPDEST JUMPDEST PUSH1 0x20 ADD ADD SWAP1 PUSH31 0xFFFFFFFFFFFFFFFFFFFFFFFFFFFFFFFFFFFFFFFFFFFFFFFFFFFFFFFFFFFFFF NOT AND SWAP1 DUP2 PUSH1 0x0 BYTE SWAP1 MSTORE8 POP DUP1 DUP1 PUSH2 0xF28 SWAP1 PUSH2 0x2D5D JUMP JUMPDEST SWAP2 POP POP PUSH2 0xE9D JUMP JUMPDEST POP PUSH2 0xF3A DUP2 PUSH2 0x2314 JUMP JUMPDEST SWAP2 POP POP SWAP2 SWAP1 POP JUMP JUMPDEST PUSH1 0x60 PUSH1 0x0 DUP4 SWAP1 POP PUSH1 0x0 PUSH1 0x2 DUP5 PUSH1 0x2 PUSH2 0xF5A SWAP2 SWAP1 PUSH2 0x2FBA JUMP JUMPDEST PUSH2 0xF64 SWAP2 SWAP1 PUSH2 0x2E9D JUMP JUMPDEST PUSH8 0xFFFFFFFFFFFFFFFF DUP2 GT ISZERO PUSH2 0xF7D JUMPI PUSH2 0xF7C PUSH2 0x25A9 JUMP JUMPDEST JUMPDEST PUSH1 0x40 MLOAD SWAP1 DUP1 DUP3 MSTORE DUP1 PUSH1 0x1F ADD PUSH1 0x1F NOT AND PUSH1 0x20 ADD DUP3 ADD PUSH1 0x40 MSTORE DUP1 ISZERO PUSH2 0xFAF JUMPI DUP2 PUSH1 0x20 ADD PUSH1 0x1 DUP3 MUL DUP1 CALLDATASIZE DUP4 CALLDATACOPY DUP1 DUP3 ADD SWAP2 POP POP SWAP1 POP JUMPDEST POP SWAP1 POP PUSH32 0x3000000000000000000000000000000000000000000000000000000000000000 DUP2 PUSH1 0x0 DUP2 MLOAD DUP2 LT PUSH2 0xFE7 JUMPI PUSH2 0xFE6 PUSH2 0x2D2E JUMP JUMPDEST JUMPDEST PUSH1 0x20 ADD ADD SWAP1 PUSH31 0xFFFFFFFFFFFFFFFFFFFFFFFFFFFFFFFFFFFFFFFFFFFFFFFFFFFFFFFFFFFFFF NOT AND SWAP1 DUP2 PUSH1 0x0 BYTE SWAP1 MSTORE8 POP PUSH32 0x7800000000000000000000000000000000000000000000000000000000000000 DUP2 PUSH1 0x1 DUP2 MLOAD DUP2 LT PUSH2 0x104B JUMPI PUSH2 0x104A PUSH2 0x2D2E JUMP JUMPDEST JUMPDEST PUSH1 0x20 ADD ADD SWAP1 PUSH31 0xFFFFFFFFFFFFFFFFFFFFFFFFFFFFFFFFFFFFFFFFFFFFFFFFFFFFFFFFFFFFFF NOT AND SWAP1 DUP2 PUSH1 0x0 BYTE SWAP1 MSTORE8 POP PUSH1 0x0 PUSH1 0x1 DUP6 PUSH1 0x2 PUSH2 0x108B SWAP2 SWAP1 PUSH2 0x2FBA JUMP JUMPDEST PUSH2 0x1095 SWAP2 SWAP1 PUSH2 0x2E9D JUMP JUMPDEST SWAP1 POP JUMPDEST PUSH1 0x1 DUP2 GT ISZERO PUSH2 0x1135 JUMPI PUSH32 0x3031323334353637383961626364656600000000000000000000000000000000 PUSH1 0xF DUP5 AND PUSH1 0x10 DUP2 LT PUSH2 0x10D7 JUMPI PUSH2 0x10D6 PUSH2 0x2D2E JUMP JUMPDEST JUMPDEST BYTE PUSH1 0xF8 SHL DUP3 DUP3 DUP2 MLOAD DUP2 LT PUSH2 0x10EE JUMPI PUSH2 0x10ED PUSH2 0x2D2E JUMP JUMPDEST JUMPDEST PUSH1 0x20 ADD ADD SWAP1 PUSH31 0xFFFFFFFFFFFFFFFFFFFFFFFFFFFFFFFFFFFFFFFFFFFFFFFFFFFFFFFFFFFFFF NOT AND SWAP1 DUP2 PUSH1 0x0 BYTE SWAP1 MSTORE8 POP PUSH1 0x4 DUP4 SWAP1 SHR SWAP3 POP DUP1 PUSH2 0x112E SWAP1 PUSH2 0x2FFC JUMP JUMPDEST SWAP1 POP PUSH2 0x1098 JUMP JUMPDEST POP PUSH1 0x0 DUP3 EQ PUSH2 0x117D JUMPI DUP5 DUP5 PUSH1 0x40 MLOAD PUSH32 0xE22E27EB00000000000000000000000000000000000000000000000000000000 DUP2 MSTORE PUSH1 0x4 ADD PUSH2 0x1174 SWAP3 SWAP2 SWAP1 PUSH2 0x3025 JUMP JUMPDEST PUSH1 0x40 MLOAD DUP1 SWAP2 SUB SWAP1 REVERT JUMPDEST DUP1 SWAP3 POP POP POP SWAP3 SWAP2 POP POP JUMP JUMPDEST PUSH2 0x1220 DUP3 DUP3 PUSH1 0x40 MLOAD PUSH1 0x24 ADD PUSH2 0x119E SWAP3 SWAP2 SWAP1 PUSH2 0x30BC JUMP JUMPDEST PUSH1 0x40 MLOAD PUSH1 0x20 DUP2 DUP4 SUB SUB DUP2 MSTORE SWAP1 PUSH1 0x40 MSTORE PUSH32 0x4B5C427700000000000000000000000000000000000000000000000000000000 PUSH28 0xFFFFFFFFFFFFFFFFFFFFFFFFFFFFFFFFFFFFFFFFFFFFFFFFFFFFFFFF NOT AND PUSH1 0x20 DUP3 ADD DUP1 MLOAD PUSH28 0xFFFFFFFFFFFFFFFFFFFFFFFFFFFFFFFFFFFFFFFFFFFFFFFFFFFFFFFF DUP4 DUP2 DUP4 AND OR DUP4 MSTORE POP POP POP POP PUSH2 0x233D JUMP JUMPDEST POP POP JUMP JUMPDEST PUSH1 0x0 DUP1 PUSH1 0x0 DUP5 DUP5 DUP2 MLOAD DUP2 LT PUSH2 0x123C JUMPI PUSH2 0x123B PUSH2 0x2D2E JUMP JUMPDEST JUMPDEST PUSH1 0x20 ADD ADD MLOAD PUSH1 0xF8 SHR PUSH1 0xF8 SHL PUSH1 0xF8 SHR SWAP1 POP PUSH2 0x128E PUSH1 0x40 MLOAD DUP1 PUSH1 0x40 ADD PUSH1 0x40 MSTORE DUP1 PUSH1 0x6 DUP2 MSTORE PUSH1 0x20 ADD PUSH32 0x696269743A200000000000000000000000000000000000000000000000000000 DUP2 MSTORE POP DUP3 PUSH1 0xFF AND PUSH2 0x2357 JUMP JUMPDEST PUSH1 0x1 DUP5 PUSH2 0x129B SWAP2 SWAP1 PUSH2 0x2E9D JUMP JUMPDEST SWAP4 POP PUSH1 0xFD DUP2 PUSH1 0xFF AND LT ISZERO PUSH2 0x12BB JUMPI DUP1 DUP5 DUP2 PUSH1 0xFF AND SWAP2 POP SWAP3 POP SWAP3 POP POP PUSH2 0x1347 JUMP JUMPDEST PUSH1 0xFD DUP2 PUSH1 0xFF AND SUB PUSH2 0x12E9 JUMPI PUSH2 0x12D2 DUP6 DUP6 PUSH1 0x10 PUSH2 0x134E JUMP JUMPDEST PUSH1 0x2 DUP6 PUSH2 0x12DF SWAP2 SWAP1 PUSH2 0x2E9D JUMP JUMPDEST SWAP3 POP SWAP3 POP POP PUSH2 0x1347 JUMP JUMPDEST PUSH1 0xFE DUP2 PUSH1 0xFF AND SUB PUSH2 0x1317 JUMPI PUSH2 0x1300 DUP6 DUP6 PUSH1 0x20 PUSH2 0x134E JUMP JUMPDEST PUSH1 0x4 DUP6 PUSH2 0x130D SWAP2 SWAP1 PUSH2 0x2E9D JUMP JUMPDEST SWAP3 POP SWAP3 POP POP PUSH2 0x1347 JUMP JUMPDEST PUSH1 0xFF DUP2 PUSH1 0xFF AND SUB PUSH2 0x1345 JUMPI PUSH2 0x132E DUP6 DUP6 PUSH1 0x40 PUSH2 0x134E JUMP JUMPDEST PUSH1 0x8 DUP6 PUSH2 0x133B SWAP2 SWAP1 PUSH2 0x2E9D JUMP JUMPDEST SWAP3 POP SWAP3 POP POP PUSH2 0x1347 JUMP JUMPDEST POP JUMPDEST SWAP3 POP SWAP3 SWAP1 POP JUMP JUMPDEST PUSH1 0x0 PUSH1 0x8 DUP3 SUB PUSH2 0x1383 JUMPI DUP4 DUP4 DUP2 MLOAD DUP2 LT PUSH2 0x136B JUMPI PUSH2 0x136A PUSH2 0x2D2E JUMP JUMPDEST JUMPDEST PUSH1 0x20 ADD ADD MLOAD PUSH1 0xF8 SHR PUSH1 0xF8 SHL PUSH1 0xF8 SHR PUSH1 0xFF AND SWAP1 POP PUSH2 0x17B2 JUMP JUMPDEST PUSH1 0x10 DUP3 SUB PUSH2 0x1405 JUMPI PUSH2 0x100 DUP5 PUSH1 0x1 DUP6 PUSH2 0x139C SWAP2 SWAP1 PUSH2 0x2E9D JUMP JUMPDEST DUP2 MLOAD DUP2 LT PUSH2 0x13AD JUMPI PUSH2 0x13AC PUSH2 0x2D2E JUMP JUMPDEST JUMPDEST PUSH1 0x20 ADD ADD MLOAD PUSH1 0xF8 SHR PUSH1 0xF8 SHL PUSH1 0xF8 SHR PUSH1 0xFF AND PUSH2 0x13C8 SWAP2 SWAP1 PUSH2 0x3101 JUMP JUMPDEST PUSH2 0xFFFF AND DUP5 DUP5 DUP2 MLOAD DUP2 LT PUSH2 0x13DF JUMPI PUSH2 0x13DE PUSH2 0x2D2E JUMP JUMPDEST JUMPDEST PUSH1 0x20 ADD ADD MLOAD PUSH1 0xF8 SHR PUSH1 0xF8 SHL PUSH1 0xF8 SHR PUSH1 0xFF AND PUSH2 0xFFFF AND PUSH2 0x13FE SWAP2 SWAP1 PUSH2 0x2E9D JUMP JUMPDEST SWAP1 POP PUSH2 0x17B2 JUMP JUMPDEST PUSH1 0x20 DUP3 SUB PUSH2 0x1528 JUMPI PUSH4 0x1000000 DUP5 PUSH1 0x3 DUP6 PUSH2 0x1420 SWAP2 SWAP1 PUSH2 0x2E9D JUMP JUMPDEST DUP2 MLOAD DUP2 LT PUSH2 0x1431 JUMPI PUSH2 0x1430 PUSH2 0x2D2E JUMP JUMPDEST JUMPDEST PUSH1 0x20 ADD ADD MLOAD PUSH1 0xF8 SHR PUSH1 0xF8 SHL PUSH1 0xF8 SHR PUSH1 0xFF AND PUSH2 0x144C SWAP2 SWAP1 PUSH2 0x314E JUMP JUMPDEST PUSH4 0xFFFFFFFF AND PUSH3 0x10000 DUP6 PUSH1 0x2 DUP7 PUSH2 0x1464 SWAP2 SWAP1 PUSH2 0x2E9D JUMP JUMPDEST DUP2 MLOAD DUP2 LT PUSH2 0x1475 JUMPI PUSH2 0x1474 PUSH2 0x2D2E JUMP JUMPDEST JUMPDEST PUSH1 0x20 ADD ADD MLOAD PUSH1 0xF8 SHR PUSH1 0xF8 SHL PUSH1 0xF8 SHR PUSH1 0xFF AND PUSH2 0x1490 SWAP2 SWAP1 PUSH2 0x314E JUMP JUMPDEST PUSH4 0xFFFFFFFF AND PUSH2 0x100 DUP7 PUSH1 0x1 DUP8 PUSH2 0x14A7 SWAP2 SWAP1 PUSH2 0x2E9D JUMP JUMPDEST DUP2 MLOAD DUP2 LT PUSH2 0x14B8 JUMPI PUSH2 0x14B7 PUSH2 0x2D2E JUMP JUMPDEST JUMPDEST PUSH1 0x20 ADD ADD MLOAD PUSH1 0xF8 SHR PUSH1 0xF8 SHL PUSH1 0xF8 SHR PUSH1 0xFF AND PUSH2 0x14D3 SWAP2 SWAP1 PUSH2 0x314E JUMP JUMPDEST PUSH4 0xFFFFFFFF AND DUP7 DUP7 DUP2 MLOAD DUP2 LT PUSH2 0x14EC JUMPI PUSH2 0x14EB PUSH2 0x2D2E JUMP JUMPDEST JUMPDEST PUSH1 0x20 ADD ADD MLOAD PUSH1 0xF8 SHR PUSH1 0xF8 SHL PUSH1 0xF8 SHR PUSH1 0xFF AND PUSH4 0xFFFFFFFF AND PUSH2 0x150D SWAP2 SWAP1 PUSH2 0x2E9D JUMP JUMPDEST PUSH2 0x1517 SWAP2 SWAP1 PUSH2 0x2E9D JUMP JUMPDEST PUSH2 0x1521 SWAP2 SWAP1 PUSH2 0x2E9D JUMP JUMPDEST SWAP1 POP PUSH2 0x17B2 JUMP JUMPDEST PUSH1 0x40 DUP3 SUB PUSH2 0x17B1 JUMPI PUSH8 0x100000000000000 DUP5 PUSH1 0x7 DUP6 PUSH2 0x1547 SWAP2 SWAP1 PUSH2 0x2E9D JUMP JUMPDEST DUP2 MLOAD DUP2 LT PUSH2 0x1558 JUMPI PUSH2 0x1557 PUSH2 0x2D2E JUMP JUMPDEST JUMPDEST PUSH1 0x20 ADD ADD MLOAD PUSH1 0xF8 SHR PUSH1 0xF8 SHL PUSH1 0xF8 SHR PUSH1 0xFF AND PUSH2 0x1573 SWAP2 SWAP1 PUSH2 0x319F JUMP JUMPDEST PUSH8 0xFFFFFFFFFFFFFFFF AND PUSH7 0x1000000000000 DUP6 PUSH1 0x6 DUP7 PUSH2 0x1593 SWAP2 SWAP1 PUSH2 0x2E9D JUMP JUMPDEST DUP2 MLOAD DUP2 LT PUSH2 0x15A4 JUMPI PUSH2 0x15A3 PUSH2 0x2D2E JUMP JUMPDEST JUMPDEST PUSH1 0x20 ADD ADD MLOAD PUSH1 0xF8 SHR PUSH1 0xF8 SHL PUSH1 0xF8 SHR PUSH1 0xFF AND PUSH2 0x15BF SWAP2 SWAP1 PUSH2 0x319F JUMP JUMPDEST PUSH8 0xFFFFFFFFFFFFFFFF AND PUSH6 0x10000000000 DUP7 PUSH1 0x5 DUP8 PUSH2 0x15DE SWAP2 SWAP1 PUSH2 0x2E9D JUMP JUMPDEST DUP2 MLOAD DUP2 LT PUSH2 0x15EF JUMPI PUSH2 0x15EE PUSH2 0x2D2E JUMP JUMPDEST JUMPDEST PUSH1 0x20 ADD ADD MLOAD PUSH1 0xF8 SHR PUSH1 0xF8 SHL PUSH1 0xF8 SHR PUSH1 0xFF AND PUSH2 0x160A SWAP2 SWAP1 PUSH2 0x319F JUMP JUMPDEST PUSH8 0xFFFFFFFFFFFFFFFF AND PUSH5 0x100000000 DUP8 PUSH1 0x4 DUP9 PUSH2 0x1628 SWAP2 SWAP1 PUSH2 0x2E9D JUMP JUMPDEST DUP2 MLOAD DUP2 LT PUSH2 0x1639 JUMPI PUSH2 0x1638 PUSH2 0x2D2E JUMP JUMPDEST JUMPDEST PUSH1 0x20 ADD ADD MLOAD PUSH1 0xF8 SHR PUSH1 0xF8 SHL PUSH1 0xF8 SHR PUSH1 0xFF AND PUSH2 0x1654 SWAP2 SWAP1 PUSH2 0x319F JUMP JUMPDEST PUSH8 0xFFFFFFFFFFFFFFFF AND PUSH4 0x1000000 DUP9 PUSH1 0x3 DUP10 PUSH2 0x1671 SWAP2 SWAP1 PUSH2 0x2E9D JUMP JUMPDEST DUP2 MLOAD DUP2 LT PUSH2 0x1682 JUMPI PUSH2 0x1681 PUSH2 0x2D2E JUMP JUMPDEST JUMPDEST PUSH1 0x20 ADD ADD MLOAD PUSH1 0xF8 SHR PUSH1 0xF8 SHL PUSH1 0xF8 SHR PUSH1 0xFF AND PUSH2 0x169D SWAP2 SWAP1 PUSH2 0x319F JUMP JUMPDEST PUSH8 0xFFFFFFFFFFFFFFFF AND PUSH3 0x10000 DUP10 PUSH1 0x2 DUP11 PUSH2 0x16B9 SWAP2 SWAP1 PUSH2 0x2E9D JUMP JUMPDEST DUP2 MLOAD DUP2 LT PUSH2 0x16CA JUMPI PUSH2 0x16C9 PUSH2 0x2D2E JUMP JUMPDEST JUMPDEST PUSH1 0x20 ADD ADD MLOAD PUSH1 0xF8 SHR PUSH1 0xF8 SHL PUSH1 0xF8 SHR PUSH1 0xFF AND PUSH2 0x16E5 SWAP2 SWAP1 PUSH2 0x319F JUMP JUMPDEST PUSH8 0xFFFFFFFFFFFFFFFF AND PUSH2 0x100 DUP11 PUSH1 0x1 DUP12 PUSH2 0x1700 SWAP2 SWAP1 PUSH2 0x2E9D JUMP JUMPDEST DUP2 MLOAD DUP2 LT PUSH2 0x1711 JUMPI PUSH2 0x1710 PUSH2 0x2D2E JUMP JUMPDEST JUMPDEST PUSH1 0x20 ADD ADD MLOAD PUSH1 0xF8 SHR PUSH1 0xF8 SHL PUSH1 0xF8 SHR PUSH1 0xFF AND PUSH2 0x172C SWAP2 SWAP1 PUSH2 0x319F JUMP JUMPDEST PUSH8 0xFFFFFFFFFFFFFFFF AND DUP11 DUP11 DUP2 MLOAD DUP2 LT PUSH2 0x1749 JUMPI PUSH2 0x1748 PUSH2 0x2D2E JUMP JUMPDEST JUMPDEST PUSH1 0x20 ADD ADD MLOAD PUSH1 0xF8 SHR PUSH1 0xF8 SHL PUSH1 0xF8 SHR PUSH1 0xFF AND PUSH8 0xFFFFFFFFFFFFFFFF AND PUSH2 0x176E SWAP2 SWAP1 PUSH2 0x2E9D JUMP JUMPDEST PUSH2 0x1778 SWAP2 SWAP1 PUSH2 0x2E9D JUMP JUMPDEST PUSH2 0x1782 SWAP2 SWAP1 PUSH2 0x2E9D JUMP JUMPDEST PUSH2 0x178C SWAP2 SWAP1 PUSH2 0x2E9D JUMP JUMPDEST PUSH2 0x1796 SWAP2 SWAP1 PUSH2 0x2E9D JUMP JUMPDEST PUSH2 0x17A0 SWAP2 SWAP1 PUSH2 0x2E9D JUMP JUMPDEST PUSH2 0x17AA SWAP2 SWAP1 PUSH2 0x2E9D JUMP JUMPDEST SWAP1 POP PUSH2 0x17B2 JUMP JUMPDEST JUMPDEST SWAP4 SWAP3 POP POP POP JUMP JUMPDEST PUSH1 0x0 PUSH1 0x72 DUP3 EQ DUP1 ISZERO PUSH2 0x1819 JUMPI POP PUSH1 0x76 PUSH1 0xF8 SHL DUP5 PUSH1 0x0 DUP6 PUSH2 0x17D9 SWAP2 SWAP1 PUSH2 0x2E9D JUMP JUMPDEST DUP2 MLOAD DUP2 LT PUSH2 0x17EA JUMPI PUSH2 0x17E9 PUSH2 0x2D2E JUMP JUMPDEST JUMPDEST PUSH1 0x20 ADD ADD MLOAD PUSH1 0xF8 SHR PUSH1 0xF8 SHL PUSH31 0xFFFFFFFFFFFFFFFFFFFFFFFFFFFFFFFFFFFFFFFFFFFFFFFFFFFFFFFFFFFFFF NOT AND EQ JUMPDEST DUP1 ISZERO PUSH2 0x1873 JUMPI POP PUSH1 0x21 PUSH1 0xF8 SHL DUP5 PUSH1 0x1 DUP6 PUSH2 0x1833 SWAP2 SWAP1 PUSH2 0x2E9D JUMP JUMPDEST DUP2 MLOAD DUP2 LT PUSH2 0x1844 JUMPI PUSH2 0x1843 PUSH2 0x2D2E JUMP JUMPDEST JUMPDEST PUSH1 0x20 ADD ADD MLOAD PUSH1 0xF8 SHR PUSH1 0xF8 SHL PUSH31 0xFFFFFFFFFFFFFFFFFFFFFFFFFFFFFFFFFFFFFFFFFFFFFFFFFFFFFFFFFFFFFF NOT AND EQ JUMPDEST DUP1 ISZERO PUSH2 0x18CD JUMPI POP PUSH1 0xAC PUSH1 0xF8 SHL DUP5 PUSH1 0x23 DUP6 PUSH2 0x188D SWAP2 SWAP1 PUSH2 0x2E9D JUMP JUMPDEST DUP2 MLOAD DUP2 LT PUSH2 0x189E JUMPI PUSH2 0x189D PUSH2 0x2D2E JUMP JUMPDEST JUMPDEST PUSH1 0x20 ADD ADD MLOAD PUSH1 0xF8 SHR PUSH1 0xF8 SHL PUSH31 0xFFFFFFFFFFFFFFFFFFFFFFFFFFFFFFFFFFFFFFFFFFFFFFFFFFFFFFFFFFFFFF NOT AND EQ JUMPDEST DUP1 ISZERO PUSH2 0x1927 JUMPI POP PUSH1 0x63 PUSH1 0xF8 SHL DUP5 PUSH1 0x24 DUP6 PUSH2 0x18E7 SWAP2 SWAP1 PUSH2 0x2E9D JUMP JUMPDEST DUP2 MLOAD DUP2 LT PUSH2 0x18F8 JUMPI PUSH2 0x18F7 PUSH2 0x2D2E JUMP JUMPDEST JUMPDEST PUSH1 0x20 ADD ADD MLOAD PUSH1 0xF8 SHR PUSH1 0xF8 SHL PUSH31 0xFFFFFFFFFFFFFFFFFFFFFFFFFFFFFFFFFFFFFFFFFFFFFFFFFFFFFFFFFFFFFF NOT AND EQ JUMPDEST DUP1 ISZERO PUSH2 0x1981 JUMPI POP PUSH1 0x75 PUSH1 0xF8 SHL DUP5 PUSH1 0x25 DUP6 PUSH2 0x1941 SWAP2 SWAP1 PUSH2 0x2E9D JUMP JUMPDEST DUP2 MLOAD DUP2 LT PUSH2 0x1952 JUMPI PUSH2 0x1951 PUSH2 0x2D2E JUMP JUMPDEST JUMPDEST PUSH1 0x20 ADD ADD MLOAD PUSH1 0xF8 SHR PUSH1 0xF8 SHL PUSH31 0xFFFFFFFFFFFFFFFFFFFFFFFFFFFFFFFFFFFFFFFFFFFFFFFFFFFFFFFFFFFFFF NOT AND EQ JUMPDEST DUP1 ISZERO PUSH2 0x19DB JUMPI POP PUSH1 0xAA PUSH1 0xF8 SHL DUP5 PUSH1 0x26 DUP6 PUSH2 0x199B SWAP2 SWAP1 PUSH2 0x2E9D JUMP JUMPDEST DUP2 MLOAD DUP2 LT PUSH2 0x19AC JUMPI PUSH2 0x19AB PUSH2 0x2D2E JUMP JUMPDEST JUMPDEST PUSH1 0x20 ADD ADD MLOAD PUSH1 0xF8 SHR PUSH1 0xF8 SHL PUSH31 0xFFFFFFFFFFFFFFFFFFFFFFFFFFFFFFFFFFFFFFFFFFFFFFFFFFFFFFFFFFFFFF NOT AND EQ JUMPDEST DUP1 ISZERO PUSH2 0x1A35 JUMPI POP PUSH1 0x20 PUSH1 0xF8 SHL DUP5 PUSH1 0x27 DUP6 PUSH2 0x19F5 SWAP2 SWAP1 PUSH2 0x2E9D JUMP JUMPDEST DUP2 MLOAD DUP2 LT PUSH2 0x1A06 JUMPI PUSH2 0x1A05 PUSH2 0x2D2E JUMP JUMPDEST JUMPDEST PUSH1 0x20 ADD ADD MLOAD PUSH1 0xF8 SHR PUSH1 0xF8 SHL PUSH31 0xFFFFFFFFFFFFFFFFFFFFFFFFFFFFFFFFFFFFFFFFFFFFFFFFFFFFFFFFFFFFFF NOT AND EQ JUMPDEST DUP1 ISZERO PUSH2 0x1A8F JUMPI POP PUSH1 0x88 PUSH1 0xF8 SHL DUP5 PUSH1 0x48 DUP6 PUSH2 0x1A4F SWAP2 SWAP1 PUSH2 0x2E9D JUMP JUMPDEST DUP2 MLOAD DUP2 LT PUSH2 0x1A60 JUMPI PUSH2 0x1A5F PUSH2 0x2D2E JUMP JUMPDEST JUMPDEST PUSH1 0x20 ADD ADD MLOAD PUSH1 0xF8 SHR PUSH1 0xF8 SHL PUSH31 0xFFFFFFFFFFFFFFFFFFFFFFFFFFFFFFFFFFFFFFFFFFFFFFFFFFFFFFFFFFFFFF NOT AND EQ JUMPDEST DUP1 ISZERO PUSH2 0x1AE9 JUMPI POP PUSH1 0x67 PUSH1 0xF8 SHL DUP5 PUSH1 0x49 DUP6 PUSH2 0x1AA9 SWAP2 SWAP1 PUSH2 0x2E9D JUMP JUMPDEST DUP2 MLOAD DUP2 LT PUSH2 0x1ABA JUMPI PUSH2 0x1AB9 PUSH2 0x2D2E JUMP JUMPDEST JUMPDEST PUSH1 0x20 ADD ADD MLOAD PUSH1 0xF8 SHR PUSH1 0xF8 SHL PUSH31 0xFFFFFFFFFFFFFFFFFFFFFFFFFFFFFFFFFFFFFFFFFFFFFFFFFFFFFFFFFFFFFF NOT AND EQ JUMPDEST DUP1 ISZERO PUSH2 0x1B43 JUMPI POP PUSH1 0x21 PUSH1 0xF8 SHL DUP5 PUSH1 0x4A DUP6 PUSH2 0x1B03 SWAP2 SWAP1 PUSH2 0x2E9D JUMP JUMPDEST DUP2 MLOAD DUP2 LT PUSH2 0x1B14 JUMPI PUSH2 0x1B13 PUSH2 0x2D2E JUMP JUMPDEST JUMPDEST PUSH1 0x20 ADD ADD MLOAD PUSH1 0xF8 SHR PUSH1 0xF8 SHL PUSH31 0xFFFFFFFFFFFFFFFFFFFFFFFFFFFFFFFFFFFFFFFFFFFFFFFFFFFFFFFFFFFFFF NOT AND EQ JUMPDEST DUP1 ISZERO PUSH2 0x1B9D JUMPI POP PUSH1 0xAD PUSH1 0xF8 SHL DUP5 PUSH1 0x6C DUP6 PUSH2 0x1B5D SWAP2 SWAP1 PUSH2 0x2E9D JUMP JUMPDEST DUP2 MLOAD DUP2 LT PUSH2 0x1B6E JUMPI PUSH2 0x1B6D PUSH2 0x2D2E JUMP JUMPDEST JUMPDEST PUSH1 0x20 ADD ADD MLOAD PUSH1 0xF8 SHR PUSH1 0xF8 SHL PUSH31 0xFFFFFFFFFFFFFFFFFFFFFFFFFFFFFFFFFFFFFFFFFFFFFFFFFFFFFFFFFFFFFF NOT AND EQ JUMPDEST DUP1 ISZERO PUSH2 0x1BF7 JUMPI POP PUSH1 0x52 PUSH1 0xF8 SHL DUP5 PUSH1 0x6D DUP6 PUSH2 0x1BB7 SWAP2 SWAP1 PUSH2 0x2E9D JUMP JUMPDEST DUP2 MLOAD DUP2 LT PUSH2 0x1BC8 JUMPI PUSH2 0x1BC7 PUSH2 0x2D2E JUMP JUMPDEST JUMPDEST PUSH1 0x20 ADD ADD MLOAD PUSH1 0xF8 SHR PUSH1 0xF8 SHL PUSH31 0xFFFFFFFFFFFFFFFFFFFFFFFFFFFFFFFFFFFFFFFFFFFFFFFFFFFFFFFFFFFFFF NOT AND EQ JUMPDEST DUP1 ISZERO PUSH2 0x1C51 JUMPI POP PUSH1 0xB2 PUSH1 0xF8 SHL DUP5 PUSH1 0x6E DUP6 PUSH2 0x1C11 SWAP2 SWAP1 PUSH2 0x2E9D JUMP JUMPDEST DUP2 MLOAD DUP2 LT PUSH2 0x1C22 JUMPI PUSH2 0x1C21 PUSH2 0x2D2E JUMP JUMPDEST JUMPDEST PUSH1 0x20 ADD ADD MLOAD PUSH1 0xF8 SHR PUSH1 0xF8 SHL PUSH31 0xFFFFFFFFFFFFFFFFFFFFFFFFFFFFFFFFFFFFFFFFFFFFFFFFFFFFFFFFFFFFFF NOT AND EQ JUMPDEST DUP1 ISZERO PUSH2 0x1CAB JUMPI POP PUSH1 0x75 PUSH1 0xF8 SHL DUP5 PUSH1 0x6F DUP6 PUSH2 0x1C6B SWAP2 SWAP1 PUSH2 0x2E9D JUMP JUMPDEST DUP2 MLOAD DUP2 LT PUSH2 0x1C7C JUMPI PUSH2 0x1C7B PUSH2 0x2D2E JUMP JUMPDEST JUMPDEST PUSH1 0x20 ADD ADD MLOAD PUSH1 0xF8 SHR PUSH1 0xF8 SHL PUSH31 0xFFFFFFFFFFFFFFFFFFFFFFFFFFFFFFFFFFFFFFFFFFFFFFFFFFFFFFFFFFFFFF NOT AND EQ JUMPDEST DUP1 ISZERO PUSH2 0x1D05 JUMPI POP PUSH1 0x68 PUSH1 0xF8 SHL DUP5 PUSH1 0x70 DUP6 PUSH2 0x1CC5 SWAP2 SWAP1 PUSH2 0x2E9D JUMP JUMPDEST DUP2 MLOAD DUP2 LT PUSH2 0x1CD6 JUMPI PUSH2 0x1CD5 PUSH2 0x2D2E JUMP JUMPDEST JUMPDEST PUSH1 0x20 ADD ADD MLOAD PUSH1 0xF8 SHR PUSH1 0xF8 SHL PUSH31 0xFFFFFFFFFFFFFFFFFFFFFFFFFFFFFFFFFFFFFFFFFFFFFFFFFFFFFFFFFFFFFF NOT AND EQ JUMPDEST DUP1 ISZERO PUSH2 0x1D5F JUMPI POP PUSH1 0x51 PUSH1 0xF8 SHL DUP5 PUSH1 0x71 DUP6 PUSH2 0x1D1F SWAP2 SWAP1 PUSH2 0x2E9D JUMP JUMPDEST DUP2 MLOAD DUP2 LT PUSH2 0x1D30 JUMPI PUSH2 0x1D2F PUSH2 0x2D2E JUMP JUMPDEST JUMPDEST PUSH1 0x20 ADD ADD MLOAD PUSH1 0xF8 SHR PUSH1 0xF8 SHL PUSH31 0xFFFFFFFFFFFFFFFFFFFFFFFFFFFFFFFFFFFFFFFFFFFFFFFFFFFFFFFFFFFFFF NOT AND EQ JUMPDEST SWAP1 POP SWAP4 SWAP3 POP POP POP JUMP JUMPDEST PUSH2 0x1DFE DUP2 PUSH1 0x40 MLOAD PUSH1 0x24 ADD PUSH2 0x1D7C SWAP2 SWAP1 PUSH2 0x31DC JUMP JUMPDEST PUSH1 0x40 MLOAD PUSH1 0x20 DUP2 DUP4 SUB SUB DUP2 MSTORE SWAP1 PUSH1 0x40 MSTORE PUSH32 0x41304FAC00000000000000000000000000000000000000000000000000000000 PUSH28 0xFFFFFFFFFFFFFFFFFFFFFFFFFFFFFFFFFFFFFFFFFFFFFFFFFFFFFFFF NOT AND PUSH1 0x20 DUP3 ADD DUP1 MLOAD PUSH28 0xFFFFFFFFFFFFFFFFFFFFFFFFFFFFFFFFFFFFFFFFFFFFFFFFFFFFFFFF DUP4 DUP2 DUP4 AND OR DUP4 MSTORE POP POP POP POP PUSH2 0x233D JUMP JUMPDEST POP JUMP JUMPDEST PUSH1 0x0 DUP1 PUSH1 0x0 SWAP1 POP PUSH1 0x0 JUMPDEST PUSH1 0x20 DUP2 LT ISZERO PUSH2 0x1E7E JUMPI DUP1 PUSH1 0x1F PUSH2 0x1E21 SWAP2 SWAP1 PUSH2 0x2C56 JUMP JUMPDEST PUSH1 0x8 PUSH2 0x1E2D SWAP2 SWAP1 PUSH2 0x2FBA JUMP JUMPDEST DUP6 DUP6 DUP4 PUSH2 0x1E3A SWAP2 SWAP1 PUSH2 0x2E9D JUMP JUMPDEST DUP2 MLOAD DUP2 LT PUSH2 0x1E4B JUMPI PUSH2 0x1E4A PUSH2 0x2D2E JUMP JUMPDEST JUMPDEST PUSH1 0x20 ADD ADD MLOAD PUSH1 0xF8 SHR PUSH1 0xF8 SHL PUSH1 0xF8 SHR PUSH1 0xFF AND SWAP1 SHL DUP3 PUSH2 0x1E69 SWAP2 SWAP1 PUSH2 0x2E9D JUMP JUMPDEST SWAP2 POP DUP1 DUP1 PUSH2 0x1E76 SWAP1 PUSH2 0x2D5D JUMP JUMPDEST SWAP2 POP POP PUSH2 0x1E0B JUMP JUMPDEST POP DUP1 PUSH1 0x0 SHL SWAP2 POP POP SWAP3 SWAP2 POP POP JUMP JUMPDEST PUSH1 0x0 PUSH1 0x19 DUP3 EQ DUP1 ISZERO PUSH2 0x1EE0 JUMPI POP PUSH1 0x76 PUSH1 0xF8 SHL DUP5 DUP5 DUP2 MLOAD DUP2 LT PUSH2 0x1EB1 JUMPI PUSH2 0x1EB0 PUSH2 0x2D2E JUMP JUMPDEST JUMPDEST PUSH1 0x20 ADD ADD MLOAD PUSH1 0xF8 SHR PUSH1 0xF8 SHL PUSH31 0xFFFFFFFFFFFFFFFFFFFFFFFFFFFFFFFFFFFFFFFFFFFFFFFFFFFFFFFFFFFFFF NOT AND EQ JUMPDEST DUP1 ISZERO PUSH2 0x1F3A JUMPI POP PUSH1 0xA9 PUSH1 0xF8 SHL DUP5 PUSH1 0x1 DUP6 PUSH2 0x1EFA SWAP2 SWAP1 PUSH2 0x2E9D JUMP JUMPDEST DUP2 MLOAD DUP2 LT PUSH2 0x1F0B JUMPI PUSH2 0x1F0A PUSH2 0x2D2E JUMP JUMPDEST JUMPDEST PUSH1 0x20 ADD ADD MLOAD PUSH1 0xF8 SHR PUSH1 0xF8 SHL PUSH31 0xFFFFFFFFFFFFFFFFFFFFFFFFFFFFFFFFFFFFFFFFFFFFFFFFFFFFFFFFFFFFFF NOT AND EQ JUMPDEST DUP1 ISZERO PUSH2 0x1F94 JUMPI POP PUSH1 0x14 PUSH1 0xF8 SHL DUP5 PUSH1 0x2 DUP6 PUSH2 0x1F54 SWAP2 SWAP1 PUSH2 0x2E9D JUMP JUMPDEST DUP2 MLOAD DUP2 LT PUSH2 0x1F65 JUMPI PUSH2 0x1F64 PUSH2 0x2D2E JUMP JUMPDEST JUMPDEST PUSH1 0x20 ADD ADD MLOAD PUSH1 0xF8 SHR PUSH1 0xF8 SHL PUSH31 0xFFFFFFFFFFFFFFFFFFFFFFFFFFFFFFFFFFFFFFFFFFFFFFFFFFFFFFFFFFFFFF NOT AND EQ JUMPDEST DUP1 ISZERO PUSH2 0x1FEE JUMPI POP PUSH1 0x88 PUSH1 0xF8 SHL DUP5 PUSH1 0x17 DUP6 PUSH2 0x1FAE SWAP2 SWAP1 PUSH2 0x2E9D JUMP JUMPDEST DUP2 MLOAD DUP2 LT PUSH2 0x1FBF JUMPI PUSH2 0x1FBE PUSH2 0x2D2E JUMP JUMPDEST JUMPDEST PUSH1 0x20 ADD ADD MLOAD PUSH1 0xF8 SHR PUSH1 0xF8 SHL PUSH31 0xFFFFFFFFFFFFFFFFFFFFFFFFFFFFFFFFFFFFFFFFFFFFFFFFFFFFFFFFFFFFFF NOT AND EQ JUMPDEST DUP1 ISZERO PUSH2 0x2048 JUMPI POP PUSH1 0xAC PUSH1 0xF8 SHL DUP5 PUSH1 0x18 DUP6 PUSH2 0x2008 SWAP2 SWAP1 PUSH2 0x2E9D JUMP JUMPDEST DUP2 MLOAD DUP2 LT PUSH2 0x2019 JUMPI PUSH2 0x2018 PUSH2 0x2D2E JUMP JUMPDEST JUMPDEST PUSH1 0x20 ADD ADD MLOAD PUSH1 0xF8 SHR PUSH1 0xF8 SHL PUSH31 0xFFFFFFFFFFFFFFFFFFFFFFFFFFFFFFFFFFFFFFFFFFFFFFFFFFFFFFFFFFFFFF NOT AND EQ JUMPDEST SWAP1 POP SWAP4 SWAP3 POP POP POP JUMP JUMPDEST PUSH1 0x0 DUP1 PUSH1 0x0 SWAP1 POP PUSH1 0x0 JUMPDEST PUSH1 0x14 DUP2 PUSH20 0xFFFFFFFFFFFFFFFFFFFFFFFFFFFFFFFFFFFFFFFF AND LT ISZERO PUSH2 0x2126 JUMPI DUP1 PUSH1 0x13 PUSH2 0x2087 SWAP2 SWAP1 PUSH2 0x321E JUMP JUMPDEST PUSH1 0x8 PUSH2 0x2093 SWAP2 SWAP1 PUSH2 0x3266 JUMP JUMPDEST PUSH20 0xFFFFFFFFFFFFFFFFFFFFFFFFFFFFFFFFFFFFFFFF AND DUP6 DUP6 DUP4 PUSH20 0xFFFFFFFFFFFFFFFFFFFFFFFFFFFFFFFFFFFFFFFF AND PUSH2 0x20CC SWAP2 SWAP1 PUSH2 0x2E9D JUMP JUMPDEST DUP2 MLOAD DUP2 LT PUSH2 0x20DD JUMPI PUSH2 0x20DC PUSH2 0x2D2E JUMP JUMPDEST JUMPDEST PUSH1 0x20 ADD ADD MLOAD PUSH1 0xF8 SHR PUSH1 0xF8 SHL PUSH1 0xF8 SHR PUSH1 0xFF AND PUSH20 0xFFFFFFFFFFFFFFFFFFFFFFFFFFFFFFFFFFFFFFFF AND SWAP1 SHL DUP3 PUSH2 0x2111 SWAP2 SWAP1 PUSH2 0x32A8 JUMP JUMPDEST SWAP2 POP DUP1 DUP1 PUSH2 0x211E SWAP1 PUSH2 0x32F0 JUMP JUMPDEST SWAP2 POP POP PUSH2 0x205B JUMP JUMPDEST POP DUP1 PUSH1 0x60 SHL SWAP2 POP POP SWAP3 SWAP2 POP POP JUMP JUMPDEST PUSH1 0x0 PUSH1 0x17 DUP3 EQ DUP1 ISZERO PUSH2 0x2194 JUMPI POP PUSH1 0xA9 PUSH1 0xF8 SHL DUP5 PUSH1 0x0 DUP6 PUSH2 0x2154 SWAP2 SWAP1 PUSH2 0x2E9D JUMP JUMPDEST DUP2 MLOAD DUP2 LT PUSH2 0x2165 JUMPI PUSH2 0x2164 PUSH2 0x2D2E JUMP JUMPDEST JUMPDEST PUSH1 0x20 ADD ADD MLOAD PUSH1 0xF8 SHR PUSH1 0xF8 SHL PUSH31 0xFFFFFFFFFFFFFFFFFFFFFFFFFFFFFFFFFFFFFFFFFFFFFFFFFFFFFFFFFFFFFF NOT AND EQ JUMPDEST DUP1 ISZERO PUSH2 0x21EE JUMPI POP PUSH1 0x14 PUSH1 0xF8 SHL DUP5 PUSH1 0x1 DUP6 PUSH2 0x21AE SWAP2 SWAP1 PUSH2 0x2E9D JUMP JUMPDEST DUP2 MLOAD DUP2 LT PUSH2 0x21BF JUMPI PUSH2 0x21BE PUSH2 0x2D2E JUMP JUMPDEST JUMPDEST PUSH1 0x20 ADD ADD MLOAD PUSH1 0xF8 SHR PUSH1 0xF8 SHL PUSH31 0xFFFFFFFFFFFFFFFFFFFFFFFFFFFFFFFFFFFFFFFFFFFFFFFFFFFFFFFFFFFFFF NOT AND EQ JUMPDEST DUP1 ISZERO PUSH2 0x2248 JUMPI POP PUSH1 0x87 PUSH1 0xF8 SHL DUP5 PUSH1 0x16 DUP6 PUSH2 0x2208 SWAP2 SWAP1 PUSH2 0x2E9D JUMP JUMPDEST DUP2 MLOAD DUP2 LT PUSH2 0x2219 JUMPI PUSH2 0x2218 PUSH2 0x2D2E JUMP JUMPDEST JUMPDEST PUSH1 0x20 ADD ADD MLOAD PUSH1 0xF8 SHR PUSH1 0xF8 SHL PUSH31 0xFFFFFFFFFFFFFFFFFFFFFFFFFFFFFFFFFFFFFFFFFFFFFFFFFFFFFFFFFFFFFF NOT AND EQ JUMPDEST SWAP1 POP SWAP4 SWAP3 POP POP POP JUMP JUMPDEST PUSH1 0x0 PUSH1 0x22 DUP3 EQ DUP1 ISZERO PUSH2 0x22B1 JUMPI POP PUSH1 0x6A PUSH1 0xF8 SHL DUP5 PUSH1 0x0 DUP6 PUSH2 0x2271 SWAP2 SWAP1 PUSH2 0x2E9D JUMP JUMPDEST DUP2 MLOAD DUP2 LT PUSH2 0x2282 JUMPI PUSH2 0x2281 PUSH2 0x2D2E JUMP JUMPDEST JUMPDEST PUSH1 0x20 ADD ADD MLOAD PUSH1 0xF8 SHR PUSH1 0xF8 SHL PUSH31 0xFFFFFFFFFFFFFFFFFFFFFFFFFFFFFFFFFFFFFFFFFFFFFFFFFFFFFFFFFFFFFF NOT AND EQ JUMPDEST DUP1 ISZERO PUSH2 0x230B JUMPI POP PUSH1 0x20 PUSH1 0xF8 SHL DUP5 PUSH1 0x1 DUP6 PUSH2 0x22CB SWAP2 SWAP1 PUSH2 0x2E9D JUMP JUMPDEST DUP2 MLOAD DUP2 LT PUSH2 0x22DC JUMPI PUSH2 0x22DB PUSH2 0x2D2E JUMP JUMPDEST JUMPDEST PUSH1 0x20 ADD ADD MLOAD PUSH1 0xF8 SHR PUSH1 0xF8 SHL PUSH31 0xFFFFFFFFFFFFFFFFFFFFFFFFFFFFFFFFFFFFFFFFFFFFFFFFFFFFFFFFFFFFFF NOT AND EQ JUMPDEST SWAP1 POP SWAP4 SWAP3 POP POP POP JUMP JUMPDEST PUSH1 0x0 DUP1 DUP3 SWAP1 POP PUSH1 0x0 DUP2 MLOAD SUB PUSH2 0x232F JUMPI PUSH1 0x0 DUP1 SHL SWAP2 POP POP PUSH2 0x2338 JUMP JUMPDEST PUSH1 0x20 DUP4 ADD MLOAD SWAP2 POP POP JUMPDEST SWAP2 SWAP1 POP JUMP JUMPDEST PUSH2 0x2354 DUP2 PUSH2 0x234C PUSH2 0x23F3 PUSH2 0x2414 JUMP JUMPDEST PUSH4 0xFFFFFFFF AND JUMP JUMPDEST POP JUMP JUMPDEST PUSH2 0x23EF DUP3 DUP3 PUSH1 0x40 MLOAD PUSH1 0x24 ADD PUSH2 0x236D SWAP3 SWAP2 SWAP1 PUSH2 0x332C JUMP JUMPDEST PUSH1 0x40 MLOAD PUSH1 0x20 DUP2 DUP4 SUB SUB DUP2 MSTORE SWAP1 PUSH1 0x40 MSTORE PUSH32 0xB60E72CC00000000000000000000000000000000000000000000000000000000 PUSH28 0xFFFFFFFFFFFFFFFFFFFFFFFFFFFFFFFFFFFFFFFFFFFFFFFFFFFFFFFF NOT AND PUSH1 0x20 DUP3 ADD DUP1 MLOAD PUSH28 0xFFFFFFFFFFFFFFFFFFFFFFFFFFFFFFFFFFFFFFFFFFFFFFFFFFFFFFFF DUP4 DUP2 DUP4 AND OR DUP4 MSTORE POP POP POP POP PUSH2 0x233D JUMP JUMPDEST POP POP JUMP JUMPDEST PUSH1 0x0 PUSH11 0x636F6E736F6C652E6C6F67 SWAP1 POP PUSH1 0x0 DUP1 DUP4 MLOAD PUSH1 0x20 DUP6 ADD DUP5 GAS STATICCALL POP POP POP JUMP JUMPDEST PUSH2 0x246C DUP2 SWAP1 POP SWAP2 SWAP1 POP JUMP JUMPDEST DUP3 DUP1 SLOAD DUP3 DUP3 SSTORE SWAP1 PUSH1 0x0 MSTORE PUSH1 0x20 PUSH1 0x0 KECCAK256 SWAP1 DUP2 ADD SWAP3 DUP3 ISZERO PUSH2 0x245B JUMPI SWAP2 PUSH1 0x20 MUL DUP3 ADD JUMPDEST DUP3 DUP2 GT ISZERO PUSH2 0x245A JUMPI DUP3 MLOAD DUP3 SSTORE SWAP2 PUSH1 0x20 ADD SWAP2 SWAP1 PUSH1 0x1 ADD SWAP1 PUSH2 0x243F JUMP JUMPDEST JUMPDEST POP SWAP1 POP PUSH2 0x2468 SWAP2 SWAP1 PUSH2 0x2476 JUMP JUMPDEST POP SWAP1 JUMP JUMPDEST PUSH2 0x2474 PUSH2 0x335C JUMP JUMPDEST JUMP JUMPDEST JUMPDEST DUP1 DUP3 GT ISZERO PUSH2 0x248F JUMPI PUSH1 0x0 DUP2 PUSH1 0x0 SWAP1 SSTORE POP PUSH1 0x1 ADD PUSH2 0x2477 JUMP JUMPDEST POP SWAP1 JUMP JUMPDEST PUSH1 0x0 PUSH1 0x40 MLOAD SWAP1 POP SWAP1 JUMP JUMPDEST PUSH1 0x0 DUP1 REVERT JUMPDEST PUSH1 0x0 DUP1 REVERT JUMPDEST PUSH1 0x0 DUP2 SWAP1 POP SWAP2 SWAP1 POP JUMP JUMPDEST PUSH2 0x24BA DUP2 PUSH2 0x24A7 JUMP JUMPDEST DUP2 EQ PUSH2 0x24C5 JUMPI PUSH1 0x0 DUP1 REVERT JUMPDEST POP JUMP JUMPDEST PUSH1 0x0 DUP2 CALLDATALOAD SWAP1 POP PUSH2 0x24D7 DUP2 PUSH2 0x24B1 JUMP JUMPDEST SWAP3 SWAP2 POP POP JUMP JUMPDEST PUSH1 0x0 DUP2 SWAP1 POP SWAP2 SWAP1 POP JUMP JUMPDEST PUSH2 0x24F0 DUP2 PUSH2 0x24DD JUMP JUMPDEST DUP2 EQ PUSH2 0x24FB JUMPI PUSH1 0x0 DUP1 REVERT JUMPDEST POP JUMP JUMPDEST PUSH1 0x0 DUP2 CALLDATALOAD SWAP1 POP PUSH2 0x250D DUP2 PUSH2 0x24E7 JUMP JUMPDEST SWAP3 SWAP2 POP POP JUMP JUMPDEST PUSH1 0x0 DUP1 PUSH1 0x0 DUP1 PUSH1 0x0 PUSH1 0xA0 DUP7 DUP9 SUB SLT ISZERO PUSH2 0x252F JUMPI PUSH2 0x252E PUSH2 0x249D JUMP JUMPDEST JUMPDEST PUSH1 0x0 PUSH2 0x253D DUP9 DUP3 DUP10 ADD PUSH2 0x24C8 JUMP JUMPDEST SWAP6 POP POP PUSH1 0x20 PUSH2 0x254E DUP9 DUP3 DUP10 ADD PUSH2 0x24C8 JUMP JUMPDEST SWAP5 POP POP PUSH1 0x40 PUSH2 0x255F DUP9 DUP3 DUP10 ADD PUSH2 0x24C8 JUMP JUMPDEST SWAP4 POP POP PUSH1 0x60 PUSH2 0x2570 DUP9 DUP3 DUP10 ADD PUSH2 0x24FE JUMP JUMPDEST SWAP3 POP POP PUSH1 0x80 PUSH2 0x2581 DUP9 DUP3 DUP10 ADD PUSH2 0x24FE JUMP JUMPDEST SWAP2 POP POP SWAP3 SWAP6 POP SWAP3 SWAP6 SWAP1 SWAP4 POP JUMP JUMPDEST PUSH1 0x0 DUP1 REVERT JUMPDEST PUSH1 0x0 DUP1 REVERT JUMPDEST PUSH1 0x0 PUSH1 0x1F NOT PUSH1 0x1F DUP4 ADD AND SWAP1 POP SWAP2 SWAP1 POP JUMP JUMPDEST PUSH32 0x4E487B7100000000000000000000000000000000000000000000000000000000 PUSH1 0x0 MSTORE PUSH1 0x41 PUSH1 0x4 MSTORE PUSH1 0x24 PUSH1 0x0 REVERT JUMPDEST PUSH2 0x25E1 DUP3 PUSH2 0x2598 JUMP JUMPDEST DUP2 ADD DUP2 DUP2 LT PUSH8 0xFFFFFFFFFFFFFFFF DUP3 GT OR ISZERO PUSH2 0x2600 JUMPI PUSH2 0x25FF PUSH2 0x25A9 JUMP JUMPDEST JUMPDEST DUP1 PUSH1 0x40 MSTORE POP POP POP JUMP JUMPDEST PUSH1 0x0 PUSH2 0x2613 PUSH2 0x2493 JUMP JUMPDEST SWAP1 POP PUSH2 0x261F DUP3 DUP3 PUSH2 0x25D8 JUMP JUMPDEST SWAP2 SWAP1 POP JUMP JUMPDEST PUSH1 0x0 PUSH8 0xFFFFFFFFFFFFFFFF DUP3 GT ISZERO PUSH2 0x263F JUMPI PUSH2 0x263E PUSH2 0x25A9 JUMP JUMPDEST JUMPDEST PUSH2 0x2648 DUP3 PUSH2 0x2598 JUMP JUMPDEST SWAP1 POP PUSH1 0x20 DUP2 ADD SWAP1 POP SWAP2 SWAP1 POP JUMP JUMPDEST DUP3 DUP2 DUP4 CALLDATACOPY PUSH1 0x0 DUP4 DUP4 ADD MSTORE POP POP POP JUMP JUMPDEST PUSH1 0x0 PUSH2 0x2677 PUSH2 0x2672 DUP5 PUSH2 0x2624 JUMP JUMPDEST PUSH2 0x2609 JUMP JUMPDEST SWAP1 POP DUP3 DUP2 MSTORE PUSH1 0x20 DUP2 ADD DUP5 DUP5 DUP5 ADD GT ISZERO PUSH2 0x2693 JUMPI PUSH2 0x2692 PUSH2 0x2593 JUMP JUMPDEST JUMPDEST PUSH2 0x269E DUP5 DUP3 DUP6 PUSH2 0x2655 JUMP JUMPDEST POP SWAP4 SWAP3 POP POP POP JUMP JUMPDEST PUSH1 0x0 DUP3 PUSH1 0x1F DUP4 ADD SLT PUSH2 0x26BB JUMPI PUSH2 0x26BA PUSH2 0x258E JUMP JUMPDEST JUMPDEST DUP2 CALLDATALOAD PUSH2 0x26CB DUP5 DUP3 PUSH1 0x20 DUP7 ADD PUSH2 0x2664 JUMP JUMPDEST SWAP2 POP POP SWAP3 SWAP2 POP POP JUMP JUMPDEST PUSH1 0x0 PUSH1 0x20 DUP3 DUP5 SUB SLT ISZERO PUSH2 0x26EA JUMPI PUSH2 0x26E9 PUSH2 0x249D JUMP JUMPDEST JUMPDEST PUSH1 0x0 DUP3 ADD CALLDATALOAD PUSH8 0xFFFFFFFFFFFFFFFF DUP2 GT ISZERO PUSH2 0x2708 JUMPI PUSH2 0x2707 PUSH2 0x24A2 JUMP JUMPDEST JUMPDEST PUSH2 0x2714 DUP5 DUP3 DUP6 ADD PUSH2 0x26A6 JUMP JUMPDEST SWAP2 POP POP SWAP3 SWAP2 POP POP JUMP JUMPDEST PUSH1 0x0 PUSH32 0xFFFFFFFF00000000000000000000000000000000000000000000000000000000 DUP3 AND SWAP1 POP SWAP2 SWAP1 POP JUMP JUMPDEST PUSH2 0x2752 DUP2 PUSH2 0x271D JUMP JUMPDEST DUP3 MSTORE POP POP JUMP JUMPDEST PUSH1 0x0 PUSH1 0x20 DUP3 ADD SWAP1 POP PUSH2 0x276D PUSH1 0x0 DUP4 ADD DUP5 PUSH2 0x2749 JUMP JUMPDEST SWAP3 SWAP2 POP POP JUMP JUMPDEST PUSH1 0x0 DUP1 PUSH1 0x0 DUP1 PUSH1 0x80 DUP6 DUP8 SUB SLT ISZERO PUSH2 0x278D JUMPI PUSH2 0x278C PUSH2 0x249D JUMP JUMPDEST JUMPDEST PUSH1 0x0 DUP6 ADD CALLDATALOAD PUSH8 0xFFFFFFFFFFFFFFFF DUP2 GT ISZERO PUSH2 0x27AB JUMPI PUSH2 0x27AA PUSH2 0x24A2 JUMP JUMPDEST JUMPDEST PUSH2 0x27B7 DUP8 DUP3 DUP9 ADD PUSH2 0x26A6 JUMP JUMPDEST SWAP5 POP POP PUSH1 0x20 DUP6 ADD CALLDATALOAD PUSH8 0xFFFFFFFFFFFFFFFF DUP2 GT ISZERO PUSH2 0x27D8 JUMPI PUSH2 0x27D7 PUSH2 0x24A2 JUMP JUMPDEST JUMPDEST PUSH2 0x27E4 DUP8 DUP3 DUP9 ADD PUSH2 0x26A6 JUMP JUMPDEST SWAP4 POP POP PUSH1 0x40 DUP6 ADD CALLDATALOAD PUSH8 0xFFFFFFFFFFFFFFFF DUP2 GT ISZERO PUSH2 0x2805 JUMPI PUSH2 0x2804 PUSH2 0x24A2 JUMP JUMPDEST JUMPDEST PUSH2 0x2811 DUP8 DUP3 DUP9 ADD PUSH2 0x26A6 JUMP JUMPDEST SWAP3 POP POP PUSH1 0x60 DUP6 ADD CALLDATALOAD PUSH8 0xFFFFFFFFFFFFFFFF DUP2 GT ISZERO PUSH2 0x2832 JUMPI PUSH2 0x2831 PUSH2 0x24A2 JUMP JUMPDEST JUMPDEST PUSH2 0x283E DUP8 DUP3 DUP9 ADD PUSH2 0x26A6 JUMP JUMPDEST SWAP2 POP POP SWAP3 SWAP6 SWAP2 SWAP5 POP SWAP3 POP JUMP JUMPDEST PUSH2 0x2853 DUP2 PUSH2 0x24DD JUMP JUMPDEST DUP3 MSTORE POP POP JUMP JUMPDEST PUSH2 0x2862 DUP2 PUSH2 0x24A7 JUMP JUMPDEST DUP3 MSTORE POP POP JUMP JUMPDEST PUSH1 0x0 PUSH2 0x100 DUP3 ADD SWAP1 POP PUSH2 0x287E PUSH1 0x0 DUP4 ADD DUP12 PUSH2 0x284A JUMP JUMPDEST PUSH2 0x288B PUSH1 0x20 DUP4 ADD DUP11 PUSH2 0x2859 JUMP JUMPDEST PUSH2 0x2898 PUSH1 0x40 DUP4 ADD DUP10 PUSH2 0x2859 JUMP JUMPDEST PUSH2 0x28A5 PUSH1 0x60 DUP4 ADD DUP9 PUSH2 0x2859 JUMP JUMPDEST PUSH2 0x28B2 PUSH1 0x80 DUP4 ADD DUP8 PUSH2 0x284A JUMP JUMPDEST PUSH2 0x28BF PUSH1 0xA0 DUP4 ADD DUP7 PUSH2 0x2859 JUMP JUMPDEST PUSH2 0x28CC PUSH1 0xC0 DUP4 ADD DUP6 PUSH2 0x284A JUMP JUMPDEST PUSH2 0x28D9 PUSH1 0xE0 DUP4 ADD DUP5 PUSH2 0x2859 JUMP JUMPDEST SWAP10 SWAP9 POP POP POP POP POP POP POP POP POP JUMP JUMPDEST PUSH1 0x0 PUSH32 0xFF00000000000000000000000000000000000000000000000000000000000000 DUP3 AND SWAP1 POP SWAP2 SWAP1 POP JUMP JUMPDEST PUSH2 0x291B DUP2 PUSH2 0x28E6 JUMP JUMPDEST DUP3 MSTORE POP POP JUMP JUMPDEST PUSH1 0x0 PUSH1 0x60 DUP3 ADD SWAP1 POP PUSH2 0x2936 PUSH1 0x0 DUP4 ADD DUP7 PUSH2 0x2912 JUMP JUMPDEST PUSH2 0x2943 PUSH1 0x20 DUP4 ADD DUP6 PUSH2 0x2859 JUMP JUMPDEST PUSH2 0x2950 PUSH1 0x40 DUP4 ADD DUP5 PUSH2 0x2749 JUMP JUMPDEST SWAP5 SWAP4 POP POP POP POP JUMP JUMPDEST PUSH1 0x0 PUSH1 0x20 DUP3 ADD SWAP1 POP PUSH2 0x296D PUSH1 0x0 DUP4 ADD DUP5 PUSH2 0x284A JUMP JUMPDEST SWAP3 SWAP2 POP POP JUMP JUMPDEST PUSH1 0x0 DUP2 MLOAD SWAP1 POP SWAP2 SWAP1 POP JUMP JUMPDEST PUSH1 0x0 DUP3 DUP3 MSTORE PUSH1 0x20 DUP3 ADD SWAP1 POP SWAP3 SWAP2 POP POP JUMP JUMPDEST PUSH1 0x0 DUP2 SWAP1 POP PUSH1 0x20 DUP3 ADD SWAP1 POP SWAP2 SWAP1 POP JUMP JUMPDEST PUSH1 0x0 PUSH1 0xFF DUP3 AND SWAP1 POP SWAP2 SWAP1 POP JUMP JUMPDEST PUSH2 0x29B5 DUP2 PUSH2 0x299F JUMP JUMPDEST DUP3 MSTORE POP POP JUMP JUMPDEST PUSH2 0x29C4 DUP2 PUSH2 0x24A7 JUMP JUMPDEST DUP3 MSTORE POP POP JUMP JUMPDEST PUSH1 0x60 DUP3 ADD PUSH1 0x0 DUP3 ADD MLOAD PUSH2 0x29E0 PUSH1 0x0 DUP6 ADD DUP3 PUSH2 0x29AC JUMP JUMPDEST POP PUSH1 0x20 DUP3 ADD MLOAD PUSH2 0x29F3 PUSH1 0x20 DUP6 ADD DUP3 PUSH2 0x29BB JUMP JUMPDEST POP PUSH1 0x40 DUP3 ADD MLOAD PUSH2 0x2A06 PUSH1 0x40 DUP6 ADD DUP3 PUSH2 0x29BB JUMP JUMPDEST POP POP POP POP JUMP JUMPDEST PUSH1 0x0 PUSH2 0x2A18 DUP4 DUP4 PUSH2 0x29CA JUMP JUMPDEST PUSH1 0x60 DUP4 ADD SWAP1 POP SWAP3 SWAP2 POP POP JUMP JUMPDEST PUSH1 0x0 PUSH1 0x20 DUP3 ADD SWAP1 POP SWAP2 SWAP1 POP JUMP JUMPDEST PUSH1 0x0 PUSH2 0x2A3C DUP3 PUSH2 0x2973 JUMP JUMPDEST PUSH2 0x2A46 DUP2 DUP6 PUSH2 0x297E JUMP JUMPDEST SWAP4 POP PUSH2 0x2A51 DUP4 PUSH2 0x298F JUMP JUMPDEST DUP1 PUSH1 0x0 JUMPDEST DUP4 DUP2 LT ISZERO PUSH2 0x2A82 JUMPI DUP2 MLOAD PUSH2 0x2A69 DUP9 DUP3 PUSH2 0x2A0C JUMP JUMPDEST SWAP8 POP PUSH2 0x2A74 DUP4 PUSH2 0x2A24 JUMP JUMPDEST SWAP3 POP POP PUSH1 0x1 DUP2 ADD SWAP1 POP PUSH2 0x2A55 JUMP JUMPDEST POP DUP6 SWAP4 POP POP POP POP SWAP3 SWAP2 POP POP JUMP JUMPDEST PUSH1 0x0 PUSH1 0x20 DUP3 ADD SWAP1 POP DUP2 DUP2 SUB PUSH1 0x0 DUP4 ADD MSTORE PUSH2 0x2AA9 DUP2 DUP5 PUSH2 0x2A31 JUMP JUMPDEST SWAP1 POP SWAP3 SWAP2 POP POP JUMP JUMPDEST PUSH1 0x0 PUSH1 0x40 DUP3 ADD SWAP1 POP PUSH2 0x2AC6 PUSH1 0x0 DUP4 ADD DUP6 PUSH2 0x284A JUMP JUMPDEST PUSH2 0x2AD3 PUSH1 0x20 DUP4 ADD DUP5 PUSH2 0x2859 JUMP JUMPDEST SWAP4 SWAP3 POP POP POP JUMP JUMPDEST PUSH1 0x0 DUP1 PUSH1 0x0 PUSH1 0x60 DUP5 DUP7 SUB SLT ISZERO PUSH2 0x2AF3 JUMPI PUSH2 0x2AF2 PUSH2 0x249D JUMP JUMPDEST JUMPDEST PUSH1 0x0 DUP5 ADD CALLDATALOAD PUSH8 0xFFFFFFFFFFFFFFFF DUP2 GT ISZERO PUSH2 0x2B11 JUMPI PUSH2 0x2B10 PUSH2 0x24A2 JUMP JUMPDEST JUMPDEST PUSH2 0x2B1D DUP7 DUP3 DUP8 ADD PUSH2 0x26A6 JUMP JUMPDEST SWAP4 POP POP PUSH1 0x20 DUP5 ADD CALLDATALOAD PUSH8 0xFFFFFFFFFFFFFFFF DUP2 GT ISZERO PUSH2 0x2B3E JUMPI PUSH2 0x2B3D PUSH2 0x24A2 JUMP JUMPDEST JUMPDEST PUSH2 0x2B4A DUP7 DUP3 DUP8 ADD PUSH2 0x26A6 JUMP JUMPDEST SWAP3 POP POP PUSH1 0x40 DUP5 ADD CALLDATALOAD PUSH8 0xFFFFFFFFFFFFFFFF DUP2 GT ISZERO PUSH2 0x2B6B JUMPI PUSH2 0x2B6A PUSH2 0x24A2 JUMP JUMPDEST JUMPDEST PUSH2 0x2B77 DUP7 DUP3 DUP8 ADD PUSH2 0x26A6 JUMP JUMPDEST SWAP2 POP POP SWAP3 POP SWAP3 POP SWAP3 JUMP JUMPDEST PUSH1 0x0 PUSH1 0x80 DUP3 ADD SWAP1 POP PUSH2 0x2B96 PUSH1 0x0 DUP4 ADD DUP8 PUSH2 0x284A JUMP JUMPDEST PUSH2 0x2BA3 PUSH1 0x20 DUP4 ADD DUP7 PUSH2 0x2859 JUMP JUMPDEST PUSH2 0x2BB0 PUSH1 0x40 DUP4 ADD DUP6 PUSH2 0x2859 JUMP JUMPDEST PUSH2 0x2BBD PUSH1 0x60 DUP4 ADD DUP5 PUSH2 0x2859 JUMP JUMPDEST SWAP6 SWAP5 POP POP POP POP POP JUMP JUMPDEST PUSH1 0x0 PUSH1 0xC0 DUP3 ADD SWAP1 POP PUSH2 0x2BDB PUSH1 0x0 DUP4 ADD DUP10 PUSH2 0x2859 JUMP JUMPDEST PUSH2 0x2BE8 PUSH1 0x20 DUP4 ADD DUP9 PUSH2 0x2859 JUMP JUMPDEST PUSH2 0x2BF5 PUSH1 0x40 DUP4 ADD DUP8 PUSH2 0x2859 JUMP JUMPDEST PUSH2 0x2C02 PUSH1 0x60 DUP4 ADD DUP7 PUSH2 0x284A JUMP JUMPDEST PUSH2 0x2C0F PUSH1 0x80 DUP4 ADD DUP6 PUSH2 0x284A JUMP JUMPDEST PUSH2 0x2C1C PUSH1 0xA0 DUP4 ADD DUP5 PUSH2 0x284A JUMP JUMPDEST SWAP8 SWAP7 POP POP POP POP POP POP POP JUMP JUMPDEST PUSH32 0x4E487B7100000000000000000000000000000000000000000000000000000000 PUSH1 0x0 MSTORE PUSH1 0x11 PUSH1 0x4 MSTORE PUSH1 0x24 PUSH1 0x0 REVERT JUMPDEST PUSH1 0x0 PUSH2 0x2C61 DUP3 PUSH2 0x24DD JUMP JUMPDEST SWAP2 POP PUSH2 0x2C6C DUP4 PUSH2 0x24DD JUMP JUMPDEST SWAP3 POP DUP3 DUP3 SUB SWAP1 POP DUP2 DUP2 GT ISZERO PUSH2 0x2C84 JUMPI PUSH2 0x2C83 PUSH2 0x2C27 JUMP JUMPDEST JUMPDEST SWAP3 SWAP2 POP POP JUMP JUMPDEST PUSH1 0x0 DUP2 MLOAD SWAP1 POP SWAP2 SWAP1 POP JUMP JUMPDEST PUSH1 0x0 DUP2 SWAP1 POP PUSH1 0x20 DUP3 ADD SWAP1 POP SWAP2 SWAP1 POP JUMP JUMPDEST PUSH1 0x0 PUSH2 0x2CB1 DUP3 MLOAD PUSH2 0x271D JUMP JUMPDEST DUP1 SWAP2 POP POP SWAP2 SWAP1 POP JUMP JUMPDEST PUSH1 0x0 DUP3 DUP3 SHL SWAP1 POP SWAP3 SWAP2 POP POP JUMP JUMPDEST PUSH1 0x0 PUSH2 0x2CD2 DUP3 PUSH2 0x2C8A JUMP JUMPDEST DUP3 PUSH2 0x2CDC DUP5 PUSH2 0x2C95 JUMP JUMPDEST SWAP1 POP PUSH2 0x2CE7 DUP2 PUSH2 0x2CA5 JUMP JUMPDEST SWAP3 POP PUSH1 0x4 DUP3 LT ISZERO PUSH2 0x2D27 JUMPI PUSH2 0x2D22 PUSH32 0xFFFFFFFF00000000000000000000000000000000000000000000000000000000 DUP4 PUSH1 0x4 SUB PUSH1 0x8 MUL PUSH2 0x2CBA JUMP JUMPDEST DUP4 AND SWAP3 POP JUMPDEST POP POP SWAP2 SWAP1 POP JUMP JUMPDEST PUSH32 0x4E487B7100000000000000000000000000000000000000000000000000000000 PUSH1 0x0 MSTORE PUSH1 0x32 PUSH1 0x4 MSTORE PUSH1 0x24 PUSH1 0x0 REVERT JUMPDEST PUSH1 0x0 PUSH2 0x2D68 DUP3 PUSH2 0x24DD JUMP JUMPDEST SWAP2 POP PUSH32 0xFFFFFFFFFFFFFFFFFFFFFFFFFFFFFFFFFFFFFFFFFFFFFFFFFFFFFFFFFFFFFFFF DUP3 SUB PUSH2 0x2D9A JUMPI PUSH2 0x2D99 PUSH2 0x2C27 JUMP JUMPDEST JUMPDEST PUSH1 0x1 DUP3 ADD SWAP1 POP SWAP2 SWAP1 POP JUMP JUMPDEST PUSH1 0x0 PUSH2 0x2DB1 DUP3 MLOAD PUSH2 0x24A7 JUMP JUMPDEST DUP1 SWAP2 POP POP SWAP2 SWAP1 POP JUMP JUMPDEST PUSH1 0x0 PUSH2 0x2DC5 DUP3 PUSH2 0x2C8A JUMP JUMPDEST DUP3 PUSH2 0x2DCF DUP5 PUSH2 0x2C95 JUMP JUMPDEST SWAP1 POP PUSH2 0x2DDA DUP2 PUSH2 0x2DA5 JUMP JUMPDEST SWAP3 POP PUSH1 0x20 DUP3 LT ISZERO PUSH2 0x2E1A JUMPI PUSH2 0x2E15 PUSH32 0xFFFFFFFFFFFFFFFFFFFFFFFFFFFFFFFFFFFFFFFFFFFFFFFFFFFFFFFFFFFFFFFF DUP4 PUSH1 0x20 SUB PUSH1 0x8 MUL PUSH2 0x2CBA JUMP JUMPDEST DUP4 AND SWAP3 POP JUMPDEST POP POP SWAP2 SWAP1 POP JUMP JUMPDEST PUSH1 0x0 PUSH2 0x2E2D DUP3 MLOAD PUSH2 0x28E6 JUMP JUMPDEST DUP1 SWAP2 POP POP SWAP2 SWAP1 POP JUMP JUMPDEST PUSH1 0x0 PUSH2 0x2E41 DUP3 PUSH2 0x2C8A JUMP JUMPDEST DUP3 PUSH2 0x2E4B DUP5 PUSH2 0x2C95 JUMP JUMPDEST SWAP1 POP PUSH2 0x2E56 DUP2 PUSH2 0x2E21 JUMP JUMPDEST SWAP3 POP PUSH1 0x1 DUP3 LT ISZERO PUSH2 0x2E96 JUMPI PUSH2 0x2E91 PUSH32 0xFF00000000000000000000000000000000000000000000000000000000000000 DUP4 PUSH1 0x1 SUB PUSH1 0x8 MUL PUSH2 0x2CBA JUMP JUMPDEST DUP4 AND SWAP3 POP JUMPDEST POP POP SWAP2 SWAP1 POP JUMP JUMPDEST PUSH1 0x0 PUSH2 0x2EA8 DUP3 PUSH2 0x24DD JUMP JUMPDEST SWAP2 POP PUSH2 0x2EB3 DUP4 PUSH2 0x24DD JUMP JUMPDEST SWAP3 POP DUP3 DUP3 ADD SWAP1 POP DUP1 DUP3 GT ISZERO PUSH2 0x2ECB JUMPI PUSH2 0x2ECA PUSH2 0x2C27 JUMP JUMPDEST JUMPDEST SWAP3 SWAP2 POP POP JUMP JUMPDEST PUSH1 0x0 DUP3 DUP3 MSTORE PUSH1 0x20 DUP3 ADD SWAP1 POP SWAP3 SWAP2 POP POP JUMP JUMPDEST PUSH32 0x736C6963655F6F766572666C6F77000000000000000000000000000000000000 PUSH1 0x0 DUP3 ADD MSTORE POP JUMP JUMPDEST PUSH1 0x0 PUSH2 0x2F18 PUSH1 0xE DUP4 PUSH2 0x2ED1 JUMP JUMPDEST SWAP2 POP PUSH2 0x2F23 DUP3 PUSH2 0x2EE2 JUMP JUMPDEST PUSH1 0x20 DUP3 ADD SWAP1 POP SWAP2 SWAP1 POP JUMP JUMPDEST PUSH1 0x0 PUSH1 0x20 DUP3 ADD SWAP1 POP DUP2 DUP2 SUB PUSH1 0x0 DUP4 ADD MSTORE PUSH2 0x2F47 DUP2 PUSH2 0x2F0B JUMP JUMPDEST SWAP1 POP SWAP2 SWAP1 POP JUMP JUMPDEST PUSH32 0x736C6963655F6F75744F66426F756E6473000000000000000000000000000000 PUSH1 0x0 DUP3 ADD MSTORE POP JUMP JUMPDEST PUSH1 0x0 PUSH2 0x2F84 PUSH1 0x11 DUP4 PUSH2 0x2ED1 JUMP JUMPDEST SWAP2 POP PUSH2 0x2F8F DUP3 PUSH2 0x2F4E JUMP JUMPDEST PUSH1 0x20 DUP3 ADD SWAP1 POP SWAP2 SWAP1 POP JUMP JUMPDEST PUSH1 0x0 PUSH1 0x20 DUP3 ADD SWAP1 POP DUP2 DUP2 SUB PUSH1 0x0 DUP4 ADD MSTORE PUSH2 0x2FB3 DUP2 PUSH2 0x2F77 JUMP JUMPDEST SWAP1 POP SWAP2 SWAP1 POP JUMP JUMPDEST PUSH1 0x0 PUSH2 0x2FC5 DUP3 PUSH2 0x24DD JUMP JUMPDEST SWAP2 POP PUSH2 0x2FD0 DUP4 PUSH2 0x24DD JUMP JUMPDEST SWAP3 POP DUP3 DUP3 MUL PUSH2 0x2FDE DUP2 PUSH2 0x24DD JUMP JUMPDEST SWAP2 POP DUP3 DUP3 DIV DUP5 EQ DUP4 ISZERO OR PUSH2 0x2FF5 JUMPI PUSH2 0x2FF4 PUSH2 0x2C27 JUMP JUMPDEST JUMPDEST POP SWAP3 SWAP2 POP POP JUMP JUMPDEST PUSH1 0x0 PUSH2 0x3007 DUP3 PUSH2 0x24DD JUMP JUMPDEST SWAP2 POP PUSH1 0x0 DUP3 SUB PUSH2 0x301A JUMPI PUSH2 0x3019 PUSH2 0x2C27 JUMP JUMPDEST JUMPDEST PUSH1 0x1 DUP3 SUB SWAP1 POP SWAP2 SWAP1 POP JUMP JUMPDEST PUSH1 0x0 PUSH1 0x40 DUP3 ADD SWAP1 POP PUSH2 0x303A PUSH1 0x0 DUP4 ADD DUP6 PUSH2 0x284A JUMP JUMPDEST PUSH2 0x3047 PUSH1 0x20 DUP4 ADD DUP5 PUSH2 0x284A JUMP JUMPDEST SWAP4 SWAP3 POP POP POP JUMP JUMPDEST PUSH1 0x0 DUP2 MLOAD SWAP1 POP SWAP2 SWAP1 POP JUMP JUMPDEST PUSH1 0x0 JUMPDEST DUP4 DUP2 LT ISZERO PUSH2 0x3077 JUMPI DUP1 DUP3 ADD MLOAD DUP2 DUP5 ADD MSTORE PUSH1 0x20 DUP2 ADD SWAP1 POP PUSH2 0x305C JUMP JUMPDEST PUSH1 0x0 DUP5 DUP5 ADD MSTORE POP POP POP POP JUMP JUMPDEST PUSH1 0x0 PUSH2 0x308E DUP3 PUSH2 0x304E JUMP JUMPDEST PUSH2 0x3098 DUP2 DUP6 PUSH2 0x2ED1 JUMP JUMPDEST SWAP4 POP PUSH2 0x30A8 DUP2 DUP6 PUSH1 0x20 DUP7 ADD PUSH2 0x3059 JUMP JUMPDEST PUSH2 0x30B1 DUP2 PUSH2 0x2598 JUMP JUMPDEST DUP5 ADD SWAP2 POP POP SWAP3 SWAP2 POP POP JUMP JUMPDEST PUSH1 0x0 PUSH1 0x40 DUP3 ADD SWAP1 POP DUP2 DUP2 SUB PUSH1 0x0 DUP4 ADD MSTORE PUSH2 0x30D6 DUP2 DUP6 PUSH2 0x3083 JUMP JUMPDEST SWAP1 POP DUP2 DUP2 SUB PUSH1 0x20 DUP4 ADD MSTORE PUSH2 0x30EA DUP2 DUP5 PUSH2 0x3083 JUMP JUMPDEST SWAP1 POP SWAP4 SWAP3 POP POP POP JUMP JUMPDEST PUSH1 0x0 PUSH2 0xFFFF DUP3 AND SWAP1 POP SWAP2 SWAP1 POP JUMP JUMPDEST PUSH1 0x0 PUSH2 0x310C DUP3 PUSH2 0x30F3 JUMP JUMPDEST SWAP2 POP PUSH2 0x3117 DUP4 PUSH2 0x30F3 JUMP JUMPDEST SWAP3 POP DUP3 DUP3 MUL PUSH2 0x3125 DUP2 PUSH2 0x30F3 JUMP JUMPDEST SWAP2 POP DUP1 DUP3 EQ PUSH2 0x3137 JUMPI PUSH2 0x3136 PUSH2 0x2C27 JUMP JUMPDEST JUMPDEST POP SWAP3 SWAP2 POP POP JUMP JUMPDEST PUSH1 0x0 PUSH4 0xFFFFFFFF DUP3 AND SWAP1 POP SWAP2 SWAP1 POP JUMP JUMPDEST PUSH1 0x0 PUSH2 0x3159 DUP3 PUSH2 0x313E JUMP JUMPDEST SWAP2 POP PUSH2 0x3164 DUP4 PUSH2 0x313E JUMP JUMPDEST SWAP3 POP DUP3 DUP3 MUL PUSH2 0x3172 DUP2 PUSH2 0x313E JUMP JUMPDEST SWAP2 POP DUP1 DUP3 EQ PUSH2 0x3184 JUMPI PUSH2 0x3183 PUSH2 0x2C27 JUMP JUMPDEST JUMPDEST POP SWAP3 SWAP2 POP POP JUMP JUMPDEST PUSH1 0x0 PUSH8 0xFFFFFFFFFFFFFFFF DUP3 AND SWAP1 POP SWAP2 SWAP1 POP JUMP JUMPDEST PUSH1 0x0 PUSH2 0x31AA DUP3 PUSH2 0x318B JUMP JUMPDEST SWAP2 POP PUSH2 0x31B5 DUP4 PUSH2 0x318B JUMP JUMPDEST SWAP3 POP DUP3 DUP3 MUL PUSH2 0x31C3 DUP2 PUSH2 0x318B JUMP JUMPDEST SWAP2 POP DUP1 DUP3 EQ PUSH2 0x31D5 JUMPI PUSH2 0x31D4 PUSH2 0x2C27 JUMP JUMPDEST JUMPDEST POP SWAP3 SWAP2 POP POP JUMP JUMPDEST PUSH1 0x0 PUSH1 0x20 DUP3 ADD SWAP1 POP DUP2 DUP2 SUB PUSH1 0x0 DUP4 ADD MSTORE PUSH2 0x31F6 DUP2 DUP5 PUSH2 0x3083 JUMP JUMPDEST SWAP1 POP SWAP3 SWAP2 POP POP JUMP JUMPDEST PUSH1 0x0 PUSH20 0xFFFFFFFFFFFFFFFFFFFFFFFFFFFFFFFFFFFFFFFF DUP3 AND SWAP1 POP SWAP2 SWAP1 POP JUMP JUMPDEST PUSH1 0x0 PUSH2 0x3229 DUP3 PUSH2 0x31FE JUMP JUMPDEST SWAP2 POP PUSH2 0x3234 DUP4 PUSH2 0x31FE JUMP JUMPDEST SWAP3 POP DUP3 DUP3 SUB SWAP1 POP PUSH20 0xFFFFFFFFFFFFFFFFFFFFFFFFFFFFFFFFFFFFFFFF DUP2 GT ISZERO PUSH2 0x3260 JUMPI PUSH2 0x325F PUSH2 0x2C27 JUMP JUMPDEST JUMPDEST SWAP3 SWAP2 POP POP JUMP JUMPDEST PUSH1 0x0 PUSH2 0x3271 DUP3 PUSH2 0x31FE JUMP JUMPDEST SWAP2 POP PUSH2 0x327C DUP4 PUSH2 0x31FE JUMP JUMPDEST SWAP3 POP DUP3 DUP3 MUL PUSH2 0x328A DUP2 PUSH2 0x31FE JUMP JUMPDEST SWAP2 POP DUP3 DUP3 DIV DUP5 EQ DUP4 ISZERO OR PUSH2 0x32A1 JUMPI PUSH2 0x32A0 PUSH2 0x2C27 JUMP JUMPDEST JUMPDEST POP SWAP3 SWAP2 POP POP JUMP JUMPDEST PUSH1 0x0 PUSH2 0x32B3 DUP3 PUSH2 0x31FE JUMP JUMPDEST SWAP2 POP PUSH2 0x32BE DUP4 PUSH2 0x31FE JUMP JUMPDEST SWAP3 POP DUP3 DUP3 ADD SWAP1 POP PUSH20 0xFFFFFFFFFFFFFFFFFFFFFFFFFFFFFFFFFFFFFFFF DUP2 GT ISZERO PUSH2 0x32EA JUMPI PUSH2 0x32E9 PUSH2 0x2C27 JUMP JUMPDEST JUMPDEST SWAP3 SWAP2 POP POP JUMP JUMPDEST PUSH1 0x0 PUSH2 0x32FB DUP3 PUSH2 0x31FE JUMP JUMPDEST SWAP2 POP PUSH20 0xFFFFFFFFFFFFFFFFFFFFFFFFFFFFFFFFFFFFFFFF DUP3 SUB PUSH2 0x3321 JUMPI PUSH2 0x3320 PUSH2 0x2C27 JUMP JUMPDEST JUMPDEST PUSH1 0x1 DUP3 ADD SWAP1 POP SWAP2 SWAP1 POP JUMP JUMPDEST PUSH1 0x0 PUSH1 0x40 DUP3 ADD SWAP1 POP DUP2 DUP2 SUB PUSH1 0x0 DUP4 ADD MSTORE PUSH2 0x3346 DUP2 DUP6 PUSH2 0x3083 JUMP JUMPDEST SWAP1 POP PUSH2 0x3355 PUSH1 0x20 DUP4 ADD DUP5 PUSH2 0x284A JUMP JUMPDEST SWAP4 SWAP3 POP POP POP JUMP JUMPDEST PUSH32 0x4E487B7100000000000000000000000000000000000000000000000000000000 PUSH1 0x0 MSTORE PUSH1 0x51 PUSH1 0x4 MSTORE PUSH1 0x24 PUSH1 0x0 REVERT INVALID LOG2 PUSH5 0x6970667358 0x22 SLT KECCAK256 PUSH8 0xF5D02A7C891D37D8 0xBD INVALID CALL 0xC7 0xAD CREATE2 PC REVERT DUP9 ADD BYTE BLOCKHASH 0xFC BLOCKHASH SSTORE CREATE2 DIV PUSH29 0xA88106717364736F6C6343000813003300000000000000000000000000 "},"methodIdentifiers":{"bridge()":"e78cea92","dispute(bytes,bytes,bytes,bytes)":"43f104d2","getInputsData(bytes)":"4f500ea9","getOutputsData(bytes)":"497c6cf6","getSignatures(bytes)":"6b45b4e3","getTimelock(bytes)":"36946480","htlc()":"e4b23d0c","opreturn()":"8504b3b9","out_aux()":"66b85d57","p2pkh()":"72ca346f","resolveDispute(bytes,bytes,bytes)":"79a85bd9","settle()":"11da60b4","setup(bytes32,bytes32,bytes32,uint256,uint256)":"06ac0e26","submitProof(bytes,bytes,bytes,bytes)":"3740d249"}}}}}