{"contracts/LNBridge.sol":{"LNBridge":{"abi":[{"inputs":[{"internalType":"uint256","name":"value","type":"uint256"},{"internalType":"uint256","name":"length","type":"uint256"}],"name":"StringsInsufficientHexLength","type":"error"},{"inputs":[{"internalType":"bytes","name":"rawTxP_locked","type":"bytes"},{"internalType":"bytes","name":"sigV","type":"bytes"},{"internalType":"bytes","name":"rawTxV_unlocked","type":"bytes"},{"internalType":"bytes","name":"sigP","type":"bytes"}],"name":"dispute","outputs":[],"stateMutability":"nonpayable","type":"function"},{"inputs":[],"name":"htlc","outputs":[{"internalType":"uint256","name":"value","type":"uint256"},{"internalType":"bytes32","name":"pk1","type":"bytes32"},{"internalType":"bytes32","name":"pk2","type":"bytes32"},{"internalType":"bytes32","name":"rev_secret","type":"bytes32"}],"stateMutability":"view","type":"function"},{"inputs":[],"name":"opreturn","outputs":[{"internalType":"uint256","name":"value","type":"uint256"},{"internalType":"bytes32","name":"data","type":"bytes32"}],"stateMutability":"view","type":"function"},{"inputs":[],"name":"out_aux","outputs":[{"internalType":"uint256","name":"pos","type":"uint256"}],"stateMutability":"view","type":"function"},{"inputs":[],"name":"p2pkh","outputs":[{"internalType":"uint256","name":"value","type":"uint256"},{"internalType":"bytes32","name":"pkhash","type":"bytes32"}],"stateMutability":"view","type":"function"},{"inputs":[{"internalType":"bytes","name":"_txBytes","type":"bytes"}],"name":"readThreeOutputs","outputs":[{"internalType":"uint256","name":"","type":"uint256"},{"internalType":"bytes32","name":"","type":"bytes32"},{"internalType":"bytes32","name":"","type":"bytes32"},{"internalType":"bytes32","name":"","type":"bytes32"},{"internalType":"uint256","name":"","type":"uint256"},{"internalType":"bytes32","name":"","type":"bytes32"},{"internalType":"uint256","name":"","type":"uint256"},{"internalType":"bytes32","name":"","type":"bytes32"}],"stateMutability":"nonpayable","type":"function"},{"inputs":[{"internalType":"bytes","name":"oldRevSecret","type":"bytes"},{"internalType":"bytes","name":"rawTxP_unlocked","type":"bytes"},{"internalType":"bytes","name":"sigV","type":"bytes"}],"name":"resolveDispute","outputs":[],"stateMutability":"nonpayable","type":"function"},{"inputs":[],"name":"settle","outputs":[],"stateMutability":"nonpayable","type":"function"},{"inputs":[{"internalType":"bytes32","name":"_fundingTxId","type":"bytes32"},{"internalType":"bytes32","name":"_pkProver","type":"bytes32"},{"internalType":"bytes32","name":"_pkVerifier","type":"bytes32"},{"internalType":"uint256","name":"_index","type":"uint256"},{"internalType":"uint256","name":"_timestamp","type":"uint256"}],"name":"setup","outputs":[],"stateMutability":"nonpayable","type":"function"},{"inputs":[{"internalType":"bytes","name":"rawTxP_unlocked","type":"bytes"},{"internalType":"bytes","name":"sigV","type":"bytes"},{"internalType":"bytes","name":"rawTxV_unlocked","type":"bytes"},{"internalType":"bytes","name":"sigP","type":"bytes"}],"name":"submitProof","outputs":[],"stateMutability":"nonpayable","type":"function"},{"inputs":[],"name":"timestamp","outputs":[{"internalType":"uint256","name":"","type":"uint256"}],"stateMutability":"view","type":"function"},{"inputs":[],"name":"timestamp_dispute","outputs":[{"internalType":"uint256","name":"","type":"uint256"}],"stateMutability":"view","type":"function"}],"evm":{"bytecode":{"linkReferences":{},"object":"608060405234801561001057600080fd5b50612d78806100206000396000f3fe608060405234801561001057600080fd5b50600436106100b45760003560e01c806372ca346f1161007157806372ca346f1461016c57806379a85bd91461018b5780638504b3b9146101a7578063a5dd32ac146101c6578063b80777ea146101e4578063e4b23d0c14610202576100b4565b806306ac0e26146100b957806311da60b4146100d55780633740d249146100df5780633c1c0699146100fb57806343f104d21461013257806366b85d571461014e575b600080fd5b6100d360048036038101906100ce91906123a5565b610223565b005b6100dd61024d565b005b6100f960048036038101906100f49190612566565b61024f565b005b6101156004803603810190610110919061263d565b610255565b6040516101299897969594939291906126a4565b60405180910390f35b61014c60048036038101906101479190612566565b6107b0565b005b6101566107b6565b6040516101639190612722565b60405180910390f35b6101746107c2565b60405161018292919061273d565b60405180910390f35b6101a560048036038101906101a09190612766565b6107d4565b005b6101af6107d9565b6040516101bd92919061273d565b60405180910390f35b6101ce6107eb565b6040516101db9190612722565b60405180910390f35b6101ec6107f1565b6040516101f99190612722565b60405180910390f35b61020a6107f7565b60405161021a949392919061280d565b60405180910390f35b84600081905550836001819055508260028190555081600381905550806004819055505050505050565b565b50505050565b6000806000806000806000806004600e6000018190555061027d89600e600001546000610815565b600e6001016000600e600001600084919050558391905090805190602001906102a79291906122b1565b5050506102bb89600e600001546000610927565b600e6004016000600e6003016000600e6002016000600e600001600088919050558791905090805190602001906102f39291906122b1565b5086919050908051906020019061030b9291906122b1565b508591905090805190602001906103239291906122b1565b505050505060005b600381101561050357600081036103dc576103898a600e600301838154811061035757610356612852565b5b9060005260206000200154600e600201848154811061037957610378612852565b5b9060005260206000200154610b1e565b600660010160006006600301600060066002016000869190505585919050558491905055505050600e60040181815481106103c7576103c6612852565b5b90600052602060002001546006600001819055505b60018103610466576104318a600e60030183815481106103ff576103fe612852565b5b9060005260206000200154600e600201848154811061042157610420612852565b5b9060005260206000200154610bda565b600c60010181905550600e600401818154811061045157610450612852565b5b9060005260206000200154600c600001819055505b600281036104f0576104bb8a600e600301838154811061048957610488612852565b5b9060005260206000200154600e60020184815481106104ab576104aa612852565b5b9060005260206000200154610bda565b600a60010181905550600e60040181815481106104db576104da612852565b5b9060005260206000200154600a600001819055505b80806104fb906128b0565b91505061032b565b506105486040518060400160405280601581526020017f436865636b2076616c75655f6f75747075745f313a0000000000000000000000815250600660000154610db4565b6105996040518060400160405280601281526020017f436865636b20706b315f4f7574707574313a000000000000000000000000000081525061059460066001015460001c6020610e50565b611096565b6105ea6040518060400160405280600e81526020017f436865636b207265765f7365633a0000000000000000000000000000000000008152506105e560066003015460001c6020610e50565b611096565b61063b6040518060400160405280601281526020017f436865636b20706b325f4f7574707574313a000000000000000000000000000081525061063660066002015460001c6020610e50565b611096565b61067f6040518060400160405280601581526020017f436865636b2076616c75655f6f75747075745f323a0000000000000000000000815250600c60000154610db4565b6106d06040518060400160405280601481526020017f436865636b207363726970745f646174615f323a0000000000000000000000008152506106cb600c6001015460001c6020610e50565b611096565b6107146040518060400160405280601581526020017f436865636b2076616c75655f6f75747075745f333a0000000000000000000000815250600a60000154610db4565b6107656040518060400160405280601481526020017f436865636b207363726970745f646174615f333a000000000000000000000000815250610760600a6001015460001c6020610e50565b611096565b600660000154600660010154600660030154600660020154600c60000154600c60010154600a60000154600a6001015497509750975097509750975097509750919395975091939597565b50505050565b600e8060000154905081565b600c8060000154908060010154905082565b505050565b600a8060000154908060010154905082565b60055481565b60045481565b60068060000154908060010154908060020154908060030154905084565b60606000806000806108278888611132565b8098508194505050600086148061083d57508286115b1561084a5782915061084e565b8591505b60008267ffffffffffffffff81111561086a5761086961243b565b5b6040519080825280602002602001820160405280156108985781602001602082028036833780820191505090505b50905060005b83811015610914576024896108b391906128f8565b98506108bf8a8a611132565b809a508194505050828282815181106108db576108da612852565b5b6020026020010181815250506004836108f491906128f8565b896108ff91906128f8565b9850808061090c906128b0565b91505061089e565b5080889550955050505050935093915050565b606080606060008060008061093c8a8a611132565b809a508194505050600088148061095257508288115b1561095f57829150610963565b8791505b60008267ffffffffffffffff81111561097f5761097e61243b565b5b6040519080825280602002602001820160405280156109ad5781602001602082028036833780820191505090505b50905060008367ffffffffffffffff8111156109cc576109cb61243b565b5b6040519080825280602002602001820160405280156109fa5781602001602082028036833780820191505090505b50905060008467ffffffffffffffff811115610a1957610a1861243b565b5b604051908082528060200260200182016040528015610a475781602001602082028036833780820191505090505b50905060005b85811015610b0257610a618e8e604061121a565b828281518110610a7457610a73612852565b5b60200260200101818152505060088d610a8d91906128f8565b9c50610a998e8e611132565b809e5081965050508c848281518110610ab557610ab4612852565b5b60200260200101818152505084838281518110610ad557610ad4612852565b5b602002602001018181525050848d610aed91906128f8565b9c508080610afa906128b0565b915050610a4d565b508083838e995099509950995050505050505093509350935093565b6000806000610b2e868686611685565b15610bbe57610b716040518060400160405280601b81526020017f506172736564204c696768746e696e6748544c43206f75747075740000000000815250611c34565b610b8786600187610b8291906128f8565b611ccd565b610b9d87602888610b9891906128f8565b611d58565b610bb388604a89610bae91906128f8565b611ccd565b925092509250610bd1565b6000801b6000801b6000801b9250925092505b93509350939050565b6000610be7848484611de3565b15610c5657610c2a6040518060400160405280601381526020017f506172736564205032504b48206f757470757400000000000000000000000000815250611c34565b610c4084600385610c3b91906128f8565b611fa8565b6bffffffffffffffffffffffff19169050610dad565b610c6184848461208b565b15610cd057610ca46040518060400160405280601281526020017f5061727365642050325348206f75747075740000000000000000000000000000815250611c34565b610cba84600285610cb591906128f8565b611fa8565b6bffffffffffffffffffffffff19169050610dad565b610cdb8484846121a8565b15610d3b57610d1e6040518060400160405280601781526020017f506172736564204f505f52455455524e206f7574707574000000000000000000815250611c34565b610d3484600285610d2f91906128f8565b611d58565b9050610dad565b610d46848484611685565b15610da657610d896040518060400160405280601b81526020017f506172736564204c696768746e696e6748544c43206f75747075740000000000815250611c34565b610d9f84600285610d9a91906128f8565b611d58565b9050610dad565b6000801b90505b9392505050565b610e4c8282604051602401610dca9291906129ab565b6040516020818303038152906040527fb60e72cc000000000000000000000000000000000000000000000000000000007bffffffffffffffffffffffffffffffffffffffffffffffffffffffff19166020820180517bffffffffffffffffffffffffffffffffffffffffffffffffffffffff838183161783525050505061226b565b5050565b6060600083905060006002846002610e6891906129db565b610e7291906128f8565b67ffffffffffffffff811115610e8b57610e8a61243b565b5b6040519080825280601f01601f191660200182016040528015610ebd5781602001600182028036833780820191505090505b5090507f300000000000000000000000000000000000000000000000000000000000000081600081518110610ef557610ef4612852565b5b60200101907effffffffffffffffffffffffffffffffffffffffffffffffffffffffffffff1916908160001a9053507f780000000000000000000000000000000000000000000000000000000000000081600181518110610f5957610f58612852565b5b60200101907effffffffffffffffffffffffffffffffffffffffffffffffffffffffffffff1916908160001a90535060006001856002610f9991906129db565b610fa391906128f8565b90505b6001811115611043577f3031323334353637383961626364656600000000000000000000000000000000600f841660108110610fe557610fe4612852565b5b1a60f81b828281518110610ffc57610ffb612852565b5b60200101907effffffffffffffffffffffffffffffffffffffffffffffffffffffffffffff1916908160001a905350600483901c92508061103c90612a1d565b9050610fa6565b506000821461108b5784846040517fe22e27eb000000000000000000000000000000000000000000000000000000008152600401611082929190612a46565b60405180910390fd5b809250505092915050565b61112e82826040516024016110ac929190612a6f565b6040516020818303038152906040527f4b5c4277000000000000000000000000000000000000000000000000000000007bffffffffffffffffffffffffffffffffffffffffffffffffffffffff19166020820180517bffffffffffffffffffffffffffffffffffffffffffffffffffffffff838183161783525050505061226b565b5050565b600080600084848151811061114a57611149612852565b5b602001015160f81c60f81b60f81c905060018461116791906128f8565b935060fd8160ff1610156111875780848160ff1691509250925050611213565b60fd8160ff16036111b55761119e8585601061121a565b6002856111ab91906128f8565b9250925050611213565b60fe8160ff16036111e3576111cc8585602061121a565b6004856111d991906128f8565b9250925050611213565b60ff8160ff1603611211576111fa8585604061121a565b60088561120791906128f8565b9250925050611213565b505b9250929050565b60006008820361124f5783838151811061123757611236612852565b5b602001015160f81c60f81b60f81c60ff16905061167e565b601082036112d1576101008460018561126891906128f8565b8151811061127957611278612852565b5b602001015160f81c60f81b60f81c60ff166112949190612ab4565b61ffff168484815181106112ab576112aa612852565b5b602001015160f81c60f81b60f81c60ff1661ffff166112ca91906128f8565b905061167e565b602082036113f4576301000000846003856112ec91906128f8565b815181106112fd576112fc612852565b5b602001015160f81c60f81b60f81c60ff166113189190612b01565b63ffffffff16620100008560028661133091906128f8565b8151811061134157611340612852565b5b602001015160f81c60f81b60f81c60ff1661135c9190612b01565b63ffffffff166101008660018761137391906128f8565b8151811061138457611383612852565b5b602001015160f81c60f81b60f81c60ff1661139f9190612b01565b63ffffffff168686815181106113b8576113b7612852565b5b602001015160f81c60f81b60f81c60ff1663ffffffff166113d991906128f8565b6113e391906128f8565b6113ed91906128f8565b905061167e565b6040820361167d576701000000000000008460078561141391906128f8565b8151811061142457611423612852565b5b602001015160f81c60f81b60f81c60ff1661143f9190612b52565b67ffffffffffffffff1666010000000000008560068661145f91906128f8565b815181106114705761146f612852565b5b602001015160f81c60f81b60f81c60ff1661148b9190612b52565b67ffffffffffffffff1665010000000000866005876114aa91906128f8565b815181106114bb576114ba612852565b5b602001015160f81c60f81b60f81c60ff166114d69190612b52565b67ffffffffffffffff16640100000000876004886114f491906128f8565b8151811061150557611504612852565b5b602001015160f81c60f81b60f81c60ff166115209190612b52565b67ffffffffffffffff1663010000008860038961153d91906128f8565b8151811061154e5761154d612852565b5b602001015160f81c60f81b60f81c60ff166115699190612b52565b67ffffffffffffffff16620100008960028a61158591906128f8565b8151811061159657611595612852565b5b602001015160f81c60f81b60f81c60ff166115b19190612b52565b67ffffffffffffffff166101008a60018b6115cc91906128f8565b815181106115dd576115dc612852565b5b602001015160f81c60f81b60f81c60ff166115f89190612b52565b67ffffffffffffffff168a8a8151811061161557611614612852565b5b602001015160f81c60f81b60f81c60ff1667ffffffffffffffff1661163a91906128f8565b61164491906128f8565b61164e91906128f8565b61165891906128f8565b61166291906128f8565b61166c91906128f8565b61167691906128f8565b905061167e565b5b9392505050565b60006072821480156116e55750607660f81b846000856116a591906128f8565b815181106116b6576116b5612852565b5b602001015160f81c60f81b7effffffffffffffffffffffffffffffffffffffffffffffffffffffffffffff1916145b801561173f5750602160f81b846001856116ff91906128f8565b815181106117105761170f612852565b5b602001015160f81c60f81b7effffffffffffffffffffffffffffffffffffffffffffffffffffffffffffff1916145b8015611799575060ac60f81b8460238561175991906128f8565b8151811061176a57611769612852565b5b602001015160f81c60f81b7effffffffffffffffffffffffffffffffffffffffffffffffffffffffffffff1916145b80156117f35750606360f81b846024856117b391906128f8565b815181106117c4576117c3612852565b5b602001015160f81c60f81b7effffffffffffffffffffffffffffffffffffffffffffffffffffffffffffff1916145b801561184d5750607560f81b8460258561180d91906128f8565b8151811061181e5761181d612852565b5b602001015160f81c60f81b7effffffffffffffffffffffffffffffffffffffffffffffffffffffffffffff1916145b80156118a7575060aa60f81b8460268561186791906128f8565b8151811061187857611877612852565b5b602001015160f81c60f81b7effffffffffffffffffffffffffffffffffffffffffffffffffffffffffffff1916145b80156119015750602060f81b846027856118c191906128f8565b815181106118d2576118d1612852565b5b602001015160f81c60f81b7effffffffffffffffffffffffffffffffffffffffffffffffffffffffffffff1916145b801561195b5750608860f81b8460488561191b91906128f8565b8151811061192c5761192b612852565b5b602001015160f81c60f81b7effffffffffffffffffffffffffffffffffffffffffffffffffffffffffffff1916145b80156119b55750606760f81b8460498561197591906128f8565b8151811061198657611985612852565b5b602001015160f81c60f81b7effffffffffffffffffffffffffffffffffffffffffffffffffffffffffffff1916145b8015611a0f5750602160f81b84604a856119cf91906128f8565b815181106119e0576119df612852565b5b602001015160f81c60f81b7effffffffffffffffffffffffffffffffffffffffffffffffffffffffffffff1916145b8015611a69575060ad60f81b84606c85611a2991906128f8565b81518110611a3a57611a39612852565b5b602001015160f81c60f81b7effffffffffffffffffffffffffffffffffffffffffffffffffffffffffffff1916145b8015611ac35750605260f81b84606d85611a8391906128f8565b81518110611a9457611a93612852565b5b602001015160f81c60f81b7effffffffffffffffffffffffffffffffffffffffffffffffffffffffffffff1916145b8015611b1d575060b260f81b84606e85611add91906128f8565b81518110611aee57611aed612852565b5b602001015160f81c60f81b7effffffffffffffffffffffffffffffffffffffffffffffffffffffffffffff1916145b8015611b775750607560f81b84606f85611b3791906128f8565b81518110611b4857611b47612852565b5b602001015160f81c60f81b7effffffffffffffffffffffffffffffffffffffffffffffffffffffffffffff1916145b8015611bd15750606860f81b84607085611b9191906128f8565b81518110611ba257611ba1612852565b5b602001015160f81c60f81b7effffffffffffffffffffffffffffffffffffffffffffffffffffffffffffff1916145b8015611c2b5750605160f81b84607185611beb91906128f8565b81518110611bfc57611bfb612852565b5b602001015160f81c60f81b7effffffffffffffffffffffffffffffffffffffffffffffffffffffffffffff1916145b90509392505050565b611cca81604051602401611c489190612b8f565b6040516020818303038152906040527f41304fac000000000000000000000000000000000000000000000000000000007bffffffffffffffffffffffffffffffffffffffffffffffffffffffff19166020820180517bffffffffffffffffffffffffffffffffffffffffffffffffffffffff838183161783525050505061226b565b50565b6000806000905060005b6021811015611d4a57806020611ced9190612bb1565b6008611cf991906129db565b858583611d0691906128f8565b81518110611d1757611d16612852565b5b602001015160f81c60f81b60f81c60ff16901b82611d3591906128f8565b91508080611d42906128b0565b915050611cd7565b508060001b91505092915050565b6000806000905060005b6020811015611dd55780601f611d789190612bb1565b6008611d8491906129db565b858583611d9191906128f8565b81518110611da257611da1612852565b5b602001015160f81c60f81b60f81c60ff16901b82611dc091906128f8565b91508080611dcd906128b0565b915050611d62565b508060001b91505092915050565b6000601982148015611e375750607660f81b848481518110611e0857611e07612852565b5b602001015160f81c60f81b7effffffffffffffffffffffffffffffffffffffffffffffffffffffffffffff1916145b8015611e91575060a960f81b84600185611e5191906128f8565b81518110611e6257611e61612852565b5b602001015160f81c60f81b7effffffffffffffffffffffffffffffffffffffffffffffffffffffffffffff1916145b8015611eeb5750601460f81b84600285611eab91906128f8565b81518110611ebc57611ebb612852565b5b602001015160f81c60f81b7effffffffffffffffffffffffffffffffffffffffffffffffffffffffffffff1916145b8015611f455750608860f81b84601785611f0591906128f8565b81518110611f1657611f15612852565b5b602001015160f81c60f81b7effffffffffffffffffffffffffffffffffffffffffffffffffffffffffffff1916145b8015611f9f575060ac60f81b84601885611f5f91906128f8565b81518110611f7057611f6f612852565b5b602001015160f81c60f81b7effffffffffffffffffffffffffffffffffffffffffffffffffffffffffffff1916145b90509392505050565b6000806000905060005b60148173ffffffffffffffffffffffffffffffffffffffff16101561207d57806013611fde9190612c05565b6008611fea9190612c4d565b73ffffffffffffffffffffffffffffffffffffffff1685858373ffffffffffffffffffffffffffffffffffffffff1661202391906128f8565b8151811061203457612033612852565b5b602001015160f81c60f81b60f81c60ff1673ffffffffffffffffffffffffffffffffffffffff16901b826120689190612c8f565b9150808061207590612cd7565b915050611fb2565b508060601b91505092915050565b60006017821480156120eb575060a960f81b846000856120ab91906128f8565b815181106120bc576120bb612852565b5b602001015160f81c60f81b7effffffffffffffffffffffffffffffffffffffffffffffffffffffffffffff1916145b80156121455750601460f81b8460018561210591906128f8565b8151811061211657612115612852565b5b602001015160f81c60f81b7effffffffffffffffffffffffffffffffffffffffffffffffffffffffffffff1916145b801561219f5750608760f81b8460168561215f91906128f8565b815181106121705761216f612852565b5b602001015160f81c60f81b7effffffffffffffffffffffffffffffffffffffffffffffffffffffffffffff1916145b90509392505050565b60006022821480156122085750606a60f81b846000856121c891906128f8565b815181106121d9576121d8612852565b5b602001015160f81c60f81b7effffffffffffffffffffffffffffffffffffffffffffffffffffffffffffff1916145b80156122625750602060f81b8460018561222291906128f8565b8151811061223357612232612852565b5b602001015160f81c60f81b7effffffffffffffffffffffffffffffffffffffffffffffffffffffffffffff1916145b90509392505050565b6122828161227a6122856122a6565b63ffffffff16565b50565b60006a636f6e736f6c652e6c6f679050600080835160208501845afa505050565b6122fe819050919050565b8280548282559060005260206000209081019282156122ed579160200282015b828111156122ec5782518255916020019190600101906122d1565b5b5090506122fa9190612308565b5090565b612306612d13565b565b5b80821115612321576000816000905550600101612309565b5090565b6000604051905090565b600080fd5b600080fd5b6000819050919050565b61234c81612339565b811461235757600080fd5b50565b60008135905061236981612343565b92915050565b6000819050919050565b6123828161236f565b811461238d57600080fd5b50565b60008135905061239f81612379565b92915050565b600080600080600060a086880312156123c1576123c061232f565b5b60006123cf8882890161235a565b95505060206123e08882890161235a565b94505060406123f18882890161235a565b935050606061240288828901612390565b925050608061241388828901612390565b9150509295509295909350565b600080fd5b600080fd5b6000601f19601f8301169050919050565b7f4e487b7100000000000000000000000000000000000000000000000000000000600052604160045260246000fd5b6124738261242a565b810181811067ffffffffffffffff821117156124925761249161243b565b5b80604052505050565b60006124a5612325565b90506124b1828261246a565b919050565b600067ffffffffffffffff8211156124d1576124d061243b565b5b6124da8261242a565b9050602081019050919050565b82818337600083830152505050565b6000612509612504846124b6565b61249b565b90508281526020810184848401111561252557612524612425565b5b6125308482856124e7565b509392505050565b600082601f83011261254d5761254c612420565b5b813561255d8482602086016124f6565b91505092915050565b600080600080608085870312156125805761257f61232f565b5b600085013567ffffffffffffffff81111561259e5761259d612334565b5b6125aa87828801612538565b945050602085013567ffffffffffffffff8111156125cb576125ca612334565b5b6125d787828801612538565b935050604085013567ffffffffffffffff8111156125f8576125f7612334565b5b61260487828801612538565b925050606085013567ffffffffffffffff81111561262557612624612334565b5b61263187828801612538565b91505092959194509250565b6000602082840312156126535761265261232f565b5b600082013567ffffffffffffffff81111561267157612670612334565b5b61267d84828501612538565b91505092915050565b61268f8161236f565b82525050565b61269e81612339565b82525050565b6000610100820190506126ba600083018b612686565b6126c7602083018a612695565b6126d46040830189612695565b6126e16060830188612695565b6126ee6080830187612686565b6126fb60a0830186612695565b61270860c0830185612686565b61271560e0830184612695565b9998505050505050505050565b60006020820190506127376000830184612686565b92915050565b60006040820190506127526000830185612686565b61275f6020830184612695565b9392505050565b60008060006060848603121561277f5761277e61232f565b5b600084013567ffffffffffffffff81111561279d5761279c612334565b5b6127a986828701612538565b935050602084013567ffffffffffffffff8111156127ca576127c9612334565b5b6127d686828701612538565b925050604084013567ffffffffffffffff8111156127f7576127f6612334565b5b61280386828701612538565b9150509250925092565b60006080820190506128226000830187612686565b61282f6020830186612695565b61283c6040830185612695565b6128496060830184612695565b95945050505050565b7f4e487b7100000000000000000000000000000000000000000000000000000000600052603260045260246000fd5b7f4e487b7100000000000000000000000000000000000000000000000000000000600052601160045260246000fd5b60006128bb8261236f565b91507fffffffffffffffffffffffffffffffffffffffffffffffffffffffffffffffff82036128ed576128ec612881565b5b600182019050919050565b60006129038261236f565b915061290e8361236f565b925082820190508082111561292657612925612881565b5b92915050565b600081519050919050565b600082825260208201905092915050565b60005b8381101561296657808201518184015260208101905061294b565b60008484015250505050565b600061297d8261292c565b6129878185612937565b9350612997818560208601612948565b6129a08161242a565b840191505092915050565b600060408201905081810360008301526129c58185612972565b90506129d46020830184612686565b9392505050565b60006129e68261236f565b91506129f18361236f565b92508282026129ff8161236f565b91508282048414831517612a1657612a15612881565b5b5092915050565b6000612a288261236f565b915060008203612a3b57612a3a612881565b5b600182039050919050565b6000604082019050612a5b6000830185612686565b612a686020830184612686565b9392505050565b60006040820190508181036000830152612a898185612972565b90508181036020830152612a9d8184612972565b90509392505050565b600061ffff82169050919050565b6000612abf82612aa6565b9150612aca83612aa6565b9250828202612ad881612aa6565b9150808214612aea57612ae9612881565b5b5092915050565b600063ffffffff82169050919050565b6000612b0c82612af1565b9150612b1783612af1565b9250828202612b2581612af1565b9150808214612b3757612b36612881565b5b5092915050565b600067ffffffffffffffff82169050919050565b6000612b5d82612b3e565b9150612b6883612b3e565b9250828202612b7681612b3e565b9150808214612b8857612b87612881565b5b5092915050565b60006020820190508181036000830152612ba98184612972565b905092915050565b6000612bbc8261236f565b9150612bc78361236f565b9250828203905081811115612bdf57612bde612881565b5b92915050565b600073ffffffffffffffffffffffffffffffffffffffff82169050919050565b6000612c1082612be5565b9150612c1b83612be5565b9250828203905073ffffffffffffffffffffffffffffffffffffffff811115612c4757612c46612881565b5b92915050565b6000612c5882612be5565b9150612c6383612be5565b9250828202612c7181612be5565b91508282048414831517612c8857612c87612881565b5b5092915050565b6000612c9a82612be5565b9150612ca583612be5565b9250828201905073ffffffffffffffffffffffffffffffffffffffff811115612cd157612cd0612881565b5b92915050565b6000612ce282612be5565b915073ffffffffffffffffffffffffffffffffffffffff8203612d0857612d07612881565b5b600182019050919050565b7f4e487b7100000000000000000000000000000000000000000000000000000000600052605160045260246000fdfea26469706673582212200dd5ad10d698ba1be5a60c8d92be96d430fe9e64c04760fc9576019a07fb77d064736f6c63430008130033","opcodes":"PUSH1 0x80 PUSH1 0x40 MSTORE CALLVALUE DUP1 ISZERO PUSH2 0x10 JUMPI PUSH1 0x0 DUP1 REVERT JUMPDEST POP PUSH2 0x2D78 DUP1 PUSH2 0x20 PUSH1 0x0 CODECOPY PUSH1 0x0 RETURN INVALID PUSH1 0x80 PUSH1 0x40 MSTORE CALLVALUE DUP1 ISZERO PUSH2 0x10 JUMPI PUSH1 0x0 DUP1 REVERT JUMPDEST POP PUSH1 0x4 CALLDATASIZE LT PUSH2 0xB4 JUMPI PUSH1 0x0 CALLDATALOAD PUSH1 0xE0 SHR DUP1 PUSH4 0x72CA346F GT PUSH2 0x71 JUMPI DUP1 PUSH4 0x72CA346F EQ PUSH2 0x16C JUMPI DUP1 PUSH4 0x79A85BD9 EQ PUSH2 0x18B JUMPI DUP1 PUSH4 0x8504B3B9 EQ PUSH2 0x1A7 JUMPI DUP1 PUSH4 0xA5DD32AC EQ PUSH2 0x1C6 JUMPI DUP1 PUSH4 0xB80777EA EQ PUSH2 0x1E4 JUMPI DUP1 PUSH4 0xE4B23D0C EQ PUSH2 0x202 JUMPI PUSH2 0xB4 JUMP JUMPDEST DUP1 PUSH4 0x6AC0E26 EQ PUSH2 0xB9 JUMPI DUP1 PUSH4 0x11DA60B4 EQ PUSH2 0xD5 JUMPI DUP1 PUSH4 0x3740D249 EQ PUSH2 0xDF JUMPI DUP1 PUSH4 0x3C1C0699 EQ PUSH2 0xFB JUMPI DUP1 PUSH4 0x43F104D2 EQ PUSH2 0x132 JUMPI DUP1 PUSH4 0x66B85D57 EQ PUSH2 0x14E JUMPI JUMPDEST PUSH1 0x0 DUP1 REVERT JUMPDEST PUSH2 0xD3 PUSH1 0x4 DUP1 CALLDATASIZE SUB DUP2 ADD SWAP1 PUSH2 0xCE SWAP2 SWAP1 PUSH2 0x23A5 JUMP JUMPDEST PUSH2 0x223 JUMP JUMPDEST STOP JUMPDEST PUSH2 0xDD PUSH2 0x24D JUMP JUMPDEST STOP JUMPDEST PUSH2 0xF9 PUSH1 0x4 DUP1 CALLDATASIZE SUB DUP2 ADD SWAP1 PUSH2 0xF4 SWAP2 SWAP1 PUSH2 0x2566 JUMP JUMPDEST PUSH2 0x24F JUMP JUMPDEST STOP JUMPDEST PUSH2 0x115 PUSH1 0x4 DUP1 CALLDATASIZE SUB DUP2 ADD SWAP1 PUSH2 0x110 SWAP2 SWAP1 PUSH2 0x263D JUMP JUMPDEST PUSH2 0x255 JUMP JUMPDEST PUSH1 0x40 MLOAD PUSH2 0x129 SWAP9 SWAP8 SWAP7 SWAP6 SWAP5 SWAP4 SWAP3 SWAP2 SWAP1 PUSH2 0x26A4 JUMP JUMPDEST PUSH1 0x40 MLOAD DUP1 SWAP2 SUB SWAP1 RETURN JUMPDEST PUSH2 0x14C PUSH1 0x4 DUP1 CALLDATASIZE SUB DUP2 ADD SWAP1 PUSH2 0x147 SWAP2 SWAP1 PUSH2 0x2566 JUMP JUMPDEST PUSH2 0x7B0 JUMP JUMPDEST STOP JUMPDEST PUSH2 0x156 PUSH2 0x7B6 JUMP JUMPDEST PUSH1 0x40 MLOAD PUSH2 0x163 SWAP2 SWAP1 PUSH2 0x2722 JUMP JUMPDEST PUSH1 0x40 MLOAD DUP1 SWAP2 SUB SWAP1 RETURN JUMPDEST PUSH2 0x174 PUSH2 0x7C2 JUMP JUMPDEST PUSH1 0x40 MLOAD PUSH2 0x182 SWAP3 SWAP2 SWAP1 PUSH2 0x273D JUMP JUMPDEST PUSH1 0x40 MLOAD DUP1 SWAP2 SUB SWAP1 RETURN JUMPDEST PUSH2 0x1A5 PUSH1 0x4 DUP1 CALLDATASIZE SUB DUP2 ADD SWAP1 PUSH2 0x1A0 SWAP2 SWAP1 PUSH2 0x2766 JUMP JUMPDEST PUSH2 0x7D4 JUMP JUMPDEST STOP JUMPDEST PUSH2 0x1AF PUSH2 0x7D9 JUMP JUMPDEST PUSH1 0x40 MLOAD PUSH2 0x1BD SWAP3 SWAP2 SWAP1 PUSH2 0x273D JUMP JUMPDEST PUSH1 0x40 MLOAD DUP1 SWAP2 SUB SWAP1 RETURN JUMPDEST PUSH2 0x1CE PUSH2 0x7EB JUMP JUMPDEST PUSH1 0x40 MLOAD PUSH2 0x1DB SWAP2 SWAP1 PUSH2 0x2722 JUMP JUMPDEST PUSH1 0x40 MLOAD DUP1 SWAP2 SUB SWAP1 RETURN JUMPDEST PUSH2 0x1EC PUSH2 0x7F1 JUMP JUMPDEST PUSH1 0x40 MLOAD PUSH2 0x1F9 SWAP2 SWAP1 PUSH2 0x2722 JUMP JUMPDEST PUSH1 0x40 MLOAD DUP1 SWAP2 SUB SWAP1 RETURN JUMPDEST PUSH2 0x20A PUSH2 0x7F7 JUMP JUMPDEST PUSH1 0x40 MLOAD PUSH2 0x21A SWAP5 SWAP4 SWAP3 SWAP2 SWAP1 PUSH2 0x280D JUMP JUMPDEST PUSH1 0x40 MLOAD DUP1 SWAP2 SUB SWAP1 RETURN JUMPDEST DUP5 PUSH1 0x0 DUP2 SWAP1 SSTORE POP DUP4 PUSH1 0x1 DUP2 SWAP1 SSTORE POP DUP3 PUSH1 0x2 DUP2 SWAP1 SSTORE POP DUP2 PUSH1 0x3 DUP2 SWAP1 SSTORE POP DUP1 PUSH1 0x4 DUP2 SWAP1 SSTORE POP POP POP POP POP POP JUMP JUMPDEST JUMP JUMPDEST POP POP POP POP JUMP JUMPDEST PUSH1 0x0 DUP1 PUSH1 0x0 DUP1 PUSH1 0x0 DUP1 PUSH1 0x0 DUP1 PUSH1 0x4 PUSH1 0xE PUSH1 0x0 ADD DUP2 SWAP1 SSTORE POP PUSH2 0x27D DUP10 PUSH1 0xE PUSH1 0x0 ADD SLOAD PUSH1 0x0 PUSH2 0x815 JUMP JUMPDEST PUSH1 0xE PUSH1 0x1 ADD PUSH1 0x0 PUSH1 0xE PUSH1 0x0 ADD PUSH1 0x0 DUP5 SWAP2 SWAP1 POP SSTORE DUP4 SWAP2 SWAP1 POP SWAP1 DUP1 MLOAD SWAP1 PUSH1 0x20 ADD SWAP1 PUSH2 0x2A7 SWAP3 SWAP2 SWAP1 PUSH2 0x22B1 JUMP JUMPDEST POP POP POP PUSH2 0x2BB DUP10 PUSH1 0xE PUSH1 0x0 ADD SLOAD PUSH1 0x0 PUSH2 0x927 JUMP JUMPDEST PUSH1 0xE PUSH1 0x4 ADD PUSH1 0x0 PUSH1 0xE PUSH1 0x3 ADD PUSH1 0x0 PUSH1 0xE PUSH1 0x2 ADD PUSH1 0x0 PUSH1 0xE PUSH1 0x0 ADD PUSH1 0x0 DUP9 SWAP2 SWAP1 POP SSTORE DUP8 SWAP2 SWAP1 POP SWAP1 DUP1 MLOAD SWAP1 PUSH1 0x20 ADD SWAP1 PUSH2 0x2F3 SWAP3 SWAP2 SWAP1 PUSH2 0x22B1 JUMP JUMPDEST POP DUP7 SWAP2 SWAP1 POP SWAP1 DUP1 MLOAD SWAP1 PUSH1 0x20 ADD SWAP1 PUSH2 0x30B SWAP3 SWAP2 SWAP1 PUSH2 0x22B1 JUMP JUMPDEST POP DUP6 SWAP2 SWAP1 POP SWAP1 DUP1 MLOAD SWAP1 PUSH1 0x20 ADD SWAP1 PUSH2 0x323 SWAP3 SWAP2 SWAP1 PUSH2 0x22B1 JUMP JUMPDEST POP POP POP POP POP PUSH1 0x0 JUMPDEST PUSH1 0x3 DUP2 LT ISZERO PUSH2 0x503 JUMPI PUSH1 0x0 DUP2 SUB PUSH2 0x3DC JUMPI PUSH2 0x389 DUP11 PUSH1 0xE PUSH1 0x3 ADD DUP4 DUP2 SLOAD DUP2 LT PUSH2 0x357 JUMPI PUSH2 0x356 PUSH2 0x2852 JUMP JUMPDEST JUMPDEST SWAP1 PUSH1 0x0 MSTORE PUSH1 0x20 PUSH1 0x0 KECCAK256 ADD SLOAD PUSH1 0xE PUSH1 0x2 ADD DUP5 DUP2 SLOAD DUP2 LT PUSH2 0x379 JUMPI PUSH2 0x378 PUSH2 0x2852 JUMP JUMPDEST JUMPDEST SWAP1 PUSH1 0x0 MSTORE PUSH1 0x20 PUSH1 0x0 KECCAK256 ADD SLOAD PUSH2 0xB1E JUMP JUMPDEST PUSH1 0x6 PUSH1 0x1 ADD PUSH1 0x0 PUSH1 0x6 PUSH1 0x3 ADD PUSH1 0x0 PUSH1 0x6 PUSH1 0x2 ADD PUSH1 0x0 DUP7 SWAP2 SWAP1 POP SSTORE DUP6 SWAP2 SWAP1 POP SSTORE DUP5 SWAP2 SWAP1 POP SSTORE POP POP POP PUSH1 0xE PUSH1 0x4 ADD DUP2 DUP2 SLOAD DUP2 LT PUSH2 0x3C7 JUMPI PUSH2 0x3C6 PUSH2 0x2852 JUMP JUMPDEST JUMPDEST SWAP1 PUSH1 0x0 MSTORE PUSH1 0x20 PUSH1 0x0 KECCAK256 ADD SLOAD PUSH1 0x6 PUSH1 0x0 ADD DUP2 SWAP1 SSTORE POP JUMPDEST PUSH1 0x1 DUP2 SUB PUSH2 0x466 JUMPI PUSH2 0x431 DUP11 PUSH1 0xE PUSH1 0x3 ADD DUP4 DUP2 SLOAD DUP2 LT PUSH2 0x3FF JUMPI PUSH2 0x3FE PUSH2 0x2852 JUMP JUMPDEST JUMPDEST SWAP1 PUSH1 0x0 MSTORE PUSH1 0x20 PUSH1 0x0 KECCAK256 ADD SLOAD PUSH1 0xE PUSH1 0x2 ADD DUP5 DUP2 SLOAD DUP2 LT PUSH2 0x421 JUMPI PUSH2 0x420 PUSH2 0x2852 JUMP JUMPDEST JUMPDEST SWAP1 PUSH1 0x0 MSTORE PUSH1 0x20 PUSH1 0x0 KECCAK256 ADD SLOAD PUSH2 0xBDA JUMP JUMPDEST PUSH1 0xC PUSH1 0x1 ADD DUP2 SWAP1 SSTORE POP PUSH1 0xE PUSH1 0x4 ADD DUP2 DUP2 SLOAD DUP2 LT PUSH2 0x451 JUMPI PUSH2 0x450 PUSH2 0x2852 JUMP JUMPDEST JUMPDEST SWAP1 PUSH1 0x0 MSTORE PUSH1 0x20 PUSH1 0x0 KECCAK256 ADD SLOAD PUSH1 0xC PUSH1 0x0 ADD DUP2 SWAP1 SSTORE POP JUMPDEST PUSH1 0x2 DUP2 SUB PUSH2 0x4F0 JUMPI PUSH2 0x4BB DUP11 PUSH1 0xE PUSH1 0x3 ADD DUP4 DUP2 SLOAD DUP2 LT PUSH2 0x489 JUMPI PUSH2 0x488 PUSH2 0x2852 JUMP JUMPDEST JUMPDEST SWAP1 PUSH1 0x0 MSTORE PUSH1 0x20 PUSH1 0x0 KECCAK256 ADD SLOAD PUSH1 0xE PUSH1 0x2 ADD DUP5 DUP2 SLOAD DUP2 LT PUSH2 0x4AB JUMPI PUSH2 0x4AA PUSH2 0x2852 JUMP JUMPDEST JUMPDEST SWAP1 PUSH1 0x0 MSTORE PUSH1 0x20 PUSH1 0x0 KECCAK256 ADD SLOAD PUSH2 0xBDA JUMP JUMPDEST PUSH1 0xA PUSH1 0x1 ADD DUP2 SWAP1 SSTORE POP PUSH1 0xE PUSH1 0x4 ADD DUP2 DUP2 SLOAD DUP2 LT PUSH2 0x4DB JUMPI PUSH2 0x4DA PUSH2 0x2852 JUMP JUMPDEST JUMPDEST SWAP1 PUSH1 0x0 MSTORE PUSH1 0x20 PUSH1 0x0 KECCAK256 ADD SLOAD PUSH1 0xA PUSH1 0x0 ADD DUP2 SWAP1 SSTORE POP JUMPDEST DUP1 DUP1 PUSH2 0x4FB SWAP1 PUSH2 0x28B0 JUMP JUMPDEST SWAP2 POP POP PUSH2 0x32B JUMP JUMPDEST POP PUSH2 0x548 PUSH1 0x40 MLOAD DUP1 PUSH1 0x40 ADD PUSH1 0x40 MSTORE DUP1 PUSH1 0x15 DUP2 MSTORE PUSH1 0x20 ADD PUSH32 0x436865636B2076616C75655F6F75747075745F313A0000000000000000000000 DUP2 MSTORE POP PUSH1 0x6 PUSH1 0x0 ADD SLOAD PUSH2 0xDB4 JUMP JUMPDEST PUSH2 0x599 PUSH1 0x40 MLOAD DUP1 PUSH1 0x40 ADD PUSH1 0x40 MSTORE DUP1 PUSH1 0x12 DUP2 MSTORE PUSH1 0x20 ADD PUSH32 0x436865636B20706B315F4F7574707574313A0000000000000000000000000000 DUP2 MSTORE POP PUSH2 0x594 PUSH1 0x6 PUSH1 0x1 ADD SLOAD PUSH1 0x0 SHR PUSH1 0x20 PUSH2 0xE50 JUMP JUMPDEST PUSH2 0x1096 JUMP JUMPDEST PUSH2 0x5EA PUSH1 0x40 MLOAD DUP1 PUSH1 0x40 ADD PUSH1 0x40 MSTORE DUP1 PUSH1 0xE DUP2 MSTORE PUSH1 0x20 ADD PUSH32 0x436865636B207265765F7365633A000000000000000000000000000000000000 DUP2 MSTORE POP PUSH2 0x5E5 PUSH1 0x6 PUSH1 0x3 ADD SLOAD PUSH1 0x0 SHR PUSH1 0x20 PUSH2 0xE50 JUMP JUMPDEST PUSH2 0x1096 JUMP JUMPDEST PUSH2 0x63B PUSH1 0x40 MLOAD DUP1 PUSH1 0x40 ADD PUSH1 0x40 MSTORE DUP1 PUSH1 0x12 DUP2 MSTORE PUSH1 0x20 ADD PUSH32 0x436865636B20706B325F4F7574707574313A0000000000000000000000000000 DUP2 MSTORE POP PUSH2 0x636 PUSH1 0x6 PUSH1 0x2 ADD SLOAD PUSH1 0x0 SHR PUSH1 0x20 PUSH2 0xE50 JUMP JUMPDEST PUSH2 0x1096 JUMP JUMPDEST PUSH2 0x67F PUSH1 0x40 MLOAD DUP1 PUSH1 0x40 ADD PUSH1 0x40 MSTORE DUP1 PUSH1 0x15 DUP2 MSTORE PUSH1 0x20 ADD PUSH32 0x436865636B2076616C75655F6F75747075745F323A0000000000000000000000 DUP2 MSTORE POP PUSH1 0xC PUSH1 0x0 ADD SLOAD PUSH2 0xDB4 JUMP JUMPDEST PUSH2 0x6D0 PUSH1 0x40 MLOAD DUP1 PUSH1 0x40 ADD PUSH1 0x40 MSTORE DUP1 PUSH1 0x14 DUP2 MSTORE PUSH1 0x20 ADD PUSH32 0x436865636B207363726970745F646174615F323A000000000000000000000000 DUP2 MSTORE POP PUSH2 0x6CB PUSH1 0xC PUSH1 0x1 ADD SLOAD PUSH1 0x0 SHR PUSH1 0x20 PUSH2 0xE50 JUMP JUMPDEST PUSH2 0x1096 JUMP JUMPDEST PUSH2 0x714 PUSH1 0x40 MLOAD DUP1 PUSH1 0x40 ADD PUSH1 0x40 MSTORE DUP1 PUSH1 0x15 DUP2 MSTORE PUSH1 0x20 ADD PUSH32 0x436865636B2076616C75655F6F75747075745F333A0000000000000000000000 DUP2 MSTORE POP PUSH1 0xA PUSH1 0x0 ADD SLOAD PUSH2 0xDB4 JUMP JUMPDEST PUSH2 0x765 PUSH1 0x40 MLOAD DUP1 PUSH1 0x40 ADD PUSH1 0x40 MSTORE DUP1 PUSH1 0x14 DUP2 MSTORE PUSH1 0x20 ADD PUSH32 0x436865636B207363726970745F646174615F333A000000000000000000000000 DUP2 MSTORE POP PUSH2 0x760 PUSH1 0xA PUSH1 0x1 ADD SLOAD PUSH1 0x0 SHR PUSH1 0x20 PUSH2 0xE50 JUMP JUMPDEST PUSH2 0x1096 JUMP JUMPDEST PUSH1 0x6 PUSH1 0x0 ADD SLOAD PUSH1 0x6 PUSH1 0x1 ADD SLOAD PUSH1 0x6 PUSH1 0x3 ADD SLOAD PUSH1 0x6 PUSH1 0x2 ADD SLOAD PUSH1 0xC PUSH1 0x0 ADD SLOAD PUSH1 0xC PUSH1 0x1 ADD SLOAD PUSH1 0xA PUSH1 0x0 ADD SLOAD PUSH1 0xA PUSH1 0x1 ADD SLOAD SWAP8 POP SWAP8 POP SWAP8 POP SWAP8 POP SWAP8 POP SWAP8 POP SWAP8 POP SWAP8 POP SWAP2 SWAP4 SWAP6 SWAP8 POP SWAP2 SWAP4 SWAP6 SWAP8 JUMP JUMPDEST POP POP POP POP JUMP JUMPDEST PUSH1 0xE DUP1 PUSH1 0x0 ADD SLOAD SWAP1 POP DUP2 JUMP JUMPDEST PUSH1 0xC DUP1 PUSH1 0x0 ADD SLOAD SWAP1 DUP1 PUSH1 0x1 ADD SLOAD SWAP1 POP DUP3 JUMP JUMPDEST POP POP POP JUMP JUMPDEST PUSH1 0xA DUP1 PUSH1 0x0 ADD SLOAD SWAP1 DUP1 PUSH1 0x1 ADD SLOAD SWAP1 POP DUP3 JUMP JUMPDEST PUSH1 0x5 SLOAD DUP2 JUMP JUMPDEST PUSH1 0x4 SLOAD DUP2 JUMP JUMPDEST PUSH1 0x6 DUP1 PUSH1 0x0 ADD SLOAD SWAP1 DUP1 PUSH1 0x1 ADD SLOAD SWAP1 DUP1 PUSH1 0x2 ADD SLOAD SWAP1 DUP1 PUSH1 0x3 ADD SLOAD SWAP1 POP DUP5 JUMP JUMPDEST PUSH1 0x60 PUSH1 0x0 DUP1 PUSH1 0x0 DUP1 PUSH2 0x827 DUP9 DUP9 PUSH2 0x1132 JUMP JUMPDEST DUP1 SWAP9 POP DUP2 SWAP5 POP POP POP PUSH1 0x0 DUP7 EQ DUP1 PUSH2 0x83D JUMPI POP DUP3 DUP7 GT JUMPDEST ISZERO PUSH2 0x84A JUMPI DUP3 SWAP2 POP PUSH2 0x84E JUMP JUMPDEST DUP6 SWAP2 POP JUMPDEST PUSH1 0x0 DUP3 PUSH8 0xFFFFFFFFFFFFFFFF DUP2 GT ISZERO PUSH2 0x86A JUMPI PUSH2 0x869 PUSH2 0x243B JUMP JUMPDEST JUMPDEST PUSH1 0x40 MLOAD SWAP1 DUP1 DUP3 MSTORE DUP1 PUSH1 0x20 MUL PUSH1 0x20 ADD DUP3 ADD PUSH1 0x40 MSTORE DUP1 ISZERO PUSH2 0x898 JUMPI DUP2 PUSH1 0x20 ADD PUSH1 0x20 DUP3 MUL DUP1 CALLDATASIZE DUP4 CALLDATACOPY DUP1 DUP3 ADD SWAP2 POP POP SWAP1 POP JUMPDEST POP SWAP1 POP PUSH1 0x0 JUMPDEST DUP4 DUP2 LT ISZERO PUSH2 0x914 JUMPI PUSH1 0x24 DUP10 PUSH2 0x8B3 SWAP2 SWAP1 PUSH2 0x28F8 JUMP JUMPDEST SWAP9 POP PUSH2 0x8BF DUP11 DUP11 PUSH2 0x1132 JUMP JUMPDEST DUP1 SWAP11 POP DUP2 SWAP5 POP POP POP DUP3 DUP3 DUP3 DUP2 MLOAD DUP2 LT PUSH2 0x8DB JUMPI PUSH2 0x8DA PUSH2 0x2852 JUMP JUMPDEST JUMPDEST PUSH1 0x20 MUL PUSH1 0x20 ADD ADD DUP2 DUP2 MSTORE POP POP PUSH1 0x4 DUP4 PUSH2 0x8F4 SWAP2 SWAP1 PUSH2 0x28F8 JUMP JUMPDEST DUP10 PUSH2 0x8FF SWAP2 SWAP1 PUSH2 0x28F8 JUMP JUMPDEST SWAP9 POP DUP1 DUP1 PUSH2 0x90C SWAP1 PUSH2 0x28B0 JUMP JUMPDEST SWAP2 POP POP PUSH2 0x89E JUMP JUMPDEST POP DUP1 DUP9 SWAP6 POP SWAP6 POP POP POP POP POP SWAP4 POP SWAP4 SWAP2 POP POP JUMP JUMPDEST PUSH1 0x60 DUP1 PUSH1 0x60 PUSH1 0x0 DUP1 PUSH1 0x0 DUP1 PUSH2 0x93C DUP11 DUP11 PUSH2 0x1132 JUMP JUMPDEST DUP1 SWAP11 POP DUP2 SWAP5 POP POP POP PUSH1 0x0 DUP9 EQ DUP1 PUSH2 0x952 JUMPI POP DUP3 DUP9 GT JUMPDEST ISZERO PUSH2 0x95F JUMPI DUP3 SWAP2 POP PUSH2 0x963 JUMP JUMPDEST DUP8 SWAP2 POP JUMPDEST PUSH1 0x0 DUP3 PUSH8 0xFFFFFFFFFFFFFFFF DUP2 GT ISZERO PUSH2 0x97F JUMPI PUSH2 0x97E PUSH2 0x243B JUMP JUMPDEST JUMPDEST PUSH1 0x40 MLOAD SWAP1 DUP1 DUP3 MSTORE DUP1 PUSH1 0x20 MUL PUSH1 0x20 ADD DUP3 ADD PUSH1 0x40 MSTORE DUP1 ISZERO PUSH2 0x9AD JUMPI DUP2 PUSH1 0x20 ADD PUSH1 0x20 DUP3 MUL DUP1 CALLDATASIZE DUP4 CALLDATACOPY DUP1 DUP3 ADD SWAP2 POP POP SWAP1 POP JUMPDEST POP SWAP1 POP PUSH1 0x0 DUP4 PUSH8 0xFFFFFFFFFFFFFFFF DUP2 GT ISZERO PUSH2 0x9CC JUMPI PUSH2 0x9CB PUSH2 0x243B JUMP JUMPDEST JUMPDEST PUSH1 0x40 MLOAD SWAP1 DUP1 DUP3 MSTORE DUP1 PUSH1 0x20 MUL PUSH1 0x20 ADD DUP3 ADD PUSH1 0x40 MSTORE DUP1 ISZERO PUSH2 0x9FA JUMPI DUP2 PUSH1 0x20 ADD PUSH1 0x20 DUP3 MUL DUP1 CALLDATASIZE DUP4 CALLDATACOPY DUP1 DUP3 ADD SWAP2 POP POP SWAP1 POP JUMPDEST POP SWAP1 POP PUSH1 0x0 DUP5 PUSH8 0xFFFFFFFFFFFFFFFF DUP2 GT ISZERO PUSH2 0xA19 JUMPI PUSH2 0xA18 PUSH2 0x243B JUMP JUMPDEST JUMPDEST PUSH1 0x40 MLOAD SWAP1 DUP1 DUP3 MSTORE DUP1 PUSH1 0x20 MUL PUSH1 0x20 ADD DUP3 ADD PUSH1 0x40 MSTORE DUP1 ISZERO PUSH2 0xA47 JUMPI DUP2 PUSH1 0x20 ADD PUSH1 0x20 DUP3 MUL DUP1 CALLDATASIZE DUP4 CALLDATACOPY DUP1 DUP3 ADD SWAP2 POP POP SWAP1 POP JUMPDEST POP SWAP1 POP PUSH1 0x0 JUMPDEST DUP6 DUP2 LT ISZERO PUSH2 0xB02 JUMPI PUSH2 0xA61 DUP15 DUP15 PUSH1 0x40 PUSH2 0x121A JUMP JUMPDEST DUP3 DUP3 DUP2 MLOAD DUP2 LT PUSH2 0xA74 JUMPI PUSH2 0xA73 PUSH2 0x2852 JUMP JUMPDEST JUMPDEST PUSH1 0x20 MUL PUSH1 0x20 ADD ADD DUP2 DUP2 MSTORE POP POP PUSH1 0x8 DUP14 PUSH2 0xA8D SWAP2 SWAP1 PUSH2 0x28F8 JUMP JUMPDEST SWAP13 POP PUSH2 0xA99 DUP15 DUP15 PUSH2 0x1132 JUMP JUMPDEST DUP1 SWAP15 POP DUP2 SWAP7 POP POP POP DUP13 DUP5 DUP3 DUP2 MLOAD DUP2 LT PUSH2 0xAB5 JUMPI PUSH2 0xAB4 PUSH2 0x2852 JUMP JUMPDEST JUMPDEST PUSH1 0x20 MUL PUSH1 0x20 ADD ADD DUP2 DUP2 MSTORE POP POP DUP5 DUP4 DUP3 DUP2 MLOAD DUP2 LT PUSH2 0xAD5 JUMPI PUSH2 0xAD4 PUSH2 0x2852 JUMP JUMPDEST JUMPDEST PUSH1 0x20 MUL PUSH1 0x20 ADD ADD DUP2 DUP2 MSTORE POP POP DUP5 DUP14 PUSH2 0xAED SWAP2 SWAP1 PUSH2 0x28F8 JUMP JUMPDEST SWAP13 POP DUP1 DUP1 PUSH2 0xAFA SWAP1 PUSH2 0x28B0 JUMP JUMPDEST SWAP2 POP POP PUSH2 0xA4D JUMP JUMPDEST POP DUP1 DUP4 DUP4 DUP15 SWAP10 POP SWAP10 POP SWAP10 POP SWAP10 POP POP POP POP POP POP POP SWAP4 POP SWAP4 POP SWAP4 POP SWAP4 JUMP JUMPDEST PUSH1 0x0 DUP1 PUSH1 0x0 PUSH2 0xB2E DUP7 DUP7 DUP7 PUSH2 0x1685 JUMP JUMPDEST ISZERO PUSH2 0xBBE JUMPI PUSH2 0xB71 PUSH1 0x40 MLOAD DUP1 PUSH1 0x40 ADD PUSH1 0x40 MSTORE DUP1 PUSH1 0x1B DUP2 MSTORE PUSH1 0x20 ADD PUSH32 0x506172736564204C696768746E696E6748544C43206F75747075740000000000 DUP2 MSTORE POP PUSH2 0x1C34 JUMP JUMPDEST PUSH2 0xB87 DUP7 PUSH1 0x1 DUP8 PUSH2 0xB82 SWAP2 SWAP1 PUSH2 0x28F8 JUMP JUMPDEST PUSH2 0x1CCD JUMP JUMPDEST PUSH2 0xB9D DUP8 PUSH1 0x28 DUP9 PUSH2 0xB98 SWAP2 SWAP1 PUSH2 0x28F8 JUMP JUMPDEST PUSH2 0x1D58 JUMP JUMPDEST PUSH2 0xBB3 DUP9 PUSH1 0x4A DUP10 PUSH2 0xBAE SWAP2 SWAP1 PUSH2 0x28F8 JUMP JUMPDEST PUSH2 0x1CCD JUMP JUMPDEST SWAP3 POP SWAP3 POP SWAP3 POP PUSH2 0xBD1 JUMP JUMPDEST PUSH1 0x0 DUP1 SHL PUSH1 0x0 DUP1 SHL PUSH1 0x0 DUP1 SHL SWAP3 POP SWAP3 POP SWAP3 POP JUMPDEST SWAP4 POP SWAP4 POP SWAP4 SWAP1 POP JUMP JUMPDEST PUSH1 0x0 PUSH2 0xBE7 DUP5 DUP5 DUP5 PUSH2 0x1DE3 JUMP JUMPDEST ISZERO PUSH2 0xC56 JUMPI PUSH2 0xC2A PUSH1 0x40 MLOAD DUP1 PUSH1 0x40 ADD PUSH1 0x40 MSTORE DUP1 PUSH1 0x13 DUP2 MSTORE PUSH1 0x20 ADD PUSH32 0x506172736564205032504B48206F757470757400000000000000000000000000 DUP2 MSTORE POP PUSH2 0x1C34 JUMP JUMPDEST PUSH2 0xC40 DUP5 PUSH1 0x3 DUP6 PUSH2 0xC3B SWAP2 SWAP1 PUSH2 0x28F8 JUMP JUMPDEST PUSH2 0x1FA8 JUMP JUMPDEST PUSH12 0xFFFFFFFFFFFFFFFFFFFFFFFF NOT AND SWAP1 POP PUSH2 0xDAD JUMP JUMPDEST PUSH2 0xC61 DUP5 DUP5 DUP5 PUSH2 0x208B JUMP JUMPDEST ISZERO PUSH2 0xCD0 JUMPI PUSH2 0xCA4 PUSH1 0x40 MLOAD DUP1 PUSH1 0x40 ADD PUSH1 0x40 MSTORE DUP1 PUSH1 0x12 DUP2 MSTORE PUSH1 0x20 ADD PUSH32 0x5061727365642050325348206F75747075740000000000000000000000000000 DUP2 MSTORE POP PUSH2 0x1C34 JUMP JUMPDEST PUSH2 0xCBA DUP5 PUSH1 0x2 DUP6 PUSH2 0xCB5 SWAP2 SWAP1 PUSH2 0x28F8 JUMP JUMPDEST PUSH2 0x1FA8 JUMP JUMPDEST PUSH12 0xFFFFFFFFFFFFFFFFFFFFFFFF NOT AND SWAP1 POP PUSH2 0xDAD JUMP JUMPDEST PUSH2 0xCDB DUP5 DUP5 DUP5 PUSH2 0x21A8 JUMP JUMPDEST ISZERO PUSH2 0xD3B JUMPI PUSH2 0xD1E PUSH1 0x40 MLOAD DUP1 PUSH1 0x40 ADD PUSH1 0x40 MSTORE DUP1 PUSH1 0x17 DUP2 MSTORE PUSH1 0x20 ADD PUSH32 0x506172736564204F505F52455455524E206F7574707574000000000000000000 DUP2 MSTORE POP PUSH2 0x1C34 JUMP JUMPDEST PUSH2 0xD34 DUP5 PUSH1 0x2 DUP6 PUSH2 0xD2F SWAP2 SWAP1 PUSH2 0x28F8 JUMP JUMPDEST PUSH2 0x1D58 JUMP JUMPDEST SWAP1 POP PUSH2 0xDAD JUMP JUMPDEST PUSH2 0xD46 DUP5 DUP5 DUP5 PUSH2 0x1685 JUMP JUMPDEST ISZERO PUSH2 0xDA6 JUMPI PUSH2 0xD89 PUSH1 0x40 MLOAD DUP1 PUSH1 0x40 ADD PUSH1 0x40 MSTORE DUP1 PUSH1 0x1B DUP2 MSTORE PUSH1 0x20 ADD PUSH32 0x506172736564204C696768746E696E6748544C43206F75747075740000000000 DUP2 MSTORE POP PUSH2 0x1C34 JUMP JUMPDEST PUSH2 0xD9F DUP5 PUSH1 0x2 DUP6 PUSH2 0xD9A SWAP2 SWAP1 PUSH2 0x28F8 JUMP JUMPDEST PUSH2 0x1D58 JUMP JUMPDEST SWAP1 POP PUSH2 0xDAD JUMP JUMPDEST PUSH1 0x0 DUP1 SHL SWAP1 POP JUMPDEST SWAP4 SWAP3 POP POP POP JUMP JUMPDEST PUSH2 0xE4C DUP3 DUP3 PUSH1 0x40 MLOAD PUSH1 0x24 ADD PUSH2 0xDCA SWAP3 SWAP2 SWAP1 PUSH2 0x29AB JUMP JUMPDEST PUSH1 0x40 MLOAD PUSH1 0x20 DUP2 DUP4 SUB SUB DUP2 MSTORE SWAP1 PUSH1 0x40 MSTORE PUSH32 0xB60E72CC00000000000000000000000000000000000000000000000000000000 PUSH28 0xFFFFFFFFFFFFFFFFFFFFFFFFFFFFFFFFFFFFFFFFFFFFFFFFFFFFFFFF NOT AND PUSH1 0x20 DUP3 ADD DUP1 MLOAD PUSH28 0xFFFFFFFFFFFFFFFFFFFFFFFFFFFFFFFFFFFFFFFFFFFFFFFFFFFFFFFF DUP4 DUP2 DUP4 AND OR DUP4 MSTORE POP POP POP POP PUSH2 0x226B JUMP JUMPDEST POP POP JUMP JUMPDEST PUSH1 0x60 PUSH1 0x0 DUP4 SWAP1 POP PUSH1 0x0 PUSH1 0x2 DUP5 PUSH1 0x2 PUSH2 0xE68 SWAP2 SWAP1 PUSH2 0x29DB JUMP JUMPDEST PUSH2 0xE72 SWAP2 SWAP1 PUSH2 0x28F8 JUMP JUMPDEST PUSH8 0xFFFFFFFFFFFFFFFF DUP2 GT ISZERO PUSH2 0xE8B JUMPI PUSH2 0xE8A PUSH2 0x243B JUMP JUMPDEST JUMPDEST PUSH1 0x40 MLOAD SWAP1 DUP1 DUP3 MSTORE DUP1 PUSH1 0x1F ADD PUSH1 0x1F NOT AND PUSH1 0x20 ADD DUP3 ADD PUSH1 0x40 MSTORE DUP1 ISZERO PUSH2 0xEBD JUMPI DUP2 PUSH1 0x20 ADD PUSH1 0x1 DUP3 MUL DUP1 CALLDATASIZE DUP4 CALLDATACOPY DUP1 DUP3 ADD SWAP2 POP POP SWAP1 POP JUMPDEST POP SWAP1 POP PUSH32 0x3000000000000000000000000000000000000000000000000000000000000000 DUP2 PUSH1 0x0 DUP2 MLOAD DUP2 LT PUSH2 0xEF5 JUMPI PUSH2 0xEF4 PUSH2 0x2852 JUMP JUMPDEST JUMPDEST PUSH1 0x20 ADD ADD SWAP1 PUSH31 0xFFFFFFFFFFFFFFFFFFFFFFFFFFFFFFFFFFFFFFFFFFFFFFFFFFFFFFFFFFFFFF NOT AND SWAP1 DUP2 PUSH1 0x0 BYTE SWAP1 MSTORE8 POP PUSH32 0x7800000000000000000000000000000000000000000000000000000000000000 DUP2 PUSH1 0x1 DUP2 MLOAD DUP2 LT PUSH2 0xF59 JUMPI PUSH2 0xF58 PUSH2 0x2852 JUMP JUMPDEST JUMPDEST PUSH1 0x20 ADD ADD SWAP1 PUSH31 0xFFFFFFFFFFFFFFFFFFFFFFFFFFFFFFFFFFFFFFFFFFFFFFFFFFFFFFFFFFFFFF NOT AND SWAP1 DUP2 PUSH1 0x0 BYTE SWAP1 MSTORE8 POP PUSH1 0x0 PUSH1 0x1 DUP6 PUSH1 0x2 PUSH2 0xF99 SWAP2 SWAP1 PUSH2 0x29DB JUMP JUMPDEST PUSH2 0xFA3 SWAP2 SWAP1 PUSH2 0x28F8 JUMP JUMPDEST SWAP1 POP JUMPDEST PUSH1 0x1 DUP2 GT ISZERO PUSH2 0x1043 JUMPI PUSH32 0x3031323334353637383961626364656600000000000000000000000000000000 PUSH1 0xF DUP5 AND PUSH1 0x10 DUP2 LT PUSH2 0xFE5 JUMPI PUSH2 0xFE4 PUSH2 0x2852 JUMP JUMPDEST JUMPDEST BYTE PUSH1 0xF8 SHL DUP3 DUP3 DUP2 MLOAD DUP2 LT PUSH2 0xFFC JUMPI PUSH2 0xFFB PUSH2 0x2852 JUMP JUMPDEST JUMPDEST PUSH1 0x20 ADD ADD SWAP1 PUSH31 0xFFFFFFFFFFFFFFFFFFFFFFFFFFFFFFFFFFFFFFFFFFFFFFFFFFFFFFFFFFFFFF NOT AND SWAP1 DUP2 PUSH1 0x0 BYTE SWAP1 MSTORE8 POP PUSH1 0x4 DUP4 SWAP1 SHR SWAP3 POP DUP1 PUSH2 0x103C SWAP1 PUSH2 0x2A1D JUMP JUMPDEST SWAP1 POP PUSH2 0xFA6 JUMP JUMPDEST POP PUSH1 0x0 DUP3 EQ PUSH2 0x108B JUMPI DUP5 DUP5 PUSH1 0x40 MLOAD PUSH32 0xE22E27EB00000000000000000000000000000000000000000000000000000000 DUP2 MSTORE PUSH1 0x4 ADD PUSH2 0x1082 SWAP3 SWAP2 SWAP1 PUSH2 0x2A46 JUMP JUMPDEST PUSH1 0x40 MLOAD DUP1 SWAP2 SUB SWAP1 REVERT JUMPDEST DUP1 SWAP3 POP POP POP SWAP3 SWAP2 POP POP JUMP JUMPDEST PUSH2 0x112E DUP3 DUP3 PUSH1 0x40 MLOAD PUSH1 0x24 ADD PUSH2 0x10AC SWAP3 SWAP2 SWAP1 PUSH2 0x2A6F JUMP JUMPDEST PUSH1 0x40 MLOAD PUSH1 0x20 DUP2 DUP4 SUB SUB DUP2 MSTORE SWAP1 PUSH1 0x40 MSTORE PUSH32 0x4B5C427700000000000000000000000000000000000000000000000000000000 PUSH28 0xFFFFFFFFFFFFFFFFFFFFFFFFFFFFFFFFFFFFFFFFFFFFFFFFFFFFFFFF NOT AND PUSH1 0x20 DUP3 ADD DUP1 MLOAD PUSH28 0xFFFFFFFFFFFFFFFFFFFFFFFFFFFFFFFFFFFFFFFFFFFFFFFFFFFFFFFF DUP4 DUP2 DUP4 AND OR DUP4 MSTORE POP POP POP POP PUSH2 0x226B JUMP JUMPDEST POP POP JUMP JUMPDEST PUSH1 0x0 DUP1 PUSH1 0x0 DUP5 DUP5 DUP2 MLOAD DUP2 LT PUSH2 0x114A JUMPI PUSH2 0x1149 PUSH2 0x2852 JUMP JUMPDEST JUMPDEST PUSH1 0x20 ADD ADD MLOAD PUSH1 0xF8 SHR PUSH1 0xF8 SHL PUSH1 0xF8 SHR SWAP1 POP PUSH1 0x1 DUP5 PUSH2 0x1167 SWAP2 SWAP1 PUSH2 0x28F8 JUMP JUMPDEST SWAP4 POP PUSH1 0xFD DUP2 PUSH1 0xFF AND LT ISZERO PUSH2 0x1187 JUMPI DUP1 DUP5 DUP2 PUSH1 0xFF AND SWAP2 POP SWAP3 POP SWAP3 POP POP PUSH2 0x1213 JUMP JUMPDEST PUSH1 0xFD DUP2 PUSH1 0xFF AND SUB PUSH2 0x11B5 JUMPI PUSH2 0x119E DUP6 DUP6 PUSH1 0x10 PUSH2 0x121A JUMP JUMPDEST PUSH1 0x2 DUP6 PUSH2 0x11AB SWAP2 SWAP1 PUSH2 0x28F8 JUMP JUMPDEST SWAP3 POP SWAP3 POP POP PUSH2 0x1213 JUMP JUMPDEST PUSH1 0xFE DUP2 PUSH1 0xFF AND SUB PUSH2 0x11E3 JUMPI PUSH2 0x11CC DUP6 DUP6 PUSH1 0x20 PUSH2 0x121A JUMP JUMPDEST PUSH1 0x4 DUP6 PUSH2 0x11D9 SWAP2 SWAP1 PUSH2 0x28F8 JUMP JUMPDEST SWAP3 POP SWAP3 POP POP PUSH2 0x1213 JUMP JUMPDEST PUSH1 0xFF DUP2 PUSH1 0xFF AND SUB PUSH2 0x1211 JUMPI PUSH2 0x11FA DUP6 DUP6 PUSH1 0x40 PUSH2 0x121A JUMP JUMPDEST PUSH1 0x8 DUP6 PUSH2 0x1207 SWAP2 SWAP1 PUSH2 0x28F8 JUMP JUMPDEST SWAP3 POP SWAP3 POP POP PUSH2 0x1213 JUMP JUMPDEST POP JUMPDEST SWAP3 POP SWAP3 SWAP1 POP JUMP JUMPDEST PUSH1 0x0 PUSH1 0x8 DUP3 SUB PUSH2 0x124F JUMPI DUP4 DUP4 DUP2 MLOAD DUP2 LT PUSH2 0x1237 JUMPI PUSH2 0x1236 PUSH2 0x2852 JUMP JUMPDEST JUMPDEST PUSH1 0x20 ADD ADD MLOAD PUSH1 0xF8 SHR PUSH1 0xF8 SHL PUSH1 0xF8 SHR PUSH1 0xFF AND SWAP1 POP PUSH2 0x167E JUMP JUMPDEST PUSH1 0x10 DUP3 SUB PUSH2 0x12D1 JUMPI PUSH2 0x100 DUP5 PUSH1 0x1 DUP6 PUSH2 0x1268 SWAP2 SWAP1 PUSH2 0x28F8 JUMP JUMPDEST DUP2 MLOAD DUP2 LT PUSH2 0x1279 JUMPI PUSH2 0x1278 PUSH2 0x2852 JUMP JUMPDEST JUMPDEST PUSH1 0x20 ADD ADD MLOAD PUSH1 0xF8 SHR PUSH1 0xF8 SHL PUSH1 0xF8 SHR PUSH1 0xFF AND PUSH2 0x1294 SWAP2 SWAP1 PUSH2 0x2AB4 JUMP JUMPDEST PUSH2 0xFFFF AND DUP5 DUP5 DUP2 MLOAD DUP2 LT PUSH2 0x12AB JUMPI PUSH2 0x12AA PUSH2 0x2852 JUMP JUMPDEST JUMPDEST PUSH1 0x20 ADD ADD MLOAD PUSH1 0xF8 SHR PUSH1 0xF8 SHL PUSH1 0xF8 SHR PUSH1 0xFF AND PUSH2 0xFFFF AND PUSH2 0x12CA SWAP2 SWAP1 PUSH2 0x28F8 JUMP JUMPDEST SWAP1 POP PUSH2 0x167E JUMP JUMPDEST PUSH1 0x20 DUP3 SUB PUSH2 0x13F4 JUMPI PUSH4 0x1000000 DUP5 PUSH1 0x3 DUP6 PUSH2 0x12EC SWAP2 SWAP1 PUSH2 0x28F8 JUMP JUMPDEST DUP2 MLOAD DUP2 LT PUSH2 0x12FD JUMPI PUSH2 0x12FC PUSH2 0x2852 JUMP JUMPDEST JUMPDEST PUSH1 0x20 ADD ADD MLOAD PUSH1 0xF8 SHR PUSH1 0xF8 SHL PUSH1 0xF8 SHR PUSH1 0xFF AND PUSH2 0x1318 SWAP2 SWAP1 PUSH2 0x2B01 JUMP JUMPDEST PUSH4 0xFFFFFFFF AND PUSH3 0x10000 DUP6 PUSH1 0x2 DUP7 PUSH2 0x1330 SWAP2 SWAP1 PUSH2 0x28F8 JUMP JUMPDEST DUP2 MLOAD DUP2 LT PUSH2 0x1341 JUMPI PUSH2 0x1340 PUSH2 0x2852 JUMP JUMPDEST JUMPDEST PUSH1 0x20 ADD ADD MLOAD PUSH1 0xF8 SHR PUSH1 0xF8 SHL PUSH1 0xF8 SHR PUSH1 0xFF AND PUSH2 0x135C SWAP2 SWAP1 PUSH2 0x2B01 JUMP JUMPDEST PUSH4 0xFFFFFFFF AND PUSH2 0x100 DUP7 PUSH1 0x1 DUP8 PUSH2 0x1373 SWAP2 SWAP1 PUSH2 0x28F8 JUMP JUMPDEST DUP2 MLOAD DUP2 LT PUSH2 0x1384 JUMPI PUSH2 0x1383 PUSH2 0x2852 JUMP JUMPDEST JUMPDEST PUSH1 0x20 ADD ADD MLOAD PUSH1 0xF8 SHR PUSH1 0xF8 SHL PUSH1 0xF8 SHR PUSH1 0xFF AND PUSH2 0x139F SWAP2 SWAP1 PUSH2 0x2B01 JUMP JUMPDEST PUSH4 0xFFFFFFFF AND DUP7 DUP7 DUP2 MLOAD DUP2 LT PUSH2 0x13B8 JUMPI PUSH2 0x13B7 PUSH2 0x2852 JUMP JUMPDEST JUMPDEST PUSH1 0x20 ADD ADD MLOAD PUSH1 0xF8 SHR PUSH1 0xF8 SHL PUSH1 0xF8 SHR PUSH1 0xFF AND PUSH4 0xFFFFFFFF AND PUSH2 0x13D9 SWAP2 SWAP1 PUSH2 0x28F8 JUMP JUMPDEST PUSH2 0x13E3 SWAP2 SWAP1 PUSH2 0x28F8 JUMP JUMPDEST PUSH2 0x13ED SWAP2 SWAP1 PUSH2 0x28F8 JUMP JUMPDEST SWAP1 POP PUSH2 0x167E JUMP JUMPDEST PUSH1 0x40 DUP3 SUB PUSH2 0x167D JUMPI PUSH8 0x100000000000000 DUP5 PUSH1 0x7 DUP6 PUSH2 0x1413 SWAP2 SWAP1 PUSH2 0x28F8 JUMP JUMPDEST DUP2 MLOAD DUP2 LT PUSH2 0x1424 JUMPI PUSH2 0x1423 PUSH2 0x2852 JUMP JUMPDEST JUMPDEST PUSH1 0x20 ADD ADD MLOAD PUSH1 0xF8 SHR PUSH1 0xF8 SHL PUSH1 0xF8 SHR PUSH1 0xFF AND PUSH2 0x143F SWAP2 SWAP1 PUSH2 0x2B52 JUMP JUMPDEST PUSH8 0xFFFFFFFFFFFFFFFF AND PUSH7 0x1000000000000 DUP6 PUSH1 0x6 DUP7 PUSH2 0x145F SWAP2 SWAP1 PUSH2 0x28F8 JUMP JUMPDEST DUP2 MLOAD DUP2 LT PUSH2 0x1470 JUMPI PUSH2 0x146F PUSH2 0x2852 JUMP JUMPDEST JUMPDEST PUSH1 0x20 ADD ADD MLOAD PUSH1 0xF8 SHR PUSH1 0xF8 SHL PUSH1 0xF8 SHR PUSH1 0xFF AND PUSH2 0x148B SWAP2 SWAP1 PUSH2 0x2B52 JUMP JUMPDEST PUSH8 0xFFFFFFFFFFFFFFFF AND PUSH6 0x10000000000 DUP7 PUSH1 0x5 DUP8 PUSH2 0x14AA SWAP2 SWAP1 PUSH2 0x28F8 JUMP JUMPDEST DUP2 MLOAD DUP2 LT PUSH2 0x14BB JUMPI PUSH2 0x14BA PUSH2 0x2852 JUMP JUMPDEST JUMPDEST PUSH1 0x20 ADD ADD MLOAD PUSH1 0xF8 SHR PUSH1 0xF8 SHL PUSH1 0xF8 SHR PUSH1 0xFF AND PUSH2 0x14D6 SWAP2 SWAP1 PUSH2 0x2B52 JUMP JUMPDEST PUSH8 0xFFFFFFFFFFFFFFFF AND PUSH5 0x100000000 DUP8 PUSH1 0x4 DUP9 PUSH2 0x14F4 SWAP2 SWAP1 PUSH2 0x28F8 JUMP JUMPDEST DUP2 MLOAD DUP2 LT PUSH2 0x1505 JUMPI PUSH2 0x1504 PUSH2 0x2852 JUMP JUMPDEST JUMPDEST PUSH1 0x20 ADD ADD MLOAD PUSH1 0xF8 SHR PUSH1 0xF8 SHL PUSH1 0xF8 SHR PUSH1 0xFF AND PUSH2 0x1520 SWAP2 SWAP1 PUSH2 0x2B52 JUMP JUMPDEST PUSH8 0xFFFFFFFFFFFFFFFF AND PUSH4 0x1000000 DUP9 PUSH1 0x3 DUP10 PUSH2 0x153D SWAP2 SWAP1 PUSH2 0x28F8 JUMP JUMPDEST DUP2 MLOAD DUP2 LT PUSH2 0x154E JUMPI PUSH2 0x154D PUSH2 0x2852 JUMP JUMPDEST JUMPDEST PUSH1 0x20 ADD ADD MLOAD PUSH1 0xF8 SHR PUSH1 0xF8 SHL PUSH1 0xF8 SHR PUSH1 0xFF AND PUSH2 0x1569 SWAP2 SWAP1 PUSH2 0x2B52 JUMP JUMPDEST PUSH8 0xFFFFFFFFFFFFFFFF AND PUSH3 0x10000 DUP10 PUSH1 0x2 DUP11 PUSH2 0x1585 SWAP2 SWAP1 PUSH2 0x28F8 JUMP JUMPDEST DUP2 MLOAD DUP2 LT PUSH2 0x1596 JUMPI PUSH2 0x1595 PUSH2 0x2852 JUMP JUMPDEST JUMPDEST PUSH1 0x20 ADD ADD MLOAD PUSH1 0xF8 SHR PUSH1 0xF8 SHL PUSH1 0xF8 SHR PUSH1 0xFF AND PUSH2 0x15B1 SWAP2 SWAP1 PUSH2 0x2B52 JUMP JUMPDEST PUSH8 0xFFFFFFFFFFFFFFFF AND PUSH2 0x100 DUP11 PUSH1 0x1 DUP12 PUSH2 0x15CC SWAP2 SWAP1 PUSH2 0x28F8 JUMP JUMPDEST DUP2 MLOAD DUP2 LT PUSH2 0x15DD JUMPI PUSH2 0x15DC PUSH2 0x2852 JUMP JUMPDEST JUMPDEST PUSH1 0x20 ADD ADD MLOAD PUSH1 0xF8 SHR PUSH1 0xF8 SHL PUSH1 0xF8 SHR PUSH1 0xFF AND PUSH2 0x15F8 SWAP2 SWAP1 PUSH2 0x2B52 JUMP JUMPDEST PUSH8 0xFFFFFFFFFFFFFFFF AND DUP11 DUP11 DUP2 MLOAD DUP2 LT PUSH2 0x1615 JUMPI PUSH2 0x1614 PUSH2 0x2852 JUMP JUMPDEST JUMPDEST PUSH1 0x20 ADD ADD MLOAD PUSH1 0xF8 SHR PUSH1 0xF8 SHL PUSH1 0xF8 SHR PUSH1 0xFF AND PUSH8 0xFFFFFFFFFFFFFFFF AND PUSH2 0x163A SWAP2 SWAP1 PUSH2 0x28F8 JUMP JUMPDEST PUSH2 0x1644 SWAP2 SWAP1 PUSH2 0x28F8 JUMP JUMPDEST PUSH2 0x164E SWAP2 SWAP1 PUSH2 0x28F8 JUMP JUMPDEST PUSH2 0x1658 SWAP2 SWAP1 PUSH2 0x28F8 JUMP JUMPDEST PUSH2 0x1662 SWAP2 SWAP1 PUSH2 0x28F8 JUMP JUMPDEST PUSH2 0x166C SWAP2 SWAP1 PUSH2 0x28F8 JUMP JUMPDEST PUSH2 0x1676 SWAP2 SWAP1 PUSH2 0x28F8 JUMP JUMPDEST SWAP1 POP PUSH2 0x167E JUMP JUMPDEST JUMPDEST SWAP4 SWAP3 POP POP POP JUMP JUMPDEST PUSH1 0x0 PUSH1 0x72 DUP3 EQ DUP1 ISZERO PUSH2 0x16E5 JUMPI POP PUSH1 0x76 PUSH1 0xF8 SHL DUP5 PUSH1 0x0 DUP6 PUSH2 0x16A5 SWAP2 SWAP1 PUSH2 0x28F8 JUMP JUMPDEST DUP2 MLOAD DUP2 LT PUSH2 0x16B6 JUMPI PUSH2 0x16B5 PUSH2 0x2852 JUMP JUMPDEST JUMPDEST PUSH1 0x20 ADD ADD MLOAD PUSH1 0xF8 SHR PUSH1 0xF8 SHL PUSH31 0xFFFFFFFFFFFFFFFFFFFFFFFFFFFFFFFFFFFFFFFFFFFFFFFFFFFFFFFFFFFFFF NOT AND EQ JUMPDEST DUP1 ISZERO PUSH2 0x173F JUMPI POP PUSH1 0x21 PUSH1 0xF8 SHL DUP5 PUSH1 0x1 DUP6 PUSH2 0x16FF SWAP2 SWAP1 PUSH2 0x28F8 JUMP JUMPDEST DUP2 MLOAD DUP2 LT PUSH2 0x1710 JUMPI PUSH2 0x170F PUSH2 0x2852 JUMP JUMPDEST JUMPDEST PUSH1 0x20 ADD ADD MLOAD PUSH1 0xF8 SHR PUSH1 0xF8 SHL PUSH31 0xFFFFFFFFFFFFFFFFFFFFFFFFFFFFFFFFFFFFFFFFFFFFFFFFFFFFFFFFFFFFFF NOT AND EQ JUMPDEST DUP1 ISZERO PUSH2 0x1799 JUMPI POP PUSH1 0xAC PUSH1 0xF8 SHL DUP5 PUSH1 0x23 DUP6 PUSH2 0x1759 SWAP2 SWAP1 PUSH2 0x28F8 JUMP JUMPDEST DUP2 MLOAD DUP2 LT PUSH2 0x176A JUMPI PUSH2 0x1769 PUSH2 0x2852 JUMP JUMPDEST JUMPDEST PUSH1 0x20 ADD ADD MLOAD PUSH1 0xF8 SHR PUSH1 0xF8 SHL PUSH31 0xFFFFFFFFFFFFFFFFFFFFFFFFFFFFFFFFFFFFFFFFFFFFFFFFFFFFFFFFFFFFFF NOT AND EQ JUMPDEST DUP1 ISZERO PUSH2 0x17F3 JUMPI POP PUSH1 0x63 PUSH1 0xF8 SHL DUP5 PUSH1 0x24 DUP6 PUSH2 0x17B3 SWAP2 SWAP1 PUSH2 0x28F8 JUMP JUMPDEST DUP2 MLOAD DUP2 LT PUSH2 0x17C4 JUMPI PUSH2 0x17C3 PUSH2 0x2852 JUMP JUMPDEST JUMPDEST PUSH1 0x20 ADD ADD MLOAD PUSH1 0xF8 SHR PUSH1 0xF8 SHL PUSH31 0xFFFFFFFFFFFFFFFFFFFFFFFFFFFFFFFFFFFFFFFFFFFFFFFFFFFFFFFFFFFFFF NOT AND EQ JUMPDEST DUP1 ISZERO PUSH2 0x184D JUMPI POP PUSH1 0x75 PUSH1 0xF8 SHL DUP5 PUSH1 0x25 DUP6 PUSH2 0x180D SWAP2 SWAP1 PUSH2 0x28F8 JUMP JUMPDEST DUP2 MLOAD DUP2 LT PUSH2 0x181E JUMPI PUSH2 0x181D PUSH2 0x2852 JUMP JUMPDEST JUMPDEST PUSH1 0x20 ADD ADD MLOAD PUSH1 0xF8 SHR PUSH1 0xF8 SHL PUSH31 0xFFFFFFFFFFFFFFFFFFFFFFFFFFFFFFFFFFFFFFFFFFFFFFFFFFFFFFFFFFFFFF NOT AND EQ JUMPDEST DUP1 ISZERO PUSH2 0x18A7 JUMPI POP PUSH1 0xAA PUSH1 0xF8 SHL DUP5 PUSH1 0x26 DUP6 PUSH2 0x1867 SWAP2 SWAP1 PUSH2 0x28F8 JUMP JUMPDEST DUP2 MLOAD DUP2 LT PUSH2 0x1878 JUMPI PUSH2 0x1877 PUSH2 0x2852 JUMP JUMPDEST JUMPDEST PUSH1 0x20 ADD ADD MLOAD PUSH1 0xF8 SHR PUSH1 0xF8 SHL PUSH31 0xFFFFFFFFFFFFFFFFFFFFFFFFFFFFFFFFFFFFFFFFFFFFFFFFFFFFFFFFFFFFFF NOT AND EQ JUMPDEST DUP1 ISZERO PUSH2 0x1901 JUMPI POP PUSH1 0x20 PUSH1 0xF8 SHL DUP5 PUSH1 0x27 DUP6 PUSH2 0x18C1 SWAP2 SWAP1 PUSH2 0x28F8 JUMP JUMPDEST DUP2 MLOAD DUP2 LT PUSH2 0x18D2 JUMPI PUSH2 0x18D1 PUSH2 0x2852 JUMP JUMPDEST JUMPDEST PUSH1 0x20 ADD ADD MLOAD PUSH1 0xF8 SHR PUSH1 0xF8 SHL PUSH31 0xFFFFFFFFFFFFFFFFFFFFFFFFFFFFFFFFFFFFFFFFFFFFFFFFFFFFFFFFFFFFFF NOT AND EQ JUMPDEST DUP1 ISZERO PUSH2 0x195B JUMPI POP PUSH1 0x88 PUSH1 0xF8 SHL DUP5 PUSH1 0x48 DUP6 PUSH2 0x191B SWAP2 SWAP1 PUSH2 0x28F8 JUMP JUMPDEST DUP2 MLOAD DUP2 LT PUSH2 0x192C JUMPI PUSH2 0x192B PUSH2 0x2852 JUMP JUMPDEST JUMPDEST PUSH1 0x20 ADD ADD MLOAD PUSH1 0xF8 SHR PUSH1 0xF8 SHL PUSH31 0xFFFFFFFFFFFFFFFFFFFFFFFFFFFFFFFFFFFFFFFFFFFFFFFFFFFFFFFFFFFFFF NOT AND EQ JUMPDEST DUP1 ISZERO PUSH2 0x19B5 JUMPI POP PUSH1 0x67 PUSH1 0xF8 SHL DUP5 PUSH1 0x49 DUP6 PUSH2 0x1975 SWAP2 SWAP1 PUSH2 0x28F8 JUMP JUMPDEST DUP2 MLOAD DUP2 LT PUSH2 0x1986 JUMPI PUSH2 0x1985 PUSH2 0x2852 JUMP JUMPDEST JUMPDEST PUSH1 0x20 ADD ADD MLOAD PUSH1 0xF8 SHR PUSH1 0xF8 SHL PUSH31 0xFFFFFFFFFFFFFFFFFFFFFFFFFFFFFFFFFFFFFFFFFFFFFFFFFFFFFFFFFFFFFF NOT AND EQ JUMPDEST DUP1 ISZERO PUSH2 0x1A0F JUMPI POP PUSH1 0x21 PUSH1 0xF8 SHL DUP5 PUSH1 0x4A DUP6 PUSH2 0x19CF SWAP2 SWAP1 PUSH2 0x28F8 JUMP JUMPDEST DUP2 MLOAD DUP2 LT PUSH2 0x19E0 JUMPI PUSH2 0x19DF PUSH2 0x2852 JUMP JUMPDEST JUMPDEST PUSH1 0x20 ADD ADD MLOAD PUSH1 0xF8 SHR PUSH1 0xF8 SHL PUSH31 0xFFFFFFFFFFFFFFFFFFFFFFFFFFFFFFFFFFFFFFFFFFFFFFFFFFFFFFFFFFFFFF NOT AND EQ JUMPDEST DUP1 ISZERO PUSH2 0x1A69 JUMPI POP PUSH1 0xAD PUSH1 0xF8 SHL DUP5 PUSH1 0x6C DUP6 PUSH2 0x1A29 SWAP2 SWAP1 PUSH2 0x28F8 JUMP JUMPDEST DUP2 MLOAD DUP2 LT PUSH2 0x1A3A JUMPI PUSH2 0x1A39 PUSH2 0x2852 JUMP JUMPDEST JUMPDEST PUSH1 0x20 ADD ADD MLOAD PUSH1 0xF8 SHR PUSH1 0xF8 SHL PUSH31 0xFFFFFFFFFFFFFFFFFFFFFFFFFFFFFFFFFFFFFFFFFFFFFFFFFFFFFFFFFFFFFF NOT AND EQ JUMPDEST DUP1 ISZERO PUSH2 0x1AC3 JUMPI POP PUSH1 0x52 PUSH1 0xF8 SHL DUP5 PUSH1 0x6D DUP6 PUSH2 0x1A83 SWAP2 SWAP1 PUSH2 0x28F8 JUMP JUMPDEST DUP2 MLOAD DUP2 LT PUSH2 0x1A94 JUMPI PUSH2 0x1A93 PUSH2 0x2852 JUMP JUMPDEST JUMPDEST PUSH1 0x20 ADD ADD MLOAD PUSH1 0xF8 SHR PUSH1 0xF8 SHL PUSH31 0xFFFFFFFFFFFFFFFFFFFFFFFFFFFFFFFFFFFFFFFFFFFFFFFFFFFFFFFFFFFFFF NOT AND EQ JUMPDEST DUP1 ISZERO PUSH2 0x1B1D JUMPI POP PUSH1 0xB2 PUSH1 0xF8 SHL DUP5 PUSH1 0x6E DUP6 PUSH2 0x1ADD SWAP2 SWAP1 PUSH2 0x28F8 JUMP JUMPDEST DUP2 MLOAD DUP2 LT PUSH2 0x1AEE JUMPI PUSH2 0x1AED PUSH2 0x2852 JUMP JUMPDEST JUMPDEST PUSH1 0x20 ADD ADD MLOAD PUSH1 0xF8 SHR PUSH1 0xF8 SHL PUSH31 0xFFFFFFFFFFFFFFFFFFFFFFFFFFFFFFFFFFFFFFFFFFFFFFFFFFFFFFFFFFFFFF NOT AND EQ JUMPDEST DUP1 ISZERO PUSH2 0x1B77 JUMPI POP PUSH1 0x75 PUSH1 0xF8 SHL DUP5 PUSH1 0x6F DUP6 PUSH2 0x1B37 SWAP2 SWAP1 PUSH2 0x28F8 JUMP JUMPDEST DUP2 MLOAD DUP2 LT PUSH2 0x1B48 JUMPI PUSH2 0x1B47 PUSH2 0x2852 JUMP JUMPDEST JUMPDEST PUSH1 0x20 ADD ADD MLOAD PUSH1 0xF8 SHR PUSH1 0xF8 SHL PUSH31 0xFFFFFFFFFFFFFFFFFFFFFFFFFFFFFFFFFFFFFFFFFFFFFFFFFFFFFFFFFFFFFF NOT AND EQ JUMPDEST DUP1 ISZERO PUSH2 0x1BD1 JUMPI POP PUSH1 0x68 PUSH1 0xF8 SHL DUP5 PUSH1 0x70 DUP6 PUSH2 0x1B91 SWAP2 SWAP1 PUSH2 0x28F8 JUMP JUMPDEST DUP2 MLOAD DUP2 LT PUSH2 0x1BA2 JUMPI PUSH2 0x1BA1 PUSH2 0x2852 JUMP JUMPDEST JUMPDEST PUSH1 0x20 ADD ADD MLOAD PUSH1 0xF8 SHR PUSH1 0xF8 SHL PUSH31 0xFFFFFFFFFFFFFFFFFFFFFFFFFFFFFFFFFFFFFFFFFFFFFFFFFFFFFFFFFFFFFF NOT AND EQ JUMPDEST DUP1 ISZERO PUSH2 0x1C2B JUMPI POP PUSH1 0x51 PUSH1 0xF8 SHL DUP5 PUSH1 0x71 DUP6 PUSH2 0x1BEB SWAP2 SWAP1 PUSH2 0x28F8 JUMP JUMPDEST DUP2 MLOAD DUP2 LT PUSH2 0x1BFC JUMPI PUSH2 0x1BFB PUSH2 0x2852 JUMP JUMPDEST JUMPDEST PUSH1 0x20 ADD ADD MLOAD PUSH1 0xF8 SHR PUSH1 0xF8 SHL PUSH31 0xFFFFFFFFFFFFFFFFFFFFFFFFFFFFFFFFFFFFFFFFFFFFFFFFFFFFFFFFFFFFFF NOT AND EQ JUMPDEST SWAP1 POP SWAP4 SWAP3 POP POP POP JUMP JUMPDEST PUSH2 0x1CCA DUP2 PUSH1 0x40 MLOAD PUSH1 0x24 ADD PUSH2 0x1C48 SWAP2 SWAP1 PUSH2 0x2B8F JUMP JUMPDEST PUSH1 0x40 MLOAD PUSH1 0x20 DUP2 DUP4 SUB SUB DUP2 MSTORE SWAP1 PUSH1 0x40 MSTORE PUSH32 0x41304FAC00000000000000000000000000000000000000000000000000000000 PUSH28 0xFFFFFFFFFFFFFFFFFFFFFFFFFFFFFFFFFFFFFFFFFFFFFFFFFFFFFFFF NOT AND PUSH1 0x20 DUP3 ADD DUP1 MLOAD PUSH28 0xFFFFFFFFFFFFFFFFFFFFFFFFFFFFFFFFFFFFFFFFFFFFFFFFFFFFFFFF DUP4 DUP2 DUP4 AND OR DUP4 MSTORE POP POP POP POP PUSH2 0x226B JUMP JUMPDEST POP JUMP JUMPDEST PUSH1 0x0 DUP1 PUSH1 0x0 SWAP1 POP PUSH1 0x0 JUMPDEST PUSH1 0x21 DUP2 LT ISZERO PUSH2 0x1D4A JUMPI DUP1 PUSH1 0x20 PUSH2 0x1CED SWAP2 SWAP1 PUSH2 0x2BB1 JUMP JUMPDEST PUSH1 0x8 PUSH2 0x1CF9 SWAP2 SWAP1 PUSH2 0x29DB JUMP JUMPDEST DUP6 DUP6 DUP4 PUSH2 0x1D06 SWAP2 SWAP1 PUSH2 0x28F8 JUMP JUMPDEST DUP2 MLOAD DUP2 LT PUSH2 0x1D17 JUMPI PUSH2 0x1D16 PUSH2 0x2852 JUMP JUMPDEST JUMPDEST PUSH1 0x20 ADD ADD MLOAD PUSH1 0xF8 SHR PUSH1 0xF8 SHL PUSH1 0xF8 SHR PUSH1 0xFF AND SWAP1 SHL DUP3 PUSH2 0x1D35 SWAP2 SWAP1 PUSH2 0x28F8 JUMP JUMPDEST SWAP2 POP DUP1 DUP1 PUSH2 0x1D42 SWAP1 PUSH2 0x28B0 JUMP JUMPDEST SWAP2 POP POP PUSH2 0x1CD7 JUMP JUMPDEST POP DUP1 PUSH1 0x0 SHL SWAP2 POP POP SWAP3 SWAP2 POP POP JUMP JUMPDEST PUSH1 0x0 DUP1 PUSH1 0x0 SWAP1 POP PUSH1 0x0 JUMPDEST PUSH1 0x20 DUP2 LT ISZERO PUSH2 0x1DD5 JUMPI DUP1 PUSH1 0x1F PUSH2 0x1D78 SWAP2 SWAP1 PUSH2 0x2BB1 JUMP JUMPDEST PUSH1 0x8 PUSH2 0x1D84 SWAP2 SWAP1 PUSH2 0x29DB JUMP JUMPDEST DUP6 DUP6 DUP4 PUSH2 0x1D91 SWAP2 SWAP1 PUSH2 0x28F8 JUMP JUMPDEST DUP2 MLOAD DUP2 LT PUSH2 0x1DA2 JUMPI PUSH2 0x1DA1 PUSH2 0x2852 JUMP JUMPDEST JUMPDEST PUSH1 0x20 ADD ADD MLOAD PUSH1 0xF8 SHR PUSH1 0xF8 SHL PUSH1 0xF8 SHR PUSH1 0xFF AND SWAP1 SHL DUP3 PUSH2 0x1DC0 SWAP2 SWAP1 PUSH2 0x28F8 JUMP JUMPDEST SWAP2 POP DUP1 DUP1 PUSH2 0x1DCD SWAP1 PUSH2 0x28B0 JUMP JUMPDEST SWAP2 POP POP PUSH2 0x1D62 JUMP JUMPDEST POP DUP1 PUSH1 0x0 SHL SWAP2 POP POP SWAP3 SWAP2 POP POP JUMP JUMPDEST PUSH1 0x0 PUSH1 0x19 DUP3 EQ DUP1 ISZERO PUSH2 0x1E37 JUMPI POP PUSH1 0x76 PUSH1 0xF8 SHL DUP5 DUP5 DUP2 MLOAD DUP2 LT PUSH2 0x1E08 JUMPI PUSH2 0x1E07 PUSH2 0x2852 JUMP JUMPDEST JUMPDEST PUSH1 0x20 ADD ADD MLOAD PUSH1 0xF8 SHR PUSH1 0xF8 SHL PUSH31 0xFFFFFFFFFFFFFFFFFFFFFFFFFFFFFFFFFFFFFFFFFFFFFFFFFFFFFFFFFFFFFF NOT AND EQ JUMPDEST DUP1 ISZERO PUSH2 0x1E91 JUMPI POP PUSH1 0xA9 PUSH1 0xF8 SHL DUP5 PUSH1 0x1 DUP6 PUSH2 0x1E51 SWAP2 SWAP1 PUSH2 0x28F8 JUMP JUMPDEST DUP2 MLOAD DUP2 LT PUSH2 0x1E62 JUMPI PUSH2 0x1E61 PUSH2 0x2852 JUMP JUMPDEST JUMPDEST PUSH1 0x20 ADD ADD MLOAD PUSH1 0xF8 SHR PUSH1 0xF8 SHL PUSH31 0xFFFFFFFFFFFFFFFFFFFFFFFFFFFFFFFFFFFFFFFFFFFFFFFFFFFFFFFFFFFFFF NOT AND EQ JUMPDEST DUP1 ISZERO PUSH2 0x1EEB JUMPI POP PUSH1 0x14 PUSH1 0xF8 SHL DUP5 PUSH1 0x2 DUP6 PUSH2 0x1EAB SWAP2 SWAP1 PUSH2 0x28F8 JUMP JUMPDEST DUP2 MLOAD DUP2 LT PUSH2 0x1EBC JUMPI PUSH2 0x1EBB PUSH2 0x2852 JUMP JUMPDEST JUMPDEST PUSH1 0x20 ADD ADD MLOAD PUSH1 0xF8 SHR PUSH1 0xF8 SHL PUSH31 0xFFFFFFFFFFFFFFFFFFFFFFFFFFFFFFFFFFFFFFFFFFFFFFFFFFFFFFFFFFFFFF NOT AND EQ JUMPDEST DUP1 ISZERO PUSH2 0x1F45 JUMPI POP PUSH1 0x88 PUSH1 0xF8 SHL DUP5 PUSH1 0x17 DUP6 PUSH2 0x1F05 SWAP2 SWAP1 PUSH2 0x28F8 JUMP JUMPDEST DUP2 MLOAD DUP2 LT PUSH2 0x1F16 JUMPI PUSH2 0x1F15 PUSH2 0x2852 JUMP JUMPDEST JUMPDEST PUSH1 0x20 ADD ADD MLOAD PUSH1 0xF8 SHR PUSH1 0xF8 SHL PUSH31 0xFFFFFFFFFFFFFFFFFFFFFFFFFFFFFFFFFFFFFFFFFFFFFFFFFFFFFFFFFFFFFF NOT AND EQ JUMPDEST DUP1 ISZERO PUSH2 0x1F9F JUMPI POP PUSH1 0xAC PUSH1 0xF8 SHL DUP5 PUSH1 0x18 DUP6 PUSH2 0x1F5F SWAP2 SWAP1 PUSH2 0x28F8 JUMP JUMPDEST DUP2 MLOAD DUP2 LT PUSH2 0x1F70 JUMPI PUSH2 0x1F6F PUSH2 0x2852 JUMP JUMPDEST JUMPDEST PUSH1 0x20 ADD ADD MLOAD PUSH1 0xF8 SHR PUSH1 0xF8 SHL PUSH31 0xFFFFFFFFFFFFFFFFFFFFFFFFFFFFFFFFFFFFFFFFFFFFFFFFFFFFFFFFFFFFFF NOT AND EQ JUMPDEST SWAP1 POP SWAP4 SWAP3 POP POP POP JUMP JUMPDEST PUSH1 0x0 DUP1 PUSH1 0x0 SWAP1 POP PUSH1 0x0 JUMPDEST PUSH1 0x14 DUP2 PUSH20 0xFFFFFFFFFFFFFFFFFFFFFFFFFFFFFFFFFFFFFFFF AND LT ISZERO PUSH2 0x207D JUMPI DUP1 PUSH1 0x13 PUSH2 0x1FDE SWAP2 SWAP1 PUSH2 0x2C05 JUMP JUMPDEST PUSH1 0x8 PUSH2 0x1FEA SWAP2 SWAP1 PUSH2 0x2C4D JUMP JUMPDEST PUSH20 0xFFFFFFFFFFFFFFFFFFFFFFFFFFFFFFFFFFFFFFFF AND DUP6 DUP6 DUP4 PUSH20 0xFFFFFFFFFFFFFFFFFFFFFFFFFFFFFFFFFFFFFFFF AND PUSH2 0x2023 SWAP2 SWAP1 PUSH2 0x28F8 JUMP JUMPDEST DUP2 MLOAD DUP2 LT PUSH2 0x2034 JUMPI PUSH2 0x2033 PUSH2 0x2852 JUMP JUMPDEST JUMPDEST PUSH1 0x20 ADD ADD MLOAD PUSH1 0xF8 SHR PUSH1 0xF8 SHL PUSH1 0xF8 SHR PUSH1 0xFF AND PUSH20 0xFFFFFFFFFFFFFFFFFFFFFFFFFFFFFFFFFFFFFFFF AND SWAP1 SHL DUP3 PUSH2 0x2068 SWAP2 SWAP1 PUSH2 0x2C8F JUMP JUMPDEST SWAP2 POP DUP1 DUP1 PUSH2 0x2075 SWAP1 PUSH2 0x2CD7 JUMP JUMPDEST SWAP2 POP POP PUSH2 0x1FB2 JUMP JUMPDEST POP DUP1 PUSH1 0x60 SHL SWAP2 POP POP SWAP3 SWAP2 POP POP JUMP JUMPDEST PUSH1 0x0 PUSH1 0x17 DUP3 EQ DUP1 ISZERO PUSH2 0x20EB JUMPI POP PUSH1 0xA9 PUSH1 0xF8 SHL DUP5 PUSH1 0x0 DUP6 PUSH2 0x20AB SWAP2 SWAP1 PUSH2 0x28F8 JUMP JUMPDEST DUP2 MLOAD DUP2 LT PUSH2 0x20BC JUMPI PUSH2 0x20BB PUSH2 0x2852 JUMP JUMPDEST JUMPDEST PUSH1 0x20 ADD ADD MLOAD PUSH1 0xF8 SHR PUSH1 0xF8 SHL PUSH31 0xFFFFFFFFFFFFFFFFFFFFFFFFFFFFFFFFFFFFFFFFFFFFFFFFFFFFFFFFFFFFFF NOT AND EQ JUMPDEST DUP1 ISZERO PUSH2 0x2145 JUMPI POP PUSH1 0x14 PUSH1 0xF8 SHL DUP5 PUSH1 0x1 DUP6 PUSH2 0x2105 SWAP2 SWAP1 PUSH2 0x28F8 JUMP JUMPDEST DUP2 MLOAD DUP2 LT PUSH2 0x2116 JUMPI PUSH2 0x2115 PUSH2 0x2852 JUMP JUMPDEST JUMPDEST PUSH1 0x20 ADD ADD MLOAD PUSH1 0xF8 SHR PUSH1 0xF8 SHL PUSH31 0xFFFFFFFFFFFFFFFFFFFFFFFFFFFFFFFFFFFFFFFFFFFFFFFFFFFFFFFFFFFFFF NOT AND EQ JUMPDEST DUP1 ISZERO PUSH2 0x219F JUMPI POP PUSH1 0x87 PUSH1 0xF8 SHL DUP5 PUSH1 0x16 DUP6 PUSH2 0x215F SWAP2 SWAP1 PUSH2 0x28F8 JUMP JUMPDEST DUP2 MLOAD DUP2 LT PUSH2 0x2170 JUMPI PUSH2 0x216F PUSH2 0x2852 JUMP JUMPDEST JUMPDEST PUSH1 0x20 ADD ADD MLOAD PUSH1 0xF8 SHR PUSH1 0xF8 SHL PUSH31 0xFFFFFFFFFFFFFFFFFFFFFFFFFFFFFFFFFFFFFFFFFFFFFFFFFFFFFFFFFFFFFF NOT AND EQ JUMPDEST SWAP1 POP SWAP4 SWAP3 POP POP POP JUMP JUMPDEST PUSH1 0x0 PUSH1 0x22 DUP3 EQ DUP1 ISZERO PUSH2 0x2208 JUMPI POP PUSH1 0x6A PUSH1 0xF8 SHL DUP5 PUSH1 0x0 DUP6 PUSH2 0x21C8 SWAP2 SWAP1 PUSH2 0x28F8 JUMP JUMPDEST DUP2 MLOAD DUP2 LT PUSH2 0x21D9 JUMPI PUSH2 0x21D8 PUSH2 0x2852 JUMP JUMPDEST JUMPDEST PUSH1 0x20 ADD ADD MLOAD PUSH1 0xF8 SHR PUSH1 0xF8 SHL PUSH31 0xFFFFFFFFFFFFFFFFFFFFFFFFFFFFFFFFFFFFFFFFFFFFFFFFFFFFFFFFFFFFFF NOT AND EQ JUMPDEST DUP1 ISZERO PUSH2 0x2262 JUMPI POP PUSH1 0x20 PUSH1 0xF8 SHL DUP5 PUSH1 0x1 DUP6 PUSH2 0x2222 SWAP2 SWAP1 PUSH2 0x28F8 JUMP JUMPDEST DUP2 MLOAD DUP2 LT PUSH2 0x2233 JUMPI PUSH2 0x2232 PUSH2 0x2852 JUMP JUMPDEST JUMPDEST PUSH1 0x20 ADD ADD MLOAD PUSH1 0xF8 SHR PUSH1 0xF8 SHL PUSH31 0xFFFFFFFFFFFFFFFFFFFFFFFFFFFFFFFFFFFFFFFFFFFFFFFFFFFFFFFFFFFFFF NOT AND EQ JUMPDEST SWAP1 POP SWAP4 SWAP3 POP POP POP JUMP JUMPDEST PUSH2 0x2282 DUP2 PUSH2 0x227A PUSH2 0x2285 PUSH2 0x22A6 JUMP JUMPDEST PUSH4 0xFFFFFFFF AND JUMP JUMPDEST POP JUMP JUMPDEST PUSH1 0x0 PUSH11 0x636F6E736F6C652E6C6F67 SWAP1 POP PUSH1 0x0 DUP1 DUP4 MLOAD PUSH1 0x20 DUP6 ADD DUP5 GAS STATICCALL POP POP POP JUMP JUMPDEST PUSH2 0x22FE DUP2 SWAP1 POP SWAP2 SWAP1 POP JUMP JUMPDEST DUP3 DUP1 SLOAD DUP3 DUP3 SSTORE SWAP1 PUSH1 0x0 MSTORE PUSH1 0x20 PUSH1 0x0 KECCAK256 SWAP1 DUP2 ADD SWAP3 DUP3 ISZERO PUSH2 0x22ED JUMPI SWAP2 PUSH1 0x20 MUL DUP3 ADD JUMPDEST DUP3 DUP2 GT ISZERO PUSH2 0x22EC JUMPI DUP3 MLOAD DUP3 SSTORE SWAP2 PUSH1 0x20 ADD SWAP2 SWAP1 PUSH1 0x1 ADD SWAP1 PUSH2 0x22D1 JUMP JUMPDEST JUMPDEST POP SWAP1 POP PUSH2 0x22FA SWAP2 SWAP1 PUSH2 0x2308 JUMP JUMPDEST POP SWAP1 JUMP JUMPDEST PUSH2 0x2306 PUSH2 0x2D13 JUMP JUMPDEST JUMP JUMPDEST JUMPDEST DUP1 DUP3 GT ISZERO PUSH2 0x2321 JUMPI PUSH1 0x0 DUP2 PUSH1 0x0 SWAP1 SSTORE POP PUSH1 0x1 ADD PUSH2 0x2309 JUMP JUMPDEST POP SWAP1 JUMP JUMPDEST PUSH1 0x0 PUSH1 0x40 MLOAD SWAP1 POP SWAP1 JUMP JUMPDEST PUSH1 0x0 DUP1 REVERT JUMPDEST PUSH1 0x0 DUP1 REVERT JUMPDEST PUSH1 0x0 DUP2 SWAP1 POP SWAP2 SWAP1 POP JUMP JUMPDEST PUSH2 0x234C DUP2 PUSH2 0x2339 JUMP JUMPDEST DUP2 EQ PUSH2 0x2357 JUMPI PUSH1 0x0 DUP1 REVERT JUMPDEST POP JUMP JUMPDEST PUSH1 0x0 DUP2 CALLDATALOAD SWAP1 POP PUSH2 0x2369 DUP2 PUSH2 0x2343 JUMP JUMPDEST SWAP3 SWAP2 POP POP JUMP JUMPDEST PUSH1 0x0 DUP2 SWAP1 POP SWAP2 SWAP1 POP JUMP JUMPDEST PUSH2 0x2382 DUP2 PUSH2 0x236F JUMP JUMPDEST DUP2 EQ PUSH2 0x238D JUMPI PUSH1 0x0 DUP1 REVERT JUMPDEST POP JUMP JUMPDEST PUSH1 0x0 DUP2 CALLDATALOAD SWAP1 POP PUSH2 0x239F DUP2 PUSH2 0x2379 JUMP JUMPDEST SWAP3 SWAP2 POP POP JUMP JUMPDEST PUSH1 0x0 DUP1 PUSH1 0x0 DUP1 PUSH1 0x0 PUSH1 0xA0 DUP7 DUP9 SUB SLT ISZERO PUSH2 0x23C1 JUMPI PUSH2 0x23C0 PUSH2 0x232F JUMP JUMPDEST JUMPDEST PUSH1 0x0 PUSH2 0x23CF DUP9 DUP3 DUP10 ADD PUSH2 0x235A JUMP JUMPDEST SWAP6 POP POP PUSH1 0x20 PUSH2 0x23E0 DUP9 DUP3 DUP10 ADD PUSH2 0x235A JUMP JUMPDEST SWAP5 POP POP PUSH1 0x40 PUSH2 0x23F1 DUP9 DUP3 DUP10 ADD PUSH2 0x235A JUMP JUMPDEST SWAP4 POP POP PUSH1 0x60 PUSH2 0x2402 DUP9 DUP3 DUP10 ADD PUSH2 0x2390 JUMP JUMPDEST SWAP3 POP POP PUSH1 0x80 PUSH2 0x2413 DUP9 DUP3 DUP10 ADD PUSH2 0x2390 JUMP JUMPDEST SWAP2 POP POP SWAP3 SWAP6 POP SWAP3 SWAP6 SWAP1 SWAP4 POP JUMP JUMPDEST PUSH1 0x0 DUP1 REVERT JUMPDEST PUSH1 0x0 DUP1 REVERT JUMPDEST PUSH1 0x0 PUSH1 0x1F NOT PUSH1 0x1F DUP4 ADD AND SWAP1 POP SWAP2 SWAP1 POP JUMP JUMPDEST PUSH32 0x4E487B7100000000000000000000000000000000000000000000000000000000 PUSH1 0x0 MSTORE PUSH1 0x41 PUSH1 0x4 MSTORE PUSH1 0x24 PUSH1 0x0 REVERT JUMPDEST PUSH2 0x2473 DUP3 PUSH2 0x242A JUMP JUMPDEST DUP2 ADD DUP2 DUP2 LT PUSH8 0xFFFFFFFFFFFFFFFF DUP3 GT OR ISZERO PUSH2 0x2492 JUMPI PUSH2 0x2491 PUSH2 0x243B JUMP JUMPDEST JUMPDEST DUP1 PUSH1 0x40 MSTORE POP POP POP JUMP JUMPDEST PUSH1 0x0 PUSH2 0x24A5 PUSH2 0x2325 JUMP JUMPDEST SWAP1 POP PUSH2 0x24B1 DUP3 DUP3 PUSH2 0x246A JUMP JUMPDEST SWAP2 SWAP1 POP JUMP JUMPDEST PUSH1 0x0 PUSH8 0xFFFFFFFFFFFFFFFF DUP3 GT ISZERO PUSH2 0x24D1 JUMPI PUSH2 0x24D0 PUSH2 0x243B JUMP JUMPDEST JUMPDEST PUSH2 0x24DA DUP3 PUSH2 0x242A JUMP JUMPDEST SWAP1 POP PUSH1 0x20 DUP2 ADD SWAP1 POP SWAP2 SWAP1 POP JUMP JUMPDEST DUP3 DUP2 DUP4 CALLDATACOPY PUSH1 0x0 DUP4 DUP4 ADD MSTORE POP POP POP JUMP JUMPDEST PUSH1 0x0 PUSH2 0x2509 PUSH2 0x2504 DUP5 PUSH2 0x24B6 JUMP JUMPDEST PUSH2 0x249B JUMP JUMPDEST SWAP1 POP DUP3 DUP2 MSTORE PUSH1 0x20 DUP2 ADD DUP5 DUP5 DUP5 ADD GT ISZERO PUSH2 0x2525 JUMPI PUSH2 0x2524 PUSH2 0x2425 JUMP JUMPDEST JUMPDEST PUSH2 0x2530 DUP5 DUP3 DUP6 PUSH2 0x24E7 JUMP JUMPDEST POP SWAP4 SWAP3 POP POP POP JUMP JUMPDEST PUSH1 0x0 DUP3 PUSH1 0x1F DUP4 ADD SLT PUSH2 0x254D JUMPI PUSH2 0x254C PUSH2 0x2420 JUMP JUMPDEST JUMPDEST DUP2 CALLDATALOAD PUSH2 0x255D DUP5 DUP3 PUSH1 0x20 DUP7 ADD PUSH2 0x24F6 JUMP JUMPDEST SWAP2 POP POP SWAP3 SWAP2 POP POP JUMP JUMPDEST PUSH1 0x0 DUP1 PUSH1 0x0 DUP1 PUSH1 0x80 DUP6 DUP8 SUB SLT ISZERO PUSH2 0x2580 JUMPI PUSH2 0x257F PUSH2 0x232F JUMP JUMPDEST JUMPDEST PUSH1 0x0 DUP6 ADD CALLDATALOAD PUSH8 0xFFFFFFFFFFFFFFFF DUP2 GT ISZERO PUSH2 0x259E JUMPI PUSH2 0x259D PUSH2 0x2334 JUMP JUMPDEST JUMPDEST PUSH2 0x25AA DUP8 DUP3 DUP9 ADD PUSH2 0x2538 JUMP JUMPDEST SWAP5 POP POP PUSH1 0x20 DUP6 ADD CALLDATALOAD PUSH8 0xFFFFFFFFFFFFFFFF DUP2 GT ISZERO PUSH2 0x25CB JUMPI PUSH2 0x25CA PUSH2 0x2334 JUMP JUMPDEST JUMPDEST PUSH2 0x25D7 DUP8 DUP3 DUP9 ADD PUSH2 0x2538 JUMP JUMPDEST SWAP4 POP POP PUSH1 0x40 DUP6 ADD CALLDATALOAD PUSH8 0xFFFFFFFFFFFFFFFF DUP2 GT ISZERO PUSH2 0x25F8 JUMPI PUSH2 0x25F7 PUSH2 0x2334 JUMP JUMPDEST JUMPDEST PUSH2 0x2604 DUP8 DUP3 DUP9 ADD PUSH2 0x2538 JUMP JUMPDEST SWAP3 POP POP PUSH1 0x60 DUP6 ADD CALLDATALOAD PUSH8 0xFFFFFFFFFFFFFFFF DUP2 GT ISZERO PUSH2 0x2625 JUMPI PUSH2 0x2624 PUSH2 0x2334 JUMP JUMPDEST JUMPDEST PUSH2 0x2631 DUP8 DUP3 DUP9 ADD PUSH2 0x2538 JUMP JUMPDEST SWAP2 POP POP SWAP3 SWAP6 SWAP2 SWAP5 POP SWAP3 POP JUMP JUMPDEST PUSH1 0x0 PUSH1 0x20 DUP3 DUP5 SUB SLT ISZERO PUSH2 0x2653 JUMPI PUSH2 0x2652 PUSH2 0x232F JUMP JUMPDEST JUMPDEST PUSH1 0x0 DUP3 ADD CALLDATALOAD PUSH8 0xFFFFFFFFFFFFFFFF DUP2 GT ISZERO PUSH2 0x2671 JUMPI PUSH2 0x2670 PUSH2 0x2334 JUMP JUMPDEST JUMPDEST PUSH2 0x267D DUP5 DUP3 DUP6 ADD PUSH2 0x2538 JUMP JUMPDEST SWAP2 POP POP SWAP3 SWAP2 POP POP JUMP JUMPDEST PUSH2 0x268F DUP2 PUSH2 0x236F JUMP JUMPDEST DUP3 MSTORE POP POP JUMP JUMPDEST PUSH2 0x269E DUP2 PUSH2 0x2339 JUMP JUMPDEST DUP3 MSTORE POP POP JUMP JUMPDEST PUSH1 0x0 PUSH2 0x100 DUP3 ADD SWAP1 POP PUSH2 0x26BA PUSH1 0x0 DUP4 ADD DUP12 PUSH2 0x2686 JUMP JUMPDEST PUSH2 0x26C7 PUSH1 0x20 DUP4 ADD DUP11 PUSH2 0x2695 JUMP JUMPDEST PUSH2 0x26D4 PUSH1 0x40 DUP4 ADD DUP10 PUSH2 0x2695 JUMP JUMPDEST PUSH2 0x26E1 PUSH1 0x60 DUP4 ADD DUP9 PUSH2 0x2695 JUMP JUMPDEST PUSH2 0x26EE PUSH1 0x80 DUP4 ADD DUP8 PUSH2 0x2686 JUMP JUMPDEST PUSH2 0x26FB PUSH1 0xA0 DUP4 ADD DUP7 PUSH2 0x2695 JUMP JUMPDEST PUSH2 0x2708 PUSH1 0xC0 DUP4 ADD DUP6 PUSH2 0x2686 JUMP JUMPDEST PUSH2 0x2715 PUSH1 0xE0 DUP4 ADD DUP5 PUSH2 0x2695 JUMP JUMPDEST SWAP10 SWAP9 POP POP POP POP POP POP POP POP POP JUMP JUMPDEST PUSH1 0x0 PUSH1 0x20 DUP3 ADD SWAP1 POP PUSH2 0x2737 PUSH1 0x0 DUP4 ADD DUP5 PUSH2 0x2686 JUMP JUMPDEST SWAP3 SWAP2 POP POP JUMP JUMPDEST PUSH1 0x0 PUSH1 0x40 DUP3 ADD SWAP1 POP PUSH2 0x2752 PUSH1 0x0 DUP4 ADD DUP6 PUSH2 0x2686 JUMP JUMPDEST PUSH2 0x275F PUSH1 0x20 DUP4 ADD DUP5 PUSH2 0x2695 JUMP JUMPDEST SWAP4 SWAP3 POP POP POP JUMP JUMPDEST PUSH1 0x0 DUP1 PUSH1 0x0 PUSH1 0x60 DUP5 DUP7 SUB SLT ISZERO PUSH2 0x277F JUMPI PUSH2 0x277E PUSH2 0x232F JUMP JUMPDEST JUMPDEST PUSH1 0x0 DUP5 ADD CALLDATALOAD PUSH8 0xFFFFFFFFFFFFFFFF DUP2 GT ISZERO PUSH2 0x279D JUMPI PUSH2 0x279C PUSH2 0x2334 JUMP JUMPDEST JUMPDEST PUSH2 0x27A9 DUP7 DUP3 DUP8 ADD PUSH2 0x2538 JUMP JUMPDEST SWAP4 POP POP PUSH1 0x20 DUP5 ADD CALLDATALOAD PUSH8 0xFFFFFFFFFFFFFFFF DUP2 GT ISZERO PUSH2 0x27CA JUMPI PUSH2 0x27C9 PUSH2 0x2334 JUMP JUMPDEST JUMPDEST PUSH2 0x27D6 DUP7 DUP3 DUP8 ADD PUSH2 0x2538 JUMP JUMPDEST SWAP3 POP POP PUSH1 0x40 DUP5 ADD CALLDATALOAD PUSH8 0xFFFFFFFFFFFFFFFF DUP2 GT ISZERO PUSH2 0x27F7 JUMPI PUSH2 0x27F6 PUSH2 0x2334 JUMP JUMPDEST JUMPDEST PUSH2 0x2803 DUP7 DUP3 DUP8 ADD PUSH2 0x2538 JUMP JUMPDEST SWAP2 POP POP SWAP3 POP SWAP3 POP SWAP3 JUMP JUMPDEST PUSH1 0x0 PUSH1 0x80 DUP3 ADD SWAP1 POP PUSH2 0x2822 PUSH1 0x0 DUP4 ADD DUP8 PUSH2 0x2686 JUMP JUMPDEST PUSH2 0x282F PUSH1 0x20 DUP4 ADD DUP7 PUSH2 0x2695 JUMP JUMPDEST PUSH2 0x283C PUSH1 0x40 DUP4 ADD DUP6 PUSH2 0x2695 JUMP JUMPDEST PUSH2 0x2849 PUSH1 0x60 DUP4 ADD DUP5 PUSH2 0x2695 JUMP JUMPDEST SWAP6 SWAP5 POP POP POP POP POP JUMP JUMPDEST PUSH32 0x4E487B7100000000000000000000000000000000000000000000000000000000 PUSH1 0x0 MSTORE PUSH1 0x32 PUSH1 0x4 MSTORE PUSH1 0x24 PUSH1 0x0 REVERT JUMPDEST PUSH32 0x4E487B7100000000000000000000000000000000000000000000000000000000 PUSH1 0x0 MSTORE PUSH1 0x11 PUSH1 0x4 MSTORE PUSH1 0x24 PUSH1 0x0 REVERT JUMPDEST PUSH1 0x0 PUSH2 0x28BB DUP3 PUSH2 0x236F JUMP JUMPDEST SWAP2 POP PUSH32 0xFFFFFFFFFFFFFFFFFFFFFFFFFFFFFFFFFFFFFFFFFFFFFFFFFFFFFFFFFFFFFFFF DUP3 SUB PUSH2 0x28ED JUMPI PUSH2 0x28EC PUSH2 0x2881 JUMP JUMPDEST JUMPDEST PUSH1 0x1 DUP3 ADD SWAP1 POP SWAP2 SWAP1 POP JUMP JUMPDEST PUSH1 0x0 PUSH2 0x2903 DUP3 PUSH2 0x236F JUMP JUMPDEST SWAP2 POP PUSH2 0x290E DUP4 PUSH2 0x236F JUMP JUMPDEST SWAP3 POP DUP3 DUP3 ADD SWAP1 POP DUP1 DUP3 GT ISZERO PUSH2 0x2926 JUMPI PUSH2 0x2925 PUSH2 0x2881 JUMP JUMPDEST JUMPDEST SWAP3 SWAP2 POP POP JUMP JUMPDEST PUSH1 0x0 DUP2 MLOAD SWAP1 POP SWAP2 SWAP1 POP JUMP JUMPDEST PUSH1 0x0 DUP3 DUP3 MSTORE PUSH1 0x20 DUP3 ADD SWAP1 POP SWAP3 SWAP2 POP POP JUMP JUMPDEST PUSH1 0x0 JUMPDEST DUP4 DUP2 LT ISZERO PUSH2 0x2966 JUMPI DUP1 DUP3 ADD MLOAD DUP2 DUP5 ADD MSTORE PUSH1 0x20 DUP2 ADD SWAP1 POP PUSH2 0x294B JUMP JUMPDEST PUSH1 0x0 DUP5 DUP5 ADD MSTORE POP POP POP POP JUMP JUMPDEST PUSH1 0x0 PUSH2 0x297D DUP3 PUSH2 0x292C JUMP JUMPDEST PUSH2 0x2987 DUP2 DUP6 PUSH2 0x2937 JUMP JUMPDEST SWAP4 POP PUSH2 0x2997 DUP2 DUP6 PUSH1 0x20 DUP7 ADD PUSH2 0x2948 JUMP JUMPDEST PUSH2 0x29A0 DUP2 PUSH2 0x242A JUMP JUMPDEST DUP5 ADD SWAP2 POP POP SWAP3 SWAP2 POP POP JUMP JUMPDEST PUSH1 0x0 PUSH1 0x40 DUP3 ADD SWAP1 POP DUP2 DUP2 SUB PUSH1 0x0 DUP4 ADD MSTORE PUSH2 0x29C5 DUP2 DUP6 PUSH2 0x2972 JUMP JUMPDEST SWAP1 POP PUSH2 0x29D4 PUSH1 0x20 DUP4 ADD DUP5 PUSH2 0x2686 JUMP JUMPDEST SWAP4 SWAP3 POP POP POP JUMP JUMPDEST PUSH1 0x0 PUSH2 0x29E6 DUP3 PUSH2 0x236F JUMP JUMPDEST SWAP2 POP PUSH2 0x29F1 DUP4 PUSH2 0x236F JUMP JUMPDEST SWAP3 POP DUP3 DUP3 MUL PUSH2 0x29FF DUP2 PUSH2 0x236F JUMP JUMPDEST SWAP2 POP DUP3 DUP3 DIV DUP5 EQ DUP4 ISZERO OR PUSH2 0x2A16 JUMPI PUSH2 0x2A15 PUSH2 0x2881 JUMP JUMPDEST JUMPDEST POP SWAP3 SWAP2 POP POP JUMP JUMPDEST PUSH1 0x0 PUSH2 0x2A28 DUP3 PUSH2 0x236F JUMP JUMPDEST SWAP2 POP PUSH1 0x0 DUP3 SUB PUSH2 0x2A3B JUMPI PUSH2 0x2A3A PUSH2 0x2881 JUMP JUMPDEST JUMPDEST PUSH1 0x1 DUP3 SUB SWAP1 POP SWAP2 SWAP1 POP JUMP JUMPDEST PUSH1 0x0 PUSH1 0x40 DUP3 ADD SWAP1 POP PUSH2 0x2A5B PUSH1 0x0 DUP4 ADD DUP6 PUSH2 0x2686 JUMP JUMPDEST PUSH2 0x2A68 PUSH1 0x20 DUP4 ADD DUP5 PUSH2 0x2686 JUMP JUMPDEST SWAP4 SWAP3 POP POP POP JUMP JUMPDEST PUSH1 0x0 PUSH1 0x40 DUP3 ADD SWAP1 POP DUP2 DUP2 SUB PUSH1 0x0 DUP4 ADD MSTORE PUSH2 0x2A89 DUP2 DUP6 PUSH2 0x2972 JUMP JUMPDEST SWAP1 POP DUP2 DUP2 SUB PUSH1 0x20 DUP4 ADD MSTORE PUSH2 0x2A9D DUP2 DUP5 PUSH2 0x2972 JUMP JUMPDEST SWAP1 POP SWAP4 SWAP3 POP POP POP JUMP JUMPDEST PUSH1 0x0 PUSH2 0xFFFF DUP3 AND SWAP1 POP SWAP2 SWAP1 POP JUMP JUMPDEST PUSH1 0x0 PUSH2 0x2ABF DUP3 PUSH2 0x2AA6 JUMP JUMPDEST SWAP2 POP PUSH2 0x2ACA DUP4 PUSH2 0x2AA6 JUMP JUMPDEST SWAP3 POP DUP3 DUP3 MUL PUSH2 0x2AD8 DUP2 PUSH2 0x2AA6 JUMP JUMPDEST SWAP2 POP DUP1 DUP3 EQ PUSH2 0x2AEA JUMPI PUSH2 0x2AE9 PUSH2 0x2881 JUMP JUMPDEST JUMPDEST POP SWAP3 SWAP2 POP POP JUMP JUMPDEST PUSH1 0x0 PUSH4 0xFFFFFFFF DUP3 AND SWAP1 POP SWAP2 SWAP1 POP JUMP JUMPDEST PUSH1 0x0 PUSH2 0x2B0C DUP3 PUSH2 0x2AF1 JUMP JUMPDEST SWAP2 POP PUSH2 0x2B17 DUP4 PUSH2 0x2AF1 JUMP JUMPDEST SWAP3 POP DUP3 DUP3 MUL PUSH2 0x2B25 DUP2 PUSH2 0x2AF1 JUMP JUMPDEST SWAP2 POP DUP1 DUP3 EQ PUSH2 0x2B37 JUMPI PUSH2 0x2B36 PUSH2 0x2881 JUMP JUMPDEST JUMPDEST POP SWAP3 SWAP2 POP POP JUMP JUMPDEST PUSH1 0x0 PUSH8 0xFFFFFFFFFFFFFFFF DUP3 AND SWAP1 POP SWAP2 SWAP1 POP JUMP JUMPDEST PUSH1 0x0 PUSH2 0x2B5D DUP3 PUSH2 0x2B3E JUMP JUMPDEST SWAP2 POP PUSH2 0x2B68 DUP4 PUSH2 0x2B3E JUMP JUMPDEST SWAP3 POP DUP3 DUP3 MUL PUSH2 0x2B76 DUP2 PUSH2 0x2B3E JUMP JUMPDEST SWAP2 POP DUP1 DUP3 EQ PUSH2 0x2B88 JUMPI PUSH2 0x2B87 PUSH2 0x2881 JUMP JUMPDEST JUMPDEST POP SWAP3 SWAP2 POP POP JUMP JUMPDEST PUSH1 0x0 PUSH1 0x20 DUP3 ADD SWAP1 POP DUP2 DUP2 SUB PUSH1 0x0 DUP4 ADD MSTORE PUSH2 0x2BA9 DUP2 DUP5 PUSH2 0x2972 JUMP JUMPDEST SWAP1 POP SWAP3 SWAP2 POP POP JUMP JUMPDEST PUSH1 0x0 PUSH2 0x2BBC DUP3 PUSH2 0x236F JUMP JUMPDEST SWAP2 POP PUSH2 0x2BC7 DUP4 PUSH2 0x236F JUMP JUMPDEST SWAP3 POP DUP3 DUP3 SUB SWAP1 POP DUP2 DUP2 GT ISZERO PUSH2 0x2BDF JUMPI PUSH2 0x2BDE PUSH2 0x2881 JUMP JUMPDEST JUMPDEST SWAP3 SWAP2 POP POP JUMP JUMPDEST PUSH1 0x0 PUSH20 0xFFFFFFFFFFFFFFFFFFFFFFFFFFFFFFFFFFFFFFFF DUP3 AND SWAP1 POP SWAP2 SWAP1 POP JUMP JUMPDEST PUSH1 0x0 PUSH2 0x2C10 DUP3 PUSH2 0x2BE5 JUMP JUMPDEST SWAP2 POP PUSH2 0x2C1B DUP4 PUSH2 0x2BE5 JUMP JUMPDEST SWAP3 POP DUP3 DUP3 SUB SWAP1 POP PUSH20 0xFFFFFFFFFFFFFFFFFFFFFFFFFFFFFFFFFFFFFFFF DUP2 GT ISZERO PUSH2 0x2C47 JUMPI PUSH2 0x2C46 PUSH2 0x2881 JUMP JUMPDEST JUMPDEST SWAP3 SWAP2 POP POP JUMP JUMPDEST PUSH1 0x0 PUSH2 0x2C58 DUP3 PUSH2 0x2BE5 JUMP JUMPDEST SWAP2 POP PUSH2 0x2C63 DUP4 PUSH2 0x2BE5 JUMP JUMPDEST SWAP3 POP DUP3 DUP3 MUL PUSH2 0x2C71 DUP2 PUSH2 0x2BE5 JUMP JUMPDEST SWAP2 POP DUP3 DUP3 DIV DUP5 EQ DUP4 ISZERO OR PUSH2 0x2C88 JUMPI PUSH2 0x2C87 PUSH2 0x2881 JUMP JUMPDEST JUMPDEST POP SWAP3 SWAP2 POP POP JUMP JUMPDEST PUSH1 0x0 PUSH2 0x2C9A DUP3 PUSH2 0x2BE5 JUMP JUMPDEST SWAP2 POP PUSH2 0x2CA5 DUP4 PUSH2 0x2BE5 JUMP JUMPDEST SWAP3 POP DUP3 DUP3 ADD SWAP1 POP PUSH20 0xFFFFFFFFFFFFFFFFFFFFFFFFFFFFFFFFFFFFFFFF DUP2 GT ISZERO PUSH2 0x2CD1 JUMPI PUSH2 0x2CD0 PUSH2 0x2881 JUMP JUMPDEST JUMPDEST SWAP3 SWAP2 POP POP JUMP JUMPDEST PUSH1 0x0 PUSH2 0x2CE2 DUP3 PUSH2 0x2BE5 JUMP JUMPDEST SWAP2 POP PUSH20 0xFFFFFFFFFFFFFFFFFFFFFFFFFFFFFFFFFFFFFFFF DUP3 SUB PUSH2 0x2D08 JUMPI PUSH2 0x2D07 PUSH2 0x2881 JUMP JUMPDEST JUMPDEST PUSH1 0x1 DUP3 ADD SWAP1 POP SWAP2 SWAP1 POP JUMP JUMPDEST PUSH32 0x4E487B7100000000000000000000000000000000000000000000000000000000 PUSH1 0x0 MSTORE PUSH1 0x51 PUSH1 0x4 MSTORE PUSH1 0x24 PUSH1 0x0 REVERT INVALID LOG2 PUSH5 0x6970667358 0x22 SLT KECCAK256 0xD 0xD5 0xAD LT 0xD6 SWAP9 0xBA SHL 0xE5 0xA6 0xC DUP14 SWAP3 0xBE SWAP7 0xD4 ADDRESS INVALID SWAP15 PUSH5 0xC04760FC95 PUSH23 0x19A07FB77D064736F6C63430008130033000000000000 "},"methodIdentifiers":{"dispute(bytes,bytes,bytes,bytes)":"43f104d2","htlc()":"e4b23d0c","opreturn()":"8504b3b9","out_aux()":"66b85d57","p2pkh()":"72ca346f","readThreeOutputs(bytes)":"3c1c0699","resolveDispute(bytes,bytes,bytes)":"79a85bd9","settle()":"11da60b4","setup(bytes32,bytes32,bytes32,uint256,uint256)":"06ac0e26","submitProof(bytes,bytes,bytes,bytes)":"3740d249","timestamp()":"b80777ea","timestamp_dispute()":"a5dd32ac"}}}}}