{"contracts/LNBridge.sol":{"LNBridge":{"abi":[{"inputs":[{"internalType":"uint256","name":"value","type":"uint256"},{"internalType":"uint256","name":"length","type":"uint256"}],"name":"StringsInsufficientHexLength","type":"error"},{"inputs":[{"internalType":"bytes","name":"rawTxP_locked","type":"bytes"},{"internalType":"bytes","name":"sigV","type":"bytes"},{"internalType":"bytes","name":"rawTxV_unlocked","type":"bytes"},{"internalType":"bytes","name":"sigP","type":"bytes"}],"name":"dispute","outputs":[],"stateMutability":"nonpayable","type":"function"},{"inputs":[{"internalType":"bytes","name":"_txBytes","type":"bytes"}],"name":"getTheTwoOutputs","outputs":[{"internalType":"uint256","name":"","type":"uint256"},{"internalType":"bytes20","name":"","type":"bytes20"},{"internalType":"uint256","name":"","type":"uint256"},{"internalType":"bytes20","name":"","type":"bytes20"}],"stateMutability":"nonpayable","type":"function"},{"inputs":[{"internalType":"bytes","name":"oldRevSecret","type":"bytes"},{"internalType":"bytes","name":"rawTxP_unlocked","type":"bytes"},{"internalType":"bytes","name":"sigV","type":"bytes"}],"name":"resolveDispute","outputs":[],"stateMutability":"nonpayable","type":"function"},{"inputs":[],"name":"settle","outputs":[],"stateMutability":"nonpayable","type":"function"},{"inputs":[{"internalType":"bytes32","name":"_fundingTxId","type":"bytes32"},{"internalType":"bytes32","name":"_pkProver","type":"bytes32"},{"internalType":"bytes32","name":"_pkVerifier","type":"bytes32"},{"internalType":"uint256","name":"_index","type":"uint256"},{"internalType":"uint256","name":"_timestamp","type":"uint256"}],"name":"setup","outputs":[],"stateMutability":"nonpayable","type":"function"},{"inputs":[{"internalType":"bytes","name":"rawTxP_unlocked","type":"bytes"},{"internalType":"bytes","name":"sigV","type":"bytes"},{"internalType":"bytes","name":"rawTxV_unlocked","type":"bytes"},{"internalType":"bytes","name":"sigP","type":"bytes"}],"name":"submitProof","outputs":[],"stateMutability":"nonpayable","type":"function"},{"inputs":[],"name":"timestamp","outputs":[{"internalType":"uint256","name":"","type":"uint256"}],"stateMutability":"view","type":"function"},{"inputs":[],"name":"timestamp_dispute","outputs":[{"internalType":"uint256","name":"","type":"uint256"}],"stateMutability":"view","type":"function"},{"inputs":[{"internalType":"bytes","name":"pk","type":"bytes"},{"internalType":"bytes32","name":"digest","type":"bytes32"},{"internalType":"uint8","name":"v","type":"uint8"},{"internalType":"bytes32","name":"r","type":"bytes32"},{"internalType":"bytes32","name":"s","type":"bytes32"}],"name":"verifySignature","outputs":[{"internalType":"bool","name":"","type":"bool"}],"stateMutability":"view","type":"function"}],"evm":{"bytecode":{"linkReferences":{},"object":"608060405234801561001057600080fd5b50612661806100206000396000f3fe608060405234801561001057600080fd5b50600436106100935760003560e01c806347aa95731161006657806347aa9573146100f657806379a85bd914610126578063a5dd32ac14610142578063b80777ea14610160578063e605c7671461017e57610093565b806306ac0e261461009857806311da60b4146100b45780633740d249146100be57806343f104d2146100da575b600080fd5b6100b260048036038101906100ad9190611a40565b6101b1565b005b6100bc6101db565b005b6100d860048036038101906100d39190611c01565b6101dd565b005b6100f460048036038101906100ef9190611c01565b6101e3565b005b610110600480360381019061010b9190611d11565b6101e9565b60405161011d9190611dc3565b60405180910390f35b610140600480360381019061013b9190611dde565b610203565b005b61014a610208565b6040516101579190611e94565b60405180910390f35b61016861020e565b6040516101759190611e94565b60405180910390f35b61019860048036038101906101939190611eaf565b610214565b6040516101a89493929190611f33565b60405180910390f35b84600081905550836001819055508260028190555081600381905550806004819055505050505050565b565b50505050565b50505050565b60006101f8868686868661035c565b905095945050505050565b505050565b60055481565b60045481565b6000806000806000806000806102298961043e565b809450819550829650839750505050506102786040518060400160405280600a81526020017f436865636b206f6e653a0000000000000000000000000000000000000000000081525085610728565b6102bf6040518060400160405280600a81526020017f436865636b2074776f3a000000000000000000000000000000000000000000008152506102ba856107c4565b6107f4565b6102fe6040518060400160405280600c81526020017f436865636b2074687265653a000000000000000000000000000000000000000081525083610728565b6103456040518060400160405280600b81526020017f436865636b20666f75723a000000000000000000000000000000000000000000815250610340836107c4565b6107f4565b838383839750975097509750505050509193509193565b600060408651146103a2576040517f08c379a000000000000000000000000000000000000000000000000000000000815260040161039990612021565b60405180910390fd5b60006103ad87610890565b90506000600187878787604051600081526020016040526040516103d4949392919061205f565b6020604051602081039080840390855afa1580156103f6573d6000803e3d6000fd5b5050506020604051035190508173ffffffffffffffffffffffffffffffffffffffff168173ffffffffffffffffffffffffffffffffffffffff16149250505095945050505050565b600080600080600080600267ffffffffffffffff81111561046257610461611ad6565b5b6040519080825280602002602001820160405280156104905781602001602082028036833780820191505090505b5090506000600267ffffffffffffffff8111156104b0576104af611ad6565b5b6040519080825280602002602001820160405280156104de5781602001602082028036833780820191505090505b5090506000600267ffffffffffffffff8111156104fe576104fd611ad6565b5b60405190808252806020026020018201604052801561052c5781602001602082028036833780820191505090505b5090506000600267ffffffffffffffff81111561054c5761054b611ad6565b5b60405190808252806020026020018201604052801561057a5781602001602082028036833780820191505090505b5090506000600267ffffffffffffffff81111561059a57610599611ad6565b5b6040519080825280602002602001820160405280156105c85781602001602082028036833780820191505090505b509050600495506105db8b876000610908565b80975081965050506105ef8b876002610a1a565b8099508197508296508395505050505060005b60028110156106a257600061064c8d868481518110610624576106236120a4565b5b602002602001015188858151811061063f5761063e6120a4565b5b6020026020010151610c11565b905080838381518110610662576106616120a4565b5b60200260200101906bffffffffffffffffffffffff191690816bffffffffffffffffffffffff19168152505050808061069a90612102565b915050610602565b50816000815181106106b7576106b66120a4565b5b6020026020010151816000815181106106d3576106d26120a4565b5b6020026020010151836001815181106106ef576106ee6120a4565b5b60200260200101518360018151811061070b5761070a6120a4565b5b602002602001015199509950995099505050505050509193509193565b6107c0828260405160240161073e9291906121b8565b6040516020818303038152906040527fb60e72cc000000000000000000000000000000000000000000000000000000007bffffffffffffffffffffffffffffffffffffffffffffffffffffffff19166020820180517bffffffffffffffffffffffffffffffffffffffffffffffffffffffff8381831617835250505050610c7c565b5050565b60606107ed8260601c73ffffffffffffffffffffffffffffffffffffffff16601460ff16610c96565b9050919050565b61088c828260405160240161080a9291906121e8565b6040516020818303038152906040527f4b5c4277000000000000000000000000000000000000000000000000000000007bffffffffffffffffffffffffffffffffffffffffffffffffffffffff19166020820180517bffffffffffffffffffffffffffffffffffffffffffffffffffffffff8381831617835250505050610c7c565b5050565b600060408251146108d6576040517f08c379a00000000000000000000000000000000000000000000000000000000081526004016108cd90612291565b60405180910390fd5b60006108fa6108ef600085610edc90919063ffffffff16565b62ffffff1916610f07565b90508060001c915050919050565b606060008060008061091a8888610f4a565b8098508194505050600086148061093057508286115b1561093d57829150610941565b8591505b60008267ffffffffffffffff81111561095d5761095c611ad6565b5b60405190808252806020026020018201604052801561098b5781602001602082028036833780820191505090505b50905060005b83811015610a07576024896109a691906122b1565b98506109b28a8a610f4a565b809a508194505050828282815181106109ce576109cd6120a4565b5b6020026020010181815250506004836109e791906122b1565b896109f291906122b1565b985080806109ff90612102565b915050610991565b5080889550955050505050935093915050565b6060806060600080600080610a2f8a8a610f4a565b809a5081945050506000881480610a4557508288115b15610a5257829150610a56565b8791505b60008267ffffffffffffffff811115610a7257610a71611ad6565b5b604051908082528060200260200182016040528015610aa05781602001602082028036833780820191505090505b50905060008367ffffffffffffffff811115610abf57610abe611ad6565b5b604051908082528060200260200182016040528015610aed5781602001602082028036833780820191505090505b50905060008467ffffffffffffffff811115610b0c57610b0b611ad6565b5b604051908082528060200260200182016040528015610b3a5781602001602082028036833780820191505090505b50905060005b85811015610bf557610b548e8e6040611032565b828281518110610b6757610b666120a4565b5b60200260200101818152505060088d610b8091906122b1565b9c50610b8c8e8e610f4a565b809e5081965050508c848281518110610ba857610ba76120a4565b5b60200260200101818152505084838281518110610bc857610bc76120a4565b5b602002602001018181525050848d610be091906122b1565b9c508080610bed90612102565b915050610b40565b508083838e995099509950995050505050505093509350935093565b6000610c1e84848461149d565b15610c4057610c3984600385610c3491906122b1565b611662565b9050610c75565b610c4b848484611745565b15610c6d57610c6684600285610c6191906122b1565b611662565b9050610c75565b600060601b90505b9392505050565b610c9381610c8b611862611883565b63ffffffff16565b50565b6060600083905060006002846002610cae91906122e5565b610cb891906122b1565b67ffffffffffffffff811115610cd157610cd0611ad6565b5b6040519080825280601f01601f191660200182016040528015610d035781602001600182028036833780820191505090505b5090507f300000000000000000000000000000000000000000000000000000000000000081600081518110610d3b57610d3a6120a4565b5b60200101907effffffffffffffffffffffffffffffffffffffffffffffffffffffffffffff1916908160001a9053507f780000000000000000000000000000000000000000000000000000000000000081600181518110610d9f57610d9e6120a4565b5b60200101907effffffffffffffffffffffffffffffffffffffffffffffffffffffffffffff1916908160001a90535060006001856002610ddf91906122e5565b610de991906122b1565b90505b6001811115610e89577f3031323334353637383961626364656600000000000000000000000000000000600f841660108110610e2b57610e2a6120a4565b5b1a60f81b828281518110610e4257610e416120a4565b5b60200101907effffffffffffffffffffffffffffffffffffffffffffffffffffffffffffff1916908160001a905350600483901c925080610e8290612327565b9050610dec565b5060008214610ed15784846040517fe22e27eb000000000000000000000000000000000000000000000000000000008152600401610ec8929190612350565b60405180910390fd5b809250505092915050565b600080835190506000602085019050610efd8464ffffffffff16828461188e565b9250505092915050565b600080610f13836118fc565b6bffffffffffffffffffffffff1690506000610f2e8461191c565b6bffffffffffffffffffffffff16905080822092505050919050565b6000806000848481518110610f6257610f616120a4565b5b602001015160f81c60f81b60f81c9050600184610f7f91906122b1565b935060fd8160ff161015610f9f5780848160ff169150925092505061102b565b60fd8160ff1603610fcd57610fb685856010611032565b600285610fc391906122b1565b925092505061102b565b60fe8160ff1603610ffb57610fe485856020611032565b600485610ff191906122b1565b925092505061102b565b60ff8160ff16036110295761101285856040611032565b60088561101f91906122b1565b925092505061102b565b505b9250929050565b6000600882036110675783838151811061104f5761104e6120a4565b5b602001015160f81c60f81b60f81c60ff169050611496565b601082036110e9576101008460018561108091906122b1565b81518110611091576110906120a4565b5b602001015160f81c60f81b60f81c60ff166110ac9190612387565b61ffff168484815181106110c3576110c26120a4565b5b602001015160f81c60f81b60f81c60ff1661ffff166110e291906122b1565b9050611496565b6020820361120c5763010000008460038561110491906122b1565b81518110611115576111146120a4565b5b602001015160f81c60f81b60f81c60ff1661113091906123d4565b63ffffffff16620100008560028661114891906122b1565b81518110611159576111586120a4565b5b602001015160f81c60f81b60f81c60ff1661117491906123d4565b63ffffffff166101008660018761118b91906122b1565b8151811061119c5761119b6120a4565b5b602001015160f81c60f81b60f81c60ff166111b791906123d4565b63ffffffff168686815181106111d0576111cf6120a4565b5b602001015160f81c60f81b60f81c60ff1663ffffffff166111f191906122b1565b6111fb91906122b1565b61120591906122b1565b9050611496565b60408203611495576701000000000000008460078561122b91906122b1565b8151811061123c5761123b6120a4565b5b602001015160f81c60f81b60f81c60ff166112579190612425565b67ffffffffffffffff1666010000000000008560068661127791906122b1565b81518110611288576112876120a4565b5b602001015160f81c60f81b60f81c60ff166112a39190612425565b67ffffffffffffffff1665010000000000866005876112c291906122b1565b815181106112d3576112d26120a4565b5b602001015160f81c60f81b60f81c60ff166112ee9190612425565b67ffffffffffffffff166401000000008760048861130c91906122b1565b8151811061131d5761131c6120a4565b5b602001015160f81c60f81b60f81c60ff166113389190612425565b67ffffffffffffffff1663010000008860038961135591906122b1565b81518110611366576113656120a4565b5b602001015160f81c60f81b60f81c60ff166113819190612425565b67ffffffffffffffff16620100008960028a61139d91906122b1565b815181106113ae576113ad6120a4565b5b602001015160f81c60f81b60f81c60ff166113c99190612425565b67ffffffffffffffff166101008a60018b6113e491906122b1565b815181106113f5576113f46120a4565b5b602001015160f81c60f81b60f81c60ff166114109190612425565b67ffffffffffffffff168a8a8151811061142d5761142c6120a4565b5b602001015160f81c60f81b60f81c60ff1667ffffffffffffffff1661145291906122b1565b61145c91906122b1565b61146691906122b1565b61147091906122b1565b61147a91906122b1565b61148491906122b1565b61148e91906122b1565b9050611496565b5b9392505050565b60006019821480156114f15750607660f81b8484815181106114c2576114c16120a4565b5b602001015160f81c60f81b7effffffffffffffffffffffffffffffffffffffffffffffffffffffffffffff1916145b801561154b575060a960f81b8460018561150b91906122b1565b8151811061151c5761151b6120a4565b5b602001015160f81c60f81b7effffffffffffffffffffffffffffffffffffffffffffffffffffffffffffff1916145b80156115a55750601460f81b8460028561156591906122b1565b81518110611576576115756120a4565b5b602001015160f81c60f81b7effffffffffffffffffffffffffffffffffffffffffffffffffffffffffffff1916145b80156115ff5750608860f81b846017856115bf91906122b1565b815181106115d0576115cf6120a4565b5b602001015160f81c60f81b7effffffffffffffffffffffffffffffffffffffffffffffffffffffffffffff1916145b8015611659575060ac60f81b8460188561161991906122b1565b8151811061162a576116296120a4565b5b602001015160f81c60f81b7effffffffffffffffffffffffffffffffffffffffffffffffffffffffffffff1916145b90509392505050565b6000806000905060005b60148173ffffffffffffffffffffffffffffffffffffffff161015611737578060136116989190612482565b60086116a491906124ca565b73ffffffffffffffffffffffffffffffffffffffff1685858373ffffffffffffffffffffffffffffffffffffffff166116dd91906122b1565b815181106116ee576116ed6120a4565b5b602001015160f81c60f81b60f81c60ff1673ffffffffffffffffffffffffffffffffffffffff16901b82611722919061250c565b9150808061172f90612554565b91505061166c565b508060601b91505092915050565b60006017821480156117a5575060a960f81b8460008561176591906122b1565b81518110611776576117756120a4565b5b602001015160f81c60f81b7effffffffffffffffffffffffffffffffffffffffffffffffffffffffffffff1916145b80156117ff5750601460f81b846001856117bf91906122b1565b815181106117d0576117cf6120a4565b5b602001015160f81c60f81b7effffffffffffffffffffffffffffffffffffffffffffffffffffffffffffff1916145b80156118595750608760f81b8460168561181991906122b1565b8151811061182a576118296120a4565b5b602001015160f81c60f81b7effffffffffffffffffffffffffffffffffffffffffffffffffffffffffffff1916145b90509392505050565b60006a636f6e736f6c652e6c6f679050600080835160208501845afa505050565b6119b6819050919050565b6000806118a4838561193c90919063ffffffff16565b90506040518111156118b557600090505b600081036118e6577fffffffffffffffffffffffffffffffffffffffffffffffffffffffffff0000009150506118f5565b6118f1858585611995565b9150505b9392505050565b6000806bffffffffffffffffffffffff9050808360781c16915050919050565b6000806bffffffffffffffffffffffff9050808360181c16915050919050565b6000818361194a91906122b1565b90508281101561198f576040517f08c379a0000000000000000000000000000000000000000000000000000000008152600401611986906125dc565b60405180910390fd5b92915050565b600083811760601b905082811760601b905081811760181b90509392505050565b6119be6125fc565b565b6000604051905090565b600080fd5b600080fd5b6000819050919050565b6119e7816119d4565b81146119f257600080fd5b50565b600081359050611a04816119de565b92915050565b6000819050919050565b611a1d81611a0a565b8114611a2857600080fd5b50565b600081359050611a3a81611a14565b92915050565b600080600080600060a08688031215611a5c57611a5b6119ca565b5b6000611a6a888289016119f5565b9550506020611a7b888289016119f5565b9450506040611a8c888289016119f5565b9350506060611a9d88828901611a2b565b9250506080611aae88828901611a2b565b9150509295509295909350565b600080fd5b600080fd5b6000601f19601f8301169050919050565b7f4e487b7100000000000000000000000000000000000000000000000000000000600052604160045260246000fd5b611b0e82611ac5565b810181811067ffffffffffffffff82111715611b2d57611b2c611ad6565b5b80604052505050565b6000611b406119c0565b9050611b4c8282611b05565b919050565b600067ffffffffffffffff821115611b6c57611b6b611ad6565b5b611b7582611ac5565b9050602081019050919050565b82818337600083830152505050565b6000611ba4611b9f84611b51565b611b36565b905082815260208101848484011115611bc057611bbf611ac0565b5b611bcb848285611b82565b509392505050565b600082601f830112611be857611be7611abb565b5b8135611bf8848260208601611b91565b91505092915050565b60008060008060808587031215611c1b57611c1a6119ca565b5b600085013567ffffffffffffffff811115611c3957611c386119cf565b5b611c4587828801611bd3565b945050602085013567ffffffffffffffff811115611c6657611c656119cf565b5b611c7287828801611bd3565b935050604085013567ffffffffffffffff811115611c9357611c926119cf565b5b611c9f87828801611bd3565b925050606085013567ffffffffffffffff811115611cc057611cbf6119cf565b5b611ccc87828801611bd3565b91505092959194509250565b600060ff82169050919050565b611cee81611cd8565b8114611cf957600080fd5b50565b600081359050611d0b81611ce5565b92915050565b600080600080600060a08688031215611d2d57611d2c6119ca565b5b600086013567ffffffffffffffff811115611d4b57611d4a6119cf565b5b611d5788828901611bd3565b9550506020611d68888289016119f5565b9450506040611d7988828901611cfc565b9350506060611d8a888289016119f5565b9250506080611d9b888289016119f5565b9150509295509295909350565b60008115159050919050565b611dbd81611da8565b82525050565b6000602082019050611dd86000830184611db4565b92915050565b600080600060608486031215611df757611df66119ca565b5b600084013567ffffffffffffffff811115611e1557611e146119cf565b5b611e2186828701611bd3565b935050602084013567ffffffffffffffff811115611e4257611e416119cf565b5b611e4e86828701611bd3565b925050604084013567ffffffffffffffff811115611e6f57611e6e6119cf565b5b611e7b86828701611bd3565b9150509250925092565b611e8e81611a0a565b82525050565b6000602082019050611ea96000830184611e85565b92915050565b600060208284031215611ec557611ec46119ca565b5b600082013567ffffffffffffffff811115611ee357611ee26119cf565b5b611eef84828501611bd3565b91505092915050565b60007fffffffffffffffffffffffffffffffffffffffff00000000000000000000000082169050919050565b611f2d81611ef8565b82525050565b6000608082019050611f486000830187611e85565b611f556020830186611f24565b611f626040830185611e85565b611f6f6060830184611f24565b95945050505050565b600082825260208201905092915050565b7f436865636b426974636f696e536967732f636865636b536967202d2d2052657160008201527f756972657320756e636f6d7072657373656420756e707265666978656420707560208201527f626b657900000000000000000000000000000000000000000000000000000000604082015250565b600061200b604483611f78565b915061201682611f89565b606082019050919050565b6000602082019050818103600083015261203a81611ffe565b9050919050565b61204a816119d4565b82525050565b61205981611cd8565b82525050565b60006080820190506120746000830187612041565b6120816020830186612050565b61208e6040830185612041565b61209b6060830184612041565b95945050505050565b7f4e487b7100000000000000000000000000000000000000000000000000000000600052603260045260246000fd5b7f4e487b7100000000000000000000000000000000000000000000000000000000600052601160045260246000fd5b600061210d82611a0a565b91507fffffffffffffffffffffffffffffffffffffffffffffffffffffffffffffffff820361213f5761213e6120d3565b5b600182019050919050565b600081519050919050565b60005b83811015612173578082015181840152602081019050612158565b60008484015250505050565b600061218a8261214a565b6121948185611f78565b93506121a4818560208601612155565b6121ad81611ac5565b840191505092915050565b600060408201905081810360008301526121d2818561217f565b90506121e16020830184611e85565b9392505050565b60006040820190508181036000830152612202818561217f565b90508181036020830152612216818461217f565b90509392505050565b7f5075626b6579206d7573742062652036342d62797465207261772c20756e636f60008201527f6d70726573736564206b65792e00000000000000000000000000000000000000602082015250565b600061227b602d83611f78565b91506122868261221f565b604082019050919050565b600060208201905081810360008301526122aa8161226e565b9050919050565b60006122bc82611a0a565b91506122c783611a0a565b92508282019050808211156122df576122de6120d3565b5b92915050565b60006122f082611a0a565b91506122fb83611a0a565b925082820261230981611a0a565b915082820484148315176123205761231f6120d3565b5b5092915050565b600061233282611a0a565b915060008203612345576123446120d3565b5b600182039050919050565b60006040820190506123656000830185611e85565b6123726020830184611e85565b9392505050565b600061ffff82169050919050565b600061239282612379565b915061239d83612379565b92508282026123ab81612379565b91508082146123bd576123bc6120d3565b5b5092915050565b600063ffffffff82169050919050565b60006123df826123c4565b91506123ea836123c4565b92508282026123f8816123c4565b915080821461240a576124096120d3565b5b5092915050565b600067ffffffffffffffff82169050919050565b600061243082612411565b915061243b83612411565b925082820261244981612411565b915080821461245b5761245a6120d3565b5b5092915050565b600073ffffffffffffffffffffffffffffffffffffffff82169050919050565b600061248d82612462565b915061249883612462565b9250828203905073ffffffffffffffffffffffffffffffffffffffff8111156124c4576124c36120d3565b5b92915050565b60006124d582612462565b91506124e083612462565b92508282026124ee81612462565b91508282048414831517612505576125046120d3565b5b5092915050565b600061251782612462565b915061252283612462565b9250828201905073ffffffffffffffffffffffffffffffffffffffff81111561254e5761254d6120d3565b5b92915050565b600061255f82612462565b915073ffffffffffffffffffffffffffffffffffffffff8203612585576125846120d3565b5b600182019050919050565b7f4f766572666c6f7720647572696e67206164646974696f6e2e00000000000000600082015250565b60006125c6601983611f78565b91506125d182612590565b602082019050919050565b600060208201905081810360008301526125f5816125b9565b9050919050565b7f4e487b7100000000000000000000000000000000000000000000000000000000600052605160045260246000fdfea2646970667358221220013b5c2d55cbe986a7d97cb18f7922dcc184335a90cf0cfee8f4025c9bb72af964736f6c63430008130033","opcodes":"PUSH1 0x80 PUSH1 0x40 MSTORE CALLVALUE DUP1 ISZERO PUSH2 0x10 JUMPI PUSH1 0x0 DUP1 REVERT JUMPDEST POP PUSH2 0x2661 DUP1 PUSH2 0x20 PUSH1 0x0 CODECOPY PUSH1 0x0 RETURN INVALID PUSH1 0x80 PUSH1 0x40 MSTORE CALLVALUE DUP1 ISZERO PUSH2 0x10 JUMPI PUSH1 0x0 DUP1 REVERT JUMPDEST POP PUSH1 0x4 CALLDATASIZE LT PUSH2 0x93 JUMPI PUSH1 0x0 CALLDATALOAD PUSH1 0xE0 SHR DUP1 PUSH4 0x47AA9573 GT PUSH2 0x66 JUMPI DUP1 PUSH4 0x47AA9573 EQ PUSH2 0xF6 JUMPI DUP1 PUSH4 0x79A85BD9 EQ PUSH2 0x126 JUMPI DUP1 PUSH4 0xA5DD32AC EQ PUSH2 0x142 JUMPI DUP1 PUSH4 0xB80777EA EQ PUSH2 0x160 JUMPI DUP1 PUSH4 0xE605C767 EQ PUSH2 0x17E JUMPI PUSH2 0x93 JUMP JUMPDEST DUP1 PUSH4 0x6AC0E26 EQ PUSH2 0x98 JUMPI DUP1 PUSH4 0x11DA60B4 EQ PUSH2 0xB4 JUMPI DUP1 PUSH4 0x3740D249 EQ PUSH2 0xBE JUMPI DUP1 PUSH4 0x43F104D2 EQ PUSH2 0xDA JUMPI JUMPDEST PUSH1 0x0 DUP1 REVERT JUMPDEST PUSH2 0xB2 PUSH1 0x4 DUP1 CALLDATASIZE SUB DUP2 ADD SWAP1 PUSH2 0xAD SWAP2 SWAP1 PUSH2 0x1A40 JUMP JUMPDEST PUSH2 0x1B1 JUMP JUMPDEST STOP JUMPDEST PUSH2 0xBC PUSH2 0x1DB JUMP JUMPDEST STOP JUMPDEST PUSH2 0xD8 PUSH1 0x4 DUP1 CALLDATASIZE SUB DUP2 ADD SWAP1 PUSH2 0xD3 SWAP2 SWAP1 PUSH2 0x1C01 JUMP JUMPDEST PUSH2 0x1DD JUMP JUMPDEST STOP JUMPDEST PUSH2 0xF4 PUSH1 0x4 DUP1 CALLDATASIZE SUB DUP2 ADD SWAP1 PUSH2 0xEF SWAP2 SWAP1 PUSH2 0x1C01 JUMP JUMPDEST PUSH2 0x1E3 JUMP JUMPDEST STOP JUMPDEST PUSH2 0x110 PUSH1 0x4 DUP1 CALLDATASIZE SUB DUP2 ADD SWAP1 PUSH2 0x10B SWAP2 SWAP1 PUSH2 0x1D11 JUMP JUMPDEST PUSH2 0x1E9 JUMP JUMPDEST PUSH1 0x40 MLOAD PUSH2 0x11D SWAP2 SWAP1 PUSH2 0x1DC3 JUMP JUMPDEST PUSH1 0x40 MLOAD DUP1 SWAP2 SUB SWAP1 RETURN JUMPDEST PUSH2 0x140 PUSH1 0x4 DUP1 CALLDATASIZE SUB DUP2 ADD SWAP1 PUSH2 0x13B SWAP2 SWAP1 PUSH2 0x1DDE JUMP JUMPDEST PUSH2 0x203 JUMP JUMPDEST STOP JUMPDEST PUSH2 0x14A PUSH2 0x208 JUMP JUMPDEST PUSH1 0x40 MLOAD PUSH2 0x157 SWAP2 SWAP1 PUSH2 0x1E94 JUMP JUMPDEST PUSH1 0x40 MLOAD DUP1 SWAP2 SUB SWAP1 RETURN JUMPDEST PUSH2 0x168 PUSH2 0x20E JUMP JUMPDEST PUSH1 0x40 MLOAD PUSH2 0x175 SWAP2 SWAP1 PUSH2 0x1E94 JUMP JUMPDEST PUSH1 0x40 MLOAD DUP1 SWAP2 SUB SWAP1 RETURN JUMPDEST PUSH2 0x198 PUSH1 0x4 DUP1 CALLDATASIZE SUB DUP2 ADD SWAP1 PUSH2 0x193 SWAP2 SWAP1 PUSH2 0x1EAF JUMP JUMPDEST PUSH2 0x214 JUMP JUMPDEST PUSH1 0x40 MLOAD PUSH2 0x1A8 SWAP5 SWAP4 SWAP3 SWAP2 SWAP1 PUSH2 0x1F33 JUMP JUMPDEST PUSH1 0x40 MLOAD DUP1 SWAP2 SUB SWAP1 RETURN JUMPDEST DUP5 PUSH1 0x0 DUP2 SWAP1 SSTORE POP DUP4 PUSH1 0x1 DUP2 SWAP1 SSTORE POP DUP3 PUSH1 0x2 DUP2 SWAP1 SSTORE POP DUP2 PUSH1 0x3 DUP2 SWAP1 SSTORE POP DUP1 PUSH1 0x4 DUP2 SWAP1 SSTORE POP POP POP POP POP POP JUMP JUMPDEST JUMP JUMPDEST POP POP POP POP JUMP JUMPDEST POP POP POP POP JUMP JUMPDEST PUSH1 0x0 PUSH2 0x1F8 DUP7 DUP7 DUP7 DUP7 DUP7 PUSH2 0x35C JUMP JUMPDEST SWAP1 POP SWAP6 SWAP5 POP POP POP POP POP JUMP JUMPDEST POP POP POP JUMP JUMPDEST PUSH1 0x5 SLOAD DUP2 JUMP JUMPDEST PUSH1 0x4 SLOAD DUP2 JUMP JUMPDEST PUSH1 0x0 DUP1 PUSH1 0x0 DUP1 PUSH1 0x0 DUP1 PUSH1 0x0 DUP1 PUSH2 0x229 DUP10 PUSH2 0x43E JUMP JUMPDEST DUP1 SWAP5 POP DUP2 SWAP6 POP DUP3 SWAP7 POP DUP4 SWAP8 POP POP POP POP POP PUSH2 0x278 PUSH1 0x40 MLOAD DUP1 PUSH1 0x40 ADD PUSH1 0x40 MSTORE DUP1 PUSH1 0xA DUP2 MSTORE PUSH1 0x20 ADD PUSH32 0x436865636B206F6E653A00000000000000000000000000000000000000000000 DUP2 MSTORE POP DUP6 PUSH2 0x728 JUMP JUMPDEST PUSH2 0x2BF PUSH1 0x40 MLOAD DUP1 PUSH1 0x40 ADD PUSH1 0x40 MSTORE DUP1 PUSH1 0xA DUP2 MSTORE PUSH1 0x20 ADD PUSH32 0x436865636B2074776F3A00000000000000000000000000000000000000000000 DUP2 MSTORE POP PUSH2 0x2BA DUP6 PUSH2 0x7C4 JUMP JUMPDEST PUSH2 0x7F4 JUMP JUMPDEST PUSH2 0x2FE PUSH1 0x40 MLOAD DUP1 PUSH1 0x40 ADD PUSH1 0x40 MSTORE DUP1 PUSH1 0xC DUP2 MSTORE PUSH1 0x20 ADD PUSH32 0x436865636B2074687265653A0000000000000000000000000000000000000000 DUP2 MSTORE POP DUP4 PUSH2 0x728 JUMP JUMPDEST PUSH2 0x345 PUSH1 0x40 MLOAD DUP1 PUSH1 0x40 ADD PUSH1 0x40 MSTORE DUP1 PUSH1 0xB DUP2 MSTORE PUSH1 0x20 ADD PUSH32 0x436865636B20666F75723A000000000000000000000000000000000000000000 DUP2 MSTORE POP PUSH2 0x340 DUP4 PUSH2 0x7C4 JUMP JUMPDEST PUSH2 0x7F4 JUMP JUMPDEST DUP4 DUP4 DUP4 DUP4 SWAP8 POP SWAP8 POP SWAP8 POP SWAP8 POP POP POP POP POP SWAP2 SWAP4 POP SWAP2 SWAP4 JUMP JUMPDEST PUSH1 0x0 PUSH1 0x40 DUP7 MLOAD EQ PUSH2 0x3A2 JUMPI PUSH1 0x40 MLOAD PUSH32 0x8C379A000000000000000000000000000000000000000000000000000000000 DUP2 MSTORE PUSH1 0x4 ADD PUSH2 0x399 SWAP1 PUSH2 0x2021 JUMP JUMPDEST PUSH1 0x40 MLOAD DUP1 SWAP2 SUB SWAP1 REVERT JUMPDEST PUSH1 0x0 PUSH2 0x3AD DUP8 PUSH2 0x890 JUMP JUMPDEST SWAP1 POP PUSH1 0x0 PUSH1 0x1 DUP8 DUP8 DUP8 DUP8 PUSH1 0x40 MLOAD PUSH1 0x0 DUP2 MSTORE PUSH1 0x20 ADD PUSH1 0x40 MSTORE PUSH1 0x40 MLOAD PUSH2 0x3D4 SWAP5 SWAP4 SWAP3 SWAP2 SWAP1 PUSH2 0x205F JUMP JUMPDEST PUSH1 0x20 PUSH1 0x40 MLOAD PUSH1 0x20 DUP2 SUB SWAP1 DUP1 DUP5 SUB SWAP1 DUP6 GAS STATICCALL ISZERO DUP1 ISZERO PUSH2 0x3F6 JUMPI RETURNDATASIZE PUSH1 0x0 DUP1 RETURNDATACOPY RETURNDATASIZE PUSH1 0x0 REVERT JUMPDEST POP POP POP PUSH1 0x20 PUSH1 0x40 MLOAD SUB MLOAD SWAP1 POP DUP2 PUSH20 0xFFFFFFFFFFFFFFFFFFFFFFFFFFFFFFFFFFFFFFFF AND DUP2 PUSH20 0xFFFFFFFFFFFFFFFFFFFFFFFFFFFFFFFFFFFFFFFF AND EQ SWAP3 POP POP POP SWAP6 SWAP5 POP POP POP POP POP JUMP JUMPDEST PUSH1 0x0 DUP1 PUSH1 0x0 DUP1 PUSH1 0x0 DUP1 PUSH1 0x2 PUSH8 0xFFFFFFFFFFFFFFFF DUP2 GT ISZERO PUSH2 0x462 JUMPI PUSH2 0x461 PUSH2 0x1AD6 JUMP JUMPDEST JUMPDEST PUSH1 0x40 MLOAD SWAP1 DUP1 DUP3 MSTORE DUP1 PUSH1 0x20 MUL PUSH1 0x20 ADD DUP3 ADD PUSH1 0x40 MSTORE DUP1 ISZERO PUSH2 0x490 JUMPI DUP2 PUSH1 0x20 ADD PUSH1 0x20 DUP3 MUL DUP1 CALLDATASIZE DUP4 CALLDATACOPY DUP1 DUP3 ADD SWAP2 POP POP SWAP1 POP JUMPDEST POP SWAP1 POP PUSH1 0x0 PUSH1 0x2 PUSH8 0xFFFFFFFFFFFFFFFF DUP2 GT ISZERO PUSH2 0x4B0 JUMPI PUSH2 0x4AF PUSH2 0x1AD6 JUMP JUMPDEST JUMPDEST PUSH1 0x40 MLOAD SWAP1 DUP1 DUP3 MSTORE DUP1 PUSH1 0x20 MUL PUSH1 0x20 ADD DUP3 ADD PUSH1 0x40 MSTORE DUP1 ISZERO PUSH2 0x4DE JUMPI DUP2 PUSH1 0x20 ADD PUSH1 0x20 DUP3 MUL DUP1 CALLDATASIZE DUP4 CALLDATACOPY DUP1 DUP3 ADD SWAP2 POP POP SWAP1 POP JUMPDEST POP SWAP1 POP PUSH1 0x0 PUSH1 0x2 PUSH8 0xFFFFFFFFFFFFFFFF DUP2 GT ISZERO PUSH2 0x4FE JUMPI PUSH2 0x4FD PUSH2 0x1AD6 JUMP JUMPDEST JUMPDEST PUSH1 0x40 MLOAD SWAP1 DUP1 DUP3 MSTORE DUP1 PUSH1 0x20 MUL PUSH1 0x20 ADD DUP3 ADD PUSH1 0x40 MSTORE DUP1 ISZERO PUSH2 0x52C JUMPI DUP2 PUSH1 0x20 ADD PUSH1 0x20 DUP3 MUL DUP1 CALLDATASIZE DUP4 CALLDATACOPY DUP1 DUP3 ADD SWAP2 POP POP SWAP1 POP JUMPDEST POP SWAP1 POP PUSH1 0x0 PUSH1 0x2 PUSH8 0xFFFFFFFFFFFFFFFF DUP2 GT ISZERO PUSH2 0x54C JUMPI PUSH2 0x54B PUSH2 0x1AD6 JUMP JUMPDEST JUMPDEST PUSH1 0x40 MLOAD SWAP1 DUP1 DUP3 MSTORE DUP1 PUSH1 0x20 MUL PUSH1 0x20 ADD DUP3 ADD PUSH1 0x40 MSTORE DUP1 ISZERO PUSH2 0x57A JUMPI DUP2 PUSH1 0x20 ADD PUSH1 0x20 DUP3 MUL DUP1 CALLDATASIZE DUP4 CALLDATACOPY DUP1 DUP3 ADD SWAP2 POP POP SWAP1 POP JUMPDEST POP SWAP1 POP PUSH1 0x0 PUSH1 0x2 PUSH8 0xFFFFFFFFFFFFFFFF DUP2 GT ISZERO PUSH2 0x59A JUMPI PUSH2 0x599 PUSH2 0x1AD6 JUMP JUMPDEST JUMPDEST PUSH1 0x40 MLOAD SWAP1 DUP1 DUP3 MSTORE DUP1 PUSH1 0x20 MUL PUSH1 0x20 ADD DUP3 ADD PUSH1 0x40 MSTORE DUP1 ISZERO PUSH2 0x5C8 JUMPI DUP2 PUSH1 0x20 ADD PUSH1 0x20 DUP3 MUL DUP1 CALLDATASIZE DUP4 CALLDATACOPY DUP1 DUP3 ADD SWAP2 POP POP SWAP1 POP JUMPDEST POP SWAP1 POP PUSH1 0x4 SWAP6 POP PUSH2 0x5DB DUP12 DUP8 PUSH1 0x0 PUSH2 0x908 JUMP JUMPDEST DUP1 SWAP8 POP DUP2 SWAP7 POP POP POP PUSH2 0x5EF DUP12 DUP8 PUSH1 0x2 PUSH2 0xA1A JUMP JUMPDEST DUP1 SWAP10 POP DUP2 SWAP8 POP DUP3 SWAP7 POP DUP4 SWAP6 POP POP POP POP POP PUSH1 0x0 JUMPDEST PUSH1 0x2 DUP2 LT ISZERO PUSH2 0x6A2 JUMPI PUSH1 0x0 PUSH2 0x64C DUP14 DUP7 DUP5 DUP2 MLOAD DUP2 LT PUSH2 0x624 JUMPI PUSH2 0x623 PUSH2 0x20A4 JUMP JUMPDEST JUMPDEST PUSH1 0x20 MUL PUSH1 0x20 ADD ADD MLOAD DUP9 DUP6 DUP2 MLOAD DUP2 LT PUSH2 0x63F JUMPI PUSH2 0x63E PUSH2 0x20A4 JUMP JUMPDEST JUMPDEST PUSH1 0x20 MUL PUSH1 0x20 ADD ADD MLOAD PUSH2 0xC11 JUMP JUMPDEST SWAP1 POP DUP1 DUP4 DUP4 DUP2 MLOAD DUP2 LT PUSH2 0x662 JUMPI PUSH2 0x661 PUSH2 0x20A4 JUMP JUMPDEST JUMPDEST PUSH1 0x20 MUL PUSH1 0x20 ADD ADD SWAP1 PUSH12 0xFFFFFFFFFFFFFFFFFFFFFFFF NOT AND SWAP1 DUP2 PUSH12 0xFFFFFFFFFFFFFFFFFFFFFFFF NOT AND DUP2 MSTORE POP POP POP DUP1 DUP1 PUSH2 0x69A SWAP1 PUSH2 0x2102 JUMP JUMPDEST SWAP2 POP POP PUSH2 0x602 JUMP JUMPDEST POP DUP2 PUSH1 0x0 DUP2 MLOAD DUP2 LT PUSH2 0x6B7 JUMPI PUSH2 0x6B6 PUSH2 0x20A4 JUMP JUMPDEST JUMPDEST PUSH1 0x20 MUL PUSH1 0x20 ADD ADD MLOAD DUP2 PUSH1 0x0 DUP2 MLOAD DUP2 LT PUSH2 0x6D3 JUMPI PUSH2 0x6D2 PUSH2 0x20A4 JUMP JUMPDEST JUMPDEST PUSH1 0x20 MUL PUSH1 0x20 ADD ADD MLOAD DUP4 PUSH1 0x1 DUP2 MLOAD DUP2 LT PUSH2 0x6EF JUMPI PUSH2 0x6EE PUSH2 0x20A4 JUMP JUMPDEST JUMPDEST PUSH1 0x20 MUL PUSH1 0x20 ADD ADD MLOAD DUP4 PUSH1 0x1 DUP2 MLOAD DUP2 LT PUSH2 0x70B JUMPI PUSH2 0x70A PUSH2 0x20A4 JUMP JUMPDEST JUMPDEST PUSH1 0x20 MUL PUSH1 0x20 ADD ADD MLOAD SWAP10 POP SWAP10 POP SWAP10 POP SWAP10 POP POP POP POP POP POP POP SWAP2 SWAP4 POP SWAP2 SWAP4 JUMP JUMPDEST PUSH2 0x7C0 DUP3 DUP3 PUSH1 0x40 MLOAD PUSH1 0x24 ADD PUSH2 0x73E SWAP3 SWAP2 SWAP1 PUSH2 0x21B8 JUMP JUMPDEST PUSH1 0x40 MLOAD PUSH1 0x20 DUP2 DUP4 SUB SUB DUP2 MSTORE SWAP1 PUSH1 0x40 MSTORE PUSH32 0xB60E72CC00000000000000000000000000000000000000000000000000000000 PUSH28 0xFFFFFFFFFFFFFFFFFFFFFFFFFFFFFFFFFFFFFFFFFFFFFFFFFFFFFFFF NOT AND PUSH1 0x20 DUP3 ADD DUP1 MLOAD PUSH28 0xFFFFFFFFFFFFFFFFFFFFFFFFFFFFFFFFFFFFFFFFFFFFFFFFFFFFFFFF DUP4 DUP2 DUP4 AND OR DUP4 MSTORE POP POP POP POP PUSH2 0xC7C JUMP JUMPDEST POP POP JUMP JUMPDEST PUSH1 0x60 PUSH2 0x7ED DUP3 PUSH1 0x60 SHR PUSH20 0xFFFFFFFFFFFFFFFFFFFFFFFFFFFFFFFFFFFFFFFF AND PUSH1 0x14 PUSH1 0xFF AND PUSH2 0xC96 JUMP JUMPDEST SWAP1 POP SWAP2 SWAP1 POP JUMP JUMPDEST PUSH2 0x88C DUP3 DUP3 PUSH1 0x40 MLOAD PUSH1 0x24 ADD PUSH2 0x80A SWAP3 SWAP2 SWAP1 PUSH2 0x21E8 JUMP JUMPDEST PUSH1 0x40 MLOAD PUSH1 0x20 DUP2 DUP4 SUB SUB DUP2 MSTORE SWAP1 PUSH1 0x40 MSTORE PUSH32 0x4B5C427700000000000000000000000000000000000000000000000000000000 PUSH28 0xFFFFFFFFFFFFFFFFFFFFFFFFFFFFFFFFFFFFFFFFFFFFFFFFFFFFFFFF NOT AND PUSH1 0x20 DUP3 ADD DUP1 MLOAD PUSH28 0xFFFFFFFFFFFFFFFFFFFFFFFFFFFFFFFFFFFFFFFFFFFFFFFFFFFFFFFF DUP4 DUP2 DUP4 AND OR DUP4 MSTORE POP POP POP POP PUSH2 0xC7C JUMP JUMPDEST POP POP JUMP JUMPDEST PUSH1 0x0 PUSH1 0x40 DUP3 MLOAD EQ PUSH2 0x8D6 JUMPI PUSH1 0x40 MLOAD PUSH32 0x8C379A000000000000000000000000000000000000000000000000000000000 DUP2 MSTORE PUSH1 0x4 ADD PUSH2 0x8CD SWAP1 PUSH2 0x2291 JUMP JUMPDEST PUSH1 0x40 MLOAD DUP1 SWAP2 SUB SWAP1 REVERT JUMPDEST PUSH1 0x0 PUSH2 0x8FA PUSH2 0x8EF PUSH1 0x0 DUP6 PUSH2 0xEDC SWAP1 SWAP2 SWAP1 PUSH4 0xFFFFFFFF AND JUMP JUMPDEST PUSH3 0xFFFFFF NOT AND PUSH2 0xF07 JUMP JUMPDEST SWAP1 POP DUP1 PUSH1 0x0 SHR SWAP2 POP POP SWAP2 SWAP1 POP JUMP JUMPDEST PUSH1 0x60 PUSH1 0x0 DUP1 PUSH1 0x0 DUP1 PUSH2 0x91A DUP9 DUP9 PUSH2 0xF4A JUMP JUMPDEST DUP1 SWAP9 POP DUP2 SWAP5 POP POP POP PUSH1 0x0 DUP7 EQ DUP1 PUSH2 0x930 JUMPI POP DUP3 DUP7 GT JUMPDEST ISZERO PUSH2 0x93D JUMPI DUP3 SWAP2 POP PUSH2 0x941 JUMP JUMPDEST DUP6 SWAP2 POP JUMPDEST PUSH1 0x0 DUP3 PUSH8 0xFFFFFFFFFFFFFFFF DUP2 GT ISZERO PUSH2 0x95D JUMPI PUSH2 0x95C PUSH2 0x1AD6 JUMP JUMPDEST JUMPDEST PUSH1 0x40 MLOAD SWAP1 DUP1 DUP3 MSTORE DUP1 PUSH1 0x20 MUL PUSH1 0x20 ADD DUP3 ADD PUSH1 0x40 MSTORE DUP1 ISZERO PUSH2 0x98B JUMPI DUP2 PUSH1 0x20 ADD PUSH1 0x20 DUP3 MUL DUP1 CALLDATASIZE DUP4 CALLDATACOPY DUP1 DUP3 ADD SWAP2 POP POP SWAP1 POP JUMPDEST POP SWAP1 POP PUSH1 0x0 JUMPDEST DUP4 DUP2 LT ISZERO PUSH2 0xA07 JUMPI PUSH1 0x24 DUP10 PUSH2 0x9A6 SWAP2 SWAP1 PUSH2 0x22B1 JUMP JUMPDEST SWAP9 POP PUSH2 0x9B2 DUP11 DUP11 PUSH2 0xF4A JUMP JUMPDEST DUP1 SWAP11 POP DUP2 SWAP5 POP POP POP DUP3 DUP3 DUP3 DUP2 MLOAD DUP2 LT PUSH2 0x9CE JUMPI PUSH2 0x9CD PUSH2 0x20A4 JUMP JUMPDEST JUMPDEST PUSH1 0x20 MUL PUSH1 0x20 ADD ADD DUP2 DUP2 MSTORE POP POP PUSH1 0x4 DUP4 PUSH2 0x9E7 SWAP2 SWAP1 PUSH2 0x22B1 JUMP JUMPDEST DUP10 PUSH2 0x9F2 SWAP2 SWAP1 PUSH2 0x22B1 JUMP JUMPDEST SWAP9 POP DUP1 DUP1 PUSH2 0x9FF SWAP1 PUSH2 0x2102 JUMP JUMPDEST SWAP2 POP POP PUSH2 0x991 JUMP JUMPDEST POP DUP1 DUP9 SWAP6 POP SWAP6 POP POP POP POP POP SWAP4 POP SWAP4 SWAP2 POP POP JUMP JUMPDEST PUSH1 0x60 DUP1 PUSH1 0x60 PUSH1 0x0 DUP1 PUSH1 0x0 DUP1 PUSH2 0xA2F DUP11 DUP11 PUSH2 0xF4A JUMP JUMPDEST DUP1 SWAP11 POP DUP2 SWAP5 POP POP POP PUSH1 0x0 DUP9 EQ DUP1 PUSH2 0xA45 JUMPI POP DUP3 DUP9 GT JUMPDEST ISZERO PUSH2 0xA52 JUMPI DUP3 SWAP2 POP PUSH2 0xA56 JUMP JUMPDEST DUP8 SWAP2 POP JUMPDEST PUSH1 0x0 DUP3 PUSH8 0xFFFFFFFFFFFFFFFF DUP2 GT ISZERO PUSH2 0xA72 JUMPI PUSH2 0xA71 PUSH2 0x1AD6 JUMP JUMPDEST JUMPDEST PUSH1 0x40 MLOAD SWAP1 DUP1 DUP3 MSTORE DUP1 PUSH1 0x20 MUL PUSH1 0x20 ADD DUP3 ADD PUSH1 0x40 MSTORE DUP1 ISZERO PUSH2 0xAA0 JUMPI DUP2 PUSH1 0x20 ADD PUSH1 0x20 DUP3 MUL DUP1 CALLDATASIZE DUP4 CALLDATACOPY DUP1 DUP3 ADD SWAP2 POP POP SWAP1 POP JUMPDEST POP SWAP1 POP PUSH1 0x0 DUP4 PUSH8 0xFFFFFFFFFFFFFFFF DUP2 GT ISZERO PUSH2 0xABF JUMPI PUSH2 0xABE PUSH2 0x1AD6 JUMP JUMPDEST JUMPDEST PUSH1 0x40 MLOAD SWAP1 DUP1 DUP3 MSTORE DUP1 PUSH1 0x20 MUL PUSH1 0x20 ADD DUP3 ADD PUSH1 0x40 MSTORE DUP1 ISZERO PUSH2 0xAED JUMPI DUP2 PUSH1 0x20 ADD PUSH1 0x20 DUP3 MUL DUP1 CALLDATASIZE DUP4 CALLDATACOPY DUP1 DUP3 ADD SWAP2 POP POP SWAP1 POP JUMPDEST POP SWAP1 POP PUSH1 0x0 DUP5 PUSH8 0xFFFFFFFFFFFFFFFF DUP2 GT ISZERO PUSH2 0xB0C JUMPI PUSH2 0xB0B PUSH2 0x1AD6 JUMP JUMPDEST JUMPDEST PUSH1 0x40 MLOAD SWAP1 DUP1 DUP3 MSTORE DUP1 PUSH1 0x20 MUL PUSH1 0x20 ADD DUP3 ADD PUSH1 0x40 MSTORE DUP1 ISZERO PUSH2 0xB3A JUMPI DUP2 PUSH1 0x20 ADD PUSH1 0x20 DUP3 MUL DUP1 CALLDATASIZE DUP4 CALLDATACOPY DUP1 DUP3 ADD SWAP2 POP POP SWAP1 POP JUMPDEST POP SWAP1 POP PUSH1 0x0 JUMPDEST DUP6 DUP2 LT ISZERO PUSH2 0xBF5 JUMPI PUSH2 0xB54 DUP15 DUP15 PUSH1 0x40 PUSH2 0x1032 JUMP JUMPDEST DUP3 DUP3 DUP2 MLOAD DUP2 LT PUSH2 0xB67 JUMPI PUSH2 0xB66 PUSH2 0x20A4 JUMP JUMPDEST JUMPDEST PUSH1 0x20 MUL PUSH1 0x20 ADD ADD DUP2 DUP2 MSTORE POP POP PUSH1 0x8 DUP14 PUSH2 0xB80 SWAP2 SWAP1 PUSH2 0x22B1 JUMP JUMPDEST SWAP13 POP PUSH2 0xB8C DUP15 DUP15 PUSH2 0xF4A JUMP JUMPDEST DUP1 SWAP15 POP DUP2 SWAP7 POP POP POP DUP13 DUP5 DUP3 DUP2 MLOAD DUP2 LT PUSH2 0xBA8 JUMPI PUSH2 0xBA7 PUSH2 0x20A4 JUMP JUMPDEST JUMPDEST PUSH1 0x20 MUL PUSH1 0x20 ADD ADD DUP2 DUP2 MSTORE POP POP DUP5 DUP4 DUP3 DUP2 MLOAD DUP2 LT PUSH2 0xBC8 JUMPI PUSH2 0xBC7 PUSH2 0x20A4 JUMP JUMPDEST JUMPDEST PUSH1 0x20 MUL PUSH1 0x20 ADD ADD DUP2 DUP2 MSTORE POP POP DUP5 DUP14 PUSH2 0xBE0 SWAP2 SWAP1 PUSH2 0x22B1 JUMP JUMPDEST SWAP13 POP DUP1 DUP1 PUSH2 0xBED SWAP1 PUSH2 0x2102 JUMP JUMPDEST SWAP2 POP POP PUSH2 0xB40 JUMP JUMPDEST POP DUP1 DUP4 DUP4 DUP15 SWAP10 POP SWAP10 POP SWAP10 POP SWAP10 POP POP POP POP POP POP POP SWAP4 POP SWAP4 POP SWAP4 POP SWAP4 JUMP JUMPDEST PUSH1 0x0 PUSH2 0xC1E DUP5 DUP5 DUP5 PUSH2 0x149D JUMP JUMPDEST ISZERO PUSH2 0xC40 JUMPI PUSH2 0xC39 DUP5 PUSH1 0x3 DUP6 PUSH2 0xC34 SWAP2 SWAP1 PUSH2 0x22B1 JUMP JUMPDEST PUSH2 0x1662 JUMP JUMPDEST SWAP1 POP PUSH2 0xC75 JUMP JUMPDEST PUSH2 0xC4B DUP5 DUP5 DUP5 PUSH2 0x1745 JUMP JUMPDEST ISZERO PUSH2 0xC6D JUMPI PUSH2 0xC66 DUP5 PUSH1 0x2 DUP6 PUSH2 0xC61 SWAP2 SWAP1 PUSH2 0x22B1 JUMP JUMPDEST PUSH2 0x1662 JUMP JUMPDEST SWAP1 POP PUSH2 0xC75 JUMP JUMPDEST PUSH1 0x0 PUSH1 0x60 SHL SWAP1 POP JUMPDEST SWAP4 SWAP3 POP POP POP JUMP JUMPDEST PUSH2 0xC93 DUP2 PUSH2 0xC8B PUSH2 0x1862 PUSH2 0x1883 JUMP JUMPDEST PUSH4 0xFFFFFFFF AND JUMP JUMPDEST POP JUMP JUMPDEST PUSH1 0x60 PUSH1 0x0 DUP4 SWAP1 POP PUSH1 0x0 PUSH1 0x2 DUP5 PUSH1 0x2 PUSH2 0xCAE SWAP2 SWAP1 PUSH2 0x22E5 JUMP JUMPDEST PUSH2 0xCB8 SWAP2 SWAP1 PUSH2 0x22B1 JUMP JUMPDEST PUSH8 0xFFFFFFFFFFFFFFFF DUP2 GT ISZERO PUSH2 0xCD1 JUMPI PUSH2 0xCD0 PUSH2 0x1AD6 JUMP JUMPDEST JUMPDEST PUSH1 0x40 MLOAD SWAP1 DUP1 DUP3 MSTORE DUP1 PUSH1 0x1F ADD PUSH1 0x1F NOT AND PUSH1 0x20 ADD DUP3 ADD PUSH1 0x40 MSTORE DUP1 ISZERO PUSH2 0xD03 JUMPI DUP2 PUSH1 0x20 ADD PUSH1 0x1 DUP3 MUL DUP1 CALLDATASIZE DUP4 CALLDATACOPY DUP1 DUP3 ADD SWAP2 POP POP SWAP1 POP JUMPDEST POP SWAP1 POP PUSH32 0x3000000000000000000000000000000000000000000000000000000000000000 DUP2 PUSH1 0x0 DUP2 MLOAD DUP2 LT PUSH2 0xD3B JUMPI PUSH2 0xD3A PUSH2 0x20A4 JUMP JUMPDEST JUMPDEST PUSH1 0x20 ADD ADD SWAP1 PUSH31 0xFFFFFFFFFFFFFFFFFFFFFFFFFFFFFFFFFFFFFFFFFFFFFFFFFFFFFFFFFFFFFF NOT AND SWAP1 DUP2 PUSH1 0x0 BYTE SWAP1 MSTORE8 POP PUSH32 0x7800000000000000000000000000000000000000000000000000000000000000 DUP2 PUSH1 0x1 DUP2 MLOAD DUP2 LT PUSH2 0xD9F JUMPI PUSH2 0xD9E PUSH2 0x20A4 JUMP JUMPDEST JUMPDEST PUSH1 0x20 ADD ADD SWAP1 PUSH31 0xFFFFFFFFFFFFFFFFFFFFFFFFFFFFFFFFFFFFFFFFFFFFFFFFFFFFFFFFFFFFFF NOT AND SWAP1 DUP2 PUSH1 0x0 BYTE SWAP1 MSTORE8 POP PUSH1 0x0 PUSH1 0x1 DUP6 PUSH1 0x2 PUSH2 0xDDF SWAP2 SWAP1 PUSH2 0x22E5 JUMP JUMPDEST PUSH2 0xDE9 SWAP2 SWAP1 PUSH2 0x22B1 JUMP JUMPDEST SWAP1 POP JUMPDEST PUSH1 0x1 DUP2 GT ISZERO PUSH2 0xE89 JUMPI PUSH32 0x3031323334353637383961626364656600000000000000000000000000000000 PUSH1 0xF DUP5 AND PUSH1 0x10 DUP2 LT PUSH2 0xE2B JUMPI PUSH2 0xE2A PUSH2 0x20A4 JUMP JUMPDEST JUMPDEST BYTE PUSH1 0xF8 SHL DUP3 DUP3 DUP2 MLOAD DUP2 LT PUSH2 0xE42 JUMPI PUSH2 0xE41 PUSH2 0x20A4 JUMP JUMPDEST JUMPDEST PUSH1 0x20 ADD ADD SWAP1 PUSH31 0xFFFFFFFFFFFFFFFFFFFFFFFFFFFFFFFFFFFFFFFFFFFFFFFFFFFFFFFFFFFFFF NOT AND SWAP1 DUP2 PUSH1 0x0 BYTE SWAP1 MSTORE8 POP PUSH1 0x4 DUP4 SWAP1 SHR SWAP3 POP DUP1 PUSH2 0xE82 SWAP1 PUSH2 0x2327 JUMP JUMPDEST SWAP1 POP PUSH2 0xDEC JUMP JUMPDEST POP PUSH1 0x0 DUP3 EQ PUSH2 0xED1 JUMPI DUP5 DUP5 PUSH1 0x40 MLOAD PUSH32 0xE22E27EB00000000000000000000000000000000000000000000000000000000 DUP2 MSTORE PUSH1 0x4 ADD PUSH2 0xEC8 SWAP3 SWAP2 SWAP1 PUSH2 0x2350 JUMP JUMPDEST PUSH1 0x40 MLOAD DUP1 SWAP2 SUB SWAP1 REVERT JUMPDEST DUP1 SWAP3 POP POP POP SWAP3 SWAP2 POP POP JUMP JUMPDEST PUSH1 0x0 DUP1 DUP4 MLOAD SWAP1 POP PUSH1 0x0 PUSH1 0x20 DUP6 ADD SWAP1 POP PUSH2 0xEFD DUP5 PUSH5 0xFFFFFFFFFF AND DUP3 DUP5 PUSH2 0x188E JUMP JUMPDEST SWAP3 POP POP POP SWAP3 SWAP2 POP POP JUMP JUMPDEST PUSH1 0x0 DUP1 PUSH2 0xF13 DUP4 PUSH2 0x18FC JUMP JUMPDEST PUSH12 0xFFFFFFFFFFFFFFFFFFFFFFFF AND SWAP1 POP PUSH1 0x0 PUSH2 0xF2E DUP5 PUSH2 0x191C JUMP JUMPDEST PUSH12 0xFFFFFFFFFFFFFFFFFFFFFFFF AND SWAP1 POP DUP1 DUP3 KECCAK256 SWAP3 POP POP POP SWAP2 SWAP1 POP JUMP JUMPDEST PUSH1 0x0 DUP1 PUSH1 0x0 DUP5 DUP5 DUP2 MLOAD DUP2 LT PUSH2 0xF62 JUMPI PUSH2 0xF61 PUSH2 0x20A4 JUMP JUMPDEST JUMPDEST PUSH1 0x20 ADD ADD MLOAD PUSH1 0xF8 SHR PUSH1 0xF8 SHL PUSH1 0xF8 SHR SWAP1 POP PUSH1 0x1 DUP5 PUSH2 0xF7F SWAP2 SWAP1 PUSH2 0x22B1 JUMP JUMPDEST SWAP4 POP PUSH1 0xFD DUP2 PUSH1 0xFF AND LT ISZERO PUSH2 0xF9F JUMPI DUP1 DUP5 DUP2 PUSH1 0xFF AND SWAP2 POP SWAP3 POP SWAP3 POP POP PUSH2 0x102B JUMP JUMPDEST PUSH1 0xFD DUP2 PUSH1 0xFF AND SUB PUSH2 0xFCD JUMPI PUSH2 0xFB6 DUP6 DUP6 PUSH1 0x10 PUSH2 0x1032 JUMP JUMPDEST PUSH1 0x2 DUP6 PUSH2 0xFC3 SWAP2 SWAP1 PUSH2 0x22B1 JUMP JUMPDEST SWAP3 POP SWAP3 POP POP PUSH2 0x102B JUMP JUMPDEST PUSH1 0xFE DUP2 PUSH1 0xFF AND SUB PUSH2 0xFFB JUMPI PUSH2 0xFE4 DUP6 DUP6 PUSH1 0x20 PUSH2 0x1032 JUMP JUMPDEST PUSH1 0x4 DUP6 PUSH2 0xFF1 SWAP2 SWAP1 PUSH2 0x22B1 JUMP JUMPDEST SWAP3 POP SWAP3 POP POP PUSH2 0x102B JUMP JUMPDEST PUSH1 0xFF DUP2 PUSH1 0xFF AND SUB PUSH2 0x1029 JUMPI PUSH2 0x1012 DUP6 DUP6 PUSH1 0x40 PUSH2 0x1032 JUMP JUMPDEST PUSH1 0x8 DUP6 PUSH2 0x101F SWAP2 SWAP1 PUSH2 0x22B1 JUMP JUMPDEST SWAP3 POP SWAP3 POP POP PUSH2 0x102B JUMP JUMPDEST POP JUMPDEST SWAP3 POP SWAP3 SWAP1 POP JUMP JUMPDEST PUSH1 0x0 PUSH1 0x8 DUP3 SUB PUSH2 0x1067 JUMPI DUP4 DUP4 DUP2 MLOAD DUP2 LT PUSH2 0x104F JUMPI PUSH2 0x104E PUSH2 0x20A4 JUMP JUMPDEST JUMPDEST PUSH1 0x20 ADD ADD MLOAD PUSH1 0xF8 SHR PUSH1 0xF8 SHL PUSH1 0xF8 SHR PUSH1 0xFF AND SWAP1 POP PUSH2 0x1496 JUMP JUMPDEST PUSH1 0x10 DUP3 SUB PUSH2 0x10E9 JUMPI PUSH2 0x100 DUP5 PUSH1 0x1 DUP6 PUSH2 0x1080 SWAP2 SWAP1 PUSH2 0x22B1 JUMP JUMPDEST DUP2 MLOAD DUP2 LT PUSH2 0x1091 JUMPI PUSH2 0x1090 PUSH2 0x20A4 JUMP JUMPDEST JUMPDEST PUSH1 0x20 ADD ADD MLOAD PUSH1 0xF8 SHR PUSH1 0xF8 SHL PUSH1 0xF8 SHR PUSH1 0xFF AND PUSH2 0x10AC SWAP2 SWAP1 PUSH2 0x2387 JUMP JUMPDEST PUSH2 0xFFFF AND DUP5 DUP5 DUP2 MLOAD DUP2 LT PUSH2 0x10C3 JUMPI PUSH2 0x10C2 PUSH2 0x20A4 JUMP JUMPDEST JUMPDEST PUSH1 0x20 ADD ADD MLOAD PUSH1 0xF8 SHR PUSH1 0xF8 SHL PUSH1 0xF8 SHR PUSH1 0xFF AND PUSH2 0xFFFF AND PUSH2 0x10E2 SWAP2 SWAP1 PUSH2 0x22B1 JUMP JUMPDEST SWAP1 POP PUSH2 0x1496 JUMP JUMPDEST PUSH1 0x20 DUP3 SUB PUSH2 0x120C JUMPI PUSH4 0x1000000 DUP5 PUSH1 0x3 DUP6 PUSH2 0x1104 SWAP2 SWAP1 PUSH2 0x22B1 JUMP JUMPDEST DUP2 MLOAD DUP2 LT PUSH2 0x1115 JUMPI PUSH2 0x1114 PUSH2 0x20A4 JUMP JUMPDEST JUMPDEST PUSH1 0x20 ADD ADD MLOAD PUSH1 0xF8 SHR PUSH1 0xF8 SHL PUSH1 0xF8 SHR PUSH1 0xFF AND PUSH2 0x1130 SWAP2 SWAP1 PUSH2 0x23D4 JUMP JUMPDEST PUSH4 0xFFFFFFFF AND PUSH3 0x10000 DUP6 PUSH1 0x2 DUP7 PUSH2 0x1148 SWAP2 SWAP1 PUSH2 0x22B1 JUMP JUMPDEST DUP2 MLOAD DUP2 LT PUSH2 0x1159 JUMPI PUSH2 0x1158 PUSH2 0x20A4 JUMP JUMPDEST JUMPDEST PUSH1 0x20 ADD ADD MLOAD PUSH1 0xF8 SHR PUSH1 0xF8 SHL PUSH1 0xF8 SHR PUSH1 0xFF AND PUSH2 0x1174 SWAP2 SWAP1 PUSH2 0x23D4 JUMP JUMPDEST PUSH4 0xFFFFFFFF AND PUSH2 0x100 DUP7 PUSH1 0x1 DUP8 PUSH2 0x118B SWAP2 SWAP1 PUSH2 0x22B1 JUMP JUMPDEST DUP2 MLOAD DUP2 LT PUSH2 0x119C JUMPI PUSH2 0x119B PUSH2 0x20A4 JUMP JUMPDEST JUMPDEST PUSH1 0x20 ADD ADD MLOAD PUSH1 0xF8 SHR PUSH1 0xF8 SHL PUSH1 0xF8 SHR PUSH1 0xFF AND PUSH2 0x11B7 SWAP2 SWAP1 PUSH2 0x23D4 JUMP JUMPDEST PUSH4 0xFFFFFFFF AND DUP7 DUP7 DUP2 MLOAD DUP2 LT PUSH2 0x11D0 JUMPI PUSH2 0x11CF PUSH2 0x20A4 JUMP JUMPDEST JUMPDEST PUSH1 0x20 ADD ADD MLOAD PUSH1 0xF8 SHR PUSH1 0xF8 SHL PUSH1 0xF8 SHR PUSH1 0xFF AND PUSH4 0xFFFFFFFF AND PUSH2 0x11F1 SWAP2 SWAP1 PUSH2 0x22B1 JUMP JUMPDEST PUSH2 0x11FB SWAP2 SWAP1 PUSH2 0x22B1 JUMP JUMPDEST PUSH2 0x1205 SWAP2 SWAP1 PUSH2 0x22B1 JUMP JUMPDEST SWAP1 POP PUSH2 0x1496 JUMP JUMPDEST PUSH1 0x40 DUP3 SUB PUSH2 0x1495 JUMPI PUSH8 0x100000000000000 DUP5 PUSH1 0x7 DUP6 PUSH2 0x122B SWAP2 SWAP1 PUSH2 0x22B1 JUMP JUMPDEST DUP2 MLOAD DUP2 LT PUSH2 0x123C JUMPI PUSH2 0x123B PUSH2 0x20A4 JUMP JUMPDEST JUMPDEST PUSH1 0x20 ADD ADD MLOAD PUSH1 0xF8 SHR PUSH1 0xF8 SHL PUSH1 0xF8 SHR PUSH1 0xFF AND PUSH2 0x1257 SWAP2 SWAP1 PUSH2 0x2425 JUMP JUMPDEST PUSH8 0xFFFFFFFFFFFFFFFF AND PUSH7 0x1000000000000 DUP6 PUSH1 0x6 DUP7 PUSH2 0x1277 SWAP2 SWAP1 PUSH2 0x22B1 JUMP JUMPDEST DUP2 MLOAD DUP2 LT PUSH2 0x1288 JUMPI PUSH2 0x1287 PUSH2 0x20A4 JUMP JUMPDEST JUMPDEST PUSH1 0x20 ADD ADD MLOAD PUSH1 0xF8 SHR PUSH1 0xF8 SHL PUSH1 0xF8 SHR PUSH1 0xFF AND PUSH2 0x12A3 SWAP2 SWAP1 PUSH2 0x2425 JUMP JUMPDEST PUSH8 0xFFFFFFFFFFFFFFFF AND PUSH6 0x10000000000 DUP7 PUSH1 0x5 DUP8 PUSH2 0x12C2 SWAP2 SWAP1 PUSH2 0x22B1 JUMP JUMPDEST DUP2 MLOAD DUP2 LT PUSH2 0x12D3 JUMPI PUSH2 0x12D2 PUSH2 0x20A4 JUMP JUMPDEST JUMPDEST PUSH1 0x20 ADD ADD MLOAD PUSH1 0xF8 SHR PUSH1 0xF8 SHL PUSH1 0xF8 SHR PUSH1 0xFF AND PUSH2 0x12EE SWAP2 SWAP1 PUSH2 0x2425 JUMP JUMPDEST PUSH8 0xFFFFFFFFFFFFFFFF AND PUSH5 0x100000000 DUP8 PUSH1 0x4 DUP9 PUSH2 0x130C SWAP2 SWAP1 PUSH2 0x22B1 JUMP JUMPDEST DUP2 MLOAD DUP2 LT PUSH2 0x131D JUMPI PUSH2 0x131C PUSH2 0x20A4 JUMP JUMPDEST JUMPDEST PUSH1 0x20 ADD ADD MLOAD PUSH1 0xF8 SHR PUSH1 0xF8 SHL PUSH1 0xF8 SHR PUSH1 0xFF AND PUSH2 0x1338 SWAP2 SWAP1 PUSH2 0x2425 JUMP JUMPDEST PUSH8 0xFFFFFFFFFFFFFFFF AND PUSH4 0x1000000 DUP9 PUSH1 0x3 DUP10 PUSH2 0x1355 SWAP2 SWAP1 PUSH2 0x22B1 JUMP JUMPDEST DUP2 MLOAD DUP2 LT PUSH2 0x1366 JUMPI PUSH2 0x1365 PUSH2 0x20A4 JUMP JUMPDEST JUMPDEST PUSH1 0x20 ADD ADD MLOAD PUSH1 0xF8 SHR PUSH1 0xF8 SHL PUSH1 0xF8 SHR PUSH1 0xFF AND PUSH2 0x1381 SWAP2 SWAP1 PUSH2 0x2425 JUMP JUMPDEST PUSH8 0xFFFFFFFFFFFFFFFF AND PUSH3 0x10000 DUP10 PUSH1 0x2 DUP11 PUSH2 0x139D SWAP2 SWAP1 PUSH2 0x22B1 JUMP JUMPDEST DUP2 MLOAD DUP2 LT PUSH2 0x13AE JUMPI PUSH2 0x13AD PUSH2 0x20A4 JUMP JUMPDEST JUMPDEST PUSH1 0x20 ADD ADD MLOAD PUSH1 0xF8 SHR PUSH1 0xF8 SHL PUSH1 0xF8 SHR PUSH1 0xFF AND PUSH2 0x13C9 SWAP2 SWAP1 PUSH2 0x2425 JUMP JUMPDEST PUSH8 0xFFFFFFFFFFFFFFFF AND PUSH2 0x100 DUP11 PUSH1 0x1 DUP12 PUSH2 0x13E4 SWAP2 SWAP1 PUSH2 0x22B1 JUMP JUMPDEST DUP2 MLOAD DUP2 LT PUSH2 0x13F5 JUMPI PUSH2 0x13F4 PUSH2 0x20A4 JUMP JUMPDEST JUMPDEST PUSH1 0x20 ADD ADD MLOAD PUSH1 0xF8 SHR PUSH1 0xF8 SHL PUSH1 0xF8 SHR PUSH1 0xFF AND PUSH2 0x1410 SWAP2 SWAP1 PUSH2 0x2425 JUMP JUMPDEST PUSH8 0xFFFFFFFFFFFFFFFF AND DUP11 DUP11 DUP2 MLOAD DUP2 LT PUSH2 0x142D JUMPI PUSH2 0x142C PUSH2 0x20A4 JUMP JUMPDEST JUMPDEST PUSH1 0x20 ADD ADD MLOAD PUSH1 0xF8 SHR PUSH1 0xF8 SHL PUSH1 0xF8 SHR PUSH1 0xFF AND PUSH8 0xFFFFFFFFFFFFFFFF AND PUSH2 0x1452 SWAP2 SWAP1 PUSH2 0x22B1 JUMP JUMPDEST PUSH2 0x145C SWAP2 SWAP1 PUSH2 0x22B1 JUMP JUMPDEST PUSH2 0x1466 SWAP2 SWAP1 PUSH2 0x22B1 JUMP JUMPDEST PUSH2 0x1470 SWAP2 SWAP1 PUSH2 0x22B1 JUMP JUMPDEST PUSH2 0x147A SWAP2 SWAP1 PUSH2 0x22B1 JUMP JUMPDEST PUSH2 0x1484 SWAP2 SWAP1 PUSH2 0x22B1 JUMP JUMPDEST PUSH2 0x148E SWAP2 SWAP1 PUSH2 0x22B1 JUMP JUMPDEST SWAP1 POP PUSH2 0x1496 JUMP JUMPDEST JUMPDEST SWAP4 SWAP3 POP POP POP JUMP JUMPDEST PUSH1 0x0 PUSH1 0x19 DUP3 EQ DUP1 ISZERO PUSH2 0x14F1 JUMPI POP PUSH1 0x76 PUSH1 0xF8 SHL DUP5 DUP5 DUP2 MLOAD DUP2 LT PUSH2 0x14C2 JUMPI PUSH2 0x14C1 PUSH2 0x20A4 JUMP JUMPDEST JUMPDEST PUSH1 0x20 ADD ADD MLOAD PUSH1 0xF8 SHR PUSH1 0xF8 SHL PUSH31 0xFFFFFFFFFFFFFFFFFFFFFFFFFFFFFFFFFFFFFFFFFFFFFFFFFFFFFFFFFFFFFF NOT AND EQ JUMPDEST DUP1 ISZERO PUSH2 0x154B JUMPI POP PUSH1 0xA9 PUSH1 0xF8 SHL DUP5 PUSH1 0x1 DUP6 PUSH2 0x150B SWAP2 SWAP1 PUSH2 0x22B1 JUMP JUMPDEST DUP2 MLOAD DUP2 LT PUSH2 0x151C JUMPI PUSH2 0x151B PUSH2 0x20A4 JUMP JUMPDEST JUMPDEST PUSH1 0x20 ADD ADD MLOAD PUSH1 0xF8 SHR PUSH1 0xF8 SHL PUSH31 0xFFFFFFFFFFFFFFFFFFFFFFFFFFFFFFFFFFFFFFFFFFFFFFFFFFFFFFFFFFFFFF NOT AND EQ JUMPDEST DUP1 ISZERO PUSH2 0x15A5 JUMPI POP PUSH1 0x14 PUSH1 0xF8 SHL DUP5 PUSH1 0x2 DUP6 PUSH2 0x1565 SWAP2 SWAP1 PUSH2 0x22B1 JUMP JUMPDEST DUP2 MLOAD DUP2 LT PUSH2 0x1576 JUMPI PUSH2 0x1575 PUSH2 0x20A4 JUMP JUMPDEST JUMPDEST PUSH1 0x20 ADD ADD MLOAD PUSH1 0xF8 SHR PUSH1 0xF8 SHL PUSH31 0xFFFFFFFFFFFFFFFFFFFFFFFFFFFFFFFFFFFFFFFFFFFFFFFFFFFFFFFFFFFFFF NOT AND EQ JUMPDEST DUP1 ISZERO PUSH2 0x15FF JUMPI POP PUSH1 0x88 PUSH1 0xF8 SHL DUP5 PUSH1 0x17 DUP6 PUSH2 0x15BF SWAP2 SWAP1 PUSH2 0x22B1 JUMP JUMPDEST DUP2 MLOAD DUP2 LT PUSH2 0x15D0 JUMPI PUSH2 0x15CF PUSH2 0x20A4 JUMP JUMPDEST JUMPDEST PUSH1 0x20 ADD ADD MLOAD PUSH1 0xF8 SHR PUSH1 0xF8 SHL PUSH31 0xFFFFFFFFFFFFFFFFFFFFFFFFFFFFFFFFFFFFFFFFFFFFFFFFFFFFFFFFFFFFFF NOT AND EQ JUMPDEST DUP1 ISZERO PUSH2 0x1659 JUMPI POP PUSH1 0xAC PUSH1 0xF8 SHL DUP5 PUSH1 0x18 DUP6 PUSH2 0x1619 SWAP2 SWAP1 PUSH2 0x22B1 JUMP JUMPDEST DUP2 MLOAD DUP2 LT PUSH2 0x162A JUMPI PUSH2 0x1629 PUSH2 0x20A4 JUMP JUMPDEST JUMPDEST PUSH1 0x20 ADD ADD MLOAD PUSH1 0xF8 SHR PUSH1 0xF8 SHL PUSH31 0xFFFFFFFFFFFFFFFFFFFFFFFFFFFFFFFFFFFFFFFFFFFFFFFFFFFFFFFFFFFFFF NOT AND EQ JUMPDEST SWAP1 POP SWAP4 SWAP3 POP POP POP JUMP JUMPDEST PUSH1 0x0 DUP1 PUSH1 0x0 SWAP1 POP PUSH1 0x0 JUMPDEST PUSH1 0x14 DUP2 PUSH20 0xFFFFFFFFFFFFFFFFFFFFFFFFFFFFFFFFFFFFFFFF AND LT ISZERO PUSH2 0x1737 JUMPI DUP1 PUSH1 0x13 PUSH2 0x1698 SWAP2 SWAP1 PUSH2 0x2482 JUMP JUMPDEST PUSH1 0x8 PUSH2 0x16A4 SWAP2 SWAP1 PUSH2 0x24CA JUMP JUMPDEST PUSH20 0xFFFFFFFFFFFFFFFFFFFFFFFFFFFFFFFFFFFFFFFF AND DUP6 DUP6 DUP4 PUSH20 0xFFFFFFFFFFFFFFFFFFFFFFFFFFFFFFFFFFFFFFFF AND PUSH2 0x16DD SWAP2 SWAP1 PUSH2 0x22B1 JUMP JUMPDEST DUP2 MLOAD DUP2 LT PUSH2 0x16EE JUMPI PUSH2 0x16ED PUSH2 0x20A4 JUMP JUMPDEST JUMPDEST PUSH1 0x20 ADD ADD MLOAD PUSH1 0xF8 SHR PUSH1 0xF8 SHL PUSH1 0xF8 SHR PUSH1 0xFF AND PUSH20 0xFFFFFFFFFFFFFFFFFFFFFFFFFFFFFFFFFFFFFFFF AND SWAP1 SHL DUP3 PUSH2 0x1722 SWAP2 SWAP1 PUSH2 0x250C JUMP JUMPDEST SWAP2 POP DUP1 DUP1 PUSH2 0x172F SWAP1 PUSH2 0x2554 JUMP JUMPDEST SWAP2 POP POP PUSH2 0x166C JUMP JUMPDEST POP DUP1 PUSH1 0x60 SHL SWAP2 POP POP SWAP3 SWAP2 POP POP JUMP JUMPDEST PUSH1 0x0 PUSH1 0x17 DUP3 EQ DUP1 ISZERO PUSH2 0x17A5 JUMPI POP PUSH1 0xA9 PUSH1 0xF8 SHL DUP5 PUSH1 0x0 DUP6 PUSH2 0x1765 SWAP2 SWAP1 PUSH2 0x22B1 JUMP JUMPDEST DUP2 MLOAD DUP2 LT PUSH2 0x1776 JUMPI PUSH2 0x1775 PUSH2 0x20A4 JUMP JUMPDEST JUMPDEST PUSH1 0x20 ADD ADD MLOAD PUSH1 0xF8 SHR PUSH1 0xF8 SHL PUSH31 0xFFFFFFFFFFFFFFFFFFFFFFFFFFFFFFFFFFFFFFFFFFFFFFFFFFFFFFFFFFFFFF NOT AND EQ JUMPDEST DUP1 ISZERO PUSH2 0x17FF JUMPI POP PUSH1 0x14 PUSH1 0xF8 SHL DUP5 PUSH1 0x1 DUP6 PUSH2 0x17BF SWAP2 SWAP1 PUSH2 0x22B1 JUMP JUMPDEST DUP2 MLOAD DUP2 LT PUSH2 0x17D0 JUMPI PUSH2 0x17CF PUSH2 0x20A4 JUMP JUMPDEST JUMPDEST PUSH1 0x20 ADD ADD MLOAD PUSH1 0xF8 SHR PUSH1 0xF8 SHL PUSH31 0xFFFFFFFFFFFFFFFFFFFFFFFFFFFFFFFFFFFFFFFFFFFFFFFFFFFFFFFFFFFFFF NOT AND EQ JUMPDEST DUP1 ISZERO PUSH2 0x1859 JUMPI POP PUSH1 0x87 PUSH1 0xF8 SHL DUP5 PUSH1 0x16 DUP6 PUSH2 0x1819 SWAP2 SWAP1 PUSH2 0x22B1 JUMP JUMPDEST DUP2 MLOAD DUP2 LT PUSH2 0x182A JUMPI PUSH2 0x1829 PUSH2 0x20A4 JUMP JUMPDEST JUMPDEST PUSH1 0x20 ADD ADD MLOAD PUSH1 0xF8 SHR PUSH1 0xF8 SHL PUSH31 0xFFFFFFFFFFFFFFFFFFFFFFFFFFFFFFFFFFFFFFFFFFFFFFFFFFFFFFFFFFFFFF NOT AND EQ JUMPDEST SWAP1 POP SWAP4 SWAP3 POP POP POP JUMP JUMPDEST PUSH1 0x0 PUSH11 0x636F6E736F6C652E6C6F67 SWAP1 POP PUSH1 0x0 DUP1 DUP4 MLOAD PUSH1 0x20 DUP6 ADD DUP5 GAS STATICCALL POP POP POP JUMP JUMPDEST PUSH2 0x19B6 DUP2 SWAP1 POP SWAP2 SWAP1 POP JUMP JUMPDEST PUSH1 0x0 DUP1 PUSH2 0x18A4 DUP4 DUP6 PUSH2 0x193C SWAP1 SWAP2 SWAP1 PUSH4 0xFFFFFFFF AND JUMP JUMPDEST SWAP1 POP PUSH1 0x40 MLOAD DUP2 GT ISZERO PUSH2 0x18B5 JUMPI PUSH1 0x0 SWAP1 POP JUMPDEST PUSH1 0x0 DUP2 SUB PUSH2 0x18E6 JUMPI PUSH32 0xFFFFFFFFFFFFFFFFFFFFFFFFFFFFFFFFFFFFFFFFFFFFFFFFFFFFFFFFFF000000 SWAP2 POP POP PUSH2 0x18F5 JUMP JUMPDEST PUSH2 0x18F1 DUP6 DUP6 DUP6 PUSH2 0x1995 JUMP JUMPDEST SWAP2 POP POP JUMPDEST SWAP4 SWAP3 POP POP POP JUMP JUMPDEST PUSH1 0x0 DUP1 PUSH12 0xFFFFFFFFFFFFFFFFFFFFFFFF SWAP1 POP DUP1 DUP4 PUSH1 0x78 SHR AND SWAP2 POP POP SWAP2 SWAP1 POP JUMP JUMPDEST PUSH1 0x0 DUP1 PUSH12 0xFFFFFFFFFFFFFFFFFFFFFFFF SWAP1 POP DUP1 DUP4 PUSH1 0x18 SHR AND SWAP2 POP POP SWAP2 SWAP1 POP JUMP JUMPDEST PUSH1 0x0 DUP2 DUP4 PUSH2 0x194A SWAP2 SWAP1 PUSH2 0x22B1 JUMP JUMPDEST SWAP1 POP DUP3 DUP2 LT ISZERO PUSH2 0x198F JUMPI PUSH1 0x40 MLOAD PUSH32 0x8C379A000000000000000000000000000000000000000000000000000000000 DUP2 MSTORE PUSH1 0x4 ADD PUSH2 0x1986 SWAP1 PUSH2 0x25DC JUMP JUMPDEST PUSH1 0x40 MLOAD DUP1 SWAP2 SUB SWAP1 REVERT JUMPDEST SWAP3 SWAP2 POP POP JUMP JUMPDEST PUSH1 0x0 DUP4 DUP2 OR PUSH1 0x60 SHL SWAP1 POP DUP3 DUP2 OR PUSH1 0x60 SHL SWAP1 POP DUP2 DUP2 OR PUSH1 0x18 SHL SWAP1 POP SWAP4 SWAP3 POP POP POP JUMP JUMPDEST PUSH2 0x19BE PUSH2 0x25FC JUMP JUMPDEST JUMP JUMPDEST PUSH1 0x0 PUSH1 0x40 MLOAD SWAP1 POP SWAP1 JUMP JUMPDEST PUSH1 0x0 DUP1 REVERT JUMPDEST PUSH1 0x0 DUP1 REVERT JUMPDEST PUSH1 0x0 DUP2 SWAP1 POP SWAP2 SWAP1 POP JUMP JUMPDEST PUSH2 0x19E7 DUP2 PUSH2 0x19D4 JUMP JUMPDEST DUP2 EQ PUSH2 0x19F2 JUMPI PUSH1 0x0 DUP1 REVERT JUMPDEST POP JUMP JUMPDEST PUSH1 0x0 DUP2 CALLDATALOAD SWAP1 POP PUSH2 0x1A04 DUP2 PUSH2 0x19DE JUMP JUMPDEST SWAP3 SWAP2 POP POP JUMP JUMPDEST PUSH1 0x0 DUP2 SWAP1 POP SWAP2 SWAP1 POP JUMP JUMPDEST PUSH2 0x1A1D DUP2 PUSH2 0x1A0A JUMP JUMPDEST DUP2 EQ PUSH2 0x1A28 JUMPI PUSH1 0x0 DUP1 REVERT JUMPDEST POP JUMP JUMPDEST PUSH1 0x0 DUP2 CALLDATALOAD SWAP1 POP PUSH2 0x1A3A DUP2 PUSH2 0x1A14 JUMP JUMPDEST SWAP3 SWAP2 POP POP JUMP JUMPDEST PUSH1 0x0 DUP1 PUSH1 0x0 DUP1 PUSH1 0x0 PUSH1 0xA0 DUP7 DUP9 SUB SLT ISZERO PUSH2 0x1A5C JUMPI PUSH2 0x1A5B PUSH2 0x19CA JUMP JUMPDEST JUMPDEST PUSH1 0x0 PUSH2 0x1A6A DUP9 DUP3 DUP10 ADD PUSH2 0x19F5 JUMP JUMPDEST SWAP6 POP POP PUSH1 0x20 PUSH2 0x1A7B DUP9 DUP3 DUP10 ADD PUSH2 0x19F5 JUMP JUMPDEST SWAP5 POP POP PUSH1 0x40 PUSH2 0x1A8C DUP9 DUP3 DUP10 ADD PUSH2 0x19F5 JUMP JUMPDEST SWAP4 POP POP PUSH1 0x60 PUSH2 0x1A9D DUP9 DUP3 DUP10 ADD PUSH2 0x1A2B JUMP JUMPDEST SWAP3 POP POP PUSH1 0x80 PUSH2 0x1AAE DUP9 DUP3 DUP10 ADD PUSH2 0x1A2B JUMP JUMPDEST SWAP2 POP POP SWAP3 SWAP6 POP SWAP3 SWAP6 SWAP1 SWAP4 POP JUMP JUMPDEST PUSH1 0x0 DUP1 REVERT JUMPDEST PUSH1 0x0 DUP1 REVERT JUMPDEST PUSH1 0x0 PUSH1 0x1F NOT PUSH1 0x1F DUP4 ADD AND SWAP1 POP SWAP2 SWAP1 POP JUMP JUMPDEST PUSH32 0x4E487B7100000000000000000000000000000000000000000000000000000000 PUSH1 0x0 MSTORE PUSH1 0x41 PUSH1 0x4 MSTORE PUSH1 0x24 PUSH1 0x0 REVERT JUMPDEST PUSH2 0x1B0E DUP3 PUSH2 0x1AC5 JUMP JUMPDEST DUP2 ADD DUP2 DUP2 LT PUSH8 0xFFFFFFFFFFFFFFFF DUP3 GT OR ISZERO PUSH2 0x1B2D JUMPI PUSH2 0x1B2C PUSH2 0x1AD6 JUMP JUMPDEST JUMPDEST DUP1 PUSH1 0x40 MSTORE POP POP POP JUMP JUMPDEST PUSH1 0x0 PUSH2 0x1B40 PUSH2 0x19C0 JUMP JUMPDEST SWAP1 POP PUSH2 0x1B4C DUP3 DUP3 PUSH2 0x1B05 JUMP JUMPDEST SWAP2 SWAP1 POP JUMP JUMPDEST PUSH1 0x0 PUSH8 0xFFFFFFFFFFFFFFFF DUP3 GT ISZERO PUSH2 0x1B6C JUMPI PUSH2 0x1B6B PUSH2 0x1AD6 JUMP JUMPDEST JUMPDEST PUSH2 0x1B75 DUP3 PUSH2 0x1AC5 JUMP JUMPDEST SWAP1 POP PUSH1 0x20 DUP2 ADD SWAP1 POP SWAP2 SWAP1 POP JUMP JUMPDEST DUP3 DUP2 DUP4 CALLDATACOPY PUSH1 0x0 DUP4 DUP4 ADD MSTORE POP POP POP JUMP JUMPDEST PUSH1 0x0 PUSH2 0x1BA4 PUSH2 0x1B9F DUP5 PUSH2 0x1B51 JUMP JUMPDEST PUSH2 0x1B36 JUMP JUMPDEST SWAP1 POP DUP3 DUP2 MSTORE PUSH1 0x20 DUP2 ADD DUP5 DUP5 DUP5 ADD GT ISZERO PUSH2 0x1BC0 JUMPI PUSH2 0x1BBF PUSH2 0x1AC0 JUMP JUMPDEST JUMPDEST PUSH2 0x1BCB DUP5 DUP3 DUP6 PUSH2 0x1B82 JUMP JUMPDEST POP SWAP4 SWAP3 POP POP POP JUMP JUMPDEST PUSH1 0x0 DUP3 PUSH1 0x1F DUP4 ADD SLT PUSH2 0x1BE8 JUMPI PUSH2 0x1BE7 PUSH2 0x1ABB JUMP JUMPDEST JUMPDEST DUP2 CALLDATALOAD PUSH2 0x1BF8 DUP5 DUP3 PUSH1 0x20 DUP7 ADD PUSH2 0x1B91 JUMP JUMPDEST SWAP2 POP POP SWAP3 SWAP2 POP POP JUMP JUMPDEST PUSH1 0x0 DUP1 PUSH1 0x0 DUP1 PUSH1 0x80 DUP6 DUP8 SUB SLT ISZERO PUSH2 0x1C1B JUMPI PUSH2 0x1C1A PUSH2 0x19CA JUMP JUMPDEST JUMPDEST PUSH1 0x0 DUP6 ADD CALLDATALOAD PUSH8 0xFFFFFFFFFFFFFFFF DUP2 GT ISZERO PUSH2 0x1C39 JUMPI PUSH2 0x1C38 PUSH2 0x19CF JUMP JUMPDEST JUMPDEST PUSH2 0x1C45 DUP8 DUP3 DUP9 ADD PUSH2 0x1BD3 JUMP JUMPDEST SWAP5 POP POP PUSH1 0x20 DUP6 ADD CALLDATALOAD PUSH8 0xFFFFFFFFFFFFFFFF DUP2 GT ISZERO PUSH2 0x1C66 JUMPI PUSH2 0x1C65 PUSH2 0x19CF JUMP JUMPDEST JUMPDEST PUSH2 0x1C72 DUP8 DUP3 DUP9 ADD PUSH2 0x1BD3 JUMP JUMPDEST SWAP4 POP POP PUSH1 0x40 DUP6 ADD CALLDATALOAD PUSH8 0xFFFFFFFFFFFFFFFF DUP2 GT ISZERO PUSH2 0x1C93 JUMPI PUSH2 0x1C92 PUSH2 0x19CF JUMP JUMPDEST JUMPDEST PUSH2 0x1C9F DUP8 DUP3 DUP9 ADD PUSH2 0x1BD3 JUMP JUMPDEST SWAP3 POP POP PUSH1 0x60 DUP6 ADD CALLDATALOAD PUSH8 0xFFFFFFFFFFFFFFFF DUP2 GT ISZERO PUSH2 0x1CC0 JUMPI PUSH2 0x1CBF PUSH2 0x19CF JUMP JUMPDEST JUMPDEST PUSH2 0x1CCC DUP8 DUP3 DUP9 ADD PUSH2 0x1BD3 JUMP JUMPDEST SWAP2 POP POP SWAP3 SWAP6 SWAP2 SWAP5 POP SWAP3 POP JUMP JUMPDEST PUSH1 0x0 PUSH1 0xFF DUP3 AND SWAP1 POP SWAP2 SWAP1 POP JUMP JUMPDEST PUSH2 0x1CEE DUP2 PUSH2 0x1CD8 JUMP JUMPDEST DUP2 EQ PUSH2 0x1CF9 JUMPI PUSH1 0x0 DUP1 REVERT JUMPDEST POP JUMP JUMPDEST PUSH1 0x0 DUP2 CALLDATALOAD SWAP1 POP PUSH2 0x1D0B DUP2 PUSH2 0x1CE5 JUMP JUMPDEST SWAP3 SWAP2 POP POP JUMP JUMPDEST PUSH1 0x0 DUP1 PUSH1 0x0 DUP1 PUSH1 0x0 PUSH1 0xA0 DUP7 DUP9 SUB SLT ISZERO PUSH2 0x1D2D JUMPI PUSH2 0x1D2C PUSH2 0x19CA JUMP JUMPDEST JUMPDEST PUSH1 0x0 DUP7 ADD CALLDATALOAD PUSH8 0xFFFFFFFFFFFFFFFF DUP2 GT ISZERO PUSH2 0x1D4B JUMPI PUSH2 0x1D4A PUSH2 0x19CF JUMP JUMPDEST JUMPDEST PUSH2 0x1D57 DUP9 DUP3 DUP10 ADD PUSH2 0x1BD3 JUMP JUMPDEST SWAP6 POP POP PUSH1 0x20 PUSH2 0x1D68 DUP9 DUP3 DUP10 ADD PUSH2 0x19F5 JUMP JUMPDEST SWAP5 POP POP PUSH1 0x40 PUSH2 0x1D79 DUP9 DUP3 DUP10 ADD PUSH2 0x1CFC JUMP JUMPDEST SWAP4 POP POP PUSH1 0x60 PUSH2 0x1D8A DUP9 DUP3 DUP10 ADD PUSH2 0x19F5 JUMP JUMPDEST SWAP3 POP POP PUSH1 0x80 PUSH2 0x1D9B DUP9 DUP3 DUP10 ADD PUSH2 0x19F5 JUMP JUMPDEST SWAP2 POP POP SWAP3 SWAP6 POP SWAP3 SWAP6 SWAP1 SWAP4 POP JUMP JUMPDEST PUSH1 0x0 DUP2 ISZERO ISZERO SWAP1 POP SWAP2 SWAP1 POP JUMP JUMPDEST PUSH2 0x1DBD DUP2 PUSH2 0x1DA8 JUMP JUMPDEST DUP3 MSTORE POP POP JUMP JUMPDEST PUSH1 0x0 PUSH1 0x20 DUP3 ADD SWAP1 POP PUSH2 0x1DD8 PUSH1 0x0 DUP4 ADD DUP5 PUSH2 0x1DB4 JUMP JUMPDEST SWAP3 SWAP2 POP POP JUMP JUMPDEST PUSH1 0x0 DUP1 PUSH1 0x0 PUSH1 0x60 DUP5 DUP7 SUB SLT ISZERO PUSH2 0x1DF7 JUMPI PUSH2 0x1DF6 PUSH2 0x19CA JUMP JUMPDEST JUMPDEST PUSH1 0x0 DUP5 ADD CALLDATALOAD PUSH8 0xFFFFFFFFFFFFFFFF DUP2 GT ISZERO PUSH2 0x1E15 JUMPI PUSH2 0x1E14 PUSH2 0x19CF JUMP JUMPDEST JUMPDEST PUSH2 0x1E21 DUP7 DUP3 DUP8 ADD PUSH2 0x1BD3 JUMP JUMPDEST SWAP4 POP POP PUSH1 0x20 DUP5 ADD CALLDATALOAD PUSH8 0xFFFFFFFFFFFFFFFF DUP2 GT ISZERO PUSH2 0x1E42 JUMPI PUSH2 0x1E41 PUSH2 0x19CF JUMP JUMPDEST JUMPDEST PUSH2 0x1E4E DUP7 DUP3 DUP8 ADD PUSH2 0x1BD3 JUMP JUMPDEST SWAP3 POP POP PUSH1 0x40 DUP5 ADD CALLDATALOAD PUSH8 0xFFFFFFFFFFFFFFFF DUP2 GT ISZERO PUSH2 0x1E6F JUMPI PUSH2 0x1E6E PUSH2 0x19CF JUMP JUMPDEST JUMPDEST PUSH2 0x1E7B DUP7 DUP3 DUP8 ADD PUSH2 0x1BD3 JUMP JUMPDEST SWAP2 POP POP SWAP3 POP SWAP3 POP SWAP3 JUMP JUMPDEST PUSH2 0x1E8E DUP2 PUSH2 0x1A0A JUMP JUMPDEST DUP3 MSTORE POP POP JUMP JUMPDEST PUSH1 0x0 PUSH1 0x20 DUP3 ADD SWAP1 POP PUSH2 0x1EA9 PUSH1 0x0 DUP4 ADD DUP5 PUSH2 0x1E85 JUMP JUMPDEST SWAP3 SWAP2 POP POP JUMP JUMPDEST PUSH1 0x0 PUSH1 0x20 DUP3 DUP5 SUB SLT ISZERO PUSH2 0x1EC5 JUMPI PUSH2 0x1EC4 PUSH2 0x19CA JUMP JUMPDEST JUMPDEST PUSH1 0x0 DUP3 ADD CALLDATALOAD PUSH8 0xFFFFFFFFFFFFFFFF DUP2 GT ISZERO PUSH2 0x1EE3 JUMPI PUSH2 0x1EE2 PUSH2 0x19CF JUMP JUMPDEST JUMPDEST PUSH2 0x1EEF DUP5 DUP3 DUP6 ADD PUSH2 0x1BD3 JUMP JUMPDEST SWAP2 POP POP SWAP3 SWAP2 POP POP JUMP JUMPDEST PUSH1 0x0 PUSH32 0xFFFFFFFFFFFFFFFFFFFFFFFFFFFFFFFFFFFFFFFF000000000000000000000000 DUP3 AND SWAP1 POP SWAP2 SWAP1 POP JUMP JUMPDEST PUSH2 0x1F2D DUP2 PUSH2 0x1EF8 JUMP JUMPDEST DUP3 MSTORE POP POP JUMP JUMPDEST PUSH1 0x0 PUSH1 0x80 DUP3 ADD SWAP1 POP PUSH2 0x1F48 PUSH1 0x0 DUP4 ADD DUP8 PUSH2 0x1E85 JUMP JUMPDEST PUSH2 0x1F55 PUSH1 0x20 DUP4 ADD DUP7 PUSH2 0x1F24 JUMP JUMPDEST PUSH2 0x1F62 PUSH1 0x40 DUP4 ADD DUP6 PUSH2 0x1E85 JUMP JUMPDEST PUSH2 0x1F6F PUSH1 0x60 DUP4 ADD DUP5 PUSH2 0x1F24 JUMP JUMPDEST SWAP6 SWAP5 POP POP POP POP POP JUMP JUMPDEST PUSH1 0x0 DUP3 DUP3 MSTORE PUSH1 0x20 DUP3 ADD SWAP1 POP SWAP3 SWAP2 POP POP JUMP JUMPDEST PUSH32 0x436865636B426974636F696E536967732F636865636B536967202D2D20526571 PUSH1 0x0 DUP3 ADD MSTORE PUSH32 0x756972657320756E636F6D7072657373656420756E7072656669786564207075 PUSH1 0x20 DUP3 ADD MSTORE PUSH32 0x626B657900000000000000000000000000000000000000000000000000000000 PUSH1 0x40 DUP3 ADD MSTORE POP JUMP JUMPDEST PUSH1 0x0 PUSH2 0x200B PUSH1 0x44 DUP4 PUSH2 0x1F78 JUMP JUMPDEST SWAP2 POP PUSH2 0x2016 DUP3 PUSH2 0x1F89 JUMP JUMPDEST PUSH1 0x60 DUP3 ADD SWAP1 POP SWAP2 SWAP1 POP JUMP JUMPDEST PUSH1 0x0 PUSH1 0x20 DUP3 ADD SWAP1 POP DUP2 DUP2 SUB PUSH1 0x0 DUP4 ADD MSTORE PUSH2 0x203A DUP2 PUSH2 0x1FFE JUMP JUMPDEST SWAP1 POP SWAP2 SWAP1 POP JUMP JUMPDEST PUSH2 0x204A DUP2 PUSH2 0x19D4 JUMP JUMPDEST DUP3 MSTORE POP POP JUMP JUMPDEST PUSH2 0x2059 DUP2 PUSH2 0x1CD8 JUMP JUMPDEST DUP3 MSTORE POP POP JUMP JUMPDEST PUSH1 0x0 PUSH1 0x80 DUP3 ADD SWAP1 POP PUSH2 0x2074 PUSH1 0x0 DUP4 ADD DUP8 PUSH2 0x2041 JUMP JUMPDEST PUSH2 0x2081 PUSH1 0x20 DUP4 ADD DUP7 PUSH2 0x2050 JUMP JUMPDEST PUSH2 0x208E PUSH1 0x40 DUP4 ADD DUP6 PUSH2 0x2041 JUMP JUMPDEST PUSH2 0x209B PUSH1 0x60 DUP4 ADD DUP5 PUSH2 0x2041 JUMP JUMPDEST SWAP6 SWAP5 POP POP POP POP POP JUMP JUMPDEST PUSH32 0x4E487B7100000000000000000000000000000000000000000000000000000000 PUSH1 0x0 MSTORE PUSH1 0x32 PUSH1 0x4 MSTORE PUSH1 0x24 PUSH1 0x0 REVERT JUMPDEST PUSH32 0x4E487B7100000000000000000000000000000000000000000000000000000000 PUSH1 0x0 MSTORE PUSH1 0x11 PUSH1 0x4 MSTORE PUSH1 0x24 PUSH1 0x0 REVERT JUMPDEST PUSH1 0x0 PUSH2 0x210D DUP3 PUSH2 0x1A0A JUMP JUMPDEST SWAP2 POP PUSH32 0xFFFFFFFFFFFFFFFFFFFFFFFFFFFFFFFFFFFFFFFFFFFFFFFFFFFFFFFFFFFFFFFF DUP3 SUB PUSH2 0x213F JUMPI PUSH2 0x213E PUSH2 0x20D3 JUMP JUMPDEST JUMPDEST PUSH1 0x1 DUP3 ADD SWAP1 POP SWAP2 SWAP1 POP JUMP JUMPDEST PUSH1 0x0 DUP2 MLOAD SWAP1 POP SWAP2 SWAP1 POP JUMP JUMPDEST PUSH1 0x0 JUMPDEST DUP4 DUP2 LT ISZERO PUSH2 0x2173 JUMPI DUP1 DUP3 ADD MLOAD DUP2 DUP5 ADD MSTORE PUSH1 0x20 DUP2 ADD SWAP1 POP PUSH2 0x2158 JUMP JUMPDEST PUSH1 0x0 DUP5 DUP5 ADD MSTORE POP POP POP POP JUMP JUMPDEST PUSH1 0x0 PUSH2 0x218A DUP3 PUSH2 0x214A JUMP JUMPDEST PUSH2 0x2194 DUP2 DUP6 PUSH2 0x1F78 JUMP JUMPDEST SWAP4 POP PUSH2 0x21A4 DUP2 DUP6 PUSH1 0x20 DUP7 ADD PUSH2 0x2155 JUMP JUMPDEST PUSH2 0x21AD DUP2 PUSH2 0x1AC5 JUMP JUMPDEST DUP5 ADD SWAP2 POP POP SWAP3 SWAP2 POP POP JUMP JUMPDEST PUSH1 0x0 PUSH1 0x40 DUP3 ADD SWAP1 POP DUP2 DUP2 SUB PUSH1 0x0 DUP4 ADD MSTORE PUSH2 0x21D2 DUP2 DUP6 PUSH2 0x217F JUMP JUMPDEST SWAP1 POP PUSH2 0x21E1 PUSH1 0x20 DUP4 ADD DUP5 PUSH2 0x1E85 JUMP JUMPDEST SWAP4 SWAP3 POP POP POP JUMP JUMPDEST PUSH1 0x0 PUSH1 0x40 DUP3 ADD SWAP1 POP DUP2 DUP2 SUB PUSH1 0x0 DUP4 ADD MSTORE PUSH2 0x2202 DUP2 DUP6 PUSH2 0x217F JUMP JUMPDEST SWAP1 POP DUP2 DUP2 SUB PUSH1 0x20 DUP4 ADD MSTORE PUSH2 0x2216 DUP2 DUP5 PUSH2 0x217F JUMP JUMPDEST SWAP1 POP SWAP4 SWAP3 POP POP POP JUMP JUMPDEST PUSH32 0x5075626B6579206D7573742062652036342D62797465207261772C20756E636F PUSH1 0x0 DUP3 ADD MSTORE PUSH32 0x6D70726573736564206B65792E00000000000000000000000000000000000000 PUSH1 0x20 DUP3 ADD MSTORE POP JUMP JUMPDEST PUSH1 0x0 PUSH2 0x227B PUSH1 0x2D DUP4 PUSH2 0x1F78 JUMP JUMPDEST SWAP2 POP PUSH2 0x2286 DUP3 PUSH2 0x221F JUMP JUMPDEST PUSH1 0x40 DUP3 ADD SWAP1 POP SWAP2 SWAP1 POP JUMP JUMPDEST PUSH1 0x0 PUSH1 0x20 DUP3 ADD SWAP1 POP DUP2 DUP2 SUB PUSH1 0x0 DUP4 ADD MSTORE PUSH2 0x22AA DUP2 PUSH2 0x226E JUMP JUMPDEST SWAP1 POP SWAP2 SWAP1 POP JUMP JUMPDEST PUSH1 0x0 PUSH2 0x22BC DUP3 PUSH2 0x1A0A JUMP JUMPDEST SWAP2 POP PUSH2 0x22C7 DUP4 PUSH2 0x1A0A JUMP JUMPDEST SWAP3 POP DUP3 DUP3 ADD SWAP1 POP DUP1 DUP3 GT ISZERO PUSH2 0x22DF JUMPI PUSH2 0x22DE PUSH2 0x20D3 JUMP JUMPDEST JUMPDEST SWAP3 SWAP2 POP POP JUMP JUMPDEST PUSH1 0x0 PUSH2 0x22F0 DUP3 PUSH2 0x1A0A JUMP JUMPDEST SWAP2 POP PUSH2 0x22FB DUP4 PUSH2 0x1A0A JUMP JUMPDEST SWAP3 POP DUP3 DUP3 MUL PUSH2 0x2309 DUP2 PUSH2 0x1A0A JUMP JUMPDEST SWAP2 POP DUP3 DUP3 DIV DUP5 EQ DUP4 ISZERO OR PUSH2 0x2320 JUMPI PUSH2 0x231F PUSH2 0x20D3 JUMP JUMPDEST JUMPDEST POP SWAP3 SWAP2 POP POP JUMP JUMPDEST PUSH1 0x0 PUSH2 0x2332 DUP3 PUSH2 0x1A0A JUMP JUMPDEST SWAP2 POP PUSH1 0x0 DUP3 SUB PUSH2 0x2345 JUMPI PUSH2 0x2344 PUSH2 0x20D3 JUMP JUMPDEST JUMPDEST PUSH1 0x1 DUP3 SUB SWAP1 POP SWAP2 SWAP1 POP JUMP JUMPDEST PUSH1 0x0 PUSH1 0x40 DUP3 ADD SWAP1 POP PUSH2 0x2365 PUSH1 0x0 DUP4 ADD DUP6 PUSH2 0x1E85 JUMP JUMPDEST PUSH2 0x2372 PUSH1 0x20 DUP4 ADD DUP5 PUSH2 0x1E85 JUMP JUMPDEST SWAP4 SWAP3 POP POP POP JUMP JUMPDEST PUSH1 0x0 PUSH2 0xFFFF DUP3 AND SWAP1 POP SWAP2 SWAP1 POP JUMP JUMPDEST PUSH1 0x0 PUSH2 0x2392 DUP3 PUSH2 0x2379 JUMP JUMPDEST SWAP2 POP PUSH2 0x239D DUP4 PUSH2 0x2379 JUMP JUMPDEST SWAP3 POP DUP3 DUP3 MUL PUSH2 0x23AB DUP2 PUSH2 0x2379 JUMP JUMPDEST SWAP2 POP DUP1 DUP3 EQ PUSH2 0x23BD JUMPI PUSH2 0x23BC PUSH2 0x20D3 JUMP JUMPDEST JUMPDEST POP SWAP3 SWAP2 POP POP JUMP JUMPDEST PUSH1 0x0 PUSH4 0xFFFFFFFF DUP3 AND SWAP1 POP SWAP2 SWAP1 POP JUMP JUMPDEST PUSH1 0x0 PUSH2 0x23DF DUP3 PUSH2 0x23C4 JUMP JUMPDEST SWAP2 POP PUSH2 0x23EA DUP4 PUSH2 0x23C4 JUMP JUMPDEST SWAP3 POP DUP3 DUP3 MUL PUSH2 0x23F8 DUP2 PUSH2 0x23C4 JUMP JUMPDEST SWAP2 POP DUP1 DUP3 EQ PUSH2 0x240A JUMPI PUSH2 0x2409 PUSH2 0x20D3 JUMP JUMPDEST JUMPDEST POP SWAP3 SWAP2 POP POP JUMP JUMPDEST PUSH1 0x0 PUSH8 0xFFFFFFFFFFFFFFFF DUP3 AND SWAP1 POP SWAP2 SWAP1 POP JUMP JUMPDEST PUSH1 0x0 PUSH2 0x2430 DUP3 PUSH2 0x2411 JUMP JUMPDEST SWAP2 POP PUSH2 0x243B DUP4 PUSH2 0x2411 JUMP JUMPDEST SWAP3 POP DUP3 DUP3 MUL PUSH2 0x2449 DUP2 PUSH2 0x2411 JUMP JUMPDEST SWAP2 POP DUP1 DUP3 EQ PUSH2 0x245B JUMPI PUSH2 0x245A PUSH2 0x20D3 JUMP JUMPDEST JUMPDEST POP SWAP3 SWAP2 POP POP JUMP JUMPDEST PUSH1 0x0 PUSH20 0xFFFFFFFFFFFFFFFFFFFFFFFFFFFFFFFFFFFFFFFF DUP3 AND SWAP1 POP SWAP2 SWAP1 POP JUMP JUMPDEST PUSH1 0x0 PUSH2 0x248D DUP3 PUSH2 0x2462 JUMP JUMPDEST SWAP2 POP PUSH2 0x2498 DUP4 PUSH2 0x2462 JUMP JUMPDEST SWAP3 POP DUP3 DUP3 SUB SWAP1 POP PUSH20 0xFFFFFFFFFFFFFFFFFFFFFFFFFFFFFFFFFFFFFFFF DUP2 GT ISZERO PUSH2 0x24C4 JUMPI PUSH2 0x24C3 PUSH2 0x20D3 JUMP JUMPDEST JUMPDEST SWAP3 SWAP2 POP POP JUMP JUMPDEST PUSH1 0x0 PUSH2 0x24D5 DUP3 PUSH2 0x2462 JUMP JUMPDEST SWAP2 POP PUSH2 0x24E0 DUP4 PUSH2 0x2462 JUMP JUMPDEST SWAP3 POP DUP3 DUP3 MUL PUSH2 0x24EE DUP2 PUSH2 0x2462 JUMP JUMPDEST SWAP2 POP DUP3 DUP3 DIV DUP5 EQ DUP4 ISZERO OR PUSH2 0x2505 JUMPI PUSH2 0x2504 PUSH2 0x20D3 JUMP JUMPDEST JUMPDEST POP SWAP3 SWAP2 POP POP JUMP JUMPDEST PUSH1 0x0 PUSH2 0x2517 DUP3 PUSH2 0x2462 JUMP JUMPDEST SWAP2 POP PUSH2 0x2522 DUP4 PUSH2 0x2462 JUMP JUMPDEST SWAP3 POP DUP3 DUP3 ADD SWAP1 POP PUSH20 0xFFFFFFFFFFFFFFFFFFFFFFFFFFFFFFFFFFFFFFFF DUP2 GT ISZERO PUSH2 0x254E JUMPI PUSH2 0x254D PUSH2 0x20D3 JUMP JUMPDEST JUMPDEST SWAP3 SWAP2 POP POP JUMP JUMPDEST PUSH1 0x0 PUSH2 0x255F DUP3 PUSH2 0x2462 JUMP JUMPDEST SWAP2 POP PUSH20 0xFFFFFFFFFFFFFFFFFFFFFFFFFFFFFFFFFFFFFFFF DUP3 SUB PUSH2 0x2585 JUMPI PUSH2 0x2584 PUSH2 0x20D3 JUMP JUMPDEST JUMPDEST PUSH1 0x1 DUP3 ADD SWAP1 POP SWAP2 SWAP1 POP JUMP JUMPDEST PUSH32 0x4F766572666C6F7720647572696E67206164646974696F6E2E00000000000000 PUSH1 0x0 DUP3 ADD MSTORE POP JUMP JUMPDEST PUSH1 0x0 PUSH2 0x25C6 PUSH1 0x19 DUP4 PUSH2 0x1F78 JUMP JUMPDEST SWAP2 POP PUSH2 0x25D1 DUP3 PUSH2 0x2590 JUMP JUMPDEST PUSH1 0x20 DUP3 ADD SWAP1 POP SWAP2 SWAP1 POP JUMP JUMPDEST PUSH1 0x0 PUSH1 0x20 DUP3 ADD SWAP1 POP DUP2 DUP2 SUB PUSH1 0x0 DUP4 ADD MSTORE PUSH2 0x25F5 DUP2 PUSH2 0x25B9 JUMP JUMPDEST SWAP1 POP SWAP2 SWAP1 POP JUMP JUMPDEST PUSH32 0x4E487B7100000000000000000000000000000000000000000000000000000000 PUSH1 0x0 MSTORE PUSH1 0x51 PUSH1 0x4 MSTORE PUSH1 0x24 PUSH1 0x0 REVERT INVALID LOG2 PUSH5 0x6970667358 0x22 SLT KECCAK256 ADD EXTCODESIZE 0x5C 0x2D SSTORE 0xCB 0xE9 DUP7 0xA7 0xD9 PUSH29 0xB18F7922DCC184335A90CF0CFEE8F4025C9BB72AF964736F6C63430008 SGT STOP CALLER "},"methodIdentifiers":{"dispute(bytes,bytes,bytes,bytes)":"43f104d2","getTheTwoOutputs(bytes)":"e605c767","resolveDispute(bytes,bytes,bytes)":"79a85bd9","settle()":"11da60b4","setup(bytes32,bytes32,bytes32,uint256,uint256)":"06ac0e26","submitProof(bytes,bytes,bytes,bytes)":"3740d249","timestamp()":"b80777ea","timestamp_dispute()":"a5dd32ac","verifySignature(bytes,bytes32,uint8,bytes32,bytes32)":"47aa9573"}}}}}