{"contracts/ParseBitcoinRawTx.sol":{"ParseBitcoinRawTx":{"abi":[{"inputs":[{"internalType":"bytes","name":"_txBytes","type":"bytes"}],"name":"getInputsData","outputs":[{"components":[{"internalType":"uint256","name":"number_of_inputs","type":"uint256"},{"internalType":"bytes32","name":"txid","type":"bytes32"},{"internalType":"bytes4","name":"inputIndex","type":"bytes4"}],"internalType":"struct ParseBitcoinRawTx.Input","name":"","type":"tuple"}],"stateMutability":"view","type":"function"},{"inputs":[{"internalType":"bytes","name":"_txBytes","type":"bytes"}],"name":"getOutputsData","outputs":[{"components":[{"internalType":"uint256","name":"value","type":"uint256"},{"internalType":"bytes32","name":"pk1","type":"bytes32"},{"internalType":"bytes32","name":"pk2","type":"bytes32"},{"internalType":"bytes32","name":"rev_secret","type":"bytes32"}],"internalType":"struct ParseBitcoinRawTx.LightningHTLCData","name":"","type":"tuple"},{"components":[{"internalType":"uint256","name":"value","type":"uint256"},{"internalType":"bytes20","name":"pkhash","type":"bytes20"}],"internalType":"struct ParseBitcoinRawTx.P2PKHData","name":"","type":"tuple"},{"components":[{"internalType":"uint256","name":"value","type":"uint256"},{"internalType":"bytes32","name":"data","type":"bytes32"}],"internalType":"struct ParseBitcoinRawTx.OpReturnData","name":"","type":"tuple"}],"stateMutability":"view","type":"function"},{"inputs":[{"internalType":"bytes","name":"_txBytes","type":"bytes"}],"name":"getSignatures","outputs":[{"components":[{"internalType":"uint8","name":"v","type":"uint8"},{"internalType":"bytes","name":"r","type":"bytes"},{"internalType":"bytes","name":"s","type":"bytes"}],"internalType":"struct ParseBitcoinRawTx.Signature","name":"","type":"tuple"},{"components":[{"internalType":"uint8","name":"v","type":"uint8"},{"internalType":"bytes","name":"r","type":"bytes"},{"internalType":"bytes","name":"s","type":"bytes"}],"internalType":"struct ParseBitcoinRawTx.Signature","name":"","type":"tuple"}],"stateMutability":"view","type":"function"},{"inputs":[{"internalType":"bytes","name":"_txBytes","type":"bytes"}],"name":"getTimelock","outputs":[{"internalType":"bytes4","name":"","type":"bytes4"}],"stateMutability":"view","type":"function"},{"inputs":[{"internalType":"uint256","name":"digest","type":"uint256"},{"internalType":"uint8","name":"v","type":"uint8"},{"internalType":"uint256","name":"r","type":"uint256"},{"internalType":"uint256","name":"s","type":"uint256"}],"name":"verifyBTCSignature","outputs":[{"internalType":"bytes","name":"","type":"bytes"}],"stateMutability":"view","type":"function"}],"evm":{"bytecode":{"linkReferences":{},"object":"608060405234801561001057600080fd5b506149b3806100206000396000f3fe608060405234801561001057600080fd5b50600436106100575760003560e01c8063369464801461005c578063497c6cf61461008c5780634f500ea9146100be5780635933bf61146100ee5780636b45b4e31461011e575b600080fd5b61007660048036038101906100719190613bfe565b61014f565b6040516100839190613c82565b60405180910390f35b6100a660048036038101906100a19190613bfe565b610185565b6040516100b593929190613dbd565b60405180910390f35b6100d860048036038101906100d39190613bfe565b61042c565b6040516100e59190613e46565b60405180910390f35b61010860048036038101906101039190613ec6565b610527565b6040516101159190613fac565b60405180910390f35b61013860048036038101906101339190613bfe565b610576565b60405161014692919061407e565b60405180910390f35b6000808251905060006101708460058461016991906140e4565b6004610795565b6101799061414a565b90508092505050919050565b61018d61396b565b61019561399c565b61019d6139c5565b6101a561396b565b6101ad6139c5565b6101b561399c565b6101bd6139e2565b60048160000181815250506101d888826000015160006108b3565b82602001836000018281525082905250506101f988826000015160006109c5565b84608001856060018660400187600001848152508490528490528490525050505060005b600381101561041757600081036102b9576102758983606001518381518110610249576102486141b1565b5b602002602001015184604001518481518110610268576102676141b1565b5b6020026020010151610bbc565b876020018860600189604001838152508381525083815250505050816080015181815181106102a7576102a66141b1565b5b60200260200101518560000181815250505b600181036103835761033161030b8a846060015184815181106102df576102de6141b1565b5b6020026020010151856040015185815181106102fe576102fd6141b1565b5b6020026020010151610c78565b60405160200161031b9190614201565b6040516020818303038152906040526000610e52565b83602001906bffffffffffffffffffffffff191690816bffffffffffffffffffffffff19168152505081608001518181518110610371576103706141b1565b5b60200260200101518360000181815250505b60028103610404576103d289836060015183815181106103a6576103a56141b1565b5b6020026020010151846040015184815181106103c5576103c46141b1565b5b6020026020010151610c78565b846020018181525050816080015181815181106103f2576103f16141b1565b5b60200260200101518460000181815250505b808061040f9061421c565b91505061021d565b50838284965096509650505050509193909250565b610434613a11565b61043c613a11565b610447836004610f35565b5081600001818152505061045e8360256004610795565b6104679061414a565b81604001907bffffffffffffffffffffffffffffffffffffffffffffffffffffffff191690817bffffffffffffffffffffffffffffffffffffffffffffffffffffffff1916815250506104ce6104c08460056025610795565b6104c990614279565b61101d565b816020018181525050600181600001511461051e576040517f08c379a00000000000000000000000000000000000000000000000000000000081526004016105159061433d565b60405180910390fd5b80915050919050565b606060008061054487601b8861053d919061435d565b878761111b565b91509150818160405160200161055b9291906143b3565b60405160208183030381529060405292505050949350505050565b61057e613a54565b610586613a54565b61058e613a54565b610596613a54565b601b816000019060ff16908160ff16815250506105bc6105b786605161152d565b6115b8565b8160400181905250604760f81b85602a815181106105dd576105dc6141b1565b5b602001015160f81c60f81b7effffffffffffffffffffffffffffffffffffffffffffffffffffffffffffff19160361062f5761062261061d86602f61152d565b6115b8565b816020018190525061068f565b604660f81b85602a81518110610648576106476141b1565b5b602001015160f81c60f81b7effffffffffffffffffffffffffffffffffffffffffffffffffffffffffffff19160361068e5761068585602f6115e1565b81602001819052505b5b601b826000019060ff16908160ff16815250506106b56106b086609861152d565b6115b8565b8260400181905250604760f81b856072815181106106d6576106d56141b1565b5b602001015160f81c60f81b7effffffffffffffffffffffffffffffffffffffffffffffffffffffffffffff1916036107285761071b61071686607761152d565b6115b8565b8260200181905250610788565b604660f81b85607281518110610741576107406141b1565b5b602001015160f81c60f81b7effffffffffffffffffffffffffffffffffffffffffffffffffffffffffffff1916036107875761077e8560776115e1565b82602001819052505b5b8181935093505050915091565b606081601f836107a591906143df565b10156107e6576040517f08c379a00000000000000000000000000000000000000000000000000000000081526004016107dd9061445f565b60405180910390fd5b81836107f291906143df565b84511015610835576040517f08c379a000000000000000000000000000000000000000000000000000000000815260040161082c906144cb565b60405180910390fd5b606082156000811461085657604051915060008252602082016040526108a7565b6040519150601f8416801560200281840101858101878315602002848b0101015b818310156108945780518352602083019250602081019050610877565b50868552601f19601f8301166040525050505b50809150509392505050565b60606000806000806108c58888610f35565b809850819450505060008614806108db57508286115b156108e8578291506108ec565b8591505b60008267ffffffffffffffff81111561090857610907613ad3565b5b6040519080825280602002602001820160405280156109365781602001602082028036833780820191505090505b50905060005b838110156109b25760248961095191906143df565b985061095d8a8a610f35565b809a50819450505082828281518110610979576109786141b1565b5b60200260200101818152505060048361099291906143df565b8961099d91906143df565b985080806109aa9061421c565b91505061093c565b5080889550955050505050935093915050565b60608060606000806000806109da8a8a610f35565b809a50819450505060008814806109f057508288115b156109fd57829150610a01565b8791505b60008267ffffffffffffffff811115610a1d57610a1c613ad3565b5b604051908082528060200260200182016040528015610a4b5781602001602082028036833780820191505090505b50905060008367ffffffffffffffff811115610a6a57610a69613ad3565b5b604051908082528060200260200182016040528015610a985781602001602082028036833780820191505090505b50905060008467ffffffffffffffff811115610ab757610ab6613ad3565b5b604051908082528060200260200182016040528015610ae55781602001602082028036833780820191505090505b50905060005b85811015610ba057610aff8e8e604061166d565b828281518110610b1257610b116141b1565b5b60200260200101818152505060088d610b2b91906143df565b9c50610b378e8e610f35565b809e5081965050508c848281518110610b5357610b526141b1565b5b60200260200101818152505084838281518110610b7357610b726141b1565b5b602002602001018181525050848d610b8b91906143df565b9c508080610b989061421c565b915050610aeb565b508083838e995099509950995050505050505093509350935093565b6000806000610bcc868686611ad8565b15610c5c57610c0f6040518060400160405280601b81526020017f506172736564204c696768746e696e6748544c43206f75747075740000000000815250612087565b610c2586600387610c2091906143df565b61152d565b610c3b87602888610c3691906143df565b61152d565b610c5188604c89610c4c91906143df565b61152d565b925092509250610c6f565b6000801b6000801b6000801b9250925092505b93509350939050565b6000610c85848484612120565b15610cf457610cc86040518060400160405280601381526020017f506172736564205032504b48206f757470757400000000000000000000000000815250612087565b610cde84600385610cd991906143df565b610e52565b6bffffffffffffffffffffffff19169050610e4b565b610cff8484846122e5565b15610d6e57610d426040518060400160405280601281526020017f5061727365642050325348206f75747075740000000000000000000000000000815250612087565b610d5884600285610d5391906143df565b610e52565b6bffffffffffffffffffffffff19169050610e4b565b610d79848484612402565b15610dd957610dbc6040518060400160405280601781526020017f506172736564204f505f52455455524e206f7574707574000000000000000000815250612087565b610dd284600285610dcd91906143df565b61152d565b9050610e4b565b610de4848484611ad8565b15610e4457610e276040518060400160405280601b81526020017f506172736564204c696768746e696e6748544c43206f75747075740000000000815250612087565b610e3d84600285610e3891906143df565b61152d565b9050610e4b565b6000801b90505b9392505050565b6000806000905060005b60148173ffffffffffffffffffffffffffffffffffffffff161015610f2757806013610e88919061450b565b6008610e949190614553565b73ffffffffffffffffffffffffffffffffffffffff1685858373ffffffffffffffffffffffffffffffffffffffff16610ecd91906143df565b81518110610ede57610edd6141b1565b5b602001015160f81c60f81b60f81c60ff1673ffffffffffffffffffffffffffffffffffffffff16901b82610f129190614595565b91508080610f1f906145dd565b915050610e5c565b508060601b91505092915050565b6000806000848481518110610f4d57610f4c6141b1565b5b602001015160f81c60f81b60f81c9050600184610f6a91906143df565b935060fd8160ff161015610f8a5780848160ff1691509250925050611016565b60fd8160ff1603610fb857610fa18585601061166d565b600285610fae91906143df565b9250925050611016565b60fe8160ff1603610fe657610fcf8585602061166d565b600485610fdc91906143df565b9250925050611016565b60ff8160ff160361101457610ffd8585604061166d565b60088561100a91906143df565b9250925050611016565b505b9250929050565b600080602060ff1667ffffffffffffffff81111561103e5761103d613ad3565b5b6040519080825280601f01601f1916602001820160405280156110705781602001600182028036833780820191505090505b50905060005b602060ff1681101561110957838160208110611095576110946141b1565b5b1a60f81b82600183602060ff166110ac91906140e4565b6110b691906140e4565b815181106110c7576110c66141b1565b5b60200101907effffffffffffffffffffffffffffffffffffffffffffffffffffffffffffff1916908160001a90535080806111019061421c565b915050611076565b50611113816124c5565b915050919050565b60008060007ffffffffffffffffffffffffffffffffffffffffffffffffffffffffefffffc2f8061114f5761114e614619565b5b60018760ff16901c60ff167ffffffffffffffffffffffffffffffffffffffffffffffffffffffffefffffc2f6111859190614648565b860890507ffffffffffffffffffffffffffffffffffffffffffffffffffffffffefffffc2f8111806111d657507ffffffffffffffffffffffffffffffffebaaedce6af48a03bbfd25e8cd036414184115b8061120057507ffffffffffffffffffffffffffffffffebaaedce6af48a03bbfd25e8cd036414185115b8061120b5750600084145b806112165750600085145b80611224575060018660ff16115b15611236576000809250925050611524565b6000611262867ffffffffffffffffffffffffffffffffebaaedce6af48a03bbfd25e8cd03641416124ee565b905060007ffffffffffffffffffffffffffffffffffffffffffffffffffffffffefffffc2f8061129557611294614619565b5b7ffffffffffffffffffffffffffffffffffffffffffffffffffffffffefffffc2f806112c4576112c3614619565b5b60077ffffffffffffffffffffffffffffffffffffffffffffffffffffffffefffffc2f806112f5576112f4614619565b5b60008709087ffffffffffffffffffffffffffffffffffffffffffffffffffffffffefffffc2f8061132957611328614619565b5b7ffffffffffffffffffffffffffffffffffffffffffffffffffffffffefffffc2f8061135857611357614619565b5b86870986090890506113a281600460017ffffffffffffffffffffffffffffffffffffffffffffffffffffffffefffffc2f61139391906143df565b61139d919061468a565b6125da565b9050600080600160028b60ff16856113ba91906143df565b6113c491906143df565b16146113fb57817ffffffffffffffffffffffffffffffffffffffffffffffffffffffffefffffc2f6113f691906140e4565b6113fd565b815b905060008060006114ad7ffffffffffffffffffffffffffffffffebaaedce6af48a03bbfd25e8cd03641418061143657611435614619565b5b8e7ffffffffffffffffffffffffffffffffebaaedce6af48a03bbfd25e8cd036414161146291906140e4565b88097f79be667ef9dcbbac55a06295ce870b07029bfcdb2dce28d959f2815b16f817987f483ada7726a3c4655da4fbfc0e1108a8fd17b448a68554199c47d08ffb10d4b8600161278e565b92509250925060008060006114f67ffffffffffffffffffffffffffffffffebaaedce6af48a03bbfd25e8cd0364141806114ea576114e9614619565b5b8e8b098b89600161278e565b92509250925060008061150d888888888888612828565b9150915081819d509d505050505050505050505050505b94509492505050565b6000806000905060005b60208110156115aa5780601f61154d91906140e4565b60086115599190614648565b85858361156691906143df565b81518110611577576115766141b1565b5b602001015160f81c60f81b60f81c60ff16901b8261159591906143df565b915080806115a29061421c565b915050611537565b508060001b91505092915050565b6060816040516020016115cb9190614201565b6040516020818303038152906040529050919050565b60606000805b601f81101561165a5780601e6115fd91906140e4565b60086116099190614648565b85858361161691906143df565b81518110611627576116266141b1565b5b602001015160f81c60f81b60f81c60ff16901b8261164591906143df565b915080806116529061421c565b9150506115e7565b50611664816128d4565b91505092915050565b6000600882036116a25783838151811061168a576116896141b1565b5b602001015160f81c60f81b60f81c60ff169050611ad1565b6010820361172457610100846001856116bb91906143df565b815181106116cc576116cb6141b1565b5b602001015160f81c60f81b60f81c60ff166116e791906146c9565b61ffff168484815181106116fe576116fd6141b1565b5b602001015160f81c60f81b60f81c60ff1661ffff1661171d91906143df565b9050611ad1565b602082036118475763010000008460038561173f91906143df565b815181106117505761174f6141b1565b5b602001015160f81c60f81b60f81c60ff1661176b9190614716565b63ffffffff16620100008560028661178391906143df565b81518110611794576117936141b1565b5b602001015160f81c60f81b60f81c60ff166117af9190614716565b63ffffffff16610100866001876117c691906143df565b815181106117d7576117d66141b1565b5b602001015160f81c60f81b60f81c60ff166117f29190614716565b63ffffffff1686868151811061180b5761180a6141b1565b5b602001015160f81c60f81b60f81c60ff1663ffffffff1661182c91906143df565b61183691906143df565b61184091906143df565b9050611ad1565b60408203611ad0576701000000000000008460078561186691906143df565b81518110611877576118766141b1565b5b602001015160f81c60f81b60f81c60ff166118929190614767565b67ffffffffffffffff166601000000000000856006866118b291906143df565b815181106118c3576118c26141b1565b5b602001015160f81c60f81b60f81c60ff166118de9190614767565b67ffffffffffffffff1665010000000000866005876118fd91906143df565b8151811061190e5761190d6141b1565b5b602001015160f81c60f81b60f81c60ff166119299190614767565b67ffffffffffffffff166401000000008760048861194791906143df565b81518110611958576119576141b1565b5b602001015160f81c60f81b60f81c60ff166119739190614767565b67ffffffffffffffff1663010000008860038961199091906143df565b815181106119a1576119a06141b1565b5b602001015160f81c60f81b60f81c60ff166119bc9190614767565b67ffffffffffffffff16620100008960028a6119d891906143df565b815181106119e9576119e86141b1565b5b602001015160f81c60f81b60f81c60ff16611a049190614767565b67ffffffffffffffff166101008a60018b611a1f91906143df565b81518110611a3057611a2f6141b1565b5b602001015160f81c60f81b60f81c60ff16611a4b9190614767565b67ffffffffffffffff168a8a81518110611a6857611a676141b1565b5b602001015160f81c60f81b60f81c60ff1667ffffffffffffffff16611a8d91906143df565b611a9791906143df565b611aa191906143df565b611aab91906143df565b611ab591906143df565b611abf91906143df565b611ac991906143df565b9050611ad1565b5b9392505050565b6000607282148015611b385750607660f81b84600085611af891906143df565b81518110611b0957611b086141b1565b5b602001015160f81c60f81b7effffffffffffffffffffffffffffffffffffffffffffffffffffffffffffff1916145b8015611b925750602160f81b84600185611b5291906143df565b81518110611b6357611b626141b1565b5b602001015160f81c60f81b7effffffffffffffffffffffffffffffffffffffffffffffffffffffffffffff1916145b8015611bec575060ac60f81b84602385611bac91906143df565b81518110611bbd57611bbc6141b1565b5b602001015160f81c60f81b7effffffffffffffffffffffffffffffffffffffffffffffffffffffffffffff1916145b8015611c465750606360f81b84602485611c0691906143df565b81518110611c1757611c166141b1565b5b602001015160f81c60f81b7effffffffffffffffffffffffffffffffffffffffffffffffffffffffffffff1916145b8015611ca05750607560f81b84602585611c6091906143df565b81518110611c7157611c706141b1565b5b602001015160f81c60f81b7effffffffffffffffffffffffffffffffffffffffffffffffffffffffffffff1916145b8015611cfa575060aa60f81b84602685611cba91906143df565b81518110611ccb57611cca6141b1565b5b602001015160f81c60f81b7effffffffffffffffffffffffffffffffffffffffffffffffffffffffffffff1916145b8015611d545750602060f81b84602785611d1491906143df565b81518110611d2557611d246141b1565b5b602001015160f81c60f81b7effffffffffffffffffffffffffffffffffffffffffffffffffffffffffffff1916145b8015611dae5750608860f81b84604885611d6e91906143df565b81518110611d7f57611d7e6141b1565b5b602001015160f81c60f81b7effffffffffffffffffffffffffffffffffffffffffffffffffffffffffffff1916145b8015611e085750606760f81b84604985611dc891906143df565b81518110611dd957611dd86141b1565b5b602001015160f81c60f81b7effffffffffffffffffffffffffffffffffffffffffffffffffffffffffffff1916145b8015611e625750602160f81b84604a85611e2291906143df565b81518110611e3357611e326141b1565b5b602001015160f81c60f81b7effffffffffffffffffffffffffffffffffffffffffffffffffffffffffffff1916145b8015611ebc575060ad60f81b84606c85611e7c91906143df565b81518110611e8d57611e8c6141b1565b5b602001015160f81c60f81b7effffffffffffffffffffffffffffffffffffffffffffffffffffffffffffff1916145b8015611f165750605260f81b84606d85611ed691906143df565b81518110611ee757611ee66141b1565b5b602001015160f81c60f81b7effffffffffffffffffffffffffffffffffffffffffffffffffffffffffffff1916145b8015611f70575060b260f81b84606e85611f3091906143df565b81518110611f4157611f406141b1565b5b602001015160f81c60f81b7effffffffffffffffffffffffffffffffffffffffffffffffffffffffffffff1916145b8015611fca5750607560f81b84606f85611f8a91906143df565b81518110611f9b57611f9a6141b1565b5b602001015160f81c60f81b7effffffffffffffffffffffffffffffffffffffffffffffffffffffffffffff1916145b80156120245750606860f81b84607085611fe491906143df565b81518110611ff557611ff46141b1565b5b602001015160f81c60f81b7effffffffffffffffffffffffffffffffffffffffffffffffffffffffffffff1916145b801561207e5750605160f81b8460718561203e91906143df565b8151811061204f5761204e6141b1565b5b602001015160f81c60f81b7effffffffffffffffffffffffffffffffffffffffffffffffffffffffffffff1916145b90509392505050565b61211d8160405160240161209b91906147e8565b6040516020818303038152906040527f41304fac000000000000000000000000000000000000000000000000000000007bffffffffffffffffffffffffffffffffffffffffffffffffffffffff19166020820180517bffffffffffffffffffffffffffffffffffffffffffffffffffffffff8381831617835250505050612954565b50565b60006019821480156121745750607660f81b848481518110612145576121446141b1565b5b602001015160f81c60f81b7effffffffffffffffffffffffffffffffffffffffffffffffffffffffffffff1916145b80156121ce575060a960f81b8460018561218e91906143df565b8151811061219f5761219e6141b1565b5b602001015160f81c60f81b7effffffffffffffffffffffffffffffffffffffffffffffffffffffffffffff1916145b80156122285750601460f81b846002856121e891906143df565b815181106121f9576121f86141b1565b5b602001015160f81c60f81b7effffffffffffffffffffffffffffffffffffffffffffffffffffffffffffff1916145b80156122825750608860f81b8460178561224291906143df565b81518110612253576122526141b1565b5b602001015160f81c60f81b7effffffffffffffffffffffffffffffffffffffffffffffffffffffffffffff1916145b80156122dc575060ac60f81b8460188561229c91906143df565b815181106122ad576122ac6141b1565b5b602001015160f81c60f81b7effffffffffffffffffffffffffffffffffffffffffffffffffffffffffffff1916145b90509392505050565b6000601782148015612345575060a960f81b8460008561230591906143df565b81518110612316576123156141b1565b5b602001015160f81c60f81b7effffffffffffffffffffffffffffffffffffffffffffffffffffffffffffff1916145b801561239f5750601460f81b8460018561235f91906143df565b815181106123705761236f6141b1565b5b602001015160f81c60f81b7effffffffffffffffffffffffffffffffffffffffffffffffffffffffffffff1916145b80156123f95750608760f81b846016856123b991906143df565b815181106123ca576123c96141b1565b5b602001015160f81c60f81b7effffffffffffffffffffffffffffffffffffffffffffffffffffffffffffff1916145b90509392505050565b60006022821480156124625750606a60f81b8460008561242291906143df565b81518110612433576124326141b1565b5b602001015160f81c60f81b7effffffffffffffffffffffffffffffffffffffffffffffffffffffffffffff1916145b80156124bc5750602060f81b8460018561247c91906143df565b8151811061248d5761248c6141b1565b5b602001015160f81c60f81b7effffffffffffffffffffffffffffffffffffffffffffffffffffffffffffff1916145b90509392505050565b60008082905060008151036124e0576000801b9150506124e9565b60208301519150505b919050565b60008083141580156125005750818314155b801561250d575060008214155b61254c576040517f08c379a000000000000000000000000000000000000000000000000000000000815260040161254390614856565b60405180910390fd5b60008060019050600084905060005b600087146125cd57868261256f919061468a565b905082868061258157612580614619565b5b87806125905761258f614619565b5b8584098861259e91906140e4565b860880945081955050508687826125b59190614648565b836125c091906140e4565b809850819350505061255b565b8394505050505092915050565b60008083036125ec5760009050612788565b600082036125fd5760019050612788565b60006001905060007f800000000000000000000000000000000000000000000000000000000000000090505b6000811115612782577ffffffffffffffffffffffffffffffffffffffffffffffffffffffffefffffc2f8185161515860a7ffffffffffffffffffffffffffffffffffffffffffffffffffffffffefffffc2f8485090991507ffffffffffffffffffffffffffffffffffffffffffffffffffffffffefffffc2f6002820485161515860a7ffffffffffffffffffffffffffffffffffffffffffffffffffffffffefffffc2f8485090991507ffffffffffffffffffffffffffffffffffffffffffffffffffffffffefffffc2f6004820485161515860a7ffffffffffffffffffffffffffffffffffffffffffffffffffffffffefffffc2f8485090991507ffffffffffffffffffffffffffffffffffffffffffffffffffffffffefffffc2f6008820485161515860a7ffffffffffffffffffffffffffffffffffffffffffffffffffffffffefffffc2f848509099150601081049050612629565b81925050505b92915050565b60008060008087036127a85785858592509250925061281e565b60008790506000806000600190505b6000841461281057600060018516146127e5576127d88383838d8d8d61296e565b8093508194508295505050505b6002846127f2919061468a565b93506127ff8a8a8a6133ac565b809a50819b50829c505050506127b7565b828282965096509650505050505b9450945094915050565b6000806000806000878b0361289b5760007ffffffffffffffffffffffffffffffffffffffffffffffffffffffffefffffc2f8061286857612867614619565b5b888c080361287f57600080945094505050506128c9565b61288a8b8b8b6133ac565b8093508194508295505050506128b6565b6128a98b8b8b8b8b8b61296e565b8093508194508295505050505b6128c1838383613829565b945094505050505b965096945050505050565b60607f7fffffffffffffffffffffffffffffffffffffffffffffffffffffffffffffff821115612939576040517f08c379a0000000000000000000000000000000000000000000000000000000008152600401612930906148c2565b60405180910390fd5b60405190506020815281602082015260408101604052919050565b61296b8161296361393f613960565b63ffffffff16565b50565b600080600080891480156129825750600088145b15612995578585859250925092506133a0565b6000861480156129a55750600085145b156129b8578888889250925092506133a0565b6129c0613a78565b7ffffffffffffffffffffffffffffffffffffffffffffffffffffffffefffffc2f806129ef576129ee614619565b5b88890981600060048110612a0657612a056141b1565b5b6020020181815250507ffffffffffffffffffffffffffffffffffffffffffffffffffffffffefffffc2f80612a3e57612a3d614619565b5b81600060048110612a5257612a516141b1565b5b6020020151890981600160048110612a6d57612a6c6141b1565b5b6020020181815250507ffffffffffffffffffffffffffffffffffffffffffffffffffffffffefffffc2f80612aa557612aa4614619565b5b85860981600260048110612abc57612abb6141b1565b5b6020020181815250507ffffffffffffffffffffffffffffffffffffffffffffffffffffffffefffffc2f80612af457612af3614619565b5b81600260048110612b0857612b076141b1565b5b6020020151860981600360048110612b2357612b226141b1565b5b60200201818152505060405180608001604052807ffffffffffffffffffffffffffffffffffffffffffffffffffffffffefffffc2f80612b6657612b65614619565b5b83600260048110612b7a57612b796141b1565b5b60200201518d0981526020017ffffffffffffffffffffffffffffffffffffffffffffffffffffffffefffffc2f80612bb557612bb4614619565b5b83600360048110612bc957612bc86141b1565b5b60200201518c0981526020017ffffffffffffffffffffffffffffffffffffffffffffffffffffffffefffffc2f80612c0457612c03614619565b5b83600060048110612c1857612c176141b1565b5b60200201518a0981526020017ffffffffffffffffffffffffffffffffffffffffffffffffffffffffefffffc2f80612c5357612c52614619565b5b83600160048110612c6757612c666141b1565b5b60200201518909815250905080600260048110612c8757612c866141b1565b5b602002015181600060048110612ca057612c9f6141b1565b5b6020020151141580612ce2575080600360048110612cc157612cc06141b1565b5b602002015181600160048110612cda57612cd96141b1565b5b602002015114155b612d21576040517f08c379a0000000000000000000000000000000000000000000000000000000008152600401612d189061492e565b60405180910390fd5b612d29613a78565b7ffffffffffffffffffffffffffffffffffffffffffffffffffffffffefffffc2f80612d5857612d57614619565b5b82600060048110612d6c57612d6b6141b1565b5b60200201517ffffffffffffffffffffffffffffffffffffffffffffffffffffffffefffffc2f612d9c91906140e4565b83600260048110612db057612daf6141b1565b5b60200201510881600060048110612dca57612dc96141b1565b5b6020020181815250507ffffffffffffffffffffffffffffffffffffffffffffffffffffffffefffffc2f80612e0257612e01614619565b5b82600160048110612e1657612e156141b1565b5b60200201517ffffffffffffffffffffffffffffffffffffffffffffffffffffffffefffffc2f612e4691906140e4565b83600360048110612e5a57612e596141b1565b5b60200201510881600160048110612e7457612e736141b1565b5b6020020181815250507ffffffffffffffffffffffffffffffffffffffffffffffffffffffffefffffc2f80612eac57612eab614619565b5b81600060048110612ec057612ebf6141b1565b5b602002015182600060048110612ed957612ed86141b1565b5b60200201510981600260048110612ef357612ef26141b1565b5b6020020181815250507ffffffffffffffffffffffffffffffffffffffffffffffffffffffffefffffc2f80612f2b57612f2a614619565b5b81600060048110612f3f57612f3e6141b1565b5b602002015182600260048110612f5857612f576141b1565b5b60200201510981600360048110612f7257612f716141b1565b5b60200201818152505060007ffffffffffffffffffffffffffffffffffffffffffffffffffffffffefffffc2f80612fac57612fab614619565b5b82600360048110612fc057612fbf6141b1565b5b60200201517ffffffffffffffffffffffffffffffffffffffffffffffffffffffffefffffc2f612ff091906140e4565b7ffffffffffffffffffffffffffffffffffffffffffffffffffffffffefffffc2f8061301f5761301e614619565b5b84600160048110613033576130326141b1565b5b60200201518560016004811061304c5761304b6141b1565b5b6020020151090890507ffffffffffffffffffffffffffffffffffffffffffffffffffffffffefffffc2f8061308457613083614619565b5b7ffffffffffffffffffffffffffffffffffffffffffffffffffffffffefffffc2f806130b3576130b2614619565b5b7ffffffffffffffffffffffffffffffffffffffffffffffffffffffffefffffc2f806130e2576130e1614619565b5b846002600481106130f6576130f56141b1565b5b60200201518660006004811061310f5761310e6141b1565b5b6020020151096002097ffffffffffffffffffffffffffffffffffffffffffffffffffffffffefffffc2f61314391906140e4565b8208905060007ffffffffffffffffffffffffffffffffffffffffffffffffffffffffefffffc2f8061317857613177614619565b5b7ffffffffffffffffffffffffffffffffffffffffffffffffffffffffefffffc2f806131a7576131a6614619565b5b837ffffffffffffffffffffffffffffffffffffffffffffffffffffffffefffffc2f6131d391906140e4565b7ffffffffffffffffffffffffffffffffffffffffffffffffffffffffefffffc2f8061320257613201614619565b5b86600260048110613216576132156141b1565b5b60200201518860006004811061322f5761322e6141b1565b5b602002015109088460016004811061324a576132496141b1565b5b60200201510990507ffffffffffffffffffffffffffffffffffffffffffffffffffffffffefffffc2f8061328157613280614619565b5b7ffffffffffffffffffffffffffffffffffffffffffffffffffffffffefffffc2f806132b0576132af614619565b5b846003600481106132c4576132c36141b1565b5b6020020151866001600481106132dd576132dc6141b1565b5b6020020151097ffffffffffffffffffffffffffffffffffffffffffffffffffffffffefffffc2f61330e91906140e4565b8208905060007ffffffffffffffffffffffffffffffffffffffffffffffffffffffffefffffc2f8061334357613342614619565b5b7ffffffffffffffffffffffffffffffffffffffffffffffffffffffffefffffc2f8061337257613371614619565b5b8a8e0985600060048110613389576133886141b1565b5b602002015109905082828297509750975050505050505b96509650969350505050565b60008060008084036133c657858585925092509250613820565b60007ffffffffffffffffffffffffffffffffffffffffffffffffffffffffefffffc2f806133f7576133f6614619565b5b878809905060007ffffffffffffffffffffffffffffffffffffffffffffffffffffffffefffffc2f8061342d5761342c614619565b5b878809905060007ffffffffffffffffffffffffffffffffffffffffffffffffffffffffefffffc2f8061346357613462614619565b5b878809905060007ffffffffffffffffffffffffffffffffffffffffffffffffffffffffefffffc2f8061349957613498614619565b5b7ffffffffffffffffffffffffffffffffffffffffffffffffffffffffefffffc2f806134c8576134c7614619565b5b848c09600409905060007ffffffffffffffffffffffffffffffffffffffffffffffffffffffffefffffc2f8061350157613500614619565b5b7ffffffffffffffffffffffffffffffffffffffffffffffffffffffffefffffc2f806135305761352f614619565b5b7ffffffffffffffffffffffffffffffffffffffffffffffffffffffffefffffc2f8061355f5761355e614619565b5b8586096000097ffffffffffffffffffffffffffffffffffffffffffffffffffffffffefffffc2f8061359457613593614619565b5b876003090890507ffffffffffffffffffffffffffffffffffffffffffffffffffffffffefffffc2f806135ca576135c9614619565b5b7ffffffffffffffffffffffffffffffffffffffffffffffffffffffffefffffc2f806135f9576135f8614619565b5b8384087ffffffffffffffffffffffffffffffffffffffffffffffffffffffffefffffc2f61362791906140e4565b7ffffffffffffffffffffffffffffffffffffffffffffffffffffffffefffffc2f8061365657613655614619565b5b8384090894507ffffffffffffffffffffffffffffffffffffffffffffffffffffffffefffffc2f8061368b5761368a614619565b5b7ffffffffffffffffffffffffffffffffffffffffffffffffffffffffefffffc2f806136ba576136b9614619565b5b7ffffffffffffffffffffffffffffffffffffffffffffffffffffffffefffffc2f806136e9576136e8614619565b5b8687096008097ffffffffffffffffffffffffffffffffffffffffffffffffffffffffefffffc2f61371a91906140e4565b7ffffffffffffffffffffffffffffffffffffffffffffffffffffffffefffffc2f8061374957613748614619565b5b7ffffffffffffffffffffffffffffffffffffffffffffffffffffffffefffffc2f8061377857613777614619565b5b887ffffffffffffffffffffffffffffffffffffffffffffffffffffffffefffffc2f6137a491906140e4565b860884090893507ffffffffffffffffffffffffffffffffffffffffffffffffffffffffefffffc2f806137da576137d9614619565b5b7ffffffffffffffffffffffffffffffffffffffffffffffffffffffffefffffc2f8061380957613808614619565b5b8a8c09600209925084848497509750975050505050505b93509350939050565b6000806000613858847ffffffffffffffffffffffffffffffffffffffffffffffffffffffffefffffc2f6124ee565b905060007ffffffffffffffffffffffffffffffffffffffffffffffffffffffffefffffc2f8061388b5761388a614619565b5b828309905060007ffffffffffffffffffffffffffffffffffffffffffffffffffffffffefffffc2f806138c1576138c0614619565b5b828909905060007ffffffffffffffffffffffffffffffffffffffffffffffffffffffffefffffc2f806138f7576138f6614619565b5b7ffffffffffffffffffffffffffffffffffffffffffffffffffffffffefffffc2f8061392657613925614619565b5b8486098909905081819550955050505050935093915050565b60006a636f6e736f6c652e6c6f679050600080835160208501845afa505050565b613a9a819050919050565b6040518060800160405280600081526020016000801916815260200160008019168152602001600080191681525090565b60405180604001604052806000815260200160006bffffffffffffffffffffffff191681525090565b604051806040016040528060008152602001600080191681525090565b6040518060a0016040528060008152602001606081526020016060815260200160608152602001606081525090565b6040518060600160405280600081526020016000801916815260200160007bffffffffffffffffffffffffffffffffffffffffffffffffffffffff191681525090565b6040518060600160405280600060ff16815260200160608152602001606081525090565b6040518060800160405280600490602082028036833780820191505090505090565b613aa261494e565b565b6000604051905090565b600080fd5b600080fd5b600080fd5b600080fd5b6000601f19601f8301169050919050565b7f4e487b7100000000000000000000000000000000000000000000000000000000600052604160045260246000fd5b613b0b82613ac2565b810181811067ffffffffffffffff82111715613b2a57613b29613ad3565b5b80604052505050565b6000613b3d613aa4565b9050613b498282613b02565b919050565b600067ffffffffffffffff821115613b6957613b68613ad3565b5b613b7282613ac2565b9050602081019050919050565b82818337600083830152505050565b6000613ba1613b9c84613b4e565b613b33565b905082815260208101848484011115613bbd57613bbc613abd565b5b613bc8848285613b7f565b509392505050565b600082601f830112613be557613be4613ab8565b5b8135613bf5848260208601613b8e565b91505092915050565b600060208284031215613c1457613c13613aae565b5b600082013567ffffffffffffffff811115613c3257613c31613ab3565b5b613c3e84828501613bd0565b91505092915050565b60007fffffffff0000000000000000000000000000000000000000000000000000000082169050919050565b613c7c81613c47565b82525050565b6000602082019050613c976000830184613c73565b92915050565b6000819050919050565b613cb081613c9d565b82525050565b6000819050919050565b613cc981613cb6565b82525050565b608082016000820151613ce56000850182613ca7565b506020820151613cf86020850182613cc0565b506040820151613d0b6040850182613cc0565b506060820151613d1e6060850182613cc0565b50505050565b60007fffffffffffffffffffffffffffffffffffffffff00000000000000000000000082169050919050565b613d5981613d24565b82525050565b604082016000820151613d756000850182613ca7565b506020820151613d886020850182613d50565b50505050565b604082016000820151613da46000850182613ca7565b506020820151613db76020850182613cc0565b50505050565b600061010082019050613dd36000830186613ccf565b613de06080830185613d5f565b613ded60c0830184613d8e565b949350505050565b613dfe81613c47565b82525050565b606082016000820151613e1a6000850182613ca7565b506020820151613e2d6020850182613cc0565b506040820151613e406040850182613df5565b50505050565b6000606082019050613e5b6000830184613e04565b92915050565b613e6a81613c9d565b8114613e7557600080fd5b50565b600081359050613e8781613e61565b92915050565b600060ff82169050919050565b613ea381613e8d565b8114613eae57600080fd5b50565b600081359050613ec081613e9a565b92915050565b60008060008060808587031215613ee057613edf613aae565b5b6000613eee87828801613e78565b9450506020613eff87828801613eb1565b9350506040613f1087828801613e78565b9250506060613f2187828801613e78565b91505092959194509250565b600081519050919050565b600082825260208201905092915050565b60005b83811015613f67578082015181840152602081019050613f4c565b60008484015250505050565b6000613f7e82613f2d565b613f888185613f38565b9350613f98818560208601613f49565b613fa181613ac2565b840191505092915050565b60006020820190508181036000830152613fc68184613f73565b905092915050565b613fd781613e8d565b82525050565b600082825260208201905092915050565b6000613ff982613f2d565b6140038185613fdd565b9350614013818560208601613f49565b61401c81613ac2565b840191505092915050565b600060608301600083015161403f6000860182613fce565b50602083015184820360208601526140578282613fee565b915050604083015184820360408601526140718282613fee565b9150508091505092915050565b600060408201905081810360008301526140988185614027565b905081810360208301526140ac8184614027565b90509392505050565b7f4e487b7100000000000000000000000000000000000000000000000000000000600052601160045260246000fd5b60006140ef82613c9d565b91506140fa83613c9d565b9250828203905081811115614112576141116140b5565b5b92915050565b6000819050602082019050919050565b60006141348251613c47565b80915050919050565b600082821b905092915050565b600061415582613f2d565b8261415f84614118565b905061416a81614128565b925060048210156141aa576141a57fffffffff000000000000000000000000000000000000000000000000000000008360040360080261413d565b831692505b5050919050565b7f4e487b7100000000000000000000000000000000000000000000000000000000600052603260045260246000fd5b6000819050919050565b6141fb6141f682613cb6565b6141e0565b82525050565b600061420d82846141ea565b60208201915081905092915050565b600061422782613c9d565b91507fffffffffffffffffffffffffffffffffffffffffffffffffffffffffffffffff8203614259576142586140b5565b5b600182019050919050565b60006142708251613cb6565b80915050919050565b600061428482613f2d565b8261428e84614118565b905061429981614264565b925060208210156142d9576142d47fffffffffffffffffffffffffffffffffffffffffffffffffffffffffffffffff8360200360080261413d565b831692505b5050919050565b600082825260208201905092915050565b7f54782068617320746f6f206d616e7920696e7075747320283e31290000000000600082015250565b6000614327601b836142e0565b9150614332826142f1565b602082019050919050565b600060208201905081810360008301526143568161431a565b9050919050565b600061436882613e8d565b915061437383613e8d565b9250828203905060ff81111561438c5761438b6140b5565b5b92915050565b6000819050919050565b6143ad6143a882613c9d565b614392565b82525050565b60006143bf828561439c565b6020820191506143cf828461439c565b6020820191508190509392505050565b60006143ea82613c9d565b91506143f583613c9d565b925082820190508082111561440d5761440c6140b5565b5b92915050565b7f736c6963655f6f766572666c6f77000000000000000000000000000000000000600082015250565b6000614449600e836142e0565b915061445482614413565b602082019050919050565b600060208201905081810360008301526144788161443c565b9050919050565b7f736c6963655f6f75744f66426f756e6473000000000000000000000000000000600082015250565b60006144b56011836142e0565b91506144c08261447f565b602082019050919050565b600060208201905081810360008301526144e4816144a8565b9050919050565b600073ffffffffffffffffffffffffffffffffffffffff82169050919050565b6000614516826144eb565b9150614521836144eb565b9250828203905073ffffffffffffffffffffffffffffffffffffffff81111561454d5761454c6140b5565b5b92915050565b600061455e826144eb565b9150614569836144eb565b9250828202614577816144eb565b9150828204841483151761458e5761458d6140b5565b5b5092915050565b60006145a0826144eb565b91506145ab836144eb565b9250828201905073ffffffffffffffffffffffffffffffffffffffff8111156145d7576145d66140b5565b5b92915050565b60006145e8826144eb565b915073ffffffffffffffffffffffffffffffffffffffff820361460e5761460d6140b5565b5b600182019050919050565b7f4e487b7100000000000000000000000000000000000000000000000000000000600052601260045260246000fd5b600061465382613c9d565b915061465e83613c9d565b925082820261466c81613c9d565b91508282048414831517614683576146826140b5565b5b5092915050565b600061469582613c9d565b91506146a083613c9d565b9250826146b0576146af614619565b5b828204905092915050565b600061ffff82169050919050565b60006146d4826146bb565b91506146df836146bb565b92508282026146ed816146bb565b91508082146146ff576146fe6140b5565b5b5092915050565b600063ffffffff82169050919050565b600061472182614706565b915061472c83614706565b925082820261473a81614706565b915080821461474c5761474b6140b5565b5b5092915050565b600067ffffffffffffffff82169050919050565b600061477282614753565b915061477d83614753565b925082820261478b81614753565b915080821461479d5761479c6140b5565b5b5092915050565b600081519050919050565b60006147ba826147a4565b6147c481856142e0565b93506147d4818560208601613f49565b6147dd81613ac2565b840191505092915050565b6000602082019050818103600083015261480281846147af565b905092915050565b7f496e76616c6964206e756d626572000000000000000000000000000000000000600082015250565b6000614840600e836142e0565b915061484b8261480a565b602082019050919050565b6000602082019050818103600083015261486f81614833565b9050919050565b7f56616c75652065786365656473207468652072616e6765000000000000000000600082015250565b60006148ac6017836142e0565b91506148b782614876565b602082019050919050565b600060208201905081810360008301526148db8161489f565b9050919050565b7f557365206a6163446f75626c652066756e6374696f6e20696e73746561640000600082015250565b6000614918601e836142e0565b9150614923826148e2565b602082019050919050565b600060208201905081810360008301526149478161490b565b9050919050565b7f4e487b7100000000000000000000000000000000000000000000000000000000600052605160045260246000fdfea26469706673582212200a8f29cd5df9a3624dee8ac13ccbb48025b83682415204e1d32b84a0459aea9264736f6c63430008130033","opcodes":"PUSH1 0x80 PUSH1 0x40 MSTORE CALLVALUE DUP1 ISZERO PUSH2 0x10 JUMPI PUSH1 0x0 DUP1 REVERT JUMPDEST POP PUSH2 0x49B3 DUP1 PUSH2 0x20 PUSH1 0x0 CODECOPY PUSH1 0x0 RETURN INVALID PUSH1 0x80 PUSH1 0x40 MSTORE CALLVALUE DUP1 ISZERO PUSH2 0x10 JUMPI PUSH1 0x0 DUP1 REVERT JUMPDEST POP PUSH1 0x4 CALLDATASIZE LT PUSH2 0x57 JUMPI PUSH1 0x0 CALLDATALOAD PUSH1 0xE0 SHR DUP1 PUSH4 0x36946480 EQ PUSH2 0x5C JUMPI DUP1 PUSH4 0x497C6CF6 EQ PUSH2 0x8C JUMPI DUP1 PUSH4 0x4F500EA9 EQ PUSH2 0xBE JUMPI DUP1 PUSH4 0x5933BF61 EQ PUSH2 0xEE JUMPI DUP1 PUSH4 0x6B45B4E3 EQ PUSH2 0x11E JUMPI JUMPDEST PUSH1 0x0 DUP1 REVERT JUMPDEST PUSH2 0x76 PUSH1 0x4 DUP1 CALLDATASIZE SUB DUP2 ADD SWAP1 PUSH2 0x71 SWAP2 SWAP1 PUSH2 0x3BFE JUMP JUMPDEST PUSH2 0x14F JUMP JUMPDEST PUSH1 0x40 MLOAD PUSH2 0x83 SWAP2 SWAP1 PUSH2 0x3C82 JUMP JUMPDEST PUSH1 0x40 MLOAD DUP1 SWAP2 SUB SWAP1 RETURN JUMPDEST PUSH2 0xA6 PUSH1 0x4 DUP1 CALLDATASIZE SUB DUP2 ADD SWAP1 PUSH2 0xA1 SWAP2 SWAP1 PUSH2 0x3BFE JUMP JUMPDEST PUSH2 0x185 JUMP JUMPDEST PUSH1 0x40 MLOAD PUSH2 0xB5 SWAP4 SWAP3 SWAP2 SWAP1 PUSH2 0x3DBD JUMP JUMPDEST PUSH1 0x40 MLOAD DUP1 SWAP2 SUB SWAP1 RETURN JUMPDEST PUSH2 0xD8 PUSH1 0x4 DUP1 CALLDATASIZE SUB DUP2 ADD SWAP1 PUSH2 0xD3 SWAP2 SWAP1 PUSH2 0x3BFE JUMP JUMPDEST PUSH2 0x42C JUMP JUMPDEST PUSH1 0x40 MLOAD PUSH2 0xE5 SWAP2 SWAP1 PUSH2 0x3E46 JUMP JUMPDEST PUSH1 0x40 MLOAD DUP1 SWAP2 SUB SWAP1 RETURN JUMPDEST PUSH2 0x108 PUSH1 0x4 DUP1 CALLDATASIZE SUB DUP2 ADD SWAP1 PUSH2 0x103 SWAP2 SWAP1 PUSH2 0x3EC6 JUMP JUMPDEST PUSH2 0x527 JUMP JUMPDEST PUSH1 0x40 MLOAD PUSH2 0x115 SWAP2 SWAP1 PUSH2 0x3FAC JUMP JUMPDEST PUSH1 0x40 MLOAD DUP1 SWAP2 SUB SWAP1 RETURN JUMPDEST PUSH2 0x138 PUSH1 0x4 DUP1 CALLDATASIZE SUB DUP2 ADD SWAP1 PUSH2 0x133 SWAP2 SWAP1 PUSH2 0x3BFE JUMP JUMPDEST PUSH2 0x576 JUMP JUMPDEST PUSH1 0x40 MLOAD PUSH2 0x146 SWAP3 SWAP2 SWAP1 PUSH2 0x407E JUMP JUMPDEST PUSH1 0x40 MLOAD DUP1 SWAP2 SUB SWAP1 RETURN JUMPDEST PUSH1 0x0 DUP1 DUP3 MLOAD SWAP1 POP PUSH1 0x0 PUSH2 0x170 DUP5 PUSH1 0x5 DUP5 PUSH2 0x169 SWAP2 SWAP1 PUSH2 0x40E4 JUMP JUMPDEST PUSH1 0x4 PUSH2 0x795 JUMP JUMPDEST PUSH2 0x179 SWAP1 PUSH2 0x414A JUMP JUMPDEST SWAP1 POP DUP1 SWAP3 POP POP POP SWAP2 SWAP1 POP JUMP JUMPDEST PUSH2 0x18D PUSH2 0x396B JUMP JUMPDEST PUSH2 0x195 PUSH2 0x399C JUMP JUMPDEST PUSH2 0x19D PUSH2 0x39C5 JUMP JUMPDEST PUSH2 0x1A5 PUSH2 0x396B JUMP JUMPDEST PUSH2 0x1AD PUSH2 0x39C5 JUMP JUMPDEST PUSH2 0x1B5 PUSH2 0x399C JUMP JUMPDEST PUSH2 0x1BD PUSH2 0x39E2 JUMP JUMPDEST PUSH1 0x4 DUP2 PUSH1 0x0 ADD DUP2 DUP2 MSTORE POP POP PUSH2 0x1D8 DUP9 DUP3 PUSH1 0x0 ADD MLOAD PUSH1 0x0 PUSH2 0x8B3 JUMP JUMPDEST DUP3 PUSH1 0x20 ADD DUP4 PUSH1 0x0 ADD DUP3 DUP2 MSTORE POP DUP3 SWAP1 MSTORE POP POP PUSH2 0x1F9 DUP9 DUP3 PUSH1 0x0 ADD MLOAD PUSH1 0x0 PUSH2 0x9C5 JUMP JUMPDEST DUP5 PUSH1 0x80 ADD DUP6 PUSH1 0x60 ADD DUP7 PUSH1 0x40 ADD DUP8 PUSH1 0x0 ADD DUP5 DUP2 MSTORE POP DUP5 SWAP1 MSTORE DUP5 SWAP1 MSTORE DUP5 SWAP1 MSTORE POP POP POP POP PUSH1 0x0 JUMPDEST PUSH1 0x3 DUP2 LT ISZERO PUSH2 0x417 JUMPI PUSH1 0x0 DUP2 SUB PUSH2 0x2B9 JUMPI PUSH2 0x275 DUP10 DUP4 PUSH1 0x60 ADD MLOAD DUP4 DUP2 MLOAD DUP2 LT PUSH2 0x249 JUMPI PUSH2 0x248 PUSH2 0x41B1 JUMP JUMPDEST JUMPDEST PUSH1 0x20 MUL PUSH1 0x20 ADD ADD MLOAD DUP5 PUSH1 0x40 ADD MLOAD DUP5 DUP2 MLOAD DUP2 LT PUSH2 0x268 JUMPI PUSH2 0x267 PUSH2 0x41B1 JUMP JUMPDEST JUMPDEST PUSH1 0x20 MUL PUSH1 0x20 ADD ADD MLOAD PUSH2 0xBBC JUMP JUMPDEST DUP8 PUSH1 0x20 ADD DUP9 PUSH1 0x60 ADD DUP10 PUSH1 0x40 ADD DUP4 DUP2 MSTORE POP DUP4 DUP2 MSTORE POP DUP4 DUP2 MSTORE POP POP POP POP DUP2 PUSH1 0x80 ADD MLOAD DUP2 DUP2 MLOAD DUP2 LT PUSH2 0x2A7 JUMPI PUSH2 0x2A6 PUSH2 0x41B1 JUMP JUMPDEST JUMPDEST PUSH1 0x20 MUL PUSH1 0x20 ADD ADD MLOAD DUP6 PUSH1 0x0 ADD DUP2 DUP2 MSTORE POP POP JUMPDEST PUSH1 0x1 DUP2 SUB PUSH2 0x383 JUMPI PUSH2 0x331 PUSH2 0x30B DUP11 DUP5 PUSH1 0x60 ADD MLOAD DUP5 DUP2 MLOAD DUP2 LT PUSH2 0x2DF JUMPI PUSH2 0x2DE PUSH2 0x41B1 JUMP JUMPDEST JUMPDEST PUSH1 0x20 MUL PUSH1 0x20 ADD ADD MLOAD DUP6 PUSH1 0x40 ADD MLOAD DUP6 DUP2 MLOAD DUP2 LT PUSH2 0x2FE JUMPI PUSH2 0x2FD PUSH2 0x41B1 JUMP JUMPDEST JUMPDEST PUSH1 0x20 MUL PUSH1 0x20 ADD ADD MLOAD PUSH2 0xC78 JUMP JUMPDEST PUSH1 0x40 MLOAD PUSH1 0x20 ADD PUSH2 0x31B SWAP2 SWAP1 PUSH2 0x4201 JUMP JUMPDEST PUSH1 0x40 MLOAD PUSH1 0x20 DUP2 DUP4 SUB SUB DUP2 MSTORE SWAP1 PUSH1 0x40 MSTORE PUSH1 0x0 PUSH2 0xE52 JUMP JUMPDEST DUP4 PUSH1 0x20 ADD SWAP1 PUSH12 0xFFFFFFFFFFFFFFFFFFFFFFFF NOT AND SWAP1 DUP2 PUSH12 0xFFFFFFFFFFFFFFFFFFFFFFFF NOT AND DUP2 MSTORE POP POP DUP2 PUSH1 0x80 ADD MLOAD DUP2 DUP2 MLOAD DUP2 LT PUSH2 0x371 JUMPI PUSH2 0x370 PUSH2 0x41B1 JUMP JUMPDEST JUMPDEST PUSH1 0x20 MUL PUSH1 0x20 ADD ADD MLOAD DUP4 PUSH1 0x0 ADD DUP2 DUP2 MSTORE POP POP JUMPDEST PUSH1 0x2 DUP2 SUB PUSH2 0x404 JUMPI PUSH2 0x3D2 DUP10 DUP4 PUSH1 0x60 ADD MLOAD DUP4 DUP2 MLOAD DUP2 LT PUSH2 0x3A6 JUMPI PUSH2 0x3A5 PUSH2 0x41B1 JUMP JUMPDEST JUMPDEST PUSH1 0x20 MUL PUSH1 0x20 ADD ADD MLOAD DUP5 PUSH1 0x40 ADD MLOAD DUP5 DUP2 MLOAD DUP2 LT PUSH2 0x3C5 JUMPI PUSH2 0x3C4 PUSH2 0x41B1 JUMP JUMPDEST JUMPDEST PUSH1 0x20 MUL PUSH1 0x20 ADD ADD MLOAD PUSH2 0xC78 JUMP JUMPDEST DUP5 PUSH1 0x20 ADD DUP2 DUP2 MSTORE POP POP DUP2 PUSH1 0x80 ADD MLOAD DUP2 DUP2 MLOAD DUP2 LT PUSH2 0x3F2 JUMPI PUSH2 0x3F1 PUSH2 0x41B1 JUMP JUMPDEST JUMPDEST PUSH1 0x20 MUL PUSH1 0x20 ADD ADD MLOAD DUP5 PUSH1 0x0 ADD DUP2 DUP2 MSTORE POP POP JUMPDEST DUP1 DUP1 PUSH2 0x40F SWAP1 PUSH2 0x421C JUMP JUMPDEST SWAP2 POP POP PUSH2 0x21D JUMP JUMPDEST POP DUP4 DUP3 DUP5 SWAP7 POP SWAP7 POP SWAP7 POP POP POP POP POP SWAP2 SWAP4 SWAP1 SWAP3 POP JUMP JUMPDEST PUSH2 0x434 PUSH2 0x3A11 JUMP JUMPDEST PUSH2 0x43C PUSH2 0x3A11 JUMP JUMPDEST PUSH2 0x447 DUP4 PUSH1 0x4 PUSH2 0xF35 JUMP JUMPDEST POP DUP2 PUSH1 0x0 ADD DUP2 DUP2 MSTORE POP POP PUSH2 0x45E DUP4 PUSH1 0x25 PUSH1 0x4 PUSH2 0x795 JUMP JUMPDEST PUSH2 0x467 SWAP1 PUSH2 0x414A JUMP JUMPDEST DUP2 PUSH1 0x40 ADD SWAP1 PUSH28 0xFFFFFFFFFFFFFFFFFFFFFFFFFFFFFFFFFFFFFFFFFFFFFFFFFFFFFFFF NOT AND SWAP1 DUP2 PUSH28 0xFFFFFFFFFFFFFFFFFFFFFFFFFFFFFFFFFFFFFFFFFFFFFFFFFFFFFFFF NOT AND DUP2 MSTORE POP POP PUSH2 0x4CE PUSH2 0x4C0 DUP5 PUSH1 0x5 PUSH1 0x25 PUSH2 0x795 JUMP JUMPDEST PUSH2 0x4C9 SWAP1 PUSH2 0x4279 JUMP JUMPDEST PUSH2 0x101D JUMP JUMPDEST DUP2 PUSH1 0x20 ADD DUP2 DUP2 MSTORE POP POP PUSH1 0x1 DUP2 PUSH1 0x0 ADD MLOAD EQ PUSH2 0x51E JUMPI PUSH1 0x40 MLOAD PUSH32 0x8C379A000000000000000000000000000000000000000000000000000000000 DUP2 MSTORE PUSH1 0x4 ADD PUSH2 0x515 SWAP1 PUSH2 0x433D JUMP JUMPDEST PUSH1 0x40 MLOAD DUP1 SWAP2 SUB SWAP1 REVERT JUMPDEST DUP1 SWAP2 POP POP SWAP2 SWAP1 POP JUMP JUMPDEST PUSH1 0x60 PUSH1 0x0 DUP1 PUSH2 0x544 DUP8 PUSH1 0x1B DUP9 PUSH2 0x53D SWAP2 SWAP1 PUSH2 0x435D JUMP JUMPDEST DUP8 DUP8 PUSH2 0x111B JUMP JUMPDEST SWAP2 POP SWAP2 POP DUP2 DUP2 PUSH1 0x40 MLOAD PUSH1 0x20 ADD PUSH2 0x55B SWAP3 SWAP2 SWAP1 PUSH2 0x43B3 JUMP JUMPDEST PUSH1 0x40 MLOAD PUSH1 0x20 DUP2 DUP4 SUB SUB DUP2 MSTORE SWAP1 PUSH1 0x40 MSTORE SWAP3 POP POP POP SWAP5 SWAP4 POP POP POP POP JUMP JUMPDEST PUSH2 0x57E PUSH2 0x3A54 JUMP JUMPDEST PUSH2 0x586 PUSH2 0x3A54 JUMP JUMPDEST PUSH2 0x58E PUSH2 0x3A54 JUMP JUMPDEST PUSH2 0x596 PUSH2 0x3A54 JUMP JUMPDEST PUSH1 0x1B DUP2 PUSH1 0x0 ADD SWAP1 PUSH1 0xFF AND SWAP1 DUP2 PUSH1 0xFF AND DUP2 MSTORE POP POP PUSH2 0x5BC PUSH2 0x5B7 DUP7 PUSH1 0x51 PUSH2 0x152D JUMP JUMPDEST PUSH2 0x15B8 JUMP JUMPDEST DUP2 PUSH1 0x40 ADD DUP2 SWAP1 MSTORE POP PUSH1 0x47 PUSH1 0xF8 SHL DUP6 PUSH1 0x2A DUP2 MLOAD DUP2 LT PUSH2 0x5DD JUMPI PUSH2 0x5DC PUSH2 0x41B1 JUMP JUMPDEST JUMPDEST PUSH1 0x20 ADD ADD MLOAD PUSH1 0xF8 SHR PUSH1 0xF8 SHL PUSH31 0xFFFFFFFFFFFFFFFFFFFFFFFFFFFFFFFFFFFFFFFFFFFFFFFFFFFFFFFFFFFFFF NOT AND SUB PUSH2 0x62F JUMPI PUSH2 0x622 PUSH2 0x61D DUP7 PUSH1 0x2F PUSH2 0x152D JUMP JUMPDEST PUSH2 0x15B8 JUMP JUMPDEST DUP2 PUSH1 0x20 ADD DUP2 SWAP1 MSTORE POP PUSH2 0x68F JUMP JUMPDEST PUSH1 0x46 PUSH1 0xF8 SHL DUP6 PUSH1 0x2A DUP2 MLOAD DUP2 LT PUSH2 0x648 JUMPI PUSH2 0x647 PUSH2 0x41B1 JUMP JUMPDEST JUMPDEST PUSH1 0x20 ADD ADD MLOAD PUSH1 0xF8 SHR PUSH1 0xF8 SHL PUSH31 0xFFFFFFFFFFFFFFFFFFFFFFFFFFFFFFFFFFFFFFFFFFFFFFFFFFFFFFFFFFFFFF NOT AND SUB PUSH2 0x68E JUMPI PUSH2 0x685 DUP6 PUSH1 0x2F PUSH2 0x15E1 JUMP JUMPDEST DUP2 PUSH1 0x20 ADD DUP2 SWAP1 MSTORE POP JUMPDEST JUMPDEST PUSH1 0x1B DUP3 PUSH1 0x0 ADD SWAP1 PUSH1 0xFF AND SWAP1 DUP2 PUSH1 0xFF AND DUP2 MSTORE POP POP PUSH2 0x6B5 PUSH2 0x6B0 DUP7 PUSH1 0x98 PUSH2 0x152D JUMP JUMPDEST PUSH2 0x15B8 JUMP JUMPDEST DUP3 PUSH1 0x40 ADD DUP2 SWAP1 MSTORE POP PUSH1 0x47 PUSH1 0xF8 SHL DUP6 PUSH1 0x72 DUP2 MLOAD DUP2 LT PUSH2 0x6D6 JUMPI PUSH2 0x6D5 PUSH2 0x41B1 JUMP JUMPDEST JUMPDEST PUSH1 0x20 ADD ADD MLOAD PUSH1 0xF8 SHR PUSH1 0xF8 SHL PUSH31 0xFFFFFFFFFFFFFFFFFFFFFFFFFFFFFFFFFFFFFFFFFFFFFFFFFFFFFFFFFFFFFF NOT AND SUB PUSH2 0x728 JUMPI PUSH2 0x71B PUSH2 0x716 DUP7 PUSH1 0x77 PUSH2 0x152D JUMP JUMPDEST PUSH2 0x15B8 JUMP JUMPDEST DUP3 PUSH1 0x20 ADD DUP2 SWAP1 MSTORE POP PUSH2 0x788 JUMP JUMPDEST PUSH1 0x46 PUSH1 0xF8 SHL DUP6 PUSH1 0x72 DUP2 MLOAD DUP2 LT PUSH2 0x741 JUMPI PUSH2 0x740 PUSH2 0x41B1 JUMP JUMPDEST JUMPDEST PUSH1 0x20 ADD ADD MLOAD PUSH1 0xF8 SHR PUSH1 0xF8 SHL PUSH31 0xFFFFFFFFFFFFFFFFFFFFFFFFFFFFFFFFFFFFFFFFFFFFFFFFFFFFFFFFFFFFFF NOT AND SUB PUSH2 0x787 JUMPI PUSH2 0x77E DUP6 PUSH1 0x77 PUSH2 0x15E1 JUMP JUMPDEST DUP3 PUSH1 0x20 ADD DUP2 SWAP1 MSTORE POP JUMPDEST JUMPDEST DUP2 DUP2 SWAP4 POP SWAP4 POP POP POP SWAP2 POP SWAP2 JUMP JUMPDEST PUSH1 0x60 DUP2 PUSH1 0x1F DUP4 PUSH2 0x7A5 SWAP2 SWAP1 PUSH2 0x43DF JUMP JUMPDEST LT ISZERO PUSH2 0x7E6 JUMPI PUSH1 0x40 MLOAD PUSH32 0x8C379A000000000000000000000000000000000000000000000000000000000 DUP2 MSTORE PUSH1 0x4 ADD PUSH2 0x7DD SWAP1 PUSH2 0x445F JUMP JUMPDEST PUSH1 0x40 MLOAD DUP1 SWAP2 SUB SWAP1 REVERT JUMPDEST DUP2 DUP4 PUSH2 0x7F2 SWAP2 SWAP1 PUSH2 0x43DF JUMP JUMPDEST DUP5 MLOAD LT ISZERO PUSH2 0x835 JUMPI PUSH1 0x40 MLOAD PUSH32 0x8C379A000000000000000000000000000000000000000000000000000000000 DUP2 MSTORE PUSH1 0x4 ADD PUSH2 0x82C SWAP1 PUSH2 0x44CB JUMP JUMPDEST PUSH1 0x40 MLOAD DUP1 SWAP2 SUB SWAP1 REVERT JUMPDEST PUSH1 0x60 DUP3 ISZERO PUSH1 0x0 DUP2 EQ PUSH2 0x856 JUMPI PUSH1 0x40 MLOAD SWAP2 POP PUSH1 0x0 DUP3 MSTORE PUSH1 0x20 DUP3 ADD PUSH1 0x40 MSTORE PUSH2 0x8A7 JUMP JUMPDEST PUSH1 0x40 MLOAD SWAP2 POP PUSH1 0x1F DUP5 AND DUP1 ISZERO PUSH1 0x20 MUL DUP2 DUP5 ADD ADD DUP6 DUP2 ADD DUP8 DUP4 ISZERO PUSH1 0x20 MUL DUP5 DUP12 ADD ADD ADD JUMPDEST DUP2 DUP4 LT ISZERO PUSH2 0x894 JUMPI DUP1 MLOAD DUP4 MSTORE PUSH1 0x20 DUP4 ADD SWAP3 POP PUSH1 0x20 DUP2 ADD SWAP1 POP PUSH2 0x877 JUMP JUMPDEST POP DUP7 DUP6 MSTORE PUSH1 0x1F NOT PUSH1 0x1F DUP4 ADD AND PUSH1 0x40 MSTORE POP POP POP JUMPDEST POP DUP1 SWAP2 POP POP SWAP4 SWAP3 POP POP POP JUMP JUMPDEST PUSH1 0x60 PUSH1 0x0 DUP1 PUSH1 0x0 DUP1 PUSH2 0x8C5 DUP9 DUP9 PUSH2 0xF35 JUMP JUMPDEST DUP1 SWAP9 POP DUP2 SWAP5 POP POP POP PUSH1 0x0 DUP7 EQ DUP1 PUSH2 0x8DB JUMPI POP DUP3 DUP7 GT JUMPDEST ISZERO PUSH2 0x8E8 JUMPI DUP3 SWAP2 POP PUSH2 0x8EC JUMP JUMPDEST DUP6 SWAP2 POP JUMPDEST PUSH1 0x0 DUP3 PUSH8 0xFFFFFFFFFFFFFFFF DUP2 GT ISZERO PUSH2 0x908 JUMPI PUSH2 0x907 PUSH2 0x3AD3 JUMP JUMPDEST JUMPDEST PUSH1 0x40 MLOAD SWAP1 DUP1 DUP3 MSTORE DUP1 PUSH1 0x20 MUL PUSH1 0x20 ADD DUP3 ADD PUSH1 0x40 MSTORE DUP1 ISZERO PUSH2 0x936 JUMPI DUP2 PUSH1 0x20 ADD PUSH1 0x20 DUP3 MUL DUP1 CALLDATASIZE DUP4 CALLDATACOPY DUP1 DUP3 ADD SWAP2 POP POP SWAP1 POP JUMPDEST POP SWAP1 POP PUSH1 0x0 JUMPDEST DUP4 DUP2 LT ISZERO PUSH2 0x9B2 JUMPI PUSH1 0x24 DUP10 PUSH2 0x951 SWAP2 SWAP1 PUSH2 0x43DF JUMP JUMPDEST SWAP9 POP PUSH2 0x95D DUP11 DUP11 PUSH2 0xF35 JUMP JUMPDEST DUP1 SWAP11 POP DUP2 SWAP5 POP POP POP DUP3 DUP3 DUP3 DUP2 MLOAD DUP2 LT PUSH2 0x979 JUMPI PUSH2 0x978 PUSH2 0x41B1 JUMP JUMPDEST JUMPDEST PUSH1 0x20 MUL PUSH1 0x20 ADD ADD DUP2 DUP2 MSTORE POP POP PUSH1 0x4 DUP4 PUSH2 0x992 SWAP2 SWAP1 PUSH2 0x43DF JUMP JUMPDEST DUP10 PUSH2 0x99D SWAP2 SWAP1 PUSH2 0x43DF JUMP JUMPDEST SWAP9 POP DUP1 DUP1 PUSH2 0x9AA SWAP1 PUSH2 0x421C JUMP JUMPDEST SWAP2 POP POP PUSH2 0x93C JUMP JUMPDEST POP DUP1 DUP9 SWAP6 POP SWAP6 POP POP POP POP POP SWAP4 POP SWAP4 SWAP2 POP POP JUMP JUMPDEST PUSH1 0x60 DUP1 PUSH1 0x60 PUSH1 0x0 DUP1 PUSH1 0x0 DUP1 PUSH2 0x9DA DUP11 DUP11 PUSH2 0xF35 JUMP JUMPDEST DUP1 SWAP11 POP DUP2 SWAP5 POP POP POP PUSH1 0x0 DUP9 EQ DUP1 PUSH2 0x9F0 JUMPI POP DUP3 DUP9 GT JUMPDEST ISZERO PUSH2 0x9FD JUMPI DUP3 SWAP2 POP PUSH2 0xA01 JUMP JUMPDEST DUP8 SWAP2 POP JUMPDEST PUSH1 0x0 DUP3 PUSH8 0xFFFFFFFFFFFFFFFF DUP2 GT ISZERO PUSH2 0xA1D JUMPI PUSH2 0xA1C PUSH2 0x3AD3 JUMP JUMPDEST JUMPDEST PUSH1 0x40 MLOAD SWAP1 DUP1 DUP3 MSTORE DUP1 PUSH1 0x20 MUL PUSH1 0x20 ADD DUP3 ADD PUSH1 0x40 MSTORE DUP1 ISZERO PUSH2 0xA4B JUMPI DUP2 PUSH1 0x20 ADD PUSH1 0x20 DUP3 MUL DUP1 CALLDATASIZE DUP4 CALLDATACOPY DUP1 DUP3 ADD SWAP2 POP POP SWAP1 POP JUMPDEST POP SWAP1 POP PUSH1 0x0 DUP4 PUSH8 0xFFFFFFFFFFFFFFFF DUP2 GT ISZERO PUSH2 0xA6A JUMPI PUSH2 0xA69 PUSH2 0x3AD3 JUMP JUMPDEST JUMPDEST PUSH1 0x40 MLOAD SWAP1 DUP1 DUP3 MSTORE DUP1 PUSH1 0x20 MUL PUSH1 0x20 ADD DUP3 ADD PUSH1 0x40 MSTORE DUP1 ISZERO PUSH2 0xA98 JUMPI DUP2 PUSH1 0x20 ADD PUSH1 0x20 DUP3 MUL DUP1 CALLDATASIZE DUP4 CALLDATACOPY DUP1 DUP3 ADD SWAP2 POP POP SWAP1 POP JUMPDEST POP SWAP1 POP PUSH1 0x0 DUP5 PUSH8 0xFFFFFFFFFFFFFFFF DUP2 GT ISZERO PUSH2 0xAB7 JUMPI PUSH2 0xAB6 PUSH2 0x3AD3 JUMP JUMPDEST JUMPDEST PUSH1 0x40 MLOAD SWAP1 DUP1 DUP3 MSTORE DUP1 PUSH1 0x20 MUL PUSH1 0x20 ADD DUP3 ADD PUSH1 0x40 MSTORE DUP1 ISZERO PUSH2 0xAE5 JUMPI DUP2 PUSH1 0x20 ADD PUSH1 0x20 DUP3 MUL DUP1 CALLDATASIZE DUP4 CALLDATACOPY DUP1 DUP3 ADD SWAP2 POP POP SWAP1 POP JUMPDEST POP SWAP1 POP PUSH1 0x0 JUMPDEST DUP6 DUP2 LT ISZERO PUSH2 0xBA0 JUMPI PUSH2 0xAFF DUP15 DUP15 PUSH1 0x40 PUSH2 0x166D JUMP JUMPDEST DUP3 DUP3 DUP2 MLOAD DUP2 LT PUSH2 0xB12 JUMPI PUSH2 0xB11 PUSH2 0x41B1 JUMP JUMPDEST JUMPDEST PUSH1 0x20 MUL PUSH1 0x20 ADD ADD DUP2 DUP2 MSTORE POP POP PUSH1 0x8 DUP14 PUSH2 0xB2B SWAP2 SWAP1 PUSH2 0x43DF JUMP JUMPDEST SWAP13 POP PUSH2 0xB37 DUP15 DUP15 PUSH2 0xF35 JUMP JUMPDEST DUP1 SWAP15 POP DUP2 SWAP7 POP POP POP DUP13 DUP5 DUP3 DUP2 MLOAD DUP2 LT PUSH2 0xB53 JUMPI PUSH2 0xB52 PUSH2 0x41B1 JUMP JUMPDEST JUMPDEST PUSH1 0x20 MUL PUSH1 0x20 ADD ADD DUP2 DUP2 MSTORE POP POP DUP5 DUP4 DUP3 DUP2 MLOAD DUP2 LT PUSH2 0xB73 JUMPI PUSH2 0xB72 PUSH2 0x41B1 JUMP JUMPDEST JUMPDEST PUSH1 0x20 MUL PUSH1 0x20 ADD ADD DUP2 DUP2 MSTORE POP POP DUP5 DUP14 PUSH2 0xB8B SWAP2 SWAP1 PUSH2 0x43DF JUMP JUMPDEST SWAP13 POP DUP1 DUP1 PUSH2 0xB98 SWAP1 PUSH2 0x421C JUMP JUMPDEST SWAP2 POP POP PUSH2 0xAEB JUMP JUMPDEST POP DUP1 DUP4 DUP4 DUP15 SWAP10 POP SWAP10 POP SWAP10 POP SWAP10 POP POP POP POP POP POP POP SWAP4 POP SWAP4 POP SWAP4 POP SWAP4 JUMP JUMPDEST PUSH1 0x0 DUP1 PUSH1 0x0 PUSH2 0xBCC DUP7 DUP7 DUP7 PUSH2 0x1AD8 JUMP JUMPDEST ISZERO PUSH2 0xC5C JUMPI PUSH2 0xC0F PUSH1 0x40 MLOAD DUP1 PUSH1 0x40 ADD PUSH1 0x40 MSTORE DUP1 PUSH1 0x1B DUP2 MSTORE PUSH1 0x20 ADD PUSH32 0x506172736564204C696768746E696E6748544C43206F75747075740000000000 DUP2 MSTORE POP PUSH2 0x2087 JUMP JUMPDEST PUSH2 0xC25 DUP7 PUSH1 0x3 DUP8 PUSH2 0xC20 SWAP2 SWAP1 PUSH2 0x43DF JUMP JUMPDEST PUSH2 0x152D JUMP JUMPDEST PUSH2 0xC3B DUP8 PUSH1 0x28 DUP9 PUSH2 0xC36 SWAP2 SWAP1 PUSH2 0x43DF JUMP JUMPDEST PUSH2 0x152D JUMP JUMPDEST PUSH2 0xC51 DUP9 PUSH1 0x4C DUP10 PUSH2 0xC4C SWAP2 SWAP1 PUSH2 0x43DF JUMP JUMPDEST PUSH2 0x152D JUMP JUMPDEST SWAP3 POP SWAP3 POP SWAP3 POP PUSH2 0xC6F JUMP JUMPDEST PUSH1 0x0 DUP1 SHL PUSH1 0x0 DUP1 SHL PUSH1 0x0 DUP1 SHL SWAP3 POP SWAP3 POP SWAP3 POP JUMPDEST SWAP4 POP SWAP4 POP SWAP4 SWAP1 POP JUMP JUMPDEST PUSH1 0x0 PUSH2 0xC85 DUP5 DUP5 DUP5 PUSH2 0x2120 JUMP JUMPDEST ISZERO PUSH2 0xCF4 JUMPI PUSH2 0xCC8 PUSH1 0x40 MLOAD DUP1 PUSH1 0x40 ADD PUSH1 0x40 MSTORE DUP1 PUSH1 0x13 DUP2 MSTORE PUSH1 0x20 ADD PUSH32 0x506172736564205032504B48206F757470757400000000000000000000000000 DUP2 MSTORE POP PUSH2 0x2087 JUMP JUMPDEST PUSH2 0xCDE DUP5 PUSH1 0x3 DUP6 PUSH2 0xCD9 SWAP2 SWAP1 PUSH2 0x43DF JUMP JUMPDEST PUSH2 0xE52 JUMP JUMPDEST PUSH12 0xFFFFFFFFFFFFFFFFFFFFFFFF NOT AND SWAP1 POP PUSH2 0xE4B JUMP JUMPDEST PUSH2 0xCFF DUP5 DUP5 DUP5 PUSH2 0x22E5 JUMP JUMPDEST ISZERO PUSH2 0xD6E JUMPI PUSH2 0xD42 PUSH1 0x40 MLOAD DUP1 PUSH1 0x40 ADD PUSH1 0x40 MSTORE DUP1 PUSH1 0x12 DUP2 MSTORE PUSH1 0x20 ADD PUSH32 0x5061727365642050325348206F75747075740000000000000000000000000000 DUP2 MSTORE POP PUSH2 0x2087 JUMP JUMPDEST PUSH2 0xD58 DUP5 PUSH1 0x2 DUP6 PUSH2 0xD53 SWAP2 SWAP1 PUSH2 0x43DF JUMP JUMPDEST PUSH2 0xE52 JUMP JUMPDEST PUSH12 0xFFFFFFFFFFFFFFFFFFFFFFFF NOT AND SWAP1 POP PUSH2 0xE4B JUMP JUMPDEST PUSH2 0xD79 DUP5 DUP5 DUP5 PUSH2 0x2402 JUMP JUMPDEST ISZERO PUSH2 0xDD9 JUMPI PUSH2 0xDBC PUSH1 0x40 MLOAD DUP1 PUSH1 0x40 ADD PUSH1 0x40 MSTORE DUP1 PUSH1 0x17 DUP2 MSTORE PUSH1 0x20 ADD PUSH32 0x506172736564204F505F52455455524E206F7574707574000000000000000000 DUP2 MSTORE POP PUSH2 0x2087 JUMP JUMPDEST PUSH2 0xDD2 DUP5 PUSH1 0x2 DUP6 PUSH2 0xDCD SWAP2 SWAP1 PUSH2 0x43DF JUMP JUMPDEST PUSH2 0x152D JUMP JUMPDEST SWAP1 POP PUSH2 0xE4B JUMP JUMPDEST PUSH2 0xDE4 DUP5 DUP5 DUP5 PUSH2 0x1AD8 JUMP JUMPDEST ISZERO PUSH2 0xE44 JUMPI PUSH2 0xE27 PUSH1 0x40 MLOAD DUP1 PUSH1 0x40 ADD PUSH1 0x40 MSTORE DUP1 PUSH1 0x1B DUP2 MSTORE PUSH1 0x20 ADD PUSH32 0x506172736564204C696768746E696E6748544C43206F75747075740000000000 DUP2 MSTORE POP PUSH2 0x2087 JUMP JUMPDEST PUSH2 0xE3D DUP5 PUSH1 0x2 DUP6 PUSH2 0xE38 SWAP2 SWAP1 PUSH2 0x43DF JUMP JUMPDEST PUSH2 0x152D JUMP JUMPDEST SWAP1 POP PUSH2 0xE4B JUMP JUMPDEST PUSH1 0x0 DUP1 SHL SWAP1 POP JUMPDEST SWAP4 SWAP3 POP POP POP JUMP JUMPDEST PUSH1 0x0 DUP1 PUSH1 0x0 SWAP1 POP PUSH1 0x0 JUMPDEST PUSH1 0x14 DUP2 PUSH20 0xFFFFFFFFFFFFFFFFFFFFFFFFFFFFFFFFFFFFFFFF AND LT ISZERO PUSH2 0xF27 JUMPI DUP1 PUSH1 0x13 PUSH2 0xE88 SWAP2 SWAP1 PUSH2 0x450B JUMP JUMPDEST PUSH1 0x8 PUSH2 0xE94 SWAP2 SWAP1 PUSH2 0x4553 JUMP JUMPDEST PUSH20 0xFFFFFFFFFFFFFFFFFFFFFFFFFFFFFFFFFFFFFFFF AND DUP6 DUP6 DUP4 PUSH20 0xFFFFFFFFFFFFFFFFFFFFFFFFFFFFFFFFFFFFFFFF AND PUSH2 0xECD SWAP2 SWAP1 PUSH2 0x43DF JUMP JUMPDEST DUP2 MLOAD DUP2 LT PUSH2 0xEDE JUMPI PUSH2 0xEDD PUSH2 0x41B1 JUMP JUMPDEST JUMPDEST PUSH1 0x20 ADD ADD MLOAD PUSH1 0xF8 SHR PUSH1 0xF8 SHL PUSH1 0xF8 SHR PUSH1 0xFF AND PUSH20 0xFFFFFFFFFFFFFFFFFFFFFFFFFFFFFFFFFFFFFFFF AND SWAP1 SHL DUP3 PUSH2 0xF12 SWAP2 SWAP1 PUSH2 0x4595 JUMP JUMPDEST SWAP2 POP DUP1 DUP1 PUSH2 0xF1F SWAP1 PUSH2 0x45DD JUMP JUMPDEST SWAP2 POP POP PUSH2 0xE5C JUMP JUMPDEST POP DUP1 PUSH1 0x60 SHL SWAP2 POP POP SWAP3 SWAP2 POP POP JUMP JUMPDEST PUSH1 0x0 DUP1 PUSH1 0x0 DUP5 DUP5 DUP2 MLOAD DUP2 LT PUSH2 0xF4D JUMPI PUSH2 0xF4C PUSH2 0x41B1 JUMP JUMPDEST JUMPDEST PUSH1 0x20 ADD ADD MLOAD PUSH1 0xF8 SHR PUSH1 0xF8 SHL PUSH1 0xF8 SHR SWAP1 POP PUSH1 0x1 DUP5 PUSH2 0xF6A SWAP2 SWAP1 PUSH2 0x43DF JUMP JUMPDEST SWAP4 POP PUSH1 0xFD DUP2 PUSH1 0xFF AND LT ISZERO PUSH2 0xF8A JUMPI DUP1 DUP5 DUP2 PUSH1 0xFF AND SWAP2 POP SWAP3 POP SWAP3 POP POP PUSH2 0x1016 JUMP JUMPDEST PUSH1 0xFD DUP2 PUSH1 0xFF AND SUB PUSH2 0xFB8 JUMPI PUSH2 0xFA1 DUP6 DUP6 PUSH1 0x10 PUSH2 0x166D JUMP JUMPDEST PUSH1 0x2 DUP6 PUSH2 0xFAE SWAP2 SWAP1 PUSH2 0x43DF JUMP JUMPDEST SWAP3 POP SWAP3 POP POP PUSH2 0x1016 JUMP JUMPDEST PUSH1 0xFE DUP2 PUSH1 0xFF AND SUB PUSH2 0xFE6 JUMPI PUSH2 0xFCF DUP6 DUP6 PUSH1 0x20 PUSH2 0x166D JUMP JUMPDEST PUSH1 0x4 DUP6 PUSH2 0xFDC SWAP2 SWAP1 PUSH2 0x43DF JUMP JUMPDEST SWAP3 POP SWAP3 POP POP PUSH2 0x1016 JUMP JUMPDEST PUSH1 0xFF DUP2 PUSH1 0xFF AND SUB PUSH2 0x1014 JUMPI PUSH2 0xFFD DUP6 DUP6 PUSH1 0x40 PUSH2 0x166D JUMP JUMPDEST PUSH1 0x8 DUP6 PUSH2 0x100A SWAP2 SWAP1 PUSH2 0x43DF JUMP JUMPDEST SWAP3 POP SWAP3 POP POP PUSH2 0x1016 JUMP JUMPDEST POP JUMPDEST SWAP3 POP SWAP3 SWAP1 POP JUMP JUMPDEST PUSH1 0x0 DUP1 PUSH1 0x20 PUSH1 0xFF AND PUSH8 0xFFFFFFFFFFFFFFFF DUP2 GT ISZERO PUSH2 0x103E JUMPI PUSH2 0x103D PUSH2 0x3AD3 JUMP JUMPDEST JUMPDEST PUSH1 0x40 MLOAD SWAP1 DUP1 DUP3 MSTORE DUP1 PUSH1 0x1F ADD PUSH1 0x1F NOT AND PUSH1 0x20 ADD DUP3 ADD PUSH1 0x40 MSTORE DUP1 ISZERO PUSH2 0x1070 JUMPI DUP2 PUSH1 0x20 ADD PUSH1 0x1 DUP3 MUL DUP1 CALLDATASIZE DUP4 CALLDATACOPY DUP1 DUP3 ADD SWAP2 POP POP SWAP1 POP JUMPDEST POP SWAP1 POP PUSH1 0x0 JUMPDEST PUSH1 0x20 PUSH1 0xFF AND DUP2 LT ISZERO PUSH2 0x1109 JUMPI DUP4 DUP2 PUSH1 0x20 DUP2 LT PUSH2 0x1095 JUMPI PUSH2 0x1094 PUSH2 0x41B1 JUMP JUMPDEST JUMPDEST BYTE PUSH1 0xF8 SHL DUP3 PUSH1 0x1 DUP4 PUSH1 0x20 PUSH1 0xFF AND PUSH2 0x10AC SWAP2 SWAP1 PUSH2 0x40E4 JUMP JUMPDEST PUSH2 0x10B6 SWAP2 SWAP1 PUSH2 0x40E4 JUMP JUMPDEST DUP2 MLOAD DUP2 LT PUSH2 0x10C7 JUMPI PUSH2 0x10C6 PUSH2 0x41B1 JUMP JUMPDEST JUMPDEST PUSH1 0x20 ADD ADD SWAP1 PUSH31 0xFFFFFFFFFFFFFFFFFFFFFFFFFFFFFFFFFFFFFFFFFFFFFFFFFFFFFFFFFFFFFF NOT AND SWAP1 DUP2 PUSH1 0x0 BYTE SWAP1 MSTORE8 POP DUP1 DUP1 PUSH2 0x1101 SWAP1 PUSH2 0x421C JUMP JUMPDEST SWAP2 POP POP PUSH2 0x1076 JUMP JUMPDEST POP PUSH2 0x1113 DUP2 PUSH2 0x24C5 JUMP JUMPDEST SWAP2 POP POP SWAP2 SWAP1 POP JUMP JUMPDEST PUSH1 0x0 DUP1 PUSH1 0x0 PUSH32 0xFFFFFFFFFFFFFFFFFFFFFFFFFFFFFFFFFFFFFFFFFFFFFFFFFFFFFFFEFFFFFC2F DUP1 PUSH2 0x114F JUMPI PUSH2 0x114E PUSH2 0x4619 JUMP JUMPDEST JUMPDEST PUSH1 0x1 DUP8 PUSH1 0xFF AND SWAP1 SHR PUSH1 0xFF AND PUSH32 0xFFFFFFFFFFFFFFFFFFFFFFFFFFFFFFFFFFFFFFFFFFFFFFFFFFFFFFFEFFFFFC2F PUSH2 0x1185 SWAP2 SWAP1 PUSH2 0x4648 JUMP JUMPDEST DUP7 ADDMOD SWAP1 POP PUSH32 0xFFFFFFFFFFFFFFFFFFFFFFFFFFFFFFFFFFFFFFFFFFFFFFFFFFFFFFFEFFFFFC2F DUP2 GT DUP1 PUSH2 0x11D6 JUMPI POP PUSH32 0xFFFFFFFFFFFFFFFFFFFFFFFFFFFFFFFEBAAEDCE6AF48A03BBFD25E8CD0364141 DUP5 GT JUMPDEST DUP1 PUSH2 0x1200 JUMPI POP PUSH32 0xFFFFFFFFFFFFFFFFFFFFFFFFFFFFFFFEBAAEDCE6AF48A03BBFD25E8CD0364141 DUP6 GT JUMPDEST DUP1 PUSH2 0x120B JUMPI POP PUSH1 0x0 DUP5 EQ JUMPDEST DUP1 PUSH2 0x1216 JUMPI POP PUSH1 0x0 DUP6 EQ JUMPDEST DUP1 PUSH2 0x1224 JUMPI POP PUSH1 0x1 DUP7 PUSH1 0xFF AND GT JUMPDEST ISZERO PUSH2 0x1236 JUMPI PUSH1 0x0 DUP1 SWAP3 POP SWAP3 POP POP PUSH2 0x1524 JUMP JUMPDEST PUSH1 0x0 PUSH2 0x1262 DUP7 PUSH32 0xFFFFFFFFFFFFFFFFFFFFFFFFFFFFFFFEBAAEDCE6AF48A03BBFD25E8CD0364141 PUSH2 0x24EE JUMP JUMPDEST SWAP1 POP PUSH1 0x0 PUSH32 0xFFFFFFFFFFFFFFFFFFFFFFFFFFFFFFFFFFFFFFFFFFFFFFFFFFFFFFFEFFFFFC2F DUP1 PUSH2 0x1295 JUMPI PUSH2 0x1294 PUSH2 0x4619 JUMP JUMPDEST JUMPDEST PUSH32 0xFFFFFFFFFFFFFFFFFFFFFFFFFFFFFFFFFFFFFFFFFFFFFFFFFFFFFFFEFFFFFC2F DUP1 PUSH2 0x12C4 JUMPI PUSH2 0x12C3 PUSH2 0x4619 JUMP JUMPDEST JUMPDEST PUSH1 0x7 PUSH32 0xFFFFFFFFFFFFFFFFFFFFFFFFFFFFFFFFFFFFFFFFFFFFFFFFFFFFFFFEFFFFFC2F DUP1 PUSH2 0x12F5 JUMPI PUSH2 0x12F4 PUSH2 0x4619 JUMP JUMPDEST JUMPDEST PUSH1 0x0 DUP8 MULMOD ADDMOD PUSH32 0xFFFFFFFFFFFFFFFFFFFFFFFFFFFFFFFFFFFFFFFFFFFFFFFFFFFFFFFEFFFFFC2F DUP1 PUSH2 0x1329 JUMPI PUSH2 0x1328 PUSH2 0x4619 JUMP JUMPDEST JUMPDEST PUSH32 0xFFFFFFFFFFFFFFFFFFFFFFFFFFFFFFFFFFFFFFFFFFFFFFFFFFFFFFFEFFFFFC2F DUP1 PUSH2 0x1358 JUMPI PUSH2 0x1357 PUSH2 0x4619 JUMP JUMPDEST JUMPDEST DUP7 DUP8 MULMOD DUP7 MULMOD ADDMOD SWAP1 POP PUSH2 0x13A2 DUP2 PUSH1 0x4 PUSH1 0x1 PUSH32 0xFFFFFFFFFFFFFFFFFFFFFFFFFFFFFFFFFFFFFFFFFFFFFFFFFFFFFFFEFFFFFC2F PUSH2 0x1393 SWAP2 SWAP1 PUSH2 0x43DF JUMP JUMPDEST PUSH2 0x139D SWAP2 SWAP1 PUSH2 0x468A JUMP JUMPDEST PUSH2 0x25DA JUMP JUMPDEST SWAP1 POP PUSH1 0x0 DUP1 PUSH1 0x1 PUSH1 0x2 DUP12 PUSH1 0xFF AND DUP6 PUSH2 0x13BA SWAP2 SWAP1 PUSH2 0x43DF JUMP JUMPDEST PUSH2 0x13C4 SWAP2 SWAP1 PUSH2 0x43DF JUMP JUMPDEST AND EQ PUSH2 0x13FB JUMPI DUP2 PUSH32 0xFFFFFFFFFFFFFFFFFFFFFFFFFFFFFFFFFFFFFFFFFFFFFFFFFFFFFFFEFFFFFC2F PUSH2 0x13F6 SWAP2 SWAP1 PUSH2 0x40E4 JUMP JUMPDEST PUSH2 0x13FD JUMP JUMPDEST DUP2 JUMPDEST SWAP1 POP PUSH1 0x0 DUP1 PUSH1 0x0 PUSH2 0x14AD PUSH32 0xFFFFFFFFFFFFFFFFFFFFFFFFFFFFFFFEBAAEDCE6AF48A03BBFD25E8CD0364141 DUP1 PUSH2 0x1436 JUMPI PUSH2 0x1435 PUSH2 0x4619 JUMP JUMPDEST JUMPDEST DUP15 PUSH32 0xFFFFFFFFFFFFFFFFFFFFFFFFFFFFFFFEBAAEDCE6AF48A03BBFD25E8CD0364141 PUSH2 0x1462 SWAP2 SWAP1 PUSH2 0x40E4 JUMP JUMPDEST DUP9 MULMOD PUSH32 0x79BE667EF9DCBBAC55A06295CE870B07029BFCDB2DCE28D959F2815B16F81798 PUSH32 0x483ADA7726A3C4655DA4FBFC0E1108A8FD17B448A68554199C47D08FFB10D4B8 PUSH1 0x1 PUSH2 0x278E JUMP JUMPDEST SWAP3 POP SWAP3 POP SWAP3 POP PUSH1 0x0 DUP1 PUSH1 0x0 PUSH2 0x14F6 PUSH32 0xFFFFFFFFFFFFFFFFFFFFFFFFFFFFFFFEBAAEDCE6AF48A03BBFD25E8CD0364141 DUP1 PUSH2 0x14EA JUMPI PUSH2 0x14E9 PUSH2 0x4619 JUMP JUMPDEST JUMPDEST DUP15 DUP12 MULMOD DUP12 DUP10 PUSH1 0x1 PUSH2 0x278E JUMP JUMPDEST SWAP3 POP SWAP3 POP SWAP3 POP PUSH1 0x0 DUP1 PUSH2 0x150D DUP9 DUP9 DUP9 DUP9 DUP9 DUP9 PUSH2 0x2828 JUMP JUMPDEST SWAP2 POP SWAP2 POP DUP2 DUP2 SWAP14 POP SWAP14 POP POP POP POP POP POP POP POP POP POP POP POP POP JUMPDEST SWAP5 POP SWAP5 SWAP3 POP POP POP JUMP JUMPDEST PUSH1 0x0 DUP1 PUSH1 0x0 SWAP1 POP PUSH1 0x0 JUMPDEST PUSH1 0x20 DUP2 LT ISZERO PUSH2 0x15AA JUMPI DUP1 PUSH1 0x1F PUSH2 0x154D SWAP2 SWAP1 PUSH2 0x40E4 JUMP JUMPDEST PUSH1 0x8 PUSH2 0x1559 SWAP2 SWAP1 PUSH2 0x4648 JUMP JUMPDEST DUP6 DUP6 DUP4 PUSH2 0x1566 SWAP2 SWAP1 PUSH2 0x43DF JUMP JUMPDEST DUP2 MLOAD DUP2 LT PUSH2 0x1577 JUMPI PUSH2 0x1576 PUSH2 0x41B1 JUMP JUMPDEST JUMPDEST PUSH1 0x20 ADD ADD MLOAD PUSH1 0xF8 SHR PUSH1 0xF8 SHL PUSH1 0xF8 SHR PUSH1 0xFF AND SWAP1 SHL DUP3 PUSH2 0x1595 SWAP2 SWAP1 PUSH2 0x43DF JUMP JUMPDEST SWAP2 POP DUP1 DUP1 PUSH2 0x15A2 SWAP1 PUSH2 0x421C JUMP JUMPDEST SWAP2 POP POP PUSH2 0x1537 JUMP JUMPDEST POP DUP1 PUSH1 0x0 SHL SWAP2 POP POP SWAP3 SWAP2 POP POP JUMP JUMPDEST PUSH1 0x60 DUP2 PUSH1 0x40 MLOAD PUSH1 0x20 ADD PUSH2 0x15CB SWAP2 SWAP1 PUSH2 0x4201 JUMP JUMPDEST PUSH1 0x40 MLOAD PUSH1 0x20 DUP2 DUP4 SUB SUB DUP2 MSTORE SWAP1 PUSH1 0x40 MSTORE SWAP1 POP SWAP2 SWAP1 POP JUMP JUMPDEST PUSH1 0x60 PUSH1 0x0 DUP1 JUMPDEST PUSH1 0x1F DUP2 LT ISZERO PUSH2 0x165A JUMPI DUP1 PUSH1 0x1E PUSH2 0x15FD SWAP2 SWAP1 PUSH2 0x40E4 JUMP JUMPDEST PUSH1 0x8 PUSH2 0x1609 SWAP2 SWAP1 PUSH2 0x4648 JUMP JUMPDEST DUP6 DUP6 DUP4 PUSH2 0x1616 SWAP2 SWAP1 PUSH2 0x43DF JUMP JUMPDEST DUP2 MLOAD DUP2 LT PUSH2 0x1627 JUMPI PUSH2 0x1626 PUSH2 0x41B1 JUMP JUMPDEST JUMPDEST PUSH1 0x20 ADD ADD MLOAD PUSH1 0xF8 SHR PUSH1 0xF8 SHL PUSH1 0xF8 SHR PUSH1 0xFF AND SWAP1 SHL DUP3 PUSH2 0x1645 SWAP2 SWAP1 PUSH2 0x43DF JUMP JUMPDEST SWAP2 POP DUP1 DUP1 PUSH2 0x1652 SWAP1 PUSH2 0x421C JUMP JUMPDEST SWAP2 POP POP PUSH2 0x15E7 JUMP JUMPDEST POP PUSH2 0x1664 DUP2 PUSH2 0x28D4 JUMP JUMPDEST SWAP2 POP POP SWAP3 SWAP2 POP POP JUMP JUMPDEST PUSH1 0x0 PUSH1 0x8 DUP3 SUB PUSH2 0x16A2 JUMPI DUP4 DUP4 DUP2 MLOAD DUP2 LT PUSH2 0x168A JUMPI PUSH2 0x1689 PUSH2 0x41B1 JUMP JUMPDEST JUMPDEST PUSH1 0x20 ADD ADD MLOAD PUSH1 0xF8 SHR PUSH1 0xF8 SHL PUSH1 0xF8 SHR PUSH1 0xFF AND SWAP1 POP PUSH2 0x1AD1 JUMP JUMPDEST PUSH1 0x10 DUP3 SUB PUSH2 0x1724 JUMPI PUSH2 0x100 DUP5 PUSH1 0x1 DUP6 PUSH2 0x16BB SWAP2 SWAP1 PUSH2 0x43DF JUMP JUMPDEST DUP2 MLOAD DUP2 LT PUSH2 0x16CC JUMPI PUSH2 0x16CB PUSH2 0x41B1 JUMP JUMPDEST JUMPDEST PUSH1 0x20 ADD ADD MLOAD PUSH1 0xF8 SHR PUSH1 0xF8 SHL PUSH1 0xF8 SHR PUSH1 0xFF AND PUSH2 0x16E7 SWAP2 SWAP1 PUSH2 0x46C9 JUMP JUMPDEST PUSH2 0xFFFF AND DUP5 DUP5 DUP2 MLOAD DUP2 LT PUSH2 0x16FE JUMPI PUSH2 0x16FD PUSH2 0x41B1 JUMP JUMPDEST JUMPDEST PUSH1 0x20 ADD ADD MLOAD PUSH1 0xF8 SHR PUSH1 0xF8 SHL PUSH1 0xF8 SHR PUSH1 0xFF AND PUSH2 0xFFFF AND PUSH2 0x171D SWAP2 SWAP1 PUSH2 0x43DF JUMP JUMPDEST SWAP1 POP PUSH2 0x1AD1 JUMP JUMPDEST PUSH1 0x20 DUP3 SUB PUSH2 0x1847 JUMPI PUSH4 0x1000000 DUP5 PUSH1 0x3 DUP6 PUSH2 0x173F SWAP2 SWAP1 PUSH2 0x43DF JUMP JUMPDEST DUP2 MLOAD DUP2 LT PUSH2 0x1750 JUMPI PUSH2 0x174F PUSH2 0x41B1 JUMP JUMPDEST JUMPDEST PUSH1 0x20 ADD ADD MLOAD PUSH1 0xF8 SHR PUSH1 0xF8 SHL PUSH1 0xF8 SHR PUSH1 0xFF AND PUSH2 0x176B SWAP2 SWAP1 PUSH2 0x4716 JUMP JUMPDEST PUSH4 0xFFFFFFFF AND PUSH3 0x10000 DUP6 PUSH1 0x2 DUP7 PUSH2 0x1783 SWAP2 SWAP1 PUSH2 0x43DF JUMP JUMPDEST DUP2 MLOAD DUP2 LT PUSH2 0x1794 JUMPI PUSH2 0x1793 PUSH2 0x41B1 JUMP JUMPDEST JUMPDEST PUSH1 0x20 ADD ADD MLOAD PUSH1 0xF8 SHR PUSH1 0xF8 SHL PUSH1 0xF8 SHR PUSH1 0xFF AND PUSH2 0x17AF SWAP2 SWAP1 PUSH2 0x4716 JUMP JUMPDEST PUSH4 0xFFFFFFFF AND PUSH2 0x100 DUP7 PUSH1 0x1 DUP8 PUSH2 0x17C6 SWAP2 SWAP1 PUSH2 0x43DF JUMP JUMPDEST DUP2 MLOAD DUP2 LT PUSH2 0x17D7 JUMPI PUSH2 0x17D6 PUSH2 0x41B1 JUMP JUMPDEST JUMPDEST PUSH1 0x20 ADD ADD MLOAD PUSH1 0xF8 SHR PUSH1 0xF8 SHL PUSH1 0xF8 SHR PUSH1 0xFF AND PUSH2 0x17F2 SWAP2 SWAP1 PUSH2 0x4716 JUMP JUMPDEST PUSH4 0xFFFFFFFF AND DUP7 DUP7 DUP2 MLOAD DUP2 LT PUSH2 0x180B JUMPI PUSH2 0x180A PUSH2 0x41B1 JUMP JUMPDEST JUMPDEST PUSH1 0x20 ADD ADD MLOAD PUSH1 0xF8 SHR PUSH1 0xF8 SHL PUSH1 0xF8 SHR PUSH1 0xFF AND PUSH4 0xFFFFFFFF AND PUSH2 0x182C SWAP2 SWAP1 PUSH2 0x43DF JUMP JUMPDEST PUSH2 0x1836 SWAP2 SWAP1 PUSH2 0x43DF JUMP JUMPDEST PUSH2 0x1840 SWAP2 SWAP1 PUSH2 0x43DF JUMP JUMPDEST SWAP1 POP PUSH2 0x1AD1 JUMP JUMPDEST PUSH1 0x40 DUP3 SUB PUSH2 0x1AD0 JUMPI PUSH8 0x100000000000000 DUP5 PUSH1 0x7 DUP6 PUSH2 0x1866 SWAP2 SWAP1 PUSH2 0x43DF JUMP JUMPDEST DUP2 MLOAD DUP2 LT PUSH2 0x1877 JUMPI PUSH2 0x1876 PUSH2 0x41B1 JUMP JUMPDEST JUMPDEST PUSH1 0x20 ADD ADD MLOAD PUSH1 0xF8 SHR PUSH1 0xF8 SHL PUSH1 0xF8 SHR PUSH1 0xFF AND PUSH2 0x1892 SWAP2 SWAP1 PUSH2 0x4767 JUMP JUMPDEST PUSH8 0xFFFFFFFFFFFFFFFF AND PUSH7 0x1000000000000 DUP6 PUSH1 0x6 DUP7 PUSH2 0x18B2 SWAP2 SWAP1 PUSH2 0x43DF JUMP JUMPDEST DUP2 MLOAD DUP2 LT PUSH2 0x18C3 JUMPI PUSH2 0x18C2 PUSH2 0x41B1 JUMP JUMPDEST JUMPDEST PUSH1 0x20 ADD ADD MLOAD PUSH1 0xF8 SHR PUSH1 0xF8 SHL PUSH1 0xF8 SHR PUSH1 0xFF AND PUSH2 0x18DE SWAP2 SWAP1 PUSH2 0x4767 JUMP JUMPDEST PUSH8 0xFFFFFFFFFFFFFFFF AND PUSH6 0x10000000000 DUP7 PUSH1 0x5 DUP8 PUSH2 0x18FD SWAP2 SWAP1 PUSH2 0x43DF JUMP JUMPDEST DUP2 MLOAD DUP2 LT PUSH2 0x190E JUMPI PUSH2 0x190D PUSH2 0x41B1 JUMP JUMPDEST JUMPDEST PUSH1 0x20 ADD ADD MLOAD PUSH1 0xF8 SHR PUSH1 0xF8 SHL PUSH1 0xF8 SHR PUSH1 0xFF AND PUSH2 0x1929 SWAP2 SWAP1 PUSH2 0x4767 JUMP JUMPDEST PUSH8 0xFFFFFFFFFFFFFFFF AND PUSH5 0x100000000 DUP8 PUSH1 0x4 DUP9 PUSH2 0x1947 SWAP2 SWAP1 PUSH2 0x43DF JUMP JUMPDEST DUP2 MLOAD DUP2 LT PUSH2 0x1958 JUMPI PUSH2 0x1957 PUSH2 0x41B1 JUMP JUMPDEST JUMPDEST PUSH1 0x20 ADD ADD MLOAD PUSH1 0xF8 SHR PUSH1 0xF8 SHL PUSH1 0xF8 SHR PUSH1 0xFF AND PUSH2 0x1973 SWAP2 SWAP1 PUSH2 0x4767 JUMP JUMPDEST PUSH8 0xFFFFFFFFFFFFFFFF AND PUSH4 0x1000000 DUP9 PUSH1 0x3 DUP10 PUSH2 0x1990 SWAP2 SWAP1 PUSH2 0x43DF JUMP JUMPDEST DUP2 MLOAD DUP2 LT PUSH2 0x19A1 JUMPI PUSH2 0x19A0 PUSH2 0x41B1 JUMP JUMPDEST JUMPDEST PUSH1 0x20 ADD ADD MLOAD PUSH1 0xF8 SHR PUSH1 0xF8 SHL PUSH1 0xF8 SHR PUSH1 0xFF AND PUSH2 0x19BC SWAP2 SWAP1 PUSH2 0x4767 JUMP JUMPDEST PUSH8 0xFFFFFFFFFFFFFFFF AND PUSH3 0x10000 DUP10 PUSH1 0x2 DUP11 PUSH2 0x19D8 SWAP2 SWAP1 PUSH2 0x43DF JUMP JUMPDEST DUP2 MLOAD DUP2 LT PUSH2 0x19E9 JUMPI PUSH2 0x19E8 PUSH2 0x41B1 JUMP JUMPDEST JUMPDEST PUSH1 0x20 ADD ADD MLOAD PUSH1 0xF8 SHR PUSH1 0xF8 SHL PUSH1 0xF8 SHR PUSH1 0xFF AND PUSH2 0x1A04 SWAP2 SWAP1 PUSH2 0x4767 JUMP JUMPDEST PUSH8 0xFFFFFFFFFFFFFFFF AND PUSH2 0x100 DUP11 PUSH1 0x1 DUP12 PUSH2 0x1A1F SWAP2 SWAP1 PUSH2 0x43DF JUMP JUMPDEST DUP2 MLOAD DUP2 LT PUSH2 0x1A30 JUMPI PUSH2 0x1A2F PUSH2 0x41B1 JUMP JUMPDEST JUMPDEST PUSH1 0x20 ADD ADD MLOAD PUSH1 0xF8 SHR PUSH1 0xF8 SHL PUSH1 0xF8 SHR PUSH1 0xFF AND PUSH2 0x1A4B SWAP2 SWAP1 PUSH2 0x4767 JUMP JUMPDEST PUSH8 0xFFFFFFFFFFFFFFFF AND DUP11 DUP11 DUP2 MLOAD DUP2 LT PUSH2 0x1A68 JUMPI PUSH2 0x1A67 PUSH2 0x41B1 JUMP JUMPDEST JUMPDEST PUSH1 0x20 ADD ADD MLOAD PUSH1 0xF8 SHR PUSH1 0xF8 SHL PUSH1 0xF8 SHR PUSH1 0xFF AND PUSH8 0xFFFFFFFFFFFFFFFF AND PUSH2 0x1A8D SWAP2 SWAP1 PUSH2 0x43DF JUMP JUMPDEST PUSH2 0x1A97 SWAP2 SWAP1 PUSH2 0x43DF JUMP JUMPDEST PUSH2 0x1AA1 SWAP2 SWAP1 PUSH2 0x43DF JUMP JUMPDEST PUSH2 0x1AAB SWAP2 SWAP1 PUSH2 0x43DF JUMP JUMPDEST PUSH2 0x1AB5 SWAP2 SWAP1 PUSH2 0x43DF JUMP JUMPDEST PUSH2 0x1ABF SWAP2 SWAP1 PUSH2 0x43DF JUMP JUMPDEST PUSH2 0x1AC9 SWAP2 SWAP1 PUSH2 0x43DF JUMP JUMPDEST SWAP1 POP PUSH2 0x1AD1 JUMP JUMPDEST JUMPDEST SWAP4 SWAP3 POP POP POP JUMP JUMPDEST PUSH1 0x0 PUSH1 0x72 DUP3 EQ DUP1 ISZERO PUSH2 0x1B38 JUMPI POP PUSH1 0x76 PUSH1 0xF8 SHL DUP5 PUSH1 0x0 DUP6 PUSH2 0x1AF8 SWAP2 SWAP1 PUSH2 0x43DF JUMP JUMPDEST DUP2 MLOAD DUP2 LT PUSH2 0x1B09 JUMPI PUSH2 0x1B08 PUSH2 0x41B1 JUMP JUMPDEST JUMPDEST PUSH1 0x20 ADD ADD MLOAD PUSH1 0xF8 SHR PUSH1 0xF8 SHL PUSH31 0xFFFFFFFFFFFFFFFFFFFFFFFFFFFFFFFFFFFFFFFFFFFFFFFFFFFFFFFFFFFFFF NOT AND EQ JUMPDEST DUP1 ISZERO PUSH2 0x1B92 JUMPI POP PUSH1 0x21 PUSH1 0xF8 SHL DUP5 PUSH1 0x1 DUP6 PUSH2 0x1B52 SWAP2 SWAP1 PUSH2 0x43DF JUMP JUMPDEST DUP2 MLOAD DUP2 LT PUSH2 0x1B63 JUMPI PUSH2 0x1B62 PUSH2 0x41B1 JUMP JUMPDEST JUMPDEST PUSH1 0x20 ADD ADD MLOAD PUSH1 0xF8 SHR PUSH1 0xF8 SHL PUSH31 0xFFFFFFFFFFFFFFFFFFFFFFFFFFFFFFFFFFFFFFFFFFFFFFFFFFFFFFFFFFFFFF NOT AND EQ JUMPDEST DUP1 ISZERO PUSH2 0x1BEC JUMPI POP PUSH1 0xAC PUSH1 0xF8 SHL DUP5 PUSH1 0x23 DUP6 PUSH2 0x1BAC SWAP2 SWAP1 PUSH2 0x43DF JUMP JUMPDEST DUP2 MLOAD DUP2 LT PUSH2 0x1BBD JUMPI PUSH2 0x1BBC PUSH2 0x41B1 JUMP JUMPDEST JUMPDEST PUSH1 0x20 ADD ADD MLOAD PUSH1 0xF8 SHR PUSH1 0xF8 SHL PUSH31 0xFFFFFFFFFFFFFFFFFFFFFFFFFFFFFFFFFFFFFFFFFFFFFFFFFFFFFFFFFFFFFF NOT AND EQ JUMPDEST DUP1 ISZERO PUSH2 0x1C46 JUMPI POP PUSH1 0x63 PUSH1 0xF8 SHL DUP5 PUSH1 0x24 DUP6 PUSH2 0x1C06 SWAP2 SWAP1 PUSH2 0x43DF JUMP JUMPDEST DUP2 MLOAD DUP2 LT PUSH2 0x1C17 JUMPI PUSH2 0x1C16 PUSH2 0x41B1 JUMP JUMPDEST JUMPDEST PUSH1 0x20 ADD ADD MLOAD PUSH1 0xF8 SHR PUSH1 0xF8 SHL PUSH31 0xFFFFFFFFFFFFFFFFFFFFFFFFFFFFFFFFFFFFFFFFFFFFFFFFFFFFFFFFFFFFFF NOT AND EQ JUMPDEST DUP1 ISZERO PUSH2 0x1CA0 JUMPI POP PUSH1 0x75 PUSH1 0xF8 SHL DUP5 PUSH1 0x25 DUP6 PUSH2 0x1C60 SWAP2 SWAP1 PUSH2 0x43DF JUMP JUMPDEST DUP2 MLOAD DUP2 LT PUSH2 0x1C71 JUMPI PUSH2 0x1C70 PUSH2 0x41B1 JUMP JUMPDEST JUMPDEST PUSH1 0x20 ADD ADD MLOAD PUSH1 0xF8 SHR PUSH1 0xF8 SHL PUSH31 0xFFFFFFFFFFFFFFFFFFFFFFFFFFFFFFFFFFFFFFFFFFFFFFFFFFFFFFFFFFFFFF NOT AND EQ JUMPDEST DUP1 ISZERO PUSH2 0x1CFA JUMPI POP PUSH1 0xAA PUSH1 0xF8 SHL DUP5 PUSH1 0x26 DUP6 PUSH2 0x1CBA SWAP2 SWAP1 PUSH2 0x43DF JUMP JUMPDEST DUP2 MLOAD DUP2 LT PUSH2 0x1CCB JUMPI PUSH2 0x1CCA PUSH2 0x41B1 JUMP JUMPDEST JUMPDEST PUSH1 0x20 ADD ADD MLOAD PUSH1 0xF8 SHR PUSH1 0xF8 SHL PUSH31 0xFFFFFFFFFFFFFFFFFFFFFFFFFFFFFFFFFFFFFFFFFFFFFFFFFFFFFFFFFFFFFF NOT AND EQ JUMPDEST DUP1 ISZERO PUSH2 0x1D54 JUMPI POP PUSH1 0x20 PUSH1 0xF8 SHL DUP5 PUSH1 0x27 DUP6 PUSH2 0x1D14 SWAP2 SWAP1 PUSH2 0x43DF JUMP JUMPDEST DUP2 MLOAD DUP2 LT PUSH2 0x1D25 JUMPI PUSH2 0x1D24 PUSH2 0x41B1 JUMP JUMPDEST JUMPDEST PUSH1 0x20 ADD ADD MLOAD PUSH1 0xF8 SHR PUSH1 0xF8 SHL PUSH31 0xFFFFFFFFFFFFFFFFFFFFFFFFFFFFFFFFFFFFFFFFFFFFFFFFFFFFFFFFFFFFFF NOT AND EQ JUMPDEST DUP1 ISZERO PUSH2 0x1DAE JUMPI POP PUSH1 0x88 PUSH1 0xF8 SHL DUP5 PUSH1 0x48 DUP6 PUSH2 0x1D6E SWAP2 SWAP1 PUSH2 0x43DF JUMP JUMPDEST DUP2 MLOAD DUP2 LT PUSH2 0x1D7F JUMPI PUSH2 0x1D7E PUSH2 0x41B1 JUMP JUMPDEST JUMPDEST PUSH1 0x20 ADD ADD MLOAD PUSH1 0xF8 SHR PUSH1 0xF8 SHL PUSH31 0xFFFFFFFFFFFFFFFFFFFFFFFFFFFFFFFFFFFFFFFFFFFFFFFFFFFFFFFFFFFFFF NOT AND EQ JUMPDEST DUP1 ISZERO PUSH2 0x1E08 JUMPI POP PUSH1 0x67 PUSH1 0xF8 SHL DUP5 PUSH1 0x49 DUP6 PUSH2 0x1DC8 SWAP2 SWAP1 PUSH2 0x43DF JUMP JUMPDEST DUP2 MLOAD DUP2 LT PUSH2 0x1DD9 JUMPI PUSH2 0x1DD8 PUSH2 0x41B1 JUMP JUMPDEST JUMPDEST PUSH1 0x20 ADD ADD MLOAD PUSH1 0xF8 SHR PUSH1 0xF8 SHL PUSH31 0xFFFFFFFFFFFFFFFFFFFFFFFFFFFFFFFFFFFFFFFFFFFFFFFFFFFFFFFFFFFFFF NOT AND EQ JUMPDEST DUP1 ISZERO PUSH2 0x1E62 JUMPI POP PUSH1 0x21 PUSH1 0xF8 SHL DUP5 PUSH1 0x4A DUP6 PUSH2 0x1E22 SWAP2 SWAP1 PUSH2 0x43DF JUMP JUMPDEST DUP2 MLOAD DUP2 LT PUSH2 0x1E33 JUMPI PUSH2 0x1E32 PUSH2 0x41B1 JUMP JUMPDEST JUMPDEST PUSH1 0x20 ADD ADD MLOAD PUSH1 0xF8 SHR PUSH1 0xF8 SHL PUSH31 0xFFFFFFFFFFFFFFFFFFFFFFFFFFFFFFFFFFFFFFFFFFFFFFFFFFFFFFFFFFFFFF NOT AND EQ JUMPDEST DUP1 ISZERO PUSH2 0x1EBC JUMPI POP PUSH1 0xAD PUSH1 0xF8 SHL DUP5 PUSH1 0x6C DUP6 PUSH2 0x1E7C SWAP2 SWAP1 PUSH2 0x43DF JUMP JUMPDEST DUP2 MLOAD DUP2 LT PUSH2 0x1E8D JUMPI PUSH2 0x1E8C PUSH2 0x41B1 JUMP JUMPDEST JUMPDEST PUSH1 0x20 ADD ADD MLOAD PUSH1 0xF8 SHR PUSH1 0xF8 SHL PUSH31 0xFFFFFFFFFFFFFFFFFFFFFFFFFFFFFFFFFFFFFFFFFFFFFFFFFFFFFFFFFFFFFF NOT AND EQ JUMPDEST DUP1 ISZERO PUSH2 0x1F16 JUMPI POP PUSH1 0x52 PUSH1 0xF8 SHL DUP5 PUSH1 0x6D DUP6 PUSH2 0x1ED6 SWAP2 SWAP1 PUSH2 0x43DF JUMP JUMPDEST DUP2 MLOAD DUP2 LT PUSH2 0x1EE7 JUMPI PUSH2 0x1EE6 PUSH2 0x41B1 JUMP JUMPDEST JUMPDEST PUSH1 0x20 ADD ADD MLOAD PUSH1 0xF8 SHR PUSH1 0xF8 SHL PUSH31 0xFFFFFFFFFFFFFFFFFFFFFFFFFFFFFFFFFFFFFFFFFFFFFFFFFFFFFFFFFFFFFF NOT AND EQ JUMPDEST DUP1 ISZERO PUSH2 0x1F70 JUMPI POP PUSH1 0xB2 PUSH1 0xF8 SHL DUP5 PUSH1 0x6E DUP6 PUSH2 0x1F30 SWAP2 SWAP1 PUSH2 0x43DF JUMP JUMPDEST DUP2 MLOAD DUP2 LT PUSH2 0x1F41 JUMPI PUSH2 0x1F40 PUSH2 0x41B1 JUMP JUMPDEST JUMPDEST PUSH1 0x20 ADD ADD MLOAD PUSH1 0xF8 SHR PUSH1 0xF8 SHL PUSH31 0xFFFFFFFFFFFFFFFFFFFFFFFFFFFFFFFFFFFFFFFFFFFFFFFFFFFFFFFFFFFFFF NOT AND EQ JUMPDEST DUP1 ISZERO PUSH2 0x1FCA JUMPI POP PUSH1 0x75 PUSH1 0xF8 SHL DUP5 PUSH1 0x6F DUP6 PUSH2 0x1F8A SWAP2 SWAP1 PUSH2 0x43DF JUMP JUMPDEST DUP2 MLOAD DUP2 LT PUSH2 0x1F9B JUMPI PUSH2 0x1F9A PUSH2 0x41B1 JUMP JUMPDEST JUMPDEST PUSH1 0x20 ADD ADD MLOAD PUSH1 0xF8 SHR PUSH1 0xF8 SHL PUSH31 0xFFFFFFFFFFFFFFFFFFFFFFFFFFFFFFFFFFFFFFFFFFFFFFFFFFFFFFFFFFFFFF NOT AND EQ JUMPDEST DUP1 ISZERO PUSH2 0x2024 JUMPI POP PUSH1 0x68 PUSH1 0xF8 SHL DUP5 PUSH1 0x70 DUP6 PUSH2 0x1FE4 SWAP2 SWAP1 PUSH2 0x43DF JUMP JUMPDEST DUP2 MLOAD DUP2 LT PUSH2 0x1FF5 JUMPI PUSH2 0x1FF4 PUSH2 0x41B1 JUMP JUMPDEST JUMPDEST PUSH1 0x20 ADD ADD MLOAD PUSH1 0xF8 SHR PUSH1 0xF8 SHL PUSH31 0xFFFFFFFFFFFFFFFFFFFFFFFFFFFFFFFFFFFFFFFFFFFFFFFFFFFFFFFFFFFFFF NOT AND EQ JUMPDEST DUP1 ISZERO PUSH2 0x207E JUMPI POP PUSH1 0x51 PUSH1 0xF8 SHL DUP5 PUSH1 0x71 DUP6 PUSH2 0x203E SWAP2 SWAP1 PUSH2 0x43DF JUMP JUMPDEST DUP2 MLOAD DUP2 LT PUSH2 0x204F JUMPI PUSH2 0x204E PUSH2 0x41B1 JUMP JUMPDEST JUMPDEST PUSH1 0x20 ADD ADD MLOAD PUSH1 0xF8 SHR PUSH1 0xF8 SHL PUSH31 0xFFFFFFFFFFFFFFFFFFFFFFFFFFFFFFFFFFFFFFFFFFFFFFFFFFFFFFFFFFFFFF NOT AND EQ JUMPDEST SWAP1 POP SWAP4 SWAP3 POP POP POP JUMP JUMPDEST PUSH2 0x211D DUP2 PUSH1 0x40 MLOAD PUSH1 0x24 ADD PUSH2 0x209B SWAP2 SWAP1 PUSH2 0x47E8 JUMP JUMPDEST PUSH1 0x40 MLOAD PUSH1 0x20 DUP2 DUP4 SUB SUB DUP2 MSTORE SWAP1 PUSH1 0x40 MSTORE PUSH32 0x41304FAC00000000000000000000000000000000000000000000000000000000 PUSH28 0xFFFFFFFFFFFFFFFFFFFFFFFFFFFFFFFFFFFFFFFFFFFFFFFFFFFFFFFF NOT AND PUSH1 0x20 DUP3 ADD DUP1 MLOAD PUSH28 0xFFFFFFFFFFFFFFFFFFFFFFFFFFFFFFFFFFFFFFFFFFFFFFFFFFFFFFFF DUP4 DUP2 DUP4 AND OR DUP4 MSTORE POP POP POP POP PUSH2 0x2954 JUMP JUMPDEST POP JUMP JUMPDEST PUSH1 0x0 PUSH1 0x19 DUP3 EQ DUP1 ISZERO PUSH2 0x2174 JUMPI POP PUSH1 0x76 PUSH1 0xF8 SHL DUP5 DUP5 DUP2 MLOAD DUP2 LT PUSH2 0x2145 JUMPI PUSH2 0x2144 PUSH2 0x41B1 JUMP JUMPDEST JUMPDEST PUSH1 0x20 ADD ADD MLOAD PUSH1 0xF8 SHR PUSH1 0xF8 SHL PUSH31 0xFFFFFFFFFFFFFFFFFFFFFFFFFFFFFFFFFFFFFFFFFFFFFFFFFFFFFFFFFFFFFF NOT AND EQ JUMPDEST DUP1 ISZERO PUSH2 0x21CE JUMPI POP PUSH1 0xA9 PUSH1 0xF8 SHL DUP5 PUSH1 0x1 DUP6 PUSH2 0x218E SWAP2 SWAP1 PUSH2 0x43DF JUMP JUMPDEST DUP2 MLOAD DUP2 LT PUSH2 0x219F JUMPI PUSH2 0x219E PUSH2 0x41B1 JUMP JUMPDEST JUMPDEST PUSH1 0x20 ADD ADD MLOAD PUSH1 0xF8 SHR PUSH1 0xF8 SHL PUSH31 0xFFFFFFFFFFFFFFFFFFFFFFFFFFFFFFFFFFFFFFFFFFFFFFFFFFFFFFFFFFFFFF NOT AND EQ JUMPDEST DUP1 ISZERO PUSH2 0x2228 JUMPI POP PUSH1 0x14 PUSH1 0xF8 SHL DUP5 PUSH1 0x2 DUP6 PUSH2 0x21E8 SWAP2 SWAP1 PUSH2 0x43DF JUMP JUMPDEST DUP2 MLOAD DUP2 LT PUSH2 0x21F9 JUMPI PUSH2 0x21F8 PUSH2 0x41B1 JUMP JUMPDEST JUMPDEST PUSH1 0x20 ADD ADD MLOAD PUSH1 0xF8 SHR PUSH1 0xF8 SHL PUSH31 0xFFFFFFFFFFFFFFFFFFFFFFFFFFFFFFFFFFFFFFFFFFFFFFFFFFFFFFFFFFFFFF NOT AND EQ JUMPDEST DUP1 ISZERO PUSH2 0x2282 JUMPI POP PUSH1 0x88 PUSH1 0xF8 SHL DUP5 PUSH1 0x17 DUP6 PUSH2 0x2242 SWAP2 SWAP1 PUSH2 0x43DF JUMP JUMPDEST DUP2 MLOAD DUP2 LT PUSH2 0x2253 JUMPI PUSH2 0x2252 PUSH2 0x41B1 JUMP JUMPDEST JUMPDEST PUSH1 0x20 ADD ADD MLOAD PUSH1 0xF8 SHR PUSH1 0xF8 SHL PUSH31 0xFFFFFFFFFFFFFFFFFFFFFFFFFFFFFFFFFFFFFFFFFFFFFFFFFFFFFFFFFFFFFF NOT AND EQ JUMPDEST DUP1 ISZERO PUSH2 0x22DC JUMPI POP PUSH1 0xAC PUSH1 0xF8 SHL DUP5 PUSH1 0x18 DUP6 PUSH2 0x229C SWAP2 SWAP1 PUSH2 0x43DF JUMP JUMPDEST DUP2 MLOAD DUP2 LT PUSH2 0x22AD JUMPI PUSH2 0x22AC PUSH2 0x41B1 JUMP JUMPDEST JUMPDEST PUSH1 0x20 ADD ADD MLOAD PUSH1 0xF8 SHR PUSH1 0xF8 SHL PUSH31 0xFFFFFFFFFFFFFFFFFFFFFFFFFFFFFFFFFFFFFFFFFFFFFFFFFFFFFFFFFFFFFF NOT AND EQ JUMPDEST SWAP1 POP SWAP4 SWAP3 POP POP POP JUMP JUMPDEST PUSH1 0x0 PUSH1 0x17 DUP3 EQ DUP1 ISZERO PUSH2 0x2345 JUMPI POP PUSH1 0xA9 PUSH1 0xF8 SHL DUP5 PUSH1 0x0 DUP6 PUSH2 0x2305 SWAP2 SWAP1 PUSH2 0x43DF JUMP JUMPDEST DUP2 MLOAD DUP2 LT PUSH2 0x2316 JUMPI PUSH2 0x2315 PUSH2 0x41B1 JUMP JUMPDEST JUMPDEST PUSH1 0x20 ADD ADD MLOAD PUSH1 0xF8 SHR PUSH1 0xF8 SHL PUSH31 0xFFFFFFFFFFFFFFFFFFFFFFFFFFFFFFFFFFFFFFFFFFFFFFFFFFFFFFFFFFFFFF NOT AND EQ JUMPDEST DUP1 ISZERO PUSH2 0x239F JUMPI POP PUSH1 0x14 PUSH1 0xF8 SHL DUP5 PUSH1 0x1 DUP6 PUSH2 0x235F SWAP2 SWAP1 PUSH2 0x43DF JUMP JUMPDEST DUP2 MLOAD DUP2 LT PUSH2 0x2370 JUMPI PUSH2 0x236F PUSH2 0x41B1 JUMP JUMPDEST JUMPDEST PUSH1 0x20 ADD ADD MLOAD PUSH1 0xF8 SHR PUSH1 0xF8 SHL PUSH31 0xFFFFFFFFFFFFFFFFFFFFFFFFFFFFFFFFFFFFFFFFFFFFFFFFFFFFFFFFFFFFFF NOT AND EQ JUMPDEST DUP1 ISZERO PUSH2 0x23F9 JUMPI POP PUSH1 0x87 PUSH1 0xF8 SHL DUP5 PUSH1 0x16 DUP6 PUSH2 0x23B9 SWAP2 SWAP1 PUSH2 0x43DF JUMP JUMPDEST DUP2 MLOAD DUP2 LT PUSH2 0x23CA JUMPI PUSH2 0x23C9 PUSH2 0x41B1 JUMP JUMPDEST JUMPDEST PUSH1 0x20 ADD ADD MLOAD PUSH1 0xF8 SHR PUSH1 0xF8 SHL PUSH31 0xFFFFFFFFFFFFFFFFFFFFFFFFFFFFFFFFFFFFFFFFFFFFFFFFFFFFFFFFFFFFFF NOT AND EQ JUMPDEST SWAP1 POP SWAP4 SWAP3 POP POP POP JUMP JUMPDEST PUSH1 0x0 PUSH1 0x22 DUP3 EQ DUP1 ISZERO PUSH2 0x2462 JUMPI POP PUSH1 0x6A PUSH1 0xF8 SHL DUP5 PUSH1 0x0 DUP6 PUSH2 0x2422 SWAP2 SWAP1 PUSH2 0x43DF JUMP JUMPDEST DUP2 MLOAD DUP2 LT PUSH2 0x2433 JUMPI PUSH2 0x2432 PUSH2 0x41B1 JUMP JUMPDEST JUMPDEST PUSH1 0x20 ADD ADD MLOAD PUSH1 0xF8 SHR PUSH1 0xF8 SHL PUSH31 0xFFFFFFFFFFFFFFFFFFFFFFFFFFFFFFFFFFFFFFFFFFFFFFFFFFFFFFFFFFFFFF NOT AND EQ JUMPDEST DUP1 ISZERO PUSH2 0x24BC JUMPI POP PUSH1 0x20 PUSH1 0xF8 SHL DUP5 PUSH1 0x1 DUP6 PUSH2 0x247C SWAP2 SWAP1 PUSH2 0x43DF JUMP JUMPDEST DUP2 MLOAD DUP2 LT PUSH2 0x248D JUMPI PUSH2 0x248C PUSH2 0x41B1 JUMP JUMPDEST JUMPDEST PUSH1 0x20 ADD ADD MLOAD PUSH1 0xF8 SHR PUSH1 0xF8 SHL PUSH31 0xFFFFFFFFFFFFFFFFFFFFFFFFFFFFFFFFFFFFFFFFFFFFFFFFFFFFFFFFFFFFFF NOT AND EQ JUMPDEST SWAP1 POP SWAP4 SWAP3 POP POP POP JUMP JUMPDEST PUSH1 0x0 DUP1 DUP3 SWAP1 POP PUSH1 0x0 DUP2 MLOAD SUB PUSH2 0x24E0 JUMPI PUSH1 0x0 DUP1 SHL SWAP2 POP POP PUSH2 0x24E9 JUMP JUMPDEST PUSH1 0x20 DUP4 ADD MLOAD SWAP2 POP POP JUMPDEST SWAP2 SWAP1 POP JUMP JUMPDEST PUSH1 0x0 DUP1 DUP4 EQ ISZERO DUP1 ISZERO PUSH2 0x2500 JUMPI POP DUP2 DUP4 EQ ISZERO JUMPDEST DUP1 ISZERO PUSH2 0x250D JUMPI POP PUSH1 0x0 DUP3 EQ ISZERO JUMPDEST PUSH2 0x254C JUMPI PUSH1 0x40 MLOAD PUSH32 0x8C379A000000000000000000000000000000000000000000000000000000000 DUP2 MSTORE PUSH1 0x4 ADD PUSH2 0x2543 SWAP1 PUSH2 0x4856 JUMP JUMPDEST PUSH1 0x40 MLOAD DUP1 SWAP2 SUB SWAP1 REVERT JUMPDEST PUSH1 0x0 DUP1 PUSH1 0x1 SWAP1 POP PUSH1 0x0 DUP5 SWAP1 POP PUSH1 0x0 JUMPDEST PUSH1 0x0 DUP8 EQ PUSH2 0x25CD JUMPI DUP7 DUP3 PUSH2 0x256F SWAP2 SWAP1 PUSH2 0x468A JUMP JUMPDEST SWAP1 POP DUP3 DUP7 DUP1 PUSH2 0x2581 JUMPI PUSH2 0x2580 PUSH2 0x4619 JUMP JUMPDEST JUMPDEST DUP8 DUP1 PUSH2 0x2590 JUMPI PUSH2 0x258F PUSH2 0x4619 JUMP JUMPDEST JUMPDEST DUP6 DUP5 MULMOD DUP9 PUSH2 0x259E SWAP2 SWAP1 PUSH2 0x40E4 JUMP JUMPDEST DUP7 ADDMOD DUP1 SWAP5 POP DUP2 SWAP6 POP POP POP DUP7 DUP8 DUP3 PUSH2 0x25B5 SWAP2 SWAP1 PUSH2 0x4648 JUMP JUMPDEST DUP4 PUSH2 0x25C0 SWAP2 SWAP1 PUSH2 0x40E4 JUMP JUMPDEST DUP1 SWAP9 POP DUP2 SWAP4 POP POP POP PUSH2 0x255B JUMP JUMPDEST DUP4 SWAP5 POP POP POP POP POP SWAP3 SWAP2 POP POP JUMP JUMPDEST PUSH1 0x0 DUP1 DUP4 SUB PUSH2 0x25EC JUMPI PUSH1 0x0 SWAP1 POP PUSH2 0x2788 JUMP JUMPDEST PUSH1 0x0 DUP3 SUB PUSH2 0x25FD JUMPI PUSH1 0x1 SWAP1 POP PUSH2 0x2788 JUMP JUMPDEST PUSH1 0x0 PUSH1 0x1 SWAP1 POP PUSH1 0x0 PUSH32 0x8000000000000000000000000000000000000000000000000000000000000000 SWAP1 POP JUMPDEST PUSH1 0x0 DUP2 GT ISZERO PUSH2 0x2782 JUMPI PUSH32 0xFFFFFFFFFFFFFFFFFFFFFFFFFFFFFFFFFFFFFFFFFFFFFFFFFFFFFFFEFFFFFC2F DUP2 DUP6 AND ISZERO ISZERO DUP7 EXP PUSH32 0xFFFFFFFFFFFFFFFFFFFFFFFFFFFFFFFFFFFFFFFFFFFFFFFFFFFFFFFEFFFFFC2F DUP5 DUP6 MULMOD MULMOD SWAP2 POP PUSH32 0xFFFFFFFFFFFFFFFFFFFFFFFFFFFFFFFFFFFFFFFFFFFFFFFFFFFFFFFEFFFFFC2F PUSH1 0x2 DUP3 DIV DUP6 AND ISZERO ISZERO DUP7 EXP PUSH32 0xFFFFFFFFFFFFFFFFFFFFFFFFFFFFFFFFFFFFFFFFFFFFFFFFFFFFFFFEFFFFFC2F DUP5 DUP6 MULMOD MULMOD SWAP2 POP PUSH32 0xFFFFFFFFFFFFFFFFFFFFFFFFFFFFFFFFFFFFFFFFFFFFFFFFFFFFFFFEFFFFFC2F PUSH1 0x4 DUP3 DIV DUP6 AND ISZERO ISZERO DUP7 EXP PUSH32 0xFFFFFFFFFFFFFFFFFFFFFFFFFFFFFFFFFFFFFFFFFFFFFFFFFFFFFFFEFFFFFC2F DUP5 DUP6 MULMOD MULMOD SWAP2 POP PUSH32 0xFFFFFFFFFFFFFFFFFFFFFFFFFFFFFFFFFFFFFFFFFFFFFFFFFFFFFFFEFFFFFC2F PUSH1 0x8 DUP3 DIV DUP6 AND ISZERO ISZERO DUP7 EXP PUSH32 0xFFFFFFFFFFFFFFFFFFFFFFFFFFFFFFFFFFFFFFFFFFFFFFFFFFFFFFFEFFFFFC2F DUP5 DUP6 MULMOD MULMOD SWAP2 POP PUSH1 0x10 DUP2 DIV SWAP1 POP PUSH2 0x2629 JUMP JUMPDEST DUP2 SWAP3 POP POP POP JUMPDEST SWAP3 SWAP2 POP POP JUMP JUMPDEST PUSH1 0x0 DUP1 PUSH1 0x0 DUP1 DUP8 SUB PUSH2 0x27A8 JUMPI DUP6 DUP6 DUP6 SWAP3 POP SWAP3 POP SWAP3 POP PUSH2 0x281E JUMP JUMPDEST PUSH1 0x0 DUP8 SWAP1 POP PUSH1 0x0 DUP1 PUSH1 0x0 PUSH1 0x1 SWAP1 POP JUMPDEST PUSH1 0x0 DUP5 EQ PUSH2 0x2810 JUMPI PUSH1 0x0 PUSH1 0x1 DUP6 AND EQ PUSH2 0x27E5 JUMPI PUSH2 0x27D8 DUP4 DUP4 DUP4 DUP14 DUP14 DUP14 PUSH2 0x296E JUMP JUMPDEST DUP1 SWAP4 POP DUP2 SWAP5 POP DUP3 SWAP6 POP POP POP POP JUMPDEST PUSH1 0x2 DUP5 PUSH2 0x27F2 SWAP2 SWAP1 PUSH2 0x468A JUMP JUMPDEST SWAP4 POP PUSH2 0x27FF DUP11 DUP11 DUP11 PUSH2 0x33AC JUMP JUMPDEST DUP1 SWAP11 POP DUP2 SWAP12 POP DUP3 SWAP13 POP POP POP POP PUSH2 0x27B7 JUMP JUMPDEST DUP3 DUP3 DUP3 SWAP7 POP SWAP7 POP SWAP7 POP POP POP POP POP JUMPDEST SWAP5 POP SWAP5 POP SWAP5 SWAP2 POP POP JUMP JUMPDEST PUSH1 0x0 DUP1 PUSH1 0x0 DUP1 PUSH1 0x0 DUP8 DUP12 SUB PUSH2 0x289B JUMPI PUSH1 0x0 PUSH32 0xFFFFFFFFFFFFFFFFFFFFFFFFFFFFFFFFFFFFFFFFFFFFFFFFFFFFFFFEFFFFFC2F DUP1 PUSH2 0x2868 JUMPI PUSH2 0x2867 PUSH2 0x4619 JUMP JUMPDEST JUMPDEST DUP9 DUP13 ADDMOD SUB PUSH2 0x287F JUMPI PUSH1 0x0 DUP1 SWAP5 POP SWAP5 POP POP POP POP PUSH2 0x28C9 JUMP JUMPDEST PUSH2 0x288A DUP12 DUP12 DUP12 PUSH2 0x33AC JUMP JUMPDEST DUP1 SWAP4 POP DUP2 SWAP5 POP DUP3 SWAP6 POP POP POP POP PUSH2 0x28B6 JUMP JUMPDEST PUSH2 0x28A9 DUP12 DUP12 DUP12 DUP12 DUP12 DUP12 PUSH2 0x296E JUMP JUMPDEST DUP1 SWAP4 POP DUP2 SWAP5 POP DUP3 SWAP6 POP POP POP POP JUMPDEST PUSH2 0x28C1 DUP4 DUP4 DUP4 PUSH2 0x3829 JUMP JUMPDEST SWAP5 POP SWAP5 POP POP POP POP JUMPDEST SWAP7 POP SWAP7 SWAP5 POP POP POP POP POP JUMP JUMPDEST PUSH1 0x60 PUSH32 0x7FFFFFFFFFFFFFFFFFFFFFFFFFFFFFFFFFFFFFFFFFFFFFFFFFFFFFFFFFFFFFFF DUP3 GT ISZERO PUSH2 0x2939 JUMPI PUSH1 0x40 MLOAD PUSH32 0x8C379A000000000000000000000000000000000000000000000000000000000 DUP2 MSTORE PUSH1 0x4 ADD PUSH2 0x2930 SWAP1 PUSH2 0x48C2 JUMP JUMPDEST PUSH1 0x40 MLOAD DUP1 SWAP2 SUB SWAP1 REVERT JUMPDEST PUSH1 0x40 MLOAD SWAP1 POP PUSH1 0x20 DUP2 MSTORE DUP2 PUSH1 0x20 DUP3 ADD MSTORE PUSH1 0x40 DUP2 ADD PUSH1 0x40 MSTORE SWAP2 SWAP1 POP JUMP JUMPDEST PUSH2 0x296B DUP2 PUSH2 0x2963 PUSH2 0x393F PUSH2 0x3960 JUMP JUMPDEST PUSH4 0xFFFFFFFF AND JUMP JUMPDEST POP JUMP JUMPDEST PUSH1 0x0 DUP1 PUSH1 0x0 DUP1 DUP10 EQ DUP1 ISZERO PUSH2 0x2982 JUMPI POP PUSH1 0x0 DUP9 EQ JUMPDEST ISZERO PUSH2 0x2995 JUMPI DUP6 DUP6 DUP6 SWAP3 POP SWAP3 POP SWAP3 POP PUSH2 0x33A0 JUMP JUMPDEST PUSH1 0x0 DUP7 EQ DUP1 ISZERO PUSH2 0x29A5 JUMPI POP PUSH1 0x0 DUP6 EQ JUMPDEST ISZERO PUSH2 0x29B8 JUMPI DUP9 DUP9 DUP9 SWAP3 POP SWAP3 POP SWAP3 POP PUSH2 0x33A0 JUMP JUMPDEST PUSH2 0x29C0 PUSH2 0x3A78 JUMP JUMPDEST PUSH32 0xFFFFFFFFFFFFFFFFFFFFFFFFFFFFFFFFFFFFFFFFFFFFFFFFFFFFFFFEFFFFFC2F DUP1 PUSH2 0x29EF JUMPI PUSH2 0x29EE PUSH2 0x4619 JUMP JUMPDEST JUMPDEST DUP9 DUP10 MULMOD DUP2 PUSH1 0x0 PUSH1 0x4 DUP2 LT PUSH2 0x2A06 JUMPI PUSH2 0x2A05 PUSH2 0x41B1 JUMP JUMPDEST JUMPDEST PUSH1 0x20 MUL ADD DUP2 DUP2 MSTORE POP POP PUSH32 0xFFFFFFFFFFFFFFFFFFFFFFFFFFFFFFFFFFFFFFFFFFFFFFFFFFFFFFFEFFFFFC2F DUP1 PUSH2 0x2A3E JUMPI PUSH2 0x2A3D PUSH2 0x4619 JUMP JUMPDEST JUMPDEST DUP2 PUSH1 0x0 PUSH1 0x4 DUP2 LT PUSH2 0x2A52 JUMPI PUSH2 0x2A51 PUSH2 0x41B1 JUMP JUMPDEST JUMPDEST PUSH1 0x20 MUL ADD MLOAD DUP10 MULMOD DUP2 PUSH1 0x1 PUSH1 0x4 DUP2 LT PUSH2 0x2A6D JUMPI PUSH2 0x2A6C PUSH2 0x41B1 JUMP JUMPDEST JUMPDEST PUSH1 0x20 MUL ADD DUP2 DUP2 MSTORE POP POP PUSH32 0xFFFFFFFFFFFFFFFFFFFFFFFFFFFFFFFFFFFFFFFFFFFFFFFFFFFFFFFEFFFFFC2F DUP1 PUSH2 0x2AA5 JUMPI PUSH2 0x2AA4 PUSH2 0x4619 JUMP JUMPDEST JUMPDEST DUP6 DUP7 MULMOD DUP2 PUSH1 0x2 PUSH1 0x4 DUP2 LT PUSH2 0x2ABC JUMPI PUSH2 0x2ABB PUSH2 0x41B1 JUMP JUMPDEST JUMPDEST PUSH1 0x20 MUL ADD DUP2 DUP2 MSTORE POP POP PUSH32 0xFFFFFFFFFFFFFFFFFFFFFFFFFFFFFFFFFFFFFFFFFFFFFFFFFFFFFFFEFFFFFC2F DUP1 PUSH2 0x2AF4 JUMPI PUSH2 0x2AF3 PUSH2 0x4619 JUMP JUMPDEST JUMPDEST DUP2 PUSH1 0x2 PUSH1 0x4 DUP2 LT PUSH2 0x2B08 JUMPI PUSH2 0x2B07 PUSH2 0x41B1 JUMP JUMPDEST JUMPDEST PUSH1 0x20 MUL ADD MLOAD DUP7 MULMOD DUP2 PUSH1 0x3 PUSH1 0x4 DUP2 LT PUSH2 0x2B23 JUMPI PUSH2 0x2B22 PUSH2 0x41B1 JUMP JUMPDEST JUMPDEST PUSH1 0x20 MUL ADD DUP2 DUP2 MSTORE POP POP PUSH1 0x40 MLOAD DUP1 PUSH1 0x80 ADD PUSH1 0x40 MSTORE DUP1 PUSH32 0xFFFFFFFFFFFFFFFFFFFFFFFFFFFFFFFFFFFFFFFFFFFFFFFFFFFFFFFEFFFFFC2F DUP1 PUSH2 0x2B66 JUMPI PUSH2 0x2B65 PUSH2 0x4619 JUMP JUMPDEST JUMPDEST DUP4 PUSH1 0x2 PUSH1 0x4 DUP2 LT PUSH2 0x2B7A JUMPI PUSH2 0x2B79 PUSH2 0x41B1 JUMP JUMPDEST JUMPDEST PUSH1 0x20 MUL ADD MLOAD DUP14 MULMOD DUP2 MSTORE PUSH1 0x20 ADD PUSH32 0xFFFFFFFFFFFFFFFFFFFFFFFFFFFFFFFFFFFFFFFFFFFFFFFFFFFFFFFEFFFFFC2F DUP1 PUSH2 0x2BB5 JUMPI PUSH2 0x2BB4 PUSH2 0x4619 JUMP JUMPDEST JUMPDEST DUP4 PUSH1 0x3 PUSH1 0x4 DUP2 LT PUSH2 0x2BC9 JUMPI PUSH2 0x2BC8 PUSH2 0x41B1 JUMP JUMPDEST JUMPDEST PUSH1 0x20 MUL ADD MLOAD DUP13 MULMOD DUP2 MSTORE PUSH1 0x20 ADD PUSH32 0xFFFFFFFFFFFFFFFFFFFFFFFFFFFFFFFFFFFFFFFFFFFFFFFFFFFFFFFEFFFFFC2F DUP1 PUSH2 0x2C04 JUMPI PUSH2 0x2C03 PUSH2 0x4619 JUMP JUMPDEST JUMPDEST DUP4 PUSH1 0x0 PUSH1 0x4 DUP2 LT PUSH2 0x2C18 JUMPI PUSH2 0x2C17 PUSH2 0x41B1 JUMP JUMPDEST JUMPDEST PUSH1 0x20 MUL ADD MLOAD DUP11 MULMOD DUP2 MSTORE PUSH1 0x20 ADD PUSH32 0xFFFFFFFFFFFFFFFFFFFFFFFFFFFFFFFFFFFFFFFFFFFFFFFFFFFFFFFEFFFFFC2F DUP1 PUSH2 0x2C53 JUMPI PUSH2 0x2C52 PUSH2 0x4619 JUMP JUMPDEST JUMPDEST DUP4 PUSH1 0x1 PUSH1 0x4 DUP2 LT PUSH2 0x2C67 JUMPI PUSH2 0x2C66 PUSH2 0x41B1 JUMP JUMPDEST JUMPDEST PUSH1 0x20 MUL ADD MLOAD DUP10 MULMOD DUP2 MSTORE POP SWAP1 POP DUP1 PUSH1 0x2 PUSH1 0x4 DUP2 LT PUSH2 0x2C87 JUMPI PUSH2 0x2C86 PUSH2 0x41B1 JUMP JUMPDEST JUMPDEST PUSH1 0x20 MUL ADD MLOAD DUP2 PUSH1 0x0 PUSH1 0x4 DUP2 LT PUSH2 0x2CA0 JUMPI PUSH2 0x2C9F PUSH2 0x41B1 JUMP JUMPDEST JUMPDEST PUSH1 0x20 MUL ADD MLOAD EQ ISZERO DUP1 PUSH2 0x2CE2 JUMPI POP DUP1 PUSH1 0x3 PUSH1 0x4 DUP2 LT PUSH2 0x2CC1 JUMPI PUSH2 0x2CC0 PUSH2 0x41B1 JUMP JUMPDEST JUMPDEST PUSH1 0x20 MUL ADD MLOAD DUP2 PUSH1 0x1 PUSH1 0x4 DUP2 LT PUSH2 0x2CDA JUMPI PUSH2 0x2CD9 PUSH2 0x41B1 JUMP JUMPDEST JUMPDEST PUSH1 0x20 MUL ADD MLOAD EQ ISZERO JUMPDEST PUSH2 0x2D21 JUMPI PUSH1 0x40 MLOAD PUSH32 0x8C379A000000000000000000000000000000000000000000000000000000000 DUP2 MSTORE PUSH1 0x4 ADD PUSH2 0x2D18 SWAP1 PUSH2 0x492E JUMP JUMPDEST PUSH1 0x40 MLOAD DUP1 SWAP2 SUB SWAP1 REVERT JUMPDEST PUSH2 0x2D29 PUSH2 0x3A78 JUMP JUMPDEST PUSH32 0xFFFFFFFFFFFFFFFFFFFFFFFFFFFFFFFFFFFFFFFFFFFFFFFFFFFFFFFEFFFFFC2F DUP1 PUSH2 0x2D58 JUMPI PUSH2 0x2D57 PUSH2 0x4619 JUMP JUMPDEST JUMPDEST DUP3 PUSH1 0x0 PUSH1 0x4 DUP2 LT PUSH2 0x2D6C JUMPI PUSH2 0x2D6B PUSH2 0x41B1 JUMP JUMPDEST JUMPDEST PUSH1 0x20 MUL ADD MLOAD PUSH32 0xFFFFFFFFFFFFFFFFFFFFFFFFFFFFFFFFFFFFFFFFFFFFFFFFFFFFFFFEFFFFFC2F PUSH2 0x2D9C SWAP2 SWAP1 PUSH2 0x40E4 JUMP JUMPDEST DUP4 PUSH1 0x2 PUSH1 0x4 DUP2 LT PUSH2 0x2DB0 JUMPI PUSH2 0x2DAF PUSH2 0x41B1 JUMP JUMPDEST JUMPDEST PUSH1 0x20 MUL ADD MLOAD ADDMOD DUP2 PUSH1 0x0 PUSH1 0x4 DUP2 LT PUSH2 0x2DCA JUMPI PUSH2 0x2DC9 PUSH2 0x41B1 JUMP JUMPDEST JUMPDEST PUSH1 0x20 MUL ADD DUP2 DUP2 MSTORE POP POP PUSH32 0xFFFFFFFFFFFFFFFFFFFFFFFFFFFFFFFFFFFFFFFFFFFFFFFFFFFFFFFEFFFFFC2F DUP1 PUSH2 0x2E02 JUMPI PUSH2 0x2E01 PUSH2 0x4619 JUMP JUMPDEST JUMPDEST DUP3 PUSH1 0x1 PUSH1 0x4 DUP2 LT PUSH2 0x2E16 JUMPI PUSH2 0x2E15 PUSH2 0x41B1 JUMP JUMPDEST JUMPDEST PUSH1 0x20 MUL ADD MLOAD PUSH32 0xFFFFFFFFFFFFFFFFFFFFFFFFFFFFFFFFFFFFFFFFFFFFFFFFFFFFFFFEFFFFFC2F PUSH2 0x2E46 SWAP2 SWAP1 PUSH2 0x40E4 JUMP JUMPDEST DUP4 PUSH1 0x3 PUSH1 0x4 DUP2 LT PUSH2 0x2E5A JUMPI PUSH2 0x2E59 PUSH2 0x41B1 JUMP JUMPDEST JUMPDEST PUSH1 0x20 MUL ADD MLOAD ADDMOD DUP2 PUSH1 0x1 PUSH1 0x4 DUP2 LT PUSH2 0x2E74 JUMPI PUSH2 0x2E73 PUSH2 0x41B1 JUMP JUMPDEST JUMPDEST PUSH1 0x20 MUL ADD DUP2 DUP2 MSTORE POP POP PUSH32 0xFFFFFFFFFFFFFFFFFFFFFFFFFFFFFFFFFFFFFFFFFFFFFFFFFFFFFFFEFFFFFC2F DUP1 PUSH2 0x2EAC JUMPI PUSH2 0x2EAB PUSH2 0x4619 JUMP JUMPDEST JUMPDEST DUP2 PUSH1 0x0 PUSH1 0x4 DUP2 LT PUSH2 0x2EC0 JUMPI PUSH2 0x2EBF PUSH2 0x41B1 JUMP JUMPDEST JUMPDEST PUSH1 0x20 MUL ADD MLOAD DUP3 PUSH1 0x0 PUSH1 0x4 DUP2 LT PUSH2 0x2ED9 JUMPI PUSH2 0x2ED8 PUSH2 0x41B1 JUMP JUMPDEST JUMPDEST PUSH1 0x20 MUL ADD MLOAD MULMOD DUP2 PUSH1 0x2 PUSH1 0x4 DUP2 LT PUSH2 0x2EF3 JUMPI PUSH2 0x2EF2 PUSH2 0x41B1 JUMP JUMPDEST JUMPDEST PUSH1 0x20 MUL ADD DUP2 DUP2 MSTORE POP POP PUSH32 0xFFFFFFFFFFFFFFFFFFFFFFFFFFFFFFFFFFFFFFFFFFFFFFFFFFFFFFFEFFFFFC2F DUP1 PUSH2 0x2F2B JUMPI PUSH2 0x2F2A PUSH2 0x4619 JUMP JUMPDEST JUMPDEST DUP2 PUSH1 0x0 PUSH1 0x4 DUP2 LT PUSH2 0x2F3F JUMPI PUSH2 0x2F3E PUSH2 0x41B1 JUMP JUMPDEST JUMPDEST PUSH1 0x20 MUL ADD MLOAD DUP3 PUSH1 0x2 PUSH1 0x4 DUP2 LT PUSH2 0x2F58 JUMPI PUSH2 0x2F57 PUSH2 0x41B1 JUMP JUMPDEST JUMPDEST PUSH1 0x20 MUL ADD MLOAD MULMOD DUP2 PUSH1 0x3 PUSH1 0x4 DUP2 LT PUSH2 0x2F72 JUMPI PUSH2 0x2F71 PUSH2 0x41B1 JUMP JUMPDEST JUMPDEST PUSH1 0x20 MUL ADD DUP2 DUP2 MSTORE POP POP PUSH1 0x0 PUSH32 0xFFFFFFFFFFFFFFFFFFFFFFFFFFFFFFFFFFFFFFFFFFFFFFFFFFFFFFFEFFFFFC2F DUP1 PUSH2 0x2FAC JUMPI PUSH2 0x2FAB PUSH2 0x4619 JUMP JUMPDEST JUMPDEST DUP3 PUSH1 0x3 PUSH1 0x4 DUP2 LT PUSH2 0x2FC0 JUMPI PUSH2 0x2FBF PUSH2 0x41B1 JUMP JUMPDEST JUMPDEST PUSH1 0x20 MUL ADD MLOAD PUSH32 0xFFFFFFFFFFFFFFFFFFFFFFFFFFFFFFFFFFFFFFFFFFFFFFFFFFFFFFFEFFFFFC2F PUSH2 0x2FF0 SWAP2 SWAP1 PUSH2 0x40E4 JUMP JUMPDEST PUSH32 0xFFFFFFFFFFFFFFFFFFFFFFFFFFFFFFFFFFFFFFFFFFFFFFFFFFFFFFFEFFFFFC2F DUP1 PUSH2 0x301F JUMPI PUSH2 0x301E PUSH2 0x4619 JUMP JUMPDEST JUMPDEST DUP5 PUSH1 0x1 PUSH1 0x4 DUP2 LT PUSH2 0x3033 JUMPI PUSH2 0x3032 PUSH2 0x41B1 JUMP JUMPDEST JUMPDEST PUSH1 0x20 MUL ADD MLOAD DUP6 PUSH1 0x1 PUSH1 0x4 DUP2 LT PUSH2 0x304C JUMPI PUSH2 0x304B PUSH2 0x41B1 JUMP JUMPDEST JUMPDEST PUSH1 0x20 MUL ADD MLOAD MULMOD ADDMOD SWAP1 POP PUSH32 0xFFFFFFFFFFFFFFFFFFFFFFFFFFFFFFFFFFFFFFFFFFFFFFFFFFFFFFFEFFFFFC2F DUP1 PUSH2 0x3084 JUMPI PUSH2 0x3083 PUSH2 0x4619 JUMP JUMPDEST JUMPDEST PUSH32 0xFFFFFFFFFFFFFFFFFFFFFFFFFFFFFFFFFFFFFFFFFFFFFFFFFFFFFFFEFFFFFC2F DUP1 PUSH2 0x30B3 JUMPI PUSH2 0x30B2 PUSH2 0x4619 JUMP JUMPDEST JUMPDEST PUSH32 0xFFFFFFFFFFFFFFFFFFFFFFFFFFFFFFFFFFFFFFFFFFFFFFFFFFFFFFFEFFFFFC2F DUP1 PUSH2 0x30E2 JUMPI PUSH2 0x30E1 PUSH2 0x4619 JUMP JUMPDEST JUMPDEST DUP5 PUSH1 0x2 PUSH1 0x4 DUP2 LT PUSH2 0x30F6 JUMPI PUSH2 0x30F5 PUSH2 0x41B1 JUMP JUMPDEST JUMPDEST PUSH1 0x20 MUL ADD MLOAD DUP7 PUSH1 0x0 PUSH1 0x4 DUP2 LT PUSH2 0x310F JUMPI PUSH2 0x310E PUSH2 0x41B1 JUMP JUMPDEST JUMPDEST PUSH1 0x20 MUL ADD MLOAD MULMOD PUSH1 0x2 MULMOD PUSH32 0xFFFFFFFFFFFFFFFFFFFFFFFFFFFFFFFFFFFFFFFFFFFFFFFFFFFFFFFEFFFFFC2F PUSH2 0x3143 SWAP2 SWAP1 PUSH2 0x40E4 JUMP JUMPDEST DUP3 ADDMOD SWAP1 POP PUSH1 0x0 PUSH32 0xFFFFFFFFFFFFFFFFFFFFFFFFFFFFFFFFFFFFFFFFFFFFFFFFFFFFFFFEFFFFFC2F DUP1 PUSH2 0x3178 JUMPI PUSH2 0x3177 PUSH2 0x4619 JUMP JUMPDEST JUMPDEST PUSH32 0xFFFFFFFFFFFFFFFFFFFFFFFFFFFFFFFFFFFFFFFFFFFFFFFFFFFFFFFEFFFFFC2F DUP1 PUSH2 0x31A7 JUMPI PUSH2 0x31A6 PUSH2 0x4619 JUMP JUMPDEST JUMPDEST DUP4 PUSH32 0xFFFFFFFFFFFFFFFFFFFFFFFFFFFFFFFFFFFFFFFFFFFFFFFFFFFFFFFEFFFFFC2F PUSH2 0x31D3 SWAP2 SWAP1 PUSH2 0x40E4 JUMP JUMPDEST PUSH32 0xFFFFFFFFFFFFFFFFFFFFFFFFFFFFFFFFFFFFFFFFFFFFFFFFFFFFFFFEFFFFFC2F DUP1 PUSH2 0x3202 JUMPI PUSH2 0x3201 PUSH2 0x4619 JUMP JUMPDEST JUMPDEST DUP7 PUSH1 0x2 PUSH1 0x4 DUP2 LT PUSH2 0x3216 JUMPI PUSH2 0x3215 PUSH2 0x41B1 JUMP JUMPDEST JUMPDEST PUSH1 0x20 MUL ADD MLOAD DUP9 PUSH1 0x0 PUSH1 0x4 DUP2 LT PUSH2 0x322F JUMPI PUSH2 0x322E PUSH2 0x41B1 JUMP JUMPDEST JUMPDEST PUSH1 0x20 MUL ADD MLOAD MULMOD ADDMOD DUP5 PUSH1 0x1 PUSH1 0x4 DUP2 LT PUSH2 0x324A JUMPI PUSH2 0x3249 PUSH2 0x41B1 JUMP JUMPDEST JUMPDEST PUSH1 0x20 MUL ADD MLOAD MULMOD SWAP1 POP PUSH32 0xFFFFFFFFFFFFFFFFFFFFFFFFFFFFFFFFFFFFFFFFFFFFFFFFFFFFFFFEFFFFFC2F DUP1 PUSH2 0x3281 JUMPI PUSH2 0x3280 PUSH2 0x4619 JUMP JUMPDEST JUMPDEST PUSH32 0xFFFFFFFFFFFFFFFFFFFFFFFFFFFFFFFFFFFFFFFFFFFFFFFFFFFFFFFEFFFFFC2F DUP1 PUSH2 0x32B0 JUMPI PUSH2 0x32AF PUSH2 0x4619 JUMP JUMPDEST JUMPDEST DUP5 PUSH1 0x3 PUSH1 0x4 DUP2 LT PUSH2 0x32C4 JUMPI PUSH2 0x32C3 PUSH2 0x41B1 JUMP JUMPDEST JUMPDEST PUSH1 0x20 MUL ADD MLOAD DUP7 PUSH1 0x1 PUSH1 0x4 DUP2 LT PUSH2 0x32DD JUMPI PUSH2 0x32DC PUSH2 0x41B1 JUMP JUMPDEST JUMPDEST PUSH1 0x20 MUL ADD MLOAD MULMOD PUSH32 0xFFFFFFFFFFFFFFFFFFFFFFFFFFFFFFFFFFFFFFFFFFFFFFFFFFFFFFFEFFFFFC2F PUSH2 0x330E SWAP2 SWAP1 PUSH2 0x40E4 JUMP JUMPDEST DUP3 ADDMOD SWAP1 POP PUSH1 0x0 PUSH32 0xFFFFFFFFFFFFFFFFFFFFFFFFFFFFFFFFFFFFFFFFFFFFFFFFFFFFFFFEFFFFFC2F DUP1 PUSH2 0x3343 JUMPI PUSH2 0x3342 PUSH2 0x4619 JUMP JUMPDEST JUMPDEST PUSH32 0xFFFFFFFFFFFFFFFFFFFFFFFFFFFFFFFFFFFFFFFFFFFFFFFFFFFFFFFEFFFFFC2F DUP1 PUSH2 0x3372 JUMPI PUSH2 0x3371 PUSH2 0x4619 JUMP JUMPDEST JUMPDEST DUP11 DUP15 MULMOD DUP6 PUSH1 0x0 PUSH1 0x4 DUP2 LT PUSH2 0x3389 JUMPI PUSH2 0x3388 PUSH2 0x41B1 JUMP JUMPDEST JUMPDEST PUSH1 0x20 MUL ADD MLOAD MULMOD SWAP1 POP DUP3 DUP3 DUP3 SWAP8 POP SWAP8 POP SWAP8 POP POP POP POP POP POP JUMPDEST SWAP7 POP SWAP7 POP SWAP7 SWAP4 POP POP POP POP JUMP JUMPDEST PUSH1 0x0 DUP1 PUSH1 0x0 DUP1 DUP5 SUB PUSH2 0x33C6 JUMPI DUP6 DUP6 DUP6 SWAP3 POP SWAP3 POP SWAP3 POP PUSH2 0x3820 JUMP JUMPDEST PUSH1 0x0 PUSH32 0xFFFFFFFFFFFFFFFFFFFFFFFFFFFFFFFFFFFFFFFFFFFFFFFFFFFFFFFEFFFFFC2F DUP1 PUSH2 0x33F7 JUMPI PUSH2 0x33F6 PUSH2 0x4619 JUMP JUMPDEST JUMPDEST DUP8 DUP9 MULMOD SWAP1 POP PUSH1 0x0 PUSH32 0xFFFFFFFFFFFFFFFFFFFFFFFFFFFFFFFFFFFFFFFFFFFFFFFFFFFFFFFEFFFFFC2F DUP1 PUSH2 0x342D JUMPI PUSH2 0x342C PUSH2 0x4619 JUMP JUMPDEST JUMPDEST DUP8 DUP9 MULMOD SWAP1 POP PUSH1 0x0 PUSH32 0xFFFFFFFFFFFFFFFFFFFFFFFFFFFFFFFFFFFFFFFFFFFFFFFFFFFFFFFEFFFFFC2F DUP1 PUSH2 0x3463 JUMPI PUSH2 0x3462 PUSH2 0x4619 JUMP JUMPDEST JUMPDEST DUP8 DUP9 MULMOD SWAP1 POP PUSH1 0x0 PUSH32 0xFFFFFFFFFFFFFFFFFFFFFFFFFFFFFFFFFFFFFFFFFFFFFFFFFFFFFFFEFFFFFC2F DUP1 PUSH2 0x3499 JUMPI PUSH2 0x3498 PUSH2 0x4619 JUMP JUMPDEST JUMPDEST PUSH32 0xFFFFFFFFFFFFFFFFFFFFFFFFFFFFFFFFFFFFFFFFFFFFFFFFFFFFFFFEFFFFFC2F DUP1 PUSH2 0x34C8 JUMPI PUSH2 0x34C7 PUSH2 0x4619 JUMP JUMPDEST JUMPDEST DUP5 DUP13 MULMOD PUSH1 0x4 MULMOD SWAP1 POP PUSH1 0x0 PUSH32 0xFFFFFFFFFFFFFFFFFFFFFFFFFFFFFFFFFFFFFFFFFFFFFFFFFFFFFFFEFFFFFC2F DUP1 PUSH2 0x3501 JUMPI PUSH2 0x3500 PUSH2 0x4619 JUMP JUMPDEST JUMPDEST PUSH32 0xFFFFFFFFFFFFFFFFFFFFFFFFFFFFFFFFFFFFFFFFFFFFFFFFFFFFFFFEFFFFFC2F DUP1 PUSH2 0x3530 JUMPI PUSH2 0x352F PUSH2 0x4619 JUMP JUMPDEST JUMPDEST PUSH32 0xFFFFFFFFFFFFFFFFFFFFFFFFFFFFFFFFFFFFFFFFFFFFFFFFFFFFFFFEFFFFFC2F DUP1 PUSH2 0x355F JUMPI PUSH2 0x355E PUSH2 0x4619 JUMP JUMPDEST JUMPDEST DUP6 DUP7 MULMOD PUSH1 0x0 MULMOD PUSH32 0xFFFFFFFFFFFFFFFFFFFFFFFFFFFFFFFFFFFFFFFFFFFFFFFFFFFFFFFEFFFFFC2F DUP1 PUSH2 0x3594 JUMPI PUSH2 0x3593 PUSH2 0x4619 JUMP JUMPDEST JUMPDEST DUP8 PUSH1 0x3 MULMOD ADDMOD SWAP1 POP PUSH32 0xFFFFFFFFFFFFFFFFFFFFFFFFFFFFFFFFFFFFFFFFFFFFFFFFFFFFFFFEFFFFFC2F DUP1 PUSH2 0x35CA JUMPI PUSH2 0x35C9 PUSH2 0x4619 JUMP JUMPDEST JUMPDEST PUSH32 0xFFFFFFFFFFFFFFFFFFFFFFFFFFFFFFFFFFFFFFFFFFFFFFFFFFFFFFFEFFFFFC2F DUP1 PUSH2 0x35F9 JUMPI PUSH2 0x35F8 PUSH2 0x4619 JUMP JUMPDEST JUMPDEST DUP4 DUP5 ADDMOD PUSH32 0xFFFFFFFFFFFFFFFFFFFFFFFFFFFFFFFFFFFFFFFFFFFFFFFFFFFFFFFEFFFFFC2F PUSH2 0x3627 SWAP2 SWAP1 PUSH2 0x40E4 JUMP JUMPDEST PUSH32 0xFFFFFFFFFFFFFFFFFFFFFFFFFFFFFFFFFFFFFFFFFFFFFFFFFFFFFFFEFFFFFC2F DUP1 PUSH2 0x3656 JUMPI PUSH2 0x3655 PUSH2 0x4619 JUMP JUMPDEST JUMPDEST DUP4 DUP5 MULMOD ADDMOD SWAP5 POP PUSH32 0xFFFFFFFFFFFFFFFFFFFFFFFFFFFFFFFFFFFFFFFFFFFFFFFFFFFFFFFEFFFFFC2F DUP1 PUSH2 0x368B JUMPI PUSH2 0x368A PUSH2 0x4619 JUMP JUMPDEST JUMPDEST PUSH32 0xFFFFFFFFFFFFFFFFFFFFFFFFFFFFFFFFFFFFFFFFFFFFFFFFFFFFFFFEFFFFFC2F DUP1 PUSH2 0x36BA JUMPI PUSH2 0x36B9 PUSH2 0x4619 JUMP JUMPDEST JUMPDEST PUSH32 0xFFFFFFFFFFFFFFFFFFFFFFFFFFFFFFFFFFFFFFFFFFFFFFFFFFFFFFFEFFFFFC2F DUP1 PUSH2 0x36E9 JUMPI PUSH2 0x36E8 PUSH2 0x4619 JUMP JUMPDEST JUMPDEST DUP7 DUP8 MULMOD PUSH1 0x8 MULMOD PUSH32 0xFFFFFFFFFFFFFFFFFFFFFFFFFFFFFFFFFFFFFFFFFFFFFFFFFFFFFFFEFFFFFC2F PUSH2 0x371A SWAP2 SWAP1 PUSH2 0x40E4 JUMP JUMPDEST PUSH32 0xFFFFFFFFFFFFFFFFFFFFFFFFFFFFFFFFFFFFFFFFFFFFFFFFFFFFFFFEFFFFFC2F DUP1 PUSH2 0x3749 JUMPI PUSH2 0x3748 PUSH2 0x4619 JUMP JUMPDEST JUMPDEST PUSH32 0xFFFFFFFFFFFFFFFFFFFFFFFFFFFFFFFFFFFFFFFFFFFFFFFFFFFFFFFEFFFFFC2F DUP1 PUSH2 0x3778 JUMPI PUSH2 0x3777 PUSH2 0x4619 JUMP JUMPDEST JUMPDEST DUP9 PUSH32 0xFFFFFFFFFFFFFFFFFFFFFFFFFFFFFFFFFFFFFFFFFFFFFFFFFFFFFFFEFFFFFC2F PUSH2 0x37A4 SWAP2 SWAP1 PUSH2 0x40E4 JUMP JUMPDEST DUP7 ADDMOD DUP5 MULMOD ADDMOD SWAP4 POP PUSH32 0xFFFFFFFFFFFFFFFFFFFFFFFFFFFFFFFFFFFFFFFFFFFFFFFFFFFFFFFEFFFFFC2F DUP1 PUSH2 0x37DA JUMPI PUSH2 0x37D9 PUSH2 0x4619 JUMP JUMPDEST JUMPDEST PUSH32 0xFFFFFFFFFFFFFFFFFFFFFFFFFFFFFFFFFFFFFFFFFFFFFFFFFFFFFFFEFFFFFC2F DUP1 PUSH2 0x3809 JUMPI PUSH2 0x3808 PUSH2 0x4619 JUMP JUMPDEST JUMPDEST DUP11 DUP13 MULMOD PUSH1 0x2 MULMOD SWAP3 POP DUP5 DUP5 DUP5 SWAP8 POP SWAP8 POP SWAP8 POP POP POP POP POP POP JUMPDEST SWAP4 POP SWAP4 POP SWAP4 SWAP1 POP JUMP JUMPDEST PUSH1 0x0 DUP1 PUSH1 0x0 PUSH2 0x3858 DUP5 PUSH32 0xFFFFFFFFFFFFFFFFFFFFFFFFFFFFFFFFFFFFFFFFFFFFFFFFFFFFFFFEFFFFFC2F PUSH2 0x24EE JUMP JUMPDEST SWAP1 POP PUSH1 0x0 PUSH32 0xFFFFFFFFFFFFFFFFFFFFFFFFFFFFFFFFFFFFFFFFFFFFFFFFFFFFFFFEFFFFFC2F DUP1 PUSH2 0x388B JUMPI PUSH2 0x388A PUSH2 0x4619 JUMP JUMPDEST JUMPDEST DUP3 DUP4 MULMOD SWAP1 POP PUSH1 0x0 PUSH32 0xFFFFFFFFFFFFFFFFFFFFFFFFFFFFFFFFFFFFFFFFFFFFFFFFFFFFFFFEFFFFFC2F DUP1 PUSH2 0x38C1 JUMPI PUSH2 0x38C0 PUSH2 0x4619 JUMP JUMPDEST JUMPDEST DUP3 DUP10 MULMOD SWAP1 POP PUSH1 0x0 PUSH32 0xFFFFFFFFFFFFFFFFFFFFFFFFFFFFFFFFFFFFFFFFFFFFFFFFFFFFFFFEFFFFFC2F DUP1 PUSH2 0x38F7 JUMPI PUSH2 0x38F6 PUSH2 0x4619 JUMP JUMPDEST JUMPDEST PUSH32 0xFFFFFFFFFFFFFFFFFFFFFFFFFFFFFFFFFFFFFFFFFFFFFFFFFFFFFFFEFFFFFC2F DUP1 PUSH2 0x3926 JUMPI PUSH2 0x3925 PUSH2 0x4619 JUMP JUMPDEST JUMPDEST DUP5 DUP7 MULMOD DUP10 MULMOD SWAP1 POP DUP2 DUP2 SWAP6 POP SWAP6 POP POP POP POP POP SWAP4 POP SWAP4 SWAP2 POP POP JUMP JUMPDEST PUSH1 0x0 PUSH11 0x636F6E736F6C652E6C6F67 SWAP1 POP PUSH1 0x0 DUP1 DUP4 MLOAD PUSH1 0x20 DUP6 ADD DUP5 GAS STATICCALL POP POP POP JUMP JUMPDEST PUSH2 0x3A9A DUP2 SWAP1 POP SWAP2 SWAP1 POP JUMP JUMPDEST PUSH1 0x40 MLOAD DUP1 PUSH1 0x80 ADD PUSH1 0x40 MSTORE DUP1 PUSH1 0x0 DUP2 MSTORE PUSH1 0x20 ADD PUSH1 0x0 DUP1 NOT AND DUP2 MSTORE PUSH1 0x20 ADD PUSH1 0x0 DUP1 NOT AND DUP2 MSTORE PUSH1 0x20 ADD PUSH1 0x0 DUP1 NOT AND DUP2 MSTORE POP SWAP1 JUMP JUMPDEST PUSH1 0x40 MLOAD DUP1 PUSH1 0x40 ADD PUSH1 0x40 MSTORE DUP1 PUSH1 0x0 DUP2 MSTORE PUSH1 0x20 ADD PUSH1 0x0 PUSH12 0xFFFFFFFFFFFFFFFFFFFFFFFF NOT AND DUP2 MSTORE POP SWAP1 JUMP JUMPDEST PUSH1 0x40 MLOAD DUP1 PUSH1 0x40 ADD PUSH1 0x40 MSTORE DUP1 PUSH1 0x0 DUP2 MSTORE PUSH1 0x20 ADD PUSH1 0x0 DUP1 NOT AND DUP2 MSTORE POP SWAP1 JUMP JUMPDEST PUSH1 0x40 MLOAD DUP1 PUSH1 0xA0 ADD PUSH1 0x40 MSTORE DUP1 PUSH1 0x0 DUP2 MSTORE PUSH1 0x20 ADD PUSH1 0x60 DUP2 MSTORE PUSH1 0x20 ADD PUSH1 0x60 DUP2 MSTORE PUSH1 0x20 ADD PUSH1 0x60 DUP2 MSTORE PUSH1 0x20 ADD PUSH1 0x60 DUP2 MSTORE POP SWAP1 JUMP JUMPDEST PUSH1 0x40 MLOAD DUP1 PUSH1 0x60 ADD PUSH1 0x40 MSTORE DUP1 PUSH1 0x0 DUP2 MSTORE PUSH1 0x20 ADD PUSH1 0x0 DUP1 NOT AND DUP2 MSTORE PUSH1 0x20 ADD PUSH1 0x0 PUSH28 0xFFFFFFFFFFFFFFFFFFFFFFFFFFFFFFFFFFFFFFFFFFFFFFFFFFFFFFFF NOT AND DUP2 MSTORE POP SWAP1 JUMP JUMPDEST PUSH1 0x40 MLOAD DUP1 PUSH1 0x60 ADD PUSH1 0x40 MSTORE DUP1 PUSH1 0x0 PUSH1 0xFF AND DUP2 MSTORE PUSH1 0x20 ADD PUSH1 0x60 DUP2 MSTORE PUSH1 0x20 ADD PUSH1 0x60 DUP2 MSTORE POP SWAP1 JUMP JUMPDEST PUSH1 0x40 MLOAD DUP1 PUSH1 0x80 ADD PUSH1 0x40 MSTORE DUP1 PUSH1 0x4 SWAP1 PUSH1 0x20 DUP3 MUL DUP1 CALLDATASIZE DUP4 CALLDATACOPY DUP1 DUP3 ADD SWAP2 POP POP SWAP1 POP POP SWAP1 JUMP JUMPDEST PUSH2 0x3AA2 PUSH2 0x494E JUMP JUMPDEST JUMP JUMPDEST PUSH1 0x0 PUSH1 0x40 MLOAD SWAP1 POP SWAP1 JUMP JUMPDEST PUSH1 0x0 DUP1 REVERT JUMPDEST PUSH1 0x0 DUP1 REVERT JUMPDEST PUSH1 0x0 DUP1 REVERT JUMPDEST PUSH1 0x0 DUP1 REVERT JUMPDEST PUSH1 0x0 PUSH1 0x1F NOT PUSH1 0x1F DUP4 ADD AND SWAP1 POP SWAP2 SWAP1 POP JUMP JUMPDEST PUSH32 0x4E487B7100000000000000000000000000000000000000000000000000000000 PUSH1 0x0 MSTORE PUSH1 0x41 PUSH1 0x4 MSTORE PUSH1 0x24 PUSH1 0x0 REVERT JUMPDEST PUSH2 0x3B0B DUP3 PUSH2 0x3AC2 JUMP JUMPDEST DUP2 ADD DUP2 DUP2 LT PUSH8 0xFFFFFFFFFFFFFFFF DUP3 GT OR ISZERO PUSH2 0x3B2A JUMPI PUSH2 0x3B29 PUSH2 0x3AD3 JUMP JUMPDEST JUMPDEST DUP1 PUSH1 0x40 MSTORE POP POP POP JUMP JUMPDEST PUSH1 0x0 PUSH2 0x3B3D PUSH2 0x3AA4 JUMP JUMPDEST SWAP1 POP PUSH2 0x3B49 DUP3 DUP3 PUSH2 0x3B02 JUMP JUMPDEST SWAP2 SWAP1 POP JUMP JUMPDEST PUSH1 0x0 PUSH8 0xFFFFFFFFFFFFFFFF DUP3 GT ISZERO PUSH2 0x3B69 JUMPI PUSH2 0x3B68 PUSH2 0x3AD3 JUMP JUMPDEST JUMPDEST PUSH2 0x3B72 DUP3 PUSH2 0x3AC2 JUMP JUMPDEST SWAP1 POP PUSH1 0x20 DUP2 ADD SWAP1 POP SWAP2 SWAP1 POP JUMP JUMPDEST DUP3 DUP2 DUP4 CALLDATACOPY PUSH1 0x0 DUP4 DUP4 ADD MSTORE POP POP POP JUMP JUMPDEST PUSH1 0x0 PUSH2 0x3BA1 PUSH2 0x3B9C DUP5 PUSH2 0x3B4E JUMP JUMPDEST PUSH2 0x3B33 JUMP JUMPDEST SWAP1 POP DUP3 DUP2 MSTORE PUSH1 0x20 DUP2 ADD DUP5 DUP5 DUP5 ADD GT ISZERO PUSH2 0x3BBD JUMPI PUSH2 0x3BBC PUSH2 0x3ABD JUMP JUMPDEST JUMPDEST PUSH2 0x3BC8 DUP5 DUP3 DUP6 PUSH2 0x3B7F JUMP JUMPDEST POP SWAP4 SWAP3 POP POP POP JUMP JUMPDEST PUSH1 0x0 DUP3 PUSH1 0x1F DUP4 ADD SLT PUSH2 0x3BE5 JUMPI PUSH2 0x3BE4 PUSH2 0x3AB8 JUMP JUMPDEST JUMPDEST DUP2 CALLDATALOAD PUSH2 0x3BF5 DUP5 DUP3 PUSH1 0x20 DUP7 ADD PUSH2 0x3B8E JUMP JUMPDEST SWAP2 POP POP SWAP3 SWAP2 POP POP JUMP JUMPDEST PUSH1 0x0 PUSH1 0x20 DUP3 DUP5 SUB SLT ISZERO PUSH2 0x3C14 JUMPI PUSH2 0x3C13 PUSH2 0x3AAE JUMP JUMPDEST JUMPDEST PUSH1 0x0 DUP3 ADD CALLDATALOAD PUSH8 0xFFFFFFFFFFFFFFFF DUP2 GT ISZERO PUSH2 0x3C32 JUMPI PUSH2 0x3C31 PUSH2 0x3AB3 JUMP JUMPDEST JUMPDEST PUSH2 0x3C3E DUP5 DUP3 DUP6 ADD PUSH2 0x3BD0 JUMP JUMPDEST SWAP2 POP POP SWAP3 SWAP2 POP POP JUMP JUMPDEST PUSH1 0x0 PUSH32 0xFFFFFFFF00000000000000000000000000000000000000000000000000000000 DUP3 AND SWAP1 POP SWAP2 SWAP1 POP JUMP JUMPDEST PUSH2 0x3C7C DUP2 PUSH2 0x3C47 JUMP JUMPDEST DUP3 MSTORE POP POP JUMP JUMPDEST PUSH1 0x0 PUSH1 0x20 DUP3 ADD SWAP1 POP PUSH2 0x3C97 PUSH1 0x0 DUP4 ADD DUP5 PUSH2 0x3C73 JUMP JUMPDEST SWAP3 SWAP2 POP POP JUMP JUMPDEST PUSH1 0x0 DUP2 SWAP1 POP SWAP2 SWAP1 POP JUMP JUMPDEST PUSH2 0x3CB0 DUP2 PUSH2 0x3C9D JUMP JUMPDEST DUP3 MSTORE POP POP JUMP JUMPDEST PUSH1 0x0 DUP2 SWAP1 POP SWAP2 SWAP1 POP JUMP JUMPDEST PUSH2 0x3CC9 DUP2 PUSH2 0x3CB6 JUMP JUMPDEST DUP3 MSTORE POP POP JUMP JUMPDEST PUSH1 0x80 DUP3 ADD PUSH1 0x0 DUP3 ADD MLOAD PUSH2 0x3CE5 PUSH1 0x0 DUP6 ADD DUP3 PUSH2 0x3CA7 JUMP JUMPDEST POP PUSH1 0x20 DUP3 ADD MLOAD PUSH2 0x3CF8 PUSH1 0x20 DUP6 ADD DUP3 PUSH2 0x3CC0 JUMP JUMPDEST POP PUSH1 0x40 DUP3 ADD MLOAD PUSH2 0x3D0B PUSH1 0x40 DUP6 ADD DUP3 PUSH2 0x3CC0 JUMP JUMPDEST POP PUSH1 0x60 DUP3 ADD MLOAD PUSH2 0x3D1E PUSH1 0x60 DUP6 ADD DUP3 PUSH2 0x3CC0 JUMP JUMPDEST POP POP POP POP JUMP JUMPDEST PUSH1 0x0 PUSH32 0xFFFFFFFFFFFFFFFFFFFFFFFFFFFFFFFFFFFFFFFF000000000000000000000000 DUP3 AND SWAP1 POP SWAP2 SWAP1 POP JUMP JUMPDEST PUSH2 0x3D59 DUP2 PUSH2 0x3D24 JUMP JUMPDEST DUP3 MSTORE POP POP JUMP JUMPDEST PUSH1 0x40 DUP3 ADD PUSH1 0x0 DUP3 ADD MLOAD PUSH2 0x3D75 PUSH1 0x0 DUP6 ADD DUP3 PUSH2 0x3CA7 JUMP JUMPDEST POP PUSH1 0x20 DUP3 ADD MLOAD PUSH2 0x3D88 PUSH1 0x20 DUP6 ADD DUP3 PUSH2 0x3D50 JUMP JUMPDEST POP POP POP POP JUMP JUMPDEST PUSH1 0x40 DUP3 ADD PUSH1 0x0 DUP3 ADD MLOAD PUSH2 0x3DA4 PUSH1 0x0 DUP6 ADD DUP3 PUSH2 0x3CA7 JUMP JUMPDEST POP PUSH1 0x20 DUP3 ADD MLOAD PUSH2 0x3DB7 PUSH1 0x20 DUP6 ADD DUP3 PUSH2 0x3CC0 JUMP JUMPDEST POP POP POP POP JUMP JUMPDEST PUSH1 0x0 PUSH2 0x100 DUP3 ADD SWAP1 POP PUSH2 0x3DD3 PUSH1 0x0 DUP4 ADD DUP7 PUSH2 0x3CCF JUMP JUMPDEST PUSH2 0x3DE0 PUSH1 0x80 DUP4 ADD DUP6 PUSH2 0x3D5F JUMP JUMPDEST PUSH2 0x3DED PUSH1 0xC0 DUP4 ADD DUP5 PUSH2 0x3D8E JUMP JUMPDEST SWAP5 SWAP4 POP POP POP POP JUMP JUMPDEST PUSH2 0x3DFE DUP2 PUSH2 0x3C47 JUMP JUMPDEST DUP3 MSTORE POP POP JUMP JUMPDEST PUSH1 0x60 DUP3 ADD PUSH1 0x0 DUP3 ADD MLOAD PUSH2 0x3E1A PUSH1 0x0 DUP6 ADD DUP3 PUSH2 0x3CA7 JUMP JUMPDEST POP PUSH1 0x20 DUP3 ADD MLOAD PUSH2 0x3E2D PUSH1 0x20 DUP6 ADD DUP3 PUSH2 0x3CC0 JUMP JUMPDEST POP PUSH1 0x40 DUP3 ADD MLOAD PUSH2 0x3E40 PUSH1 0x40 DUP6 ADD DUP3 PUSH2 0x3DF5 JUMP JUMPDEST POP POP POP POP JUMP JUMPDEST PUSH1 0x0 PUSH1 0x60 DUP3 ADD SWAP1 POP PUSH2 0x3E5B PUSH1 0x0 DUP4 ADD DUP5 PUSH2 0x3E04 JUMP JUMPDEST SWAP3 SWAP2 POP POP JUMP JUMPDEST PUSH2 0x3E6A DUP2 PUSH2 0x3C9D JUMP JUMPDEST DUP2 EQ PUSH2 0x3E75 JUMPI PUSH1 0x0 DUP1 REVERT JUMPDEST POP JUMP JUMPDEST PUSH1 0x0 DUP2 CALLDATALOAD SWAP1 POP PUSH2 0x3E87 DUP2 PUSH2 0x3E61 JUMP JUMPDEST SWAP3 SWAP2 POP POP JUMP JUMPDEST PUSH1 0x0 PUSH1 0xFF DUP3 AND SWAP1 POP SWAP2 SWAP1 POP JUMP JUMPDEST PUSH2 0x3EA3 DUP2 PUSH2 0x3E8D JUMP JUMPDEST DUP2 EQ PUSH2 0x3EAE JUMPI PUSH1 0x0 DUP1 REVERT JUMPDEST POP JUMP JUMPDEST PUSH1 0x0 DUP2 CALLDATALOAD SWAP1 POP PUSH2 0x3EC0 DUP2 PUSH2 0x3E9A JUMP JUMPDEST SWAP3 SWAP2 POP POP JUMP JUMPDEST PUSH1 0x0 DUP1 PUSH1 0x0 DUP1 PUSH1 0x80 DUP6 DUP8 SUB SLT ISZERO PUSH2 0x3EE0 JUMPI PUSH2 0x3EDF PUSH2 0x3AAE JUMP JUMPDEST JUMPDEST PUSH1 0x0 PUSH2 0x3EEE DUP8 DUP3 DUP9 ADD PUSH2 0x3E78 JUMP JUMPDEST SWAP5 POP POP PUSH1 0x20 PUSH2 0x3EFF DUP8 DUP3 DUP9 ADD PUSH2 0x3EB1 JUMP JUMPDEST SWAP4 POP POP PUSH1 0x40 PUSH2 0x3F10 DUP8 DUP3 DUP9 ADD PUSH2 0x3E78 JUMP JUMPDEST SWAP3 POP POP PUSH1 0x60 PUSH2 0x3F21 DUP8 DUP3 DUP9 ADD PUSH2 0x3E78 JUMP JUMPDEST SWAP2 POP POP SWAP3 SWAP6 SWAP2 SWAP5 POP SWAP3 POP JUMP JUMPDEST PUSH1 0x0 DUP2 MLOAD SWAP1 POP SWAP2 SWAP1 POP JUMP JUMPDEST PUSH1 0x0 DUP3 DUP3 MSTORE PUSH1 0x20 DUP3 ADD SWAP1 POP SWAP3 SWAP2 POP POP JUMP JUMPDEST PUSH1 0x0 JUMPDEST DUP4 DUP2 LT ISZERO PUSH2 0x3F67 JUMPI DUP1 DUP3 ADD MLOAD DUP2 DUP5 ADD MSTORE PUSH1 0x20 DUP2 ADD SWAP1 POP PUSH2 0x3F4C JUMP JUMPDEST PUSH1 0x0 DUP5 DUP5 ADD MSTORE POP POP POP POP JUMP JUMPDEST PUSH1 0x0 PUSH2 0x3F7E DUP3 PUSH2 0x3F2D JUMP JUMPDEST PUSH2 0x3F88 DUP2 DUP6 PUSH2 0x3F38 JUMP JUMPDEST SWAP4 POP PUSH2 0x3F98 DUP2 DUP6 PUSH1 0x20 DUP7 ADD PUSH2 0x3F49 JUMP JUMPDEST PUSH2 0x3FA1 DUP2 PUSH2 0x3AC2 JUMP JUMPDEST DUP5 ADD SWAP2 POP POP SWAP3 SWAP2 POP POP JUMP JUMPDEST PUSH1 0x0 PUSH1 0x20 DUP3 ADD SWAP1 POP DUP2 DUP2 SUB PUSH1 0x0 DUP4 ADD MSTORE PUSH2 0x3FC6 DUP2 DUP5 PUSH2 0x3F73 JUMP JUMPDEST SWAP1 POP SWAP3 SWAP2 POP POP JUMP JUMPDEST PUSH2 0x3FD7 DUP2 PUSH2 0x3E8D JUMP JUMPDEST DUP3 MSTORE POP POP JUMP JUMPDEST PUSH1 0x0 DUP3 DUP3 MSTORE PUSH1 0x20 DUP3 ADD SWAP1 POP SWAP3 SWAP2 POP POP JUMP JUMPDEST PUSH1 0x0 PUSH2 0x3FF9 DUP3 PUSH2 0x3F2D JUMP JUMPDEST PUSH2 0x4003 DUP2 DUP6 PUSH2 0x3FDD JUMP JUMPDEST SWAP4 POP PUSH2 0x4013 DUP2 DUP6 PUSH1 0x20 DUP7 ADD PUSH2 0x3F49 JUMP JUMPDEST PUSH2 0x401C DUP2 PUSH2 0x3AC2 JUMP JUMPDEST DUP5 ADD SWAP2 POP POP SWAP3 SWAP2 POP POP JUMP JUMPDEST PUSH1 0x0 PUSH1 0x60 DUP4 ADD PUSH1 0x0 DUP4 ADD MLOAD PUSH2 0x403F PUSH1 0x0 DUP7 ADD DUP3 PUSH2 0x3FCE JUMP JUMPDEST POP PUSH1 0x20 DUP4 ADD MLOAD DUP5 DUP3 SUB PUSH1 0x20 DUP7 ADD MSTORE PUSH2 0x4057 DUP3 DUP3 PUSH2 0x3FEE JUMP JUMPDEST SWAP2 POP POP PUSH1 0x40 DUP4 ADD MLOAD DUP5 DUP3 SUB PUSH1 0x40 DUP7 ADD MSTORE PUSH2 0x4071 DUP3 DUP3 PUSH2 0x3FEE JUMP JUMPDEST SWAP2 POP POP DUP1 SWAP2 POP POP SWAP3 SWAP2 POP POP JUMP JUMPDEST PUSH1 0x0 PUSH1 0x40 DUP3 ADD SWAP1 POP DUP2 DUP2 SUB PUSH1 0x0 DUP4 ADD MSTORE PUSH2 0x4098 DUP2 DUP6 PUSH2 0x4027 JUMP JUMPDEST SWAP1 POP DUP2 DUP2 SUB PUSH1 0x20 DUP4 ADD MSTORE PUSH2 0x40AC DUP2 DUP5 PUSH2 0x4027 JUMP JUMPDEST SWAP1 POP SWAP4 SWAP3 POP POP POP JUMP JUMPDEST PUSH32 0x4E487B7100000000000000000000000000000000000000000000000000000000 PUSH1 0x0 MSTORE PUSH1 0x11 PUSH1 0x4 MSTORE PUSH1 0x24 PUSH1 0x0 REVERT JUMPDEST PUSH1 0x0 PUSH2 0x40EF DUP3 PUSH2 0x3C9D JUMP JUMPDEST SWAP2 POP PUSH2 0x40FA DUP4 PUSH2 0x3C9D JUMP JUMPDEST SWAP3 POP DUP3 DUP3 SUB SWAP1 POP DUP2 DUP2 GT ISZERO PUSH2 0x4112 JUMPI PUSH2 0x4111 PUSH2 0x40B5 JUMP JUMPDEST JUMPDEST SWAP3 SWAP2 POP POP JUMP JUMPDEST PUSH1 0x0 DUP2 SWAP1 POP PUSH1 0x20 DUP3 ADD SWAP1 POP SWAP2 SWAP1 POP JUMP JUMPDEST PUSH1 0x0 PUSH2 0x4134 DUP3 MLOAD PUSH2 0x3C47 JUMP JUMPDEST DUP1 SWAP2 POP POP SWAP2 SWAP1 POP JUMP JUMPDEST PUSH1 0x0 DUP3 DUP3 SHL SWAP1 POP SWAP3 SWAP2 POP POP JUMP JUMPDEST PUSH1 0x0 PUSH2 0x4155 DUP3 PUSH2 0x3F2D JUMP JUMPDEST DUP3 PUSH2 0x415F DUP5 PUSH2 0x4118 JUMP JUMPDEST SWAP1 POP PUSH2 0x416A DUP2 PUSH2 0x4128 JUMP JUMPDEST SWAP3 POP PUSH1 0x4 DUP3 LT ISZERO PUSH2 0x41AA JUMPI PUSH2 0x41A5 PUSH32 0xFFFFFFFF00000000000000000000000000000000000000000000000000000000 DUP4 PUSH1 0x4 SUB PUSH1 0x8 MUL PUSH2 0x413D JUMP JUMPDEST DUP4 AND SWAP3 POP JUMPDEST POP POP SWAP2 SWAP1 POP JUMP JUMPDEST PUSH32 0x4E487B7100000000000000000000000000000000000000000000000000000000 PUSH1 0x0 MSTORE PUSH1 0x32 PUSH1 0x4 MSTORE PUSH1 0x24 PUSH1 0x0 REVERT JUMPDEST PUSH1 0x0 DUP2 SWAP1 POP SWAP2 SWAP1 POP JUMP JUMPDEST PUSH2 0x41FB PUSH2 0x41F6 DUP3 PUSH2 0x3CB6 JUMP JUMPDEST PUSH2 0x41E0 JUMP JUMPDEST DUP3 MSTORE POP POP JUMP JUMPDEST PUSH1 0x0 PUSH2 0x420D DUP3 DUP5 PUSH2 0x41EA JUMP JUMPDEST PUSH1 0x20 DUP3 ADD SWAP2 POP DUP2 SWAP1 POP SWAP3 SWAP2 POP POP JUMP JUMPDEST PUSH1 0x0 PUSH2 0x4227 DUP3 PUSH2 0x3C9D JUMP JUMPDEST SWAP2 POP PUSH32 0xFFFFFFFFFFFFFFFFFFFFFFFFFFFFFFFFFFFFFFFFFFFFFFFFFFFFFFFFFFFFFFFF DUP3 SUB PUSH2 0x4259 JUMPI PUSH2 0x4258 PUSH2 0x40B5 JUMP JUMPDEST JUMPDEST PUSH1 0x1 DUP3 ADD SWAP1 POP SWAP2 SWAP1 POP JUMP JUMPDEST PUSH1 0x0 PUSH2 0x4270 DUP3 MLOAD PUSH2 0x3CB6 JUMP JUMPDEST DUP1 SWAP2 POP POP SWAP2 SWAP1 POP JUMP JUMPDEST PUSH1 0x0 PUSH2 0x4284 DUP3 PUSH2 0x3F2D JUMP JUMPDEST DUP3 PUSH2 0x428E DUP5 PUSH2 0x4118 JUMP JUMPDEST SWAP1 POP PUSH2 0x4299 DUP2 PUSH2 0x4264 JUMP JUMPDEST SWAP3 POP PUSH1 0x20 DUP3 LT ISZERO PUSH2 0x42D9 JUMPI PUSH2 0x42D4 PUSH32 0xFFFFFFFFFFFFFFFFFFFFFFFFFFFFFFFFFFFFFFFFFFFFFFFFFFFFFFFFFFFFFFFF DUP4 PUSH1 0x20 SUB PUSH1 0x8 MUL PUSH2 0x413D JUMP JUMPDEST DUP4 AND SWAP3 POP JUMPDEST POP POP SWAP2 SWAP1 POP JUMP JUMPDEST PUSH1 0x0 DUP3 DUP3 MSTORE PUSH1 0x20 DUP3 ADD SWAP1 POP SWAP3 SWAP2 POP POP JUMP JUMPDEST PUSH32 0x54782068617320746F6F206D616E7920696E7075747320283E31290000000000 PUSH1 0x0 DUP3 ADD MSTORE POP JUMP JUMPDEST PUSH1 0x0 PUSH2 0x4327 PUSH1 0x1B DUP4 PUSH2 0x42E0 JUMP JUMPDEST SWAP2 POP PUSH2 0x4332 DUP3 PUSH2 0x42F1 JUMP JUMPDEST PUSH1 0x20 DUP3 ADD SWAP1 POP SWAP2 SWAP1 POP JUMP JUMPDEST PUSH1 0x0 PUSH1 0x20 DUP3 ADD SWAP1 POP DUP2 DUP2 SUB PUSH1 0x0 DUP4 ADD MSTORE PUSH2 0x4356 DUP2 PUSH2 0x431A JUMP JUMPDEST SWAP1 POP SWAP2 SWAP1 POP JUMP JUMPDEST PUSH1 0x0 PUSH2 0x4368 DUP3 PUSH2 0x3E8D JUMP JUMPDEST SWAP2 POP PUSH2 0x4373 DUP4 PUSH2 0x3E8D JUMP JUMPDEST SWAP3 POP DUP3 DUP3 SUB SWAP1 POP PUSH1 0xFF DUP2 GT ISZERO PUSH2 0x438C JUMPI PUSH2 0x438B PUSH2 0x40B5 JUMP JUMPDEST JUMPDEST SWAP3 SWAP2 POP POP JUMP JUMPDEST PUSH1 0x0 DUP2 SWAP1 POP SWAP2 SWAP1 POP JUMP JUMPDEST PUSH2 0x43AD PUSH2 0x43A8 DUP3 PUSH2 0x3C9D JUMP JUMPDEST PUSH2 0x4392 JUMP JUMPDEST DUP3 MSTORE POP POP JUMP JUMPDEST PUSH1 0x0 PUSH2 0x43BF DUP3 DUP6 PUSH2 0x439C JUMP JUMPDEST PUSH1 0x20 DUP3 ADD SWAP2 POP PUSH2 0x43CF DUP3 DUP5 PUSH2 0x439C JUMP JUMPDEST PUSH1 0x20 DUP3 ADD SWAP2 POP DUP2 SWAP1 POP SWAP4 SWAP3 POP POP POP JUMP JUMPDEST PUSH1 0x0 PUSH2 0x43EA DUP3 PUSH2 0x3C9D JUMP JUMPDEST SWAP2 POP PUSH2 0x43F5 DUP4 PUSH2 0x3C9D JUMP JUMPDEST SWAP3 POP DUP3 DUP3 ADD SWAP1 POP DUP1 DUP3 GT ISZERO PUSH2 0x440D JUMPI PUSH2 0x440C PUSH2 0x40B5 JUMP JUMPDEST JUMPDEST SWAP3 SWAP2 POP POP JUMP JUMPDEST PUSH32 0x736C6963655F6F766572666C6F77000000000000000000000000000000000000 PUSH1 0x0 DUP3 ADD MSTORE POP JUMP JUMPDEST PUSH1 0x0 PUSH2 0x4449 PUSH1 0xE DUP4 PUSH2 0x42E0 JUMP JUMPDEST SWAP2 POP PUSH2 0x4454 DUP3 PUSH2 0x4413 JUMP JUMPDEST PUSH1 0x20 DUP3 ADD SWAP1 POP SWAP2 SWAP1 POP JUMP JUMPDEST PUSH1 0x0 PUSH1 0x20 DUP3 ADD SWAP1 POP DUP2 DUP2 SUB PUSH1 0x0 DUP4 ADD MSTORE PUSH2 0x4478 DUP2 PUSH2 0x443C JUMP JUMPDEST SWAP1 POP SWAP2 SWAP1 POP JUMP JUMPDEST PUSH32 0x736C6963655F6F75744F66426F756E6473000000000000000000000000000000 PUSH1 0x0 DUP3 ADD MSTORE POP JUMP JUMPDEST PUSH1 0x0 PUSH2 0x44B5 PUSH1 0x11 DUP4 PUSH2 0x42E0 JUMP JUMPDEST SWAP2 POP PUSH2 0x44C0 DUP3 PUSH2 0x447F JUMP JUMPDEST PUSH1 0x20 DUP3 ADD SWAP1 POP SWAP2 SWAP1 POP JUMP JUMPDEST PUSH1 0x0 PUSH1 0x20 DUP3 ADD SWAP1 POP DUP2 DUP2 SUB PUSH1 0x0 DUP4 ADD MSTORE PUSH2 0x44E4 DUP2 PUSH2 0x44A8 JUMP JUMPDEST SWAP1 POP SWAP2 SWAP1 POP JUMP JUMPDEST PUSH1 0x0 PUSH20 0xFFFFFFFFFFFFFFFFFFFFFFFFFFFFFFFFFFFFFFFF DUP3 AND SWAP1 POP SWAP2 SWAP1 POP JUMP JUMPDEST PUSH1 0x0 PUSH2 0x4516 DUP3 PUSH2 0x44EB JUMP JUMPDEST SWAP2 POP PUSH2 0x4521 DUP4 PUSH2 0x44EB JUMP JUMPDEST SWAP3 POP DUP3 DUP3 SUB SWAP1 POP PUSH20 0xFFFFFFFFFFFFFFFFFFFFFFFFFFFFFFFFFFFFFFFF DUP2 GT ISZERO PUSH2 0x454D JUMPI PUSH2 0x454C PUSH2 0x40B5 JUMP JUMPDEST JUMPDEST SWAP3 SWAP2 POP POP JUMP JUMPDEST PUSH1 0x0 PUSH2 0x455E DUP3 PUSH2 0x44EB JUMP JUMPDEST SWAP2 POP PUSH2 0x4569 DUP4 PUSH2 0x44EB JUMP JUMPDEST SWAP3 POP DUP3 DUP3 MUL PUSH2 0x4577 DUP2 PUSH2 0x44EB JUMP JUMPDEST SWAP2 POP DUP3 DUP3 DIV DUP5 EQ DUP4 ISZERO OR PUSH2 0x458E JUMPI PUSH2 0x458D PUSH2 0x40B5 JUMP JUMPDEST JUMPDEST POP SWAP3 SWAP2 POP POP JUMP JUMPDEST PUSH1 0x0 PUSH2 0x45A0 DUP3 PUSH2 0x44EB JUMP JUMPDEST SWAP2 POP PUSH2 0x45AB DUP4 PUSH2 0x44EB JUMP JUMPDEST SWAP3 POP DUP3 DUP3 ADD SWAP1 POP PUSH20 0xFFFFFFFFFFFFFFFFFFFFFFFFFFFFFFFFFFFFFFFF DUP2 GT ISZERO PUSH2 0x45D7 JUMPI PUSH2 0x45D6 PUSH2 0x40B5 JUMP JUMPDEST JUMPDEST SWAP3 SWAP2 POP POP JUMP JUMPDEST PUSH1 0x0 PUSH2 0x45E8 DUP3 PUSH2 0x44EB JUMP JUMPDEST SWAP2 POP PUSH20 0xFFFFFFFFFFFFFFFFFFFFFFFFFFFFFFFFFFFFFFFF DUP3 SUB PUSH2 0x460E JUMPI PUSH2 0x460D PUSH2 0x40B5 JUMP JUMPDEST JUMPDEST PUSH1 0x1 DUP3 ADD SWAP1 POP SWAP2 SWAP1 POP JUMP JUMPDEST PUSH32 0x4E487B7100000000000000000000000000000000000000000000000000000000 PUSH1 0x0 MSTORE PUSH1 0x12 PUSH1 0x4 MSTORE PUSH1 0x24 PUSH1 0x0 REVERT JUMPDEST PUSH1 0x0 PUSH2 0x4653 DUP3 PUSH2 0x3C9D JUMP JUMPDEST SWAP2 POP PUSH2 0x465E DUP4 PUSH2 0x3C9D JUMP JUMPDEST SWAP3 POP DUP3 DUP3 MUL PUSH2 0x466C DUP2 PUSH2 0x3C9D JUMP JUMPDEST SWAP2 POP DUP3 DUP3 DIV DUP5 EQ DUP4 ISZERO OR PUSH2 0x4683 JUMPI PUSH2 0x4682 PUSH2 0x40B5 JUMP JUMPDEST JUMPDEST POP SWAP3 SWAP2 POP POP JUMP JUMPDEST PUSH1 0x0 PUSH2 0x4695 DUP3 PUSH2 0x3C9D JUMP JUMPDEST SWAP2 POP PUSH2 0x46A0 DUP4 PUSH2 0x3C9D JUMP JUMPDEST SWAP3 POP DUP3 PUSH2 0x46B0 JUMPI PUSH2 0x46AF PUSH2 0x4619 JUMP JUMPDEST JUMPDEST DUP3 DUP3 DIV SWAP1 POP SWAP3 SWAP2 POP POP JUMP JUMPDEST PUSH1 0x0 PUSH2 0xFFFF DUP3 AND SWAP1 POP SWAP2 SWAP1 POP JUMP JUMPDEST PUSH1 0x0 PUSH2 0x46D4 DUP3 PUSH2 0x46BB JUMP JUMPDEST SWAP2 POP PUSH2 0x46DF DUP4 PUSH2 0x46BB JUMP JUMPDEST SWAP3 POP DUP3 DUP3 MUL PUSH2 0x46ED DUP2 PUSH2 0x46BB JUMP JUMPDEST SWAP2 POP DUP1 DUP3 EQ PUSH2 0x46FF JUMPI PUSH2 0x46FE PUSH2 0x40B5 JUMP JUMPDEST JUMPDEST POP SWAP3 SWAP2 POP POP JUMP JUMPDEST PUSH1 0x0 PUSH4 0xFFFFFFFF DUP3 AND SWAP1 POP SWAP2 SWAP1 POP JUMP JUMPDEST PUSH1 0x0 PUSH2 0x4721 DUP3 PUSH2 0x4706 JUMP JUMPDEST SWAP2 POP PUSH2 0x472C DUP4 PUSH2 0x4706 JUMP JUMPDEST SWAP3 POP DUP3 DUP3 MUL PUSH2 0x473A DUP2 PUSH2 0x4706 JUMP JUMPDEST SWAP2 POP DUP1 DUP3 EQ PUSH2 0x474C JUMPI PUSH2 0x474B PUSH2 0x40B5 JUMP JUMPDEST JUMPDEST POP SWAP3 SWAP2 POP POP JUMP JUMPDEST PUSH1 0x0 PUSH8 0xFFFFFFFFFFFFFFFF DUP3 AND SWAP1 POP SWAP2 SWAP1 POP JUMP JUMPDEST PUSH1 0x0 PUSH2 0x4772 DUP3 PUSH2 0x4753 JUMP JUMPDEST SWAP2 POP PUSH2 0x477D DUP4 PUSH2 0x4753 JUMP JUMPDEST SWAP3 POP DUP3 DUP3 MUL PUSH2 0x478B DUP2 PUSH2 0x4753 JUMP JUMPDEST SWAP2 POP DUP1 DUP3 EQ PUSH2 0x479D JUMPI PUSH2 0x479C PUSH2 0x40B5 JUMP JUMPDEST JUMPDEST POP SWAP3 SWAP2 POP POP JUMP JUMPDEST PUSH1 0x0 DUP2 MLOAD SWAP1 POP SWAP2 SWAP1 POP JUMP JUMPDEST PUSH1 0x0 PUSH2 0x47BA DUP3 PUSH2 0x47A4 JUMP JUMPDEST PUSH2 0x47C4 DUP2 DUP6 PUSH2 0x42E0 JUMP JUMPDEST SWAP4 POP PUSH2 0x47D4 DUP2 DUP6 PUSH1 0x20 DUP7 ADD PUSH2 0x3F49 JUMP JUMPDEST PUSH2 0x47DD DUP2 PUSH2 0x3AC2 JUMP JUMPDEST DUP5 ADD SWAP2 POP POP SWAP3 SWAP2 POP POP JUMP JUMPDEST PUSH1 0x0 PUSH1 0x20 DUP3 ADD SWAP1 POP DUP2 DUP2 SUB PUSH1 0x0 DUP4 ADD MSTORE PUSH2 0x4802 DUP2 DUP5 PUSH2 0x47AF JUMP JUMPDEST SWAP1 POP SWAP3 SWAP2 POP POP JUMP JUMPDEST PUSH32 0x496E76616C6964206E756D626572000000000000000000000000000000000000 PUSH1 0x0 DUP3 ADD MSTORE POP JUMP JUMPDEST PUSH1 0x0 PUSH2 0x4840 PUSH1 0xE DUP4 PUSH2 0x42E0 JUMP JUMPDEST SWAP2 POP PUSH2 0x484B DUP3 PUSH2 0x480A JUMP JUMPDEST PUSH1 0x20 DUP3 ADD SWAP1 POP SWAP2 SWAP1 POP JUMP JUMPDEST PUSH1 0x0 PUSH1 0x20 DUP3 ADD SWAP1 POP DUP2 DUP2 SUB PUSH1 0x0 DUP4 ADD MSTORE PUSH2 0x486F DUP2 PUSH2 0x4833 JUMP JUMPDEST SWAP1 POP SWAP2 SWAP1 POP JUMP JUMPDEST PUSH32 0x56616C75652065786365656473207468652072616E6765000000000000000000 PUSH1 0x0 DUP3 ADD MSTORE POP JUMP JUMPDEST PUSH1 0x0 PUSH2 0x48AC PUSH1 0x17 DUP4 PUSH2 0x42E0 JUMP JUMPDEST SWAP2 POP PUSH2 0x48B7 DUP3 PUSH2 0x4876 JUMP JUMPDEST PUSH1 0x20 DUP3 ADD SWAP1 POP SWAP2 SWAP1 POP JUMP JUMPDEST PUSH1 0x0 PUSH1 0x20 DUP3 ADD SWAP1 POP DUP2 DUP2 SUB PUSH1 0x0 DUP4 ADD MSTORE PUSH2 0x48DB DUP2 PUSH2 0x489F JUMP JUMPDEST SWAP1 POP SWAP2 SWAP1 POP JUMP JUMPDEST PUSH32 0x557365206A6163446F75626C652066756E6374696F6E20696E73746561640000 PUSH1 0x0 DUP3 ADD MSTORE POP JUMP JUMPDEST PUSH1 0x0 PUSH2 0x4918 PUSH1 0x1E DUP4 PUSH2 0x42E0 JUMP JUMPDEST SWAP2 POP PUSH2 0x4923 DUP3 PUSH2 0x48E2 JUMP JUMPDEST PUSH1 0x20 DUP3 ADD SWAP1 POP SWAP2 SWAP1 POP JUMP JUMPDEST PUSH1 0x0 PUSH1 0x20 DUP3 ADD SWAP1 POP DUP2 DUP2 SUB PUSH1 0x0 DUP4 ADD MSTORE PUSH2 0x4947 DUP2 PUSH2 0x490B JUMP JUMPDEST SWAP1 POP SWAP2 SWAP1 POP JUMP JUMPDEST PUSH32 0x4E487B7100000000000000000000000000000000000000000000000000000000 PUSH1 0x0 MSTORE PUSH1 0x51 PUSH1 0x4 MSTORE PUSH1 0x24 PUSH1 0x0 REVERT INVALID LOG2 PUSH5 0x6970667358 0x22 SLT KECCAK256 EXP DUP16 0x29 0xCD 0x5D 0xF9 LOG3 PUSH3 0x4DEE8A 0xC1 EXTCODECOPY 0xCB 0xB4 DUP1 0x25 0xB8 CALLDATASIZE DUP3 COINBASE MSTORE DIV 0xE1 0xD3 0x2B DUP5 LOG0 GASLIMIT SWAP11 0xEA SWAP3 PUSH5 0x736F6C6343 STOP ADDMOD SGT STOP CALLER "},"methodIdentifiers":{"getInputsData(bytes)":"4f500ea9","getOutputsData(bytes)":"497c6cf6","getSignatures(bytes)":"6b45b4e3","getTimelock(bytes)":"36946480","verifyBTCSignature(uint256,uint8,uint256,uint256)":"5933bf61"}}}}}