{"contracts/BTC.sol":{"BTC":{"abi":[{"inputs":[{"internalType":"bytes32","name":"message","type":"bytes32"},{"internalType":"uint8","name":"v","type":"uint8"},{"internalType":"bytes32","name":"r","type":"bytes32"},{"internalType":"bytes32","name":"s","type":"bytes32"}],"name":"recoverPersonalSignPublicKey","outputs":[{"internalType":"bytes","name":"","type":"bytes"}],"stateMutability":"pure","type":"function"}],"evm":{"bytecode":{"linkReferences":{},"object":"611e46610053600b82828239805160001a607314610046577f4e487b7100000000000000000000000000000000000000000000000000000000600052600060045260246000fd5b30600052607381538281f3fe73000000000000000000000000000000000000000030146080604052600436106100355760003560e01c806362d5fa821461003a575b600080fd5b610054600480360381019061004f919061198a565b61006a565b6040516100619190611a81565b60405180910390f35b606060006040518060400160405280601c81526020017f19457468657265756d205369676e6564204d6573736167653a0a3332000000008152509050600081876040516020016100bb929190611b0b565b6040516020818303038152906040528051906020012090506000806100f78360001c601b8a6100ea9190611b62565b8960001c8960001c61012b565b91509150818160405160200161010e929190611bc2565b604051602081830303815290604052945050505050949350505050565b60008060007ffffffffffffffffffffffffffffffffffffffffffffffffffffffffefffffc2f8061015f5761015e611bee565b5b60018760ff16901c60ff167ffffffffffffffffffffffffffffffffffffffffffffffffffffffffefffffc2f6101959190611c1d565b860890507ffffffffffffffffffffffffffffffffffffffffffffffffffffffffefffffc2f8111806101e657507ffffffffffffffffffffffffffffffffebaaedce6af48a03bbfd25e8cd036414184115b8061021057507ffffffffffffffffffffffffffffffffebaaedce6af48a03bbfd25e8cd036414185115b8061021b5750600084145b806102265750600085145b80610234575060018660ff16115b15610246576000809250925050610534565b6000610272867ffffffffffffffffffffffffffffffffebaaedce6af48a03bbfd25e8cd036414161053d565b905060007ffffffffffffffffffffffffffffffffffffffffffffffffffffffffefffffc2f806102a5576102a4611bee565b5b7ffffffffffffffffffffffffffffffffffffffffffffffffffffffffefffffc2f806102d4576102d3611bee565b5b60077ffffffffffffffffffffffffffffffffffffffffffffffffffffffffefffffc2f8061030557610304611bee565b5b60008709087ffffffffffffffffffffffffffffffffffffffffffffffffffffffffefffffc2f8061033957610338611bee565b5b7ffffffffffffffffffffffffffffffffffffffffffffffffffffffffefffffc2f8061036857610367611bee565b5b86870986090890506103b281600460017ffffffffffffffffffffffffffffffffffffffffffffffffffffffffefffffc2f6103a39190611c5f565b6103ad9190611c93565b610629565b9050600080600160028b60ff16856103ca9190611c5f565b6103d49190611c5f565b161461040b57817ffffffffffffffffffffffffffffffffffffffffffffffffffffffffefffffc2f6104069190611cc4565b61040d565b815b905060008060006104bd7ffffffffffffffffffffffffffffffffebaaedce6af48a03bbfd25e8cd03641418061044657610445611bee565b5b8e7ffffffffffffffffffffffffffffffffebaaedce6af48a03bbfd25e8cd03641416104729190611cc4565b88097f79be667ef9dcbbac55a06295ce870b07029bfcdb2dce28d959f2815b16f817987f483ada7726a3c4655da4fbfc0e1108a8fd17b448a68554199c47d08ffb10d4b860016107dd565b92509250925060008060006105067ffffffffffffffffffffffffffffffffebaaedce6af48a03bbfd25e8cd0364141806104fa576104f9611bee565b5b8e8b098b8960016107dd565b92509250925060008061051d888888888888610877565b9150915081819d509d505050505050505050505050505b94509492505050565b600080831415801561054f5750818314155b801561055c575060008214155b61059b576040517f08c379a000000000000000000000000000000000000000000000000000000000815260040161059290611d55565b60405180910390fd5b60008060019050600084905060005b6000871461061c5786826105be9190611c93565b90508286806105d0576105cf611bee565b5b87806105df576105de611bee565b5b858409886105ed9190611cc4565b860880945081955050508687826106049190611c1d565b8361060f9190611cc4565b80985081935050506105aa565b8394505050505092915050565b600080830361063b57600090506107d7565b6000820361064c57600190506107d7565b60006001905060007f800000000000000000000000000000000000000000000000000000000000000090505b60008111156107d1577ffffffffffffffffffffffffffffffffffffffffffffffffffffffffefffffc2f8185161515860a7ffffffffffffffffffffffffffffffffffffffffffffffffffffffffefffffc2f8485090991507ffffffffffffffffffffffffffffffffffffffffffffffffffffffffefffffc2f6002820485161515860a7ffffffffffffffffffffffffffffffffffffffffffffffffffffffffefffffc2f8485090991507ffffffffffffffffffffffffffffffffffffffffffffffffffffffffefffffc2f6004820485161515860a7ffffffffffffffffffffffffffffffffffffffffffffffffffffffffefffffc2f8485090991507ffffffffffffffffffffffffffffffffffffffffffffffffffffffffefffffc2f6008820485161515860a7ffffffffffffffffffffffffffffffffffffffffffffffffffffffffefffffc2f848509099150601081049050610678565b81925050505b92915050565b60008060008087036107f75785858592509250925061086d565b60008790506000806000600190505b6000841461085f5760006001851614610834576108278383838d8d8d610923565b8093508194508295505050505b6002846108419190611c93565b935061084e8a8a8a611361565b809a50819b50829c50505050610806565b828282965096509650505050505b9450945094915050565b6000806000806000878b036108ea5760007ffffffffffffffffffffffffffffffffffffffffffffffffffffffffefffffc2f806108b7576108b6611bee565b5b888c08036108ce5760008094509450505050610918565b6108d98b8b8b611361565b809350819450829550505050610905565b6108f88b8b8b8b8b8b610923565b8093508194508295505050505b6109108383836117de565b945094505050505b965096945050505050565b600080600080891480156109375750600088145b1561094a57858585925092509250611355565b60008614801561095a5750600085145b1561096d57888888925092509250611355565b6109756118f4565b7ffffffffffffffffffffffffffffffffffffffffffffffffffffffffefffffc2f806109a4576109a3611bee565b5b888909816000600481106109bb576109ba611d75565b5b6020020181815250507ffffffffffffffffffffffffffffffffffffffffffffffffffffffffefffffc2f806109f3576109f2611bee565b5b81600060048110610a0757610a06611d75565b5b6020020151890981600160048110610a2257610a21611d75565b5b6020020181815250507ffffffffffffffffffffffffffffffffffffffffffffffffffffffffefffffc2f80610a5a57610a59611bee565b5b85860981600260048110610a7157610a70611d75565b5b6020020181815250507ffffffffffffffffffffffffffffffffffffffffffffffffffffffffefffffc2f80610aa957610aa8611bee565b5b81600260048110610abd57610abc611d75565b5b6020020151860981600360048110610ad857610ad7611d75565b5b60200201818152505060405180608001604052807ffffffffffffffffffffffffffffffffffffffffffffffffffffffffefffffc2f80610b1b57610b1a611bee565b5b83600260048110610b2f57610b2e611d75565b5b60200201518d0981526020017ffffffffffffffffffffffffffffffffffffffffffffffffffffffffefffffc2f80610b6a57610b69611bee565b5b83600360048110610b7e57610b7d611d75565b5b60200201518c0981526020017ffffffffffffffffffffffffffffffffffffffffffffffffffffffffefffffc2f80610bb957610bb8611bee565b5b83600060048110610bcd57610bcc611d75565b5b60200201518a0981526020017ffffffffffffffffffffffffffffffffffffffffffffffffffffffffefffffc2f80610c0857610c07611bee565b5b83600160048110610c1c57610c1b611d75565b5b60200201518909815250905080600260048110610c3c57610c3b611d75565b5b602002015181600060048110610c5557610c54611d75565b5b6020020151141580610c97575080600360048110610c7657610c75611d75565b5b602002015181600160048110610c8f57610c8e611d75565b5b602002015114155b610cd6576040517f08c379a0000000000000000000000000000000000000000000000000000000008152600401610ccd90611df0565b60405180910390fd5b610cde6118f4565b7ffffffffffffffffffffffffffffffffffffffffffffffffffffffffefffffc2f80610d0d57610d0c611bee565b5b82600060048110610d2157610d20611d75565b5b60200201517ffffffffffffffffffffffffffffffffffffffffffffffffffffffffefffffc2f610d519190611cc4565b83600260048110610d6557610d64611d75565b5b60200201510881600060048110610d7f57610d7e611d75565b5b6020020181815250507ffffffffffffffffffffffffffffffffffffffffffffffffffffffffefffffc2f80610db757610db6611bee565b5b82600160048110610dcb57610dca611d75565b5b60200201517ffffffffffffffffffffffffffffffffffffffffffffffffffffffffefffffc2f610dfb9190611cc4565b83600360048110610e0f57610e0e611d75565b5b60200201510881600160048110610e2957610e28611d75565b5b6020020181815250507ffffffffffffffffffffffffffffffffffffffffffffffffffffffffefffffc2f80610e6157610e60611bee565b5b81600060048110610e7557610e74611d75565b5b602002015182600060048110610e8e57610e8d611d75565b5b60200201510981600260048110610ea857610ea7611d75565b5b6020020181815250507ffffffffffffffffffffffffffffffffffffffffffffffffffffffffefffffc2f80610ee057610edf611bee565b5b81600060048110610ef457610ef3611d75565b5b602002015182600260048110610f0d57610f0c611d75565b5b60200201510981600360048110610f2757610f26611d75565b5b60200201818152505060007ffffffffffffffffffffffffffffffffffffffffffffffffffffffffefffffc2f80610f6157610f60611bee565b5b82600360048110610f7557610f74611d75565b5b60200201517ffffffffffffffffffffffffffffffffffffffffffffffffffffffffefffffc2f610fa59190611cc4565b7ffffffffffffffffffffffffffffffffffffffffffffffffffffffffefffffc2f80610fd457610fd3611bee565b5b84600160048110610fe857610fe7611d75565b5b60200201518560016004811061100157611000611d75565b5b6020020151090890507ffffffffffffffffffffffffffffffffffffffffffffffffffffffffefffffc2f8061103957611038611bee565b5b7ffffffffffffffffffffffffffffffffffffffffffffffffffffffffefffffc2f8061106857611067611bee565b5b7ffffffffffffffffffffffffffffffffffffffffffffffffffffffffefffffc2f8061109757611096611bee565b5b846002600481106110ab576110aa611d75565b5b6020020151866000600481106110c4576110c3611d75565b5b6020020151096002097ffffffffffffffffffffffffffffffffffffffffffffffffffffffffefffffc2f6110f89190611cc4565b8208905060007ffffffffffffffffffffffffffffffffffffffffffffffffffffffffefffffc2f8061112d5761112c611bee565b5b7ffffffffffffffffffffffffffffffffffffffffffffffffffffffffefffffc2f8061115c5761115b611bee565b5b837ffffffffffffffffffffffffffffffffffffffffffffffffffffffffefffffc2f6111889190611cc4565b7ffffffffffffffffffffffffffffffffffffffffffffffffffffffffefffffc2f806111b7576111b6611bee565b5b866002600481106111cb576111ca611d75565b5b6020020151886000600481106111e4576111e3611d75565b5b60200201510908846001600481106111ff576111fe611d75565b5b60200201510990507ffffffffffffffffffffffffffffffffffffffffffffffffffffffffefffffc2f8061123657611235611bee565b5b7ffffffffffffffffffffffffffffffffffffffffffffffffffffffffefffffc2f8061126557611264611bee565b5b8460036004811061127957611278611d75565b5b60200201518660016004811061129257611291611d75565b5b6020020151097ffffffffffffffffffffffffffffffffffffffffffffffffffffffffefffffc2f6112c39190611cc4565b8208905060007ffffffffffffffffffffffffffffffffffffffffffffffffffffffffefffffc2f806112f8576112f7611bee565b5b7ffffffffffffffffffffffffffffffffffffffffffffffffffffffffefffffc2f8061132757611326611bee565b5b8a8e098560006004811061133e5761133d611d75565b5b602002015109905082828297509750975050505050505b96509650969350505050565b600080600080840361137b578585859250925092506117d5565b60007ffffffffffffffffffffffffffffffffffffffffffffffffffffffffefffffc2f806113ac576113ab611bee565b5b878809905060007ffffffffffffffffffffffffffffffffffffffffffffffffffffffffefffffc2f806113e2576113e1611bee565b5b878809905060007ffffffffffffffffffffffffffffffffffffffffffffffffffffffffefffffc2f8061141857611417611bee565b5b878809905060007ffffffffffffffffffffffffffffffffffffffffffffffffffffffffefffffc2f8061144e5761144d611bee565b5b7ffffffffffffffffffffffffffffffffffffffffffffffffffffffffefffffc2f8061147d5761147c611bee565b5b848c09600409905060007ffffffffffffffffffffffffffffffffffffffffffffffffffffffffefffffc2f806114b6576114b5611bee565b5b7ffffffffffffffffffffffffffffffffffffffffffffffffffffffffefffffc2f806114e5576114e4611bee565b5b7ffffffffffffffffffffffffffffffffffffffffffffffffffffffffefffffc2f8061151457611513611bee565b5b8586096000097ffffffffffffffffffffffffffffffffffffffffffffffffffffffffefffffc2f8061154957611548611bee565b5b876003090890507ffffffffffffffffffffffffffffffffffffffffffffffffffffffffefffffc2f8061157f5761157e611bee565b5b7ffffffffffffffffffffffffffffffffffffffffffffffffffffffffefffffc2f806115ae576115ad611bee565b5b8384087ffffffffffffffffffffffffffffffffffffffffffffffffffffffffefffffc2f6115dc9190611cc4565b7ffffffffffffffffffffffffffffffffffffffffffffffffffffffffefffffc2f8061160b5761160a611bee565b5b8384090894507ffffffffffffffffffffffffffffffffffffffffffffffffffffffffefffffc2f806116405761163f611bee565b5b7ffffffffffffffffffffffffffffffffffffffffffffffffffffffffefffffc2f8061166f5761166e611bee565b5b7ffffffffffffffffffffffffffffffffffffffffffffffffffffffffefffffc2f8061169e5761169d611bee565b5b8687096008097ffffffffffffffffffffffffffffffffffffffffffffffffffffffffefffffc2f6116cf9190611cc4565b7ffffffffffffffffffffffffffffffffffffffffffffffffffffffffefffffc2f806116fe576116fd611bee565b5b7ffffffffffffffffffffffffffffffffffffffffffffffffffffffffefffffc2f8061172d5761172c611bee565b5b887ffffffffffffffffffffffffffffffffffffffffffffffffffffffffefffffc2f6117599190611cc4565b860884090893507ffffffffffffffffffffffffffffffffffffffffffffffffffffffffefffffc2f8061178f5761178e611bee565b5b7ffffffffffffffffffffffffffffffffffffffffffffffffffffffffefffffc2f806117be576117bd611bee565b5b8a8c09600209925084848497509750975050505050505b93509350939050565b600080600061180d847ffffffffffffffffffffffffffffffffffffffffffffffffffffffffefffffc2f61053d565b905060007ffffffffffffffffffffffffffffffffffffffffffffffffffffffffefffffc2f806118405761183f611bee565b5b828309905060007ffffffffffffffffffffffffffffffffffffffffffffffffffffffffefffffc2f8061187657611875611bee565b5b828909905060007ffffffffffffffffffffffffffffffffffffffffffffffffffffffffefffffc2f806118ac576118ab611bee565b5b7ffffffffffffffffffffffffffffffffffffffffffffffffffffffffefffffc2f806118db576118da611bee565b5b8486098909905081819550955050505050935093915050565b6040518060800160405280600490602082028036833780820191505090505090565b600080fd5b6000819050919050565b61192e8161191b565b811461193957600080fd5b50565b60008135905061194b81611925565b92915050565b600060ff82169050919050565b61196781611951565b811461197257600080fd5b50565b6000813590506119848161195e565b92915050565b600080600080608085870312156119a4576119a3611916565b5b60006119b28782880161193c565b94505060206119c387828801611975565b93505060406119d48782880161193c565b92505060606119e58782880161193c565b91505092959194509250565b600081519050919050565b600082825260208201905092915050565b60005b83811015611a2b578082015181840152602081019050611a10565b60008484015250505050565b6000601f19601f8301169050919050565b6000611a53826119f1565b611a5d81856119fc565b9350611a6d818560208601611a0d565b611a7681611a37565b840191505092915050565b60006020820190508181036000830152611a9b8184611a48565b905092915050565b600081519050919050565b600081905092915050565b6000611ac482611aa3565b611ace8185611aae565b9350611ade818560208601611a0d565b80840191505092915050565b6000819050919050565b611b05611b008261191b565b611aea565b82525050565b6000611b178285611ab9565b9150611b238284611af4565b6020820191508190509392505050565b7f4e487b7100000000000000000000000000000000000000000000000000000000600052601160045260246000fd5b6000611b6d82611951565b9150611b7883611951565b9250828203905060ff811115611b9157611b90611b33565b5b92915050565b6000819050919050565b6000819050919050565b611bbc611bb782611b97565b611ba1565b82525050565b6000611bce8285611bab565b602082019150611bde8284611bab565b6020820191508190509392505050565b7f4e487b7100000000000000000000000000000000000000000000000000000000600052601260045260246000fd5b6000611c2882611b97565b9150611c3383611b97565b9250828202611c4181611b97565b91508282048414831517611c5857611c57611b33565b5b5092915050565b6000611c6a82611b97565b9150611c7583611b97565b9250828201905080821115611c8d57611c8c611b33565b5b92915050565b6000611c9e82611b97565b9150611ca983611b97565b925082611cb957611cb8611bee565b5b828204905092915050565b6000611ccf82611b97565b9150611cda83611b97565b9250828203905081811115611cf257611cf1611b33565b5b92915050565b600082825260208201905092915050565b7f496e76616c6964206e756d626572000000000000000000000000000000000000600082015250565b6000611d3f600e83611cf8565b9150611d4a82611d09565b602082019050919050565b60006020820190508181036000830152611d6e81611d32565b9050919050565b7f4e487b7100000000000000000000000000000000000000000000000000000000600052603260045260246000fd5b7f557365206a6163446f75626c652066756e6374696f6e20696e73746561640000600082015250565b6000611dda601e83611cf8565b9150611de582611da4565b602082019050919050565b60006020820190508181036000830152611e0981611dcd565b905091905056fea2646970667358221220b810cde19758cc212b24ce60b62b2219268862f8ba689478ac7e2ba2ae76707964736f6c63430008130033","opcodes":"PUSH2 0x1E46 PUSH2 0x53 PUSH1 0xB DUP3 DUP3 DUP3 CODECOPY DUP1 MLOAD PUSH1 0x0 BYTE PUSH1 0x73 EQ PUSH2 0x46 JUMPI PUSH32 0x4E487B7100000000000000000000000000000000000000000000000000000000 PUSH1 0x0 MSTORE PUSH1 0x0 PUSH1 0x4 MSTORE PUSH1 0x24 PUSH1 0x0 REVERT JUMPDEST ADDRESS PUSH1 0x0 MSTORE PUSH1 0x73 DUP2 MSTORE8 DUP3 DUP2 RETURN INVALID PUSH20 0x0 ADDRESS EQ PUSH1 0x80 PUSH1 0x40 MSTORE PUSH1 0x4 CALLDATASIZE LT PUSH2 0x35 JUMPI PUSH1 0x0 CALLDATALOAD PUSH1 0xE0 SHR DUP1 PUSH4 0x62D5FA82 EQ PUSH2 0x3A JUMPI JUMPDEST PUSH1 0x0 DUP1 REVERT JUMPDEST PUSH2 0x54 PUSH1 0x4 DUP1 CALLDATASIZE SUB DUP2 ADD SWAP1 PUSH2 0x4F SWAP2 SWAP1 PUSH2 0x198A JUMP JUMPDEST PUSH2 0x6A JUMP JUMPDEST PUSH1 0x40 MLOAD PUSH2 0x61 SWAP2 SWAP1 PUSH2 0x1A81 JUMP JUMPDEST PUSH1 0x40 MLOAD DUP1 SWAP2 SUB SWAP1 RETURN JUMPDEST PUSH1 0x60 PUSH1 0x0 PUSH1 0x40 MLOAD DUP1 PUSH1 0x40 ADD PUSH1 0x40 MSTORE DUP1 PUSH1 0x1C DUP2 MSTORE PUSH1 0x20 ADD PUSH32 0x19457468657265756D205369676E6564204D6573736167653A0A333200000000 DUP2 MSTORE POP SWAP1 POP PUSH1 0x0 DUP2 DUP8 PUSH1 0x40 MLOAD PUSH1 0x20 ADD PUSH2 0xBB SWAP3 SWAP2 SWAP1 PUSH2 0x1B0B JUMP JUMPDEST PUSH1 0x40 MLOAD PUSH1 0x20 DUP2 DUP4 SUB SUB DUP2 MSTORE SWAP1 PUSH1 0x40 MSTORE DUP1 MLOAD SWAP1 PUSH1 0x20 ADD KECCAK256 SWAP1 POP PUSH1 0x0 DUP1 PUSH2 0xF7 DUP4 PUSH1 0x0 SHR PUSH1 0x1B DUP11 PUSH2 0xEA SWAP2 SWAP1 PUSH2 0x1B62 JUMP JUMPDEST DUP10 PUSH1 0x0 SHR DUP10 PUSH1 0x0 SHR PUSH2 0x12B JUMP JUMPDEST SWAP2 POP SWAP2 POP DUP2 DUP2 PUSH1 0x40 MLOAD PUSH1 0x20 ADD PUSH2 0x10E SWAP3 SWAP2 SWAP1 PUSH2 0x1BC2 JUMP JUMPDEST PUSH1 0x40 MLOAD PUSH1 0x20 DUP2 DUP4 SUB SUB DUP2 MSTORE SWAP1 PUSH1 0x40 MSTORE SWAP5 POP POP POP POP POP SWAP5 SWAP4 POP POP POP POP JUMP JUMPDEST PUSH1 0x0 DUP1 PUSH1 0x0 PUSH32 0xFFFFFFFFFFFFFFFFFFFFFFFFFFFFFFFFFFFFFFFFFFFFFFFFFFFFFFFEFFFFFC2F DUP1 PUSH2 0x15F JUMPI PUSH2 0x15E PUSH2 0x1BEE JUMP JUMPDEST JUMPDEST PUSH1 0x1 DUP8 PUSH1 0xFF AND SWAP1 SHR PUSH1 0xFF AND PUSH32 0xFFFFFFFFFFFFFFFFFFFFFFFFFFFFFFFFFFFFFFFFFFFFFFFFFFFFFFFEFFFFFC2F PUSH2 0x195 SWAP2 SWAP1 PUSH2 0x1C1D JUMP JUMPDEST DUP7 ADDMOD SWAP1 POP PUSH32 0xFFFFFFFFFFFFFFFFFFFFFFFFFFFFFFFFFFFFFFFFFFFFFFFFFFFFFFFEFFFFFC2F DUP2 GT DUP1 PUSH2 0x1E6 JUMPI POP PUSH32 0xFFFFFFFFFFFFFFFFFFFFFFFFFFFFFFFEBAAEDCE6AF48A03BBFD25E8CD0364141 DUP5 GT JUMPDEST DUP1 PUSH2 0x210 JUMPI POP PUSH32 0xFFFFFFFFFFFFFFFFFFFFFFFFFFFFFFFEBAAEDCE6AF48A03BBFD25E8CD0364141 DUP6 GT JUMPDEST DUP1 PUSH2 0x21B JUMPI POP PUSH1 0x0 DUP5 EQ JUMPDEST DUP1 PUSH2 0x226 JUMPI POP PUSH1 0x0 DUP6 EQ JUMPDEST DUP1 PUSH2 0x234 JUMPI POP PUSH1 0x1 DUP7 PUSH1 0xFF AND GT JUMPDEST ISZERO PUSH2 0x246 JUMPI PUSH1 0x0 DUP1 SWAP3 POP SWAP3 POP POP PUSH2 0x534 JUMP JUMPDEST PUSH1 0x0 PUSH2 0x272 DUP7 PUSH32 0xFFFFFFFFFFFFFFFFFFFFFFFFFFFFFFFEBAAEDCE6AF48A03BBFD25E8CD0364141 PUSH2 0x53D JUMP JUMPDEST SWAP1 POP PUSH1 0x0 PUSH32 0xFFFFFFFFFFFFFFFFFFFFFFFFFFFFFFFFFFFFFFFFFFFFFFFFFFFFFFFEFFFFFC2F DUP1 PUSH2 0x2A5 JUMPI PUSH2 0x2A4 PUSH2 0x1BEE JUMP JUMPDEST JUMPDEST PUSH32 0xFFFFFFFFFFFFFFFFFFFFFFFFFFFFFFFFFFFFFFFFFFFFFFFFFFFFFFFEFFFFFC2F DUP1 PUSH2 0x2D4 JUMPI PUSH2 0x2D3 PUSH2 0x1BEE JUMP JUMPDEST JUMPDEST PUSH1 0x7 PUSH32 0xFFFFFFFFFFFFFFFFFFFFFFFFFFFFFFFFFFFFFFFFFFFFFFFFFFFFFFFEFFFFFC2F DUP1 PUSH2 0x305 JUMPI PUSH2 0x304 PUSH2 0x1BEE JUMP JUMPDEST JUMPDEST PUSH1 0x0 DUP8 MULMOD ADDMOD PUSH32 0xFFFFFFFFFFFFFFFFFFFFFFFFFFFFFFFFFFFFFFFFFFFFFFFFFFFFFFFEFFFFFC2F DUP1 PUSH2 0x339 JUMPI PUSH2 0x338 PUSH2 0x1BEE JUMP JUMPDEST JUMPDEST PUSH32 0xFFFFFFFFFFFFFFFFFFFFFFFFFFFFFFFFFFFFFFFFFFFFFFFFFFFFFFFEFFFFFC2F DUP1 PUSH2 0x368 JUMPI PUSH2 0x367 PUSH2 0x1BEE JUMP JUMPDEST JUMPDEST DUP7 DUP8 MULMOD DUP7 MULMOD ADDMOD SWAP1 POP PUSH2 0x3B2 DUP2 PUSH1 0x4 PUSH1 0x1 PUSH32 0xFFFFFFFFFFFFFFFFFFFFFFFFFFFFFFFFFFFFFFFFFFFFFFFFFFFFFFFEFFFFFC2F PUSH2 0x3A3 SWAP2 SWAP1 PUSH2 0x1C5F JUMP JUMPDEST PUSH2 0x3AD SWAP2 SWAP1 PUSH2 0x1C93 JUMP JUMPDEST PUSH2 0x629 JUMP JUMPDEST SWAP1 POP PUSH1 0x0 DUP1 PUSH1 0x1 PUSH1 0x2 DUP12 PUSH1 0xFF AND DUP6 PUSH2 0x3CA SWAP2 SWAP1 PUSH2 0x1C5F JUMP JUMPDEST PUSH2 0x3D4 SWAP2 SWAP1 PUSH2 0x1C5F JUMP JUMPDEST AND EQ PUSH2 0x40B JUMPI DUP2 PUSH32 0xFFFFFFFFFFFFFFFFFFFFFFFFFFFFFFFFFFFFFFFFFFFFFFFFFFFFFFFEFFFFFC2F PUSH2 0x406 SWAP2 SWAP1 PUSH2 0x1CC4 JUMP JUMPDEST PUSH2 0x40D JUMP JUMPDEST DUP2 JUMPDEST SWAP1 POP PUSH1 0x0 DUP1 PUSH1 0x0 PUSH2 0x4BD PUSH32 0xFFFFFFFFFFFFFFFFFFFFFFFFFFFFFFFEBAAEDCE6AF48A03BBFD25E8CD0364141 DUP1 PUSH2 0x446 JUMPI PUSH2 0x445 PUSH2 0x1BEE JUMP JUMPDEST JUMPDEST DUP15 PUSH32 0xFFFFFFFFFFFFFFFFFFFFFFFFFFFFFFFEBAAEDCE6AF48A03BBFD25E8CD0364141 PUSH2 0x472 SWAP2 SWAP1 PUSH2 0x1CC4 JUMP JUMPDEST DUP9 MULMOD PUSH32 0x79BE667EF9DCBBAC55A06295CE870B07029BFCDB2DCE28D959F2815B16F81798 PUSH32 0x483ADA7726A3C4655DA4FBFC0E1108A8FD17B448A68554199C47D08FFB10D4B8 PUSH1 0x1 PUSH2 0x7DD JUMP JUMPDEST SWAP3 POP SWAP3 POP SWAP3 POP PUSH1 0x0 DUP1 PUSH1 0x0 PUSH2 0x506 PUSH32 0xFFFFFFFFFFFFFFFFFFFFFFFFFFFFFFFEBAAEDCE6AF48A03BBFD25E8CD0364141 DUP1 PUSH2 0x4FA JUMPI PUSH2 0x4F9 PUSH2 0x1BEE JUMP JUMPDEST JUMPDEST DUP15 DUP12 MULMOD DUP12 DUP10 PUSH1 0x1 PUSH2 0x7DD JUMP JUMPDEST SWAP3 POP SWAP3 POP SWAP3 POP PUSH1 0x0 DUP1 PUSH2 0x51D DUP9 DUP9 DUP9 DUP9 DUP9 DUP9 PUSH2 0x877 JUMP JUMPDEST SWAP2 POP SWAP2 POP DUP2 DUP2 SWAP14 POP SWAP14 POP POP POP POP POP POP POP POP POP POP POP POP POP JUMPDEST SWAP5 POP SWAP5 SWAP3 POP POP POP JUMP JUMPDEST PUSH1 0x0 DUP1 DUP4 EQ ISZERO DUP1 ISZERO PUSH2 0x54F JUMPI POP DUP2 DUP4 EQ ISZERO JUMPDEST DUP1 ISZERO PUSH2 0x55C JUMPI POP PUSH1 0x0 DUP3 EQ ISZERO JUMPDEST PUSH2 0x59B JUMPI PUSH1 0x40 MLOAD PUSH32 0x8C379A000000000000000000000000000000000000000000000000000000000 DUP2 MSTORE PUSH1 0x4 ADD PUSH2 0x592 SWAP1 PUSH2 0x1D55 JUMP JUMPDEST PUSH1 0x40 MLOAD DUP1 SWAP2 SUB SWAP1 REVERT JUMPDEST PUSH1 0x0 DUP1 PUSH1 0x1 SWAP1 POP PUSH1 0x0 DUP5 SWAP1 POP PUSH1 0x0 JUMPDEST PUSH1 0x0 DUP8 EQ PUSH2 0x61C JUMPI DUP7 DUP3 PUSH2 0x5BE SWAP2 SWAP1 PUSH2 0x1C93 JUMP JUMPDEST SWAP1 POP DUP3 DUP7 DUP1 PUSH2 0x5D0 JUMPI PUSH2 0x5CF PUSH2 0x1BEE JUMP JUMPDEST JUMPDEST DUP8 DUP1 PUSH2 0x5DF JUMPI PUSH2 0x5DE PUSH2 0x1BEE JUMP JUMPDEST JUMPDEST DUP6 DUP5 MULMOD DUP9 PUSH2 0x5ED SWAP2 SWAP1 PUSH2 0x1CC4 JUMP JUMPDEST DUP7 ADDMOD DUP1 SWAP5 POP DUP2 SWAP6 POP POP POP DUP7 DUP8 DUP3 PUSH2 0x604 SWAP2 SWAP1 PUSH2 0x1C1D JUMP JUMPDEST DUP4 PUSH2 0x60F SWAP2 SWAP1 PUSH2 0x1CC4 JUMP JUMPDEST DUP1 SWAP9 POP DUP2 SWAP4 POP POP POP PUSH2 0x5AA JUMP JUMPDEST DUP4 SWAP5 POP POP POP POP POP SWAP3 SWAP2 POP POP JUMP JUMPDEST PUSH1 0x0 DUP1 DUP4 SUB PUSH2 0x63B JUMPI PUSH1 0x0 SWAP1 POP PUSH2 0x7D7 JUMP JUMPDEST PUSH1 0x0 DUP3 SUB PUSH2 0x64C JUMPI PUSH1 0x1 SWAP1 POP PUSH2 0x7D7 JUMP JUMPDEST PUSH1 0x0 PUSH1 0x1 SWAP1 POP PUSH1 0x0 PUSH32 0x8000000000000000000000000000000000000000000000000000000000000000 SWAP1 POP JUMPDEST PUSH1 0x0 DUP2 GT ISZERO PUSH2 0x7D1 JUMPI PUSH32 0xFFFFFFFFFFFFFFFFFFFFFFFFFFFFFFFFFFFFFFFFFFFFFFFFFFFFFFFEFFFFFC2F DUP2 DUP6 AND ISZERO ISZERO DUP7 EXP PUSH32 0xFFFFFFFFFFFFFFFFFFFFFFFFFFFFFFFFFFFFFFFFFFFFFFFFFFFFFFFEFFFFFC2F DUP5 DUP6 MULMOD MULMOD SWAP2 POP PUSH32 0xFFFFFFFFFFFFFFFFFFFFFFFFFFFFFFFFFFFFFFFFFFFFFFFFFFFFFFFEFFFFFC2F PUSH1 0x2 DUP3 DIV DUP6 AND ISZERO ISZERO DUP7 EXP PUSH32 0xFFFFFFFFFFFFFFFFFFFFFFFFFFFFFFFFFFFFFFFFFFFFFFFFFFFFFFFEFFFFFC2F DUP5 DUP6 MULMOD MULMOD SWAP2 POP PUSH32 0xFFFFFFFFFFFFFFFFFFFFFFFFFFFFFFFFFFFFFFFFFFFFFFFFFFFFFFFEFFFFFC2F PUSH1 0x4 DUP3 DIV DUP6 AND ISZERO ISZERO DUP7 EXP PUSH32 0xFFFFFFFFFFFFFFFFFFFFFFFFFFFFFFFFFFFFFFFFFFFFFFFFFFFFFFFEFFFFFC2F DUP5 DUP6 MULMOD MULMOD SWAP2 POP PUSH32 0xFFFFFFFFFFFFFFFFFFFFFFFFFFFFFFFFFFFFFFFFFFFFFFFFFFFFFFFEFFFFFC2F PUSH1 0x8 DUP3 DIV DUP6 AND ISZERO ISZERO DUP7 EXP PUSH32 0xFFFFFFFFFFFFFFFFFFFFFFFFFFFFFFFFFFFFFFFFFFFFFFFFFFFFFFFEFFFFFC2F DUP5 DUP6 MULMOD MULMOD SWAP2 POP PUSH1 0x10 DUP2 DIV SWAP1 POP PUSH2 0x678 JUMP JUMPDEST DUP2 SWAP3 POP POP POP JUMPDEST SWAP3 SWAP2 POP POP JUMP JUMPDEST PUSH1 0x0 DUP1 PUSH1 0x0 DUP1 DUP8 SUB PUSH2 0x7F7 JUMPI DUP6 DUP6 DUP6 SWAP3 POP SWAP3 POP SWAP3 POP PUSH2 0x86D JUMP JUMPDEST PUSH1 0x0 DUP8 SWAP1 POP PUSH1 0x0 DUP1 PUSH1 0x0 PUSH1 0x1 SWAP1 POP JUMPDEST PUSH1 0x0 DUP5 EQ PUSH2 0x85F JUMPI PUSH1 0x0 PUSH1 0x1 DUP6 AND EQ PUSH2 0x834 JUMPI PUSH2 0x827 DUP4 DUP4 DUP4 DUP14 DUP14 DUP14 PUSH2 0x923 JUMP JUMPDEST DUP1 SWAP4 POP DUP2 SWAP5 POP DUP3 SWAP6 POP POP POP POP JUMPDEST PUSH1 0x2 DUP5 PUSH2 0x841 SWAP2 SWAP1 PUSH2 0x1C93 JUMP JUMPDEST SWAP4 POP PUSH2 0x84E DUP11 DUP11 DUP11 PUSH2 0x1361 JUMP JUMPDEST DUP1 SWAP11 POP DUP2 SWAP12 POP DUP3 SWAP13 POP POP POP POP PUSH2 0x806 JUMP JUMPDEST DUP3 DUP3 DUP3 SWAP7 POP SWAP7 POP SWAP7 POP POP POP POP POP JUMPDEST SWAP5 POP SWAP5 POP SWAP5 SWAP2 POP POP JUMP JUMPDEST PUSH1 0x0 DUP1 PUSH1 0x0 DUP1 PUSH1 0x0 DUP8 DUP12 SUB PUSH2 0x8EA JUMPI PUSH1 0x0 PUSH32 0xFFFFFFFFFFFFFFFFFFFFFFFFFFFFFFFFFFFFFFFFFFFFFFFFFFFFFFFEFFFFFC2F DUP1 PUSH2 0x8B7 JUMPI PUSH2 0x8B6 PUSH2 0x1BEE JUMP JUMPDEST JUMPDEST DUP9 DUP13 ADDMOD SUB PUSH2 0x8CE JUMPI PUSH1 0x0 DUP1 SWAP5 POP SWAP5 POP POP POP POP PUSH2 0x918 JUMP JUMPDEST PUSH2 0x8D9 DUP12 DUP12 DUP12 PUSH2 0x1361 JUMP JUMPDEST DUP1 SWAP4 POP DUP2 SWAP5 POP DUP3 SWAP6 POP POP POP POP PUSH2 0x905 JUMP JUMPDEST PUSH2 0x8F8 DUP12 DUP12 DUP12 DUP12 DUP12 DUP12 PUSH2 0x923 JUMP JUMPDEST DUP1 SWAP4 POP DUP2 SWAP5 POP DUP3 SWAP6 POP POP POP POP JUMPDEST PUSH2 0x910 DUP4 DUP4 DUP4 PUSH2 0x17DE JUMP JUMPDEST SWAP5 POP SWAP5 POP POP POP POP JUMPDEST SWAP7 POP SWAP7 SWAP5 POP POP POP POP POP JUMP JUMPDEST PUSH1 0x0 DUP1 PUSH1 0x0 DUP1 DUP10 EQ DUP1 ISZERO PUSH2 0x937 JUMPI POP PUSH1 0x0 DUP9 EQ JUMPDEST ISZERO PUSH2 0x94A JUMPI DUP6 DUP6 DUP6 SWAP3 POP SWAP3 POP SWAP3 POP PUSH2 0x1355 JUMP JUMPDEST PUSH1 0x0 DUP7 EQ DUP1 ISZERO PUSH2 0x95A JUMPI POP PUSH1 0x0 DUP6 EQ JUMPDEST ISZERO PUSH2 0x96D JUMPI DUP9 DUP9 DUP9 SWAP3 POP SWAP3 POP SWAP3 POP PUSH2 0x1355 JUMP JUMPDEST PUSH2 0x975 PUSH2 0x18F4 JUMP JUMPDEST PUSH32 0xFFFFFFFFFFFFFFFFFFFFFFFFFFFFFFFFFFFFFFFFFFFFFFFFFFFFFFFEFFFFFC2F DUP1 PUSH2 0x9A4 JUMPI PUSH2 0x9A3 PUSH2 0x1BEE JUMP JUMPDEST JUMPDEST DUP9 DUP10 MULMOD DUP2 PUSH1 0x0 PUSH1 0x4 DUP2 LT PUSH2 0x9BB JUMPI PUSH2 0x9BA PUSH2 0x1D75 JUMP JUMPDEST JUMPDEST PUSH1 0x20 MUL ADD DUP2 DUP2 MSTORE POP POP PUSH32 0xFFFFFFFFFFFFFFFFFFFFFFFFFFFFFFFFFFFFFFFFFFFFFFFFFFFFFFFEFFFFFC2F DUP1 PUSH2 0x9F3 JUMPI PUSH2 0x9F2 PUSH2 0x1BEE JUMP JUMPDEST JUMPDEST DUP2 PUSH1 0x0 PUSH1 0x4 DUP2 LT PUSH2 0xA07 JUMPI PUSH2 0xA06 PUSH2 0x1D75 JUMP JUMPDEST JUMPDEST PUSH1 0x20 MUL ADD MLOAD DUP10 MULMOD DUP2 PUSH1 0x1 PUSH1 0x4 DUP2 LT PUSH2 0xA22 JUMPI PUSH2 0xA21 PUSH2 0x1D75 JUMP JUMPDEST JUMPDEST PUSH1 0x20 MUL ADD DUP2 DUP2 MSTORE POP POP PUSH32 0xFFFFFFFFFFFFFFFFFFFFFFFFFFFFFFFFFFFFFFFFFFFFFFFFFFFFFFFEFFFFFC2F DUP1 PUSH2 0xA5A JUMPI PUSH2 0xA59 PUSH2 0x1BEE JUMP JUMPDEST JUMPDEST DUP6 DUP7 MULMOD DUP2 PUSH1 0x2 PUSH1 0x4 DUP2 LT PUSH2 0xA71 JUMPI PUSH2 0xA70 PUSH2 0x1D75 JUMP JUMPDEST JUMPDEST PUSH1 0x20 MUL ADD DUP2 DUP2 MSTORE POP POP PUSH32 0xFFFFFFFFFFFFFFFFFFFFFFFFFFFFFFFFFFFFFFFFFFFFFFFFFFFFFFFEFFFFFC2F DUP1 PUSH2 0xAA9 JUMPI PUSH2 0xAA8 PUSH2 0x1BEE JUMP JUMPDEST JUMPDEST DUP2 PUSH1 0x2 PUSH1 0x4 DUP2 LT PUSH2 0xABD JUMPI PUSH2 0xABC PUSH2 0x1D75 JUMP JUMPDEST JUMPDEST PUSH1 0x20 MUL ADD MLOAD DUP7 MULMOD DUP2 PUSH1 0x3 PUSH1 0x4 DUP2 LT PUSH2 0xAD8 JUMPI PUSH2 0xAD7 PUSH2 0x1D75 JUMP JUMPDEST JUMPDEST PUSH1 0x20 MUL ADD DUP2 DUP2 MSTORE POP POP PUSH1 0x40 MLOAD DUP1 PUSH1 0x80 ADD PUSH1 0x40 MSTORE DUP1 PUSH32 0xFFFFFFFFFFFFFFFFFFFFFFFFFFFFFFFFFFFFFFFFFFFFFFFFFFFFFFFEFFFFFC2F DUP1 PUSH2 0xB1B JUMPI PUSH2 0xB1A PUSH2 0x1BEE JUMP JUMPDEST JUMPDEST DUP4 PUSH1 0x2 PUSH1 0x4 DUP2 LT PUSH2 0xB2F JUMPI PUSH2 0xB2E PUSH2 0x1D75 JUMP JUMPDEST JUMPDEST PUSH1 0x20 MUL ADD MLOAD DUP14 MULMOD DUP2 MSTORE PUSH1 0x20 ADD PUSH32 0xFFFFFFFFFFFFFFFFFFFFFFFFFFFFFFFFFFFFFFFFFFFFFFFFFFFFFFFEFFFFFC2F DUP1 PUSH2 0xB6A JUMPI PUSH2 0xB69 PUSH2 0x1BEE JUMP JUMPDEST JUMPDEST DUP4 PUSH1 0x3 PUSH1 0x4 DUP2 LT PUSH2 0xB7E JUMPI PUSH2 0xB7D PUSH2 0x1D75 JUMP JUMPDEST JUMPDEST PUSH1 0x20 MUL ADD MLOAD DUP13 MULMOD DUP2 MSTORE PUSH1 0x20 ADD PUSH32 0xFFFFFFFFFFFFFFFFFFFFFFFFFFFFFFFFFFFFFFFFFFFFFFFFFFFFFFFEFFFFFC2F DUP1 PUSH2 0xBB9 JUMPI PUSH2 0xBB8 PUSH2 0x1BEE JUMP JUMPDEST JUMPDEST DUP4 PUSH1 0x0 PUSH1 0x4 DUP2 LT PUSH2 0xBCD JUMPI PUSH2 0xBCC PUSH2 0x1D75 JUMP JUMPDEST JUMPDEST PUSH1 0x20 MUL ADD MLOAD DUP11 MULMOD DUP2 MSTORE PUSH1 0x20 ADD PUSH32 0xFFFFFFFFFFFFFFFFFFFFFFFFFFFFFFFFFFFFFFFFFFFFFFFFFFFFFFFEFFFFFC2F DUP1 PUSH2 0xC08 JUMPI PUSH2 0xC07 PUSH2 0x1BEE JUMP JUMPDEST JUMPDEST DUP4 PUSH1 0x1 PUSH1 0x4 DUP2 LT PUSH2 0xC1C JUMPI PUSH2 0xC1B PUSH2 0x1D75 JUMP JUMPDEST JUMPDEST PUSH1 0x20 MUL ADD MLOAD DUP10 MULMOD DUP2 MSTORE POP SWAP1 POP DUP1 PUSH1 0x2 PUSH1 0x4 DUP2 LT PUSH2 0xC3C JUMPI PUSH2 0xC3B PUSH2 0x1D75 JUMP JUMPDEST JUMPDEST PUSH1 0x20 MUL ADD MLOAD DUP2 PUSH1 0x0 PUSH1 0x4 DUP2 LT PUSH2 0xC55 JUMPI PUSH2 0xC54 PUSH2 0x1D75 JUMP JUMPDEST JUMPDEST PUSH1 0x20 MUL ADD MLOAD EQ ISZERO DUP1 PUSH2 0xC97 JUMPI POP DUP1 PUSH1 0x3 PUSH1 0x4 DUP2 LT PUSH2 0xC76 JUMPI PUSH2 0xC75 PUSH2 0x1D75 JUMP JUMPDEST JUMPDEST PUSH1 0x20 MUL ADD MLOAD DUP2 PUSH1 0x1 PUSH1 0x4 DUP2 LT PUSH2 0xC8F JUMPI PUSH2 0xC8E PUSH2 0x1D75 JUMP JUMPDEST JUMPDEST PUSH1 0x20 MUL ADD MLOAD EQ ISZERO JUMPDEST PUSH2 0xCD6 JUMPI PUSH1 0x40 MLOAD PUSH32 0x8C379A000000000000000000000000000000000000000000000000000000000 DUP2 MSTORE PUSH1 0x4 ADD PUSH2 0xCCD SWAP1 PUSH2 0x1DF0 JUMP JUMPDEST PUSH1 0x40 MLOAD DUP1 SWAP2 SUB SWAP1 REVERT JUMPDEST PUSH2 0xCDE PUSH2 0x18F4 JUMP JUMPDEST PUSH32 0xFFFFFFFFFFFFFFFFFFFFFFFFFFFFFFFFFFFFFFFFFFFFFFFFFFFFFFFEFFFFFC2F DUP1 PUSH2 0xD0D JUMPI PUSH2 0xD0C PUSH2 0x1BEE JUMP JUMPDEST JUMPDEST DUP3 PUSH1 0x0 PUSH1 0x4 DUP2 LT PUSH2 0xD21 JUMPI PUSH2 0xD20 PUSH2 0x1D75 JUMP JUMPDEST JUMPDEST PUSH1 0x20 MUL ADD MLOAD PUSH32 0xFFFFFFFFFFFFFFFFFFFFFFFFFFFFFFFFFFFFFFFFFFFFFFFFFFFFFFFEFFFFFC2F PUSH2 0xD51 SWAP2 SWAP1 PUSH2 0x1CC4 JUMP JUMPDEST DUP4 PUSH1 0x2 PUSH1 0x4 DUP2 LT PUSH2 0xD65 JUMPI PUSH2 0xD64 PUSH2 0x1D75 JUMP JUMPDEST JUMPDEST PUSH1 0x20 MUL ADD MLOAD ADDMOD DUP2 PUSH1 0x0 PUSH1 0x4 DUP2 LT PUSH2 0xD7F JUMPI PUSH2 0xD7E PUSH2 0x1D75 JUMP JUMPDEST JUMPDEST PUSH1 0x20 MUL ADD DUP2 DUP2 MSTORE POP POP PUSH32 0xFFFFFFFFFFFFFFFFFFFFFFFFFFFFFFFFFFFFFFFFFFFFFFFFFFFFFFFEFFFFFC2F DUP1 PUSH2 0xDB7 JUMPI PUSH2 0xDB6 PUSH2 0x1BEE JUMP JUMPDEST JUMPDEST DUP3 PUSH1 0x1 PUSH1 0x4 DUP2 LT PUSH2 0xDCB JUMPI PUSH2 0xDCA PUSH2 0x1D75 JUMP JUMPDEST JUMPDEST PUSH1 0x20 MUL ADD MLOAD PUSH32 0xFFFFFFFFFFFFFFFFFFFFFFFFFFFFFFFFFFFFFFFFFFFFFFFFFFFFFFFEFFFFFC2F PUSH2 0xDFB SWAP2 SWAP1 PUSH2 0x1CC4 JUMP JUMPDEST DUP4 PUSH1 0x3 PUSH1 0x4 DUP2 LT PUSH2 0xE0F JUMPI PUSH2 0xE0E PUSH2 0x1D75 JUMP JUMPDEST JUMPDEST PUSH1 0x20 MUL ADD MLOAD ADDMOD DUP2 PUSH1 0x1 PUSH1 0x4 DUP2 LT PUSH2 0xE29 JUMPI PUSH2 0xE28 PUSH2 0x1D75 JUMP JUMPDEST JUMPDEST PUSH1 0x20 MUL ADD DUP2 DUP2 MSTORE POP POP PUSH32 0xFFFFFFFFFFFFFFFFFFFFFFFFFFFFFFFFFFFFFFFFFFFFFFFFFFFFFFFEFFFFFC2F DUP1 PUSH2 0xE61 JUMPI PUSH2 0xE60 PUSH2 0x1BEE JUMP JUMPDEST JUMPDEST DUP2 PUSH1 0x0 PUSH1 0x4 DUP2 LT PUSH2 0xE75 JUMPI PUSH2 0xE74 PUSH2 0x1D75 JUMP JUMPDEST JUMPDEST PUSH1 0x20 MUL ADD MLOAD DUP3 PUSH1 0x0 PUSH1 0x4 DUP2 LT PUSH2 0xE8E JUMPI PUSH2 0xE8D PUSH2 0x1D75 JUMP JUMPDEST JUMPDEST PUSH1 0x20 MUL ADD MLOAD MULMOD DUP2 PUSH1 0x2 PUSH1 0x4 DUP2 LT PUSH2 0xEA8 JUMPI PUSH2 0xEA7 PUSH2 0x1D75 JUMP JUMPDEST JUMPDEST PUSH1 0x20 MUL ADD DUP2 DUP2 MSTORE POP POP PUSH32 0xFFFFFFFFFFFFFFFFFFFFFFFFFFFFFFFFFFFFFFFFFFFFFFFFFFFFFFFEFFFFFC2F DUP1 PUSH2 0xEE0 JUMPI PUSH2 0xEDF PUSH2 0x1BEE JUMP JUMPDEST JUMPDEST DUP2 PUSH1 0x0 PUSH1 0x4 DUP2 LT PUSH2 0xEF4 JUMPI PUSH2 0xEF3 PUSH2 0x1D75 JUMP JUMPDEST JUMPDEST PUSH1 0x20 MUL ADD MLOAD DUP3 PUSH1 0x2 PUSH1 0x4 DUP2 LT PUSH2 0xF0D JUMPI PUSH2 0xF0C PUSH2 0x1D75 JUMP JUMPDEST JUMPDEST PUSH1 0x20 MUL ADD MLOAD MULMOD DUP2 PUSH1 0x3 PUSH1 0x4 DUP2 LT PUSH2 0xF27 JUMPI PUSH2 0xF26 PUSH2 0x1D75 JUMP JUMPDEST JUMPDEST PUSH1 0x20 MUL ADD DUP2 DUP2 MSTORE POP POP PUSH1 0x0 PUSH32 0xFFFFFFFFFFFFFFFFFFFFFFFFFFFFFFFFFFFFFFFFFFFFFFFFFFFFFFFEFFFFFC2F DUP1 PUSH2 0xF61 JUMPI PUSH2 0xF60 PUSH2 0x1BEE JUMP JUMPDEST JUMPDEST DUP3 PUSH1 0x3 PUSH1 0x4 DUP2 LT PUSH2 0xF75 JUMPI PUSH2 0xF74 PUSH2 0x1D75 JUMP JUMPDEST JUMPDEST PUSH1 0x20 MUL ADD MLOAD PUSH32 0xFFFFFFFFFFFFFFFFFFFFFFFFFFFFFFFFFFFFFFFFFFFFFFFFFFFFFFFEFFFFFC2F PUSH2 0xFA5 SWAP2 SWAP1 PUSH2 0x1CC4 JUMP JUMPDEST PUSH32 0xFFFFFFFFFFFFFFFFFFFFFFFFFFFFFFFFFFFFFFFFFFFFFFFFFFFFFFFEFFFFFC2F DUP1 PUSH2 0xFD4 JUMPI PUSH2 0xFD3 PUSH2 0x1BEE JUMP JUMPDEST JUMPDEST DUP5 PUSH1 0x1 PUSH1 0x4 DUP2 LT PUSH2 0xFE8 JUMPI PUSH2 0xFE7 PUSH2 0x1D75 JUMP JUMPDEST JUMPDEST PUSH1 0x20 MUL ADD MLOAD DUP6 PUSH1 0x1 PUSH1 0x4 DUP2 LT PUSH2 0x1001 JUMPI PUSH2 0x1000 PUSH2 0x1D75 JUMP JUMPDEST JUMPDEST PUSH1 0x20 MUL ADD MLOAD MULMOD ADDMOD SWAP1 POP PUSH32 0xFFFFFFFFFFFFFFFFFFFFFFFFFFFFFFFFFFFFFFFFFFFFFFFFFFFFFFFEFFFFFC2F DUP1 PUSH2 0x1039 JUMPI PUSH2 0x1038 PUSH2 0x1BEE JUMP JUMPDEST JUMPDEST PUSH32 0xFFFFFFFFFFFFFFFFFFFFFFFFFFFFFFFFFFFFFFFFFFFFFFFFFFFFFFFEFFFFFC2F DUP1 PUSH2 0x1068 JUMPI PUSH2 0x1067 PUSH2 0x1BEE JUMP JUMPDEST JUMPDEST PUSH32 0xFFFFFFFFFFFFFFFFFFFFFFFFFFFFFFFFFFFFFFFFFFFFFFFFFFFFFFFEFFFFFC2F DUP1 PUSH2 0x1097 JUMPI PUSH2 0x1096 PUSH2 0x1BEE JUMP JUMPDEST JUMPDEST DUP5 PUSH1 0x2 PUSH1 0x4 DUP2 LT PUSH2 0x10AB JUMPI PUSH2 0x10AA PUSH2 0x1D75 JUMP JUMPDEST JUMPDEST PUSH1 0x20 MUL ADD MLOAD DUP7 PUSH1 0x0 PUSH1 0x4 DUP2 LT PUSH2 0x10C4 JUMPI PUSH2 0x10C3 PUSH2 0x1D75 JUMP JUMPDEST JUMPDEST PUSH1 0x20 MUL ADD MLOAD MULMOD PUSH1 0x2 MULMOD PUSH32 0xFFFFFFFFFFFFFFFFFFFFFFFFFFFFFFFFFFFFFFFFFFFFFFFFFFFFFFFEFFFFFC2F PUSH2 0x10F8 SWAP2 SWAP1 PUSH2 0x1CC4 JUMP JUMPDEST DUP3 ADDMOD SWAP1 POP PUSH1 0x0 PUSH32 0xFFFFFFFFFFFFFFFFFFFFFFFFFFFFFFFFFFFFFFFFFFFFFFFFFFFFFFFEFFFFFC2F DUP1 PUSH2 0x112D JUMPI PUSH2 0x112C PUSH2 0x1BEE JUMP JUMPDEST JUMPDEST PUSH32 0xFFFFFFFFFFFFFFFFFFFFFFFFFFFFFFFFFFFFFFFFFFFFFFFFFFFFFFFEFFFFFC2F DUP1 PUSH2 0x115C JUMPI PUSH2 0x115B PUSH2 0x1BEE JUMP JUMPDEST JUMPDEST DUP4 PUSH32 0xFFFFFFFFFFFFFFFFFFFFFFFFFFFFFFFFFFFFFFFFFFFFFFFFFFFFFFFEFFFFFC2F PUSH2 0x1188 SWAP2 SWAP1 PUSH2 0x1CC4 JUMP JUMPDEST PUSH32 0xFFFFFFFFFFFFFFFFFFFFFFFFFFFFFFFFFFFFFFFFFFFFFFFFFFFFFFFEFFFFFC2F DUP1 PUSH2 0x11B7 JUMPI PUSH2 0x11B6 PUSH2 0x1BEE JUMP JUMPDEST JUMPDEST DUP7 PUSH1 0x2 PUSH1 0x4 DUP2 LT PUSH2 0x11CB JUMPI PUSH2 0x11CA PUSH2 0x1D75 JUMP JUMPDEST JUMPDEST PUSH1 0x20 MUL ADD MLOAD DUP9 PUSH1 0x0 PUSH1 0x4 DUP2 LT PUSH2 0x11E4 JUMPI PUSH2 0x11E3 PUSH2 0x1D75 JUMP JUMPDEST JUMPDEST PUSH1 0x20 MUL ADD MLOAD MULMOD ADDMOD DUP5 PUSH1 0x1 PUSH1 0x4 DUP2 LT PUSH2 0x11FF JUMPI PUSH2 0x11FE PUSH2 0x1D75 JUMP JUMPDEST JUMPDEST PUSH1 0x20 MUL ADD MLOAD MULMOD SWAP1 POP PUSH32 0xFFFFFFFFFFFFFFFFFFFFFFFFFFFFFFFFFFFFFFFFFFFFFFFFFFFFFFFEFFFFFC2F DUP1 PUSH2 0x1236 JUMPI PUSH2 0x1235 PUSH2 0x1BEE JUMP JUMPDEST JUMPDEST PUSH32 0xFFFFFFFFFFFFFFFFFFFFFFFFFFFFFFFFFFFFFFFFFFFFFFFFFFFFFFFEFFFFFC2F DUP1 PUSH2 0x1265 JUMPI PUSH2 0x1264 PUSH2 0x1BEE JUMP JUMPDEST JUMPDEST DUP5 PUSH1 0x3 PUSH1 0x4 DUP2 LT PUSH2 0x1279 JUMPI PUSH2 0x1278 PUSH2 0x1D75 JUMP JUMPDEST JUMPDEST PUSH1 0x20 MUL ADD MLOAD DUP7 PUSH1 0x1 PUSH1 0x4 DUP2 LT PUSH2 0x1292 JUMPI PUSH2 0x1291 PUSH2 0x1D75 JUMP JUMPDEST JUMPDEST PUSH1 0x20 MUL ADD MLOAD MULMOD PUSH32 0xFFFFFFFFFFFFFFFFFFFFFFFFFFFFFFFFFFFFFFFFFFFFFFFFFFFFFFFEFFFFFC2F PUSH2 0x12C3 SWAP2 SWAP1 PUSH2 0x1CC4 JUMP JUMPDEST DUP3 ADDMOD SWAP1 POP PUSH1 0x0 PUSH32 0xFFFFFFFFFFFFFFFFFFFFFFFFFFFFFFFFFFFFFFFFFFFFFFFFFFFFFFFEFFFFFC2F DUP1 PUSH2 0x12F8 JUMPI PUSH2 0x12F7 PUSH2 0x1BEE JUMP JUMPDEST JUMPDEST PUSH32 0xFFFFFFFFFFFFFFFFFFFFFFFFFFFFFFFFFFFFFFFFFFFFFFFFFFFFFFFEFFFFFC2F DUP1 PUSH2 0x1327 JUMPI PUSH2 0x1326 PUSH2 0x1BEE JUMP JUMPDEST JUMPDEST DUP11 DUP15 MULMOD DUP6 PUSH1 0x0 PUSH1 0x4 DUP2 LT PUSH2 0x133E JUMPI PUSH2 0x133D PUSH2 0x1D75 JUMP JUMPDEST JUMPDEST PUSH1 0x20 MUL ADD MLOAD MULMOD SWAP1 POP DUP3 DUP3 DUP3 SWAP8 POP SWAP8 POP SWAP8 POP POP POP POP POP POP JUMPDEST SWAP7 POP SWAP7 POP SWAP7 SWAP4 POP POP POP POP JUMP JUMPDEST PUSH1 0x0 DUP1 PUSH1 0x0 DUP1 DUP5 SUB PUSH2 0x137B JUMPI DUP6 DUP6 DUP6 SWAP3 POP SWAP3 POP SWAP3 POP PUSH2 0x17D5 JUMP JUMPDEST PUSH1 0x0 PUSH32 0xFFFFFFFFFFFFFFFFFFFFFFFFFFFFFFFFFFFFFFFFFFFFFFFFFFFFFFFEFFFFFC2F DUP1 PUSH2 0x13AC JUMPI PUSH2 0x13AB PUSH2 0x1BEE JUMP JUMPDEST JUMPDEST DUP8 DUP9 MULMOD SWAP1 POP PUSH1 0x0 PUSH32 0xFFFFFFFFFFFFFFFFFFFFFFFFFFFFFFFFFFFFFFFFFFFFFFFFFFFFFFFEFFFFFC2F DUP1 PUSH2 0x13E2 JUMPI PUSH2 0x13E1 PUSH2 0x1BEE JUMP JUMPDEST JUMPDEST DUP8 DUP9 MULMOD SWAP1 POP PUSH1 0x0 PUSH32 0xFFFFFFFFFFFFFFFFFFFFFFFFFFFFFFFFFFFFFFFFFFFFFFFFFFFFFFFEFFFFFC2F DUP1 PUSH2 0x1418 JUMPI PUSH2 0x1417 PUSH2 0x1BEE JUMP JUMPDEST JUMPDEST DUP8 DUP9 MULMOD SWAP1 POP PUSH1 0x0 PUSH32 0xFFFFFFFFFFFFFFFFFFFFFFFFFFFFFFFFFFFFFFFFFFFFFFFFFFFFFFFEFFFFFC2F DUP1 PUSH2 0x144E JUMPI PUSH2 0x144D PUSH2 0x1BEE JUMP JUMPDEST JUMPDEST PUSH32 0xFFFFFFFFFFFFFFFFFFFFFFFFFFFFFFFFFFFFFFFFFFFFFFFFFFFFFFFEFFFFFC2F DUP1 PUSH2 0x147D JUMPI PUSH2 0x147C PUSH2 0x1BEE JUMP JUMPDEST JUMPDEST DUP5 DUP13 MULMOD PUSH1 0x4 MULMOD SWAP1 POP PUSH1 0x0 PUSH32 0xFFFFFFFFFFFFFFFFFFFFFFFFFFFFFFFFFFFFFFFFFFFFFFFFFFFFFFFEFFFFFC2F DUP1 PUSH2 0x14B6 JUMPI PUSH2 0x14B5 PUSH2 0x1BEE JUMP JUMPDEST JUMPDEST PUSH32 0xFFFFFFFFFFFFFFFFFFFFFFFFFFFFFFFFFFFFFFFFFFFFFFFFFFFFFFFEFFFFFC2F DUP1 PUSH2 0x14E5 JUMPI PUSH2 0x14E4 PUSH2 0x1BEE JUMP JUMPDEST JUMPDEST PUSH32 0xFFFFFFFFFFFFFFFFFFFFFFFFFFFFFFFFFFFFFFFFFFFFFFFFFFFFFFFEFFFFFC2F DUP1 PUSH2 0x1514 JUMPI PUSH2 0x1513 PUSH2 0x1BEE JUMP JUMPDEST JUMPDEST DUP6 DUP7 MULMOD PUSH1 0x0 MULMOD PUSH32 0xFFFFFFFFFFFFFFFFFFFFFFFFFFFFFFFFFFFFFFFFFFFFFFFFFFFFFFFEFFFFFC2F DUP1 PUSH2 0x1549 JUMPI PUSH2 0x1548 PUSH2 0x1BEE JUMP JUMPDEST JUMPDEST DUP8 PUSH1 0x3 MULMOD ADDMOD SWAP1 POP PUSH32 0xFFFFFFFFFFFFFFFFFFFFFFFFFFFFFFFFFFFFFFFFFFFFFFFFFFFFFFFEFFFFFC2F DUP1 PUSH2 0x157F JUMPI PUSH2 0x157E PUSH2 0x1BEE JUMP JUMPDEST JUMPDEST PUSH32 0xFFFFFFFFFFFFFFFFFFFFFFFFFFFFFFFFFFFFFFFFFFFFFFFFFFFFFFFEFFFFFC2F DUP1 PUSH2 0x15AE JUMPI PUSH2 0x15AD PUSH2 0x1BEE JUMP JUMPDEST JUMPDEST DUP4 DUP5 ADDMOD PUSH32 0xFFFFFFFFFFFFFFFFFFFFFFFFFFFFFFFFFFFFFFFFFFFFFFFFFFFFFFFEFFFFFC2F PUSH2 0x15DC SWAP2 SWAP1 PUSH2 0x1CC4 JUMP JUMPDEST PUSH32 0xFFFFFFFFFFFFFFFFFFFFFFFFFFFFFFFFFFFFFFFFFFFFFFFFFFFFFFFEFFFFFC2F DUP1 PUSH2 0x160B JUMPI PUSH2 0x160A PUSH2 0x1BEE JUMP JUMPDEST JUMPDEST DUP4 DUP5 MULMOD ADDMOD SWAP5 POP PUSH32 0xFFFFFFFFFFFFFFFFFFFFFFFFFFFFFFFFFFFFFFFFFFFFFFFFFFFFFFFEFFFFFC2F DUP1 PUSH2 0x1640 JUMPI PUSH2 0x163F PUSH2 0x1BEE JUMP JUMPDEST JUMPDEST PUSH32 0xFFFFFFFFFFFFFFFFFFFFFFFFFFFFFFFFFFFFFFFFFFFFFFFFFFFFFFFEFFFFFC2F DUP1 PUSH2 0x166F JUMPI PUSH2 0x166E PUSH2 0x1BEE JUMP JUMPDEST JUMPDEST PUSH32 0xFFFFFFFFFFFFFFFFFFFFFFFFFFFFFFFFFFFFFFFFFFFFFFFFFFFFFFFEFFFFFC2F DUP1 PUSH2 0x169E JUMPI PUSH2 0x169D PUSH2 0x1BEE JUMP JUMPDEST JUMPDEST DUP7 DUP8 MULMOD PUSH1 0x8 MULMOD PUSH32 0xFFFFFFFFFFFFFFFFFFFFFFFFFFFFFFFFFFFFFFFFFFFFFFFFFFFFFFFEFFFFFC2F PUSH2 0x16CF SWAP2 SWAP1 PUSH2 0x1CC4 JUMP JUMPDEST PUSH32 0xFFFFFFFFFFFFFFFFFFFFFFFFFFFFFFFFFFFFFFFFFFFFFFFFFFFFFFFEFFFFFC2F DUP1 PUSH2 0x16FE JUMPI PUSH2 0x16FD PUSH2 0x1BEE JUMP JUMPDEST JUMPDEST PUSH32 0xFFFFFFFFFFFFFFFFFFFFFFFFFFFFFFFFFFFFFFFFFFFFFFFFFFFFFFFEFFFFFC2F DUP1 PUSH2 0x172D JUMPI PUSH2 0x172C PUSH2 0x1BEE JUMP JUMPDEST JUMPDEST DUP9 PUSH32 0xFFFFFFFFFFFFFFFFFFFFFFFFFFFFFFFFFFFFFFFFFFFFFFFFFFFFFFFEFFFFFC2F PUSH2 0x1759 SWAP2 SWAP1 PUSH2 0x1CC4 JUMP JUMPDEST DUP7 ADDMOD DUP5 MULMOD ADDMOD SWAP4 POP PUSH32 0xFFFFFFFFFFFFFFFFFFFFFFFFFFFFFFFFFFFFFFFFFFFFFFFFFFFFFFFEFFFFFC2F DUP1 PUSH2 0x178F JUMPI PUSH2 0x178E PUSH2 0x1BEE JUMP JUMPDEST JUMPDEST PUSH32 0xFFFFFFFFFFFFFFFFFFFFFFFFFFFFFFFFFFFFFFFFFFFFFFFFFFFFFFFEFFFFFC2F DUP1 PUSH2 0x17BE JUMPI PUSH2 0x17BD PUSH2 0x1BEE JUMP JUMPDEST JUMPDEST DUP11 DUP13 MULMOD PUSH1 0x2 MULMOD SWAP3 POP DUP5 DUP5 DUP5 SWAP8 POP SWAP8 POP SWAP8 POP POP POP POP POP POP JUMPDEST SWAP4 POP SWAP4 POP SWAP4 SWAP1 POP JUMP JUMPDEST PUSH1 0x0 DUP1 PUSH1 0x0 PUSH2 0x180D DUP5 PUSH32 0xFFFFFFFFFFFFFFFFFFFFFFFFFFFFFFFFFFFFFFFFFFFFFFFFFFFFFFFEFFFFFC2F PUSH2 0x53D JUMP JUMPDEST SWAP1 POP PUSH1 0x0 PUSH32 0xFFFFFFFFFFFFFFFFFFFFFFFFFFFFFFFFFFFFFFFFFFFFFFFFFFFFFFFEFFFFFC2F DUP1 PUSH2 0x1840 JUMPI PUSH2 0x183F PUSH2 0x1BEE JUMP JUMPDEST JUMPDEST DUP3 DUP4 MULMOD SWAP1 POP PUSH1 0x0 PUSH32 0xFFFFFFFFFFFFFFFFFFFFFFFFFFFFFFFFFFFFFFFFFFFFFFFFFFFFFFFEFFFFFC2F DUP1 PUSH2 0x1876 JUMPI PUSH2 0x1875 PUSH2 0x1BEE JUMP JUMPDEST JUMPDEST DUP3 DUP10 MULMOD SWAP1 POP PUSH1 0x0 PUSH32 0xFFFFFFFFFFFFFFFFFFFFFFFFFFFFFFFFFFFFFFFFFFFFFFFFFFFFFFFEFFFFFC2F DUP1 PUSH2 0x18AC JUMPI PUSH2 0x18AB PUSH2 0x1BEE JUMP JUMPDEST JUMPDEST PUSH32 0xFFFFFFFFFFFFFFFFFFFFFFFFFFFFFFFFFFFFFFFFFFFFFFFFFFFFFFFEFFFFFC2F DUP1 PUSH2 0x18DB JUMPI PUSH2 0x18DA PUSH2 0x1BEE JUMP JUMPDEST JUMPDEST DUP5 DUP7 MULMOD DUP10 MULMOD SWAP1 POP DUP2 DUP2 SWAP6 POP SWAP6 POP POP POP POP POP SWAP4 POP SWAP4 SWAP2 POP POP JUMP JUMPDEST PUSH1 0x40 MLOAD DUP1 PUSH1 0x80 ADD PUSH1 0x40 MSTORE DUP1 PUSH1 0x4 SWAP1 PUSH1 0x20 DUP3 MUL DUP1 CALLDATASIZE DUP4 CALLDATACOPY DUP1 DUP3 ADD SWAP2 POP POP SWAP1 POP POP SWAP1 JUMP JUMPDEST PUSH1 0x0 DUP1 REVERT JUMPDEST PUSH1 0x0 DUP2 SWAP1 POP SWAP2 SWAP1 POP JUMP JUMPDEST PUSH2 0x192E DUP2 PUSH2 0x191B JUMP JUMPDEST DUP2 EQ PUSH2 0x1939 JUMPI PUSH1 0x0 DUP1 REVERT JUMPDEST POP JUMP JUMPDEST PUSH1 0x0 DUP2 CALLDATALOAD SWAP1 POP PUSH2 0x194B DUP2 PUSH2 0x1925 JUMP JUMPDEST SWAP3 SWAP2 POP POP JUMP JUMPDEST PUSH1 0x0 PUSH1 0xFF DUP3 AND SWAP1 POP SWAP2 SWAP1 POP JUMP JUMPDEST PUSH2 0x1967 DUP2 PUSH2 0x1951 JUMP JUMPDEST DUP2 EQ PUSH2 0x1972 JUMPI PUSH1 0x0 DUP1 REVERT JUMPDEST POP JUMP JUMPDEST PUSH1 0x0 DUP2 CALLDATALOAD SWAP1 POP PUSH2 0x1984 DUP2 PUSH2 0x195E JUMP JUMPDEST SWAP3 SWAP2 POP POP JUMP JUMPDEST PUSH1 0x0 DUP1 PUSH1 0x0 DUP1 PUSH1 0x80 DUP6 DUP8 SUB SLT ISZERO PUSH2 0x19A4 JUMPI PUSH2 0x19A3 PUSH2 0x1916 JUMP JUMPDEST JUMPDEST PUSH1 0x0 PUSH2 0x19B2 DUP8 DUP3 DUP9 ADD PUSH2 0x193C JUMP JUMPDEST SWAP5 POP POP PUSH1 0x20 PUSH2 0x19C3 DUP8 DUP3 DUP9 ADD PUSH2 0x1975 JUMP JUMPDEST SWAP4 POP POP PUSH1 0x40 PUSH2 0x19D4 DUP8 DUP3 DUP9 ADD PUSH2 0x193C JUMP JUMPDEST SWAP3 POP POP PUSH1 0x60 PUSH2 0x19E5 DUP8 DUP3 DUP9 ADD PUSH2 0x193C JUMP JUMPDEST SWAP2 POP POP SWAP3 SWAP6 SWAP2 SWAP5 POP SWAP3 POP JUMP JUMPDEST PUSH1 0x0 DUP2 MLOAD SWAP1 POP SWAP2 SWAP1 POP JUMP JUMPDEST PUSH1 0x0 DUP3 DUP3 MSTORE PUSH1 0x20 DUP3 ADD SWAP1 POP SWAP3 SWAP2 POP POP JUMP JUMPDEST PUSH1 0x0 JUMPDEST DUP4 DUP2 LT ISZERO PUSH2 0x1A2B JUMPI DUP1 DUP3 ADD MLOAD DUP2 DUP5 ADD MSTORE PUSH1 0x20 DUP2 ADD SWAP1 POP PUSH2 0x1A10 JUMP JUMPDEST PUSH1 0x0 DUP5 DUP5 ADD MSTORE POP POP POP POP JUMP JUMPDEST PUSH1 0x0 PUSH1 0x1F NOT PUSH1 0x1F DUP4 ADD AND SWAP1 POP SWAP2 SWAP1 POP JUMP JUMPDEST PUSH1 0x0 PUSH2 0x1A53 DUP3 PUSH2 0x19F1 JUMP JUMPDEST PUSH2 0x1A5D DUP2 DUP6 PUSH2 0x19FC JUMP JUMPDEST SWAP4 POP PUSH2 0x1A6D DUP2 DUP6 PUSH1 0x20 DUP7 ADD PUSH2 0x1A0D JUMP JUMPDEST PUSH2 0x1A76 DUP2 PUSH2 0x1A37 JUMP JUMPDEST DUP5 ADD SWAP2 POP POP SWAP3 SWAP2 POP POP JUMP JUMPDEST PUSH1 0x0 PUSH1 0x20 DUP3 ADD SWAP1 POP DUP2 DUP2 SUB PUSH1 0x0 DUP4 ADD MSTORE PUSH2 0x1A9B DUP2 DUP5 PUSH2 0x1A48 JUMP JUMPDEST SWAP1 POP SWAP3 SWAP2 POP POP JUMP JUMPDEST PUSH1 0x0 DUP2 MLOAD SWAP1 POP SWAP2 SWAP1 POP JUMP JUMPDEST PUSH1 0x0 DUP2 SWAP1 POP SWAP3 SWAP2 POP POP JUMP JUMPDEST PUSH1 0x0 PUSH2 0x1AC4 DUP3 PUSH2 0x1AA3 JUMP JUMPDEST PUSH2 0x1ACE DUP2 DUP6 PUSH2 0x1AAE JUMP JUMPDEST SWAP4 POP PUSH2 0x1ADE DUP2 DUP6 PUSH1 0x20 DUP7 ADD PUSH2 0x1A0D JUMP JUMPDEST DUP1 DUP5 ADD SWAP2 POP POP SWAP3 SWAP2 POP POP JUMP JUMPDEST PUSH1 0x0 DUP2 SWAP1 POP SWAP2 SWAP1 POP JUMP JUMPDEST PUSH2 0x1B05 PUSH2 0x1B00 DUP3 PUSH2 0x191B JUMP JUMPDEST PUSH2 0x1AEA JUMP JUMPDEST DUP3 MSTORE POP POP JUMP JUMPDEST PUSH1 0x0 PUSH2 0x1B17 DUP3 DUP6 PUSH2 0x1AB9 JUMP JUMPDEST SWAP2 POP PUSH2 0x1B23 DUP3 DUP5 PUSH2 0x1AF4 JUMP JUMPDEST PUSH1 0x20 DUP3 ADD SWAP2 POP DUP2 SWAP1 POP SWAP4 SWAP3 POP POP POP JUMP JUMPDEST PUSH32 0x4E487B7100000000000000000000000000000000000000000000000000000000 PUSH1 0x0 MSTORE PUSH1 0x11 PUSH1 0x4 MSTORE PUSH1 0x24 PUSH1 0x0 REVERT JUMPDEST PUSH1 0x0 PUSH2 0x1B6D DUP3 PUSH2 0x1951 JUMP JUMPDEST SWAP2 POP PUSH2 0x1B78 DUP4 PUSH2 0x1951 JUMP JUMPDEST SWAP3 POP DUP3 DUP3 SUB SWAP1 POP PUSH1 0xFF DUP2 GT ISZERO PUSH2 0x1B91 JUMPI PUSH2 0x1B90 PUSH2 0x1B33 JUMP JUMPDEST JUMPDEST SWAP3 SWAP2 POP POP JUMP JUMPDEST PUSH1 0x0 DUP2 SWAP1 POP SWAP2 SWAP1 POP JUMP JUMPDEST PUSH1 0x0 DUP2 SWAP1 POP SWAP2 SWAP1 POP JUMP JUMPDEST PUSH2 0x1BBC PUSH2 0x1BB7 DUP3 PUSH2 0x1B97 JUMP JUMPDEST PUSH2 0x1BA1 JUMP JUMPDEST DUP3 MSTORE POP POP JUMP JUMPDEST PUSH1 0x0 PUSH2 0x1BCE DUP3 DUP6 PUSH2 0x1BAB JUMP JUMPDEST PUSH1 0x20 DUP3 ADD SWAP2 POP PUSH2 0x1BDE DUP3 DUP5 PUSH2 0x1BAB JUMP JUMPDEST PUSH1 0x20 DUP3 ADD SWAP2 POP DUP2 SWAP1 POP SWAP4 SWAP3 POP POP POP JUMP JUMPDEST PUSH32 0x4E487B7100000000000000000000000000000000000000000000000000000000 PUSH1 0x0 MSTORE PUSH1 0x12 PUSH1 0x4 MSTORE PUSH1 0x24 PUSH1 0x0 REVERT JUMPDEST PUSH1 0x0 PUSH2 0x1C28 DUP3 PUSH2 0x1B97 JUMP JUMPDEST SWAP2 POP PUSH2 0x1C33 DUP4 PUSH2 0x1B97 JUMP JUMPDEST SWAP3 POP DUP3 DUP3 MUL PUSH2 0x1C41 DUP2 PUSH2 0x1B97 JUMP JUMPDEST SWAP2 POP DUP3 DUP3 DIV DUP5 EQ DUP4 ISZERO OR PUSH2 0x1C58 JUMPI PUSH2 0x1C57 PUSH2 0x1B33 JUMP JUMPDEST JUMPDEST POP SWAP3 SWAP2 POP POP JUMP JUMPDEST PUSH1 0x0 PUSH2 0x1C6A DUP3 PUSH2 0x1B97 JUMP JUMPDEST SWAP2 POP PUSH2 0x1C75 DUP4 PUSH2 0x1B97 JUMP JUMPDEST SWAP3 POP DUP3 DUP3 ADD SWAP1 POP DUP1 DUP3 GT ISZERO PUSH2 0x1C8D JUMPI PUSH2 0x1C8C PUSH2 0x1B33 JUMP JUMPDEST JUMPDEST SWAP3 SWAP2 POP POP JUMP JUMPDEST PUSH1 0x0 PUSH2 0x1C9E DUP3 PUSH2 0x1B97 JUMP JUMPDEST SWAP2 POP PUSH2 0x1CA9 DUP4 PUSH2 0x1B97 JUMP JUMPDEST SWAP3 POP DUP3 PUSH2 0x1CB9 JUMPI PUSH2 0x1CB8 PUSH2 0x1BEE JUMP JUMPDEST JUMPDEST DUP3 DUP3 DIV SWAP1 POP SWAP3 SWAP2 POP POP JUMP JUMPDEST PUSH1 0x0 PUSH2 0x1CCF DUP3 PUSH2 0x1B97 JUMP JUMPDEST SWAP2 POP PUSH2 0x1CDA DUP4 PUSH2 0x1B97 JUMP JUMPDEST SWAP3 POP DUP3 DUP3 SUB SWAP1 POP DUP2 DUP2 GT ISZERO PUSH2 0x1CF2 JUMPI PUSH2 0x1CF1 PUSH2 0x1B33 JUMP JUMPDEST JUMPDEST SWAP3 SWAP2 POP POP JUMP JUMPDEST PUSH1 0x0 DUP3 DUP3 MSTORE PUSH1 0x20 DUP3 ADD SWAP1 POP SWAP3 SWAP2 POP POP JUMP JUMPDEST PUSH32 0x496E76616C6964206E756D626572000000000000000000000000000000000000 PUSH1 0x0 DUP3 ADD MSTORE POP JUMP JUMPDEST PUSH1 0x0 PUSH2 0x1D3F PUSH1 0xE DUP4 PUSH2 0x1CF8 JUMP JUMPDEST SWAP2 POP PUSH2 0x1D4A DUP3 PUSH2 0x1D09 JUMP JUMPDEST PUSH1 0x20 DUP3 ADD SWAP1 POP SWAP2 SWAP1 POP JUMP JUMPDEST PUSH1 0x0 PUSH1 0x20 DUP3 ADD SWAP1 POP DUP2 DUP2 SUB PUSH1 0x0 DUP4 ADD MSTORE PUSH2 0x1D6E DUP2 PUSH2 0x1D32 JUMP JUMPDEST SWAP1 POP SWAP2 SWAP1 POP JUMP JUMPDEST PUSH32 0x4E487B7100000000000000000000000000000000000000000000000000000000 PUSH1 0x0 MSTORE PUSH1 0x32 PUSH1 0x4 MSTORE PUSH1 0x24 PUSH1 0x0 REVERT JUMPDEST PUSH32 0x557365206A6163446F75626C652066756E6374696F6E20696E73746561640000 PUSH1 0x0 DUP3 ADD MSTORE POP JUMP JUMPDEST PUSH1 0x0 PUSH2 0x1DDA PUSH1 0x1E DUP4 PUSH2 0x1CF8 JUMP JUMPDEST SWAP2 POP PUSH2 0x1DE5 DUP3 PUSH2 0x1DA4 JUMP JUMPDEST PUSH1 0x20 DUP3 ADD SWAP1 POP SWAP2 SWAP1 POP JUMP JUMPDEST PUSH1 0x0 PUSH1 0x20 DUP3 ADD SWAP1 POP DUP2 DUP2 SUB PUSH1 0x0 DUP4 ADD MSTORE PUSH2 0x1E09 DUP2 PUSH2 0x1DCD JUMP JUMPDEST SWAP1 POP SWAP2 SWAP1 POP JUMP INVALID LOG2 PUSH5 0x6970667358 0x22 SLT KECCAK256 0xB8 LT 0xCD 0xE1 SWAP8 PC 0xCC 0x21 0x2B 0x24 0xCE PUSH1 0xB6 0x2B 0x22 NOT 0x26 DUP9 PUSH3 0xF8BA68 SWAP5 PUSH25 0xAC7E2BA2AE76707964736F6C63430008130033000000000000 "},"methodIdentifiers":{"recoverPersonalSignPublicKey(bytes32,uint8,bytes32,bytes32)":"62d5fa82"}}}}}