{"contracts/LNBridge.sol":{"LNBridge":{"abi":[{"inputs":[{"internalType":"address","name":"_parseBitcoinRawTx","type":"address"}],"stateMutability":"nonpayable","type":"constructor"},{"inputs":[],"name":"bridge","outputs":[{"internalType":"bytes32","name":"fundingTxId","type":"bytes32"},{"internalType":"bytes32","name":"pkProver","type":"bytes32"},{"internalType":"bytes32","name":"pkVerifier","type":"bytes32"},{"internalType":"uint256","name":"index","type":"uint256"},{"internalType":"uint256","name":"timelock","type":"uint256"},{"internalType":"uint256","name":"timelock_dispute","type":"uint256"}],"stateMutability":"view","type":"function"},{"inputs":[{"internalType":"bytes","name":"rawTxP_locked","type":"bytes"},{"internalType":"bytes","name":"sigV","type":"bytes"},{"internalType":"bytes","name":"rawTxV_unlocked","type":"bytes"},{"internalType":"bytes","name":"sigP","type":"bytes"}],"name":"dispute","outputs":[],"stateMutability":"nonpayable","type":"function"},{"inputs":[{"internalType":"bytes","name":"oldRevSecret","type":"bytes"},{"internalType":"bytes","name":"rawTxP_unlocked","type":"bytes"},{"internalType":"bytes","name":"sigV","type":"bytes"}],"name":"resolveDispute","outputs":[],"stateMutability":"nonpayable","type":"function"},{"inputs":[],"name":"settle","outputs":[],"stateMutability":"nonpayable","type":"function"},{"inputs":[{"internalType":"bytes32","name":"_fundingTxId","type":"bytes32"},{"internalType":"bytes32","name":"_pkProver","type":"bytes32"},{"internalType":"bytes32","name":"_pkVerifier","type":"bytes32"},{"internalType":"uint256","name":"_index","type":"uint256"},{"internalType":"uint256","name":"_timelock","type":"uint256"}],"name":"setup","outputs":[],"stateMutability":"nonpayable","type":"function"},{"inputs":[{"internalType":"bytes","name":"rawTxP_unlocked","type":"bytes"},{"internalType":"bytes","name":"sigV","type":"bytes"},{"internalType":"bytes","name":"rawTxV_unlocked","type":"bytes"},{"internalType":"bytes","name":"sigP","type":"bytes"}],"name":"submitProof","outputs":[],"stateMutability":"nonpayable","type":"function"}],"evm":{"bytecode":{"linkReferences":{},"object":"608060405234801561001057600080fd5b50604051610705380380610705833981810160405281019061003291906100dc565b80600660006101000a81548173ffffffffffffffffffffffffffffffffffffffff021916908373ffffffffffffffffffffffffffffffffffffffff16021790555050610109565b600080fd5b600073ffffffffffffffffffffffffffffffffffffffff82169050919050565b60006100a98261007e565b9050919050565b6100b98161009e565b81146100c457600080fd5b50565b6000815190506100d6816100b0565b92915050565b6000602082840312156100f2576100f1610079565b5b6000610100848285016100c7565b91505092915050565b6105ed806101186000396000f3fe608060405234801561001057600080fd5b50600436106100625760003560e01c806306ac0e261461006757806311da60b4146100835780633740d2491461008d57806343f104d2146100a957806379a85bd9146100c5578063e78cea92146100e1575b600080fd5b610081600480360381019061007c91906101f9565b610104565b005b61008b61013c565b005b6100a760048036038101906100a291906103ba565b61013e565b005b6100c360048036038101906100be91906103ba565b610144565b005b6100df60048036038101906100da9190610491565b61014a565b005b6100e961014f565b6040516100fb96959493929190610556565b60405180910390f35b846000800181905550836000600101819055508260006002018190555081600060030181905550806000600401819055505050505050565b565b50505050565b50505050565b505050565b60008060000154908060010154908060020154908060030154908060040154908060050154905086565b6000604051905090565b600080fd5b600080fd5b6000819050919050565b6101a08161018d565b81146101ab57600080fd5b50565b6000813590506101bd81610197565b92915050565b6000819050919050565b6101d6816101c3565b81146101e157600080fd5b50565b6000813590506101f3816101cd565b92915050565b600080600080600060a0868803121561021557610214610183565b5b6000610223888289016101ae565b9550506020610234888289016101ae565b9450506040610245888289016101ae565b9350506060610256888289016101e4565b9250506080610267888289016101e4565b9150509295509295909350565b600080fd5b600080fd5b6000601f19601f8301169050919050565b7f4e487b7100000000000000000000000000000000000000000000000000000000600052604160045260246000fd5b6102c78261027e565b810181811067ffffffffffffffff821117156102e6576102e561028f565b5b80604052505050565b60006102f9610179565b905061030582826102be565b919050565b600067ffffffffffffffff8211156103255761032461028f565b5b61032e8261027e565b9050602081019050919050565b82818337600083830152505050565b600061035d6103588461030a565b6102ef565b90508281526020810184848401111561037957610378610279565b5b61038484828561033b565b509392505050565b600082601f8301126103a1576103a0610274565b5b81356103b184826020860161034a565b91505092915050565b600080600080608085870312156103d4576103d3610183565b5b600085013567ffffffffffffffff8111156103f2576103f1610188565b5b6103fe8782880161038c565b945050602085013567ffffffffffffffff81111561041f5761041e610188565b5b61042b8782880161038c565b935050604085013567ffffffffffffffff81111561044c5761044b610188565b5b6104588782880161038c565b925050606085013567ffffffffffffffff81111561047957610478610188565b5b6104858782880161038c565b91505092959194509250565b6000806000606084860312156104aa576104a9610183565b5b600084013567ffffffffffffffff8111156104c8576104c7610188565b5b6104d48682870161038c565b935050602084013567ffffffffffffffff8111156104f5576104f4610188565b5b6105018682870161038c565b925050604084013567ffffffffffffffff81111561052257610521610188565b5b61052e8682870161038c565b9150509250925092565b6105418161018d565b82525050565b610550816101c3565b82525050565b600060c08201905061056b6000830189610538565b6105786020830188610538565b6105856040830187610538565b6105926060830186610547565b61059f6080830185610547565b6105ac60a0830184610547565b97965050505050505056fea2646970667358221220b573e599dda9906826d09bf252882bc8ba563cf80f6d686af96fcf801cbcc43364736f6c63430008130033","opcodes":"PUSH1 0x80 PUSH1 0x40 MSTORE CALLVALUE DUP1 ISZERO PUSH2 0x10 JUMPI PUSH1 0x0 DUP1 REVERT JUMPDEST POP PUSH1 0x40 MLOAD PUSH2 0x705 CODESIZE SUB DUP1 PUSH2 0x705 DUP4 CODECOPY DUP2 DUP2 ADD PUSH1 0x40 MSTORE DUP2 ADD SWAP1 PUSH2 0x32 SWAP2 SWAP1 PUSH2 0xDC JUMP JUMPDEST DUP1 PUSH1 0x6 PUSH1 0x0 PUSH2 0x100 EXP DUP2 SLOAD DUP2 PUSH20 0xFFFFFFFFFFFFFFFFFFFFFFFFFFFFFFFFFFFFFFFF MUL NOT AND SWAP1 DUP4 PUSH20 0xFFFFFFFFFFFFFFFFFFFFFFFFFFFFFFFFFFFFFFFF AND MUL OR SWAP1 SSTORE POP POP PUSH2 0x109 JUMP JUMPDEST PUSH1 0x0 DUP1 REVERT JUMPDEST PUSH1 0x0 PUSH20 0xFFFFFFFFFFFFFFFFFFFFFFFFFFFFFFFFFFFFFFFF DUP3 AND SWAP1 POP SWAP2 SWAP1 POP JUMP JUMPDEST PUSH1 0x0 PUSH2 0xA9 DUP3 PUSH2 0x7E JUMP JUMPDEST SWAP1 POP SWAP2 SWAP1 POP JUMP JUMPDEST PUSH2 0xB9 DUP2 PUSH2 0x9E JUMP JUMPDEST DUP2 EQ PUSH2 0xC4 JUMPI PUSH1 0x0 DUP1 REVERT JUMPDEST POP JUMP JUMPDEST PUSH1 0x0 DUP2 MLOAD SWAP1 POP PUSH2 0xD6 DUP2 PUSH2 0xB0 JUMP JUMPDEST SWAP3 SWAP2 POP POP JUMP JUMPDEST PUSH1 0x0 PUSH1 0x20 DUP3 DUP5 SUB SLT ISZERO PUSH2 0xF2 JUMPI PUSH2 0xF1 PUSH2 0x79 JUMP JUMPDEST JUMPDEST PUSH1 0x0 PUSH2 0x100 DUP5 DUP3 DUP6 ADD PUSH2 0xC7 JUMP JUMPDEST SWAP2 POP POP SWAP3 SWAP2 POP POP JUMP JUMPDEST PUSH2 0x5ED DUP1 PUSH2 0x118 PUSH1 0x0 CODECOPY PUSH1 0x0 RETURN INVALID PUSH1 0x80 PUSH1 0x40 MSTORE CALLVALUE DUP1 ISZERO PUSH2 0x10 JUMPI PUSH1 0x0 DUP1 REVERT JUMPDEST POP PUSH1 0x4 CALLDATASIZE LT PUSH2 0x62 JUMPI PUSH1 0x0 CALLDATALOAD PUSH1 0xE0 SHR DUP1 PUSH4 0x6AC0E26 EQ PUSH2 0x67 JUMPI DUP1 PUSH4 0x11DA60B4 EQ PUSH2 0x83 JUMPI DUP1 PUSH4 0x3740D249 EQ PUSH2 0x8D JUMPI DUP1 PUSH4 0x43F104D2 EQ PUSH2 0xA9 JUMPI DUP1 PUSH4 0x79A85BD9 EQ PUSH2 0xC5 JUMPI DUP1 PUSH4 0xE78CEA92 EQ PUSH2 0xE1 JUMPI JUMPDEST PUSH1 0x0 DUP1 REVERT JUMPDEST PUSH2 0x81 PUSH1 0x4 DUP1 CALLDATASIZE SUB DUP2 ADD SWAP1 PUSH2 0x7C SWAP2 SWAP1 PUSH2 0x1F9 JUMP JUMPDEST PUSH2 0x104 JUMP JUMPDEST STOP JUMPDEST PUSH2 0x8B PUSH2 0x13C JUMP JUMPDEST STOP JUMPDEST PUSH2 0xA7 PUSH1 0x4 DUP1 CALLDATASIZE SUB DUP2 ADD SWAP1 PUSH2 0xA2 SWAP2 SWAP1 PUSH2 0x3BA JUMP JUMPDEST PUSH2 0x13E JUMP JUMPDEST STOP JUMPDEST PUSH2 0xC3 PUSH1 0x4 DUP1 CALLDATASIZE SUB DUP2 ADD SWAP1 PUSH2 0xBE SWAP2 SWAP1 PUSH2 0x3BA JUMP JUMPDEST PUSH2 0x144 JUMP JUMPDEST STOP JUMPDEST PUSH2 0xDF PUSH1 0x4 DUP1 CALLDATASIZE SUB DUP2 ADD SWAP1 PUSH2 0xDA SWAP2 SWAP1 PUSH2 0x491 JUMP JUMPDEST PUSH2 0x14A JUMP JUMPDEST STOP JUMPDEST PUSH2 0xE9 PUSH2 0x14F JUMP JUMPDEST PUSH1 0x40 MLOAD PUSH2 0xFB SWAP7 SWAP6 SWAP5 SWAP4 SWAP3 SWAP2 SWAP1 PUSH2 0x556 JUMP JUMPDEST PUSH1 0x40 MLOAD DUP1 SWAP2 SUB SWAP1 RETURN JUMPDEST DUP5 PUSH1 0x0 DUP1 ADD DUP2 SWAP1 SSTORE POP DUP4 PUSH1 0x0 PUSH1 0x1 ADD DUP2 SWAP1 SSTORE POP DUP3 PUSH1 0x0 PUSH1 0x2 ADD DUP2 SWAP1 SSTORE POP DUP2 PUSH1 0x0 PUSH1 0x3 ADD DUP2 SWAP1 SSTORE POP DUP1 PUSH1 0x0 PUSH1 0x4 ADD DUP2 SWAP1 SSTORE POP POP POP POP POP POP JUMP JUMPDEST JUMP JUMPDEST POP POP POP POP JUMP JUMPDEST POP POP POP POP JUMP JUMPDEST POP POP POP JUMP JUMPDEST PUSH1 0x0 DUP1 PUSH1 0x0 ADD SLOAD SWAP1 DUP1 PUSH1 0x1 ADD SLOAD SWAP1 DUP1 PUSH1 0x2 ADD SLOAD SWAP1 DUP1 PUSH1 0x3 ADD SLOAD SWAP1 DUP1 PUSH1 0x4 ADD SLOAD SWAP1 DUP1 PUSH1 0x5 ADD SLOAD SWAP1 POP DUP7 JUMP JUMPDEST PUSH1 0x0 PUSH1 0x40 MLOAD SWAP1 POP SWAP1 JUMP JUMPDEST PUSH1 0x0 DUP1 REVERT JUMPDEST PUSH1 0x0 DUP1 REVERT JUMPDEST PUSH1 0x0 DUP2 SWAP1 POP SWAP2 SWAP1 POP JUMP JUMPDEST PUSH2 0x1A0 DUP2 PUSH2 0x18D JUMP JUMPDEST DUP2 EQ PUSH2 0x1AB JUMPI PUSH1 0x0 DUP1 REVERT JUMPDEST POP JUMP JUMPDEST PUSH1 0x0 DUP2 CALLDATALOAD SWAP1 POP PUSH2 0x1BD DUP2 PUSH2 0x197 JUMP JUMPDEST SWAP3 SWAP2 POP POP JUMP JUMPDEST PUSH1 0x0 DUP2 SWAP1 POP SWAP2 SWAP1 POP JUMP JUMPDEST PUSH2 0x1D6 DUP2 PUSH2 0x1C3 JUMP JUMPDEST DUP2 EQ PUSH2 0x1E1 JUMPI PUSH1 0x0 DUP1 REVERT JUMPDEST POP JUMP JUMPDEST PUSH1 0x0 DUP2 CALLDATALOAD SWAP1 POP PUSH2 0x1F3 DUP2 PUSH2 0x1CD JUMP JUMPDEST SWAP3 SWAP2 POP POP JUMP JUMPDEST PUSH1 0x0 DUP1 PUSH1 0x0 DUP1 PUSH1 0x0 PUSH1 0xA0 DUP7 DUP9 SUB SLT ISZERO PUSH2 0x215 JUMPI PUSH2 0x214 PUSH2 0x183 JUMP JUMPDEST JUMPDEST PUSH1 0x0 PUSH2 0x223 DUP9 DUP3 DUP10 ADD PUSH2 0x1AE JUMP JUMPDEST SWAP6 POP POP PUSH1 0x20 PUSH2 0x234 DUP9 DUP3 DUP10 ADD PUSH2 0x1AE JUMP JUMPDEST SWAP5 POP POP PUSH1 0x40 PUSH2 0x245 DUP9 DUP3 DUP10 ADD PUSH2 0x1AE JUMP JUMPDEST SWAP4 POP POP PUSH1 0x60 PUSH2 0x256 DUP9 DUP3 DUP10 ADD PUSH2 0x1E4 JUMP JUMPDEST SWAP3 POP POP PUSH1 0x80 PUSH2 0x267 DUP9 DUP3 DUP10 ADD PUSH2 0x1E4 JUMP JUMPDEST SWAP2 POP POP SWAP3 SWAP6 POP SWAP3 SWAP6 SWAP1 SWAP4 POP JUMP JUMPDEST PUSH1 0x0 DUP1 REVERT JUMPDEST PUSH1 0x0 DUP1 REVERT JUMPDEST PUSH1 0x0 PUSH1 0x1F NOT PUSH1 0x1F DUP4 ADD AND SWAP1 POP SWAP2 SWAP1 POP JUMP JUMPDEST PUSH32 0x4E487B7100000000000000000000000000000000000000000000000000000000 PUSH1 0x0 MSTORE PUSH1 0x41 PUSH1 0x4 MSTORE PUSH1 0x24 PUSH1 0x0 REVERT JUMPDEST PUSH2 0x2C7 DUP3 PUSH2 0x27E JUMP JUMPDEST DUP2 ADD DUP2 DUP2 LT PUSH8 0xFFFFFFFFFFFFFFFF DUP3 GT OR ISZERO PUSH2 0x2E6 JUMPI PUSH2 0x2E5 PUSH2 0x28F JUMP JUMPDEST JUMPDEST DUP1 PUSH1 0x40 MSTORE POP POP POP JUMP JUMPDEST PUSH1 0x0 PUSH2 0x2F9 PUSH2 0x179 JUMP JUMPDEST SWAP1 POP PUSH2 0x305 DUP3 DUP3 PUSH2 0x2BE JUMP JUMPDEST SWAP2 SWAP1 POP JUMP JUMPDEST PUSH1 0x0 PUSH8 0xFFFFFFFFFFFFFFFF DUP3 GT ISZERO PUSH2 0x325 JUMPI PUSH2 0x324 PUSH2 0x28F JUMP JUMPDEST JUMPDEST PUSH2 0x32E DUP3 PUSH2 0x27E JUMP JUMPDEST SWAP1 POP PUSH1 0x20 DUP2 ADD SWAP1 POP SWAP2 SWAP1 POP JUMP JUMPDEST DUP3 DUP2 DUP4 CALLDATACOPY PUSH1 0x0 DUP4 DUP4 ADD MSTORE POP POP POP JUMP JUMPDEST PUSH1 0x0 PUSH2 0x35D PUSH2 0x358 DUP5 PUSH2 0x30A JUMP JUMPDEST PUSH2 0x2EF JUMP JUMPDEST SWAP1 POP DUP3 DUP2 MSTORE PUSH1 0x20 DUP2 ADD DUP5 DUP5 DUP5 ADD GT ISZERO PUSH2 0x379 JUMPI PUSH2 0x378 PUSH2 0x279 JUMP JUMPDEST JUMPDEST PUSH2 0x384 DUP5 DUP3 DUP6 PUSH2 0x33B JUMP JUMPDEST POP SWAP4 SWAP3 POP POP POP JUMP JUMPDEST PUSH1 0x0 DUP3 PUSH1 0x1F DUP4 ADD SLT PUSH2 0x3A1 JUMPI PUSH2 0x3A0 PUSH2 0x274 JUMP JUMPDEST JUMPDEST DUP2 CALLDATALOAD PUSH2 0x3B1 DUP5 DUP3 PUSH1 0x20 DUP7 ADD PUSH2 0x34A JUMP JUMPDEST SWAP2 POP POP SWAP3 SWAP2 POP POP JUMP JUMPDEST PUSH1 0x0 DUP1 PUSH1 0x0 DUP1 PUSH1 0x80 DUP6 DUP8 SUB SLT ISZERO PUSH2 0x3D4 JUMPI PUSH2 0x3D3 PUSH2 0x183 JUMP JUMPDEST JUMPDEST PUSH1 0x0 DUP6 ADD CALLDATALOAD PUSH8 0xFFFFFFFFFFFFFFFF DUP2 GT ISZERO PUSH2 0x3F2 JUMPI PUSH2 0x3F1 PUSH2 0x188 JUMP JUMPDEST JUMPDEST PUSH2 0x3FE DUP8 DUP3 DUP9 ADD PUSH2 0x38C JUMP JUMPDEST SWAP5 POP POP PUSH1 0x20 DUP6 ADD CALLDATALOAD PUSH8 0xFFFFFFFFFFFFFFFF DUP2 GT ISZERO PUSH2 0x41F JUMPI PUSH2 0x41E PUSH2 0x188 JUMP JUMPDEST JUMPDEST PUSH2 0x42B DUP8 DUP3 DUP9 ADD PUSH2 0x38C JUMP JUMPDEST SWAP4 POP POP PUSH1 0x40 DUP6 ADD CALLDATALOAD PUSH8 0xFFFFFFFFFFFFFFFF DUP2 GT ISZERO PUSH2 0x44C JUMPI PUSH2 0x44B PUSH2 0x188 JUMP JUMPDEST JUMPDEST PUSH2 0x458 DUP8 DUP3 DUP9 ADD PUSH2 0x38C JUMP JUMPDEST SWAP3 POP POP PUSH1 0x60 DUP6 ADD CALLDATALOAD PUSH8 0xFFFFFFFFFFFFFFFF DUP2 GT ISZERO PUSH2 0x479 JUMPI PUSH2 0x478 PUSH2 0x188 JUMP JUMPDEST JUMPDEST PUSH2 0x485 DUP8 DUP3 DUP9 ADD PUSH2 0x38C JUMP JUMPDEST SWAP2 POP POP SWAP3 SWAP6 SWAP2 SWAP5 POP SWAP3 POP JUMP JUMPDEST PUSH1 0x0 DUP1 PUSH1 0x0 PUSH1 0x60 DUP5 DUP7 SUB SLT ISZERO PUSH2 0x4AA JUMPI PUSH2 0x4A9 PUSH2 0x183 JUMP JUMPDEST JUMPDEST PUSH1 0x0 DUP5 ADD CALLDATALOAD PUSH8 0xFFFFFFFFFFFFFFFF DUP2 GT ISZERO PUSH2 0x4C8 JUMPI PUSH2 0x4C7 PUSH2 0x188 JUMP JUMPDEST JUMPDEST PUSH2 0x4D4 DUP7 DUP3 DUP8 ADD PUSH2 0x38C JUMP JUMPDEST SWAP4 POP POP PUSH1 0x20 DUP5 ADD CALLDATALOAD PUSH8 0xFFFFFFFFFFFFFFFF DUP2 GT ISZERO PUSH2 0x4F5 JUMPI PUSH2 0x4F4 PUSH2 0x188 JUMP JUMPDEST JUMPDEST PUSH2 0x501 DUP7 DUP3 DUP8 ADD PUSH2 0x38C JUMP JUMPDEST SWAP3 POP POP PUSH1 0x40 DUP5 ADD CALLDATALOAD PUSH8 0xFFFFFFFFFFFFFFFF DUP2 GT ISZERO PUSH2 0x522 JUMPI PUSH2 0x521 PUSH2 0x188 JUMP JUMPDEST JUMPDEST PUSH2 0x52E DUP7 DUP3 DUP8 ADD PUSH2 0x38C JUMP JUMPDEST SWAP2 POP POP SWAP3 POP SWAP3 POP SWAP3 JUMP JUMPDEST PUSH2 0x541 DUP2 PUSH2 0x18D JUMP JUMPDEST DUP3 MSTORE POP POP JUMP JUMPDEST PUSH2 0x550 DUP2 PUSH2 0x1C3 JUMP JUMPDEST DUP3 MSTORE POP POP JUMP JUMPDEST PUSH1 0x0 PUSH1 0xC0 DUP3 ADD SWAP1 POP PUSH2 0x56B PUSH1 0x0 DUP4 ADD DUP10 PUSH2 0x538 JUMP JUMPDEST PUSH2 0x578 PUSH1 0x20 DUP4 ADD DUP9 PUSH2 0x538 JUMP JUMPDEST PUSH2 0x585 PUSH1 0x40 DUP4 ADD DUP8 PUSH2 0x538 JUMP JUMPDEST PUSH2 0x592 PUSH1 0x60 DUP4 ADD DUP7 PUSH2 0x547 JUMP JUMPDEST PUSH2 0x59F PUSH1 0x80 DUP4 ADD DUP6 PUSH2 0x547 JUMP JUMPDEST PUSH2 0x5AC PUSH1 0xA0 DUP4 ADD DUP5 PUSH2 0x547 JUMP JUMPDEST SWAP8 SWAP7 POP POP POP POP POP POP POP JUMP INVALID LOG2 PUSH5 0x6970667358 0x22 SLT KECCAK256 0xB5 PUSH20 0xE599DDA9906826D09BF252882BC8BA563CF80F6D PUSH9 0x6AF96FCF801CBCC433 PUSH5 0x736F6C6343 STOP ADDMOD SGT STOP CALLER "},"methodIdentifiers":{"bridge()":"e78cea92","dispute(bytes,bytes,bytes,bytes)":"43f104d2","resolveDispute(bytes,bytes,bytes)":"79a85bd9","settle()":"11da60b4","setup(bytes32,bytes32,bytes32,uint256,uint256)":"06ac0e26","submitProof(bytes,bytes,bytes,bytes)":"3740d249"}}}}}