{"contracts/LNBridge.sol":{"LNBridge":{"abi":[{"inputs":[],"name":"bridge","outputs":[{"internalType":"bytes32","name":"fundingTxId","type":"bytes32"},{"internalType":"bytes32","name":"pkProver","type":"bytes32"},{"internalType":"bytes32","name":"pkVerifier","type":"bytes32"},{"internalType":"uint256","name":"index","type":"uint256"},{"internalType":"uint256","name":"timelock","type":"uint256"},{"internalType":"uint256","name":"timelock_dispute","type":"uint256"}],"stateMutability":"view","type":"function"},{"inputs":[{"internalType":"bytes","name":"rawTxP_locked","type":"bytes"},{"internalType":"bytes","name":"sigV","type":"bytes"},{"internalType":"bytes","name":"rawTxV_unlocked","type":"bytes"},{"internalType":"bytes","name":"sigP","type":"bytes"}],"name":"dispute","outputs":[],"stateMutability":"nonpayable","type":"function"},{"inputs":[{"internalType":"bytes","name":"_txBytes","type":"bytes"}],"name":"getOutputData","outputs":[{"internalType":"uint256","name":"","type":"uint256"},{"internalType":"bytes32","name":"","type":"bytes32"},{"internalType":"bytes32","name":"","type":"bytes32"},{"internalType":"bytes32","name":"","type":"bytes32"},{"internalType":"uint256","name":"","type":"uint256"},{"internalType":"bytes32","name":"","type":"bytes32"},{"internalType":"uint256","name":"","type":"uint256"},{"internalType":"bytes32","name":"","type":"bytes32"}],"stateMutability":"nonpayable","type":"function"},{"inputs":[{"internalType":"bytes","name":"_txBytes","type":"bytes"}],"name":"getTimelock","outputs":[{"internalType":"bytes4","name":"","type":"bytes4"}],"stateMutability":"nonpayable","type":"function"},{"inputs":[],"name":"htlc","outputs":[{"internalType":"uint256","name":"value","type":"uint256"},{"internalType":"bytes32","name":"pk1","type":"bytes32"},{"internalType":"bytes32","name":"pk2","type":"bytes32"},{"internalType":"bytes32","name":"rev_secret","type":"bytes32"}],"stateMutability":"view","type":"function"},{"inputs":[],"name":"opreturn","outputs":[{"internalType":"uint256","name":"value","type":"uint256"},{"internalType":"bytes32","name":"data","type":"bytes32"}],"stateMutability":"view","type":"function"},{"inputs":[],"name":"out_aux","outputs":[{"internalType":"uint256","name":"pos","type":"uint256"}],"stateMutability":"view","type":"function"},{"inputs":[],"name":"p2pkh","outputs":[{"internalType":"uint256","name":"value","type":"uint256"},{"internalType":"bytes32","name":"pkhash","type":"bytes32"}],"stateMutability":"view","type":"function"},{"inputs":[{"internalType":"bytes","name":"oldRevSecret","type":"bytes"},{"internalType":"bytes","name":"rawTxP_unlocked","type":"bytes"},{"internalType":"bytes","name":"sigV","type":"bytes"}],"name":"resolveDispute","outputs":[],"stateMutability":"nonpayable","type":"function"},{"inputs":[],"name":"settle","outputs":[],"stateMutability":"nonpayable","type":"function"},{"inputs":[{"internalType":"bytes32","name":"_fundingTxId","type":"bytes32"},{"internalType":"bytes32","name":"_pkProver","type":"bytes32"},{"internalType":"bytes32","name":"_pkVerifier","type":"bytes32"},{"internalType":"uint256","name":"_index","type":"uint256"},{"internalType":"uint256","name":"_timelock","type":"uint256"}],"name":"setup","outputs":[],"stateMutability":"nonpayable","type":"function"},{"inputs":[{"internalType":"bytes","name":"rawTxP_unlocked","type":"bytes"},{"internalType":"bytes","name":"sigV","type":"bytes"},{"internalType":"bytes","name":"rawTxV_unlocked","type":"bytes"},{"internalType":"bytes","name":"sigP","type":"bytes"}],"name":"submitProof","outputs":[],"stateMutability":"nonpayable","type":"function"}],"evm":{"bytecode":{"linkReferences":{},"object":"608060405234801561001057600080fd5b50612a1c806100206000396000f3fe608060405234801561001057600080fd5b50600436106100b45760003560e01c806366b85d571161007157806366b85d571461017e57806372ca346f1461019c57806379a85bd9146101bb5780638504b3b9146101d7578063e4b23d0c146101f6578063e78cea9214610217576100b4565b806306ac0e26146100b957806311da60b4146100d557806336946480146100df5780633740d2491461010f57806343f104d21461012b57806352fd947614610147575b600080fd5b6100d360048036038101906100ce9190611ecf565b61023a565b005b6100dd610273565b005b6100f960048036038101906100f49190612090565b610275565b6040516101069190612114565b60405180910390f35b6101296004803603810190610124919061212f565b6102ab565b005b6101456004803603810190610140919061212f565b6102b1565b005b610161600480360381019061015c9190612090565b6102b7565b604051610175989796959493929190612224565b60405180910390f35b6101866105ad565b60405161019391906122a2565b60405180910390f35b6101a46105b9565b6040516101b29291906122bd565b60405180910390f35b6101d560048036038101906101d091906122e6565b6105cb565b005b6101df6105d0565b6040516101ed9291906122bd565b60405180910390f35b6101fe6105e2565b60405161020e949392919061238d565b60405180910390f35b61021f610600565b604051610231969594939291906123d2565b60405180910390f35b84600d6000018190555083600d6001018190555082600d6002018190555081600d6003018190555080600d600401819055505050505050565b565b6000808251905060006102968460058461028f9190612462565b600461062a565b61029f906124d3565b90508092505050919050565b50505050565b50505050565b60008060008060008060008060046008600001819055506102df896008600001546000610748565b60086001016000600860000160008491905055839190509080519060200190610309929190611ddb565b50505061031d89600860000154600061085a565b600860040160006008600301600060086002016000600860000160008891905055879190509080519060200190610355929190611ddb565b5086919050908051906020019061036d929190611ddb565b50859190509080519060200190610385929190611ddb565b505050505060005b6003811015610562576000810361043b576103eb8a600860030183815481106103b9576103b861253a565b5b9060005260206000200154600860020184815481106103db576103da61253a565b5b9060005260206000200154610a51565b60006001016000806003016000806002016000869190505585919050558491905055505050600860040181815481106104275761042661253a565b5b906000526020600020015460008001819055505b600181036104c5576104908a6008600301838154811061045e5761045d61253a565b5b9060005260206000200154600860020184815481106104805761047f61253a565b5b9060005260206000200154610b0d565b600660010181905550600860040181815481106104b0576104af61253a565b5b90600052602060002001546006600001819055505b6002810361054f5761051a8a600860030183815481106104e8576104e761253a565b5b90600052602060002001546008600201848154811061050a5761050961253a565b5b9060005260206000200154610b0d565b6004600101819055506008600401818154811061053a5761053961253a565b5b90600052602060002001546004600001819055505b808061055a90612569565b91505061038d565b50600080015460006001015460006003015460006002015460066000015460066001015460046000015460046001015497509750975097509750975097509750919395975091939597565b60088060000154905081565b60068060000154908060010154905082565b505050565b60048060000154908060010154905082565b60008060000154908060010154908060020154908060030154905084565b600d8060000154908060010154908060020154908060030154908060040154908060050154905086565b606081601f8361063a91906125b1565b101561067b576040517f08c379a000000000000000000000000000000000000000000000000000000000815260040161067290612642565b60405180910390fd5b818361068791906125b1565b845110156106ca576040517f08c379a00000000000000000000000000000000000000000000000000000000081526004016106c1906126ae565b60405180910390fd5b60608215600081146106eb576040519150600082526020820160405261073c565b6040519150601f8416801560200281840101858101878315602002848b0101015b81831015610729578051835260208301925060208101905061070c565b50868552601f19601f8301166040525050505b50809150509392505050565b606060008060008061075a8888610ce7565b8098508194505050600086148061077057508286115b1561077d57829150610781565b8591505b60008267ffffffffffffffff81111561079d5761079c611f65565b5b6040519080825280602002602001820160405280156107cb5781602001602082028036833780820191505090505b50905060005b83811015610847576024896107e691906125b1565b98506107f28a8a610ce7565b809a5081945050508282828151811061080e5761080d61253a565b5b60200260200101818152505060048361082791906125b1565b8961083291906125b1565b9850808061083f90612569565b9150506107d1565b5080889550955050505050935093915050565b606080606060008060008061086f8a8a610ce7565b809a508194505050600088148061088557508288115b1561089257829150610896565b8791505b60008267ffffffffffffffff8111156108b2576108b1611f65565b5b6040519080825280602002602001820160405280156108e05781602001602082028036833780820191505090505b50905060008367ffffffffffffffff8111156108ff576108fe611f65565b5b60405190808252806020026020018201604052801561092d5781602001602082028036833780820191505090505b50905060008467ffffffffffffffff81111561094c5761094b611f65565b5b60405190808252806020026020018201604052801561097a5781602001602082028036833780820191505090505b50905060005b85811015610a35576109948e8e6040610dcf565b8282815181106109a7576109a661253a565b5b60200260200101818152505060088d6109c091906125b1565b9c506109cc8e8e610ce7565b809e5081965050508c8482815181106109e8576109e761253a565b5b60200260200101818152505084838281518110610a0857610a0761253a565b5b602002602001018181525050848d610a2091906125b1565b9c508080610a2d90612569565b915050610980565b508083838e995099509950995050505050505093509350935093565b6000806000610a6186868661123a565b15610af157610aa46040518060400160405280601b81526020017f506172736564204c696768746e696e6748544c43206f757470757400000000008152506117e9565b610aba86600387610ab591906125b1565b611882565b610ad087602888610acb91906125b1565b611882565b610ae688604c89610ae191906125b1565b611882565b925092509250610b04565b6000801b6000801b6000801b9250925092505b93509350939050565b6000610b1a84848461190d565b15610b8957610b5d6040518060400160405280601381526020017f506172736564205032504b48206f7574707574000000000000000000000000008152506117e9565b610b7384600385610b6e91906125b1565b611ad2565b6bffffffffffffffffffffffff19169050610ce0565b610b94848484611bb5565b15610c0357610bd76040518060400160405280601281526020017f5061727365642050325348206f757470757400000000000000000000000000008152506117e9565b610bed84600285610be891906125b1565b611ad2565b6bffffffffffffffffffffffff19169050610ce0565b610c0e848484611cd2565b15610c6e57610c516040518060400160405280601781526020017f506172736564204f505f52455455524e206f75747075740000000000000000008152506117e9565b610c6784600285610c6291906125b1565b611882565b9050610ce0565b610c7984848461123a565b15610cd957610cbc6040518060400160405280601b81526020017f506172736564204c696768746e696e6748544c43206f757470757400000000008152506117e9565b610cd284600285610ccd91906125b1565b611882565b9050610ce0565b6000801b90505b9392505050565b6000806000848481518110610cff57610cfe61253a565b5b602001015160f81c60f81b60f81c9050600184610d1c91906125b1565b935060fd8160ff161015610d3c5780848160ff1691509250925050610dc8565b60fd8160ff1603610d6a57610d5385856010610dcf565b600285610d6091906125b1565b9250925050610dc8565b60fe8160ff1603610d9857610d8185856020610dcf565b600485610d8e91906125b1565b9250925050610dc8565b60ff8160ff1603610dc657610daf85856040610dcf565b600885610dbc91906125b1565b9250925050610dc8565b505b9250929050565b600060088203610e0457838381518110610dec57610deb61253a565b5b602001015160f81c60f81b60f81c60ff169050611233565b60108203610e865761010084600185610e1d91906125b1565b81518110610e2e57610e2d61253a565b5b602001015160f81c60f81b60f81c60ff16610e4991906126dc565b61ffff16848481518110610e6057610e5f61253a565b5b602001015160f81c60f81b60f81c60ff1661ffff16610e7f91906125b1565b9050611233565b60208203610fa957630100000084600385610ea191906125b1565b81518110610eb257610eb161253a565b5b602001015160f81c60f81b60f81c60ff16610ecd9190612729565b63ffffffff166201000085600286610ee591906125b1565b81518110610ef657610ef561253a565b5b602001015160f81c60f81b60f81c60ff16610f119190612729565b63ffffffff1661010086600187610f2891906125b1565b81518110610f3957610f3861253a565b5b602001015160f81c60f81b60f81c60ff16610f549190612729565b63ffffffff16868681518110610f6d57610f6c61253a565b5b602001015160f81c60f81b60f81c60ff1663ffffffff16610f8e91906125b1565b610f9891906125b1565b610fa291906125b1565b9050611233565b604082036112325767010000000000000084600785610fc891906125b1565b81518110610fd957610fd861253a565b5b602001015160f81c60f81b60f81c60ff16610ff4919061277a565b67ffffffffffffffff1666010000000000008560068661101491906125b1565b815181106110255761102461253a565b5b602001015160f81c60f81b60f81c60ff16611040919061277a565b67ffffffffffffffff16650100000000008660058761105f91906125b1565b815181106110705761106f61253a565b5b602001015160f81c60f81b60f81c60ff1661108b919061277a565b67ffffffffffffffff16640100000000876004886110a991906125b1565b815181106110ba576110b961253a565b5b602001015160f81c60f81b60f81c60ff166110d5919061277a565b67ffffffffffffffff166301000000886003896110f291906125b1565b815181106111035761110261253a565b5b602001015160f81c60f81b60f81c60ff1661111e919061277a565b67ffffffffffffffff16620100008960028a61113a91906125b1565b8151811061114b5761114a61253a565b5b602001015160f81c60f81b60f81c60ff16611166919061277a565b67ffffffffffffffff166101008a60018b61118191906125b1565b815181106111925761119161253a565b5b602001015160f81c60f81b60f81c60ff166111ad919061277a565b67ffffffffffffffff168a8a815181106111ca576111c961253a565b5b602001015160f81c60f81b60f81c60ff1667ffffffffffffffff166111ef91906125b1565b6111f991906125b1565b61120391906125b1565b61120d91906125b1565b61121791906125b1565b61122191906125b1565b61122b91906125b1565b9050611233565b5b9392505050565b600060728214801561129a5750607660f81b8460008561125a91906125b1565b8151811061126b5761126a61253a565b5b602001015160f81c60f81b7effffffffffffffffffffffffffffffffffffffffffffffffffffffffffffff1916145b80156112f45750602160f81b846001856112b491906125b1565b815181106112c5576112c461253a565b5b602001015160f81c60f81b7effffffffffffffffffffffffffffffffffffffffffffffffffffffffffffff1916145b801561134e575060ac60f81b8460238561130e91906125b1565b8151811061131f5761131e61253a565b5b602001015160f81c60f81b7effffffffffffffffffffffffffffffffffffffffffffffffffffffffffffff1916145b80156113a85750606360f81b8460248561136891906125b1565b815181106113795761137861253a565b5b602001015160f81c60f81b7effffffffffffffffffffffffffffffffffffffffffffffffffffffffffffff1916145b80156114025750607560f81b846025856113c291906125b1565b815181106113d3576113d261253a565b5b602001015160f81c60f81b7effffffffffffffffffffffffffffffffffffffffffffffffffffffffffffff1916145b801561145c575060aa60f81b8460268561141c91906125b1565b8151811061142d5761142c61253a565b5b602001015160f81c60f81b7effffffffffffffffffffffffffffffffffffffffffffffffffffffffffffff1916145b80156114b65750602060f81b8460278561147691906125b1565b815181106114875761148661253a565b5b602001015160f81c60f81b7effffffffffffffffffffffffffffffffffffffffffffffffffffffffffffff1916145b80156115105750608860f81b846048856114d091906125b1565b815181106114e1576114e061253a565b5b602001015160f81c60f81b7effffffffffffffffffffffffffffffffffffffffffffffffffffffffffffff1916145b801561156a5750606760f81b8460498561152a91906125b1565b8151811061153b5761153a61253a565b5b602001015160f81c60f81b7effffffffffffffffffffffffffffffffffffffffffffffffffffffffffffff1916145b80156115c45750602160f81b84604a8561158491906125b1565b815181106115955761159461253a565b5b602001015160f81c60f81b7effffffffffffffffffffffffffffffffffffffffffffffffffffffffffffff1916145b801561161e575060ad60f81b84606c856115de91906125b1565b815181106115ef576115ee61253a565b5b602001015160f81c60f81b7effffffffffffffffffffffffffffffffffffffffffffffffffffffffffffff1916145b80156116785750605260f81b84606d8561163891906125b1565b815181106116495761164861253a565b5b602001015160f81c60f81b7effffffffffffffffffffffffffffffffffffffffffffffffffffffffffffff1916145b80156116d2575060b260f81b84606e8561169291906125b1565b815181106116a3576116a261253a565b5b602001015160f81c60f81b7effffffffffffffffffffffffffffffffffffffffffffffffffffffffffffff1916145b801561172c5750607560f81b84606f856116ec91906125b1565b815181106116fd576116fc61253a565b5b602001015160f81c60f81b7effffffffffffffffffffffffffffffffffffffffffffffffffffffffffffff1916145b80156117865750606860f81b8460708561174691906125b1565b815181106117575761175661253a565b5b602001015160f81c60f81b7effffffffffffffffffffffffffffffffffffffffffffffffffffffffffffff1916145b80156117e05750605160f81b846071856117a091906125b1565b815181106117b1576117b061253a565b5b602001015160f81c60f81b7effffffffffffffffffffffffffffffffffffffffffffffffffffffffffffff1916145b90509392505050565b61187f816040516024016117fd9190612825565b6040516020818303038152906040527f41304fac000000000000000000000000000000000000000000000000000000007bffffffffffffffffffffffffffffffffffffffffffffffffffffffff19166020820180517bffffffffffffffffffffffffffffffffffffffffffffffffffffffff8381831617835250505050611d95565b50565b6000806000905060005b60208110156118ff5780601f6118a29190612462565b60086118ae9190612847565b8585836118bb91906125b1565b815181106118cc576118cb61253a565b5b602001015160f81c60f81b60f81c60ff16901b826118ea91906125b1565b915080806118f790612569565b91505061188c565b508060001b91505092915050565b60006019821480156119615750607660f81b8484815181106119325761193161253a565b5b602001015160f81c60f81b7effffffffffffffffffffffffffffffffffffffffffffffffffffffffffffff1916145b80156119bb575060a960f81b8460018561197b91906125b1565b8151811061198c5761198b61253a565b5b602001015160f81c60f81b7effffffffffffffffffffffffffffffffffffffffffffffffffffffffffffff1916145b8015611a155750601460f81b846002856119d591906125b1565b815181106119e6576119e561253a565b5b602001015160f81c60f81b7effffffffffffffffffffffffffffffffffffffffffffffffffffffffffffff1916145b8015611a6f5750608860f81b84601785611a2f91906125b1565b81518110611a4057611a3f61253a565b5b602001015160f81c60f81b7effffffffffffffffffffffffffffffffffffffffffffffffffffffffffffff1916145b8015611ac9575060ac60f81b84601885611a8991906125b1565b81518110611a9a57611a9961253a565b5b602001015160f81c60f81b7effffffffffffffffffffffffffffffffffffffffffffffffffffffffffffff1916145b90509392505050565b6000806000905060005b60148173ffffffffffffffffffffffffffffffffffffffff161015611ba757806013611b0891906128a9565b6008611b1491906128f1565b73ffffffffffffffffffffffffffffffffffffffff1685858373ffffffffffffffffffffffffffffffffffffffff16611b4d91906125b1565b81518110611b5e57611b5d61253a565b5b602001015160f81c60f81b60f81c60ff1673ffffffffffffffffffffffffffffffffffffffff16901b82611b929190612933565b91508080611b9f9061297b565b915050611adc565b508060601b91505092915050565b6000601782148015611c15575060a960f81b84600085611bd591906125b1565b81518110611be657611be561253a565b5b602001015160f81c60f81b7effffffffffffffffffffffffffffffffffffffffffffffffffffffffffffff1916145b8015611c6f5750601460f81b84600185611c2f91906125b1565b81518110611c4057611c3f61253a565b5b602001015160f81c60f81b7effffffffffffffffffffffffffffffffffffffffffffffffffffffffffffff1916145b8015611cc95750608760f81b84601685611c8991906125b1565b81518110611c9a57611c9961253a565b5b602001015160f81c60f81b7effffffffffffffffffffffffffffffffffffffffffffffffffffffffffffff1916145b90509392505050565b6000602282148015611d325750606a60f81b84600085611cf291906125b1565b81518110611d0357611d0261253a565b5b602001015160f81c60f81b7effffffffffffffffffffffffffffffffffffffffffffffffffffffffffffff1916145b8015611d8c5750602060f81b84600185611d4c91906125b1565b81518110611d5d57611d5c61253a565b5b602001015160f81c60f81b7effffffffffffffffffffffffffffffffffffffffffffffffffffffffffffff1916145b90509392505050565b611dac81611da4611daf611dd0565b63ffffffff16565b50565b60006a636f6e736f6c652e6c6f679050600080835160208501845afa505050565b611e28819050919050565b828054828255906000526020600020908101928215611e17579160200282015b82811115611e16578251825591602001919060010190611dfb565b5b509050611e249190611e32565b5090565b611e306129b7565b565b5b80821115611e4b576000816000905550600101611e33565b5090565b6000604051905090565b600080fd5b600080fd5b6000819050919050565b611e7681611e63565b8114611e8157600080fd5b50565b600081359050611e9381611e6d565b92915050565b6000819050919050565b611eac81611e99565b8114611eb757600080fd5b50565b600081359050611ec981611ea3565b92915050565b600080600080600060a08688031215611eeb57611eea611e59565b5b6000611ef988828901611e84565b9550506020611f0a88828901611e84565b9450506040611f1b88828901611e84565b9350506060611f2c88828901611eba565b9250506080611f3d88828901611eba565b9150509295509295909350565b600080fd5b600080fd5b6000601f19601f8301169050919050565b7f4e487b7100000000000000000000000000000000000000000000000000000000600052604160045260246000fd5b611f9d82611f54565b810181811067ffffffffffffffff82111715611fbc57611fbb611f65565b5b80604052505050565b6000611fcf611e4f565b9050611fdb8282611f94565b919050565b600067ffffffffffffffff821115611ffb57611ffa611f65565b5b61200482611f54565b9050602081019050919050565b82818337600083830152505050565b600061203361202e84611fe0565b611fc5565b90508281526020810184848401111561204f5761204e611f4f565b5b61205a848285612011565b509392505050565b600082601f83011261207757612076611f4a565b5b8135612087848260208601612020565b91505092915050565b6000602082840312156120a6576120a5611e59565b5b600082013567ffffffffffffffff8111156120c4576120c3611e5e565b5b6120d084828501612062565b91505092915050565b60007fffffffff0000000000000000000000000000000000000000000000000000000082169050919050565b61210e816120d9565b82525050565b60006020820190506121296000830184612105565b92915050565b6000806000806080858703121561214957612148611e59565b5b600085013567ffffffffffffffff81111561216757612166611e5e565b5b61217387828801612062565b945050602085013567ffffffffffffffff81111561219457612193611e5e565b5b6121a087828801612062565b935050604085013567ffffffffffffffff8111156121c1576121c0611e5e565b5b6121cd87828801612062565b925050606085013567ffffffffffffffff8111156121ee576121ed611e5e565b5b6121fa87828801612062565b91505092959194509250565b61220f81611e99565b82525050565b61221e81611e63565b82525050565b60006101008201905061223a600083018b612206565b612247602083018a612215565b6122546040830189612215565b6122616060830188612215565b61226e6080830187612206565b61227b60a0830186612215565b61228860c0830185612206565b61229560e0830184612215565b9998505050505050505050565b60006020820190506122b76000830184612206565b92915050565b60006040820190506122d26000830185612206565b6122df6020830184612215565b9392505050565b6000806000606084860312156122ff576122fe611e59565b5b600084013567ffffffffffffffff81111561231d5761231c611e5e565b5b61232986828701612062565b935050602084013567ffffffffffffffff81111561234a57612349611e5e565b5b61235686828701612062565b925050604084013567ffffffffffffffff81111561237757612376611e5e565b5b61238386828701612062565b9150509250925092565b60006080820190506123a26000830187612206565b6123af6020830186612215565b6123bc6040830185612215565b6123c96060830184612215565b95945050505050565b600060c0820190506123e76000830189612215565b6123f46020830188612215565b6124016040830187612215565b61240e6060830186612206565b61241b6080830185612206565b61242860a0830184612206565b979650505050505050565b7f4e487b7100000000000000000000000000000000000000000000000000000000600052601160045260246000fd5b600061246d82611e99565b915061247883611e99565b92508282039050818111156124905761248f612433565b5b92915050565b600081519050919050565b6000819050602082019050919050565b60006124bd82516120d9565b80915050919050565b600082821b905092915050565b60006124de82612496565b826124e8846124a1565b90506124f3816124b1565b925060048210156125335761252e7fffffffff00000000000000000000000000000000000000000000000000000000836004036008026124c6565b831692505b5050919050565b7f4e487b7100000000000000000000000000000000000000000000000000000000600052603260045260246000fd5b600061257482611e99565b91507fffffffffffffffffffffffffffffffffffffffffffffffffffffffffffffffff82036125a6576125a5612433565b5b600182019050919050565b60006125bc82611e99565b91506125c783611e99565b92508282019050808211156125df576125de612433565b5b92915050565b600082825260208201905092915050565b7f736c6963655f6f766572666c6f77000000000000000000000000000000000000600082015250565b600061262c600e836125e5565b9150612637826125f6565b602082019050919050565b6000602082019050818103600083015261265b8161261f565b9050919050565b7f736c6963655f6f75744f66426f756e6473000000000000000000000000000000600082015250565b60006126986011836125e5565b91506126a382612662565b602082019050919050565b600060208201905081810360008301526126c78161268b565b9050919050565b600061ffff82169050919050565b60006126e7826126ce565b91506126f2836126ce565b9250828202612700816126ce565b915080821461271257612711612433565b5b5092915050565b600063ffffffff82169050919050565b600061273482612719565b915061273f83612719565b925082820261274d81612719565b915080821461275f5761275e612433565b5b5092915050565b600067ffffffffffffffff82169050919050565b600061278582612766565b915061279083612766565b925082820261279e81612766565b91508082146127b0576127af612433565b5b5092915050565b600081519050919050565b60005b838110156127e05780820151818401526020810190506127c5565b60008484015250505050565b60006127f7826127b7565b61280181856125e5565b93506128118185602086016127c2565b61281a81611f54565b840191505092915050565b6000602082019050818103600083015261283f81846127ec565b905092915050565b600061285282611e99565b915061285d83611e99565b925082820261286b81611e99565b9150828204841483151761288257612881612433565b5b5092915050565b600073ffffffffffffffffffffffffffffffffffffffff82169050919050565b60006128b482612889565b91506128bf83612889565b9250828203905073ffffffffffffffffffffffffffffffffffffffff8111156128eb576128ea612433565b5b92915050565b60006128fc82612889565b915061290783612889565b925082820261291581612889565b9150828204841483151761292c5761292b612433565b5b5092915050565b600061293e82612889565b915061294983612889565b9250828201905073ffffffffffffffffffffffffffffffffffffffff81111561297557612974612433565b5b92915050565b600061298682612889565b915073ffffffffffffffffffffffffffffffffffffffff82036129ac576129ab612433565b5b600182019050919050565b7f4e487b7100000000000000000000000000000000000000000000000000000000600052605160045260246000fdfea26469706673582212208ab90d70f3c9339ce743620062b7e4cec46112236dbf9aade0b7a7d61358761964736f6c63430008130033","opcodes":"PUSH1 0x80 PUSH1 0x40 MSTORE CALLVALUE DUP1 ISZERO PUSH2 0x10 JUMPI PUSH1 0x0 DUP1 REVERT JUMPDEST POP PUSH2 0x2A1C DUP1 PUSH2 0x20 PUSH1 0x0 CODECOPY PUSH1 0x0 RETURN INVALID PUSH1 0x80 PUSH1 0x40 MSTORE CALLVALUE DUP1 ISZERO PUSH2 0x10 JUMPI PUSH1 0x0 DUP1 REVERT JUMPDEST POP PUSH1 0x4 CALLDATASIZE LT PUSH2 0xB4 JUMPI PUSH1 0x0 CALLDATALOAD PUSH1 0xE0 SHR DUP1 PUSH4 0x66B85D57 GT PUSH2 0x71 JUMPI DUP1 PUSH4 0x66B85D57 EQ PUSH2 0x17E JUMPI DUP1 PUSH4 0x72CA346F EQ PUSH2 0x19C JUMPI DUP1 PUSH4 0x79A85BD9 EQ PUSH2 0x1BB JUMPI DUP1 PUSH4 0x8504B3B9 EQ PUSH2 0x1D7 JUMPI DUP1 PUSH4 0xE4B23D0C EQ PUSH2 0x1F6 JUMPI DUP1 PUSH4 0xE78CEA92 EQ PUSH2 0x217 JUMPI PUSH2 0xB4 JUMP JUMPDEST DUP1 PUSH4 0x6AC0E26 EQ PUSH2 0xB9 JUMPI DUP1 PUSH4 0x11DA60B4 EQ PUSH2 0xD5 JUMPI DUP1 PUSH4 0x36946480 EQ PUSH2 0xDF JUMPI DUP1 PUSH4 0x3740D249 EQ PUSH2 0x10F JUMPI DUP1 PUSH4 0x43F104D2 EQ PUSH2 0x12B JUMPI DUP1 PUSH4 0x52FD9476 EQ PUSH2 0x147 JUMPI JUMPDEST PUSH1 0x0 DUP1 REVERT JUMPDEST PUSH2 0xD3 PUSH1 0x4 DUP1 CALLDATASIZE SUB DUP2 ADD SWAP1 PUSH2 0xCE SWAP2 SWAP1 PUSH2 0x1ECF JUMP JUMPDEST PUSH2 0x23A JUMP JUMPDEST STOP JUMPDEST PUSH2 0xDD PUSH2 0x273 JUMP JUMPDEST STOP JUMPDEST PUSH2 0xF9 PUSH1 0x4 DUP1 CALLDATASIZE SUB DUP2 ADD SWAP1 PUSH2 0xF4 SWAP2 SWAP1 PUSH2 0x2090 JUMP JUMPDEST PUSH2 0x275 JUMP JUMPDEST PUSH1 0x40 MLOAD PUSH2 0x106 SWAP2 SWAP1 PUSH2 0x2114 JUMP JUMPDEST PUSH1 0x40 MLOAD DUP1 SWAP2 SUB SWAP1 RETURN JUMPDEST PUSH2 0x129 PUSH1 0x4 DUP1 CALLDATASIZE SUB DUP2 ADD SWAP1 PUSH2 0x124 SWAP2 SWAP1 PUSH2 0x212F JUMP JUMPDEST PUSH2 0x2AB JUMP JUMPDEST STOP JUMPDEST PUSH2 0x145 PUSH1 0x4 DUP1 CALLDATASIZE SUB DUP2 ADD SWAP1 PUSH2 0x140 SWAP2 SWAP1 PUSH2 0x212F JUMP JUMPDEST PUSH2 0x2B1 JUMP JUMPDEST STOP JUMPDEST PUSH2 0x161 PUSH1 0x4 DUP1 CALLDATASIZE SUB DUP2 ADD SWAP1 PUSH2 0x15C SWAP2 SWAP1 PUSH2 0x2090 JUMP JUMPDEST PUSH2 0x2B7 JUMP JUMPDEST PUSH1 0x40 MLOAD PUSH2 0x175 SWAP9 SWAP8 SWAP7 SWAP6 SWAP5 SWAP4 SWAP3 SWAP2 SWAP1 PUSH2 0x2224 JUMP JUMPDEST PUSH1 0x40 MLOAD DUP1 SWAP2 SUB SWAP1 RETURN JUMPDEST PUSH2 0x186 PUSH2 0x5AD JUMP JUMPDEST PUSH1 0x40 MLOAD PUSH2 0x193 SWAP2 SWAP1 PUSH2 0x22A2 JUMP JUMPDEST PUSH1 0x40 MLOAD DUP1 SWAP2 SUB SWAP1 RETURN JUMPDEST PUSH2 0x1A4 PUSH2 0x5B9 JUMP JUMPDEST PUSH1 0x40 MLOAD PUSH2 0x1B2 SWAP3 SWAP2 SWAP1 PUSH2 0x22BD JUMP JUMPDEST PUSH1 0x40 MLOAD DUP1 SWAP2 SUB SWAP1 RETURN JUMPDEST PUSH2 0x1D5 PUSH1 0x4 DUP1 CALLDATASIZE SUB DUP2 ADD SWAP1 PUSH2 0x1D0 SWAP2 SWAP1 PUSH2 0x22E6 JUMP JUMPDEST PUSH2 0x5CB JUMP JUMPDEST STOP JUMPDEST PUSH2 0x1DF PUSH2 0x5D0 JUMP JUMPDEST PUSH1 0x40 MLOAD PUSH2 0x1ED SWAP3 SWAP2 SWAP1 PUSH2 0x22BD JUMP JUMPDEST PUSH1 0x40 MLOAD DUP1 SWAP2 SUB SWAP1 RETURN JUMPDEST PUSH2 0x1FE PUSH2 0x5E2 JUMP JUMPDEST PUSH1 0x40 MLOAD PUSH2 0x20E SWAP5 SWAP4 SWAP3 SWAP2 SWAP1 PUSH2 0x238D JUMP JUMPDEST PUSH1 0x40 MLOAD DUP1 SWAP2 SUB SWAP1 RETURN JUMPDEST PUSH2 0x21F PUSH2 0x600 JUMP JUMPDEST PUSH1 0x40 MLOAD PUSH2 0x231 SWAP7 SWAP6 SWAP5 SWAP4 SWAP3 SWAP2 SWAP1 PUSH2 0x23D2 JUMP JUMPDEST PUSH1 0x40 MLOAD DUP1 SWAP2 SUB SWAP1 RETURN JUMPDEST DUP5 PUSH1 0xD PUSH1 0x0 ADD DUP2 SWAP1 SSTORE POP DUP4 PUSH1 0xD PUSH1 0x1 ADD DUP2 SWAP1 SSTORE POP DUP3 PUSH1 0xD PUSH1 0x2 ADD DUP2 SWAP1 SSTORE POP DUP2 PUSH1 0xD PUSH1 0x3 ADD DUP2 SWAP1 SSTORE POP DUP1 PUSH1 0xD PUSH1 0x4 ADD DUP2 SWAP1 SSTORE POP POP POP POP POP POP JUMP JUMPDEST JUMP JUMPDEST PUSH1 0x0 DUP1 DUP3 MLOAD SWAP1 POP PUSH1 0x0 PUSH2 0x296 DUP5 PUSH1 0x5 DUP5 PUSH2 0x28F SWAP2 SWAP1 PUSH2 0x2462 JUMP JUMPDEST PUSH1 0x4 PUSH2 0x62A JUMP JUMPDEST PUSH2 0x29F SWAP1 PUSH2 0x24D3 JUMP JUMPDEST SWAP1 POP DUP1 SWAP3 POP POP POP SWAP2 SWAP1 POP JUMP JUMPDEST POP POP POP POP JUMP JUMPDEST POP POP POP POP JUMP JUMPDEST PUSH1 0x0 DUP1 PUSH1 0x0 DUP1 PUSH1 0x0 DUP1 PUSH1 0x0 DUP1 PUSH1 0x4 PUSH1 0x8 PUSH1 0x0 ADD DUP2 SWAP1 SSTORE POP PUSH2 0x2DF DUP10 PUSH1 0x8 PUSH1 0x0 ADD SLOAD PUSH1 0x0 PUSH2 0x748 JUMP JUMPDEST PUSH1 0x8 PUSH1 0x1 ADD PUSH1 0x0 PUSH1 0x8 PUSH1 0x0 ADD PUSH1 0x0 DUP5 SWAP2 SWAP1 POP SSTORE DUP4 SWAP2 SWAP1 POP SWAP1 DUP1 MLOAD SWAP1 PUSH1 0x20 ADD SWAP1 PUSH2 0x309 SWAP3 SWAP2 SWAP1 PUSH2 0x1DDB JUMP JUMPDEST POP POP POP PUSH2 0x31D DUP10 PUSH1 0x8 PUSH1 0x0 ADD SLOAD PUSH1 0x0 PUSH2 0x85A JUMP JUMPDEST PUSH1 0x8 PUSH1 0x4 ADD PUSH1 0x0 PUSH1 0x8 PUSH1 0x3 ADD PUSH1 0x0 PUSH1 0x8 PUSH1 0x2 ADD PUSH1 0x0 PUSH1 0x8 PUSH1 0x0 ADD PUSH1 0x0 DUP9 SWAP2 SWAP1 POP SSTORE DUP8 SWAP2 SWAP1 POP SWAP1 DUP1 MLOAD SWAP1 PUSH1 0x20 ADD SWAP1 PUSH2 0x355 SWAP3 SWAP2 SWAP1 PUSH2 0x1DDB JUMP JUMPDEST POP DUP7 SWAP2 SWAP1 POP SWAP1 DUP1 MLOAD SWAP1 PUSH1 0x20 ADD SWAP1 PUSH2 0x36D SWAP3 SWAP2 SWAP1 PUSH2 0x1DDB JUMP JUMPDEST POP DUP6 SWAP2 SWAP1 POP SWAP1 DUP1 MLOAD SWAP1 PUSH1 0x20 ADD SWAP1 PUSH2 0x385 SWAP3 SWAP2 SWAP1 PUSH2 0x1DDB JUMP JUMPDEST POP POP POP POP POP PUSH1 0x0 JUMPDEST PUSH1 0x3 DUP2 LT ISZERO PUSH2 0x562 JUMPI PUSH1 0x0 DUP2 SUB PUSH2 0x43B JUMPI PUSH2 0x3EB DUP11 PUSH1 0x8 PUSH1 0x3 ADD DUP4 DUP2 SLOAD DUP2 LT PUSH2 0x3B9 JUMPI PUSH2 0x3B8 PUSH2 0x253A JUMP JUMPDEST JUMPDEST SWAP1 PUSH1 0x0 MSTORE PUSH1 0x20 PUSH1 0x0 KECCAK256 ADD SLOAD PUSH1 0x8 PUSH1 0x2 ADD DUP5 DUP2 SLOAD DUP2 LT PUSH2 0x3DB JUMPI PUSH2 0x3DA PUSH2 0x253A JUMP JUMPDEST JUMPDEST SWAP1 PUSH1 0x0 MSTORE PUSH1 0x20 PUSH1 0x0 KECCAK256 ADD SLOAD PUSH2 0xA51 JUMP JUMPDEST PUSH1 0x0 PUSH1 0x1 ADD PUSH1 0x0 DUP1 PUSH1 0x3 ADD PUSH1 0x0 DUP1 PUSH1 0x2 ADD PUSH1 0x0 DUP7 SWAP2 SWAP1 POP SSTORE DUP6 SWAP2 SWAP1 POP SSTORE DUP5 SWAP2 SWAP1 POP SSTORE POP POP POP PUSH1 0x8 PUSH1 0x4 ADD DUP2 DUP2 SLOAD DUP2 LT PUSH2 0x427 JUMPI PUSH2 0x426 PUSH2 0x253A JUMP JUMPDEST JUMPDEST SWAP1 PUSH1 0x0 MSTORE PUSH1 0x20 PUSH1 0x0 KECCAK256 ADD SLOAD PUSH1 0x0 DUP1 ADD DUP2 SWAP1 SSTORE POP JUMPDEST PUSH1 0x1 DUP2 SUB PUSH2 0x4C5 JUMPI PUSH2 0x490 DUP11 PUSH1 0x8 PUSH1 0x3 ADD DUP4 DUP2 SLOAD DUP2 LT PUSH2 0x45E JUMPI PUSH2 0x45D PUSH2 0x253A JUMP JUMPDEST JUMPDEST SWAP1 PUSH1 0x0 MSTORE PUSH1 0x20 PUSH1 0x0 KECCAK256 ADD SLOAD PUSH1 0x8 PUSH1 0x2 ADD DUP5 DUP2 SLOAD DUP2 LT PUSH2 0x480 JUMPI PUSH2 0x47F PUSH2 0x253A JUMP JUMPDEST JUMPDEST SWAP1 PUSH1 0x0 MSTORE PUSH1 0x20 PUSH1 0x0 KECCAK256 ADD SLOAD PUSH2 0xB0D JUMP JUMPDEST PUSH1 0x6 PUSH1 0x1 ADD DUP2 SWAP1 SSTORE POP PUSH1 0x8 PUSH1 0x4 ADD DUP2 DUP2 SLOAD DUP2 LT PUSH2 0x4B0 JUMPI PUSH2 0x4AF PUSH2 0x253A JUMP JUMPDEST JUMPDEST SWAP1 PUSH1 0x0 MSTORE PUSH1 0x20 PUSH1 0x0 KECCAK256 ADD SLOAD PUSH1 0x6 PUSH1 0x0 ADD DUP2 SWAP1 SSTORE POP JUMPDEST PUSH1 0x2 DUP2 SUB PUSH2 0x54F JUMPI PUSH2 0x51A DUP11 PUSH1 0x8 PUSH1 0x3 ADD DUP4 DUP2 SLOAD DUP2 LT PUSH2 0x4E8 JUMPI PUSH2 0x4E7 PUSH2 0x253A JUMP JUMPDEST JUMPDEST SWAP1 PUSH1 0x0 MSTORE PUSH1 0x20 PUSH1 0x0 KECCAK256 ADD SLOAD PUSH1 0x8 PUSH1 0x2 ADD DUP5 DUP2 SLOAD DUP2 LT PUSH2 0x50A JUMPI PUSH2 0x509 PUSH2 0x253A JUMP JUMPDEST JUMPDEST SWAP1 PUSH1 0x0 MSTORE PUSH1 0x20 PUSH1 0x0 KECCAK256 ADD SLOAD PUSH2 0xB0D JUMP JUMPDEST PUSH1 0x4 PUSH1 0x1 ADD DUP2 SWAP1 SSTORE POP PUSH1 0x8 PUSH1 0x4 ADD DUP2 DUP2 SLOAD DUP2 LT PUSH2 0x53A JUMPI PUSH2 0x539 PUSH2 0x253A JUMP JUMPDEST JUMPDEST SWAP1 PUSH1 0x0 MSTORE PUSH1 0x20 PUSH1 0x0 KECCAK256 ADD SLOAD PUSH1 0x4 PUSH1 0x0 ADD DUP2 SWAP1 SSTORE POP JUMPDEST DUP1 DUP1 PUSH2 0x55A SWAP1 PUSH2 0x2569 JUMP JUMPDEST SWAP2 POP POP PUSH2 0x38D JUMP JUMPDEST POP PUSH1 0x0 DUP1 ADD SLOAD PUSH1 0x0 PUSH1 0x1 ADD SLOAD PUSH1 0x0 PUSH1 0x3 ADD SLOAD PUSH1 0x0 PUSH1 0x2 ADD SLOAD PUSH1 0x6 PUSH1 0x0 ADD SLOAD PUSH1 0x6 PUSH1 0x1 ADD SLOAD PUSH1 0x4 PUSH1 0x0 ADD SLOAD PUSH1 0x4 PUSH1 0x1 ADD SLOAD SWAP8 POP SWAP8 POP SWAP8 POP SWAP8 POP SWAP8 POP SWAP8 POP SWAP8 POP SWAP8 POP SWAP2 SWAP4 SWAP6 SWAP8 POP SWAP2 SWAP4 SWAP6 SWAP8 JUMP JUMPDEST PUSH1 0x8 DUP1 PUSH1 0x0 ADD SLOAD SWAP1 POP DUP2 JUMP JUMPDEST PUSH1 0x6 DUP1 PUSH1 0x0 ADD SLOAD SWAP1 DUP1 PUSH1 0x1 ADD SLOAD SWAP1 POP DUP3 JUMP JUMPDEST POP POP POP JUMP JUMPDEST PUSH1 0x4 DUP1 PUSH1 0x0 ADD SLOAD SWAP1 DUP1 PUSH1 0x1 ADD SLOAD SWAP1 POP DUP3 JUMP JUMPDEST PUSH1 0x0 DUP1 PUSH1 0x0 ADD SLOAD SWAP1 DUP1 PUSH1 0x1 ADD SLOAD SWAP1 DUP1 PUSH1 0x2 ADD SLOAD SWAP1 DUP1 PUSH1 0x3 ADD SLOAD SWAP1 POP DUP5 JUMP JUMPDEST PUSH1 0xD DUP1 PUSH1 0x0 ADD SLOAD SWAP1 DUP1 PUSH1 0x1 ADD SLOAD SWAP1 DUP1 PUSH1 0x2 ADD SLOAD SWAP1 DUP1 PUSH1 0x3 ADD SLOAD SWAP1 DUP1 PUSH1 0x4 ADD SLOAD SWAP1 DUP1 PUSH1 0x5 ADD SLOAD SWAP1 POP DUP7 JUMP JUMPDEST PUSH1 0x60 DUP2 PUSH1 0x1F DUP4 PUSH2 0x63A SWAP2 SWAP1 PUSH2 0x25B1 JUMP JUMPDEST LT ISZERO PUSH2 0x67B JUMPI PUSH1 0x40 MLOAD PUSH32 0x8C379A000000000000000000000000000000000000000000000000000000000 DUP2 MSTORE PUSH1 0x4 ADD PUSH2 0x672 SWAP1 PUSH2 0x2642 JUMP JUMPDEST PUSH1 0x40 MLOAD DUP1 SWAP2 SUB SWAP1 REVERT JUMPDEST DUP2 DUP4 PUSH2 0x687 SWAP2 SWAP1 PUSH2 0x25B1 JUMP JUMPDEST DUP5 MLOAD LT ISZERO PUSH2 0x6CA JUMPI PUSH1 0x40 MLOAD PUSH32 0x8C379A000000000000000000000000000000000000000000000000000000000 DUP2 MSTORE PUSH1 0x4 ADD PUSH2 0x6C1 SWAP1 PUSH2 0x26AE JUMP JUMPDEST PUSH1 0x40 MLOAD DUP1 SWAP2 SUB SWAP1 REVERT JUMPDEST PUSH1 0x60 DUP3 ISZERO PUSH1 0x0 DUP2 EQ PUSH2 0x6EB JUMPI PUSH1 0x40 MLOAD SWAP2 POP PUSH1 0x0 DUP3 MSTORE PUSH1 0x20 DUP3 ADD PUSH1 0x40 MSTORE PUSH2 0x73C JUMP JUMPDEST PUSH1 0x40 MLOAD SWAP2 POP PUSH1 0x1F DUP5 AND DUP1 ISZERO PUSH1 0x20 MUL DUP2 DUP5 ADD ADD DUP6 DUP2 ADD DUP8 DUP4 ISZERO PUSH1 0x20 MUL DUP5 DUP12 ADD ADD ADD JUMPDEST DUP2 DUP4 LT ISZERO PUSH2 0x729 JUMPI DUP1 MLOAD DUP4 MSTORE PUSH1 0x20 DUP4 ADD SWAP3 POP PUSH1 0x20 DUP2 ADD SWAP1 POP PUSH2 0x70C JUMP JUMPDEST POP DUP7 DUP6 MSTORE PUSH1 0x1F NOT PUSH1 0x1F DUP4 ADD AND PUSH1 0x40 MSTORE POP POP POP JUMPDEST POP DUP1 SWAP2 POP POP SWAP4 SWAP3 POP POP POP JUMP JUMPDEST PUSH1 0x60 PUSH1 0x0 DUP1 PUSH1 0x0 DUP1 PUSH2 0x75A DUP9 DUP9 PUSH2 0xCE7 JUMP JUMPDEST DUP1 SWAP9 POP DUP2 SWAP5 POP POP POP PUSH1 0x0 DUP7 EQ DUP1 PUSH2 0x770 JUMPI POP DUP3 DUP7 GT JUMPDEST ISZERO PUSH2 0x77D JUMPI DUP3 SWAP2 POP PUSH2 0x781 JUMP JUMPDEST DUP6 SWAP2 POP JUMPDEST PUSH1 0x0 DUP3 PUSH8 0xFFFFFFFFFFFFFFFF DUP2 GT ISZERO PUSH2 0x79D JUMPI PUSH2 0x79C PUSH2 0x1F65 JUMP JUMPDEST JUMPDEST PUSH1 0x40 MLOAD SWAP1 DUP1 DUP3 MSTORE DUP1 PUSH1 0x20 MUL PUSH1 0x20 ADD DUP3 ADD PUSH1 0x40 MSTORE DUP1 ISZERO PUSH2 0x7CB JUMPI DUP2 PUSH1 0x20 ADD PUSH1 0x20 DUP3 MUL DUP1 CALLDATASIZE DUP4 CALLDATACOPY DUP1 DUP3 ADD SWAP2 POP POP SWAP1 POP JUMPDEST POP SWAP1 POP PUSH1 0x0 JUMPDEST DUP4 DUP2 LT ISZERO PUSH2 0x847 JUMPI PUSH1 0x24 DUP10 PUSH2 0x7E6 SWAP2 SWAP1 PUSH2 0x25B1 JUMP JUMPDEST SWAP9 POP PUSH2 0x7F2 DUP11 DUP11 PUSH2 0xCE7 JUMP JUMPDEST DUP1 SWAP11 POP DUP2 SWAP5 POP POP POP DUP3 DUP3 DUP3 DUP2 MLOAD DUP2 LT PUSH2 0x80E JUMPI PUSH2 0x80D PUSH2 0x253A JUMP JUMPDEST JUMPDEST PUSH1 0x20 MUL PUSH1 0x20 ADD ADD DUP2 DUP2 MSTORE POP POP PUSH1 0x4 DUP4 PUSH2 0x827 SWAP2 SWAP1 PUSH2 0x25B1 JUMP JUMPDEST DUP10 PUSH2 0x832 SWAP2 SWAP1 PUSH2 0x25B1 JUMP JUMPDEST SWAP9 POP DUP1 DUP1 PUSH2 0x83F SWAP1 PUSH2 0x2569 JUMP JUMPDEST SWAP2 POP POP PUSH2 0x7D1 JUMP JUMPDEST POP DUP1 DUP9 SWAP6 POP SWAP6 POP POP POP POP POP SWAP4 POP SWAP4 SWAP2 POP POP JUMP JUMPDEST PUSH1 0x60 DUP1 PUSH1 0x60 PUSH1 0x0 DUP1 PUSH1 0x0 DUP1 PUSH2 0x86F DUP11 DUP11 PUSH2 0xCE7 JUMP JUMPDEST DUP1 SWAP11 POP DUP2 SWAP5 POP POP POP PUSH1 0x0 DUP9 EQ DUP1 PUSH2 0x885 JUMPI POP DUP3 DUP9 GT JUMPDEST ISZERO PUSH2 0x892 JUMPI DUP3 SWAP2 POP PUSH2 0x896 JUMP JUMPDEST DUP8 SWAP2 POP JUMPDEST PUSH1 0x0 DUP3 PUSH8 0xFFFFFFFFFFFFFFFF DUP2 GT ISZERO PUSH2 0x8B2 JUMPI PUSH2 0x8B1 PUSH2 0x1F65 JUMP JUMPDEST JUMPDEST PUSH1 0x40 MLOAD SWAP1 DUP1 DUP3 MSTORE DUP1 PUSH1 0x20 MUL PUSH1 0x20 ADD DUP3 ADD PUSH1 0x40 MSTORE DUP1 ISZERO PUSH2 0x8E0 JUMPI DUP2 PUSH1 0x20 ADD PUSH1 0x20 DUP3 MUL DUP1 CALLDATASIZE DUP4 CALLDATACOPY DUP1 DUP3 ADD SWAP2 POP POP SWAP1 POP JUMPDEST POP SWAP1 POP PUSH1 0x0 DUP4 PUSH8 0xFFFFFFFFFFFFFFFF DUP2 GT ISZERO PUSH2 0x8FF JUMPI PUSH2 0x8FE PUSH2 0x1F65 JUMP JUMPDEST JUMPDEST PUSH1 0x40 MLOAD SWAP1 DUP1 DUP3 MSTORE DUP1 PUSH1 0x20 MUL PUSH1 0x20 ADD DUP3 ADD PUSH1 0x40 MSTORE DUP1 ISZERO PUSH2 0x92D JUMPI DUP2 PUSH1 0x20 ADD PUSH1 0x20 DUP3 MUL DUP1 CALLDATASIZE DUP4 CALLDATACOPY DUP1 DUP3 ADD SWAP2 POP POP SWAP1 POP JUMPDEST POP SWAP1 POP PUSH1 0x0 DUP5 PUSH8 0xFFFFFFFFFFFFFFFF DUP2 GT ISZERO PUSH2 0x94C JUMPI PUSH2 0x94B PUSH2 0x1F65 JUMP JUMPDEST JUMPDEST PUSH1 0x40 MLOAD SWAP1 DUP1 DUP3 MSTORE DUP1 PUSH1 0x20 MUL PUSH1 0x20 ADD DUP3 ADD PUSH1 0x40 MSTORE DUP1 ISZERO PUSH2 0x97A JUMPI DUP2 PUSH1 0x20 ADD PUSH1 0x20 DUP3 MUL DUP1 CALLDATASIZE DUP4 CALLDATACOPY DUP1 DUP3 ADD SWAP2 POP POP SWAP1 POP JUMPDEST POP SWAP1 POP PUSH1 0x0 JUMPDEST DUP6 DUP2 LT ISZERO PUSH2 0xA35 JUMPI PUSH2 0x994 DUP15 DUP15 PUSH1 0x40 PUSH2 0xDCF JUMP JUMPDEST DUP3 DUP3 DUP2 MLOAD DUP2 LT PUSH2 0x9A7 JUMPI PUSH2 0x9A6 PUSH2 0x253A JUMP JUMPDEST JUMPDEST PUSH1 0x20 MUL PUSH1 0x20 ADD ADD DUP2 DUP2 MSTORE POP POP PUSH1 0x8 DUP14 PUSH2 0x9C0 SWAP2 SWAP1 PUSH2 0x25B1 JUMP JUMPDEST SWAP13 POP PUSH2 0x9CC DUP15 DUP15 PUSH2 0xCE7 JUMP JUMPDEST DUP1 SWAP15 POP DUP2 SWAP7 POP POP POP DUP13 DUP5 DUP3 DUP2 MLOAD DUP2 LT PUSH2 0x9E8 JUMPI PUSH2 0x9E7 PUSH2 0x253A JUMP JUMPDEST JUMPDEST PUSH1 0x20 MUL PUSH1 0x20 ADD ADD DUP2 DUP2 MSTORE POP POP DUP5 DUP4 DUP3 DUP2 MLOAD DUP2 LT PUSH2 0xA08 JUMPI PUSH2 0xA07 PUSH2 0x253A JUMP JUMPDEST JUMPDEST PUSH1 0x20 MUL PUSH1 0x20 ADD ADD DUP2 DUP2 MSTORE POP POP DUP5 DUP14 PUSH2 0xA20 SWAP2 SWAP1 PUSH2 0x25B1 JUMP JUMPDEST SWAP13 POP DUP1 DUP1 PUSH2 0xA2D SWAP1 PUSH2 0x2569 JUMP JUMPDEST SWAP2 POP POP PUSH2 0x980 JUMP JUMPDEST POP DUP1 DUP4 DUP4 DUP15 SWAP10 POP SWAP10 POP SWAP10 POP SWAP10 POP POP POP POP POP POP POP SWAP4 POP SWAP4 POP SWAP4 POP SWAP4 JUMP JUMPDEST PUSH1 0x0 DUP1 PUSH1 0x0 PUSH2 0xA61 DUP7 DUP7 DUP7 PUSH2 0x123A JUMP JUMPDEST ISZERO PUSH2 0xAF1 JUMPI PUSH2 0xAA4 PUSH1 0x40 MLOAD DUP1 PUSH1 0x40 ADD PUSH1 0x40 MSTORE DUP1 PUSH1 0x1B DUP2 MSTORE PUSH1 0x20 ADD PUSH32 0x506172736564204C696768746E696E6748544C43206F75747075740000000000 DUP2 MSTORE POP PUSH2 0x17E9 JUMP JUMPDEST PUSH2 0xABA DUP7 PUSH1 0x3 DUP8 PUSH2 0xAB5 SWAP2 SWAP1 PUSH2 0x25B1 JUMP JUMPDEST PUSH2 0x1882 JUMP JUMPDEST PUSH2 0xAD0 DUP8 PUSH1 0x28 DUP9 PUSH2 0xACB SWAP2 SWAP1 PUSH2 0x25B1 JUMP JUMPDEST PUSH2 0x1882 JUMP JUMPDEST PUSH2 0xAE6 DUP9 PUSH1 0x4C DUP10 PUSH2 0xAE1 SWAP2 SWAP1 PUSH2 0x25B1 JUMP JUMPDEST PUSH2 0x1882 JUMP JUMPDEST SWAP3 POP SWAP3 POP SWAP3 POP PUSH2 0xB04 JUMP JUMPDEST PUSH1 0x0 DUP1 SHL PUSH1 0x0 DUP1 SHL PUSH1 0x0 DUP1 SHL SWAP3 POP SWAP3 POP SWAP3 POP JUMPDEST SWAP4 POP SWAP4 POP SWAP4 SWAP1 POP JUMP JUMPDEST PUSH1 0x0 PUSH2 0xB1A DUP5 DUP5 DUP5 PUSH2 0x190D JUMP JUMPDEST ISZERO PUSH2 0xB89 JUMPI PUSH2 0xB5D PUSH1 0x40 MLOAD DUP1 PUSH1 0x40 ADD PUSH1 0x40 MSTORE DUP1 PUSH1 0x13 DUP2 MSTORE PUSH1 0x20 ADD PUSH32 0x506172736564205032504B48206F757470757400000000000000000000000000 DUP2 MSTORE POP PUSH2 0x17E9 JUMP JUMPDEST PUSH2 0xB73 DUP5 PUSH1 0x3 DUP6 PUSH2 0xB6E SWAP2 SWAP1 PUSH2 0x25B1 JUMP JUMPDEST PUSH2 0x1AD2 JUMP JUMPDEST PUSH12 0xFFFFFFFFFFFFFFFFFFFFFFFF NOT AND SWAP1 POP PUSH2 0xCE0 JUMP JUMPDEST PUSH2 0xB94 DUP5 DUP5 DUP5 PUSH2 0x1BB5 JUMP JUMPDEST ISZERO PUSH2 0xC03 JUMPI PUSH2 0xBD7 PUSH1 0x40 MLOAD DUP1 PUSH1 0x40 ADD PUSH1 0x40 MSTORE DUP1 PUSH1 0x12 DUP2 MSTORE PUSH1 0x20 ADD PUSH32 0x5061727365642050325348206F75747075740000000000000000000000000000 DUP2 MSTORE POP PUSH2 0x17E9 JUMP JUMPDEST PUSH2 0xBED DUP5 PUSH1 0x2 DUP6 PUSH2 0xBE8 SWAP2 SWAP1 PUSH2 0x25B1 JUMP JUMPDEST PUSH2 0x1AD2 JUMP JUMPDEST PUSH12 0xFFFFFFFFFFFFFFFFFFFFFFFF NOT AND SWAP1 POP PUSH2 0xCE0 JUMP JUMPDEST PUSH2 0xC0E DUP5 DUP5 DUP5 PUSH2 0x1CD2 JUMP JUMPDEST ISZERO PUSH2 0xC6E JUMPI PUSH2 0xC51 PUSH1 0x40 MLOAD DUP1 PUSH1 0x40 ADD PUSH1 0x40 MSTORE DUP1 PUSH1 0x17 DUP2 MSTORE PUSH1 0x20 ADD PUSH32 0x506172736564204F505F52455455524E206F7574707574000000000000000000 DUP2 MSTORE POP PUSH2 0x17E9 JUMP JUMPDEST PUSH2 0xC67 DUP5 PUSH1 0x2 DUP6 PUSH2 0xC62 SWAP2 SWAP1 PUSH2 0x25B1 JUMP JUMPDEST PUSH2 0x1882 JUMP JUMPDEST SWAP1 POP PUSH2 0xCE0 JUMP JUMPDEST PUSH2 0xC79 DUP5 DUP5 DUP5 PUSH2 0x123A JUMP JUMPDEST ISZERO PUSH2 0xCD9 JUMPI PUSH2 0xCBC PUSH1 0x40 MLOAD DUP1 PUSH1 0x40 ADD PUSH1 0x40 MSTORE DUP1 PUSH1 0x1B DUP2 MSTORE PUSH1 0x20 ADD PUSH32 0x506172736564204C696768746E696E6748544C43206F75747075740000000000 DUP2 MSTORE POP PUSH2 0x17E9 JUMP JUMPDEST PUSH2 0xCD2 DUP5 PUSH1 0x2 DUP6 PUSH2 0xCCD SWAP2 SWAP1 PUSH2 0x25B1 JUMP JUMPDEST PUSH2 0x1882 JUMP JUMPDEST SWAP1 POP PUSH2 0xCE0 JUMP JUMPDEST PUSH1 0x0 DUP1 SHL SWAP1 POP JUMPDEST SWAP4 SWAP3 POP POP POP JUMP JUMPDEST PUSH1 0x0 DUP1 PUSH1 0x0 DUP5 DUP5 DUP2 MLOAD DUP2 LT PUSH2 0xCFF JUMPI PUSH2 0xCFE PUSH2 0x253A JUMP JUMPDEST JUMPDEST PUSH1 0x20 ADD ADD MLOAD PUSH1 0xF8 SHR PUSH1 0xF8 SHL PUSH1 0xF8 SHR SWAP1 POP PUSH1 0x1 DUP5 PUSH2 0xD1C SWAP2 SWAP1 PUSH2 0x25B1 JUMP JUMPDEST SWAP4 POP PUSH1 0xFD DUP2 PUSH1 0xFF AND LT ISZERO PUSH2 0xD3C JUMPI DUP1 DUP5 DUP2 PUSH1 0xFF AND SWAP2 POP SWAP3 POP SWAP3 POP POP PUSH2 0xDC8 JUMP JUMPDEST PUSH1 0xFD DUP2 PUSH1 0xFF AND SUB PUSH2 0xD6A JUMPI PUSH2 0xD53 DUP6 DUP6 PUSH1 0x10 PUSH2 0xDCF JUMP JUMPDEST PUSH1 0x2 DUP6 PUSH2 0xD60 SWAP2 SWAP1 PUSH2 0x25B1 JUMP JUMPDEST SWAP3 POP SWAP3 POP POP PUSH2 0xDC8 JUMP JUMPDEST PUSH1 0xFE DUP2 PUSH1 0xFF AND SUB PUSH2 0xD98 JUMPI PUSH2 0xD81 DUP6 DUP6 PUSH1 0x20 PUSH2 0xDCF JUMP JUMPDEST PUSH1 0x4 DUP6 PUSH2 0xD8E SWAP2 SWAP1 PUSH2 0x25B1 JUMP JUMPDEST SWAP3 POP SWAP3 POP POP PUSH2 0xDC8 JUMP JUMPDEST PUSH1 0xFF DUP2 PUSH1 0xFF AND SUB PUSH2 0xDC6 JUMPI PUSH2 0xDAF DUP6 DUP6 PUSH1 0x40 PUSH2 0xDCF JUMP JUMPDEST PUSH1 0x8 DUP6 PUSH2 0xDBC SWAP2 SWAP1 PUSH2 0x25B1 JUMP JUMPDEST SWAP3 POP SWAP3 POP POP PUSH2 0xDC8 JUMP JUMPDEST POP JUMPDEST SWAP3 POP SWAP3 SWAP1 POP JUMP JUMPDEST PUSH1 0x0 PUSH1 0x8 DUP3 SUB PUSH2 0xE04 JUMPI DUP4 DUP4 DUP2 MLOAD DUP2 LT PUSH2 0xDEC JUMPI PUSH2 0xDEB PUSH2 0x253A JUMP JUMPDEST JUMPDEST PUSH1 0x20 ADD ADD MLOAD PUSH1 0xF8 SHR PUSH1 0xF8 SHL PUSH1 0xF8 SHR PUSH1 0xFF AND SWAP1 POP PUSH2 0x1233 JUMP JUMPDEST PUSH1 0x10 DUP3 SUB PUSH2 0xE86 JUMPI PUSH2 0x100 DUP5 PUSH1 0x1 DUP6 PUSH2 0xE1D SWAP2 SWAP1 PUSH2 0x25B1 JUMP JUMPDEST DUP2 MLOAD DUP2 LT PUSH2 0xE2E JUMPI PUSH2 0xE2D PUSH2 0x253A JUMP JUMPDEST JUMPDEST PUSH1 0x20 ADD ADD MLOAD PUSH1 0xF8 SHR PUSH1 0xF8 SHL PUSH1 0xF8 SHR PUSH1 0xFF AND PUSH2 0xE49 SWAP2 SWAP1 PUSH2 0x26DC JUMP JUMPDEST PUSH2 0xFFFF AND DUP5 DUP5 DUP2 MLOAD DUP2 LT PUSH2 0xE60 JUMPI PUSH2 0xE5F PUSH2 0x253A JUMP JUMPDEST JUMPDEST PUSH1 0x20 ADD ADD MLOAD PUSH1 0xF8 SHR PUSH1 0xF8 SHL PUSH1 0xF8 SHR PUSH1 0xFF AND PUSH2 0xFFFF AND PUSH2 0xE7F SWAP2 SWAP1 PUSH2 0x25B1 JUMP JUMPDEST SWAP1 POP PUSH2 0x1233 JUMP JUMPDEST PUSH1 0x20 DUP3 SUB PUSH2 0xFA9 JUMPI PUSH4 0x1000000 DUP5 PUSH1 0x3 DUP6 PUSH2 0xEA1 SWAP2 SWAP1 PUSH2 0x25B1 JUMP JUMPDEST DUP2 MLOAD DUP2 LT PUSH2 0xEB2 JUMPI PUSH2 0xEB1 PUSH2 0x253A JUMP JUMPDEST JUMPDEST PUSH1 0x20 ADD ADD MLOAD PUSH1 0xF8 SHR PUSH1 0xF8 SHL PUSH1 0xF8 SHR PUSH1 0xFF AND PUSH2 0xECD SWAP2 SWAP1 PUSH2 0x2729 JUMP JUMPDEST PUSH4 0xFFFFFFFF AND PUSH3 0x10000 DUP6 PUSH1 0x2 DUP7 PUSH2 0xEE5 SWAP2 SWAP1 PUSH2 0x25B1 JUMP JUMPDEST DUP2 MLOAD DUP2 LT PUSH2 0xEF6 JUMPI PUSH2 0xEF5 PUSH2 0x253A JUMP JUMPDEST JUMPDEST PUSH1 0x20 ADD ADD MLOAD PUSH1 0xF8 SHR PUSH1 0xF8 SHL PUSH1 0xF8 SHR PUSH1 0xFF AND PUSH2 0xF11 SWAP2 SWAP1 PUSH2 0x2729 JUMP JUMPDEST PUSH4 0xFFFFFFFF AND PUSH2 0x100 DUP7 PUSH1 0x1 DUP8 PUSH2 0xF28 SWAP2 SWAP1 PUSH2 0x25B1 JUMP JUMPDEST DUP2 MLOAD DUP2 LT PUSH2 0xF39 JUMPI PUSH2 0xF38 PUSH2 0x253A JUMP JUMPDEST JUMPDEST PUSH1 0x20 ADD ADD MLOAD PUSH1 0xF8 SHR PUSH1 0xF8 SHL PUSH1 0xF8 SHR PUSH1 0xFF AND PUSH2 0xF54 SWAP2 SWAP1 PUSH2 0x2729 JUMP JUMPDEST PUSH4 0xFFFFFFFF AND DUP7 DUP7 DUP2 MLOAD DUP2 LT PUSH2 0xF6D JUMPI PUSH2 0xF6C PUSH2 0x253A JUMP JUMPDEST JUMPDEST PUSH1 0x20 ADD ADD MLOAD PUSH1 0xF8 SHR PUSH1 0xF8 SHL PUSH1 0xF8 SHR PUSH1 0xFF AND PUSH4 0xFFFFFFFF AND PUSH2 0xF8E SWAP2 SWAP1 PUSH2 0x25B1 JUMP JUMPDEST PUSH2 0xF98 SWAP2 SWAP1 PUSH2 0x25B1 JUMP JUMPDEST PUSH2 0xFA2 SWAP2 SWAP1 PUSH2 0x25B1 JUMP JUMPDEST SWAP1 POP PUSH2 0x1233 JUMP JUMPDEST PUSH1 0x40 DUP3 SUB PUSH2 0x1232 JUMPI PUSH8 0x100000000000000 DUP5 PUSH1 0x7 DUP6 PUSH2 0xFC8 SWAP2 SWAP1 PUSH2 0x25B1 JUMP JUMPDEST DUP2 MLOAD DUP2 LT PUSH2 0xFD9 JUMPI PUSH2 0xFD8 PUSH2 0x253A JUMP JUMPDEST JUMPDEST PUSH1 0x20 ADD ADD MLOAD PUSH1 0xF8 SHR PUSH1 0xF8 SHL PUSH1 0xF8 SHR PUSH1 0xFF AND PUSH2 0xFF4 SWAP2 SWAP1 PUSH2 0x277A JUMP JUMPDEST PUSH8 0xFFFFFFFFFFFFFFFF AND PUSH7 0x1000000000000 DUP6 PUSH1 0x6 DUP7 PUSH2 0x1014 SWAP2 SWAP1 PUSH2 0x25B1 JUMP JUMPDEST DUP2 MLOAD DUP2 LT PUSH2 0x1025 JUMPI PUSH2 0x1024 PUSH2 0x253A JUMP JUMPDEST JUMPDEST PUSH1 0x20 ADD ADD MLOAD PUSH1 0xF8 SHR PUSH1 0xF8 SHL PUSH1 0xF8 SHR PUSH1 0xFF AND PUSH2 0x1040 SWAP2 SWAP1 PUSH2 0x277A JUMP JUMPDEST PUSH8 0xFFFFFFFFFFFFFFFF AND PUSH6 0x10000000000 DUP7 PUSH1 0x5 DUP8 PUSH2 0x105F SWAP2 SWAP1 PUSH2 0x25B1 JUMP JUMPDEST DUP2 MLOAD DUP2 LT PUSH2 0x1070 JUMPI PUSH2 0x106F PUSH2 0x253A JUMP JUMPDEST JUMPDEST PUSH1 0x20 ADD ADD MLOAD PUSH1 0xF8 SHR PUSH1 0xF8 SHL PUSH1 0xF8 SHR PUSH1 0xFF AND PUSH2 0x108B SWAP2 SWAP1 PUSH2 0x277A JUMP JUMPDEST PUSH8 0xFFFFFFFFFFFFFFFF AND PUSH5 0x100000000 DUP8 PUSH1 0x4 DUP9 PUSH2 0x10A9 SWAP2 SWAP1 PUSH2 0x25B1 JUMP JUMPDEST DUP2 MLOAD DUP2 LT PUSH2 0x10BA JUMPI PUSH2 0x10B9 PUSH2 0x253A JUMP JUMPDEST JUMPDEST PUSH1 0x20 ADD ADD MLOAD PUSH1 0xF8 SHR PUSH1 0xF8 SHL PUSH1 0xF8 SHR PUSH1 0xFF AND PUSH2 0x10D5 SWAP2 SWAP1 PUSH2 0x277A JUMP JUMPDEST PUSH8 0xFFFFFFFFFFFFFFFF AND PUSH4 0x1000000 DUP9 PUSH1 0x3 DUP10 PUSH2 0x10F2 SWAP2 SWAP1 PUSH2 0x25B1 JUMP JUMPDEST DUP2 MLOAD DUP2 LT PUSH2 0x1103 JUMPI PUSH2 0x1102 PUSH2 0x253A JUMP JUMPDEST JUMPDEST PUSH1 0x20 ADD ADD MLOAD PUSH1 0xF8 SHR PUSH1 0xF8 SHL PUSH1 0xF8 SHR PUSH1 0xFF AND PUSH2 0x111E SWAP2 SWAP1 PUSH2 0x277A JUMP JUMPDEST PUSH8 0xFFFFFFFFFFFFFFFF AND PUSH3 0x10000 DUP10 PUSH1 0x2 DUP11 PUSH2 0x113A SWAP2 SWAP1 PUSH2 0x25B1 JUMP JUMPDEST DUP2 MLOAD DUP2 LT PUSH2 0x114B JUMPI PUSH2 0x114A PUSH2 0x253A JUMP JUMPDEST JUMPDEST PUSH1 0x20 ADD ADD MLOAD PUSH1 0xF8 SHR PUSH1 0xF8 SHL PUSH1 0xF8 SHR PUSH1 0xFF AND PUSH2 0x1166 SWAP2 SWAP1 PUSH2 0x277A JUMP JUMPDEST PUSH8 0xFFFFFFFFFFFFFFFF AND PUSH2 0x100 DUP11 PUSH1 0x1 DUP12 PUSH2 0x1181 SWAP2 SWAP1 PUSH2 0x25B1 JUMP JUMPDEST DUP2 MLOAD DUP2 LT PUSH2 0x1192 JUMPI PUSH2 0x1191 PUSH2 0x253A JUMP JUMPDEST JUMPDEST PUSH1 0x20 ADD ADD MLOAD PUSH1 0xF8 SHR PUSH1 0xF8 SHL PUSH1 0xF8 SHR PUSH1 0xFF AND PUSH2 0x11AD SWAP2 SWAP1 PUSH2 0x277A JUMP JUMPDEST PUSH8 0xFFFFFFFFFFFFFFFF AND DUP11 DUP11 DUP2 MLOAD DUP2 LT PUSH2 0x11CA JUMPI PUSH2 0x11C9 PUSH2 0x253A JUMP JUMPDEST JUMPDEST PUSH1 0x20 ADD ADD MLOAD PUSH1 0xF8 SHR PUSH1 0xF8 SHL PUSH1 0xF8 SHR PUSH1 0xFF AND PUSH8 0xFFFFFFFFFFFFFFFF AND PUSH2 0x11EF SWAP2 SWAP1 PUSH2 0x25B1 JUMP JUMPDEST PUSH2 0x11F9 SWAP2 SWAP1 PUSH2 0x25B1 JUMP JUMPDEST PUSH2 0x1203 SWAP2 SWAP1 PUSH2 0x25B1 JUMP JUMPDEST PUSH2 0x120D SWAP2 SWAP1 PUSH2 0x25B1 JUMP JUMPDEST PUSH2 0x1217 SWAP2 SWAP1 PUSH2 0x25B1 JUMP JUMPDEST PUSH2 0x1221 SWAP2 SWAP1 PUSH2 0x25B1 JUMP JUMPDEST PUSH2 0x122B SWAP2 SWAP1 PUSH2 0x25B1 JUMP JUMPDEST SWAP1 POP PUSH2 0x1233 JUMP JUMPDEST JUMPDEST SWAP4 SWAP3 POP POP POP JUMP JUMPDEST PUSH1 0x0 PUSH1 0x72 DUP3 EQ DUP1 ISZERO PUSH2 0x129A JUMPI POP PUSH1 0x76 PUSH1 0xF8 SHL DUP5 PUSH1 0x0 DUP6 PUSH2 0x125A SWAP2 SWAP1 PUSH2 0x25B1 JUMP JUMPDEST DUP2 MLOAD DUP2 LT PUSH2 0x126B JUMPI PUSH2 0x126A PUSH2 0x253A JUMP JUMPDEST JUMPDEST PUSH1 0x20 ADD ADD MLOAD PUSH1 0xF8 SHR PUSH1 0xF8 SHL PUSH31 0xFFFFFFFFFFFFFFFFFFFFFFFFFFFFFFFFFFFFFFFFFFFFFFFFFFFFFFFFFFFFFF NOT AND EQ JUMPDEST DUP1 ISZERO PUSH2 0x12F4 JUMPI POP PUSH1 0x21 PUSH1 0xF8 SHL DUP5 PUSH1 0x1 DUP6 PUSH2 0x12B4 SWAP2 SWAP1 PUSH2 0x25B1 JUMP JUMPDEST DUP2 MLOAD DUP2 LT PUSH2 0x12C5 JUMPI PUSH2 0x12C4 PUSH2 0x253A JUMP JUMPDEST JUMPDEST PUSH1 0x20 ADD ADD MLOAD PUSH1 0xF8 SHR PUSH1 0xF8 SHL PUSH31 0xFFFFFFFFFFFFFFFFFFFFFFFFFFFFFFFFFFFFFFFFFFFFFFFFFFFFFFFFFFFFFF NOT AND EQ JUMPDEST DUP1 ISZERO PUSH2 0x134E JUMPI POP PUSH1 0xAC PUSH1 0xF8 SHL DUP5 PUSH1 0x23 DUP6 PUSH2 0x130E SWAP2 SWAP1 PUSH2 0x25B1 JUMP JUMPDEST DUP2 MLOAD DUP2 LT PUSH2 0x131F JUMPI PUSH2 0x131E PUSH2 0x253A JUMP JUMPDEST JUMPDEST PUSH1 0x20 ADD ADD MLOAD PUSH1 0xF8 SHR PUSH1 0xF8 SHL PUSH31 0xFFFFFFFFFFFFFFFFFFFFFFFFFFFFFFFFFFFFFFFFFFFFFFFFFFFFFFFFFFFFFF NOT AND EQ JUMPDEST DUP1 ISZERO PUSH2 0x13A8 JUMPI POP PUSH1 0x63 PUSH1 0xF8 SHL DUP5 PUSH1 0x24 DUP6 PUSH2 0x1368 SWAP2 SWAP1 PUSH2 0x25B1 JUMP JUMPDEST DUP2 MLOAD DUP2 LT PUSH2 0x1379 JUMPI PUSH2 0x1378 PUSH2 0x253A JUMP JUMPDEST JUMPDEST PUSH1 0x20 ADD ADD MLOAD PUSH1 0xF8 SHR PUSH1 0xF8 SHL PUSH31 0xFFFFFFFFFFFFFFFFFFFFFFFFFFFFFFFFFFFFFFFFFFFFFFFFFFFFFFFFFFFFFF NOT AND EQ JUMPDEST DUP1 ISZERO PUSH2 0x1402 JUMPI POP PUSH1 0x75 PUSH1 0xF8 SHL DUP5 PUSH1 0x25 DUP6 PUSH2 0x13C2 SWAP2 SWAP1 PUSH2 0x25B1 JUMP JUMPDEST DUP2 MLOAD DUP2 LT PUSH2 0x13D3 JUMPI PUSH2 0x13D2 PUSH2 0x253A JUMP JUMPDEST JUMPDEST PUSH1 0x20 ADD ADD MLOAD PUSH1 0xF8 SHR PUSH1 0xF8 SHL PUSH31 0xFFFFFFFFFFFFFFFFFFFFFFFFFFFFFFFFFFFFFFFFFFFFFFFFFFFFFFFFFFFFFF NOT AND EQ JUMPDEST DUP1 ISZERO PUSH2 0x145C JUMPI POP PUSH1 0xAA PUSH1 0xF8 SHL DUP5 PUSH1 0x26 DUP6 PUSH2 0x141C SWAP2 SWAP1 PUSH2 0x25B1 JUMP JUMPDEST DUP2 MLOAD DUP2 LT PUSH2 0x142D JUMPI PUSH2 0x142C PUSH2 0x253A JUMP JUMPDEST JUMPDEST PUSH1 0x20 ADD ADD MLOAD PUSH1 0xF8 SHR PUSH1 0xF8 SHL PUSH31 0xFFFFFFFFFFFFFFFFFFFFFFFFFFFFFFFFFFFFFFFFFFFFFFFFFFFFFFFFFFFFFF NOT AND EQ JUMPDEST DUP1 ISZERO PUSH2 0x14B6 JUMPI POP PUSH1 0x20 PUSH1 0xF8 SHL DUP5 PUSH1 0x27 DUP6 PUSH2 0x1476 SWAP2 SWAP1 PUSH2 0x25B1 JUMP JUMPDEST DUP2 MLOAD DUP2 LT PUSH2 0x1487 JUMPI PUSH2 0x1486 PUSH2 0x253A JUMP JUMPDEST JUMPDEST PUSH1 0x20 ADD ADD MLOAD PUSH1 0xF8 SHR PUSH1 0xF8 SHL PUSH31 0xFFFFFFFFFFFFFFFFFFFFFFFFFFFFFFFFFFFFFFFFFFFFFFFFFFFFFFFFFFFFFF NOT AND EQ JUMPDEST DUP1 ISZERO PUSH2 0x1510 JUMPI POP PUSH1 0x88 PUSH1 0xF8 SHL DUP5 PUSH1 0x48 DUP6 PUSH2 0x14D0 SWAP2 SWAP1 PUSH2 0x25B1 JUMP JUMPDEST DUP2 MLOAD DUP2 LT PUSH2 0x14E1 JUMPI PUSH2 0x14E0 PUSH2 0x253A JUMP JUMPDEST JUMPDEST PUSH1 0x20 ADD ADD MLOAD PUSH1 0xF8 SHR PUSH1 0xF8 SHL PUSH31 0xFFFFFFFFFFFFFFFFFFFFFFFFFFFFFFFFFFFFFFFFFFFFFFFFFFFFFFFFFFFFFF NOT AND EQ JUMPDEST DUP1 ISZERO PUSH2 0x156A JUMPI POP PUSH1 0x67 PUSH1 0xF8 SHL DUP5 PUSH1 0x49 DUP6 PUSH2 0x152A SWAP2 SWAP1 PUSH2 0x25B1 JUMP JUMPDEST DUP2 MLOAD DUP2 LT PUSH2 0x153B JUMPI PUSH2 0x153A PUSH2 0x253A JUMP JUMPDEST JUMPDEST PUSH1 0x20 ADD ADD MLOAD PUSH1 0xF8 SHR PUSH1 0xF8 SHL PUSH31 0xFFFFFFFFFFFFFFFFFFFFFFFFFFFFFFFFFFFFFFFFFFFFFFFFFFFFFFFFFFFFFF NOT AND EQ JUMPDEST DUP1 ISZERO PUSH2 0x15C4 JUMPI POP PUSH1 0x21 PUSH1 0xF8 SHL DUP5 PUSH1 0x4A DUP6 PUSH2 0x1584 SWAP2 SWAP1 PUSH2 0x25B1 JUMP JUMPDEST DUP2 MLOAD DUP2 LT PUSH2 0x1595 JUMPI PUSH2 0x1594 PUSH2 0x253A JUMP JUMPDEST JUMPDEST PUSH1 0x20 ADD ADD MLOAD PUSH1 0xF8 SHR PUSH1 0xF8 SHL PUSH31 0xFFFFFFFFFFFFFFFFFFFFFFFFFFFFFFFFFFFFFFFFFFFFFFFFFFFFFFFFFFFFFF NOT AND EQ JUMPDEST DUP1 ISZERO PUSH2 0x161E JUMPI POP PUSH1 0xAD PUSH1 0xF8 SHL DUP5 PUSH1 0x6C DUP6 PUSH2 0x15DE SWAP2 SWAP1 PUSH2 0x25B1 JUMP JUMPDEST DUP2 MLOAD DUP2 LT PUSH2 0x15EF JUMPI PUSH2 0x15EE PUSH2 0x253A JUMP JUMPDEST JUMPDEST PUSH1 0x20 ADD ADD MLOAD PUSH1 0xF8 SHR PUSH1 0xF8 SHL PUSH31 0xFFFFFFFFFFFFFFFFFFFFFFFFFFFFFFFFFFFFFFFFFFFFFFFFFFFFFFFFFFFFFF NOT AND EQ JUMPDEST DUP1 ISZERO PUSH2 0x1678 JUMPI POP PUSH1 0x52 PUSH1 0xF8 SHL DUP5 PUSH1 0x6D DUP6 PUSH2 0x1638 SWAP2 SWAP1 PUSH2 0x25B1 JUMP JUMPDEST DUP2 MLOAD DUP2 LT PUSH2 0x1649 JUMPI PUSH2 0x1648 PUSH2 0x253A JUMP JUMPDEST JUMPDEST PUSH1 0x20 ADD ADD MLOAD PUSH1 0xF8 SHR PUSH1 0xF8 SHL PUSH31 0xFFFFFFFFFFFFFFFFFFFFFFFFFFFFFFFFFFFFFFFFFFFFFFFFFFFFFFFFFFFFFF NOT AND EQ JUMPDEST DUP1 ISZERO PUSH2 0x16D2 JUMPI POP PUSH1 0xB2 PUSH1 0xF8 SHL DUP5 PUSH1 0x6E DUP6 PUSH2 0x1692 SWAP2 SWAP1 PUSH2 0x25B1 JUMP JUMPDEST DUP2 MLOAD DUP2 LT PUSH2 0x16A3 JUMPI PUSH2 0x16A2 PUSH2 0x253A JUMP JUMPDEST JUMPDEST PUSH1 0x20 ADD ADD MLOAD PUSH1 0xF8 SHR PUSH1 0xF8 SHL PUSH31 0xFFFFFFFFFFFFFFFFFFFFFFFFFFFFFFFFFFFFFFFFFFFFFFFFFFFFFFFFFFFFFF NOT AND EQ JUMPDEST DUP1 ISZERO PUSH2 0x172C JUMPI POP PUSH1 0x75 PUSH1 0xF8 SHL DUP5 PUSH1 0x6F DUP6 PUSH2 0x16EC SWAP2 SWAP1 PUSH2 0x25B1 JUMP JUMPDEST DUP2 MLOAD DUP2 LT PUSH2 0x16FD JUMPI PUSH2 0x16FC PUSH2 0x253A JUMP JUMPDEST JUMPDEST PUSH1 0x20 ADD ADD MLOAD PUSH1 0xF8 SHR PUSH1 0xF8 SHL PUSH31 0xFFFFFFFFFFFFFFFFFFFFFFFFFFFFFFFFFFFFFFFFFFFFFFFFFFFFFFFFFFFFFF NOT AND EQ JUMPDEST DUP1 ISZERO PUSH2 0x1786 JUMPI POP PUSH1 0x68 PUSH1 0xF8 SHL DUP5 PUSH1 0x70 DUP6 PUSH2 0x1746 SWAP2 SWAP1 PUSH2 0x25B1 JUMP JUMPDEST DUP2 MLOAD DUP2 LT PUSH2 0x1757 JUMPI PUSH2 0x1756 PUSH2 0x253A JUMP JUMPDEST JUMPDEST PUSH1 0x20 ADD ADD MLOAD PUSH1 0xF8 SHR PUSH1 0xF8 SHL PUSH31 0xFFFFFFFFFFFFFFFFFFFFFFFFFFFFFFFFFFFFFFFFFFFFFFFFFFFFFFFFFFFFFF NOT AND EQ JUMPDEST DUP1 ISZERO PUSH2 0x17E0 JUMPI POP PUSH1 0x51 PUSH1 0xF8 SHL DUP5 PUSH1 0x71 DUP6 PUSH2 0x17A0 SWAP2 SWAP1 PUSH2 0x25B1 JUMP JUMPDEST DUP2 MLOAD DUP2 LT PUSH2 0x17B1 JUMPI PUSH2 0x17B0 PUSH2 0x253A JUMP JUMPDEST JUMPDEST PUSH1 0x20 ADD ADD MLOAD PUSH1 0xF8 SHR PUSH1 0xF8 SHL PUSH31 0xFFFFFFFFFFFFFFFFFFFFFFFFFFFFFFFFFFFFFFFFFFFFFFFFFFFFFFFFFFFFFF NOT AND EQ JUMPDEST SWAP1 POP SWAP4 SWAP3 POP POP POP JUMP JUMPDEST PUSH2 0x187F DUP2 PUSH1 0x40 MLOAD PUSH1 0x24 ADD PUSH2 0x17FD SWAP2 SWAP1 PUSH2 0x2825 JUMP JUMPDEST PUSH1 0x40 MLOAD PUSH1 0x20 DUP2 DUP4 SUB SUB DUP2 MSTORE SWAP1 PUSH1 0x40 MSTORE PUSH32 0x41304FAC00000000000000000000000000000000000000000000000000000000 PUSH28 0xFFFFFFFFFFFFFFFFFFFFFFFFFFFFFFFFFFFFFFFFFFFFFFFFFFFFFFFF NOT AND PUSH1 0x20 DUP3 ADD DUP1 MLOAD PUSH28 0xFFFFFFFFFFFFFFFFFFFFFFFFFFFFFFFFFFFFFFFFFFFFFFFFFFFFFFFF DUP4 DUP2 DUP4 AND OR DUP4 MSTORE POP POP POP POP PUSH2 0x1D95 JUMP JUMPDEST POP JUMP JUMPDEST PUSH1 0x0 DUP1 PUSH1 0x0 SWAP1 POP PUSH1 0x0 JUMPDEST PUSH1 0x20 DUP2 LT ISZERO PUSH2 0x18FF JUMPI DUP1 PUSH1 0x1F PUSH2 0x18A2 SWAP2 SWAP1 PUSH2 0x2462 JUMP JUMPDEST PUSH1 0x8 PUSH2 0x18AE SWAP2 SWAP1 PUSH2 0x2847 JUMP JUMPDEST DUP6 DUP6 DUP4 PUSH2 0x18BB SWAP2 SWAP1 PUSH2 0x25B1 JUMP JUMPDEST DUP2 MLOAD DUP2 LT PUSH2 0x18CC JUMPI PUSH2 0x18CB PUSH2 0x253A JUMP JUMPDEST JUMPDEST PUSH1 0x20 ADD ADD MLOAD PUSH1 0xF8 SHR PUSH1 0xF8 SHL PUSH1 0xF8 SHR PUSH1 0xFF AND SWAP1 SHL DUP3 PUSH2 0x18EA SWAP2 SWAP1 PUSH2 0x25B1 JUMP JUMPDEST SWAP2 POP DUP1 DUP1 PUSH2 0x18F7 SWAP1 PUSH2 0x2569 JUMP JUMPDEST SWAP2 POP POP PUSH2 0x188C JUMP JUMPDEST POP DUP1 PUSH1 0x0 SHL SWAP2 POP POP SWAP3 SWAP2 POP POP JUMP JUMPDEST PUSH1 0x0 PUSH1 0x19 DUP3 EQ DUP1 ISZERO PUSH2 0x1961 JUMPI POP PUSH1 0x76 PUSH1 0xF8 SHL DUP5 DUP5 DUP2 MLOAD DUP2 LT PUSH2 0x1932 JUMPI PUSH2 0x1931 PUSH2 0x253A JUMP JUMPDEST JUMPDEST PUSH1 0x20 ADD ADD MLOAD PUSH1 0xF8 SHR PUSH1 0xF8 SHL PUSH31 0xFFFFFFFFFFFFFFFFFFFFFFFFFFFFFFFFFFFFFFFFFFFFFFFFFFFFFFFFFFFFFF NOT AND EQ JUMPDEST DUP1 ISZERO PUSH2 0x19BB JUMPI POP PUSH1 0xA9 PUSH1 0xF8 SHL DUP5 PUSH1 0x1 DUP6 PUSH2 0x197B SWAP2 SWAP1 PUSH2 0x25B1 JUMP JUMPDEST DUP2 MLOAD DUP2 LT PUSH2 0x198C JUMPI PUSH2 0x198B PUSH2 0x253A JUMP JUMPDEST JUMPDEST PUSH1 0x20 ADD ADD MLOAD PUSH1 0xF8 SHR PUSH1 0xF8 SHL PUSH31 0xFFFFFFFFFFFFFFFFFFFFFFFFFFFFFFFFFFFFFFFFFFFFFFFFFFFFFFFFFFFFFF NOT AND EQ JUMPDEST DUP1 ISZERO PUSH2 0x1A15 JUMPI POP PUSH1 0x14 PUSH1 0xF8 SHL DUP5 PUSH1 0x2 DUP6 PUSH2 0x19D5 SWAP2 SWAP1 PUSH2 0x25B1 JUMP JUMPDEST DUP2 MLOAD DUP2 LT PUSH2 0x19E6 JUMPI PUSH2 0x19E5 PUSH2 0x253A JUMP JUMPDEST JUMPDEST PUSH1 0x20 ADD ADD MLOAD PUSH1 0xF8 SHR PUSH1 0xF8 SHL PUSH31 0xFFFFFFFFFFFFFFFFFFFFFFFFFFFFFFFFFFFFFFFFFFFFFFFFFFFFFFFFFFFFFF NOT AND EQ JUMPDEST DUP1 ISZERO PUSH2 0x1A6F JUMPI POP PUSH1 0x88 PUSH1 0xF8 SHL DUP5 PUSH1 0x17 DUP6 PUSH2 0x1A2F SWAP2 SWAP1 PUSH2 0x25B1 JUMP JUMPDEST DUP2 MLOAD DUP2 LT PUSH2 0x1A40 JUMPI PUSH2 0x1A3F PUSH2 0x253A JUMP JUMPDEST JUMPDEST PUSH1 0x20 ADD ADD MLOAD PUSH1 0xF8 SHR PUSH1 0xF8 SHL PUSH31 0xFFFFFFFFFFFFFFFFFFFFFFFFFFFFFFFFFFFFFFFFFFFFFFFFFFFFFFFFFFFFFF NOT AND EQ JUMPDEST DUP1 ISZERO PUSH2 0x1AC9 JUMPI POP PUSH1 0xAC PUSH1 0xF8 SHL DUP5 PUSH1 0x18 DUP6 PUSH2 0x1A89 SWAP2 SWAP1 PUSH2 0x25B1 JUMP JUMPDEST DUP2 MLOAD DUP2 LT PUSH2 0x1A9A JUMPI PUSH2 0x1A99 PUSH2 0x253A JUMP JUMPDEST JUMPDEST PUSH1 0x20 ADD ADD MLOAD PUSH1 0xF8 SHR PUSH1 0xF8 SHL PUSH31 0xFFFFFFFFFFFFFFFFFFFFFFFFFFFFFFFFFFFFFFFFFFFFFFFFFFFFFFFFFFFFFF NOT AND EQ JUMPDEST SWAP1 POP SWAP4 SWAP3 POP POP POP JUMP JUMPDEST PUSH1 0x0 DUP1 PUSH1 0x0 SWAP1 POP PUSH1 0x0 JUMPDEST PUSH1 0x14 DUP2 PUSH20 0xFFFFFFFFFFFFFFFFFFFFFFFFFFFFFFFFFFFFFFFF AND LT ISZERO PUSH2 0x1BA7 JUMPI DUP1 PUSH1 0x13 PUSH2 0x1B08 SWAP2 SWAP1 PUSH2 0x28A9 JUMP JUMPDEST PUSH1 0x8 PUSH2 0x1B14 SWAP2 SWAP1 PUSH2 0x28F1 JUMP JUMPDEST PUSH20 0xFFFFFFFFFFFFFFFFFFFFFFFFFFFFFFFFFFFFFFFF AND DUP6 DUP6 DUP4 PUSH20 0xFFFFFFFFFFFFFFFFFFFFFFFFFFFFFFFFFFFFFFFF AND PUSH2 0x1B4D SWAP2 SWAP1 PUSH2 0x25B1 JUMP JUMPDEST DUP2 MLOAD DUP2 LT PUSH2 0x1B5E JUMPI PUSH2 0x1B5D PUSH2 0x253A JUMP JUMPDEST JUMPDEST PUSH1 0x20 ADD ADD MLOAD PUSH1 0xF8 SHR PUSH1 0xF8 SHL PUSH1 0xF8 SHR PUSH1 0xFF AND PUSH20 0xFFFFFFFFFFFFFFFFFFFFFFFFFFFFFFFFFFFFFFFF AND SWAP1 SHL DUP3 PUSH2 0x1B92 SWAP2 SWAP1 PUSH2 0x2933 JUMP JUMPDEST SWAP2 POP DUP1 DUP1 PUSH2 0x1B9F SWAP1 PUSH2 0x297B JUMP JUMPDEST SWAP2 POP POP PUSH2 0x1ADC JUMP JUMPDEST POP DUP1 PUSH1 0x60 SHL SWAP2 POP POP SWAP3 SWAP2 POP POP JUMP JUMPDEST PUSH1 0x0 PUSH1 0x17 DUP3 EQ DUP1 ISZERO PUSH2 0x1C15 JUMPI POP PUSH1 0xA9 PUSH1 0xF8 SHL DUP5 PUSH1 0x0 DUP6 PUSH2 0x1BD5 SWAP2 SWAP1 PUSH2 0x25B1 JUMP JUMPDEST DUP2 MLOAD DUP2 LT PUSH2 0x1BE6 JUMPI PUSH2 0x1BE5 PUSH2 0x253A JUMP JUMPDEST JUMPDEST PUSH1 0x20 ADD ADD MLOAD PUSH1 0xF8 SHR PUSH1 0xF8 SHL PUSH31 0xFFFFFFFFFFFFFFFFFFFFFFFFFFFFFFFFFFFFFFFFFFFFFFFFFFFFFFFFFFFFFF NOT AND EQ JUMPDEST DUP1 ISZERO PUSH2 0x1C6F JUMPI POP PUSH1 0x14 PUSH1 0xF8 SHL DUP5 PUSH1 0x1 DUP6 PUSH2 0x1C2F SWAP2 SWAP1 PUSH2 0x25B1 JUMP JUMPDEST DUP2 MLOAD DUP2 LT PUSH2 0x1C40 JUMPI PUSH2 0x1C3F PUSH2 0x253A JUMP JUMPDEST JUMPDEST PUSH1 0x20 ADD ADD MLOAD PUSH1 0xF8 SHR PUSH1 0xF8 SHL PUSH31 0xFFFFFFFFFFFFFFFFFFFFFFFFFFFFFFFFFFFFFFFFFFFFFFFFFFFFFFFFFFFFFF NOT AND EQ JUMPDEST DUP1 ISZERO PUSH2 0x1CC9 JUMPI POP PUSH1 0x87 PUSH1 0xF8 SHL DUP5 PUSH1 0x16 DUP6 PUSH2 0x1C89 SWAP2 SWAP1 PUSH2 0x25B1 JUMP JUMPDEST DUP2 MLOAD DUP2 LT PUSH2 0x1C9A JUMPI PUSH2 0x1C99 PUSH2 0x253A JUMP JUMPDEST JUMPDEST PUSH1 0x20 ADD ADD MLOAD PUSH1 0xF8 SHR PUSH1 0xF8 SHL PUSH31 0xFFFFFFFFFFFFFFFFFFFFFFFFFFFFFFFFFFFFFFFFFFFFFFFFFFFFFFFFFFFFFF NOT AND EQ JUMPDEST SWAP1 POP SWAP4 SWAP3 POP POP POP JUMP JUMPDEST PUSH1 0x0 PUSH1 0x22 DUP3 EQ DUP1 ISZERO PUSH2 0x1D32 JUMPI POP PUSH1 0x6A PUSH1 0xF8 SHL DUP5 PUSH1 0x0 DUP6 PUSH2 0x1CF2 SWAP2 SWAP1 PUSH2 0x25B1 JUMP JUMPDEST DUP2 MLOAD DUP2 LT PUSH2 0x1D03 JUMPI PUSH2 0x1D02 PUSH2 0x253A JUMP JUMPDEST JUMPDEST PUSH1 0x20 ADD ADD MLOAD PUSH1 0xF8 SHR PUSH1 0xF8 SHL PUSH31 0xFFFFFFFFFFFFFFFFFFFFFFFFFFFFFFFFFFFFFFFFFFFFFFFFFFFFFFFFFFFFFF NOT AND EQ JUMPDEST DUP1 ISZERO PUSH2 0x1D8C JUMPI POP PUSH1 0x20 PUSH1 0xF8 SHL DUP5 PUSH1 0x1 DUP6 PUSH2 0x1D4C SWAP2 SWAP1 PUSH2 0x25B1 JUMP JUMPDEST DUP2 MLOAD DUP2 LT PUSH2 0x1D5D JUMPI PUSH2 0x1D5C PUSH2 0x253A JUMP JUMPDEST JUMPDEST PUSH1 0x20 ADD ADD MLOAD PUSH1 0xF8 SHR PUSH1 0xF8 SHL PUSH31 0xFFFFFFFFFFFFFFFFFFFFFFFFFFFFFFFFFFFFFFFFFFFFFFFFFFFFFFFFFFFFFF NOT AND EQ JUMPDEST SWAP1 POP SWAP4 SWAP3 POP POP POP JUMP JUMPDEST PUSH2 0x1DAC DUP2 PUSH2 0x1DA4 PUSH2 0x1DAF PUSH2 0x1DD0 JUMP JUMPDEST PUSH4 0xFFFFFFFF AND JUMP JUMPDEST POP JUMP JUMPDEST PUSH1 0x0 PUSH11 0x636F6E736F6C652E6C6F67 SWAP1 POP PUSH1 0x0 DUP1 DUP4 MLOAD PUSH1 0x20 DUP6 ADD DUP5 GAS STATICCALL POP POP POP JUMP JUMPDEST PUSH2 0x1E28 DUP2 SWAP1 POP SWAP2 SWAP1 POP JUMP JUMPDEST DUP3 DUP1 SLOAD DUP3 DUP3 SSTORE SWAP1 PUSH1 0x0 MSTORE PUSH1 0x20 PUSH1 0x0 KECCAK256 SWAP1 DUP2 ADD SWAP3 DUP3 ISZERO PUSH2 0x1E17 JUMPI SWAP2 PUSH1 0x20 MUL DUP3 ADD JUMPDEST DUP3 DUP2 GT ISZERO PUSH2 0x1E16 JUMPI DUP3 MLOAD DUP3 SSTORE SWAP2 PUSH1 0x20 ADD SWAP2 SWAP1 PUSH1 0x1 ADD SWAP1 PUSH2 0x1DFB JUMP JUMPDEST JUMPDEST POP SWAP1 POP PUSH2 0x1E24 SWAP2 SWAP1 PUSH2 0x1E32 JUMP JUMPDEST POP SWAP1 JUMP JUMPDEST PUSH2 0x1E30 PUSH2 0x29B7 JUMP JUMPDEST JUMP JUMPDEST JUMPDEST DUP1 DUP3 GT ISZERO PUSH2 0x1E4B JUMPI PUSH1 0x0 DUP2 PUSH1 0x0 SWAP1 SSTORE POP PUSH1 0x1 ADD PUSH2 0x1E33 JUMP JUMPDEST POP SWAP1 JUMP JUMPDEST PUSH1 0x0 PUSH1 0x40 MLOAD SWAP1 POP SWAP1 JUMP JUMPDEST PUSH1 0x0 DUP1 REVERT JUMPDEST PUSH1 0x0 DUP1 REVERT JUMPDEST PUSH1 0x0 DUP2 SWAP1 POP SWAP2 SWAP1 POP JUMP JUMPDEST PUSH2 0x1E76 DUP2 PUSH2 0x1E63 JUMP JUMPDEST DUP2 EQ PUSH2 0x1E81 JUMPI PUSH1 0x0 DUP1 REVERT JUMPDEST POP JUMP JUMPDEST PUSH1 0x0 DUP2 CALLDATALOAD SWAP1 POP PUSH2 0x1E93 DUP2 PUSH2 0x1E6D JUMP JUMPDEST SWAP3 SWAP2 POP POP JUMP JUMPDEST PUSH1 0x0 DUP2 SWAP1 POP SWAP2 SWAP1 POP JUMP JUMPDEST PUSH2 0x1EAC DUP2 PUSH2 0x1E99 JUMP JUMPDEST DUP2 EQ PUSH2 0x1EB7 JUMPI PUSH1 0x0 DUP1 REVERT JUMPDEST POP JUMP JUMPDEST PUSH1 0x0 DUP2 CALLDATALOAD SWAP1 POP PUSH2 0x1EC9 DUP2 PUSH2 0x1EA3 JUMP JUMPDEST SWAP3 SWAP2 POP POP JUMP JUMPDEST PUSH1 0x0 DUP1 PUSH1 0x0 DUP1 PUSH1 0x0 PUSH1 0xA0 DUP7 DUP9 SUB SLT ISZERO PUSH2 0x1EEB JUMPI PUSH2 0x1EEA PUSH2 0x1E59 JUMP JUMPDEST JUMPDEST PUSH1 0x0 PUSH2 0x1EF9 DUP9 DUP3 DUP10 ADD PUSH2 0x1E84 JUMP JUMPDEST SWAP6 POP POP PUSH1 0x20 PUSH2 0x1F0A DUP9 DUP3 DUP10 ADD PUSH2 0x1E84 JUMP JUMPDEST SWAP5 POP POP PUSH1 0x40 PUSH2 0x1F1B DUP9 DUP3 DUP10 ADD PUSH2 0x1E84 JUMP JUMPDEST SWAP4 POP POP PUSH1 0x60 PUSH2 0x1F2C DUP9 DUP3 DUP10 ADD PUSH2 0x1EBA JUMP JUMPDEST SWAP3 POP POP PUSH1 0x80 PUSH2 0x1F3D DUP9 DUP3 DUP10 ADD PUSH2 0x1EBA JUMP JUMPDEST SWAP2 POP POP SWAP3 SWAP6 POP SWAP3 SWAP6 SWAP1 SWAP4 POP JUMP JUMPDEST PUSH1 0x0 DUP1 REVERT JUMPDEST PUSH1 0x0 DUP1 REVERT JUMPDEST PUSH1 0x0 PUSH1 0x1F NOT PUSH1 0x1F DUP4 ADD AND SWAP1 POP SWAP2 SWAP1 POP JUMP JUMPDEST PUSH32 0x4E487B7100000000000000000000000000000000000000000000000000000000 PUSH1 0x0 MSTORE PUSH1 0x41 PUSH1 0x4 MSTORE PUSH1 0x24 PUSH1 0x0 REVERT JUMPDEST PUSH2 0x1F9D DUP3 PUSH2 0x1F54 JUMP JUMPDEST DUP2 ADD DUP2 DUP2 LT PUSH8 0xFFFFFFFFFFFFFFFF DUP3 GT OR ISZERO PUSH2 0x1FBC JUMPI PUSH2 0x1FBB PUSH2 0x1F65 JUMP JUMPDEST JUMPDEST DUP1 PUSH1 0x40 MSTORE POP POP POP JUMP JUMPDEST PUSH1 0x0 PUSH2 0x1FCF PUSH2 0x1E4F JUMP JUMPDEST SWAP1 POP PUSH2 0x1FDB DUP3 DUP3 PUSH2 0x1F94 JUMP JUMPDEST SWAP2 SWAP1 POP JUMP JUMPDEST PUSH1 0x0 PUSH8 0xFFFFFFFFFFFFFFFF DUP3 GT ISZERO PUSH2 0x1FFB JUMPI PUSH2 0x1FFA PUSH2 0x1F65 JUMP JUMPDEST JUMPDEST PUSH2 0x2004 DUP3 PUSH2 0x1F54 JUMP JUMPDEST SWAP1 POP PUSH1 0x20 DUP2 ADD SWAP1 POP SWAP2 SWAP1 POP JUMP JUMPDEST DUP3 DUP2 DUP4 CALLDATACOPY PUSH1 0x0 DUP4 DUP4 ADD MSTORE POP POP POP JUMP JUMPDEST PUSH1 0x0 PUSH2 0x2033 PUSH2 0x202E DUP5 PUSH2 0x1FE0 JUMP JUMPDEST PUSH2 0x1FC5 JUMP JUMPDEST SWAP1 POP DUP3 DUP2 MSTORE PUSH1 0x20 DUP2 ADD DUP5 DUP5 DUP5 ADD GT ISZERO PUSH2 0x204F JUMPI PUSH2 0x204E PUSH2 0x1F4F JUMP JUMPDEST JUMPDEST PUSH2 0x205A DUP5 DUP3 DUP6 PUSH2 0x2011 JUMP JUMPDEST POP SWAP4 SWAP3 POP POP POP JUMP JUMPDEST PUSH1 0x0 DUP3 PUSH1 0x1F DUP4 ADD SLT PUSH2 0x2077 JUMPI PUSH2 0x2076 PUSH2 0x1F4A JUMP JUMPDEST JUMPDEST DUP2 CALLDATALOAD PUSH2 0x2087 DUP5 DUP3 PUSH1 0x20 DUP7 ADD PUSH2 0x2020 JUMP JUMPDEST SWAP2 POP POP SWAP3 SWAP2 POP POP JUMP JUMPDEST PUSH1 0x0 PUSH1 0x20 DUP3 DUP5 SUB SLT ISZERO PUSH2 0x20A6 JUMPI PUSH2 0x20A5 PUSH2 0x1E59 JUMP JUMPDEST JUMPDEST PUSH1 0x0 DUP3 ADD CALLDATALOAD PUSH8 0xFFFFFFFFFFFFFFFF DUP2 GT ISZERO PUSH2 0x20C4 JUMPI PUSH2 0x20C3 PUSH2 0x1E5E JUMP JUMPDEST JUMPDEST PUSH2 0x20D0 DUP5 DUP3 DUP6 ADD PUSH2 0x2062 JUMP JUMPDEST SWAP2 POP POP SWAP3 SWAP2 POP POP JUMP JUMPDEST PUSH1 0x0 PUSH32 0xFFFFFFFF00000000000000000000000000000000000000000000000000000000 DUP3 AND SWAP1 POP SWAP2 SWAP1 POP JUMP JUMPDEST PUSH2 0x210E DUP2 PUSH2 0x20D9 JUMP JUMPDEST DUP3 MSTORE POP POP JUMP JUMPDEST PUSH1 0x0 PUSH1 0x20 DUP3 ADD SWAP1 POP PUSH2 0x2129 PUSH1 0x0 DUP4 ADD DUP5 PUSH2 0x2105 JUMP JUMPDEST SWAP3 SWAP2 POP POP JUMP JUMPDEST PUSH1 0x0 DUP1 PUSH1 0x0 DUP1 PUSH1 0x80 DUP6 DUP8 SUB SLT ISZERO PUSH2 0x2149 JUMPI PUSH2 0x2148 PUSH2 0x1E59 JUMP JUMPDEST JUMPDEST PUSH1 0x0 DUP6 ADD CALLDATALOAD PUSH8 0xFFFFFFFFFFFFFFFF DUP2 GT ISZERO PUSH2 0x2167 JUMPI PUSH2 0x2166 PUSH2 0x1E5E JUMP JUMPDEST JUMPDEST PUSH2 0x2173 DUP8 DUP3 DUP9 ADD PUSH2 0x2062 JUMP JUMPDEST SWAP5 POP POP PUSH1 0x20 DUP6 ADD CALLDATALOAD PUSH8 0xFFFFFFFFFFFFFFFF DUP2 GT ISZERO PUSH2 0x2194 JUMPI PUSH2 0x2193 PUSH2 0x1E5E JUMP JUMPDEST JUMPDEST PUSH2 0x21A0 DUP8 DUP3 DUP9 ADD PUSH2 0x2062 JUMP JUMPDEST SWAP4 POP POP PUSH1 0x40 DUP6 ADD CALLDATALOAD PUSH8 0xFFFFFFFFFFFFFFFF DUP2 GT ISZERO PUSH2 0x21C1 JUMPI PUSH2 0x21C0 PUSH2 0x1E5E JUMP JUMPDEST JUMPDEST PUSH2 0x21CD DUP8 DUP3 DUP9 ADD PUSH2 0x2062 JUMP JUMPDEST SWAP3 POP POP PUSH1 0x60 DUP6 ADD CALLDATALOAD PUSH8 0xFFFFFFFFFFFFFFFF DUP2 GT ISZERO PUSH2 0x21EE JUMPI PUSH2 0x21ED PUSH2 0x1E5E JUMP JUMPDEST JUMPDEST PUSH2 0x21FA DUP8 DUP3 DUP9 ADD PUSH2 0x2062 JUMP JUMPDEST SWAP2 POP POP SWAP3 SWAP6 SWAP2 SWAP5 POP SWAP3 POP JUMP JUMPDEST PUSH2 0x220F DUP2 PUSH2 0x1E99 JUMP JUMPDEST DUP3 MSTORE POP POP JUMP JUMPDEST PUSH2 0x221E DUP2 PUSH2 0x1E63 JUMP JUMPDEST DUP3 MSTORE POP POP JUMP JUMPDEST PUSH1 0x0 PUSH2 0x100 DUP3 ADD SWAP1 POP PUSH2 0x223A PUSH1 0x0 DUP4 ADD DUP12 PUSH2 0x2206 JUMP JUMPDEST PUSH2 0x2247 PUSH1 0x20 DUP4 ADD DUP11 PUSH2 0x2215 JUMP JUMPDEST PUSH2 0x2254 PUSH1 0x40 DUP4 ADD DUP10 PUSH2 0x2215 JUMP JUMPDEST PUSH2 0x2261 PUSH1 0x60 DUP4 ADD DUP9 PUSH2 0x2215 JUMP JUMPDEST PUSH2 0x226E PUSH1 0x80 DUP4 ADD DUP8 PUSH2 0x2206 JUMP JUMPDEST PUSH2 0x227B PUSH1 0xA0 DUP4 ADD DUP7 PUSH2 0x2215 JUMP JUMPDEST PUSH2 0x2288 PUSH1 0xC0 DUP4 ADD DUP6 PUSH2 0x2206 JUMP JUMPDEST PUSH2 0x2295 PUSH1 0xE0 DUP4 ADD DUP5 PUSH2 0x2215 JUMP JUMPDEST SWAP10 SWAP9 POP POP POP POP POP POP POP POP POP JUMP JUMPDEST PUSH1 0x0 PUSH1 0x20 DUP3 ADD SWAP1 POP PUSH2 0x22B7 PUSH1 0x0 DUP4 ADD DUP5 PUSH2 0x2206 JUMP JUMPDEST SWAP3 SWAP2 POP POP JUMP JUMPDEST PUSH1 0x0 PUSH1 0x40 DUP3 ADD SWAP1 POP PUSH2 0x22D2 PUSH1 0x0 DUP4 ADD DUP6 PUSH2 0x2206 JUMP JUMPDEST PUSH2 0x22DF PUSH1 0x20 DUP4 ADD DUP5 PUSH2 0x2215 JUMP JUMPDEST SWAP4 SWAP3 POP POP POP JUMP JUMPDEST PUSH1 0x0 DUP1 PUSH1 0x0 PUSH1 0x60 DUP5 DUP7 SUB SLT ISZERO PUSH2 0x22FF JUMPI PUSH2 0x22FE PUSH2 0x1E59 JUMP JUMPDEST JUMPDEST PUSH1 0x0 DUP5 ADD CALLDATALOAD PUSH8 0xFFFFFFFFFFFFFFFF DUP2 GT ISZERO PUSH2 0x231D JUMPI PUSH2 0x231C PUSH2 0x1E5E JUMP JUMPDEST JUMPDEST PUSH2 0x2329 DUP7 DUP3 DUP8 ADD PUSH2 0x2062 JUMP JUMPDEST SWAP4 POP POP PUSH1 0x20 DUP5 ADD CALLDATALOAD PUSH8 0xFFFFFFFFFFFFFFFF DUP2 GT ISZERO PUSH2 0x234A JUMPI PUSH2 0x2349 PUSH2 0x1E5E JUMP JUMPDEST JUMPDEST PUSH2 0x2356 DUP7 DUP3 DUP8 ADD PUSH2 0x2062 JUMP JUMPDEST SWAP3 POP POP PUSH1 0x40 DUP5 ADD CALLDATALOAD PUSH8 0xFFFFFFFFFFFFFFFF DUP2 GT ISZERO PUSH2 0x2377 JUMPI PUSH2 0x2376 PUSH2 0x1E5E JUMP JUMPDEST JUMPDEST PUSH2 0x2383 DUP7 DUP3 DUP8 ADD PUSH2 0x2062 JUMP JUMPDEST SWAP2 POP POP SWAP3 POP SWAP3 POP SWAP3 JUMP JUMPDEST PUSH1 0x0 PUSH1 0x80 DUP3 ADD SWAP1 POP PUSH2 0x23A2 PUSH1 0x0 DUP4 ADD DUP8 PUSH2 0x2206 JUMP JUMPDEST PUSH2 0x23AF PUSH1 0x20 DUP4 ADD DUP7 PUSH2 0x2215 JUMP JUMPDEST PUSH2 0x23BC PUSH1 0x40 DUP4 ADD DUP6 PUSH2 0x2215 JUMP JUMPDEST PUSH2 0x23C9 PUSH1 0x60 DUP4 ADD DUP5 PUSH2 0x2215 JUMP JUMPDEST SWAP6 SWAP5 POP POP POP POP POP JUMP JUMPDEST PUSH1 0x0 PUSH1 0xC0 DUP3 ADD SWAP1 POP PUSH2 0x23E7 PUSH1 0x0 DUP4 ADD DUP10 PUSH2 0x2215 JUMP JUMPDEST PUSH2 0x23F4 PUSH1 0x20 DUP4 ADD DUP9 PUSH2 0x2215 JUMP JUMPDEST PUSH2 0x2401 PUSH1 0x40 DUP4 ADD DUP8 PUSH2 0x2215 JUMP JUMPDEST PUSH2 0x240E PUSH1 0x60 DUP4 ADD DUP7 PUSH2 0x2206 JUMP JUMPDEST PUSH2 0x241B PUSH1 0x80 DUP4 ADD DUP6 PUSH2 0x2206 JUMP JUMPDEST PUSH2 0x2428 PUSH1 0xA0 DUP4 ADD DUP5 PUSH2 0x2206 JUMP JUMPDEST SWAP8 SWAP7 POP POP POP POP POP POP POP JUMP JUMPDEST PUSH32 0x4E487B7100000000000000000000000000000000000000000000000000000000 PUSH1 0x0 MSTORE PUSH1 0x11 PUSH1 0x4 MSTORE PUSH1 0x24 PUSH1 0x0 REVERT JUMPDEST PUSH1 0x0 PUSH2 0x246D DUP3 PUSH2 0x1E99 JUMP JUMPDEST SWAP2 POP PUSH2 0x2478 DUP4 PUSH2 0x1E99 JUMP JUMPDEST SWAP3 POP DUP3 DUP3 SUB SWAP1 POP DUP2 DUP2 GT ISZERO PUSH2 0x2490 JUMPI PUSH2 0x248F PUSH2 0x2433 JUMP JUMPDEST JUMPDEST SWAP3 SWAP2 POP POP JUMP JUMPDEST PUSH1 0x0 DUP2 MLOAD SWAP1 POP SWAP2 SWAP1 POP JUMP JUMPDEST PUSH1 0x0 DUP2 SWAP1 POP PUSH1 0x20 DUP3 ADD SWAP1 POP SWAP2 SWAP1 POP JUMP JUMPDEST PUSH1 0x0 PUSH2 0x24BD DUP3 MLOAD PUSH2 0x20D9 JUMP JUMPDEST DUP1 SWAP2 POP POP SWAP2 SWAP1 POP JUMP JUMPDEST PUSH1 0x0 DUP3 DUP3 SHL SWAP1 POP SWAP3 SWAP2 POP POP JUMP JUMPDEST PUSH1 0x0 PUSH2 0x24DE DUP3 PUSH2 0x2496 JUMP JUMPDEST DUP3 PUSH2 0x24E8 DUP5 PUSH2 0x24A1 JUMP JUMPDEST SWAP1 POP PUSH2 0x24F3 DUP2 PUSH2 0x24B1 JUMP JUMPDEST SWAP3 POP PUSH1 0x4 DUP3 LT ISZERO PUSH2 0x2533 JUMPI PUSH2 0x252E PUSH32 0xFFFFFFFF00000000000000000000000000000000000000000000000000000000 DUP4 PUSH1 0x4 SUB PUSH1 0x8 MUL PUSH2 0x24C6 JUMP JUMPDEST DUP4 AND SWAP3 POP JUMPDEST POP POP SWAP2 SWAP1 POP JUMP JUMPDEST PUSH32 0x4E487B7100000000000000000000000000000000000000000000000000000000 PUSH1 0x0 MSTORE PUSH1 0x32 PUSH1 0x4 MSTORE PUSH1 0x24 PUSH1 0x0 REVERT JUMPDEST PUSH1 0x0 PUSH2 0x2574 DUP3 PUSH2 0x1E99 JUMP JUMPDEST SWAP2 POP PUSH32 0xFFFFFFFFFFFFFFFFFFFFFFFFFFFFFFFFFFFFFFFFFFFFFFFFFFFFFFFFFFFFFFFF DUP3 SUB PUSH2 0x25A6 JUMPI PUSH2 0x25A5 PUSH2 0x2433 JUMP JUMPDEST JUMPDEST PUSH1 0x1 DUP3 ADD SWAP1 POP SWAP2 SWAP1 POP JUMP JUMPDEST PUSH1 0x0 PUSH2 0x25BC DUP3 PUSH2 0x1E99 JUMP JUMPDEST SWAP2 POP PUSH2 0x25C7 DUP4 PUSH2 0x1E99 JUMP JUMPDEST SWAP3 POP DUP3 DUP3 ADD SWAP1 POP DUP1 DUP3 GT ISZERO PUSH2 0x25DF JUMPI PUSH2 0x25DE PUSH2 0x2433 JUMP JUMPDEST JUMPDEST SWAP3 SWAP2 POP POP JUMP JUMPDEST PUSH1 0x0 DUP3 DUP3 MSTORE PUSH1 0x20 DUP3 ADD SWAP1 POP SWAP3 SWAP2 POP POP JUMP JUMPDEST PUSH32 0x736C6963655F6F766572666C6F77000000000000000000000000000000000000 PUSH1 0x0 DUP3 ADD MSTORE POP JUMP JUMPDEST PUSH1 0x0 PUSH2 0x262C PUSH1 0xE DUP4 PUSH2 0x25E5 JUMP JUMPDEST SWAP2 POP PUSH2 0x2637 DUP3 PUSH2 0x25F6 JUMP JUMPDEST PUSH1 0x20 DUP3 ADD SWAP1 POP SWAP2 SWAP1 POP JUMP JUMPDEST PUSH1 0x0 PUSH1 0x20 DUP3 ADD SWAP1 POP DUP2 DUP2 SUB PUSH1 0x0 DUP4 ADD MSTORE PUSH2 0x265B DUP2 PUSH2 0x261F JUMP JUMPDEST SWAP1 POP SWAP2 SWAP1 POP JUMP JUMPDEST PUSH32 0x736C6963655F6F75744F66426F756E6473000000000000000000000000000000 PUSH1 0x0 DUP3 ADD MSTORE POP JUMP JUMPDEST PUSH1 0x0 PUSH2 0x2698 PUSH1 0x11 DUP4 PUSH2 0x25E5 JUMP JUMPDEST SWAP2 POP PUSH2 0x26A3 DUP3 PUSH2 0x2662 JUMP JUMPDEST PUSH1 0x20 DUP3 ADD SWAP1 POP SWAP2 SWAP1 POP JUMP JUMPDEST PUSH1 0x0 PUSH1 0x20 DUP3 ADD SWAP1 POP DUP2 DUP2 SUB PUSH1 0x0 DUP4 ADD MSTORE PUSH2 0x26C7 DUP2 PUSH2 0x268B JUMP JUMPDEST SWAP1 POP SWAP2 SWAP1 POP JUMP JUMPDEST PUSH1 0x0 PUSH2 0xFFFF DUP3 AND SWAP1 POP SWAP2 SWAP1 POP JUMP JUMPDEST PUSH1 0x0 PUSH2 0x26E7 DUP3 PUSH2 0x26CE JUMP JUMPDEST SWAP2 POP PUSH2 0x26F2 DUP4 PUSH2 0x26CE JUMP JUMPDEST SWAP3 POP DUP3 DUP3 MUL PUSH2 0x2700 DUP2 PUSH2 0x26CE JUMP JUMPDEST SWAP2 POP DUP1 DUP3 EQ PUSH2 0x2712 JUMPI PUSH2 0x2711 PUSH2 0x2433 JUMP JUMPDEST JUMPDEST POP SWAP3 SWAP2 POP POP JUMP JUMPDEST PUSH1 0x0 PUSH4 0xFFFFFFFF DUP3 AND SWAP1 POP SWAP2 SWAP1 POP JUMP JUMPDEST PUSH1 0x0 PUSH2 0x2734 DUP3 PUSH2 0x2719 JUMP JUMPDEST SWAP2 POP PUSH2 0x273F DUP4 PUSH2 0x2719 JUMP JUMPDEST SWAP3 POP DUP3 DUP3 MUL PUSH2 0x274D DUP2 PUSH2 0x2719 JUMP JUMPDEST SWAP2 POP DUP1 DUP3 EQ PUSH2 0x275F JUMPI PUSH2 0x275E PUSH2 0x2433 JUMP JUMPDEST JUMPDEST POP SWAP3 SWAP2 POP POP JUMP JUMPDEST PUSH1 0x0 PUSH8 0xFFFFFFFFFFFFFFFF DUP3 AND SWAP1 POP SWAP2 SWAP1 POP JUMP JUMPDEST PUSH1 0x0 PUSH2 0x2785 DUP3 PUSH2 0x2766 JUMP JUMPDEST SWAP2 POP PUSH2 0x2790 DUP4 PUSH2 0x2766 JUMP JUMPDEST SWAP3 POP DUP3 DUP3 MUL PUSH2 0x279E DUP2 PUSH2 0x2766 JUMP JUMPDEST SWAP2 POP DUP1 DUP3 EQ PUSH2 0x27B0 JUMPI PUSH2 0x27AF PUSH2 0x2433 JUMP JUMPDEST JUMPDEST POP SWAP3 SWAP2 POP POP JUMP JUMPDEST PUSH1 0x0 DUP2 MLOAD SWAP1 POP SWAP2 SWAP1 POP JUMP JUMPDEST PUSH1 0x0 JUMPDEST DUP4 DUP2 LT ISZERO PUSH2 0x27E0 JUMPI DUP1 DUP3 ADD MLOAD DUP2 DUP5 ADD MSTORE PUSH1 0x20 DUP2 ADD SWAP1 POP PUSH2 0x27C5 JUMP JUMPDEST PUSH1 0x0 DUP5 DUP5 ADD MSTORE POP POP POP POP JUMP JUMPDEST PUSH1 0x0 PUSH2 0x27F7 DUP3 PUSH2 0x27B7 JUMP JUMPDEST PUSH2 0x2801 DUP2 DUP6 PUSH2 0x25E5 JUMP JUMPDEST SWAP4 POP PUSH2 0x2811 DUP2 DUP6 PUSH1 0x20 DUP7 ADD PUSH2 0x27C2 JUMP JUMPDEST PUSH2 0x281A DUP2 PUSH2 0x1F54 JUMP JUMPDEST DUP5 ADD SWAP2 POP POP SWAP3 SWAP2 POP POP JUMP JUMPDEST PUSH1 0x0 PUSH1 0x20 DUP3 ADD SWAP1 POP DUP2 DUP2 SUB PUSH1 0x0 DUP4 ADD MSTORE PUSH2 0x283F DUP2 DUP5 PUSH2 0x27EC JUMP JUMPDEST SWAP1 POP SWAP3 SWAP2 POP POP JUMP JUMPDEST PUSH1 0x0 PUSH2 0x2852 DUP3 PUSH2 0x1E99 JUMP JUMPDEST SWAP2 POP PUSH2 0x285D DUP4 PUSH2 0x1E99 JUMP JUMPDEST SWAP3 POP DUP3 DUP3 MUL PUSH2 0x286B DUP2 PUSH2 0x1E99 JUMP JUMPDEST SWAP2 POP DUP3 DUP3 DIV DUP5 EQ DUP4 ISZERO OR PUSH2 0x2882 JUMPI PUSH2 0x2881 PUSH2 0x2433 JUMP JUMPDEST JUMPDEST POP SWAP3 SWAP2 POP POP JUMP JUMPDEST PUSH1 0x0 PUSH20 0xFFFFFFFFFFFFFFFFFFFFFFFFFFFFFFFFFFFFFFFF DUP3 AND SWAP1 POP SWAP2 SWAP1 POP JUMP JUMPDEST PUSH1 0x0 PUSH2 0x28B4 DUP3 PUSH2 0x2889 JUMP JUMPDEST SWAP2 POP PUSH2 0x28BF DUP4 PUSH2 0x2889 JUMP JUMPDEST SWAP3 POP DUP3 DUP3 SUB SWAP1 POP PUSH20 0xFFFFFFFFFFFFFFFFFFFFFFFFFFFFFFFFFFFFFFFF DUP2 GT ISZERO PUSH2 0x28EB JUMPI PUSH2 0x28EA PUSH2 0x2433 JUMP JUMPDEST JUMPDEST SWAP3 SWAP2 POP POP JUMP JUMPDEST PUSH1 0x0 PUSH2 0x28FC DUP3 PUSH2 0x2889 JUMP JUMPDEST SWAP2 POP PUSH2 0x2907 DUP4 PUSH2 0x2889 JUMP JUMPDEST SWAP3 POP DUP3 DUP3 MUL PUSH2 0x2915 DUP2 PUSH2 0x2889 JUMP JUMPDEST SWAP2 POP DUP3 DUP3 DIV DUP5 EQ DUP4 ISZERO OR PUSH2 0x292C JUMPI PUSH2 0x292B PUSH2 0x2433 JUMP JUMPDEST JUMPDEST POP SWAP3 SWAP2 POP POP JUMP JUMPDEST PUSH1 0x0 PUSH2 0x293E DUP3 PUSH2 0x2889 JUMP JUMPDEST SWAP2 POP PUSH2 0x2949 DUP4 PUSH2 0x2889 JUMP JUMPDEST SWAP3 POP DUP3 DUP3 ADD SWAP1 POP PUSH20 0xFFFFFFFFFFFFFFFFFFFFFFFFFFFFFFFFFFFFFFFF DUP2 GT ISZERO PUSH2 0x2975 JUMPI PUSH2 0x2974 PUSH2 0x2433 JUMP JUMPDEST JUMPDEST SWAP3 SWAP2 POP POP JUMP JUMPDEST PUSH1 0x0 PUSH2 0x2986 DUP3 PUSH2 0x2889 JUMP JUMPDEST SWAP2 POP PUSH20 0xFFFFFFFFFFFFFFFFFFFFFFFFFFFFFFFFFFFFFFFF DUP3 SUB PUSH2 0x29AC JUMPI PUSH2 0x29AB PUSH2 0x2433 JUMP JUMPDEST JUMPDEST PUSH1 0x1 DUP3 ADD SWAP1 POP SWAP2 SWAP1 POP JUMP JUMPDEST PUSH32 0x4E487B7100000000000000000000000000000000000000000000000000000000 PUSH1 0x0 MSTORE PUSH1 0x51 PUSH1 0x4 MSTORE PUSH1 0x24 PUSH1 0x0 REVERT INVALID LOG2 PUSH5 0x6970667358 0x22 SLT KECCAK256 DUP11 0xB9 0xD PUSH17 0xF3C9339CE743620062B7E4CEC46112236D 0xBF SWAP11 0xAD 0xE0 0xB7 0xA7 0xD6 SGT PC PUSH23 0x1964736F6C634300081300330000000000000000000000 "},"methodIdentifiers":{"bridge()":"e78cea92","dispute(bytes,bytes,bytes,bytes)":"43f104d2","getOutputData(bytes)":"52fd9476","getTimelock(bytes)":"36946480","htlc()":"e4b23d0c","opreturn()":"8504b3b9","out_aux()":"66b85d57","p2pkh()":"72ca346f","resolveDispute(bytes,bytes,bytes)":"79a85bd9","settle()":"11da60b4","setup(bytes32,bytes32,bytes32,uint256,uint256)":"06ac0e26","submitProof(bytes,bytes,bytes,bytes)":"3740d249"}}}}}