{"contracts/LNBridge.sol":{"LNBridge":{"abi":[{"inputs":[{"internalType":"uint256","name":"value","type":"uint256"},{"internalType":"uint256","name":"length","type":"uint256"}],"name":"StringsInsufficientHexLength","type":"error"},{"inputs":[{"internalType":"bytes","name":"rawTxP_locked","type":"bytes"},{"internalType":"bytes","name":"sigV","type":"bytes"},{"internalType":"bytes","name":"rawTxV_unlocked","type":"bytes"},{"internalType":"bytes","name":"sigP","type":"bytes"}],"name":"dispute","outputs":[],"stateMutability":"nonpayable","type":"function"},{"inputs":[],"name":"htlc","outputs":[{"internalType":"uint256","name":"value","type":"uint256"},{"internalType":"bytes32","name":"pk1","type":"bytes32"},{"internalType":"bytes32","name":"pk2","type":"bytes32"},{"internalType":"bytes32","name":"rev_secret","type":"bytes32"}],"stateMutability":"view","type":"function"},{"inputs":[],"name":"opreturn","outputs":[{"internalType":"uint256","name":"value","type":"uint256"},{"internalType":"bytes32","name":"data","type":"bytes32"}],"stateMutability":"view","type":"function"},{"inputs":[],"name":"out_aux","outputs":[{"internalType":"uint256","name":"pos","type":"uint256"}],"stateMutability":"view","type":"function"},{"inputs":[],"name":"p2pkh","outputs":[{"internalType":"uint256","name":"value","type":"uint256"},{"internalType":"bytes32","name":"pkhash","type":"bytes32"}],"stateMutability":"view","type":"function"},{"inputs":[{"internalType":"bytes","name":"_txBytes","type":"bytes"}],"name":"readThreeOutputs","outputs":[{"internalType":"uint256","name":"","type":"uint256"},{"internalType":"bytes32","name":"","type":"bytes32"},{"internalType":"bytes32","name":"","type":"bytes32"},{"internalType":"bytes32","name":"","type":"bytes32"},{"internalType":"uint256","name":"","type":"uint256"},{"internalType":"bytes32","name":"","type":"bytes32"},{"internalType":"uint256","name":"","type":"uint256"},{"internalType":"bytes32","name":"","type":"bytes32"}],"stateMutability":"nonpayable","type":"function"},{"inputs":[{"internalType":"bytes","name":"oldRevSecret","type":"bytes"},{"internalType":"bytes","name":"rawTxP_unlocked","type":"bytes"},{"internalType":"bytes","name":"sigV","type":"bytes"}],"name":"resolveDispute","outputs":[],"stateMutability":"nonpayable","type":"function"},{"inputs":[],"name":"settle","outputs":[],"stateMutability":"nonpayable","type":"function"},{"inputs":[{"internalType":"bytes32","name":"_fundingTxId","type":"bytes32"},{"internalType":"bytes32","name":"_pkProver","type":"bytes32"},{"internalType":"bytes32","name":"_pkVerifier","type":"bytes32"},{"internalType":"uint256","name":"_index","type":"uint256"},{"internalType":"uint256","name":"_timestamp","type":"uint256"}],"name":"setup","outputs":[],"stateMutability":"nonpayable","type":"function"},{"inputs":[{"internalType":"bytes","name":"rawTxP_unlocked","type":"bytes"},{"internalType":"bytes","name":"sigV","type":"bytes"},{"internalType":"bytes","name":"rawTxV_unlocked","type":"bytes"},{"internalType":"bytes","name":"sigP","type":"bytes"}],"name":"submitProof","outputs":[],"stateMutability":"nonpayable","type":"function"},{"inputs":[],"name":"timestamp","outputs":[{"internalType":"uint256","name":"","type":"uint256"}],"stateMutability":"view","type":"function"},{"inputs":[],"name":"timestamp_dispute","outputs":[{"internalType":"uint256","name":"","type":"uint256"}],"stateMutability":"view","type":"function"}],"evm":{"bytecode":{"linkReferences":{},"object":"608060405234801561001057600080fd5b50612d18806100206000396000f3fe608060405234801561001057600080fd5b50600436106100b45760003560e01c806372ca346f1161007157806372ca346f1461016c57806379a85bd91461018b5780638504b3b9146101a7578063a5dd32ac146101c6578063b80777ea146101e4578063e4b23d0c14610202576100b4565b806306ac0e26146100b957806311da60b4146100d55780633740d249146100df5780633c1c0699146100fb57806343f104d21461013257806366b85d571461014e575b600080fd5b6100d360048036038101906100ce9190612345565b610223565b005b6100dd61024d565b005b6100f960048036038101906100f49190612506565b61024f565b005b610115600480360381019061011091906125dd565b610255565b604051610129989796959493929190612644565b60405180910390f35b61014c60048036038101906101479190612506565b6107ab565b005b6101566107b1565b60405161016391906126c2565b60405180910390f35b6101746107bd565b6040516101829291906126dd565b60405180910390f35b6101a560048036038101906101a09190612706565b6107cf565b005b6101af6107d4565b6040516101bd9291906126dd565b60405180910390f35b6101ce6107e6565b6040516101db91906126c2565b60405180910390f35b6101ec6107ec565b6040516101f991906126c2565b60405180910390f35b61020a6107f2565b60405161021a94939291906127ad565b60405180910390f35b84600081905550836001819055508260028190555081600381905550806004819055505050505050565b565b50505050565b6000806000806000806000806004600e6000018190555061027d89600e600001546000610810565b600e6001016000600e600001600084919050558391905090805190602001906102a7929190612251565b5050506102bb89600e600001546000610922565b600e6004016000600e6003016000600e6002016000600e600001600088919050558791905090805190602001906102f3929190612251565b5086919050908051906020019061030b929190612251565b50859190509080519060200190610323929190612251565b505050505060005b600381101561050357600081036103dc576103898a600e6003018381548110610357576103566127f2565b5b9060005260206000200154600e6002018481548110610379576103786127f2565b5b9060005260206000200154610b19565b600660010160006006600301600060066002016000869190505585919050558491905055505050600e60040181815481106103c7576103c66127f2565b5b90600052602060002001546006600001819055505b60018103610466576104318a600e60030183815481106103ff576103fe6127f2565b5b9060005260206000200154600e6002018481548110610421576104206127f2565b5b9060005260206000200154610bd5565b600c60010181905550600e6004018181548110610451576104506127f2565b5b9060005260206000200154600c600001819055505b600281036104f0576104bb8a600e6003018381548110610489576104886127f2565b5b9060005260206000200154600e60020184815481106104ab576104aa6127f2565b5b9060005260206000200154610bd5565b600a60010181905550600e60040181815481106104db576104da6127f2565b5b9060005260206000200154600a600001819055505b80806104fb90612850565b91505061032b565b506105486040518060400160405280601581526020017f436865636b2076616c75655f6f75747075745f313a0000000000000000000000815250600660000154610daf565b6105996040518060400160405280601281526020017f436865636b20706b315f4f7574707574313a000000000000000000000000000081525061059460066001015460001c6020610e4b565b611091565b6105ea6040518060400160405280600e81526020017f436865636b207265765f7365633a0000000000000000000000000000000000008152506105e560066003015460001c6020610e4b565b611091565b61063b6040518060400160405280601281526020017f436865636b20706b325f4f7574707574313a000000000000000000000000000081525061063660066002015460001c6020610e4b565b611091565b61067f6040518060400160405280601581526020017f436865636b2076616c75655f6f75747075745f323a0000000000000000000000815250600c60000154610daf565b6106cb6040518060400160405280601481526020017f436865636b207363726970745f646174615f323a0000000000000000000000008152506106c6600c6001015461112d565b611091565b61070f6040518060400160405280601581526020017f436865636b2076616c75655f6f75747075745f333a0000000000000000000000815250600a60000154610daf565b6107606040518060400160405280601481526020017f436865636b207363726970745f646174615f333a00000000000000000000000081525061075b600a6001015460001c6020610e4b565b611091565b600660000154600660010154600660030154600660020154600c60000154600c60010154600a60000154600a6001015497509750975097509750975097509750919395975091939597565b50505050565b600e8060000154905081565b600c8060000154908060010154905082565b505050565b600a8060000154908060010154905082565b60055481565b60045481565b60068060000154908060010154908060020154908060030154905084565b6060600080600080610822888861115d565b8098508194505050600086148061083857508286115b1561084557829150610849565b8591505b60008267ffffffffffffffff811115610865576108646123db565b5b6040519080825280602002602001820160405280156108935781602001602082028036833780820191505090505b50905060005b8381101561090f576024896108ae9190612898565b98506108ba8a8a61115d565b809a508194505050828282815181106108d6576108d56127f2565b5b6020026020010181815250506004836108ef9190612898565b896108fa9190612898565b9850808061090790612850565b915050610899565b5080889550955050505050935093915050565b60608060606000806000806109378a8a61115d565b809a508194505050600088148061094d57508288115b1561095a5782915061095e565b8791505b60008267ffffffffffffffff81111561097a576109796123db565b5b6040519080825280602002602001820160405280156109a85781602001602082028036833780820191505090505b50905060008367ffffffffffffffff8111156109c7576109c66123db565b5b6040519080825280602002602001820160405280156109f55781602001602082028036833780820191505090505b50905060008467ffffffffffffffff811115610a1457610a136123db565b5b604051908082528060200260200182016040528015610a425781602001602082028036833780820191505090505b50905060005b85811015610afd57610a5c8e8e6040611245565b828281518110610a6f57610a6e6127f2565b5b60200260200101818152505060088d610a889190612898565b9c50610a948e8e61115d565b809e5081965050508c848281518110610ab057610aaf6127f2565b5b60200260200101818152505084838281518110610ad057610acf6127f2565b5b602002602001018181525050848d610ae89190612898565b9c508080610af590612850565b915050610a48565b508083838e995099509950995050505050505093509350935093565b6000806000610b298686866116b0565b15610bb957610b6c6040518060400160405280601b81526020017f506172736564204c696768746e696e6748544c43206f75747075740000000000815250611c5f565b610b8286600387610b7d9190612898565b611cf8565b610b9887602888610b939190612898565b611cf8565b610bae88604c89610ba99190612898565b611cf8565b925092509250610bcc565b6000801b6000801b6000801b9250925092505b93509350939050565b6000610be2848484611d83565b15610c5157610c256040518060400160405280601381526020017f506172736564205032504b48206f757470757400000000000000000000000000815250611c5f565b610c3b84600385610c369190612898565b611f48565b6bffffffffffffffffffffffff19169050610da8565b610c5c84848461202b565b15610ccb57610c9f6040518060400160405280601281526020017f5061727365642050325348206f75747075740000000000000000000000000000815250611c5f565b610cb584600285610cb09190612898565b611f48565b6bffffffffffffffffffffffff19169050610da8565b610cd6848484612148565b15610d3657610d196040518060400160405280601781526020017f506172736564204f505f52455455524e206f7574707574000000000000000000815250611c5f565b610d2f84600285610d2a9190612898565b611cf8565b9050610da8565b610d418484846116b0565b15610da157610d846040518060400160405280601b81526020017f506172736564204c696768746e696e6748544c43206f75747075740000000000815250611c5f565b610d9a84600285610d959190612898565b611cf8565b9050610da8565b6000801b90505b9392505050565b610e478282604051602401610dc592919061294b565b6040516020818303038152906040527fb60e72cc000000000000000000000000000000000000000000000000000000007bffffffffffffffffffffffffffffffffffffffffffffffffffffffff19166020820180517bffffffffffffffffffffffffffffffffffffffffffffffffffffffff838183161783525050505061220b565b5050565b6060600083905060006002846002610e63919061297b565b610e6d9190612898565b67ffffffffffffffff811115610e8657610e856123db565b5b6040519080825280601f01601f191660200182016040528015610eb85781602001600182028036833780820191505090505b5090507f300000000000000000000000000000000000000000000000000000000000000081600081518110610ef057610eef6127f2565b5b60200101907effffffffffffffffffffffffffffffffffffffffffffffffffffffffffffff1916908160001a9053507f780000000000000000000000000000000000000000000000000000000000000081600181518110610f5457610f536127f2565b5b60200101907effffffffffffffffffffffffffffffffffffffffffffffffffffffffffffff1916908160001a90535060006001856002610f94919061297b565b610f9e9190612898565b90505b600181111561103e577f3031323334353637383961626364656600000000000000000000000000000000600f841660108110610fe057610fdf6127f2565b5b1a60f81b828281518110610ff757610ff66127f2565b5b60200101907effffffffffffffffffffffffffffffffffffffffffffffffffffffffffffff1916908160001a905350600483901c925080611037906129bd565b9050610fa1565b50600082146110865784846040517fe22e27eb00000000000000000000000000000000000000000000000000000000815260040161107d9291906129e6565b60405180910390fd5b809250505092915050565b61112982826040516024016110a7929190612a0f565b6040516020818303038152906040527f4b5c4277000000000000000000000000000000000000000000000000000000007bffffffffffffffffffffffffffffffffffffffffffffffffffffffff19166020820180517bffffffffffffffffffffffffffffffffffffffffffffffffffffffff838183161783525050505061220b565b5050565b60606111568260601c73ffffffffffffffffffffffffffffffffffffffff16601460ff16610e4b565b9050919050565b6000806000848481518110611175576111746127f2565b5b602001015160f81c60f81b60f81c90506001846111929190612898565b935060fd8160ff1610156111b25780848160ff169150925092505061123e565b60fd8160ff16036111e0576111c985856010611245565b6002856111d69190612898565b925092505061123e565b60fe8160ff160361120e576111f785856020611245565b6004856112049190612898565b925092505061123e565b60ff8160ff160361123c5761122585856040611245565b6008856112329190612898565b925092505061123e565b505b9250929050565b60006008820361127a57838381518110611262576112616127f2565b5b602001015160f81c60f81b60f81c60ff1690506116a9565b601082036112fc57610100846001856112939190612898565b815181106112a4576112a36127f2565b5b602001015160f81c60f81b60f81c60ff166112bf9190612a54565b61ffff168484815181106112d6576112d56127f2565b5b602001015160f81c60f81b60f81c60ff1661ffff166112f59190612898565b90506116a9565b6020820361141f576301000000846003856113179190612898565b81518110611328576113276127f2565b5b602001015160f81c60f81b60f81c60ff166113439190612aa1565b63ffffffff16620100008560028661135b9190612898565b8151811061136c5761136b6127f2565b5b602001015160f81c60f81b60f81c60ff166113879190612aa1565b63ffffffff166101008660018761139e9190612898565b815181106113af576113ae6127f2565b5b602001015160f81c60f81b60f81c60ff166113ca9190612aa1565b63ffffffff168686815181106113e3576113e26127f2565b5b602001015160f81c60f81b60f81c60ff1663ffffffff166114049190612898565b61140e9190612898565b6114189190612898565b90506116a9565b604082036116a8576701000000000000008460078561143e9190612898565b8151811061144f5761144e6127f2565b5b602001015160f81c60f81b60f81c60ff1661146a9190612af2565b67ffffffffffffffff1666010000000000008560068661148a9190612898565b8151811061149b5761149a6127f2565b5b602001015160f81c60f81b60f81c60ff166114b69190612af2565b67ffffffffffffffff1665010000000000866005876114d59190612898565b815181106114e6576114e56127f2565b5b602001015160f81c60f81b60f81c60ff166115019190612af2565b67ffffffffffffffff166401000000008760048861151f9190612898565b815181106115305761152f6127f2565b5b602001015160f81c60f81b60f81c60ff1661154b9190612af2565b67ffffffffffffffff166301000000886003896115689190612898565b81518110611579576115786127f2565b5b602001015160f81c60f81b60f81c60ff166115949190612af2565b67ffffffffffffffff16620100008960028a6115b09190612898565b815181106115c1576115c06127f2565b5b602001015160f81c60f81b60f81c60ff166115dc9190612af2565b67ffffffffffffffff166101008a60018b6115f79190612898565b81518110611608576116076127f2565b5b602001015160f81c60f81b60f81c60ff166116239190612af2565b67ffffffffffffffff168a8a815181106116405761163f6127f2565b5b602001015160f81c60f81b60f81c60ff1667ffffffffffffffff166116659190612898565b61166f9190612898565b6116799190612898565b6116839190612898565b61168d9190612898565b6116979190612898565b6116a19190612898565b90506116a9565b5b9392505050565b60006072821480156117105750607660f81b846000856116d09190612898565b815181106116e1576116e06127f2565b5b602001015160f81c60f81b7effffffffffffffffffffffffffffffffffffffffffffffffffffffffffffff1916145b801561176a5750602160f81b8460018561172a9190612898565b8151811061173b5761173a6127f2565b5b602001015160f81c60f81b7effffffffffffffffffffffffffffffffffffffffffffffffffffffffffffff1916145b80156117c4575060ac60f81b846023856117849190612898565b81518110611795576117946127f2565b5b602001015160f81c60f81b7effffffffffffffffffffffffffffffffffffffffffffffffffffffffffffff1916145b801561181e5750606360f81b846024856117de9190612898565b815181106117ef576117ee6127f2565b5b602001015160f81c60f81b7effffffffffffffffffffffffffffffffffffffffffffffffffffffffffffff1916145b80156118785750607560f81b846025856118389190612898565b81518110611849576118486127f2565b5b602001015160f81c60f81b7effffffffffffffffffffffffffffffffffffffffffffffffffffffffffffff1916145b80156118d2575060aa60f81b846026856118929190612898565b815181106118a3576118a26127f2565b5b602001015160f81c60f81b7effffffffffffffffffffffffffffffffffffffffffffffffffffffffffffff1916145b801561192c5750602060f81b846027856118ec9190612898565b815181106118fd576118fc6127f2565b5b602001015160f81c60f81b7effffffffffffffffffffffffffffffffffffffffffffffffffffffffffffff1916145b80156119865750608860f81b846048856119469190612898565b81518110611957576119566127f2565b5b602001015160f81c60f81b7effffffffffffffffffffffffffffffffffffffffffffffffffffffffffffff1916145b80156119e05750606760f81b846049856119a09190612898565b815181106119b1576119b06127f2565b5b602001015160f81c60f81b7effffffffffffffffffffffffffffffffffffffffffffffffffffffffffffff1916145b8015611a3a5750602160f81b84604a856119fa9190612898565b81518110611a0b57611a0a6127f2565b5b602001015160f81c60f81b7effffffffffffffffffffffffffffffffffffffffffffffffffffffffffffff1916145b8015611a94575060ad60f81b84606c85611a549190612898565b81518110611a6557611a646127f2565b5b602001015160f81c60f81b7effffffffffffffffffffffffffffffffffffffffffffffffffffffffffffff1916145b8015611aee5750605260f81b84606d85611aae9190612898565b81518110611abf57611abe6127f2565b5b602001015160f81c60f81b7effffffffffffffffffffffffffffffffffffffffffffffffffffffffffffff1916145b8015611b48575060b260f81b84606e85611b089190612898565b81518110611b1957611b186127f2565b5b602001015160f81c60f81b7effffffffffffffffffffffffffffffffffffffffffffffffffffffffffffff1916145b8015611ba25750607560f81b84606f85611b629190612898565b81518110611b7357611b726127f2565b5b602001015160f81c60f81b7effffffffffffffffffffffffffffffffffffffffffffffffffffffffffffff1916145b8015611bfc5750606860f81b84607085611bbc9190612898565b81518110611bcd57611bcc6127f2565b5b602001015160f81c60f81b7effffffffffffffffffffffffffffffffffffffffffffffffffffffffffffff1916145b8015611c565750605160f81b84607185611c169190612898565b81518110611c2757611c266127f2565b5b602001015160f81c60f81b7effffffffffffffffffffffffffffffffffffffffffffffffffffffffffffff1916145b90509392505050565b611cf581604051602401611c739190612b2f565b6040516020818303038152906040527f41304fac000000000000000000000000000000000000000000000000000000007bffffffffffffffffffffffffffffffffffffffffffffffffffffffff19166020820180517bffffffffffffffffffffffffffffffffffffffffffffffffffffffff838183161783525050505061220b565b50565b6000806000905060005b6020811015611d755780601f611d189190612b51565b6008611d24919061297b565b858583611d319190612898565b81518110611d4257611d416127f2565b5b602001015160f81c60f81b60f81c60ff16901b82611d609190612898565b91508080611d6d90612850565b915050611d02565b508060001b91505092915050565b6000601982148015611dd75750607660f81b848481518110611da857611da76127f2565b5b602001015160f81c60f81b7effffffffffffffffffffffffffffffffffffffffffffffffffffffffffffff1916145b8015611e31575060a960f81b84600185611df19190612898565b81518110611e0257611e016127f2565b5b602001015160f81c60f81b7effffffffffffffffffffffffffffffffffffffffffffffffffffffffffffff1916145b8015611e8b5750601460f81b84600285611e4b9190612898565b81518110611e5c57611e5b6127f2565b5b602001015160f81c60f81b7effffffffffffffffffffffffffffffffffffffffffffffffffffffffffffff1916145b8015611ee55750608860f81b84601785611ea59190612898565b81518110611eb657611eb56127f2565b5b602001015160f81c60f81b7effffffffffffffffffffffffffffffffffffffffffffffffffffffffffffff1916145b8015611f3f575060ac60f81b84601885611eff9190612898565b81518110611f1057611f0f6127f2565b5b602001015160f81c60f81b7effffffffffffffffffffffffffffffffffffffffffffffffffffffffffffff1916145b90509392505050565b6000806000905060005b60148173ffffffffffffffffffffffffffffffffffffffff16101561201d57806013611f7e9190612ba5565b6008611f8a9190612bed565b73ffffffffffffffffffffffffffffffffffffffff1685858373ffffffffffffffffffffffffffffffffffffffff16611fc39190612898565b81518110611fd457611fd36127f2565b5b602001015160f81c60f81b60f81c60ff1673ffffffffffffffffffffffffffffffffffffffff16901b826120089190612c2f565b9150808061201590612c77565b915050611f52565b508060601b91505092915050565b600060178214801561208b575060a960f81b8460008561204b9190612898565b8151811061205c5761205b6127f2565b5b602001015160f81c60f81b7effffffffffffffffffffffffffffffffffffffffffffffffffffffffffffff1916145b80156120e55750601460f81b846001856120a59190612898565b815181106120b6576120b56127f2565b5b602001015160f81c60f81b7effffffffffffffffffffffffffffffffffffffffffffffffffffffffffffff1916145b801561213f5750608760f81b846016856120ff9190612898565b815181106121105761210f6127f2565b5b602001015160f81c60f81b7effffffffffffffffffffffffffffffffffffffffffffffffffffffffffffff1916145b90509392505050565b60006022821480156121a85750606a60f81b846000856121689190612898565b81518110612179576121786127f2565b5b602001015160f81c60f81b7effffffffffffffffffffffffffffffffffffffffffffffffffffffffffffff1916145b80156122025750602060f81b846001856121c29190612898565b815181106121d3576121d26127f2565b5b602001015160f81c60f81b7effffffffffffffffffffffffffffffffffffffffffffffffffffffffffffff1916145b90509392505050565b6122228161221a612225612246565b63ffffffff16565b50565b60006a636f6e736f6c652e6c6f679050600080835160208501845afa505050565b61229e819050919050565b82805482825590600052602060002090810192821561228d579160200282015b8281111561228c578251825591602001919060010190612271565b5b50905061229a91906122a8565b5090565b6122a6612cb3565b565b5b808211156122c15760008160009055506001016122a9565b5090565b6000604051905090565b600080fd5b600080fd5b6000819050919050565b6122ec816122d9565b81146122f757600080fd5b50565b600081359050612309816122e3565b92915050565b6000819050919050565b6123228161230f565b811461232d57600080fd5b50565b60008135905061233f81612319565b92915050565b600080600080600060a08688031215612361576123606122cf565b5b600061236f888289016122fa565b9550506020612380888289016122fa565b9450506040612391888289016122fa565b93505060606123a288828901612330565b92505060806123b388828901612330565b9150509295509295909350565b600080fd5b600080fd5b6000601f19601f8301169050919050565b7f4e487b7100000000000000000000000000000000000000000000000000000000600052604160045260246000fd5b612413826123ca565b810181811067ffffffffffffffff82111715612432576124316123db565b5b80604052505050565b60006124456122c5565b9050612451828261240a565b919050565b600067ffffffffffffffff821115612471576124706123db565b5b61247a826123ca565b9050602081019050919050565b82818337600083830152505050565b60006124a96124a484612456565b61243b565b9050828152602081018484840111156124c5576124c46123c5565b5b6124d0848285612487565b509392505050565b600082601f8301126124ed576124ec6123c0565b5b81356124fd848260208601612496565b91505092915050565b600080600080608085870312156125205761251f6122cf565b5b600085013567ffffffffffffffff81111561253e5761253d6122d4565b5b61254a878288016124d8565b945050602085013567ffffffffffffffff81111561256b5761256a6122d4565b5b612577878288016124d8565b935050604085013567ffffffffffffffff811115612598576125976122d4565b5b6125a4878288016124d8565b925050606085013567ffffffffffffffff8111156125c5576125c46122d4565b5b6125d1878288016124d8565b91505092959194509250565b6000602082840312156125f3576125f26122cf565b5b600082013567ffffffffffffffff811115612611576126106122d4565b5b61261d848285016124d8565b91505092915050565b61262f8161230f565b82525050565b61263e816122d9565b82525050565b60006101008201905061265a600083018b612626565b612667602083018a612635565b6126746040830189612635565b6126816060830188612635565b61268e6080830187612626565b61269b60a0830186612635565b6126a860c0830185612626565b6126b560e0830184612635565b9998505050505050505050565b60006020820190506126d76000830184612626565b92915050565b60006040820190506126f26000830185612626565b6126ff6020830184612635565b9392505050565b60008060006060848603121561271f5761271e6122cf565b5b600084013567ffffffffffffffff81111561273d5761273c6122d4565b5b612749868287016124d8565b935050602084013567ffffffffffffffff81111561276a576127696122d4565b5b612776868287016124d8565b925050604084013567ffffffffffffffff811115612797576127966122d4565b5b6127a3868287016124d8565b9150509250925092565b60006080820190506127c26000830187612626565b6127cf6020830186612635565b6127dc6040830185612635565b6127e96060830184612635565b95945050505050565b7f4e487b7100000000000000000000000000000000000000000000000000000000600052603260045260246000fd5b7f4e487b7100000000000000000000000000000000000000000000000000000000600052601160045260246000fd5b600061285b8261230f565b91507fffffffffffffffffffffffffffffffffffffffffffffffffffffffffffffffff820361288d5761288c612821565b5b600182019050919050565b60006128a38261230f565b91506128ae8361230f565b92508282019050808211156128c6576128c5612821565b5b92915050565b600081519050919050565b600082825260208201905092915050565b60005b838110156129065780820151818401526020810190506128eb565b60008484015250505050565b600061291d826128cc565b61292781856128d7565b93506129378185602086016128e8565b612940816123ca565b840191505092915050565b600060408201905081810360008301526129658185612912565b90506129746020830184612626565b9392505050565b60006129868261230f565b91506129918361230f565b925082820261299f8161230f565b915082820484148315176129b6576129b5612821565b5b5092915050565b60006129c88261230f565b9150600082036129db576129da612821565b5b600182039050919050565b60006040820190506129fb6000830185612626565b612a086020830184612626565b9392505050565b60006040820190508181036000830152612a298185612912565b90508181036020830152612a3d8184612912565b90509392505050565b600061ffff82169050919050565b6000612a5f82612a46565b9150612a6a83612a46565b9250828202612a7881612a46565b9150808214612a8a57612a89612821565b5b5092915050565b600063ffffffff82169050919050565b6000612aac82612a91565b9150612ab783612a91565b9250828202612ac581612a91565b9150808214612ad757612ad6612821565b5b5092915050565b600067ffffffffffffffff82169050919050565b6000612afd82612ade565b9150612b0883612ade565b9250828202612b1681612ade565b9150808214612b2857612b27612821565b5b5092915050565b60006020820190508181036000830152612b498184612912565b905092915050565b6000612b5c8261230f565b9150612b678361230f565b9250828203905081811115612b7f57612b7e612821565b5b92915050565b600073ffffffffffffffffffffffffffffffffffffffff82169050919050565b6000612bb082612b85565b9150612bbb83612b85565b9250828203905073ffffffffffffffffffffffffffffffffffffffff811115612be757612be6612821565b5b92915050565b6000612bf882612b85565b9150612c0383612b85565b9250828202612c1181612b85565b91508282048414831517612c2857612c27612821565b5b5092915050565b6000612c3a82612b85565b9150612c4583612b85565b9250828201905073ffffffffffffffffffffffffffffffffffffffff811115612c7157612c70612821565b5b92915050565b6000612c8282612b85565b915073ffffffffffffffffffffffffffffffffffffffff8203612ca857612ca7612821565b5b600182019050919050565b7f4e487b7100000000000000000000000000000000000000000000000000000000600052605160045260246000fdfea2646970667358221220fed43198a9e1800977812c309582cd1adf55d4cb840f6ca7116ac2c0c8bb522d64736f6c63430008130033","opcodes":"PUSH1 0x80 PUSH1 0x40 MSTORE CALLVALUE DUP1 ISZERO PUSH2 0x10 JUMPI PUSH1 0x0 DUP1 REVERT JUMPDEST POP PUSH2 0x2D18 DUP1 PUSH2 0x20 PUSH1 0x0 CODECOPY PUSH1 0x0 RETURN INVALID PUSH1 0x80 PUSH1 0x40 MSTORE CALLVALUE DUP1 ISZERO PUSH2 0x10 JUMPI PUSH1 0x0 DUP1 REVERT JUMPDEST POP PUSH1 0x4 CALLDATASIZE LT PUSH2 0xB4 JUMPI PUSH1 0x0 CALLDATALOAD PUSH1 0xE0 SHR DUP1 PUSH4 0x72CA346F GT PUSH2 0x71 JUMPI DUP1 PUSH4 0x72CA346F EQ PUSH2 0x16C JUMPI DUP1 PUSH4 0x79A85BD9 EQ PUSH2 0x18B JUMPI DUP1 PUSH4 0x8504B3B9 EQ PUSH2 0x1A7 JUMPI DUP1 PUSH4 0xA5DD32AC EQ PUSH2 0x1C6 JUMPI DUP1 PUSH4 0xB80777EA EQ PUSH2 0x1E4 JUMPI DUP1 PUSH4 0xE4B23D0C EQ PUSH2 0x202 JUMPI PUSH2 0xB4 JUMP JUMPDEST DUP1 PUSH4 0x6AC0E26 EQ PUSH2 0xB9 JUMPI DUP1 PUSH4 0x11DA60B4 EQ PUSH2 0xD5 JUMPI DUP1 PUSH4 0x3740D249 EQ PUSH2 0xDF JUMPI DUP1 PUSH4 0x3C1C0699 EQ PUSH2 0xFB JUMPI DUP1 PUSH4 0x43F104D2 EQ PUSH2 0x132 JUMPI DUP1 PUSH4 0x66B85D57 EQ PUSH2 0x14E JUMPI JUMPDEST PUSH1 0x0 DUP1 REVERT JUMPDEST PUSH2 0xD3 PUSH1 0x4 DUP1 CALLDATASIZE SUB DUP2 ADD SWAP1 PUSH2 0xCE SWAP2 SWAP1 PUSH2 0x2345 JUMP JUMPDEST PUSH2 0x223 JUMP JUMPDEST STOP JUMPDEST PUSH2 0xDD PUSH2 0x24D JUMP JUMPDEST STOP JUMPDEST PUSH2 0xF9 PUSH1 0x4 DUP1 CALLDATASIZE SUB DUP2 ADD SWAP1 PUSH2 0xF4 SWAP2 SWAP1 PUSH2 0x2506 JUMP JUMPDEST PUSH2 0x24F JUMP JUMPDEST STOP JUMPDEST PUSH2 0x115 PUSH1 0x4 DUP1 CALLDATASIZE SUB DUP2 ADD SWAP1 PUSH2 0x110 SWAP2 SWAP1 PUSH2 0x25DD JUMP JUMPDEST PUSH2 0x255 JUMP JUMPDEST PUSH1 0x40 MLOAD PUSH2 0x129 SWAP9 SWAP8 SWAP7 SWAP6 SWAP5 SWAP4 SWAP3 SWAP2 SWAP1 PUSH2 0x2644 JUMP JUMPDEST PUSH1 0x40 MLOAD DUP1 SWAP2 SUB SWAP1 RETURN JUMPDEST PUSH2 0x14C PUSH1 0x4 DUP1 CALLDATASIZE SUB DUP2 ADD SWAP1 PUSH2 0x147 SWAP2 SWAP1 PUSH2 0x2506 JUMP JUMPDEST PUSH2 0x7AB JUMP JUMPDEST STOP JUMPDEST PUSH2 0x156 PUSH2 0x7B1 JUMP JUMPDEST PUSH1 0x40 MLOAD PUSH2 0x163 SWAP2 SWAP1 PUSH2 0x26C2 JUMP JUMPDEST PUSH1 0x40 MLOAD DUP1 SWAP2 SUB SWAP1 RETURN JUMPDEST PUSH2 0x174 PUSH2 0x7BD JUMP JUMPDEST PUSH1 0x40 MLOAD PUSH2 0x182 SWAP3 SWAP2 SWAP1 PUSH2 0x26DD JUMP JUMPDEST PUSH1 0x40 MLOAD DUP1 SWAP2 SUB SWAP1 RETURN JUMPDEST PUSH2 0x1A5 PUSH1 0x4 DUP1 CALLDATASIZE SUB DUP2 ADD SWAP1 PUSH2 0x1A0 SWAP2 SWAP1 PUSH2 0x2706 JUMP JUMPDEST PUSH2 0x7CF JUMP JUMPDEST STOP JUMPDEST PUSH2 0x1AF PUSH2 0x7D4 JUMP JUMPDEST PUSH1 0x40 MLOAD PUSH2 0x1BD SWAP3 SWAP2 SWAP1 PUSH2 0x26DD JUMP JUMPDEST PUSH1 0x40 MLOAD DUP1 SWAP2 SUB SWAP1 RETURN JUMPDEST PUSH2 0x1CE PUSH2 0x7E6 JUMP JUMPDEST PUSH1 0x40 MLOAD PUSH2 0x1DB SWAP2 SWAP1 PUSH2 0x26C2 JUMP JUMPDEST PUSH1 0x40 MLOAD DUP1 SWAP2 SUB SWAP1 RETURN JUMPDEST PUSH2 0x1EC PUSH2 0x7EC JUMP JUMPDEST PUSH1 0x40 MLOAD PUSH2 0x1F9 SWAP2 SWAP1 PUSH2 0x26C2 JUMP JUMPDEST PUSH1 0x40 MLOAD DUP1 SWAP2 SUB SWAP1 RETURN JUMPDEST PUSH2 0x20A PUSH2 0x7F2 JUMP JUMPDEST PUSH1 0x40 MLOAD PUSH2 0x21A SWAP5 SWAP4 SWAP3 SWAP2 SWAP1 PUSH2 0x27AD JUMP JUMPDEST PUSH1 0x40 MLOAD DUP1 SWAP2 SUB SWAP1 RETURN JUMPDEST DUP5 PUSH1 0x0 DUP2 SWAP1 SSTORE POP DUP4 PUSH1 0x1 DUP2 SWAP1 SSTORE POP DUP3 PUSH1 0x2 DUP2 SWAP1 SSTORE POP DUP2 PUSH1 0x3 DUP2 SWAP1 SSTORE POP DUP1 PUSH1 0x4 DUP2 SWAP1 SSTORE POP POP POP POP POP POP JUMP JUMPDEST JUMP JUMPDEST POP POP POP POP JUMP JUMPDEST PUSH1 0x0 DUP1 PUSH1 0x0 DUP1 PUSH1 0x0 DUP1 PUSH1 0x0 DUP1 PUSH1 0x4 PUSH1 0xE PUSH1 0x0 ADD DUP2 SWAP1 SSTORE POP PUSH2 0x27D DUP10 PUSH1 0xE PUSH1 0x0 ADD SLOAD PUSH1 0x0 PUSH2 0x810 JUMP JUMPDEST PUSH1 0xE PUSH1 0x1 ADD PUSH1 0x0 PUSH1 0xE PUSH1 0x0 ADD PUSH1 0x0 DUP5 SWAP2 SWAP1 POP SSTORE DUP4 SWAP2 SWAP1 POP SWAP1 DUP1 MLOAD SWAP1 PUSH1 0x20 ADD SWAP1 PUSH2 0x2A7 SWAP3 SWAP2 SWAP1 PUSH2 0x2251 JUMP JUMPDEST POP POP POP PUSH2 0x2BB DUP10 PUSH1 0xE PUSH1 0x0 ADD SLOAD PUSH1 0x0 PUSH2 0x922 JUMP JUMPDEST PUSH1 0xE PUSH1 0x4 ADD PUSH1 0x0 PUSH1 0xE PUSH1 0x3 ADD PUSH1 0x0 PUSH1 0xE PUSH1 0x2 ADD PUSH1 0x0 PUSH1 0xE PUSH1 0x0 ADD PUSH1 0x0 DUP9 SWAP2 SWAP1 POP SSTORE DUP8 SWAP2 SWAP1 POP SWAP1 DUP1 MLOAD SWAP1 PUSH1 0x20 ADD SWAP1 PUSH2 0x2F3 SWAP3 SWAP2 SWAP1 PUSH2 0x2251 JUMP JUMPDEST POP DUP7 SWAP2 SWAP1 POP SWAP1 DUP1 MLOAD SWAP1 PUSH1 0x20 ADD SWAP1 PUSH2 0x30B SWAP3 SWAP2 SWAP1 PUSH2 0x2251 JUMP JUMPDEST POP DUP6 SWAP2 SWAP1 POP SWAP1 DUP1 MLOAD SWAP1 PUSH1 0x20 ADD SWAP1 PUSH2 0x323 SWAP3 SWAP2 SWAP1 PUSH2 0x2251 JUMP JUMPDEST POP POP POP POP POP PUSH1 0x0 JUMPDEST PUSH1 0x3 DUP2 LT ISZERO PUSH2 0x503 JUMPI PUSH1 0x0 DUP2 SUB PUSH2 0x3DC JUMPI PUSH2 0x389 DUP11 PUSH1 0xE PUSH1 0x3 ADD DUP4 DUP2 SLOAD DUP2 LT PUSH2 0x357 JUMPI PUSH2 0x356 PUSH2 0x27F2 JUMP JUMPDEST JUMPDEST SWAP1 PUSH1 0x0 MSTORE PUSH1 0x20 PUSH1 0x0 KECCAK256 ADD SLOAD PUSH1 0xE PUSH1 0x2 ADD DUP5 DUP2 SLOAD DUP2 LT PUSH2 0x379 JUMPI PUSH2 0x378 PUSH2 0x27F2 JUMP JUMPDEST JUMPDEST SWAP1 PUSH1 0x0 MSTORE PUSH1 0x20 PUSH1 0x0 KECCAK256 ADD SLOAD PUSH2 0xB19 JUMP JUMPDEST PUSH1 0x6 PUSH1 0x1 ADD PUSH1 0x0 PUSH1 0x6 PUSH1 0x3 ADD PUSH1 0x0 PUSH1 0x6 PUSH1 0x2 ADD PUSH1 0x0 DUP7 SWAP2 SWAP1 POP SSTORE DUP6 SWAP2 SWAP1 POP SSTORE DUP5 SWAP2 SWAP1 POP SSTORE POP POP POP PUSH1 0xE PUSH1 0x4 ADD DUP2 DUP2 SLOAD DUP2 LT PUSH2 0x3C7 JUMPI PUSH2 0x3C6 PUSH2 0x27F2 JUMP JUMPDEST JUMPDEST SWAP1 PUSH1 0x0 MSTORE PUSH1 0x20 PUSH1 0x0 KECCAK256 ADD SLOAD PUSH1 0x6 PUSH1 0x0 ADD DUP2 SWAP1 SSTORE POP JUMPDEST PUSH1 0x1 DUP2 SUB PUSH2 0x466 JUMPI PUSH2 0x431 DUP11 PUSH1 0xE PUSH1 0x3 ADD DUP4 DUP2 SLOAD DUP2 LT PUSH2 0x3FF JUMPI PUSH2 0x3FE PUSH2 0x27F2 JUMP JUMPDEST JUMPDEST SWAP1 PUSH1 0x0 MSTORE PUSH1 0x20 PUSH1 0x0 KECCAK256 ADD SLOAD PUSH1 0xE PUSH1 0x2 ADD DUP5 DUP2 SLOAD DUP2 LT PUSH2 0x421 JUMPI PUSH2 0x420 PUSH2 0x27F2 JUMP JUMPDEST JUMPDEST SWAP1 PUSH1 0x0 MSTORE PUSH1 0x20 PUSH1 0x0 KECCAK256 ADD SLOAD PUSH2 0xBD5 JUMP JUMPDEST PUSH1 0xC PUSH1 0x1 ADD DUP2 SWAP1 SSTORE POP PUSH1 0xE PUSH1 0x4 ADD DUP2 DUP2 SLOAD DUP2 LT PUSH2 0x451 JUMPI PUSH2 0x450 PUSH2 0x27F2 JUMP JUMPDEST JUMPDEST SWAP1 PUSH1 0x0 MSTORE PUSH1 0x20 PUSH1 0x0 KECCAK256 ADD SLOAD PUSH1 0xC PUSH1 0x0 ADD DUP2 SWAP1 SSTORE POP JUMPDEST PUSH1 0x2 DUP2 SUB PUSH2 0x4F0 JUMPI PUSH2 0x4BB DUP11 PUSH1 0xE PUSH1 0x3 ADD DUP4 DUP2 SLOAD DUP2 LT PUSH2 0x489 JUMPI PUSH2 0x488 PUSH2 0x27F2 JUMP JUMPDEST JUMPDEST SWAP1 PUSH1 0x0 MSTORE PUSH1 0x20 PUSH1 0x0 KECCAK256 ADD SLOAD PUSH1 0xE PUSH1 0x2 ADD DUP5 DUP2 SLOAD DUP2 LT PUSH2 0x4AB JUMPI PUSH2 0x4AA PUSH2 0x27F2 JUMP JUMPDEST JUMPDEST SWAP1 PUSH1 0x0 MSTORE PUSH1 0x20 PUSH1 0x0 KECCAK256 ADD SLOAD PUSH2 0xBD5 JUMP JUMPDEST PUSH1 0xA PUSH1 0x1 ADD DUP2 SWAP1 SSTORE POP PUSH1 0xE PUSH1 0x4 ADD DUP2 DUP2 SLOAD DUP2 LT PUSH2 0x4DB JUMPI PUSH2 0x4DA PUSH2 0x27F2 JUMP JUMPDEST JUMPDEST SWAP1 PUSH1 0x0 MSTORE PUSH1 0x20 PUSH1 0x0 KECCAK256 ADD SLOAD PUSH1 0xA PUSH1 0x0 ADD DUP2 SWAP1 SSTORE POP JUMPDEST DUP1 DUP1 PUSH2 0x4FB SWAP1 PUSH2 0x2850 JUMP JUMPDEST SWAP2 POP POP PUSH2 0x32B JUMP JUMPDEST POP PUSH2 0x548 PUSH1 0x40 MLOAD DUP1 PUSH1 0x40 ADD PUSH1 0x40 MSTORE DUP1 PUSH1 0x15 DUP2 MSTORE PUSH1 0x20 ADD PUSH32 0x436865636B2076616C75655F6F75747075745F313A0000000000000000000000 DUP2 MSTORE POP PUSH1 0x6 PUSH1 0x0 ADD SLOAD PUSH2 0xDAF JUMP JUMPDEST PUSH2 0x599 PUSH1 0x40 MLOAD DUP1 PUSH1 0x40 ADD PUSH1 0x40 MSTORE DUP1 PUSH1 0x12 DUP2 MSTORE PUSH1 0x20 ADD PUSH32 0x436865636B20706B315F4F7574707574313A0000000000000000000000000000 DUP2 MSTORE POP PUSH2 0x594 PUSH1 0x6 PUSH1 0x1 ADD SLOAD PUSH1 0x0 SHR PUSH1 0x20 PUSH2 0xE4B JUMP JUMPDEST PUSH2 0x1091 JUMP JUMPDEST PUSH2 0x5EA PUSH1 0x40 MLOAD DUP1 PUSH1 0x40 ADD PUSH1 0x40 MSTORE DUP1 PUSH1 0xE DUP2 MSTORE PUSH1 0x20 ADD PUSH32 0x436865636B207265765F7365633A000000000000000000000000000000000000 DUP2 MSTORE POP PUSH2 0x5E5 PUSH1 0x6 PUSH1 0x3 ADD SLOAD PUSH1 0x0 SHR PUSH1 0x20 PUSH2 0xE4B JUMP JUMPDEST PUSH2 0x1091 JUMP JUMPDEST PUSH2 0x63B PUSH1 0x40 MLOAD DUP1 PUSH1 0x40 ADD PUSH1 0x40 MSTORE DUP1 PUSH1 0x12 DUP2 MSTORE PUSH1 0x20 ADD PUSH32 0x436865636B20706B325F4F7574707574313A0000000000000000000000000000 DUP2 MSTORE POP PUSH2 0x636 PUSH1 0x6 PUSH1 0x2 ADD SLOAD PUSH1 0x0 SHR PUSH1 0x20 PUSH2 0xE4B JUMP JUMPDEST PUSH2 0x1091 JUMP JUMPDEST PUSH2 0x67F PUSH1 0x40 MLOAD DUP1 PUSH1 0x40 ADD PUSH1 0x40 MSTORE DUP1 PUSH1 0x15 DUP2 MSTORE PUSH1 0x20 ADD PUSH32 0x436865636B2076616C75655F6F75747075745F323A0000000000000000000000 DUP2 MSTORE POP PUSH1 0xC PUSH1 0x0 ADD SLOAD PUSH2 0xDAF JUMP JUMPDEST PUSH2 0x6CB PUSH1 0x40 MLOAD DUP1 PUSH1 0x40 ADD PUSH1 0x40 MSTORE DUP1 PUSH1 0x14 DUP2 MSTORE PUSH1 0x20 ADD PUSH32 0x436865636B207363726970745F646174615F323A000000000000000000000000 DUP2 MSTORE POP PUSH2 0x6C6 PUSH1 0xC PUSH1 0x1 ADD SLOAD PUSH2 0x112D JUMP JUMPDEST PUSH2 0x1091 JUMP JUMPDEST PUSH2 0x70F PUSH1 0x40 MLOAD DUP1 PUSH1 0x40 ADD PUSH1 0x40 MSTORE DUP1 PUSH1 0x15 DUP2 MSTORE PUSH1 0x20 ADD PUSH32 0x436865636B2076616C75655F6F75747075745F333A0000000000000000000000 DUP2 MSTORE POP PUSH1 0xA PUSH1 0x0 ADD SLOAD PUSH2 0xDAF JUMP JUMPDEST PUSH2 0x760 PUSH1 0x40 MLOAD DUP1 PUSH1 0x40 ADD PUSH1 0x40 MSTORE DUP1 PUSH1 0x14 DUP2 MSTORE PUSH1 0x20 ADD PUSH32 0x436865636B207363726970745F646174615F333A000000000000000000000000 DUP2 MSTORE POP PUSH2 0x75B PUSH1 0xA PUSH1 0x1 ADD SLOAD PUSH1 0x0 SHR PUSH1 0x20 PUSH2 0xE4B JUMP JUMPDEST PUSH2 0x1091 JUMP JUMPDEST PUSH1 0x6 PUSH1 0x0 ADD SLOAD PUSH1 0x6 PUSH1 0x1 ADD SLOAD PUSH1 0x6 PUSH1 0x3 ADD SLOAD PUSH1 0x6 PUSH1 0x2 ADD SLOAD PUSH1 0xC PUSH1 0x0 ADD SLOAD PUSH1 0xC PUSH1 0x1 ADD SLOAD PUSH1 0xA PUSH1 0x0 ADD SLOAD PUSH1 0xA PUSH1 0x1 ADD SLOAD SWAP8 POP SWAP8 POP SWAP8 POP SWAP8 POP SWAP8 POP SWAP8 POP SWAP8 POP SWAP8 POP SWAP2 SWAP4 SWAP6 SWAP8 POP SWAP2 SWAP4 SWAP6 SWAP8 JUMP JUMPDEST POP POP POP POP JUMP JUMPDEST PUSH1 0xE DUP1 PUSH1 0x0 ADD SLOAD SWAP1 POP DUP2 JUMP JUMPDEST PUSH1 0xC DUP1 PUSH1 0x0 ADD SLOAD SWAP1 DUP1 PUSH1 0x1 ADD SLOAD SWAP1 POP DUP3 JUMP JUMPDEST POP POP POP JUMP JUMPDEST PUSH1 0xA DUP1 PUSH1 0x0 ADD SLOAD SWAP1 DUP1 PUSH1 0x1 ADD SLOAD SWAP1 POP DUP3 JUMP JUMPDEST PUSH1 0x5 SLOAD DUP2 JUMP JUMPDEST PUSH1 0x4 SLOAD DUP2 JUMP JUMPDEST PUSH1 0x6 DUP1 PUSH1 0x0 ADD SLOAD SWAP1 DUP1 PUSH1 0x1 ADD SLOAD SWAP1 DUP1 PUSH1 0x2 ADD SLOAD SWAP1 DUP1 PUSH1 0x3 ADD SLOAD SWAP1 POP DUP5 JUMP JUMPDEST PUSH1 0x60 PUSH1 0x0 DUP1 PUSH1 0x0 DUP1 PUSH2 0x822 DUP9 DUP9 PUSH2 0x115D JUMP JUMPDEST DUP1 SWAP9 POP DUP2 SWAP5 POP POP POP PUSH1 0x0 DUP7 EQ DUP1 PUSH2 0x838 JUMPI POP DUP3 DUP7 GT JUMPDEST ISZERO PUSH2 0x845 JUMPI DUP3 SWAP2 POP PUSH2 0x849 JUMP JUMPDEST DUP6 SWAP2 POP JUMPDEST PUSH1 0x0 DUP3 PUSH8 0xFFFFFFFFFFFFFFFF DUP2 GT ISZERO PUSH2 0x865 JUMPI PUSH2 0x864 PUSH2 0x23DB JUMP JUMPDEST JUMPDEST PUSH1 0x40 MLOAD SWAP1 DUP1 DUP3 MSTORE DUP1 PUSH1 0x20 MUL PUSH1 0x20 ADD DUP3 ADD PUSH1 0x40 MSTORE DUP1 ISZERO PUSH2 0x893 JUMPI DUP2 PUSH1 0x20 ADD PUSH1 0x20 DUP3 MUL DUP1 CALLDATASIZE DUP4 CALLDATACOPY DUP1 DUP3 ADD SWAP2 POP POP SWAP1 POP JUMPDEST POP SWAP1 POP PUSH1 0x0 JUMPDEST DUP4 DUP2 LT ISZERO PUSH2 0x90F JUMPI PUSH1 0x24 DUP10 PUSH2 0x8AE SWAP2 SWAP1 PUSH2 0x2898 JUMP JUMPDEST SWAP9 POP PUSH2 0x8BA DUP11 DUP11 PUSH2 0x115D JUMP JUMPDEST DUP1 SWAP11 POP DUP2 SWAP5 POP POP POP DUP3 DUP3 DUP3 DUP2 MLOAD DUP2 LT PUSH2 0x8D6 JUMPI PUSH2 0x8D5 PUSH2 0x27F2 JUMP JUMPDEST JUMPDEST PUSH1 0x20 MUL PUSH1 0x20 ADD ADD DUP2 DUP2 MSTORE POP POP PUSH1 0x4 DUP4 PUSH2 0x8EF SWAP2 SWAP1 PUSH2 0x2898 JUMP JUMPDEST DUP10 PUSH2 0x8FA SWAP2 SWAP1 PUSH2 0x2898 JUMP JUMPDEST SWAP9 POP DUP1 DUP1 PUSH2 0x907 SWAP1 PUSH2 0x2850 JUMP JUMPDEST SWAP2 POP POP PUSH2 0x899 JUMP JUMPDEST POP DUP1 DUP9 SWAP6 POP SWAP6 POP POP POP POP POP SWAP4 POP SWAP4 SWAP2 POP POP JUMP JUMPDEST PUSH1 0x60 DUP1 PUSH1 0x60 PUSH1 0x0 DUP1 PUSH1 0x0 DUP1 PUSH2 0x937 DUP11 DUP11 PUSH2 0x115D JUMP JUMPDEST DUP1 SWAP11 POP DUP2 SWAP5 POP POP POP PUSH1 0x0 DUP9 EQ DUP1 PUSH2 0x94D JUMPI POP DUP3 DUP9 GT JUMPDEST ISZERO PUSH2 0x95A JUMPI DUP3 SWAP2 POP PUSH2 0x95E JUMP JUMPDEST DUP8 SWAP2 POP JUMPDEST PUSH1 0x0 DUP3 PUSH8 0xFFFFFFFFFFFFFFFF DUP2 GT ISZERO PUSH2 0x97A JUMPI PUSH2 0x979 PUSH2 0x23DB JUMP JUMPDEST JUMPDEST PUSH1 0x40 MLOAD SWAP1 DUP1 DUP3 MSTORE DUP1 PUSH1 0x20 MUL PUSH1 0x20 ADD DUP3 ADD PUSH1 0x40 MSTORE DUP1 ISZERO PUSH2 0x9A8 JUMPI DUP2 PUSH1 0x20 ADD PUSH1 0x20 DUP3 MUL DUP1 CALLDATASIZE DUP4 CALLDATACOPY DUP1 DUP3 ADD SWAP2 POP POP SWAP1 POP JUMPDEST POP SWAP1 POP PUSH1 0x0 DUP4 PUSH8 0xFFFFFFFFFFFFFFFF DUP2 GT ISZERO PUSH2 0x9C7 JUMPI PUSH2 0x9C6 PUSH2 0x23DB JUMP JUMPDEST JUMPDEST PUSH1 0x40 MLOAD SWAP1 DUP1 DUP3 MSTORE DUP1 PUSH1 0x20 MUL PUSH1 0x20 ADD DUP3 ADD PUSH1 0x40 MSTORE DUP1 ISZERO PUSH2 0x9F5 JUMPI DUP2 PUSH1 0x20 ADD PUSH1 0x20 DUP3 MUL DUP1 CALLDATASIZE DUP4 CALLDATACOPY DUP1 DUP3 ADD SWAP2 POP POP SWAP1 POP JUMPDEST POP SWAP1 POP PUSH1 0x0 DUP5 PUSH8 0xFFFFFFFFFFFFFFFF DUP2 GT ISZERO PUSH2 0xA14 JUMPI PUSH2 0xA13 PUSH2 0x23DB JUMP JUMPDEST JUMPDEST PUSH1 0x40 MLOAD SWAP1 DUP1 DUP3 MSTORE DUP1 PUSH1 0x20 MUL PUSH1 0x20 ADD DUP3 ADD PUSH1 0x40 MSTORE DUP1 ISZERO PUSH2 0xA42 JUMPI DUP2 PUSH1 0x20 ADD PUSH1 0x20 DUP3 MUL DUP1 CALLDATASIZE DUP4 CALLDATACOPY DUP1 DUP3 ADD SWAP2 POP POP SWAP1 POP JUMPDEST POP SWAP1 POP PUSH1 0x0 JUMPDEST DUP6 DUP2 LT ISZERO PUSH2 0xAFD JUMPI PUSH2 0xA5C DUP15 DUP15 PUSH1 0x40 PUSH2 0x1245 JUMP JUMPDEST DUP3 DUP3 DUP2 MLOAD DUP2 LT PUSH2 0xA6F JUMPI PUSH2 0xA6E PUSH2 0x27F2 JUMP JUMPDEST JUMPDEST PUSH1 0x20 MUL PUSH1 0x20 ADD ADD DUP2 DUP2 MSTORE POP POP PUSH1 0x8 DUP14 PUSH2 0xA88 SWAP2 SWAP1 PUSH2 0x2898 JUMP JUMPDEST SWAP13 POP PUSH2 0xA94 DUP15 DUP15 PUSH2 0x115D JUMP JUMPDEST DUP1 SWAP15 POP DUP2 SWAP7 POP POP POP DUP13 DUP5 DUP3 DUP2 MLOAD DUP2 LT PUSH2 0xAB0 JUMPI PUSH2 0xAAF PUSH2 0x27F2 JUMP JUMPDEST JUMPDEST PUSH1 0x20 MUL PUSH1 0x20 ADD ADD DUP2 DUP2 MSTORE POP POP DUP5 DUP4 DUP3 DUP2 MLOAD DUP2 LT PUSH2 0xAD0 JUMPI PUSH2 0xACF PUSH2 0x27F2 JUMP JUMPDEST JUMPDEST PUSH1 0x20 MUL PUSH1 0x20 ADD ADD DUP2 DUP2 MSTORE POP POP DUP5 DUP14 PUSH2 0xAE8 SWAP2 SWAP1 PUSH2 0x2898 JUMP JUMPDEST SWAP13 POP DUP1 DUP1 PUSH2 0xAF5 SWAP1 PUSH2 0x2850 JUMP JUMPDEST SWAP2 POP POP PUSH2 0xA48 JUMP JUMPDEST POP DUP1 DUP4 DUP4 DUP15 SWAP10 POP SWAP10 POP SWAP10 POP SWAP10 POP POP POP POP POP POP POP SWAP4 POP SWAP4 POP SWAP4 POP SWAP4 JUMP JUMPDEST PUSH1 0x0 DUP1 PUSH1 0x0 PUSH2 0xB29 DUP7 DUP7 DUP7 PUSH2 0x16B0 JUMP JUMPDEST ISZERO PUSH2 0xBB9 JUMPI PUSH2 0xB6C PUSH1 0x40 MLOAD DUP1 PUSH1 0x40 ADD PUSH1 0x40 MSTORE DUP1 PUSH1 0x1B DUP2 MSTORE PUSH1 0x20 ADD PUSH32 0x506172736564204C696768746E696E6748544C43206F75747075740000000000 DUP2 MSTORE POP PUSH2 0x1C5F JUMP JUMPDEST PUSH2 0xB82 DUP7 PUSH1 0x3 DUP8 PUSH2 0xB7D SWAP2 SWAP1 PUSH2 0x2898 JUMP JUMPDEST PUSH2 0x1CF8 JUMP JUMPDEST PUSH2 0xB98 DUP8 PUSH1 0x28 DUP9 PUSH2 0xB93 SWAP2 SWAP1 PUSH2 0x2898 JUMP JUMPDEST PUSH2 0x1CF8 JUMP JUMPDEST PUSH2 0xBAE DUP9 PUSH1 0x4C DUP10 PUSH2 0xBA9 SWAP2 SWAP1 PUSH2 0x2898 JUMP JUMPDEST PUSH2 0x1CF8 JUMP JUMPDEST SWAP3 POP SWAP3 POP SWAP3 POP PUSH2 0xBCC JUMP JUMPDEST PUSH1 0x0 DUP1 SHL PUSH1 0x0 DUP1 SHL PUSH1 0x0 DUP1 SHL SWAP3 POP SWAP3 POP SWAP3 POP JUMPDEST SWAP4 POP SWAP4 POP SWAP4 SWAP1 POP JUMP JUMPDEST PUSH1 0x0 PUSH2 0xBE2 DUP5 DUP5 DUP5 PUSH2 0x1D83 JUMP JUMPDEST ISZERO PUSH2 0xC51 JUMPI PUSH2 0xC25 PUSH1 0x40 MLOAD DUP1 PUSH1 0x40 ADD PUSH1 0x40 MSTORE DUP1 PUSH1 0x13 DUP2 MSTORE PUSH1 0x20 ADD PUSH32 0x506172736564205032504B48206F757470757400000000000000000000000000 DUP2 MSTORE POP PUSH2 0x1C5F JUMP JUMPDEST PUSH2 0xC3B DUP5 PUSH1 0x3 DUP6 PUSH2 0xC36 SWAP2 SWAP1 PUSH2 0x2898 JUMP JUMPDEST PUSH2 0x1F48 JUMP JUMPDEST PUSH12 0xFFFFFFFFFFFFFFFFFFFFFFFF NOT AND SWAP1 POP PUSH2 0xDA8 JUMP JUMPDEST PUSH2 0xC5C DUP5 DUP5 DUP5 PUSH2 0x202B JUMP JUMPDEST ISZERO PUSH2 0xCCB JUMPI PUSH2 0xC9F PUSH1 0x40 MLOAD DUP1 PUSH1 0x40 ADD PUSH1 0x40 MSTORE DUP1 PUSH1 0x12 DUP2 MSTORE PUSH1 0x20 ADD PUSH32 0x5061727365642050325348206F75747075740000000000000000000000000000 DUP2 MSTORE POP PUSH2 0x1C5F JUMP JUMPDEST PUSH2 0xCB5 DUP5 PUSH1 0x2 DUP6 PUSH2 0xCB0 SWAP2 SWAP1 PUSH2 0x2898 JUMP JUMPDEST PUSH2 0x1F48 JUMP JUMPDEST PUSH12 0xFFFFFFFFFFFFFFFFFFFFFFFF NOT AND SWAP1 POP PUSH2 0xDA8 JUMP JUMPDEST PUSH2 0xCD6 DUP5 DUP5 DUP5 PUSH2 0x2148 JUMP JUMPDEST ISZERO PUSH2 0xD36 JUMPI PUSH2 0xD19 PUSH1 0x40 MLOAD DUP1 PUSH1 0x40 ADD PUSH1 0x40 MSTORE DUP1 PUSH1 0x17 DUP2 MSTORE PUSH1 0x20 ADD PUSH32 0x506172736564204F505F52455455524E206F7574707574000000000000000000 DUP2 MSTORE POP PUSH2 0x1C5F JUMP JUMPDEST PUSH2 0xD2F DUP5 PUSH1 0x2 DUP6 PUSH2 0xD2A SWAP2 SWAP1 PUSH2 0x2898 JUMP JUMPDEST PUSH2 0x1CF8 JUMP JUMPDEST SWAP1 POP PUSH2 0xDA8 JUMP JUMPDEST PUSH2 0xD41 DUP5 DUP5 DUP5 PUSH2 0x16B0 JUMP JUMPDEST ISZERO PUSH2 0xDA1 JUMPI PUSH2 0xD84 PUSH1 0x40 MLOAD DUP1 PUSH1 0x40 ADD PUSH1 0x40 MSTORE DUP1 PUSH1 0x1B DUP2 MSTORE PUSH1 0x20 ADD PUSH32 0x506172736564204C696768746E696E6748544C43206F75747075740000000000 DUP2 MSTORE POP PUSH2 0x1C5F JUMP JUMPDEST PUSH2 0xD9A DUP5 PUSH1 0x2 DUP6 PUSH2 0xD95 SWAP2 SWAP1 PUSH2 0x2898 JUMP JUMPDEST PUSH2 0x1CF8 JUMP JUMPDEST SWAP1 POP PUSH2 0xDA8 JUMP JUMPDEST PUSH1 0x0 DUP1 SHL SWAP1 POP JUMPDEST SWAP4 SWAP3 POP POP POP JUMP JUMPDEST PUSH2 0xE47 DUP3 DUP3 PUSH1 0x40 MLOAD PUSH1 0x24 ADD PUSH2 0xDC5 SWAP3 SWAP2 SWAP1 PUSH2 0x294B JUMP JUMPDEST PUSH1 0x40 MLOAD PUSH1 0x20 DUP2 DUP4 SUB SUB DUP2 MSTORE SWAP1 PUSH1 0x40 MSTORE PUSH32 0xB60E72CC00000000000000000000000000000000000000000000000000000000 PUSH28 0xFFFFFFFFFFFFFFFFFFFFFFFFFFFFFFFFFFFFFFFFFFFFFFFFFFFFFFFF NOT AND PUSH1 0x20 DUP3 ADD DUP1 MLOAD PUSH28 0xFFFFFFFFFFFFFFFFFFFFFFFFFFFFFFFFFFFFFFFFFFFFFFFFFFFFFFFF DUP4 DUP2 DUP4 AND OR DUP4 MSTORE POP POP POP POP PUSH2 0x220B JUMP JUMPDEST POP POP JUMP JUMPDEST PUSH1 0x60 PUSH1 0x0 DUP4 SWAP1 POP PUSH1 0x0 PUSH1 0x2 DUP5 PUSH1 0x2 PUSH2 0xE63 SWAP2 SWAP1 PUSH2 0x297B JUMP JUMPDEST PUSH2 0xE6D SWAP2 SWAP1 PUSH2 0x2898 JUMP JUMPDEST PUSH8 0xFFFFFFFFFFFFFFFF DUP2 GT ISZERO PUSH2 0xE86 JUMPI PUSH2 0xE85 PUSH2 0x23DB JUMP JUMPDEST JUMPDEST PUSH1 0x40 MLOAD SWAP1 DUP1 DUP3 MSTORE DUP1 PUSH1 0x1F ADD PUSH1 0x1F NOT AND PUSH1 0x20 ADD DUP3 ADD PUSH1 0x40 MSTORE DUP1 ISZERO PUSH2 0xEB8 JUMPI DUP2 PUSH1 0x20 ADD PUSH1 0x1 DUP3 MUL DUP1 CALLDATASIZE DUP4 CALLDATACOPY DUP1 DUP3 ADD SWAP2 POP POP SWAP1 POP JUMPDEST POP SWAP1 POP PUSH32 0x3000000000000000000000000000000000000000000000000000000000000000 DUP2 PUSH1 0x0 DUP2 MLOAD DUP2 LT PUSH2 0xEF0 JUMPI PUSH2 0xEEF PUSH2 0x27F2 JUMP JUMPDEST JUMPDEST PUSH1 0x20 ADD ADD SWAP1 PUSH31 0xFFFFFFFFFFFFFFFFFFFFFFFFFFFFFFFFFFFFFFFFFFFFFFFFFFFFFFFFFFFFFF NOT AND SWAP1 DUP2 PUSH1 0x0 BYTE SWAP1 MSTORE8 POP PUSH32 0x7800000000000000000000000000000000000000000000000000000000000000 DUP2 PUSH1 0x1 DUP2 MLOAD DUP2 LT PUSH2 0xF54 JUMPI PUSH2 0xF53 PUSH2 0x27F2 JUMP JUMPDEST JUMPDEST PUSH1 0x20 ADD ADD SWAP1 PUSH31 0xFFFFFFFFFFFFFFFFFFFFFFFFFFFFFFFFFFFFFFFFFFFFFFFFFFFFFFFFFFFFFF NOT AND SWAP1 DUP2 PUSH1 0x0 BYTE SWAP1 MSTORE8 POP PUSH1 0x0 PUSH1 0x1 DUP6 PUSH1 0x2 PUSH2 0xF94 SWAP2 SWAP1 PUSH2 0x297B JUMP JUMPDEST PUSH2 0xF9E SWAP2 SWAP1 PUSH2 0x2898 JUMP JUMPDEST SWAP1 POP JUMPDEST PUSH1 0x1 DUP2 GT ISZERO PUSH2 0x103E JUMPI PUSH32 0x3031323334353637383961626364656600000000000000000000000000000000 PUSH1 0xF DUP5 AND PUSH1 0x10 DUP2 LT PUSH2 0xFE0 JUMPI PUSH2 0xFDF PUSH2 0x27F2 JUMP JUMPDEST JUMPDEST BYTE PUSH1 0xF8 SHL DUP3 DUP3 DUP2 MLOAD DUP2 LT PUSH2 0xFF7 JUMPI PUSH2 0xFF6 PUSH2 0x27F2 JUMP JUMPDEST JUMPDEST PUSH1 0x20 ADD ADD SWAP1 PUSH31 0xFFFFFFFFFFFFFFFFFFFFFFFFFFFFFFFFFFFFFFFFFFFFFFFFFFFFFFFFFFFFFF NOT AND SWAP1 DUP2 PUSH1 0x0 BYTE SWAP1 MSTORE8 POP PUSH1 0x4 DUP4 SWAP1 SHR SWAP3 POP DUP1 PUSH2 0x1037 SWAP1 PUSH2 0x29BD JUMP JUMPDEST SWAP1 POP PUSH2 0xFA1 JUMP JUMPDEST POP PUSH1 0x0 DUP3 EQ PUSH2 0x1086 JUMPI DUP5 DUP5 PUSH1 0x40 MLOAD PUSH32 0xE22E27EB00000000000000000000000000000000000000000000000000000000 DUP2 MSTORE PUSH1 0x4 ADD PUSH2 0x107D SWAP3 SWAP2 SWAP1 PUSH2 0x29E6 JUMP JUMPDEST PUSH1 0x40 MLOAD DUP1 SWAP2 SUB SWAP1 REVERT JUMPDEST DUP1 SWAP3 POP POP POP SWAP3 SWAP2 POP POP JUMP JUMPDEST PUSH2 0x1129 DUP3 DUP3 PUSH1 0x40 MLOAD PUSH1 0x24 ADD PUSH2 0x10A7 SWAP3 SWAP2 SWAP1 PUSH2 0x2A0F JUMP JUMPDEST PUSH1 0x40 MLOAD PUSH1 0x20 DUP2 DUP4 SUB SUB DUP2 MSTORE SWAP1 PUSH1 0x40 MSTORE PUSH32 0x4B5C427700000000000000000000000000000000000000000000000000000000 PUSH28 0xFFFFFFFFFFFFFFFFFFFFFFFFFFFFFFFFFFFFFFFFFFFFFFFFFFFFFFFF NOT AND PUSH1 0x20 DUP3 ADD DUP1 MLOAD PUSH28 0xFFFFFFFFFFFFFFFFFFFFFFFFFFFFFFFFFFFFFFFFFFFFFFFFFFFFFFFF DUP4 DUP2 DUP4 AND OR DUP4 MSTORE POP POP POP POP PUSH2 0x220B JUMP JUMPDEST POP POP JUMP JUMPDEST PUSH1 0x60 PUSH2 0x1156 DUP3 PUSH1 0x60 SHR PUSH20 0xFFFFFFFFFFFFFFFFFFFFFFFFFFFFFFFFFFFFFFFF AND PUSH1 0x14 PUSH1 0xFF AND PUSH2 0xE4B JUMP JUMPDEST SWAP1 POP SWAP2 SWAP1 POP JUMP JUMPDEST PUSH1 0x0 DUP1 PUSH1 0x0 DUP5 DUP5 DUP2 MLOAD DUP2 LT PUSH2 0x1175 JUMPI PUSH2 0x1174 PUSH2 0x27F2 JUMP JUMPDEST JUMPDEST PUSH1 0x20 ADD ADD MLOAD PUSH1 0xF8 SHR PUSH1 0xF8 SHL PUSH1 0xF8 SHR SWAP1 POP PUSH1 0x1 DUP5 PUSH2 0x1192 SWAP2 SWAP1 PUSH2 0x2898 JUMP JUMPDEST SWAP4 POP PUSH1 0xFD DUP2 PUSH1 0xFF AND LT ISZERO PUSH2 0x11B2 JUMPI DUP1 DUP5 DUP2 PUSH1 0xFF AND SWAP2 POP SWAP3 POP SWAP3 POP POP PUSH2 0x123E JUMP JUMPDEST PUSH1 0xFD DUP2 PUSH1 0xFF AND SUB PUSH2 0x11E0 JUMPI PUSH2 0x11C9 DUP6 DUP6 PUSH1 0x10 PUSH2 0x1245 JUMP JUMPDEST PUSH1 0x2 DUP6 PUSH2 0x11D6 SWAP2 SWAP1 PUSH2 0x2898 JUMP JUMPDEST SWAP3 POP SWAP3 POP POP PUSH2 0x123E JUMP JUMPDEST PUSH1 0xFE DUP2 PUSH1 0xFF AND SUB PUSH2 0x120E JUMPI PUSH2 0x11F7 DUP6 DUP6 PUSH1 0x20 PUSH2 0x1245 JUMP JUMPDEST PUSH1 0x4 DUP6 PUSH2 0x1204 SWAP2 SWAP1 PUSH2 0x2898 JUMP JUMPDEST SWAP3 POP SWAP3 POP POP PUSH2 0x123E JUMP JUMPDEST PUSH1 0xFF DUP2 PUSH1 0xFF AND SUB PUSH2 0x123C JUMPI PUSH2 0x1225 DUP6 DUP6 PUSH1 0x40 PUSH2 0x1245 JUMP JUMPDEST PUSH1 0x8 DUP6 PUSH2 0x1232 SWAP2 SWAP1 PUSH2 0x2898 JUMP JUMPDEST SWAP3 POP SWAP3 POP POP PUSH2 0x123E JUMP JUMPDEST POP JUMPDEST SWAP3 POP SWAP3 SWAP1 POP JUMP JUMPDEST PUSH1 0x0 PUSH1 0x8 DUP3 SUB PUSH2 0x127A JUMPI DUP4 DUP4 DUP2 MLOAD DUP2 LT PUSH2 0x1262 JUMPI PUSH2 0x1261 PUSH2 0x27F2 JUMP JUMPDEST JUMPDEST PUSH1 0x20 ADD ADD MLOAD PUSH1 0xF8 SHR PUSH1 0xF8 SHL PUSH1 0xF8 SHR PUSH1 0xFF AND SWAP1 POP PUSH2 0x16A9 JUMP JUMPDEST PUSH1 0x10 DUP3 SUB PUSH2 0x12FC JUMPI PUSH2 0x100 DUP5 PUSH1 0x1 DUP6 PUSH2 0x1293 SWAP2 SWAP1 PUSH2 0x2898 JUMP JUMPDEST DUP2 MLOAD DUP2 LT PUSH2 0x12A4 JUMPI PUSH2 0x12A3 PUSH2 0x27F2 JUMP JUMPDEST JUMPDEST PUSH1 0x20 ADD ADD MLOAD PUSH1 0xF8 SHR PUSH1 0xF8 SHL PUSH1 0xF8 SHR PUSH1 0xFF AND PUSH2 0x12BF SWAP2 SWAP1 PUSH2 0x2A54 JUMP JUMPDEST PUSH2 0xFFFF AND DUP5 DUP5 DUP2 MLOAD DUP2 LT PUSH2 0x12D6 JUMPI PUSH2 0x12D5 PUSH2 0x27F2 JUMP JUMPDEST JUMPDEST PUSH1 0x20 ADD ADD MLOAD PUSH1 0xF8 SHR PUSH1 0xF8 SHL PUSH1 0xF8 SHR PUSH1 0xFF AND PUSH2 0xFFFF AND PUSH2 0x12F5 SWAP2 SWAP1 PUSH2 0x2898 JUMP JUMPDEST SWAP1 POP PUSH2 0x16A9 JUMP JUMPDEST PUSH1 0x20 DUP3 SUB PUSH2 0x141F JUMPI PUSH4 0x1000000 DUP5 PUSH1 0x3 DUP6 PUSH2 0x1317 SWAP2 SWAP1 PUSH2 0x2898 JUMP JUMPDEST DUP2 MLOAD DUP2 LT PUSH2 0x1328 JUMPI PUSH2 0x1327 PUSH2 0x27F2 JUMP JUMPDEST JUMPDEST PUSH1 0x20 ADD ADD MLOAD PUSH1 0xF8 SHR PUSH1 0xF8 SHL PUSH1 0xF8 SHR PUSH1 0xFF AND PUSH2 0x1343 SWAP2 SWAP1 PUSH2 0x2AA1 JUMP JUMPDEST PUSH4 0xFFFFFFFF AND PUSH3 0x10000 DUP6 PUSH1 0x2 DUP7 PUSH2 0x135B SWAP2 SWAP1 PUSH2 0x2898 JUMP JUMPDEST DUP2 MLOAD DUP2 LT PUSH2 0x136C JUMPI PUSH2 0x136B PUSH2 0x27F2 JUMP JUMPDEST JUMPDEST PUSH1 0x20 ADD ADD MLOAD PUSH1 0xF8 SHR PUSH1 0xF8 SHL PUSH1 0xF8 SHR PUSH1 0xFF AND PUSH2 0x1387 SWAP2 SWAP1 PUSH2 0x2AA1 JUMP JUMPDEST PUSH4 0xFFFFFFFF AND PUSH2 0x100 DUP7 PUSH1 0x1 DUP8 PUSH2 0x139E SWAP2 SWAP1 PUSH2 0x2898 JUMP JUMPDEST DUP2 MLOAD DUP2 LT PUSH2 0x13AF JUMPI PUSH2 0x13AE PUSH2 0x27F2 JUMP JUMPDEST JUMPDEST PUSH1 0x20 ADD ADD MLOAD PUSH1 0xF8 SHR PUSH1 0xF8 SHL PUSH1 0xF8 SHR PUSH1 0xFF AND PUSH2 0x13CA SWAP2 SWAP1 PUSH2 0x2AA1 JUMP JUMPDEST PUSH4 0xFFFFFFFF AND DUP7 DUP7 DUP2 MLOAD DUP2 LT PUSH2 0x13E3 JUMPI PUSH2 0x13E2 PUSH2 0x27F2 JUMP JUMPDEST JUMPDEST PUSH1 0x20 ADD ADD MLOAD PUSH1 0xF8 SHR PUSH1 0xF8 SHL PUSH1 0xF8 SHR PUSH1 0xFF AND PUSH4 0xFFFFFFFF AND PUSH2 0x1404 SWAP2 SWAP1 PUSH2 0x2898 JUMP JUMPDEST PUSH2 0x140E SWAP2 SWAP1 PUSH2 0x2898 JUMP JUMPDEST PUSH2 0x1418 SWAP2 SWAP1 PUSH2 0x2898 JUMP JUMPDEST SWAP1 POP PUSH2 0x16A9 JUMP JUMPDEST PUSH1 0x40 DUP3 SUB PUSH2 0x16A8 JUMPI PUSH8 0x100000000000000 DUP5 PUSH1 0x7 DUP6 PUSH2 0x143E SWAP2 SWAP1 PUSH2 0x2898 JUMP JUMPDEST DUP2 MLOAD DUP2 LT PUSH2 0x144F JUMPI PUSH2 0x144E PUSH2 0x27F2 JUMP JUMPDEST JUMPDEST PUSH1 0x20 ADD ADD MLOAD PUSH1 0xF8 SHR PUSH1 0xF8 SHL PUSH1 0xF8 SHR PUSH1 0xFF AND PUSH2 0x146A SWAP2 SWAP1 PUSH2 0x2AF2 JUMP JUMPDEST PUSH8 0xFFFFFFFFFFFFFFFF AND PUSH7 0x1000000000000 DUP6 PUSH1 0x6 DUP7 PUSH2 0x148A SWAP2 SWAP1 PUSH2 0x2898 JUMP JUMPDEST DUP2 MLOAD DUP2 LT PUSH2 0x149B JUMPI PUSH2 0x149A PUSH2 0x27F2 JUMP JUMPDEST JUMPDEST PUSH1 0x20 ADD ADD MLOAD PUSH1 0xF8 SHR PUSH1 0xF8 SHL PUSH1 0xF8 SHR PUSH1 0xFF AND PUSH2 0x14B6 SWAP2 SWAP1 PUSH2 0x2AF2 JUMP JUMPDEST PUSH8 0xFFFFFFFFFFFFFFFF AND PUSH6 0x10000000000 DUP7 PUSH1 0x5 DUP8 PUSH2 0x14D5 SWAP2 SWAP1 PUSH2 0x2898 JUMP JUMPDEST DUP2 MLOAD DUP2 LT PUSH2 0x14E6 JUMPI PUSH2 0x14E5 PUSH2 0x27F2 JUMP JUMPDEST JUMPDEST PUSH1 0x20 ADD ADD MLOAD PUSH1 0xF8 SHR PUSH1 0xF8 SHL PUSH1 0xF8 SHR PUSH1 0xFF AND PUSH2 0x1501 SWAP2 SWAP1 PUSH2 0x2AF2 JUMP JUMPDEST PUSH8 0xFFFFFFFFFFFFFFFF AND PUSH5 0x100000000 DUP8 PUSH1 0x4 DUP9 PUSH2 0x151F SWAP2 SWAP1 PUSH2 0x2898 JUMP JUMPDEST DUP2 MLOAD DUP2 LT PUSH2 0x1530 JUMPI PUSH2 0x152F PUSH2 0x27F2 JUMP JUMPDEST JUMPDEST PUSH1 0x20 ADD ADD MLOAD PUSH1 0xF8 SHR PUSH1 0xF8 SHL PUSH1 0xF8 SHR PUSH1 0xFF AND PUSH2 0x154B SWAP2 SWAP1 PUSH2 0x2AF2 JUMP JUMPDEST PUSH8 0xFFFFFFFFFFFFFFFF AND PUSH4 0x1000000 DUP9 PUSH1 0x3 DUP10 PUSH2 0x1568 SWAP2 SWAP1 PUSH2 0x2898 JUMP JUMPDEST DUP2 MLOAD DUP2 LT PUSH2 0x1579 JUMPI PUSH2 0x1578 PUSH2 0x27F2 JUMP JUMPDEST JUMPDEST PUSH1 0x20 ADD ADD MLOAD PUSH1 0xF8 SHR PUSH1 0xF8 SHL PUSH1 0xF8 SHR PUSH1 0xFF AND PUSH2 0x1594 SWAP2 SWAP1 PUSH2 0x2AF2 JUMP JUMPDEST PUSH8 0xFFFFFFFFFFFFFFFF AND PUSH3 0x10000 DUP10 PUSH1 0x2 DUP11 PUSH2 0x15B0 SWAP2 SWAP1 PUSH2 0x2898 JUMP JUMPDEST DUP2 MLOAD DUP2 LT PUSH2 0x15C1 JUMPI PUSH2 0x15C0 PUSH2 0x27F2 JUMP JUMPDEST JUMPDEST PUSH1 0x20 ADD ADD MLOAD PUSH1 0xF8 SHR PUSH1 0xF8 SHL PUSH1 0xF8 SHR PUSH1 0xFF AND PUSH2 0x15DC SWAP2 SWAP1 PUSH2 0x2AF2 JUMP JUMPDEST PUSH8 0xFFFFFFFFFFFFFFFF AND PUSH2 0x100 DUP11 PUSH1 0x1 DUP12 PUSH2 0x15F7 SWAP2 SWAP1 PUSH2 0x2898 JUMP JUMPDEST DUP2 MLOAD DUP2 LT PUSH2 0x1608 JUMPI PUSH2 0x1607 PUSH2 0x27F2 JUMP JUMPDEST JUMPDEST PUSH1 0x20 ADD ADD MLOAD PUSH1 0xF8 SHR PUSH1 0xF8 SHL PUSH1 0xF8 SHR PUSH1 0xFF AND PUSH2 0x1623 SWAP2 SWAP1 PUSH2 0x2AF2 JUMP JUMPDEST PUSH8 0xFFFFFFFFFFFFFFFF AND DUP11 DUP11 DUP2 MLOAD DUP2 LT PUSH2 0x1640 JUMPI PUSH2 0x163F PUSH2 0x27F2 JUMP JUMPDEST JUMPDEST PUSH1 0x20 ADD ADD MLOAD PUSH1 0xF8 SHR PUSH1 0xF8 SHL PUSH1 0xF8 SHR PUSH1 0xFF AND PUSH8 0xFFFFFFFFFFFFFFFF AND PUSH2 0x1665 SWAP2 SWAP1 PUSH2 0x2898 JUMP JUMPDEST PUSH2 0x166F SWAP2 SWAP1 PUSH2 0x2898 JUMP JUMPDEST PUSH2 0x1679 SWAP2 SWAP1 PUSH2 0x2898 JUMP JUMPDEST PUSH2 0x1683 SWAP2 SWAP1 PUSH2 0x2898 JUMP JUMPDEST PUSH2 0x168D SWAP2 SWAP1 PUSH2 0x2898 JUMP JUMPDEST PUSH2 0x1697 SWAP2 SWAP1 PUSH2 0x2898 JUMP JUMPDEST PUSH2 0x16A1 SWAP2 SWAP1 PUSH2 0x2898 JUMP JUMPDEST SWAP1 POP PUSH2 0x16A9 JUMP JUMPDEST JUMPDEST SWAP4 SWAP3 POP POP POP JUMP JUMPDEST PUSH1 0x0 PUSH1 0x72 DUP3 EQ DUP1 ISZERO PUSH2 0x1710 JUMPI POP PUSH1 0x76 PUSH1 0xF8 SHL DUP5 PUSH1 0x0 DUP6 PUSH2 0x16D0 SWAP2 SWAP1 PUSH2 0x2898 JUMP JUMPDEST DUP2 MLOAD DUP2 LT PUSH2 0x16E1 JUMPI PUSH2 0x16E0 PUSH2 0x27F2 JUMP JUMPDEST JUMPDEST PUSH1 0x20 ADD ADD MLOAD PUSH1 0xF8 SHR PUSH1 0xF8 SHL PUSH31 0xFFFFFFFFFFFFFFFFFFFFFFFFFFFFFFFFFFFFFFFFFFFFFFFFFFFFFFFFFFFFFF NOT AND EQ JUMPDEST DUP1 ISZERO PUSH2 0x176A JUMPI POP PUSH1 0x21 PUSH1 0xF8 SHL DUP5 PUSH1 0x1 DUP6 PUSH2 0x172A SWAP2 SWAP1 PUSH2 0x2898 JUMP JUMPDEST DUP2 MLOAD DUP2 LT PUSH2 0x173B JUMPI PUSH2 0x173A PUSH2 0x27F2 JUMP JUMPDEST JUMPDEST PUSH1 0x20 ADD ADD MLOAD PUSH1 0xF8 SHR PUSH1 0xF8 SHL PUSH31 0xFFFFFFFFFFFFFFFFFFFFFFFFFFFFFFFFFFFFFFFFFFFFFFFFFFFFFFFFFFFFFF NOT AND EQ JUMPDEST DUP1 ISZERO PUSH2 0x17C4 JUMPI POP PUSH1 0xAC PUSH1 0xF8 SHL DUP5 PUSH1 0x23 DUP6 PUSH2 0x1784 SWAP2 SWAP1 PUSH2 0x2898 JUMP JUMPDEST DUP2 MLOAD DUP2 LT PUSH2 0x1795 JUMPI PUSH2 0x1794 PUSH2 0x27F2 JUMP JUMPDEST JUMPDEST PUSH1 0x20 ADD ADD MLOAD PUSH1 0xF8 SHR PUSH1 0xF8 SHL PUSH31 0xFFFFFFFFFFFFFFFFFFFFFFFFFFFFFFFFFFFFFFFFFFFFFFFFFFFFFFFFFFFFFF NOT AND EQ JUMPDEST DUP1 ISZERO PUSH2 0x181E JUMPI POP PUSH1 0x63 PUSH1 0xF8 SHL DUP5 PUSH1 0x24 DUP6 PUSH2 0x17DE SWAP2 SWAP1 PUSH2 0x2898 JUMP JUMPDEST DUP2 MLOAD DUP2 LT PUSH2 0x17EF JUMPI PUSH2 0x17EE PUSH2 0x27F2 JUMP JUMPDEST JUMPDEST PUSH1 0x20 ADD ADD MLOAD PUSH1 0xF8 SHR PUSH1 0xF8 SHL PUSH31 0xFFFFFFFFFFFFFFFFFFFFFFFFFFFFFFFFFFFFFFFFFFFFFFFFFFFFFFFFFFFFFF NOT AND EQ JUMPDEST DUP1 ISZERO PUSH2 0x1878 JUMPI POP PUSH1 0x75 PUSH1 0xF8 SHL DUP5 PUSH1 0x25 DUP6 PUSH2 0x1838 SWAP2 SWAP1 PUSH2 0x2898 JUMP JUMPDEST DUP2 MLOAD DUP2 LT PUSH2 0x1849 JUMPI PUSH2 0x1848 PUSH2 0x27F2 JUMP JUMPDEST JUMPDEST PUSH1 0x20 ADD ADD MLOAD PUSH1 0xF8 SHR PUSH1 0xF8 SHL PUSH31 0xFFFFFFFFFFFFFFFFFFFFFFFFFFFFFFFFFFFFFFFFFFFFFFFFFFFFFFFFFFFFFF NOT AND EQ JUMPDEST DUP1 ISZERO PUSH2 0x18D2 JUMPI POP PUSH1 0xAA PUSH1 0xF8 SHL DUP5 PUSH1 0x26 DUP6 PUSH2 0x1892 SWAP2 SWAP1 PUSH2 0x2898 JUMP JUMPDEST DUP2 MLOAD DUP2 LT PUSH2 0x18A3 JUMPI PUSH2 0x18A2 PUSH2 0x27F2 JUMP JUMPDEST JUMPDEST PUSH1 0x20 ADD ADD MLOAD PUSH1 0xF8 SHR PUSH1 0xF8 SHL PUSH31 0xFFFFFFFFFFFFFFFFFFFFFFFFFFFFFFFFFFFFFFFFFFFFFFFFFFFFFFFFFFFFFF NOT AND EQ JUMPDEST DUP1 ISZERO PUSH2 0x192C JUMPI POP PUSH1 0x20 PUSH1 0xF8 SHL DUP5 PUSH1 0x27 DUP6 PUSH2 0x18EC SWAP2 SWAP1 PUSH2 0x2898 JUMP JUMPDEST DUP2 MLOAD DUP2 LT PUSH2 0x18FD JUMPI PUSH2 0x18FC PUSH2 0x27F2 JUMP JUMPDEST JUMPDEST PUSH1 0x20 ADD ADD MLOAD PUSH1 0xF8 SHR PUSH1 0xF8 SHL PUSH31 0xFFFFFFFFFFFFFFFFFFFFFFFFFFFFFFFFFFFFFFFFFFFFFFFFFFFFFFFFFFFFFF NOT AND EQ JUMPDEST DUP1 ISZERO PUSH2 0x1986 JUMPI POP PUSH1 0x88 PUSH1 0xF8 SHL DUP5 PUSH1 0x48 DUP6 PUSH2 0x1946 SWAP2 SWAP1 PUSH2 0x2898 JUMP JUMPDEST DUP2 MLOAD DUP2 LT PUSH2 0x1957 JUMPI PUSH2 0x1956 PUSH2 0x27F2 JUMP JUMPDEST JUMPDEST PUSH1 0x20 ADD ADD MLOAD PUSH1 0xF8 SHR PUSH1 0xF8 SHL PUSH31 0xFFFFFFFFFFFFFFFFFFFFFFFFFFFFFFFFFFFFFFFFFFFFFFFFFFFFFFFFFFFFFF NOT AND EQ JUMPDEST DUP1 ISZERO PUSH2 0x19E0 JUMPI POP PUSH1 0x67 PUSH1 0xF8 SHL DUP5 PUSH1 0x49 DUP6 PUSH2 0x19A0 SWAP2 SWAP1 PUSH2 0x2898 JUMP JUMPDEST DUP2 MLOAD DUP2 LT PUSH2 0x19B1 JUMPI PUSH2 0x19B0 PUSH2 0x27F2 JUMP JUMPDEST JUMPDEST PUSH1 0x20 ADD ADD MLOAD PUSH1 0xF8 SHR PUSH1 0xF8 SHL PUSH31 0xFFFFFFFFFFFFFFFFFFFFFFFFFFFFFFFFFFFFFFFFFFFFFFFFFFFFFFFFFFFFFF NOT AND EQ JUMPDEST DUP1 ISZERO PUSH2 0x1A3A JUMPI POP PUSH1 0x21 PUSH1 0xF8 SHL DUP5 PUSH1 0x4A DUP6 PUSH2 0x19FA SWAP2 SWAP1 PUSH2 0x2898 JUMP JUMPDEST DUP2 MLOAD DUP2 LT PUSH2 0x1A0B JUMPI PUSH2 0x1A0A PUSH2 0x27F2 JUMP JUMPDEST JUMPDEST PUSH1 0x20 ADD ADD MLOAD PUSH1 0xF8 SHR PUSH1 0xF8 SHL PUSH31 0xFFFFFFFFFFFFFFFFFFFFFFFFFFFFFFFFFFFFFFFFFFFFFFFFFFFFFFFFFFFFFF NOT AND EQ JUMPDEST DUP1 ISZERO PUSH2 0x1A94 JUMPI POP PUSH1 0xAD PUSH1 0xF8 SHL DUP5 PUSH1 0x6C DUP6 PUSH2 0x1A54 SWAP2 SWAP1 PUSH2 0x2898 JUMP JUMPDEST DUP2 MLOAD DUP2 LT PUSH2 0x1A65 JUMPI PUSH2 0x1A64 PUSH2 0x27F2 JUMP JUMPDEST JUMPDEST PUSH1 0x20 ADD ADD MLOAD PUSH1 0xF8 SHR PUSH1 0xF8 SHL PUSH31 0xFFFFFFFFFFFFFFFFFFFFFFFFFFFFFFFFFFFFFFFFFFFFFFFFFFFFFFFFFFFFFF NOT AND EQ JUMPDEST DUP1 ISZERO PUSH2 0x1AEE JUMPI POP PUSH1 0x52 PUSH1 0xF8 SHL DUP5 PUSH1 0x6D DUP6 PUSH2 0x1AAE SWAP2 SWAP1 PUSH2 0x2898 JUMP JUMPDEST DUP2 MLOAD DUP2 LT PUSH2 0x1ABF JUMPI PUSH2 0x1ABE PUSH2 0x27F2 JUMP JUMPDEST JUMPDEST PUSH1 0x20 ADD ADD MLOAD PUSH1 0xF8 SHR PUSH1 0xF8 SHL PUSH31 0xFFFFFFFFFFFFFFFFFFFFFFFFFFFFFFFFFFFFFFFFFFFFFFFFFFFFFFFFFFFFFF NOT AND EQ JUMPDEST DUP1 ISZERO PUSH2 0x1B48 JUMPI POP PUSH1 0xB2 PUSH1 0xF8 SHL DUP5 PUSH1 0x6E DUP6 PUSH2 0x1B08 SWAP2 SWAP1 PUSH2 0x2898 JUMP JUMPDEST DUP2 MLOAD DUP2 LT PUSH2 0x1B19 JUMPI PUSH2 0x1B18 PUSH2 0x27F2 JUMP JUMPDEST JUMPDEST PUSH1 0x20 ADD ADD MLOAD PUSH1 0xF8 SHR PUSH1 0xF8 SHL PUSH31 0xFFFFFFFFFFFFFFFFFFFFFFFFFFFFFFFFFFFFFFFFFFFFFFFFFFFFFFFFFFFFFF NOT AND EQ JUMPDEST DUP1 ISZERO PUSH2 0x1BA2 JUMPI POP PUSH1 0x75 PUSH1 0xF8 SHL DUP5 PUSH1 0x6F DUP6 PUSH2 0x1B62 SWAP2 SWAP1 PUSH2 0x2898 JUMP JUMPDEST DUP2 MLOAD DUP2 LT PUSH2 0x1B73 JUMPI PUSH2 0x1B72 PUSH2 0x27F2 JUMP JUMPDEST JUMPDEST PUSH1 0x20 ADD ADD MLOAD PUSH1 0xF8 SHR PUSH1 0xF8 SHL PUSH31 0xFFFFFFFFFFFFFFFFFFFFFFFFFFFFFFFFFFFFFFFFFFFFFFFFFFFFFFFFFFFFFF NOT AND EQ JUMPDEST DUP1 ISZERO PUSH2 0x1BFC JUMPI POP PUSH1 0x68 PUSH1 0xF8 SHL DUP5 PUSH1 0x70 DUP6 PUSH2 0x1BBC SWAP2 SWAP1 PUSH2 0x2898 JUMP JUMPDEST DUP2 MLOAD DUP2 LT PUSH2 0x1BCD JUMPI PUSH2 0x1BCC PUSH2 0x27F2 JUMP JUMPDEST JUMPDEST PUSH1 0x20 ADD ADD MLOAD PUSH1 0xF8 SHR PUSH1 0xF8 SHL PUSH31 0xFFFFFFFFFFFFFFFFFFFFFFFFFFFFFFFFFFFFFFFFFFFFFFFFFFFFFFFFFFFFFF NOT AND EQ JUMPDEST DUP1 ISZERO PUSH2 0x1C56 JUMPI POP PUSH1 0x51 PUSH1 0xF8 SHL DUP5 PUSH1 0x71 DUP6 PUSH2 0x1C16 SWAP2 SWAP1 PUSH2 0x2898 JUMP JUMPDEST DUP2 MLOAD DUP2 LT PUSH2 0x1C27 JUMPI PUSH2 0x1C26 PUSH2 0x27F2 JUMP JUMPDEST JUMPDEST PUSH1 0x20 ADD ADD MLOAD PUSH1 0xF8 SHR PUSH1 0xF8 SHL PUSH31 0xFFFFFFFFFFFFFFFFFFFFFFFFFFFFFFFFFFFFFFFFFFFFFFFFFFFFFFFFFFFFFF NOT AND EQ JUMPDEST SWAP1 POP SWAP4 SWAP3 POP POP POP JUMP JUMPDEST PUSH2 0x1CF5 DUP2 PUSH1 0x40 MLOAD PUSH1 0x24 ADD PUSH2 0x1C73 SWAP2 SWAP1 PUSH2 0x2B2F JUMP JUMPDEST PUSH1 0x40 MLOAD PUSH1 0x20 DUP2 DUP4 SUB SUB DUP2 MSTORE SWAP1 PUSH1 0x40 MSTORE PUSH32 0x41304FAC00000000000000000000000000000000000000000000000000000000 PUSH28 0xFFFFFFFFFFFFFFFFFFFFFFFFFFFFFFFFFFFFFFFFFFFFFFFFFFFFFFFF NOT AND PUSH1 0x20 DUP3 ADD DUP1 MLOAD PUSH28 0xFFFFFFFFFFFFFFFFFFFFFFFFFFFFFFFFFFFFFFFFFFFFFFFFFFFFFFFF DUP4 DUP2 DUP4 AND OR DUP4 MSTORE POP POP POP POP PUSH2 0x220B JUMP JUMPDEST POP JUMP JUMPDEST PUSH1 0x0 DUP1 PUSH1 0x0 SWAP1 POP PUSH1 0x0 JUMPDEST PUSH1 0x20 DUP2 LT ISZERO PUSH2 0x1D75 JUMPI DUP1 PUSH1 0x1F PUSH2 0x1D18 SWAP2 SWAP1 PUSH2 0x2B51 JUMP JUMPDEST PUSH1 0x8 PUSH2 0x1D24 SWAP2 SWAP1 PUSH2 0x297B JUMP JUMPDEST DUP6 DUP6 DUP4 PUSH2 0x1D31 SWAP2 SWAP1 PUSH2 0x2898 JUMP JUMPDEST DUP2 MLOAD DUP2 LT PUSH2 0x1D42 JUMPI PUSH2 0x1D41 PUSH2 0x27F2 JUMP JUMPDEST JUMPDEST PUSH1 0x20 ADD ADD MLOAD PUSH1 0xF8 SHR PUSH1 0xF8 SHL PUSH1 0xF8 SHR PUSH1 0xFF AND SWAP1 SHL DUP3 PUSH2 0x1D60 SWAP2 SWAP1 PUSH2 0x2898 JUMP JUMPDEST SWAP2 POP DUP1 DUP1 PUSH2 0x1D6D SWAP1 PUSH2 0x2850 JUMP JUMPDEST SWAP2 POP POP PUSH2 0x1D02 JUMP JUMPDEST POP DUP1 PUSH1 0x0 SHL SWAP2 POP POP SWAP3 SWAP2 POP POP JUMP JUMPDEST PUSH1 0x0 PUSH1 0x19 DUP3 EQ DUP1 ISZERO PUSH2 0x1DD7 JUMPI POP PUSH1 0x76 PUSH1 0xF8 SHL DUP5 DUP5 DUP2 MLOAD DUP2 LT PUSH2 0x1DA8 JUMPI PUSH2 0x1DA7 PUSH2 0x27F2 JUMP JUMPDEST JUMPDEST PUSH1 0x20 ADD ADD MLOAD PUSH1 0xF8 SHR PUSH1 0xF8 SHL PUSH31 0xFFFFFFFFFFFFFFFFFFFFFFFFFFFFFFFFFFFFFFFFFFFFFFFFFFFFFFFFFFFFFF NOT AND EQ JUMPDEST DUP1 ISZERO PUSH2 0x1E31 JUMPI POP PUSH1 0xA9 PUSH1 0xF8 SHL DUP5 PUSH1 0x1 DUP6 PUSH2 0x1DF1 SWAP2 SWAP1 PUSH2 0x2898 JUMP JUMPDEST DUP2 MLOAD DUP2 LT PUSH2 0x1E02 JUMPI PUSH2 0x1E01 PUSH2 0x27F2 JUMP JUMPDEST JUMPDEST PUSH1 0x20 ADD ADD MLOAD PUSH1 0xF8 SHR PUSH1 0xF8 SHL PUSH31 0xFFFFFFFFFFFFFFFFFFFFFFFFFFFFFFFFFFFFFFFFFFFFFFFFFFFFFFFFFFFFFF NOT AND EQ JUMPDEST DUP1 ISZERO PUSH2 0x1E8B JUMPI POP PUSH1 0x14 PUSH1 0xF8 SHL DUP5 PUSH1 0x2 DUP6 PUSH2 0x1E4B SWAP2 SWAP1 PUSH2 0x2898 JUMP JUMPDEST DUP2 MLOAD DUP2 LT PUSH2 0x1E5C JUMPI PUSH2 0x1E5B PUSH2 0x27F2 JUMP JUMPDEST JUMPDEST PUSH1 0x20 ADD ADD MLOAD PUSH1 0xF8 SHR PUSH1 0xF8 SHL PUSH31 0xFFFFFFFFFFFFFFFFFFFFFFFFFFFFFFFFFFFFFFFFFFFFFFFFFFFFFFFFFFFFFF NOT AND EQ JUMPDEST DUP1 ISZERO PUSH2 0x1EE5 JUMPI POP PUSH1 0x88 PUSH1 0xF8 SHL DUP5 PUSH1 0x17 DUP6 PUSH2 0x1EA5 SWAP2 SWAP1 PUSH2 0x2898 JUMP JUMPDEST DUP2 MLOAD DUP2 LT PUSH2 0x1EB6 JUMPI PUSH2 0x1EB5 PUSH2 0x27F2 JUMP JUMPDEST JUMPDEST PUSH1 0x20 ADD ADD MLOAD PUSH1 0xF8 SHR PUSH1 0xF8 SHL PUSH31 0xFFFFFFFFFFFFFFFFFFFFFFFFFFFFFFFFFFFFFFFFFFFFFFFFFFFFFFFFFFFFFF NOT AND EQ JUMPDEST DUP1 ISZERO PUSH2 0x1F3F JUMPI POP PUSH1 0xAC PUSH1 0xF8 SHL DUP5 PUSH1 0x18 DUP6 PUSH2 0x1EFF SWAP2 SWAP1 PUSH2 0x2898 JUMP JUMPDEST DUP2 MLOAD DUP2 LT PUSH2 0x1F10 JUMPI PUSH2 0x1F0F PUSH2 0x27F2 JUMP JUMPDEST JUMPDEST PUSH1 0x20 ADD ADD MLOAD PUSH1 0xF8 SHR PUSH1 0xF8 SHL PUSH31 0xFFFFFFFFFFFFFFFFFFFFFFFFFFFFFFFFFFFFFFFFFFFFFFFFFFFFFFFFFFFFFF NOT AND EQ JUMPDEST SWAP1 POP SWAP4 SWAP3 POP POP POP JUMP JUMPDEST PUSH1 0x0 DUP1 PUSH1 0x0 SWAP1 POP PUSH1 0x0 JUMPDEST PUSH1 0x14 DUP2 PUSH20 0xFFFFFFFFFFFFFFFFFFFFFFFFFFFFFFFFFFFFFFFF AND LT ISZERO PUSH2 0x201D JUMPI DUP1 PUSH1 0x13 PUSH2 0x1F7E SWAP2 SWAP1 PUSH2 0x2BA5 JUMP JUMPDEST PUSH1 0x8 PUSH2 0x1F8A SWAP2 SWAP1 PUSH2 0x2BED JUMP JUMPDEST PUSH20 0xFFFFFFFFFFFFFFFFFFFFFFFFFFFFFFFFFFFFFFFF AND DUP6 DUP6 DUP4 PUSH20 0xFFFFFFFFFFFFFFFFFFFFFFFFFFFFFFFFFFFFFFFF AND PUSH2 0x1FC3 SWAP2 SWAP1 PUSH2 0x2898 JUMP JUMPDEST DUP2 MLOAD DUP2 LT PUSH2 0x1FD4 JUMPI PUSH2 0x1FD3 PUSH2 0x27F2 JUMP JUMPDEST JUMPDEST PUSH1 0x20 ADD ADD MLOAD PUSH1 0xF8 SHR PUSH1 0xF8 SHL PUSH1 0xF8 SHR PUSH1 0xFF AND PUSH20 0xFFFFFFFFFFFFFFFFFFFFFFFFFFFFFFFFFFFFFFFF AND SWAP1 SHL DUP3 PUSH2 0x2008 SWAP2 SWAP1 PUSH2 0x2C2F JUMP JUMPDEST SWAP2 POP DUP1 DUP1 PUSH2 0x2015 SWAP1 PUSH2 0x2C77 JUMP JUMPDEST SWAP2 POP POP PUSH2 0x1F52 JUMP JUMPDEST POP DUP1 PUSH1 0x60 SHL SWAP2 POP POP SWAP3 SWAP2 POP POP JUMP JUMPDEST PUSH1 0x0 PUSH1 0x17 DUP3 EQ DUP1 ISZERO PUSH2 0x208B JUMPI POP PUSH1 0xA9 PUSH1 0xF8 SHL DUP5 PUSH1 0x0 DUP6 PUSH2 0x204B SWAP2 SWAP1 PUSH2 0x2898 JUMP JUMPDEST DUP2 MLOAD DUP2 LT PUSH2 0x205C JUMPI PUSH2 0x205B PUSH2 0x27F2 JUMP JUMPDEST JUMPDEST PUSH1 0x20 ADD ADD MLOAD PUSH1 0xF8 SHR PUSH1 0xF8 SHL PUSH31 0xFFFFFFFFFFFFFFFFFFFFFFFFFFFFFFFFFFFFFFFFFFFFFFFFFFFFFFFFFFFFFF NOT AND EQ JUMPDEST DUP1 ISZERO PUSH2 0x20E5 JUMPI POP PUSH1 0x14 PUSH1 0xF8 SHL DUP5 PUSH1 0x1 DUP6 PUSH2 0x20A5 SWAP2 SWAP1 PUSH2 0x2898 JUMP JUMPDEST DUP2 MLOAD DUP2 LT PUSH2 0x20B6 JUMPI PUSH2 0x20B5 PUSH2 0x27F2 JUMP JUMPDEST JUMPDEST PUSH1 0x20 ADD ADD MLOAD PUSH1 0xF8 SHR PUSH1 0xF8 SHL PUSH31 0xFFFFFFFFFFFFFFFFFFFFFFFFFFFFFFFFFFFFFFFFFFFFFFFFFFFFFFFFFFFFFF NOT AND EQ JUMPDEST DUP1 ISZERO PUSH2 0x213F JUMPI POP PUSH1 0x87 PUSH1 0xF8 SHL DUP5 PUSH1 0x16 DUP6 PUSH2 0x20FF SWAP2 SWAP1 PUSH2 0x2898 JUMP JUMPDEST DUP2 MLOAD DUP2 LT PUSH2 0x2110 JUMPI PUSH2 0x210F PUSH2 0x27F2 JUMP JUMPDEST JUMPDEST PUSH1 0x20 ADD ADD MLOAD PUSH1 0xF8 SHR PUSH1 0xF8 SHL PUSH31 0xFFFFFFFFFFFFFFFFFFFFFFFFFFFFFFFFFFFFFFFFFFFFFFFFFFFFFFFFFFFFFF NOT AND EQ JUMPDEST SWAP1 POP SWAP4 SWAP3 POP POP POP JUMP JUMPDEST PUSH1 0x0 PUSH1 0x22 DUP3 EQ DUP1 ISZERO PUSH2 0x21A8 JUMPI POP PUSH1 0x6A PUSH1 0xF8 SHL DUP5 PUSH1 0x0 DUP6 PUSH2 0x2168 SWAP2 SWAP1 PUSH2 0x2898 JUMP JUMPDEST DUP2 MLOAD DUP2 LT PUSH2 0x2179 JUMPI PUSH2 0x2178 PUSH2 0x27F2 JUMP JUMPDEST JUMPDEST PUSH1 0x20 ADD ADD MLOAD PUSH1 0xF8 SHR PUSH1 0xF8 SHL PUSH31 0xFFFFFFFFFFFFFFFFFFFFFFFFFFFFFFFFFFFFFFFFFFFFFFFFFFFFFFFFFFFFFF NOT AND EQ JUMPDEST DUP1 ISZERO PUSH2 0x2202 JUMPI POP PUSH1 0x20 PUSH1 0xF8 SHL DUP5 PUSH1 0x1 DUP6 PUSH2 0x21C2 SWAP2 SWAP1 PUSH2 0x2898 JUMP JUMPDEST DUP2 MLOAD DUP2 LT PUSH2 0x21D3 JUMPI PUSH2 0x21D2 PUSH2 0x27F2 JUMP JUMPDEST JUMPDEST PUSH1 0x20 ADD ADD MLOAD PUSH1 0xF8 SHR PUSH1 0xF8 SHL PUSH31 0xFFFFFFFFFFFFFFFFFFFFFFFFFFFFFFFFFFFFFFFFFFFFFFFFFFFFFFFFFFFFFF NOT AND EQ JUMPDEST SWAP1 POP SWAP4 SWAP3 POP POP POP JUMP JUMPDEST PUSH2 0x2222 DUP2 PUSH2 0x221A PUSH2 0x2225 PUSH2 0x2246 JUMP JUMPDEST PUSH4 0xFFFFFFFF AND JUMP JUMPDEST POP JUMP JUMPDEST PUSH1 0x0 PUSH11 0x636F6E736F6C652E6C6F67 SWAP1 POP PUSH1 0x0 DUP1 DUP4 MLOAD PUSH1 0x20 DUP6 ADD DUP5 GAS STATICCALL POP POP POP JUMP JUMPDEST PUSH2 0x229E DUP2 SWAP1 POP SWAP2 SWAP1 POP JUMP JUMPDEST DUP3 DUP1 SLOAD DUP3 DUP3 SSTORE SWAP1 PUSH1 0x0 MSTORE PUSH1 0x20 PUSH1 0x0 KECCAK256 SWAP1 DUP2 ADD SWAP3 DUP3 ISZERO PUSH2 0x228D JUMPI SWAP2 PUSH1 0x20 MUL DUP3 ADD JUMPDEST DUP3 DUP2 GT ISZERO PUSH2 0x228C JUMPI DUP3 MLOAD DUP3 SSTORE SWAP2 PUSH1 0x20 ADD SWAP2 SWAP1 PUSH1 0x1 ADD SWAP1 PUSH2 0x2271 JUMP JUMPDEST JUMPDEST POP SWAP1 POP PUSH2 0x229A SWAP2 SWAP1 PUSH2 0x22A8 JUMP JUMPDEST POP SWAP1 JUMP JUMPDEST PUSH2 0x22A6 PUSH2 0x2CB3 JUMP JUMPDEST JUMP JUMPDEST JUMPDEST DUP1 DUP3 GT ISZERO PUSH2 0x22C1 JUMPI PUSH1 0x0 DUP2 PUSH1 0x0 SWAP1 SSTORE POP PUSH1 0x1 ADD PUSH2 0x22A9 JUMP JUMPDEST POP SWAP1 JUMP JUMPDEST PUSH1 0x0 PUSH1 0x40 MLOAD SWAP1 POP SWAP1 JUMP JUMPDEST PUSH1 0x0 DUP1 REVERT JUMPDEST PUSH1 0x0 DUP1 REVERT JUMPDEST PUSH1 0x0 DUP2 SWAP1 POP SWAP2 SWAP1 POP JUMP JUMPDEST PUSH2 0x22EC DUP2 PUSH2 0x22D9 JUMP JUMPDEST DUP2 EQ PUSH2 0x22F7 JUMPI PUSH1 0x0 DUP1 REVERT JUMPDEST POP JUMP JUMPDEST PUSH1 0x0 DUP2 CALLDATALOAD SWAP1 POP PUSH2 0x2309 DUP2 PUSH2 0x22E3 JUMP JUMPDEST SWAP3 SWAP2 POP POP JUMP JUMPDEST PUSH1 0x0 DUP2 SWAP1 POP SWAP2 SWAP1 POP JUMP JUMPDEST PUSH2 0x2322 DUP2 PUSH2 0x230F JUMP JUMPDEST DUP2 EQ PUSH2 0x232D JUMPI PUSH1 0x0 DUP1 REVERT JUMPDEST POP JUMP JUMPDEST PUSH1 0x0 DUP2 CALLDATALOAD SWAP1 POP PUSH2 0x233F DUP2 PUSH2 0x2319 JUMP JUMPDEST SWAP3 SWAP2 POP POP JUMP JUMPDEST PUSH1 0x0 DUP1 PUSH1 0x0 DUP1 PUSH1 0x0 PUSH1 0xA0 DUP7 DUP9 SUB SLT ISZERO PUSH2 0x2361 JUMPI PUSH2 0x2360 PUSH2 0x22CF JUMP JUMPDEST JUMPDEST PUSH1 0x0 PUSH2 0x236F DUP9 DUP3 DUP10 ADD PUSH2 0x22FA JUMP JUMPDEST SWAP6 POP POP PUSH1 0x20 PUSH2 0x2380 DUP9 DUP3 DUP10 ADD PUSH2 0x22FA JUMP JUMPDEST SWAP5 POP POP PUSH1 0x40 PUSH2 0x2391 DUP9 DUP3 DUP10 ADD PUSH2 0x22FA JUMP JUMPDEST SWAP4 POP POP PUSH1 0x60 PUSH2 0x23A2 DUP9 DUP3 DUP10 ADD PUSH2 0x2330 JUMP JUMPDEST SWAP3 POP POP PUSH1 0x80 PUSH2 0x23B3 DUP9 DUP3 DUP10 ADD PUSH2 0x2330 JUMP JUMPDEST SWAP2 POP POP SWAP3 SWAP6 POP SWAP3 SWAP6 SWAP1 SWAP4 POP JUMP JUMPDEST PUSH1 0x0 DUP1 REVERT JUMPDEST PUSH1 0x0 DUP1 REVERT JUMPDEST PUSH1 0x0 PUSH1 0x1F NOT PUSH1 0x1F DUP4 ADD AND SWAP1 POP SWAP2 SWAP1 POP JUMP JUMPDEST PUSH32 0x4E487B7100000000000000000000000000000000000000000000000000000000 PUSH1 0x0 MSTORE PUSH1 0x41 PUSH1 0x4 MSTORE PUSH1 0x24 PUSH1 0x0 REVERT JUMPDEST PUSH2 0x2413 DUP3 PUSH2 0x23CA JUMP JUMPDEST DUP2 ADD DUP2 DUP2 LT PUSH8 0xFFFFFFFFFFFFFFFF DUP3 GT OR ISZERO PUSH2 0x2432 JUMPI PUSH2 0x2431 PUSH2 0x23DB JUMP JUMPDEST JUMPDEST DUP1 PUSH1 0x40 MSTORE POP POP POP JUMP JUMPDEST PUSH1 0x0 PUSH2 0x2445 PUSH2 0x22C5 JUMP JUMPDEST SWAP1 POP PUSH2 0x2451 DUP3 DUP3 PUSH2 0x240A JUMP JUMPDEST SWAP2 SWAP1 POP JUMP JUMPDEST PUSH1 0x0 PUSH8 0xFFFFFFFFFFFFFFFF DUP3 GT ISZERO PUSH2 0x2471 JUMPI PUSH2 0x2470 PUSH2 0x23DB JUMP JUMPDEST JUMPDEST PUSH2 0x247A DUP3 PUSH2 0x23CA JUMP JUMPDEST SWAP1 POP PUSH1 0x20 DUP2 ADD SWAP1 POP SWAP2 SWAP1 POP JUMP JUMPDEST DUP3 DUP2 DUP4 CALLDATACOPY PUSH1 0x0 DUP4 DUP4 ADD MSTORE POP POP POP JUMP JUMPDEST PUSH1 0x0 PUSH2 0x24A9 PUSH2 0x24A4 DUP5 PUSH2 0x2456 JUMP JUMPDEST PUSH2 0x243B JUMP JUMPDEST SWAP1 POP DUP3 DUP2 MSTORE PUSH1 0x20 DUP2 ADD DUP5 DUP5 DUP5 ADD GT ISZERO PUSH2 0x24C5 JUMPI PUSH2 0x24C4 PUSH2 0x23C5 JUMP JUMPDEST JUMPDEST PUSH2 0x24D0 DUP5 DUP3 DUP6 PUSH2 0x2487 JUMP JUMPDEST POP SWAP4 SWAP3 POP POP POP JUMP JUMPDEST PUSH1 0x0 DUP3 PUSH1 0x1F DUP4 ADD SLT PUSH2 0x24ED JUMPI PUSH2 0x24EC PUSH2 0x23C0 JUMP JUMPDEST JUMPDEST DUP2 CALLDATALOAD PUSH2 0x24FD DUP5 DUP3 PUSH1 0x20 DUP7 ADD PUSH2 0x2496 JUMP JUMPDEST SWAP2 POP POP SWAP3 SWAP2 POP POP JUMP JUMPDEST PUSH1 0x0 DUP1 PUSH1 0x0 DUP1 PUSH1 0x80 DUP6 DUP8 SUB SLT ISZERO PUSH2 0x2520 JUMPI PUSH2 0x251F PUSH2 0x22CF JUMP JUMPDEST JUMPDEST PUSH1 0x0 DUP6 ADD CALLDATALOAD PUSH8 0xFFFFFFFFFFFFFFFF DUP2 GT ISZERO PUSH2 0x253E JUMPI PUSH2 0x253D PUSH2 0x22D4 JUMP JUMPDEST JUMPDEST PUSH2 0x254A DUP8 DUP3 DUP9 ADD PUSH2 0x24D8 JUMP JUMPDEST SWAP5 POP POP PUSH1 0x20 DUP6 ADD CALLDATALOAD PUSH8 0xFFFFFFFFFFFFFFFF DUP2 GT ISZERO PUSH2 0x256B JUMPI PUSH2 0x256A PUSH2 0x22D4 JUMP JUMPDEST JUMPDEST PUSH2 0x2577 DUP8 DUP3 DUP9 ADD PUSH2 0x24D8 JUMP JUMPDEST SWAP4 POP POP PUSH1 0x40 DUP6 ADD CALLDATALOAD PUSH8 0xFFFFFFFFFFFFFFFF DUP2 GT ISZERO PUSH2 0x2598 JUMPI PUSH2 0x2597 PUSH2 0x22D4 JUMP JUMPDEST JUMPDEST PUSH2 0x25A4 DUP8 DUP3 DUP9 ADD PUSH2 0x24D8 JUMP JUMPDEST SWAP3 POP POP PUSH1 0x60 DUP6 ADD CALLDATALOAD PUSH8 0xFFFFFFFFFFFFFFFF DUP2 GT ISZERO PUSH2 0x25C5 JUMPI PUSH2 0x25C4 PUSH2 0x22D4 JUMP JUMPDEST JUMPDEST PUSH2 0x25D1 DUP8 DUP3 DUP9 ADD PUSH2 0x24D8 JUMP JUMPDEST SWAP2 POP POP SWAP3 SWAP6 SWAP2 SWAP5 POP SWAP3 POP JUMP JUMPDEST PUSH1 0x0 PUSH1 0x20 DUP3 DUP5 SUB SLT ISZERO PUSH2 0x25F3 JUMPI PUSH2 0x25F2 PUSH2 0x22CF JUMP JUMPDEST JUMPDEST PUSH1 0x0 DUP3 ADD CALLDATALOAD PUSH8 0xFFFFFFFFFFFFFFFF DUP2 GT ISZERO PUSH2 0x2611 JUMPI PUSH2 0x2610 PUSH2 0x22D4 JUMP JUMPDEST JUMPDEST PUSH2 0x261D DUP5 DUP3 DUP6 ADD PUSH2 0x24D8 JUMP JUMPDEST SWAP2 POP POP SWAP3 SWAP2 POP POP JUMP JUMPDEST PUSH2 0x262F DUP2 PUSH2 0x230F JUMP JUMPDEST DUP3 MSTORE POP POP JUMP JUMPDEST PUSH2 0x263E DUP2 PUSH2 0x22D9 JUMP JUMPDEST DUP3 MSTORE POP POP JUMP JUMPDEST PUSH1 0x0 PUSH2 0x100 DUP3 ADD SWAP1 POP PUSH2 0x265A PUSH1 0x0 DUP4 ADD DUP12 PUSH2 0x2626 JUMP JUMPDEST PUSH2 0x2667 PUSH1 0x20 DUP4 ADD DUP11 PUSH2 0x2635 JUMP JUMPDEST PUSH2 0x2674 PUSH1 0x40 DUP4 ADD DUP10 PUSH2 0x2635 JUMP JUMPDEST PUSH2 0x2681 PUSH1 0x60 DUP4 ADD DUP9 PUSH2 0x2635 JUMP JUMPDEST PUSH2 0x268E PUSH1 0x80 DUP4 ADD DUP8 PUSH2 0x2626 JUMP JUMPDEST PUSH2 0x269B PUSH1 0xA0 DUP4 ADD DUP7 PUSH2 0x2635 JUMP JUMPDEST PUSH2 0x26A8 PUSH1 0xC0 DUP4 ADD DUP6 PUSH2 0x2626 JUMP JUMPDEST PUSH2 0x26B5 PUSH1 0xE0 DUP4 ADD DUP5 PUSH2 0x2635 JUMP JUMPDEST SWAP10 SWAP9 POP POP POP POP POP POP POP POP POP JUMP JUMPDEST PUSH1 0x0 PUSH1 0x20 DUP3 ADD SWAP1 POP PUSH2 0x26D7 PUSH1 0x0 DUP4 ADD DUP5 PUSH2 0x2626 JUMP JUMPDEST SWAP3 SWAP2 POP POP JUMP JUMPDEST PUSH1 0x0 PUSH1 0x40 DUP3 ADD SWAP1 POP PUSH2 0x26F2 PUSH1 0x0 DUP4 ADD DUP6 PUSH2 0x2626 JUMP JUMPDEST PUSH2 0x26FF PUSH1 0x20 DUP4 ADD DUP5 PUSH2 0x2635 JUMP JUMPDEST SWAP4 SWAP3 POP POP POP JUMP JUMPDEST PUSH1 0x0 DUP1 PUSH1 0x0 PUSH1 0x60 DUP5 DUP7 SUB SLT ISZERO PUSH2 0x271F JUMPI PUSH2 0x271E PUSH2 0x22CF JUMP JUMPDEST JUMPDEST PUSH1 0x0 DUP5 ADD CALLDATALOAD PUSH8 0xFFFFFFFFFFFFFFFF DUP2 GT ISZERO PUSH2 0x273D JUMPI PUSH2 0x273C PUSH2 0x22D4 JUMP JUMPDEST JUMPDEST PUSH2 0x2749 DUP7 DUP3 DUP8 ADD PUSH2 0x24D8 JUMP JUMPDEST SWAP4 POP POP PUSH1 0x20 DUP5 ADD CALLDATALOAD PUSH8 0xFFFFFFFFFFFFFFFF DUP2 GT ISZERO PUSH2 0x276A JUMPI PUSH2 0x2769 PUSH2 0x22D4 JUMP JUMPDEST JUMPDEST PUSH2 0x2776 DUP7 DUP3 DUP8 ADD PUSH2 0x24D8 JUMP JUMPDEST SWAP3 POP POP PUSH1 0x40 DUP5 ADD CALLDATALOAD PUSH8 0xFFFFFFFFFFFFFFFF DUP2 GT ISZERO PUSH2 0x2797 JUMPI PUSH2 0x2796 PUSH2 0x22D4 JUMP JUMPDEST JUMPDEST PUSH2 0x27A3 DUP7 DUP3 DUP8 ADD PUSH2 0x24D8 JUMP JUMPDEST SWAP2 POP POP SWAP3 POP SWAP3 POP SWAP3 JUMP JUMPDEST PUSH1 0x0 PUSH1 0x80 DUP3 ADD SWAP1 POP PUSH2 0x27C2 PUSH1 0x0 DUP4 ADD DUP8 PUSH2 0x2626 JUMP JUMPDEST PUSH2 0x27CF PUSH1 0x20 DUP4 ADD DUP7 PUSH2 0x2635 JUMP JUMPDEST PUSH2 0x27DC PUSH1 0x40 DUP4 ADD DUP6 PUSH2 0x2635 JUMP JUMPDEST PUSH2 0x27E9 PUSH1 0x60 DUP4 ADD DUP5 PUSH2 0x2635 JUMP JUMPDEST SWAP6 SWAP5 POP POP POP POP POP JUMP JUMPDEST PUSH32 0x4E487B7100000000000000000000000000000000000000000000000000000000 PUSH1 0x0 MSTORE PUSH1 0x32 PUSH1 0x4 MSTORE PUSH1 0x24 PUSH1 0x0 REVERT JUMPDEST PUSH32 0x4E487B7100000000000000000000000000000000000000000000000000000000 PUSH1 0x0 MSTORE PUSH1 0x11 PUSH1 0x4 MSTORE PUSH1 0x24 PUSH1 0x0 REVERT JUMPDEST PUSH1 0x0 PUSH2 0x285B DUP3 PUSH2 0x230F JUMP JUMPDEST SWAP2 POP PUSH32 0xFFFFFFFFFFFFFFFFFFFFFFFFFFFFFFFFFFFFFFFFFFFFFFFFFFFFFFFFFFFFFFFF DUP3 SUB PUSH2 0x288D JUMPI PUSH2 0x288C PUSH2 0x2821 JUMP JUMPDEST JUMPDEST PUSH1 0x1 DUP3 ADD SWAP1 POP SWAP2 SWAP1 POP JUMP JUMPDEST PUSH1 0x0 PUSH2 0x28A3 DUP3 PUSH2 0x230F JUMP JUMPDEST SWAP2 POP PUSH2 0x28AE DUP4 PUSH2 0x230F JUMP JUMPDEST SWAP3 POP DUP3 DUP3 ADD SWAP1 POP DUP1 DUP3 GT ISZERO PUSH2 0x28C6 JUMPI PUSH2 0x28C5 PUSH2 0x2821 JUMP JUMPDEST JUMPDEST SWAP3 SWAP2 POP POP JUMP JUMPDEST PUSH1 0x0 DUP2 MLOAD SWAP1 POP SWAP2 SWAP1 POP JUMP JUMPDEST PUSH1 0x0 DUP3 DUP3 MSTORE PUSH1 0x20 DUP3 ADD SWAP1 POP SWAP3 SWAP2 POP POP JUMP JUMPDEST PUSH1 0x0 JUMPDEST DUP4 DUP2 LT ISZERO PUSH2 0x2906 JUMPI DUP1 DUP3 ADD MLOAD DUP2 DUP5 ADD MSTORE PUSH1 0x20 DUP2 ADD SWAP1 POP PUSH2 0x28EB JUMP JUMPDEST PUSH1 0x0 DUP5 DUP5 ADD MSTORE POP POP POP POP JUMP JUMPDEST PUSH1 0x0 PUSH2 0x291D DUP3 PUSH2 0x28CC JUMP JUMPDEST PUSH2 0x2927 DUP2 DUP6 PUSH2 0x28D7 JUMP JUMPDEST SWAP4 POP PUSH2 0x2937 DUP2 DUP6 PUSH1 0x20 DUP7 ADD PUSH2 0x28E8 JUMP JUMPDEST PUSH2 0x2940 DUP2 PUSH2 0x23CA JUMP JUMPDEST DUP5 ADD SWAP2 POP POP SWAP3 SWAP2 POP POP JUMP JUMPDEST PUSH1 0x0 PUSH1 0x40 DUP3 ADD SWAP1 POP DUP2 DUP2 SUB PUSH1 0x0 DUP4 ADD MSTORE PUSH2 0x2965 DUP2 DUP6 PUSH2 0x2912 JUMP JUMPDEST SWAP1 POP PUSH2 0x2974 PUSH1 0x20 DUP4 ADD DUP5 PUSH2 0x2626 JUMP JUMPDEST SWAP4 SWAP3 POP POP POP JUMP JUMPDEST PUSH1 0x0 PUSH2 0x2986 DUP3 PUSH2 0x230F JUMP JUMPDEST SWAP2 POP PUSH2 0x2991 DUP4 PUSH2 0x230F JUMP JUMPDEST SWAP3 POP DUP3 DUP3 MUL PUSH2 0x299F DUP2 PUSH2 0x230F JUMP JUMPDEST SWAP2 POP DUP3 DUP3 DIV DUP5 EQ DUP4 ISZERO OR PUSH2 0x29B6 JUMPI PUSH2 0x29B5 PUSH2 0x2821 JUMP JUMPDEST JUMPDEST POP SWAP3 SWAP2 POP POP JUMP JUMPDEST PUSH1 0x0 PUSH2 0x29C8 DUP3 PUSH2 0x230F JUMP JUMPDEST SWAP2 POP PUSH1 0x0 DUP3 SUB PUSH2 0x29DB JUMPI PUSH2 0x29DA PUSH2 0x2821 JUMP JUMPDEST JUMPDEST PUSH1 0x1 DUP3 SUB SWAP1 POP SWAP2 SWAP1 POP JUMP JUMPDEST PUSH1 0x0 PUSH1 0x40 DUP3 ADD SWAP1 POP PUSH2 0x29FB PUSH1 0x0 DUP4 ADD DUP6 PUSH2 0x2626 JUMP JUMPDEST PUSH2 0x2A08 PUSH1 0x20 DUP4 ADD DUP5 PUSH2 0x2626 JUMP JUMPDEST SWAP4 SWAP3 POP POP POP JUMP JUMPDEST PUSH1 0x0 PUSH1 0x40 DUP3 ADD SWAP1 POP DUP2 DUP2 SUB PUSH1 0x0 DUP4 ADD MSTORE PUSH2 0x2A29 DUP2 DUP6 PUSH2 0x2912 JUMP JUMPDEST SWAP1 POP DUP2 DUP2 SUB PUSH1 0x20 DUP4 ADD MSTORE PUSH2 0x2A3D DUP2 DUP5 PUSH2 0x2912 JUMP JUMPDEST SWAP1 POP SWAP4 SWAP3 POP POP POP JUMP JUMPDEST PUSH1 0x0 PUSH2 0xFFFF DUP3 AND SWAP1 POP SWAP2 SWAP1 POP JUMP JUMPDEST PUSH1 0x0 PUSH2 0x2A5F DUP3 PUSH2 0x2A46 JUMP JUMPDEST SWAP2 POP PUSH2 0x2A6A DUP4 PUSH2 0x2A46 JUMP JUMPDEST SWAP3 POP DUP3 DUP3 MUL PUSH2 0x2A78 DUP2 PUSH2 0x2A46 JUMP JUMPDEST SWAP2 POP DUP1 DUP3 EQ PUSH2 0x2A8A JUMPI PUSH2 0x2A89 PUSH2 0x2821 JUMP JUMPDEST JUMPDEST POP SWAP3 SWAP2 POP POP JUMP JUMPDEST PUSH1 0x0 PUSH4 0xFFFFFFFF DUP3 AND SWAP1 POP SWAP2 SWAP1 POP JUMP JUMPDEST PUSH1 0x0 PUSH2 0x2AAC DUP3 PUSH2 0x2A91 JUMP JUMPDEST SWAP2 POP PUSH2 0x2AB7 DUP4 PUSH2 0x2A91 JUMP JUMPDEST SWAP3 POP DUP3 DUP3 MUL PUSH2 0x2AC5 DUP2 PUSH2 0x2A91 JUMP JUMPDEST SWAP2 POP DUP1 DUP3 EQ PUSH2 0x2AD7 JUMPI PUSH2 0x2AD6 PUSH2 0x2821 JUMP JUMPDEST JUMPDEST POP SWAP3 SWAP2 POP POP JUMP JUMPDEST PUSH1 0x0 PUSH8 0xFFFFFFFFFFFFFFFF DUP3 AND SWAP1 POP SWAP2 SWAP1 POP JUMP JUMPDEST PUSH1 0x0 PUSH2 0x2AFD DUP3 PUSH2 0x2ADE JUMP JUMPDEST SWAP2 POP PUSH2 0x2B08 DUP4 PUSH2 0x2ADE JUMP JUMPDEST SWAP3 POP DUP3 DUP3 MUL PUSH2 0x2B16 DUP2 PUSH2 0x2ADE JUMP JUMPDEST SWAP2 POP DUP1 DUP3 EQ PUSH2 0x2B28 JUMPI PUSH2 0x2B27 PUSH2 0x2821 JUMP JUMPDEST JUMPDEST POP SWAP3 SWAP2 POP POP JUMP JUMPDEST PUSH1 0x0 PUSH1 0x20 DUP3 ADD SWAP1 POP DUP2 DUP2 SUB PUSH1 0x0 DUP4 ADD MSTORE PUSH2 0x2B49 DUP2 DUP5 PUSH2 0x2912 JUMP JUMPDEST SWAP1 POP SWAP3 SWAP2 POP POP JUMP JUMPDEST PUSH1 0x0 PUSH2 0x2B5C DUP3 PUSH2 0x230F JUMP JUMPDEST SWAP2 POP PUSH2 0x2B67 DUP4 PUSH2 0x230F JUMP JUMPDEST SWAP3 POP DUP3 DUP3 SUB SWAP1 POP DUP2 DUP2 GT ISZERO PUSH2 0x2B7F JUMPI PUSH2 0x2B7E PUSH2 0x2821 JUMP JUMPDEST JUMPDEST SWAP3 SWAP2 POP POP JUMP JUMPDEST PUSH1 0x0 PUSH20 0xFFFFFFFFFFFFFFFFFFFFFFFFFFFFFFFFFFFFFFFF DUP3 AND SWAP1 POP SWAP2 SWAP1 POP JUMP JUMPDEST PUSH1 0x0 PUSH2 0x2BB0 DUP3 PUSH2 0x2B85 JUMP JUMPDEST SWAP2 POP PUSH2 0x2BBB DUP4 PUSH2 0x2B85 JUMP JUMPDEST SWAP3 POP DUP3 DUP3 SUB SWAP1 POP PUSH20 0xFFFFFFFFFFFFFFFFFFFFFFFFFFFFFFFFFFFFFFFF DUP2 GT ISZERO PUSH2 0x2BE7 JUMPI PUSH2 0x2BE6 PUSH2 0x2821 JUMP JUMPDEST JUMPDEST SWAP3 SWAP2 POP POP JUMP JUMPDEST PUSH1 0x0 PUSH2 0x2BF8 DUP3 PUSH2 0x2B85 JUMP JUMPDEST SWAP2 POP PUSH2 0x2C03 DUP4 PUSH2 0x2B85 JUMP JUMPDEST SWAP3 POP DUP3 DUP3 MUL PUSH2 0x2C11 DUP2 PUSH2 0x2B85 JUMP JUMPDEST SWAP2 POP DUP3 DUP3 DIV DUP5 EQ DUP4 ISZERO OR PUSH2 0x2C28 JUMPI PUSH2 0x2C27 PUSH2 0x2821 JUMP JUMPDEST JUMPDEST POP SWAP3 SWAP2 POP POP JUMP JUMPDEST PUSH1 0x0 PUSH2 0x2C3A DUP3 PUSH2 0x2B85 JUMP JUMPDEST SWAP2 POP PUSH2 0x2C45 DUP4 PUSH2 0x2B85 JUMP JUMPDEST SWAP3 POP DUP3 DUP3 ADD SWAP1 POP PUSH20 0xFFFFFFFFFFFFFFFFFFFFFFFFFFFFFFFFFFFFFFFF DUP2 GT ISZERO PUSH2 0x2C71 JUMPI PUSH2 0x2C70 PUSH2 0x2821 JUMP JUMPDEST JUMPDEST SWAP3 SWAP2 POP POP JUMP JUMPDEST PUSH1 0x0 PUSH2 0x2C82 DUP3 PUSH2 0x2B85 JUMP JUMPDEST SWAP2 POP PUSH20 0xFFFFFFFFFFFFFFFFFFFFFFFFFFFFFFFFFFFFFFFF DUP3 SUB PUSH2 0x2CA8 JUMPI PUSH2 0x2CA7 PUSH2 0x2821 JUMP JUMPDEST JUMPDEST PUSH1 0x1 DUP3 ADD SWAP1 POP SWAP2 SWAP1 POP JUMP JUMPDEST PUSH32 0x4E487B7100000000000000000000000000000000000000000000000000000000 PUSH1 0x0 MSTORE PUSH1 0x51 PUSH1 0x4 MSTORE PUSH1 0x24 PUSH1 0x0 REVERT INVALID LOG2 PUSH5 0x6970667358 0x22 SLT KECCAK256 INVALID 0xD4 BALANCE SWAP9 0xA9 0xE1 DUP1 MULMOD PUSH24 0x812C309582CD1ADF55D4CB840F6CA7116AC2C0C8BB522D64 PUSH20 0x6F6C634300081300330000000000000000000000 "},"methodIdentifiers":{"dispute(bytes,bytes,bytes,bytes)":"43f104d2","htlc()":"e4b23d0c","opreturn()":"8504b3b9","out_aux()":"66b85d57","p2pkh()":"72ca346f","readThreeOutputs(bytes)":"3c1c0699","resolveDispute(bytes,bytes,bytes)":"79a85bd9","settle()":"11da60b4","setup(bytes32,bytes32,bytes32,uint256,uint256)":"06ac0e26","submitProof(bytes,bytes,bytes,bytes)":"3740d249","timestamp()":"b80777ea","timestamp_dispute()":"a5dd32ac"}}}}}