{"contracts/LNBridge.sol":{"LNBridge":{"abi":[{"inputs":[{"internalType":"uint256","name":"value","type":"uint256"},{"internalType":"uint256","name":"length","type":"uint256"}],"name":"StringsInsufficientHexLength","type":"error"},{"inputs":[{"internalType":"bytes","name":"rawTxP_locked","type":"bytes"},{"internalType":"bytes","name":"sigV","type":"bytes"},{"internalType":"bytes","name":"rawTxV_unlocked","type":"bytes"},{"internalType":"bytes","name":"sigP","type":"bytes"}],"name":"dispute","outputs":[],"stateMutability":"nonpayable","type":"function"},{"inputs":[{"internalType":"bytes","name":"_txBytes","type":"bytes"}],"name":"getTheThreeOutputs","outputs":[{"internalType":"uint256","name":"","type":"uint256"},{"internalType":"bytes32","name":"","type":"bytes32"},{"internalType":"uint256","name":"","type":"uint256"},{"internalType":"bytes32","name":"","type":"bytes32"}],"stateMutability":"nonpayable","type":"function"},{"inputs":[{"internalType":"bytes","name":"oldRevSecret","type":"bytes"},{"internalType":"bytes","name":"rawTxP_unlocked","type":"bytes"},{"internalType":"bytes","name":"sigV","type":"bytes"}],"name":"resolveDispute","outputs":[],"stateMutability":"nonpayable","type":"function"},{"inputs":[],"name":"settle","outputs":[],"stateMutability":"nonpayable","type":"function"},{"inputs":[{"internalType":"bytes32","name":"_fundingTxId","type":"bytes32"},{"internalType":"bytes32","name":"_pkProver","type":"bytes32"},{"internalType":"bytes32","name":"_pkVerifier","type":"bytes32"},{"internalType":"uint256","name":"_index","type":"uint256"},{"internalType":"uint256","name":"_timestamp","type":"uint256"}],"name":"setup","outputs":[],"stateMutability":"nonpayable","type":"function"},{"inputs":[{"internalType":"bytes","name":"rawTxP_unlocked","type":"bytes"},{"internalType":"bytes","name":"sigV","type":"bytes"},{"internalType":"bytes","name":"rawTxV_unlocked","type":"bytes"},{"internalType":"bytes","name":"sigP","type":"bytes"}],"name":"submitProof","outputs":[],"stateMutability":"nonpayable","type":"function"},{"inputs":[],"name":"timestamp","outputs":[{"internalType":"uint256","name":"","type":"uint256"}],"stateMutability":"view","type":"function"},{"inputs":[],"name":"timestamp_dispute","outputs":[{"internalType":"uint256","name":"","type":"uint256"}],"stateMutability":"view","type":"function"},{"inputs":[{"internalType":"bytes","name":"pk","type":"bytes"},{"internalType":"bytes32","name":"digest","type":"bytes32"},{"internalType":"uint8","name":"v","type":"uint8"},{"internalType":"bytes32","name":"r","type":"bytes32"},{"internalType":"bytes32","name":"s","type":"bytes32"}],"name":"verifySignature","outputs":[{"internalType":"bool","name":"","type":"bool"}],"stateMutability":"view","type":"function"}],"evm":{"bytecode":{"linkReferences":{},"object":"608060405234801561001057600080fd5b50612885806100206000396000f3fe608060405234801561001057600080fd5b50600436106100935760003560e01c806347aa95731161006657806347aa9573146100f657806379a85bd914610126578063a5dd32ac14610142578063a9f793aa14610160578063b80777ea1461019357610093565b806306ac0e261461009857806311da60b4146100b45780633740d249146100be57806343f104d2146100da575b600080fd5b6100b260048036038101906100ad9190611c6b565b6101b1565b005b6100bc6101db565b005b6100d860048036038101906100d39190611e2c565b6101dd565b005b6100f460048036038101906100ef9190611e2c565b6101e3565b005b610110600480360381019061010b9190611f3c565b6101e9565b60405161011d9190611fee565b60405180910390f35b610140600480360381019061013b9190612009565b610203565b005b61014a610208565b60405161015791906120bf565b60405180910390f35b61017a600480360381019061017591906120da565b61020e565b60405161018a9493929190612132565b60405180910390f35b61019b6103f8565b6040516101a891906120bf565b60405180910390f35b84600081905550836001819055508260028190555081600381905550806004819055505050505050565b565b50505050565b50505050565b60006101f886868686866103fe565b905095945050505050565b505050565b60055481565b6000806000806000806000806000806102268b6104e0565b809650819750829850839950849a50859b5050505050505061027d6040518060400160405280600a81526020017f436865636b206f6e653a00000000000000000000000000000000000000000000815250876107eb565b6102c96040518060400160405280600a81526020017f436865636b2074776f3a000000000000000000000000000000000000000000008152506102c48760001c6020610887565b610acd565b6103086040518060400160405280600c81526020017f436865636b2074687265653a0000000000000000000000000000000000000000815250856107eb565b6103546040518060400160405280600b81526020017f436865636b20666f75723a00000000000000000000000000000000000000000081525061034f8560001c6020610887565b610acd565b6103936040518060400160405280600b81526020017f436865636b20666976653a000000000000000000000000000000000000000000815250836107eb565b6103df6040518060400160405280600a81526020017f436865636b207369783a000000000000000000000000000000000000000000008152506103da8360001c6020610887565b610acd565b8585858599509950995099505050505050509193509193565b60045481565b60006040865114610444576040517f08c379a000000000000000000000000000000000000000000000000000000000815260040161043b90612220565b60405180910390fd5b600061044f87610b69565b9050600060018787878760405160008152602001604052604051610476949392919061224f565b6020604051602081039080840390855afa158015610498573d6000803e3d6000fd5b5050506020604051035190508173ffffffffffffffffffffffffffffffffffffffff168173ffffffffffffffffffffffffffffffffffffffff16149250505095945050505050565b600080600080600080600080600267ffffffffffffffff81111561050757610506611d01565b5b6040519080825280602002602001820160405280156105355781602001602082028036833780820191505090505b5090506000600367ffffffffffffffff81111561055557610554611d01565b5b6040519080825280602002602001820160405280156105835781602001602082028036833780820191505090505b5090506000600367ffffffffffffffff8111156105a3576105a2611d01565b5b6040519080825280602002602001820160405280156105d15781602001602082028036833780820191505090505b5090506000600367ffffffffffffffff8111156105f1576105f0611d01565b5b60405190808252806020026020018201604052801561061f5781602001602082028036833780820191505090505b5090506000600367ffffffffffffffff81111561063f5761063e611d01565b5b60405190808252806020026020018201604052801561066d5781602001602082028036833780820191505090505b509050600495506106808d876000610be1565b80975081965050506106948d876000610cf3565b8099508197508296508395505050505060005b60038110156107275760006106f18f8684815181106106c9576106c8612294565b5b60200260200101518885815181106106e4576106e3612294565b5b6020026020010151610eea565b90508083838151811061070757610706612294565b5b60200260200101818152505050808061071f906122f2565b9150506106a7565b508160008151811061073c5761073b612294565b5b60200260200101518160008151811061075857610757612294565b5b60200260200101518360018151811061077457610773612294565b5b6020026020010151836001815181106107905761078f612294565b5b6020026020010151856002815181106107ac576107ab612294565b5b6020026020010151856002815181106107c8576107c7612294565b5b60200260200101519b509b509b509b509b509b5050505050505091939550919395565b61088382826040516024016108019291906123a8565b6040516020818303038152906040527fb60e72cc000000000000000000000000000000000000000000000000000000007bffffffffffffffffffffffffffffffffffffffffffffffffffffffff19166020820180517bffffffffffffffffffffffffffffffffffffffffffffffffffffffff8381831617835250505050610f9f565b5050565b606060008390506000600284600261089f91906123d8565b6108a9919061241a565b67ffffffffffffffff8111156108c2576108c1611d01565b5b6040519080825280601f01601f1916602001820160405280156108f45781602001600182028036833780820191505090505b5090507f30000000000000000000000000000000000000000000000000000000000000008160008151811061092c5761092b612294565b5b60200101907effffffffffffffffffffffffffffffffffffffffffffffffffffffffffffff1916908160001a9053507f7800000000000000000000000000000000000000000000000000000000000000816001815181106109905761098f612294565b5b60200101907effffffffffffffffffffffffffffffffffffffffffffffffffffffffffffff1916908160001a905350600060018560026109d091906123d8565b6109da919061241a565b90505b6001811115610a7a577f3031323334353637383961626364656600000000000000000000000000000000600f841660108110610a1c57610a1b612294565b5b1a60f81b828281518110610a3357610a32612294565b5b60200101907effffffffffffffffffffffffffffffffffffffffffffffffffffffffffffff1916908160001a905350600483901c925080610a739061244e565b90506109dd565b5060008214610ac25784846040517fe22e27eb000000000000000000000000000000000000000000000000000000008152600401610ab9929190612477565b60405180910390fd5b809250505092915050565b610b658282604051602401610ae39291906124a0565b6040516020818303038152906040527f4b5c4277000000000000000000000000000000000000000000000000000000007bffffffffffffffffffffffffffffffffffffffffffffffffffffffff19166020820180517bffffffffffffffffffffffffffffffffffffffffffffffffffffffff8381831617835250505050610f9f565b5050565b60006040825114610baf576040517f08c379a0000000000000000000000000000000000000000000000000000000008152600401610ba690612549565b60405180910390fd5b6000610bd3610bc8600085610fb990919063ffffffff16565b62ffffff1916610fe4565b90508060001c915050919050565b6060600080600080610bf38888611027565b80985081945050506000861480610c0957508286115b15610c1657829150610c1a565b8591505b60008267ffffffffffffffff811115610c3657610c35611d01565b5b604051908082528060200260200182016040528015610c645781602001602082028036833780820191505090505b50905060005b83811015610ce057602489610c7f919061241a565b9850610c8b8a8a611027565b809a50819450505082828281518110610ca757610ca6612294565b5b602002602001018181525050600483610cc0919061241a565b89610ccb919061241a565b98508080610cd8906122f2565b915050610c6a565b5080889550955050505050935093915050565b6060806060600080600080610d088a8a611027565b809a5081945050506000881480610d1e57508288115b15610d2b57829150610d2f565b8791505b60008267ffffffffffffffff811115610d4b57610d4a611d01565b5b604051908082528060200260200182016040528015610d795781602001602082028036833780820191505090505b50905060008367ffffffffffffffff811115610d9857610d97611d01565b5b604051908082528060200260200182016040528015610dc65781602001602082028036833780820191505090505b50905060008467ffffffffffffffff811115610de557610de4611d01565b5b604051908082528060200260200182016040528015610e135781602001602082028036833780820191505090505b50905060005b85811015610ece57610e2d8e8e604061110f565b828281518110610e4057610e3f612294565b5b60200260200101818152505060088d610e59919061241a565b9c50610e658e8e611027565b809e5081965050508c848281518110610e8157610e80612294565b5b60200260200101818152505084838281518110610ea157610ea0612294565b5b602002602001018181525050848d610eb9919061241a565b9c508080610ec6906122f2565b915050610e19565b508083838e995099509950995050505050505093509350935093565b6000610ef784848461157a565b15610f2857610f1284600385610f0d919061241a565b61173f565b6bffffffffffffffffffffffff19169050610f98565b610f33848484611822565b15610f6457610f4e84600285610f49919061241a565b61173f565b6bffffffffffffffffffffffff19169050610f98565b610f6f84848461193f565b15610f9157610f8a84600285610f85919061241a565b611a02565b9050610f98565b6000801b90505b9392505050565b610fb681610fae611a8d611aae565b63ffffffff16565b50565b600080835190506000602085019050610fda8464ffffffffff168284611ab9565b9250505092915050565b600080610ff083611b27565b6bffffffffffffffffffffffff169050600061100b84611b47565b6bffffffffffffffffffffffff16905080822092505050919050565b600080600084848151811061103f5761103e612294565b5b602001015160f81c60f81b60f81c905060018461105c919061241a565b935060fd8160ff16101561107c5780848160ff1691509250925050611108565b60fd8160ff16036110aa576110938585601061110f565b6002856110a0919061241a565b9250925050611108565b60fe8160ff16036110d8576110c18585602061110f565b6004856110ce919061241a565b9250925050611108565b60ff8160ff1603611106576110ef8585604061110f565b6008856110fc919061241a565b9250925050611108565b505b9250929050565b6000600882036111445783838151811061112c5761112b612294565b5b602001015160f81c60f81b60f81c60ff169050611573565b601082036111c6576101008460018561115d919061241a565b8151811061116e5761116d612294565b5b602001015160f81c60f81b60f81c60ff166111899190612577565b61ffff168484815181106111a05761119f612294565b5b602001015160f81c60f81b60f81c60ff1661ffff166111bf919061241a565b9050611573565b602082036112e9576301000000846003856111e1919061241a565b815181106111f2576111f1612294565b5b602001015160f81c60f81b60f81c60ff1661120d91906125c4565b63ffffffff166201000085600286611225919061241a565b8151811061123657611235612294565b5b602001015160f81c60f81b60f81c60ff1661125191906125c4565b63ffffffff1661010086600187611268919061241a565b8151811061127957611278612294565b5b602001015160f81c60f81b60f81c60ff1661129491906125c4565b63ffffffff168686815181106112ad576112ac612294565b5b602001015160f81c60f81b60f81c60ff1663ffffffff166112ce919061241a565b6112d8919061241a565b6112e2919061241a565b9050611573565b604082036115725767010000000000000084600785611308919061241a565b8151811061131957611318612294565b5b602001015160f81c60f81b60f81c60ff166113349190612615565b67ffffffffffffffff16660100000000000085600686611354919061241a565b8151811061136557611364612294565b5b602001015160f81c60f81b60f81c60ff166113809190612615565b67ffffffffffffffff16650100000000008660058761139f919061241a565b815181106113b0576113af612294565b5b602001015160f81c60f81b60f81c60ff166113cb9190612615565b67ffffffffffffffff16640100000000876004886113e9919061241a565b815181106113fa576113f9612294565b5b602001015160f81c60f81b60f81c60ff166114159190612615565b67ffffffffffffffff16630100000088600389611432919061241a565b8151811061144357611442612294565b5b602001015160f81c60f81b60f81c60ff1661145e9190612615565b67ffffffffffffffff16620100008960028a61147a919061241a565b8151811061148b5761148a612294565b5b602001015160f81c60f81b60f81c60ff166114a69190612615565b67ffffffffffffffff166101008a60018b6114c1919061241a565b815181106114d2576114d1612294565b5b602001015160f81c60f81b60f81c60ff166114ed9190612615565b67ffffffffffffffff168a8a8151811061150a57611509612294565b5b602001015160f81c60f81b60f81c60ff1667ffffffffffffffff1661152f919061241a565b611539919061241a565b611543919061241a565b61154d919061241a565b611557919061241a565b611561919061241a565b61156b919061241a565b9050611573565b5b9392505050565b60006019821480156115ce5750607660f81b84848151811061159f5761159e612294565b5b602001015160f81c60f81b7effffffffffffffffffffffffffffffffffffffffffffffffffffffffffffff1916145b8015611628575060a960f81b846001856115e8919061241a565b815181106115f9576115f8612294565b5b602001015160f81c60f81b7effffffffffffffffffffffffffffffffffffffffffffffffffffffffffffff1916145b80156116825750601460f81b84600285611642919061241a565b8151811061165357611652612294565b5b602001015160f81c60f81b7effffffffffffffffffffffffffffffffffffffffffffffffffffffffffffff1916145b80156116dc5750608860f81b8460178561169c919061241a565b815181106116ad576116ac612294565b5b602001015160f81c60f81b7effffffffffffffffffffffffffffffffffffffffffffffffffffffffffffff1916145b8015611736575060ac60f81b846018856116f6919061241a565b8151811061170757611706612294565b5b602001015160f81c60f81b7effffffffffffffffffffffffffffffffffffffffffffffffffffffffffffff1916145b90509392505050565b6000806000905060005b60148173ffffffffffffffffffffffffffffffffffffffff161015611814578060136117759190612672565b600861178191906126ba565b73ffffffffffffffffffffffffffffffffffffffff1685858373ffffffffffffffffffffffffffffffffffffffff166117ba919061241a565b815181106117cb576117ca612294565b5b602001015160f81c60f81b60f81c60ff1673ffffffffffffffffffffffffffffffffffffffff16901b826117ff91906126fc565b9150808061180c90612744565b915050611749565b508060601b91505092915050565b6000601782148015611882575060a960f81b84600085611842919061241a565b8151811061185357611852612294565b5b602001015160f81c60f81b7effffffffffffffffffffffffffffffffffffffffffffffffffffffffffffff1916145b80156118dc5750601460f81b8460018561189c919061241a565b815181106118ad576118ac612294565b5b602001015160f81c60f81b7effffffffffffffffffffffffffffffffffffffffffffffffffffffffffffff1916145b80156119365750608760f81b846016856118f6919061241a565b8151811061190757611906612294565b5b602001015160f81c60f81b7effffffffffffffffffffffffffffffffffffffffffffffffffffffffffffff1916145b90509392505050565b600060228214801561199f5750606a60f81b8460008561195f919061241a565b815181106119705761196f612294565b5b602001015160f81c60f81b7effffffffffffffffffffffffffffffffffffffffffffffffffffffffffffff1916145b80156119f95750602060f81b846001856119b9919061241a565b815181106119ca576119c9612294565b5b602001015160f81c60f81b7effffffffffffffffffffffffffffffffffffffffffffffffffffffffffffff1916145b90509392505050565b6000806000905060005b6020811015611a7f5780601f611a229190612780565b6008611a2e91906123d8565b858583611a3b919061241a565b81518110611a4c57611a4b612294565b5b602001015160f81c60f81b60f81c60ff16901b82611a6a919061241a565b91508080611a77906122f2565b915050611a0c565b508060001b91505092915050565b60006a636f6e736f6c652e6c6f679050600080835160208501845afa505050565b611be1819050919050565b600080611acf8385611b6790919063ffffffff16565b9050604051811115611ae057600090505b60008103611b11577fffffffffffffffffffffffffffffffffffffffffffffffffffffffffff000000915050611b20565b611b1c858585611bc0565b9150505b9392505050565b6000806bffffffffffffffffffffffff9050808360781c16915050919050565b6000806bffffffffffffffffffffffff9050808360181c16915050919050565b60008183611b75919061241a565b905082811015611bba576040517f08c379a0000000000000000000000000000000000000000000000000000000008152600401611bb190612800565b60405180910390fd5b92915050565b600083811760601b905082811760601b905081811760181b90509392505050565b611be9612820565b565b6000604051905090565b600080fd5b600080fd5b6000819050919050565b611c1281611bff565b8114611c1d57600080fd5b50565b600081359050611c2f81611c09565b92915050565b6000819050919050565b611c4881611c35565b8114611c5357600080fd5b50565b600081359050611c6581611c3f565b92915050565b600080600080600060a08688031215611c8757611c86611bf5565b5b6000611c9588828901611c20565b9550506020611ca688828901611c20565b9450506040611cb788828901611c20565b9350506060611cc888828901611c56565b9250506080611cd988828901611c56565b9150509295509295909350565b600080fd5b600080fd5b6000601f19601f8301169050919050565b7f4e487b7100000000000000000000000000000000000000000000000000000000600052604160045260246000fd5b611d3982611cf0565b810181811067ffffffffffffffff82111715611d5857611d57611d01565b5b80604052505050565b6000611d6b611beb565b9050611d778282611d30565b919050565b600067ffffffffffffffff821115611d9757611d96611d01565b5b611da082611cf0565b9050602081019050919050565b82818337600083830152505050565b6000611dcf611dca84611d7c565b611d61565b905082815260208101848484011115611deb57611dea611ceb565b5b611df6848285611dad565b509392505050565b600082601f830112611e1357611e12611ce6565b5b8135611e23848260208601611dbc565b91505092915050565b60008060008060808587031215611e4657611e45611bf5565b5b600085013567ffffffffffffffff811115611e6457611e63611bfa565b5b611e7087828801611dfe565b945050602085013567ffffffffffffffff811115611e9157611e90611bfa565b5b611e9d87828801611dfe565b935050604085013567ffffffffffffffff811115611ebe57611ebd611bfa565b5b611eca87828801611dfe565b925050606085013567ffffffffffffffff811115611eeb57611eea611bfa565b5b611ef787828801611dfe565b91505092959194509250565b600060ff82169050919050565b611f1981611f03565b8114611f2457600080fd5b50565b600081359050611f3681611f10565b92915050565b600080600080600060a08688031215611f5857611f57611bf5565b5b600086013567ffffffffffffffff811115611f7657611f75611bfa565b5b611f8288828901611dfe565b9550506020611f9388828901611c20565b9450506040611fa488828901611f27565b9350506060611fb588828901611c20565b9250506080611fc688828901611c20565b9150509295509295909350565b60008115159050919050565b611fe881611fd3565b82525050565b60006020820190506120036000830184611fdf565b92915050565b60008060006060848603121561202257612021611bf5565b5b600084013567ffffffffffffffff8111156120405761203f611bfa565b5b61204c86828701611dfe565b935050602084013567ffffffffffffffff81111561206d5761206c611bfa565b5b61207986828701611dfe565b925050604084013567ffffffffffffffff81111561209a57612099611bfa565b5b6120a686828701611dfe565b9150509250925092565b6120b981611c35565b82525050565b60006020820190506120d460008301846120b0565b92915050565b6000602082840312156120f0576120ef611bf5565b5b600082013567ffffffffffffffff81111561210e5761210d611bfa565b5b61211a84828501611dfe565b91505092915050565b61212c81611bff565b82525050565b600060808201905061214760008301876120b0565b6121546020830186612123565b61216160408301856120b0565b61216e6060830184612123565b95945050505050565b600082825260208201905092915050565b7f436865636b426974636f696e536967732f636865636b536967202d2d2052657160008201527f756972657320756e636f6d7072657373656420756e707265666978656420707560208201527f626b657900000000000000000000000000000000000000000000000000000000604082015250565b600061220a604483612177565b915061221582612188565b606082019050919050565b60006020820190508181036000830152612239816121fd565b9050919050565b61224981611f03565b82525050565b60006080820190506122646000830187612123565b6122716020830186612240565b61227e6040830185612123565b61228b6060830184612123565b95945050505050565b7f4e487b7100000000000000000000000000000000000000000000000000000000600052603260045260246000fd5b7f4e487b7100000000000000000000000000000000000000000000000000000000600052601160045260246000fd5b60006122fd82611c35565b91507fffffffffffffffffffffffffffffffffffffffffffffffffffffffffffffffff820361232f5761232e6122c3565b5b600182019050919050565b600081519050919050565b60005b83811015612363578082015181840152602081019050612348565b60008484015250505050565b600061237a8261233a565b6123848185612177565b9350612394818560208601612345565b61239d81611cf0565b840191505092915050565b600060408201905081810360008301526123c2818561236f565b90506123d160208301846120b0565b9392505050565b60006123e382611c35565b91506123ee83611c35565b92508282026123fc81611c35565b91508282048414831517612413576124126122c3565b5b5092915050565b600061242582611c35565b915061243083611c35565b9250828201905080821115612448576124476122c3565b5b92915050565b600061245982611c35565b91506000820361246c5761246b6122c3565b5b600182039050919050565b600060408201905061248c60008301856120b0565b61249960208301846120b0565b9392505050565b600060408201905081810360008301526124ba818561236f565b905081810360208301526124ce818461236f565b90509392505050565b7f5075626b6579206d7573742062652036342d62797465207261772c20756e636f60008201527f6d70726573736564206b65792e00000000000000000000000000000000000000602082015250565b6000612533602d83612177565b915061253e826124d7565b604082019050919050565b6000602082019050818103600083015261256281612526565b9050919050565b600061ffff82169050919050565b600061258282612569565b915061258d83612569565b925082820261259b81612569565b91508082146125ad576125ac6122c3565b5b5092915050565b600063ffffffff82169050919050565b60006125cf826125b4565b91506125da836125b4565b92508282026125e8816125b4565b91508082146125fa576125f96122c3565b5b5092915050565b600067ffffffffffffffff82169050919050565b600061262082612601565b915061262b83612601565b925082820261263981612601565b915080821461264b5761264a6122c3565b5b5092915050565b600073ffffffffffffffffffffffffffffffffffffffff82169050919050565b600061267d82612652565b915061268883612652565b9250828203905073ffffffffffffffffffffffffffffffffffffffff8111156126b4576126b36122c3565b5b92915050565b60006126c582612652565b91506126d083612652565b92508282026126de81612652565b915082820484148315176126f5576126f46122c3565b5b5092915050565b600061270782612652565b915061271283612652565b9250828201905073ffffffffffffffffffffffffffffffffffffffff81111561273e5761273d6122c3565b5b92915050565b600061274f82612652565b915073ffffffffffffffffffffffffffffffffffffffff8203612775576127746122c3565b5b600182019050919050565b600061278b82611c35565b915061279683611c35565b92508282039050818111156127ae576127ad6122c3565b5b92915050565b7f4f766572666c6f7720647572696e67206164646974696f6e2e00000000000000600082015250565b60006127ea601983612177565b91506127f5826127b4565b602082019050919050565b60006020820190508181036000830152612819816127dd565b9050919050565b7f4e487b7100000000000000000000000000000000000000000000000000000000600052605160045260246000fdfea2646970667358221220819e351c83c232ab017d4509ce02dca2cffed6f8cdf55a3c6a2373baf3a2965b64736f6c63430008130033","opcodes":"PUSH1 0x80 PUSH1 0x40 MSTORE CALLVALUE DUP1 ISZERO PUSH2 0x10 JUMPI PUSH1 0x0 DUP1 REVERT JUMPDEST POP PUSH2 0x2885 DUP1 PUSH2 0x20 PUSH1 0x0 CODECOPY PUSH1 0x0 RETURN INVALID PUSH1 0x80 PUSH1 0x40 MSTORE CALLVALUE DUP1 ISZERO PUSH2 0x10 JUMPI PUSH1 0x0 DUP1 REVERT JUMPDEST POP PUSH1 0x4 CALLDATASIZE LT PUSH2 0x93 JUMPI PUSH1 0x0 CALLDATALOAD PUSH1 0xE0 SHR DUP1 PUSH4 0x47AA9573 GT PUSH2 0x66 JUMPI DUP1 PUSH4 0x47AA9573 EQ PUSH2 0xF6 JUMPI DUP1 PUSH4 0x79A85BD9 EQ PUSH2 0x126 JUMPI DUP1 PUSH4 0xA5DD32AC EQ PUSH2 0x142 JUMPI DUP1 PUSH4 0xA9F793AA EQ PUSH2 0x160 JUMPI DUP1 PUSH4 0xB80777EA EQ PUSH2 0x193 JUMPI PUSH2 0x93 JUMP JUMPDEST DUP1 PUSH4 0x6AC0E26 EQ PUSH2 0x98 JUMPI DUP1 PUSH4 0x11DA60B4 EQ PUSH2 0xB4 JUMPI DUP1 PUSH4 0x3740D249 EQ PUSH2 0xBE JUMPI DUP1 PUSH4 0x43F104D2 EQ PUSH2 0xDA JUMPI JUMPDEST PUSH1 0x0 DUP1 REVERT JUMPDEST PUSH2 0xB2 PUSH1 0x4 DUP1 CALLDATASIZE SUB DUP2 ADD SWAP1 PUSH2 0xAD SWAP2 SWAP1 PUSH2 0x1C6B JUMP JUMPDEST PUSH2 0x1B1 JUMP JUMPDEST STOP JUMPDEST PUSH2 0xBC PUSH2 0x1DB JUMP JUMPDEST STOP JUMPDEST PUSH2 0xD8 PUSH1 0x4 DUP1 CALLDATASIZE SUB DUP2 ADD SWAP1 PUSH2 0xD3 SWAP2 SWAP1 PUSH2 0x1E2C JUMP JUMPDEST PUSH2 0x1DD JUMP JUMPDEST STOP JUMPDEST PUSH2 0xF4 PUSH1 0x4 DUP1 CALLDATASIZE SUB DUP2 ADD SWAP1 PUSH2 0xEF SWAP2 SWAP1 PUSH2 0x1E2C JUMP JUMPDEST PUSH2 0x1E3 JUMP JUMPDEST STOP JUMPDEST PUSH2 0x110 PUSH1 0x4 DUP1 CALLDATASIZE SUB DUP2 ADD SWAP1 PUSH2 0x10B SWAP2 SWAP1 PUSH2 0x1F3C JUMP JUMPDEST PUSH2 0x1E9 JUMP JUMPDEST PUSH1 0x40 MLOAD PUSH2 0x11D SWAP2 SWAP1 PUSH2 0x1FEE JUMP JUMPDEST PUSH1 0x40 MLOAD DUP1 SWAP2 SUB SWAP1 RETURN JUMPDEST PUSH2 0x140 PUSH1 0x4 DUP1 CALLDATASIZE SUB DUP2 ADD SWAP1 PUSH2 0x13B SWAP2 SWAP1 PUSH2 0x2009 JUMP JUMPDEST PUSH2 0x203 JUMP JUMPDEST STOP JUMPDEST PUSH2 0x14A PUSH2 0x208 JUMP JUMPDEST PUSH1 0x40 MLOAD PUSH2 0x157 SWAP2 SWAP1 PUSH2 0x20BF JUMP JUMPDEST PUSH1 0x40 MLOAD DUP1 SWAP2 SUB SWAP1 RETURN JUMPDEST PUSH2 0x17A PUSH1 0x4 DUP1 CALLDATASIZE SUB DUP2 ADD SWAP1 PUSH2 0x175 SWAP2 SWAP1 PUSH2 0x20DA JUMP JUMPDEST PUSH2 0x20E JUMP JUMPDEST PUSH1 0x40 MLOAD PUSH2 0x18A SWAP5 SWAP4 SWAP3 SWAP2 SWAP1 PUSH2 0x2132 JUMP JUMPDEST PUSH1 0x40 MLOAD DUP1 SWAP2 SUB SWAP1 RETURN JUMPDEST PUSH2 0x19B PUSH2 0x3F8 JUMP JUMPDEST PUSH1 0x40 MLOAD PUSH2 0x1A8 SWAP2 SWAP1 PUSH2 0x20BF JUMP JUMPDEST PUSH1 0x40 MLOAD DUP1 SWAP2 SUB SWAP1 RETURN JUMPDEST DUP5 PUSH1 0x0 DUP2 SWAP1 SSTORE POP DUP4 PUSH1 0x1 DUP2 SWAP1 SSTORE POP DUP3 PUSH1 0x2 DUP2 SWAP1 SSTORE POP DUP2 PUSH1 0x3 DUP2 SWAP1 SSTORE POP DUP1 PUSH1 0x4 DUP2 SWAP1 SSTORE POP POP POP POP POP POP JUMP JUMPDEST JUMP JUMPDEST POP POP POP POP JUMP JUMPDEST POP POP POP POP JUMP JUMPDEST PUSH1 0x0 PUSH2 0x1F8 DUP7 DUP7 DUP7 DUP7 DUP7 PUSH2 0x3FE JUMP JUMPDEST SWAP1 POP SWAP6 SWAP5 POP POP POP POP POP JUMP JUMPDEST POP POP POP JUMP JUMPDEST PUSH1 0x5 SLOAD DUP2 JUMP JUMPDEST PUSH1 0x0 DUP1 PUSH1 0x0 DUP1 PUSH1 0x0 DUP1 PUSH1 0x0 DUP1 PUSH1 0x0 DUP1 PUSH2 0x226 DUP12 PUSH2 0x4E0 JUMP JUMPDEST DUP1 SWAP7 POP DUP2 SWAP8 POP DUP3 SWAP9 POP DUP4 SWAP10 POP DUP5 SWAP11 POP DUP6 SWAP12 POP POP POP POP POP POP POP PUSH2 0x27D PUSH1 0x40 MLOAD DUP1 PUSH1 0x40 ADD PUSH1 0x40 MSTORE DUP1 PUSH1 0xA DUP2 MSTORE PUSH1 0x20 ADD PUSH32 0x436865636B206F6E653A00000000000000000000000000000000000000000000 DUP2 MSTORE POP DUP8 PUSH2 0x7EB JUMP JUMPDEST PUSH2 0x2C9 PUSH1 0x40 MLOAD DUP1 PUSH1 0x40 ADD PUSH1 0x40 MSTORE DUP1 PUSH1 0xA DUP2 MSTORE PUSH1 0x20 ADD PUSH32 0x436865636B2074776F3A00000000000000000000000000000000000000000000 DUP2 MSTORE POP PUSH2 0x2C4 DUP8 PUSH1 0x0 SHR PUSH1 0x20 PUSH2 0x887 JUMP JUMPDEST PUSH2 0xACD JUMP JUMPDEST PUSH2 0x308 PUSH1 0x40 MLOAD DUP1 PUSH1 0x40 ADD PUSH1 0x40 MSTORE DUP1 PUSH1 0xC DUP2 MSTORE PUSH1 0x20 ADD PUSH32 0x436865636B2074687265653A0000000000000000000000000000000000000000 DUP2 MSTORE POP DUP6 PUSH2 0x7EB JUMP JUMPDEST PUSH2 0x354 PUSH1 0x40 MLOAD DUP1 PUSH1 0x40 ADD PUSH1 0x40 MSTORE DUP1 PUSH1 0xB DUP2 MSTORE PUSH1 0x20 ADD PUSH32 0x436865636B20666F75723A000000000000000000000000000000000000000000 DUP2 MSTORE POP PUSH2 0x34F DUP6 PUSH1 0x0 SHR PUSH1 0x20 PUSH2 0x887 JUMP JUMPDEST PUSH2 0xACD JUMP JUMPDEST PUSH2 0x393 PUSH1 0x40 MLOAD DUP1 PUSH1 0x40 ADD PUSH1 0x40 MSTORE DUP1 PUSH1 0xB DUP2 MSTORE PUSH1 0x20 ADD PUSH32 0x436865636B20666976653A000000000000000000000000000000000000000000 DUP2 MSTORE POP DUP4 PUSH2 0x7EB JUMP JUMPDEST PUSH2 0x3DF PUSH1 0x40 MLOAD DUP1 PUSH1 0x40 ADD PUSH1 0x40 MSTORE DUP1 PUSH1 0xA DUP2 MSTORE PUSH1 0x20 ADD PUSH32 0x436865636B207369783A00000000000000000000000000000000000000000000 DUP2 MSTORE POP PUSH2 0x3DA DUP4 PUSH1 0x0 SHR PUSH1 0x20 PUSH2 0x887 JUMP JUMPDEST PUSH2 0xACD JUMP JUMPDEST DUP6 DUP6 DUP6 DUP6 SWAP10 POP SWAP10 POP SWAP10 POP SWAP10 POP POP POP POP POP POP POP SWAP2 SWAP4 POP SWAP2 SWAP4 JUMP JUMPDEST PUSH1 0x4 SLOAD DUP2 JUMP JUMPDEST PUSH1 0x0 PUSH1 0x40 DUP7 MLOAD EQ PUSH2 0x444 JUMPI PUSH1 0x40 MLOAD PUSH32 0x8C379A000000000000000000000000000000000000000000000000000000000 DUP2 MSTORE PUSH1 0x4 ADD PUSH2 0x43B SWAP1 PUSH2 0x2220 JUMP JUMPDEST PUSH1 0x40 MLOAD DUP1 SWAP2 SUB SWAP1 REVERT JUMPDEST PUSH1 0x0 PUSH2 0x44F DUP8 PUSH2 0xB69 JUMP JUMPDEST SWAP1 POP PUSH1 0x0 PUSH1 0x1 DUP8 DUP8 DUP8 DUP8 PUSH1 0x40 MLOAD PUSH1 0x0 DUP2 MSTORE PUSH1 0x20 ADD PUSH1 0x40 MSTORE PUSH1 0x40 MLOAD PUSH2 0x476 SWAP5 SWAP4 SWAP3 SWAP2 SWAP1 PUSH2 0x224F JUMP JUMPDEST PUSH1 0x20 PUSH1 0x40 MLOAD PUSH1 0x20 DUP2 SUB SWAP1 DUP1 DUP5 SUB SWAP1 DUP6 GAS STATICCALL ISZERO DUP1 ISZERO PUSH2 0x498 JUMPI RETURNDATASIZE PUSH1 0x0 DUP1 RETURNDATACOPY RETURNDATASIZE PUSH1 0x0 REVERT JUMPDEST POP POP POP PUSH1 0x20 PUSH1 0x40 MLOAD SUB MLOAD SWAP1 POP DUP2 PUSH20 0xFFFFFFFFFFFFFFFFFFFFFFFFFFFFFFFFFFFFFFFF AND DUP2 PUSH20 0xFFFFFFFFFFFFFFFFFFFFFFFFFFFFFFFFFFFFFFFF AND EQ SWAP3 POP POP POP SWAP6 SWAP5 POP POP POP POP POP JUMP JUMPDEST PUSH1 0x0 DUP1 PUSH1 0x0 DUP1 PUSH1 0x0 DUP1 PUSH1 0x0 DUP1 PUSH1 0x2 PUSH8 0xFFFFFFFFFFFFFFFF DUP2 GT ISZERO PUSH2 0x507 JUMPI PUSH2 0x506 PUSH2 0x1D01 JUMP JUMPDEST JUMPDEST PUSH1 0x40 MLOAD SWAP1 DUP1 DUP3 MSTORE DUP1 PUSH1 0x20 MUL PUSH1 0x20 ADD DUP3 ADD PUSH1 0x40 MSTORE DUP1 ISZERO PUSH2 0x535 JUMPI DUP2 PUSH1 0x20 ADD PUSH1 0x20 DUP3 MUL DUP1 CALLDATASIZE DUP4 CALLDATACOPY DUP1 DUP3 ADD SWAP2 POP POP SWAP1 POP JUMPDEST POP SWAP1 POP PUSH1 0x0 PUSH1 0x3 PUSH8 0xFFFFFFFFFFFFFFFF DUP2 GT ISZERO PUSH2 0x555 JUMPI PUSH2 0x554 PUSH2 0x1D01 JUMP JUMPDEST JUMPDEST PUSH1 0x40 MLOAD SWAP1 DUP1 DUP3 MSTORE DUP1 PUSH1 0x20 MUL PUSH1 0x20 ADD DUP3 ADD PUSH1 0x40 MSTORE DUP1 ISZERO PUSH2 0x583 JUMPI DUP2 PUSH1 0x20 ADD PUSH1 0x20 DUP3 MUL DUP1 CALLDATASIZE DUP4 CALLDATACOPY DUP1 DUP3 ADD SWAP2 POP POP SWAP1 POP JUMPDEST POP SWAP1 POP PUSH1 0x0 PUSH1 0x3 PUSH8 0xFFFFFFFFFFFFFFFF DUP2 GT ISZERO PUSH2 0x5A3 JUMPI PUSH2 0x5A2 PUSH2 0x1D01 JUMP JUMPDEST JUMPDEST PUSH1 0x40 MLOAD SWAP1 DUP1 DUP3 MSTORE DUP1 PUSH1 0x20 MUL PUSH1 0x20 ADD DUP3 ADD PUSH1 0x40 MSTORE DUP1 ISZERO PUSH2 0x5D1 JUMPI DUP2 PUSH1 0x20 ADD PUSH1 0x20 DUP3 MUL DUP1 CALLDATASIZE DUP4 CALLDATACOPY DUP1 DUP3 ADD SWAP2 POP POP SWAP1 POP JUMPDEST POP SWAP1 POP PUSH1 0x0 PUSH1 0x3 PUSH8 0xFFFFFFFFFFFFFFFF DUP2 GT ISZERO PUSH2 0x5F1 JUMPI PUSH2 0x5F0 PUSH2 0x1D01 JUMP JUMPDEST JUMPDEST PUSH1 0x40 MLOAD SWAP1 DUP1 DUP3 MSTORE DUP1 PUSH1 0x20 MUL PUSH1 0x20 ADD DUP3 ADD PUSH1 0x40 MSTORE DUP1 ISZERO PUSH2 0x61F JUMPI DUP2 PUSH1 0x20 ADD PUSH1 0x20 DUP3 MUL DUP1 CALLDATASIZE DUP4 CALLDATACOPY DUP1 DUP3 ADD SWAP2 POP POP SWAP1 POP JUMPDEST POP SWAP1 POP PUSH1 0x0 PUSH1 0x3 PUSH8 0xFFFFFFFFFFFFFFFF DUP2 GT ISZERO PUSH2 0x63F JUMPI PUSH2 0x63E PUSH2 0x1D01 JUMP JUMPDEST JUMPDEST PUSH1 0x40 MLOAD SWAP1 DUP1 DUP3 MSTORE DUP1 PUSH1 0x20 MUL PUSH1 0x20 ADD DUP3 ADD PUSH1 0x40 MSTORE DUP1 ISZERO PUSH2 0x66D JUMPI DUP2 PUSH1 0x20 ADD PUSH1 0x20 DUP3 MUL DUP1 CALLDATASIZE DUP4 CALLDATACOPY DUP1 DUP3 ADD SWAP2 POP POP SWAP1 POP JUMPDEST POP SWAP1 POP PUSH1 0x4 SWAP6 POP PUSH2 0x680 DUP14 DUP8 PUSH1 0x0 PUSH2 0xBE1 JUMP JUMPDEST DUP1 SWAP8 POP DUP2 SWAP7 POP POP POP PUSH2 0x694 DUP14 DUP8 PUSH1 0x0 PUSH2 0xCF3 JUMP JUMPDEST DUP1 SWAP10 POP DUP2 SWAP8 POP DUP3 SWAP7 POP DUP4 SWAP6 POP POP POP POP POP PUSH1 0x0 JUMPDEST PUSH1 0x3 DUP2 LT ISZERO PUSH2 0x727 JUMPI PUSH1 0x0 PUSH2 0x6F1 DUP16 DUP7 DUP5 DUP2 MLOAD DUP2 LT PUSH2 0x6C9 JUMPI PUSH2 0x6C8 PUSH2 0x2294 JUMP JUMPDEST JUMPDEST PUSH1 0x20 MUL PUSH1 0x20 ADD ADD MLOAD DUP9 DUP6 DUP2 MLOAD DUP2 LT PUSH2 0x6E4 JUMPI PUSH2 0x6E3 PUSH2 0x2294 JUMP JUMPDEST JUMPDEST PUSH1 0x20 MUL PUSH1 0x20 ADD ADD MLOAD PUSH2 0xEEA JUMP JUMPDEST SWAP1 POP DUP1 DUP4 DUP4 DUP2 MLOAD DUP2 LT PUSH2 0x707 JUMPI PUSH2 0x706 PUSH2 0x2294 JUMP JUMPDEST JUMPDEST PUSH1 0x20 MUL PUSH1 0x20 ADD ADD DUP2 DUP2 MSTORE POP POP POP DUP1 DUP1 PUSH2 0x71F SWAP1 PUSH2 0x22F2 JUMP JUMPDEST SWAP2 POP POP PUSH2 0x6A7 JUMP JUMPDEST POP DUP2 PUSH1 0x0 DUP2 MLOAD DUP2 LT PUSH2 0x73C JUMPI PUSH2 0x73B PUSH2 0x2294 JUMP JUMPDEST JUMPDEST PUSH1 0x20 MUL PUSH1 0x20 ADD ADD MLOAD DUP2 PUSH1 0x0 DUP2 MLOAD DUP2 LT PUSH2 0x758 JUMPI PUSH2 0x757 PUSH2 0x2294 JUMP JUMPDEST JUMPDEST PUSH1 0x20 MUL PUSH1 0x20 ADD ADD MLOAD DUP4 PUSH1 0x1 DUP2 MLOAD DUP2 LT PUSH2 0x774 JUMPI PUSH2 0x773 PUSH2 0x2294 JUMP JUMPDEST JUMPDEST PUSH1 0x20 MUL PUSH1 0x20 ADD ADD MLOAD DUP4 PUSH1 0x1 DUP2 MLOAD DUP2 LT PUSH2 0x790 JUMPI PUSH2 0x78F PUSH2 0x2294 JUMP JUMPDEST JUMPDEST PUSH1 0x20 MUL PUSH1 0x20 ADD ADD MLOAD DUP6 PUSH1 0x2 DUP2 MLOAD DUP2 LT PUSH2 0x7AC JUMPI PUSH2 0x7AB PUSH2 0x2294 JUMP JUMPDEST JUMPDEST PUSH1 0x20 MUL PUSH1 0x20 ADD ADD MLOAD DUP6 PUSH1 0x2 DUP2 MLOAD DUP2 LT PUSH2 0x7C8 JUMPI PUSH2 0x7C7 PUSH2 0x2294 JUMP JUMPDEST JUMPDEST PUSH1 0x20 MUL PUSH1 0x20 ADD ADD MLOAD SWAP12 POP SWAP12 POP SWAP12 POP SWAP12 POP SWAP12 POP SWAP12 POP POP POP POP POP POP POP SWAP2 SWAP4 SWAP6 POP SWAP2 SWAP4 SWAP6 JUMP JUMPDEST PUSH2 0x883 DUP3 DUP3 PUSH1 0x40 MLOAD PUSH1 0x24 ADD PUSH2 0x801 SWAP3 SWAP2 SWAP1 PUSH2 0x23A8 JUMP JUMPDEST PUSH1 0x40 MLOAD PUSH1 0x20 DUP2 DUP4 SUB SUB DUP2 MSTORE SWAP1 PUSH1 0x40 MSTORE PUSH32 0xB60E72CC00000000000000000000000000000000000000000000000000000000 PUSH28 0xFFFFFFFFFFFFFFFFFFFFFFFFFFFFFFFFFFFFFFFFFFFFFFFFFFFFFFFF NOT AND PUSH1 0x20 DUP3 ADD DUP1 MLOAD PUSH28 0xFFFFFFFFFFFFFFFFFFFFFFFFFFFFFFFFFFFFFFFFFFFFFFFFFFFFFFFF DUP4 DUP2 DUP4 AND OR DUP4 MSTORE POP POP POP POP PUSH2 0xF9F JUMP JUMPDEST POP POP JUMP JUMPDEST PUSH1 0x60 PUSH1 0x0 DUP4 SWAP1 POP PUSH1 0x0 PUSH1 0x2 DUP5 PUSH1 0x2 PUSH2 0x89F SWAP2 SWAP1 PUSH2 0x23D8 JUMP JUMPDEST PUSH2 0x8A9 SWAP2 SWAP1 PUSH2 0x241A JUMP JUMPDEST PUSH8 0xFFFFFFFFFFFFFFFF DUP2 GT ISZERO PUSH2 0x8C2 JUMPI PUSH2 0x8C1 PUSH2 0x1D01 JUMP JUMPDEST JUMPDEST PUSH1 0x40 MLOAD SWAP1 DUP1 DUP3 MSTORE DUP1 PUSH1 0x1F ADD PUSH1 0x1F NOT AND PUSH1 0x20 ADD DUP3 ADD PUSH1 0x40 MSTORE DUP1 ISZERO PUSH2 0x8F4 JUMPI DUP2 PUSH1 0x20 ADD PUSH1 0x1 DUP3 MUL DUP1 CALLDATASIZE DUP4 CALLDATACOPY DUP1 DUP3 ADD SWAP2 POP POP SWAP1 POP JUMPDEST POP SWAP1 POP PUSH32 0x3000000000000000000000000000000000000000000000000000000000000000 DUP2 PUSH1 0x0 DUP2 MLOAD DUP2 LT PUSH2 0x92C JUMPI PUSH2 0x92B PUSH2 0x2294 JUMP JUMPDEST JUMPDEST PUSH1 0x20 ADD ADD SWAP1 PUSH31 0xFFFFFFFFFFFFFFFFFFFFFFFFFFFFFFFFFFFFFFFFFFFFFFFFFFFFFFFFFFFFFF NOT AND SWAP1 DUP2 PUSH1 0x0 BYTE SWAP1 MSTORE8 POP PUSH32 0x7800000000000000000000000000000000000000000000000000000000000000 DUP2 PUSH1 0x1 DUP2 MLOAD DUP2 LT PUSH2 0x990 JUMPI PUSH2 0x98F PUSH2 0x2294 JUMP JUMPDEST JUMPDEST PUSH1 0x20 ADD ADD SWAP1 PUSH31 0xFFFFFFFFFFFFFFFFFFFFFFFFFFFFFFFFFFFFFFFFFFFFFFFFFFFFFFFFFFFFFF NOT AND SWAP1 DUP2 PUSH1 0x0 BYTE SWAP1 MSTORE8 POP PUSH1 0x0 PUSH1 0x1 DUP6 PUSH1 0x2 PUSH2 0x9D0 SWAP2 SWAP1 PUSH2 0x23D8 JUMP JUMPDEST PUSH2 0x9DA SWAP2 SWAP1 PUSH2 0x241A JUMP JUMPDEST SWAP1 POP JUMPDEST PUSH1 0x1 DUP2 GT ISZERO PUSH2 0xA7A JUMPI PUSH32 0x3031323334353637383961626364656600000000000000000000000000000000 PUSH1 0xF DUP5 AND PUSH1 0x10 DUP2 LT PUSH2 0xA1C JUMPI PUSH2 0xA1B PUSH2 0x2294 JUMP JUMPDEST JUMPDEST BYTE PUSH1 0xF8 SHL DUP3 DUP3 DUP2 MLOAD DUP2 LT PUSH2 0xA33 JUMPI PUSH2 0xA32 PUSH2 0x2294 JUMP JUMPDEST JUMPDEST PUSH1 0x20 ADD ADD SWAP1 PUSH31 0xFFFFFFFFFFFFFFFFFFFFFFFFFFFFFFFFFFFFFFFFFFFFFFFFFFFFFFFFFFFFFF NOT AND SWAP1 DUP2 PUSH1 0x0 BYTE SWAP1 MSTORE8 POP PUSH1 0x4 DUP4 SWAP1 SHR SWAP3 POP DUP1 PUSH2 0xA73 SWAP1 PUSH2 0x244E JUMP JUMPDEST SWAP1 POP PUSH2 0x9DD JUMP JUMPDEST POP PUSH1 0x0 DUP3 EQ PUSH2 0xAC2 JUMPI DUP5 DUP5 PUSH1 0x40 MLOAD PUSH32 0xE22E27EB00000000000000000000000000000000000000000000000000000000 DUP2 MSTORE PUSH1 0x4 ADD PUSH2 0xAB9 SWAP3 SWAP2 SWAP1 PUSH2 0x2477 JUMP JUMPDEST PUSH1 0x40 MLOAD DUP1 SWAP2 SUB SWAP1 REVERT JUMPDEST DUP1 SWAP3 POP POP POP SWAP3 SWAP2 POP POP JUMP JUMPDEST PUSH2 0xB65 DUP3 DUP3 PUSH1 0x40 MLOAD PUSH1 0x24 ADD PUSH2 0xAE3 SWAP3 SWAP2 SWAP1 PUSH2 0x24A0 JUMP JUMPDEST PUSH1 0x40 MLOAD PUSH1 0x20 DUP2 DUP4 SUB SUB DUP2 MSTORE SWAP1 PUSH1 0x40 MSTORE PUSH32 0x4B5C427700000000000000000000000000000000000000000000000000000000 PUSH28 0xFFFFFFFFFFFFFFFFFFFFFFFFFFFFFFFFFFFFFFFFFFFFFFFFFFFFFFFF NOT AND PUSH1 0x20 DUP3 ADD DUP1 MLOAD PUSH28 0xFFFFFFFFFFFFFFFFFFFFFFFFFFFFFFFFFFFFFFFFFFFFFFFFFFFFFFFF DUP4 DUP2 DUP4 AND OR DUP4 MSTORE POP POP POP POP PUSH2 0xF9F JUMP JUMPDEST POP POP JUMP JUMPDEST PUSH1 0x0 PUSH1 0x40 DUP3 MLOAD EQ PUSH2 0xBAF JUMPI PUSH1 0x40 MLOAD PUSH32 0x8C379A000000000000000000000000000000000000000000000000000000000 DUP2 MSTORE PUSH1 0x4 ADD PUSH2 0xBA6 SWAP1 PUSH2 0x2549 JUMP JUMPDEST PUSH1 0x40 MLOAD DUP1 SWAP2 SUB SWAP1 REVERT JUMPDEST PUSH1 0x0 PUSH2 0xBD3 PUSH2 0xBC8 PUSH1 0x0 DUP6 PUSH2 0xFB9 SWAP1 SWAP2 SWAP1 PUSH4 0xFFFFFFFF AND JUMP JUMPDEST PUSH3 0xFFFFFF NOT AND PUSH2 0xFE4 JUMP JUMPDEST SWAP1 POP DUP1 PUSH1 0x0 SHR SWAP2 POP POP SWAP2 SWAP1 POP JUMP JUMPDEST PUSH1 0x60 PUSH1 0x0 DUP1 PUSH1 0x0 DUP1 PUSH2 0xBF3 DUP9 DUP9 PUSH2 0x1027 JUMP JUMPDEST DUP1 SWAP9 POP DUP2 SWAP5 POP POP POP PUSH1 0x0 DUP7 EQ DUP1 PUSH2 0xC09 JUMPI POP DUP3 DUP7 GT JUMPDEST ISZERO PUSH2 0xC16 JUMPI DUP3 SWAP2 POP PUSH2 0xC1A JUMP JUMPDEST DUP6 SWAP2 POP JUMPDEST PUSH1 0x0 DUP3 PUSH8 0xFFFFFFFFFFFFFFFF DUP2 GT ISZERO PUSH2 0xC36 JUMPI PUSH2 0xC35 PUSH2 0x1D01 JUMP JUMPDEST JUMPDEST PUSH1 0x40 MLOAD SWAP1 DUP1 DUP3 MSTORE DUP1 PUSH1 0x20 MUL PUSH1 0x20 ADD DUP3 ADD PUSH1 0x40 MSTORE DUP1 ISZERO PUSH2 0xC64 JUMPI DUP2 PUSH1 0x20 ADD PUSH1 0x20 DUP3 MUL DUP1 CALLDATASIZE DUP4 CALLDATACOPY DUP1 DUP3 ADD SWAP2 POP POP SWAP1 POP JUMPDEST POP SWAP1 POP PUSH1 0x0 JUMPDEST DUP4 DUP2 LT ISZERO PUSH2 0xCE0 JUMPI PUSH1 0x24 DUP10 PUSH2 0xC7F SWAP2 SWAP1 PUSH2 0x241A JUMP JUMPDEST SWAP9 POP PUSH2 0xC8B DUP11 DUP11 PUSH2 0x1027 JUMP JUMPDEST DUP1 SWAP11 POP DUP2 SWAP5 POP POP POP DUP3 DUP3 DUP3 DUP2 MLOAD DUP2 LT PUSH2 0xCA7 JUMPI PUSH2 0xCA6 PUSH2 0x2294 JUMP JUMPDEST JUMPDEST PUSH1 0x20 MUL PUSH1 0x20 ADD ADD DUP2 DUP2 MSTORE POP POP PUSH1 0x4 DUP4 PUSH2 0xCC0 SWAP2 SWAP1 PUSH2 0x241A JUMP JUMPDEST DUP10 PUSH2 0xCCB SWAP2 SWAP1 PUSH2 0x241A JUMP JUMPDEST SWAP9 POP DUP1 DUP1 PUSH2 0xCD8 SWAP1 PUSH2 0x22F2 JUMP JUMPDEST SWAP2 POP POP PUSH2 0xC6A JUMP JUMPDEST POP DUP1 DUP9 SWAP6 POP SWAP6 POP POP POP POP POP SWAP4 POP SWAP4 SWAP2 POP POP JUMP JUMPDEST PUSH1 0x60 DUP1 PUSH1 0x60 PUSH1 0x0 DUP1 PUSH1 0x0 DUP1 PUSH2 0xD08 DUP11 DUP11 PUSH2 0x1027 JUMP JUMPDEST DUP1 SWAP11 POP DUP2 SWAP5 POP POP POP PUSH1 0x0 DUP9 EQ DUP1 PUSH2 0xD1E JUMPI POP DUP3 DUP9 GT JUMPDEST ISZERO PUSH2 0xD2B JUMPI DUP3 SWAP2 POP PUSH2 0xD2F JUMP JUMPDEST DUP8 SWAP2 POP JUMPDEST PUSH1 0x0 DUP3 PUSH8 0xFFFFFFFFFFFFFFFF DUP2 GT ISZERO PUSH2 0xD4B JUMPI PUSH2 0xD4A PUSH2 0x1D01 JUMP JUMPDEST JUMPDEST PUSH1 0x40 MLOAD SWAP1 DUP1 DUP3 MSTORE DUP1 PUSH1 0x20 MUL PUSH1 0x20 ADD DUP3 ADD PUSH1 0x40 MSTORE DUP1 ISZERO PUSH2 0xD79 JUMPI DUP2 PUSH1 0x20 ADD PUSH1 0x20 DUP3 MUL DUP1 CALLDATASIZE DUP4 CALLDATACOPY DUP1 DUP3 ADD SWAP2 POP POP SWAP1 POP JUMPDEST POP SWAP1 POP PUSH1 0x0 DUP4 PUSH8 0xFFFFFFFFFFFFFFFF DUP2 GT ISZERO PUSH2 0xD98 JUMPI PUSH2 0xD97 PUSH2 0x1D01 JUMP JUMPDEST JUMPDEST PUSH1 0x40 MLOAD SWAP1 DUP1 DUP3 MSTORE DUP1 PUSH1 0x20 MUL PUSH1 0x20 ADD DUP3 ADD PUSH1 0x40 MSTORE DUP1 ISZERO PUSH2 0xDC6 JUMPI DUP2 PUSH1 0x20 ADD PUSH1 0x20 DUP3 MUL DUP1 CALLDATASIZE DUP4 CALLDATACOPY DUP1 DUP3 ADD SWAP2 POP POP SWAP1 POP JUMPDEST POP SWAP1 POP PUSH1 0x0 DUP5 PUSH8 0xFFFFFFFFFFFFFFFF DUP2 GT ISZERO PUSH2 0xDE5 JUMPI PUSH2 0xDE4 PUSH2 0x1D01 JUMP JUMPDEST JUMPDEST PUSH1 0x40 MLOAD SWAP1 DUP1 DUP3 MSTORE DUP1 PUSH1 0x20 MUL PUSH1 0x20 ADD DUP3 ADD PUSH1 0x40 MSTORE DUP1 ISZERO PUSH2 0xE13 JUMPI DUP2 PUSH1 0x20 ADD PUSH1 0x20 DUP3 MUL DUP1 CALLDATASIZE DUP4 CALLDATACOPY DUP1 DUP3 ADD SWAP2 POP POP SWAP1 POP JUMPDEST POP SWAP1 POP PUSH1 0x0 JUMPDEST DUP6 DUP2 LT ISZERO PUSH2 0xECE JUMPI PUSH2 0xE2D DUP15 DUP15 PUSH1 0x40 PUSH2 0x110F JUMP JUMPDEST DUP3 DUP3 DUP2 MLOAD DUP2 LT PUSH2 0xE40 JUMPI PUSH2 0xE3F PUSH2 0x2294 JUMP JUMPDEST JUMPDEST PUSH1 0x20 MUL PUSH1 0x20 ADD ADD DUP2 DUP2 MSTORE POP POP PUSH1 0x8 DUP14 PUSH2 0xE59 SWAP2 SWAP1 PUSH2 0x241A JUMP JUMPDEST SWAP13 POP PUSH2 0xE65 DUP15 DUP15 PUSH2 0x1027 JUMP JUMPDEST DUP1 SWAP15 POP DUP2 SWAP7 POP POP POP DUP13 DUP5 DUP3 DUP2 MLOAD DUP2 LT PUSH2 0xE81 JUMPI PUSH2 0xE80 PUSH2 0x2294 JUMP JUMPDEST JUMPDEST PUSH1 0x20 MUL PUSH1 0x20 ADD ADD DUP2 DUP2 MSTORE POP POP DUP5 DUP4 DUP3 DUP2 MLOAD DUP2 LT PUSH2 0xEA1 JUMPI PUSH2 0xEA0 PUSH2 0x2294 JUMP JUMPDEST JUMPDEST PUSH1 0x20 MUL PUSH1 0x20 ADD ADD DUP2 DUP2 MSTORE POP POP DUP5 DUP14 PUSH2 0xEB9 SWAP2 SWAP1 PUSH2 0x241A JUMP JUMPDEST SWAP13 POP DUP1 DUP1 PUSH2 0xEC6 SWAP1 PUSH2 0x22F2 JUMP JUMPDEST SWAP2 POP POP PUSH2 0xE19 JUMP JUMPDEST POP DUP1 DUP4 DUP4 DUP15 SWAP10 POP SWAP10 POP SWAP10 POP SWAP10 POP POP POP POP POP POP POP SWAP4 POP SWAP4 POP SWAP4 POP SWAP4 JUMP JUMPDEST PUSH1 0x0 PUSH2 0xEF7 DUP5 DUP5 DUP5 PUSH2 0x157A JUMP JUMPDEST ISZERO PUSH2 0xF28 JUMPI PUSH2 0xF12 DUP5 PUSH1 0x3 DUP6 PUSH2 0xF0D SWAP2 SWAP1 PUSH2 0x241A JUMP JUMPDEST PUSH2 0x173F JUMP JUMPDEST PUSH12 0xFFFFFFFFFFFFFFFFFFFFFFFF NOT AND SWAP1 POP PUSH2 0xF98 JUMP JUMPDEST PUSH2 0xF33 DUP5 DUP5 DUP5 PUSH2 0x1822 JUMP JUMPDEST ISZERO PUSH2 0xF64 JUMPI PUSH2 0xF4E DUP5 PUSH1 0x2 DUP6 PUSH2 0xF49 SWAP2 SWAP1 PUSH2 0x241A JUMP JUMPDEST PUSH2 0x173F JUMP JUMPDEST PUSH12 0xFFFFFFFFFFFFFFFFFFFFFFFF NOT AND SWAP1 POP PUSH2 0xF98 JUMP JUMPDEST PUSH2 0xF6F DUP5 DUP5 DUP5 PUSH2 0x193F JUMP JUMPDEST ISZERO PUSH2 0xF91 JUMPI PUSH2 0xF8A DUP5 PUSH1 0x2 DUP6 PUSH2 0xF85 SWAP2 SWAP1 PUSH2 0x241A JUMP JUMPDEST PUSH2 0x1A02 JUMP JUMPDEST SWAP1 POP PUSH2 0xF98 JUMP JUMPDEST PUSH1 0x0 DUP1 SHL SWAP1 POP JUMPDEST SWAP4 SWAP3 POP POP POP JUMP JUMPDEST PUSH2 0xFB6 DUP2 PUSH2 0xFAE PUSH2 0x1A8D PUSH2 0x1AAE JUMP JUMPDEST PUSH4 0xFFFFFFFF AND JUMP JUMPDEST POP JUMP JUMPDEST PUSH1 0x0 DUP1 DUP4 MLOAD SWAP1 POP PUSH1 0x0 PUSH1 0x20 DUP6 ADD SWAP1 POP PUSH2 0xFDA DUP5 PUSH5 0xFFFFFFFFFF AND DUP3 DUP5 PUSH2 0x1AB9 JUMP JUMPDEST SWAP3 POP POP POP SWAP3 SWAP2 POP POP JUMP JUMPDEST PUSH1 0x0 DUP1 PUSH2 0xFF0 DUP4 PUSH2 0x1B27 JUMP JUMPDEST PUSH12 0xFFFFFFFFFFFFFFFFFFFFFFFF AND SWAP1 POP PUSH1 0x0 PUSH2 0x100B DUP5 PUSH2 0x1B47 JUMP JUMPDEST PUSH12 0xFFFFFFFFFFFFFFFFFFFFFFFF AND SWAP1 POP DUP1 DUP3 KECCAK256 SWAP3 POP POP POP SWAP2 SWAP1 POP JUMP JUMPDEST PUSH1 0x0 DUP1 PUSH1 0x0 DUP5 DUP5 DUP2 MLOAD DUP2 LT PUSH2 0x103F JUMPI PUSH2 0x103E PUSH2 0x2294 JUMP JUMPDEST JUMPDEST PUSH1 0x20 ADD ADD MLOAD PUSH1 0xF8 SHR PUSH1 0xF8 SHL PUSH1 0xF8 SHR SWAP1 POP PUSH1 0x1 DUP5 PUSH2 0x105C SWAP2 SWAP1 PUSH2 0x241A JUMP JUMPDEST SWAP4 POP PUSH1 0xFD DUP2 PUSH1 0xFF AND LT ISZERO PUSH2 0x107C JUMPI DUP1 DUP5 DUP2 PUSH1 0xFF AND SWAP2 POP SWAP3 POP SWAP3 POP POP PUSH2 0x1108 JUMP JUMPDEST PUSH1 0xFD DUP2 PUSH1 0xFF AND SUB PUSH2 0x10AA JUMPI PUSH2 0x1093 DUP6 DUP6 PUSH1 0x10 PUSH2 0x110F JUMP JUMPDEST PUSH1 0x2 DUP6 PUSH2 0x10A0 SWAP2 SWAP1 PUSH2 0x241A JUMP JUMPDEST SWAP3 POP SWAP3 POP POP PUSH2 0x1108 JUMP JUMPDEST PUSH1 0xFE DUP2 PUSH1 0xFF AND SUB PUSH2 0x10D8 JUMPI PUSH2 0x10C1 DUP6 DUP6 PUSH1 0x20 PUSH2 0x110F JUMP JUMPDEST PUSH1 0x4 DUP6 PUSH2 0x10CE SWAP2 SWAP1 PUSH2 0x241A JUMP JUMPDEST SWAP3 POP SWAP3 POP POP PUSH2 0x1108 JUMP JUMPDEST PUSH1 0xFF DUP2 PUSH1 0xFF AND SUB PUSH2 0x1106 JUMPI PUSH2 0x10EF DUP6 DUP6 PUSH1 0x40 PUSH2 0x110F JUMP JUMPDEST PUSH1 0x8 DUP6 PUSH2 0x10FC SWAP2 SWAP1 PUSH2 0x241A JUMP JUMPDEST SWAP3 POP SWAP3 POP POP PUSH2 0x1108 JUMP JUMPDEST POP JUMPDEST SWAP3 POP SWAP3 SWAP1 POP JUMP JUMPDEST PUSH1 0x0 PUSH1 0x8 DUP3 SUB PUSH2 0x1144 JUMPI DUP4 DUP4 DUP2 MLOAD DUP2 LT PUSH2 0x112C JUMPI PUSH2 0x112B PUSH2 0x2294 JUMP JUMPDEST JUMPDEST PUSH1 0x20 ADD ADD MLOAD PUSH1 0xF8 SHR PUSH1 0xF8 SHL PUSH1 0xF8 SHR PUSH1 0xFF AND SWAP1 POP PUSH2 0x1573 JUMP JUMPDEST PUSH1 0x10 DUP3 SUB PUSH2 0x11C6 JUMPI PUSH2 0x100 DUP5 PUSH1 0x1 DUP6 PUSH2 0x115D SWAP2 SWAP1 PUSH2 0x241A JUMP JUMPDEST DUP2 MLOAD DUP2 LT PUSH2 0x116E JUMPI PUSH2 0x116D PUSH2 0x2294 JUMP JUMPDEST JUMPDEST PUSH1 0x20 ADD ADD MLOAD PUSH1 0xF8 SHR PUSH1 0xF8 SHL PUSH1 0xF8 SHR PUSH1 0xFF AND PUSH2 0x1189 SWAP2 SWAP1 PUSH2 0x2577 JUMP JUMPDEST PUSH2 0xFFFF AND DUP5 DUP5 DUP2 MLOAD DUP2 LT PUSH2 0x11A0 JUMPI PUSH2 0x119F PUSH2 0x2294 JUMP JUMPDEST JUMPDEST PUSH1 0x20 ADD ADD MLOAD PUSH1 0xF8 SHR PUSH1 0xF8 SHL PUSH1 0xF8 SHR PUSH1 0xFF AND PUSH2 0xFFFF AND PUSH2 0x11BF SWAP2 SWAP1 PUSH2 0x241A JUMP JUMPDEST SWAP1 POP PUSH2 0x1573 JUMP JUMPDEST PUSH1 0x20 DUP3 SUB PUSH2 0x12E9 JUMPI PUSH4 0x1000000 DUP5 PUSH1 0x3 DUP6 PUSH2 0x11E1 SWAP2 SWAP1 PUSH2 0x241A JUMP JUMPDEST DUP2 MLOAD DUP2 LT PUSH2 0x11F2 JUMPI PUSH2 0x11F1 PUSH2 0x2294 JUMP JUMPDEST JUMPDEST PUSH1 0x20 ADD ADD MLOAD PUSH1 0xF8 SHR PUSH1 0xF8 SHL PUSH1 0xF8 SHR PUSH1 0xFF AND PUSH2 0x120D SWAP2 SWAP1 PUSH2 0x25C4 JUMP JUMPDEST PUSH4 0xFFFFFFFF AND PUSH3 0x10000 DUP6 PUSH1 0x2 DUP7 PUSH2 0x1225 SWAP2 SWAP1 PUSH2 0x241A JUMP JUMPDEST DUP2 MLOAD DUP2 LT PUSH2 0x1236 JUMPI PUSH2 0x1235 PUSH2 0x2294 JUMP JUMPDEST JUMPDEST PUSH1 0x20 ADD ADD MLOAD PUSH1 0xF8 SHR PUSH1 0xF8 SHL PUSH1 0xF8 SHR PUSH1 0xFF AND PUSH2 0x1251 SWAP2 SWAP1 PUSH2 0x25C4 JUMP JUMPDEST PUSH4 0xFFFFFFFF AND PUSH2 0x100 DUP7 PUSH1 0x1 DUP8 PUSH2 0x1268 SWAP2 SWAP1 PUSH2 0x241A JUMP JUMPDEST DUP2 MLOAD DUP2 LT PUSH2 0x1279 JUMPI PUSH2 0x1278 PUSH2 0x2294 JUMP JUMPDEST JUMPDEST PUSH1 0x20 ADD ADD MLOAD PUSH1 0xF8 SHR PUSH1 0xF8 SHL PUSH1 0xF8 SHR PUSH1 0xFF AND PUSH2 0x1294 SWAP2 SWAP1 PUSH2 0x25C4 JUMP JUMPDEST PUSH4 0xFFFFFFFF AND DUP7 DUP7 DUP2 MLOAD DUP2 LT PUSH2 0x12AD JUMPI PUSH2 0x12AC PUSH2 0x2294 JUMP JUMPDEST JUMPDEST PUSH1 0x20 ADD ADD MLOAD PUSH1 0xF8 SHR PUSH1 0xF8 SHL PUSH1 0xF8 SHR PUSH1 0xFF AND PUSH4 0xFFFFFFFF AND PUSH2 0x12CE SWAP2 SWAP1 PUSH2 0x241A JUMP JUMPDEST PUSH2 0x12D8 SWAP2 SWAP1 PUSH2 0x241A JUMP JUMPDEST PUSH2 0x12E2 SWAP2 SWAP1 PUSH2 0x241A JUMP JUMPDEST SWAP1 POP PUSH2 0x1573 JUMP JUMPDEST PUSH1 0x40 DUP3 SUB PUSH2 0x1572 JUMPI PUSH8 0x100000000000000 DUP5 PUSH1 0x7 DUP6 PUSH2 0x1308 SWAP2 SWAP1 PUSH2 0x241A JUMP JUMPDEST DUP2 MLOAD DUP2 LT PUSH2 0x1319 JUMPI PUSH2 0x1318 PUSH2 0x2294 JUMP JUMPDEST JUMPDEST PUSH1 0x20 ADD ADD MLOAD PUSH1 0xF8 SHR PUSH1 0xF8 SHL PUSH1 0xF8 SHR PUSH1 0xFF AND PUSH2 0x1334 SWAP2 SWAP1 PUSH2 0x2615 JUMP JUMPDEST PUSH8 0xFFFFFFFFFFFFFFFF AND PUSH7 0x1000000000000 DUP6 PUSH1 0x6 DUP7 PUSH2 0x1354 SWAP2 SWAP1 PUSH2 0x241A JUMP JUMPDEST DUP2 MLOAD DUP2 LT PUSH2 0x1365 JUMPI PUSH2 0x1364 PUSH2 0x2294 JUMP JUMPDEST JUMPDEST PUSH1 0x20 ADD ADD MLOAD PUSH1 0xF8 SHR PUSH1 0xF8 SHL PUSH1 0xF8 SHR PUSH1 0xFF AND PUSH2 0x1380 SWAP2 SWAP1 PUSH2 0x2615 JUMP JUMPDEST PUSH8 0xFFFFFFFFFFFFFFFF AND PUSH6 0x10000000000 DUP7 PUSH1 0x5 DUP8 PUSH2 0x139F SWAP2 SWAP1 PUSH2 0x241A JUMP JUMPDEST DUP2 MLOAD DUP2 LT PUSH2 0x13B0 JUMPI PUSH2 0x13AF PUSH2 0x2294 JUMP JUMPDEST JUMPDEST PUSH1 0x20 ADD ADD MLOAD PUSH1 0xF8 SHR PUSH1 0xF8 SHL PUSH1 0xF8 SHR PUSH1 0xFF AND PUSH2 0x13CB SWAP2 SWAP1 PUSH2 0x2615 JUMP JUMPDEST PUSH8 0xFFFFFFFFFFFFFFFF AND PUSH5 0x100000000 DUP8 PUSH1 0x4 DUP9 PUSH2 0x13E9 SWAP2 SWAP1 PUSH2 0x241A JUMP JUMPDEST DUP2 MLOAD DUP2 LT PUSH2 0x13FA JUMPI PUSH2 0x13F9 PUSH2 0x2294 JUMP JUMPDEST JUMPDEST PUSH1 0x20 ADD ADD MLOAD PUSH1 0xF8 SHR PUSH1 0xF8 SHL PUSH1 0xF8 SHR PUSH1 0xFF AND PUSH2 0x1415 SWAP2 SWAP1 PUSH2 0x2615 JUMP JUMPDEST PUSH8 0xFFFFFFFFFFFFFFFF AND PUSH4 0x1000000 DUP9 PUSH1 0x3 DUP10 PUSH2 0x1432 SWAP2 SWAP1 PUSH2 0x241A JUMP JUMPDEST DUP2 MLOAD DUP2 LT PUSH2 0x1443 JUMPI PUSH2 0x1442 PUSH2 0x2294 JUMP JUMPDEST JUMPDEST PUSH1 0x20 ADD ADD MLOAD PUSH1 0xF8 SHR PUSH1 0xF8 SHL PUSH1 0xF8 SHR PUSH1 0xFF AND PUSH2 0x145E SWAP2 SWAP1 PUSH2 0x2615 JUMP JUMPDEST PUSH8 0xFFFFFFFFFFFFFFFF AND PUSH3 0x10000 DUP10 PUSH1 0x2 DUP11 PUSH2 0x147A SWAP2 SWAP1 PUSH2 0x241A JUMP JUMPDEST DUP2 MLOAD DUP2 LT PUSH2 0x148B JUMPI PUSH2 0x148A PUSH2 0x2294 JUMP JUMPDEST JUMPDEST PUSH1 0x20 ADD ADD MLOAD PUSH1 0xF8 SHR PUSH1 0xF8 SHL PUSH1 0xF8 SHR PUSH1 0xFF AND PUSH2 0x14A6 SWAP2 SWAP1 PUSH2 0x2615 JUMP JUMPDEST PUSH8 0xFFFFFFFFFFFFFFFF AND PUSH2 0x100 DUP11 PUSH1 0x1 DUP12 PUSH2 0x14C1 SWAP2 SWAP1 PUSH2 0x241A JUMP JUMPDEST DUP2 MLOAD DUP2 LT PUSH2 0x14D2 JUMPI PUSH2 0x14D1 PUSH2 0x2294 JUMP JUMPDEST JUMPDEST PUSH1 0x20 ADD ADD MLOAD PUSH1 0xF8 SHR PUSH1 0xF8 SHL PUSH1 0xF8 SHR PUSH1 0xFF AND PUSH2 0x14ED SWAP2 SWAP1 PUSH2 0x2615 JUMP JUMPDEST PUSH8 0xFFFFFFFFFFFFFFFF AND DUP11 DUP11 DUP2 MLOAD DUP2 LT PUSH2 0x150A JUMPI PUSH2 0x1509 PUSH2 0x2294 JUMP JUMPDEST JUMPDEST PUSH1 0x20 ADD ADD MLOAD PUSH1 0xF8 SHR PUSH1 0xF8 SHL PUSH1 0xF8 SHR PUSH1 0xFF AND PUSH8 0xFFFFFFFFFFFFFFFF AND PUSH2 0x152F SWAP2 SWAP1 PUSH2 0x241A JUMP JUMPDEST PUSH2 0x1539 SWAP2 SWAP1 PUSH2 0x241A JUMP JUMPDEST PUSH2 0x1543 SWAP2 SWAP1 PUSH2 0x241A JUMP JUMPDEST PUSH2 0x154D SWAP2 SWAP1 PUSH2 0x241A JUMP JUMPDEST PUSH2 0x1557 SWAP2 SWAP1 PUSH2 0x241A JUMP JUMPDEST PUSH2 0x1561 SWAP2 SWAP1 PUSH2 0x241A JUMP JUMPDEST PUSH2 0x156B SWAP2 SWAP1 PUSH2 0x241A JUMP JUMPDEST SWAP1 POP PUSH2 0x1573 JUMP JUMPDEST JUMPDEST SWAP4 SWAP3 POP POP POP JUMP JUMPDEST PUSH1 0x0 PUSH1 0x19 DUP3 EQ DUP1 ISZERO PUSH2 0x15CE JUMPI POP PUSH1 0x76 PUSH1 0xF8 SHL DUP5 DUP5 DUP2 MLOAD DUP2 LT PUSH2 0x159F JUMPI PUSH2 0x159E PUSH2 0x2294 JUMP JUMPDEST JUMPDEST PUSH1 0x20 ADD ADD MLOAD PUSH1 0xF8 SHR PUSH1 0xF8 SHL PUSH31 0xFFFFFFFFFFFFFFFFFFFFFFFFFFFFFFFFFFFFFFFFFFFFFFFFFFFFFFFFFFFFFF NOT AND EQ JUMPDEST DUP1 ISZERO PUSH2 0x1628 JUMPI POP PUSH1 0xA9 PUSH1 0xF8 SHL DUP5 PUSH1 0x1 DUP6 PUSH2 0x15E8 SWAP2 SWAP1 PUSH2 0x241A JUMP JUMPDEST DUP2 MLOAD DUP2 LT PUSH2 0x15F9 JUMPI PUSH2 0x15F8 PUSH2 0x2294 JUMP JUMPDEST JUMPDEST PUSH1 0x20 ADD ADD MLOAD PUSH1 0xF8 SHR PUSH1 0xF8 SHL PUSH31 0xFFFFFFFFFFFFFFFFFFFFFFFFFFFFFFFFFFFFFFFFFFFFFFFFFFFFFFFFFFFFFF NOT AND EQ JUMPDEST DUP1 ISZERO PUSH2 0x1682 JUMPI POP PUSH1 0x14 PUSH1 0xF8 SHL DUP5 PUSH1 0x2 DUP6 PUSH2 0x1642 SWAP2 SWAP1 PUSH2 0x241A JUMP JUMPDEST DUP2 MLOAD DUP2 LT PUSH2 0x1653 JUMPI PUSH2 0x1652 PUSH2 0x2294 JUMP JUMPDEST JUMPDEST PUSH1 0x20 ADD ADD MLOAD PUSH1 0xF8 SHR PUSH1 0xF8 SHL PUSH31 0xFFFFFFFFFFFFFFFFFFFFFFFFFFFFFFFFFFFFFFFFFFFFFFFFFFFFFFFFFFFFFF NOT AND EQ JUMPDEST DUP1 ISZERO PUSH2 0x16DC JUMPI POP PUSH1 0x88 PUSH1 0xF8 SHL DUP5 PUSH1 0x17 DUP6 PUSH2 0x169C SWAP2 SWAP1 PUSH2 0x241A JUMP JUMPDEST DUP2 MLOAD DUP2 LT PUSH2 0x16AD JUMPI PUSH2 0x16AC PUSH2 0x2294 JUMP JUMPDEST JUMPDEST PUSH1 0x20 ADD ADD MLOAD PUSH1 0xF8 SHR PUSH1 0xF8 SHL PUSH31 0xFFFFFFFFFFFFFFFFFFFFFFFFFFFFFFFFFFFFFFFFFFFFFFFFFFFFFFFFFFFFFF NOT AND EQ JUMPDEST DUP1 ISZERO PUSH2 0x1736 JUMPI POP PUSH1 0xAC PUSH1 0xF8 SHL DUP5 PUSH1 0x18 DUP6 PUSH2 0x16F6 SWAP2 SWAP1 PUSH2 0x241A JUMP JUMPDEST DUP2 MLOAD DUP2 LT PUSH2 0x1707 JUMPI PUSH2 0x1706 PUSH2 0x2294 JUMP JUMPDEST JUMPDEST PUSH1 0x20 ADD ADD MLOAD PUSH1 0xF8 SHR PUSH1 0xF8 SHL PUSH31 0xFFFFFFFFFFFFFFFFFFFFFFFFFFFFFFFFFFFFFFFFFFFFFFFFFFFFFFFFFFFFFF NOT AND EQ JUMPDEST SWAP1 POP SWAP4 SWAP3 POP POP POP JUMP JUMPDEST PUSH1 0x0 DUP1 PUSH1 0x0 SWAP1 POP PUSH1 0x0 JUMPDEST PUSH1 0x14 DUP2 PUSH20 0xFFFFFFFFFFFFFFFFFFFFFFFFFFFFFFFFFFFFFFFF AND LT ISZERO PUSH2 0x1814 JUMPI DUP1 PUSH1 0x13 PUSH2 0x1775 SWAP2 SWAP1 PUSH2 0x2672 JUMP JUMPDEST PUSH1 0x8 PUSH2 0x1781 SWAP2 SWAP1 PUSH2 0x26BA JUMP JUMPDEST PUSH20 0xFFFFFFFFFFFFFFFFFFFFFFFFFFFFFFFFFFFFFFFF AND DUP6 DUP6 DUP4 PUSH20 0xFFFFFFFFFFFFFFFFFFFFFFFFFFFFFFFFFFFFFFFF AND PUSH2 0x17BA SWAP2 SWAP1 PUSH2 0x241A JUMP JUMPDEST DUP2 MLOAD DUP2 LT PUSH2 0x17CB JUMPI PUSH2 0x17CA PUSH2 0x2294 JUMP JUMPDEST JUMPDEST PUSH1 0x20 ADD ADD MLOAD PUSH1 0xF8 SHR PUSH1 0xF8 SHL PUSH1 0xF8 SHR PUSH1 0xFF AND PUSH20 0xFFFFFFFFFFFFFFFFFFFFFFFFFFFFFFFFFFFFFFFF AND SWAP1 SHL DUP3 PUSH2 0x17FF SWAP2 SWAP1 PUSH2 0x26FC JUMP JUMPDEST SWAP2 POP DUP1 DUP1 PUSH2 0x180C SWAP1 PUSH2 0x2744 JUMP JUMPDEST SWAP2 POP POP PUSH2 0x1749 JUMP JUMPDEST POP DUP1 PUSH1 0x60 SHL SWAP2 POP POP SWAP3 SWAP2 POP POP JUMP JUMPDEST PUSH1 0x0 PUSH1 0x17 DUP3 EQ DUP1 ISZERO PUSH2 0x1882 JUMPI POP PUSH1 0xA9 PUSH1 0xF8 SHL DUP5 PUSH1 0x0 DUP6 PUSH2 0x1842 SWAP2 SWAP1 PUSH2 0x241A JUMP JUMPDEST DUP2 MLOAD DUP2 LT PUSH2 0x1853 JUMPI PUSH2 0x1852 PUSH2 0x2294 JUMP JUMPDEST JUMPDEST PUSH1 0x20 ADD ADD MLOAD PUSH1 0xF8 SHR PUSH1 0xF8 SHL PUSH31 0xFFFFFFFFFFFFFFFFFFFFFFFFFFFFFFFFFFFFFFFFFFFFFFFFFFFFFFFFFFFFFF NOT AND EQ JUMPDEST DUP1 ISZERO PUSH2 0x18DC JUMPI POP PUSH1 0x14 PUSH1 0xF8 SHL DUP5 PUSH1 0x1 DUP6 PUSH2 0x189C SWAP2 SWAP1 PUSH2 0x241A JUMP JUMPDEST DUP2 MLOAD DUP2 LT PUSH2 0x18AD JUMPI PUSH2 0x18AC PUSH2 0x2294 JUMP JUMPDEST JUMPDEST PUSH1 0x20 ADD ADD MLOAD PUSH1 0xF8 SHR PUSH1 0xF8 SHL PUSH31 0xFFFFFFFFFFFFFFFFFFFFFFFFFFFFFFFFFFFFFFFFFFFFFFFFFFFFFFFFFFFFFF NOT AND EQ JUMPDEST DUP1 ISZERO PUSH2 0x1936 JUMPI POP PUSH1 0x87 PUSH1 0xF8 SHL DUP5 PUSH1 0x16 DUP6 PUSH2 0x18F6 SWAP2 SWAP1 PUSH2 0x241A JUMP JUMPDEST DUP2 MLOAD DUP2 LT PUSH2 0x1907 JUMPI PUSH2 0x1906 PUSH2 0x2294 JUMP JUMPDEST JUMPDEST PUSH1 0x20 ADD ADD MLOAD PUSH1 0xF8 SHR PUSH1 0xF8 SHL PUSH31 0xFFFFFFFFFFFFFFFFFFFFFFFFFFFFFFFFFFFFFFFFFFFFFFFFFFFFFFFFFFFFFF NOT AND EQ JUMPDEST SWAP1 POP SWAP4 SWAP3 POP POP POP JUMP JUMPDEST PUSH1 0x0 PUSH1 0x22 DUP3 EQ DUP1 ISZERO PUSH2 0x199F JUMPI POP PUSH1 0x6A PUSH1 0xF8 SHL DUP5 PUSH1 0x0 DUP6 PUSH2 0x195F SWAP2 SWAP1 PUSH2 0x241A JUMP JUMPDEST DUP2 MLOAD DUP2 LT PUSH2 0x1970 JUMPI PUSH2 0x196F PUSH2 0x2294 JUMP JUMPDEST JUMPDEST PUSH1 0x20 ADD ADD MLOAD PUSH1 0xF8 SHR PUSH1 0xF8 SHL PUSH31 0xFFFFFFFFFFFFFFFFFFFFFFFFFFFFFFFFFFFFFFFFFFFFFFFFFFFFFFFFFFFFFF NOT AND EQ JUMPDEST DUP1 ISZERO PUSH2 0x19F9 JUMPI POP PUSH1 0x20 PUSH1 0xF8 SHL DUP5 PUSH1 0x1 DUP6 PUSH2 0x19B9 SWAP2 SWAP1 PUSH2 0x241A JUMP JUMPDEST DUP2 MLOAD DUP2 LT PUSH2 0x19CA JUMPI PUSH2 0x19C9 PUSH2 0x2294 JUMP JUMPDEST JUMPDEST PUSH1 0x20 ADD ADD MLOAD PUSH1 0xF8 SHR PUSH1 0xF8 SHL PUSH31 0xFFFFFFFFFFFFFFFFFFFFFFFFFFFFFFFFFFFFFFFFFFFFFFFFFFFFFFFFFFFFFF NOT AND EQ JUMPDEST SWAP1 POP SWAP4 SWAP3 POP POP POP JUMP JUMPDEST PUSH1 0x0 DUP1 PUSH1 0x0 SWAP1 POP PUSH1 0x0 JUMPDEST PUSH1 0x20 DUP2 LT ISZERO PUSH2 0x1A7F JUMPI DUP1 PUSH1 0x1F PUSH2 0x1A22 SWAP2 SWAP1 PUSH2 0x2780 JUMP JUMPDEST PUSH1 0x8 PUSH2 0x1A2E SWAP2 SWAP1 PUSH2 0x23D8 JUMP JUMPDEST DUP6 DUP6 DUP4 PUSH2 0x1A3B SWAP2 SWAP1 PUSH2 0x241A JUMP JUMPDEST DUP2 MLOAD DUP2 LT PUSH2 0x1A4C JUMPI PUSH2 0x1A4B PUSH2 0x2294 JUMP JUMPDEST JUMPDEST PUSH1 0x20 ADD ADD MLOAD PUSH1 0xF8 SHR PUSH1 0xF8 SHL PUSH1 0xF8 SHR PUSH1 0xFF AND SWAP1 SHL DUP3 PUSH2 0x1A6A SWAP2 SWAP1 PUSH2 0x241A JUMP JUMPDEST SWAP2 POP DUP1 DUP1 PUSH2 0x1A77 SWAP1 PUSH2 0x22F2 JUMP JUMPDEST SWAP2 POP POP PUSH2 0x1A0C JUMP JUMPDEST POP DUP1 PUSH1 0x0 SHL SWAP2 POP POP SWAP3 SWAP2 POP POP JUMP JUMPDEST PUSH1 0x0 PUSH11 0x636F6E736F6C652E6C6F67 SWAP1 POP PUSH1 0x0 DUP1 DUP4 MLOAD PUSH1 0x20 DUP6 ADD DUP5 GAS STATICCALL POP POP POP JUMP JUMPDEST PUSH2 0x1BE1 DUP2 SWAP1 POP SWAP2 SWAP1 POP JUMP JUMPDEST PUSH1 0x0 DUP1 PUSH2 0x1ACF DUP4 DUP6 PUSH2 0x1B67 SWAP1 SWAP2 SWAP1 PUSH4 0xFFFFFFFF AND JUMP JUMPDEST SWAP1 POP PUSH1 0x40 MLOAD DUP2 GT ISZERO PUSH2 0x1AE0 JUMPI PUSH1 0x0 SWAP1 POP JUMPDEST PUSH1 0x0 DUP2 SUB PUSH2 0x1B11 JUMPI PUSH32 0xFFFFFFFFFFFFFFFFFFFFFFFFFFFFFFFFFFFFFFFFFFFFFFFFFFFFFFFFFF000000 SWAP2 POP POP PUSH2 0x1B20 JUMP JUMPDEST PUSH2 0x1B1C DUP6 DUP6 DUP6 PUSH2 0x1BC0 JUMP JUMPDEST SWAP2 POP POP JUMPDEST SWAP4 SWAP3 POP POP POP JUMP JUMPDEST PUSH1 0x0 DUP1 PUSH12 0xFFFFFFFFFFFFFFFFFFFFFFFF SWAP1 POP DUP1 DUP4 PUSH1 0x78 SHR AND SWAP2 POP POP SWAP2 SWAP1 POP JUMP JUMPDEST PUSH1 0x0 DUP1 PUSH12 0xFFFFFFFFFFFFFFFFFFFFFFFF SWAP1 POP DUP1 DUP4 PUSH1 0x18 SHR AND SWAP2 POP POP SWAP2 SWAP1 POP JUMP JUMPDEST PUSH1 0x0 DUP2 DUP4 PUSH2 0x1B75 SWAP2 SWAP1 PUSH2 0x241A JUMP JUMPDEST SWAP1 POP DUP3 DUP2 LT ISZERO PUSH2 0x1BBA JUMPI PUSH1 0x40 MLOAD PUSH32 0x8C379A000000000000000000000000000000000000000000000000000000000 DUP2 MSTORE PUSH1 0x4 ADD PUSH2 0x1BB1 SWAP1 PUSH2 0x2800 JUMP JUMPDEST PUSH1 0x40 MLOAD DUP1 SWAP2 SUB SWAP1 REVERT JUMPDEST SWAP3 SWAP2 POP POP JUMP JUMPDEST PUSH1 0x0 DUP4 DUP2 OR PUSH1 0x60 SHL SWAP1 POP DUP3 DUP2 OR PUSH1 0x60 SHL SWAP1 POP DUP2 DUP2 OR PUSH1 0x18 SHL SWAP1 POP SWAP4 SWAP3 POP POP POP JUMP JUMPDEST PUSH2 0x1BE9 PUSH2 0x2820 JUMP JUMPDEST JUMP JUMPDEST PUSH1 0x0 PUSH1 0x40 MLOAD SWAP1 POP SWAP1 JUMP JUMPDEST PUSH1 0x0 DUP1 REVERT JUMPDEST PUSH1 0x0 DUP1 REVERT JUMPDEST PUSH1 0x0 DUP2 SWAP1 POP SWAP2 SWAP1 POP JUMP JUMPDEST PUSH2 0x1C12 DUP2 PUSH2 0x1BFF JUMP JUMPDEST DUP2 EQ PUSH2 0x1C1D JUMPI PUSH1 0x0 DUP1 REVERT JUMPDEST POP JUMP JUMPDEST PUSH1 0x0 DUP2 CALLDATALOAD SWAP1 POP PUSH2 0x1C2F DUP2 PUSH2 0x1C09 JUMP JUMPDEST SWAP3 SWAP2 POP POP JUMP JUMPDEST PUSH1 0x0 DUP2 SWAP1 POP SWAP2 SWAP1 POP JUMP JUMPDEST PUSH2 0x1C48 DUP2 PUSH2 0x1C35 JUMP JUMPDEST DUP2 EQ PUSH2 0x1C53 JUMPI PUSH1 0x0 DUP1 REVERT JUMPDEST POP JUMP JUMPDEST PUSH1 0x0 DUP2 CALLDATALOAD SWAP1 POP PUSH2 0x1C65 DUP2 PUSH2 0x1C3F JUMP JUMPDEST SWAP3 SWAP2 POP POP JUMP JUMPDEST PUSH1 0x0 DUP1 PUSH1 0x0 DUP1 PUSH1 0x0 PUSH1 0xA0 DUP7 DUP9 SUB SLT ISZERO PUSH2 0x1C87 JUMPI PUSH2 0x1C86 PUSH2 0x1BF5 JUMP JUMPDEST JUMPDEST PUSH1 0x0 PUSH2 0x1C95 DUP9 DUP3 DUP10 ADD PUSH2 0x1C20 JUMP JUMPDEST SWAP6 POP POP PUSH1 0x20 PUSH2 0x1CA6 DUP9 DUP3 DUP10 ADD PUSH2 0x1C20 JUMP JUMPDEST SWAP5 POP POP PUSH1 0x40 PUSH2 0x1CB7 DUP9 DUP3 DUP10 ADD PUSH2 0x1C20 JUMP JUMPDEST SWAP4 POP POP PUSH1 0x60 PUSH2 0x1CC8 DUP9 DUP3 DUP10 ADD PUSH2 0x1C56 JUMP JUMPDEST SWAP3 POP POP PUSH1 0x80 PUSH2 0x1CD9 DUP9 DUP3 DUP10 ADD PUSH2 0x1C56 JUMP JUMPDEST SWAP2 POP POP SWAP3 SWAP6 POP SWAP3 SWAP6 SWAP1 SWAP4 POP JUMP JUMPDEST PUSH1 0x0 DUP1 REVERT JUMPDEST PUSH1 0x0 DUP1 REVERT JUMPDEST PUSH1 0x0 PUSH1 0x1F NOT PUSH1 0x1F DUP4 ADD AND SWAP1 POP SWAP2 SWAP1 POP JUMP JUMPDEST PUSH32 0x4E487B7100000000000000000000000000000000000000000000000000000000 PUSH1 0x0 MSTORE PUSH1 0x41 PUSH1 0x4 MSTORE PUSH1 0x24 PUSH1 0x0 REVERT JUMPDEST PUSH2 0x1D39 DUP3 PUSH2 0x1CF0 JUMP JUMPDEST DUP2 ADD DUP2 DUP2 LT PUSH8 0xFFFFFFFFFFFFFFFF DUP3 GT OR ISZERO PUSH2 0x1D58 JUMPI PUSH2 0x1D57 PUSH2 0x1D01 JUMP JUMPDEST JUMPDEST DUP1 PUSH1 0x40 MSTORE POP POP POP JUMP JUMPDEST PUSH1 0x0 PUSH2 0x1D6B PUSH2 0x1BEB JUMP JUMPDEST SWAP1 POP PUSH2 0x1D77 DUP3 DUP3 PUSH2 0x1D30 JUMP JUMPDEST SWAP2 SWAP1 POP JUMP JUMPDEST PUSH1 0x0 PUSH8 0xFFFFFFFFFFFFFFFF DUP3 GT ISZERO PUSH2 0x1D97 JUMPI PUSH2 0x1D96 PUSH2 0x1D01 JUMP JUMPDEST JUMPDEST PUSH2 0x1DA0 DUP3 PUSH2 0x1CF0 JUMP JUMPDEST SWAP1 POP PUSH1 0x20 DUP2 ADD SWAP1 POP SWAP2 SWAP1 POP JUMP JUMPDEST DUP3 DUP2 DUP4 CALLDATACOPY PUSH1 0x0 DUP4 DUP4 ADD MSTORE POP POP POP JUMP JUMPDEST PUSH1 0x0 PUSH2 0x1DCF PUSH2 0x1DCA DUP5 PUSH2 0x1D7C JUMP JUMPDEST PUSH2 0x1D61 JUMP JUMPDEST SWAP1 POP DUP3 DUP2 MSTORE PUSH1 0x20 DUP2 ADD DUP5 DUP5 DUP5 ADD GT ISZERO PUSH2 0x1DEB JUMPI PUSH2 0x1DEA PUSH2 0x1CEB JUMP JUMPDEST JUMPDEST PUSH2 0x1DF6 DUP5 DUP3 DUP6 PUSH2 0x1DAD JUMP JUMPDEST POP SWAP4 SWAP3 POP POP POP JUMP JUMPDEST PUSH1 0x0 DUP3 PUSH1 0x1F DUP4 ADD SLT PUSH2 0x1E13 JUMPI PUSH2 0x1E12 PUSH2 0x1CE6 JUMP JUMPDEST JUMPDEST DUP2 CALLDATALOAD PUSH2 0x1E23 DUP5 DUP3 PUSH1 0x20 DUP7 ADD PUSH2 0x1DBC JUMP JUMPDEST SWAP2 POP POP SWAP3 SWAP2 POP POP JUMP JUMPDEST PUSH1 0x0 DUP1 PUSH1 0x0 DUP1 PUSH1 0x80 DUP6 DUP8 SUB SLT ISZERO PUSH2 0x1E46 JUMPI PUSH2 0x1E45 PUSH2 0x1BF5 JUMP JUMPDEST JUMPDEST PUSH1 0x0 DUP6 ADD CALLDATALOAD PUSH8 0xFFFFFFFFFFFFFFFF DUP2 GT ISZERO PUSH2 0x1E64 JUMPI PUSH2 0x1E63 PUSH2 0x1BFA JUMP JUMPDEST JUMPDEST PUSH2 0x1E70 DUP8 DUP3 DUP9 ADD PUSH2 0x1DFE JUMP JUMPDEST SWAP5 POP POP PUSH1 0x20 DUP6 ADD CALLDATALOAD PUSH8 0xFFFFFFFFFFFFFFFF DUP2 GT ISZERO PUSH2 0x1E91 JUMPI PUSH2 0x1E90 PUSH2 0x1BFA JUMP JUMPDEST JUMPDEST PUSH2 0x1E9D DUP8 DUP3 DUP9 ADD PUSH2 0x1DFE JUMP JUMPDEST SWAP4 POP POP PUSH1 0x40 DUP6 ADD CALLDATALOAD PUSH8 0xFFFFFFFFFFFFFFFF DUP2 GT ISZERO PUSH2 0x1EBE JUMPI PUSH2 0x1EBD PUSH2 0x1BFA JUMP JUMPDEST JUMPDEST PUSH2 0x1ECA DUP8 DUP3 DUP9 ADD PUSH2 0x1DFE JUMP JUMPDEST SWAP3 POP POP PUSH1 0x60 DUP6 ADD CALLDATALOAD PUSH8 0xFFFFFFFFFFFFFFFF DUP2 GT ISZERO PUSH2 0x1EEB JUMPI PUSH2 0x1EEA PUSH2 0x1BFA JUMP JUMPDEST JUMPDEST PUSH2 0x1EF7 DUP8 DUP3 DUP9 ADD PUSH2 0x1DFE JUMP JUMPDEST SWAP2 POP POP SWAP3 SWAP6 SWAP2 SWAP5 POP SWAP3 POP JUMP JUMPDEST PUSH1 0x0 PUSH1 0xFF DUP3 AND SWAP1 POP SWAP2 SWAP1 POP JUMP JUMPDEST PUSH2 0x1F19 DUP2 PUSH2 0x1F03 JUMP JUMPDEST DUP2 EQ PUSH2 0x1F24 JUMPI PUSH1 0x0 DUP1 REVERT JUMPDEST POP JUMP JUMPDEST PUSH1 0x0 DUP2 CALLDATALOAD SWAP1 POP PUSH2 0x1F36 DUP2 PUSH2 0x1F10 JUMP JUMPDEST SWAP3 SWAP2 POP POP JUMP JUMPDEST PUSH1 0x0 DUP1 PUSH1 0x0 DUP1 PUSH1 0x0 PUSH1 0xA0 DUP7 DUP9 SUB SLT ISZERO PUSH2 0x1F58 JUMPI PUSH2 0x1F57 PUSH2 0x1BF5 JUMP JUMPDEST JUMPDEST PUSH1 0x0 DUP7 ADD CALLDATALOAD PUSH8 0xFFFFFFFFFFFFFFFF DUP2 GT ISZERO PUSH2 0x1F76 JUMPI PUSH2 0x1F75 PUSH2 0x1BFA JUMP JUMPDEST JUMPDEST PUSH2 0x1F82 DUP9 DUP3 DUP10 ADD PUSH2 0x1DFE JUMP JUMPDEST SWAP6 POP POP PUSH1 0x20 PUSH2 0x1F93 DUP9 DUP3 DUP10 ADD PUSH2 0x1C20 JUMP JUMPDEST SWAP5 POP POP PUSH1 0x40 PUSH2 0x1FA4 DUP9 DUP3 DUP10 ADD PUSH2 0x1F27 JUMP JUMPDEST SWAP4 POP POP PUSH1 0x60 PUSH2 0x1FB5 DUP9 DUP3 DUP10 ADD PUSH2 0x1C20 JUMP JUMPDEST SWAP3 POP POP PUSH1 0x80 PUSH2 0x1FC6 DUP9 DUP3 DUP10 ADD PUSH2 0x1C20 JUMP JUMPDEST SWAP2 POP POP SWAP3 SWAP6 POP SWAP3 SWAP6 SWAP1 SWAP4 POP JUMP JUMPDEST PUSH1 0x0 DUP2 ISZERO ISZERO SWAP1 POP SWAP2 SWAP1 POP JUMP JUMPDEST PUSH2 0x1FE8 DUP2 PUSH2 0x1FD3 JUMP JUMPDEST DUP3 MSTORE POP POP JUMP JUMPDEST PUSH1 0x0 PUSH1 0x20 DUP3 ADD SWAP1 POP PUSH2 0x2003 PUSH1 0x0 DUP4 ADD DUP5 PUSH2 0x1FDF JUMP JUMPDEST SWAP3 SWAP2 POP POP JUMP JUMPDEST PUSH1 0x0 DUP1 PUSH1 0x0 PUSH1 0x60 DUP5 DUP7 SUB SLT ISZERO PUSH2 0x2022 JUMPI PUSH2 0x2021 PUSH2 0x1BF5 JUMP JUMPDEST JUMPDEST PUSH1 0x0 DUP5 ADD CALLDATALOAD PUSH8 0xFFFFFFFFFFFFFFFF DUP2 GT ISZERO PUSH2 0x2040 JUMPI PUSH2 0x203F PUSH2 0x1BFA JUMP JUMPDEST JUMPDEST PUSH2 0x204C DUP7 DUP3 DUP8 ADD PUSH2 0x1DFE JUMP JUMPDEST SWAP4 POP POP PUSH1 0x20 DUP5 ADD CALLDATALOAD PUSH8 0xFFFFFFFFFFFFFFFF DUP2 GT ISZERO PUSH2 0x206D JUMPI PUSH2 0x206C PUSH2 0x1BFA JUMP JUMPDEST JUMPDEST PUSH2 0x2079 DUP7 DUP3 DUP8 ADD PUSH2 0x1DFE JUMP JUMPDEST SWAP3 POP POP PUSH1 0x40 DUP5 ADD CALLDATALOAD PUSH8 0xFFFFFFFFFFFFFFFF DUP2 GT ISZERO PUSH2 0x209A JUMPI PUSH2 0x2099 PUSH2 0x1BFA JUMP JUMPDEST JUMPDEST PUSH2 0x20A6 DUP7 DUP3 DUP8 ADD PUSH2 0x1DFE JUMP JUMPDEST SWAP2 POP POP SWAP3 POP SWAP3 POP SWAP3 JUMP JUMPDEST PUSH2 0x20B9 DUP2 PUSH2 0x1C35 JUMP JUMPDEST DUP3 MSTORE POP POP JUMP JUMPDEST PUSH1 0x0 PUSH1 0x20 DUP3 ADD SWAP1 POP PUSH2 0x20D4 PUSH1 0x0 DUP4 ADD DUP5 PUSH2 0x20B0 JUMP JUMPDEST SWAP3 SWAP2 POP POP JUMP JUMPDEST PUSH1 0x0 PUSH1 0x20 DUP3 DUP5 SUB SLT ISZERO PUSH2 0x20F0 JUMPI PUSH2 0x20EF PUSH2 0x1BF5 JUMP JUMPDEST JUMPDEST PUSH1 0x0 DUP3 ADD CALLDATALOAD PUSH8 0xFFFFFFFFFFFFFFFF DUP2 GT ISZERO PUSH2 0x210E JUMPI PUSH2 0x210D PUSH2 0x1BFA JUMP JUMPDEST JUMPDEST PUSH2 0x211A DUP5 DUP3 DUP6 ADD PUSH2 0x1DFE JUMP JUMPDEST SWAP2 POP POP SWAP3 SWAP2 POP POP JUMP JUMPDEST PUSH2 0x212C DUP2 PUSH2 0x1BFF JUMP JUMPDEST DUP3 MSTORE POP POP JUMP JUMPDEST PUSH1 0x0 PUSH1 0x80 DUP3 ADD SWAP1 POP PUSH2 0x2147 PUSH1 0x0 DUP4 ADD DUP8 PUSH2 0x20B0 JUMP JUMPDEST PUSH2 0x2154 PUSH1 0x20 DUP4 ADD DUP7 PUSH2 0x2123 JUMP JUMPDEST PUSH2 0x2161 PUSH1 0x40 DUP4 ADD DUP6 PUSH2 0x20B0 JUMP JUMPDEST PUSH2 0x216E PUSH1 0x60 DUP4 ADD DUP5 PUSH2 0x2123 JUMP JUMPDEST SWAP6 SWAP5 POP POP POP POP POP JUMP JUMPDEST PUSH1 0x0 DUP3 DUP3 MSTORE PUSH1 0x20 DUP3 ADD SWAP1 POP SWAP3 SWAP2 POP POP JUMP JUMPDEST PUSH32 0x436865636B426974636F696E536967732F636865636B536967202D2D20526571 PUSH1 0x0 DUP3 ADD MSTORE PUSH32 0x756972657320756E636F6D7072657373656420756E7072656669786564207075 PUSH1 0x20 DUP3 ADD MSTORE PUSH32 0x626B657900000000000000000000000000000000000000000000000000000000 PUSH1 0x40 DUP3 ADD MSTORE POP JUMP JUMPDEST PUSH1 0x0 PUSH2 0x220A PUSH1 0x44 DUP4 PUSH2 0x2177 JUMP JUMPDEST SWAP2 POP PUSH2 0x2215 DUP3 PUSH2 0x2188 JUMP JUMPDEST PUSH1 0x60 DUP3 ADD SWAP1 POP SWAP2 SWAP1 POP JUMP JUMPDEST PUSH1 0x0 PUSH1 0x20 DUP3 ADD SWAP1 POP DUP2 DUP2 SUB PUSH1 0x0 DUP4 ADD MSTORE PUSH2 0x2239 DUP2 PUSH2 0x21FD JUMP JUMPDEST SWAP1 POP SWAP2 SWAP1 POP JUMP JUMPDEST PUSH2 0x2249 DUP2 PUSH2 0x1F03 JUMP JUMPDEST DUP3 MSTORE POP POP JUMP JUMPDEST PUSH1 0x0 PUSH1 0x80 DUP3 ADD SWAP1 POP PUSH2 0x2264 PUSH1 0x0 DUP4 ADD DUP8 PUSH2 0x2123 JUMP JUMPDEST PUSH2 0x2271 PUSH1 0x20 DUP4 ADD DUP7 PUSH2 0x2240 JUMP JUMPDEST PUSH2 0x227E PUSH1 0x40 DUP4 ADD DUP6 PUSH2 0x2123 JUMP JUMPDEST PUSH2 0x228B PUSH1 0x60 DUP4 ADD DUP5 PUSH2 0x2123 JUMP JUMPDEST SWAP6 SWAP5 POP POP POP POP POP JUMP JUMPDEST PUSH32 0x4E487B7100000000000000000000000000000000000000000000000000000000 PUSH1 0x0 MSTORE PUSH1 0x32 PUSH1 0x4 MSTORE PUSH1 0x24 PUSH1 0x0 REVERT JUMPDEST PUSH32 0x4E487B7100000000000000000000000000000000000000000000000000000000 PUSH1 0x0 MSTORE PUSH1 0x11 PUSH1 0x4 MSTORE PUSH1 0x24 PUSH1 0x0 REVERT JUMPDEST PUSH1 0x0 PUSH2 0x22FD DUP3 PUSH2 0x1C35 JUMP JUMPDEST SWAP2 POP PUSH32 0xFFFFFFFFFFFFFFFFFFFFFFFFFFFFFFFFFFFFFFFFFFFFFFFFFFFFFFFFFFFFFFFF DUP3 SUB PUSH2 0x232F JUMPI PUSH2 0x232E PUSH2 0x22C3 JUMP JUMPDEST JUMPDEST PUSH1 0x1 DUP3 ADD SWAP1 POP SWAP2 SWAP1 POP JUMP JUMPDEST PUSH1 0x0 DUP2 MLOAD SWAP1 POP SWAP2 SWAP1 POP JUMP JUMPDEST PUSH1 0x0 JUMPDEST DUP4 DUP2 LT ISZERO PUSH2 0x2363 JUMPI DUP1 DUP3 ADD MLOAD DUP2 DUP5 ADD MSTORE PUSH1 0x20 DUP2 ADD SWAP1 POP PUSH2 0x2348 JUMP JUMPDEST PUSH1 0x0 DUP5 DUP5 ADD MSTORE POP POP POP POP JUMP JUMPDEST PUSH1 0x0 PUSH2 0x237A DUP3 PUSH2 0x233A JUMP JUMPDEST PUSH2 0x2384 DUP2 DUP6 PUSH2 0x2177 JUMP JUMPDEST SWAP4 POP PUSH2 0x2394 DUP2 DUP6 PUSH1 0x20 DUP7 ADD PUSH2 0x2345 JUMP JUMPDEST PUSH2 0x239D DUP2 PUSH2 0x1CF0 JUMP JUMPDEST DUP5 ADD SWAP2 POP POP SWAP3 SWAP2 POP POP JUMP JUMPDEST PUSH1 0x0 PUSH1 0x40 DUP3 ADD SWAP1 POP DUP2 DUP2 SUB PUSH1 0x0 DUP4 ADD MSTORE PUSH2 0x23C2 DUP2 DUP6 PUSH2 0x236F JUMP JUMPDEST SWAP1 POP PUSH2 0x23D1 PUSH1 0x20 DUP4 ADD DUP5 PUSH2 0x20B0 JUMP JUMPDEST SWAP4 SWAP3 POP POP POP JUMP JUMPDEST PUSH1 0x0 PUSH2 0x23E3 DUP3 PUSH2 0x1C35 JUMP JUMPDEST SWAP2 POP PUSH2 0x23EE DUP4 PUSH2 0x1C35 JUMP JUMPDEST SWAP3 POP DUP3 DUP3 MUL PUSH2 0x23FC DUP2 PUSH2 0x1C35 JUMP JUMPDEST SWAP2 POP DUP3 DUP3 DIV DUP5 EQ DUP4 ISZERO OR PUSH2 0x2413 JUMPI PUSH2 0x2412 PUSH2 0x22C3 JUMP JUMPDEST JUMPDEST POP SWAP3 SWAP2 POP POP JUMP JUMPDEST PUSH1 0x0 PUSH2 0x2425 DUP3 PUSH2 0x1C35 JUMP JUMPDEST SWAP2 POP PUSH2 0x2430 DUP4 PUSH2 0x1C35 JUMP JUMPDEST SWAP3 POP DUP3 DUP3 ADD SWAP1 POP DUP1 DUP3 GT ISZERO PUSH2 0x2448 JUMPI PUSH2 0x2447 PUSH2 0x22C3 JUMP JUMPDEST JUMPDEST SWAP3 SWAP2 POP POP JUMP JUMPDEST PUSH1 0x0 PUSH2 0x2459 DUP3 PUSH2 0x1C35 JUMP JUMPDEST SWAP2 POP PUSH1 0x0 DUP3 SUB PUSH2 0x246C JUMPI PUSH2 0x246B PUSH2 0x22C3 JUMP JUMPDEST JUMPDEST PUSH1 0x1 DUP3 SUB SWAP1 POP SWAP2 SWAP1 POP JUMP JUMPDEST PUSH1 0x0 PUSH1 0x40 DUP3 ADD SWAP1 POP PUSH2 0x248C PUSH1 0x0 DUP4 ADD DUP6 PUSH2 0x20B0 JUMP JUMPDEST PUSH2 0x2499 PUSH1 0x20 DUP4 ADD DUP5 PUSH2 0x20B0 JUMP JUMPDEST SWAP4 SWAP3 POP POP POP JUMP JUMPDEST PUSH1 0x0 PUSH1 0x40 DUP3 ADD SWAP1 POP DUP2 DUP2 SUB PUSH1 0x0 DUP4 ADD MSTORE PUSH2 0x24BA DUP2 DUP6 PUSH2 0x236F JUMP JUMPDEST SWAP1 POP DUP2 DUP2 SUB PUSH1 0x20 DUP4 ADD MSTORE PUSH2 0x24CE DUP2 DUP5 PUSH2 0x236F JUMP JUMPDEST SWAP1 POP SWAP4 SWAP3 POP POP POP JUMP JUMPDEST PUSH32 0x5075626B6579206D7573742062652036342D62797465207261772C20756E636F PUSH1 0x0 DUP3 ADD MSTORE PUSH32 0x6D70726573736564206B65792E00000000000000000000000000000000000000 PUSH1 0x20 DUP3 ADD MSTORE POP JUMP JUMPDEST PUSH1 0x0 PUSH2 0x2533 PUSH1 0x2D DUP4 PUSH2 0x2177 JUMP JUMPDEST SWAP2 POP PUSH2 0x253E DUP3 PUSH2 0x24D7 JUMP JUMPDEST PUSH1 0x40 DUP3 ADD SWAP1 POP SWAP2 SWAP1 POP JUMP JUMPDEST PUSH1 0x0 PUSH1 0x20 DUP3 ADD SWAP1 POP DUP2 DUP2 SUB PUSH1 0x0 DUP4 ADD MSTORE PUSH2 0x2562 DUP2 PUSH2 0x2526 JUMP JUMPDEST SWAP1 POP SWAP2 SWAP1 POP JUMP JUMPDEST PUSH1 0x0 PUSH2 0xFFFF DUP3 AND SWAP1 POP SWAP2 SWAP1 POP JUMP JUMPDEST PUSH1 0x0 PUSH2 0x2582 DUP3 PUSH2 0x2569 JUMP JUMPDEST SWAP2 POP PUSH2 0x258D DUP4 PUSH2 0x2569 JUMP JUMPDEST SWAP3 POP DUP3 DUP3 MUL PUSH2 0x259B DUP2 PUSH2 0x2569 JUMP JUMPDEST SWAP2 POP DUP1 DUP3 EQ PUSH2 0x25AD JUMPI PUSH2 0x25AC PUSH2 0x22C3 JUMP JUMPDEST JUMPDEST POP SWAP3 SWAP2 POP POP JUMP JUMPDEST PUSH1 0x0 PUSH4 0xFFFFFFFF DUP3 AND SWAP1 POP SWAP2 SWAP1 POP JUMP JUMPDEST PUSH1 0x0 PUSH2 0x25CF DUP3 PUSH2 0x25B4 JUMP JUMPDEST SWAP2 POP PUSH2 0x25DA DUP4 PUSH2 0x25B4 JUMP JUMPDEST SWAP3 POP DUP3 DUP3 MUL PUSH2 0x25E8 DUP2 PUSH2 0x25B4 JUMP JUMPDEST SWAP2 POP DUP1 DUP3 EQ PUSH2 0x25FA JUMPI PUSH2 0x25F9 PUSH2 0x22C3 JUMP JUMPDEST JUMPDEST POP SWAP3 SWAP2 POP POP JUMP JUMPDEST PUSH1 0x0 PUSH8 0xFFFFFFFFFFFFFFFF DUP3 AND SWAP1 POP SWAP2 SWAP1 POP JUMP JUMPDEST PUSH1 0x0 PUSH2 0x2620 DUP3 PUSH2 0x2601 JUMP JUMPDEST SWAP2 POP PUSH2 0x262B DUP4 PUSH2 0x2601 JUMP JUMPDEST SWAP3 POP DUP3 DUP3 MUL PUSH2 0x2639 DUP2 PUSH2 0x2601 JUMP JUMPDEST SWAP2 POP DUP1 DUP3 EQ PUSH2 0x264B JUMPI PUSH2 0x264A PUSH2 0x22C3 JUMP JUMPDEST JUMPDEST POP SWAP3 SWAP2 POP POP JUMP JUMPDEST PUSH1 0x0 PUSH20 0xFFFFFFFFFFFFFFFFFFFFFFFFFFFFFFFFFFFFFFFF DUP3 AND SWAP1 POP SWAP2 SWAP1 POP JUMP JUMPDEST PUSH1 0x0 PUSH2 0x267D DUP3 PUSH2 0x2652 JUMP JUMPDEST SWAP2 POP PUSH2 0x2688 DUP4 PUSH2 0x2652 JUMP JUMPDEST SWAP3 POP DUP3 DUP3 SUB SWAP1 POP PUSH20 0xFFFFFFFFFFFFFFFFFFFFFFFFFFFFFFFFFFFFFFFF DUP2 GT ISZERO PUSH2 0x26B4 JUMPI PUSH2 0x26B3 PUSH2 0x22C3 JUMP JUMPDEST JUMPDEST SWAP3 SWAP2 POP POP JUMP JUMPDEST PUSH1 0x0 PUSH2 0x26C5 DUP3 PUSH2 0x2652 JUMP JUMPDEST SWAP2 POP PUSH2 0x26D0 DUP4 PUSH2 0x2652 JUMP JUMPDEST SWAP3 POP DUP3 DUP3 MUL PUSH2 0x26DE DUP2 PUSH2 0x2652 JUMP JUMPDEST SWAP2 POP DUP3 DUP3 DIV DUP5 EQ DUP4 ISZERO OR PUSH2 0x26F5 JUMPI PUSH2 0x26F4 PUSH2 0x22C3 JUMP JUMPDEST JUMPDEST POP SWAP3 SWAP2 POP POP JUMP JUMPDEST PUSH1 0x0 PUSH2 0x2707 DUP3 PUSH2 0x2652 JUMP JUMPDEST SWAP2 POP PUSH2 0x2712 DUP4 PUSH2 0x2652 JUMP JUMPDEST SWAP3 POP DUP3 DUP3 ADD SWAP1 POP PUSH20 0xFFFFFFFFFFFFFFFFFFFFFFFFFFFFFFFFFFFFFFFF DUP2 GT ISZERO PUSH2 0x273E JUMPI PUSH2 0x273D PUSH2 0x22C3 JUMP JUMPDEST JUMPDEST SWAP3 SWAP2 POP POP JUMP JUMPDEST PUSH1 0x0 PUSH2 0x274F DUP3 PUSH2 0x2652 JUMP JUMPDEST SWAP2 POP PUSH20 0xFFFFFFFFFFFFFFFFFFFFFFFFFFFFFFFFFFFFFFFF DUP3 SUB PUSH2 0x2775 JUMPI PUSH2 0x2774 PUSH2 0x22C3 JUMP JUMPDEST JUMPDEST PUSH1 0x1 DUP3 ADD SWAP1 POP SWAP2 SWAP1 POP JUMP JUMPDEST PUSH1 0x0 PUSH2 0x278B DUP3 PUSH2 0x1C35 JUMP JUMPDEST SWAP2 POP PUSH2 0x2796 DUP4 PUSH2 0x1C35 JUMP JUMPDEST SWAP3 POP DUP3 DUP3 SUB SWAP1 POP DUP2 DUP2 GT ISZERO PUSH2 0x27AE JUMPI PUSH2 0x27AD PUSH2 0x22C3 JUMP JUMPDEST JUMPDEST SWAP3 SWAP2 POP POP JUMP JUMPDEST PUSH32 0x4F766572666C6F7720647572696E67206164646974696F6E2E00000000000000 PUSH1 0x0 DUP3 ADD MSTORE POP JUMP JUMPDEST PUSH1 0x0 PUSH2 0x27EA PUSH1 0x19 DUP4 PUSH2 0x2177 JUMP JUMPDEST SWAP2 POP PUSH2 0x27F5 DUP3 PUSH2 0x27B4 JUMP JUMPDEST PUSH1 0x20 DUP3 ADD SWAP1 POP SWAP2 SWAP1 POP JUMP JUMPDEST PUSH1 0x0 PUSH1 0x20 DUP3 ADD SWAP1 POP DUP2 DUP2 SUB PUSH1 0x0 DUP4 ADD MSTORE PUSH2 0x2819 DUP2 PUSH2 0x27DD JUMP JUMPDEST SWAP1 POP SWAP2 SWAP1 POP JUMP JUMPDEST PUSH32 0x4E487B7100000000000000000000000000000000000000000000000000000000 PUSH1 0x0 MSTORE PUSH1 0x51 PUSH1 0x4 MSTORE PUSH1 0x24 PUSH1 0x0 REVERT INVALID LOG2 PUSH5 0x6970667358 0x22 SLT KECCAK256 DUP2 SWAP15 CALLDATALOAD SHR DUP4 0xC2 ORIGIN 0xAB ADD PUSH30 0x4509CE02DCA2CFFED6F8CDF55A3C6A2373BAF3A2965B64736F6C63430008 SGT STOP CALLER "},"methodIdentifiers":{"dispute(bytes,bytes,bytes,bytes)":"43f104d2","getTheThreeOutputs(bytes)":"a9f793aa","resolveDispute(bytes,bytes,bytes)":"79a85bd9","settle()":"11da60b4","setup(bytes32,bytes32,bytes32,uint256,uint256)":"06ac0e26","submitProof(bytes,bytes,bytes,bytes)":"3740d249","timestamp()":"b80777ea","timestamp_dispute()":"a5dd32ac","verifySignature(bytes,bytes32,uint8,bytes32,bytes32)":"47aa9573"}}}}}