{"contracts/LNBridge.sol":{"LNBridge":{"abi":[{"inputs":[{"internalType":"uint256","name":"value","type":"uint256"},{"internalType":"uint256","name":"length","type":"uint256"}],"name":"StringsInsufficientHexLength","type":"error"},{"inputs":[{"internalType":"bytes","name":"rawTxP_locked","type":"bytes"},{"internalType":"bytes","name":"sigV","type":"bytes"},{"internalType":"bytes","name":"rawTxV_unlocked","type":"bytes"},{"internalType":"bytes","name":"sigP","type":"bytes"}],"name":"dispute","outputs":[],"stateMutability":"nonpayable","type":"function"},{"inputs":[{"internalType":"bytes","name":"_txBytes","type":"bytes"}],"name":"readThreeOutputs","outputs":[{"internalType":"uint256","name":"","type":"uint256"},{"internalType":"bytes32","name":"","type":"bytes32"},{"internalType":"uint256","name":"","type":"uint256"},{"internalType":"bytes32","name":"","type":"bytes32"},{"internalType":"uint256","name":"","type":"uint256"},{"internalType":"bytes32","name":"","type":"bytes32"}],"stateMutability":"nonpayable","type":"function"},{"inputs":[{"internalType":"bytes","name":"oldRevSecret","type":"bytes"},{"internalType":"bytes","name":"rawTxP_unlocked","type":"bytes"},{"internalType":"bytes","name":"sigV","type":"bytes"}],"name":"resolveDispute","outputs":[],"stateMutability":"nonpayable","type":"function"},{"inputs":[],"name":"settle","outputs":[],"stateMutability":"nonpayable","type":"function"},{"inputs":[{"internalType":"bytes32","name":"_fundingTxId","type":"bytes32"},{"internalType":"bytes32","name":"_pkProver","type":"bytes32"},{"internalType":"bytes32","name":"_pkVerifier","type":"bytes32"},{"internalType":"uint256","name":"_index","type":"uint256"},{"internalType":"uint256","name":"_timestamp","type":"uint256"}],"name":"setup","outputs":[],"stateMutability":"nonpayable","type":"function"},{"inputs":[{"internalType":"bytes","name":"rawTxP_unlocked","type":"bytes"},{"internalType":"bytes","name":"sigV","type":"bytes"},{"internalType":"bytes","name":"rawTxV_unlocked","type":"bytes"},{"internalType":"bytes","name":"sigP","type":"bytes"}],"name":"submitProof","outputs":[],"stateMutability":"nonpayable","type":"function"},{"inputs":[],"name":"timestamp","outputs":[{"internalType":"uint256","name":"","type":"uint256"}],"stateMutability":"view","type":"function"},{"inputs":[],"name":"timestamp_dispute","outputs":[{"internalType":"uint256","name":"","type":"uint256"}],"stateMutability":"view","type":"function"},{"inputs":[{"internalType":"bytes","name":"pk","type":"bytes"},{"internalType":"bytes32","name":"digest","type":"bytes32"},{"internalType":"uint8","name":"v","type":"uint8"},{"internalType":"bytes32","name":"r","type":"bytes32"},{"internalType":"bytes32","name":"s","type":"bytes32"}],"name":"verifySignature","outputs":[{"internalType":"bool","name":"","type":"bool"}],"stateMutability":"view","type":"function"}],"evm":{"bytecode":{"linkReferences":{},"object":"608060405234801561001057600080fd5b5061303d806100206000396000f3fe608060405234801561001057600080fd5b50600436106100935760003560e01c806343f104d21161006657806343f104d21461010f57806347aa95731461012b57806379a85bd91461015b578063a5dd32ac14610177578063b80777ea1461019557610093565b806306ac0e261461009857806311da60b4146100b45780633740d249146100be5780633c1c0699146100da575b600080fd5b6100b260048036038101906100ad91906123e5565b6101b3565b005b6100bc6101dd565b005b6100d860048036038101906100d391906125a6565b6101df565b005b6100f460048036038101906100ef919061267d565b6101e5565b604051610106969594939291906126e4565b60405180910390f35b610129600480360381019061012491906125a6565b6103da565b005b6101456004803603810190610140919061277e565b6103e0565b6040516101529190612830565b60405180910390f35b6101756004803603810190610170919061284b565b6103fa565b005b61017f6103ff565b60405161018c91906128f2565b60405180910390f35b61019d610405565b6040516101aa91906128f2565b60405180910390f35b84600081905550836001819055508260028190555081600381905550806004819055505050505050565b565b50505050565b6000806000806000806000806000806000806102008d61040b565b809650819750829850839950849a50859b505050505050506102576040518060400160405280601581526020017f436865636b2076616c75655f6f75747075745f313a000000000000000000000081525087610716565b6102a36040518060400160405280601481526020017f436865636b207363726970745f646174615f313a00000000000000000000000081525061029e8760001c60206107b2565b6109f8565b6102e26040518060400160405280601581526020017f436865636b2076616c75655f6f75747075745f323a000000000000000000000081525085610716565b61032e6040518060400160405280601481526020017f436865636b207363726970745f646174615f323a0000000000000000000000008152506103298560001c60206107b2565b6109f8565b61036d6040518060400160405280601581526020017f436865636b2076616c75655f6f75747075745f333a000000000000000000000081525083610716565b6103b96040518060400160405280601481526020017f436865636b207363726970745f646174615f333a0000000000000000000000008152506103b48360001c60206107b2565b6109f8565b8585858585859b509b509b509b509b509b5050505050505091939550919395565b50505050565b60006103ef8686868686610a94565b905095945050505050565b505050565b60055481565b60045481565b600080600080600080600080600267ffffffffffffffff8111156104325761043161247b565b5b6040519080825280602002602001820160405280156104605781602001602082028036833780820191505090505b5090506000600367ffffffffffffffff8111156104805761047f61247b565b5b6040519080825280602002602001820160405280156104ae5781602001602082028036833780820191505090505b5090506000600367ffffffffffffffff8111156104ce576104cd61247b565b5b6040519080825280602002602001820160405280156104fc5781602001602082028036833780820191505090505b5090506000600367ffffffffffffffff81111561051c5761051b61247b565b5b60405190808252806020026020018201604052801561054a5781602001602082028036833780820191505090505b5090506000600367ffffffffffffffff81111561056a5761056961247b565b5b6040519080825280602002602001820160405280156105985781602001602082028036833780820191505090505b509050600495506105ab8d876000610b76565b80975081965050506105bf8d876000610c88565b8099508197508296508395505050505060005b600381101561065257600061061c8f8684815181106105f4576105f361290d565b5b602002602001015188858151811061060f5761060e61290d565b5b6020026020010151610e7f565b9050808383815181106106325761063161290d565b5b60200260200101818152505050808061064a9061296b565b9150506105d2565b50816000815181106106675761066661290d565b5b6020026020010151816000815181106106835761068261290d565b5b60200260200101518360018151811061069f5761069e61290d565b5b6020026020010151836001815181106106bb576106ba61290d565b5b6020026020010151856002815181106106d7576106d661290d565b5b6020026020010151856002815181106106f3576106f261290d565b5b60200260200101519b509b509b509b509b509b5050505050505091939550919395565b6107ae828260405160240161072c929190612a32565b6040516020818303038152906040527fb60e72cc000000000000000000000000000000000000000000000000000000007bffffffffffffffffffffffffffffffffffffffffffffffffffffffff19166020820180517bffffffffffffffffffffffffffffffffffffffffffffffffffffffff8381831617835250505050611059565b5050565b60606000839050600060028460026107ca9190612a62565b6107d49190612aa4565b67ffffffffffffffff8111156107ed576107ec61247b565b5b6040519080825280601f01601f19166020018201604052801561081f5781602001600182028036833780820191505090505b5090507f3000000000000000000000000000000000000000000000000000000000000000816000815181106108575761085661290d565b5b60200101907effffffffffffffffffffffffffffffffffffffffffffffffffffffffffffff1916908160001a9053507f7800000000000000000000000000000000000000000000000000000000000000816001815181106108bb576108ba61290d565b5b60200101907effffffffffffffffffffffffffffffffffffffffffffffffffffffffffffff1916908160001a905350600060018560026108fb9190612a62565b6109059190612aa4565b90505b60018111156109a5577f3031323334353637383961626364656600000000000000000000000000000000600f8416601081106109475761094661290d565b5b1a60f81b82828151811061095e5761095d61290d565b5b60200101907effffffffffffffffffffffffffffffffffffffffffffffffffffffffffffff1916908160001a905350600483901c92508061099e90612ad8565b9050610908565b50600082146109ed5784846040517fe22e27eb0000000000000000000000000000000000000000000000000000000081526004016109e4929190612b01565b60405180910390fd5b809250505092915050565b610a908282604051602401610a0e929190612b2a565b6040516020818303038152906040527f4b5c4277000000000000000000000000000000000000000000000000000000007bffffffffffffffffffffffffffffffffffffffffffffffffffffffff19166020820180517bffffffffffffffffffffffffffffffffffffffffffffffffffffffff8381831617835250505050611059565b5050565b60006040865114610ada576040517f08c379a0000000000000000000000000000000000000000000000000000000008152600401610ad190612bf9565b60405180910390fd5b6000610ae587611073565b9050600060018787878760405160008152602001604052604051610b0c9493929190612c28565b6020604051602081039080840390855afa158015610b2e573d6000803e3d6000fd5b5050506020604051035190508173ffffffffffffffffffffffffffffffffffffffff168173ffffffffffffffffffffffffffffffffffffffff16149250505095945050505050565b6060600080600080610b8888886110eb565b80985081945050506000861480610b9e57508286115b15610bab57829150610baf565b8591505b60008267ffffffffffffffff811115610bcb57610bca61247b565b5b604051908082528060200260200182016040528015610bf95781602001602082028036833780820191505090505b50905060005b83811015610c7557602489610c149190612aa4565b9850610c208a8a6110eb565b809a50819450505082828281518110610c3c57610c3b61290d565b5b602002602001018181525050600483610c559190612aa4565b89610c609190612aa4565b98508080610c6d9061296b565b915050610bff565b5080889550955050505050935093915050565b6060806060600080600080610c9d8a8a6110eb565b809a5081945050506000881480610cb357508288115b15610cc057829150610cc4565b8791505b60008267ffffffffffffffff811115610ce057610cdf61247b565b5b604051908082528060200260200182016040528015610d0e5781602001602082028036833780820191505090505b50905060008367ffffffffffffffff811115610d2d57610d2c61247b565b5b604051908082528060200260200182016040528015610d5b5781602001602082028036833780820191505090505b50905060008467ffffffffffffffff811115610d7a57610d7961247b565b5b604051908082528060200260200182016040528015610da85781602001602082028036833780820191505090505b50905060005b85811015610e6357610dc28e8e60406111d3565b828281518110610dd557610dd461290d565b5b60200260200101818152505060088d610dee9190612aa4565b9c50610dfa8e8e6110eb565b809e5081965050508c848281518110610e1657610e1561290d565b5b60200260200101818152505084838281518110610e3657610e3561290d565b5b602002602001018181525050848d610e4e9190612aa4565b9c508080610e5b9061296b565b915050610dae565b508083838e995099509950995050505050505093509350935093565b6000610e8c84848461163e565b15610efb57610ecf6040518060400160405280601381526020017f506172736564205032504b48206f757470757400000000000000000000000000815250611803565b610ee584600385610ee09190612aa4565b61189c565b6bffffffffffffffffffffffff19169050611052565b610f0684848461197f565b15610f7557610f496040518060400160405280601281526020017f5061727365642050325348206f75747075740000000000000000000000000000815250611803565b610f5f84600285610f5a9190612aa4565b61189c565b6bffffffffffffffffffffffff19169050611052565b610f80848484611a9c565b15610fe057610fc36040518060400160405280601781526020017f506172736564204f505f52455455524e206f7574707574000000000000000000815250611803565b610fd984600285610fd49190612aa4565b611b5f565b9050611052565b610feb848484611bea565b1561104b5761102e6040518060400160405280601b81526020017f506172736564204c696768746e696e6748544c43206f75747075740000000000815250611803565b6110448460028561103f9190612aa4565b611b5f565b9050611052565b6000801b90505b9392505050565b611070816110686121996121ba565b63ffffffff16565b50565b600060408251146110b9576040517f08c379a00000000000000000000000000000000000000000000000000000000081526004016110b090612cdf565b60405180910390fd5b60006110dd6110d26000856121c590919063ffffffff16565b62ffffff19166121f0565b90508060001c915050919050565b60008060008484815181106111035761110261290d565b5b602001015160f81c60f81b60f81c90506001846111209190612aa4565b935060fd8160ff1610156111405780848160ff16915092509250506111cc565b60fd8160ff160361116e57611157858560106111d3565b6002856111649190612aa4565b92509250506111cc565b60fe8160ff160361119c57611185858560206111d3565b6004856111929190612aa4565b92509250506111cc565b60ff8160ff16036111ca576111b3858560406111d3565b6008856111c09190612aa4565b92509250506111cc565b505b9250929050565b600060088203611208578383815181106111f0576111ef61290d565b5b602001015160f81c60f81b60f81c60ff169050611637565b6010820361128a57610100846001856112219190612aa4565b815181106112325761123161290d565b5b602001015160f81c60f81b60f81c60ff1661124d9190612d0d565b61ffff168484815181106112645761126361290d565b5b602001015160f81c60f81b60f81c60ff1661ffff166112839190612aa4565b9050611637565b602082036113ad576301000000846003856112a59190612aa4565b815181106112b6576112b561290d565b5b602001015160f81c60f81b60f81c60ff166112d19190612d5a565b63ffffffff1662010000856002866112e99190612aa4565b815181106112fa576112f961290d565b5b602001015160f81c60f81b60f81c60ff166113159190612d5a565b63ffffffff166101008660018761132c9190612aa4565b8151811061133d5761133c61290d565b5b602001015160f81c60f81b60f81c60ff166113589190612d5a565b63ffffffff168686815181106113715761137061290d565b5b602001015160f81c60f81b60f81c60ff1663ffffffff166113929190612aa4565b61139c9190612aa4565b6113a69190612aa4565b9050611637565b6040820361163657670100000000000000846007856113cc9190612aa4565b815181106113dd576113dc61290d565b5b602001015160f81c60f81b60f81c60ff166113f89190612dab565b67ffffffffffffffff166601000000000000856006866114189190612aa4565b815181106114295761142861290d565b5b602001015160f81c60f81b60f81c60ff166114449190612dab565b67ffffffffffffffff1665010000000000866005876114639190612aa4565b815181106114745761147361290d565b5b602001015160f81c60f81b60f81c60ff1661148f9190612dab565b67ffffffffffffffff16640100000000876004886114ad9190612aa4565b815181106114be576114bd61290d565b5b602001015160f81c60f81b60f81c60ff166114d99190612dab565b67ffffffffffffffff166301000000886003896114f69190612aa4565b815181106115075761150661290d565b5b602001015160f81c60f81b60f81c60ff166115229190612dab565b67ffffffffffffffff16620100008960028a61153e9190612aa4565b8151811061154f5761154e61290d565b5b602001015160f81c60f81b60f81c60ff1661156a9190612dab565b67ffffffffffffffff166101008a60018b6115859190612aa4565b815181106115965761159561290d565b5b602001015160f81c60f81b60f81c60ff166115b19190612dab565b67ffffffffffffffff168a8a815181106115ce576115cd61290d565b5b602001015160f81c60f81b60f81c60ff1667ffffffffffffffff166115f39190612aa4565b6115fd9190612aa4565b6116079190612aa4565b6116119190612aa4565b61161b9190612aa4565b6116259190612aa4565b61162f9190612aa4565b9050611637565b5b9392505050565b60006019821480156116925750607660f81b8484815181106116635761166261290d565b5b602001015160f81c60f81b7effffffffffffffffffffffffffffffffffffffffffffffffffffffffffffff1916145b80156116ec575060a960f81b846001856116ac9190612aa4565b815181106116bd576116bc61290d565b5b602001015160f81c60f81b7effffffffffffffffffffffffffffffffffffffffffffffffffffffffffffff1916145b80156117465750601460f81b846002856117069190612aa4565b815181106117175761171661290d565b5b602001015160f81c60f81b7effffffffffffffffffffffffffffffffffffffffffffffffffffffffffffff1916145b80156117a05750608860f81b846017856117609190612aa4565b815181106117715761177061290d565b5b602001015160f81c60f81b7effffffffffffffffffffffffffffffffffffffffffffffffffffffffffffff1916145b80156117fa575060ac60f81b846018856117ba9190612aa4565b815181106117cb576117ca61290d565b5b602001015160f81c60f81b7effffffffffffffffffffffffffffffffffffffffffffffffffffffffffffff1916145b90509392505050565b611899816040516024016118179190612de8565b6040516020818303038152906040527f41304fac000000000000000000000000000000000000000000000000000000007bffffffffffffffffffffffffffffffffffffffffffffffffffffffff19166020820180517bffffffffffffffffffffffffffffffffffffffffffffffffffffffff8381831617835250505050611059565b50565b6000806000905060005b60148173ffffffffffffffffffffffffffffffffffffffff161015611971578060136118d29190612e2a565b60086118de9190612e72565b73ffffffffffffffffffffffffffffffffffffffff1685858373ffffffffffffffffffffffffffffffffffffffff166119179190612aa4565b815181106119285761192761290d565b5b602001015160f81c60f81b60f81c60ff1673ffffffffffffffffffffffffffffffffffffffff16901b8261195c9190612eb4565b9150808061196990612efc565b9150506118a6565b508060601b91505092915050565b60006017821480156119df575060a960f81b8460008561199f9190612aa4565b815181106119b0576119af61290d565b5b602001015160f81c60f81b7effffffffffffffffffffffffffffffffffffffffffffffffffffffffffffff1916145b8015611a395750601460f81b846001856119f99190612aa4565b81518110611a0a57611a0961290d565b5b602001015160f81c60f81b7effffffffffffffffffffffffffffffffffffffffffffffffffffffffffffff1916145b8015611a935750608760f81b84601685611a539190612aa4565b81518110611a6457611a6361290d565b5b602001015160f81c60f81b7effffffffffffffffffffffffffffffffffffffffffffffffffffffffffffff1916145b90509392505050565b6000602282148015611afc5750606a60f81b84600085611abc9190612aa4565b81518110611acd57611acc61290d565b5b602001015160f81c60f81b7effffffffffffffffffffffffffffffffffffffffffffffffffffffffffffff1916145b8015611b565750602060f81b84600185611b169190612aa4565b81518110611b2757611b2661290d565b5b602001015160f81c60f81b7effffffffffffffffffffffffffffffffffffffffffffffffffffffffffffff1916145b90509392505050565b6000806000905060005b6020811015611bdc5780601f611b7f9190612f38565b6008611b8b9190612a62565b858583611b989190612aa4565b81518110611ba957611ba861290d565b5b602001015160f81c60f81b60f81c60ff16901b82611bc79190612aa4565b91508080611bd49061296b565b915050611b69565b508060001b91505092915050565b6000607282148015611c4a5750607660f81b84600085611c0a9190612aa4565b81518110611c1b57611c1a61290d565b5b602001015160f81c60f81b7effffffffffffffffffffffffffffffffffffffffffffffffffffffffffffff1916145b8015611ca45750602160f81b84600185611c649190612aa4565b81518110611c7557611c7461290d565b5b602001015160f81c60f81b7effffffffffffffffffffffffffffffffffffffffffffffffffffffffffffff1916145b8015611cfe575060ac60f81b84602385611cbe9190612aa4565b81518110611ccf57611cce61290d565b5b602001015160f81c60f81b7effffffffffffffffffffffffffffffffffffffffffffffffffffffffffffff1916145b8015611d585750606360f81b84602485611d189190612aa4565b81518110611d2957611d2861290d565b5b602001015160f81c60f81b7effffffffffffffffffffffffffffffffffffffffffffffffffffffffffffff1916145b8015611db25750607560f81b84602585611d729190612aa4565b81518110611d8357611d8261290d565b5b602001015160f81c60f81b7effffffffffffffffffffffffffffffffffffffffffffffffffffffffffffff1916145b8015611e0c575060aa60f81b84602685611dcc9190612aa4565b81518110611ddd57611ddc61290d565b5b602001015160f81c60f81b7effffffffffffffffffffffffffffffffffffffffffffffffffffffffffffff1916145b8015611e665750602060f81b84602785611e269190612aa4565b81518110611e3757611e3661290d565b5b602001015160f81c60f81b7effffffffffffffffffffffffffffffffffffffffffffffffffffffffffffff1916145b8015611ec05750608860f81b84604885611e809190612aa4565b81518110611e9157611e9061290d565b5b602001015160f81c60f81b7effffffffffffffffffffffffffffffffffffffffffffffffffffffffffffff1916145b8015611f1a5750606760f81b84604985611eda9190612aa4565b81518110611eeb57611eea61290d565b5b602001015160f81c60f81b7effffffffffffffffffffffffffffffffffffffffffffffffffffffffffffff1916145b8015611f745750602160f81b84604a85611f349190612aa4565b81518110611f4557611f4461290d565b5b602001015160f81c60f81b7effffffffffffffffffffffffffffffffffffffffffffffffffffffffffffff1916145b8015611fce575060ad60f81b84606c85611f8e9190612aa4565b81518110611f9f57611f9e61290d565b5b602001015160f81c60f81b7effffffffffffffffffffffffffffffffffffffffffffffffffffffffffffff1916145b80156120285750605260f81b84606d85611fe89190612aa4565b81518110611ff957611ff861290d565b5b602001015160f81c60f81b7effffffffffffffffffffffffffffffffffffffffffffffffffffffffffffff1916145b8015612082575060b260f81b84606e856120429190612aa4565b815181106120535761205261290d565b5b602001015160f81c60f81b7effffffffffffffffffffffffffffffffffffffffffffffffffffffffffffff1916145b80156120dc5750607560f81b84606f8561209c9190612aa4565b815181106120ad576120ac61290d565b5b602001015160f81c60f81b7effffffffffffffffffffffffffffffffffffffffffffffffffffffffffffff1916145b80156121365750606860f81b846070856120f69190612aa4565b815181106121075761210661290d565b5b602001015160f81c60f81b7effffffffffffffffffffffffffffffffffffffffffffffffffffffffffffff1916145b80156121905750605160f81b846071856121509190612aa4565b815181106121615761216061290d565b5b602001015160f81c60f81b7effffffffffffffffffffffffffffffffffffffffffffffffffffffffffffff1916145b90509392505050565b60006a636f6e736f6c652e6c6f679050600080835160208501845afa505050565b61235b819050919050565b6000808351905060006020850190506121e68464ffffffffff168284612233565b9250505092915050565b6000806121fc836122a1565b6bffffffffffffffffffffffff1690506000612217846122c1565b6bffffffffffffffffffffffff16905080822092505050919050565b60008061224983856122e190919063ffffffff16565b905060405181111561225a57600090505b6000810361228b577fffffffffffffffffffffffffffffffffffffffffffffffffffffffffff00000091505061229a565b61229685858561233a565b9150505b9392505050565b6000806bffffffffffffffffffffffff9050808360781c16915050919050565b6000806bffffffffffffffffffffffff9050808360181c16915050919050565b600081836122ef9190612aa4565b905082811015612334576040517f08c379a000000000000000000000000000000000000000000000000000000000815260040161232b90612fb8565b60405180910390fd5b92915050565b600083811760601b905082811760601b905081811760181b90509392505050565b612363612fd8565b565b6000604051905090565b600080fd5b600080fd5b6000819050919050565b61238c81612379565b811461239757600080fd5b50565b6000813590506123a981612383565b92915050565b6000819050919050565b6123c2816123af565b81146123cd57600080fd5b50565b6000813590506123df816123b9565b92915050565b600080600080600060a086880312156124015761240061236f565b5b600061240f8882890161239a565b95505060206124208882890161239a565b94505060406124318882890161239a565b9350506060612442888289016123d0565b9250506080612453888289016123d0565b9150509295509295909350565b600080fd5b600080fd5b6000601f19601f8301169050919050565b7f4e487b7100000000000000000000000000000000000000000000000000000000600052604160045260246000fd5b6124b38261246a565b810181811067ffffffffffffffff821117156124d2576124d161247b565b5b80604052505050565b60006124e5612365565b90506124f182826124aa565b919050565b600067ffffffffffffffff8211156125115761251061247b565b5b61251a8261246a565b9050602081019050919050565b82818337600083830152505050565b6000612549612544846124f6565b6124db565b90508281526020810184848401111561256557612564612465565b5b612570848285612527565b509392505050565b600082601f83011261258d5761258c612460565b5b813561259d848260208601612536565b91505092915050565b600080600080608085870312156125c0576125bf61236f565b5b600085013567ffffffffffffffff8111156125de576125dd612374565b5b6125ea87828801612578565b945050602085013567ffffffffffffffff81111561260b5761260a612374565b5b61261787828801612578565b935050604085013567ffffffffffffffff81111561263857612637612374565b5b61264487828801612578565b925050606085013567ffffffffffffffff81111561266557612664612374565b5b61267187828801612578565b91505092959194509250565b6000602082840312156126935761269261236f565b5b600082013567ffffffffffffffff8111156126b1576126b0612374565b5b6126bd84828501612578565b91505092915050565b6126cf816123af565b82525050565b6126de81612379565b82525050565b600060c0820190506126f960008301896126c6565b61270660208301886126d5565b61271360408301876126c6565b61272060608301866126d5565b61272d60808301856126c6565b61273a60a08301846126d5565b979650505050505050565b600060ff82169050919050565b61275b81612745565b811461276657600080fd5b50565b60008135905061277881612752565b92915050565b600080600080600060a0868803121561279a5761279961236f565b5b600086013567ffffffffffffffff8111156127b8576127b7612374565b5b6127c488828901612578565b95505060206127d58882890161239a565b94505060406127e688828901612769565b93505060606127f78882890161239a565b92505060806128088882890161239a565b9150509295509295909350565b60008115159050919050565b61282a81612815565b82525050565b60006020820190506128456000830184612821565b92915050565b6000806000606084860312156128645761286361236f565b5b600084013567ffffffffffffffff81111561288257612881612374565b5b61288e86828701612578565b935050602084013567ffffffffffffffff8111156128af576128ae612374565b5b6128bb86828701612578565b925050604084013567ffffffffffffffff8111156128dc576128db612374565b5b6128e886828701612578565b9150509250925092565b600060208201905061290760008301846126c6565b92915050565b7f4e487b7100000000000000000000000000000000000000000000000000000000600052603260045260246000fd5b7f4e487b7100000000000000000000000000000000000000000000000000000000600052601160045260246000fd5b6000612976826123af565b91507fffffffffffffffffffffffffffffffffffffffffffffffffffffffffffffffff82036129a8576129a761293c565b5b600182019050919050565b600081519050919050565b600082825260208201905092915050565b60005b838110156129ed5780820151818401526020810190506129d2565b60008484015250505050565b6000612a04826129b3565b612a0e81856129be565b9350612a1e8185602086016129cf565b612a278161246a565b840191505092915050565b60006040820190508181036000830152612a4c81856129f9565b9050612a5b60208301846126c6565b9392505050565b6000612a6d826123af565b9150612a78836123af565b9250828202612a86816123af565b91508282048414831517612a9d57612a9c61293c565b5b5092915050565b6000612aaf826123af565b9150612aba836123af565b9250828201905080821115612ad257612ad161293c565b5b92915050565b6000612ae3826123af565b915060008203612af657612af561293c565b5b600182039050919050565b6000604082019050612b1660008301856126c6565b612b2360208301846126c6565b9392505050565b60006040820190508181036000830152612b4481856129f9565b90508181036020830152612b5881846129f9565b90509392505050565b7f436865636b426974636f696e536967732f636865636b536967202d2d2052657160008201527f756972657320756e636f6d7072657373656420756e707265666978656420707560208201527f626b657900000000000000000000000000000000000000000000000000000000604082015250565b6000612be36044836129be565b9150612bee82612b61565b606082019050919050565b60006020820190508181036000830152612c1281612bd6565b9050919050565b612c2281612745565b82525050565b6000608082019050612c3d60008301876126d5565b612c4a6020830186612c19565b612c5760408301856126d5565b612c6460608301846126d5565b95945050505050565b7f5075626b6579206d7573742062652036342d62797465207261772c20756e636f60008201527f6d70726573736564206b65792e00000000000000000000000000000000000000602082015250565b6000612cc9602d836129be565b9150612cd482612c6d565b604082019050919050565b60006020820190508181036000830152612cf881612cbc565b9050919050565b600061ffff82169050919050565b6000612d1882612cff565b9150612d2383612cff565b9250828202612d3181612cff565b9150808214612d4357612d4261293c565b5b5092915050565b600063ffffffff82169050919050565b6000612d6582612d4a565b9150612d7083612d4a565b9250828202612d7e81612d4a565b9150808214612d9057612d8f61293c565b5b5092915050565b600067ffffffffffffffff82169050919050565b6000612db682612d97565b9150612dc183612d97565b9250828202612dcf81612d97565b9150808214612de157612de061293c565b5b5092915050565b60006020820190508181036000830152612e0281846129f9565b905092915050565b600073ffffffffffffffffffffffffffffffffffffffff82169050919050565b6000612e3582612e0a565b9150612e4083612e0a565b9250828203905073ffffffffffffffffffffffffffffffffffffffff811115612e6c57612e6b61293c565b5b92915050565b6000612e7d82612e0a565b9150612e8883612e0a565b9250828202612e9681612e0a565b91508282048414831517612ead57612eac61293c565b5b5092915050565b6000612ebf82612e0a565b9150612eca83612e0a565b9250828201905073ffffffffffffffffffffffffffffffffffffffff811115612ef657612ef561293c565b5b92915050565b6000612f0782612e0a565b915073ffffffffffffffffffffffffffffffffffffffff8203612f2d57612f2c61293c565b5b600182019050919050565b6000612f43826123af565b9150612f4e836123af565b9250828203905081811115612f6657612f6561293c565b5b92915050565b7f4f766572666c6f7720647572696e67206164646974696f6e2e00000000000000600082015250565b6000612fa26019836129be565b9150612fad82612f6c565b602082019050919050565b60006020820190508181036000830152612fd181612f95565b9050919050565b7f4e487b7100000000000000000000000000000000000000000000000000000000600052605160045260246000fdfea26469706673582212202e27e9c9e9c278b0f60ff9761c76b684148cccca56a763f9a02cd238f638e24364736f6c63430008130033","opcodes":"PUSH1 0x80 PUSH1 0x40 MSTORE CALLVALUE DUP1 ISZERO PUSH2 0x10 JUMPI PUSH1 0x0 DUP1 REVERT JUMPDEST POP PUSH2 0x303D DUP1 PUSH2 0x20 PUSH1 0x0 CODECOPY PUSH1 0x0 RETURN INVALID PUSH1 0x80 PUSH1 0x40 MSTORE CALLVALUE DUP1 ISZERO PUSH2 0x10 JUMPI PUSH1 0x0 DUP1 REVERT JUMPDEST POP PUSH1 0x4 CALLDATASIZE LT PUSH2 0x93 JUMPI PUSH1 0x0 CALLDATALOAD PUSH1 0xE0 SHR DUP1 PUSH4 0x43F104D2 GT PUSH2 0x66 JUMPI DUP1 PUSH4 0x43F104D2 EQ PUSH2 0x10F JUMPI DUP1 PUSH4 0x47AA9573 EQ PUSH2 0x12B JUMPI DUP1 PUSH4 0x79A85BD9 EQ PUSH2 0x15B JUMPI DUP1 PUSH4 0xA5DD32AC EQ PUSH2 0x177 JUMPI DUP1 PUSH4 0xB80777EA EQ PUSH2 0x195 JUMPI PUSH2 0x93 JUMP JUMPDEST DUP1 PUSH4 0x6AC0E26 EQ PUSH2 0x98 JUMPI DUP1 PUSH4 0x11DA60B4 EQ PUSH2 0xB4 JUMPI DUP1 PUSH4 0x3740D249 EQ PUSH2 0xBE JUMPI DUP1 PUSH4 0x3C1C0699 EQ PUSH2 0xDA JUMPI JUMPDEST PUSH1 0x0 DUP1 REVERT JUMPDEST PUSH2 0xB2 PUSH1 0x4 DUP1 CALLDATASIZE SUB DUP2 ADD SWAP1 PUSH2 0xAD SWAP2 SWAP1 PUSH2 0x23E5 JUMP JUMPDEST PUSH2 0x1B3 JUMP JUMPDEST STOP JUMPDEST PUSH2 0xBC PUSH2 0x1DD JUMP JUMPDEST STOP JUMPDEST PUSH2 0xD8 PUSH1 0x4 DUP1 CALLDATASIZE SUB DUP2 ADD SWAP1 PUSH2 0xD3 SWAP2 SWAP1 PUSH2 0x25A6 JUMP JUMPDEST PUSH2 0x1DF JUMP JUMPDEST STOP JUMPDEST PUSH2 0xF4 PUSH1 0x4 DUP1 CALLDATASIZE SUB DUP2 ADD SWAP1 PUSH2 0xEF SWAP2 SWAP1 PUSH2 0x267D JUMP JUMPDEST PUSH2 0x1E5 JUMP JUMPDEST PUSH1 0x40 MLOAD PUSH2 0x106 SWAP7 SWAP6 SWAP5 SWAP4 SWAP3 SWAP2 SWAP1 PUSH2 0x26E4 JUMP JUMPDEST PUSH1 0x40 MLOAD DUP1 SWAP2 SUB SWAP1 RETURN JUMPDEST PUSH2 0x129 PUSH1 0x4 DUP1 CALLDATASIZE SUB DUP2 ADD SWAP1 PUSH2 0x124 SWAP2 SWAP1 PUSH2 0x25A6 JUMP JUMPDEST PUSH2 0x3DA JUMP JUMPDEST STOP JUMPDEST PUSH2 0x145 PUSH1 0x4 DUP1 CALLDATASIZE SUB DUP2 ADD SWAP1 PUSH2 0x140 SWAP2 SWAP1 PUSH2 0x277E JUMP JUMPDEST PUSH2 0x3E0 JUMP JUMPDEST PUSH1 0x40 MLOAD PUSH2 0x152 SWAP2 SWAP1 PUSH2 0x2830 JUMP JUMPDEST PUSH1 0x40 MLOAD DUP1 SWAP2 SUB SWAP1 RETURN JUMPDEST PUSH2 0x175 PUSH1 0x4 DUP1 CALLDATASIZE SUB DUP2 ADD SWAP1 PUSH2 0x170 SWAP2 SWAP1 PUSH2 0x284B JUMP JUMPDEST PUSH2 0x3FA JUMP JUMPDEST STOP JUMPDEST PUSH2 0x17F PUSH2 0x3FF JUMP JUMPDEST PUSH1 0x40 MLOAD PUSH2 0x18C SWAP2 SWAP1 PUSH2 0x28F2 JUMP JUMPDEST PUSH1 0x40 MLOAD DUP1 SWAP2 SUB SWAP1 RETURN JUMPDEST PUSH2 0x19D PUSH2 0x405 JUMP JUMPDEST PUSH1 0x40 MLOAD PUSH2 0x1AA SWAP2 SWAP1 PUSH2 0x28F2 JUMP JUMPDEST PUSH1 0x40 MLOAD DUP1 SWAP2 SUB SWAP1 RETURN JUMPDEST DUP5 PUSH1 0x0 DUP2 SWAP1 SSTORE POP DUP4 PUSH1 0x1 DUP2 SWAP1 SSTORE POP DUP3 PUSH1 0x2 DUP2 SWAP1 SSTORE POP DUP2 PUSH1 0x3 DUP2 SWAP1 SSTORE POP DUP1 PUSH1 0x4 DUP2 SWAP1 SSTORE POP POP POP POP POP POP JUMP JUMPDEST JUMP JUMPDEST POP POP POP POP JUMP JUMPDEST PUSH1 0x0 DUP1 PUSH1 0x0 DUP1 PUSH1 0x0 DUP1 PUSH1 0x0 DUP1 PUSH1 0x0 DUP1 PUSH1 0x0 DUP1 PUSH2 0x200 DUP14 PUSH2 0x40B JUMP JUMPDEST DUP1 SWAP7 POP DUP2 SWAP8 POP DUP3 SWAP9 POP DUP4 SWAP10 POP DUP5 SWAP11 POP DUP6 SWAP12 POP POP POP POP POP POP POP PUSH2 0x257 PUSH1 0x40 MLOAD DUP1 PUSH1 0x40 ADD PUSH1 0x40 MSTORE DUP1 PUSH1 0x15 DUP2 MSTORE PUSH1 0x20 ADD PUSH32 0x436865636B2076616C75655F6F75747075745F313A0000000000000000000000 DUP2 MSTORE POP DUP8 PUSH2 0x716 JUMP JUMPDEST PUSH2 0x2A3 PUSH1 0x40 MLOAD DUP1 PUSH1 0x40 ADD PUSH1 0x40 MSTORE DUP1 PUSH1 0x14 DUP2 MSTORE PUSH1 0x20 ADD PUSH32 0x436865636B207363726970745F646174615F313A000000000000000000000000 DUP2 MSTORE POP PUSH2 0x29E DUP8 PUSH1 0x0 SHR PUSH1 0x20 PUSH2 0x7B2 JUMP JUMPDEST PUSH2 0x9F8 JUMP JUMPDEST PUSH2 0x2E2 PUSH1 0x40 MLOAD DUP1 PUSH1 0x40 ADD PUSH1 0x40 MSTORE DUP1 PUSH1 0x15 DUP2 MSTORE PUSH1 0x20 ADD PUSH32 0x436865636B2076616C75655F6F75747075745F323A0000000000000000000000 DUP2 MSTORE POP DUP6 PUSH2 0x716 JUMP JUMPDEST PUSH2 0x32E PUSH1 0x40 MLOAD DUP1 PUSH1 0x40 ADD PUSH1 0x40 MSTORE DUP1 PUSH1 0x14 DUP2 MSTORE PUSH1 0x20 ADD PUSH32 0x436865636B207363726970745F646174615F323A000000000000000000000000 DUP2 MSTORE POP PUSH2 0x329 DUP6 PUSH1 0x0 SHR PUSH1 0x20 PUSH2 0x7B2 JUMP JUMPDEST PUSH2 0x9F8 JUMP JUMPDEST PUSH2 0x36D PUSH1 0x40 MLOAD DUP1 PUSH1 0x40 ADD PUSH1 0x40 MSTORE DUP1 PUSH1 0x15 DUP2 MSTORE PUSH1 0x20 ADD PUSH32 0x436865636B2076616C75655F6F75747075745F333A0000000000000000000000 DUP2 MSTORE POP DUP4 PUSH2 0x716 JUMP JUMPDEST PUSH2 0x3B9 PUSH1 0x40 MLOAD DUP1 PUSH1 0x40 ADD PUSH1 0x40 MSTORE DUP1 PUSH1 0x14 DUP2 MSTORE PUSH1 0x20 ADD PUSH32 0x436865636B207363726970745F646174615F333A000000000000000000000000 DUP2 MSTORE POP PUSH2 0x3B4 DUP4 PUSH1 0x0 SHR PUSH1 0x20 PUSH2 0x7B2 JUMP JUMPDEST PUSH2 0x9F8 JUMP JUMPDEST DUP6 DUP6 DUP6 DUP6 DUP6 DUP6 SWAP12 POP SWAP12 POP SWAP12 POP SWAP12 POP SWAP12 POP SWAP12 POP POP POP POP POP POP POP SWAP2 SWAP4 SWAP6 POP SWAP2 SWAP4 SWAP6 JUMP JUMPDEST POP POP POP POP JUMP JUMPDEST PUSH1 0x0 PUSH2 0x3EF DUP7 DUP7 DUP7 DUP7 DUP7 PUSH2 0xA94 JUMP JUMPDEST SWAP1 POP SWAP6 SWAP5 POP POP POP POP POP JUMP JUMPDEST POP POP POP JUMP JUMPDEST PUSH1 0x5 SLOAD DUP2 JUMP JUMPDEST PUSH1 0x4 SLOAD DUP2 JUMP JUMPDEST PUSH1 0x0 DUP1 PUSH1 0x0 DUP1 PUSH1 0x0 DUP1 PUSH1 0x0 DUP1 PUSH1 0x2 PUSH8 0xFFFFFFFFFFFFFFFF DUP2 GT ISZERO PUSH2 0x432 JUMPI PUSH2 0x431 PUSH2 0x247B JUMP JUMPDEST JUMPDEST PUSH1 0x40 MLOAD SWAP1 DUP1 DUP3 MSTORE DUP1 PUSH1 0x20 MUL PUSH1 0x20 ADD DUP3 ADD PUSH1 0x40 MSTORE DUP1 ISZERO PUSH2 0x460 JUMPI DUP2 PUSH1 0x20 ADD PUSH1 0x20 DUP3 MUL DUP1 CALLDATASIZE DUP4 CALLDATACOPY DUP1 DUP3 ADD SWAP2 POP POP SWAP1 POP JUMPDEST POP SWAP1 POP PUSH1 0x0 PUSH1 0x3 PUSH8 0xFFFFFFFFFFFFFFFF DUP2 GT ISZERO PUSH2 0x480 JUMPI PUSH2 0x47F PUSH2 0x247B JUMP JUMPDEST JUMPDEST PUSH1 0x40 MLOAD SWAP1 DUP1 DUP3 MSTORE DUP1 PUSH1 0x20 MUL PUSH1 0x20 ADD DUP3 ADD PUSH1 0x40 MSTORE DUP1 ISZERO PUSH2 0x4AE JUMPI DUP2 PUSH1 0x20 ADD PUSH1 0x20 DUP3 MUL DUP1 CALLDATASIZE DUP4 CALLDATACOPY DUP1 DUP3 ADD SWAP2 POP POP SWAP1 POP JUMPDEST POP SWAP1 POP PUSH1 0x0 PUSH1 0x3 PUSH8 0xFFFFFFFFFFFFFFFF DUP2 GT ISZERO PUSH2 0x4CE JUMPI PUSH2 0x4CD PUSH2 0x247B JUMP JUMPDEST JUMPDEST PUSH1 0x40 MLOAD SWAP1 DUP1 DUP3 MSTORE DUP1 PUSH1 0x20 MUL PUSH1 0x20 ADD DUP3 ADD PUSH1 0x40 MSTORE DUP1 ISZERO PUSH2 0x4FC JUMPI DUP2 PUSH1 0x20 ADD PUSH1 0x20 DUP3 MUL DUP1 CALLDATASIZE DUP4 CALLDATACOPY DUP1 DUP3 ADD SWAP2 POP POP SWAP1 POP JUMPDEST POP SWAP1 POP PUSH1 0x0 PUSH1 0x3 PUSH8 0xFFFFFFFFFFFFFFFF DUP2 GT ISZERO PUSH2 0x51C JUMPI PUSH2 0x51B PUSH2 0x247B JUMP JUMPDEST JUMPDEST PUSH1 0x40 MLOAD SWAP1 DUP1 DUP3 MSTORE DUP1 PUSH1 0x20 MUL PUSH1 0x20 ADD DUP3 ADD PUSH1 0x40 MSTORE DUP1 ISZERO PUSH2 0x54A JUMPI DUP2 PUSH1 0x20 ADD PUSH1 0x20 DUP3 MUL DUP1 CALLDATASIZE DUP4 CALLDATACOPY DUP1 DUP3 ADD SWAP2 POP POP SWAP1 POP JUMPDEST POP SWAP1 POP PUSH1 0x0 PUSH1 0x3 PUSH8 0xFFFFFFFFFFFFFFFF DUP2 GT ISZERO PUSH2 0x56A JUMPI PUSH2 0x569 PUSH2 0x247B JUMP JUMPDEST JUMPDEST PUSH1 0x40 MLOAD SWAP1 DUP1 DUP3 MSTORE DUP1 PUSH1 0x20 MUL PUSH1 0x20 ADD DUP3 ADD PUSH1 0x40 MSTORE DUP1 ISZERO PUSH2 0x598 JUMPI DUP2 PUSH1 0x20 ADD PUSH1 0x20 DUP3 MUL DUP1 CALLDATASIZE DUP4 CALLDATACOPY DUP1 DUP3 ADD SWAP2 POP POP SWAP1 POP JUMPDEST POP SWAP1 POP PUSH1 0x4 SWAP6 POP PUSH2 0x5AB DUP14 DUP8 PUSH1 0x0 PUSH2 0xB76 JUMP JUMPDEST DUP1 SWAP8 POP DUP2 SWAP7 POP POP POP PUSH2 0x5BF DUP14 DUP8 PUSH1 0x0 PUSH2 0xC88 JUMP JUMPDEST DUP1 SWAP10 POP DUP2 SWAP8 POP DUP3 SWAP7 POP DUP4 SWAP6 POP POP POP POP POP PUSH1 0x0 JUMPDEST PUSH1 0x3 DUP2 LT ISZERO PUSH2 0x652 JUMPI PUSH1 0x0 PUSH2 0x61C DUP16 DUP7 DUP5 DUP2 MLOAD DUP2 LT PUSH2 0x5F4 JUMPI PUSH2 0x5F3 PUSH2 0x290D JUMP JUMPDEST JUMPDEST PUSH1 0x20 MUL PUSH1 0x20 ADD ADD MLOAD DUP9 DUP6 DUP2 MLOAD DUP2 LT PUSH2 0x60F JUMPI PUSH2 0x60E PUSH2 0x290D JUMP JUMPDEST JUMPDEST PUSH1 0x20 MUL PUSH1 0x20 ADD ADD MLOAD PUSH2 0xE7F JUMP JUMPDEST SWAP1 POP DUP1 DUP4 DUP4 DUP2 MLOAD DUP2 LT PUSH2 0x632 JUMPI PUSH2 0x631 PUSH2 0x290D JUMP JUMPDEST JUMPDEST PUSH1 0x20 MUL PUSH1 0x20 ADD ADD DUP2 DUP2 MSTORE POP POP POP DUP1 DUP1 PUSH2 0x64A SWAP1 PUSH2 0x296B JUMP JUMPDEST SWAP2 POP POP PUSH2 0x5D2 JUMP JUMPDEST POP DUP2 PUSH1 0x0 DUP2 MLOAD DUP2 LT PUSH2 0x667 JUMPI PUSH2 0x666 PUSH2 0x290D JUMP JUMPDEST JUMPDEST PUSH1 0x20 MUL PUSH1 0x20 ADD ADD MLOAD DUP2 PUSH1 0x0 DUP2 MLOAD DUP2 LT PUSH2 0x683 JUMPI PUSH2 0x682 PUSH2 0x290D JUMP JUMPDEST JUMPDEST PUSH1 0x20 MUL PUSH1 0x20 ADD ADD MLOAD DUP4 PUSH1 0x1 DUP2 MLOAD DUP2 LT PUSH2 0x69F JUMPI PUSH2 0x69E PUSH2 0x290D JUMP JUMPDEST JUMPDEST PUSH1 0x20 MUL PUSH1 0x20 ADD ADD MLOAD DUP4 PUSH1 0x1 DUP2 MLOAD DUP2 LT PUSH2 0x6BB JUMPI PUSH2 0x6BA PUSH2 0x290D JUMP JUMPDEST JUMPDEST PUSH1 0x20 MUL PUSH1 0x20 ADD ADD MLOAD DUP6 PUSH1 0x2 DUP2 MLOAD DUP2 LT PUSH2 0x6D7 JUMPI PUSH2 0x6D6 PUSH2 0x290D JUMP JUMPDEST JUMPDEST PUSH1 0x20 MUL PUSH1 0x20 ADD ADD MLOAD DUP6 PUSH1 0x2 DUP2 MLOAD DUP2 LT PUSH2 0x6F3 JUMPI PUSH2 0x6F2 PUSH2 0x290D JUMP JUMPDEST JUMPDEST PUSH1 0x20 MUL PUSH1 0x20 ADD ADD MLOAD SWAP12 POP SWAP12 POP SWAP12 POP SWAP12 POP SWAP12 POP SWAP12 POP POP POP POP POP POP POP SWAP2 SWAP4 SWAP6 POP SWAP2 SWAP4 SWAP6 JUMP JUMPDEST PUSH2 0x7AE DUP3 DUP3 PUSH1 0x40 MLOAD PUSH1 0x24 ADD PUSH2 0x72C SWAP3 SWAP2 SWAP1 PUSH2 0x2A32 JUMP JUMPDEST PUSH1 0x40 MLOAD PUSH1 0x20 DUP2 DUP4 SUB SUB DUP2 MSTORE SWAP1 PUSH1 0x40 MSTORE PUSH32 0xB60E72CC00000000000000000000000000000000000000000000000000000000 PUSH28 0xFFFFFFFFFFFFFFFFFFFFFFFFFFFFFFFFFFFFFFFFFFFFFFFFFFFFFFFF NOT AND PUSH1 0x20 DUP3 ADD DUP1 MLOAD PUSH28 0xFFFFFFFFFFFFFFFFFFFFFFFFFFFFFFFFFFFFFFFFFFFFFFFFFFFFFFFF DUP4 DUP2 DUP4 AND OR DUP4 MSTORE POP POP POP POP PUSH2 0x1059 JUMP JUMPDEST POP POP JUMP JUMPDEST PUSH1 0x60 PUSH1 0x0 DUP4 SWAP1 POP PUSH1 0x0 PUSH1 0x2 DUP5 PUSH1 0x2 PUSH2 0x7CA SWAP2 SWAP1 PUSH2 0x2A62 JUMP JUMPDEST PUSH2 0x7D4 SWAP2 SWAP1 PUSH2 0x2AA4 JUMP JUMPDEST PUSH8 0xFFFFFFFFFFFFFFFF DUP2 GT ISZERO PUSH2 0x7ED JUMPI PUSH2 0x7EC PUSH2 0x247B JUMP JUMPDEST JUMPDEST PUSH1 0x40 MLOAD SWAP1 DUP1 DUP3 MSTORE DUP1 PUSH1 0x1F ADD PUSH1 0x1F NOT AND PUSH1 0x20 ADD DUP3 ADD PUSH1 0x40 MSTORE DUP1 ISZERO PUSH2 0x81F JUMPI DUP2 PUSH1 0x20 ADD PUSH1 0x1 DUP3 MUL DUP1 CALLDATASIZE DUP4 CALLDATACOPY DUP1 DUP3 ADD SWAP2 POP POP SWAP1 POP JUMPDEST POP SWAP1 POP PUSH32 0x3000000000000000000000000000000000000000000000000000000000000000 DUP2 PUSH1 0x0 DUP2 MLOAD DUP2 LT PUSH2 0x857 JUMPI PUSH2 0x856 PUSH2 0x290D JUMP JUMPDEST JUMPDEST PUSH1 0x20 ADD ADD SWAP1 PUSH31 0xFFFFFFFFFFFFFFFFFFFFFFFFFFFFFFFFFFFFFFFFFFFFFFFFFFFFFFFFFFFFFF NOT AND SWAP1 DUP2 PUSH1 0x0 BYTE SWAP1 MSTORE8 POP PUSH32 0x7800000000000000000000000000000000000000000000000000000000000000 DUP2 PUSH1 0x1 DUP2 MLOAD DUP2 LT PUSH2 0x8BB JUMPI PUSH2 0x8BA PUSH2 0x290D JUMP JUMPDEST JUMPDEST PUSH1 0x20 ADD ADD SWAP1 PUSH31 0xFFFFFFFFFFFFFFFFFFFFFFFFFFFFFFFFFFFFFFFFFFFFFFFFFFFFFFFFFFFFFF NOT AND SWAP1 DUP2 PUSH1 0x0 BYTE SWAP1 MSTORE8 POP PUSH1 0x0 PUSH1 0x1 DUP6 PUSH1 0x2 PUSH2 0x8FB SWAP2 SWAP1 PUSH2 0x2A62 JUMP JUMPDEST PUSH2 0x905 SWAP2 SWAP1 PUSH2 0x2AA4 JUMP JUMPDEST SWAP1 POP JUMPDEST PUSH1 0x1 DUP2 GT ISZERO PUSH2 0x9A5 JUMPI PUSH32 0x3031323334353637383961626364656600000000000000000000000000000000 PUSH1 0xF DUP5 AND PUSH1 0x10 DUP2 LT PUSH2 0x947 JUMPI PUSH2 0x946 PUSH2 0x290D JUMP JUMPDEST JUMPDEST BYTE PUSH1 0xF8 SHL DUP3 DUP3 DUP2 MLOAD DUP2 LT PUSH2 0x95E JUMPI PUSH2 0x95D PUSH2 0x290D JUMP JUMPDEST JUMPDEST PUSH1 0x20 ADD ADD SWAP1 PUSH31 0xFFFFFFFFFFFFFFFFFFFFFFFFFFFFFFFFFFFFFFFFFFFFFFFFFFFFFFFFFFFFFF NOT AND SWAP1 DUP2 PUSH1 0x0 BYTE SWAP1 MSTORE8 POP PUSH1 0x4 DUP4 SWAP1 SHR SWAP3 POP DUP1 PUSH2 0x99E SWAP1 PUSH2 0x2AD8 JUMP JUMPDEST SWAP1 POP PUSH2 0x908 JUMP JUMPDEST POP PUSH1 0x0 DUP3 EQ PUSH2 0x9ED JUMPI DUP5 DUP5 PUSH1 0x40 MLOAD PUSH32 0xE22E27EB00000000000000000000000000000000000000000000000000000000 DUP2 MSTORE PUSH1 0x4 ADD PUSH2 0x9E4 SWAP3 SWAP2 SWAP1 PUSH2 0x2B01 JUMP JUMPDEST PUSH1 0x40 MLOAD DUP1 SWAP2 SUB SWAP1 REVERT JUMPDEST DUP1 SWAP3 POP POP POP SWAP3 SWAP2 POP POP JUMP JUMPDEST PUSH2 0xA90 DUP3 DUP3 PUSH1 0x40 MLOAD PUSH1 0x24 ADD PUSH2 0xA0E SWAP3 SWAP2 SWAP1 PUSH2 0x2B2A JUMP JUMPDEST PUSH1 0x40 MLOAD PUSH1 0x20 DUP2 DUP4 SUB SUB DUP2 MSTORE SWAP1 PUSH1 0x40 MSTORE PUSH32 0x4B5C427700000000000000000000000000000000000000000000000000000000 PUSH28 0xFFFFFFFFFFFFFFFFFFFFFFFFFFFFFFFFFFFFFFFFFFFFFFFFFFFFFFFF NOT AND PUSH1 0x20 DUP3 ADD DUP1 MLOAD PUSH28 0xFFFFFFFFFFFFFFFFFFFFFFFFFFFFFFFFFFFFFFFFFFFFFFFFFFFFFFFF DUP4 DUP2 DUP4 AND OR DUP4 MSTORE POP POP POP POP PUSH2 0x1059 JUMP JUMPDEST POP POP JUMP JUMPDEST PUSH1 0x0 PUSH1 0x40 DUP7 MLOAD EQ PUSH2 0xADA JUMPI PUSH1 0x40 MLOAD PUSH32 0x8C379A000000000000000000000000000000000000000000000000000000000 DUP2 MSTORE PUSH1 0x4 ADD PUSH2 0xAD1 SWAP1 PUSH2 0x2BF9 JUMP JUMPDEST PUSH1 0x40 MLOAD DUP1 SWAP2 SUB SWAP1 REVERT JUMPDEST PUSH1 0x0 PUSH2 0xAE5 DUP8 PUSH2 0x1073 JUMP JUMPDEST SWAP1 POP PUSH1 0x0 PUSH1 0x1 DUP8 DUP8 DUP8 DUP8 PUSH1 0x40 MLOAD PUSH1 0x0 DUP2 MSTORE PUSH1 0x20 ADD PUSH1 0x40 MSTORE PUSH1 0x40 MLOAD PUSH2 0xB0C SWAP5 SWAP4 SWAP3 SWAP2 SWAP1 PUSH2 0x2C28 JUMP JUMPDEST PUSH1 0x20 PUSH1 0x40 MLOAD PUSH1 0x20 DUP2 SUB SWAP1 DUP1 DUP5 SUB SWAP1 DUP6 GAS STATICCALL ISZERO DUP1 ISZERO PUSH2 0xB2E JUMPI RETURNDATASIZE PUSH1 0x0 DUP1 RETURNDATACOPY RETURNDATASIZE PUSH1 0x0 REVERT JUMPDEST POP POP POP PUSH1 0x20 PUSH1 0x40 MLOAD SUB MLOAD SWAP1 POP DUP2 PUSH20 0xFFFFFFFFFFFFFFFFFFFFFFFFFFFFFFFFFFFFFFFF AND DUP2 PUSH20 0xFFFFFFFFFFFFFFFFFFFFFFFFFFFFFFFFFFFFFFFF AND EQ SWAP3 POP POP POP SWAP6 SWAP5 POP POP POP POP POP JUMP JUMPDEST PUSH1 0x60 PUSH1 0x0 DUP1 PUSH1 0x0 DUP1 PUSH2 0xB88 DUP9 DUP9 PUSH2 0x10EB JUMP JUMPDEST DUP1 SWAP9 POP DUP2 SWAP5 POP POP POP PUSH1 0x0 DUP7 EQ DUP1 PUSH2 0xB9E JUMPI POP DUP3 DUP7 GT JUMPDEST ISZERO PUSH2 0xBAB JUMPI DUP3 SWAP2 POP PUSH2 0xBAF JUMP JUMPDEST DUP6 SWAP2 POP JUMPDEST PUSH1 0x0 DUP3 PUSH8 0xFFFFFFFFFFFFFFFF DUP2 GT ISZERO PUSH2 0xBCB JUMPI PUSH2 0xBCA PUSH2 0x247B JUMP JUMPDEST JUMPDEST PUSH1 0x40 MLOAD SWAP1 DUP1 DUP3 MSTORE DUP1 PUSH1 0x20 MUL PUSH1 0x20 ADD DUP3 ADD PUSH1 0x40 MSTORE DUP1 ISZERO PUSH2 0xBF9 JUMPI DUP2 PUSH1 0x20 ADD PUSH1 0x20 DUP3 MUL DUP1 CALLDATASIZE DUP4 CALLDATACOPY DUP1 DUP3 ADD SWAP2 POP POP SWAP1 POP JUMPDEST POP SWAP1 POP PUSH1 0x0 JUMPDEST DUP4 DUP2 LT ISZERO PUSH2 0xC75 JUMPI PUSH1 0x24 DUP10 PUSH2 0xC14 SWAP2 SWAP1 PUSH2 0x2AA4 JUMP JUMPDEST SWAP9 POP PUSH2 0xC20 DUP11 DUP11 PUSH2 0x10EB JUMP JUMPDEST DUP1 SWAP11 POP DUP2 SWAP5 POP POP POP DUP3 DUP3 DUP3 DUP2 MLOAD DUP2 LT PUSH2 0xC3C JUMPI PUSH2 0xC3B PUSH2 0x290D JUMP JUMPDEST JUMPDEST PUSH1 0x20 MUL PUSH1 0x20 ADD ADD DUP2 DUP2 MSTORE POP POP PUSH1 0x4 DUP4 PUSH2 0xC55 SWAP2 SWAP1 PUSH2 0x2AA4 JUMP JUMPDEST DUP10 PUSH2 0xC60 SWAP2 SWAP1 PUSH2 0x2AA4 JUMP JUMPDEST SWAP9 POP DUP1 DUP1 PUSH2 0xC6D SWAP1 PUSH2 0x296B JUMP JUMPDEST SWAP2 POP POP PUSH2 0xBFF JUMP JUMPDEST POP DUP1 DUP9 SWAP6 POP SWAP6 POP POP POP POP POP SWAP4 POP SWAP4 SWAP2 POP POP JUMP JUMPDEST PUSH1 0x60 DUP1 PUSH1 0x60 PUSH1 0x0 DUP1 PUSH1 0x0 DUP1 PUSH2 0xC9D DUP11 DUP11 PUSH2 0x10EB JUMP JUMPDEST DUP1 SWAP11 POP DUP2 SWAP5 POP POP POP PUSH1 0x0 DUP9 EQ DUP1 PUSH2 0xCB3 JUMPI POP DUP3 DUP9 GT JUMPDEST ISZERO PUSH2 0xCC0 JUMPI DUP3 SWAP2 POP PUSH2 0xCC4 JUMP JUMPDEST DUP8 SWAP2 POP JUMPDEST PUSH1 0x0 DUP3 PUSH8 0xFFFFFFFFFFFFFFFF DUP2 GT ISZERO PUSH2 0xCE0 JUMPI PUSH2 0xCDF PUSH2 0x247B JUMP JUMPDEST JUMPDEST PUSH1 0x40 MLOAD SWAP1 DUP1 DUP3 MSTORE DUP1 PUSH1 0x20 MUL PUSH1 0x20 ADD DUP3 ADD PUSH1 0x40 MSTORE DUP1 ISZERO PUSH2 0xD0E JUMPI DUP2 PUSH1 0x20 ADD PUSH1 0x20 DUP3 MUL DUP1 CALLDATASIZE DUP4 CALLDATACOPY DUP1 DUP3 ADD SWAP2 POP POP SWAP1 POP JUMPDEST POP SWAP1 POP PUSH1 0x0 DUP4 PUSH8 0xFFFFFFFFFFFFFFFF DUP2 GT ISZERO PUSH2 0xD2D JUMPI PUSH2 0xD2C PUSH2 0x247B JUMP JUMPDEST JUMPDEST PUSH1 0x40 MLOAD SWAP1 DUP1 DUP3 MSTORE DUP1 PUSH1 0x20 MUL PUSH1 0x20 ADD DUP3 ADD PUSH1 0x40 MSTORE DUP1 ISZERO PUSH2 0xD5B JUMPI DUP2 PUSH1 0x20 ADD PUSH1 0x20 DUP3 MUL DUP1 CALLDATASIZE DUP4 CALLDATACOPY DUP1 DUP3 ADD SWAP2 POP POP SWAP1 POP JUMPDEST POP SWAP1 POP PUSH1 0x0 DUP5 PUSH8 0xFFFFFFFFFFFFFFFF DUP2 GT ISZERO PUSH2 0xD7A JUMPI PUSH2 0xD79 PUSH2 0x247B JUMP JUMPDEST JUMPDEST PUSH1 0x40 MLOAD SWAP1 DUP1 DUP3 MSTORE DUP1 PUSH1 0x20 MUL PUSH1 0x20 ADD DUP3 ADD PUSH1 0x40 MSTORE DUP1 ISZERO PUSH2 0xDA8 JUMPI DUP2 PUSH1 0x20 ADD PUSH1 0x20 DUP3 MUL DUP1 CALLDATASIZE DUP4 CALLDATACOPY DUP1 DUP3 ADD SWAP2 POP POP SWAP1 POP JUMPDEST POP SWAP1 POP PUSH1 0x0 JUMPDEST DUP6 DUP2 LT ISZERO PUSH2 0xE63 JUMPI PUSH2 0xDC2 DUP15 DUP15 PUSH1 0x40 PUSH2 0x11D3 JUMP JUMPDEST DUP3 DUP3 DUP2 MLOAD DUP2 LT PUSH2 0xDD5 JUMPI PUSH2 0xDD4 PUSH2 0x290D JUMP JUMPDEST JUMPDEST PUSH1 0x20 MUL PUSH1 0x20 ADD ADD DUP2 DUP2 MSTORE POP POP PUSH1 0x8 DUP14 PUSH2 0xDEE SWAP2 SWAP1 PUSH2 0x2AA4 JUMP JUMPDEST SWAP13 POP PUSH2 0xDFA DUP15 DUP15 PUSH2 0x10EB JUMP JUMPDEST DUP1 SWAP15 POP DUP2 SWAP7 POP POP POP DUP13 DUP5 DUP3 DUP2 MLOAD DUP2 LT PUSH2 0xE16 JUMPI PUSH2 0xE15 PUSH2 0x290D JUMP JUMPDEST JUMPDEST PUSH1 0x20 MUL PUSH1 0x20 ADD ADD DUP2 DUP2 MSTORE POP POP DUP5 DUP4 DUP3 DUP2 MLOAD DUP2 LT PUSH2 0xE36 JUMPI PUSH2 0xE35 PUSH2 0x290D JUMP JUMPDEST JUMPDEST PUSH1 0x20 MUL PUSH1 0x20 ADD ADD DUP2 DUP2 MSTORE POP POP DUP5 DUP14 PUSH2 0xE4E SWAP2 SWAP1 PUSH2 0x2AA4 JUMP JUMPDEST SWAP13 POP DUP1 DUP1 PUSH2 0xE5B SWAP1 PUSH2 0x296B JUMP JUMPDEST SWAP2 POP POP PUSH2 0xDAE JUMP JUMPDEST POP DUP1 DUP4 DUP4 DUP15 SWAP10 POP SWAP10 POP SWAP10 POP SWAP10 POP POP POP POP POP POP POP SWAP4 POP SWAP4 POP SWAP4 POP SWAP4 JUMP JUMPDEST PUSH1 0x0 PUSH2 0xE8C DUP5 DUP5 DUP5 PUSH2 0x163E JUMP JUMPDEST ISZERO PUSH2 0xEFB JUMPI PUSH2 0xECF PUSH1 0x40 MLOAD DUP1 PUSH1 0x40 ADD PUSH1 0x40 MSTORE DUP1 PUSH1 0x13 DUP2 MSTORE PUSH1 0x20 ADD PUSH32 0x506172736564205032504B48206F757470757400000000000000000000000000 DUP2 MSTORE POP PUSH2 0x1803 JUMP JUMPDEST PUSH2 0xEE5 DUP5 PUSH1 0x3 DUP6 PUSH2 0xEE0 SWAP2 SWAP1 PUSH2 0x2AA4 JUMP JUMPDEST PUSH2 0x189C JUMP JUMPDEST PUSH12 0xFFFFFFFFFFFFFFFFFFFFFFFF NOT AND SWAP1 POP PUSH2 0x1052 JUMP JUMPDEST PUSH2 0xF06 DUP5 DUP5 DUP5 PUSH2 0x197F JUMP JUMPDEST ISZERO PUSH2 0xF75 JUMPI PUSH2 0xF49 PUSH1 0x40 MLOAD DUP1 PUSH1 0x40 ADD PUSH1 0x40 MSTORE DUP1 PUSH1 0x12 DUP2 MSTORE PUSH1 0x20 ADD PUSH32 0x5061727365642050325348206F75747075740000000000000000000000000000 DUP2 MSTORE POP PUSH2 0x1803 JUMP JUMPDEST PUSH2 0xF5F DUP5 PUSH1 0x2 DUP6 PUSH2 0xF5A SWAP2 SWAP1 PUSH2 0x2AA4 JUMP JUMPDEST PUSH2 0x189C JUMP JUMPDEST PUSH12 0xFFFFFFFFFFFFFFFFFFFFFFFF NOT AND SWAP1 POP PUSH2 0x1052 JUMP JUMPDEST PUSH2 0xF80 DUP5 DUP5 DUP5 PUSH2 0x1A9C JUMP JUMPDEST ISZERO PUSH2 0xFE0 JUMPI PUSH2 0xFC3 PUSH1 0x40 MLOAD DUP1 PUSH1 0x40 ADD PUSH1 0x40 MSTORE DUP1 PUSH1 0x17 DUP2 MSTORE PUSH1 0x20 ADD PUSH32 0x506172736564204F505F52455455524E206F7574707574000000000000000000 DUP2 MSTORE POP PUSH2 0x1803 JUMP JUMPDEST PUSH2 0xFD9 DUP5 PUSH1 0x2 DUP6 PUSH2 0xFD4 SWAP2 SWAP1 PUSH2 0x2AA4 JUMP JUMPDEST PUSH2 0x1B5F JUMP JUMPDEST SWAP1 POP PUSH2 0x1052 JUMP JUMPDEST PUSH2 0xFEB DUP5 DUP5 DUP5 PUSH2 0x1BEA JUMP JUMPDEST ISZERO PUSH2 0x104B JUMPI PUSH2 0x102E PUSH1 0x40 MLOAD DUP1 PUSH1 0x40 ADD PUSH1 0x40 MSTORE DUP1 PUSH1 0x1B DUP2 MSTORE PUSH1 0x20 ADD PUSH32 0x506172736564204C696768746E696E6748544C43206F75747075740000000000 DUP2 MSTORE POP PUSH2 0x1803 JUMP JUMPDEST PUSH2 0x1044 DUP5 PUSH1 0x2 DUP6 PUSH2 0x103F SWAP2 SWAP1 PUSH2 0x2AA4 JUMP JUMPDEST PUSH2 0x1B5F JUMP JUMPDEST SWAP1 POP PUSH2 0x1052 JUMP JUMPDEST PUSH1 0x0 DUP1 SHL SWAP1 POP JUMPDEST SWAP4 SWAP3 POP POP POP JUMP JUMPDEST PUSH2 0x1070 DUP2 PUSH2 0x1068 PUSH2 0x2199 PUSH2 0x21BA JUMP JUMPDEST PUSH4 0xFFFFFFFF AND JUMP JUMPDEST POP JUMP JUMPDEST PUSH1 0x0 PUSH1 0x40 DUP3 MLOAD EQ PUSH2 0x10B9 JUMPI PUSH1 0x40 MLOAD PUSH32 0x8C379A000000000000000000000000000000000000000000000000000000000 DUP2 MSTORE PUSH1 0x4 ADD PUSH2 0x10B0 SWAP1 PUSH2 0x2CDF JUMP JUMPDEST PUSH1 0x40 MLOAD DUP1 SWAP2 SUB SWAP1 REVERT JUMPDEST PUSH1 0x0 PUSH2 0x10DD PUSH2 0x10D2 PUSH1 0x0 DUP6 PUSH2 0x21C5 SWAP1 SWAP2 SWAP1 PUSH4 0xFFFFFFFF AND JUMP JUMPDEST PUSH3 0xFFFFFF NOT AND PUSH2 0x21F0 JUMP JUMPDEST SWAP1 POP DUP1 PUSH1 0x0 SHR SWAP2 POP POP SWAP2 SWAP1 POP JUMP JUMPDEST PUSH1 0x0 DUP1 PUSH1 0x0 DUP5 DUP5 DUP2 MLOAD DUP2 LT PUSH2 0x1103 JUMPI PUSH2 0x1102 PUSH2 0x290D JUMP JUMPDEST JUMPDEST PUSH1 0x20 ADD ADD MLOAD PUSH1 0xF8 SHR PUSH1 0xF8 SHL PUSH1 0xF8 SHR SWAP1 POP PUSH1 0x1 DUP5 PUSH2 0x1120 SWAP2 SWAP1 PUSH2 0x2AA4 JUMP JUMPDEST SWAP4 POP PUSH1 0xFD DUP2 PUSH1 0xFF AND LT ISZERO PUSH2 0x1140 JUMPI DUP1 DUP5 DUP2 PUSH1 0xFF AND SWAP2 POP SWAP3 POP SWAP3 POP POP PUSH2 0x11CC JUMP JUMPDEST PUSH1 0xFD DUP2 PUSH1 0xFF AND SUB PUSH2 0x116E JUMPI PUSH2 0x1157 DUP6 DUP6 PUSH1 0x10 PUSH2 0x11D3 JUMP JUMPDEST PUSH1 0x2 DUP6 PUSH2 0x1164 SWAP2 SWAP1 PUSH2 0x2AA4 JUMP JUMPDEST SWAP3 POP SWAP3 POP POP PUSH2 0x11CC JUMP JUMPDEST PUSH1 0xFE DUP2 PUSH1 0xFF AND SUB PUSH2 0x119C JUMPI PUSH2 0x1185 DUP6 DUP6 PUSH1 0x20 PUSH2 0x11D3 JUMP JUMPDEST PUSH1 0x4 DUP6 PUSH2 0x1192 SWAP2 SWAP1 PUSH2 0x2AA4 JUMP JUMPDEST SWAP3 POP SWAP3 POP POP PUSH2 0x11CC JUMP JUMPDEST PUSH1 0xFF DUP2 PUSH1 0xFF AND SUB PUSH2 0x11CA JUMPI PUSH2 0x11B3 DUP6 DUP6 PUSH1 0x40 PUSH2 0x11D3 JUMP JUMPDEST PUSH1 0x8 DUP6 PUSH2 0x11C0 SWAP2 SWAP1 PUSH2 0x2AA4 JUMP JUMPDEST SWAP3 POP SWAP3 POP POP PUSH2 0x11CC JUMP JUMPDEST POP JUMPDEST SWAP3 POP SWAP3 SWAP1 POP JUMP JUMPDEST PUSH1 0x0 PUSH1 0x8 DUP3 SUB PUSH2 0x1208 JUMPI DUP4 DUP4 DUP2 MLOAD DUP2 LT PUSH2 0x11F0 JUMPI PUSH2 0x11EF PUSH2 0x290D JUMP JUMPDEST JUMPDEST PUSH1 0x20 ADD ADD MLOAD PUSH1 0xF8 SHR PUSH1 0xF8 SHL PUSH1 0xF8 SHR PUSH1 0xFF AND SWAP1 POP PUSH2 0x1637 JUMP JUMPDEST PUSH1 0x10 DUP3 SUB PUSH2 0x128A JUMPI PUSH2 0x100 DUP5 PUSH1 0x1 DUP6 PUSH2 0x1221 SWAP2 SWAP1 PUSH2 0x2AA4 JUMP JUMPDEST DUP2 MLOAD DUP2 LT PUSH2 0x1232 JUMPI PUSH2 0x1231 PUSH2 0x290D JUMP JUMPDEST JUMPDEST PUSH1 0x20 ADD ADD MLOAD PUSH1 0xF8 SHR PUSH1 0xF8 SHL PUSH1 0xF8 SHR PUSH1 0xFF AND PUSH2 0x124D SWAP2 SWAP1 PUSH2 0x2D0D JUMP JUMPDEST PUSH2 0xFFFF AND DUP5 DUP5 DUP2 MLOAD DUP2 LT PUSH2 0x1264 JUMPI PUSH2 0x1263 PUSH2 0x290D JUMP JUMPDEST JUMPDEST PUSH1 0x20 ADD ADD MLOAD PUSH1 0xF8 SHR PUSH1 0xF8 SHL PUSH1 0xF8 SHR PUSH1 0xFF AND PUSH2 0xFFFF AND PUSH2 0x1283 SWAP2 SWAP1 PUSH2 0x2AA4 JUMP JUMPDEST SWAP1 POP PUSH2 0x1637 JUMP JUMPDEST PUSH1 0x20 DUP3 SUB PUSH2 0x13AD JUMPI PUSH4 0x1000000 DUP5 PUSH1 0x3 DUP6 PUSH2 0x12A5 SWAP2 SWAP1 PUSH2 0x2AA4 JUMP JUMPDEST DUP2 MLOAD DUP2 LT PUSH2 0x12B6 JUMPI PUSH2 0x12B5 PUSH2 0x290D JUMP JUMPDEST JUMPDEST PUSH1 0x20 ADD ADD MLOAD PUSH1 0xF8 SHR PUSH1 0xF8 SHL PUSH1 0xF8 SHR PUSH1 0xFF AND PUSH2 0x12D1 SWAP2 SWAP1 PUSH2 0x2D5A JUMP JUMPDEST PUSH4 0xFFFFFFFF AND PUSH3 0x10000 DUP6 PUSH1 0x2 DUP7 PUSH2 0x12E9 SWAP2 SWAP1 PUSH2 0x2AA4 JUMP JUMPDEST DUP2 MLOAD DUP2 LT PUSH2 0x12FA JUMPI PUSH2 0x12F9 PUSH2 0x290D JUMP JUMPDEST JUMPDEST PUSH1 0x20 ADD ADD MLOAD PUSH1 0xF8 SHR PUSH1 0xF8 SHL PUSH1 0xF8 SHR PUSH1 0xFF AND PUSH2 0x1315 SWAP2 SWAP1 PUSH2 0x2D5A JUMP JUMPDEST PUSH4 0xFFFFFFFF AND PUSH2 0x100 DUP7 PUSH1 0x1 DUP8 PUSH2 0x132C SWAP2 SWAP1 PUSH2 0x2AA4 JUMP JUMPDEST DUP2 MLOAD DUP2 LT PUSH2 0x133D JUMPI PUSH2 0x133C PUSH2 0x290D JUMP JUMPDEST JUMPDEST PUSH1 0x20 ADD ADD MLOAD PUSH1 0xF8 SHR PUSH1 0xF8 SHL PUSH1 0xF8 SHR PUSH1 0xFF AND PUSH2 0x1358 SWAP2 SWAP1 PUSH2 0x2D5A JUMP JUMPDEST PUSH4 0xFFFFFFFF AND DUP7 DUP7 DUP2 MLOAD DUP2 LT PUSH2 0x1371 JUMPI PUSH2 0x1370 PUSH2 0x290D JUMP JUMPDEST JUMPDEST PUSH1 0x20 ADD ADD MLOAD PUSH1 0xF8 SHR PUSH1 0xF8 SHL PUSH1 0xF8 SHR PUSH1 0xFF AND PUSH4 0xFFFFFFFF AND PUSH2 0x1392 SWAP2 SWAP1 PUSH2 0x2AA4 JUMP JUMPDEST PUSH2 0x139C SWAP2 SWAP1 PUSH2 0x2AA4 JUMP JUMPDEST PUSH2 0x13A6 SWAP2 SWAP1 PUSH2 0x2AA4 JUMP JUMPDEST SWAP1 POP PUSH2 0x1637 JUMP JUMPDEST PUSH1 0x40 DUP3 SUB PUSH2 0x1636 JUMPI PUSH8 0x100000000000000 DUP5 PUSH1 0x7 DUP6 PUSH2 0x13CC SWAP2 SWAP1 PUSH2 0x2AA4 JUMP JUMPDEST DUP2 MLOAD DUP2 LT PUSH2 0x13DD JUMPI PUSH2 0x13DC PUSH2 0x290D JUMP JUMPDEST JUMPDEST PUSH1 0x20 ADD ADD MLOAD PUSH1 0xF8 SHR PUSH1 0xF8 SHL PUSH1 0xF8 SHR PUSH1 0xFF AND PUSH2 0x13F8 SWAP2 SWAP1 PUSH2 0x2DAB JUMP JUMPDEST PUSH8 0xFFFFFFFFFFFFFFFF AND PUSH7 0x1000000000000 DUP6 PUSH1 0x6 DUP7 PUSH2 0x1418 SWAP2 SWAP1 PUSH2 0x2AA4 JUMP JUMPDEST DUP2 MLOAD DUP2 LT PUSH2 0x1429 JUMPI PUSH2 0x1428 PUSH2 0x290D JUMP JUMPDEST JUMPDEST PUSH1 0x20 ADD ADD MLOAD PUSH1 0xF8 SHR PUSH1 0xF8 SHL PUSH1 0xF8 SHR PUSH1 0xFF AND PUSH2 0x1444 SWAP2 SWAP1 PUSH2 0x2DAB JUMP JUMPDEST PUSH8 0xFFFFFFFFFFFFFFFF AND PUSH6 0x10000000000 DUP7 PUSH1 0x5 DUP8 PUSH2 0x1463 SWAP2 SWAP1 PUSH2 0x2AA4 JUMP JUMPDEST DUP2 MLOAD DUP2 LT PUSH2 0x1474 JUMPI PUSH2 0x1473 PUSH2 0x290D JUMP JUMPDEST JUMPDEST PUSH1 0x20 ADD ADD MLOAD PUSH1 0xF8 SHR PUSH1 0xF8 SHL PUSH1 0xF8 SHR PUSH1 0xFF AND PUSH2 0x148F SWAP2 SWAP1 PUSH2 0x2DAB JUMP JUMPDEST PUSH8 0xFFFFFFFFFFFFFFFF AND PUSH5 0x100000000 DUP8 PUSH1 0x4 DUP9 PUSH2 0x14AD SWAP2 SWAP1 PUSH2 0x2AA4 JUMP JUMPDEST DUP2 MLOAD DUP2 LT PUSH2 0x14BE JUMPI PUSH2 0x14BD PUSH2 0x290D JUMP JUMPDEST JUMPDEST PUSH1 0x20 ADD ADD MLOAD PUSH1 0xF8 SHR PUSH1 0xF8 SHL PUSH1 0xF8 SHR PUSH1 0xFF AND PUSH2 0x14D9 SWAP2 SWAP1 PUSH2 0x2DAB JUMP JUMPDEST PUSH8 0xFFFFFFFFFFFFFFFF AND PUSH4 0x1000000 DUP9 PUSH1 0x3 DUP10 PUSH2 0x14F6 SWAP2 SWAP1 PUSH2 0x2AA4 JUMP JUMPDEST DUP2 MLOAD DUP2 LT PUSH2 0x1507 JUMPI PUSH2 0x1506 PUSH2 0x290D JUMP JUMPDEST JUMPDEST PUSH1 0x20 ADD ADD MLOAD PUSH1 0xF8 SHR PUSH1 0xF8 SHL PUSH1 0xF8 SHR PUSH1 0xFF AND PUSH2 0x1522 SWAP2 SWAP1 PUSH2 0x2DAB JUMP JUMPDEST PUSH8 0xFFFFFFFFFFFFFFFF AND PUSH3 0x10000 DUP10 PUSH1 0x2 DUP11 PUSH2 0x153E SWAP2 SWAP1 PUSH2 0x2AA4 JUMP JUMPDEST DUP2 MLOAD DUP2 LT PUSH2 0x154F JUMPI PUSH2 0x154E PUSH2 0x290D JUMP JUMPDEST JUMPDEST PUSH1 0x20 ADD ADD MLOAD PUSH1 0xF8 SHR PUSH1 0xF8 SHL PUSH1 0xF8 SHR PUSH1 0xFF AND PUSH2 0x156A SWAP2 SWAP1 PUSH2 0x2DAB JUMP JUMPDEST PUSH8 0xFFFFFFFFFFFFFFFF AND PUSH2 0x100 DUP11 PUSH1 0x1 DUP12 PUSH2 0x1585 SWAP2 SWAP1 PUSH2 0x2AA4 JUMP JUMPDEST DUP2 MLOAD DUP2 LT PUSH2 0x1596 JUMPI PUSH2 0x1595 PUSH2 0x290D JUMP JUMPDEST JUMPDEST PUSH1 0x20 ADD ADD MLOAD PUSH1 0xF8 SHR PUSH1 0xF8 SHL PUSH1 0xF8 SHR PUSH1 0xFF AND PUSH2 0x15B1 SWAP2 SWAP1 PUSH2 0x2DAB JUMP JUMPDEST PUSH8 0xFFFFFFFFFFFFFFFF AND DUP11 DUP11 DUP2 MLOAD DUP2 LT PUSH2 0x15CE JUMPI PUSH2 0x15CD PUSH2 0x290D JUMP JUMPDEST JUMPDEST PUSH1 0x20 ADD ADD MLOAD PUSH1 0xF8 SHR PUSH1 0xF8 SHL PUSH1 0xF8 SHR PUSH1 0xFF AND PUSH8 0xFFFFFFFFFFFFFFFF AND PUSH2 0x15F3 SWAP2 SWAP1 PUSH2 0x2AA4 JUMP JUMPDEST PUSH2 0x15FD SWAP2 SWAP1 PUSH2 0x2AA4 JUMP JUMPDEST PUSH2 0x1607 SWAP2 SWAP1 PUSH2 0x2AA4 JUMP JUMPDEST PUSH2 0x1611 SWAP2 SWAP1 PUSH2 0x2AA4 JUMP JUMPDEST PUSH2 0x161B SWAP2 SWAP1 PUSH2 0x2AA4 JUMP JUMPDEST PUSH2 0x1625 SWAP2 SWAP1 PUSH2 0x2AA4 JUMP JUMPDEST PUSH2 0x162F SWAP2 SWAP1 PUSH2 0x2AA4 JUMP JUMPDEST SWAP1 POP PUSH2 0x1637 JUMP JUMPDEST JUMPDEST SWAP4 SWAP3 POP POP POP JUMP JUMPDEST PUSH1 0x0 PUSH1 0x19 DUP3 EQ DUP1 ISZERO PUSH2 0x1692 JUMPI POP PUSH1 0x76 PUSH1 0xF8 SHL DUP5 DUP5 DUP2 MLOAD DUP2 LT PUSH2 0x1663 JUMPI PUSH2 0x1662 PUSH2 0x290D JUMP JUMPDEST JUMPDEST PUSH1 0x20 ADD ADD MLOAD PUSH1 0xF8 SHR PUSH1 0xF8 SHL PUSH31 0xFFFFFFFFFFFFFFFFFFFFFFFFFFFFFFFFFFFFFFFFFFFFFFFFFFFFFFFFFFFFFF NOT AND EQ JUMPDEST DUP1 ISZERO PUSH2 0x16EC JUMPI POP PUSH1 0xA9 PUSH1 0xF8 SHL DUP5 PUSH1 0x1 DUP6 PUSH2 0x16AC SWAP2 SWAP1 PUSH2 0x2AA4 JUMP JUMPDEST DUP2 MLOAD DUP2 LT PUSH2 0x16BD JUMPI PUSH2 0x16BC PUSH2 0x290D JUMP JUMPDEST JUMPDEST PUSH1 0x20 ADD ADD MLOAD PUSH1 0xF8 SHR PUSH1 0xF8 SHL PUSH31 0xFFFFFFFFFFFFFFFFFFFFFFFFFFFFFFFFFFFFFFFFFFFFFFFFFFFFFFFFFFFFFF NOT AND EQ JUMPDEST DUP1 ISZERO PUSH2 0x1746 JUMPI POP PUSH1 0x14 PUSH1 0xF8 SHL DUP5 PUSH1 0x2 DUP6 PUSH2 0x1706 SWAP2 SWAP1 PUSH2 0x2AA4 JUMP JUMPDEST DUP2 MLOAD DUP2 LT PUSH2 0x1717 JUMPI PUSH2 0x1716 PUSH2 0x290D JUMP JUMPDEST JUMPDEST PUSH1 0x20 ADD ADD MLOAD PUSH1 0xF8 SHR PUSH1 0xF8 SHL PUSH31 0xFFFFFFFFFFFFFFFFFFFFFFFFFFFFFFFFFFFFFFFFFFFFFFFFFFFFFFFFFFFFFF NOT AND EQ JUMPDEST DUP1 ISZERO PUSH2 0x17A0 JUMPI POP PUSH1 0x88 PUSH1 0xF8 SHL DUP5 PUSH1 0x17 DUP6 PUSH2 0x1760 SWAP2 SWAP1 PUSH2 0x2AA4 JUMP JUMPDEST DUP2 MLOAD DUP2 LT PUSH2 0x1771 JUMPI PUSH2 0x1770 PUSH2 0x290D JUMP JUMPDEST JUMPDEST PUSH1 0x20 ADD ADD MLOAD PUSH1 0xF8 SHR PUSH1 0xF8 SHL PUSH31 0xFFFFFFFFFFFFFFFFFFFFFFFFFFFFFFFFFFFFFFFFFFFFFFFFFFFFFFFFFFFFFF NOT AND EQ JUMPDEST DUP1 ISZERO PUSH2 0x17FA JUMPI POP PUSH1 0xAC PUSH1 0xF8 SHL DUP5 PUSH1 0x18 DUP6 PUSH2 0x17BA SWAP2 SWAP1 PUSH2 0x2AA4 JUMP JUMPDEST DUP2 MLOAD DUP2 LT PUSH2 0x17CB JUMPI PUSH2 0x17CA PUSH2 0x290D JUMP JUMPDEST JUMPDEST PUSH1 0x20 ADD ADD MLOAD PUSH1 0xF8 SHR PUSH1 0xF8 SHL PUSH31 0xFFFFFFFFFFFFFFFFFFFFFFFFFFFFFFFFFFFFFFFFFFFFFFFFFFFFFFFFFFFFFF NOT AND EQ JUMPDEST SWAP1 POP SWAP4 SWAP3 POP POP POP JUMP JUMPDEST PUSH2 0x1899 DUP2 PUSH1 0x40 MLOAD PUSH1 0x24 ADD PUSH2 0x1817 SWAP2 SWAP1 PUSH2 0x2DE8 JUMP JUMPDEST PUSH1 0x40 MLOAD PUSH1 0x20 DUP2 DUP4 SUB SUB DUP2 MSTORE SWAP1 PUSH1 0x40 MSTORE PUSH32 0x41304FAC00000000000000000000000000000000000000000000000000000000 PUSH28 0xFFFFFFFFFFFFFFFFFFFFFFFFFFFFFFFFFFFFFFFFFFFFFFFFFFFFFFFF NOT AND PUSH1 0x20 DUP3 ADD DUP1 MLOAD PUSH28 0xFFFFFFFFFFFFFFFFFFFFFFFFFFFFFFFFFFFFFFFFFFFFFFFFFFFFFFFF DUP4 DUP2 DUP4 AND OR DUP4 MSTORE POP POP POP POP PUSH2 0x1059 JUMP JUMPDEST POP JUMP JUMPDEST PUSH1 0x0 DUP1 PUSH1 0x0 SWAP1 POP PUSH1 0x0 JUMPDEST PUSH1 0x14 DUP2 PUSH20 0xFFFFFFFFFFFFFFFFFFFFFFFFFFFFFFFFFFFFFFFF AND LT ISZERO PUSH2 0x1971 JUMPI DUP1 PUSH1 0x13 PUSH2 0x18D2 SWAP2 SWAP1 PUSH2 0x2E2A JUMP JUMPDEST PUSH1 0x8 PUSH2 0x18DE SWAP2 SWAP1 PUSH2 0x2E72 JUMP JUMPDEST PUSH20 0xFFFFFFFFFFFFFFFFFFFFFFFFFFFFFFFFFFFFFFFF AND DUP6 DUP6 DUP4 PUSH20 0xFFFFFFFFFFFFFFFFFFFFFFFFFFFFFFFFFFFFFFFF AND PUSH2 0x1917 SWAP2 SWAP1 PUSH2 0x2AA4 JUMP JUMPDEST DUP2 MLOAD DUP2 LT PUSH2 0x1928 JUMPI PUSH2 0x1927 PUSH2 0x290D JUMP JUMPDEST JUMPDEST PUSH1 0x20 ADD ADD MLOAD PUSH1 0xF8 SHR PUSH1 0xF8 SHL PUSH1 0xF8 SHR PUSH1 0xFF AND PUSH20 0xFFFFFFFFFFFFFFFFFFFFFFFFFFFFFFFFFFFFFFFF AND SWAP1 SHL DUP3 PUSH2 0x195C SWAP2 SWAP1 PUSH2 0x2EB4 JUMP JUMPDEST SWAP2 POP DUP1 DUP1 PUSH2 0x1969 SWAP1 PUSH2 0x2EFC JUMP JUMPDEST SWAP2 POP POP PUSH2 0x18A6 JUMP JUMPDEST POP DUP1 PUSH1 0x60 SHL SWAP2 POP POP SWAP3 SWAP2 POP POP JUMP JUMPDEST PUSH1 0x0 PUSH1 0x17 DUP3 EQ DUP1 ISZERO PUSH2 0x19DF JUMPI POP PUSH1 0xA9 PUSH1 0xF8 SHL DUP5 PUSH1 0x0 DUP6 PUSH2 0x199F SWAP2 SWAP1 PUSH2 0x2AA4 JUMP JUMPDEST DUP2 MLOAD DUP2 LT PUSH2 0x19B0 JUMPI PUSH2 0x19AF PUSH2 0x290D JUMP JUMPDEST JUMPDEST PUSH1 0x20 ADD ADD MLOAD PUSH1 0xF8 SHR PUSH1 0xF8 SHL PUSH31 0xFFFFFFFFFFFFFFFFFFFFFFFFFFFFFFFFFFFFFFFFFFFFFFFFFFFFFFFFFFFFFF NOT AND EQ JUMPDEST DUP1 ISZERO PUSH2 0x1A39 JUMPI POP PUSH1 0x14 PUSH1 0xF8 SHL DUP5 PUSH1 0x1 DUP6 PUSH2 0x19F9 SWAP2 SWAP1 PUSH2 0x2AA4 JUMP JUMPDEST DUP2 MLOAD DUP2 LT PUSH2 0x1A0A JUMPI PUSH2 0x1A09 PUSH2 0x290D JUMP JUMPDEST JUMPDEST PUSH1 0x20 ADD ADD MLOAD PUSH1 0xF8 SHR PUSH1 0xF8 SHL PUSH31 0xFFFFFFFFFFFFFFFFFFFFFFFFFFFFFFFFFFFFFFFFFFFFFFFFFFFFFFFFFFFFFF NOT AND EQ JUMPDEST DUP1 ISZERO PUSH2 0x1A93 JUMPI POP PUSH1 0x87 PUSH1 0xF8 SHL DUP5 PUSH1 0x16 DUP6 PUSH2 0x1A53 SWAP2 SWAP1 PUSH2 0x2AA4 JUMP JUMPDEST DUP2 MLOAD DUP2 LT PUSH2 0x1A64 JUMPI PUSH2 0x1A63 PUSH2 0x290D JUMP JUMPDEST JUMPDEST PUSH1 0x20 ADD ADD MLOAD PUSH1 0xF8 SHR PUSH1 0xF8 SHL PUSH31 0xFFFFFFFFFFFFFFFFFFFFFFFFFFFFFFFFFFFFFFFFFFFFFFFFFFFFFFFFFFFFFF NOT AND EQ JUMPDEST SWAP1 POP SWAP4 SWAP3 POP POP POP JUMP JUMPDEST PUSH1 0x0 PUSH1 0x22 DUP3 EQ DUP1 ISZERO PUSH2 0x1AFC JUMPI POP PUSH1 0x6A PUSH1 0xF8 SHL DUP5 PUSH1 0x0 DUP6 PUSH2 0x1ABC SWAP2 SWAP1 PUSH2 0x2AA4 JUMP JUMPDEST DUP2 MLOAD DUP2 LT PUSH2 0x1ACD JUMPI PUSH2 0x1ACC PUSH2 0x290D JUMP JUMPDEST JUMPDEST PUSH1 0x20 ADD ADD MLOAD PUSH1 0xF8 SHR PUSH1 0xF8 SHL PUSH31 0xFFFFFFFFFFFFFFFFFFFFFFFFFFFFFFFFFFFFFFFFFFFFFFFFFFFFFFFFFFFFFF NOT AND EQ JUMPDEST DUP1 ISZERO PUSH2 0x1B56 JUMPI POP PUSH1 0x20 PUSH1 0xF8 SHL DUP5 PUSH1 0x1 DUP6 PUSH2 0x1B16 SWAP2 SWAP1 PUSH2 0x2AA4 JUMP JUMPDEST DUP2 MLOAD DUP2 LT PUSH2 0x1B27 JUMPI PUSH2 0x1B26 PUSH2 0x290D JUMP JUMPDEST JUMPDEST PUSH1 0x20 ADD ADD MLOAD PUSH1 0xF8 SHR PUSH1 0xF8 SHL PUSH31 0xFFFFFFFFFFFFFFFFFFFFFFFFFFFFFFFFFFFFFFFFFFFFFFFFFFFFFFFFFFFFFF NOT AND EQ JUMPDEST SWAP1 POP SWAP4 SWAP3 POP POP POP JUMP JUMPDEST PUSH1 0x0 DUP1 PUSH1 0x0 SWAP1 POP PUSH1 0x0 JUMPDEST PUSH1 0x20 DUP2 LT ISZERO PUSH2 0x1BDC JUMPI DUP1 PUSH1 0x1F PUSH2 0x1B7F SWAP2 SWAP1 PUSH2 0x2F38 JUMP JUMPDEST PUSH1 0x8 PUSH2 0x1B8B SWAP2 SWAP1 PUSH2 0x2A62 JUMP JUMPDEST DUP6 DUP6 DUP4 PUSH2 0x1B98 SWAP2 SWAP1 PUSH2 0x2AA4 JUMP JUMPDEST DUP2 MLOAD DUP2 LT PUSH2 0x1BA9 JUMPI PUSH2 0x1BA8 PUSH2 0x290D JUMP JUMPDEST JUMPDEST PUSH1 0x20 ADD ADD MLOAD PUSH1 0xF8 SHR PUSH1 0xF8 SHL PUSH1 0xF8 SHR PUSH1 0xFF AND SWAP1 SHL DUP3 PUSH2 0x1BC7 SWAP2 SWAP1 PUSH2 0x2AA4 JUMP JUMPDEST SWAP2 POP DUP1 DUP1 PUSH2 0x1BD4 SWAP1 PUSH2 0x296B JUMP JUMPDEST SWAP2 POP POP PUSH2 0x1B69 JUMP JUMPDEST POP DUP1 PUSH1 0x0 SHL SWAP2 POP POP SWAP3 SWAP2 POP POP JUMP JUMPDEST PUSH1 0x0 PUSH1 0x72 DUP3 EQ DUP1 ISZERO PUSH2 0x1C4A JUMPI POP PUSH1 0x76 PUSH1 0xF8 SHL DUP5 PUSH1 0x0 DUP6 PUSH2 0x1C0A SWAP2 SWAP1 PUSH2 0x2AA4 JUMP JUMPDEST DUP2 MLOAD DUP2 LT PUSH2 0x1C1B JUMPI PUSH2 0x1C1A PUSH2 0x290D JUMP JUMPDEST JUMPDEST PUSH1 0x20 ADD ADD MLOAD PUSH1 0xF8 SHR PUSH1 0xF8 SHL PUSH31 0xFFFFFFFFFFFFFFFFFFFFFFFFFFFFFFFFFFFFFFFFFFFFFFFFFFFFFFFFFFFFFF NOT AND EQ JUMPDEST DUP1 ISZERO PUSH2 0x1CA4 JUMPI POP PUSH1 0x21 PUSH1 0xF8 SHL DUP5 PUSH1 0x1 DUP6 PUSH2 0x1C64 SWAP2 SWAP1 PUSH2 0x2AA4 JUMP JUMPDEST DUP2 MLOAD DUP2 LT PUSH2 0x1C75 JUMPI PUSH2 0x1C74 PUSH2 0x290D JUMP JUMPDEST JUMPDEST PUSH1 0x20 ADD ADD MLOAD PUSH1 0xF8 SHR PUSH1 0xF8 SHL PUSH31 0xFFFFFFFFFFFFFFFFFFFFFFFFFFFFFFFFFFFFFFFFFFFFFFFFFFFFFFFFFFFFFF NOT AND EQ JUMPDEST DUP1 ISZERO PUSH2 0x1CFE JUMPI POP PUSH1 0xAC PUSH1 0xF8 SHL DUP5 PUSH1 0x23 DUP6 PUSH2 0x1CBE SWAP2 SWAP1 PUSH2 0x2AA4 JUMP JUMPDEST DUP2 MLOAD DUP2 LT PUSH2 0x1CCF JUMPI PUSH2 0x1CCE PUSH2 0x290D JUMP JUMPDEST JUMPDEST PUSH1 0x20 ADD ADD MLOAD PUSH1 0xF8 SHR PUSH1 0xF8 SHL PUSH31 0xFFFFFFFFFFFFFFFFFFFFFFFFFFFFFFFFFFFFFFFFFFFFFFFFFFFFFFFFFFFFFF NOT AND EQ JUMPDEST DUP1 ISZERO PUSH2 0x1D58 JUMPI POP PUSH1 0x63 PUSH1 0xF8 SHL DUP5 PUSH1 0x24 DUP6 PUSH2 0x1D18 SWAP2 SWAP1 PUSH2 0x2AA4 JUMP JUMPDEST DUP2 MLOAD DUP2 LT PUSH2 0x1D29 JUMPI PUSH2 0x1D28 PUSH2 0x290D JUMP JUMPDEST JUMPDEST PUSH1 0x20 ADD ADD MLOAD PUSH1 0xF8 SHR PUSH1 0xF8 SHL PUSH31 0xFFFFFFFFFFFFFFFFFFFFFFFFFFFFFFFFFFFFFFFFFFFFFFFFFFFFFFFFFFFFFF NOT AND EQ JUMPDEST DUP1 ISZERO PUSH2 0x1DB2 JUMPI POP PUSH1 0x75 PUSH1 0xF8 SHL DUP5 PUSH1 0x25 DUP6 PUSH2 0x1D72 SWAP2 SWAP1 PUSH2 0x2AA4 JUMP JUMPDEST DUP2 MLOAD DUP2 LT PUSH2 0x1D83 JUMPI PUSH2 0x1D82 PUSH2 0x290D JUMP JUMPDEST JUMPDEST PUSH1 0x20 ADD ADD MLOAD PUSH1 0xF8 SHR PUSH1 0xF8 SHL PUSH31 0xFFFFFFFFFFFFFFFFFFFFFFFFFFFFFFFFFFFFFFFFFFFFFFFFFFFFFFFFFFFFFF NOT AND EQ JUMPDEST DUP1 ISZERO PUSH2 0x1E0C JUMPI POP PUSH1 0xAA PUSH1 0xF8 SHL DUP5 PUSH1 0x26 DUP6 PUSH2 0x1DCC SWAP2 SWAP1 PUSH2 0x2AA4 JUMP JUMPDEST DUP2 MLOAD DUP2 LT PUSH2 0x1DDD JUMPI PUSH2 0x1DDC PUSH2 0x290D JUMP JUMPDEST JUMPDEST PUSH1 0x20 ADD ADD MLOAD PUSH1 0xF8 SHR PUSH1 0xF8 SHL PUSH31 0xFFFFFFFFFFFFFFFFFFFFFFFFFFFFFFFFFFFFFFFFFFFFFFFFFFFFFFFFFFFFFF NOT AND EQ JUMPDEST DUP1 ISZERO PUSH2 0x1E66 JUMPI POP PUSH1 0x20 PUSH1 0xF8 SHL DUP5 PUSH1 0x27 DUP6 PUSH2 0x1E26 SWAP2 SWAP1 PUSH2 0x2AA4 JUMP JUMPDEST DUP2 MLOAD DUP2 LT PUSH2 0x1E37 JUMPI PUSH2 0x1E36 PUSH2 0x290D JUMP JUMPDEST JUMPDEST PUSH1 0x20 ADD ADD MLOAD PUSH1 0xF8 SHR PUSH1 0xF8 SHL PUSH31 0xFFFFFFFFFFFFFFFFFFFFFFFFFFFFFFFFFFFFFFFFFFFFFFFFFFFFFFFFFFFFFF NOT AND EQ JUMPDEST DUP1 ISZERO PUSH2 0x1EC0 JUMPI POP PUSH1 0x88 PUSH1 0xF8 SHL DUP5 PUSH1 0x48 DUP6 PUSH2 0x1E80 SWAP2 SWAP1 PUSH2 0x2AA4 JUMP JUMPDEST DUP2 MLOAD DUP2 LT PUSH2 0x1E91 JUMPI PUSH2 0x1E90 PUSH2 0x290D JUMP JUMPDEST JUMPDEST PUSH1 0x20 ADD ADD MLOAD PUSH1 0xF8 SHR PUSH1 0xF8 SHL PUSH31 0xFFFFFFFFFFFFFFFFFFFFFFFFFFFFFFFFFFFFFFFFFFFFFFFFFFFFFFFFFFFFFF NOT AND EQ JUMPDEST DUP1 ISZERO PUSH2 0x1F1A JUMPI POP PUSH1 0x67 PUSH1 0xF8 SHL DUP5 PUSH1 0x49 DUP6 PUSH2 0x1EDA SWAP2 SWAP1 PUSH2 0x2AA4 JUMP JUMPDEST DUP2 MLOAD DUP2 LT PUSH2 0x1EEB JUMPI PUSH2 0x1EEA PUSH2 0x290D JUMP JUMPDEST JUMPDEST PUSH1 0x20 ADD ADD MLOAD PUSH1 0xF8 SHR PUSH1 0xF8 SHL PUSH31 0xFFFFFFFFFFFFFFFFFFFFFFFFFFFFFFFFFFFFFFFFFFFFFFFFFFFFFFFFFFFFFF NOT AND EQ JUMPDEST DUP1 ISZERO PUSH2 0x1F74 JUMPI POP PUSH1 0x21 PUSH1 0xF8 SHL DUP5 PUSH1 0x4A DUP6 PUSH2 0x1F34 SWAP2 SWAP1 PUSH2 0x2AA4 JUMP JUMPDEST DUP2 MLOAD DUP2 LT PUSH2 0x1F45 JUMPI PUSH2 0x1F44 PUSH2 0x290D JUMP JUMPDEST JUMPDEST PUSH1 0x20 ADD ADD MLOAD PUSH1 0xF8 SHR PUSH1 0xF8 SHL PUSH31 0xFFFFFFFFFFFFFFFFFFFFFFFFFFFFFFFFFFFFFFFFFFFFFFFFFFFFFFFFFFFFFF NOT AND EQ JUMPDEST DUP1 ISZERO PUSH2 0x1FCE JUMPI POP PUSH1 0xAD PUSH1 0xF8 SHL DUP5 PUSH1 0x6C DUP6 PUSH2 0x1F8E SWAP2 SWAP1 PUSH2 0x2AA4 JUMP JUMPDEST DUP2 MLOAD DUP2 LT PUSH2 0x1F9F JUMPI PUSH2 0x1F9E PUSH2 0x290D JUMP JUMPDEST JUMPDEST PUSH1 0x20 ADD ADD MLOAD PUSH1 0xF8 SHR PUSH1 0xF8 SHL PUSH31 0xFFFFFFFFFFFFFFFFFFFFFFFFFFFFFFFFFFFFFFFFFFFFFFFFFFFFFFFFFFFFFF NOT AND EQ JUMPDEST DUP1 ISZERO PUSH2 0x2028 JUMPI POP PUSH1 0x52 PUSH1 0xF8 SHL DUP5 PUSH1 0x6D DUP6 PUSH2 0x1FE8 SWAP2 SWAP1 PUSH2 0x2AA4 JUMP JUMPDEST DUP2 MLOAD DUP2 LT PUSH2 0x1FF9 JUMPI PUSH2 0x1FF8 PUSH2 0x290D JUMP JUMPDEST JUMPDEST PUSH1 0x20 ADD ADD MLOAD PUSH1 0xF8 SHR PUSH1 0xF8 SHL PUSH31 0xFFFFFFFFFFFFFFFFFFFFFFFFFFFFFFFFFFFFFFFFFFFFFFFFFFFFFFFFFFFFFF NOT AND EQ JUMPDEST DUP1 ISZERO PUSH2 0x2082 JUMPI POP PUSH1 0xB2 PUSH1 0xF8 SHL DUP5 PUSH1 0x6E DUP6 PUSH2 0x2042 SWAP2 SWAP1 PUSH2 0x2AA4 JUMP JUMPDEST DUP2 MLOAD DUP2 LT PUSH2 0x2053 JUMPI PUSH2 0x2052 PUSH2 0x290D JUMP JUMPDEST JUMPDEST PUSH1 0x20 ADD ADD MLOAD PUSH1 0xF8 SHR PUSH1 0xF8 SHL PUSH31 0xFFFFFFFFFFFFFFFFFFFFFFFFFFFFFFFFFFFFFFFFFFFFFFFFFFFFFFFFFFFFFF NOT AND EQ JUMPDEST DUP1 ISZERO PUSH2 0x20DC JUMPI POP PUSH1 0x75 PUSH1 0xF8 SHL DUP5 PUSH1 0x6F DUP6 PUSH2 0x209C SWAP2 SWAP1 PUSH2 0x2AA4 JUMP JUMPDEST DUP2 MLOAD DUP2 LT PUSH2 0x20AD JUMPI PUSH2 0x20AC PUSH2 0x290D JUMP JUMPDEST JUMPDEST PUSH1 0x20 ADD ADD MLOAD PUSH1 0xF8 SHR PUSH1 0xF8 SHL PUSH31 0xFFFFFFFFFFFFFFFFFFFFFFFFFFFFFFFFFFFFFFFFFFFFFFFFFFFFFFFFFFFFFF NOT AND EQ JUMPDEST DUP1 ISZERO PUSH2 0x2136 JUMPI POP PUSH1 0x68 PUSH1 0xF8 SHL DUP5 PUSH1 0x70 DUP6 PUSH2 0x20F6 SWAP2 SWAP1 PUSH2 0x2AA4 JUMP JUMPDEST DUP2 MLOAD DUP2 LT PUSH2 0x2107 JUMPI PUSH2 0x2106 PUSH2 0x290D JUMP JUMPDEST JUMPDEST PUSH1 0x20 ADD ADD MLOAD PUSH1 0xF8 SHR PUSH1 0xF8 SHL PUSH31 0xFFFFFFFFFFFFFFFFFFFFFFFFFFFFFFFFFFFFFFFFFFFFFFFFFFFFFFFFFFFFFF NOT AND EQ JUMPDEST DUP1 ISZERO PUSH2 0x2190 JUMPI POP PUSH1 0x51 PUSH1 0xF8 SHL DUP5 PUSH1 0x71 DUP6 PUSH2 0x2150 SWAP2 SWAP1 PUSH2 0x2AA4 JUMP JUMPDEST DUP2 MLOAD DUP2 LT PUSH2 0x2161 JUMPI PUSH2 0x2160 PUSH2 0x290D JUMP JUMPDEST JUMPDEST PUSH1 0x20 ADD ADD MLOAD PUSH1 0xF8 SHR PUSH1 0xF8 SHL PUSH31 0xFFFFFFFFFFFFFFFFFFFFFFFFFFFFFFFFFFFFFFFFFFFFFFFFFFFFFFFFFFFFFF NOT AND EQ JUMPDEST SWAP1 POP SWAP4 SWAP3 POP POP POP JUMP JUMPDEST PUSH1 0x0 PUSH11 0x636F6E736F6C652E6C6F67 SWAP1 POP PUSH1 0x0 DUP1 DUP4 MLOAD PUSH1 0x20 DUP6 ADD DUP5 GAS STATICCALL POP POP POP JUMP JUMPDEST PUSH2 0x235B DUP2 SWAP1 POP SWAP2 SWAP1 POP JUMP JUMPDEST PUSH1 0x0 DUP1 DUP4 MLOAD SWAP1 POP PUSH1 0x0 PUSH1 0x20 DUP6 ADD SWAP1 POP PUSH2 0x21E6 DUP5 PUSH5 0xFFFFFFFFFF AND DUP3 DUP5 PUSH2 0x2233 JUMP JUMPDEST SWAP3 POP POP POP SWAP3 SWAP2 POP POP JUMP JUMPDEST PUSH1 0x0 DUP1 PUSH2 0x21FC DUP4 PUSH2 0x22A1 JUMP JUMPDEST PUSH12 0xFFFFFFFFFFFFFFFFFFFFFFFF AND SWAP1 POP PUSH1 0x0 PUSH2 0x2217 DUP5 PUSH2 0x22C1 JUMP JUMPDEST PUSH12 0xFFFFFFFFFFFFFFFFFFFFFFFF AND SWAP1 POP DUP1 DUP3 KECCAK256 SWAP3 POP POP POP SWAP2 SWAP1 POP JUMP JUMPDEST PUSH1 0x0 DUP1 PUSH2 0x2249 DUP4 DUP6 PUSH2 0x22E1 SWAP1 SWAP2 SWAP1 PUSH4 0xFFFFFFFF AND JUMP JUMPDEST SWAP1 POP PUSH1 0x40 MLOAD DUP2 GT ISZERO PUSH2 0x225A JUMPI PUSH1 0x0 SWAP1 POP JUMPDEST PUSH1 0x0 DUP2 SUB PUSH2 0x228B JUMPI PUSH32 0xFFFFFFFFFFFFFFFFFFFFFFFFFFFFFFFFFFFFFFFFFFFFFFFFFFFFFFFFFF000000 SWAP2 POP POP PUSH2 0x229A JUMP JUMPDEST PUSH2 0x2296 DUP6 DUP6 DUP6 PUSH2 0x233A JUMP JUMPDEST SWAP2 POP POP JUMPDEST SWAP4 SWAP3 POP POP POP JUMP JUMPDEST PUSH1 0x0 DUP1 PUSH12 0xFFFFFFFFFFFFFFFFFFFFFFFF SWAP1 POP DUP1 DUP4 PUSH1 0x78 SHR AND SWAP2 POP POP SWAP2 SWAP1 POP JUMP JUMPDEST PUSH1 0x0 DUP1 PUSH12 0xFFFFFFFFFFFFFFFFFFFFFFFF SWAP1 POP DUP1 DUP4 PUSH1 0x18 SHR AND SWAP2 POP POP SWAP2 SWAP1 POP JUMP JUMPDEST PUSH1 0x0 DUP2 DUP4 PUSH2 0x22EF SWAP2 SWAP1 PUSH2 0x2AA4 JUMP JUMPDEST SWAP1 POP DUP3 DUP2 LT ISZERO PUSH2 0x2334 JUMPI PUSH1 0x40 MLOAD PUSH32 0x8C379A000000000000000000000000000000000000000000000000000000000 DUP2 MSTORE PUSH1 0x4 ADD PUSH2 0x232B SWAP1 PUSH2 0x2FB8 JUMP JUMPDEST PUSH1 0x40 MLOAD DUP1 SWAP2 SUB SWAP1 REVERT JUMPDEST SWAP3 SWAP2 POP POP JUMP JUMPDEST PUSH1 0x0 DUP4 DUP2 OR PUSH1 0x60 SHL SWAP1 POP DUP3 DUP2 OR PUSH1 0x60 SHL SWAP1 POP DUP2 DUP2 OR PUSH1 0x18 SHL SWAP1 POP SWAP4 SWAP3 POP POP POP JUMP JUMPDEST PUSH2 0x2363 PUSH2 0x2FD8 JUMP JUMPDEST JUMP JUMPDEST PUSH1 0x0 PUSH1 0x40 MLOAD SWAP1 POP SWAP1 JUMP JUMPDEST PUSH1 0x0 DUP1 REVERT JUMPDEST PUSH1 0x0 DUP1 REVERT JUMPDEST PUSH1 0x0 DUP2 SWAP1 POP SWAP2 SWAP1 POP JUMP JUMPDEST PUSH2 0x238C DUP2 PUSH2 0x2379 JUMP JUMPDEST DUP2 EQ PUSH2 0x2397 JUMPI PUSH1 0x0 DUP1 REVERT JUMPDEST POP JUMP JUMPDEST PUSH1 0x0 DUP2 CALLDATALOAD SWAP1 POP PUSH2 0x23A9 DUP2 PUSH2 0x2383 JUMP JUMPDEST SWAP3 SWAP2 POP POP JUMP JUMPDEST PUSH1 0x0 DUP2 SWAP1 POP SWAP2 SWAP1 POP JUMP JUMPDEST PUSH2 0x23C2 DUP2 PUSH2 0x23AF JUMP JUMPDEST DUP2 EQ PUSH2 0x23CD JUMPI PUSH1 0x0 DUP1 REVERT JUMPDEST POP JUMP JUMPDEST PUSH1 0x0 DUP2 CALLDATALOAD SWAP1 POP PUSH2 0x23DF DUP2 PUSH2 0x23B9 JUMP JUMPDEST SWAP3 SWAP2 POP POP JUMP JUMPDEST PUSH1 0x0 DUP1 PUSH1 0x0 DUP1 PUSH1 0x0 PUSH1 0xA0 DUP7 DUP9 SUB SLT ISZERO PUSH2 0x2401 JUMPI PUSH2 0x2400 PUSH2 0x236F JUMP JUMPDEST JUMPDEST PUSH1 0x0 PUSH2 0x240F DUP9 DUP3 DUP10 ADD PUSH2 0x239A JUMP JUMPDEST SWAP6 POP POP PUSH1 0x20 PUSH2 0x2420 DUP9 DUP3 DUP10 ADD PUSH2 0x239A JUMP JUMPDEST SWAP5 POP POP PUSH1 0x40 PUSH2 0x2431 DUP9 DUP3 DUP10 ADD PUSH2 0x239A JUMP JUMPDEST SWAP4 POP POP PUSH1 0x60 PUSH2 0x2442 DUP9 DUP3 DUP10 ADD PUSH2 0x23D0 JUMP JUMPDEST SWAP3 POP POP PUSH1 0x80 PUSH2 0x2453 DUP9 DUP3 DUP10 ADD PUSH2 0x23D0 JUMP JUMPDEST SWAP2 POP POP SWAP3 SWAP6 POP SWAP3 SWAP6 SWAP1 SWAP4 POP JUMP JUMPDEST PUSH1 0x0 DUP1 REVERT JUMPDEST PUSH1 0x0 DUP1 REVERT JUMPDEST PUSH1 0x0 PUSH1 0x1F NOT PUSH1 0x1F DUP4 ADD AND SWAP1 POP SWAP2 SWAP1 POP JUMP JUMPDEST PUSH32 0x4E487B7100000000000000000000000000000000000000000000000000000000 PUSH1 0x0 MSTORE PUSH1 0x41 PUSH1 0x4 MSTORE PUSH1 0x24 PUSH1 0x0 REVERT JUMPDEST PUSH2 0x24B3 DUP3 PUSH2 0x246A JUMP JUMPDEST DUP2 ADD DUP2 DUP2 LT PUSH8 0xFFFFFFFFFFFFFFFF DUP3 GT OR ISZERO PUSH2 0x24D2 JUMPI PUSH2 0x24D1 PUSH2 0x247B JUMP JUMPDEST JUMPDEST DUP1 PUSH1 0x40 MSTORE POP POP POP JUMP JUMPDEST PUSH1 0x0 PUSH2 0x24E5 PUSH2 0x2365 JUMP JUMPDEST SWAP1 POP PUSH2 0x24F1 DUP3 DUP3 PUSH2 0x24AA JUMP JUMPDEST SWAP2 SWAP1 POP JUMP JUMPDEST PUSH1 0x0 PUSH8 0xFFFFFFFFFFFFFFFF DUP3 GT ISZERO PUSH2 0x2511 JUMPI PUSH2 0x2510 PUSH2 0x247B JUMP JUMPDEST JUMPDEST PUSH2 0x251A DUP3 PUSH2 0x246A JUMP JUMPDEST SWAP1 POP PUSH1 0x20 DUP2 ADD SWAP1 POP SWAP2 SWAP1 POP JUMP JUMPDEST DUP3 DUP2 DUP4 CALLDATACOPY PUSH1 0x0 DUP4 DUP4 ADD MSTORE POP POP POP JUMP JUMPDEST PUSH1 0x0 PUSH2 0x2549 PUSH2 0x2544 DUP5 PUSH2 0x24F6 JUMP JUMPDEST PUSH2 0x24DB JUMP JUMPDEST SWAP1 POP DUP3 DUP2 MSTORE PUSH1 0x20 DUP2 ADD DUP5 DUP5 DUP5 ADD GT ISZERO PUSH2 0x2565 JUMPI PUSH2 0x2564 PUSH2 0x2465 JUMP JUMPDEST JUMPDEST PUSH2 0x2570 DUP5 DUP3 DUP6 PUSH2 0x2527 JUMP JUMPDEST POP SWAP4 SWAP3 POP POP POP JUMP JUMPDEST PUSH1 0x0 DUP3 PUSH1 0x1F DUP4 ADD SLT PUSH2 0x258D JUMPI PUSH2 0x258C PUSH2 0x2460 JUMP JUMPDEST JUMPDEST DUP2 CALLDATALOAD PUSH2 0x259D DUP5 DUP3 PUSH1 0x20 DUP7 ADD PUSH2 0x2536 JUMP JUMPDEST SWAP2 POP POP SWAP3 SWAP2 POP POP JUMP JUMPDEST PUSH1 0x0 DUP1 PUSH1 0x0 DUP1 PUSH1 0x80 DUP6 DUP8 SUB SLT ISZERO PUSH2 0x25C0 JUMPI PUSH2 0x25BF PUSH2 0x236F JUMP JUMPDEST JUMPDEST PUSH1 0x0 DUP6 ADD CALLDATALOAD PUSH8 0xFFFFFFFFFFFFFFFF DUP2 GT ISZERO PUSH2 0x25DE JUMPI PUSH2 0x25DD PUSH2 0x2374 JUMP JUMPDEST JUMPDEST PUSH2 0x25EA DUP8 DUP3 DUP9 ADD PUSH2 0x2578 JUMP JUMPDEST SWAP5 POP POP PUSH1 0x20 DUP6 ADD CALLDATALOAD PUSH8 0xFFFFFFFFFFFFFFFF DUP2 GT ISZERO PUSH2 0x260B JUMPI PUSH2 0x260A PUSH2 0x2374 JUMP JUMPDEST JUMPDEST PUSH2 0x2617 DUP8 DUP3 DUP9 ADD PUSH2 0x2578 JUMP JUMPDEST SWAP4 POP POP PUSH1 0x40 DUP6 ADD CALLDATALOAD PUSH8 0xFFFFFFFFFFFFFFFF DUP2 GT ISZERO PUSH2 0x2638 JUMPI PUSH2 0x2637 PUSH2 0x2374 JUMP JUMPDEST JUMPDEST PUSH2 0x2644 DUP8 DUP3 DUP9 ADD PUSH2 0x2578 JUMP JUMPDEST SWAP3 POP POP PUSH1 0x60 DUP6 ADD CALLDATALOAD PUSH8 0xFFFFFFFFFFFFFFFF DUP2 GT ISZERO PUSH2 0x2665 JUMPI PUSH2 0x2664 PUSH2 0x2374 JUMP JUMPDEST JUMPDEST PUSH2 0x2671 DUP8 DUP3 DUP9 ADD PUSH2 0x2578 JUMP JUMPDEST SWAP2 POP POP SWAP3 SWAP6 SWAP2 SWAP5 POP SWAP3 POP JUMP JUMPDEST PUSH1 0x0 PUSH1 0x20 DUP3 DUP5 SUB SLT ISZERO PUSH2 0x2693 JUMPI PUSH2 0x2692 PUSH2 0x236F JUMP JUMPDEST JUMPDEST PUSH1 0x0 DUP3 ADD CALLDATALOAD PUSH8 0xFFFFFFFFFFFFFFFF DUP2 GT ISZERO PUSH2 0x26B1 JUMPI PUSH2 0x26B0 PUSH2 0x2374 JUMP JUMPDEST JUMPDEST PUSH2 0x26BD DUP5 DUP3 DUP6 ADD PUSH2 0x2578 JUMP JUMPDEST SWAP2 POP POP SWAP3 SWAP2 POP POP JUMP JUMPDEST PUSH2 0x26CF DUP2 PUSH2 0x23AF JUMP JUMPDEST DUP3 MSTORE POP POP JUMP JUMPDEST PUSH2 0x26DE DUP2 PUSH2 0x2379 JUMP JUMPDEST DUP3 MSTORE POP POP JUMP JUMPDEST PUSH1 0x0 PUSH1 0xC0 DUP3 ADD SWAP1 POP PUSH2 0x26F9 PUSH1 0x0 DUP4 ADD DUP10 PUSH2 0x26C6 JUMP JUMPDEST PUSH2 0x2706 PUSH1 0x20 DUP4 ADD DUP9 PUSH2 0x26D5 JUMP JUMPDEST PUSH2 0x2713 PUSH1 0x40 DUP4 ADD DUP8 PUSH2 0x26C6 JUMP JUMPDEST PUSH2 0x2720 PUSH1 0x60 DUP4 ADD DUP7 PUSH2 0x26D5 JUMP JUMPDEST PUSH2 0x272D PUSH1 0x80 DUP4 ADD DUP6 PUSH2 0x26C6 JUMP JUMPDEST PUSH2 0x273A PUSH1 0xA0 DUP4 ADD DUP5 PUSH2 0x26D5 JUMP JUMPDEST SWAP8 SWAP7 POP POP POP POP POP POP POP JUMP JUMPDEST PUSH1 0x0 PUSH1 0xFF DUP3 AND SWAP1 POP SWAP2 SWAP1 POP JUMP JUMPDEST PUSH2 0x275B DUP2 PUSH2 0x2745 JUMP JUMPDEST DUP2 EQ PUSH2 0x2766 JUMPI PUSH1 0x0 DUP1 REVERT JUMPDEST POP JUMP JUMPDEST PUSH1 0x0 DUP2 CALLDATALOAD SWAP1 POP PUSH2 0x2778 DUP2 PUSH2 0x2752 JUMP JUMPDEST SWAP3 SWAP2 POP POP JUMP JUMPDEST PUSH1 0x0 DUP1 PUSH1 0x0 DUP1 PUSH1 0x0 PUSH1 0xA0 DUP7 DUP9 SUB SLT ISZERO PUSH2 0x279A JUMPI PUSH2 0x2799 PUSH2 0x236F JUMP JUMPDEST JUMPDEST PUSH1 0x0 DUP7 ADD CALLDATALOAD PUSH8 0xFFFFFFFFFFFFFFFF DUP2 GT ISZERO PUSH2 0x27B8 JUMPI PUSH2 0x27B7 PUSH2 0x2374 JUMP JUMPDEST JUMPDEST PUSH2 0x27C4 DUP9 DUP3 DUP10 ADD PUSH2 0x2578 JUMP JUMPDEST SWAP6 POP POP PUSH1 0x20 PUSH2 0x27D5 DUP9 DUP3 DUP10 ADD PUSH2 0x239A JUMP JUMPDEST SWAP5 POP POP PUSH1 0x40 PUSH2 0x27E6 DUP9 DUP3 DUP10 ADD PUSH2 0x2769 JUMP JUMPDEST SWAP4 POP POP PUSH1 0x60 PUSH2 0x27F7 DUP9 DUP3 DUP10 ADD PUSH2 0x239A JUMP JUMPDEST SWAP3 POP POP PUSH1 0x80 PUSH2 0x2808 DUP9 DUP3 DUP10 ADD PUSH2 0x239A JUMP JUMPDEST SWAP2 POP POP SWAP3 SWAP6 POP SWAP3 SWAP6 SWAP1 SWAP4 POP JUMP JUMPDEST PUSH1 0x0 DUP2 ISZERO ISZERO SWAP1 POP SWAP2 SWAP1 POP JUMP JUMPDEST PUSH2 0x282A DUP2 PUSH2 0x2815 JUMP JUMPDEST DUP3 MSTORE POP POP JUMP JUMPDEST PUSH1 0x0 PUSH1 0x20 DUP3 ADD SWAP1 POP PUSH2 0x2845 PUSH1 0x0 DUP4 ADD DUP5 PUSH2 0x2821 JUMP JUMPDEST SWAP3 SWAP2 POP POP JUMP JUMPDEST PUSH1 0x0 DUP1 PUSH1 0x0 PUSH1 0x60 DUP5 DUP7 SUB SLT ISZERO PUSH2 0x2864 JUMPI PUSH2 0x2863 PUSH2 0x236F JUMP JUMPDEST JUMPDEST PUSH1 0x0 DUP5 ADD CALLDATALOAD PUSH8 0xFFFFFFFFFFFFFFFF DUP2 GT ISZERO PUSH2 0x2882 JUMPI PUSH2 0x2881 PUSH2 0x2374 JUMP JUMPDEST JUMPDEST PUSH2 0x288E DUP7 DUP3 DUP8 ADD PUSH2 0x2578 JUMP JUMPDEST SWAP4 POP POP PUSH1 0x20 DUP5 ADD CALLDATALOAD PUSH8 0xFFFFFFFFFFFFFFFF DUP2 GT ISZERO PUSH2 0x28AF JUMPI PUSH2 0x28AE PUSH2 0x2374 JUMP JUMPDEST JUMPDEST PUSH2 0x28BB DUP7 DUP3 DUP8 ADD PUSH2 0x2578 JUMP JUMPDEST SWAP3 POP POP PUSH1 0x40 DUP5 ADD CALLDATALOAD PUSH8 0xFFFFFFFFFFFFFFFF DUP2 GT ISZERO PUSH2 0x28DC JUMPI PUSH2 0x28DB PUSH2 0x2374 JUMP JUMPDEST JUMPDEST PUSH2 0x28E8 DUP7 DUP3 DUP8 ADD PUSH2 0x2578 JUMP JUMPDEST SWAP2 POP POP SWAP3 POP SWAP3 POP SWAP3 JUMP JUMPDEST PUSH1 0x0 PUSH1 0x20 DUP3 ADD SWAP1 POP PUSH2 0x2907 PUSH1 0x0 DUP4 ADD DUP5 PUSH2 0x26C6 JUMP JUMPDEST SWAP3 SWAP2 POP POP JUMP JUMPDEST PUSH32 0x4E487B7100000000000000000000000000000000000000000000000000000000 PUSH1 0x0 MSTORE PUSH1 0x32 PUSH1 0x4 MSTORE PUSH1 0x24 PUSH1 0x0 REVERT JUMPDEST PUSH32 0x4E487B7100000000000000000000000000000000000000000000000000000000 PUSH1 0x0 MSTORE PUSH1 0x11 PUSH1 0x4 MSTORE PUSH1 0x24 PUSH1 0x0 REVERT JUMPDEST PUSH1 0x0 PUSH2 0x2976 DUP3 PUSH2 0x23AF JUMP JUMPDEST SWAP2 POP PUSH32 0xFFFFFFFFFFFFFFFFFFFFFFFFFFFFFFFFFFFFFFFFFFFFFFFFFFFFFFFFFFFFFFFF DUP3 SUB PUSH2 0x29A8 JUMPI PUSH2 0x29A7 PUSH2 0x293C JUMP JUMPDEST JUMPDEST PUSH1 0x1 DUP3 ADD SWAP1 POP SWAP2 SWAP1 POP JUMP JUMPDEST PUSH1 0x0 DUP2 MLOAD SWAP1 POP SWAP2 SWAP1 POP JUMP JUMPDEST PUSH1 0x0 DUP3 DUP3 MSTORE PUSH1 0x20 DUP3 ADD SWAP1 POP SWAP3 SWAP2 POP POP JUMP JUMPDEST PUSH1 0x0 JUMPDEST DUP4 DUP2 LT ISZERO PUSH2 0x29ED JUMPI DUP1 DUP3 ADD MLOAD DUP2 DUP5 ADD MSTORE PUSH1 0x20 DUP2 ADD SWAP1 POP PUSH2 0x29D2 JUMP JUMPDEST PUSH1 0x0 DUP5 DUP5 ADD MSTORE POP POP POP POP JUMP JUMPDEST PUSH1 0x0 PUSH2 0x2A04 DUP3 PUSH2 0x29B3 JUMP JUMPDEST PUSH2 0x2A0E DUP2 DUP6 PUSH2 0x29BE JUMP JUMPDEST SWAP4 POP PUSH2 0x2A1E DUP2 DUP6 PUSH1 0x20 DUP7 ADD PUSH2 0x29CF JUMP JUMPDEST PUSH2 0x2A27 DUP2 PUSH2 0x246A JUMP JUMPDEST DUP5 ADD SWAP2 POP POP SWAP3 SWAP2 POP POP JUMP JUMPDEST PUSH1 0x0 PUSH1 0x40 DUP3 ADD SWAP1 POP DUP2 DUP2 SUB PUSH1 0x0 DUP4 ADD MSTORE PUSH2 0x2A4C DUP2 DUP6 PUSH2 0x29F9 JUMP JUMPDEST SWAP1 POP PUSH2 0x2A5B PUSH1 0x20 DUP4 ADD DUP5 PUSH2 0x26C6 JUMP JUMPDEST SWAP4 SWAP3 POP POP POP JUMP JUMPDEST PUSH1 0x0 PUSH2 0x2A6D DUP3 PUSH2 0x23AF JUMP JUMPDEST SWAP2 POP PUSH2 0x2A78 DUP4 PUSH2 0x23AF JUMP JUMPDEST SWAP3 POP DUP3 DUP3 MUL PUSH2 0x2A86 DUP2 PUSH2 0x23AF JUMP JUMPDEST SWAP2 POP DUP3 DUP3 DIV DUP5 EQ DUP4 ISZERO OR PUSH2 0x2A9D JUMPI PUSH2 0x2A9C PUSH2 0x293C JUMP JUMPDEST JUMPDEST POP SWAP3 SWAP2 POP POP JUMP JUMPDEST PUSH1 0x0 PUSH2 0x2AAF DUP3 PUSH2 0x23AF JUMP JUMPDEST SWAP2 POP PUSH2 0x2ABA DUP4 PUSH2 0x23AF JUMP JUMPDEST SWAP3 POP DUP3 DUP3 ADD SWAP1 POP DUP1 DUP3 GT ISZERO PUSH2 0x2AD2 JUMPI PUSH2 0x2AD1 PUSH2 0x293C JUMP JUMPDEST JUMPDEST SWAP3 SWAP2 POP POP JUMP JUMPDEST PUSH1 0x0 PUSH2 0x2AE3 DUP3 PUSH2 0x23AF JUMP JUMPDEST SWAP2 POP PUSH1 0x0 DUP3 SUB PUSH2 0x2AF6 JUMPI PUSH2 0x2AF5 PUSH2 0x293C JUMP JUMPDEST JUMPDEST PUSH1 0x1 DUP3 SUB SWAP1 POP SWAP2 SWAP1 POP JUMP JUMPDEST PUSH1 0x0 PUSH1 0x40 DUP3 ADD SWAP1 POP PUSH2 0x2B16 PUSH1 0x0 DUP4 ADD DUP6 PUSH2 0x26C6 JUMP JUMPDEST PUSH2 0x2B23 PUSH1 0x20 DUP4 ADD DUP5 PUSH2 0x26C6 JUMP JUMPDEST SWAP4 SWAP3 POP POP POP JUMP JUMPDEST PUSH1 0x0 PUSH1 0x40 DUP3 ADD SWAP1 POP DUP2 DUP2 SUB PUSH1 0x0 DUP4 ADD MSTORE PUSH2 0x2B44 DUP2 DUP6 PUSH2 0x29F9 JUMP JUMPDEST SWAP1 POP DUP2 DUP2 SUB PUSH1 0x20 DUP4 ADD MSTORE PUSH2 0x2B58 DUP2 DUP5 PUSH2 0x29F9 JUMP JUMPDEST SWAP1 POP SWAP4 SWAP3 POP POP POP JUMP JUMPDEST PUSH32 0x436865636B426974636F696E536967732F636865636B536967202D2D20526571 PUSH1 0x0 DUP3 ADD MSTORE PUSH32 0x756972657320756E636F6D7072657373656420756E7072656669786564207075 PUSH1 0x20 DUP3 ADD MSTORE PUSH32 0x626B657900000000000000000000000000000000000000000000000000000000 PUSH1 0x40 DUP3 ADD MSTORE POP JUMP JUMPDEST PUSH1 0x0 PUSH2 0x2BE3 PUSH1 0x44 DUP4 PUSH2 0x29BE JUMP JUMPDEST SWAP2 POP PUSH2 0x2BEE DUP3 PUSH2 0x2B61 JUMP JUMPDEST PUSH1 0x60 DUP3 ADD SWAP1 POP SWAP2 SWAP1 POP JUMP JUMPDEST PUSH1 0x0 PUSH1 0x20 DUP3 ADD SWAP1 POP DUP2 DUP2 SUB PUSH1 0x0 DUP4 ADD MSTORE PUSH2 0x2C12 DUP2 PUSH2 0x2BD6 JUMP JUMPDEST SWAP1 POP SWAP2 SWAP1 POP JUMP JUMPDEST PUSH2 0x2C22 DUP2 PUSH2 0x2745 JUMP JUMPDEST DUP3 MSTORE POP POP JUMP JUMPDEST PUSH1 0x0 PUSH1 0x80 DUP3 ADD SWAP1 POP PUSH2 0x2C3D PUSH1 0x0 DUP4 ADD DUP8 PUSH2 0x26D5 JUMP JUMPDEST PUSH2 0x2C4A PUSH1 0x20 DUP4 ADD DUP7 PUSH2 0x2C19 JUMP JUMPDEST PUSH2 0x2C57 PUSH1 0x40 DUP4 ADD DUP6 PUSH2 0x26D5 JUMP JUMPDEST PUSH2 0x2C64 PUSH1 0x60 DUP4 ADD DUP5 PUSH2 0x26D5 JUMP JUMPDEST SWAP6 SWAP5 POP POP POP POP POP JUMP JUMPDEST PUSH32 0x5075626B6579206D7573742062652036342D62797465207261772C20756E636F PUSH1 0x0 DUP3 ADD MSTORE PUSH32 0x6D70726573736564206B65792E00000000000000000000000000000000000000 PUSH1 0x20 DUP3 ADD MSTORE POP JUMP JUMPDEST PUSH1 0x0 PUSH2 0x2CC9 PUSH1 0x2D DUP4 PUSH2 0x29BE JUMP JUMPDEST SWAP2 POP PUSH2 0x2CD4 DUP3 PUSH2 0x2C6D JUMP JUMPDEST PUSH1 0x40 DUP3 ADD SWAP1 POP SWAP2 SWAP1 POP JUMP JUMPDEST PUSH1 0x0 PUSH1 0x20 DUP3 ADD SWAP1 POP DUP2 DUP2 SUB PUSH1 0x0 DUP4 ADD MSTORE PUSH2 0x2CF8 DUP2 PUSH2 0x2CBC JUMP JUMPDEST SWAP1 POP SWAP2 SWAP1 POP JUMP JUMPDEST PUSH1 0x0 PUSH2 0xFFFF DUP3 AND SWAP1 POP SWAP2 SWAP1 POP JUMP JUMPDEST PUSH1 0x0 PUSH2 0x2D18 DUP3 PUSH2 0x2CFF JUMP JUMPDEST SWAP2 POP PUSH2 0x2D23 DUP4 PUSH2 0x2CFF JUMP JUMPDEST SWAP3 POP DUP3 DUP3 MUL PUSH2 0x2D31 DUP2 PUSH2 0x2CFF JUMP JUMPDEST SWAP2 POP DUP1 DUP3 EQ PUSH2 0x2D43 JUMPI PUSH2 0x2D42 PUSH2 0x293C JUMP JUMPDEST JUMPDEST POP SWAP3 SWAP2 POP POP JUMP JUMPDEST PUSH1 0x0 PUSH4 0xFFFFFFFF DUP3 AND SWAP1 POP SWAP2 SWAP1 POP JUMP JUMPDEST PUSH1 0x0 PUSH2 0x2D65 DUP3 PUSH2 0x2D4A JUMP JUMPDEST SWAP2 POP PUSH2 0x2D70 DUP4 PUSH2 0x2D4A JUMP JUMPDEST SWAP3 POP DUP3 DUP3 MUL PUSH2 0x2D7E DUP2 PUSH2 0x2D4A JUMP JUMPDEST SWAP2 POP DUP1 DUP3 EQ PUSH2 0x2D90 JUMPI PUSH2 0x2D8F PUSH2 0x293C JUMP JUMPDEST JUMPDEST POP SWAP3 SWAP2 POP POP JUMP JUMPDEST PUSH1 0x0 PUSH8 0xFFFFFFFFFFFFFFFF DUP3 AND SWAP1 POP SWAP2 SWAP1 POP JUMP JUMPDEST PUSH1 0x0 PUSH2 0x2DB6 DUP3 PUSH2 0x2D97 JUMP JUMPDEST SWAP2 POP PUSH2 0x2DC1 DUP4 PUSH2 0x2D97 JUMP JUMPDEST SWAP3 POP DUP3 DUP3 MUL PUSH2 0x2DCF DUP2 PUSH2 0x2D97 JUMP JUMPDEST SWAP2 POP DUP1 DUP3 EQ PUSH2 0x2DE1 JUMPI PUSH2 0x2DE0 PUSH2 0x293C JUMP JUMPDEST JUMPDEST POP SWAP3 SWAP2 POP POP JUMP JUMPDEST PUSH1 0x0 PUSH1 0x20 DUP3 ADD SWAP1 POP DUP2 DUP2 SUB PUSH1 0x0 DUP4 ADD MSTORE PUSH2 0x2E02 DUP2 DUP5 PUSH2 0x29F9 JUMP JUMPDEST SWAP1 POP SWAP3 SWAP2 POP POP JUMP JUMPDEST PUSH1 0x0 PUSH20 0xFFFFFFFFFFFFFFFFFFFFFFFFFFFFFFFFFFFFFFFF DUP3 AND SWAP1 POP SWAP2 SWAP1 POP JUMP JUMPDEST PUSH1 0x0 PUSH2 0x2E35 DUP3 PUSH2 0x2E0A JUMP JUMPDEST SWAP2 POP PUSH2 0x2E40 DUP4 PUSH2 0x2E0A JUMP JUMPDEST SWAP3 POP DUP3 DUP3 SUB SWAP1 POP PUSH20 0xFFFFFFFFFFFFFFFFFFFFFFFFFFFFFFFFFFFFFFFF DUP2 GT ISZERO PUSH2 0x2E6C JUMPI PUSH2 0x2E6B PUSH2 0x293C JUMP JUMPDEST JUMPDEST SWAP3 SWAP2 POP POP JUMP JUMPDEST PUSH1 0x0 PUSH2 0x2E7D DUP3 PUSH2 0x2E0A JUMP JUMPDEST SWAP2 POP PUSH2 0x2E88 DUP4 PUSH2 0x2E0A JUMP JUMPDEST SWAP3 POP DUP3 DUP3 MUL PUSH2 0x2E96 DUP2 PUSH2 0x2E0A JUMP JUMPDEST SWAP2 POP DUP3 DUP3 DIV DUP5 EQ DUP4 ISZERO OR PUSH2 0x2EAD JUMPI PUSH2 0x2EAC PUSH2 0x293C JUMP JUMPDEST JUMPDEST POP SWAP3 SWAP2 POP POP JUMP JUMPDEST PUSH1 0x0 PUSH2 0x2EBF DUP3 PUSH2 0x2E0A JUMP JUMPDEST SWAP2 POP PUSH2 0x2ECA DUP4 PUSH2 0x2E0A JUMP JUMPDEST SWAP3 POP DUP3 DUP3 ADD SWAP1 POP PUSH20 0xFFFFFFFFFFFFFFFFFFFFFFFFFFFFFFFFFFFFFFFF DUP2 GT ISZERO PUSH2 0x2EF6 JUMPI PUSH2 0x2EF5 PUSH2 0x293C JUMP JUMPDEST JUMPDEST SWAP3 SWAP2 POP POP JUMP JUMPDEST PUSH1 0x0 PUSH2 0x2F07 DUP3 PUSH2 0x2E0A JUMP JUMPDEST SWAP2 POP PUSH20 0xFFFFFFFFFFFFFFFFFFFFFFFFFFFFFFFFFFFFFFFF DUP3 SUB PUSH2 0x2F2D JUMPI PUSH2 0x2F2C PUSH2 0x293C JUMP JUMPDEST JUMPDEST PUSH1 0x1 DUP3 ADD SWAP1 POP SWAP2 SWAP1 POP JUMP JUMPDEST PUSH1 0x0 PUSH2 0x2F43 DUP3 PUSH2 0x23AF JUMP JUMPDEST SWAP2 POP PUSH2 0x2F4E DUP4 PUSH2 0x23AF JUMP JUMPDEST SWAP3 POP DUP3 DUP3 SUB SWAP1 POP DUP2 DUP2 GT ISZERO PUSH2 0x2F66 JUMPI PUSH2 0x2F65 PUSH2 0x293C JUMP JUMPDEST JUMPDEST SWAP3 SWAP2 POP POP JUMP JUMPDEST PUSH32 0x4F766572666C6F7720647572696E67206164646974696F6E2E00000000000000 PUSH1 0x0 DUP3 ADD MSTORE POP JUMP JUMPDEST PUSH1 0x0 PUSH2 0x2FA2 PUSH1 0x19 DUP4 PUSH2 0x29BE JUMP JUMPDEST SWAP2 POP PUSH2 0x2FAD DUP3 PUSH2 0x2F6C JUMP JUMPDEST PUSH1 0x20 DUP3 ADD SWAP1 POP SWAP2 SWAP1 POP JUMP JUMPDEST PUSH1 0x0 PUSH1 0x20 DUP3 ADD SWAP1 POP DUP2 DUP2 SUB PUSH1 0x0 DUP4 ADD MSTORE PUSH2 0x2FD1 DUP2 PUSH2 0x2F95 JUMP JUMPDEST SWAP1 POP SWAP2 SWAP1 POP JUMP JUMPDEST PUSH32 0x4E487B7100000000000000000000000000000000000000000000000000000000 PUSH1 0x0 MSTORE PUSH1 0x51 PUSH1 0x4 MSTORE PUSH1 0x24 PUSH1 0x0 REVERT INVALID LOG2 PUSH5 0x6970667358 0x22 SLT KECCAK256 0x2E 0x27 0xE9 0xC9 0xE9 0xC2 PUSH25 0xB0F60FF9761C76B684148CCCCA56A763F9A02CD238F638E243 PUSH5 0x736F6C6343 STOP ADDMOD SGT STOP CALLER "},"methodIdentifiers":{"dispute(bytes,bytes,bytes,bytes)":"43f104d2","readThreeOutputs(bytes)":"3c1c0699","resolveDispute(bytes,bytes,bytes)":"79a85bd9","settle()":"11da60b4","setup(bytes32,bytes32,bytes32,uint256,uint256)":"06ac0e26","submitProof(bytes,bytes,bytes,bytes)":"3740d249","timestamp()":"b80777ea","timestamp_dispute()":"a5dd32ac","verifySignature(bytes,bytes32,uint8,bytes32,bytes32)":"47aa9573"}}}}}