{
  "_format": "hh-sol-artifact-1",
  "contractName": "ViewBTC",
  "sourceName": "contracts/ViewBTC.sol",
  "abi": [
    {
      "inputs": [],
      "name": "DIFF1_TARGET",
      "outputs": [
        {
          "internalType": "uint256",
          "name": "",
          "type": "uint256"
        }
      ],
      "stateMutability": "view",
      "type": "function"
    },
    {
      "inputs": [],
      "name": "RETARGET_PERIOD",
      "outputs": [
        {
          "internalType": "uint256",
          "name": "",
          "type": "uint256"
        }
      ],
      "stateMutability": "view",
      "type": "function"
    },
    {
      "inputs": [],
      "name": "RETARGET_PERIOD_BLOCKS",
      "outputs": [
        {
          "internalType": "uint256",
          "name": "",
          "type": "uint256"
        }
      ],
      "stateMutability": "view",
      "type": "function"
    }
  ],
  "bytecode": "0x61012d610053600b82828239805160001a607314610046577f4e487b7100000000000000000000000000000000000000000000000000000000600052600060045260246000fd5b30600052607381538281f3fe730000000000000000000000000000000000000000301460806040526004361060475760003560e01c8063056e04ec14604c5780638cc71569146066578063d4258ca7146080575b600080fd5b6052609a565b604051605d919060de565b60405180910390f35b606c60a1565b6040516077919060de565b60405180910390f35b608660a7565b6040516091919060de565b60405180910390f35b6212750081565b6107e081565b7bffff000000000000000000000000000000000000000000000000000081565b6000819050919050565b60d88160c7565b82525050565b600060208201905060f1600083018460d1565b9291505056fea26469706673582212202fcda5b4a86eb9bdace7c7b4faa1f4d243466f49933d85e0243a0237ae5fef2064736f6c63430008130033",
  "linkReferences": {},
  "deployedLinkReferences": {}
}