{
  "_format": "hh-sol-artifact-1",
  "contractName": "BTC",
  "sourceName": "contracts/BTC.sol",
  "abi": [
    {
      "inputs": [
        {
          "internalType": "bytes32",
          "name": "message",
          "type": "bytes32"
        },
        {
          "internalType": "uint8",
          "name": "v",
          "type": "uint8"
        },
        {
          "internalType": "bytes32",
          "name": "r",
          "type": "bytes32"
        },
        {
          "internalType": "bytes32",
          "name": "s",
          "type": "bytes32"
        }
      ],
      "name": "recoverPersonalSignPublicKey",
      "outputs": [
        {
          "internalType": "bytes",
          "name": "",
          "type": "bytes"
        }
      ],
      "stateMutability": "pure",
      "type": "function"
    }
  ],
  "bytecode": "0x610b8561003a600b82828239805160001a60731461002d57634e487b7160e01b600052600060045260246000fd5b30600052607381538281f3fe73000000000000000000000000000000000000000030146080604052600436106100355760003560e01c806362d5fa821461003a575b600080fd5b61004d6100483660046109c8565b610063565b60405161005a9190610a3b565b60405180910390f35b606060006040518060400160405280601c81526020017f19457468657265756d205369676e6564204d6573736167653a0a3332000000008152509050600081876040516020016100b4929190610a6e565b60408051601f19818403018152919052805160209091012090506000806100e7836100e0601b8b610aa6565b8989610117565b60408051602081019390935282810191909152805180830382018152606090920190529998505050505050505050565b600080806401000003d019610139607f600189901c166401000003d019610adf565b860890506401000003d019811180610162575070014551231950b75fc4402da1732fc9bebe1984115b8061017e575070014551231950b75fc4402da1732fc9bebe1985115b80610187575083155b80610190575084155b8061019e575060018660ff16115b156101b057600080925092505061033f565b60006101ce8670014551231950b75fc4402da1732fc9bebe19610348565b905060006401000003d0198060076401000003d01960008709086401000003d01980868709860908905061021e81600461020f6401000003d0196001610afe565b6102199190610b16565b61041b565b9050600061022f60ff8a1683610afe565b61023a906002610afe565b6001161561025757610252826401000003d019610b38565b610259565b815b9050600080806102dc70014551231950b75fc4402da1732fc9bebe196102918f70014551231950b75fc4402da1732fc9bebe19610b38565b88097f79be667ef9dcbbac55a06295ce870b07029bfcdb2dce28d959f2815b16f817987f483ada7726a3c4655da4fbfc0e1108a8fd17b448a68554199c47d08ffb10d4b860016104cb565b925092509250600080600061031670014551231950b75fc4402da1732fc9bebe198061030a5761030a610ac9565b8e8b098b8960016104cb565b92509250925060008061032d888888888888610544565b909e509c505050505050505050505050505b94509492505050565b600082158015906103595750818314155b801561036457508115155b6103a65760405162461bcd60e51b815260206004820152600e60248201526d24b73b30b634b210373ab6b132b960911b60448201526064015b60405180910390fd5b6000600183825b861561040e576103bd8783610b16565b90508286806103ce576103ce610ac9565b87806103dc576103dc610ac9565b8584096103e99089610b38565b86089094509250866103fb8183610adf565b6104059084610b38565b975091506103ad565b5091925050505b92915050565b60008261042a57506000610415565b8161043757506001610415565b6001600160ff1b5b80156104c3576401000003d0198185161515860a6401000003d0198485090991506401000003d0196002820485161515860a6401000003d0198485090991506401000003d0196004820485161515860a6401000003d0198485090991506401000003d0196008820485161515860a6401000003d0198485090991506010900461043f565b509392505050565b60008080866104e157508491508390508261053a565b8660008060015b831561053157600184161561050d576105058383838d8d8d6105bc565b919450925090505b610518600285610b16565b93506105258a8a8a610851565b919b50995097506104e8565b91955093509150505b9450945094915050565b6000806000806000878b1415610588576401000003d019878b0861057157600080945094505050506105b1565b61057c8b8b8b610851565b9194509250905061059e565b6105968b8b8b8b8b8b6105bc565b919450925090505b6105a9838383610958565b945094505050505b965096945050505050565b60008080881580156105cc575087155b156105de575084915083905082610845565b851580156105ea575084155b156105fc575087915086905085610845565b6106046109aa565b6401000003d0198889098082526401000003d01990890960208201526401000003d019858009604082018190526401000003d0199086096060820152604080516080810182529082015181906401000003d019908d0981526020016401000003d01983600360200201518c0981526020016401000003d01983600060200201518a0981526020016401000003d019836001602002015189099052604081015181519192501415806106bd57506060810151602082015114155b6107095760405162461bcd60e51b815260206004820152601e60248201527f557365206a6163446f75626c652066756e6374696f6e20696e73746561640000604482015260640161039d565b6107116109aa565b81516401000003d019906107259082610b38565b604084015108815260208201516401000003d019906107449082610b38565b606084015108602082015280516401000003d0199080096040820181905281516401000003d0199109606082018190526000906401000003d019906107899082610b38565b60208401516401000003d01990800908604083015184519192506401000003d0199182918291096002096107c3906401000003d019610b38565b8208905060006401000003d019806107e1846401000003d019610b38565b604086015187516401000003d0199190090860208501510990506401000003d019808460036020020151866001602002015109610824906401000003d019610b38565b8208905060006401000003d019808a8e098551099297509095509093505050505b96509650969350505050565b600080808361086757508491508390508261094f565b60006401000003d019878809905060006401000003d019878809905060006401000003d019878809905060006401000003d01980848c09600409905060006401000003d019806401000003d0198586096000096401000003d019876003090890506401000003d019808384086108e3906401000003d019610b38565b6401000003d0198384090894506401000003d019806401000003d019868709600809610915906401000003d019610b38565b6401000003d0198061092d896401000003d019610b38565b860884090893506401000003d019808a8c096002099497509295509293505050505b93509350939050565b600080600061096d846401000003d019610348565b905060006401000003d019828309905060006401000003d019828909905060006401000003d0198084860989099199919850909650505050505050565b60405180608001604052806004906020820280368337509192915050565b600080600080608085870312156109de57600080fd5b84359350602085013560ff811681146109f657600080fd5b93969395505050506040820135916060013590565b60005b83811015610a26578181015183820152602001610a0e565b83811115610a35576000848401525b50505050565b6020815260008251806020840152610a5a816040850160208701610a0b565b601f01601f19169190910160400192915050565b60008351610a80818460208801610a0b565b9190910191825250602001919050565b634e487b7160e01b600052601160045260246000fd5b600060ff821660ff841680821015610ac057610ac0610a90565b90039392505050565b634e487b7160e01b600052601260045260246000fd5b6000816000190483118215151615610af957610af9610a90565b500290565b60008219821115610b1157610b11610a90565b500190565b600082610b3357634e487b7160e01b600052601260045260246000fd5b500490565b600082821015610b4a57610b4a610a90565b50039056fea2646970667358221220394dfc4bbe85092ca0835d22ba846e7aa986164ba8378f461c2fb23351cb4e5464736f6c63430008090033",
  "linkReferences": {},
  "deployedLinkReferences": {}
}