{
  "_format": "hh-sol-artifact-1",
  "contractName": "BTC",
  "sourceName": "contracts/BTC.sol",
  "abi": [
    {
      "inputs": [
        {
          "internalType": "bytes32",
          "name": "message",
          "type": "bytes32"
        },
        {
          "internalType": "uint8",
          "name": "v",
          "type": "uint8"
        },
        {
          "internalType": "bytes32",
          "name": "r",
          "type": "bytes32"
        },
        {
          "internalType": "bytes32",
          "name": "s",
          "type": "bytes32"
        }
      ],
      "name": "recoverPersonalSignPublicKey",
      "outputs": [
        {
          "internalType": "bytes",
          "name": "",
          "type": "bytes"
        }
      ],
      "stateMutability": "pure",
      "type": "function"
    }
  ],
  "bytecode": "0x611e46610053600b82828239805160001a607314610046577f4e487b7100000000000000000000000000000000000000000000000000000000600052600060045260246000fd5b30600052607381538281f3fe73000000000000000000000000000000000000000030146080604052600436106100355760003560e01c806362d5fa821461003a575b600080fd5b610054600480360381019061004f919061198a565b61006a565b6040516100619190611a81565b60405180910390f35b606060006040518060400160405280601c81526020017f19457468657265756d205369676e6564204d6573736167653a0a3332000000008152509050600081876040516020016100bb929190611b0b565b6040516020818303038152906040528051906020012090506000806100f78360001c601b8a6100ea9190611b62565b8960001c8960001c61012b565b91509150818160405160200161010e929190611bc2565b604051602081830303815290604052945050505050949350505050565b60008060007ffffffffffffffffffffffffffffffffffffffffffffffffffffffffefffffc2f8061015f5761015e611bee565b5b60018760ff16901c60ff167ffffffffffffffffffffffffffffffffffffffffffffffffffffffffefffffc2f6101959190611c1d565b860890507ffffffffffffffffffffffffffffffffffffffffffffffffffffffffefffffc2f8111806101e657507ffffffffffffffffffffffffffffffffebaaedce6af48a03bbfd25e8cd036414184115b8061021057507ffffffffffffffffffffffffffffffffebaaedce6af48a03bbfd25e8cd036414185115b8061021b5750600084145b806102265750600085145b80610234575060018660ff16115b15610246576000809250925050610534565b6000610272867ffffffffffffffffffffffffffffffffebaaedce6af48a03bbfd25e8cd036414161053d565b905060007ffffffffffffffffffffffffffffffffffffffffffffffffffffffffefffffc2f806102a5576102a4611bee565b5b7ffffffffffffffffffffffffffffffffffffffffffffffffffffffffefffffc2f806102d4576102d3611bee565b5b60077ffffffffffffffffffffffffffffffffffffffffffffffffffffffffefffffc2f8061030557610304611bee565b5b60008709087ffffffffffffffffffffffffffffffffffffffffffffffffffffffffefffffc2f8061033957610338611bee565b5b7ffffffffffffffffffffffffffffffffffffffffffffffffffffffffefffffc2f8061036857610367611bee565b5b86870986090890506103b281600460017ffffffffffffffffffffffffffffffffffffffffffffffffffffffffefffffc2f6103a39190611c5f565b6103ad9190611c93565b610629565b9050600080600160028b60ff16856103ca9190611c5f565b6103d49190611c5f565b161461040b57817ffffffffffffffffffffffffffffffffffffffffffffffffffffffffefffffc2f6104069190611cc4565b61040d565b815b905060008060006104bd7ffffffffffffffffffffffffffffffffebaaedce6af48a03bbfd25e8cd03641418061044657610445611bee565b5b8e7ffffffffffffffffffffffffffffffffebaaedce6af48a03bbfd25e8cd03641416104729190611cc4565b88097f79be667ef9dcbbac55a06295ce870b07029bfcdb2dce28d959f2815b16f817987f483ada7726a3c4655da4fbfc0e1108a8fd17b448a68554199c47d08ffb10d4b860016107dd565b92509250925060008060006105067ffffffffffffffffffffffffffffffffebaaedce6af48a03bbfd25e8cd0364141806104fa576104f9611bee565b5b8e8b098b8960016107dd565b92509250925060008061051d888888888888610877565b9150915081819d509d505050505050505050505050505b94509492505050565b600080831415801561054f5750818314155b801561055c575060008214155b61059b576040517f08c379a000000000000000000000000000000000000000000000000000000000815260040161059290611d55565b60405180910390fd5b60008060019050600084905060005b6000871461061c5786826105be9190611c93565b90508286806105d0576105cf611bee565b5b87806105df576105de611bee565b5b858409886105ed9190611cc4565b860880945081955050508687826106049190611c1d565b8361060f9190611cc4565b80985081935050506105aa565b8394505050505092915050565b600080830361063b57600090506107d7565b6000820361064c57600190506107d7565b60006001905060007f800000000000000000000000000000000000000000000000000000000000000090505b60008111156107d1577ffffffffffffffffffffffffffffffffffffffffffffffffffffffffefffffc2f8185161515860a7ffffffffffffffffffffffffffffffffffffffffffffffffffffffffefffffc2f8485090991507ffffffffffffffffffffffffffffffffffffffffffffffffffffffffefffffc2f6002820485161515860a7ffffffffffffffffffffffffffffffffffffffffffffffffffffffffefffffc2f8485090991507ffffffffffffffffffffffffffffffffffffffffffffffffffffffffefffffc2f6004820485161515860a7ffffffffffffffffffffffffffffffffffffffffffffffffffffffffefffffc2f8485090991507ffffffffffffffffffffffffffffffffffffffffffffffffffffffffefffffc2f6008820485161515860a7ffffffffffffffffffffffffffffffffffffffffffffffffffffffffefffffc2f848509099150601081049050610678565b81925050505b92915050565b60008060008087036107f75785858592509250925061086d565b60008790506000806000600190505b6000841461085f5760006001851614610834576108278383838d8d8d610923565b8093508194508295505050505b6002846108419190611c93565b935061084e8a8a8a611361565b809a50819b50829c50505050610806565b828282965096509650505050505b9450945094915050565b6000806000806000878b036108ea5760007ffffffffffffffffffffffffffffffffffffffffffffffffffffffffefffffc2f806108b7576108b6611bee565b5b888c08036108ce5760008094509450505050610918565b6108d98b8b8b611361565b809350819450829550505050610905565b6108f88b8b8b8b8b8b610923565b8093508194508295505050505b6109108383836117de565b945094505050505b965096945050505050565b600080600080891480156109375750600088145b1561094a57858585925092509250611355565b60008614801561095a5750600085145b1561096d57888888925092509250611355565b6109756118f4565b7ffffffffffffffffffffffffffffffffffffffffffffffffffffffffefffffc2f806109a4576109a3611bee565b5b888909816000600481106109bb576109ba611d75565b5b6020020181815250507ffffffffffffffffffffffffffffffffffffffffffffffffffffffffefffffc2f806109f3576109f2611bee565b5b81600060048110610a0757610a06611d75565b5b6020020151890981600160048110610a2257610a21611d75565b5b6020020181815250507ffffffffffffffffffffffffffffffffffffffffffffffffffffffffefffffc2f80610a5a57610a59611bee565b5b85860981600260048110610a7157610a70611d75565b5b6020020181815250507ffffffffffffffffffffffffffffffffffffffffffffffffffffffffefffffc2f80610aa957610aa8611bee565b5b81600260048110610abd57610abc611d75565b5b6020020151860981600360048110610ad857610ad7611d75565b5b60200201818152505060405180608001604052807ffffffffffffffffffffffffffffffffffffffffffffffffffffffffefffffc2f80610b1b57610b1a611bee565b5b83600260048110610b2f57610b2e611d75565b5b60200201518d0981526020017ffffffffffffffffffffffffffffffffffffffffffffffffffffffffefffffc2f80610b6a57610b69611bee565b5b83600360048110610b7e57610b7d611d75565b5b60200201518c0981526020017ffffffffffffffffffffffffffffffffffffffffffffffffffffffffefffffc2f80610bb957610bb8611bee565b5b83600060048110610bcd57610bcc611d75565b5b60200201518a0981526020017ffffffffffffffffffffffffffffffffffffffffffffffffffffffffefffffc2f80610c0857610c07611bee565b5b83600160048110610c1c57610c1b611d75565b5b60200201518909815250905080600260048110610c3c57610c3b611d75565b5b602002015181600060048110610c5557610c54611d75565b5b6020020151141580610c97575080600360048110610c7657610c75611d75565b5b602002015181600160048110610c8f57610c8e611d75565b5b602002015114155b610cd6576040517f08c379a0000000000000000000000000000000000000000000000000000000008152600401610ccd90611df0565b60405180910390fd5b610cde6118f4565b7ffffffffffffffffffffffffffffffffffffffffffffffffffffffffefffffc2f80610d0d57610d0c611bee565b5b82600060048110610d2157610d20611d75565b5b60200201517ffffffffffffffffffffffffffffffffffffffffffffffffffffffffefffffc2f610d519190611cc4565b83600260048110610d6557610d64611d75565b5b60200201510881600060048110610d7f57610d7e611d75565b5b6020020181815250507ffffffffffffffffffffffffffffffffffffffffffffffffffffffffefffffc2f80610db757610db6611bee565b5b82600160048110610dcb57610dca611d75565b5b60200201517ffffffffffffffffffffffffffffffffffffffffffffffffffffffffefffffc2f610dfb9190611cc4565b83600360048110610e0f57610e0e611d75565b5b60200201510881600160048110610e2957610e28611d75565b5b6020020181815250507ffffffffffffffffffffffffffffffffffffffffffffffffffffffffefffffc2f80610e6157610e60611bee565b5b81600060048110610e7557610e74611d75565b5b602002015182600060048110610e8e57610e8d611d75565b5b60200201510981600260048110610ea857610ea7611d75565b5b6020020181815250507ffffffffffffffffffffffffffffffffffffffffffffffffffffffffefffffc2f80610ee057610edf611bee565b5b81600060048110610ef457610ef3611d75565b5b602002015182600260048110610f0d57610f0c611d75565b5b60200201510981600360048110610f2757610f26611d75565b5b60200201818152505060007ffffffffffffffffffffffffffffffffffffffffffffffffffffffffefffffc2f80610f6157610f60611bee565b5b82600360048110610f7557610f74611d75565b5b60200201517ffffffffffffffffffffffffffffffffffffffffffffffffffffffffefffffc2f610fa59190611cc4565b7ffffffffffffffffffffffffffffffffffffffffffffffffffffffffefffffc2f80610fd457610fd3611bee565b5b84600160048110610fe857610fe7611d75565b5b60200201518560016004811061100157611000611d75565b5b6020020151090890507ffffffffffffffffffffffffffffffffffffffffffffffffffffffffefffffc2f8061103957611038611bee565b5b7ffffffffffffffffffffffffffffffffffffffffffffffffffffffffefffffc2f8061106857611067611bee565b5b7ffffffffffffffffffffffffffffffffffffffffffffffffffffffffefffffc2f8061109757611096611bee565b5b846002600481106110ab576110aa611d75565b5b6020020151866000600481106110c4576110c3611d75565b5b6020020151096002097ffffffffffffffffffffffffffffffffffffffffffffffffffffffffefffffc2f6110f89190611cc4565b8208905060007ffffffffffffffffffffffffffffffffffffffffffffffffffffffffefffffc2f8061112d5761112c611bee565b5b7ffffffffffffffffffffffffffffffffffffffffffffffffffffffffefffffc2f8061115c5761115b611bee565b5b837ffffffffffffffffffffffffffffffffffffffffffffffffffffffffefffffc2f6111889190611cc4565b7ffffffffffffffffffffffffffffffffffffffffffffffffffffffffefffffc2f806111b7576111b6611bee565b5b866002600481106111cb576111ca611d75565b5b6020020151886000600481106111e4576111e3611d75565b5b60200201510908846001600481106111ff576111fe611d75565b5b60200201510990507ffffffffffffffffffffffffffffffffffffffffffffffffffffffffefffffc2f8061123657611235611bee565b5b7ffffffffffffffffffffffffffffffffffffffffffffffffffffffffefffffc2f8061126557611264611bee565b5b8460036004811061127957611278611d75565b5b60200201518660016004811061129257611291611d75565b5b6020020151097ffffffffffffffffffffffffffffffffffffffffffffffffffffffffefffffc2f6112c39190611cc4565b8208905060007ffffffffffffffffffffffffffffffffffffffffffffffffffffffffefffffc2f806112f8576112f7611bee565b5b7ffffffffffffffffffffffffffffffffffffffffffffffffffffffffefffffc2f8061132757611326611bee565b5b8a8e098560006004811061133e5761133d611d75565b5b602002015109905082828297509750975050505050505b96509650969350505050565b600080600080840361137b578585859250925092506117d5565b60007ffffffffffffffffffffffffffffffffffffffffffffffffffffffffefffffc2f806113ac576113ab611bee565b5b878809905060007ffffffffffffffffffffffffffffffffffffffffffffffffffffffffefffffc2f806113e2576113e1611bee565b5b878809905060007ffffffffffffffffffffffffffffffffffffffffffffffffffffffffefffffc2f8061141857611417611bee565b5b878809905060007ffffffffffffffffffffffffffffffffffffffffffffffffffffffffefffffc2f8061144e5761144d611bee565b5b7ffffffffffffffffffffffffffffffffffffffffffffffffffffffffefffffc2f8061147d5761147c611bee565b5b848c09600409905060007ffffffffffffffffffffffffffffffffffffffffffffffffffffffffefffffc2f806114b6576114b5611bee565b5b7ffffffffffffffffffffffffffffffffffffffffffffffffffffffffefffffc2f806114e5576114e4611bee565b5b7ffffffffffffffffffffffffffffffffffffffffffffffffffffffffefffffc2f8061151457611513611bee565b5b8586096000097ffffffffffffffffffffffffffffffffffffffffffffffffffffffffefffffc2f8061154957611548611bee565b5b876003090890507ffffffffffffffffffffffffffffffffffffffffffffffffffffffffefffffc2f8061157f5761157e611bee565b5b7ffffffffffffffffffffffffffffffffffffffffffffffffffffffffefffffc2f806115ae576115ad611bee565b5b8384087ffffffffffffffffffffffffffffffffffffffffffffffffffffffffefffffc2f6115dc9190611cc4565b7ffffffffffffffffffffffffffffffffffffffffffffffffffffffffefffffc2f8061160b5761160a611bee565b5b8384090894507ffffffffffffffffffffffffffffffffffffffffffffffffffffffffefffffc2f806116405761163f611bee565b5b7ffffffffffffffffffffffffffffffffffffffffffffffffffffffffefffffc2f8061166f5761166e611bee565b5b7ffffffffffffffffffffffffffffffffffffffffffffffffffffffffefffffc2f8061169e5761169d611bee565b5b8687096008097ffffffffffffffffffffffffffffffffffffffffffffffffffffffffefffffc2f6116cf9190611cc4565b7ffffffffffffffffffffffffffffffffffffffffffffffffffffffffefffffc2f806116fe576116fd611bee565b5b7ffffffffffffffffffffffffffffffffffffffffffffffffffffffffefffffc2f8061172d5761172c611bee565b5b887ffffffffffffffffffffffffffffffffffffffffffffffffffffffffefffffc2f6117599190611cc4565b860884090893507ffffffffffffffffffffffffffffffffffffffffffffffffffffffffefffffc2f8061178f5761178e611bee565b5b7ffffffffffffffffffffffffffffffffffffffffffffffffffffffffefffffc2f806117be576117bd611bee565b5b8a8c09600209925084848497509750975050505050505b93509350939050565b600080600061180d847ffffffffffffffffffffffffffffffffffffffffffffffffffffffffefffffc2f61053d565b905060007ffffffffffffffffffffffffffffffffffffffffffffffffffffffffefffffc2f806118405761183f611bee565b5b828309905060007ffffffffffffffffffffffffffffffffffffffffffffffffffffffffefffffc2f8061187657611875611bee565b5b828909905060007ffffffffffffffffffffffffffffffffffffffffffffffffffffffffefffffc2f806118ac576118ab611bee565b5b7ffffffffffffffffffffffffffffffffffffffffffffffffffffffffefffffc2f806118db576118da611bee565b5b8486098909905081819550955050505050935093915050565b6040518060800160405280600490602082028036833780820191505090505090565b600080fd5b6000819050919050565b61192e8161191b565b811461193957600080fd5b50565b60008135905061194b81611925565b92915050565b600060ff82169050919050565b61196781611951565b811461197257600080fd5b50565b6000813590506119848161195e565b92915050565b600080600080608085870312156119a4576119a3611916565b5b60006119b28782880161193c565b94505060206119c387828801611975565b93505060406119d48782880161193c565b92505060606119e58782880161193c565b91505092959194509250565b600081519050919050565b600082825260208201905092915050565b60005b83811015611a2b578082015181840152602081019050611a10565b60008484015250505050565b6000601f19601f8301169050919050565b6000611a53826119f1565b611a5d81856119fc565b9350611a6d818560208601611a0d565b611a7681611a37565b840191505092915050565b60006020820190508181036000830152611a9b8184611a48565b905092915050565b600081519050919050565b600081905092915050565b6000611ac482611aa3565b611ace8185611aae565b9350611ade818560208601611a0d565b80840191505092915050565b6000819050919050565b611b05611b008261191b565b611aea565b82525050565b6000611b178285611ab9565b9150611b238284611af4565b6020820191508190509392505050565b7f4e487b7100000000000000000000000000000000000000000000000000000000600052601160045260246000fd5b6000611b6d82611951565b9150611b7883611951565b9250828203905060ff811115611b9157611b90611b33565b5b92915050565b6000819050919050565b6000819050919050565b611bbc611bb782611b97565b611ba1565b82525050565b6000611bce8285611bab565b602082019150611bde8284611bab565b6020820191508190509392505050565b7f4e487b7100000000000000000000000000000000000000000000000000000000600052601260045260246000fd5b6000611c2882611b97565b9150611c3383611b97565b9250828202611c4181611b97565b91508282048414831517611c5857611c57611b33565b5b5092915050565b6000611c6a82611b97565b9150611c7583611b97565b9250828201905080821115611c8d57611c8c611b33565b5b92915050565b6000611c9e82611b97565b9150611ca983611b97565b925082611cb957611cb8611bee565b5b828204905092915050565b6000611ccf82611b97565b9150611cda83611b97565b9250828203905081811115611cf257611cf1611b33565b5b92915050565b600082825260208201905092915050565b7f496e76616c6964206e756d626572000000000000000000000000000000000000600082015250565b6000611d3f600e83611cf8565b9150611d4a82611d09565b602082019050919050565b60006020820190508181036000830152611d6e81611d32565b9050919050565b7f4e487b7100000000000000000000000000000000000000000000000000000000600052603260045260246000fd5b7f557365206a6163446f75626c652066756e6374696f6e20696e73746561640000600082015250565b6000611dda601e83611cf8565b9150611de582611da4565b602082019050919050565b60006020820190508181036000830152611e0981611dcd565b905091905056fea2646970667358221220baea21e51befaddb1182b201b46e45db6d76f55000c6b19011de2b0dbefade2264736f6c63430008130033",
  "linkReferences": {},
  "deployedLinkReferences": {}
}