{
  "_format": "hh-sol-artifact-1",
  "contractName": "ParseBitcoinRawTx",
  "sourceName": "contracts/ParseBitcoinRawTx.sol",
  "abi": [
    {
      "inputs": [
        {
          "internalType": "bytes",
          "name": "_txBytes",
          "type": "bytes"
        }
      ],
      "name": "getInputsData",
      "outputs": [
        {
          "components": [
            {
              "internalType": "uint256",
              "name": "number_of_inputs",
              "type": "uint256"
            },
            {
              "internalType": "bytes32",
              "name": "txid",
              "type": "bytes32"
            },
            {
              "internalType": "bytes4",
              "name": "inputIndex",
              "type": "bytes4"
            }
          ],
          "internalType": "struct ParseBitcoinRawTx.Input",
          "name": "",
          "type": "tuple"
        }
      ],
      "stateMutability": "view",
      "type": "function"
    },
    {
      "inputs": [
        {
          "internalType": "bytes",
          "name": "_txBytes",
          "type": "bytes"
        }
      ],
      "name": "getOutputsData",
      "outputs": [
        {
          "components": [
            {
              "internalType": "uint256",
              "name": "value",
              "type": "uint256"
            },
            {
              "internalType": "bytes32",
              "name": "pk1",
              "type": "bytes32"
            },
            {
              "internalType": "bytes32",
              "name": "pk2",
              "type": "bytes32"
            },
            {
              "internalType": "bytes32",
              "name": "rev_secret",
              "type": "bytes32"
            }
          ],
          "internalType": "struct ParseBitcoinRawTx.LightningHTLCData",
          "name": "",
          "type": "tuple"
        },
        {
          "components": [
            {
              "internalType": "uint256",
              "name": "value",
              "type": "uint256"
            },
            {
              "internalType": "bytes20",
              "name": "pkhash",
              "type": "bytes20"
            }
          ],
          "internalType": "struct ParseBitcoinRawTx.P2PKHData",
          "name": "",
          "type": "tuple"
        },
        {
          "components": [
            {
              "internalType": "uint256",
              "name": "value",
              "type": "uint256"
            },
            {
              "internalType": "bytes32",
              "name": "data",
              "type": "bytes32"
            }
          ],
          "internalType": "struct ParseBitcoinRawTx.OpReturnData",
          "name": "",
          "type": "tuple"
        }
      ],
      "stateMutability": "view",
      "type": "function"
    },
    {
      "inputs": [
        {
          "internalType": "bytes",
          "name": "_txBytes",
          "type": "bytes"
        }
      ],
      "name": "getSignature",
      "outputs": [
        {
          "components": [
            {
              "internalType": "uint8",
              "name": "v",
              "type": "uint8"
            },
            {
              "internalType": "bytes",
              "name": "r",
              "type": "bytes"
            },
            {
              "internalType": "bytes",
              "name": "s",
              "type": "bytes"
            }
          ],
          "internalType": "struct ParseBitcoinRawTx.Signature",
          "name": "",
          "type": "tuple"
        }
      ],
      "stateMutability": "view",
      "type": "function"
    },
    {
      "inputs": [
        {
          "internalType": "bytes",
          "name": "_txBytes",
          "type": "bytes"
        }
      ],
      "name": "getSignatures",
      "outputs": [
        {
          "components": [
            {
              "internalType": "uint8",
              "name": "v",
              "type": "uint8"
            },
            {
              "internalType": "bytes",
              "name": "r",
              "type": "bytes"
            },
            {
              "internalType": "bytes",
              "name": "s",
              "type": "bytes"
            }
          ],
          "internalType": "struct ParseBitcoinRawTx.Signature",
          "name": "",
          "type": "tuple"
        },
        {
          "components": [
            {
              "internalType": "uint8",
              "name": "v",
              "type": "uint8"
            },
            {
              "internalType": "bytes",
              "name": "r",
              "type": "bytes"
            },
            {
              "internalType": "bytes",
              "name": "s",
              "type": "bytes"
            }
          ],
          "internalType": "struct ParseBitcoinRawTx.Signature",
          "name": "",
          "type": "tuple"
        }
      ],
      "stateMutability": "view",
      "type": "function"
    },
    {
      "inputs": [
        {
          "internalType": "bytes",
          "name": "_txBytes",
          "type": "bytes"
        }
      ],
      "name": "getTimelock",
      "outputs": [
        {
          "internalType": "bytes4",
          "name": "",
          "type": "bytes4"
        }
      ],
      "stateMutability": "view",
      "type": "function"
    },
    {
      "inputs": [
        {
          "internalType": "bytes",
          "name": "_txBytes",
          "type": "bytes"
        }
      ],
      "name": "getTxDigest",
      "outputs": [
        {
          "internalType": "bytes32",
          "name": "",
          "type": "bytes32"
        }
      ],
      "stateMutability": "view",
      "type": "function"
    },
    {
      "inputs": [
        {
          "internalType": "uint256",
          "name": "digest",
          "type": "uint256"
        },
        {
          "internalType": "uint8",
          "name": "v",
          "type": "uint8"
        },
        {
          "internalType": "uint256",
          "name": "r",
          "type": "uint256"
        },
        {
          "internalType": "uint256",
          "name": "s",
          "type": "uint256"
        }
      ],
      "name": "verifyBTCSignature",
      "outputs": [
        {
          "internalType": "bytes",
          "name": "",
          "type": "bytes"
        }
      ],
      "stateMutability": "view",
      "type": "function"
    }
  ],
  "bytecode": "0x608060405234801561001057600080fd5b50614e00806100206000396000f3fe608060405234801561001057600080fd5b506004361061007d5760003560e01c80634f500ea91161005b5780634f500ea9146101145780635933bf61146101445780636b45b4e314610174578063f45457aa146101a55761007d565b80631ed113ae1461008257806336946480146100b2578063497c6cf6146100e2575b600080fd5b61009c60048036038101906100979190613f53565b6101d5565b6040516100a9919061408e565b60405180910390f35b6100cc60048036038101906100c79190613f53565b6102e7565b6040516100d991906140eb565b60405180910390f35b6100fc60048036038101906100f79190613f53565b61031d565b60405161010b93929190614226565b60405180910390f35b61012e60048036038101906101299190613f53565b6105c4565b60405161013b91906142af565b60405180910390f35b61015e60048036038101906101599190614322565b6106bf565b60405161016b91906143d3565b60405180910390f35b61018e60048036038101906101899190613f53565b61070e565b60405161019c9291906143f5565b60405180910390f35b6101bf60048036038101906101ba9190613f53565b61092d565b6040516101cc919061443b565b60405180910390f35b6101dd613cc0565b6101e5613cc0565b601b816000019060ff16908160ff168152505061020b61020684605161098b565b610a16565b8160400181905250604760f81b83602a8151811061022c5761022b614456565b5b602001015160f81c60f81b7effffffffffffffffffffffffffffffffffffffffffffffffffffffffffffff19160361027e5761027161026c84602f61098b565b610a16565b81602001819052506102de565b604660f81b83602a8151811061029757610296614456565b5b602001015160f81c60f81b7effffffffffffffffffffffffffffffffffffffffffffffffffffffffffffff1916036102dd576102d483602f610a3f565b81602001819052505b5b80915050919050565b6000808251905060006103088460058461030191906144b4565b6004610acb565b6103119061451a565b90508092505050919050565b610325613ce4565b61032d613d15565b610335613d3e565b61033d613ce4565b610345613d3e565b61034d613d15565b610355613d5b565b60048160000181815250506103708882600001516000610be9565b82602001836000018281525082905250506103918882600001516000610cfb565b84608001856060018660400187600001848152508490528490528490525050505060005b60038110156105af57600081036104515761040d89836060015183815181106103e1576103e0614456565b5b602002602001015184604001518481518110610400576103ff614456565b5b6020026020010151610ef2565b8760200188606001896040018381525083815250838152505050508160800151818151811061043f5761043e614456565b5b60200260200101518560000181815250505b6001810361051b576104c96104a38a8460600151848151811061047757610476614456565b5b60200260200101518560400151858151811061049657610495614456565b5b6020026020010151610fae565b6040516020016104b391906145a2565b6040516020818303038152906040526000611188565b83602001906bffffffffffffffffffffffff191690816bffffffffffffffffffffffff1916815250508160800151818151811061050957610508614456565b5b60200260200101518360000181815250505b6002810361059c5761056a898360600151838151811061053e5761053d614456565b5b60200260200101518460400151848151811061055d5761055c614456565b5b6020026020010151610fae565b8460200181815250508160800151818151811061058a57610589614456565b5b60200260200101518460000181815250505b80806105a7906145bd565b9150506103b5565b50838284965096509650505050509193909250565b6105cc613d8a565b6105d4613d8a565b6105df83600461126b565b508160000181815250506105f68360256004610acb565b6105ff9061451a565b81604001907bffffffffffffffffffffffffffffffffffffffffffffffffffffffff191690817bffffffffffffffffffffffffffffffffffffffffffffffffffffffff1916815250506106666106588460056025610acb565b6106619061461a565b611353565b81602001818152505060018160000151146106b6576040517f08c379a00000000000000000000000000000000000000000000000000000000081526004016106ad906146de565b60405180910390fd5b80915050919050565b60606000806106dc87601b886106d591906146fe565b8787611451565b9150915081816040516020016106f3929190614754565b60405160208183030381529060405292505050949350505050565b610716613cc0565b61071e613cc0565b610726613cc0565b61072e613cc0565b601b816000019060ff16908160ff168152505061075461074f86605161098b565b610a16565b8160400181905250604760f81b85602a8151811061077557610774614456565b5b602001015160f81c60f81b7effffffffffffffffffffffffffffffffffffffffffffffffffffffffffffff1916036107c7576107ba6107b586602f61098b565b610a16565b8160200181905250610827565b604660f81b85602a815181106107e0576107df614456565b5b602001015160f81c60f81b7effffffffffffffffffffffffffffffffffffffffffffffffffffffffffffff1916036108265761081d85602f610a3f565b81602001819052505b5b601b826000019060ff16908160ff168152505061084d61084886609861098b565b610a16565b8260400181905250604760f81b8560728151811061086e5761086d614456565b5b602001015160f81c60f81b7effffffffffffffffffffffffffffffffffffffffffffffffffffffffffffff1916036108c0576108b36108ae86607761098b565b610a16565b8260200181905250610920565b604660f81b856072815181106108d9576108d8614456565b5b602001015160f81c60f81b7effffffffffffffffffffffffffffffffffffffffffffffffffffffffffffff19160361091f57610916856077610a3f565b82602001819052505b5b8181935093505050915091565b60008061093983611863565b90506109796040518060400160405280600d81526020017f66696e616c6c793f3f213f213f00000000000000000000000000000000000000815250611929565b610982816119c2565b80915050919050565b6000806000905060005b6020811015610a085780601f6109ab91906144b4565b60086109b79190614780565b8585836109c491906147c2565b815181106109d5576109d4614456565b5b602001015160f81c60f81b60f81c60ff16901b826109f391906147c2565b91508080610a00906145bd565b915050610995565b508060001b91505092915050565b606081604051602001610a2991906145a2565b6040516020818303038152906040529050919050565b60606000805b601f811015610ab85780601e610a5b91906144b4565b6008610a679190614780565b858583610a7491906147c2565b81518110610a8557610a84614456565b5b602001015160f81c60f81b60f81c60ff16901b82610aa391906147c2565b91508080610ab0906145bd565b915050610a45565b50610ac281611a5b565b91505092915050565b606081601f83610adb91906147c2565b1015610b1c576040517f08c379a0000000000000000000000000000000000000000000000000000000008152600401610b1390614842565b60405180910390fd5b8183610b2891906147c2565b84511015610b6b576040517f08c379a0000000000000000000000000000000000000000000000000000000008152600401610b62906148ae565b60405180910390fd5b6060821560008114610b8c5760405191506000825260208201604052610bdd565b6040519150601f8416801560200281840101858101878315602002848b0101015b81831015610bca5780518352602083019250602081019050610bad565b50868552601f19601f8301166040525050505b50809150509392505050565b6060600080600080610bfb888861126b565b80985081945050506000861480610c1157508286115b15610c1e57829150610c22565b8591505b60008267ffffffffffffffff811115610c3e57610c3d613e28565b5b604051908082528060200260200182016040528015610c6c5781602001602082028036833780820191505090505b50905060005b83811015610ce857602489610c8791906147c2565b9850610c938a8a61126b565b809a50819450505082828281518110610caf57610cae614456565b5b602002602001018181525050600483610cc891906147c2565b89610cd391906147c2565b98508080610ce0906145bd565b915050610c72565b5080889550955050505050935093915050565b6060806060600080600080610d108a8a61126b565b809a5081945050506000881480610d2657508288115b15610d3357829150610d37565b8791505b60008267ffffffffffffffff811115610d5357610d52613e28565b5b604051908082528060200260200182016040528015610d815781602001602082028036833780820191505090505b50905060008367ffffffffffffffff811115610da057610d9f613e28565b5b604051908082528060200260200182016040528015610dce5781602001602082028036833780820191505090505b50905060008467ffffffffffffffff811115610ded57610dec613e28565b5b604051908082528060200260200182016040528015610e1b5781602001602082028036833780820191505090505b50905060005b85811015610ed657610e358e8e6040611adb565b828281518110610e4857610e47614456565b5b60200260200101818152505060088d610e6191906147c2565b9c50610e6d8e8e61126b565b809e5081965050508c848281518110610e8957610e88614456565b5b60200260200101818152505084838281518110610ea957610ea8614456565b5b602002602001018181525050848d610ec191906147c2565b9c508080610ece906145bd565b915050610e21565b508083838e995099509950995050505050505093509350935093565b6000806000610f02868686611f46565b15610f9257610f456040518060400160405280601b81526020017f506172736564204c696768746e696e6748544c43206f75747075740000000000815250611929565b610f5b86600387610f5691906147c2565b61098b565b610f7187602888610f6c91906147c2565b61098b565b610f8788604c89610f8291906147c2565b61098b565b925092509250610fa5565b6000801b6000801b6000801b9250925092505b93509350939050565b6000610fbb8484846124f5565b1561102a57610ffe6040518060400160405280601381526020017f506172736564205032504b48206f757470757400000000000000000000000000815250611929565b6110148460038561100f91906147c2565b611188565b6bffffffffffffffffffffffff19169050611181565b6110358484846126ba565b156110a4576110786040518060400160405280601281526020017f5061727365642050325348206f75747075740000000000000000000000000000815250611929565b61108e8460028561108991906147c2565b611188565b6bffffffffffffffffffffffff19169050611181565b6110af8484846127d7565b1561110f576110f26040518060400160405280601781526020017f506172736564204f505f52455455524e206f7574707574000000000000000000815250611929565b6111088460028561110391906147c2565b61098b565b9050611181565b61111a848484611f46565b1561117a5761115d6040518060400160405280601b81526020017f506172736564204c696768746e696e6748544c43206f75747075740000000000815250611929565b6111738460028561116e91906147c2565b61098b565b9050611181565b6000801b90505b9392505050565b6000806000905060005b60148173ffffffffffffffffffffffffffffffffffffffff16101561125d578060136111be91906148ee565b60086111ca9190614936565b73ffffffffffffffffffffffffffffffffffffffff1685858373ffffffffffffffffffffffffffffffffffffffff1661120391906147c2565b8151811061121457611213614456565b5b602001015160f81c60f81b60f81c60ff1673ffffffffffffffffffffffffffffffffffffffff16901b826112489190614978565b91508080611255906149c0565b915050611192565b508060601b91505092915050565b600080600084848151811061128357611282614456565b5b602001015160f81c60f81b60f81c90506001846112a091906147c2565b935060fd8160ff1610156112c05780848160ff169150925092505061134c565b60fd8160ff16036112ee576112d785856010611adb565b6002856112e491906147c2565b925092505061134c565b60fe8160ff160361131c5761130585856020611adb565b60048561131291906147c2565b925092505061134c565b60ff8160ff160361134a5761133385856040611adb565b60088561134091906147c2565b925092505061134c565b505b9250929050565b600080602060ff1667ffffffffffffffff81111561137457611373613e28565b5b6040519080825280601f01601f1916602001820160405280156113a65781602001600182028036833780820191505090505b50905060005b602060ff1681101561143f578381602081106113cb576113ca614456565b5b1a60f81b82600183602060ff166113e291906144b4565b6113ec91906144b4565b815181106113fd576113fc614456565b5b60200101907effffffffffffffffffffffffffffffffffffffffffffffffffffffffffffff1916908160001a9053508080611437906145bd565b9150506113ac565b506114498161289a565b915050919050565b60008060007ffffffffffffffffffffffffffffffffffffffffffffffffffffffffefffffc2f80611485576114846149fc565b5b60018760ff16901c60ff167ffffffffffffffffffffffffffffffffffffffffffffffffffffffffefffffc2f6114bb9190614780565b860890507ffffffffffffffffffffffffffffffffffffffffffffffffffffffffefffffc2f81118061150c57507ffffffffffffffffffffffffffffffffebaaedce6af48a03bbfd25e8cd036414184115b8061153657507ffffffffffffffffffffffffffffffffebaaedce6af48a03bbfd25e8cd036414185115b806115415750600084145b8061154c5750600085145b8061155a575060018660ff16115b1561156c57600080925092505061185a565b6000611598867ffffffffffffffffffffffffffffffffebaaedce6af48a03bbfd25e8cd03641416128c3565b905060007ffffffffffffffffffffffffffffffffffffffffffffffffffffffffefffffc2f806115cb576115ca6149fc565b5b7ffffffffffffffffffffffffffffffffffffffffffffffffffffffffefffffc2f806115fa576115f96149fc565b5b60077ffffffffffffffffffffffffffffffffffffffffffffffffffffffffefffffc2f8061162b5761162a6149fc565b5b60008709087ffffffffffffffffffffffffffffffffffffffffffffffffffffffffefffffc2f8061165f5761165e6149fc565b5b7ffffffffffffffffffffffffffffffffffffffffffffffffffffffffefffffc2f8061168e5761168d6149fc565b5b86870986090890506116d881600460017ffffffffffffffffffffffffffffffffffffffffffffffffffffffffefffffc2f6116c991906147c2565b6116d39190614a2b565b6129af565b9050600080600160028b60ff16856116f091906147c2565b6116fa91906147c2565b161461173157817ffffffffffffffffffffffffffffffffffffffffffffffffffffffffefffffc2f61172c91906144b4565b611733565b815b905060008060006117e37ffffffffffffffffffffffffffffffffebaaedce6af48a03bbfd25e8cd03641418061176c5761176b6149fc565b5b8e7ffffffffffffffffffffffffffffffffebaaedce6af48a03bbfd25e8cd036414161179891906144b4565b88097f79be667ef9dcbbac55a06295ce870b07029bfcdb2dce28d959f2815b16f817987f483ada7726a3c4655da4fbfc0e1108a8fd17b448a68554199c47d08ffb10d4b86001612b63565b925092509250600080600061182c7ffffffffffffffffffffffffffffffffebaaedce6af48a03bbfd25e8cd0364141806118205761181f6149fc565b5b8e8b098b896001612b63565b925092509250600080611843888888888888612bfd565b9150915081819d509d505050505050505050505050505b94509492505050565b6000600280836040516118769190614a98565b602060405180830381855afa158015611893573d6000803e3d6000fd5b5050506040513d601f19601f820116820180604052508101906118b69190614adb565b6040516020016118c691906145a2565b6040516020818303038152906040526040516118e29190614a98565b602060405180830381855afa1580156118ff573d6000803e3d6000fd5b5050506040513d601f19601f820116820180604052508101906119229190614adb565b9050919050565b6119bf8160405160240161193d9190614b4c565b6040516020818303038152906040527f41304fac000000000000000000000000000000000000000000000000000000007bffffffffffffffffffffffffffffffffffffffffffffffffffffffff19166020820180517bffffffffffffffffffffffffffffffffffffffffffffffffffffffff8381831617835250505050612ca9565b50565b611a58816040516024016119d6919061443b565b6040516020818303038152906040527f27b7cf85000000000000000000000000000000000000000000000000000000007bffffffffffffffffffffffffffffffffffffffffffffffffffffffff19166020820180517bffffffffffffffffffffffffffffffffffffffffffffffffffffffff8381831617835250505050612ca9565b50565b60607f7fffffffffffffffffffffffffffffffffffffffffffffffffffffffffffffff821115611ac0576040517f08c379a0000000000000000000000000000000000000000000000000000000008152600401611ab790614bba565b60405180910390fd5b60405190506020815281602082015260408101604052919050565b600060088203611b1057838381518110611af857611af7614456565b5b602001015160f81c60f81b60f81c60ff169050611f3f565b60108203611b925761010084600185611b2991906147c2565b81518110611b3a57611b39614456565b5b602001015160f81c60f81b60f81c60ff16611b559190614be8565b61ffff16848481518110611b6c57611b6b614456565b5b602001015160f81c60f81b60f81c60ff1661ffff16611b8b91906147c2565b9050611f3f565b60208203611cb557630100000084600385611bad91906147c2565b81518110611bbe57611bbd614456565b5b602001015160f81c60f81b60f81c60ff16611bd99190614c35565b63ffffffff166201000085600286611bf191906147c2565b81518110611c0257611c01614456565b5b602001015160f81c60f81b60f81c60ff16611c1d9190614c35565b63ffffffff1661010086600187611c3491906147c2565b81518110611c4557611c44614456565b5b602001015160f81c60f81b60f81c60ff16611c609190614c35565b63ffffffff16868681518110611c7957611c78614456565b5b602001015160f81c60f81b60f81c60ff1663ffffffff16611c9a91906147c2565b611ca491906147c2565b611cae91906147c2565b9050611f3f565b60408203611f3e5767010000000000000084600785611cd491906147c2565b81518110611ce557611ce4614456565b5b602001015160f81c60f81b60f81c60ff16611d009190614c86565b67ffffffffffffffff16660100000000000085600686611d2091906147c2565b81518110611d3157611d30614456565b5b602001015160f81c60f81b60f81c60ff16611d4c9190614c86565b67ffffffffffffffff166501000000000086600587611d6b91906147c2565b81518110611d7c57611d7b614456565b5b602001015160f81c60f81b60f81c60ff16611d979190614c86565b67ffffffffffffffff1664010000000087600488611db591906147c2565b81518110611dc657611dc5614456565b5b602001015160f81c60f81b60f81c60ff16611de19190614c86565b67ffffffffffffffff16630100000088600389611dfe91906147c2565b81518110611e0f57611e0e614456565b5b602001015160f81c60f81b60f81c60ff16611e2a9190614c86565b67ffffffffffffffff16620100008960028a611e4691906147c2565b81518110611e5757611e56614456565b5b602001015160f81c60f81b60f81c60ff16611e729190614c86565b67ffffffffffffffff166101008a60018b611e8d91906147c2565b81518110611e9e57611e9d614456565b5b602001015160f81c60f81b60f81c60ff16611eb99190614c86565b67ffffffffffffffff168a8a81518110611ed657611ed5614456565b5b602001015160f81c60f81b60f81c60ff1667ffffffffffffffff16611efb91906147c2565b611f0591906147c2565b611f0f91906147c2565b611f1991906147c2565b611f2391906147c2565b611f2d91906147c2565b611f3791906147c2565b9050611f3f565b5b9392505050565b6000607282148015611fa65750607660f81b84600085611f6691906147c2565b81518110611f7757611f76614456565b5b602001015160f81c60f81b7effffffffffffffffffffffffffffffffffffffffffffffffffffffffffffff1916145b80156120005750602160f81b84600185611fc091906147c2565b81518110611fd157611fd0614456565b5b602001015160f81c60f81b7effffffffffffffffffffffffffffffffffffffffffffffffffffffffffffff1916145b801561205a575060ac60f81b8460238561201a91906147c2565b8151811061202b5761202a614456565b5b602001015160f81c60f81b7effffffffffffffffffffffffffffffffffffffffffffffffffffffffffffff1916145b80156120b45750606360f81b8460248561207491906147c2565b8151811061208557612084614456565b5b602001015160f81c60f81b7effffffffffffffffffffffffffffffffffffffffffffffffffffffffffffff1916145b801561210e5750607560f81b846025856120ce91906147c2565b815181106120df576120de614456565b5b602001015160f81c60f81b7effffffffffffffffffffffffffffffffffffffffffffffffffffffffffffff1916145b8015612168575060aa60f81b8460268561212891906147c2565b8151811061213957612138614456565b5b602001015160f81c60f81b7effffffffffffffffffffffffffffffffffffffffffffffffffffffffffffff1916145b80156121c25750602060f81b8460278561218291906147c2565b8151811061219357612192614456565b5b602001015160f81c60f81b7effffffffffffffffffffffffffffffffffffffffffffffffffffffffffffff1916145b801561221c5750608860f81b846048856121dc91906147c2565b815181106121ed576121ec614456565b5b602001015160f81c60f81b7effffffffffffffffffffffffffffffffffffffffffffffffffffffffffffff1916145b80156122765750606760f81b8460498561223691906147c2565b8151811061224757612246614456565b5b602001015160f81c60f81b7effffffffffffffffffffffffffffffffffffffffffffffffffffffffffffff1916145b80156122d05750602160f81b84604a8561229091906147c2565b815181106122a1576122a0614456565b5b602001015160f81c60f81b7effffffffffffffffffffffffffffffffffffffffffffffffffffffffffffff1916145b801561232a575060ad60f81b84606c856122ea91906147c2565b815181106122fb576122fa614456565b5b602001015160f81c60f81b7effffffffffffffffffffffffffffffffffffffffffffffffffffffffffffff1916145b80156123845750605260f81b84606d8561234491906147c2565b8151811061235557612354614456565b5b602001015160f81c60f81b7effffffffffffffffffffffffffffffffffffffffffffffffffffffffffffff1916145b80156123de575060b260f81b84606e8561239e91906147c2565b815181106123af576123ae614456565b5b602001015160f81c60f81b7effffffffffffffffffffffffffffffffffffffffffffffffffffffffffffff1916145b80156124385750607560f81b84606f856123f891906147c2565b8151811061240957612408614456565b5b602001015160f81c60f81b7effffffffffffffffffffffffffffffffffffffffffffffffffffffffffffff1916145b80156124925750606860f81b8460708561245291906147c2565b8151811061246357612462614456565b5b602001015160f81c60f81b7effffffffffffffffffffffffffffffffffffffffffffffffffffffffffffff1916145b80156124ec5750605160f81b846071856124ac91906147c2565b815181106124bd576124bc614456565b5b602001015160f81c60f81b7effffffffffffffffffffffffffffffffffffffffffffffffffffffffffffff1916145b90509392505050565b60006019821480156125495750607660f81b84848151811061251a57612519614456565b5b602001015160f81c60f81b7effffffffffffffffffffffffffffffffffffffffffffffffffffffffffffff1916145b80156125a3575060a960f81b8460018561256391906147c2565b8151811061257457612573614456565b5b602001015160f81c60f81b7effffffffffffffffffffffffffffffffffffffffffffffffffffffffffffff1916145b80156125fd5750601460f81b846002856125bd91906147c2565b815181106125ce576125cd614456565b5b602001015160f81c60f81b7effffffffffffffffffffffffffffffffffffffffffffffffffffffffffffff1916145b80156126575750608860f81b8460178561261791906147c2565b8151811061262857612627614456565b5b602001015160f81c60f81b7effffffffffffffffffffffffffffffffffffffffffffffffffffffffffffff1916145b80156126b1575060ac60f81b8460188561267191906147c2565b8151811061268257612681614456565b5b602001015160f81c60f81b7effffffffffffffffffffffffffffffffffffffffffffffffffffffffffffff1916145b90509392505050565b600060178214801561271a575060a960f81b846000856126da91906147c2565b815181106126eb576126ea614456565b5b602001015160f81c60f81b7effffffffffffffffffffffffffffffffffffffffffffffffffffffffffffff1916145b80156127745750601460f81b8460018561273491906147c2565b8151811061274557612744614456565b5b602001015160f81c60f81b7effffffffffffffffffffffffffffffffffffffffffffffffffffffffffffff1916145b80156127ce5750608760f81b8460168561278e91906147c2565b8151811061279f5761279e614456565b5b602001015160f81c60f81b7effffffffffffffffffffffffffffffffffffffffffffffffffffffffffffff1916145b90509392505050565b60006022821480156128375750606a60f81b846000856127f791906147c2565b8151811061280857612807614456565b5b602001015160f81c60f81b7effffffffffffffffffffffffffffffffffffffffffffffffffffffffffffff1916145b80156128915750602060f81b8460018561285191906147c2565b8151811061286257612861614456565b5b602001015160f81c60f81b7effffffffffffffffffffffffffffffffffffffffffffffffffffffffffffff1916145b90509392505050565b60008082905060008151036128b5576000801b9150506128be565b60208301519150505b919050565b60008083141580156128d55750818314155b80156128e2575060008214155b612921576040517f08c379a000000000000000000000000000000000000000000000000000000000815260040161291890614d0f565b60405180910390fd5b60008060019050600084905060005b600087146129a25786826129449190614a2b565b9050828680612956576129556149fc565b5b8780612965576129646149fc565b5b8584098861297391906144b4565b8608809450819550505086878261298a9190614780565b8361299591906144b4565b8098508193505050612930565b8394505050505092915050565b60008083036129c15760009050612b5d565b600082036129d25760019050612b5d565b60006001905060007f800000000000000000000000000000000000000000000000000000000000000090505b6000811115612b57577ffffffffffffffffffffffffffffffffffffffffffffffffffffffffefffffc2f8185161515860a7ffffffffffffffffffffffffffffffffffffffffffffffffffffffffefffffc2f8485090991507ffffffffffffffffffffffffffffffffffffffffffffffffffffffffefffffc2f6002820485161515860a7ffffffffffffffffffffffffffffffffffffffffffffffffffffffffefffffc2f8485090991507ffffffffffffffffffffffffffffffffffffffffffffffffffffffffefffffc2f6004820485161515860a7ffffffffffffffffffffffffffffffffffffffffffffffffffffffffefffffc2f8485090991507ffffffffffffffffffffffffffffffffffffffffffffffffffffffffefffffc2f6008820485161515860a7ffffffffffffffffffffffffffffffffffffffffffffffffffffffffefffffc2f8485090991506010810490506129fe565b81925050505b92915050565b6000806000808703612b7d57858585925092509250612bf3565b60008790506000806000600190505b60008414612be55760006001851614612bba57612bad8383838d8d8d612cc3565b8093508194508295505050505b600284612bc79190614a2b565b9350612bd48a8a8a613701565b809a50819b50829c50505050612b8c565b828282965096509650505050505b9450945094915050565b6000806000806000878b03612c705760007ffffffffffffffffffffffffffffffffffffffffffffffffffffffffefffffc2f80612c3d57612c3c6149fc565b5b888c0803612c545760008094509450505050612c9e565b612c5f8b8b8b613701565b809350819450829550505050612c8b565b612c7e8b8b8b8b8b8b612cc3565b8093508194508295505050505b612c96838383613b7e565b945094505050505b965096945050505050565b612cc081612cb8613c94613cb5565b63ffffffff16565b50565b60008060008089148015612cd75750600088145b15612cea578585859250925092506136f5565b600086148015612cfa5750600085145b15612d0d578888889250925092506136f5565b612d15613dcd565b7ffffffffffffffffffffffffffffffffffffffffffffffffffffffffefffffc2f80612d4457612d436149fc565b5b88890981600060048110612d5b57612d5a614456565b5b6020020181815250507ffffffffffffffffffffffffffffffffffffffffffffffffffffffffefffffc2f80612d9357612d926149fc565b5b81600060048110612da757612da6614456565b5b6020020151890981600160048110612dc257612dc1614456565b5b6020020181815250507ffffffffffffffffffffffffffffffffffffffffffffffffffffffffefffffc2f80612dfa57612df96149fc565b5b85860981600260048110612e1157612e10614456565b5b6020020181815250507ffffffffffffffffffffffffffffffffffffffffffffffffffffffffefffffc2f80612e4957612e486149fc565b5b81600260048110612e5d57612e5c614456565b5b6020020151860981600360048110612e7857612e77614456565b5b60200201818152505060405180608001604052807ffffffffffffffffffffffffffffffffffffffffffffffffffffffffefffffc2f80612ebb57612eba6149fc565b5b83600260048110612ecf57612ece614456565b5b60200201518d0981526020017ffffffffffffffffffffffffffffffffffffffffffffffffffffffffefffffc2f80612f0a57612f096149fc565b5b83600360048110612f1e57612f1d614456565b5b60200201518c0981526020017ffffffffffffffffffffffffffffffffffffffffffffffffffffffffefffffc2f80612f5957612f586149fc565b5b83600060048110612f6d57612f6c614456565b5b60200201518a0981526020017ffffffffffffffffffffffffffffffffffffffffffffffffffffffffefffffc2f80612fa857612fa76149fc565b5b83600160048110612fbc57612fbb614456565b5b60200201518909815250905080600260048110612fdc57612fdb614456565b5b602002015181600060048110612ff557612ff4614456565b5b602002015114158061303757508060036004811061301657613015614456565b5b60200201518160016004811061302f5761302e614456565b5b602002015114155b613076576040517f08c379a000000000000000000000000000000000000000000000000000000000815260040161306d90614d7b565b60405180910390fd5b61307e613dcd565b7ffffffffffffffffffffffffffffffffffffffffffffffffffffffffefffffc2f806130ad576130ac6149fc565b5b826000600481106130c1576130c0614456565b5b60200201517ffffffffffffffffffffffffffffffffffffffffffffffffffffffffefffffc2f6130f191906144b4565b8360026004811061310557613104614456565b5b6020020151088160006004811061311f5761311e614456565b5b6020020181815250507ffffffffffffffffffffffffffffffffffffffffffffffffffffffffefffffc2f80613157576131566149fc565b5b8260016004811061316b5761316a614456565b5b60200201517ffffffffffffffffffffffffffffffffffffffffffffffffffffffffefffffc2f61319b91906144b4565b836003600481106131af576131ae614456565b5b602002015108816001600481106131c9576131c8614456565b5b6020020181815250507ffffffffffffffffffffffffffffffffffffffffffffffffffffffffefffffc2f80613201576132006149fc565b5b8160006004811061321557613214614456565b5b60200201518260006004811061322e5761322d614456565b5b6020020151098160026004811061324857613247614456565b5b6020020181815250507ffffffffffffffffffffffffffffffffffffffffffffffffffffffffefffffc2f806132805761327f6149fc565b5b8160006004811061329457613293614456565b5b6020020151826002600481106132ad576132ac614456565b5b602002015109816003600481106132c7576132c6614456565b5b60200201818152505060007ffffffffffffffffffffffffffffffffffffffffffffffffffffffffefffffc2f80613301576133006149fc565b5b8260036004811061331557613314614456565b5b60200201517ffffffffffffffffffffffffffffffffffffffffffffffffffffffffefffffc2f61334591906144b4565b7ffffffffffffffffffffffffffffffffffffffffffffffffffffffffefffffc2f80613374576133736149fc565b5b8460016004811061338857613387614456565b5b6020020151856001600481106133a1576133a0614456565b5b6020020151090890507ffffffffffffffffffffffffffffffffffffffffffffffffffffffffefffffc2f806133d9576133d86149fc565b5b7ffffffffffffffffffffffffffffffffffffffffffffffffffffffffefffffc2f80613408576134076149fc565b5b7ffffffffffffffffffffffffffffffffffffffffffffffffffffffffefffffc2f80613437576134366149fc565b5b8460026004811061344b5761344a614456565b5b60200201518660006004811061346457613463614456565b5b6020020151096002097ffffffffffffffffffffffffffffffffffffffffffffffffffffffffefffffc2f61349891906144b4565b8208905060007ffffffffffffffffffffffffffffffffffffffffffffffffffffffffefffffc2f806134cd576134cc6149fc565b5b7ffffffffffffffffffffffffffffffffffffffffffffffffffffffffefffffc2f806134fc576134fb6149fc565b5b837ffffffffffffffffffffffffffffffffffffffffffffffffffffffffefffffc2f61352891906144b4565b7ffffffffffffffffffffffffffffffffffffffffffffffffffffffffefffffc2f80613557576135566149fc565b5b8660026004811061356b5761356a614456565b5b60200201518860006004811061358457613583614456565b5b602002015109088460016004811061359f5761359e614456565b5b60200201510990507ffffffffffffffffffffffffffffffffffffffffffffffffffffffffefffffc2f806135d6576135d56149fc565b5b7ffffffffffffffffffffffffffffffffffffffffffffffffffffffffefffffc2f80613605576136046149fc565b5b8460036004811061361957613618614456565b5b60200201518660016004811061363257613631614456565b5b6020020151097ffffffffffffffffffffffffffffffffffffffffffffffffffffffffefffffc2f61366391906144b4565b8208905060007ffffffffffffffffffffffffffffffffffffffffffffffffffffffffefffffc2f80613698576136976149fc565b5b7ffffffffffffffffffffffffffffffffffffffffffffffffffffffffefffffc2f806136c7576136c66149fc565b5b8a8e09856000600481106136de576136dd614456565b5b602002015109905082828297509750975050505050505b96509650969350505050565b600080600080840361371b57858585925092509250613b75565b60007ffffffffffffffffffffffffffffffffffffffffffffffffffffffffefffffc2f8061374c5761374b6149fc565b5b878809905060007ffffffffffffffffffffffffffffffffffffffffffffffffffffffffefffffc2f80613782576137816149fc565b5b878809905060007ffffffffffffffffffffffffffffffffffffffffffffffffffffffffefffffc2f806137b8576137b76149fc565b5b878809905060007ffffffffffffffffffffffffffffffffffffffffffffffffffffffffefffffc2f806137ee576137ed6149fc565b5b7ffffffffffffffffffffffffffffffffffffffffffffffffffffffffefffffc2f8061381d5761381c6149fc565b5b848c09600409905060007ffffffffffffffffffffffffffffffffffffffffffffffffffffffffefffffc2f80613856576138556149fc565b5b7ffffffffffffffffffffffffffffffffffffffffffffffffffffffffefffffc2f80613885576138846149fc565b5b7ffffffffffffffffffffffffffffffffffffffffffffffffffffffffefffffc2f806138b4576138b36149fc565b5b8586096000097ffffffffffffffffffffffffffffffffffffffffffffffffffffffffefffffc2f806138e9576138e86149fc565b5b876003090890507ffffffffffffffffffffffffffffffffffffffffffffffffffffffffefffffc2f8061391f5761391e6149fc565b5b7ffffffffffffffffffffffffffffffffffffffffffffffffffffffffefffffc2f8061394e5761394d6149fc565b5b8384087ffffffffffffffffffffffffffffffffffffffffffffffffffffffffefffffc2f61397c91906144b4565b7ffffffffffffffffffffffffffffffffffffffffffffffffffffffffefffffc2f806139ab576139aa6149fc565b5b8384090894507ffffffffffffffffffffffffffffffffffffffffffffffffffffffffefffffc2f806139e0576139df6149fc565b5b7ffffffffffffffffffffffffffffffffffffffffffffffffffffffffefffffc2f80613a0f57613a0e6149fc565b5b7ffffffffffffffffffffffffffffffffffffffffffffffffffffffffefffffc2f80613a3e57613a3d6149fc565b5b8687096008097ffffffffffffffffffffffffffffffffffffffffffffffffffffffffefffffc2f613a6f91906144b4565b7ffffffffffffffffffffffffffffffffffffffffffffffffffffffffefffffc2f80613a9e57613a9d6149fc565b5b7ffffffffffffffffffffffffffffffffffffffffffffffffffffffffefffffc2f80613acd57613acc6149fc565b5b887ffffffffffffffffffffffffffffffffffffffffffffffffffffffffefffffc2f613af991906144b4565b860884090893507ffffffffffffffffffffffffffffffffffffffffffffffffffffffffefffffc2f80613b2f57613b2e6149fc565b5b7ffffffffffffffffffffffffffffffffffffffffffffffffffffffffefffffc2f80613b5e57613b5d6149fc565b5b8a8c09600209925084848497509750975050505050505b93509350939050565b6000806000613bad847ffffffffffffffffffffffffffffffffffffffffffffffffffffffffefffffc2f6128c3565b905060007ffffffffffffffffffffffffffffffffffffffffffffffffffffffffefffffc2f80613be057613bdf6149fc565b5b828309905060007ffffffffffffffffffffffffffffffffffffffffffffffffffffffffefffffc2f80613c1657613c156149fc565b5b828909905060007ffffffffffffffffffffffffffffffffffffffffffffffffffffffffefffffc2f80613c4c57613c4b6149fc565b5b7ffffffffffffffffffffffffffffffffffffffffffffffffffffffffefffffc2f80613c7b57613c7a6149fc565b5b8486098909905081819550955050505050935093915050565b60006a636f6e736f6c652e6c6f679050600080835160208501845afa505050565b613def819050919050565b6040518060600160405280600060ff16815260200160608152602001606081525090565b6040518060800160405280600081526020016000801916815260200160008019168152602001600080191681525090565b60405180604001604052806000815260200160006bffffffffffffffffffffffff191681525090565b604051806040016040528060008152602001600080191681525090565b6040518060a0016040528060008152602001606081526020016060815260200160608152602001606081525090565b6040518060600160405280600081526020016000801916815260200160007bffffffffffffffffffffffffffffffffffffffffffffffffffffffff191681525090565b6040518060800160405280600490602082028036833780820191505090505090565b613df7614d9b565b565b6000604051905090565b600080fd5b600080fd5b600080fd5b600080fd5b6000601f19601f8301169050919050565b7f4e487b7100000000000000000000000000000000000000000000000000000000600052604160045260246000fd5b613e6082613e17565b810181811067ffffffffffffffff82111715613e7f57613e7e613e28565b5b80604052505050565b6000613e92613df9565b9050613e9e8282613e57565b919050565b600067ffffffffffffffff821115613ebe57613ebd613e28565b5b613ec782613e17565b9050602081019050919050565b82818337600083830152505050565b6000613ef6613ef184613ea3565b613e88565b905082815260208101848484011115613f1257613f11613e12565b5b613f1d848285613ed4565b509392505050565b600082601f830112613f3a57613f39613e0d565b5b8135613f4a848260208601613ee3565b91505092915050565b600060208284031215613f6957613f68613e03565b5b600082013567ffffffffffffffff811115613f8757613f86613e08565b5b613f9384828501613f25565b91505092915050565b600060ff82169050919050565b613fb281613f9c565b82525050565b600081519050919050565b600082825260208201905092915050565b60005b83811015613ff2578082015181840152602081019050613fd7565b60008484015250505050565b600061400982613fb8565b6140138185613fc3565b9350614023818560208601613fd4565b61402c81613e17565b840191505092915050565b600060608301600083015161404f6000860182613fa9565b50602083015184820360208601526140678282613ffe565b915050604083015184820360408601526140818282613ffe565b9150508091505092915050565b600060208201905081810360008301526140a88184614037565b905092915050565b60007fffffffff0000000000000000000000000000000000000000000000000000000082169050919050565b6140e5816140b0565b82525050565b600060208201905061410060008301846140dc565b92915050565b6000819050919050565b61411981614106565b82525050565b6000819050919050565b6141328161411f565b82525050565b60808201600082015161414e6000850182614110565b5060208201516141616020850182614129565b5060408201516141746040850182614129565b5060608201516141876060850182614129565b50505050565b60007fffffffffffffffffffffffffffffffffffffffff00000000000000000000000082169050919050565b6141c28161418d565b82525050565b6040820160008201516141de6000850182614110565b5060208201516141f160208501826141b9565b50505050565b60408201600082015161420d6000850182614110565b5060208201516142206020850182614129565b50505050565b60006101008201905061423c6000830186614138565b61424960808301856141c8565b61425660c08301846141f7565b949350505050565b614267816140b0565b82525050565b6060820160008201516142836000850182614110565b5060208201516142966020850182614129565b5060408201516142a9604085018261425e565b50505050565b60006060820190506142c4600083018461426d565b92915050565b6142d381614106565b81146142de57600080fd5b50565b6000813590506142f0816142ca565b92915050565b6142ff81613f9c565b811461430a57600080fd5b50565b60008135905061431c816142f6565b92915050565b6000806000806080858703121561433c5761433b613e03565b5b600061434a878288016142e1565b945050602061435b8782880161430d565b935050604061436c878288016142e1565b925050606061437d878288016142e1565b91505092959194509250565b600082825260208201905092915050565b60006143a582613fb8565b6143af8185614389565b93506143bf818560208601613fd4565b6143c881613e17565b840191505092915050565b600060208201905081810360008301526143ed818461439a565b905092915050565b6000604082019050818103600083015261440f8185614037565b905081810360208301526144238184614037565b90509392505050565b6144358161411f565b82525050565b6000602082019050614450600083018461442c565b92915050565b7f4e487b7100000000000000000000000000000000000000000000000000000000600052603260045260246000fd5b7f4e487b7100000000000000000000000000000000000000000000000000000000600052601160045260246000fd5b60006144bf82614106565b91506144ca83614106565b92508282039050818111156144e2576144e1614485565b5b92915050565b6000819050602082019050919050565b600061450482516140b0565b80915050919050565b600082821b905092915050565b600061452582613fb8565b8261452f846144e8565b905061453a816144f8565b9250600482101561457a576145757fffffffff000000000000000000000000000000000000000000000000000000008360040360080261450d565b831692505b5050919050565b6000819050919050565b61459c6145978261411f565b614581565b82525050565b60006145ae828461458b565b60208201915081905092915050565b60006145c882614106565b91507fffffffffffffffffffffffffffffffffffffffffffffffffffffffffffffffff82036145fa576145f9614485565b5b600182019050919050565b6000614611825161411f565b80915050919050565b600061462582613fb8565b8261462f846144e8565b905061463a81614605565b9250602082101561467a576146757fffffffffffffffffffffffffffffffffffffffffffffffffffffffffffffffff8360200360080261450d565b831692505b5050919050565b600082825260208201905092915050565b7f54782068617320746f6f206d616e7920696e7075747320283e31290000000000600082015250565b60006146c8601b83614681565b91506146d382614692565b602082019050919050565b600060208201905081810360008301526146f7816146bb565b9050919050565b600061470982613f9c565b915061471483613f9c565b9250828203905060ff81111561472d5761472c614485565b5b92915050565b6000819050919050565b61474e61474982614106565b614733565b82525050565b6000614760828561473d565b602082019150614770828461473d565b6020820191508190509392505050565b600061478b82614106565b915061479683614106565b92508282026147a481614106565b915082820484148315176147bb576147ba614485565b5b5092915050565b60006147cd82614106565b91506147d883614106565b92508282019050808211156147f0576147ef614485565b5b92915050565b7f736c6963655f6f766572666c6f77000000000000000000000000000000000000600082015250565b600061482c600e83614681565b9150614837826147f6565b602082019050919050565b6000602082019050818103600083015261485b8161481f565b9050919050565b7f736c6963655f6f75744f66426f756e6473000000000000000000000000000000600082015250565b6000614898601183614681565b91506148a382614862565b602082019050919050565b600060208201905081810360008301526148c78161488b565b9050919050565b600073ffffffffffffffffffffffffffffffffffffffff82169050919050565b60006148f9826148ce565b9150614904836148ce565b9250828203905073ffffffffffffffffffffffffffffffffffffffff8111156149305761492f614485565b5b92915050565b6000614941826148ce565b915061494c836148ce565b925082820261495a816148ce565b9150828204841483151761497157614970614485565b5b5092915050565b6000614983826148ce565b915061498e836148ce565b9250828201905073ffffffffffffffffffffffffffffffffffffffff8111156149ba576149b9614485565b5b92915050565b60006149cb826148ce565b915073ffffffffffffffffffffffffffffffffffffffff82036149f1576149f0614485565b5b600182019050919050565b7f4e487b7100000000000000000000000000000000000000000000000000000000600052601260045260246000fd5b6000614a3682614106565b9150614a4183614106565b925082614a5157614a506149fc565b5b828204905092915050565b600081905092915050565b6000614a7282613fb8565b614a7c8185614a5c565b9350614a8c818560208601613fd4565b80840191505092915050565b6000614aa48284614a67565b915081905092915050565b614ab88161411f565b8114614ac357600080fd5b50565b600081519050614ad581614aaf565b92915050565b600060208284031215614af157614af0613e03565b5b6000614aff84828501614ac6565b91505092915050565b600081519050919050565b6000614b1e82614b08565b614b288185614681565b9350614b38818560208601613fd4565b614b4181613e17565b840191505092915050565b60006020820190508181036000830152614b668184614b13565b905092915050565b7f56616c75652065786365656473207468652072616e6765000000000000000000600082015250565b6000614ba4601783614681565b9150614baf82614b6e565b602082019050919050565b60006020820190508181036000830152614bd381614b97565b9050919050565b600061ffff82169050919050565b6000614bf382614bda565b9150614bfe83614bda565b9250828202614c0c81614bda565b9150808214614c1e57614c1d614485565b5b5092915050565b600063ffffffff82169050919050565b6000614c4082614c25565b9150614c4b83614c25565b9250828202614c5981614c25565b9150808214614c6b57614c6a614485565b5b5092915050565b600067ffffffffffffffff82169050919050565b6000614c9182614c72565b9150614c9c83614c72565b9250828202614caa81614c72565b9150808214614cbc57614cbb614485565b5b5092915050565b7f496e76616c6964206e756d626572000000000000000000000000000000000000600082015250565b6000614cf9600e83614681565b9150614d0482614cc3565b602082019050919050565b60006020820190508181036000830152614d2881614cec565b9050919050565b7f557365206a6163446f75626c652066756e6374696f6e20696e73746561640000600082015250565b6000614d65601e83614681565b9150614d7082614d2f565b602082019050919050565b60006020820190508181036000830152614d9481614d58565b9050919050565b7f4e487b7100000000000000000000000000000000000000000000000000000000600052605160045260246000fdfea2646970667358221220185f9f2ea7b74ffbf18d77e55e748976a13ab0a85162b19a49935446c248011d64736f6c63430008130033",
  "linkReferences": {},
  "deployedLinkReferences": {}
}