{
  "_format": "hh-sol-artifact-1",
  "contractName": "ParseBitcoinRawTx",
  "sourceName": "contracts/ParseBitcoinRawTx.sol",
  "abi": [
    {
      "inputs": [
        {
          "internalType": "bytes",
          "name": "_fundingScript",
          "type": "bytes"
        }
      ],
      "name": "extractCompressedPK",
      "outputs": [
        {
          "internalType": "bytes",
          "name": "",
          "type": "bytes"
        },
        {
          "internalType": "bytes",
          "name": "",
          "type": "bytes"
        }
      ],
      "stateMutability": "view",
      "type": "function"
    },
    {
      "inputs": [
        {
          "internalType": "bytes",
          "name": "_txBytes",
          "type": "bytes"
        }
      ],
      "name": "getInputsData",
      "outputs": [
        {
          "components": [
            {
              "internalType": "uint256",
              "name": "number_of_inputs",
              "type": "uint256"
            },
            {
              "internalType": "bytes32",
              "name": "txid",
              "type": "bytes32"
            },
            {
              "internalType": "bytes4",
              "name": "inputIndex",
              "type": "bytes4"
            }
          ],
          "internalType": "struct ParseBitcoinRawTx.Input",
          "name": "",
          "type": "tuple"
        }
      ],
      "stateMutability": "view",
      "type": "function"
    },
    {
      "inputs": [
        {
          "internalType": "bytes",
          "name": "_txBytes",
          "type": "bytes"
        }
      ],
      "name": "getOutputsDataLN",
      "outputs": [
        {
          "components": [
            {
              "internalType": "uint256",
              "name": "value",
              "type": "uint256"
            },
            {
              "internalType": "bytes32",
              "name": "pk1",
              "type": "bytes32"
            },
            {
              "internalType": "bytes32",
              "name": "pk2",
              "type": "bytes32"
            },
            {
              "internalType": "bytes32",
              "name": "rev_secret",
              "type": "bytes32"
            }
          ],
          "internalType": "struct ParseBitcoinRawTx.LightningHTLCData",
          "name": "",
          "type": "tuple"
        },
        {
          "components": [
            {
              "internalType": "uint256",
              "name": "value",
              "type": "uint256"
            },
            {
              "internalType": "bytes20",
              "name": "pkhash",
              "type": "bytes20"
            }
          ],
          "internalType": "struct ParseBitcoinRawTx.P2PKHData",
          "name": "",
          "type": "tuple"
        }
      ],
      "stateMutability": "view",
      "type": "function"
    },
    {
      "inputs": [
        {
          "internalType": "bytes",
          "name": "_txBytes",
          "type": "bytes"
        }
      ],
      "name": "getOutputsDataLNB",
      "outputs": [
        {
          "components": [
            {
              "internalType": "uint256",
              "name": "value",
              "type": "uint256"
            },
            {
              "internalType": "bytes32",
              "name": "pk1",
              "type": "bytes32"
            },
            {
              "internalType": "bytes32",
              "name": "pk2",
              "type": "bytes32"
            },
            {
              "internalType": "bytes32",
              "name": "rev_secret",
              "type": "bytes32"
            }
          ],
          "internalType": "struct ParseBitcoinRawTx.LightningHTLCData",
          "name": "",
          "type": "tuple"
        },
        {
          "components": [
            {
              "internalType": "uint256",
              "name": "value",
              "type": "uint256"
            },
            {
              "internalType": "bytes20",
              "name": "pkhash",
              "type": "bytes20"
            }
          ],
          "internalType": "struct ParseBitcoinRawTx.P2PKHData",
          "name": "",
          "type": "tuple"
        },
        {
          "components": [
            {
              "internalType": "uint256",
              "name": "value",
              "type": "uint256"
            },
            {
              "internalType": "bytes32",
              "name": "data",
              "type": "bytes32"
            }
          ],
          "internalType": "struct ParseBitcoinRawTx.OpReturnData",
          "name": "",
          "type": "tuple"
        }
      ],
      "stateMutability": "view",
      "type": "function"
    },
    {
      "inputs": [
        {
          "internalType": "bytes",
          "name": "_txBytes",
          "type": "bytes"
        }
      ],
      "name": "getSignature",
      "outputs": [
        {
          "components": [
            {
              "internalType": "uint8",
              "name": "v",
              "type": "uint8"
            },
            {
              "internalType": "bytes",
              "name": "r",
              "type": "bytes"
            },
            {
              "internalType": "bytes",
              "name": "s",
              "type": "bytes"
            }
          ],
          "internalType": "struct ParseBitcoinRawTx.Signature",
          "name": "",
          "type": "tuple"
        }
      ],
      "stateMutability": "view",
      "type": "function"
    },
    {
      "inputs": [
        {
          "internalType": "bytes",
          "name": "_txBytes",
          "type": "bytes"
        }
      ],
      "name": "getSignatures",
      "outputs": [
        {
          "components": [
            {
              "internalType": "uint8",
              "name": "v",
              "type": "uint8"
            },
            {
              "internalType": "bytes",
              "name": "r",
              "type": "bytes"
            },
            {
              "internalType": "bytes",
              "name": "s",
              "type": "bytes"
            }
          ],
          "internalType": "struct ParseBitcoinRawTx.Signature",
          "name": "",
          "type": "tuple"
        },
        {
          "components": [
            {
              "internalType": "uint8",
              "name": "v",
              "type": "uint8"
            },
            {
              "internalType": "bytes",
              "name": "r",
              "type": "bytes"
            },
            {
              "internalType": "bytes",
              "name": "s",
              "type": "bytes"
            }
          ],
          "internalType": "struct ParseBitcoinRawTx.Signature",
          "name": "",
          "type": "tuple"
        }
      ],
      "stateMutability": "view",
      "type": "function"
    },
    {
      "inputs": [
        {
          "internalType": "bytes",
          "name": "_txBytes",
          "type": "bytes"
        }
      ],
      "name": "getTimelock",
      "outputs": [
        {
          "internalType": "bytes4",
          "name": "",
          "type": "bytes4"
        }
      ],
      "stateMutability": "view",
      "type": "function"
    },
    {
      "inputs": [
        {
          "internalType": "bytes",
          "name": "_txBytes",
          "type": "bytes"
        },
        {
          "internalType": "bytes",
          "name": "fundingTxLockingScript",
          "type": "bytes"
        },
        {
          "internalType": "bytes",
          "name": "sighash",
          "type": "bytes"
        }
      ],
      "name": "getTxDigest",
      "outputs": [
        {
          "internalType": "bytes32",
          "name": "",
          "type": "bytes32"
        }
      ],
      "stateMutability": "view",
      "type": "function"
    },
    {
      "inputs": [
        {
          "internalType": "uint256",
          "name": "digest",
          "type": "uint256"
        },
        {
          "internalType": "uint8",
          "name": "v",
          "type": "uint8"
        },
        {
          "internalType": "uint256",
          "name": "r",
          "type": "uint256"
        },
        {
          "internalType": "uint256",
          "name": "s",
          "type": "uint256"
        }
      ],
      "name": "verifyBTCSignature",
      "outputs": [
        {
          "internalType": "bytes",
          "name": "",
          "type": "bytes"
        }
      ],
      "stateMutability": "view",
      "type": "function"
    }
  ],
  "bytecode": "0x608060405234801561001057600080fd5b50612ccd806100206000396000f3fe608060405234801561001057600080fd5b50600436106100935760003560e01c8063606c3cf111610066578063606c3cf11461014c5780636b45b4e31461016d57806393e309e11461018e5780639bfc9002146101fc578063d74f6ae21461021d57600080fd5b80631ed113ae1461009857806336946480146100c15780634f500ea9146100ed5780635933bf611461012c575b600080fd5b6100ab6100a6366004612758565b61023e565b6040516100b8919061282c565b60405180910390f35b6100d46100cf366004612758565b610335565b6040516001600160e01b031990911681526020016100b8565b6101006100fb366004612758565b610362565b604080518251815260208084015190820152918101516001600160e01b031916908201526060016100b8565b61013f61013a36600461283f565b610443565b6040516100b89190612882565b61015f61015a366004612758565b61048c565b6040516100b8929190612895565b61018061017b366004612758565b6104b2565b6040516100b89291906128ba565b6101a161019c366004612758565b610694565b60408051845181526020808601518183015285830151928201929092526060948501519481019490945282516080850152918201516001600160601b03191660a0840152805160c0840152015160e0820152610100016100b8565b61020f61020a3660046128df565b61095c565b6040519081526020016100b8565b61023061022b366004612758565b6109be565b6040516100b8929190612966565b6102656040518060600160405280600060ff16815260200160608152602001606081525090565b61028c6040518060600160405280600060ff16815260200160608152602001606081525090565b601b81526102a361029e846051610b71565b610be3565b604082015282518390602a9081106102bd576102bd6129aa565b6020910101516001600160f81b031916604760f81b14156102f0576102e661029e84602f610b71565b602082015261032f565b82602a81518110610303576103036129aa565b6020910101516001600160f81b031916602360f91b141561032f5761032983602f610c0e565b60208201525b92915050565b8051600090816103518461034a6004856129d6565b6004610c83565b61035a906129ed565b949350505050565b60408051606080820183526000808352602080840182905283850182905284519283018552818352820181905292810192909252906103a2836004610d90565b5081526103b28360256004610c83565b6103bb906129ed565b6001600160e01b03191660408201526103e86103da8460056025610c83565b6103e390612a24565b610e53565b6020820152805160011461032f5760405162461bcd60e51b815260206004820152601b60248201527f54782068617320746f6f206d616e7920696e7075747320283e3129000000000060448201526064015b60405180910390fd5b606060008061045e87610457601b89612a4b565b8787610ef4565b6040805160208101939093528281019190915280518083038201815260609092019052979650505050505050565b60608061049c8360026021610c83565b6104a98460256021610c83565b91509150915091565b6104d96040518060600160405280600060ff16815260200160608152602001606081525090565b6105006040518060600160405280600060ff16815260200160608152602001606081525090565b6105276040518060600160405280600060ff16815260200160608152602001606081525090565b61054e6040518060600160405280600060ff16815260200160608152602001606081525090565b601b815261056061029e866051610b71565b604082015284518590602a90811061057a5761057a6129aa565b6020910101516001600160f81b031916604760f81b14156105ad576105a361029e86602f610b71565b60208201526105ec565b84602a815181106105c0576105c06129aa565b6020910101516001600160f81b031916602360f91b14156105ec576105e685602f610c0e565b60208201525b601b82526105fe61029e866098610b71565b6040830152845185906072908110610618576106186129aa565b6020910101516001600160f81b031916604760f81b141561064b5761064161029e866077610b71565b602083015261068a565b8460728151811061065e5761065e6129aa565b6020910101516001600160f81b031916602360f91b141561068a57610684856077610c0e565b60208301525b9094909350915050565b604080516080810182526000808252602082018190529181018290526060810191909152604080518082019091526000808252602082015260408051808201909152600080825260208201526040805160808101825260008082526020820181905291810182905260608101919091526040805180820190915260008082526020820152604080518082019091526000808252602082015261075e6040518060a0016040528060008152602001606081526020016060815260200160608152602001606081525090565b60048082526107709089906000611125565b8083526020830191909152610788908990600061121c565b845260408401526060830152608082015260005b600381101561094d5780610823576107ef89836060015183815181106107c4576107c46129aa565b6020026020010151846040015184815181106107e2576107e26129aa565b60200260200101516113e4565b6040880152606087015260208601526080820151805182908110610815576108156129aa565b602090810291909101015185525b80600114156108d05761089c6108748a84606001518481518110610849576108496129aa565b602002602001015185604001518581518110610867576108676129aa565b6020026020010151611449565b60405160200161088691815260200190565b60405160208183030381529060405260006114ec565b6001600160601b031916602084015260808201518051829081106108c2576108c26129aa565b602090810291909101015183525b806002141561093b5761091189836060015183815181106108f3576108f36129aa565b602002602001015184604001518481518110610867576108676129aa565b6020850152608082015180518290811061092d5761092d6129aa565b602090810291909101015184525b8061094581612a6e565b91505061079c565b50929790965090945092505050565b60008061096c8560006029610c83565b84610985876072808a5161098091906129d6565b610c83565b856040516020016109999493929190612a89565b60405160208183030381529060405290506109b38161157e565b9150505b9392505050565b6040805160808101825260008082526020820181905291810182905260608101919091526040805180820182526000808252602080830182905283516080810185528281529081018290529283018190526060830152906040805180820190915260008082526020820152610a5b6040518060a0016040528060008152602001606081526020016060815260200160608152602001606081525090565b6004808252610a6d9087906000611125565b8083526020830191909152610a85908790600061121c565b845260408401526060830152608082015260005b6002811015610b655780610af957610ac187836060015183815181106107c4576107c46129aa565b6040870152606086015260208501526080820151805182908110610ae757610ae76129aa565b60209081029190910101518452610b53565b8060011415610b5357610b1f6108748884606001518481518110610849576108496129aa565b6001600160601b03191660208401526080820151805182908110610b4557610b456129aa565b602090810291909101015183525b80610b5d81612a6e565b915050610a99565b50919590945092505050565b600080805b6020811015610bdb57610b8a81601f6129d6565b610b95906008612ae0565b85610ba08684612aff565b81518110610bb057610bb06129aa565b0160200151610bc79160f89190911c901b83612aff565b915080610bd381612a6e565b915050610b76565b509392505050565b606081604051602001610bf891815260200190565b6040516020818303038152906040529050919050565b60606000805b601f811015610c7957610c2881601e6129d6565b610c33906008612ae0565b85610c3e8684612aff565b81518110610c4e57610c4e6129aa565b0160200151610c659160f89190911c901b83612aff565b915080610c7181612a6e565b915050610c14565b5061035a8161163d565b606081610c9181601f612aff565b1015610cd05760405162461bcd60e51b815260206004820152600e60248201526d736c6963655f6f766572666c6f7760901b604482015260640161043a565b610cda8284612aff565b84511015610d1e5760405162461bcd60e51b8152602060048201526011602482015270736c6963655f6f75744f66426f756e647360781b604482015260640161043a565b606082158015610d3d5760405191506000825260208201604052610d87565b6040519150601f8416801560200281840101858101878315602002848b0101015b81831015610d76578051835260209283019201610d5e565b5050858452601f01601f1916604052505b50949350505050565b6000806000848481518110610da757610da76129aa565b016020015160f81c9050610dbc600185612aff565b935060fd8160ff161015610dd75760ff169150829050610e4c565b8060ff1660fd1415610e0457610def858560106116b1565b610dfa856002612aff565b9250925050610e4c565b8060ff1660fe1415610e2757610e1c858560206116b1565b610dfa856004612aff565b8060ff1660ff1415610e4a57610e3f858560406116b1565b610dfa856008612aff565b505b9250929050565b60408051602080825281830190925260009182919060208201818036833701905050905060005b6020811015610eea57838160208110610e9557610e956129aa565b1a60f81b826001610ea78460206129d6565b610eb191906129d6565b81518110610ec157610ec16129aa565b60200101906001600160f81b031916908160001a90535080610ee281612a6e565b915050610e7a565b506109b781611a1d565b600080806401000003d019610f16607f600189901c166401000003d019612ae0565b860890506401000003d019811180610f3f575070014551231950b75fc4402da1732fc9bebe1984115b80610f5b575070014551231950b75fc4402da1732fc9bebe1985115b80610f64575083155b80610f6d575084155b80610f7b575060018660ff16115b15610f8d57600080925092505061111c565b6000610fab8670014551231950b75fc4402da1732fc9bebe19611a3a565b905060006401000003d0198060076401000003d01960008709086401000003d019808687098609089050610ffb816004610fec6401000003d0196001612aff565b610ff69190612b2d565b611b06565b9050600061100c60ff8a1683612aff565b611017906002612aff565b600116156110345761102f826401000003d0196129d6565b611036565b815b9050600080806110b970014551231950b75fc4402da1732fc9bebe1961106e8f70014551231950b75fc4402da1732fc9bebe196129d6565b88097f79be667ef9dcbbac55a06295ce870b07029bfcdb2dce28d959f2815b16f817987f483ada7726a3c4655da4fbfc0e1108a8fd17b448a68554199c47d08ffb10d4b86001611bae565b92509250925060008060006110f370014551231950b75fc4402da1732fc9bebe19806110e7576110e7612b17565b8e8b098b896001611bae565b92509250925060008061110a888888888888611c27565b909e509c505050505050505050505050505b94509492505050565b60606000806000806111378888610d90565b9750925085158061114757508286115b1561115457829150611158565b8591505b6000826001600160401b03811115611172576111726126b6565b60405190808252806020026020018201604052801561119b578160200160208202803683370190505b50905060005b8381101561120f576111b460248a612aff565b98506111c08a8a610d90565b809a508194505050828282815181106111db576111db6129aa565b60209081029190910101526111f1836004612aff565b6111fb908a612aff565b98508061120781612a6e565b9150506111a1565b5098969750505050505050565b60608060606000806000806112318a8a610d90565b9950925087158061124157508288115b1561124e57829150611252565b8791505b6000826001600160401b0381111561126c5761126c6126b6565b604051908082528060200260200182016040528015611295578160200160208202803683370190505b5090506000836001600160401b038111156112b2576112b26126b6565b6040519080825280602002602001820160405280156112db578160200160208202803683370190505b5090506000846001600160401b038111156112f8576112f86126b6565b604051908082528060200260200182016040528015611321578160200160208202803683370190505b50905060005b858110156113d25761133b8e8e60406116b1565b82828151811061134d5761134d6129aa565b602090810291909101015261136360088e612aff565b9c5061136f8e8e610d90565b809e5081965050508c84828151811061138a5761138a6129aa565b602002602001018181525050848382815181106113a9576113a96129aa565b60209081029190910101526113be858e612aff565b9c50806113ca81612a6e565b915050611327565b509c919b509998509650505050505050565b60008060006113f4868686611c9f565b156114365761140d86611408876003612aff565b610b71565b61141c87611408886028612aff565b61142b8861140889604c612aff565b925092509250611440565b5060009150819050805b93509350939050565b600061145684848461204c565b156114805761146f8461146a856003612aff565b6114ec565b6001600160601b03191690506109b7565b61148b848484612171565b1561149f5761146f8461146a856002612aff565b6114aa84848461222c565b156114c5576114be84611408856002612aff565b90506109b7565b6114d0848484611c9f565b156114e4576114be84611408856002612aff565b5060006109b7565b600080805b6014816001600160a01b031610156115735761150e816013612b4f565b611519906008612b77565b6001600160a01b03168585836001600160a01b03166115389190612aff565b81518110611548576115486129aa565b016020015161155f9160f89190911c901b83612ba6565b91508061156b81612bd1565b9150506114f1565b5060601b9392505050565b6000600280836040516115919190612bf8565b602060405180830381855afa1580156115ae573d6000803e3d6000fd5b5050506040513d601f19601f820116820180604052508101906115d19190612c14565b6040516020016115e391815260200190565b60408051601f19818403018152908290526115fd91612bf8565b602060405180830381855afa15801561161a573d6000803e3d6000fd5b5050506040513d601f19601f8201168201806040525081019061032f9190612c14565b60606001600160ff1b038211156116965760405162461bcd60e51b815260206004820152601760248201527f56616c75652065786365656473207468652072616e6765000000000000000000604482015260640161043a565b60405190506020815281602082015260408101604052919050565b600081600814156116dd578383815181106116ce576116ce6129aa565b016020015160f81c90506109b7565b816010141561173e57836116f2846001612aff565b81518110611702576117026129aa565b01602001516117169060f81c610100612c2d565b61ffff1684848151811061172c5761172c6129aa565b01602001516114be919060f81c612aff565b81602014156118245783611753846003612aff565b81518110611763576117636129aa565b01602001516117799060f81c6301000000612c4e565b63ffffffff168461178b856002612aff565b8151811061179b5761179b6129aa565b01602001516117b09060f81c62010000612c4e565b63ffffffff16856117c2866001612aff565b815181106117d2576117d26129aa565b01602001516117e69060f81c610100612c4e565b63ffffffff168686815181106117fe576117fe6129aa565b0160200151611810919060f81c612aff565b61181a9190612aff565b6114be9190612aff565b81604014156109b75783611839846007612aff565b81518110611849576118496129aa565b01602001516118639060f81c670100000000000000612c71565b6001600160401b031684611878856006612aff565b81518110611888576118886129aa565b01602001516118a19060f81c6601000000000000612c71565b6001600160401b0316856118b6866005612aff565b815181106118c6576118c66129aa565b01602001516118de9060f81c65010000000000612c71565b6001600160401b0316866118f3876004612aff565b81518110611903576119036129aa565b016020015161191a9060f81c640100000000612c71565b6001600160401b03168761192f886003612aff565b8151811061193f5761193f6129aa565b01602001516119559060f81c6301000000612c71565b6001600160401b03168861196a896002612aff565b8151811061197a5761197a6129aa565b016020015161198f9060f81c62010000612c71565b6001600160401b0316896119a48a6001612aff565b815181106119b4576119b46129aa565b01602001516119c89060f81c610100612c71565b6001600160401b03168a8a815181106119e3576119e36129aa565b01602001516119f5919060f81c612aff565b6119ff9190612aff565b611a099190612aff565b611a139190612aff565b6118109190612aff565b80516000908290611a315750600092915050565b50506020015190565b60008215801590611a4b5750818314155b8015611a5657508115155b611a935760405162461bcd60e51b815260206004820152600e60248201526d24b73b30b634b210373ab6b132b960911b604482015260640161043a565b6000600183825b8615611afb57611aaa8783612b2d565b9050828680611abb57611abb612b17565b8780611ac957611ac9612b17565b858409611ad690896129d6565b8608909450925086611ae88183612ae0565b611af290846129d6565b97509150611a9a565b509195945050505050565b600082611b155750600061032f565b81611b225750600161032f565b6001600160ff1b5b8015610bdb576401000003d0198185161515860a6401000003d0198485090991506401000003d0196002820485161515860a6401000003d0198485090991506401000003d0196004820485161515860a6401000003d0198485090991506401000003d0196008820485161515860a6401000003d01984850909915060109004611b2a565b6000808086611bc4575084915083905082611c1d565b8660008060015b8315611c14576001841615611bf057611be88383838d8d8d6122ad565b919450925090505b611bfb600285612b2d565b9350611c088a8a8a612542565b919b5099509750611bcb565b91955093509150505b9450945094915050565b6000806000806000878b1415611c6b576401000003d019878b08611c545760008094509450505050611c94565b611c5f8b8b8b612542565b91945092509050611c81565b611c798b8b8b8b8b8b6122ad565b919450925090505b611c8c838383612646565b945094505050505b965096945050505050565b6000816072148015611cdf575083611cb8846000612aff565b81518110611cc857611cc86129aa565b6020910101516001600160f81b031916603b60f91b145b8015611d19575083611cf2846001612aff565b81518110611d0257611d026129aa565b6020910101516001600160f81b031916602160f81b145b8015611d53575083611d2c846023612aff565b81518110611d3c57611d3c6129aa565b6020910101516001600160f81b031916602b60fa1b145b8015611d8d575083611d66846024612aff565b81518110611d7657611d766129aa565b6020910101516001600160f81b031916606360f81b145b8015611dc7575083611da0846025612aff565b81518110611db057611db06129aa565b6020910101516001600160f81b031916607560f81b145b8015611e01575083611dda846026612aff565b81518110611dea57611dea6129aa565b6020910101516001600160f81b031916605560f91b145b8015611e3b575083611e14846027612aff565b81518110611e2457611e246129aa565b6020910101516001600160f81b031916600160fd1b145b8015611e75575083611e4e846048612aff565b81518110611e5e57611e5e6129aa565b6020910101516001600160f81b031916601160fb1b145b8015611eaf575083611e88846049612aff565b81518110611e9857611e986129aa565b6020910101516001600160f81b031916606760f81b145b8015611ee9575083611ec284604a612aff565b81518110611ed257611ed26129aa565b6020910101516001600160f81b031916602160f81b145b8015611f23575083611efc84606c612aff565b81518110611f0c57611f0c6129aa565b6020910101516001600160f81b03191660ad60f81b145b8015611f5d575083611f3684606d612aff565b81518110611f4657611f466129aa565b6020910101516001600160f81b031916602960f91b145b8015611f97575083611f7084606e612aff565b81518110611f8057611f806129aa565b6020910101516001600160f81b031916605960f91b145b8015611fd1575083611faa84606f612aff565b81518110611fba57611fba6129aa565b6020910101516001600160f81b031916607560f81b145b801561200b575083611fe4846070612aff565b81518110611ff457611ff46129aa565b6020910101516001600160f81b031916600d60fb1b145b801561035a57508361201e846071612aff565b8151811061202e5761202e6129aa565b6020910101516001600160f81b031916605160f81b14949350505050565b6000816019148015612082575083838151811061206b5761206b6129aa565b6020910101516001600160f81b031916603b60f91b145b80156120bc575083612095846001612aff565b815181106120a5576120a56129aa565b6020910101516001600160f81b03191660a960f81b145b80156120f65750836120cf846002612aff565b815181106120df576120df6129aa565b6020910101516001600160f81b031916600560fa1b145b8015612130575083612109846017612aff565b81518110612119576121196129aa565b6020910101516001600160f81b031916601160fb1b145b801561035a575083612143846018612aff565b81518110612153576121536129aa565b6020910101516001600160f81b031916602b60fa1b14949350505050565b60008160171480156121b157508361218a846000612aff565b8151811061219a5761219a6129aa565b6020910101516001600160f81b03191660a960f81b145b80156121eb5750836121c4846001612aff565b815181106121d4576121d46129aa565b6020910101516001600160f81b031916600560fa1b145b801561035a5750836121fe846016612aff565b8151811061220e5761220e6129aa565b6020910101516001600160f81b031916608760f81b14949350505050565b600081602214801561226c575083612245846000612aff565b81518110612255576122556129aa565b6020910101516001600160f81b031916603560f91b145b801561035a57508361227f846001612aff565b8151811061228f5761228f6129aa565b6020910101516001600160f81b031916600160fd1b14949350505050565b60008080881580156122bd575087155b156122cf575084915083905082612536565b851580156122db575084155b156122ed575087915086905085612536565b6122f5612698565b6401000003d0198889098082526401000003d01990890960208201526401000003d019858009604082018190526401000003d0199086096060820152604080516080810182529082015181906401000003d019908d0981526020016401000003d01983600360200201518c0981526020016401000003d01983600060200201518a0981526020016401000003d019836001602002015189099052604081015181519192501415806123ae57506060810151602082015114155b6123fa5760405162461bcd60e51b815260206004820152601e60248201527f557365206a6163446f75626c652066756e6374696f6e20696e73746561640000604482015260640161043a565b612402612698565b81516401000003d0199061241690826129d6565b604084015108815260208201516401000003d0199061243590826129d6565b606084015108602082015280516401000003d0199080096040820181905281516401000003d0199109606082018190526000906401000003d0199061247a90826129d6565b60208401516401000003d01990800908604083015184519192506401000003d0199182918291096002096124b4906401000003d0196129d6565b8208905060006401000003d019806124d2846401000003d0196129d6565b604086015187516401000003d0199190090860208501510990506401000003d019808460036020020151866001602002015109612515906401000003d0196129d6565b8208905060006401000003d019808a8e098551099297509095509093505050505b96509650969350505050565b6000808083612558575084915083905082611440565b60006401000003d019878809905060006401000003d019878809905060006401000003d019878809905060006401000003d01980848c09600409905060006401000003d019806401000003d0198586096000096401000003d019876003090890506401000003d019808384086125d4906401000003d0196129d6565b6401000003d0198384090894506401000003d019806401000003d019868709600809612606906401000003d0196129d6565b6401000003d0198061261e896401000003d0196129d6565b860884090893506401000003d019808a8c09600209949b939a50939850919650505050505050565b600080600061265b846401000003d019611a3a565b905060006401000003d019828309905060006401000003d019828909905060006401000003d0198084860989099199919850909650505050505050565b60405180608001604052806004906020820280368337509192915050565b634e487b7160e01b600052604160045260246000fd5b600082601f8301126126dd57600080fd5b81356001600160401b03808211156126f7576126f76126b6565b604051601f8301601f19908116603f0116810190828211818310171561271f5761271f6126b6565b8160405283815286602085880101111561273857600080fd5b836020870160208301376000602085830101528094505050505092915050565b60006020828403121561276a57600080fd5b81356001600160401b0381111561278057600080fd5b61035a848285016126cc565b60005b838110156127a757818101518382015260200161278f565b838111156127b6576000848401525b50505050565b600081518084526127d481602086016020860161278c565b601f01601f19169290920160200192915050565b60ff8151168252600060208201516060602085015261280a60608501826127bc565b90506040830151848203604086015261282382826127bc565b95945050505050565b6020815260006109b760208301846127e8565b6000806000806080858703121561285557600080fd5b84359350602085013560ff8116811461286d57600080fd5b93969395505050506040820135916060013590565b6020815260006109b760208301846127bc565b6040815260006128a860408301856127bc565b82810360208401526109b381856127bc565b6040815260006128cd60408301856127e8565b82810360208401526109b381856127e8565b6000806000606084860312156128f457600080fd5b83356001600160401b038082111561290b57600080fd5b612917878388016126cc565b9450602086013591508082111561292d57600080fd5b612939878388016126cc565b9350604086013591508082111561294f57600080fd5b5061295c868287016126cc565b9150509250925092565b82518152602080840151818301526040808501519083015260608085015190830152825160808301528201516001600160601b03191660a082015260c081016109b7565b634e487b7160e01b600052603260045260246000fd5b634e487b7160e01b600052601160045260246000fd5b6000828210156129e8576129e86129c0565b500390565b805160208201516001600160e01b03198082169291906004831015612a1c5780818460040360031b1b83161693505b505050919050565b80516020808301519190811015612a45576000198160200360031b1b821691505b50919050565b600060ff821660ff841680821015612a6557612a656129c0565b90039392505050565b6000600019821415612a8257612a826129c0565b5060010190565b60008551612a9b818460208a0161278c565b855190830190612aaf818360208a0161278c565b8551910190612ac281836020890161278c565b8451910190612ad581836020880161278c565b019695505050505050565b6000816000190483118215151615612afa57612afa6129c0565b500290565b60008219821115612b1257612b126129c0565b500190565b634e487b7160e01b600052601260045260246000fd5b600082612b4a57634e487b7160e01b600052601260045260246000fd5b500490565b60006001600160a01b0383811690831681811015612b6f57612b6f6129c0565b039392505050565b60006001600160a01b0382811684821681151582840482111615612b9d57612b9d6129c0565b02949350505050565b60006001600160a01b03828116848216808303821115612bc857612bc86129c0565b01949350505050565b60006001600160a01b0382811680821415612bee57612bee6129c0565b6001019392505050565b60008251612c0a81846020870161278c565b9190910192915050565b600060208284031215612c2657600080fd5b5051919050565b600061ffff80831681851681830481118215151615612b9d57612b9d6129c0565b600063ffffffff80831681851681830481118215151615612b9d57612b9d6129c0565b60006001600160401b0380831681851681830481118215151615612b9d57612b9d6129c056fea26469706673582212202d77734b2e6eed5358459ba02131f2b57fb2b1f1e8ba329be874759e61aa54a064736f6c63430008090033",
  "linkReferences": {},
  "deployedLinkReferences": {}
}