{
  "_format": "hh-sol-artifact-1",
  "contractName": "ParseBitcoinRawTx",
  "sourceName": "contracts/ParseBitcoinRawTx.sol",
  "abi": [
    {
      "inputs": [
        {
          "internalType": "bytes",
          "name": "_txBytes",
          "type": "bytes"
        }
      ],
      "name": "getInputsData",
      "outputs": [
        {
          "components": [
            {
              "internalType": "uint256",
              "name": "number_of_inputs",
              "type": "uint256"
            },
            {
              "internalType": "bytes32",
              "name": "txid",
              "type": "bytes32"
            },
            {
              "internalType": "bytes4",
              "name": "inputIndex",
              "type": "bytes4"
            }
          ],
          "internalType": "struct ParseBitcoinRawTx.Input",
          "name": "",
          "type": "tuple"
        }
      ],
      "stateMutability": "view",
      "type": "function"
    },
    {
      "inputs": [
        {
          "internalType": "bytes",
          "name": "_txBytes",
          "type": "bytes"
        }
      ],
      "name": "getOutputsDataLN",
      "outputs": [
        {
          "components": [
            {
              "internalType": "uint256",
              "name": "value",
              "type": "uint256"
            },
            {
              "internalType": "bytes32",
              "name": "pk1",
              "type": "bytes32"
            },
            {
              "internalType": "bytes32",
              "name": "pk2",
              "type": "bytes32"
            },
            {
              "internalType": "bytes32",
              "name": "rev_secret",
              "type": "bytes32"
            }
          ],
          "internalType": "struct ParseBitcoinRawTx.LightningHTLCData",
          "name": "",
          "type": "tuple"
        },
        {
          "components": [
            {
              "internalType": "uint256",
              "name": "value",
              "type": "uint256"
            },
            {
              "internalType": "bytes20",
              "name": "pkhash",
              "type": "bytes20"
            }
          ],
          "internalType": "struct ParseBitcoinRawTx.P2PKHData",
          "name": "",
          "type": "tuple"
        }
      ],
      "stateMutability": "view",
      "type": "function"
    },
    {
      "inputs": [
        {
          "internalType": "bytes",
          "name": "_txBytes",
          "type": "bytes"
        }
      ],
      "name": "getOutputsDataLNB",
      "outputs": [
        {
          "components": [
            {
              "internalType": "uint256",
              "name": "value",
              "type": "uint256"
            },
            {
              "internalType": "bytes32",
              "name": "pk1",
              "type": "bytes32"
            },
            {
              "internalType": "bytes32",
              "name": "pk2",
              "type": "bytes32"
            },
            {
              "internalType": "bytes32",
              "name": "rev_secret",
              "type": "bytes32"
            }
          ],
          "internalType": "struct ParseBitcoinRawTx.LightningHTLCData",
          "name": "",
          "type": "tuple"
        },
        {
          "components": [
            {
              "internalType": "uint256",
              "name": "value",
              "type": "uint256"
            },
            {
              "internalType": "bytes20",
              "name": "pkhash",
              "type": "bytes20"
            }
          ],
          "internalType": "struct ParseBitcoinRawTx.P2PKHData",
          "name": "",
          "type": "tuple"
        },
        {
          "components": [
            {
              "internalType": "uint256",
              "name": "value",
              "type": "uint256"
            },
            {
              "internalType": "bytes32",
              "name": "data",
              "type": "bytes32"
            }
          ],
          "internalType": "struct ParseBitcoinRawTx.OpReturnData",
          "name": "",
          "type": "tuple"
        }
      ],
      "stateMutability": "view",
      "type": "function"
    },
    {
      "inputs": [
        {
          "internalType": "bytes",
          "name": "_txBytes",
          "type": "bytes"
        }
      ],
      "name": "getSignature",
      "outputs": [
        {
          "components": [
            {
              "internalType": "uint8",
              "name": "v",
              "type": "uint8"
            },
            {
              "internalType": "bytes",
              "name": "r",
              "type": "bytes"
            },
            {
              "internalType": "bytes",
              "name": "s",
              "type": "bytes"
            }
          ],
          "internalType": "struct ParseBitcoinRawTx.Signature",
          "name": "",
          "type": "tuple"
        }
      ],
      "stateMutability": "view",
      "type": "function"
    },
    {
      "inputs": [
        {
          "internalType": "bytes",
          "name": "_txBytes",
          "type": "bytes"
        }
      ],
      "name": "getSignatures",
      "outputs": [
        {
          "components": [
            {
              "internalType": "uint8",
              "name": "v",
              "type": "uint8"
            },
            {
              "internalType": "bytes",
              "name": "r",
              "type": "bytes"
            },
            {
              "internalType": "bytes",
              "name": "s",
              "type": "bytes"
            }
          ],
          "internalType": "struct ParseBitcoinRawTx.Signature",
          "name": "",
          "type": "tuple"
        },
        {
          "components": [
            {
              "internalType": "uint8",
              "name": "v",
              "type": "uint8"
            },
            {
              "internalType": "bytes",
              "name": "r",
              "type": "bytes"
            },
            {
              "internalType": "bytes",
              "name": "s",
              "type": "bytes"
            }
          ],
          "internalType": "struct ParseBitcoinRawTx.Signature",
          "name": "",
          "type": "tuple"
        }
      ],
      "stateMutability": "view",
      "type": "function"
    },
    {
      "inputs": [
        {
          "internalType": "bytes",
          "name": "_txBytes",
          "type": "bytes"
        }
      ],
      "name": "getTimelock",
      "outputs": [
        {
          "internalType": "bytes4",
          "name": "",
          "type": "bytes4"
        }
      ],
      "stateMutability": "view",
      "type": "function"
    },
    {
      "inputs": [
        {
          "internalType": "bytes",
          "name": "_txBytes",
          "type": "bytes"
        },
        {
          "internalType": "bytes",
          "name": "fundingTxLockingScript",
          "type": "bytes"
        },
        {
          "internalType": "bytes",
          "name": "sighash",
          "type": "bytes"
        }
      ],
      "name": "getTxDigest",
      "outputs": [
        {
          "internalType": "bytes32",
          "name": "",
          "type": "bytes32"
        }
      ],
      "stateMutability": "view",
      "type": "function"
    },
    {
      "inputs": [
        {
          "internalType": "uint256",
          "name": "digest",
          "type": "uint256"
        },
        {
          "internalType": "uint8",
          "name": "v",
          "type": "uint8"
        },
        {
          "internalType": "uint256",
          "name": "r",
          "type": "uint256"
        },
        {
          "internalType": "uint256",
          "name": "s",
          "type": "uint256"
        }
      ],
      "name": "verifyBTCSignature",
      "outputs": [
        {
          "internalType": "bytes",
          "name": "",
          "type": "bytes"
        }
      ],
      "stateMutability": "view",
      "type": "function"
    }
  ],
  "bytecode": "0x608060405234801561001057600080fd5b50614e27806100206000396000f3fe608060405234801561001057600080fd5b50600436106100885760003560e01c80636b45b4e31161005b5780636b45b4e31461014d57806393e309e11461017e5780639bfc9002146101b0578063d74f6ae2146101e057610088565b80631ed113ae1461008d57806336946480146100bd5780634f500ea9146100ed5780635933bf611461011d575b600080fd5b6100a760048036038101906100a29190613f01565b610211565b6040516100b4919061403c565b60405180910390f35b6100d760048036038101906100d29190613f01565b610323565b6040516100e49190614099565b60405180910390f35b61010760048036038101906101029190613f01565b610359565b6040516101149190614137565b60405180910390f35b610137600480360381019061013291906141aa565b610454565b604051610144919061425b565b60405180910390f35b61016760048036038101906101629190613f01565b6104a3565b60405161017592919061427d565b60405180910390f35b61019860048036038101906101939190613f01565b6106c2565b6040516101a7939291906143a2565b60405180910390f35b6101ca60048036038101906101c591906143da565b610969565b6040516101d79190614490565b60405180910390f35b6101fa60048036038101906101f59190613f01565b6109dc565b6040516102089291906144ab565b60405180910390f35b610219613c78565b610221613c78565b601b816000019060ff16908160ff1681525050610247610242846051610bf1565b610c7c565b8160400181905250604760f81b83602a81518110610268576102676144d4565b5b602001015160f81c60f81b7effffffffffffffffffffffffffffffffffffffffffffffffffffffffffffff1916036102ba576102ad6102a884602f610bf1565b610c7c565b816020018190525061031a565b604660f81b83602a815181106102d3576102d26144d4565b5b602001015160f81c60f81b7effffffffffffffffffffffffffffffffffffffffffffffffffffffffffffff1916036103195761031083602f610ca5565b81602001819052505b5b80915050919050565b6000808251905060006103448460048461033d9190614532565b6004610d31565b61034d90614598565b90508092505050919050565b610361613c9c565b610369613c9c565b610374836004610e4f565b5081600001818152505061038b8360256004610d31565b61039490614598565b81604001907bffffffffffffffffffffffffffffffffffffffffffffffffffffffff191690817bffffffffffffffffffffffffffffffffffffffffffffffffffffffff1916815250506103fb6103ed8460056025610d31565b6103f690614614565b610f37565b816020018181525050600181600001511461044b576040517f08c379a0000000000000000000000000000000000000000000000000000000008152600401610442906146d8565b60405180910390fd5b80915050919050565b606060008061047187601b8861046a91906146f8565b8787611035565b91509150818160405160200161048892919061474e565b60405160208183030381529060405292505050949350505050565b6104ab613c78565b6104b3613c78565b6104bb613c78565b6104c3613c78565b601b816000019060ff16908160ff16815250506104e96104e4866051610bf1565b610c7c565b8160400181905250604760f81b85602a8151811061050a576105096144d4565b5b602001015160f81c60f81b7effffffffffffffffffffffffffffffffffffffffffffffffffffffffffffff19160361055c5761054f61054a86602f610bf1565b610c7c565b81602001819052506105bc565b604660f81b85602a81518110610575576105746144d4565b5b602001015160f81c60f81b7effffffffffffffffffffffffffffffffffffffffffffffffffffffffffffff1916036105bb576105b285602f610ca5565b81602001819052505b5b601b826000019060ff16908160ff16815250506105e26105dd866098610bf1565b610c7c565b8260400181905250604760f81b85607281518110610603576106026144d4565b5b602001015160f81c60f81b7effffffffffffffffffffffffffffffffffffffffffffffffffffffffffffff19160361065557610648610643866077610bf1565b610c7c565b82602001819052506106b5565b604660f81b8560728151811061066e5761066d6144d4565b5b602001015160f81c60f81b7effffffffffffffffffffffffffffffffffffffffffffffffffffffffffffff1916036106b4576106ab856077610ca5565b82602001819052505b5b8181935093505050915091565b6106ca613cdf565b6106d2613d10565b6106da613d39565b6106e2613cdf565b6106ea613d39565b6106f2613d10565b6106fa613d56565b60048160000181815250506107158882600001516000611447565b82602001836000018281525082905250506107368882600001516000611559565b84608001856060018660400187600001848152508490528490528490525050505060005b600381101561095457600081036107f6576107b28983606001518381518110610786576107856144d4565b5b6020026020010151846040015184815181106107a5576107a46144d4565b5b6020026020010151611750565b876020018860600189604001838152508381525083815250505050816080015181815181106107e4576107e36144d4565b5b60200260200101518560000181815250505b600181036108c05761086e6108488a8460600151848151811061081c5761081b6144d4565b5b60200260200101518560400151858151811061083b5761083a6144d4565b5b60200260200101516117ce565b604051602001610858919061479b565b60405160208183030381529060405260006118b0565b83602001906bffffffffffffffffffffffff191690816bffffffffffffffffffffffff191681525050816080015181815181106108ae576108ad6144d4565b5b60200260200101518360000181815250505b600281036109415761090f89836060015183815181106108e3576108e26144d4565b5b602002602001015184604001518481518110610902576109016144d4565b5b60200260200101516117ce565b8460200181815250508160800151818151811061092f5761092e6144d4565b5b60200260200101518460000181815250505b808061094c906147b6565b91505061075a565b50838284965096509650505050509193909250565b6000806109798560006029610d31565b905060006109958660728089516109909190614532565b610d31565b90506000828683876040516020016109b0949392919061483a565b604051602081830303815290604052905060006109cc82611993565b9050809450505050509392505050565b6109e4613cdf565b6109ec613d10565b6109f4613cdf565b6109fc613d10565b610a04613d56565b6004816000018181525050610a1f8682600001516000611447565b8260200183600001828152508290525050610a408682600001516000611559565b84608001856060018660400187600001848152508490528490528490525050505060005b6002811015610be25760008103610b0457610abc8783606001518381518110610a9057610a8f6144d4565b5b602002602001015184604001518481518110610aaf57610aae6144d4565b5b6020026020010151611750565b86602001876060018860400183815250838152508381525050505081608001518181518110610aee57610aed6144d4565b5b6020026020010151846000018181525050610bcf565b60018103610bce57610b7c610b568884606001518481518110610b2a57610b296144d4565b5b602002602001015185604001518581518110610b4957610b486144d4565b5b60200260200101516117ce565b604051602001610b66919061479b565b60405160208183030381529060405260006118b0565b83602001906bffffffffffffffffffffffff191690816bffffffffffffffffffffffff19168152505081608001518181518110610bbc57610bbb6144d4565b5b60200260200101518360000181815250505b5b8080610bda906147b6565b915050610a64565b50828294509450505050915091565b6000806000905060005b6020811015610c6e5780601f610c119190614532565b6008610c1d9190614878565b858583610c2a91906148ba565b81518110610c3b57610c3a6144d4565b5b602001015160f81c60f81b60f81c60ff16901b82610c5991906148ba565b91508080610c66906147b6565b915050610bfb565b508060001b91505092915050565b606081604051602001610c8f919061479b565b6040516020818303038152906040529050919050565b60606000805b601f811015610d1e5780601e610cc19190614532565b6008610ccd9190614878565b858583610cda91906148ba565b81518110610ceb57610cea6144d4565b5b602001015160f81c60f81b60f81c60ff16901b82610d0991906148ba565b91508080610d16906147b6565b915050610cab565b50610d2881611a59565b91505092915050565b606081601f83610d4191906148ba565b1015610d82576040517f08c379a0000000000000000000000000000000000000000000000000000000008152600401610d799061493a565b60405180910390fd5b8183610d8e91906148ba565b84511015610dd1576040517f08c379a0000000000000000000000000000000000000000000000000000000008152600401610dc8906149a6565b60405180910390fd5b6060821560008114610df25760405191506000825260208201604052610e43565b6040519150601f8416801560200281840101858101878315602002848b0101015b81831015610e305780518352602083019250602081019050610e13565b50868552601f19601f8301166040525050505b50809150509392505050565b6000806000848481518110610e6757610e666144d4565b5b602001015160f81c60f81b60f81c9050600184610e8491906148ba565b935060fd8160ff161015610ea45780848160ff1691509250925050610f30565b60fd8160ff1603610ed257610ebb85856010611ad9565b600285610ec891906148ba565b9250925050610f30565b60fe8160ff1603610f0057610ee985856020611ad9565b600485610ef691906148ba565b9250925050610f30565b60ff8160ff1603610f2e57610f1785856040611ad9565b600885610f2491906148ba565b9250925050610f30565b505b9250929050565b600080602060ff1667ffffffffffffffff811115610f5857610f57613dd6565b5b6040519080825280601f01601f191660200182016040528015610f8a5781602001600182028036833780820191505090505b50905060005b602060ff1681101561102357838160208110610faf57610fae6144d4565b5b1a60f81b82600183602060ff16610fc69190614532565b610fd09190614532565b81518110610fe157610fe06144d4565b5b60200101907effffffffffffffffffffffffffffffffffffffffffffffffffffffffffffff1916908160001a905350808061101b906147b6565b915050610f90565b5061102d81611f44565b915050919050565b60008060007ffffffffffffffffffffffffffffffffffffffffffffffffffffffffefffffc2f80611069576110686149c6565b5b60018760ff16901c60ff167ffffffffffffffffffffffffffffffffffffffffffffffffffffffffefffffc2f61109f9190614878565b860890507ffffffffffffffffffffffffffffffffffffffffffffffffffffffffefffffc2f8111806110f057507ffffffffffffffffffffffffffffffffebaaedce6af48a03bbfd25e8cd036414184115b8061111a57507ffffffffffffffffffffffffffffffffebaaedce6af48a03bbfd25e8cd036414185115b806111255750600084145b806111305750600085145b8061113e575060018660ff16115b1561115057600080925092505061143e565b600061117c867ffffffffffffffffffffffffffffffffebaaedce6af48a03bbfd25e8cd0364141611f6d565b905060007ffffffffffffffffffffffffffffffffffffffffffffffffffffffffefffffc2f806111af576111ae6149c6565b5b7ffffffffffffffffffffffffffffffffffffffffffffffffffffffffefffffc2f806111de576111dd6149c6565b5b60077ffffffffffffffffffffffffffffffffffffffffffffffffffffffffefffffc2f8061120f5761120e6149c6565b5b60008709087ffffffffffffffffffffffffffffffffffffffffffffffffffffffffefffffc2f80611243576112426149c6565b5b7ffffffffffffffffffffffffffffffffffffffffffffffffffffffffefffffc2f80611272576112716149c6565b5b86870986090890506112bc81600460017ffffffffffffffffffffffffffffffffffffffffffffffffffffffffefffffc2f6112ad91906148ba565b6112b791906149f5565b612059565b9050600080600160028b60ff16856112d491906148ba565b6112de91906148ba565b161461131557817ffffffffffffffffffffffffffffffffffffffffffffffffffffffffefffffc2f6113109190614532565b611317565b815b905060008060006113c77ffffffffffffffffffffffffffffffffebaaedce6af48a03bbfd25e8cd0364141806113505761134f6149c6565b5b8e7ffffffffffffffffffffffffffffffffebaaedce6af48a03bbfd25e8cd036414161137c9190614532565b88097f79be667ef9dcbbac55a06295ce870b07029bfcdb2dce28d959f2815b16f817987f483ada7726a3c4655da4fbfc0e1108a8fd17b448a68554199c47d08ffb10d4b8600161220d565b92509250925060008060006114107ffffffffffffffffffffffffffffffffebaaedce6af48a03bbfd25e8cd036414180611404576114036149c6565b5b8e8b098b89600161220d565b9250925092506000806114278888888888886122a7565b9150915081819d509d505050505050505050505050505b94509492505050565b60606000806000806114598888610e4f565b8098508194505050600086148061146f57508286115b1561147c57829150611480565b8591505b60008267ffffffffffffffff81111561149c5761149b613dd6565b5b6040519080825280602002602001820160405280156114ca5781602001602082028036833780820191505090505b50905060005b83811015611546576024896114e591906148ba565b98506114f18a8a610e4f565b809a5081945050508282828151811061150d5761150c6144d4565b5b60200260200101818152505060048361152691906148ba565b8961153191906148ba565b9850808061153e906147b6565b9150506114d0565b5080889550955050505050935093915050565b606080606060008060008061156e8a8a610e4f565b809a508194505050600088148061158457508288115b1561159157829150611595565b8791505b60008267ffffffffffffffff8111156115b1576115b0613dd6565b5b6040519080825280602002602001820160405280156115df5781602001602082028036833780820191505090505b50905060008367ffffffffffffffff8111156115fe576115fd613dd6565b5b60405190808252806020026020018201604052801561162c5781602001602082028036833780820191505090505b50905060008467ffffffffffffffff81111561164b5761164a613dd6565b5b6040519080825280602002602001820160405280156116795781602001602082028036833780820191505090505b50905060005b85811015611734576116938e8e6040611ad9565b8282815181106116a6576116a56144d4565b5b60200260200101818152505060088d6116bf91906148ba565b9c506116cb8e8e610e4f565b809e5081965050508c8482815181106116e7576116e66144d4565b5b60200260200101818152505084838281518110611707576117066144d4565b5b602002602001018181525050848d61171f91906148ba565b9c50808061172c906147b6565b91505061167f565b508083838e995099509950995050505050505093509350935093565b6000806000611760868686612353565b156117b25761177b8660038761177691906148ba565b610bf1565b6117918760288861178c91906148ba565b610bf1565b6117a788604c896117a291906148ba565b610bf1565b9250925092506117c5565b6000801b6000801b6000801b9250925092505b93509350939050565b60006117db848484612902565b1561180c576117f6846003856117f191906148ba565b6118b0565b6bffffffffffffffffffffffff191690506118a9565b611817848484612ac7565b15611848576118328460028561182d91906148ba565b6118b0565b6bffffffffffffffffffffffff191690506118a9565b611853848484612be4565b156118755761186e8460028561186991906148ba565b610bf1565b90506118a9565b611880848484612353565b156118a25761189b8460028561189691906148ba565b610bf1565b90506118a9565b6000801b90505b9392505050565b6000806000905060005b60148173ffffffffffffffffffffffffffffffffffffffff161015611985578060136118e69190614a46565b60086118f29190614a8e565b73ffffffffffffffffffffffffffffffffffffffff1685858373ffffffffffffffffffffffffffffffffffffffff1661192b91906148ba565b8151811061193c5761193b6144d4565b5b602001015160f81c60f81b60f81c60ff1673ffffffffffffffffffffffffffffffffffffffff16901b826119709190614ad0565b9150808061197d90614b18565b9150506118ba565b508060601b91505092915050565b6000600280836040516119a69190614b54565b602060405180830381855afa1580156119c3573d6000803e3d6000fd5b5050506040513d601f19601f820116820180604052508101906119e69190614b97565b6040516020016119f6919061479b565b604051602081830303815290604052604051611a129190614b54565b602060405180830381855afa158015611a2f573d6000803e3d6000fd5b5050506040513d601f19601f82011682018060405250810190611a529190614b97565b9050919050565b60607f7fffffffffffffffffffffffffffffffffffffffffffffffffffffffffffffff821115611abe576040517f08c379a0000000000000000000000000000000000000000000000000000000008152600401611ab590614c10565b60405180910390fd5b60405190506020815281602082015260408101604052919050565b600060088203611b0e57838381518110611af657611af56144d4565b5b602001015160f81c60f81b60f81c60ff169050611f3d565b60108203611b905761010084600185611b2791906148ba565b81518110611b3857611b376144d4565b5b602001015160f81c60f81b60f81c60ff16611b539190614c3e565b61ffff16848481518110611b6a57611b696144d4565b5b602001015160f81c60f81b60f81c60ff1661ffff16611b8991906148ba565b9050611f3d565b60208203611cb357630100000084600385611bab91906148ba565b81518110611bbc57611bbb6144d4565b5b602001015160f81c60f81b60f81c60ff16611bd79190614c8b565b63ffffffff166201000085600286611bef91906148ba565b81518110611c0057611bff6144d4565b5b602001015160f81c60f81b60f81c60ff16611c1b9190614c8b565b63ffffffff1661010086600187611c3291906148ba565b81518110611c4357611c426144d4565b5b602001015160f81c60f81b60f81c60ff16611c5e9190614c8b565b63ffffffff16868681518110611c7757611c766144d4565b5b602001015160f81c60f81b60f81c60ff1663ffffffff16611c9891906148ba565b611ca291906148ba565b611cac91906148ba565b9050611f3d565b60408203611f3c5767010000000000000084600785611cd291906148ba565b81518110611ce357611ce26144d4565b5b602001015160f81c60f81b60f81c60ff16611cfe9190614cdc565b67ffffffffffffffff16660100000000000085600686611d1e91906148ba565b81518110611d2f57611d2e6144d4565b5b602001015160f81c60f81b60f81c60ff16611d4a9190614cdc565b67ffffffffffffffff166501000000000086600587611d6991906148ba565b81518110611d7a57611d796144d4565b5b602001015160f81c60f81b60f81c60ff16611d959190614cdc565b67ffffffffffffffff1664010000000087600488611db391906148ba565b81518110611dc457611dc36144d4565b5b602001015160f81c60f81b60f81c60ff16611ddf9190614cdc565b67ffffffffffffffff16630100000088600389611dfc91906148ba565b81518110611e0d57611e0c6144d4565b5b602001015160f81c60f81b60f81c60ff16611e289190614cdc565b67ffffffffffffffff16620100008960028a611e4491906148ba565b81518110611e5557611e546144d4565b5b602001015160f81c60f81b60f81c60ff16611e709190614cdc565b67ffffffffffffffff166101008a60018b611e8b91906148ba565b81518110611e9c57611e9b6144d4565b5b602001015160f81c60f81b60f81c60ff16611eb79190614cdc565b67ffffffffffffffff168a8a81518110611ed457611ed36144d4565b5b602001015160f81c60f81b60f81c60ff1667ffffffffffffffff16611ef991906148ba565b611f0391906148ba565b611f0d91906148ba565b611f1791906148ba565b611f2191906148ba565b611f2b91906148ba565b611f3591906148ba565b9050611f3d565b5b9392505050565b6000808290506000815103611f5f576000801b915050611f68565b60208301519150505b919050565b6000808314158015611f7f5750818314155b8015611f8c575060008214155b611fcb576040517f08c379a0000000000000000000000000000000000000000000000000000000008152600401611fc290614d65565b60405180910390fd5b60008060019050600084905060005b6000871461204c578682611fee91906149f5565b905082868061200057611fff6149c6565b5b878061200f5761200e6149c6565b5b8584098861201d9190614532565b860880945081955050508687826120349190614878565b8361203f9190614532565b8098508193505050611fda565b8394505050505092915050565b600080830361206b5760009050612207565b6000820361207c5760019050612207565b60006001905060007f800000000000000000000000000000000000000000000000000000000000000090505b6000811115612201577ffffffffffffffffffffffffffffffffffffffffffffffffffffffffefffffc2f8185161515860a7ffffffffffffffffffffffffffffffffffffffffffffffffffffffffefffffc2f8485090991507ffffffffffffffffffffffffffffffffffffffffffffffffffffffffefffffc2f6002820485161515860a7ffffffffffffffffffffffffffffffffffffffffffffffffffffffffefffffc2f8485090991507ffffffffffffffffffffffffffffffffffffffffffffffffffffffffefffffc2f6004820485161515860a7ffffffffffffffffffffffffffffffffffffffffffffffffffffffffefffffc2f8485090991507ffffffffffffffffffffffffffffffffffffffffffffffffffffffffefffffc2f6008820485161515860a7ffffffffffffffffffffffffffffffffffffffffffffffffffffffffefffffc2f8485090991506010810490506120a8565b81925050505b92915050565b60008060008087036122275785858592509250925061229d565b60008790506000806000600190505b6000841461228f5760006001851614612264576122578383838d8d8d612ca7565b8093508194508295505050505b60028461227191906149f5565b935061227e8a8a8a6136e5565b809a50819b50829c50505050612236565b828282965096509650505050505b9450945094915050565b6000806000806000878b0361231a5760007ffffffffffffffffffffffffffffffffffffffffffffffffffffffffefffffc2f806122e7576122e66149c6565b5b888c08036122fe5760008094509450505050612348565b6123098b8b8b6136e5565b809350819450829550505050612335565b6123288b8b8b8b8b8b612ca7565b8093508194508295505050505b612340838383613b62565b945094505050505b965096945050505050565b60006072821480156123b35750607660f81b8460008561237391906148ba565b81518110612384576123836144d4565b5b602001015160f81c60f81b7effffffffffffffffffffffffffffffffffffffffffffffffffffffffffffff1916145b801561240d5750602160f81b846001856123cd91906148ba565b815181106123de576123dd6144d4565b5b602001015160f81c60f81b7effffffffffffffffffffffffffffffffffffffffffffffffffffffffffffff1916145b8015612467575060ac60f81b8460238561242791906148ba565b81518110612438576124376144d4565b5b602001015160f81c60f81b7effffffffffffffffffffffffffffffffffffffffffffffffffffffffffffff1916145b80156124c15750606360f81b8460248561248191906148ba565b81518110612492576124916144d4565b5b602001015160f81c60f81b7effffffffffffffffffffffffffffffffffffffffffffffffffffffffffffff1916145b801561251b5750607560f81b846025856124db91906148ba565b815181106124ec576124eb6144d4565b5b602001015160f81c60f81b7effffffffffffffffffffffffffffffffffffffffffffffffffffffffffffff1916145b8015612575575060aa60f81b8460268561253591906148ba565b81518110612546576125456144d4565b5b602001015160f81c60f81b7effffffffffffffffffffffffffffffffffffffffffffffffffffffffffffff1916145b80156125cf5750602060f81b8460278561258f91906148ba565b815181106125a05761259f6144d4565b5b602001015160f81c60f81b7effffffffffffffffffffffffffffffffffffffffffffffffffffffffffffff1916145b80156126295750608860f81b846048856125e991906148ba565b815181106125fa576125f96144d4565b5b602001015160f81c60f81b7effffffffffffffffffffffffffffffffffffffffffffffffffffffffffffff1916145b80156126835750606760f81b8460498561264391906148ba565b81518110612654576126536144d4565b5b602001015160f81c60f81b7effffffffffffffffffffffffffffffffffffffffffffffffffffffffffffff1916145b80156126dd5750602160f81b84604a8561269d91906148ba565b815181106126ae576126ad6144d4565b5b602001015160f81c60f81b7effffffffffffffffffffffffffffffffffffffffffffffffffffffffffffff1916145b8015612737575060ad60f81b84606c856126f791906148ba565b81518110612708576127076144d4565b5b602001015160f81c60f81b7effffffffffffffffffffffffffffffffffffffffffffffffffffffffffffff1916145b80156127915750605260f81b84606d8561275191906148ba565b81518110612762576127616144d4565b5b602001015160f81c60f81b7effffffffffffffffffffffffffffffffffffffffffffffffffffffffffffff1916145b80156127eb575060b260f81b84606e856127ab91906148ba565b815181106127bc576127bb6144d4565b5b602001015160f81c60f81b7effffffffffffffffffffffffffffffffffffffffffffffffffffffffffffff1916145b80156128455750607560f81b84606f8561280591906148ba565b81518110612816576128156144d4565b5b602001015160f81c60f81b7effffffffffffffffffffffffffffffffffffffffffffffffffffffffffffff1916145b801561289f5750606860f81b8460708561285f91906148ba565b815181106128705761286f6144d4565b5b602001015160f81c60f81b7effffffffffffffffffffffffffffffffffffffffffffffffffffffffffffff1916145b80156128f95750605160f81b846071856128b991906148ba565b815181106128ca576128c96144d4565b5b602001015160f81c60f81b7effffffffffffffffffffffffffffffffffffffffffffffffffffffffffffff1916145b90509392505050565b60006019821480156129565750607660f81b848481518110612927576129266144d4565b5b602001015160f81c60f81b7effffffffffffffffffffffffffffffffffffffffffffffffffffffffffffff1916145b80156129b0575060a960f81b8460018561297091906148ba565b81518110612981576129806144d4565b5b602001015160f81c60f81b7effffffffffffffffffffffffffffffffffffffffffffffffffffffffffffff1916145b8015612a0a5750601460f81b846002856129ca91906148ba565b815181106129db576129da6144d4565b5b602001015160f81c60f81b7effffffffffffffffffffffffffffffffffffffffffffffffffffffffffffff1916145b8015612a645750608860f81b84601785612a2491906148ba565b81518110612a3557612a346144d4565b5b602001015160f81c60f81b7effffffffffffffffffffffffffffffffffffffffffffffffffffffffffffff1916145b8015612abe575060ac60f81b84601885612a7e91906148ba565b81518110612a8f57612a8e6144d4565b5b602001015160f81c60f81b7effffffffffffffffffffffffffffffffffffffffffffffffffffffffffffff1916145b90509392505050565b6000601782148015612b27575060a960f81b84600085612ae791906148ba565b81518110612af857612af76144d4565b5b602001015160f81c60f81b7effffffffffffffffffffffffffffffffffffffffffffffffffffffffffffff1916145b8015612b815750601460f81b84600185612b4191906148ba565b81518110612b5257612b516144d4565b5b602001015160f81c60f81b7effffffffffffffffffffffffffffffffffffffffffffffffffffffffffffff1916145b8015612bdb5750608760f81b84601685612b9b91906148ba565b81518110612bac57612bab6144d4565b5b602001015160f81c60f81b7effffffffffffffffffffffffffffffffffffffffffffffffffffffffffffff1916145b90509392505050565b6000602282148015612c445750606a60f81b84600085612c0491906148ba565b81518110612c1557612c146144d4565b5b602001015160f81c60f81b7effffffffffffffffffffffffffffffffffffffffffffffffffffffffffffff1916145b8015612c9e5750602060f81b84600185612c5e91906148ba565b81518110612c6f57612c6e6144d4565b5b602001015160f81c60f81b7effffffffffffffffffffffffffffffffffffffffffffffffffffffffffffff1916145b90509392505050565b60008060008089148015612cbb5750600088145b15612cce578585859250925092506136d9565b600086148015612cde5750600085145b15612cf1578888889250925092506136d9565b612cf9613d85565b7ffffffffffffffffffffffffffffffffffffffffffffffffffffffffefffffc2f80612d2857612d276149c6565b5b88890981600060048110612d3f57612d3e6144d4565b5b6020020181815250507ffffffffffffffffffffffffffffffffffffffffffffffffffffffffefffffc2f80612d7757612d766149c6565b5b81600060048110612d8b57612d8a6144d4565b5b6020020151890981600160048110612da657612da56144d4565b5b6020020181815250507ffffffffffffffffffffffffffffffffffffffffffffffffffffffffefffffc2f80612dde57612ddd6149c6565b5b85860981600260048110612df557612df46144d4565b5b6020020181815250507ffffffffffffffffffffffffffffffffffffffffffffffffffffffffefffffc2f80612e2d57612e2c6149c6565b5b81600260048110612e4157612e406144d4565b5b6020020151860981600360048110612e5c57612e5b6144d4565b5b60200201818152505060405180608001604052807ffffffffffffffffffffffffffffffffffffffffffffffffffffffffefffffc2f80612e9f57612e9e6149c6565b5b83600260048110612eb357612eb26144d4565b5b60200201518d0981526020017ffffffffffffffffffffffffffffffffffffffffffffffffffffffffefffffc2f80612eee57612eed6149c6565b5b83600360048110612f0257612f016144d4565b5b60200201518c0981526020017ffffffffffffffffffffffffffffffffffffffffffffffffffffffffefffffc2f80612f3d57612f3c6149c6565b5b83600060048110612f5157612f506144d4565b5b60200201518a0981526020017ffffffffffffffffffffffffffffffffffffffffffffffffffffffffefffffc2f80612f8c57612f8b6149c6565b5b83600160048110612fa057612f9f6144d4565b5b60200201518909815250905080600260048110612fc057612fbf6144d4565b5b602002015181600060048110612fd957612fd86144d4565b5b602002015114158061301b575080600360048110612ffa57612ff96144d4565b5b602002015181600160048110613013576130126144d4565b5b602002015114155b61305a576040517f08c379a000000000000000000000000000000000000000000000000000000000815260040161305190614dd1565b60405180910390fd5b613062613d85565b7ffffffffffffffffffffffffffffffffffffffffffffffffffffffffefffffc2f80613091576130906149c6565b5b826000600481106130a5576130a46144d4565b5b60200201517ffffffffffffffffffffffffffffffffffffffffffffffffffffffffefffffc2f6130d59190614532565b836002600481106130e9576130e86144d4565b5b60200201510881600060048110613103576131026144d4565b5b6020020181815250507ffffffffffffffffffffffffffffffffffffffffffffffffffffffffefffffc2f8061313b5761313a6149c6565b5b8260016004811061314f5761314e6144d4565b5b60200201517ffffffffffffffffffffffffffffffffffffffffffffffffffffffffefffffc2f61317f9190614532565b83600360048110613193576131926144d4565b5b602002015108816001600481106131ad576131ac6144d4565b5b6020020181815250507ffffffffffffffffffffffffffffffffffffffffffffffffffffffffefffffc2f806131e5576131e46149c6565b5b816000600481106131f9576131f86144d4565b5b602002015182600060048110613212576132116144d4565b5b6020020151098160026004811061322c5761322b6144d4565b5b6020020181815250507ffffffffffffffffffffffffffffffffffffffffffffffffffffffffefffffc2f80613264576132636149c6565b5b81600060048110613278576132776144d4565b5b602002015182600260048110613291576132906144d4565b5b602002015109816003600481106132ab576132aa6144d4565b5b60200201818152505060007ffffffffffffffffffffffffffffffffffffffffffffffffffffffffefffffc2f806132e5576132e46149c6565b5b826003600481106132f9576132f86144d4565b5b60200201517ffffffffffffffffffffffffffffffffffffffffffffffffffffffffefffffc2f6133299190614532565b7ffffffffffffffffffffffffffffffffffffffffffffffffffffffffefffffc2f80613358576133576149c6565b5b8460016004811061336c5761336b6144d4565b5b602002015185600160048110613385576133846144d4565b5b6020020151090890507ffffffffffffffffffffffffffffffffffffffffffffffffffffffffefffffc2f806133bd576133bc6149c6565b5b7ffffffffffffffffffffffffffffffffffffffffffffffffffffffffefffffc2f806133ec576133eb6149c6565b5b7ffffffffffffffffffffffffffffffffffffffffffffffffffffffffefffffc2f8061341b5761341a6149c6565b5b8460026004811061342f5761342e6144d4565b5b602002015186600060048110613448576134476144d4565b5b6020020151096002097ffffffffffffffffffffffffffffffffffffffffffffffffffffffffefffffc2f61347c9190614532565b8208905060007ffffffffffffffffffffffffffffffffffffffffffffffffffffffffefffffc2f806134b1576134b06149c6565b5b7ffffffffffffffffffffffffffffffffffffffffffffffffffffffffefffffc2f806134e0576134df6149c6565b5b837ffffffffffffffffffffffffffffffffffffffffffffffffffffffffefffffc2f61350c9190614532565b7ffffffffffffffffffffffffffffffffffffffffffffffffffffffffefffffc2f8061353b5761353a6149c6565b5b8660026004811061354f5761354e6144d4565b5b602002015188600060048110613568576135676144d4565b5b6020020151090884600160048110613583576135826144d4565b5b60200201510990507ffffffffffffffffffffffffffffffffffffffffffffffffffffffffefffffc2f806135ba576135b96149c6565b5b7ffffffffffffffffffffffffffffffffffffffffffffffffffffffffefffffc2f806135e9576135e86149c6565b5b846003600481106135fd576135fc6144d4565b5b602002015186600160048110613616576136156144d4565b5b6020020151097ffffffffffffffffffffffffffffffffffffffffffffffffffffffffefffffc2f6136479190614532565b8208905060007ffffffffffffffffffffffffffffffffffffffffffffffffffffffffefffffc2f8061367c5761367b6149c6565b5b7ffffffffffffffffffffffffffffffffffffffffffffffffffffffffefffffc2f806136ab576136aa6149c6565b5b8a8e09856000600481106136c2576136c16144d4565b5b602002015109905082828297509750975050505050505b96509650969350505050565b60008060008084036136ff57858585925092509250613b59565b60007ffffffffffffffffffffffffffffffffffffffffffffffffffffffffefffffc2f806137305761372f6149c6565b5b878809905060007ffffffffffffffffffffffffffffffffffffffffffffffffffffffffefffffc2f80613766576137656149c6565b5b878809905060007ffffffffffffffffffffffffffffffffffffffffffffffffffffffffefffffc2f8061379c5761379b6149c6565b5b878809905060007ffffffffffffffffffffffffffffffffffffffffffffffffffffffffefffffc2f806137d2576137d16149c6565b5b7ffffffffffffffffffffffffffffffffffffffffffffffffffffffffefffffc2f80613801576138006149c6565b5b848c09600409905060007ffffffffffffffffffffffffffffffffffffffffffffffffffffffffefffffc2f8061383a576138396149c6565b5b7ffffffffffffffffffffffffffffffffffffffffffffffffffffffffefffffc2f80613869576138686149c6565b5b7ffffffffffffffffffffffffffffffffffffffffffffffffffffffffefffffc2f80613898576138976149c6565b5b8586096000097ffffffffffffffffffffffffffffffffffffffffffffffffffffffffefffffc2f806138cd576138cc6149c6565b5b876003090890507ffffffffffffffffffffffffffffffffffffffffffffffffffffffffefffffc2f80613903576139026149c6565b5b7ffffffffffffffffffffffffffffffffffffffffffffffffffffffffefffffc2f80613932576139316149c6565b5b8384087ffffffffffffffffffffffffffffffffffffffffffffffffffffffffefffffc2f6139609190614532565b7ffffffffffffffffffffffffffffffffffffffffffffffffffffffffefffffc2f8061398f5761398e6149c6565b5b8384090894507ffffffffffffffffffffffffffffffffffffffffffffffffffffffffefffffc2f806139c4576139c36149c6565b5b7ffffffffffffffffffffffffffffffffffffffffffffffffffffffffefffffc2f806139f3576139f26149c6565b5b7ffffffffffffffffffffffffffffffffffffffffffffffffffffffffefffffc2f80613a2257613a216149c6565b5b8687096008097ffffffffffffffffffffffffffffffffffffffffffffffffffffffffefffffc2f613a539190614532565b7ffffffffffffffffffffffffffffffffffffffffffffffffffffffffefffffc2f80613a8257613a816149c6565b5b7ffffffffffffffffffffffffffffffffffffffffffffffffffffffffefffffc2f80613ab157613ab06149c6565b5b887ffffffffffffffffffffffffffffffffffffffffffffffffffffffffefffffc2f613add9190614532565b860884090893507ffffffffffffffffffffffffffffffffffffffffffffffffffffffffefffffc2f80613b1357613b126149c6565b5b7ffffffffffffffffffffffffffffffffffffffffffffffffffffffffefffffc2f80613b4257613b416149c6565b5b8a8c09600209925084848497509750975050505050505b93509350939050565b6000806000613b91847ffffffffffffffffffffffffffffffffffffffffffffffffffffffffefffffc2f611f6d565b905060007ffffffffffffffffffffffffffffffffffffffffffffffffffffffffefffffc2f80613bc457613bc36149c6565b5b828309905060007ffffffffffffffffffffffffffffffffffffffffffffffffffffffffefffffc2f80613bfa57613bf96149c6565b5b828909905060007ffffffffffffffffffffffffffffffffffffffffffffffffffffffffefffffc2f80613c3057613c2f6149c6565b5b7ffffffffffffffffffffffffffffffffffffffffffffffffffffffffefffffc2f80613c5f57613c5e6149c6565b5b8486098909905081819550955050505050935093915050565b6040518060600160405280600060ff16815260200160608152602001606081525090565b6040518060600160405280600081526020016000801916815260200160007bffffffffffffffffffffffffffffffffffffffffffffffffffffffff191681525090565b6040518060800160405280600081526020016000801916815260200160008019168152602001600080191681525090565b60405180604001604052806000815260200160006bffffffffffffffffffffffff191681525090565b604051806040016040528060008152602001600080191681525090565b6040518060a0016040528060008152602001606081526020016060815260200160608152602001606081525090565b6040518060800160405280600490602082028036833780820191505090505090565b6000604051905090565b600080fd5b600080fd5b600080fd5b600080fd5b6000601f19601f8301169050919050565b7f4e487b7100000000000000000000000000000000000000000000000000000000600052604160045260246000fd5b613e0e82613dc5565b810181811067ffffffffffffffff82111715613e2d57613e2c613dd6565b5b80604052505050565b6000613e40613da7565b9050613e4c8282613e05565b919050565b600067ffffffffffffffff821115613e6c57613e6b613dd6565b5b613e7582613dc5565b9050602081019050919050565b82818337600083830152505050565b6000613ea4613e9f84613e51565b613e36565b905082815260208101848484011115613ec057613ebf613dc0565b5b613ecb848285613e82565b509392505050565b600082601f830112613ee857613ee7613dbb565b5b8135613ef8848260208601613e91565b91505092915050565b600060208284031215613f1757613f16613db1565b5b600082013567ffffffffffffffff811115613f3557613f34613db6565b5b613f4184828501613ed3565b91505092915050565b600060ff82169050919050565b613f6081613f4a565b82525050565b600081519050919050565b600082825260208201905092915050565b60005b83811015613fa0578082015181840152602081019050613f85565b60008484015250505050565b6000613fb782613f66565b613fc18185613f71565b9350613fd1818560208601613f82565b613fda81613dc5565b840191505092915050565b6000606083016000830151613ffd6000860182613f57565b50602083015184820360208601526140158282613fac565b9150506040830151848203604086015261402f8282613fac565b9150508091505092915050565b600060208201905081810360008301526140568184613fe5565b905092915050565b60007fffffffff0000000000000000000000000000000000000000000000000000000082169050919050565b6140938161405e565b82525050565b60006020820190506140ae600083018461408a565b92915050565b6000819050919050565b6140c7816140b4565b82525050565b6000819050919050565b6140e0816140cd565b82525050565b6140ef8161405e565b82525050565b60608201600082015161410b60008501826140be565b50602082015161411e60208501826140d7565b50604082015161413160408501826140e6565b50505050565b600060608201905061414c60008301846140f5565b92915050565b61415b816140b4565b811461416657600080fd5b50565b60008135905061417881614152565b92915050565b61418781613f4a565b811461419257600080fd5b50565b6000813590506141a48161417e565b92915050565b600080600080608085870312156141c4576141c3613db1565b5b60006141d287828801614169565b94505060206141e387828801614195565b93505060406141f487828801614169565b925050606061420587828801614169565b91505092959194509250565b600082825260208201905092915050565b600061422d82613f66565b6142378185614211565b9350614247818560208601613f82565b61425081613dc5565b840191505092915050565b600060208201905081810360008301526142758184614222565b905092915050565b600060408201905081810360008301526142978185613fe5565b905081810360208301526142ab8184613fe5565b90509392505050565b6080820160008201516142ca60008501826140be565b5060208201516142dd60208501826140d7565b5060408201516142f060408501826140d7565b50606082015161430360608501826140d7565b50505050565b60007fffffffffffffffffffffffffffffffffffffffff00000000000000000000000082169050919050565b61433e81614309565b82525050565b60408201600082015161435a60008501826140be565b50602082015161436d6020850182614335565b50505050565b60408201600082015161438960008501826140be565b50602082015161439c60208501826140d7565b50505050565b6000610100820190506143b860008301866142b4565b6143c56080830185614344565b6143d260c0830184614373565b949350505050565b6000806000606084860312156143f3576143f2613db1565b5b600084013567ffffffffffffffff81111561441157614410613db6565b5b61441d86828701613ed3565b935050602084013567ffffffffffffffff81111561443e5761443d613db6565b5b61444a86828701613ed3565b925050604084013567ffffffffffffffff81111561446b5761446a613db6565b5b61447786828701613ed3565b9150509250925092565b61448a816140cd565b82525050565b60006020820190506144a56000830184614481565b92915050565b600060c0820190506144c060008301856142b4565b6144cd6080830184614344565b9392505050565b7f4e487b7100000000000000000000000000000000000000000000000000000000600052603260045260246000fd5b7f4e487b7100000000000000000000000000000000000000000000000000000000600052601160045260246000fd5b600061453d826140b4565b9150614548836140b4565b92508282039050818111156145605761455f614503565b5b92915050565b6000819050602082019050919050565b6000614582825161405e565b80915050919050565b600082821b905092915050565b60006145a382613f66565b826145ad84614566565b90506145b881614576565b925060048210156145f8576145f37fffffffff000000000000000000000000000000000000000000000000000000008360040360080261458b565b831692505b5050919050565b600061460b82516140cd565b80915050919050565b600061461f82613f66565b8261462984614566565b9050614634816145ff565b925060208210156146745761466f7fffffffffffffffffffffffffffffffffffffffffffffffffffffffffffffffff8360200360080261458b565b831692505b5050919050565b600082825260208201905092915050565b7f54782068617320746f6f206d616e7920696e7075747320283e31290000000000600082015250565b60006146c2601b8361467b565b91506146cd8261468c565b602082019050919050565b600060208201905081810360008301526146f1816146b5565b9050919050565b600061470382613f4a565b915061470e83613f4a565b9250828203905060ff81111561472757614726614503565b5b92915050565b6000819050919050565b614748614743826140b4565b61472d565b82525050565b600061475a8285614737565b60208201915061476a8284614737565b6020820191508190509392505050565b6000819050919050565b614795614790826140cd565b61477a565b82525050565b60006147a78284614784565b60208201915081905092915050565b60006147c1826140b4565b91507fffffffffffffffffffffffffffffffffffffffffffffffffffffffffffffffff82036147f3576147f2614503565b5b600182019050919050565b600081905092915050565b600061481482613f66565b61481e81856147fe565b935061482e818560208601613f82565b80840191505092915050565b60006148468287614809565b91506148528286614809565b915061485e8285614809565b915061486a8284614809565b915081905095945050505050565b6000614883826140b4565b915061488e836140b4565b925082820261489c816140b4565b915082820484148315176148b3576148b2614503565b5b5092915050565b60006148c5826140b4565b91506148d0836140b4565b92508282019050808211156148e8576148e7614503565b5b92915050565b7f736c6963655f6f766572666c6f77000000000000000000000000000000000000600082015250565b6000614924600e8361467b565b915061492f826148ee565b602082019050919050565b6000602082019050818103600083015261495381614917565b9050919050565b7f736c6963655f6f75744f66426f756e6473000000000000000000000000000000600082015250565b600061499060118361467b565b915061499b8261495a565b602082019050919050565b600060208201905081810360008301526149bf81614983565b9050919050565b7f4e487b7100000000000000000000000000000000000000000000000000000000600052601260045260246000fd5b6000614a00826140b4565b9150614a0b836140b4565b925082614a1b57614a1a6149c6565b5b828204905092915050565b600073ffffffffffffffffffffffffffffffffffffffff82169050919050565b6000614a5182614a26565b9150614a5c83614a26565b9250828203905073ffffffffffffffffffffffffffffffffffffffff811115614a8857614a87614503565b5b92915050565b6000614a9982614a26565b9150614aa483614a26565b9250828202614ab281614a26565b91508282048414831517614ac957614ac8614503565b5b5092915050565b6000614adb82614a26565b9150614ae683614a26565b9250828201905073ffffffffffffffffffffffffffffffffffffffff811115614b1257614b11614503565b5b92915050565b6000614b2382614a26565b915073ffffffffffffffffffffffffffffffffffffffff8203614b4957614b48614503565b5b600182019050919050565b6000614b608284614809565b915081905092915050565b614b74816140cd565b8114614b7f57600080fd5b50565b600081519050614b9181614b6b565b92915050565b600060208284031215614bad57614bac613db1565b5b6000614bbb84828501614b82565b91505092915050565b7f56616c75652065786365656473207468652072616e6765000000000000000000600082015250565b6000614bfa60178361467b565b9150614c0582614bc4565b602082019050919050565b60006020820190508181036000830152614c2981614bed565b9050919050565b600061ffff82169050919050565b6000614c4982614c30565b9150614c5483614c30565b9250828202614c6281614c30565b9150808214614c7457614c73614503565b5b5092915050565b600063ffffffff82169050919050565b6000614c9682614c7b565b9150614ca183614c7b565b9250828202614caf81614c7b565b9150808214614cc157614cc0614503565b5b5092915050565b600067ffffffffffffffff82169050919050565b6000614ce782614cc8565b9150614cf283614cc8565b9250828202614d0081614cc8565b9150808214614d1257614d11614503565b5b5092915050565b7f496e76616c6964206e756d626572000000000000000000000000000000000000600082015250565b6000614d4f600e8361467b565b9150614d5a82614d19565b602082019050919050565b60006020820190508181036000830152614d7e81614d42565b9050919050565b7f557365206a6163446f75626c652066756e6374696f6e20696e73746561640000600082015250565b6000614dbb601e8361467b565b9150614dc682614d85565b602082019050919050565b60006020820190508181036000830152614dea81614dae565b905091905056fea264697066735822122010ea86b03979de58adf523e3d3f5ea4dd532ee99e1ca229fc98032d8d4620f7664736f6c63430008130033",
  "linkReferences": {},
  "deployedLinkReferences": {}
}