{
  "_format": "hh-sol-artifact-1",
  "contractName": "ParseBitcoinRawTx",
  "sourceName": "contracts/ParseBitcoinRawTx.sol",
  "abi": [
    {
      "inputs": [
        {
          "internalType": "bytes",
          "name": "_fundingScript",
          "type": "bytes"
        }
      ],
      "name": "extractCompressedPK",
      "outputs": [
        {
          "internalType": "bytes",
          "name": "",
          "type": "bytes"
        },
        {
          "internalType": "bytes",
          "name": "",
          "type": "bytes"
        }
      ],
      "stateMutability": "view",
      "type": "function"
    },
    {
      "inputs": [
        {
          "internalType": "bytes",
          "name": "_txBytes",
          "type": "bytes"
        }
      ],
      "name": "getInputsData",
      "outputs": [
        {
          "components": [
            {
              "internalType": "uint256",
              "name": "number_of_inputs",
              "type": "uint256"
            },
            {
              "internalType": "bytes32",
              "name": "txid",
              "type": "bytes32"
            },
            {
              "internalType": "bytes4",
              "name": "inputIndex",
              "type": "bytes4"
            }
          ],
          "internalType": "struct ParseBitcoinRawTx.Input",
          "name": "",
          "type": "tuple"
        }
      ],
      "stateMutability": "view",
      "type": "function"
    },
    {
      "inputs": [
        {
          "internalType": "bytes",
          "name": "_txBytes",
          "type": "bytes"
        }
      ],
      "name": "getOutputsDataLN",
      "outputs": [
        {
          "components": [
            {
              "internalType": "uint256",
              "name": "value",
              "type": "uint256"
            },
            {
              "internalType": "bytes32",
              "name": "pk1",
              "type": "bytes32"
            },
            {
              "internalType": "bytes32",
              "name": "pk2",
              "type": "bytes32"
            },
            {
              "internalType": "bytes32",
              "name": "rev_secret",
              "type": "bytes32"
            }
          ],
          "internalType": "struct ParseBitcoinRawTx.LightningHTLCData",
          "name": "",
          "type": "tuple"
        },
        {
          "components": [
            {
              "internalType": "uint256",
              "name": "value",
              "type": "uint256"
            },
            {
              "internalType": "bytes20",
              "name": "pkhash",
              "type": "bytes20"
            }
          ],
          "internalType": "struct ParseBitcoinRawTx.P2PKHData",
          "name": "",
          "type": "tuple"
        }
      ],
      "stateMutability": "view",
      "type": "function"
    },
    {
      "inputs": [
        {
          "internalType": "bytes",
          "name": "_txBytes",
          "type": "bytes"
        }
      ],
      "name": "getOutputsDataLNB",
      "outputs": [
        {
          "components": [
            {
              "internalType": "uint256",
              "name": "value",
              "type": "uint256"
            },
            {
              "internalType": "bytes32",
              "name": "pk1",
              "type": "bytes32"
            },
            {
              "internalType": "bytes32",
              "name": "pk2",
              "type": "bytes32"
            },
            {
              "internalType": "bytes32",
              "name": "rev_secret",
              "type": "bytes32"
            }
          ],
          "internalType": "struct ParseBitcoinRawTx.LightningHTLCData",
          "name": "",
          "type": "tuple"
        },
        {
          "components": [
            {
              "internalType": "uint256",
              "name": "value",
              "type": "uint256"
            },
            {
              "internalType": "bytes20",
              "name": "pkhash",
              "type": "bytes20"
            }
          ],
          "internalType": "struct ParseBitcoinRawTx.P2PKHData",
          "name": "",
          "type": "tuple"
        },
        {
          "components": [
            {
              "internalType": "uint256",
              "name": "value",
              "type": "uint256"
            },
            {
              "internalType": "bytes32",
              "name": "data",
              "type": "bytes32"
            }
          ],
          "internalType": "struct ParseBitcoinRawTx.OpReturnData",
          "name": "",
          "type": "tuple"
        }
      ],
      "stateMutability": "view",
      "type": "function"
    },
    {
      "inputs": [
        {
          "internalType": "bytes",
          "name": "_txBytes",
          "type": "bytes"
        }
      ],
      "name": "getSignature",
      "outputs": [
        {
          "components": [
            {
              "internalType": "uint8",
              "name": "v",
              "type": "uint8"
            },
            {
              "internalType": "bytes",
              "name": "r",
              "type": "bytes"
            },
            {
              "internalType": "bytes",
              "name": "s",
              "type": "bytes"
            }
          ],
          "internalType": "struct ParseBitcoinRawTx.Signature",
          "name": "",
          "type": "tuple"
        }
      ],
      "stateMutability": "view",
      "type": "function"
    },
    {
      "inputs": [
        {
          "internalType": "bytes",
          "name": "_txBytes",
          "type": "bytes"
        }
      ],
      "name": "getSignatures",
      "outputs": [
        {
          "components": [
            {
              "internalType": "uint8",
              "name": "v",
              "type": "uint8"
            },
            {
              "internalType": "bytes",
              "name": "r",
              "type": "bytes"
            },
            {
              "internalType": "bytes",
              "name": "s",
              "type": "bytes"
            }
          ],
          "internalType": "struct ParseBitcoinRawTx.Signature",
          "name": "",
          "type": "tuple"
        },
        {
          "components": [
            {
              "internalType": "uint8",
              "name": "v",
              "type": "uint8"
            },
            {
              "internalType": "bytes",
              "name": "r",
              "type": "bytes"
            },
            {
              "internalType": "bytes",
              "name": "s",
              "type": "bytes"
            }
          ],
          "internalType": "struct ParseBitcoinRawTx.Signature",
          "name": "",
          "type": "tuple"
        }
      ],
      "stateMutability": "view",
      "type": "function"
    },
    {
      "inputs": [
        {
          "internalType": "bytes",
          "name": "_txBytes",
          "type": "bytes"
        }
      ],
      "name": "getTimelock",
      "outputs": [
        {
          "internalType": "bytes4",
          "name": "",
          "type": "bytes4"
        }
      ],
      "stateMutability": "view",
      "type": "function"
    },
    {
      "inputs": [
        {
          "internalType": "bytes",
          "name": "_txBytes",
          "type": "bytes"
        },
        {
          "internalType": "bytes",
          "name": "fundingTxLockingScript",
          "type": "bytes"
        },
        {
          "internalType": "bytes",
          "name": "sighash",
          "type": "bytes"
        }
      ],
      "name": "getTxDigest",
      "outputs": [
        {
          "internalType": "bytes32",
          "name": "",
          "type": "bytes32"
        }
      ],
      "stateMutability": "view",
      "type": "function"
    },
    {
      "inputs": [
        {
          "internalType": "uint256",
          "name": "digest",
          "type": "uint256"
        },
        {
          "internalType": "uint8",
          "name": "v",
          "type": "uint8"
        },
        {
          "internalType": "uint256",
          "name": "r",
          "type": "uint256"
        },
        {
          "internalType": "uint256",
          "name": "s",
          "type": "uint256"
        }
      ],
      "name": "verifyBTCSignature",
      "outputs": [
        {
          "internalType": "bytes",
          "name": "",
          "type": "bytes"
        }
      ],
      "stateMutability": "view",
      "type": "function"
    }
  ],
  "bytecode": "0x608060405234801561001057600080fd5b50612d59806100206000396000f3fe608060405234801561001057600080fd5b50600436106100935760003560e01c8063606c3cf111610066578063606c3cf11461014c5780636b45b4e31461016d57806393e309e11461018e5780639bfc9002146101fc578063d74f6ae21461021d57600080fd5b80631ed113ae1461009857806336946480146100c15780634f500ea9146100ed5780635933bf611461012c575b600080fd5b6100ab6100a63660046127de565b61023e565b6040516100b891906128b2565b60405180910390f35b6100d46100cf3660046127de565b61035e565b6040516001600160e01b031990911681526020016100b8565b6101006100fb3660046127de565b610382565b604080518251815260208084015190820152918101516001600160e01b031916908201526060016100b8565b61013f61013a3660046128c5565b610463565b6040516100b89190612908565b61015f61015a3660046127de565b6104ac565b6040516100b892919061291b565b61018061017b3660046127de565b6104d2565b6040516100b8929190612940565b6101a161019c3660046127de565b6106b4565b60408051845181526020808601518183015285830151928201929092526060948501519481019490945282516080850152918201516001600160601b03191660a0840152805160c0840152015160e0820152610100016100b8565b61020f61020a366004612965565b61097c565b6040519081526020016100b8565b61023061022b3660046127de565b6109de565b6040516100b89291906129ec565b6102656040518060600160405280600060ff16815260200160608152602001606081525090565b61028c6040518060600160405280600060ff16815260200160608152602001606081525090565b82602a8151811061029f5761029f612a30565b6020910101516001600160f81b031916604760f81b14156102d7576102cd6102c884602f610b91565b610c03565b6020820152610316565b82602a815181106102ea576102ea612a30565b6020910101516001600160f81b031916602360f91b14156103165761031083602f610c2e565b60208201525b6103246102c8846051610b91565b6040820152602081015160029061033c906000610cab565b6103469190612a5c565b61035357601c8152610358565b601b81525b92915050565b600061037982600484516103729190612a86565b6004610d09565b61035890612a9d565b60408051606080820183526000808352602080840182905283850182905284519283018552818352820181905292810192909252906103c2836004610e16565b5081526103d28360256004610d09565b6103db90612a9d565b6001600160e01b03191660408201526104086103fa8460056025610d09565b61040390612ad4565b610ed9565b602082015280516001146103585760405162461bcd60e51b815260206004820152601b60248201527f54782068617320746f6f206d616e7920696e7075747320283e3129000000000060448201526064015b60405180910390fd5b606060008061047e87610477601b89612afb565b8787610f7a565b6040805160208101939093528281019190915280518083038201815260609092019052979650505050505050565b6060806104bc8360026021610d09565b6104c98460256021610d09565b91509150915091565b6104f96040518060600160405280600060ff16815260200160608152602001606081525090565b6105206040518060600160405280600060ff16815260200160608152602001606081525090565b6105476040518060600160405280600060ff16815260200160608152602001606081525090565b61056e6040518060600160405280600060ff16815260200160608152602001606081525090565b601b81526105806102c8866051610b91565b604082015284518590602a90811061059a5761059a612a30565b6020910101516001600160f81b031916604760f81b14156105cd576105c36102c886602f610b91565b602082015261060c565b84602a815181106105e0576105e0612a30565b6020910101516001600160f81b031916602360f91b141561060c5761060685602f610c2e565b60208201525b601b825261061e6102c8866098610b91565b604083015284518590607290811061063857610638612a30565b6020910101516001600160f81b031916604760f81b141561066b576106616102c8866077610b91565b60208301526106aa565b8460728151811061067e5761067e612a30565b6020910101516001600160f81b031916602360f91b14156106aa576106a4856077610c2e565b60208301525b9094909350915050565b604080516080810182526000808252602082018190529181018290526060810191909152604080518082019091526000808252602082015260408051808201909152600080825260208201526040805160808101825260008082526020820181905291810182905260608101919091526040805180820190915260008082526020820152604080518082019091526000808252602082015261077e6040518060a0016040528060008152602001606081526020016060815260200160608152602001606081525090565b600480825261079090899060006111ab565b80835260208301919091526107a890899060006112a2565b845260408401526060830152608082015260005b600381101561096d57806108435761080f89836060015183815181106107e4576107e4612a30565b60200260200101518460400151848151811061080257610802612a30565b602002602001015161146a565b604088015260608701526020860152608082015180518290811061083557610835612a30565b602090810291909101015185525b80600114156108f0576108bc6108948a8460600151848151811061086957610869612a30565b60200260200101518560400151858151811061088757610887612a30565b60200260200101516114cf565b6040516020016108a691815260200190565b6040516020818303038152906040526000611572565b6001600160601b031916602084015260808201518051829081106108e2576108e2612a30565b602090810291909101015183525b806002141561095b57610931898360600151838151811061091357610913612a30565b60200260200101518460400151848151811061088757610887612a30565b6020850152608082015180518290811061094d5761094d612a30565b602090810291909101015184525b8061096581612b1e565b9150506107bc565b50929790965090945092505050565b60008061098c8560006029610d09565b846109a5876072808a516109a09190612a86565b610d09565b856040516020016109b99493929190612b39565b60405160208183030381529060405290506109d381611604565b9150505b9392505050565b6040805160808101825260008082526020820181905291810182905260608101919091526040805180820182526000808252602080830182905283516080810185528281529081018290529283018190526060830152906040805180820190915260008082526020820152610a7b6040518060a0016040528060008152602001606081526020016060815260200160608152602001606081525090565b6004808252610a8d90879060006111ab565b8083526020830191909152610aa590879060006112a2565b845260408401526060830152608082015260005b6002811015610b855780610b1957610ae187836060015183815181106107e4576107e4612a30565b6040870152606086015260208501526080820151805182908110610b0757610b07612a30565b60209081029190910101518452610b73565b8060011415610b7357610b3f610894888460600151848151811061086957610869612a30565b6001600160601b03191660208401526080820151805182908110610b6557610b65612a30565b602090810291909101015183525b80610b7d81612b1e565b915050610ab9565b50919590945092505050565b600080805b6020811015610bfb57610baa81601f612a86565b610bb5906008612b90565b85610bc08684612baf565b81518110610bd057610bd0612a30565b0160200151610be79160f89190911c901b83612baf565b915080610bf381612b1e565b915050610b96565b509392505050565b606081604051602001610c1891815260200190565b6040516020818303038152906040529050919050565b60606000805b601f811015610c9957610c4881601e612a86565b610c53906008612b90565b85610c5e8684612baf565b81518110610c6e57610c6e612a30565b0160200151610c859160f89190911c901b83612baf565b915080610c9181612b1e565b915050610c34565b50610ca3816116c3565b949350505050565b6000610cb8826020612baf565b83511015610d005760405162461bcd60e51b8152602060048201526015602482015274746f55696e743235365f6f75744f66426f756e647360581b604482015260640161045a565b50016020015190565b606081610d1781601f612baf565b1015610d565760405162461bcd60e51b815260206004820152600e60248201526d736c6963655f6f766572666c6f7760901b604482015260640161045a565b610d608284612baf565b84511015610da45760405162461bcd60e51b8152602060048201526011602482015270736c6963655f6f75744f66426f756e647360781b604482015260640161045a565b606082158015610dc35760405191506000825260208201604052610e0d565b6040519150601f8416801560200281840101858101878315602002848b0101015b81831015610dfc578051835260209283019201610de4565b5050858452601f01601f1916604052505b50949350505050565b6000806000848481518110610e2d57610e2d612a30565b016020015160f81c9050610e42600185612baf565b935060fd8160ff161015610e5d5760ff169150829050610ed2565b8060ff1660fd1415610e8a57610e7585856010611737565b610e80856002612baf565b9250925050610ed2565b8060ff1660fe1415610ead57610ea285856020611737565b610e80856004612baf565b8060ff1660ff1415610ed057610ec585856040611737565b610e80856008612baf565b505b9250929050565b60408051602080825281830190925260009182919060208201818036833701905050905060005b6020811015610f7057838160208110610f1b57610f1b612a30565b1a60f81b826001610f2d846020612a86565b610f379190612a86565b81518110610f4757610f47612a30565b60200101906001600160f81b031916908160001a90535080610f6881612b1e565b915050610f00565b506109d781611aa3565b600080806401000003d019610f9c607f600189901c166401000003d019612b90565b860890506401000003d019811180610fc5575070014551231950b75fc4402da1732fc9bebe1984115b80610fe1575070014551231950b75fc4402da1732fc9bebe1985115b80610fea575083155b80610ff3575084155b80611001575060018660ff16115b156110135760008092509250506111a2565b60006110318670014551231950b75fc4402da1732fc9bebe19611ac0565b905060006401000003d0198060076401000003d01960008709086401000003d0198086870986090890506110818160046110726401000003d0196001612baf565b61107c9190612bc7565b611b8c565b9050600061109260ff8a1683612baf565b61109d906002612baf565b600116156110ba576110b5826401000003d019612a86565b6110bc565b815b90506000808061113f70014551231950b75fc4402da1732fc9bebe196110f48f70014551231950b75fc4402da1732fc9bebe19612a86565b88097f79be667ef9dcbbac55a06295ce870b07029bfcdb2dce28d959f2815b16f817987f483ada7726a3c4655da4fbfc0e1108a8fd17b448a68554199c47d08ffb10d4b86001611c34565b925092509250600080600061117970014551231950b75fc4402da1732fc9bebe198061116d5761116d612a46565b8e8b098b896001611c34565b925092509250600080611190888888888888611cad565b909e509c505050505050505050505050505b94509492505050565b60606000806000806111bd8888610e16565b975092508515806111cd57508286115b156111da578291506111de565b8591505b6000826001600160401b038111156111f8576111f861273c565b604051908082528060200260200182016040528015611221578160200160208202803683370190505b50905060005b838110156112955761123a60248a612baf565b98506112468a8a610e16565b809a5081945050508282828151811061126157611261612a30565b6020908102919091010152611277836004612baf565b611281908a612baf565b98508061128d81612b1e565b915050611227565b5098969750505050505050565b60608060606000806000806112b78a8a610e16565b995092508715806112c757508288115b156112d4578291506112d8565b8791505b6000826001600160401b038111156112f2576112f261273c565b60405190808252806020026020018201604052801561131b578160200160208202803683370190505b5090506000836001600160401b038111156113385761133861273c565b604051908082528060200260200182016040528015611361578160200160208202803683370190505b5090506000846001600160401b0381111561137e5761137e61273c565b6040519080825280602002602001820160405280156113a7578160200160208202803683370190505b50905060005b85811015611458576113c18e8e6040611737565b8282815181106113d3576113d3612a30565b60209081029190910101526113e960088e612baf565b9c506113f58e8e610e16565b809e5081965050508c84828151811061141057611410612a30565b6020026020010181815250508483828151811061142f5761142f612a30565b6020908102919091010152611444858e612baf565b9c508061145081612b1e565b9150506113ad565b509c919b509998509650505050505050565b600080600061147a868686611d25565b156114bc576114938661148e876003612baf565b610b91565b6114a28761148e886028612baf565b6114b18861148e89604c612baf565b9250925092506114c6565b5060009150819050805b93509350939050565b60006114dc8484846120d2565b15611506576114f5846114f0856003612baf565b611572565b6001600160601b03191690506109d7565b6115118484846121f7565b15611525576114f5846114f0856002612baf565b6115308484846122b2565b1561154b576115448461148e856002612baf565b90506109d7565b611556848484611d25565b1561156a576115448461148e856002612baf565b5060006109d7565b600080805b6014816001600160a01b031610156115f957611594816013612bdb565b61159f906008612c03565b6001600160a01b03168585836001600160a01b03166115be9190612baf565b815181106115ce576115ce612a30565b01602001516115e59160f89190911c901b83612c32565b9150806115f181612c5d565b915050611577565b5060601b9392505050565b6000600280836040516116179190612c84565b602060405180830381855afa158015611634573d6000803e3d6000fd5b5050506040513d601f19601f820116820180604052508101906116579190612ca0565b60405160200161166991815260200190565b60408051601f198184030181529082905261168391612c84565b602060405180830381855afa1580156116a0573d6000803e3d6000fd5b5050506040513d601f19601f820116820180604052508101906103589190612ca0565b60606001600160ff1b0382111561171c5760405162461bcd60e51b815260206004820152601760248201527f56616c75652065786365656473207468652072616e6765000000000000000000604482015260640161045a565b60405190506020815281602082015260408101604052919050565b600081600814156117635783838151811061175457611754612a30565b016020015160f81c90506109d7565b81601014156117c45783611778846001612baf565b8151811061178857611788612a30565b016020015161179c9060f81c610100612cb9565b61ffff168484815181106117b2576117b2612a30565b0160200151611544919060f81c612baf565b81602014156118aa57836117d9846003612baf565b815181106117e9576117e9612a30565b01602001516117ff9060f81c6301000000612cda565b63ffffffff1684611811856002612baf565b8151811061182157611821612a30565b01602001516118369060f81c62010000612cda565b63ffffffff1685611848866001612baf565b8151811061185857611858612a30565b016020015161186c9060f81c610100612cda565b63ffffffff1686868151811061188457611884612a30565b0160200151611896919060f81c612baf565b6118a09190612baf565b6115449190612baf565b81604014156109d757836118bf846007612baf565b815181106118cf576118cf612a30565b01602001516118e99060f81c670100000000000000612cfd565b6001600160401b0316846118fe856006612baf565b8151811061190e5761190e612a30565b01602001516119279060f81c6601000000000000612cfd565b6001600160401b03168561193c866005612baf565b8151811061194c5761194c612a30565b01602001516119649060f81c65010000000000612cfd565b6001600160401b031686611979876004612baf565b8151811061198957611989612a30565b01602001516119a09060f81c640100000000612cfd565b6001600160401b0316876119b5886003612baf565b815181106119c5576119c5612a30565b01602001516119db9060f81c6301000000612cfd565b6001600160401b0316886119f0896002612baf565b81518110611a0057611a00612a30565b0160200151611a159060f81c62010000612cfd565b6001600160401b031689611a2a8a6001612baf565b81518110611a3a57611a3a612a30565b0160200151611a4e9060f81c610100612cfd565b6001600160401b03168a8a81518110611a6957611a69612a30565b0160200151611a7b919060f81c612baf565b611a859190612baf565b611a8f9190612baf565b611a999190612baf565b6118969190612baf565b80516000908290611ab75750600092915050565b50506020015190565b60008215801590611ad15750818314155b8015611adc57508115155b611b195760405162461bcd60e51b815260206004820152600e60248201526d24b73b30b634b210373ab6b132b960911b604482015260640161045a565b6000600183825b8615611b8157611b308783612bc7565b9050828680611b4157611b41612a46565b8780611b4f57611b4f612a46565b858409611b5c9089612a86565b8608909450925086611b6e8183612b90565b611b789084612a86565b97509150611b20565b509195945050505050565b600082611b9b57506000610358565b81611ba857506001610358565b6001600160ff1b5b8015610bfb576401000003d0198185161515860a6401000003d0198485090991506401000003d0196002820485161515860a6401000003d0198485090991506401000003d0196004820485161515860a6401000003d0198485090991506401000003d0196008820485161515860a6401000003d01984850909915060109004611bb0565b6000808086611c4a575084915083905082611ca3565b8660008060015b8315611c9a576001841615611c7657611c6e8383838d8d8d612333565b919450925090505b611c81600285612bc7565b9350611c8e8a8a8a6125c8565b919b5099509750611c51565b91955093509150505b9450945094915050565b6000806000806000878b1415611cf1576401000003d019878b08611cda5760008094509450505050611d1a565b611ce58b8b8b6125c8565b91945092509050611d07565b611cff8b8b8b8b8b8b612333565b919450925090505b611d128383836126cc565b945094505050505b965096945050505050565b6000816072148015611d65575083611d3e846000612baf565b81518110611d4e57611d4e612a30565b6020910101516001600160f81b031916603b60f91b145b8015611d9f575083611d78846001612baf565b81518110611d8857611d88612a30565b6020910101516001600160f81b031916602160f81b145b8015611dd9575083611db2846023612baf565b81518110611dc257611dc2612a30565b6020910101516001600160f81b031916602b60fa1b145b8015611e13575083611dec846024612baf565b81518110611dfc57611dfc612a30565b6020910101516001600160f81b031916606360f81b145b8015611e4d575083611e26846025612baf565b81518110611e3657611e36612a30565b6020910101516001600160f81b031916607560f81b145b8015611e87575083611e60846026612baf565b81518110611e7057611e70612a30565b6020910101516001600160f81b031916605560f91b145b8015611ec1575083611e9a846027612baf565b81518110611eaa57611eaa612a30565b6020910101516001600160f81b031916600160fd1b145b8015611efb575083611ed4846048612baf565b81518110611ee457611ee4612a30565b6020910101516001600160f81b031916601160fb1b145b8015611f35575083611f0e846049612baf565b81518110611f1e57611f1e612a30565b6020910101516001600160f81b031916606760f81b145b8015611f6f575083611f4884604a612baf565b81518110611f5857611f58612a30565b6020910101516001600160f81b031916602160f81b145b8015611fa9575083611f8284606c612baf565b81518110611f9257611f92612a30565b6020910101516001600160f81b03191660ad60f81b145b8015611fe3575083611fbc84606d612baf565b81518110611fcc57611fcc612a30565b6020910101516001600160f81b031916602960f91b145b801561201d575083611ff684606e612baf565b8151811061200657612006612a30565b6020910101516001600160f81b031916605960f91b145b801561205757508361203084606f612baf565b8151811061204057612040612a30565b6020910101516001600160f81b031916607560f81b145b801561209157508361206a846070612baf565b8151811061207a5761207a612a30565b6020910101516001600160f81b031916600d60fb1b145b8015610ca35750836120a4846071612baf565b815181106120b4576120b4612a30565b6020910101516001600160f81b031916605160f81b14949350505050565b600081601914801561210857508383815181106120f1576120f1612a30565b6020910101516001600160f81b031916603b60f91b145b801561214257508361211b846001612baf565b8151811061212b5761212b612a30565b6020910101516001600160f81b03191660a960f81b145b801561217c575083612155846002612baf565b8151811061216557612165612a30565b6020910101516001600160f81b031916600560fa1b145b80156121b657508361218f846017612baf565b8151811061219f5761219f612a30565b6020910101516001600160f81b031916601160fb1b145b8015610ca35750836121c9846018612baf565b815181106121d9576121d9612a30565b6020910101516001600160f81b031916602b60fa1b14949350505050565b6000816017148015612237575083612210846000612baf565b8151811061222057612220612a30565b6020910101516001600160f81b03191660a960f81b145b801561227157508361224a846001612baf565b8151811061225a5761225a612a30565b6020910101516001600160f81b031916600560fa1b145b8015610ca3575083612284846016612baf565b8151811061229457612294612a30565b6020910101516001600160f81b031916608760f81b14949350505050565b60008160221480156122f25750836122cb846000612baf565b815181106122db576122db612a30565b6020910101516001600160f81b031916603560f91b145b8015610ca3575083612305846001612baf565b8151811061231557612315612a30565b6020910101516001600160f81b031916600160fd1b14949350505050565b6000808088158015612343575087155b156123555750849150839050826125bc565b85158015612361575084155b156123735750879150869050856125bc565b61237b61271e565b6401000003d0198889098082526401000003d01990890960208201526401000003d019858009604082018190526401000003d0199086096060820152604080516080810182529082015181906401000003d019908d0981526020016401000003d01983600360200201518c0981526020016401000003d01983600060200201518a0981526020016401000003d0198360016020020151890990526040810151815191925014158061243457506060810151602082015114155b6124805760405162461bcd60e51b815260206004820152601e60248201527f557365206a6163446f75626c652066756e6374696f6e20696e73746561640000604482015260640161045a565b61248861271e565b81516401000003d0199061249c9082612a86565b604084015108815260208201516401000003d019906124bb9082612a86565b606084015108602082015280516401000003d0199080096040820181905281516401000003d0199109606082018190526000906401000003d019906125009082612a86565b60208401516401000003d01990800908604083015184519192506401000003d01991829182910960020961253a906401000003d019612a86565b8208905060006401000003d01980612558846401000003d019612a86565b604086015187516401000003d0199190090860208501510990506401000003d01980846003602002015186600160200201510961259b906401000003d019612a86565b8208905060006401000003d019808a8e098551099297509095509093505050505b96509650969350505050565b60008080836125de5750849150839050826114c6565b60006401000003d019878809905060006401000003d019878809905060006401000003d019878809905060006401000003d01980848c09600409905060006401000003d019806401000003d0198586096000096401000003d019876003090890506401000003d0198083840861265a906401000003d019612a86565b6401000003d0198384090894506401000003d019806401000003d01986870960080961268c906401000003d019612a86565b6401000003d019806126a4896401000003d019612a86565b860884090893506401000003d019808a8c09600209949b939a50939850919650505050505050565b60008060006126e1846401000003d019611ac0565b905060006401000003d019828309905060006401000003d019828909905060006401000003d0198084860989099199919850909650505050505050565b60405180608001604052806004906020820280368337509192915050565b634e487b7160e01b600052604160045260246000fd5b600082601f83011261276357600080fd5b81356001600160401b038082111561277d5761277d61273c565b604051601f8301601f19908116603f011681019082821181831017156127a5576127a561273c565b816040528381528660208588010111156127be57600080fd5b836020870160208301376000602085830101528094505050505092915050565b6000602082840312156127f057600080fd5b81356001600160401b0381111561280657600080fd5b610ca384828501612752565b60005b8381101561282d578181015183820152602001612815565b8381111561283c576000848401525b50505050565b6000815180845261285a816020860160208601612812565b601f01601f19169290920160200192915050565b60ff815116825260006020820151606060208501526128906060850182612842565b9050604083015184820360408601526128a98282612842565b95945050505050565b6020815260006109d7602083018461286e565b600080600080608085870312156128db57600080fd5b84359350602085013560ff811681146128f357600080fd5b93969395505050506040820135916060013590565b6020815260006109d76020830184612842565b60408152600061292e6040830185612842565b82810360208401526109d38185612842565b604081526000612953604083018561286e565b82810360208401526109d3818561286e565b60008060006060848603121561297a57600080fd5b83356001600160401b038082111561299157600080fd5b61299d87838801612752565b945060208601359150808211156129b357600080fd5b6129bf87838801612752565b935060408601359150808211156129d557600080fd5b506129e286828701612752565b9150509250925092565b82518152602080840151818301526040808501519083015260608085015190830152825160808301528201516001600160601b03191660a082015260c081016109d7565b634e487b7160e01b600052603260045260246000fd5b634e487b7160e01b600052601260045260246000fd5b600082612a6b57612a6b612a46565b500690565b634e487b7160e01b600052601160045260246000fd5b600082821015612a9857612a98612a70565b500390565b805160208201516001600160e01b03198082169291906004831015612acc5780818460040360031b1b83161693505b505050919050565b80516020808301519190811015612af5576000198160200360031b1b821691505b50919050565b600060ff821660ff841680821015612b1557612b15612a70565b90039392505050565b6000600019821415612b3257612b32612a70565b5060010190565b60008551612b4b818460208a01612812565b855190830190612b5f818360208a01612812565b8551910190612b72818360208901612812565b8451910190612b85818360208801612812565b019695505050505050565b6000816000190483118215151615612baa57612baa612a70565b500290565b60008219821115612bc257612bc2612a70565b500190565b600082612bd657612bd6612a46565b500490565b60006001600160a01b0383811690831681811015612bfb57612bfb612a70565b039392505050565b60006001600160a01b0382811684821681151582840482111615612c2957612c29612a70565b02949350505050565b60006001600160a01b03828116848216808303821115612c5457612c54612a70565b01949350505050565b60006001600160a01b0382811680821415612c7a57612c7a612a70565b6001019392505050565b60008251612c96818460208701612812565b9190910192915050565b600060208284031215612cb257600080fd5b5051919050565b600061ffff80831681851681830481118215151615612c2957612c29612a70565b600063ffffffff80831681851681830481118215151615612c2957612c29612a70565b60006001600160401b0380831681851681830481118215151615612c2957612c29612a7056fea2646970667358221220018e2a31db2d1d2094a32d5780e14b29c2f5c3bdf1c209255e37c44b38d05c0764736f6c63430008090033",
  "linkReferences": {},
  "deployedLinkReferences": {}
}