{
  "_format": "hh-sol-artifact-1",
  "contractName": "BytesLib",
  "sourceName": "contracts/BytesLib.sol",
  "abi": [
    {
      "inputs": [
        {
          "internalType": "uint256",
          "name": "value",
          "type": "uint256"
        },
        {
          "internalType": "uint256",
          "name": "length",
          "type": "uint256"
        }
      ],
      "name": "StringsInsufficientHexLength",
      "type": "error"
    },
    {
      "inputs": [
        {
          "internalType": "string",
          "name": "_str",
          "type": "string"
        }
      ],
      "name": "flipString",
      "outputs": [
        {
          "internalType": "string",
          "name": "",
          "type": "string"
        }
      ],
      "stateMutability": "pure",
      "type": "function"
    }
  ],
  "bytecode": "0x6102e961003a600b82828239805160001a60731461002d57634e487b7160e01b600052600060045260246000fd5b30600052607381538281f3fe73000000000000000000000000000000000000000030146080604052600436106100355760003560e01c8063a671244b1461003a575b600080fd5b61004d61004836600461014f565b610063565b60405161005a9190610200565b60405180910390f35b606060008290506000815167ffffffffffffffff81111561008657610086610139565b6040519080825280601f01601f1916602001820160405280156100b0576020820181803683370190505b5090508060005b8351811015610130578381815181106100d2576100d2610255565b602001015160f81c60f81b8260018387516100ed9190610281565b6100f79190610281565b8151811061010757610107610255565b60200101906001600160f81b031916908160001a9053508061012881610298565b9150506100b7565b50949350505050565b634e487b7160e01b600052604160045260246000fd5b60006020828403121561016157600080fd5b813567ffffffffffffffff8082111561017957600080fd5b818401915084601f83011261018d57600080fd5b81358181111561019f5761019f610139565b604051601f8201601f19908116603f011681019083821181831017156101c7576101c7610139565b816040528281528760208487010111156101e057600080fd5b826020860160208301376000928101602001929092525095945050505050565b600060208083528351808285015260005b8181101561022d57858101830151858201604001528201610211565b8181111561023f576000604083870101525b50601f01601f1916929092016040019392505050565b634e487b7160e01b600052603260045260246000fd5b634e487b7160e01b600052601160045260246000fd5b6000828210156102935761029361026b565b500390565b60006000198214156102ac576102ac61026b565b506001019056fea264697066735822122037e6573d1fecdf17b236aa51083bad647c0ed2292abf352e9bf5a093a99410a264736f6c63430008090033",
  "linkReferences": {},
  "deployedLinkReferences": {}
}