{
  "_format": "hh-sol-artifact-1",
  "contractName": "BytesLib",
  "sourceName": "contracts/BytesLib.sol",
  "abi": [
    {
      "inputs": [
        {
          "internalType": "uint256",
          "name": "value",
          "type": "uint256"
        },
        {
          "internalType": "uint256",
          "name": "length",
          "type": "uint256"
        }
      ],
      "name": "StringsInsufficientHexLength",
      "type": "error"
    },
    {
      "inputs": [
        {
          "internalType": "string",
          "name": "_str",
          "type": "string"
        }
      ],
      "name": "flipString",
      "outputs": [
        {
          "internalType": "string",
          "name": "",
          "type": "string"
        }
      ],
      "stateMutability": "pure",
      "type": "function"
    }
  ],
  "bytecode": "0x6104c9610053600b82828239805160001a607314610046577f4e487b7100000000000000000000000000000000000000000000000000000000600052600060045260246000fd5b30600052607381538281f3fe73000000000000000000000000000000000000000030146080604052600436106100355760003560e01c8063a671244b1461003a575b600080fd5b610054600480360381019061004f91906102c5565b61006a565b604051610061919061038d565b60405180910390f35b606060008290506000815167ffffffffffffffff81111561008e5761008d61019a565b5b6040519080825280601f01601f1916602001820160405280156100c05781602001600182028036833780820191505090505b509050600081905060005b835181101561015f578381815181106100e7576100e66103af565b5b602001015160f81c60f81b8260018387516101029190610417565b61010c9190610417565b8151811061011d5761011c6103af565b5b60200101907effffffffffffffffffffffffffffffffffffffffffffffffffffffffffffff1916908160001a90535080806101579061044b565b9150506100cb565b50809350505050919050565b6000604051905090565b600080fd5b600080fd5b600080fd5b600080fd5b6000601f19601f8301169050919050565b7f4e487b7100000000000000000000000000000000000000000000000000000000600052604160045260246000fd5b6101d282610189565b810181811067ffffffffffffffff821117156101f1576101f061019a565b5b80604052505050565b600061020461016b565b905061021082826101c9565b919050565b600067ffffffffffffffff8211156102305761022f61019a565b5b61023982610189565b9050602081019050919050565b82818337600083830152505050565b600061026861026384610215565b6101fa565b90508281526020810184848401111561028457610283610184565b5b61028f848285610246565b509392505050565b600082601f8301126102ac576102ab61017f565b5b81356102bc848260208601610255565b91505092915050565b6000602082840312156102db576102da610175565b5b600082013567ffffffffffffffff8111156102f9576102f861017a565b5b61030584828501610297565b91505092915050565b600081519050919050565b600082825260208201905092915050565b60005b8381101561034857808201518184015260208101905061032d565b60008484015250505050565b600061035f8261030e565b6103698185610319565b935061037981856020860161032a565b61038281610189565b840191505092915050565b600060208201905081810360008301526103a78184610354565b905092915050565b7f4e487b7100000000000000000000000000000000000000000000000000000000600052603260045260246000fd5b6000819050919050565b7f4e487b7100000000000000000000000000000000000000000000000000000000600052601160045260246000fd5b6000610422826103de565b915061042d836103de565b9250828203905081811115610445576104446103e8565b5b92915050565b6000610456826103de565b91507fffffffffffffffffffffffffffffffffffffffffffffffffffffffffffffffff8203610488576104876103e8565b5b60018201905091905056fea2646970667358221220c0b620e9786fd77ca15f1fe632d61548471c9d94632fea92e1ca881119eb796464736f6c63430008130033",
  "linkReferences": {},
  "deployedLinkReferences": {}
}