{
  "_format": "hh-sol-artifact-1",
  "contractName": "BTCUtils",
  "sourceName": "contracts/BTCUtils.sol",
  "abi": [
    {
      "inputs": [],
      "name": "DIFF1_TARGET",
      "outputs": [
        {
          "internalType": "uint256",
          "name": "",
          "type": "uint256"
        }
      ],
      "stateMutability": "view",
      "type": "function"
    },
    {
      "inputs": [],
      "name": "ERR_BAD_ARG",
      "outputs": [
        {
          "internalType": "uint256",
          "name": "",
          "type": "uint256"
        }
      ],
      "stateMutability": "view",
      "type": "function"
    },
    {
      "inputs": [],
      "name": "RETARGET_PERIOD",
      "outputs": [
        {
          "internalType": "uint256",
          "name": "",
          "type": "uint256"
        }
      ],
      "stateMutability": "view",
      "type": "function"
    },
    {
      "inputs": [],
      "name": "RETARGET_PERIOD_BLOCKS",
      "outputs": [
        {
          "internalType": "uint256",
          "name": "",
          "type": "uint256"
        }
      ],
      "stateMutability": "view",
      "type": "function"
    }
  ],
  "bytecode": "0x61018e610053600b82828239805160001a607314610046577f4e487b7100000000000000000000000000000000000000000000000000000000600052600060045260246000fd5b30600052607381538281f3fe73000000000000000000000000000000000000000030146080604052600436106100565760003560e01c8063056e04ec1461005b5780638cc71569146100795780638db69e6014610097578063d4258ca7146100b5575b600080fd5b6100636100d3565b604051610070919061013d565b60405180910390f35b6100816100da565b60405161008e919061013d565b60405180910390f35b61009f6100e0565b6040516100ac919061013d565b60405180910390f35b6100bd610104565b6040516100ca919061013d565b60405180910390f35b6212750081565b6107e081565b7fffffffffffffffffffffffffffffffffffffffffffffffffffffffffffffffff81565b7bffff000000000000000000000000000000000000000000000000000081565b6000819050919050565b61013781610124565b82525050565b6000602082019050610152600083018461012e565b9291505056fea26469706673582212203a2aec96e1f0d2df64c901a2497f4f2c9880a15d3ee311c1e4bf85f70fcfce7364736f6c63430008130033",
  "linkReferences": {},
  "deployedLinkReferences": {}
}