{
  "_format": "hh-sol-artifact-1",
  "contractName": "LNBridge",
  "sourceName": "contracts/LNBridge.sol",
  "abi": [
    {
      "inputs": [],
      "name": "bridge",
      "outputs": [
        {
          "internalType": "bytes32",
          "name": "fundingTxId",
          "type": "bytes32"
        },
        {
          "internalType": "bytes32",
          "name": "pkProver",
          "type": "bytes32"
        },
        {
          "internalType": "bytes32",
          "name": "pkVerifier",
          "type": "bytes32"
        },
        {
          "internalType": "uint256",
          "name": "index",
          "type": "uint256"
        },
        {
          "internalType": "uint256",
          "name": "timelock",
          "type": "uint256"
        },
        {
          "internalType": "uint256",
          "name": "timelock_dispute",
          "type": "uint256"
        }
      ],
      "stateMutability": "view",
      "type": "function"
    },
    {
      "inputs": [
        {
          "internalType": "bytes",
          "name": "rawTxP_locked",
          "type": "bytes"
        },
        {
          "internalType": "bytes",
          "name": "sigV",
          "type": "bytes"
        },
        {
          "internalType": "bytes",
          "name": "rawTxV_unlocked",
          "type": "bytes"
        },
        {
          "internalType": "bytes",
          "name": "sigP",
          "type": "bytes"
        }
      ],
      "name": "dispute",
      "outputs": [],
      "stateMutability": "nonpayable",
      "type": "function"
    },
    {
      "inputs": [
        {
          "internalType": "bytes",
          "name": "_txBytes",
          "type": "bytes"
        }
      ],
      "name": "getOutputData",
      "outputs": [
        {
          "internalType": "uint256",
          "name": "",
          "type": "uint256"
        },
        {
          "internalType": "bytes32",
          "name": "",
          "type": "bytes32"
        },
        {
          "internalType": "bytes32",
          "name": "",
          "type": "bytes32"
        },
        {
          "internalType": "bytes32",
          "name": "",
          "type": "bytes32"
        },
        {
          "internalType": "uint256",
          "name": "",
          "type": "uint256"
        },
        {
          "internalType": "bytes32",
          "name": "",
          "type": "bytes32"
        },
        {
          "internalType": "uint256",
          "name": "",
          "type": "uint256"
        },
        {
          "internalType": "bytes32",
          "name": "",
          "type": "bytes32"
        }
      ],
      "stateMutability": "nonpayable",
      "type": "function"
    },
    {
      "inputs": [
        {
          "internalType": "bytes",
          "name": "_txBytes",
          "type": "bytes"
        }
      ],
      "name": "getTimelock",
      "outputs": [
        {
          "internalType": "bytes4",
          "name": "",
          "type": "bytes4"
        }
      ],
      "stateMutability": "nonpayable",
      "type": "function"
    },
    {
      "inputs": [],
      "name": "htlc",
      "outputs": [
        {
          "internalType": "uint256",
          "name": "value",
          "type": "uint256"
        },
        {
          "internalType": "bytes32",
          "name": "pk1",
          "type": "bytes32"
        },
        {
          "internalType": "bytes32",
          "name": "pk2",
          "type": "bytes32"
        },
        {
          "internalType": "bytes32",
          "name": "rev_secret",
          "type": "bytes32"
        }
      ],
      "stateMutability": "view",
      "type": "function"
    },
    {
      "inputs": [],
      "name": "opreturn",
      "outputs": [
        {
          "internalType": "uint256",
          "name": "value",
          "type": "uint256"
        },
        {
          "internalType": "bytes32",
          "name": "data",
          "type": "bytes32"
        }
      ],
      "stateMutability": "view",
      "type": "function"
    },
    {
      "inputs": [],
      "name": "out_aux",
      "outputs": [
        {
          "internalType": "uint256",
          "name": "pos",
          "type": "uint256"
        }
      ],
      "stateMutability": "view",
      "type": "function"
    },
    {
      "inputs": [],
      "name": "p2pkh",
      "outputs": [
        {
          "internalType": "uint256",
          "name": "value",
          "type": "uint256"
        },
        {
          "internalType": "bytes32",
          "name": "pkhash",
          "type": "bytes32"
        }
      ],
      "stateMutability": "view",
      "type": "function"
    },
    {
      "inputs": [
        {
          "internalType": "bytes",
          "name": "oldRevSecret",
          "type": "bytes"
        },
        {
          "internalType": "bytes",
          "name": "rawTxP_unlocked",
          "type": "bytes"
        },
        {
          "internalType": "bytes",
          "name": "sigV",
          "type": "bytes"
        }
      ],
      "name": "resolveDispute",
      "outputs": [],
      "stateMutability": "nonpayable",
      "type": "function"
    },
    {
      "inputs": [],
      "name": "settle",
      "outputs": [],
      "stateMutability": "nonpayable",
      "type": "function"
    },
    {
      "inputs": [
        {
          "internalType": "bytes32",
          "name": "_fundingTxId",
          "type": "bytes32"
        },
        {
          "internalType": "bytes32",
          "name": "_pkProver",
          "type": "bytes32"
        },
        {
          "internalType": "bytes32",
          "name": "_pkVerifier",
          "type": "bytes32"
        },
        {
          "internalType": "uint256",
          "name": "_index",
          "type": "uint256"
        },
        {
          "internalType": "uint256",
          "name": "_timelock",
          "type": "uint256"
        }
      ],
      "name": "setup",
      "outputs": [],
      "stateMutability": "nonpayable",
      "type": "function"
    },
    {
      "inputs": [
        {
          "internalType": "bytes",
          "name": "rawTxP_unlocked",
          "type": "bytes"
        },
        {
          "internalType": "bytes",
          "name": "sigV",
          "type": "bytes"
        },
        {
          "internalType": "bytes",
          "name": "rawTxV_unlocked",
          "type": "bytes"
        },
        {
          "internalType": "bytes",
          "name": "sigP",
          "type": "bytes"
        }
      ],
      "name": "submitProof",
      "outputs": [],
      "stateMutability": "nonpayable",
      "type": "function"
    }
  ],
  "bytecode": "0x608060405234801561001057600080fd5b50612a1c806100206000396000f3fe608060405234801561001057600080fd5b50600436106100b45760003560e01c806366b85d571161007157806366b85d571461017e57806372ca346f1461019c57806379a85bd9146101bb5780638504b3b9146101d7578063e4b23d0c146101f6578063e78cea9214610217576100b4565b806306ac0e26146100b957806311da60b4146100d557806336946480146100df5780633740d2491461010f57806343f104d21461012b57806352fd947614610147575b600080fd5b6100d360048036038101906100ce9190611ecf565b61023a565b005b6100dd610273565b005b6100f960048036038101906100f49190612090565b610275565b6040516101069190612114565b60405180910390f35b6101296004803603810190610124919061212f565b6102ab565b005b6101456004803603810190610140919061212f565b6102b1565b005b610161600480360381019061015c9190612090565b6102b7565b604051610175989796959493929190612224565b60405180910390f35b6101866105ad565b60405161019391906122a2565b60405180910390f35b6101a46105b9565b6040516101b29291906122bd565b60405180910390f35b6101d560048036038101906101d091906122e6565b6105cb565b005b6101df6105d0565b6040516101ed9291906122bd565b60405180910390f35b6101fe6105e2565b60405161020e949392919061238d565b60405180910390f35b61021f610600565b604051610231969594939291906123d2565b60405180910390f35b84600d6000018190555083600d6001018190555082600d6002018190555081600d6003018190555080600d600401819055505050505050565b565b6000808251905060006102968460058461028f9190612462565b600461062a565b61029f906124d3565b90508092505050919050565b50505050565b50505050565b60008060008060008060008060046008600001819055506102df896008600001546000610748565b60086001016000600860000160008491905055839190509080519060200190610309929190611ddb565b50505061031d89600860000154600061085a565b600860040160006008600301600060086002016000600860000160008891905055879190509080519060200190610355929190611ddb565b5086919050908051906020019061036d929190611ddb565b50859190509080519060200190610385929190611ddb565b505050505060005b6003811015610562576000810361043b576103eb8a600860030183815481106103b9576103b861253a565b5b9060005260206000200154600860020184815481106103db576103da61253a565b5b9060005260206000200154610a51565b60006001016000806003016000806002016000869190505585919050558491905055505050600860040181815481106104275761042661253a565b5b906000526020600020015460008001819055505b600181036104c5576104908a6008600301838154811061045e5761045d61253a565b5b9060005260206000200154600860020184815481106104805761047f61253a565b5b9060005260206000200154610b0d565b600660010181905550600860040181815481106104b0576104af61253a565b5b90600052602060002001546006600001819055505b6002810361054f5761051a8a600860030183815481106104e8576104e761253a565b5b90600052602060002001546008600201848154811061050a5761050961253a565b5b9060005260206000200154610b0d565b6004600101819055506008600401818154811061053a5761053961253a565b5b90600052602060002001546004600001819055505b808061055a90612569565b91505061038d565b50600080015460006001015460006003015460006002015460066000015460066001015460046000015460046001015497509750975097509750975097509750919395975091939597565b60088060000154905081565b60068060000154908060010154905082565b505050565b60048060000154908060010154905082565b60008060000154908060010154908060020154908060030154905084565b600d8060000154908060010154908060020154908060030154908060040154908060050154905086565b606081601f8361063a91906125b1565b101561067b576040517f08c379a000000000000000000000000000000000000000000000000000000000815260040161067290612642565b60405180910390fd5b818361068791906125b1565b845110156106ca576040517f08c379a00000000000000000000000000000000000000000000000000000000081526004016106c1906126ae565b60405180910390fd5b60608215600081146106eb576040519150600082526020820160405261073c565b6040519150601f8416801560200281840101858101878315602002848b0101015b81831015610729578051835260208301925060208101905061070c565b50868552601f19601f8301166040525050505b50809150509392505050565b606060008060008061075a8888610ce7565b8098508194505050600086148061077057508286115b1561077d57829150610781565b8591505b60008267ffffffffffffffff81111561079d5761079c611f65565b5b6040519080825280602002602001820160405280156107cb5781602001602082028036833780820191505090505b50905060005b83811015610847576024896107e691906125b1565b98506107f28a8a610ce7565b809a5081945050508282828151811061080e5761080d61253a565b5b60200260200101818152505060048361082791906125b1565b8961083291906125b1565b9850808061083f90612569565b9150506107d1565b5080889550955050505050935093915050565b606080606060008060008061086f8a8a610ce7565b809a508194505050600088148061088557508288115b1561089257829150610896565b8791505b60008267ffffffffffffffff8111156108b2576108b1611f65565b5b6040519080825280602002602001820160405280156108e05781602001602082028036833780820191505090505b50905060008367ffffffffffffffff8111156108ff576108fe611f65565b5b60405190808252806020026020018201604052801561092d5781602001602082028036833780820191505090505b50905060008467ffffffffffffffff81111561094c5761094b611f65565b5b60405190808252806020026020018201604052801561097a5781602001602082028036833780820191505090505b50905060005b85811015610a35576109948e8e6040610dcf565b8282815181106109a7576109a661253a565b5b60200260200101818152505060088d6109c091906125b1565b9c506109cc8e8e610ce7565b809e5081965050508c8482815181106109e8576109e761253a565b5b60200260200101818152505084838281518110610a0857610a0761253a565b5b602002602001018181525050848d610a2091906125b1565b9c508080610a2d90612569565b915050610980565b508083838e995099509950995050505050505093509350935093565b6000806000610a6186868661123a565b15610af157610aa46040518060400160405280601b81526020017f506172736564204c696768746e696e6748544c43206f757470757400000000008152506117e9565b610aba86600387610ab591906125b1565b611882565b610ad087602888610acb91906125b1565b611882565b610ae688604c89610ae191906125b1565b611882565b925092509250610b04565b6000801b6000801b6000801b9250925092505b93509350939050565b6000610b1a84848461190d565b15610b8957610b5d6040518060400160405280601381526020017f506172736564205032504b48206f7574707574000000000000000000000000008152506117e9565b610b7384600385610b6e91906125b1565b611ad2565b6bffffffffffffffffffffffff19169050610ce0565b610b94848484611bb5565b15610c0357610bd76040518060400160405280601281526020017f5061727365642050325348206f757470757400000000000000000000000000008152506117e9565b610bed84600285610be891906125b1565b611ad2565b6bffffffffffffffffffffffff19169050610ce0565b610c0e848484611cd2565b15610c6e57610c516040518060400160405280601781526020017f506172736564204f505f52455455524e206f75747075740000000000000000008152506117e9565b610c6784600285610c6291906125b1565b611882565b9050610ce0565b610c7984848461123a565b15610cd957610cbc6040518060400160405280601b81526020017f506172736564204c696768746e696e6748544c43206f757470757400000000008152506117e9565b610cd284600285610ccd91906125b1565b611882565b9050610ce0565b6000801b90505b9392505050565b6000806000848481518110610cff57610cfe61253a565b5b602001015160f81c60f81b60f81c9050600184610d1c91906125b1565b935060fd8160ff161015610d3c5780848160ff1691509250925050610dc8565b60fd8160ff1603610d6a57610d5385856010610dcf565b600285610d6091906125b1565b9250925050610dc8565b60fe8160ff1603610d9857610d8185856020610dcf565b600485610d8e91906125b1565b9250925050610dc8565b60ff8160ff1603610dc657610daf85856040610dcf565b600885610dbc91906125b1565b9250925050610dc8565b505b9250929050565b600060088203610e0457838381518110610dec57610deb61253a565b5b602001015160f81c60f81b60f81c60ff169050611233565b60108203610e865761010084600185610e1d91906125b1565b81518110610e2e57610e2d61253a565b5b602001015160f81c60f81b60f81c60ff16610e4991906126dc565b61ffff16848481518110610e6057610e5f61253a565b5b602001015160f81c60f81b60f81c60ff1661ffff16610e7f91906125b1565b9050611233565b60208203610fa957630100000084600385610ea191906125b1565b81518110610eb257610eb161253a565b5b602001015160f81c60f81b60f81c60ff16610ecd9190612729565b63ffffffff166201000085600286610ee591906125b1565b81518110610ef657610ef561253a565b5b602001015160f81c60f81b60f81c60ff16610f119190612729565b63ffffffff1661010086600187610f2891906125b1565b81518110610f3957610f3861253a565b5b602001015160f81c60f81b60f81c60ff16610f549190612729565b63ffffffff16868681518110610f6d57610f6c61253a565b5b602001015160f81c60f81b60f81c60ff1663ffffffff16610f8e91906125b1565b610f9891906125b1565b610fa291906125b1565b9050611233565b604082036112325767010000000000000084600785610fc891906125b1565b81518110610fd957610fd861253a565b5b602001015160f81c60f81b60f81c60ff16610ff4919061277a565b67ffffffffffffffff1666010000000000008560068661101491906125b1565b815181106110255761102461253a565b5b602001015160f81c60f81b60f81c60ff16611040919061277a565b67ffffffffffffffff16650100000000008660058761105f91906125b1565b815181106110705761106f61253a565b5b602001015160f81c60f81b60f81c60ff1661108b919061277a565b67ffffffffffffffff16640100000000876004886110a991906125b1565b815181106110ba576110b961253a565b5b602001015160f81c60f81b60f81c60ff166110d5919061277a565b67ffffffffffffffff166301000000886003896110f291906125b1565b815181106111035761110261253a565b5b602001015160f81c60f81b60f81c60ff1661111e919061277a565b67ffffffffffffffff16620100008960028a61113a91906125b1565b8151811061114b5761114a61253a565b5b602001015160f81c60f81b60f81c60ff16611166919061277a565b67ffffffffffffffff166101008a60018b61118191906125b1565b815181106111925761119161253a565b5b602001015160f81c60f81b60f81c60ff166111ad919061277a565b67ffffffffffffffff168a8a815181106111ca576111c961253a565b5b602001015160f81c60f81b60f81c60ff1667ffffffffffffffff166111ef91906125b1565b6111f991906125b1565b61120391906125b1565b61120d91906125b1565b61121791906125b1565b61122191906125b1565b61122b91906125b1565b9050611233565b5b9392505050565b600060728214801561129a5750607660f81b8460008561125a91906125b1565b8151811061126b5761126a61253a565b5b602001015160f81c60f81b7effffffffffffffffffffffffffffffffffffffffffffffffffffffffffffff1916145b80156112f45750602160f81b846001856112b491906125b1565b815181106112c5576112c461253a565b5b602001015160f81c60f81b7effffffffffffffffffffffffffffffffffffffffffffffffffffffffffffff1916145b801561134e575060ac60f81b8460238561130e91906125b1565b8151811061131f5761131e61253a565b5b602001015160f81c60f81b7effffffffffffffffffffffffffffffffffffffffffffffffffffffffffffff1916145b80156113a85750606360f81b8460248561136891906125b1565b815181106113795761137861253a565b5b602001015160f81c60f81b7effffffffffffffffffffffffffffffffffffffffffffffffffffffffffffff1916145b80156114025750607560f81b846025856113c291906125b1565b815181106113d3576113d261253a565b5b602001015160f81c60f81b7effffffffffffffffffffffffffffffffffffffffffffffffffffffffffffff1916145b801561145c575060aa60f81b8460268561141c91906125b1565b8151811061142d5761142c61253a565b5b602001015160f81c60f81b7effffffffffffffffffffffffffffffffffffffffffffffffffffffffffffff1916145b80156114b65750602060f81b8460278561147691906125b1565b815181106114875761148661253a565b5b602001015160f81c60f81b7effffffffffffffffffffffffffffffffffffffffffffffffffffffffffffff1916145b80156115105750608860f81b846048856114d091906125b1565b815181106114e1576114e061253a565b5b602001015160f81c60f81b7effffffffffffffffffffffffffffffffffffffffffffffffffffffffffffff1916145b801561156a5750606760f81b8460498561152a91906125b1565b8151811061153b5761153a61253a565b5b602001015160f81c60f81b7effffffffffffffffffffffffffffffffffffffffffffffffffffffffffffff1916145b80156115c45750602160f81b84604a8561158491906125b1565b815181106115955761159461253a565b5b602001015160f81c60f81b7effffffffffffffffffffffffffffffffffffffffffffffffffffffffffffff1916145b801561161e575060ad60f81b84606c856115de91906125b1565b815181106115ef576115ee61253a565b5b602001015160f81c60f81b7effffffffffffffffffffffffffffffffffffffffffffffffffffffffffffff1916145b80156116785750605260f81b84606d8561163891906125b1565b815181106116495761164861253a565b5b602001015160f81c60f81b7effffffffffffffffffffffffffffffffffffffffffffffffffffffffffffff1916145b80156116d2575060b260f81b84606e8561169291906125b1565b815181106116a3576116a261253a565b5b602001015160f81c60f81b7effffffffffffffffffffffffffffffffffffffffffffffffffffffffffffff1916145b801561172c5750607560f81b84606f856116ec91906125b1565b815181106116fd576116fc61253a565b5b602001015160f81c60f81b7effffffffffffffffffffffffffffffffffffffffffffffffffffffffffffff1916145b80156117865750606860f81b8460708561174691906125b1565b815181106117575761175661253a565b5b602001015160f81c60f81b7effffffffffffffffffffffffffffffffffffffffffffffffffffffffffffff1916145b80156117e05750605160f81b846071856117a091906125b1565b815181106117b1576117b061253a565b5b602001015160f81c60f81b7effffffffffffffffffffffffffffffffffffffffffffffffffffffffffffff1916145b90509392505050565b61187f816040516024016117fd9190612825565b6040516020818303038152906040527f41304fac000000000000000000000000000000000000000000000000000000007bffffffffffffffffffffffffffffffffffffffffffffffffffffffff19166020820180517bffffffffffffffffffffffffffffffffffffffffffffffffffffffff8381831617835250505050611d95565b50565b6000806000905060005b60208110156118ff5780601f6118a29190612462565b60086118ae9190612847565b8585836118bb91906125b1565b815181106118cc576118cb61253a565b5b602001015160f81c60f81b60f81c60ff16901b826118ea91906125b1565b915080806118f790612569565b91505061188c565b508060001b91505092915050565b60006019821480156119615750607660f81b8484815181106119325761193161253a565b5b602001015160f81c60f81b7effffffffffffffffffffffffffffffffffffffffffffffffffffffffffffff1916145b80156119bb575060a960f81b8460018561197b91906125b1565b8151811061198c5761198b61253a565b5b602001015160f81c60f81b7effffffffffffffffffffffffffffffffffffffffffffffffffffffffffffff1916145b8015611a155750601460f81b846002856119d591906125b1565b815181106119e6576119e561253a565b5b602001015160f81c60f81b7effffffffffffffffffffffffffffffffffffffffffffffffffffffffffffff1916145b8015611a6f5750608860f81b84601785611a2f91906125b1565b81518110611a4057611a3f61253a565b5b602001015160f81c60f81b7effffffffffffffffffffffffffffffffffffffffffffffffffffffffffffff1916145b8015611ac9575060ac60f81b84601885611a8991906125b1565b81518110611a9a57611a9961253a565b5b602001015160f81c60f81b7effffffffffffffffffffffffffffffffffffffffffffffffffffffffffffff1916145b90509392505050565b6000806000905060005b60148173ffffffffffffffffffffffffffffffffffffffff161015611ba757806013611b0891906128a9565b6008611b1491906128f1565b73ffffffffffffffffffffffffffffffffffffffff1685858373ffffffffffffffffffffffffffffffffffffffff16611b4d91906125b1565b81518110611b5e57611b5d61253a565b5b602001015160f81c60f81b60f81c60ff1673ffffffffffffffffffffffffffffffffffffffff16901b82611b929190612933565b91508080611b9f9061297b565b915050611adc565b508060601b91505092915050565b6000601782148015611c15575060a960f81b84600085611bd591906125b1565b81518110611be657611be561253a565b5b602001015160f81c60f81b7effffffffffffffffffffffffffffffffffffffffffffffffffffffffffffff1916145b8015611c6f5750601460f81b84600185611c2f91906125b1565b81518110611c4057611c3f61253a565b5b602001015160f81c60f81b7effffffffffffffffffffffffffffffffffffffffffffffffffffffffffffff1916145b8015611cc95750608760f81b84601685611c8991906125b1565b81518110611c9a57611c9961253a565b5b602001015160f81c60f81b7effffffffffffffffffffffffffffffffffffffffffffffffffffffffffffff1916145b90509392505050565b6000602282148015611d325750606a60f81b84600085611cf291906125b1565b81518110611d0357611d0261253a565b5b602001015160f81c60f81b7effffffffffffffffffffffffffffffffffffffffffffffffffffffffffffff1916145b8015611d8c5750602060f81b84600185611d4c91906125b1565b81518110611d5d57611d5c61253a565b5b602001015160f81c60f81b7effffffffffffffffffffffffffffffffffffffffffffffffffffffffffffff1916145b90509392505050565b611dac81611da4611daf611dd0565b63ffffffff16565b50565b60006a636f6e736f6c652e6c6f679050600080835160208501845afa505050565b611e28819050919050565b828054828255906000526020600020908101928215611e17579160200282015b82811115611e16578251825591602001919060010190611dfb565b5b509050611e249190611e32565b5090565b611e306129b7565b565b5b80821115611e4b576000816000905550600101611e33565b5090565b6000604051905090565b600080fd5b600080fd5b6000819050919050565b611e7681611e63565b8114611e8157600080fd5b50565b600081359050611e9381611e6d565b92915050565b6000819050919050565b611eac81611e99565b8114611eb757600080fd5b50565b600081359050611ec981611ea3565b92915050565b600080600080600060a08688031215611eeb57611eea611e59565b5b6000611ef988828901611e84565b9550506020611f0a88828901611e84565b9450506040611f1b88828901611e84565b9350506060611f2c88828901611eba565b9250506080611f3d88828901611eba565b9150509295509295909350565b600080fd5b600080fd5b6000601f19601f8301169050919050565b7f4e487b7100000000000000000000000000000000000000000000000000000000600052604160045260246000fd5b611f9d82611f54565b810181811067ffffffffffffffff82111715611fbc57611fbb611f65565b5b80604052505050565b6000611fcf611e4f565b9050611fdb8282611f94565b919050565b600067ffffffffffffffff821115611ffb57611ffa611f65565b5b61200482611f54565b9050602081019050919050565b82818337600083830152505050565b600061203361202e84611fe0565b611fc5565b90508281526020810184848401111561204f5761204e611f4f565b5b61205a848285612011565b509392505050565b600082601f83011261207757612076611f4a565b5b8135612087848260208601612020565b91505092915050565b6000602082840312156120a6576120a5611e59565b5b600082013567ffffffffffffffff8111156120c4576120c3611e5e565b5b6120d084828501612062565b91505092915050565b60007fffffffff0000000000000000000000000000000000000000000000000000000082169050919050565b61210e816120d9565b82525050565b60006020820190506121296000830184612105565b92915050565b6000806000806080858703121561214957612148611e59565b5b600085013567ffffffffffffffff81111561216757612166611e5e565b5b61217387828801612062565b945050602085013567ffffffffffffffff81111561219457612193611e5e565b5b6121a087828801612062565b935050604085013567ffffffffffffffff8111156121c1576121c0611e5e565b5b6121cd87828801612062565b925050606085013567ffffffffffffffff8111156121ee576121ed611e5e565b5b6121fa87828801612062565b91505092959194509250565b61220f81611e99565b82525050565b61221e81611e63565b82525050565b60006101008201905061223a600083018b612206565b612247602083018a612215565b6122546040830189612215565b6122616060830188612215565b61226e6080830187612206565b61227b60a0830186612215565b61228860c0830185612206565b61229560e0830184612215565b9998505050505050505050565b60006020820190506122b76000830184612206565b92915050565b60006040820190506122d26000830185612206565b6122df6020830184612215565b9392505050565b6000806000606084860312156122ff576122fe611e59565b5b600084013567ffffffffffffffff81111561231d5761231c611e5e565b5b61232986828701612062565b935050602084013567ffffffffffffffff81111561234a57612349611e5e565b5b61235686828701612062565b925050604084013567ffffffffffffffff81111561237757612376611e5e565b5b61238386828701612062565b9150509250925092565b60006080820190506123a26000830187612206565b6123af6020830186612215565b6123bc6040830185612215565b6123c96060830184612215565b95945050505050565b600060c0820190506123e76000830189612215565b6123f46020830188612215565b6124016040830187612215565b61240e6060830186612206565b61241b6080830185612206565b61242860a0830184612206565b979650505050505050565b7f4e487b7100000000000000000000000000000000000000000000000000000000600052601160045260246000fd5b600061246d82611e99565b915061247883611e99565b92508282039050818111156124905761248f612433565b5b92915050565b600081519050919050565b6000819050602082019050919050565b60006124bd82516120d9565b80915050919050565b600082821b905092915050565b60006124de82612496565b826124e8846124a1565b90506124f3816124b1565b925060048210156125335761252e7fffffffff00000000000000000000000000000000000000000000000000000000836004036008026124c6565b831692505b5050919050565b7f4e487b7100000000000000000000000000000000000000000000000000000000600052603260045260246000fd5b600061257482611e99565b91507fffffffffffffffffffffffffffffffffffffffffffffffffffffffffffffffff82036125a6576125a5612433565b5b600182019050919050565b60006125bc82611e99565b91506125c783611e99565b92508282019050808211156125df576125de612433565b5b92915050565b600082825260208201905092915050565b7f736c6963655f6f766572666c6f77000000000000000000000000000000000000600082015250565b600061262c600e836125e5565b9150612637826125f6565b602082019050919050565b6000602082019050818103600083015261265b8161261f565b9050919050565b7f736c6963655f6f75744f66426f756e6473000000000000000000000000000000600082015250565b60006126986011836125e5565b91506126a382612662565b602082019050919050565b600060208201905081810360008301526126c78161268b565b9050919050565b600061ffff82169050919050565b60006126e7826126ce565b91506126f2836126ce565b9250828202612700816126ce565b915080821461271257612711612433565b5b5092915050565b600063ffffffff82169050919050565b600061273482612719565b915061273f83612719565b925082820261274d81612719565b915080821461275f5761275e612433565b5b5092915050565b600067ffffffffffffffff82169050919050565b600061278582612766565b915061279083612766565b925082820261279e81612766565b91508082146127b0576127af612433565b5b5092915050565b600081519050919050565b60005b838110156127e05780820151818401526020810190506127c5565b60008484015250505050565b60006127f7826127b7565b61280181856125e5565b93506128118185602086016127c2565b61281a81611f54565b840191505092915050565b6000602082019050818103600083015261283f81846127ec565b905092915050565b600061285282611e99565b915061285d83611e99565b925082820261286b81611e99565b9150828204841483151761288257612881612433565b5b5092915050565b600073ffffffffffffffffffffffffffffffffffffffff82169050919050565b60006128b482612889565b91506128bf83612889565b9250828203905073ffffffffffffffffffffffffffffffffffffffff8111156128eb576128ea612433565b5b92915050565b60006128fc82612889565b915061290783612889565b925082820261291581612889565b9150828204841483151761292c5761292b612433565b5b5092915050565b600061293e82612889565b915061294983612889565b9250828201905073ffffffffffffffffffffffffffffffffffffffff81111561297557612974612433565b5b92915050565b600061298682612889565b915073ffffffffffffffffffffffffffffffffffffffff82036129ac576129ab612433565b5b600182019050919050565b7f4e487b7100000000000000000000000000000000000000000000000000000000600052605160045260246000fdfea26469706673582212208ab90d70f3c9339ce743620062b7e4cec46112236dbf9aade0b7a7d61358761964736f6c63430008130033",
  "linkReferences": {},
  "deployedLinkReferences": {}
}