{
  "_format": "hh-sol-artifact-1",
  "contractName": "LNBridge",
  "sourceName": "contracts/LNBridge.sol",
  "abi": [
    {
      "inputs": [
        {
          "internalType": "address",
          "name": "_prover",
          "type": "address"
        },
        {
          "internalType": "address",
          "name": "_verifier",
          "type": "address"
        }
      ],
      "stateMutability": "nonpayable",
      "type": "constructor"
    },
    {
      "anonymous": false,
      "inputs": [
        {
          "indexed": false,
          "internalType": "string",
          "name": "label",
          "type": "string"
        },
        {
          "indexed": false,
          "internalType": "address",
          "name": "addr",
          "type": "address"
        },
        {
          "indexed": false,
          "internalType": "uint256",
          "name": "amount",
          "type": "uint256"
        }
      ],
      "name": "lockCoinsEvent",
      "type": "event"
    },
    {
      "anonymous": false,
      "inputs": [
        {
          "indexed": false,
          "internalType": "string",
          "name": "label",
          "type": "string"
        },
        {
          "indexed": false,
          "internalType": "bool",
          "name": "stateStatus",
          "type": "bool"
        }
      ],
      "name": "stateEvent",
      "type": "event"
    },
    {
      "inputs": [],
      "name": "bridge",
      "outputs": [
        {
          "internalType": "bytes32",
          "name": "fundingTxId",
          "type": "bytes32"
        },
        {
          "internalType": "bytes",
          "name": "fundingTx_script",
          "type": "bytes"
        },
        {
          "internalType": "bytes4",
          "name": "fundingTx_index",
          "type": "bytes4"
        },
        {
          "internalType": "bytes",
          "name": "sighash",
          "type": "bytes"
        },
        {
          "internalType": "bytes",
          "name": "pkProver_Uncompressed",
          "type": "bytes"
        },
        {
          "internalType": "bytes",
          "name": "pkVerifier_Uncompressed",
          "type": "bytes"
        },
        {
          "internalType": "uint256",
          "name": "timelock",
          "type": "uint256"
        },
        {
          "internalType": "uint256",
          "name": "timelock_dispute",
          "type": "uint256"
        }
      ],
      "stateMutability": "view",
      "type": "function"
    },
    {
      "inputs": [],
      "name": "contractStoragePC",
      "outputs": [
        {
          "internalType": "uint256",
          "name": "balP",
          "type": "uint256"
        },
        {
          "internalType": "uint256",
          "name": "balV",
          "type": "uint256"
        },
        {
          "internalType": "bytes32",
          "name": "revKey",
          "type": "bytes32"
        }
      ],
      "stateMutability": "view",
      "type": "function"
    },
    {
      "inputs": [
        {
          "internalType": "bytes",
          "name": "CT_P_locked",
          "type": "bytes"
        },
        {
          "internalType": "bytes",
          "name": "CT_V_unlocked",
          "type": "bytes"
        }
      ],
      "name": "dispute",
      "outputs": [],
      "stateMutability": "nonpayable",
      "type": "function"
    },
    {
      "inputs": [],
      "name": "initBal",
      "outputs": [
        {
          "internalType": "uint256",
          "name": "balP",
          "type": "uint256"
        },
        {
          "internalType": "uint256",
          "name": "balV",
          "type": "uint256"
        }
      ],
      "stateMutability": "view",
      "type": "function"
    },
    {
      "inputs": [
        {
          "internalType": "string",
          "name": "revSecret",
          "type": "string"
        }
      ],
      "name": "resolveInvalidDispute",
      "outputs": [],
      "stateMutability": "nonpayable",
      "type": "function"
    },
    {
      "inputs": [
        {
          "internalType": "bytes",
          "name": "CT_P_unlocked",
          "type": "bytes"
        }
      ],
      "name": "resolveValidDispute",
      "outputs": [],
      "stateMutability": "nonpayable",
      "type": "function"
    },
    {
      "inputs": [],
      "name": "settle",
      "outputs": [],
      "stateMutability": "payable",
      "type": "function"
    },
    {
      "inputs": [
        {
          "internalType": "bytes32",
          "name": "_fundingTxId",
          "type": "bytes32"
        },
        {
          "internalType": "bytes",
          "name": "_fundingTx_script",
          "type": "bytes"
        },
        {
          "internalType": "bytes4",
          "name": "_fundingTx_index",
          "type": "bytes4"
        },
        {
          "internalType": "bytes",
          "name": "_sighash",
          "type": "bytes"
        },
        {
          "internalType": "bytes",
          "name": "_pkProver_Uncompressed",
          "type": "bytes"
        },
        {
          "internalType": "bytes",
          "name": "_pkVerifier_Uncompressed",
          "type": "bytes"
        },
        {
          "internalType": "uint256",
          "name": "_timelock",
          "type": "uint256"
        },
        {
          "internalType": "uint256",
          "name": "_timelock_dispute",
          "type": "uint256"
        },
        {
          "internalType": "uint256",
          "name": "balConst",
          "type": "uint256"
        }
      ],
      "name": "setup",
      "outputs": [],
      "stateMutability": "nonpayable",
      "type": "function"
    },
    {
      "inputs": [],
      "name": "state",
      "outputs": [
        {
          "internalType": "bool",
          "name": "coinsLocked",
          "type": "bool"
        },
        {
          "internalType": "bool",
          "name": "setupDone",
          "type": "bool"
        },
        {
          "internalType": "bool",
          "name": "validProofSubmitted",
          "type": "bool"
        },
        {
          "internalType": "bool",
          "name": "disputeOpened",
          "type": "bool"
        },
        {
          "internalType": "bool",
          "name": "disputeClosedP",
          "type": "bool"
        },
        {
          "internalType": "bool",
          "name": "disputeClosedV",
          "type": "bool"
        }
      ],
      "stateMutability": "view",
      "type": "function"
    },
    {
      "inputs": [
        {
          "internalType": "bytes",
          "name": "CT_P_unlocked",
          "type": "bytes"
        },
        {
          "internalType": "bytes",
          "name": "CT_V_unlocked",
          "type": "bytes"
        }
      ],
      "name": "submitProof",
      "outputs": [],
      "stateMutability": "nonpayable",
      "type": "function"
    },
    {
      "stateMutability": "payable",
      "type": "receive"
    }
  ],
  "bytecode": "0x60806040523480156200001157600080fd5b506040516200601738038062006017833981016040819052620000349162000083565b601080546001600160a01b039384166001600160a01b03199182161790915560118054929093169116179055620000bb565b80516001600160a01b03811681146200007e57600080fd5b919050565b600080604083850312156200009757600080fd5b620000a28362000066565b9150620000b26020840162000066565b90509250929050565b615f4c80620000cb6000396000f3fe6080604052600436106100955760003560e01c80637615539111610059578063761553911461030f578063abdf2f9d1461032f578063c19d93fb1461035f578063e78cea92146103e3578063fd5fe0251461040c57600080fd5b80630cb823691461026857806311da60b4146102885780633aef1477146102905780636f6d7a04146102b05780637236d92f146102ef57600080fd5b36610263576010546001600160a01b031633141561014a57336000818152600e6020908152604080832034908190556010546001600160a01b031684529281902054600c556008805460ff191660011790558051606080825260129082015271436f696e73206c6f636b656420627920502160701b608082015291820193909352918201527f47efeefce1cd829d195534850e795557a9bb3ca6914ef9fb9729108277b421439060a0015b60405180910390a1005b6011546001600160a01b03163314156101f457336000818152600e6020908152604080832034908190556011546001600160a01b031684529281902054600d556008805460ff191660011790558051606080825260129082015271436f696e73206c6f636b656420627920562160701b608082015291820193909352918201527f47efeefce1cd829d195534850e795557a9bb3ca6914ef9fb9729108277b421439060a001610140565b60408051818152602f818301527f4661696c656420746f206c6f636b20636f696e733a206d73672e73656e64657260608201526e1034b9903737ba1028103737b9102b60891b6080820152600060208201529051600080516020615ef78339815191529181900360a00190a15b005b600080fd5b34801561027457600080fd5b50610261610283366004615412565b61042c565b6102616106a8565b34801561029c57600080fd5b506102616102ab36600461547a565b610a7c565b3480156102bc57600080fd5b50600954600a54600b546102cf92919083565b604080519384526020840192909252908201526060015b60405180910390f35b3480156102fb57600080fd5b5061026161030a3660046154dd565b611885565b34801561031b57600080fd5b5061026161032a36600461547a565b611dbf565b34801561033b57600080fd5b50600c54600d5461034a919082565b604080519283526020830191909152016102e6565b34801561036b57600080fd5b506008546103aa9060ff808216916101008104821691620100008204811691630100000081048216916401000000008204811691600160281b90041686565b604080519615158752941515602087015292151593850193909352151560608401529015156080830152151560a082015260c0016102e6565b3480156103ef57600080fd5b506103f8612a03565b6040516102e6989796959493929190615569565b34801561041857600080fd5b50610261610427366004615604565b612c63565b60075460065461043c91906156fe565b42108015610498575060085460ff1615156001148015610469575060085460ff6101009091041615156001145b801561047e575060085462010000900460ff16155b801561049857506008546301000000900460ff1615156001145b80156105615750600280826040516104b09190615716565b602060405180830381855afa1580156104cd573d6000803e3d6000fd5b5050506040513d601f19601f820116820180604052508101906104f09190615732565b60405160200161050291815260200190565b60408051601f198184030181529082905261051c91615716565b602060405180830381855afa158015610539573d6000803e3d6000fd5b5050506040513d601f19601f8201168201806040525081019061055c9190615732565b600b54145b1561061f576008805465ff00000000001916600160281b90811791829055604051600080516020615ef78339815191529261061492900460ff16906040808252604a908201527f5265736f6c766520496e76616c6964204469737075746520737563636573736660608201527f756c6c792065786563757465643a2073746174652e64697370757465436c6f73608082015269656456203d207472756560b01b60a0820152901515602082015260c00190565b60405180910390a150565b60085460408051818152603c918101919091527f5265736f6c766520496e76616c69642044697370757465206661696c65643a2060608201527f73746174652e64697370757465436c6f73656456203d2066616c7365000000006080820152600160281b90910460ff1615156020820152600080516020615ef78339815191529060a001610614565b60085462010000900460ff161515600114806106ec57506008546301000000900460ff16151560011480156106ec5750600854640100000000900460ff1615156001145b1561083c57601054600f546001600160a01b039091166000818152600e60205260408120549092839291610720919061574b565b604051600081818185875af1925050503d806000811461075c576040519150601f19603f3d011682016040523d82523d6000602084013e610761565b606091505b50915091508161078c5760405162461bcd60e51b81526004016107839061576a565b60405180910390fd5b601154600f5460009182916001600160a01b03909116906107ae906001615798565b6011546001600160a01b03166000908152600e60205260409020546107d3919061574b565b604051600081818185875af1925050503d806000811461080f576040519150601f19603f3d011682016040523d82523d6000602084013e610814565b606091505b5091509150816108365760405162461bcd60e51b81526004016107839061576a565b50505050565b6008546301000000900460ff161515600114801561087a5750600854640100000000900460ff1615801561087a5750600854600160281b900460ff16155b15610922576010546011546001600160a01b039081166000908152600e60205260408082205492909316808252928120549092839290916108bb91906156fe565b604051600081818185875af1925050503d80600081146108f7576040519150601f19603f3d011682016040523d82523d6000602084013e6108fc565b606091505b50915091508161091e5760405162461bcd60e51b81526004016107839061576a565b5050565b6008546301000000900460ff161515600114801561094e5750600854600160281b900460ff1615156001145b1561098b576011546001600160a01b039081166000818152600e602052604080822054601054909416825281205490928392916108bb91906156fe565b60085460ff16151560011480156109aa5750600854610100900460ff16155b15610a7a57601054600c5460405160009283926001600160a01b03909116918381818185875af1925050503d8060008114610a01576040519150601f19603f3d011682016040523d82523d6000602084013e610a06565b606091505b509150915081610a285760405162461bcd60e51b81526004016107839061576a565b601154600d5460405160009283926001600160a01b03909116918381818185875af1925050503d806000811461080f576040519150601f19603f3d011682016040523d82523d6000602084013e610814565b565b60065442108015610ad7575060085460ff1615156001148015610aac575060085460ff6101009091041615156001145b8015610ac1575060085462010000900460ff16155b8015610ad757506008546301000000900460ff16155b156117f5576000610ae783612cf2565b6001600160e01b03191614610b0e5760405162461bcd60e51b8152600401610783906157af565b6000610b1982612cf2565b6001600160e01b03191614610b405760405162461bcd60e51b8152600401610783906157f4565b610b486151e7565b610b5061522d565b6040805180820190915260008082526020820152610b6d85612d1c565b9084529084529050610b7e84612fdf565b6020848101919091528085018290526060909101519082015114610bb45760405162461bcd60e51b81526004016107839061584f565b60208301515182515114610bda5760405162461bcd60e51b8152600401610783906158ac565b60208201515183515114610c005760405162461bcd60e51b815260040161078390615909565b600080610c9960006001018054610c1690615966565b80601f0160208091040260200160405190810160405280929190818152602001828054610c4290615966565b8015610c8f5780601f10610c6457610100808354040283529160200191610c8f565b820191906000526020600020905b815481529060010190602001808311610c7257829003601f168201915b5050505050613197565b8551602090810151604051939550919350600292610cb89291016159a1565b60408051601f1981840301815290829052610cd291615716565b602060405180830381855afa158015610cef573d6000803e3d6000fd5b5050506040513d601f19601f82011682018060405250810190610d129190615732565b6002610d1d836131bd565b604051610d2a9190615716565b602060405180830381855afa158015610d47573d6000803e3d6000fd5b5050506040513d601f19601f82011682018060405250810190610d6a9190615732565b14610dfc5760405162461bcd60e51b815260206004820152605660248201527f546865207032706b6820696e2050277320756e6c6f636b656420636f6d6d697460448201527f6d656e74207472616e73616374696f6e20646f6573206e6f7420636f72726573606482015275706f6e6420746f2056657269666965722773206f6e6560501b608482015260a401610783565b602080850151810151604051600292610e169291016159a1565b60408051601f1981840301815290829052610e3091615716565b602060405180830381855afa158015610e4d573d6000803e3d6000fd5b5050506040513d601f19601f82011682018060405250810190610e709190615732565b6002610e7b846131bd565b604051610e889190615716565b602060405180830381855afa158015610ea5573d6000803e3d6000fd5b5050506040513d601f19601f82011682018060405250810190610ec89190615732565b14610ee55760405162461bcd60e51b8152600401610783906159b6565b600054610ef188613288565b6020015114610f125760405162461bcd60e51b815260040161078390615a30565b600054610f1e87613288565b6020015114610f3f5760405162461bcd60e51b815260040161078390615a97565b610f47615266565b610f5088613364565b6020820152610f5e87613364565b8152610f686152b2565b61108d8960006001018054610f7c90615966565b80601f0160208091040260200160405190810160405280929190818152602001828054610fa890615966565b8015610ff55780601f10610fca57610100808354040283529160200191610ff5565b820191906000526020600020905b815481529060010190602001808311610fd857829003601f168201915b50505050506000600301805461100a90615966565b80601f016020809104026020016040519081016040528092919081815260200182805461103690615966565b80156110835780601f1061105857610100808354040283529160200191611083565b820191906000526020600020905b81548152906001019060200180831161106657829003601f168201915b5050505050613477565b81526040516002906110a190600590615afe565b602060405180830381855afa1580156110be573d6000803e3d6000fd5b5050506040513d601f19601f820116820180604052508101906110e19190615732565b600261112b8360005b602002015185600160200201515161110f8760015b60200201516020015160006134d9565b6111268860015b60200201516040015160006134d9565b613537565b6040516111389190615716565b602060405180830381855afa158015611155573d6000803e3d6000fd5b5050506040513d601f19601f820116820180604052508101906111789190615732565b148061124d575060405160029061119190600590615afe565b602060405180830381855afa1580156111ae573d6000803e3d6000fd5b5050506040513d601f19601f820116820180604052508101906111d19190615732565b60026111fe8360005b60200201518560016020020151516111f3906001615b9a565b61110f8760016110ff565b60405161120b9190615716565b602060405180830381855afa158015611228573d6000803e3d6000fd5b5050506040513d601f19601f8201168201806040525081019061124b9190615732565b145b80611316575060405160029061126590600590615afe565b602060405180830381855afa158015611282573d6000803e3d6000fd5b5050506040513d601f19601f820116820180604052508101906112a59190615732565b60026112c78360005b60200201518560016020020151516111f3906002615b9a565b6040516112d49190615716565b602060405180830381855afa1580156112f1573d6000803e3d6000fd5b5050506040513d601f19601f820116820180604052508101906113149190615732565b145b806113df575060405160029061132e90600590615afe565b602060405180830381855afa15801561134b573d6000803e3d6000fd5b5050506040513d601f19601f8201168201806040525081019061136e9190615732565b60026113908360005b60200201518560016020020151516111f3906003615b9a565b60405161139d9190615716565b602060405180830381855afa1580156113ba573d6000803e3d6000fd5b5050506040513d601f19601f820116820180604052508101906113dd9190615732565b145b6113fb5760405162461bcd60e51b815260040161078390615bbf565b61140f8860006001018054610f7c90615966565b602082015260405160029061142690600490615afe565b602060405180830381855afa158015611443573d6000803e3d6000fd5b5050506040513d601f19601f820116820180604052508101906114669190615732565b600261148d8360015b60200201518551516114828760006110ff565b611126886000611116565b60405161149a9190615716565b602060405180830381855afa1580156114b7573d6000803e3d6000fd5b5050506040513d601f19601f820116820180604052508101906114da9190615732565b14806115a957506040516002906114f390600490615afe565b602060405180830381855afa158015611510573d6000803e3d6000fd5b5050506040513d601f19601f820116820180604052508101906115339190615732565b600261155a8360015b602002015185515161154f906001615b9a565b6114828760006110ff565b6040516115679190615716565b602060405180830381855afa158015611584573d6000803e3d6000fd5b5050506040513d601f19601f820116820180604052508101906115a79190615732565b145b8061166c57506040516002906115c190600490615afe565b602060405180830381855afa1580156115de573d6000803e3d6000fd5b5050506040513d601f19601f820116820180604052508101906116019190615732565b600261161d8360015b602002015185515161154f906002615b9a565b60405161162a9190615716565b602060405180830381855afa158015611647573d6000803e3d6000fd5b5050506040513d601f19601f8201168201806040525081019061166a9190615732565b145b8061172f575060405160029061168490600490615afe565b602060405180830381855afa1580156116a1573d6000803e3d6000fd5b5050506040513d601f19601f820116820180604052508101906116c49190615732565b60026116e08360015b602002015185515161154f906003615b9a565b6040516116ed9190615716565b602060405180830381855afa15801561170a573d6000803e3d6000fd5b5050506040513d601f19601f8201168201806040525081019061172d9190615732565b145b61174b5760405162461bcd60e51b815260040161078390615c1c565b6008805462ff000019166201000090811791829055604051600080516020615ef7833981519152926117e292900460ff16906040808252603d908201527f50726f6f66207375636365737366756c6c792076657269666965643a2073746160608201527f74652e76616c696450726f6f665375626d6974746564203d20747275650000006080820152901515602082015260a00190565b60405180910390a1505050505050505050565b60085460408051818152603b918101919091527f50726f6f66207375626d697474656420746f6f206c6174653a2073746174652e60608201527f76616c696450726f6f665375626d6974746564203d2066616c7365000000000060808201526201000090910460ff1615156020820152600080516020615ef78339815191529060a0015b60405180910390a15050565b60075460065461189591906156fe565b421080156118f1575060085460ff16151560011480156118c2575060085460ff6101009091041615156001145b80156118d7575060085462010000900460ff16155b80156118f157506008546301000000900460ff1615156001145b15611d3557600061190182612cf2565b6001600160e01b031916146119285760405162461bcd60e51b8152600401610783906157af565b600061193382613364565b9050600061194b8360006001018054610f7c90615966565b9050600260006005016040516119619190615afe565b602060405180830381855afa15801561197e573d6000803e3d6000fd5b5050506040513d601f19601f820116820180604052508101906119a19190615732565b60026119cd8360001c85600001516119be876020015160006134d9565b611126886040015160006134d9565b6040516119da9190615716565b602060405180830381855afa1580156119f7573d6000803e3d6000fd5b5050506040513d601f19601f82011682018060405250810190611a1a9190615732565b1480611ae75750604051600290611a3390600590615afe565b602060405180830381855afa158015611a50573d6000803e3d6000fd5b5050506040513d601f19601f82011682018060405250810190611a739190615732565b8251600290611a98908490611a89906001615b9a565b6119be876020015160006134d9565b604051611aa59190615716565b602060405180830381855afa158015611ac2573d6000803e3d6000fd5b5050506040513d601f19601f82011682018060405250810190611ae59190615732565b145b80611ba35750604051600290611aff90600590615afe565b602060405180830381855afa158015611b1c573d6000803e3d6000fd5b5050506040513d601f19601f82011682018060405250810190611b3f9190615732565b8251600290611b54908490611a899084615b9a565b604051611b619190615716565b602060405180830381855afa158015611b7e573d6000803e3d6000fd5b5050506040513d601f19601f82011682018060405250810190611ba19190615732565b145b80611c605750604051600290611bbb90600590615afe565b602060405180830381855afa158015611bd8573d6000803e3d6000fd5b5050506040513d601f19601f82011682018060405250810190611bfb9190615732565b8251600290611c11908490611a89906003615b9a565b604051611c1e9190615716565b602060405180830381855afa158015611c3b573d6000803e3d6000fd5b5050506040513d601f19601f82011682018060405250810190611c5e9190615732565b145b611c7c5760405162461bcd60e51b815260040161078390615bbf565b6008805464ff00000000191664010000000090811791829055604051600080516020615ef783398151915292611d2892900460ff169060408082526048908201527f5265736f6c76652056616c69642044697370757465207375636365737366756c60608201527f6c792065786563757465643a2073746174652e64697370757465436c6f73656460808201526750203d207472756560c01b60a0820152901515602082015260c00190565b60405180910390a1505050565b60085460408051818152603a918101919091527f5265736f6c76652056616c69642044697370757465206661696c65643a20737460608201527f6174652e64697370757465436c6f73656450203d2066616c7365000000000000608082015264010000000090910460ff1615156020820152600080516020615ef78339815191529060a001610614565b60065442108015611e1a575060085460ff1615156001148015611def575060085460ff6101009091041615156001145b8015611e04575060085462010000900460ff16155b8015611e1a57506008546301000000900460ff16155b1561298857600754600654611e2f91906156fe565b611e3883613580565b63ffffffff1611611f0c5760405162461bcd60e51b815260206004820152608660248201527f436f6d6d69746d656e74207472616e73616374696f6e206f662050206973207560448201527f6e6c6f636b6564206f722074696d656c6f636b206f66207468652074696d656c60648201527f6f636b656420547820697320736d616c6c6572206f7220657175616c2074686160848201527f6e2054696d656c6f636b2054202b2052656c61746976652054696d656c6f636b60a482015265081517dc995b60d21b60c482015260e401610783565b6000611f1782613580565b63ffffffff1614611f3a5760405162461bcd60e51b8152600401610783906157f4565b611f426151e7565b611f4a61522d565b6040805180820190915260008082526020820152611f6785612d1c565b9084529084529050611f7884612fdf565b6020848101919091528085018290526060909101519082015114611fae5760405162461bcd60e51b81526004016107839061584f565b60208301515182515114611fd45760405162461bcd60e51b8152600401610783906158ac565b60208201515183515114611ffa5760405162461bcd60e51b815260040161078390615909565b60008061201060006001018054610c1690615966565b855160209081015160405193955091935060029261202f9291016159a1565b60408051601f198184030181529082905261204991615716565b602060405180830381855afa158015612066573d6000803e3d6000fd5b5050506040513d601f19601f820116820180604052508101906120899190615732565b6002612094836131bd565b6040516120a19190615716565b602060405180830381855afa1580156120be573d6000803e3d6000fd5b5050506040513d601f19601f820116820180604052508101906120e19190615732565b146121715760405162461bcd60e51b815260206004820152605460248201527f546865207032706b6820696e20502773206c6f636b656420636f6d6d69746d6560448201527f6e74207472616e73616374696f6e20646f6573206e6f7420636f72726573706f6064820152736e6420746f2056657269666965722773206f6e6560601b608482015260a401610783565b60208085015181015160405160029261218b9291016159a1565b60408051601f19818403018152908290526121a591615716565b602060405180830381855afa1580156121c2573d6000803e3d6000fd5b5050506040513d601f19601f820116820180604052508101906121e59190615732565b60026121f0846131bd565b6040516121fd9190615716565b602060405180830381855afa15801561221a573d6000803e3d6000fd5b5050506040513d601f19601f8201168201806040525081019061223d9190615732565b1461225a5760405162461bcd60e51b8152600401610783906159b6565b60005461226688613288565b60200151146122875760405162461bcd60e51b815260040161078390615a30565b60005461229387613288565b60200151146122b45760405162461bcd60e51b815260040161078390615a97565b6122bc615266565b6122c588613364565b60208201526122d387613364565b81526122dd6152b2565b6122f18960006001018054610f7c90615966565b815260405160029061230590600590615afe565b602060405180830381855afa158015612322573d6000803e3d6000fd5b5050506040513d601f19601f820116820180604052508101906123459190615732565b60026123528360006110ea565b60405161235f9190615716565b602060405180830381855afa15801561237c573d6000803e3d6000fd5b5050506040513d601f19601f8201168201806040525081019061239f9190615732565b148061245457506040516002906123b890600590615afe565b602060405180830381855afa1580156123d5573d6000803e3d6000fd5b5050506040513d601f19601f820116820180604052508101906123f89190615732565b60026124058360006111da565b6040516124129190615716565b602060405180830381855afa15801561242f573d6000803e3d6000fd5b5050506040513d601f19601f820116820180604052508101906124529190615732565b145b80612508575060405160029061246c90600590615afe565b602060405180830381855afa158015612489573d6000803e3d6000fd5b5050506040513d601f19601f820116820180604052508101906124ac9190615732565b60026124b98360006112ae565b6040516124c69190615716565b602060405180830381855afa1580156124e3573d6000803e3d6000fd5b5050506040513d601f19601f820116820180604052508101906125069190615732565b145b806125bc575060405160029061252090600590615afe565b602060405180830381855afa15801561253d573d6000803e3d6000fd5b5050506040513d601f19601f820116820180604052508101906125609190615732565b600261256d836000611377565b60405161257a9190615716565b602060405180830381855afa158015612597573d6000803e3d6000fd5b5050506040513d601f19601f820116820180604052508101906125ba9190615732565b145b6125d85760405162461bcd60e51b815260040161078390615bbf565b6125ec8860006001018054610f7c90615966565b602082015260405160029061260390600490615afe565b602060405180830381855afa158015612620573d6000803e3d6000fd5b5050506040513d601f19601f820116820180604052508101906126439190615732565b600261265083600161146f565b60405161265d9190615716565b602060405180830381855afa15801561267a573d6000803e3d6000fd5b5050506040513d601f19601f8201168201806040525081019061269d9190615732565b148061275257506040516002906126b690600490615afe565b602060405180830381855afa1580156126d3573d6000803e3d6000fd5b5050506040513d601f19601f820116820180604052508101906126f69190615732565b600261270383600161153c565b6040516127109190615716565b602060405180830381855afa15801561272d573d6000803e3d6000fd5b5050506040513d601f19601f820116820180604052508101906127509190615732565b145b80612806575060405160029061276a90600490615afe565b602060405180830381855afa158015612787573d6000803e3d6000fd5b5050506040513d601f19601f820116820180604052508101906127aa9190615732565b60026127b783600161160a565b6040516127c49190615716565b602060405180830381855afa1580156127e1573d6000803e3d6000fd5b5050506040513d601f19601f820116820180604052508101906128049190615732565b145b806128ba575060405160029061281e90600490615afe565b602060405180830381855afa15801561283b573d6000803e3d6000fd5b5050506040513d601f19601f8201168201806040525081019061285e9190615732565b600261286b8360016116cd565b6040516128789190615716565b602060405180830381855afa158015612895573d6000803e3d6000fd5b5050506040513d601f19601f820116820180604052508101906128b89190615732565b145b6128d65760405162461bcd60e51b815260040161078390615c1c565b8651805160095560208089015151600a55606091820151600b556008805463ff0000001916630100000090811791829055604080518181526037918101919091527f44697370757465207375636365737366756c6c79206f70656e65643a20737461948101949094527f74652e646973707574654f70656e6564203d20747275650000000000000000006080850152900460ff16151590820152600080516020615ef78339815191529060a0016117e2565b60085460408051818152602f918101919091527f44697370757465206e6f74206f70656e65643a2073746174652e64697370757460608201526e654f70656e6564203d2066616c736560881b6080820152630100000090910460ff1615156020820152600080516020615ef78339815191529060a001611879565b6000805460018054919291612a1790615966565b80601f0160208091040260200160405190810160405280929190818152602001828054612a4390615966565b8015612a905780601f10612a6557610100808354040283529160200191612a90565b820191906000526020600020905b815481529060010190602001808311612a7357829003601f168201915b5050505050908060020160009054906101000a900460e01b90806003018054612ab890615966565b80601f0160208091040260200160405190810160405280929190818152602001828054612ae490615966565b8015612b315780601f10612b0657610100808354040283529160200191612b31565b820191906000526020600020905b815481529060010190602001808311612b1457829003601f168201915b505050505090806004018054612b4690615966565b80601f0160208091040260200160405190810160405280929190818152602001828054612b7290615966565b8015612bbf5780601f10612b9457610100808354040283529160200191612bbf565b820191906000526020600020905b815481529060010190602001808311612ba257829003601f168201915b505050505090806005018054612bd490615966565b80601f0160208091040260200160405190810160405280929190818152602001828054612c0090615966565b8015612c4d5780601f10612c2257610100808354040283529160200191612c4d565b820191906000526020600020905b815481529060010190602001808311612c3057829003601f168201915b5050505050908060060154908060070154905088565b60008990558751612c7b9060019060208b01906152d0565b506002805463ffffffff191660e089901c1790558551612ca29060039060208901906152d0565b508451612cb69060049060208801906152d0565b508351612cca9060059060208701906152d0565b50600692909255600755600f5550506008805465ffffffffff00191661010017905550505050565b6000612d0d8260048451612d069190615798565b60046135a6565b612d1690615c79565b92915050565b604080516080810182526000808252602082018190529181018290526060810191909152604080518082019091526000808252602082015260408051808201825260008082526020808301829052835160808101855282815290810182905292830181905260608301529060408051808201909152600080825260208201526040805180820190915260008082526020820152612de16040518060a0016040528060008152602001606081526020016060815260200160608152602001606081525090565b6004808252612df390899060006136b3565b8083526020830191909152612e0b90899060006137aa565b845260408401526060830152608082015260005b6003811015612fd05780612ea657612e728983606001518381518110612e4757612e47615839565b602002602001015184604001518481518110612e6557612e65615839565b6020026020010151613972565b6040880152606087015260208601526080820151805182908110612e9857612e98615839565b602090810291909101015185525b8060011415612f5357612f1f612ef78a84606001518481518110612ecc57612ecc615839565b602002602001015185604001518581518110612eea57612eea615839565b60200260200101516139d7565b604051602001612f0991815260200190565b6040516020818303038152906040526000613a7a565b6001600160601b03191660208401526080820151805182908110612f4557612f45615839565b602090810291909101015183525b8060021415612fbe57612f948983606001518381518110612f7657612f76615839565b602002602001015184604001518481518110612eea57612eea615839565b60208501526080820151805182908110612fb057612fb0615839565b602090810291909101015184525b80612fc881615cb0565b915050612e1f565b50929790965090945092505050565b604080516080810182526000808252602082018190529181018290526060810191909152604080518082019091526000808252602082015260408051608081018252600080825260208201819052918101829052606081019190915260408051808201909152600080825260208201526130816040518060a0016040528060008152602001606081526020016060815260200160608152602001606081525090565b600480825261309390879060006136b3565b80835260208301919091526130ab90879060006137aa565b845260408401526060830152608082015260005b600281101561318b578061311f576130e78783606001518381518110612e4757612e47615839565b604087015260608601526020850152608082015180518290811061310d5761310d615839565b60209081029190910101518452613179565b806001141561317957613145612ef78884606001518481518110612ecc57612ecc615839565b6001600160601b0319166020840152608082015180518290811061316b5761316b615839565b602090810291909101015183525b8061318381615cb0565b9150506130bf565b50919590945092505050565b6060806131a783600260216135a6565b6131b484602560216135a6565b91509150915091565b606060036002836040516131d19190615716565b602060405180830381855afa1580156131ee573d6000803e3d6000fd5b5050506040513d601f19601f820116820180604052508101906132119190615732565b60405160200161322391815260200190565b60408051601f198184030181529082905261323d91615716565b602060405180830381855afa15801561325a573d6000803e3d6000fd5b50506040518051613272925060601b906020016159a1565b6040516020818303038152906040529050919050565b60408051606080820183526000808352602080840182905283850182905284519283018552818352820181905292810192909252906132c8836004613b0c565b5081526132d883602560046135a6565b6132e190615c79565b6001600160e01b031916604082015261330e61330084600560256135a6565b61330990615ccb565b613bcf565b60208201528051600114612d165760405162461bcd60e51b815260206004820152601b60248201527f54782068617320746f6f206d616e7920696e7075747320283e312900000000006044820152606401610783565b61338b6040518060600160405280600060ff16815260200160608152602001606081525090565b6133b26040518060600160405280600060ff16815260200160608152602001606081525090565b6000604051806080016040528060428152602001615eb560429139905083602a815181106133e2576133e2615839565b6020910101516001600160f81b031916604760f81b141561341a5761341061340b85602f613c70565b613ce2565b6020830152613459565b83602a8151811061342d5761342d615839565b6020910101516001600160f81b031916602360f91b14156134595761345384602f613cf7565b60208301525b61346761340b856051613c70565b604083015250601b815292915050565b60008061348785600060296135a6565b846134a0876072808a5161349b9190615798565b6135a6565b856040516020016134b49493929190615cef565b60405160208183030381529060405290506134ce81613d74565b9150505b9392505050565b60006134e68260206156fe565b8351101561352e5760405162461bcd60e51b8152602060048201526015602482015274746f55696e743235365f6f75744f66426f756e647360581b6044820152606401610783565b50016020015190565b60606000806135528761354b601b89615d46565b8787613e33565b6040805160208101939093528281019190915280518083038201815260609092019052979650505050505050565b6000612d1661359f61359a8460048651612d069190615798565b614064565b6000614131565b6060816135b481601f6156fe565b10156135f35760405162461bcd60e51b815260206004820152600e60248201526d736c6963655f6f766572666c6f7760901b6044820152606401610783565b6135fd82846156fe565b845110156136415760405162461bcd60e51b8152602060048201526011602482015270736c6963655f6f75744f66426f756e647360781b6044820152606401610783565b60608215801561366057604051915060008252602082016040526136aa565b6040519150601f8416801560200281840101858101878315602002848b0101015b81831015613699578051835260209283019201613681565b5050858452601f01601f1916604052505b50949350505050565b60606000806000806136c58888613b0c565b975092508515806136d557508286115b156136e2578291506136e6565b8591505b6000826001600160401b0381111561370057613700615387565b604051908082528060200260200182016040528015613729578160200160208202803683370190505b50905060005b8381101561379d5761374260248a6156fe565b985061374e8a8a613b0c565b809a5081945050508282828151811061376957613769615839565b602090810291909101015261377f8360046156fe565b613789908a6156fe565b98508061379581615cb0565b91505061372f565b5098969750505050505050565b60608060606000806000806137bf8a8a613b0c565b995092508715806137cf57508288115b156137dc578291506137e0565b8791505b6000826001600160401b038111156137fa576137fa615387565b604051908082528060200260200182016040528015613823578160200160208202803683370190505b5090506000836001600160401b0381111561384057613840615387565b604051908082528060200260200182016040528015613869578160200160208202803683370190505b5090506000846001600160401b0381111561388657613886615387565b6040519080825280602002602001820160405280156138af578160200160208202803683370190505b50905060005b85811015613960576138c98e8e604061418e565b8282815181106138db576138db615839565b60209081029190910101526138f160088e6156fe565b9c506138fd8e8e613b0c565b809e5081965050508c84828151811061391857613918615839565b6020026020010181815250508483828151811061393757613937615839565b602090810291909101015261394c858e6156fe565b9c508061395881615cb0565b9150506138b5565b509c919b509998509650505050505050565b60008060006139828686866144f8565b156139c45761399b866139968760036156fe565b613c70565b6139aa876139968860286156fe565b6139b98861399689604c6156fe565b9250925092506139ce565b5060009150819050805b93509350939050565b60006139e48484846148a5565b15613a0e576139fd846139f88560036156fe565b613a7a565b6001600160601b03191690506134d2565b613a198484846149ca565b15613a2d576139fd846139f88560026156fe565b613a38848484614a85565b15613a5357613a4c846139968560026156fe565b90506134d2565b613a5e8484846144f8565b15613a7257613a4c846139968560026156fe565b5060006134d2565b600080805b6014816001600160a01b03161015613b0157613a9c816013615d69565b613aa7906008615d91565b6001600160a01b03168585836001600160a01b0316613ac691906156fe565b81518110613ad657613ad6615839565b0160200151613aed9160f89190911c901b83615dc0565b915080613af981615deb565b915050613a7f565b5060601b9392505050565b6000806000848481518110613b2357613b23615839565b016020015160f81c9050613b386001856156fe565b935060fd8160ff161015613b535760ff169150829050613bc8565b8060ff1660fd1415613b8057613b6b8585601061418e565b613b768560026156fe565b9250925050613bc8565b8060ff1660fe1415613ba357613b988585602061418e565b613b768560046156fe565b8060ff1660ff1415613bc657613bbb8585604061418e565b613b768560086156fe565b505b9250929050565b60408051602080825281830190925260009182919060208201818036833701905050905060005b6020811015613c6657838160208110613c1157613c11615839565b1a60f81b826001613c23846020615798565b613c2d9190615798565b81518110613c3d57613c3d615839565b60200101906001600160f81b031916908160001a90535080613c5e81615cb0565b915050613bf6565b506134d281614b06565b600080805b6020811015613cda57613c8981601f615798565b613c9490600861574b565b85613c9f86846156fe565b81518110613caf57613caf615839565b0160200151613cc69160f89190911c901b836156fe565b915080613cd281615cb0565b915050613c75565b509392505050565b60608160405160200161327291815260200190565b60606000805b601f811015613d6257613d1181601e615798565b613d1c90600861574b565b85613d2786846156fe565b81518110613d3757613d37615839565b0160200151613d4e9160f89190911c901b836156fe565b915080613d5a81615cb0565b915050613cfd565b50613d6c81614b23565b949350505050565b600060028083604051613d879190615716565b602060405180830381855afa158015613da4573d6000803e3d6000fd5b5050506040513d601f19601f82011682018060405250810190613dc79190615732565b604051602001613dd991815260200190565b60408051601f1981840301815290829052613df391615716565b602060405180830381855afa158015613e10573d6000803e3d6000fd5b5050506040513d601f19601f82011682018060405250810190612d169190615732565b600080806401000003d019613e55607f600189901c166401000003d01961574b565b860890506401000003d019811180613e7e575070014551231950b75fc4402da1732fc9bebe1984115b80613e9a575070014551231950b75fc4402da1732fc9bebe1985115b80613ea3575083155b80613eac575084155b80613eba575060018660ff16115b15613ecc57600080925092505061405b565b6000613eea8670014551231950b75fc4402da1732fc9bebe19614b97565b905060006401000003d0198060076401000003d01960008709086401000003d019808687098609089050613f3a816004613f2b6401000003d01960016156fe565b613f359190615e28565b614c63565b90506000613f4b60ff8a16836156fe565b613f569060026156fe565b60011615613f7357613f6e826401000003d019615798565b613f75565b815b905060008080613ff870014551231950b75fc4402da1732fc9bebe19613fad8f70014551231950b75fc4402da1732fc9bebe19615798565b88097f79be667ef9dcbbac55a06295ce870b07029bfcdb2dce28d959f2815b16f817987f483ada7726a3c4655da4fbfc0e1108a8fd17b448a68554199c47d08ffb10d4b86001614d0b565b925092509250600080600061403270014551231950b75fc4402da1732fc9bebe198061402657614026615e12565b8e8b098b896001614d0b565b925092509250600080614049888888888888614d84565b909e509c505050505050505050505050505b94509492505050565b6060600082516001600160401b0381111561408157614081615387565b6040519080825280601f01601f1916602001820160405280156140ab576020820181803683370190505b50905060005b835181101561412a578381815181106140cc576140cc615839565b602001015160f81c60f81b8260018387516140e79190615798565b6140f19190615798565b8151811061410157614101615839565b60200101906001600160f81b031916908160001a9053508061412281615cb0565b9150506140b1565b5092915050565b600061413e8260046156fe565b835110156141855760405162461bcd60e51b8152602060048201526014602482015273746f55696e7433325f6f75744f66426f756e647360601b6044820152606401610783565b50016004015190565b600081600814156141ba578383815181106141ab576141ab615839565b016020015160f81c90506134d2565b816010141561421b57836141cf8460016156fe565b815181106141df576141df615839565b01602001516141f39060f81c610100615e4a565b61ffff1684848151811061420957614209615839565b0160200151613a4c919060f81c6156fe565b816020141561430157836142308460036156fe565b8151811061424057614240615839565b01602001516142569060f81c6301000000615e6b565b63ffffffff16846142688560026156fe565b8151811061427857614278615839565b016020015161428d9060f81c62010000615e6b565b63ffffffff168561429f8660016156fe565b815181106142af576142af615839565b01602001516142c39060f81c610100615e6b565b63ffffffff168686815181106142db576142db615839565b01602001516142ed919060f81c6156fe565b6142f791906156fe565b613a4c91906156fe565b81604014156134d257836143168460076156fe565b8151811061432657614326615839565b01602001516143409060f81c670100000000000000615e8e565b6001600160401b0316846143558560066156fe565b8151811061436557614365615839565b016020015161437e9060f81c6601000000000000615e8e565b6001600160401b0316856143938660056156fe565b815181106143a3576143a3615839565b01602001516143b99060f81c600160281b615e8e565b6001600160401b0316866143ce8760046156fe565b815181106143de576143de615839565b01602001516143f59060f81c640100000000615e8e565b6001600160401b03168761440a8860036156fe565b8151811061441a5761441a615839565b01602001516144309060f81c6301000000615e8e565b6001600160401b0316886144458960026156fe565b8151811061445557614455615839565b016020015161446a9060f81c62010000615e8e565b6001600160401b03168961447f8a60016156fe565b8151811061448f5761448f615839565b01602001516144a39060f81c610100615e8e565b6001600160401b03168a8a815181106144be576144be615839565b01602001516144d0919060f81c6156fe565b6144da91906156fe565b6144e491906156fe565b6144ee91906156fe565b6142ed91906156fe565b60008160721480156145385750836145118460006156fe565b8151811061452157614521615839565b6020910101516001600160f81b031916603b60f91b145b801561457257508361454b8460016156fe565b8151811061455b5761455b615839565b6020910101516001600160f81b031916602160f81b145b80156145ac5750836145858460236156fe565b8151811061459557614595615839565b6020910101516001600160f81b031916602b60fa1b145b80156145e65750836145bf8460246156fe565b815181106145cf576145cf615839565b6020910101516001600160f81b031916606360f81b145b80156146205750836145f98460256156fe565b8151811061460957614609615839565b6020910101516001600160f81b031916607560f81b145b801561465a5750836146338460266156fe565b8151811061464357614643615839565b6020910101516001600160f81b031916605560f91b145b801561469457508361466d8460276156fe565b8151811061467d5761467d615839565b6020910101516001600160f81b031916600160fd1b145b80156146ce5750836146a78460486156fe565b815181106146b7576146b7615839565b6020910101516001600160f81b031916601160fb1b145b80156147085750836146e18460496156fe565b815181106146f1576146f1615839565b6020910101516001600160f81b031916606760f81b145b801561474257508361471b84604a6156fe565b8151811061472b5761472b615839565b6020910101516001600160f81b031916602160f81b145b801561477c57508361475584606c6156fe565b8151811061476557614765615839565b6020910101516001600160f81b03191660ad60f81b145b80156147b657508361478f84606d6156fe565b8151811061479f5761479f615839565b6020910101516001600160f81b031916602960f91b145b80156147f05750836147c984606e6156fe565b815181106147d9576147d9615839565b6020910101516001600160f81b031916605960f91b145b801561482a57508361480384606f6156fe565b8151811061481357614813615839565b6020910101516001600160f81b031916607560f81b145b801561486457508361483d8460706156fe565b8151811061484d5761484d615839565b6020910101516001600160f81b031916600d60fb1b145b8015613d6c5750836148778460716156fe565b8151811061488757614887615839565b6020910101516001600160f81b031916605160f81b14949350505050565b60008160191480156148db57508383815181106148c4576148c4615839565b6020910101516001600160f81b031916603b60f91b145b80156149155750836148ee8460016156fe565b815181106148fe576148fe615839565b6020910101516001600160f81b03191660a960f81b145b801561494f5750836149288460026156fe565b8151811061493857614938615839565b6020910101516001600160f81b031916600560fa1b145b80156149895750836149628460176156fe565b8151811061497257614972615839565b6020910101516001600160f81b031916601160fb1b145b8015613d6c57508361499c8460186156fe565b815181106149ac576149ac615839565b6020910101516001600160f81b031916602b60fa1b14949350505050565b6000816017148015614a0a5750836149e38460006156fe565b815181106149f3576149f3615839565b6020910101516001600160f81b03191660a960f81b145b8015614a44575083614a1d8460016156fe565b81518110614a2d57614a2d615839565b6020910101516001600160f81b031916600560fa1b145b8015613d6c575083614a578460166156fe565b81518110614a6757614a67615839565b6020910101516001600160f81b031916608760f81b14949350505050565b6000816022148015614ac5575083614a9e8460006156fe565b81518110614aae57614aae615839565b6020910101516001600160f81b031916603560f91b145b8015613d6c575083614ad88460016156fe565b81518110614ae857614ae8615839565b6020910101516001600160f81b031916600160fd1b14949350505050565b80516000908290614b1a5750600092915050565b50506020015190565b60606001600160ff1b03821115614b7c5760405162461bcd60e51b815260206004820152601760248201527f56616c75652065786365656473207468652072616e67650000000000000000006044820152606401610783565b60405190506020815281602082015260408101604052919050565b60008215801590614ba85750818314155b8015614bb357508115155b614bf05760405162461bcd60e51b815260206004820152600e60248201526d24b73b30b634b210373ab6b132b960911b6044820152606401610783565b6000600183825b8615614c5857614c078783615e28565b9050828680614c1857614c18615e12565b8780614c2657614c26615e12565b858409614c339089615798565b8608909450925086614c45818361574b565b614c4f9084615798565b97509150614bf7565b509195945050505050565b600082614c7257506000612d16565b81614c7f57506001612d16565b6001600160ff1b5b8015613cda576401000003d0198185161515860a6401000003d0198485090991506401000003d0196002820485161515860a6401000003d0198485090991506401000003d0196004820485161515860a6401000003d0198485090991506401000003d0196008820485161515860a6401000003d01984850909915060109004614c87565b6000808086614d21575084915083905082614d7a565b8660008060015b8315614d71576001841615614d4d57614d458383838d8d8d614dfc565b919450925090505b614d58600285615e28565b9350614d658a8a8a615091565b919b5099509750614d28565b91955093509150505b9450945094915050565b6000806000806000878b1415614dc8576401000003d019878b08614db15760008094509450505050614df1565b614dbc8b8b8b615091565b91945092509050614dde565b614dd68b8b8b8b8b8b614dfc565b919450925090505b614de9838383615195565b945094505050505b965096945050505050565b6000808088158015614e0c575087155b15614e1e575084915083905082615085565b85158015614e2a575084155b15614e3c575087915086905085615085565b614e44615354565b6401000003d0198889098082526401000003d01990890960208201526401000003d019858009604082018190526401000003d0199086096060820152604080516080810182529082015181906401000003d019908d0981526020016401000003d01983600360200201518c0981526020016401000003d01983600060200201518a0981526020016401000003d01983600160200201518909905260408101518151919250141580614efd57506060810151602082015114155b614f495760405162461bcd60e51b815260206004820152601e60248201527f557365206a6163446f75626c652066756e6374696f6e20696e737465616400006044820152606401610783565b614f51615354565b81516401000003d01990614f659082615798565b604084015108815260208201516401000003d01990614f849082615798565b606084015108602082015280516401000003d0199080096040820181905281516401000003d0199109606082018190526000906401000003d01990614fc99082615798565b60208401516401000003d01990800908604083015184519192506401000003d019918291829109600209615003906401000003d019615798565b8208905060006401000003d01980615021846401000003d019615798565b604086015187516401000003d0199190090860208501510990506401000003d019808460036020020151866001602002015109615064906401000003d019615798565b8208905060006401000003d019808a8e098551099297509095509093505050505b96509650969350505050565b60008080836150a75750849150839050826139ce565b60006401000003d019878809905060006401000003d019878809905060006401000003d019878809905060006401000003d01980848c09600409905060006401000003d019806401000003d0198586096000096401000003d019876003090890506401000003d01980838408615123906401000003d019615798565b6401000003d0198384090894506401000003d019806401000003d019868709600809615155906401000003d019615798565b6401000003d0198061516d896401000003d019615798565b860884090893506401000003d019808a8c09600209949b939a50939850919650505050505050565b60008060006151aa846401000003d019614b97565b905060006401000003d019828309905060006401000003d019828909905060006401000003d0198084860989099199919850909650505050505050565b60405180604001604052806002905b6040805160808101825260008082526020808301829052928201819052606082015282526000199092019101816151f65790505090565b60405180604001604052806002905b604080518082019091526000808252602082015281526020019060019003908161523c5790505090565b60405180604001604052806002905b61529c6040518060600160405280600060ff16815260200160608152602001606081525090565b8152602001906001900390816152755790505090565b60405180604001604052806002906020820280368337509192915050565b8280546152dc90615966565b90600052602060002090601f0160209004810192826152fe5760008555615344565b82601f1061531757805160ff1916838001178555615344565b82800160010185558215615344579182015b82811115615344578251825591602001919060010190615329565b50615350929150615372565b5090565b60405180608001604052806004906020820280368337509192915050565b5b808211156153505760008155600101615373565b634e487b7160e01b600052604160045260246000fd5b60006001600160401b03808411156153b7576153b7615387565b604051601f8501601f19908116603f011681019082821181831017156153df576153df615387565b816040528093508581528686860111156153f857600080fd5b858560208301376000602087830101525050509392505050565b60006020828403121561542457600080fd5b81356001600160401b0381111561543a57600080fd5b8201601f8101841361544b57600080fd5b613d6c8482356020840161539d565b600082601f83011261546b57600080fd5b6134d28383356020850161539d565b6000806040838503121561548d57600080fd5b82356001600160401b03808211156154a457600080fd5b6154b08683870161545a565b935060208501359150808211156154c657600080fd5b506154d38582860161545a565b9150509250929050565b6000602082840312156154ef57600080fd5b81356001600160401b0381111561550557600080fd5b613d6c8482850161545a565b60005b8381101561552c578181015183820152602001615514565b838111156108365750506000910152565b60008151808452615555816020860160208601615511565b601f01601f19169290920160200192915050565b60006101008a83528060208401526155838184018b61553d565b6001600160e01b03198a166040850152838103606085015290506155a7818961553d565b905082810360808401526155bb818861553d565b905082810360a08401526155cf818761553d565b60c0840195909552505060e001529695505050505050565b80356001600160e01b0319811681146155ff57600080fd5b919050565b60008060008060008060008060006101208a8c03121561562357600080fd5b8935985060208a01356001600160401b038082111561564157600080fd5b61564d8d838e0161545a565b995061565b60408d016155e7565b985060608c013591508082111561567157600080fd5b61567d8d838e0161545a565b975060808c013591508082111561569357600080fd5b61569f8d838e0161545a565b965060a08c01359150808211156156b557600080fd5b506156c28c828d0161545a565b94505060c08a0135925060e08a013591506101008a013590509295985092959850929598565b634e487b7160e01b600052601160045260246000fd5b60008219821115615711576157116156e8565b500190565b60008251615728818460208701615511565b9190910192915050565b60006020828403121561574457600080fd5b5051919050565b6000816000190483118215151615615765576157656156e8565b500290565b6020808252601490820152732330b4b632b2103a379039b2b7321022ba3432b960611b604082015260600190565b6000828210156157aa576157aa6156e8565b500390565b60208082526025908201527f436f6d6d69746d656e74207472616e73616374696f6e206f662050206973206c6040820152641bd8dad95960da1b606082015260800190565b60208082526025908201527f436f6d6d69746d656e74207472616e73616374696f6e206f662056206973206c6040820152641bd8dad95960da1b606082015260800190565b634e487b7160e01b600052603260045260246000fd5b6020808252603f908201527f50277320636f6d6d69746d656e74207472616e73616374696f6e20646f65732060408201527f6e6f742068617264636f646520562773207265766f636174696f6e206b657900606082015260800190565b6020808252603a908201527f416d6f756e74206d69736d61746368206265747765656e207032706b68206f6660408201527f205020616e64206c696768746e696e672048544c43206f662056000000000000606082015260800190565b6020808252603a908201527f416d6f756e74206d69736d61746368206265747765656e207032706b68206f6660408201527f205620616e64206c696768746e696e672048544c43206f662050000000000000606082015260800190565b600181811c9082168061597a57607f821691505b6020821081141561599b57634e487b7160e01b600052602260045260246000fd5b50919050565b6001600160601b031991909116815260140190565b60208082526054908201527f546865207032706b6820696e2056277320756e6c6f636b656420636f6d6d697460408201527f6d656e74207472616e73616374696f6e20646f6573206e6f7420636f72726573606082015273706f6e6420746f2050726f7665722773206f6e6560601b608082015260a00190565b60208082526041908201527f50277320636f6d6d69746d656e74207472616e73616374696f6e20646f65732060408201527f6e6f74207370656e64207468652066756e64696e67207472616e73616374696f6060820152603760f91b608082015260a00190565b60208082526041908201527f56277320636f6d6d69746d656e74207472616e73616374696f6e20646f65732060408201527f6e6f74207370656e64207468652066756e64696e67207472616e73616374696f6060820152603760f91b608082015260a00190565b600080835481600182811c915080831680615b1a57607f831692505b6020808410821415615b3a57634e487b7160e01b86526022600452602486fd5b818015615b4e5760018114615b5f57615b8c565b60ff19861689528489019650615b8c565b60008a81526020902060005b86811015615b845781548b820152908501908301615b6b565b505084890196505b509498975050505050505050565b600060ff821660ff84168060ff03821115615bb757615bb76156e8565b019392505050565b60208082526037908201527f496e76616c6964207369676e6174757265206f662056206f76657220636f6d6d60408201527f69746d656e74207472616e73616374696f6e206f662050000000000000000000606082015260800190565b60208082526037908201527f496e76616c6964207369676e6174757265206f662050206f76657220636f6d6d60408201527f69746d656e74207472616e73616374696f6e206f662056000000000000000000606082015260800190565b805160208201516001600160e01b03198082169291906004831015615ca85780818460040360031b1b83161693505b505050919050565b6000600019821415615cc457615cc46156e8565b5060010190565b8051602080830151919081101561599b5760001960209190910360031b1b16919050565b60008551615d01818460208a01615511565b855190830190615d15818360208a01615511565b8551910190615d28818360208901615511565b8451910190615d3b818360208801615511565b019695505050505050565b600060ff821660ff841680821015615d6057615d606156e8565b90039392505050565b60006001600160a01b0383811690831681811015615d8957615d896156e8565b039392505050565b60006001600160a01b0382811684821681151582840482111615615db757615db76156e8565b02949350505050565b60006001600160a01b03828116848216808303821115615de257615de26156e8565b01949350505050565b60006001600160a01b0382811680821415615e0857615e086156e8565b6001019392505050565b634e487b7160e01b600052601260045260246000fd5b600082615e4557634e487b7160e01b600052601260045260246000fd5b500490565b600061ffff80831681851681830481118215151615615db757615db76156e8565b600063ffffffff80831681851681830481118215151615615db757615db76156e8565b60006001600160401b0380831681851681830481118215151615615db757615db76156e856fe3078666666666666666666666666666666666666666666666666666666666666666562616165646365366166343861303362626664323565386364303336343134317cb76fce4caeb1fe1b0dd56de53b408af770b76cf5e9c88a1e2568a7d1e9889fa26469706673582212200551cb30c8a7e5bcee378cbf6efb604681202e844667a6c6c6a9355f58cc488364736f6c63430008090033",
  "linkReferences": {},
  "deployedLinkReferences": {}
}