{
  "_format": "hh-sol-artifact-1",
  "contractName": "LNBridge",
  "sourceName": "contracts/LNBridge.sol",
  "abi": [
    {
      "anonymous": false,
      "inputs": [
        {
          "indexed": false,
          "internalType": "string",
          "name": "label",
          "type": "string"
        },
        {
          "indexed": false,
          "internalType": "bool",
          "name": "stateStatus",
          "type": "bool"
        }
      ],
      "name": "stateEvent",
      "type": "event"
    },
    {
      "inputs": [],
      "name": "balanceDistr",
      "outputs": [
        {
          "internalType": "uint256",
          "name": "balP",
          "type": "uint256"
        },
        {
          "internalType": "uint256",
          "name": "balV",
          "type": "uint256"
        }
      ],
      "stateMutability": "view",
      "type": "function"
    },
    {
      "inputs": [],
      "name": "bridge",
      "outputs": [
        {
          "internalType": "bytes32",
          "name": "fundingTxId",
          "type": "bytes32"
        },
        {
          "internalType": "bytes",
          "name": "fundingTx_script",
          "type": "bytes"
        },
        {
          "internalType": "bytes4",
          "name": "fundingTx_index",
          "type": "bytes4"
        },
        {
          "internalType": "bytes",
          "name": "sighash",
          "type": "bytes"
        },
        {
          "internalType": "bytes",
          "name": "pkProver_Uncompressed",
          "type": "bytes"
        },
        {
          "internalType": "bytes",
          "name": "pkVerifier_Uncompressed",
          "type": "bytes"
        },
        {
          "internalType": "uint256",
          "name": "timelock",
          "type": "uint256"
        },
        {
          "internalType": "uint256",
          "name": "timelock_dispute",
          "type": "uint256"
        }
      ],
      "stateMutability": "view",
      "type": "function"
    },
    {
      "inputs": [
        {
          "internalType": "bytes",
          "name": "CT_P_locked",
          "type": "bytes"
        },
        {
          "internalType": "bytes",
          "name": "CT_V_unlocked",
          "type": "bytes"
        }
      ],
      "name": "dispute",
      "outputs": [],
      "stateMutability": "nonpayable",
      "type": "function"
    },
    {
      "inputs": [
        {
          "internalType": "bytes",
          "name": "revSecret",
          "type": "bytes"
        }
      ],
      "name": "resolveInvalidDispute",
      "outputs": [],
      "stateMutability": "nonpayable",
      "type": "function"
    },
    {
      "inputs": [
        {
          "internalType": "bytes",
          "name": "CT_P_unlocked",
          "type": "bytes"
        }
      ],
      "name": "resolveValidDispute",
      "outputs": [],
      "stateMutability": "nonpayable",
      "type": "function"
    },
    {
      "inputs": [],
      "name": "settle",
      "outputs": [],
      "stateMutability": "payable",
      "type": "function"
    },
    {
      "inputs": [
        {
          "internalType": "bytes32",
          "name": "_fundingTxId",
          "type": "bytes32"
        },
        {
          "internalType": "bytes",
          "name": "_fundingTx_script",
          "type": "bytes"
        },
        {
          "internalType": "bytes4",
          "name": "_fundingTx_index",
          "type": "bytes4"
        },
        {
          "internalType": "bytes",
          "name": "_sighash",
          "type": "bytes"
        },
        {
          "internalType": "bytes",
          "name": "_pkProver_Uncompressed",
          "type": "bytes"
        },
        {
          "internalType": "bytes",
          "name": "_pkVerifier_Uncompressed",
          "type": "bytes"
        },
        {
          "internalType": "uint256",
          "name": "_timelock",
          "type": "uint256"
        },
        {
          "internalType": "uint256",
          "name": "_timelock_dispute",
          "type": "uint256"
        }
      ],
      "name": "setup",
      "outputs": [],
      "stateMutability": "nonpayable",
      "type": "function"
    },
    {
      "inputs": [],
      "name": "state",
      "outputs": [
        {
          "internalType": "bool",
          "name": "setupDone",
          "type": "bool"
        },
        {
          "internalType": "bool",
          "name": "validProofSubmitted",
          "type": "bool"
        },
        {
          "internalType": "bool",
          "name": "disputeOpened",
          "type": "bool"
        },
        {
          "internalType": "bool",
          "name": "disputeClosedP",
          "type": "bool"
        },
        {
          "internalType": "bool",
          "name": "disputeClosedV",
          "type": "bool"
        }
      ],
      "stateMutability": "view",
      "type": "function"
    },
    {
      "inputs": [
        {
          "internalType": "bytes",
          "name": "CT_P_unlocked",
          "type": "bytes"
        },
        {
          "internalType": "bytes",
          "name": "CT_V_unlocked",
          "type": "bytes"
        }
      ],
      "name": "submitProof",
      "outputs": [],
      "stateMutability": "nonpayable",
      "type": "function"
    }
  ],
  "bytecode": "0x608060405234801561001057600080fd5b50614857806100206000396000f3fe6080604052600436106100865760003560e01c8063761553911161005957806376155391146100d3578063b0ced61d146100f3578063c19d93fb14610128578063e78cea921461019c578063f5cae57d146101c557600080fd5b806311da60b41461008b57806334da56b4146100955780633aef1477146100b35780637236d92f14610095575b600080fd5b6100936101e5565b005b3480156100a157600080fd5b506100936100b0366004613e5f565b50565b3480156100bf57600080fd5b506100936100ce366004613e93565b6102cf565b3480156100df57600080fd5b506100936100ee366004613e93565b610c5b565b3480156100ff57600080fd5b50600954600a5461010e919082565b604080519283526020830191909152015b60405180910390f35b34801561013457600080fd5b5060085461016a9060ff808216916101008104821691620100008204811691630100000081048216916401000000009091041685565b60408051951515865293151560208601529115159284019290925290151560608301521515608082015260a00161011f565b3480156101a857600080fd5b506101b1611430565b60405161011f989796959493929190613f52565b3480156101d157600080fd5b506100936101e0366004613fed565b611690565b60085460ff610100909104161515600114156101fd57565b60085462010000900460ff161515600114801561023a57506008546301000000900460ff1615801561023a5750600854640100000000900460ff16155b1561024157565b60085462010000900460ff161515600114801561026c57506008546301000000900460ff1615156001145b1561027357565b60085462010000900460ff161515600114801561029f5750600854640100000000900460ff1615156001145b156102a657565b60085460ff16151560011480156102c6575060085462010000900460ff16155b80156100b05750565b6006544210801561030f575060085460ff16151560011480156102fa5750600854610100900460ff16155b801561030f575060085462010000900460ff16155b15610bcc57600061031f8361171a565b6001600160e01b031916146103895760405162461bcd60e51b815260206004820152602560248201527f436f6d6d69746d656e74207472616e73616374696f6e206f662050206973206c6044820152641bd8dad95960da1b60648201526084015b60405180910390fd5b60006103948261171a565b6001600160e01b031916146103bb5760405162461bcd60e51b8152600401610380906140c7565b6103c3613c1d565b6103cb613c63565b60408051808201909152600080825260208201526103e885611744565b90845290845290506103f984611a07565b602084810191909152808501829052606090910151908201511461042f5760405162461bcd60e51b815260040161038090614122565b602083015151825151146104555760405162461bcd60e51b81526004016103809061417f565b6020820151518351511461047b5760405162461bcd60e51b8152600401610380906141dc565b6000806105146000600101805461049190614239565b80601f01602080910402602001604051908101604052809291908181526020018280546104bd90614239565b801561050a5780601f106104df5761010080835404028352916020019161050a565b820191906000526020600020905b8154815290600101906020018083116104ed57829003601f168201915b5050505050611bbf565b8551602090810151604051939550919350600292610533929101614274565b60408051601f198184030181529082905261054d91614289565b602060405180830381855afa15801561056a573d6000803e3d6000fd5b5050506040513d601f19601f8201168201806040525081019061058d91906142a5565b600261059883611be5565b6040516105a59190614289565b602060405180830381855afa1580156105c2573d6000803e3d6000fd5b5050506040513d601f19601f820116820180604052508101906105e591906142a5565b146106775760405162461bcd60e51b815260206004820152605660248201527f546865207032706b6820696e2050277320756e6c6f636b656420636f6d6d697460448201527f6d656e74207472616e73616374696f6e20646f6573206e6f7420636f72726573606482015275706f6e6420746f2056657269666965722773206f6e6560501b608482015260a401610380565b602080850151810151604051600292610691929101614274565b60408051601f19818403018152908290526106ab91614289565b602060405180830381855afa1580156106c8573d6000803e3d6000fd5b5050506040513d601f19601f820116820180604052508101906106eb91906142a5565b60026106f684611be5565b6040516107039190614289565b602060405180830381855afa158015610720573d6000803e3d6000fd5b5050506040513d601f19601f8201168201806040525081019061074391906142a5565b146107605760405162461bcd60e51b8152600401610380906142be565b60005461076c88611cb0565b602001511461078d5760405162461bcd60e51b815260040161038090614338565b60005461079987611cb0565b60200151146107ba5760405162461bcd60e51b81526004016103809061439f565b6107c2613c9c565b6107cb88611d8c565b60208201526107d987611d8c565b81526107e3613ce8565b61090889600060010180546107f790614239565b80601f016020809104026020016040519081016040528092919081815260200182805461082390614239565b80156108705780601f1061084557610100808354040283529160200191610870565b820191906000526020600020905b81548152906001019060200180831161085357829003601f168201915b50505050506000600301805461088590614239565b80601f01602080910402602001604051908101604052809291908181526020018280546108b190614239565b80156108fe5780601f106108d3576101008083540402835291602001916108fe565b820191906000526020600020905b8154815290600101906020018083116108e157829003601f168201915b5050505050611eab565b815260405160029061091c90600590614406565b602060405180830381855afa158015610939573d6000803e3d6000fd5b5050506040513d601f19601f8201168201806040525081019061095c91906142a5565b60026109a68360005b602002015185600160200201515161098a8760015b6020020151602001516000611f0d565b6109a18860015b6020020151604001516000611f0d565b611f6b565b6040516109b39190614289565b602060405180830381855afa1580156109d0573d6000803e3d6000fd5b5050506040513d601f19601f820116820180604052508101906109f391906142a5565b14610a105760405162461bcd60e51b8152600401610380906144a2565b610a2488600060010180546107f790614239565b6020820152604051600290610a3b90600490614406565b602060405180830381855afa158015610a58573d6000803e3d6000fd5b5050506040513d601f19601f82011682018060405250810190610a7b91906142a5565b6002610aa28360015b6020020151855151610a9787600061097a565b6109a1886000610991565b604051610aaf9190614289565b602060405180830381855afa158015610acc573d6000803e3d6000fd5b5050506040513d601f19601f82011682018060405250810190610aef91906142a5565b14610b0c5760405162461bcd60e51b8152600401610380906144ff565b866000602002015151600955866001602002015151600a556008805461ff0019166101009081179182905560405160008051602061480283398151915292610bb992900460ff16906040808252603d908201527f50726f6f66207375636365737366756c6c792076657269666965643a2073746160608201527f74652e76616c696450726f6f665375626d6974746564203d20747275650000006080820152901515602082015260a00190565b60405180910390a1505050505050505050565b60085460408051818152603b918101919091527f50726f6f66207375626d697474656420746f6f206c6174653a2073746174652e60608201527f76616c696450726f6f665375626d6974746564203d2066616c73650000000000608082015261010090910460ff16151560208201526000805160206148028339815191529060a0015b60405180910390a15050565b60065442108015610c9b575060085460ff1615156001148015610c865750600854610100900460ff16155b8015610c9b575060085462010000900460ff16155b156113b657600754600654610cb09190614572565b610cb983611fb4565b63ffffffff1611610d8d5760405162461bcd60e51b815260206004820152608660248201527f436f6d6d69746d656e74207472616e73616374696f6e206f662050206973207560448201527f6e6c6f636b6564206f722074696d656c6f636b206f66207468652074696d656c60648201527f6f636b656420547820697320736d616c6c6572206f7220657175616c2074686160848201527f6e2054696d656c6f636b2054202b2052656c61746976652054696d656c6f636b60a482015265081517dc995b60d21b60c482015260e401610380565b6000610d9882611fb4565b63ffffffff1614610dbb5760405162461bcd60e51b8152600401610380906140c7565b610dc3613c1d565b610dcb613c63565b6040805180820190915260008082526020820152610de885611744565b9084529084529050610df984611a07565b6020848101919091528085018290526060909101519082015114610e2f5760405162461bcd60e51b815260040161038090614122565b60208301515182515114610e555760405162461bcd60e51b81526004016103809061417f565b60208201515183515114610e7b5760405162461bcd60e51b8152600401610380906141dc565b600080610e916000600101805461049190614239565b8551602090810151604051939550919350600292610eb0929101614274565b60408051601f1981840301815290829052610eca91614289565b602060405180830381855afa158015610ee7573d6000803e3d6000fd5b5050506040513d601f19601f82011682018060405250810190610f0a91906142a5565b6002610f1583611be5565b604051610f229190614289565b602060405180830381855afa158015610f3f573d6000803e3d6000fd5b5050506040513d601f19601f82011682018060405250810190610f6291906142a5565b14610ff25760405162461bcd60e51b815260206004820152605460248201527f546865207032706b6820696e20502773206c6f636b656420636f6d6d69746d6560448201527f6e74207472616e73616374696f6e20646f6573206e6f7420636f72726573706f6064820152736e6420746f2056657269666965722773206f6e6560601b608482015260a401610380565b60208085015181015160405160029261100c929101614274565b60408051601f198184030181529082905261102691614289565b602060405180830381855afa158015611043573d6000803e3d6000fd5b5050506040513d601f19601f8201168201806040525081019061106691906142a5565b600261107184611be5565b60405161107e9190614289565b602060405180830381855afa15801561109b573d6000803e3d6000fd5b5050506040513d601f19601f820116820180604052508101906110be91906142a5565b146110db5760405162461bcd60e51b8152600401610380906142be565b6000546110e788611cb0565b60200151146111085760405162461bcd60e51b815260040161038090614338565b60005461111487611cb0565b60200151146111355760405162461bcd60e51b81526004016103809061439f565b61113d613c9c565b61114688611d8c565b602082015261115487611d8c565b815261115e613ce8565b61117289600060010180546107f790614239565b815260405160029061118690600590614406565b602060405180830381855afa1580156111a3573d6000803e3d6000fd5b5050506040513d601f19601f820116820180604052508101906111c691906142a5565b60026111d3836000610965565b6040516111e09190614289565b602060405180830381855afa1580156111fd573d6000803e3d6000fd5b5050506040513d601f19601f8201168201806040525081019061122091906142a5565b1461123d5760405162461bcd60e51b8152600401610380906144a2565b61125188600060010180546107f790614239565b602082015260405160029061126890600490614406565b602060405180830381855afa158015611285573d6000803e3d6000fd5b5050506040513d601f19601f820116820180604052508101906112a891906142a5565b60026112b5836001610a84565b6040516112c29190614289565b602060405180830381855afa1580156112df573d6000803e3d6000fd5b5050506040513d601f19601f8201168201806040525081019061130291906142a5565b1461131f5760405162461bcd60e51b8152600401610380906144ff565b6008805462ff00001916620100009081179182905560405160008051602061480283398151915292610bb992900460ff169060408082526037908201527f44697370757465207375636365737366756c6c79206f70656e65643a2073746160608201527f74652e646973707574654f70656e6564203d20747275650000000000000000006080820152901515602082015260a00190565b60085460408051818152602f918101919091527f44697370757465206e6f74206f70656e65643a2073746174652e64697370757460608201526e654f70656e6564203d2066616c736560881b60808201526201000090910460ff16151560208201526000805160206148028339815191529060a001610c4f565b600080546001805491929161144490614239565b80601f016020809104026020016040519081016040528092919081815260200182805461147090614239565b80156114bd5780601f10611492576101008083540402835291602001916114bd565b820191906000526020600020905b8154815290600101906020018083116114a057829003601f168201915b5050505050908060020160009054906101000a900460e01b908060030180546114e590614239565b80601f016020809104026020016040519081016040528092919081815260200182805461151190614239565b801561155e5780601f106115335761010080835404028352916020019161155e565b820191906000526020600020905b81548152906001019060200180831161154157829003601f168201915b50505050509080600401805461157390614239565b80601f016020809104026020016040519081016040528092919081815260200182805461159f90614239565b80156115ec5780601f106115c1576101008083540402835291602001916115ec565b820191906000526020600020905b8154815290600101906020018083116115cf57829003601f168201915b50505050509080600501805461160190614239565b80601f016020809104026020016040519081016040528092919081815260200182805461162d90614239565b801561167a5780601f1061164f5761010080835404028352916020019161167a565b820191906000526020600020905b81548152906001019060200180831161165d57829003601f168201915b5050505050908060060154908060070154905088565b600088905586516116a89060019060208a0190613d06565b506002805463ffffffff191660e088901c17905584516116cf906003906020880190613d06565b5083516116e3906004906020870190613d06565b5082516116f7906005906020860190613d06565b5060069190915560075550506008805464ffffffffff1916600117905550505050565b6000611735826004845161172e919061458a565b6004611fda565b61173e906145a1565b92915050565b6040805160808101825260008082526020820181905291810182905260608101919091526040805180820190915260008082526020820152604080518082018252600080825260208083018290528351608081018552828152908101829052928301819052606083015290604080518082019091526000808252602082015260408051808201909152600080825260208201526118096040518060a0016040528060008152602001606081526020016060815260200160608152602001606081525090565b600480825261181b90899060006120e7565b808352602083019190915261183390899060006121de565b845260408401526060830152608082015260005b60038110156119f857806118ce5761189a898360600151838151811061186f5761186f61410c565b60200260200101518460400151848151811061188d5761188d61410c565b60200260200101516123a6565b60408801526060870152602086015260808201518051829081106118c0576118c061410c565b602090810291909101015185525b806001141561197b5761194761191f8a846060015184815181106118f4576118f461410c565b6020026020010151856040015185815181106119125761191261410c565b602002602001015161240b565b60405160200161193191815260200190565b60405160208183030381529060405260006124ae565b6001600160601b0319166020840152608082015180518290811061196d5761196d61410c565b602090810291909101015183525b80600214156119e6576119bc898360600151838151811061199e5761199e61410c565b6020026020010151846040015184815181106119125761191261410c565b602085015260808201518051829081106119d8576119d861410c565b602090810291909101015184525b806119f0816145d8565b915050611847565b50929790965090945092505050565b60408051608081018252600080825260208201819052918101829052606081019190915260408051808201909152600080825260208201526040805160808101825260008082526020820181905291810182905260608101919091526040805180820190915260008082526020820152611aa96040518060a0016040528060008152602001606081526020016060815260200160608152602001606081525090565b6004808252611abb90879060006120e7565b8083526020830191909152611ad390879060006121de565b845260408401526060830152608082015260005b6002811015611bb35780611b4757611b0f878360600151838151811061186f5761186f61410c565b6040870152606086015260208501526080820151805182908110611b3557611b3561410c565b60209081029190910101518452611ba1565b8060011415611ba157611b6d61191f88846060015184815181106118f4576118f461410c565b6001600160601b03191660208401526080820151805182908110611b9357611b9361410c565b602090810291909101015183525b80611bab816145d8565b915050611ae7565b50919590945092505050565b606080611bcf8360026021611fda565b611bdc8460256021611fda565b91509150915091565b60606003600283604051611bf99190614289565b602060405180830381855afa158015611c16573d6000803e3d6000fd5b5050506040513d601f19601f82011682018060405250810190611c3991906142a5565b604051602001611c4b91815260200190565b60408051601f1981840301815290829052611c6591614289565b602060405180830381855afa158015611c82573d6000803e3d6000fd5b50506040518051611c9a925060601b90602001614274565b6040516020818303038152906040529050919050565b6040805160608082018352600080835260208084018290528385018290528451928301855281835282018190529281019290925290611cf0836004612540565b508152611d008360256004611fda565b611d09906145a1565b6001600160e01b0319166040820152611d36611d288460056025611fda565b611d31906145f3565b612603565b6020820152805160011461173e5760405162461bcd60e51b815260206004820152601b60248201527f54782068617320746f6f206d616e7920696e7075747320283e312900000000006044820152606401610380565b611db36040518060600160405280600060ff16815260200160608152602001606081525090565b611dda6040518060600160405280600060ff16815260200160608152602001606081525090565b82602a81518110611ded57611ded61410c565b6020910101516001600160f81b031916604760f81b1415611e2557611e1b611e1684602f6126a4565b612716565b6020820152611e64565b82602a81518110611e3857611e3861410c565b6020910101516001600160f81b031916602360f91b1415611e6457611e5e83602f61272b565b60208201525b611e72611e168460516126a4565b60408201526020810151600290611e8a906000611f0d565b611e94919061462d565b611ea157601c815261173e565b601b815292915050565b600080611ebb8560006029611fda565b84611ed4876072808a51611ecf919061458a565b611fda565b85604051602001611ee89493929190614641565b6040516020818303038152906040529050611f02816127a8565b9150505b9392505050565b6000611f1a826020614572565b83511015611f625760405162461bcd60e51b8152602060048201526015602482015274746f55696e743235365f6f75744f66426f756e647360581b6044820152606401610380565b50016020015190565b6060600080611f8687611f7f601b89614698565b8787612867565b6040805160208101939093528281019190915280518083038201815260609092019052979650505050505050565b600061173e611fd3611fce846004865161172e919061458a565b612a98565b6000612b65565b606081611fe881601f614572565b10156120275760405162461bcd60e51b815260206004820152600e60248201526d736c6963655f6f766572666c6f7760901b6044820152606401610380565b6120318284614572565b845110156120755760405162461bcd60e51b8152602060048201526011602482015270736c6963655f6f75744f66426f756e647360781b6044820152606401610380565b60608215801561209457604051915060008252602082016040526120de565b6040519150601f8416801560200281840101858101878315602002848b0101015b818310156120cd5780518352602092830192016120b5565b5050858452601f01601f1916604052505b50949350505050565b60606000806000806120f98888612540565b9750925085158061210957508286115b156121165782915061211a565b8591505b6000826001600160401b0381111561213457612134613dbd565b60405190808252806020026020018201604052801561215d578160200160208202803683370190505b50905060005b838110156121d15761217660248a614572565b98506121828a8a612540565b809a5081945050508282828151811061219d5761219d61410c565b60209081029190910101526121b3836004614572565b6121bd908a614572565b9850806121c9816145d8565b915050612163565b5098969750505050505050565b60608060606000806000806121f38a8a612540565b9950925087158061220357508288115b1561221057829150612214565b8791505b6000826001600160401b0381111561222e5761222e613dbd565b604051908082528060200260200182016040528015612257578160200160208202803683370190505b5090506000836001600160401b0381111561227457612274613dbd565b60405190808252806020026020018201604052801561229d578160200160208202803683370190505b5090506000846001600160401b038111156122ba576122ba613dbd565b6040519080825280602002602001820160405280156122e3578160200160208202803683370190505b50905060005b85811015612394576122fd8e8e6040612bc2565b82828151811061230f5761230f61410c565b602090810291909101015261232560088e614572565b9c506123318e8e612540565b809e5081965050508c84828151811061234c5761234c61410c565b6020026020010181815250508483828151811061236b5761236b61410c565b6020908102919091010152612380858e614572565b9c508061238c816145d8565b9150506122e9565b509c919b509998509650505050505050565b60008060006123b6868686612f2e565b156123f8576123cf866123ca876003614572565b6126a4565b6123de876123ca886028614572565b6123ed886123ca89604c614572565b925092509250612402565b5060009150819050805b93509350939050565b60006124188484846132db565b15612442576124318461242c856003614572565b6124ae565b6001600160601b0319169050611f06565b61244d848484613400565b15612461576124318461242c856002614572565b61246c8484846134bb565b1561248757612480846123ca856002614572565b9050611f06565b612492848484612f2e565b156124a657612480846123ca856002614572565b506000611f06565b600080805b6014816001600160a01b03161015612535576124d08160136146bb565b6124db9060086146e3565b6001600160a01b03168585836001600160a01b03166124fa9190614572565b8151811061250a5761250a61410c565b01602001516125219160f89190911c901b83614712565b91508061252d8161473d565b9150506124b3565b5060601b9392505050565b60008060008484815181106125575761255761410c565b016020015160f81c905061256c600185614572565b935060fd8160ff1610156125875760ff1691508290506125fc565b8060ff1660fd14156125b45761259f85856010612bc2565b6125aa856002614572565b92509250506125fc565b8060ff1660fe14156125d7576125cc85856020612bc2565b6125aa856004614572565b8060ff1660ff14156125fa576125ef85856040612bc2565b6125aa856008614572565b505b9250929050565b60408051602080825281830190925260009182919060208201818036833701905050905060005b602081101561269a578381602081106126455761264561410c565b1a60f81b82600161265784602061458a565b612661919061458a565b815181106126715761267161410c565b60200101906001600160f81b031916908160001a90535080612692816145d8565b91505061262a565b50611f068161353c565b600080805b602081101561270e576126bd81601f61458a565b6126c8906008614764565b856126d38684614572565b815181106126e3576126e361410c565b01602001516126fa9160f89190911c901b83614572565b915080612706816145d8565b9150506126a9565b509392505050565b606081604051602001611c9a91815260200190565b60606000805b601f8110156127965761274581601e61458a565b612750906008614764565b8561275b8684614572565b8151811061276b5761276b61410c565b01602001516127829160f89190911c901b83614572565b91508061278e816145d8565b915050612731565b506127a081613559565b949350505050565b6000600280836040516127bb9190614289565b602060405180830381855afa1580156127d8573d6000803e3d6000fd5b5050506040513d601f19601f820116820180604052508101906127fb91906142a5565b60405160200161280d91815260200190565b60408051601f198184030181529082905261282791614289565b602060405180830381855afa158015612844573d6000803e3d6000fd5b5050506040513d601f19601f8201168201806040525081019061173e91906142a5565b600080806401000003d019612889607f600189901c166401000003d019614764565b860890506401000003d0198111806128b2575070014551231950b75fc4402da1732fc9bebe1984115b806128ce575070014551231950b75fc4402da1732fc9bebe1985115b806128d7575083155b806128e0575084155b806128ee575060018660ff16115b15612900576000809250925050612a8f565b600061291e8670014551231950b75fc4402da1732fc9bebe196135cd565b905060006401000003d0198060076401000003d01960008709086401000003d01980868709860908905061296e81600461295f6401000003d0196001614572565b6129699190614783565b613699565b9050600061297f60ff8a1683614572565b61298a906002614572565b600116156129a7576129a2826401000003d01961458a565b6129a9565b815b905060008080612a2c70014551231950b75fc4402da1732fc9bebe196129e18f70014551231950b75fc4402da1732fc9bebe1961458a565b88097f79be667ef9dcbbac55a06295ce870b07029bfcdb2dce28d959f2815b16f817987f483ada7726a3c4655da4fbfc0e1108a8fd17b448a68554199c47d08ffb10d4b86001613741565b9250925092506000806000612a6670014551231950b75fc4402da1732fc9bebe1980612a5a57612a5a614617565b8e8b098b896001613741565b925092509250600080612a7d8888888888886137ba565b909e509c505050505050505050505050505b94509492505050565b6060600082516001600160401b03811115612ab557612ab5613dbd565b6040519080825280601f01601f191660200182016040528015612adf576020820181803683370190505b50905060005b8351811015612b5e57838181518110612b0057612b0061410c565b602001015160f81c60f81b826001838751612b1b919061458a565b612b25919061458a565b81518110612b3557612b3561410c565b60200101906001600160f81b031916908160001a90535080612b56816145d8565b915050612ae5565b5092915050565b6000612b72826004614572565b83511015612bb95760405162461bcd60e51b8152602060048201526014602482015273746f55696e7433325f6f75744f66426f756e647360601b6044820152606401610380565b50016004015190565b60008160081415612bee57838381518110612bdf57612bdf61410c565b016020015160f81c9050611f06565b8160101415612c4f5783612c03846001614572565b81518110612c1357612c1361410c565b0160200151612c279060f81c610100614797565b61ffff16848481518110612c3d57612c3d61410c565b0160200151612480919060f81c614572565b8160201415612d355783612c64846003614572565b81518110612c7457612c7461410c565b0160200151612c8a9060f81c63010000006147b8565b63ffffffff1684612c9c856002614572565b81518110612cac57612cac61410c565b0160200151612cc19060f81c620100006147b8565b63ffffffff1685612cd3866001614572565b81518110612ce357612ce361410c565b0160200151612cf79060f81c6101006147b8565b63ffffffff16868681518110612d0f57612d0f61410c565b0160200151612d21919060f81c614572565b612d2b9190614572565b6124809190614572565b8160401415611f065783612d4a846007614572565b81518110612d5a57612d5a61410c565b0160200151612d749060f81c6701000000000000006147db565b6001600160401b031684612d89856006614572565b81518110612d9957612d9961410c565b0160200151612db29060f81c66010000000000006147db565b6001600160401b031685612dc7866005614572565b81518110612dd757612dd761410c565b0160200151612def9060f81c650100000000006147db565b6001600160401b031686612e04876004614572565b81518110612e1457612e1461410c565b0160200151612e2b9060f81c6401000000006147db565b6001600160401b031687612e40886003614572565b81518110612e5057612e5061410c565b0160200151612e669060f81c63010000006147db565b6001600160401b031688612e7b896002614572565b81518110612e8b57612e8b61410c565b0160200151612ea09060f81c620100006147db565b6001600160401b031689612eb58a6001614572565b81518110612ec557612ec561410c565b0160200151612ed99060f81c6101006147db565b6001600160401b03168a8a81518110612ef457612ef461410c565b0160200151612f06919060f81c614572565b612f109190614572565b612f1a9190614572565b612f249190614572565b612d219190614572565b6000816072148015612f6e575083612f47846000614572565b81518110612f5757612f5761410c565b6020910101516001600160f81b031916603b60f91b145b8015612fa8575083612f81846001614572565b81518110612f9157612f9161410c565b6020910101516001600160f81b031916602160f81b145b8015612fe2575083612fbb846023614572565b81518110612fcb57612fcb61410c565b6020910101516001600160f81b031916602b60fa1b145b801561301c575083612ff5846024614572565b815181106130055761300561410c565b6020910101516001600160f81b031916606360f81b145b801561305657508361302f846025614572565b8151811061303f5761303f61410c565b6020910101516001600160f81b031916607560f81b145b8015613090575083613069846026614572565b815181106130795761307961410c565b6020910101516001600160f81b031916605560f91b145b80156130ca5750836130a3846027614572565b815181106130b3576130b361410c565b6020910101516001600160f81b031916600160fd1b145b80156131045750836130dd846048614572565b815181106130ed576130ed61410c565b6020910101516001600160f81b031916601160fb1b145b801561313e575083613117846049614572565b815181106131275761312761410c565b6020910101516001600160f81b031916606760f81b145b801561317857508361315184604a614572565b815181106131615761316161410c565b6020910101516001600160f81b031916602160f81b145b80156131b257508361318b84606c614572565b8151811061319b5761319b61410c565b6020910101516001600160f81b03191660ad60f81b145b80156131ec5750836131c584606d614572565b815181106131d5576131d561410c565b6020910101516001600160f81b031916602960f91b145b80156132265750836131ff84606e614572565b8151811061320f5761320f61410c565b6020910101516001600160f81b031916605960f91b145b801561326057508361323984606f614572565b815181106132495761324961410c565b6020910101516001600160f81b031916607560f81b145b801561329a575083613273846070614572565b815181106132835761328361410c565b6020910101516001600160f81b031916600d60fb1b145b80156127a05750836132ad846071614572565b815181106132bd576132bd61410c565b6020910101516001600160f81b031916605160f81b14949350505050565b600081601914801561331157508383815181106132fa576132fa61410c565b6020910101516001600160f81b031916603b60f91b145b801561334b575083613324846001614572565b815181106133345761333461410c565b6020910101516001600160f81b03191660a960f81b145b801561338557508361335e846002614572565b8151811061336e5761336e61410c565b6020910101516001600160f81b031916600560fa1b145b80156133bf575083613398846017614572565b815181106133a8576133a861410c565b6020910101516001600160f81b031916601160fb1b145b80156127a05750836133d2846018614572565b815181106133e2576133e261410c565b6020910101516001600160f81b031916602b60fa1b14949350505050565b6000816017148015613440575083613419846000614572565b815181106134295761342961410c565b6020910101516001600160f81b03191660a960f81b145b801561347a575083613453846001614572565b815181106134635761346361410c565b6020910101516001600160f81b031916600560fa1b145b80156127a057508361348d846016614572565b8151811061349d5761349d61410c565b6020910101516001600160f81b031916608760f81b14949350505050565b60008160221480156134fb5750836134d4846000614572565b815181106134e4576134e461410c565b6020910101516001600160f81b031916603560f91b145b80156127a057508361350e846001614572565b8151811061351e5761351e61410c565b6020910101516001600160f81b031916600160fd1b14949350505050565b805160009082906135505750600092915050565b50506020015190565b60606001600160ff1b038211156135b25760405162461bcd60e51b815260206004820152601760248201527f56616c75652065786365656473207468652072616e67650000000000000000006044820152606401610380565b60405190506020815281602082015260408101604052919050565b600082158015906135de5750818314155b80156135e957508115155b6136265760405162461bcd60e51b815260206004820152600e60248201526d24b73b30b634b210373ab6b132b960911b6044820152606401610380565b6000600183825b861561368e5761363d8783614783565b905082868061364e5761364e614617565b878061365c5761365c614617565b858409613669908961458a565b860890945092508661367b8183614764565b613685908461458a565b9750915061362d565b509195945050505050565b6000826136a85750600061173e565b816136b55750600161173e565b6001600160ff1b5b801561270e576401000003d0198185161515860a6401000003d0198485090991506401000003d0196002820485161515860a6401000003d0198485090991506401000003d0196004820485161515860a6401000003d0198485090991506401000003d0196008820485161515860a6401000003d019848509099150601090046136bd565b60008080866137575750849150839050826137b0565b8660008060015b83156137a75760018416156137835761377b8383838d8d8d613832565b919450925090505b61378e600285614783565b935061379b8a8a8a613ac7565b919b509950975061375e565b91955093509150505b9450945094915050565b6000806000806000878b14156137fe576401000003d019878b086137e75760008094509450505050613827565b6137f28b8b8b613ac7565b91945092509050613814565b61380c8b8b8b8b8b8b613832565b919450925090505b61381f838383613bcb565b945094505050505b965096945050505050565b6000808088158015613842575087155b15613854575084915083905082613abb565b85158015613860575084155b15613872575087915086905085613abb565b61387a613d8a565b6401000003d0198889098082526401000003d01990890960208201526401000003d019858009604082018190526401000003d0199086096060820152604080516080810182529082015181906401000003d019908d0981526020016401000003d01983600360200201518c0981526020016401000003d01983600060200201518a0981526020016401000003d0198360016020020151890990526040810151815191925014158061393357506060810151602082015114155b61397f5760405162461bcd60e51b815260206004820152601e60248201527f557365206a6163446f75626c652066756e6374696f6e20696e737465616400006044820152606401610380565b613987613d8a565b81516401000003d0199061399b908261458a565b604084015108815260208201516401000003d019906139ba908261458a565b606084015108602082015280516401000003d0199080096040820181905281516401000003d0199109606082018190526000906401000003d019906139ff908261458a565b60208401516401000003d01990800908604083015184519192506401000003d019918291829109600209613a39906401000003d01961458a565b8208905060006401000003d01980613a57846401000003d01961458a565b604086015187516401000003d0199190090860208501510990506401000003d019808460036020020151866001602002015109613a9a906401000003d01961458a565b8208905060006401000003d019808a8e098551099297509095509093505050505b96509650969350505050565b6000808083613add575084915083905082612402565b60006401000003d019878809905060006401000003d019878809905060006401000003d019878809905060006401000003d01980848c09600409905060006401000003d019806401000003d0198586096000096401000003d019876003090890506401000003d01980838408613b59906401000003d01961458a565b6401000003d0198384090894506401000003d019806401000003d019868709600809613b8b906401000003d01961458a565b6401000003d01980613ba3896401000003d01961458a565b860884090893506401000003d019808a8c09600209949b939a50939850919650505050505050565b6000806000613be0846401000003d0196135cd565b905060006401000003d019828309905060006401000003d019828909905060006401000003d0198084860989099199919850909650505050505050565b60405180604001604052806002905b604080516080810182526000808252602080830182905292820181905260608201528252600019909201910181613c2c5790505090565b60405180604001604052806002905b6040805180820190915260008082526020820152815260200190600190039081613c725790505090565b60405180604001604052806002905b613cd26040518060600160405280600060ff16815260200160608152602001606081525090565b815260200190600190039081613cab5790505090565b60405180604001604052806002906020820280368337509192915050565b828054613d1290614239565b90600052602060002090601f016020900481019282613d345760008555613d7a565b82601f10613d4d57805160ff1916838001178555613d7a565b82800160010185558215613d7a579182015b82811115613d7a578251825591602001919060010190613d5f565b50613d86929150613da8565b5090565b60405180608001604052806004906020820280368337509192915050565b5b80821115613d865760008155600101613da9565b634e487b7160e01b600052604160045260246000fd5b600082601f830112613de457600080fd5b81356001600160401b0380821115613dfe57613dfe613dbd565b604051601f8301601f19908116603f01168101908282118183101715613e2657613e26613dbd565b81604052838152866020858801011115613e3f57600080fd5b836020870160208301376000602085830101528094505050505092915050565b600060208284031215613e7157600080fd5b81356001600160401b03811115613e8757600080fd5b6127a084828501613dd3565b60008060408385031215613ea657600080fd5b82356001600160401b0380821115613ebd57600080fd5b613ec986838701613dd3565b93506020850135915080821115613edf57600080fd5b50613eec85828601613dd3565b9150509250929050565b60005b83811015613f11578181015183820152602001613ef9565b83811115613f20576000848401525b50505050565b60008151808452613f3e816020860160208601613ef6565b601f01601f19169290920160200192915050565b60006101008a8352806020840152613f6c8184018b613f26565b6001600160e01b03198a16604085015283810360608501529050613f908189613f26565b90508281036080840152613fa48188613f26565b905082810360a0840152613fb88187613f26565b60c0840195909552505060e001529695505050505050565b80356001600160e01b031981168114613fe857600080fd5b919050565b600080600080600080600080610100898b03121561400a57600080fd5b8835975060208901356001600160401b038082111561402857600080fd5b6140348c838d01613dd3565b985061404260408c01613fd0565b975060608b013591508082111561405857600080fd5b6140648c838d01613dd3565b965060808b013591508082111561407a57600080fd5b6140868c838d01613dd3565b955060a08b013591508082111561409c57600080fd5b506140a98b828c01613dd3565b93505060c0890135915060e089013590509295985092959890939650565b60208082526025908201527f436f6d6d69746d656e74207472616e73616374696f6e206f662056206973206c6040820152641bd8dad95960da1b606082015260800190565b634e487b7160e01b600052603260045260246000fd5b6020808252603f908201527f50277320636f6d6d69746d656e74207472616e73616374696f6e20646f65732060408201527f6e6f742068617264636f646520562773207265766f636174696f6e206b657900606082015260800190565b6020808252603a908201527f416d6f756e74206d69736d61746368206265747765656e207032706b68206f6660408201527f205020616e64206c696768746e696e672048544c43206f662056000000000000606082015260800190565b6020808252603a908201527f416d6f756e74206d69736d61746368206265747765656e207032706b68206f6660408201527f205620616e64206c696768746e696e672048544c43206f662050000000000000606082015260800190565b600181811c9082168061424d57607f821691505b6020821081141561426e57634e487b7160e01b600052602260045260246000fd5b50919050565b6001600160601b031991909116815260140190565b6000825161429b818460208701613ef6565b9190910192915050565b6000602082840312156142b757600080fd5b5051919050565b60208082526054908201527f546865207032706b6820696e2056277320756e6c6f636b656420636f6d6d697460408201527f6d656e74207472616e73616374696f6e20646f6573206e6f7420636f72726573606082015273706f6e6420746f2050726f7665722773206f6e6560601b608082015260a00190565b60208082526041908201527f50277320636f6d6d69746d656e74207472616e73616374696f6e20646f65732060408201527f6e6f74207370656e64207468652066756e64696e67207472616e73616374696f6060820152603760f91b608082015260a00190565b60208082526041908201527f56277320636f6d6d69746d656e74207472616e73616374696f6e20646f65732060408201527f6e6f74207370656e64207468652066756e64696e67207472616e73616374696f6060820152603760f91b608082015260a00190565b600080835481600182811c91508083168061442257607f831692505b602080841082141561444257634e487b7160e01b86526022600452602486fd5b818015614456576001811461446757614494565b60ff19861689528489019650614494565b60008a81526020902060005b8681101561448c5781548b820152908501908301614473565b505084890196505b509498975050505050505050565b60208082526037908201527f496e76616c6964207369676e6174757265206f662056206f76657220636f6d6d60408201527f69746d656e74207472616e73616374696f6e206f662050000000000000000000606082015260800190565b60208082526037908201527f496e76616c6964207369676e6174757265206f662050206f76657220636f6d6d60408201527f69746d656e74207472616e73616374696f6e206f662056000000000000000000606082015260800190565b634e487b7160e01b600052601160045260246000fd5b600082198211156145855761458561455c565b500190565b60008282101561459c5761459c61455c565b500390565b805160208201516001600160e01b031980821692919060048310156145d05780818460040360031b1b83161693505b505050919050565b60006000198214156145ec576145ec61455c565b5060010190565b8051602080830151919081101561426e5760001960209190910360031b1b16919050565b634e487b7160e01b600052601260045260246000fd5b60008261463c5761463c614617565b500690565b60008551614653818460208a01613ef6565b855190830190614667818360208a01613ef6565b855191019061467a818360208901613ef6565b845191019061468d818360208801613ef6565b019695505050505050565b600060ff821660ff8416808210156146b2576146b261455c565b90039392505050565b60006001600160a01b03838116908316818110156146db576146db61455c565b039392505050565b60006001600160a01b03828116848216811515828404821116156147095761470961455c565b02949350505050565b60006001600160a01b038281168482168083038211156147345761473461455c565b01949350505050565b60006001600160a01b038281168082141561475a5761475a61455c565b6001019392505050565b600081600019048311821515161561477e5761477e61455c565b500290565b60008261479257614792614617565b500490565b600061ffff808316818516818304811182151516156147095761470961455c565b600063ffffffff808316818516818304811182151516156147095761470961455c565b60006001600160401b03808316818516818304811182151516156147095761470961455c56fe7cb76fce4caeb1fe1b0dd56de53b408af770b76cf5e9c88a1e2568a7d1e9889fa2646970667358221220d69e2bd75403aa6d30c30b748a0d03871c3a5efad1682cd7255c5c33e0de951f64736f6c63430008090033",
  "linkReferences": {},
  "deployedLinkReferences": {}
}