{
  "_format": "hh-sol-artifact-1",
  "contractName": "LNBridge",
  "sourceName": "contracts/LNBridge.sol",
  "abi": [
    {
      "inputs": [
        {
          "internalType": "uint256",
          "name": "value",
          "type": "uint256"
        },
        {
          "internalType": "uint256",
          "name": "length",
          "type": "uint256"
        }
      ],
      "name": "StringsInsufficientHexLength",
      "type": "error"
    },
    {
      "inputs": [
        {
          "internalType": "bytes",
          "name": "rawTxP_locked",
          "type": "bytes"
        },
        {
          "internalType": "bytes",
          "name": "sigV",
          "type": "bytes"
        },
        {
          "internalType": "bytes",
          "name": "rawTxV_unlocked",
          "type": "bytes"
        },
        {
          "internalType": "bytes",
          "name": "sigP",
          "type": "bytes"
        }
      ],
      "name": "dispute",
      "outputs": [],
      "stateMutability": "nonpayable",
      "type": "function"
    },
    {
      "inputs": [
        {
          "internalType": "bytes",
          "name": "_txBytes",
          "type": "bytes"
        }
      ],
      "name": "getTheTwoOutputs",
      "outputs": [
        {
          "internalType": "uint256",
          "name": "",
          "type": "uint256"
        },
        {
          "internalType": "bytes20",
          "name": "",
          "type": "bytes20"
        },
        {
          "internalType": "uint256",
          "name": "",
          "type": "uint256"
        },
        {
          "internalType": "bytes20",
          "name": "",
          "type": "bytes20"
        }
      ],
      "stateMutability": "nonpayable",
      "type": "function"
    },
    {
      "inputs": [
        {
          "internalType": "bytes",
          "name": "oldRevSecret",
          "type": "bytes"
        },
        {
          "internalType": "bytes",
          "name": "rawTxP_unlocked",
          "type": "bytes"
        },
        {
          "internalType": "bytes",
          "name": "sigV",
          "type": "bytes"
        }
      ],
      "name": "resolveDispute",
      "outputs": [],
      "stateMutability": "nonpayable",
      "type": "function"
    },
    {
      "inputs": [],
      "name": "settle",
      "outputs": [],
      "stateMutability": "nonpayable",
      "type": "function"
    },
    {
      "inputs": [
        {
          "internalType": "bytes32",
          "name": "_fundingTxId",
          "type": "bytes32"
        },
        {
          "internalType": "bytes32",
          "name": "_pkProver",
          "type": "bytes32"
        },
        {
          "internalType": "bytes32",
          "name": "_pkVerifier",
          "type": "bytes32"
        },
        {
          "internalType": "uint256",
          "name": "_index",
          "type": "uint256"
        },
        {
          "internalType": "uint256",
          "name": "_timestamp",
          "type": "uint256"
        }
      ],
      "name": "setup",
      "outputs": [],
      "stateMutability": "nonpayable",
      "type": "function"
    },
    {
      "inputs": [
        {
          "internalType": "bytes",
          "name": "rawTxP_unlocked",
          "type": "bytes"
        },
        {
          "internalType": "bytes",
          "name": "sigV",
          "type": "bytes"
        },
        {
          "internalType": "bytes",
          "name": "rawTxV_unlocked",
          "type": "bytes"
        },
        {
          "internalType": "bytes",
          "name": "sigP",
          "type": "bytes"
        }
      ],
      "name": "submitProof",
      "outputs": [],
      "stateMutability": "nonpayable",
      "type": "function"
    },
    {
      "inputs": [],
      "name": "timestamp",
      "outputs": [
        {
          "internalType": "uint256",
          "name": "",
          "type": "uint256"
        }
      ],
      "stateMutability": "view",
      "type": "function"
    },
    {
      "inputs": [],
      "name": "timestamp_dispute",
      "outputs": [
        {
          "internalType": "uint256",
          "name": "",
          "type": "uint256"
        }
      ],
      "stateMutability": "view",
      "type": "function"
    },
    {
      "inputs": [
        {
          "internalType": "bytes",
          "name": "pk",
          "type": "bytes"
        },
        {
          "internalType": "bytes32",
          "name": "digest",
          "type": "bytes32"
        },
        {
          "internalType": "uint8",
          "name": "v",
          "type": "uint8"
        },
        {
          "internalType": "bytes32",
          "name": "r",
          "type": "bytes32"
        },
        {
          "internalType": "bytes32",
          "name": "s",
          "type": "bytes32"
        }
      ],
      "name": "verifySignature",
      "outputs": [
        {
          "internalType": "bool",
          "name": "",
          "type": "bool"
        }
      ],
      "stateMutability": "view",
      "type": "function"
    }
  ],
  "bytecode": "0x608060405234801561001057600080fd5b50612786806100206000396000f3fe608060405234801561001057600080fd5b50600436106100935760003560e01c806347aa95731161006657806347aa9573146100f657806379a85bd914610126578063a5dd32ac14610142578063b80777ea14610160578063e605c7671461017e57610093565b806306ac0e261461009857806311da60b4146100b45780633740d249146100be57806343f104d2146100da575b600080fd5b6100b260048036038101906100ad9190611b65565b6101b1565b005b6100bc6101db565b005b6100d860048036038101906100d39190611d26565b6101dd565b005b6100f460048036038101906100ef9190611d26565b6101e3565b005b610110600480360381019061010b9190611e36565b6101e9565b60405161011d9190611ee8565b60405180910390f35b610140600480360381019061013b9190611f03565b610203565b005b61014a610208565b6040516101579190611fb9565b60405180910390f35b61016861020e565b6040516101759190611fb9565b60405180910390f35b61019860048036038101906101939190611fd4565b610214565b6040516101a89493929190612058565b60405180910390f35b84600081905550836001819055508260028190555081600381905550806004819055505050505050565b565b50505050565b50505050565b60006101f8868686868661035c565b905095945050505050565b505050565b60055481565b60045481565b6000806000806000806000806102298961043e565b809450819550829650839750505050506102786040518060400160405280600a81526020017f436865636b206f6e653a0000000000000000000000000000000000000000000081525085610730565b6102bf6040518060400160405280600a81526020017f436865636b2074776f3a000000000000000000000000000000000000000000008152506102ba856107cc565b6107fc565b6102fe6040518060400160405280600c81526020017f436865636b2074687265653a000000000000000000000000000000000000000081525083610730565b6103456040518060400160405280600b81526020017f436865636b20666f75723a000000000000000000000000000000000000000000815250610340836107cc565b6107fc565b838383839750975097509750505050509193509193565b600060408651146103a2576040517f08c379a000000000000000000000000000000000000000000000000000000000815260040161039990612146565b60405180910390fd5b60006103ad87610898565b90506000600187878787604051600081526020016040526040516103d49493929190612184565b6020604051602081039080840390855afa1580156103f6573d6000803e3d6000fd5b5050506020604051035190508173ffffffffffffffffffffffffffffffffffffffff168173ffffffffffffffffffffffffffffffffffffffff16149250505095945050505050565b600080600080600080600267ffffffffffffffff81111561046257610461611bfb565b5b6040519080825280602002602001820160405280156104905781602001602082028036833780820191505090505b5090506000600267ffffffffffffffff8111156104b0576104af611bfb565b5b6040519080825280602002602001820160405280156104de5781602001602082028036833780820191505090505b5090506000600267ffffffffffffffff8111156104fe576104fd611bfb565b5b60405190808252806020026020018201604052801561052c5781602001602082028036833780820191505090505b5090506000600267ffffffffffffffff81111561054c5761054b611bfb565b5b60405190808252806020026020018201604052801561057a5781602001602082028036833780820191505090505b5090506000600267ffffffffffffffff81111561059a57610599611bfb565b5b6040519080825280602002602001820160405280156105c85781602001602082028036833780820191505090505b509050600495506105db8b876000610910565b80975081965050506105ef8b876002610a22565b8099508197508296508395505050505060005b60028110156106aa5760008061064d8e878581518110610625576106246121c9565b5b60200260200101518986815181106106405761063f6121c9565b5b6020026020010151610c19565b809250819350505081848481518110610669576106686121c9565b5b60200260200101906bffffffffffffffffffffffff191690816bffffffffffffffffffffffff191681525050505080806106a290612227565b915050610602565b50816000815181106106bf576106be6121c9565b5b6020026020010151816000815181106106db576106da6121c9565b5b6020026020010151836001815181106106f7576106f66121c9565b5b602002602001015183600181518110610713576107126121c9565b5b602002602001015199509950995099505050505050509193509193565b6107c882826040516024016107469291906122dd565b6040516020818303038152906040527fb60e72cc000000000000000000000000000000000000000000000000000000007bffffffffffffffffffffffffffffffffffffffffffffffffffffffff19166020820180517bffffffffffffffffffffffffffffffffffffffffffffffffffffffff8381831617835250505050610cde565b5050565b60606107f58260601c73ffffffffffffffffffffffffffffffffffffffff16601460ff16610cf8565b9050919050565b610894828260405160240161081292919061230d565b6040516020818303038152906040527f4b5c4277000000000000000000000000000000000000000000000000000000007bffffffffffffffffffffffffffffffffffffffffffffffffffffffff19166020820180517bffffffffffffffffffffffffffffffffffffffffffffffffffffffff8381831617835250505050610cde565b5050565b600060408251146108de576040517f08c379a00000000000000000000000000000000000000000000000000000000081526004016108d5906123b6565b60405180910390fd5b60006109026108f7600085610f3e90919063ffffffff16565b62ffffff1916610f69565b90508060001c915050919050565b60606000806000806109228888610fac565b8098508194505050600086148061093857508286115b1561094557829150610949565b8591505b60008267ffffffffffffffff81111561096557610964611bfb565b5b6040519080825280602002602001820160405280156109935781602001602082028036833780820191505090505b50905060005b83811015610a0f576024896109ae91906123d6565b98506109ba8a8a610fac565b809a508194505050828282815181106109d6576109d56121c9565b5b6020026020010181815250506004836109ef91906123d6565b896109fa91906123d6565b98508080610a0790612227565b915050610999565b5080889550955050505050935093915050565b6060806060600080600080610a378a8a610fac565b809a5081945050506000881480610a4d57508288115b15610a5a57829150610a5e565b8791505b60008267ffffffffffffffff811115610a7a57610a79611bfb565b5b604051908082528060200260200182016040528015610aa85781602001602082028036833780820191505090505b50905060008367ffffffffffffffff811115610ac757610ac6611bfb565b5b604051908082528060200260200182016040528015610af55781602001602082028036833780820191505090505b50905060008467ffffffffffffffff811115610b1457610b13611bfb565b5b604051908082528060200260200182016040528015610b425781602001602082028036833780820191505090505b50905060005b85811015610bfd57610b5c8e8e6040611094565b828281518110610b6f57610b6e6121c9565b5b60200260200101818152505060088d610b8891906123d6565b9c50610b948e8e610fac565b809e5081965050508c848281518110610bb057610baf6121c9565b5b60200260200101818152505084838281518110610bd057610bcf6121c9565b5b602002602001018181525050848d610be891906123d6565b9c508080610bf590612227565b915050610b48565b508083838e995099509950995050505050505093509350935093565b600080610c278585856114ff565b15610c4f57610c4285600386610c3d91906123d6565b6116c4565b6000801b91509150610cd6565b610c5a8585856117a7565b15610c8257610c7585600286610c7091906123d6565b6116c4565b6000801b91509150610cd6565b610c8d8585856118c4565b15610cc857600060601b610cad86600187610ca891906123d6565b6116c4565b806bffffffffffffffffffffffff1916905091509150610cd6565b600060601b6000801b915091505b935093915050565b610cf581610ced6119876119a8565b63ffffffff16565b50565b6060600083905060006002846002610d10919061240a565b610d1a91906123d6565b67ffffffffffffffff811115610d3357610d32611bfb565b5b6040519080825280601f01601f191660200182016040528015610d655781602001600182028036833780820191505090505b5090507f300000000000000000000000000000000000000000000000000000000000000081600081518110610d9d57610d9c6121c9565b5b60200101907effffffffffffffffffffffffffffffffffffffffffffffffffffffffffffff1916908160001a9053507f780000000000000000000000000000000000000000000000000000000000000081600181518110610e0157610e006121c9565b5b60200101907effffffffffffffffffffffffffffffffffffffffffffffffffffffffffffff1916908160001a90535060006001856002610e41919061240a565b610e4b91906123d6565b90505b6001811115610eeb577f3031323334353637383961626364656600000000000000000000000000000000600f841660108110610e8d57610e8c6121c9565b5b1a60f81b828281518110610ea457610ea36121c9565b5b60200101907effffffffffffffffffffffffffffffffffffffffffffffffffffffffffffff1916908160001a905350600483901c925080610ee49061244c565b9050610e4e565b5060008214610f335784846040517fe22e27eb000000000000000000000000000000000000000000000000000000008152600401610f2a929190612475565b60405180910390fd5b809250505092915050565b600080835190506000602085019050610f5f8464ffffffffff1682846119b3565b9250505092915050565b600080610f7583611a21565b6bffffffffffffffffffffffff1690506000610f9084611a41565b6bffffffffffffffffffffffff16905080822092505050919050565b6000806000848481518110610fc457610fc36121c9565b5b602001015160f81c60f81b60f81c9050600184610fe191906123d6565b935060fd8160ff1610156110015780848160ff169150925092505061108d565b60fd8160ff160361102f5761101885856010611094565b60028561102591906123d6565b925092505061108d565b60fe8160ff160361105d5761104685856020611094565b60048561105391906123d6565b925092505061108d565b60ff8160ff160361108b5761107485856040611094565b60088561108191906123d6565b925092505061108d565b505b9250929050565b6000600882036110c9578383815181106110b1576110b06121c9565b5b602001015160f81c60f81b60f81c60ff1690506114f8565b6010820361114b57610100846001856110e291906123d6565b815181106110f3576110f26121c9565b5b602001015160f81c60f81b60f81c60ff1661110e91906124ac565b61ffff16848481518110611125576111246121c9565b5b602001015160f81c60f81b60f81c60ff1661ffff1661114491906123d6565b90506114f8565b6020820361126e5763010000008460038561116691906123d6565b81518110611177576111766121c9565b5b602001015160f81c60f81b60f81c60ff1661119291906124f9565b63ffffffff1662010000856002866111aa91906123d6565b815181106111bb576111ba6121c9565b5b602001015160f81c60f81b60f81c60ff166111d691906124f9565b63ffffffff16610100866001876111ed91906123d6565b815181106111fe576111fd6121c9565b5b602001015160f81c60f81b60f81c60ff1661121991906124f9565b63ffffffff16868681518110611232576112316121c9565b5b602001015160f81c60f81b60f81c60ff1663ffffffff1661125391906123d6565b61125d91906123d6565b61126791906123d6565b90506114f8565b604082036114f7576701000000000000008460078561128d91906123d6565b8151811061129e5761129d6121c9565b5b602001015160f81c60f81b60f81c60ff166112b9919061254a565b67ffffffffffffffff166601000000000000856006866112d991906123d6565b815181106112ea576112e96121c9565b5b602001015160f81c60f81b60f81c60ff16611305919061254a565b67ffffffffffffffff16650100000000008660058761132491906123d6565b81518110611335576113346121c9565b5b602001015160f81c60f81b60f81c60ff16611350919061254a565b67ffffffffffffffff166401000000008760048861136e91906123d6565b8151811061137f5761137e6121c9565b5b602001015160f81c60f81b60f81c60ff1661139a919061254a565b67ffffffffffffffff166301000000886003896113b791906123d6565b815181106113c8576113c76121c9565b5b602001015160f81c60f81b60f81c60ff166113e3919061254a565b67ffffffffffffffff16620100008960028a6113ff91906123d6565b815181106114105761140f6121c9565b5b602001015160f81c60f81b60f81c60ff1661142b919061254a565b67ffffffffffffffff166101008a60018b61144691906123d6565b81518110611457576114566121c9565b5b602001015160f81c60f81b60f81c60ff16611472919061254a565b67ffffffffffffffff168a8a8151811061148f5761148e6121c9565b5b602001015160f81c60f81b60f81c60ff1667ffffffffffffffff166114b491906123d6565b6114be91906123d6565b6114c891906123d6565b6114d291906123d6565b6114dc91906123d6565b6114e691906123d6565b6114f091906123d6565b90506114f8565b5b9392505050565b60006019821480156115535750607660f81b848481518110611524576115236121c9565b5b602001015160f81c60f81b7effffffffffffffffffffffffffffffffffffffffffffffffffffffffffffff1916145b80156115ad575060a960f81b8460018561156d91906123d6565b8151811061157e5761157d6121c9565b5b602001015160f81c60f81b7effffffffffffffffffffffffffffffffffffffffffffffffffffffffffffff1916145b80156116075750601460f81b846002856115c791906123d6565b815181106115d8576115d76121c9565b5b602001015160f81c60f81b7effffffffffffffffffffffffffffffffffffffffffffffffffffffffffffff1916145b80156116615750608860f81b8460178561162191906123d6565b81518110611632576116316121c9565b5b602001015160f81c60f81b7effffffffffffffffffffffffffffffffffffffffffffffffffffffffffffff1916145b80156116bb575060ac60f81b8460188561167b91906123d6565b8151811061168c5761168b6121c9565b5b602001015160f81c60f81b7effffffffffffffffffffffffffffffffffffffffffffffffffffffffffffff1916145b90509392505050565b6000806000905060005b60148173ffffffffffffffffffffffffffffffffffffffff161015611799578060136116fa91906125a7565b600861170691906125ef565b73ffffffffffffffffffffffffffffffffffffffff1685858373ffffffffffffffffffffffffffffffffffffffff1661173f91906123d6565b815181106117505761174f6121c9565b5b602001015160f81c60f81b60f81c60ff1673ffffffffffffffffffffffffffffffffffffffff16901b826117849190612631565b9150808061179190612679565b9150506116ce565b508060601b91505092915050565b6000601782148015611807575060a960f81b846000856117c791906123d6565b815181106117d8576117d76121c9565b5b602001015160f81c60f81b7effffffffffffffffffffffffffffffffffffffffffffffffffffffffffffff1916145b80156118615750601460f81b8460018561182191906123d6565b81518110611832576118316121c9565b5b602001015160f81c60f81b7effffffffffffffffffffffffffffffffffffffffffffffffffffffffffffff1916145b80156118bb5750608760f81b8460168561187b91906123d6565b8151811061188c5761188b6121c9565b5b602001015160f81c60f81b7effffffffffffffffffffffffffffffffffffffffffffffffffffffffffffff1916145b90509392505050565b60006022821480156119245750606a60f81b846000856118e491906123d6565b815181106118f5576118f46121c9565b5b602001015160f81c60f81b7effffffffffffffffffffffffffffffffffffffffffffffffffffffffffffff1916145b801561197e5750602060f81b8460018561193e91906123d6565b8151811061194f5761194e6121c9565b5b602001015160f81c60f81b7effffffffffffffffffffffffffffffffffffffffffffffffffffffffffffff1916145b90509392505050565b60006a636f6e736f6c652e6c6f679050600080835160208501845afa505050565b611adb819050919050565b6000806119c98385611a6190919063ffffffff16565b90506040518111156119da57600090505b60008103611a0b577fffffffffffffffffffffffffffffffffffffffffffffffffffffffffff000000915050611a1a565b611a16858585611aba565b9150505b9392505050565b6000806bffffffffffffffffffffffff9050808360781c16915050919050565b6000806bffffffffffffffffffffffff9050808360181c16915050919050565b60008183611a6f91906123d6565b905082811015611ab4576040517f08c379a0000000000000000000000000000000000000000000000000000000008152600401611aab90612701565b60405180910390fd5b92915050565b600083811760601b905082811760601b905081811760181b90509392505050565b611ae3612721565b565b6000604051905090565b600080fd5b600080fd5b6000819050919050565b611b0c81611af9565b8114611b1757600080fd5b50565b600081359050611b2981611b03565b92915050565b6000819050919050565b611b4281611b2f565b8114611b4d57600080fd5b50565b600081359050611b5f81611b39565b92915050565b600080600080600060a08688031215611b8157611b80611aef565b5b6000611b8f88828901611b1a565b9550506020611ba088828901611b1a565b9450506040611bb188828901611b1a565b9350506060611bc288828901611b50565b9250506080611bd388828901611b50565b9150509295509295909350565b600080fd5b600080fd5b6000601f19601f8301169050919050565b7f4e487b7100000000000000000000000000000000000000000000000000000000600052604160045260246000fd5b611c3382611bea565b810181811067ffffffffffffffff82111715611c5257611c51611bfb565b5b80604052505050565b6000611c65611ae5565b9050611c718282611c2a565b919050565b600067ffffffffffffffff821115611c9157611c90611bfb565b5b611c9a82611bea565b9050602081019050919050565b82818337600083830152505050565b6000611cc9611cc484611c76565b611c5b565b905082815260208101848484011115611ce557611ce4611be5565b5b611cf0848285611ca7565b509392505050565b600082601f830112611d0d57611d0c611be0565b5b8135611d1d848260208601611cb6565b91505092915050565b60008060008060808587031215611d4057611d3f611aef565b5b600085013567ffffffffffffffff811115611d5e57611d5d611af4565b5b611d6a87828801611cf8565b945050602085013567ffffffffffffffff811115611d8b57611d8a611af4565b5b611d9787828801611cf8565b935050604085013567ffffffffffffffff811115611db857611db7611af4565b5b611dc487828801611cf8565b925050606085013567ffffffffffffffff811115611de557611de4611af4565b5b611df187828801611cf8565b91505092959194509250565b600060ff82169050919050565b611e1381611dfd565b8114611e1e57600080fd5b50565b600081359050611e3081611e0a565b92915050565b600080600080600060a08688031215611e5257611e51611aef565b5b600086013567ffffffffffffffff811115611e7057611e6f611af4565b5b611e7c88828901611cf8565b9550506020611e8d88828901611b1a565b9450506040611e9e88828901611e21565b9350506060611eaf88828901611b1a565b9250506080611ec088828901611b1a565b9150509295509295909350565b60008115159050919050565b611ee281611ecd565b82525050565b6000602082019050611efd6000830184611ed9565b92915050565b600080600060608486031215611f1c57611f1b611aef565b5b600084013567ffffffffffffffff811115611f3a57611f39611af4565b5b611f4686828701611cf8565b935050602084013567ffffffffffffffff811115611f6757611f66611af4565b5b611f7386828701611cf8565b925050604084013567ffffffffffffffff811115611f9457611f93611af4565b5b611fa086828701611cf8565b9150509250925092565b611fb381611b2f565b82525050565b6000602082019050611fce6000830184611faa565b92915050565b600060208284031215611fea57611fe9611aef565b5b600082013567ffffffffffffffff81111561200857612007611af4565b5b61201484828501611cf8565b91505092915050565b60007fffffffffffffffffffffffffffffffffffffffff00000000000000000000000082169050919050565b6120528161201d565b82525050565b600060808201905061206d6000830187611faa565b61207a6020830186612049565b6120876040830185611faa565b6120946060830184612049565b95945050505050565b600082825260208201905092915050565b7f436865636b426974636f696e536967732f636865636b536967202d2d2052657160008201527f756972657320756e636f6d7072657373656420756e707265666978656420707560208201527f626b657900000000000000000000000000000000000000000000000000000000604082015250565b600061213060448361209d565b915061213b826120ae565b606082019050919050565b6000602082019050818103600083015261215f81612123565b9050919050565b61216f81611af9565b82525050565b61217e81611dfd565b82525050565b60006080820190506121996000830187612166565b6121a66020830186612175565b6121b36040830185612166565b6121c06060830184612166565b95945050505050565b7f4e487b7100000000000000000000000000000000000000000000000000000000600052603260045260246000fd5b7f4e487b7100000000000000000000000000000000000000000000000000000000600052601160045260246000fd5b600061223282611b2f565b91507fffffffffffffffffffffffffffffffffffffffffffffffffffffffffffffffff8203612264576122636121f8565b5b600182019050919050565b600081519050919050565b60005b8381101561229857808201518184015260208101905061227d565b60008484015250505050565b60006122af8261226f565b6122b9818561209d565b93506122c981856020860161227a565b6122d281611bea565b840191505092915050565b600060408201905081810360008301526122f781856122a4565b90506123066020830184611faa565b9392505050565b6000604082019050818103600083015261232781856122a4565b9050818103602083015261233b81846122a4565b90509392505050565b7f5075626b6579206d7573742062652036342d62797465207261772c20756e636f60008201527f6d70726573736564206b65792e00000000000000000000000000000000000000602082015250565b60006123a0602d8361209d565b91506123ab82612344565b604082019050919050565b600060208201905081810360008301526123cf81612393565b9050919050565b60006123e182611b2f565b91506123ec83611b2f565b9250828201905080821115612404576124036121f8565b5b92915050565b600061241582611b2f565b915061242083611b2f565b925082820261242e81611b2f565b91508282048414831517612445576124446121f8565b5b5092915050565b600061245782611b2f565b91506000820361246a576124696121f8565b5b600182039050919050565b600060408201905061248a6000830185611faa565b6124976020830184611faa565b9392505050565b600061ffff82169050919050565b60006124b78261249e565b91506124c28361249e565b92508282026124d08161249e565b91508082146124e2576124e16121f8565b5b5092915050565b600063ffffffff82169050919050565b6000612504826124e9565b915061250f836124e9565b925082820261251d816124e9565b915080821461252f5761252e6121f8565b5b5092915050565b600067ffffffffffffffff82169050919050565b600061255582612536565b915061256083612536565b925082820261256e81612536565b91508082146125805761257f6121f8565b5b5092915050565b600073ffffffffffffffffffffffffffffffffffffffff82169050919050565b60006125b282612587565b91506125bd83612587565b9250828203905073ffffffffffffffffffffffffffffffffffffffff8111156125e9576125e86121f8565b5b92915050565b60006125fa82612587565b915061260583612587565b925082820261261381612587565b9150828204841483151761262a576126296121f8565b5b5092915050565b600061263c82612587565b915061264783612587565b9250828201905073ffffffffffffffffffffffffffffffffffffffff811115612673576126726121f8565b5b92915050565b600061268482612587565b915073ffffffffffffffffffffffffffffffffffffffff82036126aa576126a96121f8565b5b600182019050919050565b7f4f766572666c6f7720647572696e67206164646974696f6e2e00000000000000600082015250565b60006126eb60198361209d565b91506126f6826126b5565b602082019050919050565b6000602082019050818103600083015261271a816126de565b9050919050565b7f4e487b7100000000000000000000000000000000000000000000000000000000600052605160045260246000fdfea2646970667358221220f5034b8d8684170491b783b1875fa934e77e4bbf6f42ee74a4fd9a10a9a366cd64736f6c63430008130033",
  "linkReferences": {},
  "deployedLinkReferences": {}
}