{
  "_format": "hh-sol-artifact-1",
  "contractName": "LNBridge",
  "sourceName": "contracts/LNBridge.sol",
  "abi": [
    {
      "inputs": [
        {
          "internalType": "uint256",
          "name": "value",
          "type": "uint256"
        },
        {
          "internalType": "uint256",
          "name": "length",
          "type": "uint256"
        }
      ],
      "name": "StringsInsufficientHexLength",
      "type": "error"
    },
    {
      "inputs": [],
      "name": "bridge",
      "outputs": [
        {
          "internalType": "bytes32",
          "name": "fundingTxId",
          "type": "bytes32"
        },
        {
          "internalType": "bytes32",
          "name": "pkProver",
          "type": "bytes32"
        },
        {
          "internalType": "bytes32",
          "name": "pkVerifier",
          "type": "bytes32"
        },
        {
          "internalType": "uint256",
          "name": "index",
          "type": "uint256"
        },
        {
          "internalType": "uint256",
          "name": "timelock",
          "type": "uint256"
        },
        {
          "internalType": "uint256",
          "name": "timelock_dispute",
          "type": "uint256"
        }
      ],
      "stateMutability": "view",
      "type": "function"
    },
    {
      "inputs": [
        {
          "internalType": "bytes",
          "name": "rawTxP_locked",
          "type": "bytes"
        },
        {
          "internalType": "bytes",
          "name": "sigV",
          "type": "bytes"
        },
        {
          "internalType": "bytes",
          "name": "rawTxV_unlocked",
          "type": "bytes"
        },
        {
          "internalType": "bytes",
          "name": "sigP",
          "type": "bytes"
        }
      ],
      "name": "dispute",
      "outputs": [],
      "stateMutability": "nonpayable",
      "type": "function"
    },
    {
      "inputs": [
        {
          "internalType": "bytes",
          "name": "_txBytes",
          "type": "bytes"
        }
      ],
      "name": "getInputsData",
      "outputs": [
        {
          "internalType": "bytes1",
          "name": "",
          "type": "bytes1"
        },
        {
          "internalType": "bytes32",
          "name": "",
          "type": "bytes32"
        },
        {
          "internalType": "bytes4",
          "name": "",
          "type": "bytes4"
        }
      ],
      "stateMutability": "nonpayable",
      "type": "function"
    },
    {
      "inputs": [
        {
          "internalType": "bytes",
          "name": "_txBytes",
          "type": "bytes"
        }
      ],
      "name": "getOutputsData",
      "outputs": [
        {
          "internalType": "uint256",
          "name": "",
          "type": "uint256"
        },
        {
          "internalType": "bytes32",
          "name": "",
          "type": "bytes32"
        },
        {
          "internalType": "bytes32",
          "name": "",
          "type": "bytes32"
        },
        {
          "internalType": "bytes32",
          "name": "",
          "type": "bytes32"
        },
        {
          "internalType": "uint256",
          "name": "",
          "type": "uint256"
        },
        {
          "internalType": "bytes32",
          "name": "",
          "type": "bytes32"
        },
        {
          "internalType": "uint256",
          "name": "",
          "type": "uint256"
        },
        {
          "internalType": "bytes32",
          "name": "",
          "type": "bytes32"
        }
      ],
      "stateMutability": "nonpayable",
      "type": "function"
    },
    {
      "inputs": [
        {
          "internalType": "bytes",
          "name": "_txBytes",
          "type": "bytes"
        }
      ],
      "name": "getSignatures",
      "outputs": [
        {
          "components": [
            {
              "internalType": "uint8",
              "name": "v",
              "type": "uint8"
            },
            {
              "internalType": "bytes32",
              "name": "r",
              "type": "bytes32"
            },
            {
              "internalType": "bytes32",
              "name": "s",
              "type": "bytes32"
            }
          ],
          "internalType": "struct LNBridge.Signature[]",
          "name": "",
          "type": "tuple[]"
        }
      ],
      "stateMutability": "nonpayable",
      "type": "function"
    },
    {
      "inputs": [
        {
          "internalType": "bytes",
          "name": "_txBytes",
          "type": "bytes"
        }
      ],
      "name": "getTimelock",
      "outputs": [
        {
          "internalType": "bytes4",
          "name": "",
          "type": "bytes4"
        }
      ],
      "stateMutability": "nonpayable",
      "type": "function"
    },
    {
      "inputs": [],
      "name": "htlc",
      "outputs": [
        {
          "internalType": "uint256",
          "name": "value",
          "type": "uint256"
        },
        {
          "internalType": "bytes32",
          "name": "pk1",
          "type": "bytes32"
        },
        {
          "internalType": "bytes32",
          "name": "pk2",
          "type": "bytes32"
        },
        {
          "internalType": "bytes32",
          "name": "rev_secret",
          "type": "bytes32"
        }
      ],
      "stateMutability": "view",
      "type": "function"
    },
    {
      "inputs": [],
      "name": "opreturn",
      "outputs": [
        {
          "internalType": "uint256",
          "name": "value",
          "type": "uint256"
        },
        {
          "internalType": "bytes32",
          "name": "data",
          "type": "bytes32"
        }
      ],
      "stateMutability": "view",
      "type": "function"
    },
    {
      "inputs": [],
      "name": "out_aux",
      "outputs": [
        {
          "internalType": "uint256",
          "name": "pos",
          "type": "uint256"
        }
      ],
      "stateMutability": "view",
      "type": "function"
    },
    {
      "inputs": [],
      "name": "p2pkh",
      "outputs": [
        {
          "internalType": "uint256",
          "name": "value",
          "type": "uint256"
        },
        {
          "internalType": "bytes32",
          "name": "pkhash",
          "type": "bytes32"
        }
      ],
      "stateMutability": "view",
      "type": "function"
    },
    {
      "inputs": [
        {
          "internalType": "bytes",
          "name": "oldRevSecret",
          "type": "bytes"
        },
        {
          "internalType": "bytes",
          "name": "rawTxP_unlocked",
          "type": "bytes"
        },
        {
          "internalType": "bytes",
          "name": "sigV",
          "type": "bytes"
        }
      ],
      "name": "resolveDispute",
      "outputs": [],
      "stateMutability": "nonpayable",
      "type": "function"
    },
    {
      "inputs": [],
      "name": "settle",
      "outputs": [],
      "stateMutability": "nonpayable",
      "type": "function"
    },
    {
      "inputs": [
        {
          "internalType": "bytes32",
          "name": "_fundingTxId",
          "type": "bytes32"
        },
        {
          "internalType": "bytes32",
          "name": "_pkProver",
          "type": "bytes32"
        },
        {
          "internalType": "bytes32",
          "name": "_pkVerifier",
          "type": "bytes32"
        },
        {
          "internalType": "uint256",
          "name": "_index",
          "type": "uint256"
        },
        {
          "internalType": "uint256",
          "name": "_timelock",
          "type": "uint256"
        }
      ],
      "name": "setup",
      "outputs": [],
      "stateMutability": "nonpayable",
      "type": "function"
    },
    {
      "inputs": [
        {
          "internalType": "bytes",
          "name": "rawTxP_unlocked",
          "type": "bytes"
        },
        {
          "internalType": "bytes",
          "name": "sigV",
          "type": "bytes"
        },
        {
          "internalType": "bytes",
          "name": "rawTxV_unlocked",
          "type": "bytes"
        },
        {
          "internalType": "bytes",
          "name": "sigP",
          "type": "bytes"
        }
      ],
      "name": "submitProof",
      "outputs": [],
      "stateMutability": "nonpayable",
      "type": "function"
    }
  ],
  "bytecode": "0x608060405234801561001057600080fd5b506133c1806100206000396000f3fe608060405234801561001057600080fd5b50600436106100ea5760003560e01c806366b85d571161008c57806379a85bd91161006657806379a85bd9146102535780638504b3b91461026f578063e4b23d0c1461028e578063e78cea92146102af576100ea565b806366b85d57146101e65780636b45b4e31461020457806372ca346f14610234576100ea565b80633740d249116100c85780633740d2491461014557806343f104d214610161578063497c6cf61461017d5780634f500ea9146101b4576100ea565b806306ac0e26146100ef57806311da60b41461010b5780633694648014610115575b600080fd5b61010960048036038101906101049190612513565b6102d2565b005b61011361030b565b005b61012f600480360381019061012a91906126d4565b61030d565b60405161013c9190612758565b60405180910390f35b61015f600480360381019061015a9190612773565b610343565b005b61017b60048036038101906101769190612773565b610349565b005b610197600480360381019061019291906126d4565b61034f565b6040516101ab989796959493929190612868565b60405180910390f35b6101ce60048036038101906101c991906126d4565b610645565b6040516101dd93929190612921565b60405180910390f35b6101ee6106fe565b6040516101fb9190612958565b60405180910390f35b61021e600480360381019061021991906126d4565b61070a565b60405161022b9190612a8f565b60405180910390f35b61023c610716565b60405161024a929190612ab1565b60405180910390f35b61026d60048036038101906102689190612ada565b610728565b005b61027761072d565b604051610285929190612ab1565b60405180910390f35b61029661073f565b6040516102a69493929190612b81565b60405180910390f35b6102b761075d565b6040516102c996959493929190612bc6565b60405180910390f35b84600d6000018190555083600d6001018190555082600d6002018190555081600d6003018190555080600d600401819055505050505050565b565b60008082519050600061032e846005846103279190612c56565b6004610787565b61033790612cc7565b90508092505050919050565b50505050565b50505050565b60008060008060008060008060046008600001819055506103778960086000015460006108a5565b600860010160006008600001600084919050558391905090805190602001906103a192919061241f565b5050506103b58960086000015460006109b7565b6008600401600060086003016000600860020160006008600001600088919050558791905090805190602001906103ed92919061241f565b5086919050908051906020019061040592919061241f565b5085919050908051906020019061041d92919061241f565b505050505060005b60038110156105fa57600081036104d3576104838a6008600301838154811061045157610450612d2e565b5b90600052602060002001546008600201848154811061047357610472612d2e565b5b9060005260206000200154610bae565b60006001016000806003016000806002016000869190505585919050558491905055505050600860040181815481106104bf576104be612d2e565b5b906000526020600020015460008001819055505b6001810361055d576105288a600860030183815481106104f6576104f5612d2e565b5b90600052602060002001546008600201848154811061051857610517612d2e565b5b9060005260206000200154610c6a565b6006600101819055506008600401818154811061054857610547612d2e565b5b90600052602060002001546006600001819055505b600281036105e7576105b28a600860030183815481106105805761057f612d2e565b5b9060005260206000200154600860020184815481106105a2576105a1612d2e565b5b9060005260206000200154610c6a565b600460010181905550600860040181815481106105d2576105d1612d2e565b5b90600052602060002001546004600001819055505b80806105f290612d5d565b915050610425565b50600080015460006001015460006003015460006002015460066000015460066001015460046000015460046001015497509750975097509750975097509750919395975091939597565b6000806000806106588560256004610787565b61066190612cc7565b905060006106836106758760056025610787565b61067e90612dba565b610e44565b905060006106948760046001610787565b61069d90612e36565b90506106eb6040518060400160405280600781526020017f74786964313a20000000000000000000000000000000000000000000000000008152506106e68460001c6020610f42565b611188565b8082849550955095505050509193909250565b60088060000154905081565b60608080915050919050565b60068060000154908060010154905082565b505050565b60048060000154908060010154905082565b60008060000154908060010154908060020154908060030154905084565b600d8060000154908060010154908060020154908060030154908060040154908060050154905086565b606081601f836107979190612e9d565b10156107d8576040517f08c379a00000000000000000000000000000000000000000000000000000000081526004016107cf90612f2e565b60405180910390fd5b81836107e49190612e9d565b84511015610827576040517f08c379a000000000000000000000000000000000000000000000000000000000815260040161081e90612f9a565b60405180910390fd5b60608215600081146108485760405191506000825260208201604052610899565b6040519150601f8416801560200281840101858101878315602002848b0101015b818310156108865780518352602083019250602081019050610869565b50868552601f19601f8301166040525050505b50809150509392505050565b60606000806000806108b78888611224565b809850819450505060008614806108cd57508286115b156108da578291506108de565b8591505b60008267ffffffffffffffff8111156108fa576108f96125a9565b5b6040519080825280602002602001820160405280156109285781602001602082028036833780820191505090505b50905060005b838110156109a4576024896109439190612e9d565b985061094f8a8a611224565b809a5081945050508282828151811061096b5761096a612d2e565b5b6020026020010181815250506004836109849190612e9d565b8961098f9190612e9d565b9850808061099c90612d5d565b91505061092e565b5080889550955050505050935093915050565b60608060606000806000806109cc8a8a611224565b809a50819450505060008814806109e257508288115b156109ef578291506109f3565b8791505b60008267ffffffffffffffff811115610a0f57610a0e6125a9565b5b604051908082528060200260200182016040528015610a3d5781602001602082028036833780820191505090505b50905060008367ffffffffffffffff811115610a5c57610a5b6125a9565b5b604051908082528060200260200182016040528015610a8a5781602001602082028036833780820191505090505b50905060008467ffffffffffffffff811115610aa957610aa86125a9565b5b604051908082528060200260200182016040528015610ad75781602001602082028036833780820191505090505b50905060005b85811015610b9257610af18e8e604061134e565b828281518110610b0457610b03612d2e565b5b60200260200101818152505060088d610b1d9190612e9d565b9c50610b298e8e611224565b809e5081965050508c848281518110610b4557610b44612d2e565b5b60200260200101818152505084838281518110610b6557610b64612d2e565b5b602002602001018181525050848d610b7d9190612e9d565b9c508080610b8a90612d5d565b915050610add565b508083838e995099509950995050505050505093509350935093565b6000806000610bbe8686866117b9565b15610c4e57610c016040518060400160405280601b81526020017f506172736564204c696768746e696e6748544c43206f75747075740000000000815250611d68565b610c1786600387610c129190612e9d565b611e01565b610c2d87602888610c289190612e9d565b611e01565b610c4388604c89610c3e9190612e9d565b611e01565b925092509250610c61565b6000801b6000801b6000801b9250925092505b93509350939050565b6000610c77848484611e8c565b15610ce657610cba6040518060400160405280601381526020017f506172736564205032504b48206f757470757400000000000000000000000000815250611d68565b610cd084600385610ccb9190612e9d565b612051565b6bffffffffffffffffffffffff19169050610e3d565b610cf1848484612134565b15610d6057610d346040518060400160405280601281526020017f5061727365642050325348206f75747075740000000000000000000000000000815250611d68565b610d4a84600285610d459190612e9d565b612051565b6bffffffffffffffffffffffff19169050610e3d565b610d6b848484612251565b15610dcb57610dae6040518060400160405280601781526020017f506172736564204f505f52455455524e206f7574707574000000000000000000815250611d68565b610dc484600285610dbf9190612e9d565b611e01565b9050610e3d565b610dd68484846117b9565b15610e3657610e196040518060400160405280601b81526020017f506172736564204c696768746e696e6748544c43206f75747075740000000000815250611d68565b610e2f84600285610e2a9190612e9d565b611e01565b9050610e3d565b6000801b90505b9392505050565b600080602060ff1667ffffffffffffffff811115610e6557610e646125a9565b5b6040519080825280601f01601f191660200182016040528015610e975781602001600182028036833780820191505090505b50905060005b602060ff16811015610f3057838160208110610ebc57610ebb612d2e565b5b1a60f81b82600183602060ff16610ed39190612c56565b610edd9190612c56565b81518110610eee57610eed612d2e565b5b60200101907effffffffffffffffffffffffffffffffffffffffffffffffffffffffffffff1916908160001a9053508080610f2890612d5d565b915050610e9d565b50610f3a81612314565b915050919050565b6060600083905060006002846002610f5a9190612fba565b610f649190612e9d565b67ffffffffffffffff811115610f7d57610f7c6125a9565b5b6040519080825280601f01601f191660200182016040528015610faf5781602001600182028036833780820191505090505b5090507f300000000000000000000000000000000000000000000000000000000000000081600081518110610fe757610fe6612d2e565b5b60200101907effffffffffffffffffffffffffffffffffffffffffffffffffffffffffffff1916908160001a9053507f78000000000000000000000000000000000000000000000000000000000000008160018151811061104b5761104a612d2e565b5b60200101907effffffffffffffffffffffffffffffffffffffffffffffffffffffffffffff1916908160001a9053506000600185600261108b9190612fba565b6110959190612e9d565b90505b6001811115611135577f3031323334353637383961626364656600000000000000000000000000000000600f8416601081106110d7576110d6612d2e565b5b1a60f81b8282815181106110ee576110ed612d2e565b5b60200101907effffffffffffffffffffffffffffffffffffffffffffffffffffffffffffff1916908160001a905350600483901c92508061112e90612ffc565b9050611098565b506000821461117d5784846040517fe22e27eb000000000000000000000000000000000000000000000000000000008152600401611174929190613025565b60405180910390fd5b809250505092915050565b611220828260405160240161119e9291906130bc565b6040516020818303038152906040527f4b5c4277000000000000000000000000000000000000000000000000000000007bffffffffffffffffffffffffffffffffffffffffffffffffffffffff19166020820180517bffffffffffffffffffffffffffffffffffffffffffffffffffffffff838183161783525050505061233d565b5050565b600080600084848151811061123c5761123b612d2e565b5b602001015160f81c60f81b60f81c905061128e6040518060400160405280600681526020017f696269743a2000000000000000000000000000000000000000000000000000008152508260ff16612357565b60018461129b9190612e9d565b935060fd8160ff1610156112bb5780848160ff1691509250925050611347565b60fd8160ff16036112e9576112d28585601061134e565b6002856112df9190612e9d565b9250925050611347565b60fe8160ff1603611317576113008585602061134e565b60048561130d9190612e9d565b9250925050611347565b60ff8160ff16036113455761132e8585604061134e565b60088561133b9190612e9d565b9250925050611347565b505b9250929050565b6000600882036113835783838151811061136b5761136a612d2e565b5b602001015160f81c60f81b60f81c60ff1690506117b2565b60108203611405576101008460018561139c9190612e9d565b815181106113ad576113ac612d2e565b5b602001015160f81c60f81b60f81c60ff166113c89190613101565b61ffff168484815181106113df576113de612d2e565b5b602001015160f81c60f81b60f81c60ff1661ffff166113fe9190612e9d565b90506117b2565b60208203611528576301000000846003856114209190612e9d565b8151811061143157611430612d2e565b5b602001015160f81c60f81b60f81c60ff1661144c919061314e565b63ffffffff1662010000856002866114649190612e9d565b8151811061147557611474612d2e565b5b602001015160f81c60f81b60f81c60ff16611490919061314e565b63ffffffff16610100866001876114a79190612e9d565b815181106114b8576114b7612d2e565b5b602001015160f81c60f81b60f81c60ff166114d3919061314e565b63ffffffff168686815181106114ec576114eb612d2e565b5b602001015160f81c60f81b60f81c60ff1663ffffffff1661150d9190612e9d565b6115179190612e9d565b6115219190612e9d565b90506117b2565b604082036117b157670100000000000000846007856115479190612e9d565b8151811061155857611557612d2e565b5b602001015160f81c60f81b60f81c60ff16611573919061319f565b67ffffffffffffffff166601000000000000856006866115939190612e9d565b815181106115a4576115a3612d2e565b5b602001015160f81c60f81b60f81c60ff166115bf919061319f565b67ffffffffffffffff1665010000000000866005876115de9190612e9d565b815181106115ef576115ee612d2e565b5b602001015160f81c60f81b60f81c60ff1661160a919061319f565b67ffffffffffffffff16640100000000876004886116289190612e9d565b8151811061163957611638612d2e565b5b602001015160f81c60f81b60f81c60ff16611654919061319f565b67ffffffffffffffff166301000000886003896116719190612e9d565b8151811061168257611681612d2e565b5b602001015160f81c60f81b60f81c60ff1661169d919061319f565b67ffffffffffffffff16620100008960028a6116b99190612e9d565b815181106116ca576116c9612d2e565b5b602001015160f81c60f81b60f81c60ff166116e5919061319f565b67ffffffffffffffff166101008a60018b6117009190612e9d565b8151811061171157611710612d2e565b5b602001015160f81c60f81b60f81c60ff1661172c919061319f565b67ffffffffffffffff168a8a8151811061174957611748612d2e565b5b602001015160f81c60f81b60f81c60ff1667ffffffffffffffff1661176e9190612e9d565b6117789190612e9d565b6117829190612e9d565b61178c9190612e9d565b6117969190612e9d565b6117a09190612e9d565b6117aa9190612e9d565b90506117b2565b5b9392505050565b60006072821480156118195750607660f81b846000856117d99190612e9d565b815181106117ea576117e9612d2e565b5b602001015160f81c60f81b7effffffffffffffffffffffffffffffffffffffffffffffffffffffffffffff1916145b80156118735750602160f81b846001856118339190612e9d565b8151811061184457611843612d2e565b5b602001015160f81c60f81b7effffffffffffffffffffffffffffffffffffffffffffffffffffffffffffff1916145b80156118cd575060ac60f81b8460238561188d9190612e9d565b8151811061189e5761189d612d2e565b5b602001015160f81c60f81b7effffffffffffffffffffffffffffffffffffffffffffffffffffffffffffff1916145b80156119275750606360f81b846024856118e79190612e9d565b815181106118f8576118f7612d2e565b5b602001015160f81c60f81b7effffffffffffffffffffffffffffffffffffffffffffffffffffffffffffff1916145b80156119815750607560f81b846025856119419190612e9d565b8151811061195257611951612d2e565b5b602001015160f81c60f81b7effffffffffffffffffffffffffffffffffffffffffffffffffffffffffffff1916145b80156119db575060aa60f81b8460268561199b9190612e9d565b815181106119ac576119ab612d2e565b5b602001015160f81c60f81b7effffffffffffffffffffffffffffffffffffffffffffffffffffffffffffff1916145b8015611a355750602060f81b846027856119f59190612e9d565b81518110611a0657611a05612d2e565b5b602001015160f81c60f81b7effffffffffffffffffffffffffffffffffffffffffffffffffffffffffffff1916145b8015611a8f5750608860f81b84604885611a4f9190612e9d565b81518110611a6057611a5f612d2e565b5b602001015160f81c60f81b7effffffffffffffffffffffffffffffffffffffffffffffffffffffffffffff1916145b8015611ae95750606760f81b84604985611aa99190612e9d565b81518110611aba57611ab9612d2e565b5b602001015160f81c60f81b7effffffffffffffffffffffffffffffffffffffffffffffffffffffffffffff1916145b8015611b435750602160f81b84604a85611b039190612e9d565b81518110611b1457611b13612d2e565b5b602001015160f81c60f81b7effffffffffffffffffffffffffffffffffffffffffffffffffffffffffffff1916145b8015611b9d575060ad60f81b84606c85611b5d9190612e9d565b81518110611b6e57611b6d612d2e565b5b602001015160f81c60f81b7effffffffffffffffffffffffffffffffffffffffffffffffffffffffffffff1916145b8015611bf75750605260f81b84606d85611bb79190612e9d565b81518110611bc857611bc7612d2e565b5b602001015160f81c60f81b7effffffffffffffffffffffffffffffffffffffffffffffffffffffffffffff1916145b8015611c51575060b260f81b84606e85611c119190612e9d565b81518110611c2257611c21612d2e565b5b602001015160f81c60f81b7effffffffffffffffffffffffffffffffffffffffffffffffffffffffffffff1916145b8015611cab5750607560f81b84606f85611c6b9190612e9d565b81518110611c7c57611c7b612d2e565b5b602001015160f81c60f81b7effffffffffffffffffffffffffffffffffffffffffffffffffffffffffffff1916145b8015611d055750606860f81b84607085611cc59190612e9d565b81518110611cd657611cd5612d2e565b5b602001015160f81c60f81b7effffffffffffffffffffffffffffffffffffffffffffffffffffffffffffff1916145b8015611d5f5750605160f81b84607185611d1f9190612e9d565b81518110611d3057611d2f612d2e565b5b602001015160f81c60f81b7effffffffffffffffffffffffffffffffffffffffffffffffffffffffffffff1916145b90509392505050565b611dfe81604051602401611d7c91906131dc565b6040516020818303038152906040527f41304fac000000000000000000000000000000000000000000000000000000007bffffffffffffffffffffffffffffffffffffffffffffffffffffffff19166020820180517bffffffffffffffffffffffffffffffffffffffffffffffffffffffff838183161783525050505061233d565b50565b6000806000905060005b6020811015611e7e5780601f611e219190612c56565b6008611e2d9190612fba565b858583611e3a9190612e9d565b81518110611e4b57611e4a612d2e565b5b602001015160f81c60f81b60f81c60ff16901b82611e699190612e9d565b91508080611e7690612d5d565b915050611e0b565b508060001b91505092915050565b6000601982148015611ee05750607660f81b848481518110611eb157611eb0612d2e565b5b602001015160f81c60f81b7effffffffffffffffffffffffffffffffffffffffffffffffffffffffffffff1916145b8015611f3a575060a960f81b84600185611efa9190612e9d565b81518110611f0b57611f0a612d2e565b5b602001015160f81c60f81b7effffffffffffffffffffffffffffffffffffffffffffffffffffffffffffff1916145b8015611f945750601460f81b84600285611f549190612e9d565b81518110611f6557611f64612d2e565b5b602001015160f81c60f81b7effffffffffffffffffffffffffffffffffffffffffffffffffffffffffffff1916145b8015611fee5750608860f81b84601785611fae9190612e9d565b81518110611fbf57611fbe612d2e565b5b602001015160f81c60f81b7effffffffffffffffffffffffffffffffffffffffffffffffffffffffffffff1916145b8015612048575060ac60f81b846018856120089190612e9d565b8151811061201957612018612d2e565b5b602001015160f81c60f81b7effffffffffffffffffffffffffffffffffffffffffffffffffffffffffffff1916145b90509392505050565b6000806000905060005b60148173ffffffffffffffffffffffffffffffffffffffff16101561212657806013612087919061321e565b60086120939190613266565b73ffffffffffffffffffffffffffffffffffffffff1685858373ffffffffffffffffffffffffffffffffffffffff166120cc9190612e9d565b815181106120dd576120dc612d2e565b5b602001015160f81c60f81b60f81c60ff1673ffffffffffffffffffffffffffffffffffffffff16901b8261211191906132a8565b9150808061211e906132f0565b91505061205b565b508060601b91505092915050565b6000601782148015612194575060a960f81b846000856121549190612e9d565b8151811061216557612164612d2e565b5b602001015160f81c60f81b7effffffffffffffffffffffffffffffffffffffffffffffffffffffffffffff1916145b80156121ee5750601460f81b846001856121ae9190612e9d565b815181106121bf576121be612d2e565b5b602001015160f81c60f81b7effffffffffffffffffffffffffffffffffffffffffffffffffffffffffffff1916145b80156122485750608760f81b846016856122089190612e9d565b8151811061221957612218612d2e565b5b602001015160f81c60f81b7effffffffffffffffffffffffffffffffffffffffffffffffffffffffffffff1916145b90509392505050565b60006022821480156122b15750606a60f81b846000856122719190612e9d565b8151811061228257612281612d2e565b5b602001015160f81c60f81b7effffffffffffffffffffffffffffffffffffffffffffffffffffffffffffff1916145b801561230b5750602060f81b846001856122cb9190612e9d565b815181106122dc576122db612d2e565b5b602001015160f81c60f81b7effffffffffffffffffffffffffffffffffffffffffffffffffffffffffffff1916145b90509392505050565b600080829050600081510361232f576000801b915050612338565b60208301519150505b919050565b6123548161234c6123f3612414565b63ffffffff16565b50565b6123ef828260405160240161236d92919061332c565b6040516020818303038152906040527fb60e72cc000000000000000000000000000000000000000000000000000000007bffffffffffffffffffffffffffffffffffffffffffffffffffffffff19166020820180517bffffffffffffffffffffffffffffffffffffffffffffffffffffffff838183161783525050505061233d565b5050565b60006a636f6e736f6c652e6c6f679050600080835160208501845afa505050565b61246c819050919050565b82805482825590600052602060002090810192821561245b579160200282015b8281111561245a57825182559160200191906001019061243f565b5b5090506124689190612476565b5090565b61247461335c565b565b5b8082111561248f576000816000905550600101612477565b5090565b6000604051905090565b600080fd5b600080fd5b6000819050919050565b6124ba816124a7565b81146124c557600080fd5b50565b6000813590506124d7816124b1565b92915050565b6000819050919050565b6124f0816124dd565b81146124fb57600080fd5b50565b60008135905061250d816124e7565b92915050565b600080600080600060a0868803121561252f5761252e61249d565b5b600061253d888289016124c8565b955050602061254e888289016124c8565b945050604061255f888289016124c8565b9350506060612570888289016124fe565b9250506080612581888289016124fe565b9150509295509295909350565b600080fd5b600080fd5b6000601f19601f8301169050919050565b7f4e487b7100000000000000000000000000000000000000000000000000000000600052604160045260246000fd5b6125e182612598565b810181811067ffffffffffffffff82111715612600576125ff6125a9565b5b80604052505050565b6000612613612493565b905061261f82826125d8565b919050565b600067ffffffffffffffff82111561263f5761263e6125a9565b5b61264882612598565b9050602081019050919050565b82818337600083830152505050565b600061267761267284612624565b612609565b90508281526020810184848401111561269357612692612593565b5b61269e848285612655565b509392505050565b600082601f8301126126bb576126ba61258e565b5b81356126cb848260208601612664565b91505092915050565b6000602082840312156126ea576126e961249d565b5b600082013567ffffffffffffffff811115612708576127076124a2565b5b612714848285016126a6565b91505092915050565b60007fffffffff0000000000000000000000000000000000000000000000000000000082169050919050565b6127528161271d565b82525050565b600060208201905061276d6000830184612749565b92915050565b6000806000806080858703121561278d5761278c61249d565b5b600085013567ffffffffffffffff8111156127ab576127aa6124a2565b5b6127b7878288016126a6565b945050602085013567ffffffffffffffff8111156127d8576127d76124a2565b5b6127e4878288016126a6565b935050604085013567ffffffffffffffff811115612805576128046124a2565b5b612811878288016126a6565b925050606085013567ffffffffffffffff811115612832576128316124a2565b5b61283e878288016126a6565b91505092959194509250565b612853816124dd565b82525050565b612862816124a7565b82525050565b60006101008201905061287e600083018b61284a565b61288b602083018a612859565b6128986040830189612859565b6128a56060830188612859565b6128b2608083018761284a565b6128bf60a0830186612859565b6128cc60c083018561284a565b6128d960e0830184612859565b9998505050505050505050565b60007fff0000000000000000000000000000000000000000000000000000000000000082169050919050565b61291b816128e6565b82525050565b60006060820190506129366000830186612912565b6129436020830185612859565b6129506040830184612749565b949350505050565b600060208201905061296d600083018461284a565b92915050565b600081519050919050565b600082825260208201905092915050565b6000819050602082019050919050565b600060ff82169050919050565b6129b58161299f565b82525050565b6129c4816124a7565b82525050565b6060820160008201516129e060008501826129ac565b5060208201516129f360208501826129bb565b506040820151612a0660408501826129bb565b50505050565b6000612a1883836129ca565b60608301905092915050565b6000602082019050919050565b6000612a3c82612973565b612a46818561297e565b9350612a518361298f565b8060005b83811015612a82578151612a698882612a0c565b9750612a7483612a24565b925050600181019050612a55565b5085935050505092915050565b60006020820190508181036000830152612aa98184612a31565b905092915050565b6000604082019050612ac6600083018561284a565b612ad36020830184612859565b9392505050565b600080600060608486031215612af357612af261249d565b5b600084013567ffffffffffffffff811115612b1157612b106124a2565b5b612b1d868287016126a6565b935050602084013567ffffffffffffffff811115612b3e57612b3d6124a2565b5b612b4a868287016126a6565b925050604084013567ffffffffffffffff811115612b6b57612b6a6124a2565b5b612b77868287016126a6565b9150509250925092565b6000608082019050612b96600083018761284a565b612ba36020830186612859565b612bb06040830185612859565b612bbd6060830184612859565b95945050505050565b600060c082019050612bdb6000830189612859565b612be86020830188612859565b612bf56040830187612859565b612c02606083018661284a565b612c0f608083018561284a565b612c1c60a083018461284a565b979650505050505050565b7f4e487b7100000000000000000000000000000000000000000000000000000000600052601160045260246000fd5b6000612c61826124dd565b9150612c6c836124dd565b9250828203905081811115612c8457612c83612c27565b5b92915050565b600081519050919050565b6000819050602082019050919050565b6000612cb1825161271d565b80915050919050565b600082821b905092915050565b6000612cd282612c8a565b82612cdc84612c95565b9050612ce781612ca5565b92506004821015612d2757612d227fffffffff0000000000000000000000000000000000000000000000000000000083600403600802612cba565b831692505b5050919050565b7f4e487b7100000000000000000000000000000000000000000000000000000000600052603260045260246000fd5b6000612d68826124dd565b91507fffffffffffffffffffffffffffffffffffffffffffffffffffffffffffffffff8203612d9a57612d99612c27565b5b600182019050919050565b6000612db182516124a7565b80915050919050565b6000612dc582612c8a565b82612dcf84612c95565b9050612dda81612da5565b92506020821015612e1a57612e157fffffffffffffffffffffffffffffffffffffffffffffffffffffffffffffffff83602003600802612cba565b831692505b5050919050565b6000612e2d82516128e6565b80915050919050565b6000612e4182612c8a565b82612e4b84612c95565b9050612e5681612e21565b92506001821015612e9657612e917fff0000000000000000000000000000000000000000000000000000000000000083600103600802612cba565b831692505b5050919050565b6000612ea8826124dd565b9150612eb3836124dd565b9250828201905080821115612ecb57612eca612c27565b5b92915050565b600082825260208201905092915050565b7f736c6963655f6f766572666c6f77000000000000000000000000000000000000600082015250565b6000612f18600e83612ed1565b9150612f2382612ee2565b602082019050919050565b60006020820190508181036000830152612f4781612f0b565b9050919050565b7f736c6963655f6f75744f66426f756e6473000000000000000000000000000000600082015250565b6000612f84601183612ed1565b9150612f8f82612f4e565b602082019050919050565b60006020820190508181036000830152612fb381612f77565b9050919050565b6000612fc5826124dd565b9150612fd0836124dd565b9250828202612fde816124dd565b91508282048414831517612ff557612ff4612c27565b5b5092915050565b6000613007826124dd565b91506000820361301a57613019612c27565b5b600182039050919050565b600060408201905061303a600083018561284a565b613047602083018461284a565b9392505050565b600081519050919050565b60005b8381101561307757808201518184015260208101905061305c565b60008484015250505050565b600061308e8261304e565b6130988185612ed1565b93506130a8818560208601613059565b6130b181612598565b840191505092915050565b600060408201905081810360008301526130d68185613083565b905081810360208301526130ea8184613083565b90509392505050565b600061ffff82169050919050565b600061310c826130f3565b9150613117836130f3565b9250828202613125816130f3565b915080821461313757613136612c27565b5b5092915050565b600063ffffffff82169050919050565b60006131598261313e565b91506131648361313e565b92508282026131728161313e565b915080821461318457613183612c27565b5b5092915050565b600067ffffffffffffffff82169050919050565b60006131aa8261318b565b91506131b58361318b565b92508282026131c38161318b565b91508082146131d5576131d4612c27565b5b5092915050565b600060208201905081810360008301526131f68184613083565b905092915050565b600073ffffffffffffffffffffffffffffffffffffffff82169050919050565b6000613229826131fe565b9150613234836131fe565b9250828203905073ffffffffffffffffffffffffffffffffffffffff8111156132605761325f612c27565b5b92915050565b6000613271826131fe565b915061327c836131fe565b925082820261328a816131fe565b915082820484148315176132a1576132a0612c27565b5b5092915050565b60006132b3826131fe565b91506132be836131fe565b9250828201905073ffffffffffffffffffffffffffffffffffffffff8111156132ea576132e9612c27565b5b92915050565b60006132fb826131fe565b915073ffffffffffffffffffffffffffffffffffffffff820361332157613320612c27565b5b600182019050919050565b600060408201905081810360008301526133468185613083565b9050613355602083018461284a565b9392505050565b7f4e487b7100000000000000000000000000000000000000000000000000000000600052605160045260246000fdfea264697066735822122067f5d02a7c891d37d8bdfef1c7adf558fd88011a40fc4055f5047ca88106717364736f6c63430008130033",
  "linkReferences": {},
  "deployedLinkReferences": {}
}