{
  "_format": "hh-sol-artifact-1",
  "contractName": "LNBridge",
  "sourceName": "contracts/LNBridge.sol",
  "abi": [
    {
      "inputs": [],
      "name": "bridge",
      "outputs": [
        {
          "internalType": "bytes32",
          "name": "fundingTxId",
          "type": "bytes32"
        },
        {
          "internalType": "bytes",
          "name": "fundingTx_script",
          "type": "bytes"
        },
        {
          "internalType": "bytes",
          "name": "sighash",
          "type": "bytes"
        },
        {
          "internalType": "bytes",
          "name": "pkProver_Uncompressed",
          "type": "bytes"
        },
        {
          "internalType": "bytes",
          "name": "pkProver_Compressed",
          "type": "bytes"
        },
        {
          "internalType": "bytes",
          "name": "pkVerifier_Uncompressed",
          "type": "bytes"
        },
        {
          "internalType": "bytes",
          "name": "pkVerifier_Compressed",
          "type": "bytes"
        },
        {
          "internalType": "uint256",
          "name": "index",
          "type": "uint256"
        },
        {
          "internalType": "uint256",
          "name": "timelock",
          "type": "uint256"
        },
        {
          "internalType": "uint256",
          "name": "timelock_dispute",
          "type": "uint256"
        }
      ],
      "stateMutability": "view",
      "type": "function"
    },
    {
      "inputs": [
        {
          "internalType": "bytes",
          "name": "rawTxP_locked",
          "type": "bytes"
        },
        {
          "internalType": "bytes",
          "name": "sigV",
          "type": "bytes"
        },
        {
          "internalType": "bytes",
          "name": "rawTxV_unlocked",
          "type": "bytes"
        },
        {
          "internalType": "bytes",
          "name": "sigP",
          "type": "bytes"
        }
      ],
      "name": "dispute",
      "outputs": [],
      "stateMutability": "nonpayable",
      "type": "function"
    },
    {
      "inputs": [
        {
          "internalType": "bytes",
          "name": "oldRevSecret",
          "type": "bytes"
        },
        {
          "internalType": "bytes",
          "name": "rawTxP_unlocked",
          "type": "bytes"
        },
        {
          "internalType": "bytes",
          "name": "sigV",
          "type": "bytes"
        }
      ],
      "name": "resolveDispute",
      "outputs": [],
      "stateMutability": "nonpayable",
      "type": "function"
    },
    {
      "inputs": [],
      "name": "settle",
      "outputs": [],
      "stateMutability": "nonpayable",
      "type": "function"
    },
    {
      "inputs": [
        {
          "internalType": "bytes32",
          "name": "_fundingTxId",
          "type": "bytes32"
        },
        {
          "internalType": "bytes",
          "name": "_fundingTx_script",
          "type": "bytes"
        },
        {
          "internalType": "bytes",
          "name": "_sighash",
          "type": "bytes"
        },
        {
          "internalType": "bytes",
          "name": "_pkProver_Uncompressed",
          "type": "bytes"
        },
        {
          "internalType": "bytes",
          "name": "_pkProver_Compressed",
          "type": "bytes"
        },
        {
          "internalType": "bytes",
          "name": "_pkVerifier_Uncompressed",
          "type": "bytes"
        },
        {
          "internalType": "bytes",
          "name": "_pkVerifier_Compressed",
          "type": "bytes"
        },
        {
          "internalType": "uint256",
          "name": "_index",
          "type": "uint256"
        },
        {
          "internalType": "uint256",
          "name": "_timelock",
          "type": "uint256"
        }
      ],
      "name": "setup",
      "outputs": [],
      "stateMutability": "nonpayable",
      "type": "function"
    },
    {
      "inputs": [
        {
          "internalType": "bytes",
          "name": "CT_P_unlocked",
          "type": "bytes"
        },
        {
          "internalType": "bytes",
          "name": "CT_V_unlocked",
          "type": "bytes"
        }
      ],
      "name": "submitProof",
      "outputs": [
        {
          "internalType": "bool",
          "name": "",
          "type": "bool"
        }
      ],
      "stateMutability": "view",
      "type": "function"
    }
  ],
  "bytecode": "0x608060405234801561001057600080fd5b506158a280620000216000396000f3fe608060405234801561001057600080fd5b50600436106100625760003560e01c806311da60b4146100675780633aef14771461007157806343f104d2146100a157806379a85bd9146100bd578063da3f8c7a146100d9578063e78cea92146100f5575b600080fd5b61006f61011c565b005b61008b60048036038101906100869190614440565b61011e565b60405161009891906144d3565b60405180910390f35b6100bb60048036038101906100b691906144ee565b61066d565b005b6100d760048036038101906100d291906145c5565b610673565b005b6100f360048036038101906100ee91906146d8565b610678565b005b6100fd610712565b6040516101139a999897969594939291906148e7565b60405180910390f35b565b60008060e01b7bffffffffffffffffffffffffffffffffffffffffffffffffffffffff191661014c84610a84565b7bffffffffffffffffffffffffffffffffffffffffffffffffffffffff1916146101ab576040517f08c379a00000000000000000000000000000000000000000000000000000000081526004016101a290614a30565b60405180910390fd5b600060e01b7bffffffffffffffffffffffffffffffffffffffffffffffffffffffff19166101d883610a84565b7bffffffffffffffffffffffffffffffffffffffffffffffffffffffff191614610237576040517f08c379a000000000000000000000000000000000000000000000000000000000815260040161022e90614ac2565b60405180910390fd5b61023f6141f0565b6102476141f0565b61024f614221565b610257614221565b61025f61424a565b61026888610aba565b80935081955082975050505061027d87610d61565b809350819550505083606001518160200151146102cf576040517f08c379a00000000000000000000000000000000000000000000000000000000081526004016102c690614b54565b60405180910390fd5b8360000151836000015114610319576040517f08c379a000000000000000000000000000000000000000000000000000000000815260040161031090614be6565b60405180910390fd5b8160000151856000015114610363576040517f08c379a000000000000000000000000000000000000000000000000000000000815260040161035a90614c78565b60405180910390fd5b600061036e89610f76565b905061037d8160200151611088565b61038a8160400151611088565b600061039589610f76565b905060006104be8b600060010180546103ad90614cc7565b80601f01602080910402602001604051908101604052809291908181526020018280546103d990614cc7565b80156104265780601f106103fb57610100808354040283529160200191610426565b820191906000526020600020905b81548152906001019060200180831161040957829003601f168201915b50505050506000600201805461043b90614cc7565b80601f016020809104026020016040519081016040528092919081815260200182805461046790614cc7565b80156104b45780601f10610489576101008083540402835291602001916104b4565b820191906000526020600020905b81548152906001019060200180831161049757829003601f168201915b5050505050611121565b905060006104f18260001c85600001516104dd87602001516000611194565b6104ec88604001516000611194565b6111fb565b9050600061061a8c6000600101805461050990614cc7565b80601f016020809104026020016040519081016040528092919081815260200182805461053590614cc7565b80156105825780601f1061055757610100808354040283529160200191610582565b820191906000526020600020905b81548152906001019060200180831161056557829003601f168201915b50505050506000600201805461059790614cc7565b80601f01602080910402602001604051908101604052809291908181526020018280546105c390614cc7565b80156106105780601f106105e557610100808354040283529160200191610610565b820191906000526020600020905b8154815290600101906020018083116105f357829003601f168201915b5050505050611121565b9050600061064d8260001c866000015161063988602001516000611194565b61064889604001516000611194565b6111fb565b905061065881611088565b60019b50505050505050505050505092915050565b50505050565b505050565b88600080018190555087600060010190816106939190614ea4565b5086600060020190816106a69190614ea4565b5085600060030190816106b99190614ea4565b5084600060040190816106cc9190614ea4565b5083600060050190816106df9190614ea4565b5082600060060190816106f29190614ea4565b508160006007018190555080600060080181905550505050505050505050565b600080600001549080600101805461072990614cc7565b80601f016020809104026020016040519081016040528092919081815260200182805461075590614cc7565b80156107a25780601f10610777576101008083540402835291602001916107a2565b820191906000526020600020905b81548152906001019060200180831161078557829003601f168201915b5050505050908060020180546107b790614cc7565b80601f01602080910402602001604051908101604052809291908181526020018280546107e390614cc7565b80156108305780601f1061080557610100808354040283529160200191610830565b820191906000526020600020905b81548152906001019060200180831161081357829003601f168201915b50505050509080600301805461084590614cc7565b80601f016020809104026020016040519081016040528092919081815260200182805461087190614cc7565b80156108be5780601f10610893576101008083540402835291602001916108be565b820191906000526020600020905b8154815290600101906020018083116108a157829003601f168201915b5050505050908060040180546108d390614cc7565b80601f01602080910402602001604051908101604052809291908181526020018280546108ff90614cc7565b801561094c5780601f106109215761010080835404028352916020019161094c565b820191906000526020600020905b81548152906001019060200180831161092f57829003601f168201915b50505050509080600501805461096190614cc7565b80601f016020809104026020016040519081016040528092919081815260200182805461098d90614cc7565b80156109da5780601f106109af576101008083540402835291602001916109da565b820191906000526020600020905b8154815290600101906020018083116109bd57829003601f168201915b5050505050908060060180546109ef90614cc7565b80601f0160208091040260200160405190810160405280929190818152602001828054610a1b90614cc7565b8015610a685780601f10610a3d57610100808354040283529160200191610a68565b820191906000526020600020905b815481529060010190602001808311610a4b57829003601f168201915b505050505090806007015490806008015490806009015490508a565b600080825190506000610aa584600484610a9e9190614fa5565b600461124a565b610aae9061502a565b90508092505050919050565b610ac26141f0565b610aca614221565b610ad261424a565b610ada6141f0565b610ae261424a565b610aea614221565b610af2614267565b6004816000018181525050610b0d8882600001516000611368565b8260200183600001828152508290525050610b2e888260000151600061147a565b84608001856060018660400187600001848152508490528490528490525050505060005b6003811015610d4c5760008103610bee57610baa8983606001518381518110610b7e57610b7d615091565b5b602002602001015184604001518481518110610b9d57610b9c615091565b5b6020026020010151611671565b87602001886060018960400183815250838152508381525050505081608001518181518110610bdc57610bdb615091565b5b60200260200101518560000181815250505b60018103610cb857610c66610c408a84606001518481518110610c1457610c13615091565b5b602002602001015185604001518581518110610c3357610c32615091565b5b60200260200101516116ef565b604051602001610c5091906150e1565b60405160208183030381529060405260006117d1565b83602001906bffffffffffffffffffffffff191690816bffffffffffffffffffffffff19168152505081608001518181518110610ca657610ca5615091565b5b60200260200101518360000181815250505b60028103610d3957610d078983606001518381518110610cdb57610cda615091565b5b602002602001015184604001518481518110610cfa57610cf9615091565b5b60200260200101516116ef565b84602001818152505081608001518181518110610d2757610d26615091565b5b60200260200101518460000181815250505b8080610d44906150fc565b915050610b52565b50838284965096509650505050509193909250565b610d696141f0565b610d71614221565b610d796141f0565b610d81614221565b610d89614267565b6004816000018181525050610da48682600001516000611368565b8260200183600001828152508290525050610dc5868260000151600061147a565b84608001856060018660400187600001848152508490528490528490525050505060005b6002811015610f675760008103610e8957610e418783606001518381518110610e1557610e14615091565b5b602002602001015184604001518481518110610e3457610e33615091565b5b6020026020010151611671565b86602001876060018860400183815250838152508381525050505081608001518181518110610e7357610e72615091565b5b6020026020010151846000018181525050610f54565b60018103610f5357610f01610edb8884606001518481518110610eaf57610eae615091565b5b602002602001015185604001518581518110610ece57610ecd615091565b5b60200260200101516116ef565b604051602001610eeb91906150e1565b60405160208183030381529060405260006117d1565b83602001906bffffffffffffffffffffffff191690816bffffffffffffffffffffffff19168152505081608001518181518110610f4157610f40615091565b5b60200260200101518360000181815250505b5b8080610f5f906150fc565b915050610de9565b50828294509450505050915091565b610f7e614296565b610f86614296565b601b816000019060ff16908160ff1681525050610fac610fa78460516118b4565b61193f565b8160400181905250604760f81b83602a81518110610fcd57610fcc615091565b5b602001015160f81c60f81b7effffffffffffffffffffffffffffffffffffffffffffffffffffffffffffff19160361101f5761101261100d84602f6118b4565b61193f565b816020018190525061107f565b604660f81b83602a8151811061103857611037615091565b5b602001015160f81c60f81b7effffffffffffffffffffffffffffffffffffffffffffffffffffffffffffff19160361107e5761107583602f611968565b81602001819052505b5b80915050919050565b61111e8160405160240161109c9190615144565b6040516020818303038152906040527f0be77f56000000000000000000000000000000000000000000000000000000007bffffffffffffffffffffffffffffffffffffffffffffffffffffffff19166020820180517bffffffffffffffffffffffffffffffffffffffffffffffffffffffff83818316178352505050506119f4565b50565b600080611131856000602961124a565b9050600061114d8660728089516111489190614fa5565b61124a565b905060008286838760405160200161116894939291906151a2565b6040516020818303038152906040529050600061118482611a0e565b9050809450505050509392505050565b60006020826111a391906151e0565b835110156111e6576040517f08c379a00000000000000000000000000000000000000000000000000000000081526004016111dd90615260565b60405180910390fd5b60008260208501015190508091505092915050565b606060008061121887601b88611211919061528d565b8787611ad4565b91509150818160405160200161122f9291906152e3565b60405160208183030381529060405292505050949350505050565b606081601f8361125a91906151e0565b101561129b576040517f08c379a00000000000000000000000000000000000000000000000000000000081526004016112929061535b565b60405180910390fd5b81836112a791906151e0565b845110156112ea576040517f08c379a00000000000000000000000000000000000000000000000000000000081526004016112e1906153c7565b60405180910390fd5b606082156000811461130b576040519150600082526020820160405261135c565b6040519150601f8416801560200281840101858101878315602002848b0101015b81831015611349578051835260208301925060208101905061132c565b50868552601f19601f8301166040525050505b50809150509392505050565b606060008060008061137a8888611ee6565b8098508194505050600086148061139057508286115b1561139d578291506113a1565b8591505b60008267ffffffffffffffff8111156113bd576113bc614315565b5b6040519080825280602002602001820160405280156113eb5781602001602082028036833780820191505090505b50905060005b838110156114675760248961140691906151e0565b98506114128a8a611ee6565b809a5081945050508282828151811061142e5761142d615091565b5b60200260200101818152505060048361144791906151e0565b8961145291906151e0565b9850808061145f906150fc565b9150506113f1565b5080889550955050505050935093915050565b606080606060008060008061148f8a8a611ee6565b809a50819450505060008814806114a557508288115b156114b2578291506114b6565b8791505b60008267ffffffffffffffff8111156114d2576114d1614315565b5b6040519080825280602002602001820160405280156115005781602001602082028036833780820191505090505b50905060008367ffffffffffffffff81111561151f5761151e614315565b5b60405190808252806020026020018201604052801561154d5781602001602082028036833780820191505090505b50905060008467ffffffffffffffff81111561156c5761156b614315565b5b60405190808252806020026020018201604052801561159a5781602001602082028036833780820191505090505b50905060005b85811015611655576115b48e8e6040611fce565b8282815181106115c7576115c6615091565b5b60200260200101818152505060088d6115e091906151e0565b9c506115ec8e8e611ee6565b809e5081965050508c84828151811061160857611607615091565b5b6020026020010181815250508483828151811061162857611627615091565b5b602002602001018181525050848d61164091906151e0565b9c50808061164d906150fc565b9150506115a0565b508083838e995099509950995050505050505093509350935093565b6000806000611681868686612439565b156116d35761169c8660038761169791906151e0565b6118b4565b6116b2876028886116ad91906151e0565b6118b4565b6116c888604c896116c391906151e0565b6118b4565b9250925092506116e6565b6000801b6000801b6000801b9250925092505b93509350939050565b60006116fc8484846129e8565b1561172d576117178460038561171291906151e0565b6117d1565b6bffffffffffffffffffffffff191690506117ca565b611738848484612bad565b15611769576117538460028561174e91906151e0565b6117d1565b6bffffffffffffffffffffffff191690506117ca565b611774848484612cca565b156117965761178f8460028561178a91906151e0565b6118b4565b90506117ca565b6117a1848484612439565b156117c3576117bc846002856117b791906151e0565b6118b4565b90506117ca565b6000801b90505b9392505050565b6000806000905060005b60148173ffffffffffffffffffffffffffffffffffffffff1610156118a6578060136118079190615407565b6008611813919061544f565b73ffffffffffffffffffffffffffffffffffffffff1685858373ffffffffffffffffffffffffffffffffffffffff1661184c91906151e0565b8151811061185d5761185c615091565b5b602001015160f81c60f81b60f81c60ff1673ffffffffffffffffffffffffffffffffffffffff16901b826118919190615491565b9150808061189e906154d9565b9150506117db565b508060601b91505092915050565b6000806000905060005b60208110156119315780601f6118d49190614fa5565b60086118e09190615515565b8585836118ed91906151e0565b815181106118fe576118fd615091565b5b602001015160f81c60f81b60f81c60ff16901b8261191c91906151e0565b91508080611929906150fc565b9150506118be565b508060001b91505092915050565b60608160405160200161195291906150e1565b6040516020818303038152906040529050919050565b60606000805b601f8110156119e15780601e6119849190614fa5565b60086119909190615515565b85858361199d91906151e0565b815181106119ae576119ad615091565b5b602001015160f81c60f81b60f81c60ff16901b826119cc91906151e0565b915080806119d9906150fc565b91505061196e565b506119eb81612d8d565b91505092915050565b611a0b81611a03612e0d612e2e565b63ffffffff16565b50565b600060028083604051611a219190615557565b602060405180830381855afa158015611a3e573d6000803e3d6000fd5b5050506040513d601f19601f82011682018060405250810190611a619190615583565b604051602001611a7191906150e1565b604051602081830303815290604052604051611a8d9190615557565b602060405180830381855afa158015611aaa573d6000803e3d6000fd5b5050506040513d601f19601f82011682018060405250810190611acd9190615583565b9050919050565b60008060007ffffffffffffffffffffffffffffffffffffffffffffffffffffffffefffffc2f80611b0857611b076155b0565b5b60018760ff16901c60ff167ffffffffffffffffffffffffffffffffffffffffffffffffffffffffefffffc2f611b3e9190615515565b860890507ffffffffffffffffffffffffffffffffffffffffffffffffffffffffefffffc2f811180611b8f57507ffffffffffffffffffffffffffffffffebaaedce6af48a03bbfd25e8cd036414184115b80611bb957507ffffffffffffffffffffffffffffffffebaaedce6af48a03bbfd25e8cd036414185115b80611bc45750600084145b80611bcf5750600085145b80611bdd575060018660ff16115b15611bef576000809250925050611edd565b6000611c1b867ffffffffffffffffffffffffffffffffebaaedce6af48a03bbfd25e8cd0364141612e39565b905060007ffffffffffffffffffffffffffffffffffffffffffffffffffffffffefffffc2f80611c4e57611c4d6155b0565b5b7ffffffffffffffffffffffffffffffffffffffffffffffffffffffffefffffc2f80611c7d57611c7c6155b0565b5b60077ffffffffffffffffffffffffffffffffffffffffffffffffffffffffefffffc2f80611cae57611cad6155b0565b5b60008709087ffffffffffffffffffffffffffffffffffffffffffffffffffffffffefffffc2f80611ce257611ce16155b0565b5b7ffffffffffffffffffffffffffffffffffffffffffffffffffffffffefffffc2f80611d1157611d106155b0565b5b8687098609089050611d5b81600460017ffffffffffffffffffffffffffffffffffffffffffffffffffffffffefffffc2f611d4c91906151e0565b611d5691906155df565b612f25565b9050600080600160028b60ff1685611d7391906151e0565b611d7d91906151e0565b1614611db457817ffffffffffffffffffffffffffffffffffffffffffffffffffffffffefffffc2f611daf9190614fa5565b611db6565b815b90506000806000611e667ffffffffffffffffffffffffffffffffebaaedce6af48a03bbfd25e8cd036414180611def57611dee6155b0565b5b8e7ffffffffffffffffffffffffffffffffebaaedce6af48a03bbfd25e8cd0364141611e1b9190614fa5565b88097f79be667ef9dcbbac55a06295ce870b07029bfcdb2dce28d959f2815b16f817987f483ada7726a3c4655da4fbfc0e1108a8fd17b448a68554199c47d08ffb10d4b860016130d9565b9250925092506000806000611eaf7ffffffffffffffffffffffffffffffffebaaedce6af48a03bbfd25e8cd036414180611ea357611ea26155b0565b5b8e8b098b8960016130d9565b925092509250600080611ec6888888888888613173565b9150915081819d509d505050505050505050505050505b94509492505050565b6000806000848481518110611efe57611efd615091565b5b602001015160f81c60f81b60f81c9050600184611f1b91906151e0565b935060fd8160ff161015611f3b5780848160ff1691509250925050611fc7565b60fd8160ff1603611f6957611f5285856010611fce565b600285611f5f91906151e0565b9250925050611fc7565b60fe8160ff1603611f9757611f8085856020611fce565b600485611f8d91906151e0565b9250925050611fc7565b60ff8160ff1603611fc557611fae85856040611fce565b600885611fbb91906151e0565b9250925050611fc7565b505b9250929050565b60006008820361200357838381518110611feb57611fea615091565b5b602001015160f81c60f81b60f81c60ff169050612432565b60108203612085576101008460018561201c91906151e0565b8151811061202d5761202c615091565b5b602001015160f81c60f81b60f81c60ff16612048919061561e565b61ffff1684848151811061205f5761205e615091565b5b602001015160f81c60f81b60f81c60ff1661ffff1661207e91906151e0565b9050612432565b602082036121a8576301000000846003856120a091906151e0565b815181106120b1576120b0615091565b5b602001015160f81c60f81b60f81c60ff166120cc919061566b565b63ffffffff1662010000856002866120e491906151e0565b815181106120f5576120f4615091565b5b602001015160f81c60f81b60f81c60ff16612110919061566b565b63ffffffff166101008660018761212791906151e0565b8151811061213857612137615091565b5b602001015160f81c60f81b60f81c60ff16612153919061566b565b63ffffffff1686868151811061216c5761216b615091565b5b602001015160f81c60f81b60f81c60ff1663ffffffff1661218d91906151e0565b61219791906151e0565b6121a191906151e0565b9050612432565b6040820361243157670100000000000000846007856121c791906151e0565b815181106121d8576121d7615091565b5b602001015160f81c60f81b60f81c60ff166121f391906156bc565b67ffffffffffffffff1666010000000000008560068661221391906151e0565b8151811061222457612223615091565b5b602001015160f81c60f81b60f81c60ff1661223f91906156bc565b67ffffffffffffffff16650100000000008660058761225e91906151e0565b8151811061226f5761226e615091565b5b602001015160f81c60f81b60f81c60ff1661228a91906156bc565b67ffffffffffffffff16640100000000876004886122a891906151e0565b815181106122b9576122b8615091565b5b602001015160f81c60f81b60f81c60ff166122d491906156bc565b67ffffffffffffffff166301000000886003896122f191906151e0565b8151811061230257612301615091565b5b602001015160f81c60f81b60f81c60ff1661231d91906156bc565b67ffffffffffffffff16620100008960028a61233991906151e0565b8151811061234a57612349615091565b5b602001015160f81c60f81b60f81c60ff1661236591906156bc565b67ffffffffffffffff166101008a60018b61238091906151e0565b8151811061239157612390615091565b5b602001015160f81c60f81b60f81c60ff166123ac91906156bc565b67ffffffffffffffff168a8a815181106123c9576123c8615091565b5b602001015160f81c60f81b60f81c60ff1667ffffffffffffffff166123ee91906151e0565b6123f891906151e0565b61240291906151e0565b61240c91906151e0565b61241691906151e0565b61242091906151e0565b61242a91906151e0565b9050612432565b5b9392505050565b60006072821480156124995750607660f81b8460008561245991906151e0565b8151811061246a57612469615091565b5b602001015160f81c60f81b7effffffffffffffffffffffffffffffffffffffffffffffffffffffffffffff1916145b80156124f35750602160f81b846001856124b391906151e0565b815181106124c4576124c3615091565b5b602001015160f81c60f81b7effffffffffffffffffffffffffffffffffffffffffffffffffffffffffffff1916145b801561254d575060ac60f81b8460238561250d91906151e0565b8151811061251e5761251d615091565b5b602001015160f81c60f81b7effffffffffffffffffffffffffffffffffffffffffffffffffffffffffffff1916145b80156125a75750606360f81b8460248561256791906151e0565b8151811061257857612577615091565b5b602001015160f81c60f81b7effffffffffffffffffffffffffffffffffffffffffffffffffffffffffffff1916145b80156126015750607560f81b846025856125c191906151e0565b815181106125d2576125d1615091565b5b602001015160f81c60f81b7effffffffffffffffffffffffffffffffffffffffffffffffffffffffffffff1916145b801561265b575060aa60f81b8460268561261b91906151e0565b8151811061262c5761262b615091565b5b602001015160f81c60f81b7effffffffffffffffffffffffffffffffffffffffffffffffffffffffffffff1916145b80156126b55750602060f81b8460278561267591906151e0565b8151811061268657612685615091565b5b602001015160f81c60f81b7effffffffffffffffffffffffffffffffffffffffffffffffffffffffffffff1916145b801561270f5750608860f81b846048856126cf91906151e0565b815181106126e0576126df615091565b5b602001015160f81c60f81b7effffffffffffffffffffffffffffffffffffffffffffffffffffffffffffff1916145b80156127695750606760f81b8460498561272991906151e0565b8151811061273a57612739615091565b5b602001015160f81c60f81b7effffffffffffffffffffffffffffffffffffffffffffffffffffffffffffff1916145b80156127c35750602160f81b84604a8561278391906151e0565b8151811061279457612793615091565b5b602001015160f81c60f81b7effffffffffffffffffffffffffffffffffffffffffffffffffffffffffffff1916145b801561281d575060ad60f81b84606c856127dd91906151e0565b815181106127ee576127ed615091565b5b602001015160f81c60f81b7effffffffffffffffffffffffffffffffffffffffffffffffffffffffffffff1916145b80156128775750605260f81b84606d8561283791906151e0565b8151811061284857612847615091565b5b602001015160f81c60f81b7effffffffffffffffffffffffffffffffffffffffffffffffffffffffffffff1916145b80156128d1575060b260f81b84606e8561289191906151e0565b815181106128a2576128a1615091565b5b602001015160f81c60f81b7effffffffffffffffffffffffffffffffffffffffffffffffffffffffffffff1916145b801561292b5750607560f81b84606f856128eb91906151e0565b815181106128fc576128fb615091565b5b602001015160f81c60f81b7effffffffffffffffffffffffffffffffffffffffffffffffffffffffffffff1916145b80156129855750606860f81b8460708561294591906151e0565b8151811061295657612955615091565b5b602001015160f81c60f81b7effffffffffffffffffffffffffffffffffffffffffffffffffffffffffffff1916145b80156129df5750605160f81b8460718561299f91906151e0565b815181106129b0576129af615091565b5b602001015160f81c60f81b7effffffffffffffffffffffffffffffffffffffffffffffffffffffffffffff1916145b90509392505050565b6000601982148015612a3c5750607660f81b848481518110612a0d57612a0c615091565b5b602001015160f81c60f81b7effffffffffffffffffffffffffffffffffffffffffffffffffffffffffffff1916145b8015612a96575060a960f81b84600185612a5691906151e0565b81518110612a6757612a66615091565b5b602001015160f81c60f81b7effffffffffffffffffffffffffffffffffffffffffffffffffffffffffffff1916145b8015612af05750601460f81b84600285612ab091906151e0565b81518110612ac157612ac0615091565b5b602001015160f81c60f81b7effffffffffffffffffffffffffffffffffffffffffffffffffffffffffffff1916145b8015612b4a5750608860f81b84601785612b0a91906151e0565b81518110612b1b57612b1a615091565b5b602001015160f81c60f81b7effffffffffffffffffffffffffffffffffffffffffffffffffffffffffffff1916145b8015612ba4575060ac60f81b84601885612b6491906151e0565b81518110612b7557612b74615091565b5b602001015160f81c60f81b7effffffffffffffffffffffffffffffffffffffffffffffffffffffffffffff1916145b90509392505050565b6000601782148015612c0d575060a960f81b84600085612bcd91906151e0565b81518110612bde57612bdd615091565b5b602001015160f81c60f81b7effffffffffffffffffffffffffffffffffffffffffffffffffffffffffffff1916145b8015612c675750601460f81b84600185612c2791906151e0565b81518110612c3857612c37615091565b5b602001015160f81c60f81b7effffffffffffffffffffffffffffffffffffffffffffffffffffffffffffff1916145b8015612cc15750608760f81b84601685612c8191906151e0565b81518110612c9257612c91615091565b5b602001015160f81c60f81b7effffffffffffffffffffffffffffffffffffffffffffffffffffffffffffff1916145b90509392505050565b6000602282148015612d2a5750606a60f81b84600085612cea91906151e0565b81518110612cfb57612cfa615091565b5b602001015160f81c60f81b7effffffffffffffffffffffffffffffffffffffffffffffffffffffffffffff1916145b8015612d845750602060f81b84600185612d4491906151e0565b81518110612d5557612d54615091565b5b602001015160f81c60f81b7effffffffffffffffffffffffffffffffffffffffffffffffffffffffffffff1916145b90509392505050565b60607f7fffffffffffffffffffffffffffffffffffffffffffffffffffffffffffffff821115612df2576040517f08c379a0000000000000000000000000000000000000000000000000000000008152600401612de990615745565b60405180910390fd5b60405190506020815281602082015260408101604052919050565b60006a636f6e736f6c652e6c6f679050600080835160208501845afa505050565b6142ba819050919050565b6000808314158015612e4b5750818314155b8015612e58575060008214155b612e97576040517f08c379a0000000000000000000000000000000000000000000000000000000008152600401612e8e906157b1565b60405180910390fd5b60008060019050600084905060005b60008714612f18578682612eba91906155df565b9050828680612ecc57612ecb6155b0565b5b8780612edb57612eda6155b0565b5b85840988612ee99190614fa5565b86088094508195505050868782612f009190615515565b83612f0b9190614fa5565b8098508193505050612ea6565b8394505050505092915050565b6000808303612f3757600090506130d3565b60008203612f4857600190506130d3565b60006001905060007f800000000000000000000000000000000000000000000000000000000000000090505b60008111156130cd577ffffffffffffffffffffffffffffffffffffffffffffffffffffffffefffffc2f8185161515860a7ffffffffffffffffffffffffffffffffffffffffffffffffffffffffefffffc2f8485090991507ffffffffffffffffffffffffffffffffffffffffffffffffffffffffefffffc2f6002820485161515860a7ffffffffffffffffffffffffffffffffffffffffffffffffffffffffefffffc2f8485090991507ffffffffffffffffffffffffffffffffffffffffffffffffffffffffefffffc2f6004820485161515860a7ffffffffffffffffffffffffffffffffffffffffffffffffffffffffefffffc2f8485090991507ffffffffffffffffffffffffffffffffffffffffffffffffffffffffefffffc2f6008820485161515860a7ffffffffffffffffffffffffffffffffffffffffffffffffffffffffefffffc2f848509099150601081049050612f74565b81925050505b92915050565b60008060008087036130f357858585925092509250613169565b60008790506000806000600190505b6000841461315b5760006001851614613130576131238383838d8d8d61321f565b8093508194508295505050505b60028461313d91906155df565b935061314a8a8a8a613c5d565b809a50819b50829c50505050613102565b828282965096509650505050505b9450945094915050565b6000806000806000878b036131e65760007ffffffffffffffffffffffffffffffffffffffffffffffffffffffffefffffc2f806131b3576131b26155b0565b5b888c08036131ca5760008094509450505050613214565b6131d58b8b8b613c5d565b809350819450829550505050613201565b6131f48b8b8b8b8b8b61321f565b8093508194508295505050505b61320c8383836140da565b945094505050505b965096945050505050565b600080600080891480156132335750600088145b1561324657858585925092509250613c51565b6000861480156132565750600085145b1561326957888888925092509250613c51565b6132716142c4565b7ffffffffffffffffffffffffffffffffffffffffffffffffffffffffefffffc2f806132a05761329f6155b0565b5b888909816000600481106132b7576132b6615091565b5b6020020181815250507ffffffffffffffffffffffffffffffffffffffffffffffffffffffffefffffc2f806132ef576132ee6155b0565b5b8160006004811061330357613302615091565b5b602002015189098160016004811061331e5761331d615091565b5b6020020181815250507ffffffffffffffffffffffffffffffffffffffffffffffffffffffffefffffc2f80613356576133556155b0565b5b8586098160026004811061336d5761336c615091565b5b6020020181815250507ffffffffffffffffffffffffffffffffffffffffffffffffffffffffefffffc2f806133a5576133a46155b0565b5b816002600481106133b9576133b8615091565b5b60200201518609816003600481106133d4576133d3615091565b5b60200201818152505060405180608001604052807ffffffffffffffffffffffffffffffffffffffffffffffffffffffffefffffc2f80613417576134166155b0565b5b8360026004811061342b5761342a615091565b5b60200201518d0981526020017ffffffffffffffffffffffffffffffffffffffffffffffffffffffffefffffc2f80613466576134656155b0565b5b8360036004811061347a57613479615091565b5b60200201518c0981526020017ffffffffffffffffffffffffffffffffffffffffffffffffffffffffefffffc2f806134b5576134b46155b0565b5b836000600481106134c9576134c8615091565b5b60200201518a0981526020017ffffffffffffffffffffffffffffffffffffffffffffffffffffffffefffffc2f80613504576135036155b0565b5b8360016004811061351857613517615091565b5b6020020151890981525090508060026004811061353857613537615091565b5b60200201518160006004811061355157613550615091565b5b602002015114158061359357508060036004811061357257613571615091565b5b60200201518160016004811061358b5761358a615091565b5b602002015114155b6135d2576040517f08c379a00000000000000000000000000000000000000000000000000000000081526004016135c99061581d565b60405180910390fd5b6135da6142c4565b7ffffffffffffffffffffffffffffffffffffffffffffffffffffffffefffffc2f80613609576136086155b0565b5b8260006004811061361d5761361c615091565b5b60200201517ffffffffffffffffffffffffffffffffffffffffffffffffffffffffefffffc2f61364d9190614fa5565b8360026004811061366157613660615091565b5b6020020151088160006004811061367b5761367a615091565b5b6020020181815250507ffffffffffffffffffffffffffffffffffffffffffffffffffffffffefffffc2f806136b3576136b26155b0565b5b826001600481106136c7576136c6615091565b5b60200201517ffffffffffffffffffffffffffffffffffffffffffffffffffffffffefffffc2f6136f79190614fa5565b8360036004811061370b5761370a615091565b5b6020020151088160016004811061372557613724615091565b5b6020020181815250507ffffffffffffffffffffffffffffffffffffffffffffffffffffffffefffffc2f8061375d5761375c6155b0565b5b8160006004811061377157613770615091565b5b60200201518260006004811061378a57613789615091565b5b602002015109816002600481106137a4576137a3615091565b5b6020020181815250507ffffffffffffffffffffffffffffffffffffffffffffffffffffffffefffffc2f806137dc576137db6155b0565b5b816000600481106137f0576137ef615091565b5b60200201518260026004811061380957613808615091565b5b6020020151098160036004811061382357613822615091565b5b60200201818152505060007ffffffffffffffffffffffffffffffffffffffffffffffffffffffffefffffc2f8061385d5761385c6155b0565b5b8260036004811061387157613870615091565b5b60200201517ffffffffffffffffffffffffffffffffffffffffffffffffffffffffefffffc2f6138a19190614fa5565b7ffffffffffffffffffffffffffffffffffffffffffffffffffffffffefffffc2f806138d0576138cf6155b0565b5b846001600481106138e4576138e3615091565b5b6020020151856001600481106138fd576138fc615091565b5b6020020151090890507ffffffffffffffffffffffffffffffffffffffffffffffffffffffffefffffc2f80613935576139346155b0565b5b7ffffffffffffffffffffffffffffffffffffffffffffffffffffffffefffffc2f80613964576139636155b0565b5b7ffffffffffffffffffffffffffffffffffffffffffffffffffffffffefffffc2f80613993576139926155b0565b5b846002600481106139a7576139a6615091565b5b6020020151866000600481106139c0576139bf615091565b5b6020020151096002097ffffffffffffffffffffffffffffffffffffffffffffffffffffffffefffffc2f6139f49190614fa5565b8208905060007ffffffffffffffffffffffffffffffffffffffffffffffffffffffffefffffc2f80613a2957613a286155b0565b5b7ffffffffffffffffffffffffffffffffffffffffffffffffffffffffefffffc2f80613a5857613a576155b0565b5b837ffffffffffffffffffffffffffffffffffffffffffffffffffffffffefffffc2f613a849190614fa5565b7ffffffffffffffffffffffffffffffffffffffffffffffffffffffffefffffc2f80613ab357613ab26155b0565b5b86600260048110613ac757613ac6615091565b5b602002015188600060048110613ae057613adf615091565b5b6020020151090884600160048110613afb57613afa615091565b5b60200201510990507ffffffffffffffffffffffffffffffffffffffffffffffffffffffffefffffc2f80613b3257613b316155b0565b5b7ffffffffffffffffffffffffffffffffffffffffffffffffffffffffefffffc2f80613b6157613b606155b0565b5b84600360048110613b7557613b74615091565b5b602002015186600160048110613b8e57613b8d615091565b5b6020020151097ffffffffffffffffffffffffffffffffffffffffffffffffffffffffefffffc2f613bbf9190614fa5565b8208905060007ffffffffffffffffffffffffffffffffffffffffffffffffffffffffefffffc2f80613bf457613bf36155b0565b5b7ffffffffffffffffffffffffffffffffffffffffffffffffffffffffefffffc2f80613c2357613c226155b0565b5b8a8e0985600060048110613c3a57613c39615091565b5b602002015109905082828297509750975050505050505b96509650969350505050565b6000806000808403613c77578585859250925092506140d1565b60007ffffffffffffffffffffffffffffffffffffffffffffffffffffffffefffffc2f80613ca857613ca76155b0565b5b878809905060007ffffffffffffffffffffffffffffffffffffffffffffffffffffffffefffffc2f80613cde57613cdd6155b0565b5b878809905060007ffffffffffffffffffffffffffffffffffffffffffffffffffffffffefffffc2f80613d1457613d136155b0565b5b878809905060007ffffffffffffffffffffffffffffffffffffffffffffffffffffffffefffffc2f80613d4a57613d496155b0565b5b7ffffffffffffffffffffffffffffffffffffffffffffffffffffffffefffffc2f80613d7957613d786155b0565b5b848c09600409905060007ffffffffffffffffffffffffffffffffffffffffffffffffffffffffefffffc2f80613db257613db16155b0565b5b7ffffffffffffffffffffffffffffffffffffffffffffffffffffffffefffffc2f80613de157613de06155b0565b5b7ffffffffffffffffffffffffffffffffffffffffffffffffffffffffefffffc2f80613e1057613e0f6155b0565b5b8586096000097ffffffffffffffffffffffffffffffffffffffffffffffffffffffffefffffc2f80613e4557613e446155b0565b5b876003090890507ffffffffffffffffffffffffffffffffffffffffffffffffffffffffefffffc2f80613e7b57613e7a6155b0565b5b7ffffffffffffffffffffffffffffffffffffffffffffffffffffffffefffffc2f80613eaa57613ea96155b0565b5b8384087ffffffffffffffffffffffffffffffffffffffffffffffffffffffffefffffc2f613ed89190614fa5565b7ffffffffffffffffffffffffffffffffffffffffffffffffffffffffefffffc2f80613f0757613f066155b0565b5b8384090894507ffffffffffffffffffffffffffffffffffffffffffffffffffffffffefffffc2f80613f3c57613f3b6155b0565b5b7ffffffffffffffffffffffffffffffffffffffffffffffffffffffffefffffc2f80613f6b57613f6a6155b0565b5b7ffffffffffffffffffffffffffffffffffffffffffffffffffffffffefffffc2f80613f9a57613f996155b0565b5b8687096008097ffffffffffffffffffffffffffffffffffffffffffffffffffffffffefffffc2f613fcb9190614fa5565b7ffffffffffffffffffffffffffffffffffffffffffffffffffffffffefffffc2f80613ffa57613ff96155b0565b5b7ffffffffffffffffffffffffffffffffffffffffffffffffffffffffefffffc2f80614029576140286155b0565b5b887ffffffffffffffffffffffffffffffffffffffffffffffffffffffffefffffc2f6140559190614fa5565b860884090893507ffffffffffffffffffffffffffffffffffffffffffffffffffffffffefffffc2f8061408b5761408a6155b0565b5b7ffffffffffffffffffffffffffffffffffffffffffffffffffffffffefffffc2f806140ba576140b96155b0565b5b8a8c09600209925084848497509750975050505050505b93509350939050565b6000806000614109847ffffffffffffffffffffffffffffffffffffffffffffffffffffffffefffffc2f612e39565b905060007ffffffffffffffffffffffffffffffffffffffffffffffffffffffffefffffc2f8061413c5761413b6155b0565b5b828309905060007ffffffffffffffffffffffffffffffffffffffffffffffffffffffffefffffc2f80614172576141716155b0565b5b828909905060007ffffffffffffffffffffffffffffffffffffffffffffffffffffffffefffffc2f806141a8576141a76155b0565b5b7ffffffffffffffffffffffffffffffffffffffffffffffffffffffffefffffc2f806141d7576141d66155b0565b5b8486098909905081819550955050505050935093915050565b6040518060800160405280600081526020016000801916815260200160008019168152602001600080191681525090565b60405180604001604052806000815260200160006bffffffffffffffffffffffff191681525090565b604051806040016040528060008152602001600080191681525090565b6040518060a0016040528060008152602001606081526020016060815260200160608152602001606081525090565b6040518060600160405280600060ff16815260200160608152602001606081525090565b6142c261583d565b565b6040518060800160405280600490602082028036833780820191505090505090565b6000604051905090565b600080fd5b600080fd5b600080fd5b600080fd5b6000601f19601f8301169050919050565b7f4e487b7100000000000000000000000000000000000000000000000000000000600052604160045260246000fd5b61434d82614304565b810181811067ffffffffffffffff8211171561436c5761436b614315565b5b80604052505050565b600061437f6142e6565b905061438b8282614344565b919050565b600067ffffffffffffffff8211156143ab576143aa614315565b5b6143b482614304565b9050602081019050919050565b82818337600083830152505050565b60006143e36143de84614390565b614375565b9050828152602081018484840111156143ff576143fe6142ff565b5b61440a8482856143c1565b509392505050565b600082601f830112614427576144266142fa565b5b81356144378482602086016143d0565b91505092915050565b60008060408385031215614457576144566142f0565b5b600083013567ffffffffffffffff811115614475576144746142f5565b5b61448185828601614412565b925050602083013567ffffffffffffffff8111156144a2576144a16142f5565b5b6144ae85828601614412565b9150509250929050565b60008115159050919050565b6144cd816144b8565b82525050565b60006020820190506144e860008301846144c4565b92915050565b60008060008060808587031215614508576145076142f0565b5b600085013567ffffffffffffffff811115614526576145256142f5565b5b61453287828801614412565b945050602085013567ffffffffffffffff811115614553576145526142f5565b5b61455f87828801614412565b935050604085013567ffffffffffffffff8111156145805761457f6142f5565b5b61458c87828801614412565b925050606085013567ffffffffffffffff8111156145ad576145ac6142f5565b5b6145b987828801614412565b91505092959194509250565b6000806000606084860312156145de576145dd6142f0565b5b600084013567ffffffffffffffff8111156145fc576145fb6142f5565b5b61460886828701614412565b935050602084013567ffffffffffffffff811115614629576146286142f5565b5b61463586828701614412565b925050604084013567ffffffffffffffff811115614656576146556142f5565b5b61466286828701614412565b9150509250925092565b6000819050919050565b61467f8161466c565b811461468a57600080fd5b50565b60008135905061469c81614676565b92915050565b6000819050919050565b6146b5816146a2565b81146146c057600080fd5b50565b6000813590506146d2816146ac565b92915050565b60008060008060008060008060006101208a8c0312156146fb576146fa6142f0565b5b60006147098c828d0161468d565b99505060208a013567ffffffffffffffff81111561472a576147296142f5565b5b6147368c828d01614412565b98505060408a013567ffffffffffffffff811115614757576147566142f5565b5b6147638c828d01614412565b97505060608a013567ffffffffffffffff811115614784576147836142f5565b5b6147908c828d01614412565b96505060808a013567ffffffffffffffff8111156147b1576147b06142f5565b5b6147bd8c828d01614412565b95505060a08a013567ffffffffffffffff8111156147de576147dd6142f5565b5b6147ea8c828d01614412565b94505060c08a013567ffffffffffffffff81111561480b5761480a6142f5565b5b6148178c828d01614412565b93505060e06148288c828d016146c3565b92505061010061483a8c828d016146c3565b9150509295985092959850929598565b6148538161466c565b82525050565b600081519050919050565b600082825260208201905092915050565b60005b83811015614893578082015181840152602081019050614878565b60008484015250505050565b60006148aa82614859565b6148b48185614864565b93506148c4818560208601614875565b6148cd81614304565b840191505092915050565b6148e1816146a2565b82525050565b6000610140820190506148fd600083018d61484a565b818103602083015261490f818c61489f565b90508181036040830152614923818b61489f565b90508181036060830152614937818a61489f565b9050818103608083015261494b818961489f565b905081810360a083015261495f818861489f565b905081810360c0830152614973818761489f565b905061498260e08301866148d8565b6149906101008301856148d8565b61499e6101208301846148d8565b9b9a5050505050505050505050565b600082825260208201905092915050565b7f436f6d6d69746d656e74207472616e73616374696f6e206f662050206973206c60008201527f6f636b6564000000000000000000000000000000000000000000000000000000602082015250565b6000614a1a6025836149ad565b9150614a25826149be565b604082019050919050565b60006020820190508181036000830152614a4981614a0d565b9050919050565b7f436f6d6d69746d656e74207472616e73616374696f6e206f662056206973206c60008201527f6f636b6564000000000000000000000000000000000000000000000000000000602082015250565b6000614aac6025836149ad565b9150614ab782614a50565b604082019050919050565b60006020820190508181036000830152614adb81614a9f565b9050919050565b7f50277320636f6d6d69746d656e74207472616e73616374696f6e20646f65732060008201527f6e6f742068617264636f646520562773207265766f636174696f6e206b657900602082015250565b6000614b3e603f836149ad565b9150614b4982614ae2565b604082019050919050565b60006020820190508181036000830152614b6d81614b31565b9050919050565b7f416d6f756e74206d69736d61746368206265747765656e207032706b68206f6660008201527f205020616e64206c696768746e696e672048544c43206f662056000000000000602082015250565b6000614bd0603a836149ad565b9150614bdb82614b74565b604082019050919050565b60006020820190508181036000830152614bff81614bc3565b9050919050565b7f416d6f756e74206d69736d61746368206265747765656e207032706b68206f6660008201527f205620616e64206c696768746e696e672048544c43206f662050000000000000602082015250565b6000614c62603a836149ad565b9150614c6d82614c06565b604082019050919050565b60006020820190508181036000830152614c9181614c55565b9050919050565b7f4e487b7100000000000000000000000000000000000000000000000000000000600052602260045260246000fd5b60006002820490506001821680614cdf57607f821691505b602082108103614cf257614cf1614c98565b5b50919050565b60008190508160005260206000209050919050565b60006020601f8301049050919050565b600082821b905092915050565b600060088302614d5a7fffffffffffffffffffffffffffffffffffffffffffffffffffffffffffffffff82614d1d565b614d648683614d1d565b95508019841693508086168417925050509392505050565b6000819050919050565b6000614da1614d9c614d97846146a2565b614d7c565b6146a2565b9050919050565b6000819050919050565b614dbb83614d86565b614dcf614dc782614da8565b848454614d2a565b825550505050565b600090565b614de4614dd7565b614def818484614db2565b505050565b5b81811015614e1357614e08600082614ddc565b600181019050614df5565b5050565b601f821115614e5857614e2981614cf8565b614e3284614d0d565b81016020851015614e41578190505b614e55614e4d85614d0d565b830182614df4565b50505b505050565b600082821c905092915050565b6000614e7b60001984600802614e5d565b1980831691505092915050565b6000614e948383614e6a565b9150826002028217905092915050565b614ead82614859565b67ffffffffffffffff811115614ec657614ec5614315565b5b614ed08254614cc7565b614edb828285614e17565b600060209050601f831160018114614f0e5760008415614efc578287015190505b614f068582614e88565b865550614f6e565b601f198416614f1c86614cf8565b60005b82811015614f4457848901518255600182019150602085019450602081019050614f1f565b86831015614f615784890151614f5d601f891682614e6a565b8355505b6001600288020188555050505b505050505050565b7f4e487b7100000000000000000000000000000000000000000000000000000000600052601160045260246000fd5b6000614fb0826146a2565b9150614fbb836146a2565b9250828203905081811115614fd357614fd2614f76565b5b92915050565b6000819050602082019050919050565b60007fffffffff0000000000000000000000000000000000000000000000000000000082169050919050565b60006150218251614fe9565b80915050919050565b600061503582614859565b8261503f84614fd9565b905061504a81615015565b9250600482101561508a576150857fffffffff0000000000000000000000000000000000000000000000000000000083600403600802614d1d565b831692505b5050919050565b7f4e487b7100000000000000000000000000000000000000000000000000000000600052603260045260246000fd5b6000819050919050565b6150db6150d68261466c565b6150c0565b82525050565b60006150ed82846150ca565b60208201915081905092915050565b6000615107826146a2565b91507fffffffffffffffffffffffffffffffffffffffffffffffffffffffffffffffff820361513957615138614f76565b5b600182019050919050565b6000602082019050818103600083015261515e818461489f565b905092915050565b600081905092915050565b600061517c82614859565b6151868185615166565b9350615196818560208601614875565b80840191505092915050565b60006151ae8287615171565b91506151ba8286615171565b91506151c68285615171565b91506151d28284615171565b915081905095945050505050565b60006151eb826146a2565b91506151f6836146a2565b925082820190508082111561520e5761520d614f76565b5b92915050565b7f746f55696e743235365f6f75744f66426f756e64730000000000000000000000600082015250565b600061524a6015836149ad565b915061525582615214565b602082019050919050565b600060208201905081810360008301526152798161523d565b9050919050565b600060ff82169050919050565b600061529882615280565b91506152a383615280565b9250828203905060ff8111156152bc576152bb614f76565b5b92915050565b6000819050919050565b6152dd6152d8826146a2565b6152c2565b82525050565b60006152ef82856152cc565b6020820191506152ff82846152cc565b6020820191508190509392505050565b7f736c6963655f6f766572666c6f77000000000000000000000000000000000000600082015250565b6000615345600e836149ad565b91506153508261530f565b602082019050919050565b6000602082019050818103600083015261537481615338565b9050919050565b7f736c6963655f6f75744f66426f756e6473000000000000000000000000000000600082015250565b60006153b16011836149ad565b91506153bc8261537b565b602082019050919050565b600060208201905081810360008301526153e0816153a4565b9050919050565b600073ffffffffffffffffffffffffffffffffffffffff82169050919050565b6000615412826153e7565b915061541d836153e7565b9250828203905073ffffffffffffffffffffffffffffffffffffffff81111561544957615448614f76565b5b92915050565b600061545a826153e7565b9150615465836153e7565b9250828202615473816153e7565b9150828204841483151761548a57615489614f76565b5b5092915050565b600061549c826153e7565b91506154a7836153e7565b9250828201905073ffffffffffffffffffffffffffffffffffffffff8111156154d3576154d2614f76565b5b92915050565b60006154e4826153e7565b915073ffffffffffffffffffffffffffffffffffffffff820361550a57615509614f76565b5b600182019050919050565b6000615520826146a2565b915061552b836146a2565b9250828202615539816146a2565b915082820484148315176155505761554f614f76565b5b5092915050565b60006155638284615171565b915081905092915050565b60008151905061557d81614676565b92915050565b600060208284031215615599576155986142f0565b5b60006155a78482850161556e565b91505092915050565b7f4e487b7100000000000000000000000000000000000000000000000000000000600052601260045260246000fd5b60006155ea826146a2565b91506155f5836146a2565b925082615605576156046155b0565b5b828204905092915050565b600061ffff82169050919050565b600061562982615610565b915061563483615610565b925082820261564281615610565b915080821461565457615653614f76565b5b5092915050565b600063ffffffff82169050919050565b60006156768261565b565b91506156818361565b565b925082820261568f8161565b565b91508082146156a1576156a0614f76565b5b5092915050565b600067ffffffffffffffff82169050919050565b60006156c7826156a8565b91506156d2836156a8565b92508282026156e0816156a8565b91508082146156f2576156f1614f76565b5b5092915050565b7f56616c75652065786365656473207468652072616e6765000000000000000000600082015250565b600061572f6017836149ad565b915061573a826156f9565b602082019050919050565b6000602082019050818103600083015261575e81615722565b9050919050565b7f496e76616c6964206e756d626572000000000000000000000000000000000000600082015250565b600061579b600e836149ad565b91506157a682615765565b602082019050919050565b600060208201905081810360008301526157ca8161578e565b9050919050565b7f557365206a6163446f75626c652066756e6374696f6e20696e73746561640000600082015250565b6000615807601e836149ad565b9150615812826157d1565b602082019050919050565b60006020820190508181036000830152615836816157fa565b9050919050565b7f4e487b7100000000000000000000000000000000000000000000000000000000600052605160045260246000fdfea2646970667358221220cbb1c5a2ce2bdf9d6894b18b2a3344226c6b0c45d8544e2f65d8be14cf30b51964736f6c63430008130033",
  "linkReferences": {},
  "deployedLinkReferences": {}
}