{
  "_format": "hh-sol-artifact-1",
  "contractName": "LNBridge",
  "sourceName": "contracts/LNBridge.sol",
  "abi": [
    {
      "inputs": [
        {
          "internalType": "uint256",
          "name": "value",
          "type": "uint256"
        },
        {
          "internalType": "uint256",
          "name": "length",
          "type": "uint256"
        }
      ],
      "name": "StringsInsufficientHexLength",
      "type": "error"
    },
    {
      "inputs": [
        {
          "internalType": "bytes",
          "name": "rawTxP_locked",
          "type": "bytes"
        },
        {
          "internalType": "bytes",
          "name": "sigV",
          "type": "bytes"
        },
        {
          "internalType": "bytes",
          "name": "rawTxV_unlocked",
          "type": "bytes"
        },
        {
          "internalType": "bytes",
          "name": "sigP",
          "type": "bytes"
        }
      ],
      "name": "dispute",
      "outputs": [],
      "stateMutability": "nonpayable",
      "type": "function"
    },
    {
      "inputs": [],
      "name": "htlc",
      "outputs": [
        {
          "internalType": "uint256",
          "name": "value",
          "type": "uint256"
        },
        {
          "internalType": "bytes32",
          "name": "pk1",
          "type": "bytes32"
        },
        {
          "internalType": "bytes32",
          "name": "pk2",
          "type": "bytes32"
        },
        {
          "internalType": "bytes32",
          "name": "rev_secret",
          "type": "bytes32"
        }
      ],
      "stateMutability": "view",
      "type": "function"
    },
    {
      "inputs": [],
      "name": "opreturn",
      "outputs": [
        {
          "internalType": "uint256",
          "name": "value",
          "type": "uint256"
        },
        {
          "internalType": "bytes32",
          "name": "data",
          "type": "bytes32"
        }
      ],
      "stateMutability": "view",
      "type": "function"
    },
    {
      "inputs": [],
      "name": "out_aux",
      "outputs": [
        {
          "internalType": "uint256",
          "name": "pos",
          "type": "uint256"
        }
      ],
      "stateMutability": "view",
      "type": "function"
    },
    {
      "inputs": [],
      "name": "p2pkh",
      "outputs": [
        {
          "internalType": "uint256",
          "name": "value",
          "type": "uint256"
        },
        {
          "internalType": "bytes32",
          "name": "pkhash",
          "type": "bytes32"
        }
      ],
      "stateMutability": "view",
      "type": "function"
    },
    {
      "inputs": [
        {
          "internalType": "bytes",
          "name": "_txBytes",
          "type": "bytes"
        }
      ],
      "name": "readThreeOutputs",
      "outputs": [
        {
          "internalType": "uint256",
          "name": "",
          "type": "uint256"
        },
        {
          "internalType": "bytes32",
          "name": "",
          "type": "bytes32"
        },
        {
          "internalType": "bytes32",
          "name": "",
          "type": "bytes32"
        },
        {
          "internalType": "bytes32",
          "name": "",
          "type": "bytes32"
        },
        {
          "internalType": "uint256",
          "name": "",
          "type": "uint256"
        },
        {
          "internalType": "bytes32",
          "name": "",
          "type": "bytes32"
        },
        {
          "internalType": "uint256",
          "name": "",
          "type": "uint256"
        },
        {
          "internalType": "bytes32",
          "name": "",
          "type": "bytes32"
        }
      ],
      "stateMutability": "nonpayable",
      "type": "function"
    },
    {
      "inputs": [
        {
          "internalType": "bytes",
          "name": "oldRevSecret",
          "type": "bytes"
        },
        {
          "internalType": "bytes",
          "name": "rawTxP_unlocked",
          "type": "bytes"
        },
        {
          "internalType": "bytes",
          "name": "sigV",
          "type": "bytes"
        }
      ],
      "name": "resolveDispute",
      "outputs": [],
      "stateMutability": "nonpayable",
      "type": "function"
    },
    {
      "inputs": [],
      "name": "settle",
      "outputs": [],
      "stateMutability": "nonpayable",
      "type": "function"
    },
    {
      "inputs": [
        {
          "internalType": "bytes32",
          "name": "_fundingTxId",
          "type": "bytes32"
        },
        {
          "internalType": "bytes32",
          "name": "_pkProver",
          "type": "bytes32"
        },
        {
          "internalType": "bytes32",
          "name": "_pkVerifier",
          "type": "bytes32"
        },
        {
          "internalType": "uint256",
          "name": "_index",
          "type": "uint256"
        },
        {
          "internalType": "uint256",
          "name": "_timestamp",
          "type": "uint256"
        }
      ],
      "name": "setup",
      "outputs": [],
      "stateMutability": "nonpayable",
      "type": "function"
    },
    {
      "inputs": [
        {
          "internalType": "bytes",
          "name": "rawTxP_unlocked",
          "type": "bytes"
        },
        {
          "internalType": "bytes",
          "name": "sigV",
          "type": "bytes"
        },
        {
          "internalType": "bytes",
          "name": "rawTxV_unlocked",
          "type": "bytes"
        },
        {
          "internalType": "bytes",
          "name": "sigP",
          "type": "bytes"
        }
      ],
      "name": "submitProof",
      "outputs": [],
      "stateMutability": "nonpayable",
      "type": "function"
    },
    {
      "inputs": [],
      "name": "timestamp",
      "outputs": [
        {
          "internalType": "uint256",
          "name": "",
          "type": "uint256"
        }
      ],
      "stateMutability": "view",
      "type": "function"
    },
    {
      "inputs": [],
      "name": "timestamp_dispute",
      "outputs": [
        {
          "internalType": "uint256",
          "name": "",
          "type": "uint256"
        }
      ],
      "stateMutability": "view",
      "type": "function"
    }
  ],
  "bytecode": "0x608060405234801561001057600080fd5b50612d78806100206000396000f3fe608060405234801561001057600080fd5b50600436106100b45760003560e01c806372ca346f1161007157806372ca346f1461016c57806379a85bd91461018b5780638504b3b9146101a7578063a5dd32ac146101c6578063b80777ea146101e4578063e4b23d0c14610202576100b4565b806306ac0e26146100b957806311da60b4146100d55780633740d249146100df5780633c1c0699146100fb57806343f104d21461013257806366b85d571461014e575b600080fd5b6100d360048036038101906100ce91906123a5565b610223565b005b6100dd61024d565b005b6100f960048036038101906100f49190612566565b61024f565b005b6101156004803603810190610110919061263d565b610255565b6040516101299897969594939291906126a4565b60405180910390f35b61014c60048036038101906101479190612566565b6107b0565b005b6101566107b6565b6040516101639190612722565b60405180910390f35b6101746107c2565b60405161018292919061273d565b60405180910390f35b6101a560048036038101906101a09190612766565b6107d4565b005b6101af6107d9565b6040516101bd92919061273d565b60405180910390f35b6101ce6107eb565b6040516101db9190612722565b60405180910390f35b6101ec6107f1565b6040516101f99190612722565b60405180910390f35b61020a6107f7565b60405161021a949392919061280d565b60405180910390f35b84600081905550836001819055508260028190555081600381905550806004819055505050505050565b565b50505050565b6000806000806000806000806004600e6000018190555061027d89600e600001546000610815565b600e6001016000600e600001600084919050558391905090805190602001906102a79291906122b1565b5050506102bb89600e600001546000610927565b600e6004016000600e6003016000600e6002016000600e600001600088919050558791905090805190602001906102f39291906122b1565b5086919050908051906020019061030b9291906122b1565b508591905090805190602001906103239291906122b1565b505050505060005b600381101561050357600081036103dc576103898a600e600301838154811061035757610356612852565b5b9060005260206000200154600e600201848154811061037957610378612852565b5b9060005260206000200154610b1e565b600660010160006006600301600060066002016000869190505585919050558491905055505050600e60040181815481106103c7576103c6612852565b5b90600052602060002001546006600001819055505b60018103610466576104318a600e60030183815481106103ff576103fe612852565b5b9060005260206000200154600e600201848154811061042157610420612852565b5b9060005260206000200154610bda565b600c60010181905550600e600401818154811061045157610450612852565b5b9060005260206000200154600c600001819055505b600281036104f0576104bb8a600e600301838154811061048957610488612852565b5b9060005260206000200154600e60020184815481106104ab576104aa612852565b5b9060005260206000200154610bda565b600a60010181905550600e60040181815481106104db576104da612852565b5b9060005260206000200154600a600001819055505b80806104fb906128b0565b91505061032b565b506105486040518060400160405280601581526020017f436865636b2076616c75655f6f75747075745f313a0000000000000000000000815250600660000154610db4565b6105996040518060400160405280601281526020017f436865636b20706b315f4f7574707574313a000000000000000000000000000081525061059460066001015460001c6020610e50565b611096565b6105ea6040518060400160405280600e81526020017f436865636b207265765f7365633a0000000000000000000000000000000000008152506105e560066003015460001c6020610e50565b611096565b61063b6040518060400160405280601281526020017f436865636b20706b325f4f7574707574313a000000000000000000000000000081525061063660066002015460001c6020610e50565b611096565b61067f6040518060400160405280601581526020017f436865636b2076616c75655f6f75747075745f323a0000000000000000000000815250600c60000154610db4565b6106d06040518060400160405280601481526020017f436865636b207363726970745f646174615f323a0000000000000000000000008152506106cb600c6001015460001c6020610e50565b611096565b6107146040518060400160405280601581526020017f436865636b2076616c75655f6f75747075745f333a0000000000000000000000815250600a60000154610db4565b6107656040518060400160405280601481526020017f436865636b207363726970745f646174615f333a000000000000000000000000815250610760600a6001015460001c6020610e50565b611096565b600660000154600660010154600660030154600660020154600c60000154600c60010154600a60000154600a6001015497509750975097509750975097509750919395975091939597565b50505050565b600e8060000154905081565b600c8060000154908060010154905082565b505050565b600a8060000154908060010154905082565b60055481565b60045481565b60068060000154908060010154908060020154908060030154905084565b60606000806000806108278888611132565b8098508194505050600086148061083d57508286115b1561084a5782915061084e565b8591505b60008267ffffffffffffffff81111561086a5761086961243b565b5b6040519080825280602002602001820160405280156108985781602001602082028036833780820191505090505b50905060005b83811015610914576024896108b391906128f8565b98506108bf8a8a611132565b809a508194505050828282815181106108db576108da612852565b5b6020026020010181815250506004836108f491906128f8565b896108ff91906128f8565b9850808061090c906128b0565b91505061089e565b5080889550955050505050935093915050565b606080606060008060008061093c8a8a611132565b809a508194505050600088148061095257508288115b1561095f57829150610963565b8791505b60008267ffffffffffffffff81111561097f5761097e61243b565b5b6040519080825280602002602001820160405280156109ad5781602001602082028036833780820191505090505b50905060008367ffffffffffffffff8111156109cc576109cb61243b565b5b6040519080825280602002602001820160405280156109fa5781602001602082028036833780820191505090505b50905060008467ffffffffffffffff811115610a1957610a1861243b565b5b604051908082528060200260200182016040528015610a475781602001602082028036833780820191505090505b50905060005b85811015610b0257610a618e8e604061121a565b828281518110610a7457610a73612852565b5b60200260200101818152505060088d610a8d91906128f8565b9c50610a998e8e611132565b809e5081965050508c848281518110610ab557610ab4612852565b5b60200260200101818152505084838281518110610ad557610ad4612852565b5b602002602001018181525050848d610aed91906128f8565b9c508080610afa906128b0565b915050610a4d565b508083838e995099509950995050505050505093509350935093565b6000806000610b2e868686611685565b15610bbe57610b716040518060400160405280601b81526020017f506172736564204c696768746e696e6748544c43206f75747075740000000000815250611c34565b610b8786600187610b8291906128f8565b611ccd565b610b9d87602888610b9891906128f8565b611d58565b610bb388604a89610bae91906128f8565b611ccd565b925092509250610bd1565b6000801b6000801b6000801b9250925092505b93509350939050565b6000610be7848484611de3565b15610c5657610c2a6040518060400160405280601381526020017f506172736564205032504b48206f757470757400000000000000000000000000815250611c34565b610c4084600385610c3b91906128f8565b611fa8565b6bffffffffffffffffffffffff19169050610dad565b610c6184848461208b565b15610cd057610ca46040518060400160405280601281526020017f5061727365642050325348206f75747075740000000000000000000000000000815250611c34565b610cba84600285610cb591906128f8565b611fa8565b6bffffffffffffffffffffffff19169050610dad565b610cdb8484846121a8565b15610d3b57610d1e6040518060400160405280601781526020017f506172736564204f505f52455455524e206f7574707574000000000000000000815250611c34565b610d3484600285610d2f91906128f8565b611d58565b9050610dad565b610d46848484611685565b15610da657610d896040518060400160405280601b81526020017f506172736564204c696768746e696e6748544c43206f75747075740000000000815250611c34565b610d9f84600285610d9a91906128f8565b611d58565b9050610dad565b6000801b90505b9392505050565b610e4c8282604051602401610dca9291906129ab565b6040516020818303038152906040527fb60e72cc000000000000000000000000000000000000000000000000000000007bffffffffffffffffffffffffffffffffffffffffffffffffffffffff19166020820180517bffffffffffffffffffffffffffffffffffffffffffffffffffffffff838183161783525050505061226b565b5050565b6060600083905060006002846002610e6891906129db565b610e7291906128f8565b67ffffffffffffffff811115610e8b57610e8a61243b565b5b6040519080825280601f01601f191660200182016040528015610ebd5781602001600182028036833780820191505090505b5090507f300000000000000000000000000000000000000000000000000000000000000081600081518110610ef557610ef4612852565b5b60200101907effffffffffffffffffffffffffffffffffffffffffffffffffffffffffffff1916908160001a9053507f780000000000000000000000000000000000000000000000000000000000000081600181518110610f5957610f58612852565b5b60200101907effffffffffffffffffffffffffffffffffffffffffffffffffffffffffffff1916908160001a90535060006001856002610f9991906129db565b610fa391906128f8565b90505b6001811115611043577f3031323334353637383961626364656600000000000000000000000000000000600f841660108110610fe557610fe4612852565b5b1a60f81b828281518110610ffc57610ffb612852565b5b60200101907effffffffffffffffffffffffffffffffffffffffffffffffffffffffffffff1916908160001a905350600483901c92508061103c90612a1d565b9050610fa6565b506000821461108b5784846040517fe22e27eb000000000000000000000000000000000000000000000000000000008152600401611082929190612a46565b60405180910390fd5b809250505092915050565b61112e82826040516024016110ac929190612a6f565b6040516020818303038152906040527f4b5c4277000000000000000000000000000000000000000000000000000000007bffffffffffffffffffffffffffffffffffffffffffffffffffffffff19166020820180517bffffffffffffffffffffffffffffffffffffffffffffffffffffffff838183161783525050505061226b565b5050565b600080600084848151811061114a57611149612852565b5b602001015160f81c60f81b60f81c905060018461116791906128f8565b935060fd8160ff1610156111875780848160ff1691509250925050611213565b60fd8160ff16036111b55761119e8585601061121a565b6002856111ab91906128f8565b9250925050611213565b60fe8160ff16036111e3576111cc8585602061121a565b6004856111d991906128f8565b9250925050611213565b60ff8160ff1603611211576111fa8585604061121a565b60088561120791906128f8565b9250925050611213565b505b9250929050565b60006008820361124f5783838151811061123757611236612852565b5b602001015160f81c60f81b60f81c60ff16905061167e565b601082036112d1576101008460018561126891906128f8565b8151811061127957611278612852565b5b602001015160f81c60f81b60f81c60ff166112949190612ab4565b61ffff168484815181106112ab576112aa612852565b5b602001015160f81c60f81b60f81c60ff1661ffff166112ca91906128f8565b905061167e565b602082036113f4576301000000846003856112ec91906128f8565b815181106112fd576112fc612852565b5b602001015160f81c60f81b60f81c60ff166113189190612b01565b63ffffffff16620100008560028661133091906128f8565b8151811061134157611340612852565b5b602001015160f81c60f81b60f81c60ff1661135c9190612b01565b63ffffffff166101008660018761137391906128f8565b8151811061138457611383612852565b5b602001015160f81c60f81b60f81c60ff1661139f9190612b01565b63ffffffff168686815181106113b8576113b7612852565b5b602001015160f81c60f81b60f81c60ff1663ffffffff166113d991906128f8565b6113e391906128f8565b6113ed91906128f8565b905061167e565b6040820361167d576701000000000000008460078561141391906128f8565b8151811061142457611423612852565b5b602001015160f81c60f81b60f81c60ff1661143f9190612b52565b67ffffffffffffffff1666010000000000008560068661145f91906128f8565b815181106114705761146f612852565b5b602001015160f81c60f81b60f81c60ff1661148b9190612b52565b67ffffffffffffffff1665010000000000866005876114aa91906128f8565b815181106114bb576114ba612852565b5b602001015160f81c60f81b60f81c60ff166114d69190612b52565b67ffffffffffffffff16640100000000876004886114f491906128f8565b8151811061150557611504612852565b5b602001015160f81c60f81b60f81c60ff166115209190612b52565b67ffffffffffffffff1663010000008860038961153d91906128f8565b8151811061154e5761154d612852565b5b602001015160f81c60f81b60f81c60ff166115699190612b52565b67ffffffffffffffff16620100008960028a61158591906128f8565b8151811061159657611595612852565b5b602001015160f81c60f81b60f81c60ff166115b19190612b52565b67ffffffffffffffff166101008a60018b6115cc91906128f8565b815181106115dd576115dc612852565b5b602001015160f81c60f81b60f81c60ff166115f89190612b52565b67ffffffffffffffff168a8a8151811061161557611614612852565b5b602001015160f81c60f81b60f81c60ff1667ffffffffffffffff1661163a91906128f8565b61164491906128f8565b61164e91906128f8565b61165891906128f8565b61166291906128f8565b61166c91906128f8565b61167691906128f8565b905061167e565b5b9392505050565b60006072821480156116e55750607660f81b846000856116a591906128f8565b815181106116b6576116b5612852565b5b602001015160f81c60f81b7effffffffffffffffffffffffffffffffffffffffffffffffffffffffffffff1916145b801561173f5750602160f81b846001856116ff91906128f8565b815181106117105761170f612852565b5b602001015160f81c60f81b7effffffffffffffffffffffffffffffffffffffffffffffffffffffffffffff1916145b8015611799575060ac60f81b8460238561175991906128f8565b8151811061176a57611769612852565b5b602001015160f81c60f81b7effffffffffffffffffffffffffffffffffffffffffffffffffffffffffffff1916145b80156117f35750606360f81b846024856117b391906128f8565b815181106117c4576117c3612852565b5b602001015160f81c60f81b7effffffffffffffffffffffffffffffffffffffffffffffffffffffffffffff1916145b801561184d5750607560f81b8460258561180d91906128f8565b8151811061181e5761181d612852565b5b602001015160f81c60f81b7effffffffffffffffffffffffffffffffffffffffffffffffffffffffffffff1916145b80156118a7575060aa60f81b8460268561186791906128f8565b8151811061187857611877612852565b5b602001015160f81c60f81b7effffffffffffffffffffffffffffffffffffffffffffffffffffffffffffff1916145b80156119015750602060f81b846027856118c191906128f8565b815181106118d2576118d1612852565b5b602001015160f81c60f81b7effffffffffffffffffffffffffffffffffffffffffffffffffffffffffffff1916145b801561195b5750608860f81b8460488561191b91906128f8565b8151811061192c5761192b612852565b5b602001015160f81c60f81b7effffffffffffffffffffffffffffffffffffffffffffffffffffffffffffff1916145b80156119b55750606760f81b8460498561197591906128f8565b8151811061198657611985612852565b5b602001015160f81c60f81b7effffffffffffffffffffffffffffffffffffffffffffffffffffffffffffff1916145b8015611a0f5750602160f81b84604a856119cf91906128f8565b815181106119e0576119df612852565b5b602001015160f81c60f81b7effffffffffffffffffffffffffffffffffffffffffffffffffffffffffffff1916145b8015611a69575060ad60f81b84606c85611a2991906128f8565b81518110611a3a57611a39612852565b5b602001015160f81c60f81b7effffffffffffffffffffffffffffffffffffffffffffffffffffffffffffff1916145b8015611ac35750605260f81b84606d85611a8391906128f8565b81518110611a9457611a93612852565b5b602001015160f81c60f81b7effffffffffffffffffffffffffffffffffffffffffffffffffffffffffffff1916145b8015611b1d575060b260f81b84606e85611add91906128f8565b81518110611aee57611aed612852565b5b602001015160f81c60f81b7effffffffffffffffffffffffffffffffffffffffffffffffffffffffffffff1916145b8015611b775750607560f81b84606f85611b3791906128f8565b81518110611b4857611b47612852565b5b602001015160f81c60f81b7effffffffffffffffffffffffffffffffffffffffffffffffffffffffffffff1916145b8015611bd15750606860f81b84607085611b9191906128f8565b81518110611ba257611ba1612852565b5b602001015160f81c60f81b7effffffffffffffffffffffffffffffffffffffffffffffffffffffffffffff1916145b8015611c2b5750605160f81b84607185611beb91906128f8565b81518110611bfc57611bfb612852565b5b602001015160f81c60f81b7effffffffffffffffffffffffffffffffffffffffffffffffffffffffffffff1916145b90509392505050565b611cca81604051602401611c489190612b8f565b6040516020818303038152906040527f41304fac000000000000000000000000000000000000000000000000000000007bffffffffffffffffffffffffffffffffffffffffffffffffffffffff19166020820180517bffffffffffffffffffffffffffffffffffffffffffffffffffffffff838183161783525050505061226b565b50565b6000806000905060005b6021811015611d4a57806020611ced9190612bb1565b6008611cf991906129db565b858583611d0691906128f8565b81518110611d1757611d16612852565b5b602001015160f81c60f81b60f81c60ff16901b82611d3591906128f8565b91508080611d42906128b0565b915050611cd7565b508060001b91505092915050565b6000806000905060005b6020811015611dd55780601f611d789190612bb1565b6008611d8491906129db565b858583611d9191906128f8565b81518110611da257611da1612852565b5b602001015160f81c60f81b60f81c60ff16901b82611dc091906128f8565b91508080611dcd906128b0565b915050611d62565b508060001b91505092915050565b6000601982148015611e375750607660f81b848481518110611e0857611e07612852565b5b602001015160f81c60f81b7effffffffffffffffffffffffffffffffffffffffffffffffffffffffffffff1916145b8015611e91575060a960f81b84600185611e5191906128f8565b81518110611e6257611e61612852565b5b602001015160f81c60f81b7effffffffffffffffffffffffffffffffffffffffffffffffffffffffffffff1916145b8015611eeb5750601460f81b84600285611eab91906128f8565b81518110611ebc57611ebb612852565b5b602001015160f81c60f81b7effffffffffffffffffffffffffffffffffffffffffffffffffffffffffffff1916145b8015611f455750608860f81b84601785611f0591906128f8565b81518110611f1657611f15612852565b5b602001015160f81c60f81b7effffffffffffffffffffffffffffffffffffffffffffffffffffffffffffff1916145b8015611f9f575060ac60f81b84601885611f5f91906128f8565b81518110611f7057611f6f612852565b5b602001015160f81c60f81b7effffffffffffffffffffffffffffffffffffffffffffffffffffffffffffff1916145b90509392505050565b6000806000905060005b60148173ffffffffffffffffffffffffffffffffffffffff16101561207d57806013611fde9190612c05565b6008611fea9190612c4d565b73ffffffffffffffffffffffffffffffffffffffff1685858373ffffffffffffffffffffffffffffffffffffffff1661202391906128f8565b8151811061203457612033612852565b5b602001015160f81c60f81b60f81c60ff1673ffffffffffffffffffffffffffffffffffffffff16901b826120689190612c8f565b9150808061207590612cd7565b915050611fb2565b508060601b91505092915050565b60006017821480156120eb575060a960f81b846000856120ab91906128f8565b815181106120bc576120bb612852565b5b602001015160f81c60f81b7effffffffffffffffffffffffffffffffffffffffffffffffffffffffffffff1916145b80156121455750601460f81b8460018561210591906128f8565b8151811061211657612115612852565b5b602001015160f81c60f81b7effffffffffffffffffffffffffffffffffffffffffffffffffffffffffffff1916145b801561219f5750608760f81b8460168561215f91906128f8565b815181106121705761216f612852565b5b602001015160f81c60f81b7effffffffffffffffffffffffffffffffffffffffffffffffffffffffffffff1916145b90509392505050565b60006022821480156122085750606a60f81b846000856121c891906128f8565b815181106121d9576121d8612852565b5b602001015160f81c60f81b7effffffffffffffffffffffffffffffffffffffffffffffffffffffffffffff1916145b80156122625750602060f81b8460018561222291906128f8565b8151811061223357612232612852565b5b602001015160f81c60f81b7effffffffffffffffffffffffffffffffffffffffffffffffffffffffffffff1916145b90509392505050565b6122828161227a6122856122a6565b63ffffffff16565b50565b60006a636f6e736f6c652e6c6f679050600080835160208501845afa505050565b6122fe819050919050565b8280548282559060005260206000209081019282156122ed579160200282015b828111156122ec5782518255916020019190600101906122d1565b5b5090506122fa9190612308565b5090565b612306612d13565b565b5b80821115612321576000816000905550600101612309565b5090565b6000604051905090565b600080fd5b600080fd5b6000819050919050565b61234c81612339565b811461235757600080fd5b50565b60008135905061236981612343565b92915050565b6000819050919050565b6123828161236f565b811461238d57600080fd5b50565b60008135905061239f81612379565b92915050565b600080600080600060a086880312156123c1576123c061232f565b5b60006123cf8882890161235a565b95505060206123e08882890161235a565b94505060406123f18882890161235a565b935050606061240288828901612390565b925050608061241388828901612390565b9150509295509295909350565b600080fd5b600080fd5b6000601f19601f8301169050919050565b7f4e487b7100000000000000000000000000000000000000000000000000000000600052604160045260246000fd5b6124738261242a565b810181811067ffffffffffffffff821117156124925761249161243b565b5b80604052505050565b60006124a5612325565b90506124b1828261246a565b919050565b600067ffffffffffffffff8211156124d1576124d061243b565b5b6124da8261242a565b9050602081019050919050565b82818337600083830152505050565b6000612509612504846124b6565b61249b565b90508281526020810184848401111561252557612524612425565b5b6125308482856124e7565b509392505050565b600082601f83011261254d5761254c612420565b5b813561255d8482602086016124f6565b91505092915050565b600080600080608085870312156125805761257f61232f565b5b600085013567ffffffffffffffff81111561259e5761259d612334565b5b6125aa87828801612538565b945050602085013567ffffffffffffffff8111156125cb576125ca612334565b5b6125d787828801612538565b935050604085013567ffffffffffffffff8111156125f8576125f7612334565b5b61260487828801612538565b925050606085013567ffffffffffffffff81111561262557612624612334565b5b61263187828801612538565b91505092959194509250565b6000602082840312156126535761265261232f565b5b600082013567ffffffffffffffff81111561267157612670612334565b5b61267d84828501612538565b91505092915050565b61268f8161236f565b82525050565b61269e81612339565b82525050565b6000610100820190506126ba600083018b612686565b6126c7602083018a612695565b6126d46040830189612695565b6126e16060830188612695565b6126ee6080830187612686565b6126fb60a0830186612695565b61270860c0830185612686565b61271560e0830184612695565b9998505050505050505050565b60006020820190506127376000830184612686565b92915050565b60006040820190506127526000830185612686565b61275f6020830184612695565b9392505050565b60008060006060848603121561277f5761277e61232f565b5b600084013567ffffffffffffffff81111561279d5761279c612334565b5b6127a986828701612538565b935050602084013567ffffffffffffffff8111156127ca576127c9612334565b5b6127d686828701612538565b925050604084013567ffffffffffffffff8111156127f7576127f6612334565b5b61280386828701612538565b9150509250925092565b60006080820190506128226000830187612686565b61282f6020830186612695565b61283c6040830185612695565b6128496060830184612695565b95945050505050565b7f4e487b7100000000000000000000000000000000000000000000000000000000600052603260045260246000fd5b7f4e487b7100000000000000000000000000000000000000000000000000000000600052601160045260246000fd5b60006128bb8261236f565b91507fffffffffffffffffffffffffffffffffffffffffffffffffffffffffffffffff82036128ed576128ec612881565b5b600182019050919050565b60006129038261236f565b915061290e8361236f565b925082820190508082111561292657612925612881565b5b92915050565b600081519050919050565b600082825260208201905092915050565b60005b8381101561296657808201518184015260208101905061294b565b60008484015250505050565b600061297d8261292c565b6129878185612937565b9350612997818560208601612948565b6129a08161242a565b840191505092915050565b600060408201905081810360008301526129c58185612972565b90506129d46020830184612686565b9392505050565b60006129e68261236f565b91506129f18361236f565b92508282026129ff8161236f565b91508282048414831517612a1657612a15612881565b5b5092915050565b6000612a288261236f565b915060008203612a3b57612a3a612881565b5b600182039050919050565b6000604082019050612a5b6000830185612686565b612a686020830184612686565b9392505050565b60006040820190508181036000830152612a898185612972565b90508181036020830152612a9d8184612972565b90509392505050565b600061ffff82169050919050565b6000612abf82612aa6565b9150612aca83612aa6565b9250828202612ad881612aa6565b9150808214612aea57612ae9612881565b5b5092915050565b600063ffffffff82169050919050565b6000612b0c82612af1565b9150612b1783612af1565b9250828202612b2581612af1565b9150808214612b3757612b36612881565b5b5092915050565b600067ffffffffffffffff82169050919050565b6000612b5d82612b3e565b9150612b6883612b3e565b9250828202612b7681612b3e565b9150808214612b8857612b87612881565b5b5092915050565b60006020820190508181036000830152612ba98184612972565b905092915050565b6000612bbc8261236f565b9150612bc78361236f565b9250828203905081811115612bdf57612bde612881565b5b92915050565b600073ffffffffffffffffffffffffffffffffffffffff82169050919050565b6000612c1082612be5565b9150612c1b83612be5565b9250828203905073ffffffffffffffffffffffffffffffffffffffff811115612c4757612c46612881565b5b92915050565b6000612c5882612be5565b9150612c6383612be5565b9250828202612c7181612be5565b91508282048414831517612c8857612c87612881565b5b5092915050565b6000612c9a82612be5565b9150612ca583612be5565b9250828201905073ffffffffffffffffffffffffffffffffffffffff811115612cd157612cd0612881565b5b92915050565b6000612ce282612be5565b915073ffffffffffffffffffffffffffffffffffffffff8203612d0857612d07612881565b5b600182019050919050565b7f4e487b7100000000000000000000000000000000000000000000000000000000600052605160045260246000fdfea26469706673582212200dd5ad10d698ba1be5a60c8d92be96d430fe9e64c04760fc9576019a07fb77d064736f6c63430008130033",
  "linkReferences": {},
  "deployedLinkReferences": {}
}