{
  "_format": "hh-sol-artifact-1",
  "contractName": "LNBridge",
  "sourceName": "contracts/LNBridge.sol",
  "abi": [
    {
      "inputs": [
        {
          "internalType": "address",
          "name": "_prover",
          "type": "address"
        },
        {
          "internalType": "address",
          "name": "_verifier",
          "type": "address"
        }
      ],
      "stateMutability": "nonpayable",
      "type": "constructor"
    },
    {
      "anonymous": false,
      "inputs": [
        {
          "indexed": false,
          "internalType": "string",
          "name": "label",
          "type": "string"
        },
        {
          "indexed": false,
          "internalType": "address",
          "name": "addr",
          "type": "address"
        },
        {
          "indexed": false,
          "internalType": "uint256",
          "name": "amount",
          "type": "uint256"
        }
      ],
      "name": "lockCoinsEvent",
      "type": "event"
    },
    {
      "anonymous": false,
      "inputs": [
        {
          "indexed": false,
          "internalType": "string",
          "name": "label",
          "type": "string"
        },
        {
          "indexed": false,
          "internalType": "bool",
          "name": "stateStatus",
          "type": "bool"
        }
      ],
      "name": "stateEvent",
      "type": "event"
    },
    {
      "inputs": [],
      "name": "bridge",
      "outputs": [
        {
          "internalType": "bytes32",
          "name": "fundingTxId",
          "type": "bytes32"
        },
        {
          "internalType": "bytes",
          "name": "fundingTx_script",
          "type": "bytes"
        },
        {
          "internalType": "bytes4",
          "name": "fundingTx_index",
          "type": "bytes4"
        },
        {
          "internalType": "bytes",
          "name": "sighash",
          "type": "bytes"
        },
        {
          "internalType": "bytes",
          "name": "pkProver_Uncompressed",
          "type": "bytes"
        },
        {
          "internalType": "bytes",
          "name": "pkVerifier_Uncompressed",
          "type": "bytes"
        },
        {
          "internalType": "uint256",
          "name": "timelock",
          "type": "uint256"
        },
        {
          "internalType": "uint256",
          "name": "timelock_dispute",
          "type": "uint256"
        },
        {
          "internalType": "uint256",
          "name": "balDistrConst",
          "type": "uint256"
        }
      ],
      "stateMutability": "view",
      "type": "function"
    },
    {
      "inputs": [
        {
          "internalType": "bytes",
          "name": "CT_P_locked",
          "type": "bytes"
        },
        {
          "internalType": "bytes",
          "name": "CT_V_unlocked",
          "type": "bytes"
        }
      ],
      "name": "dispute",
      "outputs": [],
      "stateMutability": "nonpayable",
      "type": "function"
    },
    {
      "inputs": [],
      "name": "paymentChan",
      "outputs": [
        {
          "internalType": "uint256",
          "name": "balP",
          "type": "uint256"
        },
        {
          "internalType": "uint256",
          "name": "balV",
          "type": "uint256"
        },
        {
          "internalType": "bytes32",
          "name": "revKey",
          "type": "bytes32"
        }
      ],
      "stateMutability": "view",
      "type": "function"
    },
    {
      "inputs": [
        {
          "internalType": "string",
          "name": "revSecret",
          "type": "string"
        }
      ],
      "name": "resolveInvalidDispute",
      "outputs": [],
      "stateMutability": "nonpayable",
      "type": "function"
    },
    {
      "inputs": [
        {
          "internalType": "bytes",
          "name": "CT_P_unlocked",
          "type": "bytes"
        }
      ],
      "name": "resolveValidDispute",
      "outputs": [],
      "stateMutability": "nonpayable",
      "type": "function"
    },
    {
      "inputs": [],
      "name": "settle",
      "outputs": [],
      "stateMutability": "payable",
      "type": "function"
    },
    {
      "inputs": [
        {
          "internalType": "bytes32",
          "name": "_fundingTxId",
          "type": "bytes32"
        },
        {
          "internalType": "bytes",
          "name": "_fundingTx_script",
          "type": "bytes"
        },
        {
          "internalType": "bytes4",
          "name": "_fundingTx_index",
          "type": "bytes4"
        },
        {
          "internalType": "bytes",
          "name": "_sighash",
          "type": "bytes"
        },
        {
          "internalType": "bytes",
          "name": "_pkProver_Uncompressed",
          "type": "bytes"
        },
        {
          "internalType": "bytes",
          "name": "_pkVerifier_Uncompressed",
          "type": "bytes"
        },
        {
          "internalType": "uint256",
          "name": "_timelock",
          "type": "uint256"
        },
        {
          "internalType": "uint256",
          "name": "_timelock_dispute",
          "type": "uint256"
        },
        {
          "internalType": "bytes",
          "name": "sigP",
          "type": "bytes"
        },
        {
          "internalType": "bytes",
          "name": "sigV",
          "type": "bytes"
        }
      ],
      "name": "setup",
      "outputs": [],
      "stateMutability": "nonpayable",
      "type": "function"
    },
    {
      "inputs": [],
      "name": "state",
      "outputs": [
        {
          "internalType": "bool",
          "name": "coinsLocked",
          "type": "bool"
        },
        {
          "internalType": "bool",
          "name": "setupDone",
          "type": "bool"
        },
        {
          "internalType": "bool",
          "name": "validProofSubmitted",
          "type": "bool"
        },
        {
          "internalType": "bool",
          "name": "disputeOpened",
          "type": "bool"
        },
        {
          "internalType": "bool",
          "name": "disputeClosedP",
          "type": "bool"
        },
        {
          "internalType": "bool",
          "name": "disputeClosedV",
          "type": "bool"
        }
      ],
      "stateMutability": "view",
      "type": "function"
    },
    {
      "inputs": [
        {
          "internalType": "bytes",
          "name": "CT_P_unlocked",
          "type": "bytes"
        },
        {
          "internalType": "bytes",
          "name": "CT_V_unlocked",
          "type": "bytes"
        }
      ],
      "name": "submitProof",
      "outputs": [],
      "stateMutability": "nonpayable",
      "type": "function"
    },
    {
      "stateMutability": "payable",
      "type": "receive"
    }
  ],
  "bytecode": "0x60806040523480156200001157600080fd5b506040516200607c3803806200607c833981016040819052620000349162000083565b600e80546001600160a01b039384166001600160a01b031991821617909155600f8054929093169116179055620000bb565b80516001600160a01b03811681146200007e57600080fd5b919050565b600080604083850312156200009757600080fd5b620000a28362000066565b9150620000b26020840162000066565b90509250929050565b615fb180620000cb6000396000f3fe60806040526004361061007a5760003560e01c80630cb823691461011457806311da60b4146101365780633aef14771461013e57806361f284ea1461015e5780637236d92f1461017e578063761553911461019e578063c19d93fb146101be578063db67a53014610246578063e78cea921461028057600080fd5b3661010f57336000908152600d6020526040902034908190556010546100a091906154fe565b6010556009805460ff19166001179055604080516060808252600d908201526c436f696e73206c6f636b65642160981b6080820152336020820152348183015290517f47efeefce1cd829d195534850e795557a9bb3ca6914ef9fb9729108277b421439160a0908290030190a1005b600080fd5b34801561012057600080fd5b5061013461012f3660046155a1565b6102aa565b005b6101346104db565b34801561014a57600080fd5b50610134610159366004615609565b610a9c565b34801561016a57600080fd5b50610134610179366004615689565b610fd8565b34801561018a57600080fd5b506101346101993660046157ae565b611291565b3480156101aa57600080fd5b506101346101b9366004615609565b611770565b3480156101ca57600080fd5b506009546102089060ff80821691610100810482169162010000820481169163010000008104821691600160201b8204811691600160281b90041686565b604080519615158752941515602087015292151593850193909352151560608401529015156080830152151560a082015260c0015b60405180910390f35b34801561025257600080fd5b50600a54600b54600c5461026592919083565b6040805193845260208401929092529082015260600161023d565b34801561028c57600080fd5b50610295611ae3565b60405161023d9998979695949392919061583e565b6007546006546102ba91906154fe565b42108015610316575060095460ff16151560011480156102e7575060095460ff6101009091041615156001145b80156102fc575060095462010000900460ff16155b801561031657506009546301000000900460ff1615156001145b80156103df57506002808260405161032e91906158c7565b602060405180830381855afa15801561034b573d6000803e3d6000fd5b5050506040513d601f19601f8201168201806040525081019061036e91906158e3565b60405160200161038091815260200190565b60408051601f198184030181529082905261039a916158c7565b602060405180830381855afa1580156103b7573d6000803e3d6000fd5b5050506040513d601f19601f820116820180604052508101906103da91906158e3565b600c54145b15610478576009805460ff60281b1916600160281b90811791829055604051600080516020615f5c8339815191529261046d92900460ff16906040808252602d908201527f5265736f6c766520496e76616c6964204469737075746520737563636573736660608201526c1d5b1b1e48195e1958dd5d1959609a1b6080820152901515602082015260a00190565b60405180910390a150565b60095460408051818152601e918101919091527f5265736f6c766520496e76616c69642044697370757465206661696c656400006060820152600160281b90910460ff1615156020820152600080516020615f5c8339815191529060800161046d565b60095462010000900460ff1615156001148061051e57506009546301000000900460ff161515600114801561051e5750600954600160201b900460ff1615156001145b1561071457600e546008546000916001600160a01b03169061054290606490615912565b60105461054f9190615934565b604051600081818185875af1925050503d806000811461058b576040519150601f19603f3d011682016040523d82523d6000602084013e610590565b606091505b50509050806105e05760405162461bcd60e51b815260206004820152601760248201527602330b4b632b2103a379039b2b7321022ba3432b910281604d1b60448201526064015b60405180910390fd5b600f546008546000916001600160a01b0316906105ff90606490615912565b61060a906001615953565b6010546106179190615934565b604051600081818185875af1925050503d8060008114610653576040519150601f19603f3d011682016040523d82523d6000602084013e610658565b606091505b50509050806106a35760405162461bcd60e51b815260206004820152601760248201527602330b4b632b2103a379039b2b7321022ba3432b9102b1604d1b60448201526064016105d7565b60408051818152602b918101919091527f56616c69642070726f6f66207375626d697474656420616e642066756e64732060608201526a191a5cdd1c9a589d5d195960aa1b608082015260016020820152600080516020615f5c8339815191529060a0015b60405180910390a15050565b6009546301000000900460ff16151560011480156107515750600954600160201b900460ff161580156107515750600954600160281b900460ff16155b1561081957600e546010546040516000926001600160a01b031691908381818185875af1925050503d80600081146107a5576040519150601f19603f3d011682016040523d82523d6000602084013e6107aa565b606091505b50509050806107cb5760405162461bcd60e51b81526004016105d79061596a565b60408051818152601481830152730416c6c2066756e647320676976656e20746f20560641b6060820152600160208201529051600080516020615f5c8339815191529181900360800190a150565b6009546301000000900460ff16151560011480156108455750600954600160281b900460ff1615156001145b1561090b57600f546010546040516000926001600160a01b031691908381818185875af1925050503d8060008114610899576040519150601f19603f3d011682016040523d82523d6000602084013e61089e565b606091505b50509050806108bf5760405162461bcd60e51b81526004016105d79061599a565b604080518181526014918101919091527320b63610333ab732399033b4bb32b7103a37902b60611b606082015260016020820152600080516020615f5c8339815191529060800161046d565b60095460ff161515600114801561092a5750600954610100900460ff16155b15610a9a57600e546001600160a01b03166000818152600d60205260408082205490519192918381818185875af1925050503d8060008114610988576040519150601f19603f3d011682016040523d82523d6000602084013e61098d565b606091505b50509050806109ae5760405162461bcd60e51b81526004016105d79061596a565b600f546001600160a01b03166000818152600d60205260408082205490519192918381818185875af1925050503d8060008114610a07576040519150601f19603f3d011682016040523d82523d6000602084013e610a0c565b606091505b5050905080610a2d5760405162461bcd60e51b81526004016105d79061599a565b60408051818152602d818301527f46756e647320646973747269627574656420617320666f7220696e697469616c60608201526c103234b9ba3934b13aba34b7b760991b6080820152600160208201529051600080516020615f5c8339815191529181900360a00190a150505b565b60065442108015610af7575060095460ff1615156001148015610acc575060095460ff6101009091041615156001145b8015610ae1575060095462010000900460ff16155b8015610af757506009546301000000900460ff16155b15610f7b576000610b0783611d49565b6001600160e01b03191614610b2e5760405162461bcd60e51b81526004016105d7906159ca565b6000610b3982611d49565b6001600160e01b03191614610b605760405162461bcd60e51b81526004016105d790615a0f565b610b686152db565b610b70615308565b610b78615335565b610c15858560006001018054610b8d90615a54565b80601f0160208091040260200160405190810160405280929190818152602001828054610bb990615a54565b8015610c065780601f10610bdb57610100808354040283529160200191610c06565b820191906000526020600020905b815481529060010190602001808311610be957829003601f168201915b50505050506000800154611d73565b600180549396509194509250610e5f9187918791610c3290615a54565b80601f0160208091040260200160405190810160405280929190818152602001828054610c5e90615a54565b8015610cab5780601f10610c8057610100808354040283529160200191610cab565b820191906000526020600020905b815481529060010190602001808311610c8e57829003601f168201915b505050505060006003018054610cc090615a54565b80601f0160208091040260200160405190810160405280929190818152602001828054610cec90615a54565b8015610d395780601f10610d0e57610100808354040283529160200191610d39565b820191906000526020600020905b815481529060010190602001808311610d1c57829003601f168201915b505050505060006004018054610d4e90615a54565b80601f0160208091040260200160405190810160405280929190818152602001828054610d7a90615a54565b8015610dc75780601f10610d9c57610100808354040283529160200191610dc7565b820191906000526020600020905b815481529060010190602001808311610daa57829003601f168201915b505050505060006005018054610ddc90615a54565b80601f0160208091040260200160405190810160405280929190818152602001828054610e0890615a54565b8015610e555780601f10610e2a57610100808354040283529160200191610e55565b820191906000526020600020905b815481529060010190602001808311610e3857829003601f168201915b5050505050612265565b50825151600a10610efd5760405162461bcd60e51b815260206004820152605c60248201527f496e2074686973205043207570646174652028616b612e2063757272656e742060448201527f737461746529207468652050726f76657220646f6573206e6f7420686176652060648201527b612073756666696369656e7420616d6f756e74206f6620636f696e7360201b608482015260a4016105d7565b6009805462ff000019166201000090811791829055604051600080516020615f5c83398151915292610f6c92900460ff16906040808252601b908201527a141c9bdbd9881cdd58d8d95cdcd99d5b1b1e481d995c9a599a5959602a1b6060820152901515602082015260800190565b60405180910390a15050505050565b600954604080518181526018918101919091527750726f6f66207375626d697474656420746f6f206c61746560401b60608201526201000090910460ff1615156020820152600080516020615f5c83398151915290608001610708565b60008a90558851610ff09060019060208c019061534c565b506002805463ffffffff191660e08a901c17905586516110179060039060208a019061534c565b50855161102b90600490602089019061534c565b50845161103f90600590602088019061534c565b50600684905560078381556008556000805461105a90612977565b60025460019061106c9060e01b6129a2565b600654600390600490600590611081906129c0565b60075461108d906129c0565b6040516020016110a4989796959493929190615b3f565b604051602081830303815290604052905061112d6002826040516110c891906158c7565b602060405180830381855afa1580156110e5573d6000803e3d6000fd5b5050506040513d601f19601f8201168201806040525081019061110891906158e3565b8460405160200161111991906158c7565b604051602081830303815290604052612a2e565b600e546001600160a01b0390811691161461119d5760405162461bcd60e51b815260206004820152602a60248201527f496e76616c6964207369676e6174757265206f662050206f76657220746865206044820152697365747570206461746160b01b60648201526084016105d7565b6112016002826040516111b091906158c7565b602060405180830381855afa1580156111cd573d6000803e3d6000fd5b5050506040513d601f19601f820116820180604052508101906111f091906158e3565b8360405160200161111991906158c7565b600f546001600160a01b039081169116146112715760405162461bcd60e51b815260206004820152602a60248201527f496e76616c6964207369676e6174757265206f662056206f76657220746865206044820152697365747570206461746160b01b60648201526084016105d7565b50506009805465ffffffffff001916610100179055505050505050505050565b6007546006546112a191906154fe565b421080156112fd575060095460ff16151560011480156112ce575060095460ff6101009091041615156001145b80156112e3575060095462010000900460ff16155b80156112fd57506009546301000000900460ff1615156001145b1561170e57600061130d82611d49565b6001600160e01b031916146113345760405162461bcd60e51b81526004016105d7906159ca565b60005461134082612ae9565b60200151146113615760405162461bcd60e51b81526004016105d790615bc2565b6113696153d0565b611371615335565b611379615335565b61138284612b9e565b600a5483519396509194509250146114275760405162461bcd60e51b815260206004820152605c60248201527f5468652076616c756520696e207468652048544c4320646f6573206e6f74206360448201527f6f72726973706f6e6420746f207468652076616c756520696e2074686520485460648201527b26219037b3102813b9903637b1b5b2b2103a3930b739b0b1ba34b7b760211b608482015260a4016105d7565b600b548251146114c55760405162461bcd60e51b815260206004820152605f60248201527f5468652076616c756520696e20746865207032706b6820646f6573206e6f742060448201527f636f72726973706f6e6420746f207468652076616c756520696e20746865204860648201527f544c43206f662056277320756e6c6f636b6564207472616e73616374696f6e00608482015260a4016105d7565b61167884600060010180546114d990615a54565b80601f016020809104026020016040519081016040528092919081815260200182805461150590615a54565b80156115525780601f1061152757610100808354040283529160200191611552565b820191906000526020600020905b81548152906001019060200180831161153557829003601f168201915b50505050506000600301805461156790615a54565b80601f016020809104026020016040519081016040528092919081815260200182805461159390615a54565b80156115e05780601f106115b5576101008083540402835291602001916115e0565b820191906000526020600020905b8154815290600101906020018083116115c357829003601f168201915b5050505050600060050180546115f590615a54565b80601f016020809104026020016040519081016040528092919081815260200182805461162190615a54565b801561166e5780601f106116435761010080835404028352916020019161166e565b820191906000526020600020905b81548152906001019060200180831161165157829003601f168201915b5050505050612dd4565b506009805460ff60201b1916600160201b90811791829055604051600080516020615f5c8339815191529261170092900460ff16906040808252602b908201527f5265736f6c76652056616c69642044697370757465207375636365737366756c60608201526a1b1e48195e1958dd5d195960aa1b6080820152901515602082015260a00190565b60405180910390a150505050565b60095460408051818152601c918101919091527b14995cdbdb1d994815985b1a5908111a5cdc1d5d194819985a5b195960221b6060820152600160201b90910460ff1615156020820152600080516020615f5c8339815191529060800161046d565b600654421080156117cb575060095460ff16151560011480156117a0575060095460ff6101009091041615156001145b80156117b5575060095462010000900460ff16155b80156117cb57506009546301000000900460ff16155b15611a8b576007546006546117e091906154fe565b6117e983613123565b63ffffffff16116118bd5760405162461bcd60e51b815260206004820152608660248201527f436f6d6d69746d656e74207472616e73616374696f6e206f662050206973207560448201527f6e6c6f636b6564206f722074696d656c6f636b206f66207468652074696d656c60648201527f6f636b656420547820697320736d616c6c6572206f7220657175616c2074686160848201527f6e2054696d656c6f636b2054202b2052656c61746976652054696d656c6f636b60a482015265081517dc995b60d21b60c482015260e4016105d7565b60006118c882613123565b63ffffffff16146118eb5760405162461bcd60e51b81526004016105d790615a0f565b6118f36152db565b6118fb615308565b611903615335565b611918858560006001018054610b8d90615a54565b6001805493965091945092506119359187918791610c3290615a54565b151560011461197b5760405162461bcd60e51b8152602060048201526012602482015271496e76616c6964207369676e61747572657360701b60448201526064016105d7565b825151600a106119ff5760405162461bcd60e51b815260206004820152604360248201527f496e2074686973205043207570646174652050726f76657220646f6573206e6f60448201527f74206861766520612073756666696369656e7420616d6f756e74206f6620636f606482015262696e7360e81b608482015260a4016105d7565b825151600a55602083015151600b55611a1785613149565b600c556009805463ff0000001916630100000090811791829055604051600080516020615f5c83398151915292610f6c92900460ff16906040808252601b908201527a111a5cdc1d5d19481cdd58d8d95cdcd99d5b1b1e481bdc195b9959602a1b6060820152901515602082015260800190565b6009546040805181815260129181019190915271111a5cdc1d5d19481b9bdd081bdc195b995960721b6060820152630100000090910460ff1615156020820152600080516020615f5c83398151915290608001610708565b6000805460018054919291611af790615a54565b80601f0160208091040260200160405190810160405280929190818152602001828054611b2390615a54565b8015611b705780601f10611b4557610100808354040283529160200191611b70565b820191906000526020600020905b815481529060010190602001808311611b5357829003601f168201915b5050505050908060020160009054906101000a900460e01b90806003018054611b9890615a54565b80601f0160208091040260200160405190810160405280929190818152602001828054611bc490615a54565b8015611c115780601f10611be657610100808354040283529160200191611c11565b820191906000526020600020905b815481529060010190602001808311611bf457829003601f168201915b505050505090806004018054611c2690615a54565b80601f0160208091040260200160405190810160405280929190818152602001828054611c5290615a54565b8015611c9f5780601f10611c7457610100808354040283529160200191611c9f565b820191906000526020600020905b815481529060010190602001808311611c8257829003601f168201915b505050505090806005018054611cb490615a54565b80601f0160208091040260200160405190810160405280929190818152602001828054611ce090615a54565b8015611d2d5780601f10611d0257610100808354040283529160200191611d2d565b820191906000526020600020905b815481529060010190602001808311611d1057829003601f168201915b5050505050908060060154908060070154908060080154905089565b6000611d648260048451611d5d9190615953565b600461317b565b611d6d90615c05565b92915050565b611d7b6152db565b611d83615308565b611d8b615335565b611d936152db565b611d9b615308565b611da3615335565b611dac8a612b9e565b9084529084529050611dbd8961328a565b6020848101919091528085018290526060909101519082015114611e375760405162461bcd60e51b815260206004820152603f6024820152600080516020615eba83398151915260448201527f6e6f742068617264636f646520562773207265766f636174696f6e206b65790060648201526084016105d7565b60208301515182515114611e9e5760405162461bcd60e51b815260206004820152603a6024820152600080516020615f3c83398151915260448201527910281030b732103634b3b43a3734b73390242a26219037b3102b60311b60648201526084016105d7565b60208201515183515114611f055760405162461bcd60e51b815260206004820152603a6024820152600080516020615f3c8339815191526044820152790205620616e64206c696768746e696e672048544c43206f6620560341b60648201526084016105d7565b600080611f118a6133c8565b8551602090810151604051939550919350600292611f30929101615c3c565b60408051601f1981840301815290829052611f4a916158c7565b602060405180830381855afa158015611f67573d6000803e3d6000fd5b5050506040513d601f19601f82011682018060405250810190611f8a91906158e3565b6002611f95836133ee565b604051611fa291906158c7565b602060405180830381855afa158015611fbf573d6000803e3d6000fd5b5050506040513d601f19601f82011682018060405250810190611fe291906158e3565b146120625760405162461bcd60e51b815260206004820152605660248201527f546865207032706b6820696e2050277320756e6c6f636b656420636f6d6d69746044820152600080516020615e9a833981519152606482015275706f6e6420746f2056657269666965722773206f6e6560501b608482015260a4016105d7565b60208085015181015160405160029261207c929101615c3c565b60408051601f1981840301815290829052612096916158c7565b602060405180830381855afa1580156120b3573d6000803e3d6000fd5b5050506040513d601f19601f820116820180604052508101906120d691906158e3565b60026120e1846133ee565b6040516120ee91906158c7565b602060405180830381855afa15801561210b573d6000803e3d6000fd5b5050506040513d601f19601f8201168201806040525081019061212e91906158e3565b146121ac5760405162461bcd60e51b815260206004820152605460248201527f546865207032706b6820696e2056277320756e6c6f636b656420636f6d6d69746044820152600080516020615e9a833981519152606482015273706f6e6420746f2050726f7665722773206f6e6560601b608482015260a4016105d7565b886121b68d612ae9565b60200151146121d75760405162461bcd60e51b81526004016105d790615bc2565b886121e18c612ae9565b60200151146122505760405162461bcd60e51b815260206004820152604160248201527f56277320636f6d6d69746d656e74207472616e73616374696f6e20646f6573206044820152600080516020615eda8339815191526064820152603760f91b608482015260a4016105d7565b509295509093509150505b9450945094915050565b600061226f6153f7565b612278886134a3565b6020820152612286876134a3565b8152612290615424565b61229b898888613578565b81526040516002906122ae9086906158c7565b602060405180830381855afa1580156122cb573d6000803e3d6000fd5b5050506040513d601f19601f820116820180604052508101906122ee91906158e3565b8151602084015151600291612330916123148760015b60200201516020015160006135d8565b61232b8860015b60200201516040015160006135d8565b613636565b60405161233d91906158c7565b602060405180830381855afa15801561235a573d6000803e3d6000fd5b5050506040513d601f19601f8201168201806040525081019061237d91906158e3565b1480612448575060028460405161239491906158c7565b602060405180830381855afa1580156123b1573d6000803e3d6000fd5b5050506040513d601f19601f820116820180604052508101906123d491906158e3565b81516020840151516002916123f9916123ee906001615c51565b612314876001612304565b60405161240691906158c7565b602060405180830381855afa158015612423573d6000803e3d6000fd5b5050506040513d601f19601f8201168201806040525081019061244691906158e3565b145b80612506575060028460405161245e91906158c7565b602060405180830381855afa15801561247b573d6000803e3d6000fd5b5050506040513d601f19601f8201168201806040525081019061249e91906158e3565b81516020840151516002916124b7916123ee9084615c51565b6040516124c491906158c7565b602060405180830381855afa1580156124e1573d6000803e3d6000fd5b5050506040513d601f19601f8201168201806040525081019061250491906158e3565b145b806125c5575060028460405161251c91906158c7565b602060405180830381855afa158015612539573d6000803e3d6000fd5b5050506040513d601f19601f8201168201806040525081019061255c91906158e3565b8151602084015151600291612576916123ee906003615c51565b60405161258391906158c7565b602060405180830381855afa1580156125a0573d6000803e3d6000fd5b5050506040513d601f19601f820116820180604052508101906125c391906158e3565b145b6125e15760405162461bcd60e51b81526004016105d790615c76565b6125ec888888613578565b60208201526040516002906126029087906158c7565b602060405180830381855afa15801561261f573d6000803e3d6000fd5b5050506040513d601f19601f8201168201806040525081019061264291906158e3565b60208201518351516002916126679161265c876000612304565b61232b88600061231b565b60405161267491906158c7565b602060405180830381855afa158015612691573d6000803e3d6000fd5b5050506040513d601f19601f820116820180604052508101906126b491906158e3565b148061277f57506002856040516126cb91906158c7565b602060405180830381855afa1580156126e8573d6000803e3d6000fd5b5050506040513d601f19601f8201168201806040525081019061270b91906158e3565b602082015183515160029161273091612725906001615c51565b61265c876000612304565b60405161273d91906158c7565b602060405180830381855afa15801561275a573d6000803e3d6000fd5b5050506040513d601f19601f8201168201806040525081019061277d91906158e3565b145b8061283d575060028560405161279591906158c7565b602060405180830381855afa1580156127b2573d6000803e3d6000fd5b5050506040513d601f19601f820116820180604052508101906127d591906158e3565b60208201518351516002916127ee916127259084615c51565b6040516127fb91906158c7565b602060405180830381855afa158015612818573d6000803e3d6000fd5b5050506040513d601f19601f8201168201806040525081019061283b91906158e3565b145b806128fc575060028560405161285391906158c7565b602060405180830381855afa158015612870573d6000803e3d6000fd5b5050506040513d601f19601f8201168201806040525081019061289391906158e3565b60208201518351516002916128ad91612725906003615c51565b6040516128ba91906158c7565b602060405180830381855afa1580156128d7573d6000803e3d6000fd5b5050506040513d601f19601f820116820180604052508101906128fa91906158e3565b145b6129685760405162461bcd60e51b815260206004820152603760248201527f496e76616c6964207369676e6174757265206f662050206f76657220636f6d6d60448201527634ba36b2b73a103a3930b739b0b1ba34b7b71037b3102b60491b60648201526084016105d7565b50600198975050505050505050565b60608160405160200161298c91815260200190565b6040516020818303038152906040529050919050565b6040516001600160e01b03198216602082015260609060240161298c565b60606001600160ff1b03821115612a135760405162461bcd60e51b815260206004820152601760248201527656616c75652065786365656473207468652072616e676560481b60448201526064016105d7565b60405190506020815281602082015260408101604052919050565b6000815160411415612a795760208201516040830151606084015160001a601b811015612a6357612a60601b82615c51565b90505b612a6f8682858561367f565b9350505050611d6d565b815160401415612aa15760208201516040830151612a98858383613810565b92505050611d6d565b60405162461bcd60e51b815260206004820152601f60248201527f45434453413a20696e76616c6964207369676e6174757265206c656e6774680060448201526064016105d7565b612af1615442565b612af9615442565b612b0483600461383a565b508152612b14836025600461317b565b612b1d90615c05565b6001600160e01b0319166040820152612b4a612b3c846005602561317b565b612b4590615ccd565b6138fd565b60208201528051600114611d6d5760405162461bcd60e51b815260206004820152601b60248201527a54782068617320746f6f206d616e7920696e7075747320283e312960281b60448201526064016105d7565b612ba66153d0565b612bae615335565b612bb6615335565b612bbe6153d0565b612bc6615335565b612bce615335565b612bd6615462565b6004808252612be8908990600061399e565b8083526020830191909152612c009089906000613a95565b845260408401526060830152608082015260005b6003811015612dc55780612c9b57612c678983606001518381518110612c3c57612c3c615a8f565b602002602001015184604001518481518110612c5a57612c5a615a8f565b6020026020010151613c5d565b6040880152606087015260208601526080820151805182908110612c8d57612c8d615a8f565b602090810291909101015185525b8060011415612d4857612d14612cec8a84606001518481518110612cc157612cc1615a8f565b602002602001015185604001518581518110612cdf57612cdf615a8f565b6020026020010151613cc2565b604051602001612cfe91815260200190565b6040516020818303038152906040526000613d65565b6001600160601b03191660208401526080820151805182908110612d3a57612d3a615a8f565b602090810291909101015183525b8060021415612db357612d898983606001518381518110612d6b57612d6b615a8f565b602002602001015184604001518481518110612cdf57612cdf615a8f565b60208501526080820151805182908110612da557612da5615a8f565b602090810291909101015184525b80612dbd81615cf1565b915050612c14565b50929790965090945092505050565b600080612de0866134a3565b90506000612def878787613578565b9050600284604051612e0191906158c7565b602060405180830381855afa158015612e1e573d6000803e3d6000fd5b5050506040513d601f19601f82011682018060405250810190612e4191906158e3565b6002612e6d8360001c8560000151612e5e876020015160006135d8565b61232b886040015160006135d8565b604051612e7a91906158c7565b602060405180830381855afa158015612e97573d6000803e3d6000fd5b5050506040513d601f19601f82011682018060405250810190612eba91906158e3565b1480612f855750600284604051612ed191906158c7565b602060405180830381855afa158015612eee573d6000803e3d6000fd5b5050506040513d601f19601f82011682018060405250810190612f1191906158e3565b8251600290612f36908490612f27906001615c51565b612e5e876020015160006135d8565b604051612f4391906158c7565b602060405180830381855afa158015612f60573d6000803e3d6000fd5b5050506040513d601f19601f82011682018060405250810190612f8391906158e3565b145b8061303f5750600284604051612f9b91906158c7565b602060405180830381855afa158015612fb8573d6000803e3d6000fd5b5050506040513d601f19601f82011682018060405250810190612fdb91906158e3565b8251600290612ff0908490612f279084615c51565b604051612ffd91906158c7565b602060405180830381855afa15801561301a573d6000803e3d6000fd5b5050506040513d601f19601f8201168201806040525081019061303d91906158e3565b145b806130fa575060028460405161305591906158c7565b602060405180830381855afa158015613072573d6000803e3d6000fd5b5050506040513d601f19601f8201168201806040525081019061309591906158e3565b82516002906130ab908490612f27906003615c51565b6040516130b891906158c7565b602060405180830381855afa1580156130d5573d6000803e3d6000fd5b5050506040513d601f19601f820116820180604052508101906130f891906158e3565b145b6131165760405162461bcd60e51b81526004016105d790615c76565b5060019695505050505050565b6000611d6d61314261313d8460048651611d5d9190615953565b613df7565b6000613ec4565b60006131536153d0565b61315b615335565b613163615335565b61316c85612b9e565b50506060015195945050505050565b60608161318981601f6154fe565b10156131c85760405162461bcd60e51b815260206004820152600e60248201526d736c6963655f6f766572666c6f7760901b60448201526064016105d7565b6131d282846154fe565b845110156132165760405162461bcd60e51b8152602060048201526011602482015270736c6963655f6f75744f66426f756e647360781b60448201526064016105d7565b606082158015613235576040519150600082526020820160405261327f565b6040519150601f8416801560200281840101858101878315602002848b0101015b8183101561326e578051835260209283019201613256565b5050858452601f01601f1916604052505b5090505b9392505050565b6132926153d0565b61329a615335565b6132a26153d0565b6132aa615335565b6132b2615462565b60048082526132c4908790600061399e565b80835260208301919091526132dc9087906000613a95565b845260408401526060830152608082015260005b60028110156133bc5780613350576133188783606001518381518110612c3c57612c3c615a8f565b604087015260608601526020850152608082015180518290811061333e5761333e615a8f565b602090810291909101015184526133aa565b80600114156133aa57613376612cec8884606001518481518110612cc157612cc1615a8f565b6001600160601b0319166020840152608082015180518290811061339c5761339c615a8f565b602090810291909101015183525b806133b481615cf1565b9150506132f0565b50919590945092505050565b6060806133d8836002602161317b565b6133e5846025602161317b565b91509150915091565b6060600360028360405161340291906158c7565b602060405180830381855afa15801561341f573d6000803e3d6000fd5b5050506040513d601f19601f8201168201806040525081019061344291906158e3565b60405160200161345491815260200190565b60408051601f198184030181529082905261346e916158c7565b602060405180830381855afa15801561348b573d6000803e3d6000fd5b5050604051805161298c925060601b90602001615c3c565b6134ab615491565b6134b3615491565b6000604051806080016040528060428152602001615efa60429139905083602a815181106134e3576134e3615a8f565b6020910101516001600160f81b031916604760f81b141561351b5761351161350c85602f613f21565b612977565b602083015261355a565b83602a8151811061352e5761352e615a8f565b6020910101516001600160f81b031916602360f91b141561355a5761355484602f613f93565b60208301525b61356861350c856051613f21565b604083015250601b815292915050565b600080613588856000602961317b565b846135a1876072808a5161359c9190615953565b61317b565b856040516020016135b59493929190615d0c565b60405160208183030381529060405290506135cf81614010565b95945050505050565b60006135e58260206154fe565b8351101561362d5760405162461bcd60e51b8152602060048201526015602482015274746f55696e743235365f6f75744f66426f756e647360581b60448201526064016105d7565b50016020015190565b60606000806136518761364a601b89615d63565b87876140cf565b6040805160208101939093528281019190915280518083038201815260609092019052979650505050505050565b60006fa2a8918ca85bafe22016d0b997e4df60600160ff1b038211156136f25760405162461bcd60e51b815260206004820152602260248201527f45434453413a20696e76616c6964207369676e6174757265202773272076616c604482015261756560f01b60648201526084016105d7565b8360ff16601b148061370757508360ff16601c145b61375e5760405162461bcd60e51b815260206004820152602260248201527f45434453413a20696e76616c6964207369676e6174757265202776272076616c604482015261756560f01b60648201526084016105d7565b6040805160008082526020820180845288905260ff871692820192909252606081018590526080810184905260019060a0016020604051602081039080840390855afa1580156137b2573d6000803e3d6000fd5b5050604051601f1901519150506001600160a01b0381166135cf5760405162461bcd60e51b815260206004820152601860248201527745434453413a20696e76616c6964207369676e617475726560401b60448201526064016105d7565b60006001600160ff1b03821660ff83901c601b016138308682878561367f565b9695505050505050565b600080600084848151811061385157613851615a8f565b016020015160f81c90506138666001856154fe565b935060fd8160ff1610156138815760ff1691508290506138f6565b8060ff1660fd14156138ae5761389985856010614300565b6138a48560026154fe565b92509250506138f6565b8060ff1660fe14156138d1576138c685856020614300565b6138a48560046154fe565b8060ff1660ff14156138f4576138e985856040614300565b6138a48560086154fe565b505b9250929050565b60408051602080825281830190925260009182919060208201818036833701905050905060005b60208110156139945783816020811061393f5761393f615a8f565b1a60f81b826001613951846020615953565b61395b9190615953565b8151811061396b5761396b615a8f565b60200101906001600160f81b031916908160001a9053508061398c81615cf1565b915050613924565b5061328381614662565b60606000806000806139b0888861383a565b975092508515806139c057508286115b156139cd578291506139d1565b8591505b6000826001600160401b038111156139eb576139eb615516565b604051908082528060200260200182016040528015613a14578160200160208202803683370190505b50905060005b83811015613a8857613a2d60248a6154fe565b9850613a398a8a61383a565b809a50819450505082828281518110613a5457613a54615a8f565b6020908102919091010152613a6a8360046154fe565b613a74908a6154fe565b985080613a8081615cf1565b915050613a1a565b5098969750505050505050565b6060806060600080600080613aaa8a8a61383a565b99509250871580613aba57508288115b15613ac757829150613acb565b8791505b6000826001600160401b03811115613ae557613ae5615516565b604051908082528060200260200182016040528015613b0e578160200160208202803683370190505b5090506000836001600160401b03811115613b2b57613b2b615516565b604051908082528060200260200182016040528015613b54578160200160208202803683370190505b5090506000846001600160401b03811115613b7157613b71615516565b604051908082528060200260200182016040528015613b9a578160200160208202803683370190505b50905060005b85811015613c4b57613bb48e8e6040614300565b828281518110613bc657613bc6615a8f565b6020908102919091010152613bdc60088e6154fe565b9c50613be88e8e61383a565b809e5081965050508c848281518110613c0357613c03615a8f565b60200260200101818152505084838281518110613c2257613c22615a8f565b6020908102919091010152613c37858e6154fe565b9c5080613c4381615cf1565b915050613ba0565b509c919b509998509650505050505050565b6000806000613c6d86868661467f565b15613caf57613c8686613c818760036154fe565b613f21565b613c9587613c818860286154fe565b613ca488613c8189604c6154fe565b925092509250613cb9565b5060009150819050805b93509350939050565b6000613ccf848484614a2c565b15613cf957613ce884613ce38560036154fe565b613d65565b6001600160601b0319169050613283565b613d04848484614b51565b15613d1857613ce884613ce38560026154fe565b613d23848484614c0c565b15613d3e57613d3784613c818560026154fe565b9050613283565b613d4984848461467f565b15613d5d57613d3784613c818560026154fe565b506000613283565b600080805b6014816001600160a01b03161015613dec57613d87816013615d86565b613d92906008615dae565b6001600160a01b03168585836001600160a01b0316613db191906154fe565b81518110613dc157613dc1615a8f565b0160200151613dd89160f89190911c901b83615ddd565b915080613de481615e08565b915050613d6a565b5060601b9392505050565b6060600082516001600160401b03811115613e1457613e14615516565b6040519080825280601f01601f191660200182016040528015613e3e576020820181803683370190505b50905060005b8351811015613ebd57838181518110613e5f57613e5f615a8f565b602001015160f81c60f81b826001838751613e7a9190615953565b613e849190615953565b81518110613e9457613e94615a8f565b60200101906001600160f81b031916908160001a90535080613eb581615cf1565b915050613e44565b5092915050565b6000613ed18260046154fe565b83511015613f185760405162461bcd60e51b8152602060048201526014602482015273746f55696e7433325f6f75744f66426f756e647360601b60448201526064016105d7565b50016004015190565b600080805b6020811015613f8b57613f3a81601f615953565b613f45906008615934565b85613f5086846154fe565b81518110613f6057613f60615a8f565b0160200151613f779160f89190911c901b836154fe565b915080613f8381615cf1565b915050613f26565b509392505050565b60606000805b601f811015613ffe57613fad81601e615953565b613fb8906008615934565b85613fc386846154fe565b81518110613fd357613fd3615a8f565b0160200151613fea9160f89190911c901b836154fe565b915080613ff681615cf1565b915050613f99565b50614008816129c0565b949350505050565b60006002808360405161402391906158c7565b602060405180830381855afa158015614040573d6000803e3d6000fd5b5050506040513d601f19601f8201168201806040525081019061406391906158e3565b60405160200161407591815260200190565b60408051601f198184030181529082905261408f916158c7565b602060405180830381855afa1580156140ac573d6000803e3d6000fd5b5050506040513d601f19601f82011682018060405250810190611d6d91906158e3565b600080806401000003d0196140f1607f600189901c166401000003d019615934565b860890506401000003d01981118061411a575070014551231950b75fc4402da1732fc9bebe1984115b80614136575070014551231950b75fc4402da1732fc9bebe1985115b8061413f575083155b80614148575084155b80614156575060018660ff16115b156141685760008092509250506142f7565b60006141868670014551231950b75fc4402da1732fc9bebe19614c8d565b905060006401000003d0198060076401000003d01960008709086401000003d0198086870986090890506141d68160046141c76401000003d01960016154fe565b6141d19190615912565b614d59565b905060006141e760ff8a16836154fe565b6141f29060026154fe565b6001161561420f5761420a826401000003d019615953565b614211565b815b90506000808061429470014551231950b75fc4402da1732fc9bebe196142498f70014551231950b75fc4402da1732fc9bebe19615953565b88097f79be667ef9dcbbac55a06295ce870b07029bfcdb2dce28d959f2815b16f817987f483ada7726a3c4655da4fbfc0e1108a8fd17b448a68554199c47d08ffb10d4b86001614e01565b92509250925060008060006142ce70014551231950b75fc4402da1732fc9bebe19806142c2576142c26158fc565b8e8b098b896001614e01565b9250925092506000806142e5888888888888614e78565b909e509c505050505050505050505050505b94509492505050565b6000816008141561432c5783838151811061431d5761431d615a8f565b016020015160f81c9050613283565b816010141561438d57836143418460016154fe565b8151811061435157614351615a8f565b01602001516143659060f81c610100615e2f565b61ffff1684848151811061437b5761437b615a8f565b0160200151613d37919060f81c6154fe565b816020141561447357836143a28460036154fe565b815181106143b2576143b2615a8f565b01602001516143c89060f81c6301000000615e50565b63ffffffff16846143da8560026154fe565b815181106143ea576143ea615a8f565b01602001516143ff9060f81c62010000615e50565b63ffffffff16856144118660016154fe565b8151811061442157614421615a8f565b01602001516144359060f81c610100615e50565b63ffffffff1686868151811061444d5761444d615a8f565b016020015161445f919060f81c6154fe565b61446991906154fe565b613d3791906154fe565b816040141561328357836144888460076154fe565b8151811061449857614498615a8f565b01602001516144ae9060f81c600160381b615e73565b6001600160401b0316846144c38560066154fe565b815181106144d3576144d3615a8f565b01602001516144e99060f81c600160301b615e73565b6001600160401b0316856144fe8660056154fe565b8151811061450e5761450e615a8f565b01602001516145249060f81c600160281b615e73565b6001600160401b0316866145398760046154fe565b8151811061454957614549615a8f565b016020015161455f9060f81c600160201b615e73565b6001600160401b0316876145748860036154fe565b8151811061458457614584615a8f565b016020015161459a9060f81c6301000000615e73565b6001600160401b0316886145af8960026154fe565b815181106145bf576145bf615a8f565b01602001516145d49060f81c62010000615e73565b6001600160401b0316896145e98a60016154fe565b815181106145f9576145f9615a8f565b016020015161460d9060f81c610100615e73565b6001600160401b03168a8a8151811061462857614628615a8f565b016020015161463a919060f81c6154fe565b61464491906154fe565b61464e91906154fe565b61465891906154fe565b61445f91906154fe565b805160009082906146765750600092915050565b50506020015190565b60008160721480156146bf5750836146988460006154fe565b815181106146a8576146a8615a8f565b6020910101516001600160f81b031916603b60f91b145b80156146f95750836146d28460016154fe565b815181106146e2576146e2615a8f565b6020910101516001600160f81b031916602160f81b145b801561473357508361470c8460236154fe565b8151811061471c5761471c615a8f565b6020910101516001600160f81b031916602b60fa1b145b801561476d5750836147468460246154fe565b8151811061475657614756615a8f565b6020910101516001600160f81b031916606360f81b145b80156147a75750836147808460256154fe565b8151811061479057614790615a8f565b6020910101516001600160f81b031916607560f81b145b80156147e15750836147ba8460266154fe565b815181106147ca576147ca615a8f565b6020910101516001600160f81b031916605560f91b145b801561481b5750836147f48460276154fe565b8151811061480457614804615a8f565b6020910101516001600160f81b031916600160fd1b145b801561485557508361482e8460486154fe565b8151811061483e5761483e615a8f565b6020910101516001600160f81b031916601160fb1b145b801561488f5750836148688460496154fe565b8151811061487857614878615a8f565b6020910101516001600160f81b031916606760f81b145b80156148c95750836148a284604a6154fe565b815181106148b2576148b2615a8f565b6020910101516001600160f81b031916602160f81b145b80156149035750836148dc84606c6154fe565b815181106148ec576148ec615a8f565b6020910101516001600160f81b03191660ad60f81b145b801561493d57508361491684606d6154fe565b8151811061492657614926615a8f565b6020910101516001600160f81b031916602960f91b145b801561497757508361495084606e6154fe565b8151811061496057614960615a8f565b6020910101516001600160f81b031916605960f91b145b80156149b157508361498a84606f6154fe565b8151811061499a5761499a615a8f565b6020910101516001600160f81b031916607560f81b145b80156149eb5750836149c48460706154fe565b815181106149d4576149d4615a8f565b6020910101516001600160f81b031916600d60fb1b145b80156140085750836149fe8460716154fe565b81518110614a0e57614a0e615a8f565b6020910101516001600160f81b031916605160f81b14949350505050565b6000816019148015614a625750838381518110614a4b57614a4b615a8f565b6020910101516001600160f81b031916603b60f91b145b8015614a9c575083614a758460016154fe565b81518110614a8557614a85615a8f565b6020910101516001600160f81b03191660a960f81b145b8015614ad6575083614aaf8460026154fe565b81518110614abf57614abf615a8f565b6020910101516001600160f81b031916600560fa1b145b8015614b10575083614ae98460176154fe565b81518110614af957614af9615a8f565b6020910101516001600160f81b031916601160fb1b145b8015614008575083614b238460186154fe565b81518110614b3357614b33615a8f565b6020910101516001600160f81b031916602b60fa1b14949350505050565b6000816017148015614b91575083614b6a8460006154fe565b81518110614b7a57614b7a615a8f565b6020910101516001600160f81b03191660a960f81b145b8015614bcb575083614ba48460016154fe565b81518110614bb457614bb4615a8f565b6020910101516001600160f81b031916600560fa1b145b8015614008575083614bde8460166154fe565b81518110614bee57614bee615a8f565b6020910101516001600160f81b031916608760f81b14949350505050565b6000816022148015614c4c575083614c258460006154fe565b81518110614c3557614c35615a8f565b6020910101516001600160f81b031916603560f91b145b8015614008575083614c5f8460016154fe565b81518110614c6f57614c6f615a8f565b6020910101516001600160f81b031916600160fd1b14949350505050565b60008215801590614c9e5750818314155b8015614ca957508115155b614ce65760405162461bcd60e51b815260206004820152600e60248201526d24b73b30b634b210373ab6b132b960911b60448201526064016105d7565b6000600183825b8615614d4e57614cfd8783615912565b9050828680614d0e57614d0e6158fc565b8780614d1c57614d1c6158fc565b858409614d299089615953565b8608909450925086614d3b8183615934565b614d459084615953565b97509150614ced565b509195945050505050565b600082614d6857506000611d6d565b81614d7557506001611d6d565b6001600160ff1b5b8015613f8b576401000003d0198185161515860a6401000003d0198485090991506401000003d0196002820485161515860a6401000003d0198485090991506401000003d0196004820485161515860a6401000003d0198485090991506401000003d0196008820485161515860a6401000003d01984850909915060109004614d7d565b6000808086614e1757508491508390508261225b565b8660008060015b8315614e67576001841615614e4357614e3b8383838d8d8d614ef0565b919450925090505b614e4e600285615912565b9350614e5b8a8a8a615185565b919b5099509750614e1e565b919a90995090975095505050505050565b6000806000806000878b1415614ebc576401000003d019878b08614ea55760008094509450505050614ee5565b614eb08b8b8b615185565b91945092509050614ed2565b614eca8b8b8b8b8b8b614ef0565b919450925090505b614edd838383615289565b945094505050505b965096945050505050565b6000808088158015614f00575087155b15614f12575084915083905082615179565b85158015614f1e575084155b15614f30575087915086905085615179565b614f386154b5565b6401000003d0198889098082526401000003d01990890960208201526401000003d019858009604082018190526401000003d0199086096060820152604080516080810182529082015181906401000003d019908d0981526020016401000003d01983600360200201518c0981526020016401000003d01983600060200201518a0981526020016401000003d01983600160200201518909905260408101518151919250141580614ff157506060810151602082015114155b61503d5760405162461bcd60e51b815260206004820152601e60248201527f557365206a6163446f75626c652066756e6374696f6e20696e7374656164000060448201526064016105d7565b6150456154b5565b81516401000003d019906150599082615953565b604084015108815260208201516401000003d019906150789082615953565b606084015108602082015280516401000003d0199080096040820181905281516401000003d0199109606082018190526000906401000003d019906150bd9082615953565b60208401516401000003d01990800908604083015184519192506401000003d0199182918291096002096150f7906401000003d019615953565b8208905060006401000003d01980615115846401000003d019615953565b604086015187516401000003d0199190090860208501510990506401000003d019808460036020020151866001602002015109615158906401000003d019615953565b8208905060006401000003d019808a8e098551099297509095509093505050505b96509650969350505050565b600080808361519b575084915083905082613cb9565b60006401000003d019878809905060006401000003d019878809905060006401000003d019878809905060006401000003d01980848c09600409905060006401000003d019806401000003d0198586096000096401000003d019876003090890506401000003d01980838408615217906401000003d019615953565b6401000003d0198384090894506401000003d019806401000003d019868709600809615249906401000003d019615953565b6401000003d01980615261896401000003d019615953565b860884090893506401000003d019808a8c09600209949b939a50939850919650505050505050565b600080600061529e846401000003d019614c8d565b905060006401000003d019828309905060006401000003d019828909905060006401000003d0198084860989099199919850909650505050505050565b60405180604001604052806002905b6152f26153d0565b8152602001906001900390816152ea5790505090565b60405180604001604052806002905b61531f615335565b8152602001906001900390816153175790505090565b604080518082019091526000808252602082015290565b82805461535890615a54565b90600052602060002090601f01602090048101928261537a57600085556153c0565b82601f1061539357805160ff19168380011785556153c0565b828001600101855582156153c0579182015b828111156153c05782518255916020019190600101906153a5565b506153cc9291506154d3565b5090565b60408051608081018252600080825260208201819052918101829052606081019190915290565b60405180604001604052806002905b61540e615491565b8152602001906001900390816154065790505090565b60405180604001604052806002906020820280368337509192915050565b604080516060810182526000808252602082018190529181019190915290565b6040518060a0016040528060008152602001606081526020016060815260200160608152602001606081525090565b6040518060600160405280600060ff16815260200160608152602001606081525090565b60405180608001604052806004906020820280368337509192915050565b5b808211156153cc57600081556001016154d4565b634e487b7160e01b600052601160045260246000fd5b60008219821115615511576155116154e8565b500190565b634e487b7160e01b600052604160045260246000fd5b60006001600160401b038084111561554657615546615516565b604051601f8501601f19908116603f0116810190828211818310171561556e5761556e615516565b8160405280935085815286868601111561558757600080fd5b858560208301376000602087830101525050509392505050565b6000602082840312156155b357600080fd5b81356001600160401b038111156155c957600080fd5b8201601f810184136155da57600080fd5b6140088482356020840161552c565b600082601f8301126155fa57600080fd5b6132838383356020850161552c565b6000806040838503121561561c57600080fd5b82356001600160401b038082111561563357600080fd5b61563f868387016155e9565b9350602085013591508082111561565557600080fd5b50615662858286016155e9565b9150509250929050565b80356001600160e01b03198116811461568457600080fd5b919050565b6000806000806000806000806000806101408b8d0312156156a957600080fd5b8a35995060208b01356001600160401b03808211156156c757600080fd5b6156d38e838f016155e9565b9a506156e160408e0161566c565b995060608d01359150808211156156f757600080fd5b6157038e838f016155e9565b985060808d013591508082111561571957600080fd5b6157258e838f016155e9565b975060a08d013591508082111561573b57600080fd5b6157478e838f016155e9565b965060c08d0135955060e08d013594506101008d013591508082111561576c57600080fd5b6157788e838f016155e9565b93506101208d013591508082111561578f57600080fd5b5061579c8d828e016155e9565b9150509295989b9194979a5092959850565b6000602082840312156157c057600080fd5b81356001600160401b038111156157d657600080fd5b614008848285016155e9565b60005b838110156157fd5781810151838201526020016157e5565b8381111561580c576000848401525b50505050565b6000815180845261582a8160208601602086016157e2565b601f01601f19169290920160200192915050565b60006101208b83528060208401526158588184018c615812565b6001600160e01b03198b1660408501528381036060850152905061587c818a615812565b905082810360808401526158908189615812565b905082810360a08401526158a48188615812565b60c0840196909652505060e0810192909252610100909101529695505050505050565b600082516158d98184602087016157e2565b9190910192915050565b6000602082840312156158f557600080fd5b5051919050565b634e487b7160e01b600052601260045260246000fd5b60008261592f57634e487b7160e01b600052601260045260246000fd5b500490565b600081600019048311821515161561594e5761594e6154e8565b500290565b600082821015615965576159656154e8565b500390565b60208082526016908201527504661696c656420746f2073656e6420457468657220560541b604082015260600190565b6020808252601690820152752330b4b632b2103a379039b2b7321022ba3432b9102b60511b604082015260600190565b60208082526025908201527f436f6d6d69746d656e74207472616e73616374696f6e206f662050206973206c6040820152641bd8dad95960da1b606082015260800190565b60208082526025908201527f436f6d6d69746d656e74207472616e73616374696f6e206f662056206973206c6040820152641bd8dad95960da1b606082015260800190565b600181811c90821680615a6857607f821691505b60208210811415615a8957634e487b7160e01b600052602260045260246000fd5b50919050565b634e487b7160e01b600052603260045260246000fd5b8054600090600181811c9080831680615abf57607f831692505b6020808410821415615ae157634e487b7160e01b600052602260045260246000fd5b818015615af55760018114615b0657615b33565b60ff19861689528489019650615b33565b60008881526020902060005b86811015615b2b5781548b820152908501908301615b12565b505084890196505b50505050505092915050565b60008951615b51818460208e016157e2565b615b5d8184018b615aa5565b90508851615b6f818360208d016157e2565b615b8d615b87615b818385018c615aa5565b8a615aa5565b88615aa5565b9150508451615ba08183602089016157e2565b8451910190615bb38183602088016157e2565b019a9950505050505050505050565b6020808252604190820152600080516020615eba8339815191526040820152600080516020615eda8339815191526060820152603760f91b608082015260a00190565b805160208201516001600160e01b03198082169291906004831015615c345780818460040360031b1b83161693505b505050919050565b6001600160601b031991909116815260140190565b600060ff821660ff84168060ff03821115615c6e57615c6e6154e8565b019392505050565b60208082526037908201527f496e76616c6964207369676e6174757265206f662056206f76657220636f6d6d604082015276069746d656e74207472616e73616374696f6e206f66205604c1b606082015260800190565b80516020808301519190811015615a895760001960209190910360031b1b16919050565b6000600019821415615d0557615d056154e8565b5060010190565b60008551615d1e818460208a016157e2565b855190830190615d32818360208a016157e2565b8551910190615d458183602089016157e2565b8451910190615d588183602088016157e2565b019695505050505050565b600060ff821660ff841680821015615d7d57615d7d6154e8565b90039392505050565b60006001600160a01b0383811690831681811015615da657615da66154e8565b039392505050565b60006001600160a01b0382811684821681151582840482111615615dd457615dd46154e8565b02949350505050565b60006001600160a01b03828116848216808303821115615dff57615dff6154e8565b01949350505050565b60006001600160a01b0382811680821415615e2557615e256154e8565b6001019392505050565b600061ffff80831681851681830481118215151615615dd457615dd46154e8565b600063ffffffff80831681851681830481118215151615615dd457615dd46154e8565b60006001600160401b0382811684821681151582840482111615615dd457615dd46154e856fe6d656e74207472616e73616374696f6e20646f6573206e6f7420636f7272657350277320636f6d6d69746d656e74207472616e73616374696f6e20646f6573206e6f74207370656e64207468652066756e64696e67207472616e73616374696f307866666666666666666666666666666666666666666666666666666666666666656261616564636536616634386130336262666432356538636430333634313431416d6f756e74206d69736d61746368206265747765656e207032706b68206f667cb76fce4caeb1fe1b0dd56de53b408af770b76cf5e9c88a1e2568a7d1e9889fa26469706673582212209d1a2e1c1cb27926be64df001faa8f3d5ee403bbb09ed2682ed1806ebee87ac564736f6c63430008090033",
  "linkReferences": {},
  "deployedLinkReferences": {}
}