{
  "_format": "hh-sol-artifact-1",
  "contractName": "LNBridge",
  "sourceName": "contracts/LNBridge.sol",
  "abi": [
    {
      "inputs": [
        {
          "internalType": "address",
          "name": "_prover",
          "type": "address"
        },
        {
          "internalType": "address",
          "name": "_verifier",
          "type": "address"
        }
      ],
      "stateMutability": "nonpayable",
      "type": "constructor"
    },
    {
      "anonymous": false,
      "inputs": [
        {
          "indexed": false,
          "internalType": "string",
          "name": "label",
          "type": "string"
        },
        {
          "indexed": false,
          "internalType": "address",
          "name": "addr",
          "type": "address"
        },
        {
          "indexed": false,
          "internalType": "uint256",
          "name": "amount",
          "type": "uint256"
        }
      ],
      "name": "lockCoinsEvent",
      "type": "event"
    },
    {
      "anonymous": false,
      "inputs": [
        {
          "indexed": false,
          "internalType": "string",
          "name": "label",
          "type": "string"
        },
        {
          "indexed": false,
          "internalType": "bool",
          "name": "stateStatus",
          "type": "bool"
        }
      ],
      "name": "stateEvent",
      "type": "event"
    },
    {
      "inputs": [],
      "name": "bridge",
      "outputs": [
        {
          "internalType": "bytes32",
          "name": "fundingTxId",
          "type": "bytes32"
        },
        {
          "internalType": "bytes",
          "name": "fundingTx_script",
          "type": "bytes"
        },
        {
          "internalType": "bytes4",
          "name": "fundingTx_index",
          "type": "bytes4"
        },
        {
          "internalType": "bytes",
          "name": "sighash",
          "type": "bytes"
        },
        {
          "internalType": "bytes",
          "name": "pkProver_Uncompressed",
          "type": "bytes"
        },
        {
          "internalType": "bytes",
          "name": "pkVerifier_Uncompressed",
          "type": "bytes"
        },
        {
          "internalType": "uint256",
          "name": "timelock",
          "type": "uint256"
        },
        {
          "internalType": "uint256",
          "name": "timelock_dispute",
          "type": "uint256"
        }
      ],
      "stateMutability": "view",
      "type": "function"
    },
    {
      "inputs": [],
      "name": "contractStoragePC",
      "outputs": [
        {
          "internalType": "uint256",
          "name": "balP",
          "type": "uint256"
        },
        {
          "internalType": "uint256",
          "name": "balV",
          "type": "uint256"
        },
        {
          "internalType": "bytes32",
          "name": "revKey",
          "type": "bytes32"
        }
      ],
      "stateMutability": "view",
      "type": "function"
    },
    {
      "inputs": [
        {
          "internalType": "bytes",
          "name": "CT_P_locked",
          "type": "bytes"
        },
        {
          "internalType": "bytes",
          "name": "CT_V_unlocked",
          "type": "bytes"
        }
      ],
      "name": "dispute",
      "outputs": [],
      "stateMutability": "nonpayable",
      "type": "function"
    },
    {
      "inputs": [],
      "name": "initBal",
      "outputs": [
        {
          "internalType": "uint256",
          "name": "balP",
          "type": "uint256"
        },
        {
          "internalType": "uint256",
          "name": "balV",
          "type": "uint256"
        }
      ],
      "stateMutability": "view",
      "type": "function"
    },
    {
      "inputs": [
        {
          "internalType": "string",
          "name": "revSecret",
          "type": "string"
        }
      ],
      "name": "resolveInvalidDispute",
      "outputs": [],
      "stateMutability": "nonpayable",
      "type": "function"
    },
    {
      "inputs": [
        {
          "internalType": "bytes",
          "name": "CT_P_unlocked",
          "type": "bytes"
        }
      ],
      "name": "resolveValidDispute",
      "outputs": [],
      "stateMutability": "nonpayable",
      "type": "function"
    },
    {
      "inputs": [],
      "name": "settle",
      "outputs": [],
      "stateMutability": "payable",
      "type": "function"
    },
    {
      "inputs": [
        {
          "internalType": "bytes32",
          "name": "_fundingTxId",
          "type": "bytes32"
        },
        {
          "internalType": "bytes",
          "name": "_fundingTx_script",
          "type": "bytes"
        },
        {
          "internalType": "bytes4",
          "name": "_fundingTx_index",
          "type": "bytes4"
        },
        {
          "internalType": "bytes",
          "name": "_sighash",
          "type": "bytes"
        },
        {
          "internalType": "bytes",
          "name": "_pkProver_Uncompressed",
          "type": "bytes"
        },
        {
          "internalType": "bytes",
          "name": "_pkVerifier_Uncompressed",
          "type": "bytes"
        },
        {
          "internalType": "uint256",
          "name": "_timelock",
          "type": "uint256"
        },
        {
          "internalType": "uint256",
          "name": "_timelock_dispute",
          "type": "uint256"
        },
        {
          "internalType": "bytes",
          "name": "sigP",
          "type": "bytes"
        },
        {
          "internalType": "bytes",
          "name": "sigV",
          "type": "bytes"
        }
      ],
      "name": "setup",
      "outputs": [],
      "stateMutability": "nonpayable",
      "type": "function"
    },
    {
      "inputs": [],
      "name": "state",
      "outputs": [
        {
          "internalType": "bool",
          "name": "coinsLocked",
          "type": "bool"
        },
        {
          "internalType": "bool",
          "name": "setupDone",
          "type": "bool"
        },
        {
          "internalType": "bool",
          "name": "validProofSubmitted",
          "type": "bool"
        },
        {
          "internalType": "bool",
          "name": "disputeOpened",
          "type": "bool"
        },
        {
          "internalType": "bool",
          "name": "disputeClosedP",
          "type": "bool"
        },
        {
          "internalType": "bool",
          "name": "disputeClosedV",
          "type": "bool"
        }
      ],
      "stateMutability": "view",
      "type": "function"
    },
    {
      "inputs": [
        {
          "internalType": "bytes",
          "name": "CT_P_unlocked",
          "type": "bytes"
        },
        {
          "internalType": "bytes",
          "name": "CT_V_unlocked",
          "type": "bytes"
        }
      ],
      "name": "submitProof",
      "outputs": [],
      "stateMutability": "nonpayable",
      "type": "function"
    },
    {
      "stateMutability": "payable",
      "type": "receive"
    }
  ],
  "bytecode": "0x60806040523480156200001157600080fd5b5060405162005ce338038062005ce3833981016040819052620000349162000083565b601080546001600160a01b039384166001600160a01b03199182161790915560118054929093169116179055620000bb565b80516001600160a01b03811681146200007e57600080fd5b919050565b600080604083850312156200009757600080fd5b620000a28362000066565b9150620000b26020840162000066565b90509250929050565b615c1880620000cb6000396000f3fe6080604052600436106100855760003560e01c80630cb823691461012857806311da60b41461014a5780633aef14771461015257806361f284ea146101725780636f6d7a04146101925780637236d92f146101d157806376155391146101f1578063abdf2f9d14610211578063c19d93fb14610241578063e78cea92146102c457600080fd5b3661012357336000818152600e6020526040908190203490819055600c8190556008805460ff1916600117905590517f47efeefce1cd829d195534850e795557a9bb3ca6914ef9fb9729108277b42143926101199290916060808252600d908201526c436f696e73206c6f636b65642160981b60808201526001600160a01b03929092166020830152604082015260a00190565b60405180910390a1005b600080fd5b34801561013457600080fd5b5061014861014336600461525e565b6102ed565b005b610148610566565b34801561015e57600080fd5b5061014861016d3660046152c6565b610950565b34801561017e57600080fd5b5061014861018d366004615346565b610e1e565b34801561019e57600080fd5b50600954600a54600b546101b192919083565b604080519384526020840192909252908201526060015b60405180910390f35b3480156101dd57600080fd5b506101486101ec36600461546b565b6110d4565b3480156101fd57600080fd5b5061014861020c3660046152c6565b61145b565b34801561021d57600080fd5b50600c54600d5461022c919082565b604080519283526020830191909152016101c8565b34801561024d57600080fd5b5060085461028b9060ff80821691610100810482169162010000820481169163010000008104821691600160201b8204811691600160281b90041686565b604080519615158752941515602087015292151593850193909352151560608401529015156080830152151560a082015260c0016101c8565b3480156102d057600080fd5b506102d96117b1565b6040516101c89897969594939291906154f7565b6007546006546102fd919061558b565b42108015610359575060085460ff161515600114801561032a575060085460ff6101009091041615156001145b801561033f575060085462010000900460ff16155b801561035957506008546301000000900460ff1615156001145b801561042257506002808260405161037191906155a3565b602060405180830381855afa15801561038e573d6000803e3d6000fd5b5050506040513d601f19601f820116820180604052508101906103b191906155bf565b6040516020016103c391815260200190565b60408051601f19818403018152908290526103dd916155a3565b602060405180830381855afa1580156103fa573d6000803e3d6000fd5b5050506040513d601f19601f8201168201806040525081019061041d91906155bf565b600b54145b156104de576008805460ff60281b1916600160281b90811791829055604051600080516020615bc3833981519152926104d392900460ff16906040808252604a908201527f5265736f6c766520496e76616c6964204469737075746520737563636573736660608201527f756c6c792065786563757465643a2073746174652e64697370757465436c6f73608082015269656456203d207472756560b01b60a0820152901515602082015260c00190565b60405180910390a150565b60085460408051818152603c918101919091527f5265736f6c766520496e76616c69642044697370757465206661696c65643a2060608201527b73746174652e64697370757465436c6f73656456203d2066616c736560201b6080820152600160281b90910460ff1615156020820152600080516020615bc38339815191529060a0016104d3565b60085462010000900460ff161515600114806105a957506008546301000000900460ff16151560011480156105a95750600854600160201b900460ff1615156001145b1561071157601054600f546001600160a01b039091166000818152600e602052604081205490928392916064916105df916155d8565b6105e9919061560d565b604051600081818185875af1925050503d8060008114610625576040519150601f19603f3d011682016040523d82523d6000602084013e61062a565b606091505b5091509150816106555760405162461bcd60e51b815260040161064c9061562f565b60405180910390fd5b601154600f5460009182916001600160a01b03909116906106789060649061560d565b61068390600161565d565b6011546001600160a01b03166000908152600e60205260409020546106a891906155d8565b604051600081818185875af1925050503d80600081146106e4576040519150601f19603f3d011682016040523d82523d6000602084013e6106e9565b606091505b50915091508161070b5760405162461bcd60e51b815260040161064c9061562f565b50505050565b6008546301000000900460ff161515600114801561074e5750600854600160201b900460ff1615801561074e5750600854600160281b900460ff16155b156107f6576010546011546001600160a01b039081166000908152600e602052604080822054929093168082529281205490928392909161078f919061558b565b604051600081818185875af1925050503d80600081146107cb576040519150601f19603f3d011682016040523d82523d6000602084013e6107d0565b606091505b5091509150816107f25760405162461bcd60e51b815260040161064c9061562f565b5050565b6008546301000000900460ff16151560011480156108225750600854600160281b900460ff1615156001145b1561085f576011546001600160a01b039081166000818152600e6020526040808220546010549094168252812054909283929161078f919061558b565b60085460ff161515600114801561087e5750600854610100900460ff16155b1561094e57601054600c5460405160009283926001600160a01b03909116918381818185875af1925050503d80600081146108d5576040519150601f19603f3d011682016040523d82523d6000602084013e6108da565b606091505b5091509150816108fc5760405162461bcd60e51b815260040161064c9061562f565b601154600d5460405160009283926001600160a01b03909116918381818185875af1925050503d80600081146106e4576040519150601f19603f3d011682016040523d82523d6000602084013e6106e9565b565b600654421080156109ab575060085460ff1615156001148015610980575060085460ff6101009091041615156001145b8015610995575060085462010000900460ff16155b80156109ab57506008546301000000900460ff16155b15610d985760006109bb83611a11565b6001600160e01b031916146109e25760405162461bcd60e51b815260040161064c90615674565b60006109ed82611a11565b6001600160e01b03191614610a145760405162461bcd60e51b815260040161064c906156b9565b610ab1828260006001018054610a29906156fe565b80601f0160208091040260200160405190810160405280929190818152602001828054610a55906156fe565b8015610aa25780601f10610a7757610100808354040283529160200191610aa2565b820191906000526020600020905b815481529060010190602001808311610a8557829003601f168201915b50505050506000800154611a3b565b50610cf4828260006001018054610ac7906156fe565b80601f0160208091040260200160405190810160405280929190818152602001828054610af3906156fe565b8015610b405780601f10610b1557610100808354040283529160200191610b40565b820191906000526020600020905b815481529060010190602001808311610b2357829003601f168201915b505050505060006003018054610b55906156fe565b80601f0160208091040260200160405190810160405280929190818152602001828054610b81906156fe565b8015610bce5780601f10610ba357610100808354040283529160200191610bce565b820191906000526020600020905b815481529060010190602001808311610bb157829003601f168201915b505050505060006004018054610be3906156fe565b80601f0160208091040260200160405190810160405280929190818152602001828054610c0f906156fe565b8015610c5c5780601f10610c3157610100808354040283529160200191610c5c565b820191906000526020600020905b815481529060010190602001808311610c3f57829003601f168201915b505050505060006005018054610c71906156fe565b80601f0160208091040260200160405190810160405280929190818152602001828054610c9d906156fe565b8015610cea5780601f10610cbf57610100808354040283529160200191610cea565b820191906000526020600020905b815481529060010190602001808311610ccd57829003601f168201915b5050505050611f4e565b506008805462ff000019166201000090811791829055604051600080516020615bc383398151915292610d8c92900460ff16906040808252603d908201527f50726f6f66207375636365737366756c6c792076657269666965643a2073746160608201527f74652e76616c696450726f6f665375626d6974746564203d20747275650000006080820152901515602082015260a00190565b60405180910390a15050565b60085460408051818152603b918101919091527f50726f6f66207375626d697474656420746f6f206c6174653a2073746174652e60608201527a76616c696450726f6f665375626d6974746564203d2066616c736560281b60808201526201000090910460ff1615156020820152600080516020615bc38339815191529060a001610d8c565b60008a90558851610e369060019060208c0190614fc6565b506002805463ffffffff191660e08a901c1790558651610e5d9060039060208a0190614fc6565b508551610e71906004906020890190614fc6565b508451610e85906005906020880190614fc6565b506006849055600783905560008054610e9d90612660565b600254600190610eaf9060e01b61268b565b600654600390600490600590610ec4906126a9565b600754610ed0906126a9565b604051602001610ee79897969594939291906157d3565b6040516020818303038152906040529050610f70600282604051610f0b91906155a3565b602060405180830381855afa158015610f28573d6000803e3d6000fd5b5050506040513d601f19601f82011682018060405250810190610f4b91906155bf565b84604051602001610f5c91906155a3565b604051602081830303815290604052612717565b6010546001600160a01b03908116911614610fe05760405162461bcd60e51b815260206004820152602a60248201527f496e76616c6964207369676e6174757265206f662050206f76657220746865206044820152697365747570206461746160b01b606482015260840161064c565b611044600282604051610ff391906155a3565b602060405180830381855afa158015611010573d6000803e3d6000fd5b5050506040513d601f19601f8201168201806040525081019061103391906155bf565b83604051602001610f5c91906155a3565b6011546001600160a01b039081169116146110b45760405162461bcd60e51b815260206004820152602a60248201527f496e76616c6964207369676e6174757265206f662056206f76657220746865206044820152697365747570206461746160b01b606482015260840161064c565b50506008805465ffffffffff001916610100179055505050505050505050565b6007546006546110e4919061558b565b42108015611140575060085460ff1615156001148015611111575060085460ff6101009091041615156001145b8015611126575060085462010000900460ff16155b801561114057506008546301000000900460ff1615156001145b156113d557600061115082611a11565b6001600160e01b031916146111775760405162461bcd60e51b815260040161064c90615674565b61132a816000600101805461118b906156fe565b80601f01602080910402602001604051908101604052809291908181526020018280546111b7906156fe565b80156112045780601f106111d957610100808354040283529160200191611204565b820191906000526020600020905b8154815290600101906020018083116111e757829003601f168201915b505050505060006003018054611219906156fe565b80601f0160208091040260200160405190810160405280929190818152602001828054611245906156fe565b80156112925780601f1061126757610100808354040283529160200191611292565b820191906000526020600020905b81548152906001019060200180831161127557829003601f168201915b5050505050600060050180546112a7906156fe565b80601f01602080910402602001604051908101604052809291908181526020018280546112d3906156fe565b80156113205780601f106112f557610100808354040283529160200191611320565b820191906000526020600020905b81548152906001019060200180831161130357829003601f168201915b50505050506127d2565b506008805460ff60201b1916600160201b90811791829055604051600080516020615bc3833981519152926104d392900460ff169060408082526048908201527f5265736f6c76652056616c69642044697370757465207375636365737366756c60608201527f6c792065786563757465643a2073746174652e64697370757465436c6f73656460808201526750203d207472756560c01b60a0820152901515602082015260c00190565b60085460408051818152603a918101919091527f5265736f6c76652056616c69642044697370757465206661696c65643a2073746060820152796174652e64697370757465436c6f73656450203d2066616c736560301b6080820152600160201b90910460ff1615156020820152600080516020615bc38339815191529060a0016104d3565b600654421080156114b6575060085460ff161515600114801561148b575060085460ff6101009091041615156001145b80156114a0575060085462010000900460ff16155b80156114b657506008546301000000900460ff16155b15611736576007546006546114cb919061558b565b6114d483612b21565b63ffffffff16116115a85760405162461bcd60e51b815260206004820152608660248201527f436f6d6d69746d656e74207472616e73616374696f6e206f662050206973207560448201527f6e6c6f636b6564206f722074696d656c6f636b206f66207468652074696d656c60648201527f6f636b656420547820697320736d616c6c6572206f7220657175616c2074686160848201527f6e2054696d656c6f636b2054202b2052656c61746976652054696d656c6f636b60a482015265081517dc995b60d21b60c482015260e40161064c565b60006115b382612b21565b63ffffffff16146115d65760405162461bcd60e51b815260040161064c906156b9565b6115eb828260006001018054610a29906156fe565b151560011461163c5760405162461bcd60e51b815260206004820181905260248201527f5472616e73616374696f6e7320617265206e6f742077656c6c20666f726d6564604482015260640161064c565b611651828260006001018054610ac7906156fe565b15156001146116975760405162461bcd60e51b8152602060048201526012602482015271496e76616c6964207369676e61747572657360701b604482015260640161064c565b6116a082612b47565b600b556008805463ff0000001916630100000090811791829055604051600080516020615bc383398151915292610d8c92900460ff169060408082526037908201527f44697370757465207375636365737366756c6c79206f70656e65643a2073746160608201527674652e646973707574654f70656e6564203d207472756560481b6080820152901515602082015260a00190565b60085460408051818152602f918101919091527f44697370757465206e6f74206f70656e65643a2073746174652e64697370757460608201526e654f70656e6564203d2066616c736560881b6080820152630100000090910460ff1615156020820152600080516020615bc38339815191529060a001610d8c565b60008054600180549192916117c5906156fe565b80601f01602080910402602001604051908101604052809291908181526020018280546117f1906156fe565b801561183e5780601f106118135761010080835404028352916020019161183e565b820191906000526020600020905b81548152906001019060200180831161182157829003601f168201915b5050505050908060020160009054906101000a900460e01b90806003018054611866906156fe565b80601f0160208091040260200160405190810160405280929190818152602001828054611892906156fe565b80156118df5780601f106118b4576101008083540402835291602001916118df565b820191906000526020600020905b8154815290600101906020018083116118c257829003601f168201915b5050505050908060040180546118f4906156fe565b80601f0160208091040260200160405190810160405280929190818152602001828054611920906156fe565b801561196d5780601f106119425761010080835404028352916020019161196d565b820191906000526020600020905b81548152906001019060200180831161195057829003601f168201915b505050505090806005018054611982906156fe565b80601f01602080910402602001604051908101604052809291908181526020018280546119ae906156fe565b80156119fb5780601f106119d0576101008083540402835291602001916119fb565b820191906000526020600020905b8154815290600101906020018083116119de57829003601f168201915b5050505050908060060154908060070154905088565b6000611a2c8260048451611a25919061565d565b6004612b79565b611a3590615856565b92915050565b6000611a4561504a565b611a4d615077565b611a556150a4565b611a5e88612c88565b9084529084529050611a6f87612ebe565b6020848101919091528085018290526060909101519082015114611ae95760405162461bcd60e51b815260206004820152603f6024820152600080516020615b2183398151915260448201527f6e6f742068617264636f646520562773207265766f636174696f6e206b657900606482015260840161064c565b60208301515182515114611b505760405162461bcd60e51b815260206004820152603a6024820152600080516020615ba383398151915260448201527910281030b732103634b3b43a3734b73390242a26219037b3102b60311b606482015260840161064c565b60208201515183515114611bb75760405162461bcd60e51b815260206004820152603a6024820152600080516020615ba38339815191526044820152790205620616e64206c696768746e696e672048544c43206f6620560341b606482015260840161064c565b600080611bc388612ffc565b8551602090810151604051939550919350600292611be29291016158a3565b60408051601f1981840301815290829052611bfc916155a3565b602060405180830381855afa158015611c19573d6000803e3d6000fd5b5050506040513d601f19601f82011682018060405250810190611c3c91906155bf565b6002611c4783613022565b604051611c5491906155a3565b602060405180830381855afa158015611c71573d6000803e3d6000fd5b5050506040513d601f19601f82011682018060405250810190611c9491906155bf565b14611d145760405162461bcd60e51b815260206004820152605660248201527f546865207032706b6820696e2050277320756e6c6f636b656420636f6d6d69746044820152600080516020615b01833981519152606482015275706f6e6420746f2056657269666965722773206f6e6560501b608482015260a40161064c565b602080850151810151604051600292611d2e9291016158a3565b60408051601f1981840301815290829052611d48916155a3565b602060405180830381855afa158015611d65573d6000803e3d6000fd5b5050506040513d601f19601f82011682018060405250810190611d8891906155bf565b6002611d9384613022565b604051611da091906155a3565b602060405180830381855afa158015611dbd573d6000803e3d6000fd5b5050506040513d601f19601f82011682018060405250810190611de091906155bf565b14611e5e5760405162461bcd60e51b815260206004820152605460248201527f546865207032706b6820696e2056277320756e6c6f636b656420636f6d6d69746044820152600080516020615b01833981519152606482015273706f6e6420746f2050726f7665722773206f6e6560601b608482015260a40161064c565b86611e688b6130d7565b6020015114611ec55760405162461bcd60e51b81526020600482015260416024820152600080516020615b218339815191526044820152600080516020615b418339815191526064820152603760f91b608482015260a40161064c565b86611ecf8a6130d7565b6020015114611f3e5760405162461bcd60e51b815260206004820152604160248201527f56277320636f6d6d69746d656e74207472616e73616374696f6e20646f6573206044820152600080516020615b418339815191526064820152603760f91b608482015260a40161064c565b5060019998505050505050505050565b6000611f586150bb565b611f618861318c565b6020820152611f6f8761318c565b8152611f796150e8565b611f84898888613261565b8152604051600290611f979086906155a3565b602060405180830381855afa158015611fb4573d6000803e3d6000fd5b5050506040513d601f19601f82011682018060405250810190611fd791906155bf565b815160208401515160029161201991611ffd8760015b60200201516020015160006132c1565b6120148860015b60200201516040015160006132c1565b61331f565b60405161202691906155a3565b602060405180830381855afa158015612043573d6000803e3d6000fd5b5050506040513d601f19601f8201168201806040525081019061206691906155bf565b1480612131575060028460405161207d91906155a3565b602060405180830381855afa15801561209a573d6000803e3d6000fd5b5050506040513d601f19601f820116820180604052508101906120bd91906155bf565b81516020840151516002916120e2916120d79060016158b8565b611ffd876001611fed565b6040516120ef91906155a3565b602060405180830381855afa15801561210c573d6000803e3d6000fd5b5050506040513d601f19601f8201168201806040525081019061212f91906155bf565b145b806121ef575060028460405161214791906155a3565b602060405180830381855afa158015612164573d6000803e3d6000fd5b5050506040513d601f19601f8201168201806040525081019061218791906155bf565b81516020840151516002916121a0916120d790846158b8565b6040516121ad91906155a3565b602060405180830381855afa1580156121ca573d6000803e3d6000fd5b5050506040513d601f19601f820116820180604052508101906121ed91906155bf565b145b806122ae575060028460405161220591906155a3565b602060405180830381855afa158015612222573d6000803e3d6000fd5b5050506040513d601f19601f8201168201806040525081019061224591906155bf565b815160208401515160029161225f916120d79060036158b8565b60405161226c91906155a3565b602060405180830381855afa158015612289573d6000803e3d6000fd5b5050506040513d601f19601f820116820180604052508101906122ac91906155bf565b145b6122ca5760405162461bcd60e51b815260040161064c906158dd565b6122d5888888613261565b60208201526040516002906122eb9087906155a3565b602060405180830381855afa158015612308573d6000803e3d6000fd5b5050506040513d601f19601f8201168201806040525081019061232b91906155bf565b602082015183515160029161235091612345876000611fed565b612014886000612004565b60405161235d91906155a3565b602060405180830381855afa15801561237a573d6000803e3d6000fd5b5050506040513d601f19601f8201168201806040525081019061239d91906155bf565b148061246857506002856040516123b491906155a3565b602060405180830381855afa1580156123d1573d6000803e3d6000fd5b5050506040513d601f19601f820116820180604052508101906123f491906155bf565b60208201518351516002916124199161240e9060016158b8565b612345876000611fed565b60405161242691906155a3565b602060405180830381855afa158015612443573d6000803e3d6000fd5b5050506040513d601f19601f8201168201806040525081019061246691906155bf565b145b80612526575060028560405161247e91906155a3565b602060405180830381855afa15801561249b573d6000803e3d6000fd5b5050506040513d601f19601f820116820180604052508101906124be91906155bf565b60208201518351516002916124d79161240e90846158b8565b6040516124e491906155a3565b602060405180830381855afa158015612501573d6000803e3d6000fd5b5050506040513d601f19601f8201168201806040525081019061252491906155bf565b145b806125e5575060028560405161253c91906155a3565b602060405180830381855afa158015612559573d6000803e3d6000fd5b5050506040513d601f19601f8201168201806040525081019061257c91906155bf565b60208201518351516002916125969161240e9060036158b8565b6040516125a391906155a3565b602060405180830381855afa1580156125c0573d6000803e3d6000fd5b5050506040513d601f19601f820116820180604052508101906125e391906155bf565b145b6126515760405162461bcd60e51b815260206004820152603760248201527f496e76616c6964207369676e6174757265206f662050206f76657220636f6d6d60448201527634ba36b2b73a103a3930b739b0b1ba34b7b71037b3102b60491b606482015260840161064c565b50600198975050505050505050565b60608160405160200161267591815260200190565b6040516020818303038152906040529050919050565b6040516001600160e01b031982166020820152606090602401612675565b60606001600160ff1b038211156126fc5760405162461bcd60e51b815260206004820152601760248201527656616c75652065786365656473207468652072616e676560481b604482015260640161064c565b60405190506020815281602082015260408101604052919050565b60008151604114156127625760208201516040830151606084015160001a601b81101561274c57612749601b826158b8565b90505b61275886828585613368565b9350505050611a35565b81516040141561278a57602082015160408301516127818583836134f9565b92505050611a35565b60405162461bcd60e51b815260206004820152601f60248201527f45434453413a20696e76616c6964207369676e6174757265206c656e67746800604482015260640161064c565b6000806127de8661318c565b905060006127ed878787613261565b90506002846040516127ff91906155a3565b602060405180830381855afa15801561281c573d6000803e3d6000fd5b5050506040513d601f19601f8201168201806040525081019061283f91906155bf565b600261286b8360001c856000015161285c876020015160006132c1565b612014886040015160006132c1565b60405161287891906155a3565b602060405180830381855afa158015612895573d6000803e3d6000fd5b5050506040513d601f19601f820116820180604052508101906128b891906155bf565b148061298357506002846040516128cf91906155a3565b602060405180830381855afa1580156128ec573d6000803e3d6000fd5b5050506040513d601f19601f8201168201806040525081019061290f91906155bf565b82516002906129349084906129259060016158b8565b61285c876020015160006132c1565b60405161294191906155a3565b602060405180830381855afa15801561295e573d6000803e3d6000fd5b5050506040513d601f19601f8201168201806040525081019061298191906155bf565b145b80612a3d575060028460405161299991906155a3565b602060405180830381855afa1580156129b6573d6000803e3d6000fd5b5050506040513d601f19601f820116820180604052508101906129d991906155bf565b82516002906129ee90849061292590846158b8565b6040516129fb91906155a3565b602060405180830381855afa158015612a18573d6000803e3d6000fd5b5050506040513d601f19601f82011682018060405250810190612a3b91906155bf565b145b80612af85750600284604051612a5391906155a3565b602060405180830381855afa158015612a70573d6000803e3d6000fd5b5050506040513d601f19601f82011682018060405250810190612a9391906155bf565b8251600290612aa99084906129259060036158b8565b604051612ab691906155a3565b602060405180830381855afa158015612ad3573d6000803e3d6000fd5b5050506040513d601f19601f82011682018060405250810190612af691906155bf565b145b612b145760405162461bcd60e51b815260040161064c906158dd565b5060019695505050505050565b6000611a35612b40612b3b8460048651611a25919061565d565b613523565b60006135f0565b6000612b51615106565b612b596150a4565b612b616150a4565b612b6a85612c88565b50506060015195945050505050565b606081612b8781601f61558b565b1015612bc65760405162461bcd60e51b815260206004820152600e60248201526d736c6963655f6f766572666c6f7760901b604482015260640161064c565b612bd0828461558b565b84511015612c145760405162461bcd60e51b8152602060048201526011602482015270736c6963655f6f75744f66426f756e647360781b604482015260640161064c565b606082158015612c335760405191506000825260208201604052612c7d565b6040519150601f8416801560200281840101858101878315602002848b0101015b81831015612c6c578051835260209283019201612c54565b5050858452601f01601f1916604052505b5090505b9392505050565b612c90615106565b612c986150a4565b612ca06150a4565b612ca8615106565b612cb06150a4565b612cb86150a4565b612cc061512d565b6004808252612cd2908990600061364d565b8083526020830191909152612cea9089906000613744565b845260408401526060830152608082015260005b6003811015612eaf5780612d8557612d518983606001518381518110612d2657612d2661588d565b602002602001015184604001518481518110612d4457612d4461588d565b602002602001015161390c565b6040880152606087015260208601526080820151805182908110612d7757612d7761588d565b602090810291909101015185525b8060011415612e3257612dfe612dd68a84606001518481518110612dab57612dab61588d565b602002602001015185604001518581518110612dc957612dc961588d565b6020026020010151613971565b604051602001612de891815260200190565b6040516020818303038152906040526000613a14565b6001600160601b03191660208401526080820151805182908110612e2457612e2461588d565b602090810291909101015183525b8060021415612e9d57612e738983606001518381518110612e5557612e5561588d565b602002602001015184604001518481518110612dc957612dc961588d565b60208501526080820151805182908110612e8f57612e8f61588d565b602090810291909101015184525b80612ea781615934565b915050612cfe565b50929790965090945092505050565b612ec6615106565b612ece6150a4565b612ed6615106565b612ede6150a4565b612ee661512d565b6004808252612ef8908790600061364d565b8083526020830191909152612f109087906000613744565b845260408401526060830152608082015260005b6002811015612ff05780612f8457612f4c8783606001518381518110612d2657612d2661588d565b6040870152606086015260208501526080820151805182908110612f7257612f7261588d565b60209081029190910101518452612fde565b8060011415612fde57612faa612dd68884606001518481518110612dab57612dab61588d565b6001600160601b03191660208401526080820151805182908110612fd057612fd061588d565b602090810291909101015183525b80612fe881615934565b915050612f24565b50919590945092505050565b60608061300c8360026021612b79565b6130198460256021612b79565b91509150915091565b6060600360028360405161303691906155a3565b602060405180830381855afa158015613053573d6000803e3d6000fd5b5050506040513d601f19601f8201168201806040525081019061307691906155bf565b60405160200161308891815260200190565b60408051601f19818403018152908290526130a2916155a3565b602060405180830381855afa1580156130bf573d6000803e3d6000fd5b50506040518051612675925060601b906020016158a3565b6130df61515c565b6130e761515c565b6130f2836004613aa6565b5081526131028360256004612b79565b61310b90615856565b6001600160e01b031916604082015261313861312a8460056025612b79565b6131339061594f565b613b69565b60208201528051600114611a355760405162461bcd60e51b815260206004820152601b60248201527a54782068617320746f6f206d616e7920696e7075747320283e312960281b604482015260640161064c565b61319461517c565b61319c61517c565b6000604051806080016040528060428152602001615b6160429139905083602a815181106131cc576131cc61588d565b6020910101516001600160f81b031916604760f81b1415613204576131fa6131f585602f613c0a565b612660565b6020830152613243565b83602a815181106132175761321761588d565b6020910101516001600160f81b031916602360f91b14156132435761323d84602f613c7c565b60208301525b6132516131f5856051613c0a565b604083015250601b815292915050565b6000806132718560006029612b79565b8461328a876072808a51613285919061565d565b612b79565b8560405160200161329e9493929190615973565b60405160208183030381529060405290506132b881613cf9565b95945050505050565b60006132ce82602061558b565b835110156133165760405162461bcd60e51b8152602060048201526015602482015274746f55696e743235365f6f75744f66426f756e647360581b604482015260640161064c565b50016020015190565b606060008061333a87613333601b896159ca565b8787613db8565b6040805160208101939093528281019190915280518083038201815260609092019052979650505050505050565b60006fa2a8918ca85bafe22016d0b997e4df60600160ff1b038211156133db5760405162461bcd60e51b815260206004820152602260248201527f45434453413a20696e76616c6964207369676e6174757265202773272076616c604482015261756560f01b606482015260840161064c565b8360ff16601b14806133f057508360ff16601c145b6134475760405162461bcd60e51b815260206004820152602260248201527f45434453413a20696e76616c6964207369676e6174757265202776272076616c604482015261756560f01b606482015260840161064c565b6040805160008082526020820180845288905260ff871692820192909252606081018590526080810184905260019060a0016020604051602081039080840390855afa15801561349b573d6000803e3d6000fd5b5050604051601f1901519150506001600160a01b0381166132b85760405162461bcd60e51b815260206004820152601860248201527745434453413a20696e76616c6964207369676e617475726560401b604482015260640161064c565b60006001600160ff1b03821660ff83901c601b0161351986828785613368565b9695505050505050565b6060600082516001600160401b03811115613540576135406151d3565b6040519080825280601f01601f19166020018201604052801561356a576020820181803683370190505b50905060005b83518110156135e95783818151811061358b5761358b61588d565b602001015160f81c60f81b8260018387516135a6919061565d565b6135b0919061565d565b815181106135c0576135c061588d565b60200101906001600160f81b031916908160001a905350806135e181615934565b915050613570565b5092915050565b60006135fd82600461558b565b835110156136445760405162461bcd60e51b8152602060048201526014602482015273746f55696e7433325f6f75744f66426f756e647360601b604482015260640161064c565b50016004015190565b606060008060008061365f8888613aa6565b9750925085158061366f57508286115b1561367c57829150613680565b8591505b6000826001600160401b0381111561369a5761369a6151d3565b6040519080825280602002602001820160405280156136c3578160200160208202803683370190505b50905060005b83811015613737576136dc60248a61558b565b98506136e88a8a613aa6565b809a508194505050828282815181106137035761370361588d565b602090810291909101015261371983600461558b565b613723908a61558b565b98508061372f81615934565b9150506136c9565b5098969750505050505050565b60608060606000806000806137598a8a613aa6565b9950925087158061376957508288115b156137765782915061377a565b8791505b6000826001600160401b03811115613794576137946151d3565b6040519080825280602002602001820160405280156137bd578160200160208202803683370190505b5090506000836001600160401b038111156137da576137da6151d3565b604051908082528060200260200182016040528015613803578160200160208202803683370190505b5090506000846001600160401b03811115613820576138206151d3565b604051908082528060200260200182016040528015613849578160200160208202803683370190505b50905060005b858110156138fa576138638e8e6040613fe9565b8282815181106138755761387561588d565b602090810291909101015261388b60088e61558b565b9c506138978e8e613aa6565b809e5081965050508c8482815181106138b2576138b261588d565b602002602001018181525050848382815181106138d1576138d161588d565b60209081029190910101526138e6858e61558b565b9c50806138f281615934565b91505061384f565b509c919b509998509650505050505050565b600080600061391c86868661434b565b1561395e576139358661393087600361558b565b613c0a565b6139448761393088602861558b565b6139538861393089604c61558b565b925092509250613968565b5060009150819050805b93509350939050565b600061397e8484846146f8565b156139a8576139978461399285600361558b565b613a14565b6001600160601b0319169050612c81565b6139b384848461481d565b156139c7576139978461399285600261558b565b6139d28484846148d8565b156139ed576139e68461393085600261558b565b9050612c81565b6139f884848461434b565b15613a0c576139e68461393085600261558b565b506000612c81565b600080805b6014816001600160a01b03161015613a9b57613a368160136159ed565b613a41906008615a15565b6001600160a01b03168585836001600160a01b0316613a60919061558b565b81518110613a7057613a7061588d565b0160200151613a879160f89190911c901b83615a44565b915080613a9381615a6f565b915050613a19565b5060601b9392505050565b6000806000848481518110613abd57613abd61588d565b016020015160f81c9050613ad260018561558b565b935060fd8160ff161015613aed5760ff169150829050613b62565b8060ff1660fd1415613b1a57613b0585856010613fe9565b613b1085600261558b565b9250925050613b62565b8060ff1660fe1415613b3d57613b3285856020613fe9565b613b1085600461558b565b8060ff1660ff1415613b6057613b5585856040613fe9565b613b1085600861558b565b505b9250929050565b60408051602080825281830190925260009182919060208201818036833701905050905060005b6020811015613c0057838160208110613bab57613bab61588d565b1a60f81b826001613bbd84602061565d565b613bc7919061565d565b81518110613bd757613bd761588d565b60200101906001600160f81b031916908160001a90535080613bf881615934565b915050613b90565b50612c8181614959565b600080805b6020811015613c7457613c2381601f61565d565b613c2e9060086155d8565b85613c39868461558b565b81518110613c4957613c4961588d565b0160200151613c609160f89190911c901b8361558b565b915080613c6c81615934565b915050613c0f565b509392505050565b60606000805b601f811015613ce757613c9681601e61565d565b613ca19060086155d8565b85613cac868461558b565b81518110613cbc57613cbc61588d565b0160200151613cd39160f89190911c901b8361558b565b915080613cdf81615934565b915050613c82565b50613cf1816126a9565b949350505050565b600060028083604051613d0c91906155a3565b602060405180830381855afa158015613d29573d6000803e3d6000fd5b5050506040513d601f19601f82011682018060405250810190613d4c91906155bf565b604051602001613d5e91815260200190565b60408051601f1981840301815290829052613d78916155a3565b602060405180830381855afa158015613d95573d6000803e3d6000fd5b5050506040513d601f19601f82011682018060405250810190611a3591906155bf565b600080806401000003d019613dda607f600189901c166401000003d0196155d8565b860890506401000003d019811180613e03575070014551231950b75fc4402da1732fc9bebe1984115b80613e1f575070014551231950b75fc4402da1732fc9bebe1985115b80613e28575083155b80613e31575084155b80613e3f575060018660ff16115b15613e51576000809250925050613fe0565b6000613e6f8670014551231950b75fc4402da1732fc9bebe19614976565b905060006401000003d0198060076401000003d01960008709086401000003d019808687098609089050613ebf816004613eb06401000003d019600161558b565b613eba919061560d565b614a42565b90506000613ed060ff8a168361558b565b613edb90600261558b565b60011615613ef857613ef3826401000003d01961565d565b613efa565b815b905060008080613f7d70014551231950b75fc4402da1732fc9bebe19613f328f70014551231950b75fc4402da1732fc9bebe1961565d565b88097f79be667ef9dcbbac55a06295ce870b07029bfcdb2dce28d959f2815b16f817987f483ada7726a3c4655da4fbfc0e1108a8fd17b448a68554199c47d08ffb10d4b86001614aea565b9250925092506000806000613fb770014551231950b75fc4402da1732fc9bebe1980613fab57613fab6155f7565b8e8b098b896001614aea565b925092509250600080613fce888888888888614b63565b909e509c505050505050505050505050505b94509492505050565b60008160081415614015578383815181106140065761400661588d565b016020015160f81c9050612c81565b8160101415614076578361402a84600161558b565b8151811061403a5761403a61588d565b016020015161404e9060f81c610100615a96565b61ffff168484815181106140645761406461588d565b01602001516139e6919060f81c61558b565b816020141561415c578361408b84600361558b565b8151811061409b5761409b61588d565b01602001516140b19060f81c6301000000615ab7565b63ffffffff16846140c385600261558b565b815181106140d3576140d361588d565b01602001516140e89060f81c62010000615ab7565b63ffffffff16856140fa86600161558b565b8151811061410a5761410a61588d565b016020015161411e9060f81c610100615ab7565b63ffffffff168686815181106141365761413661588d565b0160200151614148919060f81c61558b565b614152919061558b565b6139e6919061558b565b8160401415612c81578361417184600761558b565b815181106141815761418161588d565b01602001516141979060f81c600160381b615ada565b6001600160401b0316846141ac85600661558b565b815181106141bc576141bc61588d565b01602001516141d29060f81c600160301b615ada565b6001600160401b0316856141e786600561558b565b815181106141f7576141f761588d565b016020015161420d9060f81c600160281b615ada565b6001600160401b03168661422287600461558b565b815181106142325761423261588d565b01602001516142489060f81c600160201b615ada565b6001600160401b03168761425d88600361558b565b8151811061426d5761426d61588d565b01602001516142839060f81c6301000000615ada565b6001600160401b03168861429889600261558b565b815181106142a8576142a861588d565b01602001516142bd9060f81c62010000615ada565b6001600160401b0316896142d28a600161558b565b815181106142e2576142e261588d565b01602001516142f69060f81c610100615ada565b6001600160401b03168a8a815181106143115761431161588d565b0160200151614323919060f81c61558b565b61432d919061558b565b614337919061558b565b614341919061558b565b614148919061558b565b600081607214801561438b57508361436484600061558b565b815181106143745761437461588d565b6020910101516001600160f81b031916603b60f91b145b80156143c557508361439e84600161558b565b815181106143ae576143ae61588d565b6020910101516001600160f81b031916602160f81b145b80156143ff5750836143d884602361558b565b815181106143e8576143e861588d565b6020910101516001600160f81b031916602b60fa1b145b801561443957508361441284602461558b565b815181106144225761442261588d565b6020910101516001600160f81b031916606360f81b145b801561447357508361444c84602561558b565b8151811061445c5761445c61588d565b6020910101516001600160f81b031916607560f81b145b80156144ad57508361448684602661558b565b815181106144965761449661588d565b6020910101516001600160f81b031916605560f91b145b80156144e75750836144c084602761558b565b815181106144d0576144d061588d565b6020910101516001600160f81b031916600160fd1b145b80156145215750836144fa84604861558b565b8151811061450a5761450a61588d565b6020910101516001600160f81b031916601160fb1b145b801561455b57508361453484604961558b565b815181106145445761454461588d565b6020910101516001600160f81b031916606760f81b145b801561459557508361456e84604a61558b565b8151811061457e5761457e61588d565b6020910101516001600160f81b031916602160f81b145b80156145cf5750836145a884606c61558b565b815181106145b8576145b861588d565b6020910101516001600160f81b03191660ad60f81b145b80156146095750836145e284606d61558b565b815181106145f2576145f261588d565b6020910101516001600160f81b031916602960f91b145b801561464357508361461c84606e61558b565b8151811061462c5761462c61588d565b6020910101516001600160f81b031916605960f91b145b801561467d57508361465684606f61558b565b815181106146665761466661588d565b6020910101516001600160f81b031916607560f81b145b80156146b757508361469084607061558b565b815181106146a0576146a061588d565b6020910101516001600160f81b031916600d60fb1b145b8015613cf15750836146ca84607161558b565b815181106146da576146da61588d565b6020910101516001600160f81b031916605160f81b14949350505050565b600081601914801561472e57508383815181106147175761471761588d565b6020910101516001600160f81b031916603b60f91b145b801561476857508361474184600161558b565b815181106147515761475161588d565b6020910101516001600160f81b03191660a960f81b145b80156147a257508361477b84600261558b565b8151811061478b5761478b61588d565b6020910101516001600160f81b031916600560fa1b145b80156147dc5750836147b584601761558b565b815181106147c5576147c561588d565b6020910101516001600160f81b031916601160fb1b145b8015613cf15750836147ef84601861558b565b815181106147ff576147ff61588d565b6020910101516001600160f81b031916602b60fa1b14949350505050565b600081601714801561485d57508361483684600061558b565b815181106148465761484661588d565b6020910101516001600160f81b03191660a960f81b145b801561489757508361487084600161558b565b815181106148805761488061588d565b6020910101516001600160f81b031916600560fa1b145b8015613cf15750836148aa84601661558b565b815181106148ba576148ba61588d565b6020910101516001600160f81b031916608760f81b14949350505050565b60008160221480156149185750836148f184600061558b565b815181106149015761490161588d565b6020910101516001600160f81b031916603560f91b145b8015613cf157508361492b84600161558b565b8151811061493b5761493b61588d565b6020910101516001600160f81b031916600160fd1b14949350505050565b8051600090829061496d5750600092915050565b50506020015190565b600082158015906149875750818314155b801561499257508115155b6149cf5760405162461bcd60e51b815260206004820152600e60248201526d24b73b30b634b210373ab6b132b960911b604482015260640161064c565b6000600183825b8615614a37576149e6878361560d565b90508286806149f7576149f76155f7565b8780614a0557614a056155f7565b858409614a12908961565d565b8608909450925086614a2481836155d8565b614a2e908461565d565b975091506149d6565b509195945050505050565b600082614a5157506000611a35565b81614a5e57506001611a35565b6001600160ff1b5b8015613c74576401000003d0198185161515860a6401000003d0198485090991506401000003d0196002820485161515860a6401000003d0198485090991506401000003d0196004820485161515860a6401000003d0198485090991506401000003d0196008820485161515860a6401000003d01984850909915060109004614a66565b6000808086614b00575084915083905082614b59565b8660008060015b8315614b50576001841615614b2c57614b248383838d8d8d614bdb565b919450925090505b614b3760028561560d565b9350614b448a8a8a614e70565b919b5099509750614b07565b91955093509150505b9450945094915050565b6000806000806000878b1415614ba7576401000003d019878b08614b905760008094509450505050614bd0565b614b9b8b8b8b614e70565b91945092509050614bbd565b614bb58b8b8b8b8b8b614bdb565b919450925090505b614bc8838383614f74565b945094505050505b965096945050505050565b6000808088158015614beb575087155b15614bfd575084915083905082614e64565b85158015614c09575084155b15614c1b575087915086905085614e64565b614c236151a0565b6401000003d0198889098082526401000003d01990890960208201526401000003d019858009604082018190526401000003d0199086096060820152604080516080810182529082015181906401000003d019908d0981526020016401000003d01983600360200201518c0981526020016401000003d01983600060200201518a0981526020016401000003d01983600160200201518909905260408101518151919250141580614cdc57506060810151602082015114155b614d285760405162461bcd60e51b815260206004820152601e60248201527f557365206a6163446f75626c652066756e6374696f6e20696e73746561640000604482015260640161064c565b614d306151a0565b81516401000003d01990614d44908261565d565b604084015108815260208201516401000003d01990614d63908261565d565b606084015108602082015280516401000003d0199080096040820181905281516401000003d0199109606082018190526000906401000003d01990614da8908261565d565b60208401516401000003d01990800908604083015184519192506401000003d019918291829109600209614de2906401000003d01961565d565b8208905060006401000003d01980614e00846401000003d01961565d565b604086015187516401000003d0199190090860208501510990506401000003d019808460036020020151866001602002015109614e43906401000003d01961565d565b8208905060006401000003d019808a8e098551099297509095509093505050505b96509650969350505050565b6000808083614e86575084915083905082613968565b60006401000003d019878809905060006401000003d019878809905060006401000003d019878809905060006401000003d01980848c09600409905060006401000003d019806401000003d0198586096000096401000003d019876003090890506401000003d01980838408614f02906401000003d01961565d565b6401000003d0198384090894506401000003d019806401000003d019868709600809614f34906401000003d01961565d565b6401000003d01980614f4c896401000003d01961565d565b860884090893506401000003d019808a8c09600209949b939a50939850919650505050505050565b6000806000614f89846401000003d019614976565b905060006401000003d019828309905060006401000003d019828909905060006401000003d0198084860989099199919850909650505050505050565b828054614fd2906156fe565b90600052602060002090601f016020900481019282614ff4576000855561503a565b82601f1061500d57805160ff191683800117855561503a565b8280016001018555821561503a579182015b8281111561503a57825182559160200191906001019061501f565b506150469291506151be565b5090565b60405180604001604052806002905b615061615106565b8152602001906001900390816150595790505090565b60405180604001604052806002905b61508e6150a4565b8152602001906001900390816150865790505090565b604080518082019091526000808252602082015290565b60405180604001604052806002905b6150d261517c565b8152602001906001900390816150ca5790505090565b60405180604001604052806002906020820280368337509192915050565b60408051608081018252600080825260208201819052918101829052606081019190915290565b6040518060a0016040528060008152602001606081526020016060815260200160608152602001606081525090565b604080516060810182526000808252602082018190529181019190915290565b6040518060600160405280600060ff16815260200160608152602001606081525090565b60405180608001604052806004906020820280368337509192915050565b5b8082111561504657600081556001016151bf565b634e487b7160e01b600052604160045260246000fd5b60006001600160401b0380841115615203576152036151d3565b604051601f8501601f19908116603f0116810190828211818310171561522b5761522b6151d3565b8160405280935085815286868601111561524457600080fd5b858560208301376000602087830101525050509392505050565b60006020828403121561527057600080fd5b81356001600160401b0381111561528657600080fd5b8201601f8101841361529757600080fd5b613cf1848235602084016151e9565b600082601f8301126152b757600080fd5b612c81838335602085016151e9565b600080604083850312156152d957600080fd5b82356001600160401b03808211156152f057600080fd5b6152fc868387016152a6565b9350602085013591508082111561531257600080fd5b5061531f858286016152a6565b9150509250929050565b80356001600160e01b03198116811461534157600080fd5b919050565b6000806000806000806000806000806101408b8d03121561536657600080fd5b8a35995060208b01356001600160401b038082111561538457600080fd5b6153908e838f016152a6565b9a5061539e60408e01615329565b995060608d01359150808211156153b457600080fd5b6153c08e838f016152a6565b985060808d01359150808211156153d657600080fd5b6153e28e838f016152a6565b975060a08d01359150808211156153f857600080fd5b6154048e838f016152a6565b965060c08d0135955060e08d013594506101008d013591508082111561542957600080fd5b6154358e838f016152a6565b93506101208d013591508082111561544c57600080fd5b506154598d828e016152a6565b9150509295989b9194979a5092959850565b60006020828403121561547d57600080fd5b81356001600160401b0381111561549357600080fd5b613cf1848285016152a6565b60005b838110156154ba5781810151838201526020016154a2565b8381111561070b5750506000910152565b600081518084526154e381602086016020860161549f565b601f01601f19169290920160200192915050565b60006101008a83528060208401526155118184018b6154cb565b6001600160e01b03198a1660408501528381036060850152905061553581896154cb565b9050828103608084015261554981886154cb565b905082810360a084015261555d81876154cb565b60c0840195909552505060e001529695505050505050565b634e487b7160e01b600052601160045260246000fd5b6000821982111561559e5761559e615575565b500190565b600082516155b581846020870161549f565b9190910192915050565b6000602082840312156155d157600080fd5b5051919050565b60008160001904831182151516156155f2576155f2615575565b500290565b634e487b7160e01b600052601260045260246000fd5b60008261562a57634e487b7160e01b600052601260045260246000fd5b500490565b6020808252601490820152732330b4b632b2103a379039b2b7321022ba3432b960611b604082015260600190565b60008282101561566f5761566f615575565b500390565b60208082526025908201527f436f6d6d69746d656e74207472616e73616374696f6e206f662050206973206c6040820152641bd8dad95960da1b606082015260800190565b60208082526025908201527f436f6d6d69746d656e74207472616e73616374696f6e206f662056206973206c6040820152641bd8dad95960da1b606082015260800190565b600181811c9082168061571257607f821691505b6020821081141561573357634e487b7160e01b600052602260045260246000fd5b50919050565b8054600090600181811c908083168061575357607f831692505b602080841082141561577557634e487b7160e01b600052602260045260246000fd5b818015615789576001811461579a576157c7565b60ff198616895284890196506157c7565b60008881526020902060005b868110156157bf5781548b8201529085019083016157a6565b505084890196505b50505050505092915050565b600089516157e5818460208e0161549f565b6157f18184018b615739565b90508851615803818360208d0161549f565b61582161581b6158158385018c615739565b8a615739565b88615739565b915050845161583481836020890161549f565b845191019061584781836020880161549f565b019a9950505050505050505050565b805160208201516001600160e01b031980821692919060048310156158855780818460040360031b1b83161693505b505050919050565b634e487b7160e01b600052603260045260246000fd5b6001600160601b031991909116815260140190565b600060ff821660ff84168060ff038211156158d5576158d5615575565b019392505050565b60208082526037908201527f496e76616c6964207369676e6174757265206f662056206f76657220636f6d6d604082015276069746d656e74207472616e73616374696f6e206f66205604c1b606082015260800190565b600060001982141561594857615948615575565b5060010190565b805160208083015191908110156157335760001960209190910360031b1b16919050565b60008551615985818460208a0161549f565b855190830190615999818360208a0161549f565b85519101906159ac81836020890161549f565b84519101906159bf81836020880161549f565b019695505050505050565b600060ff821660ff8416808210156159e4576159e4615575565b90039392505050565b60006001600160a01b0383811690831681811015615a0d57615a0d615575565b039392505050565b60006001600160a01b0382811684821681151582840482111615615a3b57615a3b615575565b02949350505050565b60006001600160a01b03828116848216808303821115615a6657615a66615575565b01949350505050565b60006001600160a01b0382811680821415615a8c57615a8c615575565b6001019392505050565b600061ffff80831681851681830481118215151615615a3b57615a3b615575565b600063ffffffff80831681851681830481118215151615615a3b57615a3b615575565b60006001600160401b0382811684821681151582840482111615615a3b57615a3b61557556fe6d656e74207472616e73616374696f6e20646f6573206e6f7420636f7272657350277320636f6d6d69746d656e74207472616e73616374696f6e20646f6573206e6f74207370656e64207468652066756e64696e67207472616e73616374696f307866666666666666666666666666666666666666666666666666666666666666656261616564636536616634386130336262666432356538636430333634313431416d6f756e74206d69736d61746368206265747765656e207032706b68206f667cb76fce4caeb1fe1b0dd56de53b408af770b76cf5e9c88a1e2568a7d1e9889fa2646970667358221220a432cc5927a264546c90e85a03c69f0056b450526a5f02f6c60bce754821f86064736f6c63430008090033",
  "linkReferences": {},
  "deployedLinkReferences": {}
}