{
  "_format": "hh-sol-artifact-1",
  "contractName": "LNBridge",
  "sourceName": "contracts/LNBridge.sol",
  "abi": [
    {
      "inputs": [
        {
          "internalType": "uint256",
          "name": "value",
          "type": "uint256"
        },
        {
          "internalType": "uint256",
          "name": "length",
          "type": "uint256"
        }
      ],
      "name": "StringsInsufficientHexLength",
      "type": "error"
    },
    {
      "inputs": [
        {
          "internalType": "bytes",
          "name": "rawTxP_locked",
          "type": "bytes"
        },
        {
          "internalType": "bytes",
          "name": "sigV",
          "type": "bytes"
        },
        {
          "internalType": "bytes",
          "name": "rawTxV_unlocked",
          "type": "bytes"
        },
        {
          "internalType": "bytes",
          "name": "sigP",
          "type": "bytes"
        }
      ],
      "name": "dispute",
      "outputs": [],
      "stateMutability": "nonpayable",
      "type": "function"
    },
    {
      "inputs": [],
      "name": "htlc",
      "outputs": [
        {
          "internalType": "uint256",
          "name": "value",
          "type": "uint256"
        },
        {
          "internalType": "bytes32",
          "name": "pk1",
          "type": "bytes32"
        },
        {
          "internalType": "bytes32",
          "name": "pk2",
          "type": "bytes32"
        },
        {
          "internalType": "bytes32",
          "name": "rev_secret",
          "type": "bytes32"
        }
      ],
      "stateMutability": "view",
      "type": "function"
    },
    {
      "inputs": [],
      "name": "opreturn",
      "outputs": [
        {
          "internalType": "uint256",
          "name": "value",
          "type": "uint256"
        },
        {
          "internalType": "bytes32",
          "name": "data",
          "type": "bytes32"
        }
      ],
      "stateMutability": "view",
      "type": "function"
    },
    {
      "inputs": [],
      "name": "out_aux",
      "outputs": [
        {
          "internalType": "uint256",
          "name": "pos",
          "type": "uint256"
        }
      ],
      "stateMutability": "view",
      "type": "function"
    },
    {
      "inputs": [],
      "name": "p2pkh",
      "outputs": [
        {
          "internalType": "uint256",
          "name": "value",
          "type": "uint256"
        },
        {
          "internalType": "bytes32",
          "name": "pkhash",
          "type": "bytes32"
        }
      ],
      "stateMutability": "view",
      "type": "function"
    },
    {
      "inputs": [
        {
          "internalType": "bytes",
          "name": "_txBytes",
          "type": "bytes"
        }
      ],
      "name": "readThreeOutputs",
      "outputs": [
        {
          "internalType": "uint256",
          "name": "",
          "type": "uint256"
        },
        {
          "internalType": "bytes32",
          "name": "",
          "type": "bytes32"
        },
        {
          "internalType": "bytes32",
          "name": "",
          "type": "bytes32"
        },
        {
          "internalType": "bytes32",
          "name": "",
          "type": "bytes32"
        },
        {
          "internalType": "uint256",
          "name": "",
          "type": "uint256"
        },
        {
          "internalType": "bytes32",
          "name": "",
          "type": "bytes32"
        },
        {
          "internalType": "uint256",
          "name": "",
          "type": "uint256"
        },
        {
          "internalType": "bytes32",
          "name": "",
          "type": "bytes32"
        }
      ],
      "stateMutability": "nonpayable",
      "type": "function"
    },
    {
      "inputs": [
        {
          "internalType": "bytes",
          "name": "oldRevSecret",
          "type": "bytes"
        },
        {
          "internalType": "bytes",
          "name": "rawTxP_unlocked",
          "type": "bytes"
        },
        {
          "internalType": "bytes",
          "name": "sigV",
          "type": "bytes"
        }
      ],
      "name": "resolveDispute",
      "outputs": [],
      "stateMutability": "nonpayable",
      "type": "function"
    },
    {
      "inputs": [],
      "name": "settle",
      "outputs": [],
      "stateMutability": "nonpayable",
      "type": "function"
    },
    {
      "inputs": [
        {
          "internalType": "bytes32",
          "name": "_fundingTxId",
          "type": "bytes32"
        },
        {
          "internalType": "bytes32",
          "name": "_pkProver",
          "type": "bytes32"
        },
        {
          "internalType": "bytes32",
          "name": "_pkVerifier",
          "type": "bytes32"
        },
        {
          "internalType": "uint256",
          "name": "_index",
          "type": "uint256"
        },
        {
          "internalType": "uint256",
          "name": "_timestamp",
          "type": "uint256"
        }
      ],
      "name": "setup",
      "outputs": [],
      "stateMutability": "nonpayable",
      "type": "function"
    },
    {
      "inputs": [
        {
          "internalType": "bytes",
          "name": "rawTxP_unlocked",
          "type": "bytes"
        },
        {
          "internalType": "bytes",
          "name": "sigV",
          "type": "bytes"
        },
        {
          "internalType": "bytes",
          "name": "rawTxV_unlocked",
          "type": "bytes"
        },
        {
          "internalType": "bytes",
          "name": "sigP",
          "type": "bytes"
        }
      ],
      "name": "submitProof",
      "outputs": [],
      "stateMutability": "nonpayable",
      "type": "function"
    },
    {
      "inputs": [],
      "name": "timestamp",
      "outputs": [
        {
          "internalType": "uint256",
          "name": "",
          "type": "uint256"
        }
      ],
      "stateMutability": "view",
      "type": "function"
    },
    {
      "inputs": [],
      "name": "timestamp_dispute",
      "outputs": [
        {
          "internalType": "uint256",
          "name": "",
          "type": "uint256"
        }
      ],
      "stateMutability": "view",
      "type": "function"
    }
  ],
  "bytecode": "0x608060405234801561001057600080fd5b50612d18806100206000396000f3fe608060405234801561001057600080fd5b50600436106100b45760003560e01c806372ca346f1161007157806372ca346f1461016c57806379a85bd91461018b5780638504b3b9146101a7578063a5dd32ac146101c6578063b80777ea146101e4578063e4b23d0c14610202576100b4565b806306ac0e26146100b957806311da60b4146100d55780633740d249146100df5780633c1c0699146100fb57806343f104d21461013257806366b85d571461014e575b600080fd5b6100d360048036038101906100ce9190612345565b610223565b005b6100dd61024d565b005b6100f960048036038101906100f49190612506565b61024f565b005b610115600480360381019061011091906125dd565b610255565b604051610129989796959493929190612644565b60405180910390f35b61014c60048036038101906101479190612506565b6107ab565b005b6101566107b1565b60405161016391906126c2565b60405180910390f35b6101746107bd565b6040516101829291906126dd565b60405180910390f35b6101a560048036038101906101a09190612706565b6107cf565b005b6101af6107d4565b6040516101bd9291906126dd565b60405180910390f35b6101ce6107e6565b6040516101db91906126c2565b60405180910390f35b6101ec6107ec565b6040516101f991906126c2565b60405180910390f35b61020a6107f2565b60405161021a94939291906127ad565b60405180910390f35b84600081905550836001819055508260028190555081600381905550806004819055505050505050565b565b50505050565b6000806000806000806000806004600e6000018190555061027d89600e600001546000610810565b600e6001016000600e600001600084919050558391905090805190602001906102a7929190612251565b5050506102bb89600e600001546000610922565b600e6004016000600e6003016000600e6002016000600e600001600088919050558791905090805190602001906102f3929190612251565b5086919050908051906020019061030b929190612251565b50859190509080519060200190610323929190612251565b505050505060005b600381101561050357600081036103dc576103898a600e6003018381548110610357576103566127f2565b5b9060005260206000200154600e6002018481548110610379576103786127f2565b5b9060005260206000200154610b19565b600660010160006006600301600060066002016000869190505585919050558491905055505050600e60040181815481106103c7576103c66127f2565b5b90600052602060002001546006600001819055505b60018103610466576104318a600e60030183815481106103ff576103fe6127f2565b5b9060005260206000200154600e6002018481548110610421576104206127f2565b5b9060005260206000200154610bd5565b600c60010181905550600e6004018181548110610451576104506127f2565b5b9060005260206000200154600c600001819055505b600281036104f0576104bb8a600e6003018381548110610489576104886127f2565b5b9060005260206000200154600e60020184815481106104ab576104aa6127f2565b5b9060005260206000200154610bd5565b600a60010181905550600e60040181815481106104db576104da6127f2565b5b9060005260206000200154600a600001819055505b80806104fb90612850565b91505061032b565b506105486040518060400160405280601581526020017f436865636b2076616c75655f6f75747075745f313a0000000000000000000000815250600660000154610daf565b6105996040518060400160405280601281526020017f436865636b20706b315f4f7574707574313a000000000000000000000000000081525061059460066001015460001c6020610e4b565b611091565b6105ea6040518060400160405280600e81526020017f436865636b207265765f7365633a0000000000000000000000000000000000008152506105e560066003015460001c6020610e4b565b611091565b61063b6040518060400160405280601281526020017f436865636b20706b325f4f7574707574313a000000000000000000000000000081525061063660066002015460001c6020610e4b565b611091565b61067f6040518060400160405280601581526020017f436865636b2076616c75655f6f75747075745f323a0000000000000000000000815250600c60000154610daf565b6106cb6040518060400160405280601481526020017f436865636b207363726970745f646174615f323a0000000000000000000000008152506106c6600c6001015461112d565b611091565b61070f6040518060400160405280601581526020017f436865636b2076616c75655f6f75747075745f333a0000000000000000000000815250600a60000154610daf565b6107606040518060400160405280601481526020017f436865636b207363726970745f646174615f333a00000000000000000000000081525061075b600a6001015460001c6020610e4b565b611091565b600660000154600660010154600660030154600660020154600c60000154600c60010154600a60000154600a6001015497509750975097509750975097509750919395975091939597565b50505050565b600e8060000154905081565b600c8060000154908060010154905082565b505050565b600a8060000154908060010154905082565b60055481565b60045481565b60068060000154908060010154908060020154908060030154905084565b6060600080600080610822888861115d565b8098508194505050600086148061083857508286115b1561084557829150610849565b8591505b60008267ffffffffffffffff811115610865576108646123db565b5b6040519080825280602002602001820160405280156108935781602001602082028036833780820191505090505b50905060005b8381101561090f576024896108ae9190612898565b98506108ba8a8a61115d565b809a508194505050828282815181106108d6576108d56127f2565b5b6020026020010181815250506004836108ef9190612898565b896108fa9190612898565b9850808061090790612850565b915050610899565b5080889550955050505050935093915050565b60608060606000806000806109378a8a61115d565b809a508194505050600088148061094d57508288115b1561095a5782915061095e565b8791505b60008267ffffffffffffffff81111561097a576109796123db565b5b6040519080825280602002602001820160405280156109a85781602001602082028036833780820191505090505b50905060008367ffffffffffffffff8111156109c7576109c66123db565b5b6040519080825280602002602001820160405280156109f55781602001602082028036833780820191505090505b50905060008467ffffffffffffffff811115610a1457610a136123db565b5b604051908082528060200260200182016040528015610a425781602001602082028036833780820191505090505b50905060005b85811015610afd57610a5c8e8e6040611245565b828281518110610a6f57610a6e6127f2565b5b60200260200101818152505060088d610a889190612898565b9c50610a948e8e61115d565b809e5081965050508c848281518110610ab057610aaf6127f2565b5b60200260200101818152505084838281518110610ad057610acf6127f2565b5b602002602001018181525050848d610ae89190612898565b9c508080610af590612850565b915050610a48565b508083838e995099509950995050505050505093509350935093565b6000806000610b298686866116b0565b15610bb957610b6c6040518060400160405280601b81526020017f506172736564204c696768746e696e6748544c43206f75747075740000000000815250611c5f565b610b8286600387610b7d9190612898565b611cf8565b610b9887602888610b939190612898565b611cf8565b610bae88604c89610ba99190612898565b611cf8565b925092509250610bcc565b6000801b6000801b6000801b9250925092505b93509350939050565b6000610be2848484611d83565b15610c5157610c256040518060400160405280601381526020017f506172736564205032504b48206f757470757400000000000000000000000000815250611c5f565b610c3b84600385610c369190612898565b611f48565b6bffffffffffffffffffffffff19169050610da8565b610c5c84848461202b565b15610ccb57610c9f6040518060400160405280601281526020017f5061727365642050325348206f75747075740000000000000000000000000000815250611c5f565b610cb584600285610cb09190612898565b611f48565b6bffffffffffffffffffffffff19169050610da8565b610cd6848484612148565b15610d3657610d196040518060400160405280601781526020017f506172736564204f505f52455455524e206f7574707574000000000000000000815250611c5f565b610d2f84600285610d2a9190612898565b611cf8565b9050610da8565b610d418484846116b0565b15610da157610d846040518060400160405280601b81526020017f506172736564204c696768746e696e6748544c43206f75747075740000000000815250611c5f565b610d9a84600285610d959190612898565b611cf8565b9050610da8565b6000801b90505b9392505050565b610e478282604051602401610dc592919061294b565b6040516020818303038152906040527fb60e72cc000000000000000000000000000000000000000000000000000000007bffffffffffffffffffffffffffffffffffffffffffffffffffffffff19166020820180517bffffffffffffffffffffffffffffffffffffffffffffffffffffffff838183161783525050505061220b565b5050565b6060600083905060006002846002610e63919061297b565b610e6d9190612898565b67ffffffffffffffff811115610e8657610e856123db565b5b6040519080825280601f01601f191660200182016040528015610eb85781602001600182028036833780820191505090505b5090507f300000000000000000000000000000000000000000000000000000000000000081600081518110610ef057610eef6127f2565b5b60200101907effffffffffffffffffffffffffffffffffffffffffffffffffffffffffffff1916908160001a9053507f780000000000000000000000000000000000000000000000000000000000000081600181518110610f5457610f536127f2565b5b60200101907effffffffffffffffffffffffffffffffffffffffffffffffffffffffffffff1916908160001a90535060006001856002610f94919061297b565b610f9e9190612898565b90505b600181111561103e577f3031323334353637383961626364656600000000000000000000000000000000600f841660108110610fe057610fdf6127f2565b5b1a60f81b828281518110610ff757610ff66127f2565b5b60200101907effffffffffffffffffffffffffffffffffffffffffffffffffffffffffffff1916908160001a905350600483901c925080611037906129bd565b9050610fa1565b50600082146110865784846040517fe22e27eb00000000000000000000000000000000000000000000000000000000815260040161107d9291906129e6565b60405180910390fd5b809250505092915050565b61112982826040516024016110a7929190612a0f565b6040516020818303038152906040527f4b5c4277000000000000000000000000000000000000000000000000000000007bffffffffffffffffffffffffffffffffffffffffffffffffffffffff19166020820180517bffffffffffffffffffffffffffffffffffffffffffffffffffffffff838183161783525050505061220b565b5050565b60606111568260601c73ffffffffffffffffffffffffffffffffffffffff16601460ff16610e4b565b9050919050565b6000806000848481518110611175576111746127f2565b5b602001015160f81c60f81b60f81c90506001846111929190612898565b935060fd8160ff1610156111b25780848160ff169150925092505061123e565b60fd8160ff16036111e0576111c985856010611245565b6002856111d69190612898565b925092505061123e565b60fe8160ff160361120e576111f785856020611245565b6004856112049190612898565b925092505061123e565b60ff8160ff160361123c5761122585856040611245565b6008856112329190612898565b925092505061123e565b505b9250929050565b60006008820361127a57838381518110611262576112616127f2565b5b602001015160f81c60f81b60f81c60ff1690506116a9565b601082036112fc57610100846001856112939190612898565b815181106112a4576112a36127f2565b5b602001015160f81c60f81b60f81c60ff166112bf9190612a54565b61ffff168484815181106112d6576112d56127f2565b5b602001015160f81c60f81b60f81c60ff1661ffff166112f59190612898565b90506116a9565b6020820361141f576301000000846003856113179190612898565b81518110611328576113276127f2565b5b602001015160f81c60f81b60f81c60ff166113439190612aa1565b63ffffffff16620100008560028661135b9190612898565b8151811061136c5761136b6127f2565b5b602001015160f81c60f81b60f81c60ff166113879190612aa1565b63ffffffff166101008660018761139e9190612898565b815181106113af576113ae6127f2565b5b602001015160f81c60f81b60f81c60ff166113ca9190612aa1565b63ffffffff168686815181106113e3576113e26127f2565b5b602001015160f81c60f81b60f81c60ff1663ffffffff166114049190612898565b61140e9190612898565b6114189190612898565b90506116a9565b604082036116a8576701000000000000008460078561143e9190612898565b8151811061144f5761144e6127f2565b5b602001015160f81c60f81b60f81c60ff1661146a9190612af2565b67ffffffffffffffff1666010000000000008560068661148a9190612898565b8151811061149b5761149a6127f2565b5b602001015160f81c60f81b60f81c60ff166114b69190612af2565b67ffffffffffffffff1665010000000000866005876114d59190612898565b815181106114e6576114e56127f2565b5b602001015160f81c60f81b60f81c60ff166115019190612af2565b67ffffffffffffffff166401000000008760048861151f9190612898565b815181106115305761152f6127f2565b5b602001015160f81c60f81b60f81c60ff1661154b9190612af2565b67ffffffffffffffff166301000000886003896115689190612898565b81518110611579576115786127f2565b5b602001015160f81c60f81b60f81c60ff166115949190612af2565b67ffffffffffffffff16620100008960028a6115b09190612898565b815181106115c1576115c06127f2565b5b602001015160f81c60f81b60f81c60ff166115dc9190612af2565b67ffffffffffffffff166101008a60018b6115f79190612898565b81518110611608576116076127f2565b5b602001015160f81c60f81b60f81c60ff166116239190612af2565b67ffffffffffffffff168a8a815181106116405761163f6127f2565b5b602001015160f81c60f81b60f81c60ff1667ffffffffffffffff166116659190612898565b61166f9190612898565b6116799190612898565b6116839190612898565b61168d9190612898565b6116979190612898565b6116a19190612898565b90506116a9565b5b9392505050565b60006072821480156117105750607660f81b846000856116d09190612898565b815181106116e1576116e06127f2565b5b602001015160f81c60f81b7effffffffffffffffffffffffffffffffffffffffffffffffffffffffffffff1916145b801561176a5750602160f81b8460018561172a9190612898565b8151811061173b5761173a6127f2565b5b602001015160f81c60f81b7effffffffffffffffffffffffffffffffffffffffffffffffffffffffffffff1916145b80156117c4575060ac60f81b846023856117849190612898565b81518110611795576117946127f2565b5b602001015160f81c60f81b7effffffffffffffffffffffffffffffffffffffffffffffffffffffffffffff1916145b801561181e5750606360f81b846024856117de9190612898565b815181106117ef576117ee6127f2565b5b602001015160f81c60f81b7effffffffffffffffffffffffffffffffffffffffffffffffffffffffffffff1916145b80156118785750607560f81b846025856118389190612898565b81518110611849576118486127f2565b5b602001015160f81c60f81b7effffffffffffffffffffffffffffffffffffffffffffffffffffffffffffff1916145b80156118d2575060aa60f81b846026856118929190612898565b815181106118a3576118a26127f2565b5b602001015160f81c60f81b7effffffffffffffffffffffffffffffffffffffffffffffffffffffffffffff1916145b801561192c5750602060f81b846027856118ec9190612898565b815181106118fd576118fc6127f2565b5b602001015160f81c60f81b7effffffffffffffffffffffffffffffffffffffffffffffffffffffffffffff1916145b80156119865750608860f81b846048856119469190612898565b81518110611957576119566127f2565b5b602001015160f81c60f81b7effffffffffffffffffffffffffffffffffffffffffffffffffffffffffffff1916145b80156119e05750606760f81b846049856119a09190612898565b815181106119b1576119b06127f2565b5b602001015160f81c60f81b7effffffffffffffffffffffffffffffffffffffffffffffffffffffffffffff1916145b8015611a3a5750602160f81b84604a856119fa9190612898565b81518110611a0b57611a0a6127f2565b5b602001015160f81c60f81b7effffffffffffffffffffffffffffffffffffffffffffffffffffffffffffff1916145b8015611a94575060ad60f81b84606c85611a549190612898565b81518110611a6557611a646127f2565b5b602001015160f81c60f81b7effffffffffffffffffffffffffffffffffffffffffffffffffffffffffffff1916145b8015611aee5750605260f81b84606d85611aae9190612898565b81518110611abf57611abe6127f2565b5b602001015160f81c60f81b7effffffffffffffffffffffffffffffffffffffffffffffffffffffffffffff1916145b8015611b48575060b260f81b84606e85611b089190612898565b81518110611b1957611b186127f2565b5b602001015160f81c60f81b7effffffffffffffffffffffffffffffffffffffffffffffffffffffffffffff1916145b8015611ba25750607560f81b84606f85611b629190612898565b81518110611b7357611b726127f2565b5b602001015160f81c60f81b7effffffffffffffffffffffffffffffffffffffffffffffffffffffffffffff1916145b8015611bfc5750606860f81b84607085611bbc9190612898565b81518110611bcd57611bcc6127f2565b5b602001015160f81c60f81b7effffffffffffffffffffffffffffffffffffffffffffffffffffffffffffff1916145b8015611c565750605160f81b84607185611c169190612898565b81518110611c2757611c266127f2565b5b602001015160f81c60f81b7effffffffffffffffffffffffffffffffffffffffffffffffffffffffffffff1916145b90509392505050565b611cf581604051602401611c739190612b2f565b6040516020818303038152906040527f41304fac000000000000000000000000000000000000000000000000000000007bffffffffffffffffffffffffffffffffffffffffffffffffffffffff19166020820180517bffffffffffffffffffffffffffffffffffffffffffffffffffffffff838183161783525050505061220b565b50565b6000806000905060005b6020811015611d755780601f611d189190612b51565b6008611d24919061297b565b858583611d319190612898565b81518110611d4257611d416127f2565b5b602001015160f81c60f81b60f81c60ff16901b82611d609190612898565b91508080611d6d90612850565b915050611d02565b508060001b91505092915050565b6000601982148015611dd75750607660f81b848481518110611da857611da76127f2565b5b602001015160f81c60f81b7effffffffffffffffffffffffffffffffffffffffffffffffffffffffffffff1916145b8015611e31575060a960f81b84600185611df19190612898565b81518110611e0257611e016127f2565b5b602001015160f81c60f81b7effffffffffffffffffffffffffffffffffffffffffffffffffffffffffffff1916145b8015611e8b5750601460f81b84600285611e4b9190612898565b81518110611e5c57611e5b6127f2565b5b602001015160f81c60f81b7effffffffffffffffffffffffffffffffffffffffffffffffffffffffffffff1916145b8015611ee55750608860f81b84601785611ea59190612898565b81518110611eb657611eb56127f2565b5b602001015160f81c60f81b7effffffffffffffffffffffffffffffffffffffffffffffffffffffffffffff1916145b8015611f3f575060ac60f81b84601885611eff9190612898565b81518110611f1057611f0f6127f2565b5b602001015160f81c60f81b7effffffffffffffffffffffffffffffffffffffffffffffffffffffffffffff1916145b90509392505050565b6000806000905060005b60148173ffffffffffffffffffffffffffffffffffffffff16101561201d57806013611f7e9190612ba5565b6008611f8a9190612bed565b73ffffffffffffffffffffffffffffffffffffffff1685858373ffffffffffffffffffffffffffffffffffffffff16611fc39190612898565b81518110611fd457611fd36127f2565b5b602001015160f81c60f81b60f81c60ff1673ffffffffffffffffffffffffffffffffffffffff16901b826120089190612c2f565b9150808061201590612c77565b915050611f52565b508060601b91505092915050565b600060178214801561208b575060a960f81b8460008561204b9190612898565b8151811061205c5761205b6127f2565b5b602001015160f81c60f81b7effffffffffffffffffffffffffffffffffffffffffffffffffffffffffffff1916145b80156120e55750601460f81b846001856120a59190612898565b815181106120b6576120b56127f2565b5b602001015160f81c60f81b7effffffffffffffffffffffffffffffffffffffffffffffffffffffffffffff1916145b801561213f5750608760f81b846016856120ff9190612898565b815181106121105761210f6127f2565b5b602001015160f81c60f81b7effffffffffffffffffffffffffffffffffffffffffffffffffffffffffffff1916145b90509392505050565b60006022821480156121a85750606a60f81b846000856121689190612898565b81518110612179576121786127f2565b5b602001015160f81c60f81b7effffffffffffffffffffffffffffffffffffffffffffffffffffffffffffff1916145b80156122025750602060f81b846001856121c29190612898565b815181106121d3576121d26127f2565b5b602001015160f81c60f81b7effffffffffffffffffffffffffffffffffffffffffffffffffffffffffffff1916145b90509392505050565b6122228161221a612225612246565b63ffffffff16565b50565b60006a636f6e736f6c652e6c6f679050600080835160208501845afa505050565b61229e819050919050565b82805482825590600052602060002090810192821561228d579160200282015b8281111561228c578251825591602001919060010190612271565b5b50905061229a91906122a8565b5090565b6122a6612cb3565b565b5b808211156122c15760008160009055506001016122a9565b5090565b6000604051905090565b600080fd5b600080fd5b6000819050919050565b6122ec816122d9565b81146122f757600080fd5b50565b600081359050612309816122e3565b92915050565b6000819050919050565b6123228161230f565b811461232d57600080fd5b50565b60008135905061233f81612319565b92915050565b600080600080600060a08688031215612361576123606122cf565b5b600061236f888289016122fa565b9550506020612380888289016122fa565b9450506040612391888289016122fa565b93505060606123a288828901612330565b92505060806123b388828901612330565b9150509295509295909350565b600080fd5b600080fd5b6000601f19601f8301169050919050565b7f4e487b7100000000000000000000000000000000000000000000000000000000600052604160045260246000fd5b612413826123ca565b810181811067ffffffffffffffff82111715612432576124316123db565b5b80604052505050565b60006124456122c5565b9050612451828261240a565b919050565b600067ffffffffffffffff821115612471576124706123db565b5b61247a826123ca565b9050602081019050919050565b82818337600083830152505050565b60006124a96124a484612456565b61243b565b9050828152602081018484840111156124c5576124c46123c5565b5b6124d0848285612487565b509392505050565b600082601f8301126124ed576124ec6123c0565b5b81356124fd848260208601612496565b91505092915050565b600080600080608085870312156125205761251f6122cf565b5b600085013567ffffffffffffffff81111561253e5761253d6122d4565b5b61254a878288016124d8565b945050602085013567ffffffffffffffff81111561256b5761256a6122d4565b5b612577878288016124d8565b935050604085013567ffffffffffffffff811115612598576125976122d4565b5b6125a4878288016124d8565b925050606085013567ffffffffffffffff8111156125c5576125c46122d4565b5b6125d1878288016124d8565b91505092959194509250565b6000602082840312156125f3576125f26122cf565b5b600082013567ffffffffffffffff811115612611576126106122d4565b5b61261d848285016124d8565b91505092915050565b61262f8161230f565b82525050565b61263e816122d9565b82525050565b60006101008201905061265a600083018b612626565b612667602083018a612635565b6126746040830189612635565b6126816060830188612635565b61268e6080830187612626565b61269b60a0830186612635565b6126a860c0830185612626565b6126b560e0830184612635565b9998505050505050505050565b60006020820190506126d76000830184612626565b92915050565b60006040820190506126f26000830185612626565b6126ff6020830184612635565b9392505050565b60008060006060848603121561271f5761271e6122cf565b5b600084013567ffffffffffffffff81111561273d5761273c6122d4565b5b612749868287016124d8565b935050602084013567ffffffffffffffff81111561276a576127696122d4565b5b612776868287016124d8565b925050604084013567ffffffffffffffff811115612797576127966122d4565b5b6127a3868287016124d8565b9150509250925092565b60006080820190506127c26000830187612626565b6127cf6020830186612635565b6127dc6040830185612635565b6127e96060830184612635565b95945050505050565b7f4e487b7100000000000000000000000000000000000000000000000000000000600052603260045260246000fd5b7f4e487b7100000000000000000000000000000000000000000000000000000000600052601160045260246000fd5b600061285b8261230f565b91507fffffffffffffffffffffffffffffffffffffffffffffffffffffffffffffffff820361288d5761288c612821565b5b600182019050919050565b60006128a38261230f565b91506128ae8361230f565b92508282019050808211156128c6576128c5612821565b5b92915050565b600081519050919050565b600082825260208201905092915050565b60005b838110156129065780820151818401526020810190506128eb565b60008484015250505050565b600061291d826128cc565b61292781856128d7565b93506129378185602086016128e8565b612940816123ca565b840191505092915050565b600060408201905081810360008301526129658185612912565b90506129746020830184612626565b9392505050565b60006129868261230f565b91506129918361230f565b925082820261299f8161230f565b915082820484148315176129b6576129b5612821565b5b5092915050565b60006129c88261230f565b9150600082036129db576129da612821565b5b600182039050919050565b60006040820190506129fb6000830185612626565b612a086020830184612626565b9392505050565b60006040820190508181036000830152612a298185612912565b90508181036020830152612a3d8184612912565b90509392505050565b600061ffff82169050919050565b6000612a5f82612a46565b9150612a6a83612a46565b9250828202612a7881612a46565b9150808214612a8a57612a89612821565b5b5092915050565b600063ffffffff82169050919050565b6000612aac82612a91565b9150612ab783612a91565b9250828202612ac581612a91565b9150808214612ad757612ad6612821565b5b5092915050565b600067ffffffffffffffff82169050919050565b6000612afd82612ade565b9150612b0883612ade565b9250828202612b1681612ade565b9150808214612b2857612b27612821565b5b5092915050565b60006020820190508181036000830152612b498184612912565b905092915050565b6000612b5c8261230f565b9150612b678361230f565b9250828203905081811115612b7f57612b7e612821565b5b92915050565b600073ffffffffffffffffffffffffffffffffffffffff82169050919050565b6000612bb082612b85565b9150612bbb83612b85565b9250828203905073ffffffffffffffffffffffffffffffffffffffff811115612be757612be6612821565b5b92915050565b6000612bf882612b85565b9150612c0383612b85565b9250828202612c1181612b85565b91508282048414831517612c2857612c27612821565b5b5092915050565b6000612c3a82612b85565b9150612c4583612b85565b9250828201905073ffffffffffffffffffffffffffffffffffffffff811115612c7157612c70612821565b5b92915050565b6000612c8282612b85565b915073ffffffffffffffffffffffffffffffffffffffff8203612ca857612ca7612821565b5b600182019050919050565b7f4e487b7100000000000000000000000000000000000000000000000000000000600052605160045260246000fdfea2646970667358221220fed43198a9e1800977812c309582cd1adf55d4cb840f6ca7116ac2c0c8bb522d64736f6c63430008130033",
  "linkReferences": {},
  "deployedLinkReferences": {}
}