{
  "_format": "hh-sol-artifact-1",
  "contractName": "LNBridge",
  "sourceName": "contracts/LNBridge.sol",
  "abi": [
    {
      "inputs": [
        {
          "internalType": "uint256",
          "name": "value",
          "type": "uint256"
        },
        {
          "internalType": "uint256",
          "name": "length",
          "type": "uint256"
        }
      ],
      "name": "StringsInsufficientHexLength",
      "type": "error"
    },
    {
      "inputs": [
        {
          "internalType": "bytes",
          "name": "rawTxP_locked",
          "type": "bytes"
        },
        {
          "internalType": "bytes",
          "name": "sigV",
          "type": "bytes"
        },
        {
          "internalType": "bytes",
          "name": "rawTxV_unlocked",
          "type": "bytes"
        },
        {
          "internalType": "bytes",
          "name": "sigP",
          "type": "bytes"
        }
      ],
      "name": "dispute",
      "outputs": [],
      "stateMutability": "nonpayable",
      "type": "function"
    },
    {
      "inputs": [
        {
          "internalType": "bytes",
          "name": "_txBytes",
          "type": "bytes"
        }
      ],
      "name": "getTheThreeOutputs",
      "outputs": [
        {
          "internalType": "uint256",
          "name": "",
          "type": "uint256"
        },
        {
          "internalType": "bytes32",
          "name": "",
          "type": "bytes32"
        },
        {
          "internalType": "uint256",
          "name": "",
          "type": "uint256"
        },
        {
          "internalType": "bytes32",
          "name": "",
          "type": "bytes32"
        }
      ],
      "stateMutability": "nonpayable",
      "type": "function"
    },
    {
      "inputs": [
        {
          "internalType": "bytes",
          "name": "oldRevSecret",
          "type": "bytes"
        },
        {
          "internalType": "bytes",
          "name": "rawTxP_unlocked",
          "type": "bytes"
        },
        {
          "internalType": "bytes",
          "name": "sigV",
          "type": "bytes"
        }
      ],
      "name": "resolveDispute",
      "outputs": [],
      "stateMutability": "nonpayable",
      "type": "function"
    },
    {
      "inputs": [],
      "name": "settle",
      "outputs": [],
      "stateMutability": "nonpayable",
      "type": "function"
    },
    {
      "inputs": [
        {
          "internalType": "bytes32",
          "name": "_fundingTxId",
          "type": "bytes32"
        },
        {
          "internalType": "bytes32",
          "name": "_pkProver",
          "type": "bytes32"
        },
        {
          "internalType": "bytes32",
          "name": "_pkVerifier",
          "type": "bytes32"
        },
        {
          "internalType": "uint256",
          "name": "_index",
          "type": "uint256"
        },
        {
          "internalType": "uint256",
          "name": "_timestamp",
          "type": "uint256"
        }
      ],
      "name": "setup",
      "outputs": [],
      "stateMutability": "nonpayable",
      "type": "function"
    },
    {
      "inputs": [
        {
          "internalType": "bytes",
          "name": "rawTxP_unlocked",
          "type": "bytes"
        },
        {
          "internalType": "bytes",
          "name": "sigV",
          "type": "bytes"
        },
        {
          "internalType": "bytes",
          "name": "rawTxV_unlocked",
          "type": "bytes"
        },
        {
          "internalType": "bytes",
          "name": "sigP",
          "type": "bytes"
        }
      ],
      "name": "submitProof",
      "outputs": [],
      "stateMutability": "nonpayable",
      "type": "function"
    },
    {
      "inputs": [],
      "name": "timestamp",
      "outputs": [
        {
          "internalType": "uint256",
          "name": "",
          "type": "uint256"
        }
      ],
      "stateMutability": "view",
      "type": "function"
    },
    {
      "inputs": [],
      "name": "timestamp_dispute",
      "outputs": [
        {
          "internalType": "uint256",
          "name": "",
          "type": "uint256"
        }
      ],
      "stateMutability": "view",
      "type": "function"
    },
    {
      "inputs": [
        {
          "internalType": "bytes",
          "name": "pk",
          "type": "bytes"
        },
        {
          "internalType": "bytes32",
          "name": "digest",
          "type": "bytes32"
        },
        {
          "internalType": "uint8",
          "name": "v",
          "type": "uint8"
        },
        {
          "internalType": "bytes32",
          "name": "r",
          "type": "bytes32"
        },
        {
          "internalType": "bytes32",
          "name": "s",
          "type": "bytes32"
        }
      ],
      "name": "verifySignature",
      "outputs": [
        {
          "internalType": "bool",
          "name": "",
          "type": "bool"
        }
      ],
      "stateMutability": "view",
      "type": "function"
    }
  ],
  "bytecode": "0x608060405234801561001057600080fd5b50612885806100206000396000f3fe608060405234801561001057600080fd5b50600436106100935760003560e01c806347aa95731161006657806347aa9573146100f657806379a85bd914610126578063a5dd32ac14610142578063a9f793aa14610160578063b80777ea1461019357610093565b806306ac0e261461009857806311da60b4146100b45780633740d249146100be57806343f104d2146100da575b600080fd5b6100b260048036038101906100ad9190611c6b565b6101b1565b005b6100bc6101db565b005b6100d860048036038101906100d39190611e2c565b6101dd565b005b6100f460048036038101906100ef9190611e2c565b6101e3565b005b610110600480360381019061010b9190611f3c565b6101e9565b60405161011d9190611fee565b60405180910390f35b610140600480360381019061013b9190612009565b610203565b005b61014a610208565b60405161015791906120bf565b60405180910390f35b61017a600480360381019061017591906120da565b61020e565b60405161018a9493929190612132565b60405180910390f35b61019b6103f8565b6040516101a891906120bf565b60405180910390f35b84600081905550836001819055508260028190555081600381905550806004819055505050505050565b565b50505050565b50505050565b60006101f886868686866103fe565b905095945050505050565b505050565b60055481565b6000806000806000806000806000806102268b6104e0565b809650819750829850839950849a50859b5050505050505061027d6040518060400160405280600a81526020017f436865636b206f6e653a00000000000000000000000000000000000000000000815250876107eb565b6102c96040518060400160405280600a81526020017f436865636b2074776f3a000000000000000000000000000000000000000000008152506102c48760001c6020610887565b610acd565b6103086040518060400160405280600c81526020017f436865636b2074687265653a0000000000000000000000000000000000000000815250856107eb565b6103546040518060400160405280600b81526020017f436865636b20666f75723a00000000000000000000000000000000000000000081525061034f8560001c6020610887565b610acd565b6103936040518060400160405280600b81526020017f436865636b20666976653a000000000000000000000000000000000000000000815250836107eb565b6103df6040518060400160405280600a81526020017f436865636b207369783a000000000000000000000000000000000000000000008152506103da8360001c6020610887565b610acd565b8585858599509950995099505050505050509193509193565b60045481565b60006040865114610444576040517f08c379a000000000000000000000000000000000000000000000000000000000815260040161043b90612220565b60405180910390fd5b600061044f87610b69565b9050600060018787878760405160008152602001604052604051610476949392919061224f565b6020604051602081039080840390855afa158015610498573d6000803e3d6000fd5b5050506020604051035190508173ffffffffffffffffffffffffffffffffffffffff168173ffffffffffffffffffffffffffffffffffffffff16149250505095945050505050565b600080600080600080600080600267ffffffffffffffff81111561050757610506611d01565b5b6040519080825280602002602001820160405280156105355781602001602082028036833780820191505090505b5090506000600367ffffffffffffffff81111561055557610554611d01565b5b6040519080825280602002602001820160405280156105835781602001602082028036833780820191505090505b5090506000600367ffffffffffffffff8111156105a3576105a2611d01565b5b6040519080825280602002602001820160405280156105d15781602001602082028036833780820191505090505b5090506000600367ffffffffffffffff8111156105f1576105f0611d01565b5b60405190808252806020026020018201604052801561061f5781602001602082028036833780820191505090505b5090506000600367ffffffffffffffff81111561063f5761063e611d01565b5b60405190808252806020026020018201604052801561066d5781602001602082028036833780820191505090505b509050600495506106808d876000610be1565b80975081965050506106948d876000610cf3565b8099508197508296508395505050505060005b60038110156107275760006106f18f8684815181106106c9576106c8612294565b5b60200260200101518885815181106106e4576106e3612294565b5b6020026020010151610eea565b90508083838151811061070757610706612294565b5b60200260200101818152505050808061071f906122f2565b9150506106a7565b508160008151811061073c5761073b612294565b5b60200260200101518160008151811061075857610757612294565b5b60200260200101518360018151811061077457610773612294565b5b6020026020010151836001815181106107905761078f612294565b5b6020026020010151856002815181106107ac576107ab612294565b5b6020026020010151856002815181106107c8576107c7612294565b5b60200260200101519b509b509b509b509b509b5050505050505091939550919395565b61088382826040516024016108019291906123a8565b6040516020818303038152906040527fb60e72cc000000000000000000000000000000000000000000000000000000007bffffffffffffffffffffffffffffffffffffffffffffffffffffffff19166020820180517bffffffffffffffffffffffffffffffffffffffffffffffffffffffff8381831617835250505050610f9f565b5050565b606060008390506000600284600261089f91906123d8565b6108a9919061241a565b67ffffffffffffffff8111156108c2576108c1611d01565b5b6040519080825280601f01601f1916602001820160405280156108f45781602001600182028036833780820191505090505b5090507f30000000000000000000000000000000000000000000000000000000000000008160008151811061092c5761092b612294565b5b60200101907effffffffffffffffffffffffffffffffffffffffffffffffffffffffffffff1916908160001a9053507f7800000000000000000000000000000000000000000000000000000000000000816001815181106109905761098f612294565b5b60200101907effffffffffffffffffffffffffffffffffffffffffffffffffffffffffffff1916908160001a905350600060018560026109d091906123d8565b6109da919061241a565b90505b6001811115610a7a577f3031323334353637383961626364656600000000000000000000000000000000600f841660108110610a1c57610a1b612294565b5b1a60f81b828281518110610a3357610a32612294565b5b60200101907effffffffffffffffffffffffffffffffffffffffffffffffffffffffffffff1916908160001a905350600483901c925080610a739061244e565b90506109dd565b5060008214610ac25784846040517fe22e27eb000000000000000000000000000000000000000000000000000000008152600401610ab9929190612477565b60405180910390fd5b809250505092915050565b610b658282604051602401610ae39291906124a0565b6040516020818303038152906040527f4b5c4277000000000000000000000000000000000000000000000000000000007bffffffffffffffffffffffffffffffffffffffffffffffffffffffff19166020820180517bffffffffffffffffffffffffffffffffffffffffffffffffffffffff8381831617835250505050610f9f565b5050565b60006040825114610baf576040517f08c379a0000000000000000000000000000000000000000000000000000000008152600401610ba690612549565b60405180910390fd5b6000610bd3610bc8600085610fb990919063ffffffff16565b62ffffff1916610fe4565b90508060001c915050919050565b6060600080600080610bf38888611027565b80985081945050506000861480610c0957508286115b15610c1657829150610c1a565b8591505b60008267ffffffffffffffff811115610c3657610c35611d01565b5b604051908082528060200260200182016040528015610c645781602001602082028036833780820191505090505b50905060005b83811015610ce057602489610c7f919061241a565b9850610c8b8a8a611027565b809a50819450505082828281518110610ca757610ca6612294565b5b602002602001018181525050600483610cc0919061241a565b89610ccb919061241a565b98508080610cd8906122f2565b915050610c6a565b5080889550955050505050935093915050565b6060806060600080600080610d088a8a611027565b809a5081945050506000881480610d1e57508288115b15610d2b57829150610d2f565b8791505b60008267ffffffffffffffff811115610d4b57610d4a611d01565b5b604051908082528060200260200182016040528015610d795781602001602082028036833780820191505090505b50905060008367ffffffffffffffff811115610d9857610d97611d01565b5b604051908082528060200260200182016040528015610dc65781602001602082028036833780820191505090505b50905060008467ffffffffffffffff811115610de557610de4611d01565b5b604051908082528060200260200182016040528015610e135781602001602082028036833780820191505090505b50905060005b85811015610ece57610e2d8e8e604061110f565b828281518110610e4057610e3f612294565b5b60200260200101818152505060088d610e59919061241a565b9c50610e658e8e611027565b809e5081965050508c848281518110610e8157610e80612294565b5b60200260200101818152505084838281518110610ea157610ea0612294565b5b602002602001018181525050848d610eb9919061241a565b9c508080610ec6906122f2565b915050610e19565b508083838e995099509950995050505050505093509350935093565b6000610ef784848461157a565b15610f2857610f1284600385610f0d919061241a565b61173f565b6bffffffffffffffffffffffff19169050610f98565b610f33848484611822565b15610f6457610f4e84600285610f49919061241a565b61173f565b6bffffffffffffffffffffffff19169050610f98565b610f6f84848461193f565b15610f9157610f8a84600285610f85919061241a565b611a02565b9050610f98565b6000801b90505b9392505050565b610fb681610fae611a8d611aae565b63ffffffff16565b50565b600080835190506000602085019050610fda8464ffffffffff168284611ab9565b9250505092915050565b600080610ff083611b27565b6bffffffffffffffffffffffff169050600061100b84611b47565b6bffffffffffffffffffffffff16905080822092505050919050565b600080600084848151811061103f5761103e612294565b5b602001015160f81c60f81b60f81c905060018461105c919061241a565b935060fd8160ff16101561107c5780848160ff1691509250925050611108565b60fd8160ff16036110aa576110938585601061110f565b6002856110a0919061241a565b9250925050611108565b60fe8160ff16036110d8576110c18585602061110f565b6004856110ce919061241a565b9250925050611108565b60ff8160ff1603611106576110ef8585604061110f565b6008856110fc919061241a565b9250925050611108565b505b9250929050565b6000600882036111445783838151811061112c5761112b612294565b5b602001015160f81c60f81b60f81c60ff169050611573565b601082036111c6576101008460018561115d919061241a565b8151811061116e5761116d612294565b5b602001015160f81c60f81b60f81c60ff166111899190612577565b61ffff168484815181106111a05761119f612294565b5b602001015160f81c60f81b60f81c60ff1661ffff166111bf919061241a565b9050611573565b602082036112e9576301000000846003856111e1919061241a565b815181106111f2576111f1612294565b5b602001015160f81c60f81b60f81c60ff1661120d91906125c4565b63ffffffff166201000085600286611225919061241a565b8151811061123657611235612294565b5b602001015160f81c60f81b60f81c60ff1661125191906125c4565b63ffffffff1661010086600187611268919061241a565b8151811061127957611278612294565b5b602001015160f81c60f81b60f81c60ff1661129491906125c4565b63ffffffff168686815181106112ad576112ac612294565b5b602001015160f81c60f81b60f81c60ff1663ffffffff166112ce919061241a565b6112d8919061241a565b6112e2919061241a565b9050611573565b604082036115725767010000000000000084600785611308919061241a565b8151811061131957611318612294565b5b602001015160f81c60f81b60f81c60ff166113349190612615565b67ffffffffffffffff16660100000000000085600686611354919061241a565b8151811061136557611364612294565b5b602001015160f81c60f81b60f81c60ff166113809190612615565b67ffffffffffffffff16650100000000008660058761139f919061241a565b815181106113b0576113af612294565b5b602001015160f81c60f81b60f81c60ff166113cb9190612615565b67ffffffffffffffff16640100000000876004886113e9919061241a565b815181106113fa576113f9612294565b5b602001015160f81c60f81b60f81c60ff166114159190612615565b67ffffffffffffffff16630100000088600389611432919061241a565b8151811061144357611442612294565b5b602001015160f81c60f81b60f81c60ff1661145e9190612615565b67ffffffffffffffff16620100008960028a61147a919061241a565b8151811061148b5761148a612294565b5b602001015160f81c60f81b60f81c60ff166114a69190612615565b67ffffffffffffffff166101008a60018b6114c1919061241a565b815181106114d2576114d1612294565b5b602001015160f81c60f81b60f81c60ff166114ed9190612615565b67ffffffffffffffff168a8a8151811061150a57611509612294565b5b602001015160f81c60f81b60f81c60ff1667ffffffffffffffff1661152f919061241a565b611539919061241a565b611543919061241a565b61154d919061241a565b611557919061241a565b611561919061241a565b61156b919061241a565b9050611573565b5b9392505050565b60006019821480156115ce5750607660f81b84848151811061159f5761159e612294565b5b602001015160f81c60f81b7effffffffffffffffffffffffffffffffffffffffffffffffffffffffffffff1916145b8015611628575060a960f81b846001856115e8919061241a565b815181106115f9576115f8612294565b5b602001015160f81c60f81b7effffffffffffffffffffffffffffffffffffffffffffffffffffffffffffff1916145b80156116825750601460f81b84600285611642919061241a565b8151811061165357611652612294565b5b602001015160f81c60f81b7effffffffffffffffffffffffffffffffffffffffffffffffffffffffffffff1916145b80156116dc5750608860f81b8460178561169c919061241a565b815181106116ad576116ac612294565b5b602001015160f81c60f81b7effffffffffffffffffffffffffffffffffffffffffffffffffffffffffffff1916145b8015611736575060ac60f81b846018856116f6919061241a565b8151811061170757611706612294565b5b602001015160f81c60f81b7effffffffffffffffffffffffffffffffffffffffffffffffffffffffffffff1916145b90509392505050565b6000806000905060005b60148173ffffffffffffffffffffffffffffffffffffffff161015611814578060136117759190612672565b600861178191906126ba565b73ffffffffffffffffffffffffffffffffffffffff1685858373ffffffffffffffffffffffffffffffffffffffff166117ba919061241a565b815181106117cb576117ca612294565b5b602001015160f81c60f81b60f81c60ff1673ffffffffffffffffffffffffffffffffffffffff16901b826117ff91906126fc565b9150808061180c90612744565b915050611749565b508060601b91505092915050565b6000601782148015611882575060a960f81b84600085611842919061241a565b8151811061185357611852612294565b5b602001015160f81c60f81b7effffffffffffffffffffffffffffffffffffffffffffffffffffffffffffff1916145b80156118dc5750601460f81b8460018561189c919061241a565b815181106118ad576118ac612294565b5b602001015160f81c60f81b7effffffffffffffffffffffffffffffffffffffffffffffffffffffffffffff1916145b80156119365750608760f81b846016856118f6919061241a565b8151811061190757611906612294565b5b602001015160f81c60f81b7effffffffffffffffffffffffffffffffffffffffffffffffffffffffffffff1916145b90509392505050565b600060228214801561199f5750606a60f81b8460008561195f919061241a565b815181106119705761196f612294565b5b602001015160f81c60f81b7effffffffffffffffffffffffffffffffffffffffffffffffffffffffffffff1916145b80156119f95750602060f81b846001856119b9919061241a565b815181106119ca576119c9612294565b5b602001015160f81c60f81b7effffffffffffffffffffffffffffffffffffffffffffffffffffffffffffff1916145b90509392505050565b6000806000905060005b6020811015611a7f5780601f611a229190612780565b6008611a2e91906123d8565b858583611a3b919061241a565b81518110611a4c57611a4b612294565b5b602001015160f81c60f81b60f81c60ff16901b82611a6a919061241a565b91508080611a77906122f2565b915050611a0c565b508060001b91505092915050565b60006a636f6e736f6c652e6c6f679050600080835160208501845afa505050565b611be1819050919050565b600080611acf8385611b6790919063ffffffff16565b9050604051811115611ae057600090505b60008103611b11577fffffffffffffffffffffffffffffffffffffffffffffffffffffffffff000000915050611b20565b611b1c858585611bc0565b9150505b9392505050565b6000806bffffffffffffffffffffffff9050808360781c16915050919050565b6000806bffffffffffffffffffffffff9050808360181c16915050919050565b60008183611b75919061241a565b905082811015611bba576040517f08c379a0000000000000000000000000000000000000000000000000000000008152600401611bb190612800565b60405180910390fd5b92915050565b600083811760601b905082811760601b905081811760181b90509392505050565b611be9612820565b565b6000604051905090565b600080fd5b600080fd5b6000819050919050565b611c1281611bff565b8114611c1d57600080fd5b50565b600081359050611c2f81611c09565b92915050565b6000819050919050565b611c4881611c35565b8114611c5357600080fd5b50565b600081359050611c6581611c3f565b92915050565b600080600080600060a08688031215611c8757611c86611bf5565b5b6000611c9588828901611c20565b9550506020611ca688828901611c20565b9450506040611cb788828901611c20565b9350506060611cc888828901611c56565b9250506080611cd988828901611c56565b9150509295509295909350565b600080fd5b600080fd5b6000601f19601f8301169050919050565b7f4e487b7100000000000000000000000000000000000000000000000000000000600052604160045260246000fd5b611d3982611cf0565b810181811067ffffffffffffffff82111715611d5857611d57611d01565b5b80604052505050565b6000611d6b611beb565b9050611d778282611d30565b919050565b600067ffffffffffffffff821115611d9757611d96611d01565b5b611da082611cf0565b9050602081019050919050565b82818337600083830152505050565b6000611dcf611dca84611d7c565b611d61565b905082815260208101848484011115611deb57611dea611ceb565b5b611df6848285611dad565b509392505050565b600082601f830112611e1357611e12611ce6565b5b8135611e23848260208601611dbc565b91505092915050565b60008060008060808587031215611e4657611e45611bf5565b5b600085013567ffffffffffffffff811115611e6457611e63611bfa565b5b611e7087828801611dfe565b945050602085013567ffffffffffffffff811115611e9157611e90611bfa565b5b611e9d87828801611dfe565b935050604085013567ffffffffffffffff811115611ebe57611ebd611bfa565b5b611eca87828801611dfe565b925050606085013567ffffffffffffffff811115611eeb57611eea611bfa565b5b611ef787828801611dfe565b91505092959194509250565b600060ff82169050919050565b611f1981611f03565b8114611f2457600080fd5b50565b600081359050611f3681611f10565b92915050565b600080600080600060a08688031215611f5857611f57611bf5565b5b600086013567ffffffffffffffff811115611f7657611f75611bfa565b5b611f8288828901611dfe565b9550506020611f9388828901611c20565b9450506040611fa488828901611f27565b9350506060611fb588828901611c20565b9250506080611fc688828901611c20565b9150509295509295909350565b60008115159050919050565b611fe881611fd3565b82525050565b60006020820190506120036000830184611fdf565b92915050565b60008060006060848603121561202257612021611bf5565b5b600084013567ffffffffffffffff8111156120405761203f611bfa565b5b61204c86828701611dfe565b935050602084013567ffffffffffffffff81111561206d5761206c611bfa565b5b61207986828701611dfe565b925050604084013567ffffffffffffffff81111561209a57612099611bfa565b5b6120a686828701611dfe565b9150509250925092565b6120b981611c35565b82525050565b60006020820190506120d460008301846120b0565b92915050565b6000602082840312156120f0576120ef611bf5565b5b600082013567ffffffffffffffff81111561210e5761210d611bfa565b5b61211a84828501611dfe565b91505092915050565b61212c81611bff565b82525050565b600060808201905061214760008301876120b0565b6121546020830186612123565b61216160408301856120b0565b61216e6060830184612123565b95945050505050565b600082825260208201905092915050565b7f436865636b426974636f696e536967732f636865636b536967202d2d2052657160008201527f756972657320756e636f6d7072657373656420756e707265666978656420707560208201527f626b657900000000000000000000000000000000000000000000000000000000604082015250565b600061220a604483612177565b915061221582612188565b606082019050919050565b60006020820190508181036000830152612239816121fd565b9050919050565b61224981611f03565b82525050565b60006080820190506122646000830187612123565b6122716020830186612240565b61227e6040830185612123565b61228b6060830184612123565b95945050505050565b7f4e487b7100000000000000000000000000000000000000000000000000000000600052603260045260246000fd5b7f4e487b7100000000000000000000000000000000000000000000000000000000600052601160045260246000fd5b60006122fd82611c35565b91507fffffffffffffffffffffffffffffffffffffffffffffffffffffffffffffffff820361232f5761232e6122c3565b5b600182019050919050565b600081519050919050565b60005b83811015612363578082015181840152602081019050612348565b60008484015250505050565b600061237a8261233a565b6123848185612177565b9350612394818560208601612345565b61239d81611cf0565b840191505092915050565b600060408201905081810360008301526123c2818561236f565b90506123d160208301846120b0565b9392505050565b60006123e382611c35565b91506123ee83611c35565b92508282026123fc81611c35565b91508282048414831517612413576124126122c3565b5b5092915050565b600061242582611c35565b915061243083611c35565b9250828201905080821115612448576124476122c3565b5b92915050565b600061245982611c35565b91506000820361246c5761246b6122c3565b5b600182039050919050565b600060408201905061248c60008301856120b0565b61249960208301846120b0565b9392505050565b600060408201905081810360008301526124ba818561236f565b905081810360208301526124ce818461236f565b90509392505050565b7f5075626b6579206d7573742062652036342d62797465207261772c20756e636f60008201527f6d70726573736564206b65792e00000000000000000000000000000000000000602082015250565b6000612533602d83612177565b915061253e826124d7565b604082019050919050565b6000602082019050818103600083015261256281612526565b9050919050565b600061ffff82169050919050565b600061258282612569565b915061258d83612569565b925082820261259b81612569565b91508082146125ad576125ac6122c3565b5b5092915050565b600063ffffffff82169050919050565b60006125cf826125b4565b91506125da836125b4565b92508282026125e8816125b4565b91508082146125fa576125f96122c3565b5b5092915050565b600067ffffffffffffffff82169050919050565b600061262082612601565b915061262b83612601565b925082820261263981612601565b915080821461264b5761264a6122c3565b5b5092915050565b600073ffffffffffffffffffffffffffffffffffffffff82169050919050565b600061267d82612652565b915061268883612652565b9250828203905073ffffffffffffffffffffffffffffffffffffffff8111156126b4576126b36122c3565b5b92915050565b60006126c582612652565b91506126d083612652565b92508282026126de81612652565b915082820484148315176126f5576126f46122c3565b5b5092915050565b600061270782612652565b915061271283612652565b9250828201905073ffffffffffffffffffffffffffffffffffffffff81111561273e5761273d6122c3565b5b92915050565b600061274f82612652565b915073ffffffffffffffffffffffffffffffffffffffff8203612775576127746122c3565b5b600182019050919050565b600061278b82611c35565b915061279683611c35565b92508282039050818111156127ae576127ad6122c3565b5b92915050565b7f4f766572666c6f7720647572696e67206164646974696f6e2e00000000000000600082015250565b60006127ea601983612177565b91506127f5826127b4565b602082019050919050565b60006020820190508181036000830152612819816127dd565b9050919050565b7f4e487b7100000000000000000000000000000000000000000000000000000000600052605160045260246000fdfea2646970667358221220819e351c83c232ab017d4509ce02dca2cffed6f8cdf55a3c6a2373baf3a2965b64736f6c63430008130033",
  "linkReferences": {},
  "deployedLinkReferences": {}
}