{
  "_format": "hh-sol-artifact-1",
  "contractName": "LNBridge",
  "sourceName": "contracts/LNBridge.sol",
  "abi": [
    {
      "anonymous": false,
      "inputs": [
        {
          "indexed": false,
          "internalType": "string",
          "name": "label",
          "type": "string"
        },
        {
          "indexed": false,
          "internalType": "bool",
          "name": "stateStatus",
          "type": "bool"
        }
      ],
      "name": "stateEvent",
      "type": "event"
    },
    {
      "inputs": [],
      "name": "balanceDistr",
      "outputs": [
        {
          "internalType": "uint256",
          "name": "balP",
          "type": "uint256"
        },
        {
          "internalType": "uint256",
          "name": "balV",
          "type": "uint256"
        }
      ],
      "stateMutability": "view",
      "type": "function"
    },
    {
      "inputs": [],
      "name": "bridge",
      "outputs": [
        {
          "internalType": "bytes32",
          "name": "fundingTxId",
          "type": "bytes32"
        },
        {
          "internalType": "bytes",
          "name": "fundingTx_script",
          "type": "bytes"
        },
        {
          "internalType": "bytes4",
          "name": "fundingTx_index",
          "type": "bytes4"
        },
        {
          "internalType": "bytes",
          "name": "sighash",
          "type": "bytes"
        },
        {
          "internalType": "bytes",
          "name": "pkProver_Uncompressed",
          "type": "bytes"
        },
        {
          "internalType": "bytes",
          "name": "pkVerifier_Uncompressed",
          "type": "bytes"
        },
        {
          "internalType": "uint256",
          "name": "timelock",
          "type": "uint256"
        },
        {
          "internalType": "uint256",
          "name": "timelock_dispute",
          "type": "uint256"
        }
      ],
      "stateMutability": "view",
      "type": "function"
    },
    {
      "inputs": [
        {
          "internalType": "bytes",
          "name": "CT_P_locked",
          "type": "bytes"
        },
        {
          "internalType": "bytes",
          "name": "CT_V_unlocked",
          "type": "bytes"
        }
      ],
      "name": "dispute",
      "outputs": [],
      "stateMutability": "nonpayable",
      "type": "function"
    },
    {
      "inputs": [
        {
          "internalType": "bytes",
          "name": "revSecret",
          "type": "bytes"
        }
      ],
      "name": "resolveInvalidDispute",
      "outputs": [],
      "stateMutability": "nonpayable",
      "type": "function"
    },
    {
      "inputs": [
        {
          "internalType": "bytes",
          "name": "CT_P_unlocked",
          "type": "bytes"
        }
      ],
      "name": "resolveValidDispute",
      "outputs": [],
      "stateMutability": "nonpayable",
      "type": "function"
    },
    {
      "inputs": [],
      "name": "settle",
      "outputs": [],
      "stateMutability": "payable",
      "type": "function"
    },
    {
      "inputs": [
        {
          "internalType": "bytes32",
          "name": "_fundingTxId",
          "type": "bytes32"
        },
        {
          "internalType": "bytes",
          "name": "_fundingTx_script",
          "type": "bytes"
        },
        {
          "internalType": "bytes4",
          "name": "_fundingTx_index",
          "type": "bytes4"
        },
        {
          "internalType": "bytes",
          "name": "_sighash",
          "type": "bytes"
        },
        {
          "internalType": "bytes",
          "name": "_pkProver_Uncompressed",
          "type": "bytes"
        },
        {
          "internalType": "bytes",
          "name": "_pkVerifier_Uncompressed",
          "type": "bytes"
        },
        {
          "internalType": "uint256",
          "name": "_timelock",
          "type": "uint256"
        },
        {
          "internalType": "uint256",
          "name": "_timelock_dispute",
          "type": "uint256"
        }
      ],
      "name": "setup",
      "outputs": [],
      "stateMutability": "nonpayable",
      "type": "function"
    },
    {
      "inputs": [],
      "name": "state",
      "outputs": [
        {
          "internalType": "bool",
          "name": "validProofSubmitted",
          "type": "bool"
        },
        {
          "internalType": "bool",
          "name": "disputeOpened",
          "type": "bool"
        },
        {
          "internalType": "bool",
          "name": "disputeClosedP",
          "type": "bool"
        },
        {
          "internalType": "bool",
          "name": "disputeClosedV",
          "type": "bool"
        }
      ],
      "stateMutability": "view",
      "type": "function"
    },
    {
      "inputs": [
        {
          "internalType": "bytes",
          "name": "CT_P_unlocked",
          "type": "bytes"
        },
        {
          "internalType": "bytes",
          "name": "CT_V_unlocked",
          "type": "bytes"
        }
      ],
      "name": "submitProof",
      "outputs": [],
      "stateMutability": "nonpayable",
      "type": "function"
    }
  ],
  "bytecode": "0x608060405234801561001057600080fd5b506140c1806100206000396000f3fe6080604052600436106100865760003560e01c8063761553911161005957806376155391146100cb578063b0ced61d146100eb578063c19d93fb14610120578063e78cea9214610180578063f5cae57d146101a957600080fd5b806311da60b41461008b57806334da56b41461008d5780633aef1477146100ab5780637236d92f1461008d575b600080fd5b005b34801561009957600080fd5b5061008b6100a836600461395d565b50565b3480156100b757600080fd5b5061008b6100c6366004613991565b6101c9565b3480156100d757600080fd5b5061008b6100e6366004613991565b610d6c565b3480156100f757600080fd5b50600954600a54610106919082565b604080519283526020830191909152015b60405180910390f35b34801561012c57600080fd5b506008546101569060ff808216916101008104821691620100008204811691630100000090041684565b60408051941515855292151560208501529015159183019190915215156060820152608001610117565b34801561018c57600080fd5b50610195611010565b604051610117989796959493929190613a50565b3480156101b557600080fd5b5061008b6101c4366004613aeb565b611270565b600654421015610cc65760006101de836112f6565b6001600160e01b031916146102485760405162461bcd60e51b815260206004820152602560248201527f436f6d6d69746d656e74207472616e73616374696f6e206f662050206973206c6044820152641bd8dad95960da1b60648201526084015b60405180910390fd5b6000610253826112f6565b6001600160e01b0319161461027a5760405162461bcd60e51b815260040161023f90613bc5565b61028261371b565b61028a613761565b60408051808201909152600080825260208201526102a785611320565b90845290845290506102b8846115e3565b60208481019190915280850182905260609091015190820151146103445760405162461bcd60e51b815260206004820152603f60248201527f50277320636f6d6d69746d656e74207472616e73616374696f6e20646f65732060448201527f6e6f742068617264636f646520562773207265766f636174696f6e206b657900606482015260840161023f565b602083015151825151146103c05760405162461bcd60e51b815260206004820152603a60248201527f416d6f756e74206d69736d61746368206265747765656e207032706b68206f6660448201527f205020616e64206c696768746e696e672048544c43206f662056000000000000606482015260840161023f565b6020820151518351511461043c5760405162461bcd60e51b815260206004820152603a60248201527f416d6f756e74206d69736d61746368206265747765656e207032706b68206f6660448201527f205620616e64206c696768746e696e672048544c43206f662050000000000000606482015260840161023f565b6000806104d56000600101805461045290613c20565b80601f016020809104026020016040519081016040528092919081815260200182805461047e90613c20565b80156104cb5780601f106104a0576101008083540402835291602001916104cb565b820191906000526020600020905b8154815290600101906020018083116104ae57829003601f168201915b505050505061179b565b85516020908101516040516001600160601b031990911691810191909152919350915060029060340160408051601f198184030181529082905261051891613c5b565b602060405180830381855afa158015610535573d6000803e3d6000fd5b5050506040513d601f19601f820116820180604052508101906105589190613c77565b6002610563836117c1565b6040516105709190613c5b565b602060405180830381855afa15801561058d573d6000803e3d6000fd5b5050506040513d601f19601f820116820180604052508101906105b09190613c77565b146106425760405162461bcd60e51b815260206004820152605660248201527f546865207032706b6820696e2050277320756e6c6f636b656420636f6d6d697460448201527f6d656e74207472616e73616374696f6e20646f6573206e6f7420636f72726573606482015275706f6e6420746f2056657269666965722773206f6e6560501b608482015260a40161023f565b6020808501518101516040516001600160601b03199091169181019190915260029060340160408051601f198184030181529082905261068191613c5b565b602060405180830381855afa15801561069e573d6000803e3d6000fd5b5050506040513d601f19601f820116820180604052508101906106c19190613c77565b60026106cc846117c1565b6040516106d99190613c5b565b602060405180830381855afa1580156106f6573d6000803e3d6000fd5b5050506040513d601f19601f820116820180604052508101906107199190613c77565b146107a95760405162461bcd60e51b815260206004820152605460248201527f546865207032706b6820696e2056277320756e6c6f636b656420636f6d6d697460448201527f6d656e74207472616e73616374696f6e20646f6573206e6f7420636f72726573606482015273706f6e6420746f2050726f7665722773206f6e6560601b608482015260a40161023f565b6000546107b588611893565b60200151146108365760405162461bcd60e51b815260206004820152604160248201527f50277320636f6d6d69746d656e74207472616e73616374696f6e20646f65732060448201527f6e6f74207370656e64207468652066756e64696e67207472616e73616374696f6064820152603760f91b608482015260a40161023f565b60005461084287611893565b60200151146108c35760405162461bcd60e51b815260206004820152604160248201527f56277320636f6d6d69746d656e74207472616e73616374696f6e20646f65732060448201527f6e6f74207370656e64207468652066756e64696e67207472616e73616374696f6064820152603760f91b608482015260a40161023f565b6108cb61379a565b6108d48861196f565b60208201526108e28761196f565b81526108ec6137e6565b610a11896000600101805461090090613c20565b80601f016020809104026020016040519081016040528092919081815260200182805461092c90613c20565b80156109795780601f1061094e57610100808354040283529160200191610979565b820191906000526020600020905b81548152906001019060200180831161095c57829003601f168201915b50505050506000600301805461098e90613c20565b80601f01602080910402602001604051908101604052809291908181526020018280546109ba90613c20565b8015610a075780601f106109dc57610100808354040283529160200191610a07565b820191906000526020600020905b8154815290600101906020018083116109ea57829003601f168201915b5050505050611a8e565b8152604051600290610a2590600590613c90565b602060405180830381855afa158015610a42573d6000803e3d6000fd5b5050506040513d601f19601f82011682018060405250810190610a659190613c77565b6002610aaf8360005b6020020151856001602002015151610a938760015b6020020151602001516000611af0565b610aaa8860015b6020020151604001516000611af0565b611b4e565b604051610abc9190613c5b565b602060405180830381855afa158015610ad9573d6000803e3d6000fd5b5050506040513d601f19601f82011682018060405250810190610afc9190613c77565b14610b195760405162461bcd60e51b815260040161023f90613d2c565b610b2d886000600101805461090090613c20565b6020820152604051600290610b4490600490613c90565b602060405180830381855afa158015610b61573d6000803e3d6000fd5b5050506040513d601f19601f82011682018060405250810190610b849190613c77565b6002610bab8360015b6020020151855151610ba0876000610a83565b610aaa886000610a9a565b604051610bb89190613c5b565b602060405180830381855afa158015610bd5573d6000803e3d6000fd5b5050506040513d601f19601f82011682018060405250810190610bf89190613c77565b14610c155760405162461bcd60e51b815260040161023f90613d89565b6008805460ff191660019081179091556040517f7cb76fce4caeb1fe1b0dd56de53b408af770b76cf5e9c88a1e2568a7d1e9889f91610cb3916040808252603d908201527f50726f6f66207375636365737366756c6c792076657269666965643a2073746160608201527f74652e76616c696450726f6f665375626d6974746564203d20747275650000006080820152901515602082015260a00190565b60405180910390a1505050505050505050565b60085460408051818152603b818301527f50726f6f66207375626d697474656420746f6f206c6174653a2073746174652e60608201527f76616c696450726f6f665375626d6974746564203d2066616c73650000000000608082015260ff90921615156020830152517f7cb76fce4caeb1fe1b0dd56de53b408af770b76cf5e9c88a1e2568a7d1e9889f9181900360a00190a1600854610d689060ff16611b97565b5050565b6000610d77836112f6565b6001600160e01b0319161415610ddf5760405162461bcd60e51b815260206004820152602760248201527f436f6d6d69746d656e74207472616e73616374696f6e206f66205020697320756044820152661b9b1bd8dad95960ca1b606482015260840161023f565b6000610dea826112f6565b6001600160e01b03191614610e115760405162461bcd60e51b815260040161023f90613bc5565b610e1961379a565b610e228361196f565b6020820152610e308261196f565b8152610e3a6137e6565b610e4e846000600101805461090090613c20565b8152604051600290610e6290600590613c90565b602060405180830381855afa158015610e7f573d6000803e3d6000fd5b5050506040513d601f19601f82011682018060405250810190610ea29190613c77565b6002610eaf836000610a6e565b604051610ebc9190613c5b565b602060405180830381855afa158015610ed9573d6000803e3d6000fd5b5050506040513d601f19601f82011682018060405250810190610efc9190613c77565b14610f195760405162461bcd60e51b815260040161023f90613d2c565b610f2d836000600101805461090090613c20565b6020820152604051600290610f4490600490613c90565b602060405180830381855afa158015610f61573d6000803e3d6000fd5b5050506040513d601f19601f82011682018060405250810190610f849190613c77565b6002610f91836001610b8d565b604051610f9e9190613c5b565b602060405180830381855afa158015610fbb573d6000803e3d6000fd5b5050506040513d601f19601f82011682018060405250810190610fde9190613c77565b14610ffb5760405162461bcd60e51b815260040161023f90613d89565b50506008805461ff0019166101001790555050565b600080546001805491929161102490613c20565b80601f016020809104026020016040519081016040528092919081815260200182805461105090613c20565b801561109d5780601f106110725761010080835404028352916020019161109d565b820191906000526020600020905b81548152906001019060200180831161108057829003601f168201915b5050505050908060020160009054906101000a900460e01b908060030180546110c590613c20565b80601f01602080910402602001604051908101604052809291908181526020018280546110f190613c20565b801561113e5780601f106111135761010080835404028352916020019161113e565b820191906000526020600020905b81548152906001019060200180831161112157829003601f168201915b50505050509080600401805461115390613c20565b80601f016020809104026020016040519081016040528092919081815260200182805461117f90613c20565b80156111cc5780601f106111a1576101008083540402835291602001916111cc565b820191906000526020600020905b8154815290600101906020018083116111af57829003601f168201915b5050505050908060050180546111e190613c20565b80601f016020809104026020016040519081016040528092919081815260200182805461120d90613c20565b801561125a5780601f1061122f5761010080835404028352916020019161125a565b820191906000526020600020905b81548152906001019060200180831161123d57829003601f168201915b5050505050908060060154908060070154905088565b600088905586516112889060019060208a0190613804565b506002805463ffffffff191660e088901c17905584516112af906003906020880190613804565b5083516112c3906004906020870190613804565b5082516112d7906005906020860190613804565b5060069190915560075550506008805463ffffffff1916905550505050565b6000611311826004845161130a9190613dfc565b6004611bd8565b61131a90613e13565b92915050565b6040805160808101825260008082526020820181905291810182905260608101919091526040805180820190915260008082526020820152604080518082018252600080825260208083018290528351608081018552828152908101829052928301819052606083015290604080518082019091526000808252602082015260408051808201909152600080825260208201526113e56040518060a0016040528060008152602001606081526020016060815260200160608152602001606081525090565b60048082526113f79089906000611ce5565b808352602083019190915261140f9089906000611ddc565b845260408401526060830152608082015260005b60038110156115d457806114aa57611476898360600151838151811061144b5761144b613c0a565b60200260200101518460400151848151811061146957611469613c0a565b6020026020010151611fa4565b604088015260608701526020860152608082015180518290811061149c5761149c613c0a565b602090810291909101015185525b8060011415611557576115236114fb8a846060015184815181106114d0576114d0613c0a565b6020026020010151856040015185815181106114ee576114ee613c0a565b6020026020010151612009565b60405160200161150d91815260200190565b60405160208183030381529060405260006120ac565b6001600160601b0319166020840152608082015180518290811061154957611549613c0a565b602090810291909101015183525b80600214156115c257611598898360600151838151811061157a5761157a613c0a565b6020026020010151846040015184815181106114ee576114ee613c0a565b602085015260808201518051829081106115b4576115b4613c0a565b602090810291909101015184525b806115cc81613e4a565b915050611423565b50929790965090945092505050565b604080516080810182526000808252602082018190529181018290526060810191909152604080518082019091526000808252602082015260408051608081018252600080825260208201819052918101829052606081019190915260408051808201909152600080825260208201526116856040518060a0016040528060008152602001606081526020016060815260200160608152602001606081525090565b60048082526116979087906000611ce5565b80835260208301919091526116af9087906000611ddc565b845260408401526060830152608082015260005b600281101561178f5780611723576116eb878360600151838151811061144b5761144b613c0a565b604087015260608601526020850152608082015180518290811061171157611711613c0a565b6020908102919091010151845261177d565b806001141561177d576117496114fb88846060015184815181106114d0576114d0613c0a565b6001600160601b0319166020840152608082015180518290811061176f5761176f613c0a565b602090810291909101015183525b8061178781613e4a565b9150506116c3565b50919590945092505050565b6060806117ab8360026021611bd8565b6117b88460256021611bd8565b91509150915091565b606060036002836040516117d59190613c5b565b602060405180830381855afa1580156117f2573d6000803e3d6000fd5b5050506040513d601f19601f820116820180604052508101906118159190613c77565b60405160200161182791815260200190565b60408051601f198184030181529082905261184191613c5b565b602060405180830381855afa15801561185e573d6000803e3d6000fd5b5050604051805160601b6001600160601b031916602082015260340190505b6040516020818303038152906040529050919050565b60408051606080820183526000808352602080840182905283850182905284519283018552818352820181905292810192909252906118d383600461213e565b5081526118e38360256004611bd8565b6118ec90613e13565b6001600160e01b031916604082015261191961190b8460056025611bd8565b61191490613e65565b612201565b6020820152805160011461131a5760405162461bcd60e51b815260206004820152601b60248201527f54782068617320746f6f206d616e7920696e7075747320283e31290000000000604482015260640161023f565b6119966040518060600160405280600060ff16815260200160608152602001606081525090565b6119bd6040518060600160405280600060ff16815260200160608152602001606081525090565b82602a815181106119d0576119d0613c0a565b6020910101516001600160f81b031916604760f81b1415611a08576119fe6119f984602f6122a2565b612314565b6020820152611a47565b82602a81518110611a1b57611a1b613c0a565b6020910101516001600160f81b031916602360f91b1415611a4757611a4183602f612329565b60208201525b611a556119f98460516122a2565b60408201526020810151600290611a6d906000611af0565b611a779190613e9f565b611a8457601c815261131a565b601b815292915050565b600080611a9e8560006029611bd8565b84611ab7876072808a51611ab29190613dfc565b611bd8565b85604051602001611acb9493929190613eb3565b6040516020818303038152906040529050611ae5816123a6565b9150505b9392505050565b6000611afd826020613f0a565b83511015611b455760405162461bcd60e51b8152602060048201526015602482015274746f55696e743235365f6f75744f66426f756e647360581b604482015260640161023f565b50016020015190565b6060600080611b6987611b62601b89613f22565b8787612465565b6040805160208101939093528281019190915280518083038201815260609092019052979650505050505050565b60405181151560248201526100a89060440160408051601f198184030181529190526020810180516001600160e01b03166332458eed60e01b179052612696565b606081611be681601f613f0a565b1015611c255760405162461bcd60e51b815260206004820152600e60248201526d736c6963655f6f766572666c6f7760901b604482015260640161023f565b611c2f8284613f0a565b84511015611c735760405162461bcd60e51b8152602060048201526011602482015270736c6963655f6f75744f66426f756e647360781b604482015260640161023f565b606082158015611c925760405191506000825260208201604052611cdc565b6040519150601f8416801560200281840101858101878315602002848b0101015b81831015611ccb578051835260209283019201611cb3565b5050858452601f01601f1916604052505b50949350505050565b6060600080600080611cf7888861213e565b97509250851580611d0757508286115b15611d1457829150611d18565b8591505b6000826001600160401b03811115611d3257611d326138bb565b604051908082528060200260200182016040528015611d5b578160200160208202803683370190505b50905060005b83811015611dcf57611d7460248a613f0a565b9850611d808a8a61213e565b809a50819450505082828281518110611d9b57611d9b613c0a565b6020908102919091010152611db1836004613f0a565b611dbb908a613f0a565b985080611dc781613e4a565b915050611d61565b5098969750505050505050565b6060806060600080600080611df18a8a61213e565b99509250871580611e0157508288115b15611e0e57829150611e12565b8791505b6000826001600160401b03811115611e2c57611e2c6138bb565b604051908082528060200260200182016040528015611e55578160200160208202803683370190505b5090506000836001600160401b03811115611e7257611e726138bb565b604051908082528060200260200182016040528015611e9b578160200160208202803683370190505b5090506000846001600160401b03811115611eb857611eb86138bb565b604051908082528060200260200182016040528015611ee1578160200160208202803683370190505b50905060005b85811015611f9257611efb8e8e604061269f565b828281518110611f0d57611f0d613c0a565b6020908102919091010152611f2360088e613f0a565b9c50611f2f8e8e61213e565b809e5081965050508c848281518110611f4a57611f4a613c0a565b60200260200101818152505084838281518110611f6957611f69613c0a565b6020908102919091010152611f7e858e613f0a565b9c5080611f8a81613e4a565b915050611ee7565b509c919b509998509650505050505050565b6000806000611fb4868686612a0b565b15611ff657611fcd86611fc8876003613f0a565b6122a2565b611fdc87611fc8886028613f0a565b611feb88611fc889604c613f0a565b925092509250612000565b5060009150819050805b93509350939050565b6000612016848484612db8565b156120405761202f8461202a856003613f0a565b6120ac565b6001600160601b0319169050611ae9565b61204b848484612edd565b1561205f5761202f8461202a856002613f0a565b61206a848484612f98565b156120855761207e84611fc8856002613f0a565b9050611ae9565b612090848484612a0b565b156120a45761207e84611fc8856002613f0a565b506000611ae9565b600080805b6014816001600160a01b03161015612133576120ce816013613f45565b6120d9906008613f6d565b6001600160a01b03168585836001600160a01b03166120f89190613f0a565b8151811061210857612108613c0a565b016020015161211f9160f89190911c901b83613f9c565b91508061212b81613fc7565b9150506120b1565b5060601b9392505050565b600080600084848151811061215557612155613c0a565b016020015160f81c905061216a600185613f0a565b935060fd8160ff1610156121855760ff1691508290506121fa565b8060ff1660fd14156121b25761219d8585601061269f565b6121a8856002613f0a565b92509250506121fa565b8060ff1660fe14156121d5576121ca8585602061269f565b6121a8856004613f0a565b8060ff1660ff14156121f8576121ed8585604061269f565b6121a8856008613f0a565b505b9250929050565b60408051602080825281830190925260009182919060208201818036833701905050905060005b60208110156122985783816020811061224357612243613c0a565b1a60f81b826001612255846020613dfc565b61225f9190613dfc565b8151811061226f5761226f613c0a565b60200101906001600160f81b031916908160001a9053508061229081613e4a565b915050612228565b50611ae981613019565b600080805b602081101561230c576122bb81601f613dfc565b6122c6906008613fee565b856122d18684613f0a565b815181106122e1576122e1613c0a565b01602001516122f89160f89190911c901b83613f0a565b91508061230481613e4a565b9150506122a7565b509392505050565b60608160405160200161187d91815260200190565b60606000805b601f8110156123945761234381601e613dfc565b61234e906008613fee565b856123598684613f0a565b8151811061236957612369613c0a565b01602001516123809160f89190911c901b83613f0a565b91508061238c81613e4a565b91505061232f565b5061239e81613036565b949350505050565b6000600280836040516123b99190613c5b565b602060405180830381855afa1580156123d6573d6000803e3d6000fd5b5050506040513d601f19601f820116820180604052508101906123f99190613c77565b60405160200161240b91815260200190565b60408051601f198184030181529082905261242591613c5b565b602060405180830381855afa158015612442573d6000803e3d6000fd5b5050506040513d601f19601f8201168201806040525081019061131a9190613c77565b600080806401000003d019612487607f600189901c166401000003d019613fee565b860890506401000003d0198111806124b0575070014551231950b75fc4402da1732fc9bebe1984115b806124cc575070014551231950b75fc4402da1732fc9bebe1985115b806124d5575083155b806124de575084155b806124ec575060018660ff16115b156124fe57600080925092505061268d565b600061251c8670014551231950b75fc4402da1732fc9bebe196130aa565b905060006401000003d0198060076401000003d01960008709086401000003d01980868709860908905061256c81600461255d6401000003d0196001613f0a565b612567919061400d565b613176565b9050600061257d60ff8a1683613f0a565b612588906002613f0a565b600116156125a5576125a0826401000003d019613dfc565b6125a7565b815b90506000808061262a70014551231950b75fc4402da1732fc9bebe196125df8f70014551231950b75fc4402da1732fc9bebe19613dfc565b88097f79be667ef9dcbbac55a06295ce870b07029bfcdb2dce28d959f2815b16f817987f483ada7726a3c4655da4fbfc0e1108a8fd17b448a68554199c47d08ffb10d4b8600161321e565b925092509250600080600061266470014551231950b75fc4402da1732fc9bebe198061265857612658613e89565b8e8b098b89600161321e565b92509250925060008061267b888888888888613297565b909e509c505050505050505050505050505b94509492505050565b6100a88161330f565b600081600814156126cb578383815181106126bc576126bc613c0a565b016020015160f81c9050611ae9565b816010141561272c57836126e0846001613f0a565b815181106126f0576126f0613c0a565b01602001516127049060f81c610100614021565b61ffff1684848151811061271a5761271a613c0a565b016020015161207e919060f81c613f0a565b81602014156128125783612741846003613f0a565b8151811061275157612751613c0a565b01602001516127679060f81c6301000000614042565b63ffffffff1684612779856002613f0a565b8151811061278957612789613c0a565b016020015161279e9060f81c62010000614042565b63ffffffff16856127b0866001613f0a565b815181106127c0576127c0613c0a565b01602001516127d49060f81c610100614042565b63ffffffff168686815181106127ec576127ec613c0a565b01602001516127fe919060f81c613f0a565b6128089190613f0a565b61207e9190613f0a565b8160401415611ae95783612827846007613f0a565b8151811061283757612837613c0a565b01602001516128519060f81c670100000000000000614065565b6001600160401b031684612866856006613f0a565b8151811061287657612876613c0a565b016020015161288f9060f81c6601000000000000614065565b6001600160401b0316856128a4866005613f0a565b815181106128b4576128b4613c0a565b01602001516128cc9060f81c65010000000000614065565b6001600160401b0316866128e1876004613f0a565b815181106128f1576128f1613c0a565b01602001516129089060f81c640100000000614065565b6001600160401b03168761291d886003613f0a565b8151811061292d5761292d613c0a565b01602001516129439060f81c6301000000614065565b6001600160401b031688612958896002613f0a565b8151811061296857612968613c0a565b016020015161297d9060f81c62010000614065565b6001600160401b0316896129928a6001613f0a565b815181106129a2576129a2613c0a565b01602001516129b69060f81c610100614065565b6001600160401b03168a8a815181106129d1576129d1613c0a565b01602001516129e3919060f81c613f0a565b6129ed9190613f0a565b6129f79190613f0a565b612a019190613f0a565b6127fe9190613f0a565b6000816072148015612a4b575083612a24846000613f0a565b81518110612a3457612a34613c0a565b6020910101516001600160f81b031916603b60f91b145b8015612a85575083612a5e846001613f0a565b81518110612a6e57612a6e613c0a565b6020910101516001600160f81b031916602160f81b145b8015612abf575083612a98846023613f0a565b81518110612aa857612aa8613c0a565b6020910101516001600160f81b031916602b60fa1b145b8015612af9575083612ad2846024613f0a565b81518110612ae257612ae2613c0a565b6020910101516001600160f81b031916606360f81b145b8015612b33575083612b0c846025613f0a565b81518110612b1c57612b1c613c0a565b6020910101516001600160f81b031916607560f81b145b8015612b6d575083612b46846026613f0a565b81518110612b5657612b56613c0a565b6020910101516001600160f81b031916605560f91b145b8015612ba7575083612b80846027613f0a565b81518110612b9057612b90613c0a565b6020910101516001600160f81b031916600160fd1b145b8015612be1575083612bba846048613f0a565b81518110612bca57612bca613c0a565b6020910101516001600160f81b031916601160fb1b145b8015612c1b575083612bf4846049613f0a565b81518110612c0457612c04613c0a565b6020910101516001600160f81b031916606760f81b145b8015612c55575083612c2e84604a613f0a565b81518110612c3e57612c3e613c0a565b6020910101516001600160f81b031916602160f81b145b8015612c8f575083612c6884606c613f0a565b81518110612c7857612c78613c0a565b6020910101516001600160f81b03191660ad60f81b145b8015612cc9575083612ca284606d613f0a565b81518110612cb257612cb2613c0a565b6020910101516001600160f81b031916602960f91b145b8015612d03575083612cdc84606e613f0a565b81518110612cec57612cec613c0a565b6020910101516001600160f81b031916605960f91b145b8015612d3d575083612d1684606f613f0a565b81518110612d2657612d26613c0a565b6020910101516001600160f81b031916607560f81b145b8015612d77575083612d50846070613f0a565b81518110612d6057612d60613c0a565b6020910101516001600160f81b031916600d60fb1b145b801561239e575083612d8a846071613f0a565b81518110612d9a57612d9a613c0a565b6020910101516001600160f81b031916605160f81b14949350505050565b6000816019148015612dee5750838381518110612dd757612dd7613c0a565b6020910101516001600160f81b031916603b60f91b145b8015612e28575083612e01846001613f0a565b81518110612e1157612e11613c0a565b6020910101516001600160f81b03191660a960f81b145b8015612e62575083612e3b846002613f0a565b81518110612e4b57612e4b613c0a565b6020910101516001600160f81b031916600560fa1b145b8015612e9c575083612e75846017613f0a565b81518110612e8557612e85613c0a565b6020910101516001600160f81b031916601160fb1b145b801561239e575083612eaf846018613f0a565b81518110612ebf57612ebf613c0a565b6020910101516001600160f81b031916602b60fa1b14949350505050565b6000816017148015612f1d575083612ef6846000613f0a565b81518110612f0657612f06613c0a565b6020910101516001600160f81b03191660a960f81b145b8015612f57575083612f30846001613f0a565b81518110612f4057612f40613c0a565b6020910101516001600160f81b031916600560fa1b145b801561239e575083612f6a846016613f0a565b81518110612f7a57612f7a613c0a565b6020910101516001600160f81b031916608760f81b14949350505050565b6000816022148015612fd8575083612fb1846000613f0a565b81518110612fc157612fc1613c0a565b6020910101516001600160f81b031916603560f91b145b801561239e575083612feb846001613f0a565b81518110612ffb57612ffb613c0a565b6020910101516001600160f81b031916600160fd1b14949350505050565b8051600090829061302d5750600092915050565b50506020015190565b60606001600160ff1b0382111561308f5760405162461bcd60e51b815260206004820152601760248201527f56616c75652065786365656473207468652072616e6765000000000000000000604482015260640161023f565b60405190506020815281602082015260408101604052919050565b600082158015906130bb5750818314155b80156130c657508115155b6131035760405162461bcd60e51b815260206004820152600e60248201526d24b73b30b634b210373ab6b132b960911b604482015260640161023f565b6000600183825b861561316b5761311a878361400d565b905082868061312b5761312b613e89565b878061313957613139613e89565b8584096131469089613dfc565b86089094509250866131588183613fee565b6131629084613dfc565b9750915061310a565b509195945050505050565b6000826131855750600061131a565b816131925750600161131a565b6001600160ff1b5b801561230c576401000003d0198185161515860a6401000003d0198485090991506401000003d0196002820485161515860a6401000003d0198485090991506401000003d0196004820485161515860a6401000003d0198485090991506401000003d0196008820485161515860a6401000003d0198485090991506010900461319a565b600080808661323457508491508390508261328d565b8660008060015b8315613284576001841615613260576132588383838d8d8d613330565b919450925090505b61326b60028561400d565b93506132788a8a8a6135c5565b919b509950975061323b565b91955093509150505b9450945094915050565b6000806000806000878b14156132db576401000003d019878b086132c45760008094509450505050613304565b6132cf8b8b8b6135c5565b919450925090506132f1565b6132e98b8b8b8b8b8b613330565b919450925090505b6132fc8383836136c9565b945094505050505b965096945050505050565b60006a636f6e736f6c652e6c6f679050600080835160208501845afa505050565b6000808088158015613340575087155b156133525750849150839050826135b9565b8515801561335e575084155b156133705750879150869050856135b9565b613378613888565b6401000003d0198889098082526401000003d01990890960208201526401000003d019858009604082018190526401000003d0199086096060820152604080516080810182529082015181906401000003d019908d0981526020016401000003d01983600360200201518c0981526020016401000003d01983600060200201518a0981526020016401000003d0198360016020020151890990526040810151815191925014158061343157506060810151602082015114155b61347d5760405162461bcd60e51b815260206004820152601e60248201527f557365206a6163446f75626c652066756e6374696f6e20696e73746561640000604482015260640161023f565b613485613888565b81516401000003d019906134999082613dfc565b604084015108815260208201516401000003d019906134b89082613dfc565b606084015108602082015280516401000003d0199080096040820181905281516401000003d0199109606082018190526000906401000003d019906134fd9082613dfc565b60208401516401000003d01990800908604083015184519192506401000003d019918291829109600209613537906401000003d019613dfc565b8208905060006401000003d01980613555846401000003d019613dfc565b604086015187516401000003d0199190090860208501510990506401000003d019808460036020020151866001602002015109613598906401000003d019613dfc565b8208905060006401000003d019808a8e098551099297509095509093505050505b96509650969350505050565b60008080836135db575084915083905082612000565b60006401000003d019878809905060006401000003d019878809905060006401000003d019878809905060006401000003d01980848c09600409905060006401000003d019806401000003d0198586096000096401000003d019876003090890506401000003d01980838408613657906401000003d019613dfc565b6401000003d0198384090894506401000003d019806401000003d019868709600809613689906401000003d019613dfc565b6401000003d019806136a1896401000003d019613dfc565b860884090893506401000003d019808a8c09600209949b939a50939850919650505050505050565b60008060006136de846401000003d0196130aa565b905060006401000003d019828309905060006401000003d019828909905060006401000003d0198084860989099199919850909650505050505050565b60405180604001604052806002905b60408051608081018252600080825260208083018290529282018190526060820152825260001990920191018161372a5790505090565b60405180604001604052806002905b60408051808201909152600080825260208201528152602001906001900390816137705790505090565b60405180604001604052806002905b6137d06040518060600160405280600060ff16815260200160608152602001606081525090565b8152602001906001900390816137a95790505090565b60405180604001604052806002906020820280368337509192915050565b82805461381090613c20565b90600052602060002090601f0160209004810192826138325760008555613878565b82601f1061384b57805160ff1916838001178555613878565b82800160010185558215613878579182015b8281111561387857825182559160200191906001019061385d565b506138849291506138a6565b5090565b60405180608001604052806004906020820280368337509192915050565b5b8082111561388457600081556001016138a7565b634e487b7160e01b600052604160045260246000fd5b600082601f8301126138e257600080fd5b81356001600160401b03808211156138fc576138fc6138bb565b604051601f8301601f19908116603f01168101908282118183101715613924576139246138bb565b8160405283815286602085880101111561393d57600080fd5b836020870160208301376000602085830101528094505050505092915050565b60006020828403121561396f57600080fd5b81356001600160401b0381111561398557600080fd5b61239e848285016138d1565b600080604083850312156139a457600080fd5b82356001600160401b03808211156139bb57600080fd5b6139c7868387016138d1565b935060208501359150808211156139dd57600080fd5b506139ea858286016138d1565b9150509250929050565b60005b83811015613a0f5781810151838201526020016139f7565b83811115613a1e576000848401525b50505050565b60008151808452613a3c8160208601602086016139f4565b601f01601f19169290920160200192915050565b60006101008a8352806020840152613a6a8184018b613a24565b6001600160e01b03198a16604085015283810360608501529050613a8e8189613a24565b90508281036080840152613aa28188613a24565b905082810360a0840152613ab68187613a24565b60c0840195909552505060e001529695505050505050565b80356001600160e01b031981168114613ae657600080fd5b919050565b600080600080600080600080610100898b031215613b0857600080fd5b8835975060208901356001600160401b0380821115613b2657600080fd5b613b328c838d016138d1565b9850613b4060408c01613ace565b975060608b0135915080821115613b5657600080fd5b613b628c838d016138d1565b965060808b0135915080821115613b7857600080fd5b613b848c838d016138d1565b955060a08b0135915080821115613b9a57600080fd5b50613ba78b828c016138d1565b93505060c0890135915060e089013590509295985092959890939650565b60208082526025908201527f436f6d6d69746d656e74207472616e73616374696f6e206f662056206973206c6040820152641bd8dad95960da1b606082015260800190565b634e487b7160e01b600052603260045260246000fd5b600181811c90821680613c3457607f821691505b60208210811415613c5557634e487b7160e01b600052602260045260246000fd5b50919050565b60008251613c6d8184602087016139f4565b9190910192915050565b600060208284031215613c8957600080fd5b5051919050565b600080835481600182811c915080831680613cac57607f831692505b6020808410821415613ccc57634e487b7160e01b86526022600452602486fd5b818015613ce05760018114613cf157613d1e565b60ff19861689528489019650613d1e565b60008a81526020902060005b86811015613d165781548b820152908501908301613cfd565b505084890196505b509498975050505050505050565b60208082526037908201527f496e76616c6964207369676e6174757265206f662056206f76657220636f6d6d60408201527f69746d656e74207472616e73616374696f6e206f662050000000000000000000606082015260800190565b60208082526037908201527f496e76616c6964207369676e6174757265206f662050206f76657220636f6d6d60408201527f69746d656e74207472616e73616374696f6e206f662056000000000000000000606082015260800190565b634e487b7160e01b600052601160045260246000fd5b600082821015613e0e57613e0e613de6565b500390565b805160208201516001600160e01b03198082169291906004831015613e425780818460040360031b1b83161693505b505050919050565b6000600019821415613e5e57613e5e613de6565b5060010190565b80516020808301519190811015613c555760001960209190910360031b1b16919050565b634e487b7160e01b600052601260045260246000fd5b600082613eae57613eae613e89565b500690565b60008551613ec5818460208a016139f4565b855190830190613ed9818360208a016139f4565b8551910190613eec8183602089016139f4565b8451910190613eff8183602088016139f4565b019695505050505050565b60008219821115613f1d57613f1d613de6565b500190565b600060ff821660ff841680821015613f3c57613f3c613de6565b90039392505050565b60006001600160a01b0383811690831681811015613f6557613f65613de6565b039392505050565b60006001600160a01b0382811684821681151582840482111615613f9357613f93613de6565b02949350505050565b60006001600160a01b03828116848216808303821115613fbe57613fbe613de6565b01949350505050565b60006001600160a01b0382811680821415613fe457613fe4613de6565b6001019392505050565b600081600019048311821515161561400857614008613de6565b500290565b60008261401c5761401c613e89565b500490565b600061ffff80831681851681830481118215151615613f9357613f93613de6565b600063ffffffff80831681851681830481118215151615613f9357613f93613de6565b60006001600160401b0380831681851681830481118215151615613f9357613f93613de656fea264697066735822122017ebd21f1632112abfad3b9b46cf39fdc3ad211266ca8823a39660d35a18b55f64736f6c63430008090033",
  "linkReferences": {},
  "deployedLinkReferences": {}
}