{
  "_format": "hh-sol-artifact-1",
  "contractName": "LNBridge",
  "sourceName": "contracts/LNBridge.sol",
  "abi": [
    {
      "inputs": [],
      "name": "bridge",
      "outputs": [
        {
          "internalType": "bytes32",
          "name": "fundingTxId",
          "type": "bytes32"
        },
        {
          "internalType": "bytes",
          "name": "fundingTx_script",
          "type": "bytes"
        },
        {
          "internalType": "bytes4",
          "name": "fundingTx_index",
          "type": "bytes4"
        },
        {
          "internalType": "bytes",
          "name": "sighash",
          "type": "bytes"
        },
        {
          "internalType": "bytes",
          "name": "pkProver_Uncompressed",
          "type": "bytes"
        },
        {
          "internalType": "bytes",
          "name": "pkProver_Compressed",
          "type": "bytes"
        },
        {
          "internalType": "bytes",
          "name": "pkVerifier_Uncompressed",
          "type": "bytes"
        },
        {
          "internalType": "bytes",
          "name": "pkVerifier_Compressed",
          "type": "bytes"
        },
        {
          "internalType": "uint256",
          "name": "index",
          "type": "uint256"
        },
        {
          "internalType": "uint256",
          "name": "timelock",
          "type": "uint256"
        },
        {
          "internalType": "uint256",
          "name": "timelock_dispute",
          "type": "uint256"
        }
      ],
      "stateMutability": "view",
      "type": "function"
    },
    {
      "inputs": [
        {
          "internalType": "bytes",
          "name": "rawTxP_locked",
          "type": "bytes"
        },
        {
          "internalType": "bytes",
          "name": "sigV",
          "type": "bytes"
        },
        {
          "internalType": "bytes",
          "name": "rawTxV_unlocked",
          "type": "bytes"
        },
        {
          "internalType": "bytes",
          "name": "sigP",
          "type": "bytes"
        }
      ],
      "name": "dispute",
      "outputs": [],
      "stateMutability": "nonpayable",
      "type": "function"
    },
    {
      "inputs": [
        {
          "internalType": "bytes",
          "name": "oldRevSecret",
          "type": "bytes"
        },
        {
          "internalType": "bytes",
          "name": "rawTxP_unlocked",
          "type": "bytes"
        },
        {
          "internalType": "bytes",
          "name": "sigV",
          "type": "bytes"
        }
      ],
      "name": "resolveDispute",
      "outputs": [],
      "stateMutability": "nonpayable",
      "type": "function"
    },
    {
      "inputs": [],
      "name": "settle",
      "outputs": [],
      "stateMutability": "nonpayable",
      "type": "function"
    },
    {
      "inputs": [
        {
          "internalType": "bytes32",
          "name": "_fundingTxId",
          "type": "bytes32"
        },
        {
          "internalType": "bytes",
          "name": "_fundingTx_script",
          "type": "bytes"
        },
        {
          "internalType": "bytes4",
          "name": "_fundingTx_index",
          "type": "bytes4"
        },
        {
          "internalType": "bytes",
          "name": "_sighash",
          "type": "bytes"
        },
        {
          "internalType": "bytes",
          "name": "_pkProver_Uncompressed",
          "type": "bytes"
        },
        {
          "internalType": "bytes",
          "name": "_pkProver_Compressed",
          "type": "bytes"
        },
        {
          "internalType": "bytes",
          "name": "_pkVerifier_Uncompressed",
          "type": "bytes"
        },
        {
          "internalType": "bytes",
          "name": "_pkVerifier_Compressed",
          "type": "bytes"
        },
        {
          "internalType": "uint256",
          "name": "_index",
          "type": "uint256"
        },
        {
          "internalType": "uint256",
          "name": "_timelock",
          "type": "uint256"
        }
      ],
      "name": "setup",
      "outputs": [],
      "stateMutability": "nonpayable",
      "type": "function"
    },
    {
      "inputs": [
        {
          "internalType": "bytes",
          "name": "CT_P_unlocked",
          "type": "bytes"
        },
        {
          "internalType": "bytes",
          "name": "CT_V_unlocked",
          "type": "bytes"
        }
      ],
      "name": "submitProof",
      "outputs": [
        {
          "internalType": "bool",
          "name": "",
          "type": "bool"
        }
      ],
      "stateMutability": "view",
      "type": "function"
    }
  ],
  "bytecode": "0x608060405234801561001057600080fd5b50614c14806100206000396000f3fe608060405234801561001057600080fd5b50600436106100625760003560e01c806311da60b4146100675780631690ff4d146100715780633aef14771461008d57806343f104d2146100bd57806379a85bd9146100d9578063e78cea92146100f5575b600080fd5b61006f61011d565b005b61008b6004803603810190610086919061342f565b61011f565b005b6100a760048036038101906100a291906135b6565b6101db565b6040516100b49190613649565b60405180910390f35b6100d760048036038101906100d29190613664565b610b7b565b005b6100f360048036038101906100ee919061373b565b610b81565b005b6100fd610b86565b6040516101149b9a9998979695949392919061388e565b60405180910390f35b565b896000800181905550886000600101908161013a9190613b6f565b5087600060020160006101000a81548163ffffffff021916908360e01c0217905550866000600301908161016e9190613b6f565b5085600060040190816101819190613b6f565b5084600060050190816101949190613b6f565b5083600060060190816101a79190613b6f565b5082600060070190816101ba9190613b6f565b50816000600801819055508060006009018190555050505050505050505050565b60008060e01b7bffffffffffffffffffffffffffffffffffffffffffffffffffffffff191661020984610f0b565b7bffffffffffffffffffffffffffffffffffffffffffffffffffffffff191614610268576040517f08c379a000000000000000000000000000000000000000000000000000000000815260040161025f90613cc4565b60405180910390fd5b600060e01b7bffffffffffffffffffffffffffffffffffffffffffffffffffffffff191661029583610f0b565b7bffffffffffffffffffffffffffffffffffffffffffffffffffffffff1916146102f4576040517f08c379a00000000000000000000000000000000000000000000000000000000081526004016102eb90613d56565b60405180910390fd5b6102fc6130aa565b6103046130d7565b61030c613104565b61031586610f41565b8560006002811061032957610328613d76565b5b602002018560006002811061034157610340613d76565b5b6020020182955083905283905250505061035a856111e8565b8460016002811061036e5761036d613d76565b5b602002018460016002811061038657610385613d76565b5b602002018290528290525050826001600281106103a6576103a5613d76565b5b6020020151606001518160200151146103f4576040517f08c379a00000000000000000000000000000000000000000000000000000000081526004016103eb90613e17565b60405180910390fd5b8260016002811061040857610407613d76565b5b6020020151600001518260006002811061042557610424613d76565b5b6020020151600001511461046e576040517f08c379a000000000000000000000000000000000000000000000000000000000815260040161046590613ea9565b60405180910390fd5b8160016002811061048257610481613d76565b5b6020020151600001518360006002811061049f5761049e613d76565b5b602002015160000151146104e8576040517f08c379a00000000000000000000000000000000000000000000000000000000081526004016104df90613f3b565b60405180910390fd5b6002826000600281106104fe576104fd613d76565b5b6020020151602001516040516020016105179190613fa8565b6040516020818303038152906040526040516105339190613fff565b602060405180830381855afa158015610550573d6000803e3d6000fd5b5050506040513d601f19601f82011682018060405250810190610573919061402b565b600261060b6000600701805461058890613992565b80601f01602080910402602001604051908101604052809291908181526020018280546105b490613992565b80156106015780601f106105d657610100808354040283529160200191610601565b820191906000526020600020905b8154815290600101906020018083116105e457829003601f168201915b50505050506113fd565b6040516106189190613fff565b602060405180830381855afa158015610635573d6000803e3d6000fd5b5050506040513d601f19601f82011682018060405250810190610658919061402b565b14610698576040517f08c379a000000000000000000000000000000000000000000000000000000000815260040161068f906140f0565b60405180910390fd5b6002826001600281106106ae576106ad613d76565b5b6020020151602001516040516020016106c79190613fa8565b6040516020818303038152906040526040516106e39190613fff565b602060405180830381855afa158015610700573d6000803e3d6000fd5b5050506040513d601f19601f82011682018060405250810190610723919061402b565b60026107bb6000600501805461073890613992565b80601f016020809104026020016040519081016040528092919081815260200182805461076490613992565b80156107b15780601f10610786576101008083540402835291602001916107b1565b820191906000526020600020905b81548152906001019060200180831161079457829003601f168201915b50505050506113fd565b6040516107c89190613fff565b602060405180830381855afa1580156107e5573d6000803e3d6000fd5b5050506040513d601f19601f82011682018060405250810190610808919061402b565b14610848576040517f08c379a000000000000000000000000000000000000000000000000000000000815260040161083f906141a8565b60405180910390fd5b6000800154610856876114ca565b602001511461089a576040517f08c379a000000000000000000000000000000000000000000000000000000000815260040161089190614260565b60405180910390fd5b60008001546108a8866114ca565b60200151146108ec576040517f08c379a00000000000000000000000000000000000000000000000000000000081526004016108e390614318565b60405180910390fd5b600060020160009054906101000a900460e01b7bffffffffffffffffffffffffffffffffffffffffffffffffffffffff1916610927876114ca565b604001517bffffffffffffffffffffffffffffffffffffffffffffffffffffffff19161461098a576040517f08c379a0000000000000000000000000000000000000000000000000000000008152600401610981906143d0565b60405180910390fd5b600060020160009054906101000a900460e01b7bffffffffffffffffffffffffffffffffffffffffffffffffffffffff19166109c5866114ca565b604001517bffffffffffffffffffffffffffffffffffffffffffffffffffffffff191614610a28576040517f08c379a0000000000000000000000000000000000000000000000000000000008152600401610a1f90614488565b60405180910390fd5b6000610a33876115c5565b90506000610a40876115c5565b90506000610b698960006001018054610a5890613992565b80601f0160208091040260200160405190810160405280929190818152602001828054610a8490613992565b8015610ad15780601f10610aa657610100808354040283529160200191610ad1565b820191906000526020600020905b815481529060010190602001808311610ab457829003601f168201915b505050505060006003018054610ae690613992565b80601f0160208091040260200160405190810160405280929190818152602001828054610b1290613992565b8015610b5f5780601f10610b3457610100808354040283529160200191610b5f565b820191906000526020600020905b815481529060010190602001808311610b4257829003601f168201915b5050505050611712565b90506001965050505050505092915050565b50505050565b505050565b6000806000015490806001018054610b9d90613992565b80601f0160208091040260200160405190810160405280929190818152602001828054610bc990613992565b8015610c165780601f10610beb57610100808354040283529160200191610c16565b820191906000526020600020905b815481529060010190602001808311610bf957829003601f168201915b5050505050908060020160009054906101000a900460e01b90806003018054610c3e90613992565b80601f0160208091040260200160405190810160405280929190818152602001828054610c6a90613992565b8015610cb75780601f10610c8c57610100808354040283529160200191610cb7565b820191906000526020600020905b815481529060010190602001808311610c9a57829003601f168201915b505050505090806004018054610ccc90613992565b80601f0160208091040260200160405190810160405280929190818152602001828054610cf890613992565b8015610d455780601f10610d1a57610100808354040283529160200191610d45565b820191906000526020600020905b815481529060010190602001808311610d2857829003601f168201915b505050505090806005018054610d5a90613992565b80601f0160208091040260200160405190810160405280929190818152602001828054610d8690613992565b8015610dd35780601f10610da857610100808354040283529160200191610dd3565b820191906000526020600020905b815481529060010190602001808311610db657829003601f168201915b505050505090806006018054610de890613992565b80601f0160208091040260200160405190810160405280929190818152602001828054610e1490613992565b8015610e615780601f10610e3657610100808354040283529160200191610e61565b820191906000526020600020905b815481529060010190602001808311610e4457829003601f168201915b505050505090806007018054610e7690613992565b80601f0160208091040260200160405190810160405280929190818152602001828054610ea290613992565b8015610eef5780601f10610ec457610100808354040283529160200191610eef565b820191906000526020600020905b815481529060010190602001808311610ed257829003601f168201915b50505050509080600801549080600901549080600a015490508b565b600080825190506000610f2c84600484610f2591906144d7565b6004611785565b610f3590614530565b90508092505050919050565b610f49613121565b610f51613152565b610f59613104565b610f61613121565b610f69613104565b610f71613152565b610f7961317b565b6004816000018181525050610f9488826000015160006118a3565b8260200183600001828152508290525050610fb588826000015160006119b5565b84608001856060018660400187600001848152508490528490528490525050505060005b60038110156111d3576000810361107557611031898360600151838151811061100557611004613d76565b5b60200260200101518460400151848151811061102457611023613d76565b5b6020026020010151611bac565b8760200188606001896040018381525083815250838152505050508160800151818151811061106357611062613d76565b5b60200260200101518560000181815250505b6001810361113f576110ed6110c78a8460600151848151811061109b5761109a613d76565b5b6020026020010151856040015185815181106110ba576110b9613d76565b5b6020026020010151611c2a565b6040516020016110d791906145b8565b6040516020818303038152906040526000611d0c565b83602001906bffffffffffffffffffffffff191690816bffffffffffffffffffffffff1916815250508160800151818151811061112d5761112c613d76565b5b60200260200101518360000181815250505b600281036111c05761118e898360600151838151811061116257611161613d76565b5b60200260200101518460400151848151811061118157611180613d76565b5b6020026020010151611c2a565b846020018181525050816080015181815181106111ae576111ad613d76565b5b60200260200101518460000181815250505b80806111cb906145d3565b915050610fd9565b50838284965096509650505050509193909250565b6111f0613121565b6111f8613152565b611200613121565b611208613152565b61121061317b565b600481600001818152505061122b86826000015160006118a3565b826020018360000182815250829052505061124c86826000015160006119b5565b84608001856060018660400187600001848152508490528490528490525050505060005b60028110156113ee5760008103611310576112c8878360600151838151811061129c5761129b613d76565b5b6020026020010151846040015184815181106112bb576112ba613d76565b5b6020026020010151611bac565b866020018760600188604001838152508381525083815250505050816080015181815181106112fa576112f9613d76565b5b60200260200101518460000181815250506113db565b600181036113da57611388611362888460600151848151811061133657611335613d76565b5b60200260200101518560400151858151811061135557611354613d76565b5b6020026020010151611c2a565b60405160200161137291906145b8565b6040516020818303038152906040526000611d0c565b83602001906bffffffffffffffffffffffff191690816bffffffffffffffffffffffff191681525050816080015181815181106113c8576113c7613d76565b5b60200260200101518360000181815250505b5b80806113e6906145d3565b915050611270565b50828294509450505050915091565b606060036002836040516114119190613fff565b602060405180830381855afa15801561142e573d6000803e3d6000fd5b5050506040513d601f19601f82011682018060405250810190611451919061402b565b60405160200161146191906145b8565b60405160208183030381529060405260405161147d9190613fff565b602060405180830381855afa15801561149a573d6000803e3d6000fd5b5050506040515160601b6040516020016114b49190613fa8565b6040516020818303038152906040529050919050565b6114d26131aa565b6114da6131aa565b6114e5836004611def565b508160000181815250506114fc8360256004611785565b61150590614530565b81604001907bffffffffffffffffffffffffffffffffffffffffffffffffffffffff191690817bffffffffffffffffffffffffffffffffffffffffffffffffffffffff19168152505061156c61155e8460056025611785565b61156790614630565b611ed7565b81602001818152505060018160000151146115bc576040517f08c379a00000000000000000000000000000000000000000000000000000000081526004016115b3906146e3565b60405180910390fd5b80915050919050565b6115cd6131ed565b6115d56131ed565b604760f81b83602a815181106115ee576115ed613d76565b5b602001015160f81c60f81b7effffffffffffffffffffffffffffffffffffffffffffffffffffffffffffff1916036116405761163361162e84602f611fd5565b612060565b81602001819052506116a0565b604660f81b83602a8151811061165957611658613d76565b5b602001015160f81c60f81b7effffffffffffffffffffffffffffffffffffffffffffffffffffffffffffff19160361169f5761169683602f612089565b81602001819052505b5b6116b36116ae846051611fd5565b612060565b8160400181905250600060026116ce83602001516000612115565b6116d89190614732565b036116f557601c816000019060ff16908160ff1681525050611709565b601b816000019060ff16908160ff16815250505b80915050919050565b6000806117228560006029611785565b9050600061173e86607280895161173991906144d7565b611785565b90506000828683876040516020016117599493929190614763565b604051602081830303815290604052905060006117758261217c565b9050809450505050509392505050565b606081601f8361179591906147a1565b10156117d6576040517f08c379a00000000000000000000000000000000000000000000000000000000081526004016117cd90614821565b60405180910390fd5b81836117e291906147a1565b84511015611825576040517f08c379a000000000000000000000000000000000000000000000000000000000815260040161181c9061488d565b60405180910390fd5b60608215600081146118465760405191506000825260208201604052611897565b6040519150601f8416801560200281840101858101878315602002848b0101015b818310156118845780518352602083019250602081019050611867565b50868552601f19601f8301166040525050505b50809150509392505050565b60606000806000806118b58888611def565b809850819450505060008614806118cb57508286115b156118d8578291506118dc565b8591505b60008267ffffffffffffffff8111156118f8576118f7613276565b5b6040519080825280602002602001820160405280156119265781602001602082028036833780820191505090505b50905060005b838110156119a25760248961194191906147a1565b985061194d8a8a611def565b809a5081945050508282828151811061196957611968613d76565b5b60200260200101818152505060048361198291906147a1565b8961198d91906147a1565b9850808061199a906145d3565b91505061192c565b5080889550955050505050935093915050565b60608060606000806000806119ca8a8a611def565b809a50819450505060008814806119e057508288115b156119ed578291506119f1565b8791505b60008267ffffffffffffffff811115611a0d57611a0c613276565b5b604051908082528060200260200182016040528015611a3b5781602001602082028036833780820191505090505b50905060008367ffffffffffffffff811115611a5a57611a59613276565b5b604051908082528060200260200182016040528015611a885781602001602082028036833780820191505090505b50905060008467ffffffffffffffff811115611aa757611aa6613276565b5b604051908082528060200260200182016040528015611ad55781602001602082028036833780820191505090505b50905060005b85811015611b9057611aef8e8e6040612242565b828281518110611b0257611b01613d76565b5b60200260200101818152505060088d611b1b91906147a1565b9c50611b278e8e611def565b809e5081965050508c848281518110611b4357611b42613d76565b5b60200260200101818152505084838281518110611b6357611b62613d76565b5b602002602001018181525050848d611b7b91906147a1565b9c508080611b88906145d3565b915050611adb565b508083838e995099509950995050505050505093509350935093565b6000806000611bbc8686866126ad565b15611c0e57611bd786600387611bd291906147a1565b611fd5565b611bed87602888611be891906147a1565b611fd5565b611c0388604c89611bfe91906147a1565b611fd5565b925092509250611c21565b6000801b6000801b6000801b9250925092505b93509350939050565b6000611c37848484612c5c565b15611c6857611c5284600385611c4d91906147a1565b611d0c565b6bffffffffffffffffffffffff19169050611d05565b611c73848484612e21565b15611ca457611c8e84600285611c8991906147a1565b611d0c565b6bffffffffffffffffffffffff19169050611d05565b611caf848484612f3e565b15611cd157611cca84600285611cc591906147a1565b611fd5565b9050611d05565b611cdc8484846126ad565b15611cfe57611cf784600285611cf291906147a1565b611fd5565b9050611d05565b6000801b90505b9392505050565b6000806000905060005b60148173ffffffffffffffffffffffffffffffffffffffff161015611de157806013611d4291906148cd565b6008611d4e9190614915565b73ffffffffffffffffffffffffffffffffffffffff1685858373ffffffffffffffffffffffffffffffffffffffff16611d8791906147a1565b81518110611d9857611d97613d76565b5b602001015160f81c60f81b60f81c60ff1673ffffffffffffffffffffffffffffffffffffffff16901b82611dcc9190614957565b91508080611dd99061499f565b915050611d16565b508060601b91505092915050565b6000806000848481518110611e0757611e06613d76565b5b602001015160f81c60f81b60f81c9050600184611e2491906147a1565b935060fd8160ff161015611e445780848160ff1691509250925050611ed0565b60fd8160ff1603611e7257611e5b85856010612242565b600285611e6891906147a1565b9250925050611ed0565b60fe8160ff1603611ea057611e8985856020612242565b600485611e9691906147a1565b9250925050611ed0565b60ff8160ff1603611ece57611eb785856040612242565b600885611ec491906147a1565b9250925050611ed0565b505b9250929050565b600080602060ff1667ffffffffffffffff811115611ef857611ef7613276565b5b6040519080825280601f01601f191660200182016040528015611f2a5781602001600182028036833780820191505090505b50905060005b602060ff16811015611fc357838160208110611f4f57611f4e613d76565b5b1a60f81b82600183602060ff16611f6691906144d7565b611f7091906144d7565b81518110611f8157611f80613d76565b5b60200101907effffffffffffffffffffffffffffffffffffffffffffffffffffffffffffff1916908160001a9053508080611fbb906145d3565b915050611f30565b50611fcd81613001565b915050919050565b6000806000905060005b60208110156120525780601f611ff591906144d7565b600861200191906149db565b85858361200e91906147a1565b8151811061201f5761201e613d76565b5b602001015160f81c60f81b60f81c60ff16901b8261203d91906147a1565b9150808061204a906145d3565b915050611fdf565b508060001b91505092915050565b60608160405160200161207391906145b8565b6040516020818303038152906040529050919050565b60606000805b601f8110156121025780601e6120a591906144d7565b60086120b191906149db565b8585836120be91906147a1565b815181106120cf576120ce613d76565b5b602001015160f81c60f81b60f81c60ff16901b826120ed91906147a1565b915080806120fa906145d3565b91505061208f565b5061210c8161302a565b91505092915050565b600060208261212491906147a1565b83511015612167576040517f08c379a000000000000000000000000000000000000000000000000000000000815260040161215e90614a69565b60405180910390fd5b60008260208501015190508091505092915050565b60006002808360405161218f9190613fff565b602060405180830381855afa1580156121ac573d6000803e3d6000fd5b5050506040513d601f19601f820116820180604052508101906121cf919061402b565b6040516020016121df91906145b8565b6040516020818303038152906040526040516121fb9190613fff565b602060405180830381855afa158015612218573d6000803e3d6000fd5b5050506040513d601f19601f8201168201806040525081019061223b919061402b565b9050919050565b6000600882036122775783838151811061225f5761225e613d76565b5b602001015160f81c60f81b60f81c60ff1690506126a6565b601082036122f9576101008460018561229091906147a1565b815181106122a1576122a0613d76565b5b602001015160f81c60f81b60f81c60ff166122bc9190614a97565b61ffff168484815181106122d3576122d2613d76565b5b602001015160f81c60f81b60f81c60ff1661ffff166122f291906147a1565b90506126a6565b6020820361241c5763010000008460038561231491906147a1565b8151811061232557612324613d76565b5b602001015160f81c60f81b60f81c60ff166123409190614ae4565b63ffffffff16620100008560028661235891906147a1565b8151811061236957612368613d76565b5b602001015160f81c60f81b60f81c60ff166123849190614ae4565b63ffffffff166101008660018761239b91906147a1565b815181106123ac576123ab613d76565b5b602001015160f81c60f81b60f81c60ff166123c79190614ae4565b63ffffffff168686815181106123e0576123df613d76565b5b602001015160f81c60f81b60f81c60ff1663ffffffff1661240191906147a1565b61240b91906147a1565b61241591906147a1565b90506126a6565b604082036126a5576701000000000000008460078561243b91906147a1565b8151811061244c5761244b613d76565b5b602001015160f81c60f81b60f81c60ff166124679190614b35565b67ffffffffffffffff1666010000000000008560068661248791906147a1565b8151811061249857612497613d76565b5b602001015160f81c60f81b60f81c60ff166124b39190614b35565b67ffffffffffffffff1665010000000000866005876124d291906147a1565b815181106124e3576124e2613d76565b5b602001015160f81c60f81b60f81c60ff166124fe9190614b35565b67ffffffffffffffff166401000000008760048861251c91906147a1565b8151811061252d5761252c613d76565b5b602001015160f81c60f81b60f81c60ff166125489190614b35565b67ffffffffffffffff1663010000008860038961256591906147a1565b8151811061257657612575613d76565b5b602001015160f81c60f81b60f81c60ff166125919190614b35565b67ffffffffffffffff16620100008960028a6125ad91906147a1565b815181106125be576125bd613d76565b5b602001015160f81c60f81b60f81c60ff166125d99190614b35565b67ffffffffffffffff166101008a60018b6125f491906147a1565b8151811061260557612604613d76565b5b602001015160f81c60f81b60f81c60ff166126209190614b35565b67ffffffffffffffff168a8a8151811061263d5761263c613d76565b5b602001015160f81c60f81b60f81c60ff1667ffffffffffffffff1661266291906147a1565b61266c91906147a1565b61267691906147a1565b61268091906147a1565b61268a91906147a1565b61269491906147a1565b61269e91906147a1565b90506126a6565b5b9392505050565b600060728214801561270d5750607660f81b846000856126cd91906147a1565b815181106126de576126dd613d76565b5b602001015160f81c60f81b7effffffffffffffffffffffffffffffffffffffffffffffffffffffffffffff1916145b80156127675750602160f81b8460018561272791906147a1565b8151811061273857612737613d76565b5b602001015160f81c60f81b7effffffffffffffffffffffffffffffffffffffffffffffffffffffffffffff1916145b80156127c1575060ac60f81b8460238561278191906147a1565b8151811061279257612791613d76565b5b602001015160f81c60f81b7effffffffffffffffffffffffffffffffffffffffffffffffffffffffffffff1916145b801561281b5750606360f81b846024856127db91906147a1565b815181106127ec576127eb613d76565b5b602001015160f81c60f81b7effffffffffffffffffffffffffffffffffffffffffffffffffffffffffffff1916145b80156128755750607560f81b8460258561283591906147a1565b8151811061284657612845613d76565b5b602001015160f81c60f81b7effffffffffffffffffffffffffffffffffffffffffffffffffffffffffffff1916145b80156128cf575060aa60f81b8460268561288f91906147a1565b815181106128a05761289f613d76565b5b602001015160f81c60f81b7effffffffffffffffffffffffffffffffffffffffffffffffffffffffffffff1916145b80156129295750602060f81b846027856128e991906147a1565b815181106128fa576128f9613d76565b5b602001015160f81c60f81b7effffffffffffffffffffffffffffffffffffffffffffffffffffffffffffff1916145b80156129835750608860f81b8460488561294391906147a1565b8151811061295457612953613d76565b5b602001015160f81c60f81b7effffffffffffffffffffffffffffffffffffffffffffffffffffffffffffff1916145b80156129dd5750606760f81b8460498561299d91906147a1565b815181106129ae576129ad613d76565b5b602001015160f81c60f81b7effffffffffffffffffffffffffffffffffffffffffffffffffffffffffffff1916145b8015612a375750602160f81b84604a856129f791906147a1565b81518110612a0857612a07613d76565b5b602001015160f81c60f81b7effffffffffffffffffffffffffffffffffffffffffffffffffffffffffffff1916145b8015612a91575060ad60f81b84606c85612a5191906147a1565b81518110612a6257612a61613d76565b5b602001015160f81c60f81b7effffffffffffffffffffffffffffffffffffffffffffffffffffffffffffff1916145b8015612aeb5750605260f81b84606d85612aab91906147a1565b81518110612abc57612abb613d76565b5b602001015160f81c60f81b7effffffffffffffffffffffffffffffffffffffffffffffffffffffffffffff1916145b8015612b45575060b260f81b84606e85612b0591906147a1565b81518110612b1657612b15613d76565b5b602001015160f81c60f81b7effffffffffffffffffffffffffffffffffffffffffffffffffffffffffffff1916145b8015612b9f5750607560f81b84606f85612b5f91906147a1565b81518110612b7057612b6f613d76565b5b602001015160f81c60f81b7effffffffffffffffffffffffffffffffffffffffffffffffffffffffffffff1916145b8015612bf95750606860f81b84607085612bb991906147a1565b81518110612bca57612bc9613d76565b5b602001015160f81c60f81b7effffffffffffffffffffffffffffffffffffffffffffffffffffffffffffff1916145b8015612c535750605160f81b84607185612c1391906147a1565b81518110612c2457612c23613d76565b5b602001015160f81c60f81b7effffffffffffffffffffffffffffffffffffffffffffffffffffffffffffff1916145b90509392505050565b6000601982148015612cb05750607660f81b848481518110612c8157612c80613d76565b5b602001015160f81c60f81b7effffffffffffffffffffffffffffffffffffffffffffffffffffffffffffff1916145b8015612d0a575060a960f81b84600185612cca91906147a1565b81518110612cdb57612cda613d76565b5b602001015160f81c60f81b7effffffffffffffffffffffffffffffffffffffffffffffffffffffffffffff1916145b8015612d645750601460f81b84600285612d2491906147a1565b81518110612d3557612d34613d76565b5b602001015160f81c60f81b7effffffffffffffffffffffffffffffffffffffffffffffffffffffffffffff1916145b8015612dbe5750608860f81b84601785612d7e91906147a1565b81518110612d8f57612d8e613d76565b5b602001015160f81c60f81b7effffffffffffffffffffffffffffffffffffffffffffffffffffffffffffff1916145b8015612e18575060ac60f81b84601885612dd891906147a1565b81518110612de957612de8613d76565b5b602001015160f81c60f81b7effffffffffffffffffffffffffffffffffffffffffffffffffffffffffffff1916145b90509392505050565b6000601782148015612e81575060a960f81b84600085612e4191906147a1565b81518110612e5257612e51613d76565b5b602001015160f81c60f81b7effffffffffffffffffffffffffffffffffffffffffffffffffffffffffffff1916145b8015612edb5750601460f81b84600185612e9b91906147a1565b81518110612eac57612eab613d76565b5b602001015160f81c60f81b7effffffffffffffffffffffffffffffffffffffffffffffffffffffffffffff1916145b8015612f355750608760f81b84601685612ef591906147a1565b81518110612f0657612f05613d76565b5b602001015160f81c60f81b7effffffffffffffffffffffffffffffffffffffffffffffffffffffffffffff1916145b90509392505050565b6000602282148015612f9e5750606a60f81b84600085612f5e91906147a1565b81518110612f6f57612f6e613d76565b5b602001015160f81c60f81b7effffffffffffffffffffffffffffffffffffffffffffffffffffffffffffff1916145b8015612ff85750602060f81b84600185612fb891906147a1565b81518110612fc957612fc8613d76565b5b602001015160f81c60f81b7effffffffffffffffffffffffffffffffffffffffffffffffffffffffffffff1916145b90509392505050565b600080829050600081510361301c576000801b915050613025565b60208301519150505b919050565b60607f7fffffffffffffffffffffffffffffffffffffffffffffffffffffffffffffff82111561308f576040517f08c379a000000000000000000000000000000000000000000000000000000000815260040161308690614bbe565b60405180910390fd5b60405190506020815281602082015260408101604052919050565b60405180604001604052806002905b6130c1613121565b8152602001906001900390816130b95790505090565b60405180604001604052806002905b6130ee613152565b8152602001906001900390816130e65790505090565b604051806040016040528060008152602001600080191681525090565b6040518060800160405280600081526020016000801916815260200160008019168152602001600080191681525090565b60405180604001604052806000815260200160006bffffffffffffffffffffffff191681525090565b6040518060a0016040528060008152602001606081526020016060815260200160608152602001606081525090565b6040518060600160405280600081526020016000801916815260200160007bffffffffffffffffffffffffffffffffffffffffffffffffffffffff191681525090565b6040518060600160405280600060ff16815260200160608152602001606081525090565b6000604051905090565b600080fd5b600080fd5b6000819050919050565b61323881613225565b811461324357600080fd5b50565b6000813590506132558161322f565b92915050565b600080fd5b600080fd5b6000601f19601f8301169050919050565b7f4e487b7100000000000000000000000000000000000000000000000000000000600052604160045260246000fd5b6132ae82613265565b810181811067ffffffffffffffff821117156132cd576132cc613276565b5b80604052505050565b60006132e0613211565b90506132ec82826132a5565b919050565b600067ffffffffffffffff82111561330c5761330b613276565b5b61331582613265565b9050602081019050919050565b82818337600083830152505050565b600061334461333f846132f1565b6132d6565b9050828152602081018484840111156133605761335f613260565b5b61336b848285613322565b509392505050565b600082601f8301126133885761338761325b565b5b8135613398848260208601613331565b91505092915050565b60007fffffffff0000000000000000000000000000000000000000000000000000000082169050919050565b6133d6816133a1565b81146133e157600080fd5b50565b6000813590506133f3816133cd565b92915050565b6000819050919050565b61340c816133f9565b811461341757600080fd5b50565b60008135905061342981613403565b92915050565b6000806000806000806000806000806101408b8d0312156134535761345261321b565b5b60006134618d828e01613246565b9a505060208b013567ffffffffffffffff81111561348257613481613220565b5b61348e8d828e01613373565b995050604061349f8d828e016133e4565b98505060608b013567ffffffffffffffff8111156134c0576134bf613220565b5b6134cc8d828e01613373565b97505060808b013567ffffffffffffffff8111156134ed576134ec613220565b5b6134f98d828e01613373565b96505060a08b013567ffffffffffffffff81111561351a57613519613220565b5b6135268d828e01613373565b95505060c08b013567ffffffffffffffff81111561354757613546613220565b5b6135538d828e01613373565b94505060e08b013567ffffffffffffffff81111561357457613573613220565b5b6135808d828e01613373565b9350506101006135928d828e0161341a565b9250506101206135a48d828e0161341a565b9150509295989b9194979a5092959850565b600080604083850312156135cd576135cc61321b565b5b600083013567ffffffffffffffff8111156135eb576135ea613220565b5b6135f785828601613373565b925050602083013567ffffffffffffffff81111561361857613617613220565b5b61362485828601613373565b9150509250929050565b60008115159050919050565b6136438161362e565b82525050565b600060208201905061365e600083018461363a565b92915050565b6000806000806080858703121561367e5761367d61321b565b5b600085013567ffffffffffffffff81111561369c5761369b613220565b5b6136a887828801613373565b945050602085013567ffffffffffffffff8111156136c9576136c8613220565b5b6136d587828801613373565b935050604085013567ffffffffffffffff8111156136f6576136f5613220565b5b61370287828801613373565b925050606085013567ffffffffffffffff81111561372357613722613220565b5b61372f87828801613373565b91505092959194509250565b6000806000606084860312156137545761375361321b565b5b600084013567ffffffffffffffff81111561377257613771613220565b5b61377e86828701613373565b935050602084013567ffffffffffffffff81111561379f5761379e613220565b5b6137ab86828701613373565b925050604084013567ffffffffffffffff8111156137cc576137cb613220565b5b6137d886828701613373565b9150509250925092565b6137eb81613225565b82525050565b600081519050919050565b600082825260208201905092915050565b60005b8381101561382b578082015181840152602081019050613810565b60008484015250505050565b6000613842826137f1565b61384c81856137fc565b935061385c81856020860161380d565b61386581613265565b840191505092915050565b613879816133a1565b82525050565b613888816133f9565b82525050565b6000610160820190506138a4600083018e6137e2565b81810360208301526138b6818d613837565b90506138c5604083018c613870565b81810360608301526138d7818b613837565b905081810360808301526138eb818a613837565b905081810360a08301526138ff8189613837565b905081810360c08301526139138188613837565b905081810360e08301526139278187613837565b905061393761010083018661387f565b61394561012083018561387f565b61395361014083018461387f565b9c9b505050505050505050505050565b7f4e487b7100000000000000000000000000000000000000000000000000000000600052602260045260246000fd5b600060028204905060018216806139aa57607f821691505b6020821081036139bd576139bc613963565b5b50919050565b60008190508160005260206000209050919050565b60006020601f8301049050919050565b600082821b905092915050565b600060088302613a257fffffffffffffffffffffffffffffffffffffffffffffffffffffffffffffffff826139e8565b613a2f86836139e8565b95508019841693508086168417925050509392505050565b6000819050919050565b6000613a6c613a67613a62846133f9565b613a47565b6133f9565b9050919050565b6000819050919050565b613a8683613a51565b613a9a613a9282613a73565b8484546139f5565b825550505050565b600090565b613aaf613aa2565b613aba818484613a7d565b505050565b5b81811015613ade57613ad3600082613aa7565b600181019050613ac0565b5050565b601f821115613b2357613af4816139c3565b613afd846139d8565b81016020851015613b0c578190505b613b20613b18856139d8565b830182613abf565b50505b505050565b600082821c905092915050565b6000613b4660001984600802613b28565b1980831691505092915050565b6000613b5f8383613b35565b9150826002028217905092915050565b613b78826137f1565b67ffffffffffffffff811115613b9157613b90613276565b5b613b9b8254613992565b613ba6828285613ae2565b600060209050601f831160018114613bd95760008415613bc7578287015190505b613bd18582613b53565b865550613c39565b601f198416613be7866139c3565b60005b82811015613c0f57848901518255600182019150602085019450602081019050613bea565b86831015613c2c5784890151613c28601f891682613b35565b8355505b6001600288020188555050505b505050505050565b600082825260208201905092915050565b7f436f6d6d69746d656e74207472616e73616374696f6e206f662050206973206c60008201527f6f636b6564000000000000000000000000000000000000000000000000000000602082015250565b6000613cae602583613c41565b9150613cb982613c52565b604082019050919050565b60006020820190508181036000830152613cdd81613ca1565b9050919050565b7f436f6d6d69746d656e74207472616e73616374696f6e206f662056206973206c60008201527f6f636b6564000000000000000000000000000000000000000000000000000000602082015250565b6000613d40602583613c41565b9150613d4b82613ce4565b604082019050919050565b60006020820190508181036000830152613d6f81613d33565b9050919050565b7f4e487b7100000000000000000000000000000000000000000000000000000000600052603260045260246000fd5b7f50277320636f6d6d69746d656e74207472616e73616374696f6e20646f65732060008201527f6e6f742068617264636f646520562773207265766f636174696f6e206b657900602082015250565b6000613e01603f83613c41565b9150613e0c82613da5565b604082019050919050565b60006020820190508181036000830152613e3081613df4565b9050919050565b7f416d6f756e74206d69736d61746368206265747765656e207032706b68206f6660008201527f205020616e64206c696768746e696e672048544c43206f662056000000000000602082015250565b6000613e93603a83613c41565b9150613e9e82613e37565b604082019050919050565b60006020820190508181036000830152613ec281613e86565b9050919050565b7f416d6f756e74206d69736d61746368206265747765656e207032706b68206f6660008201527f205620616e64206c696768746e696e672048544c43206f662050000000000000602082015250565b6000613f25603a83613c41565b9150613f3082613ec9565b604082019050919050565b60006020820190508181036000830152613f5481613f18565b9050919050565b60007fffffffffffffffffffffffffffffffffffffffff00000000000000000000000082169050919050565b6000819050919050565b613fa2613f9d82613f5b565b613f87565b82525050565b6000613fb48284613f91565b60148201915081905092915050565b600081905092915050565b6000613fd9826137f1565b613fe38185613fc3565b9350613ff381856020860161380d565b80840191505092915050565b600061400b8284613fce565b915081905092915050565b6000815190506140258161322f565b92915050565b6000602082840312156140415761404061321b565b5b600061404f84828501614016565b91505092915050565b7f546865207032706b6820696e2050277320756e6c6f636b656420636f6d6d697460008201527f6d656e74207472616e73616374696f6e20646f6573206e6f7420636f7272657360208201527f706f6e6420746f2056657269666965722773206f6e6500000000000000000000604082015250565b60006140da605683613c41565b91506140e582614058565b606082019050919050565b60006020820190508181036000830152614109816140cd565b9050919050565b7f546865207032706b6820696e2056277320756e6c6f636b656420636f6d6d697460008201527f6d656e74207472616e73616374696f6e20646f6573206e6f7420636f7272657360208201527f706f6e6420746f2050726f7665722773206f6e65000000000000000000000000604082015250565b6000614192605483613c41565b915061419d82614110565b606082019050919050565b600060208201905081810360008301526141c181614185565b9050919050565b7f50277320636f6d6d69746d656e74207472616e73616374696f6e20646f65732060008201527f6e6f74207370656e64207468652066756e64696e67207472616e73616374696f60208201527f6e00000000000000000000000000000000000000000000000000000000000000604082015250565b600061424a604183613c41565b9150614255826141c8565b606082019050919050565b600060208201905081810360008301526142798161423d565b9050919050565b7f56277320636f6d6d69746d656e74207472616e73616374696f6e20646f65732060008201527f6e6f74207370656e64207468652066756e64696e67207472616e73616374696f60208201527f6e00000000000000000000000000000000000000000000000000000000000000604082015250565b6000614302604183613c41565b915061430d82614280565b606082019050919050565b60006020820190508181036000830152614331816142f5565b9050919050565b7f50277320636f6d6d69746d656e74207472616e73616374696f6e20646f65732060008201527f6e6f74207370656e64207468652066756e64696e67207472616e73616374696f60208201527f6e206f7574707574202877726f6e6720696e6465782900000000000000000000604082015250565b60006143ba605683613c41565b91506143c582614338565b606082019050919050565b600060208201905081810360008301526143e9816143ad565b9050919050565b7f56277320636f6d6d69746d656e74207472616e73616374696f6e20646f65732060008201527f6e6f74207370656e64207468652066756e64696e67207472616e73616374696f60208201527f6e206f7574707574202877726f6e6720696e6465782900000000000000000000604082015250565b6000614472605683613c41565b915061447d826143f0565b606082019050919050565b600060208201905081810360008301526144a181614465565b9050919050565b7f4e487b7100000000000000000000000000000000000000000000000000000000600052601160045260246000fd5b60006144e2826133f9565b91506144ed836133f9565b9250828203905081811115614505576145046144a8565b5b92915050565b6000819050602082019050919050565b600061452782516133a1565b80915050919050565b600061453b826137f1565b826145458461450b565b90506145508161451b565b925060048210156145905761458b7fffffffff00000000000000000000000000000000000000000000000000000000836004036008026139e8565b831692505b5050919050565b6000819050919050565b6145b26145ad82613225565b614597565b82525050565b60006145c482846145a1565b60208201915081905092915050565b60006145de826133f9565b91507fffffffffffffffffffffffffffffffffffffffffffffffffffffffffffffffff82036146105761460f6144a8565b5b600182019050919050565b60006146278251613225565b80915050919050565b600061463b826137f1565b826146458461450b565b90506146508161461b565b925060208210156146905761468b7fffffffffffffffffffffffffffffffffffffffffffffffffffffffffffffffff836020036008026139e8565b831692505b5050919050565b7f54782068617320746f6f206d616e7920696e7075747320283e31290000000000600082015250565b60006146cd601b83613c41565b91506146d882614697565b602082019050919050565b600060208201905081810360008301526146fc816146c0565b9050919050565b7f4e487b7100000000000000000000000000000000000000000000000000000000600052601260045260246000fd5b600061473d826133f9565b9150614748836133f9565b92508261475857614757614703565b5b828206905092915050565b600061476f8287613fce565b915061477b8286613fce565b91506147878285613fce565b91506147938284613fce565b915081905095945050505050565b60006147ac826133f9565b91506147b7836133f9565b92508282019050808211156147cf576147ce6144a8565b5b92915050565b7f736c6963655f6f766572666c6f77000000000000000000000000000000000000600082015250565b600061480b600e83613c41565b9150614816826147d5565b602082019050919050565b6000602082019050818103600083015261483a816147fe565b9050919050565b7f736c6963655f6f75744f66426f756e6473000000000000000000000000000000600082015250565b6000614877601183613c41565b915061488282614841565b602082019050919050565b600060208201905081810360008301526148a68161486a565b9050919050565b600073ffffffffffffffffffffffffffffffffffffffff82169050919050565b60006148d8826148ad565b91506148e3836148ad565b9250828203905073ffffffffffffffffffffffffffffffffffffffff81111561490f5761490e6144a8565b5b92915050565b6000614920826148ad565b915061492b836148ad565b9250828202614939816148ad565b915082820484148315176149505761494f6144a8565b5b5092915050565b6000614962826148ad565b915061496d836148ad565b9250828201905073ffffffffffffffffffffffffffffffffffffffff811115614999576149986144a8565b5b92915050565b60006149aa826148ad565b915073ffffffffffffffffffffffffffffffffffffffff82036149d0576149cf6144a8565b5b600182019050919050565b60006149e6826133f9565b91506149f1836133f9565b92508282026149ff816133f9565b91508282048414831517614a1657614a156144a8565b5b5092915050565b7f746f55696e743235365f6f75744f66426f756e64730000000000000000000000600082015250565b6000614a53601583613c41565b9150614a5e82614a1d565b602082019050919050565b60006020820190508181036000830152614a8281614a46565b9050919050565b600061ffff82169050919050565b6000614aa282614a89565b9150614aad83614a89565b9250828202614abb81614a89565b9150808214614acd57614acc6144a8565b5b5092915050565b600063ffffffff82169050919050565b6000614aef82614ad4565b9150614afa83614ad4565b9250828202614b0881614ad4565b9150808214614b1a57614b196144a8565b5b5092915050565b600067ffffffffffffffff82169050919050565b6000614b4082614b21565b9150614b4b83614b21565b9250828202614b5981614b21565b9150808214614b6b57614b6a6144a8565b5b5092915050565b7f56616c75652065786365656473207468652072616e6765000000000000000000600082015250565b6000614ba8601783613c41565b9150614bb382614b72565b602082019050919050565b60006020820190508181036000830152614bd781614b9b565b905091905056fea26469706673582212200996e0c24e329dff51f36c1280a85bfb62b6c3bb6db84c3cb53dc50e18ff11e864736f6c63430008130033",
  "linkReferences": {},
  "deployedLinkReferences": {}
}