{
  "_format": "hh-sol-artifact-1",
  "contractName": "LNBridge",
  "sourceName": "contracts/LNBridge.sol",
  "abi": [
    {
      "inputs": [
        {
          "internalType": "uint256",
          "name": "value",
          "type": "uint256"
        },
        {
          "internalType": "uint256",
          "name": "length",
          "type": "uint256"
        }
      ],
      "name": "StringsInsufficientHexLength",
      "type": "error"
    },
    {
      "inputs": [
        {
          "internalType": "bytes",
          "name": "rawTxP_locked",
          "type": "bytes"
        },
        {
          "internalType": "bytes",
          "name": "sigV",
          "type": "bytes"
        },
        {
          "internalType": "bytes",
          "name": "rawTxV_unlocked",
          "type": "bytes"
        },
        {
          "internalType": "bytes",
          "name": "sigP",
          "type": "bytes"
        }
      ],
      "name": "dispute",
      "outputs": [],
      "stateMutability": "nonpayable",
      "type": "function"
    },
    {
      "inputs": [
        {
          "internalType": "bytes",
          "name": "_txBytes",
          "type": "bytes"
        }
      ],
      "name": "readThreeOutputs",
      "outputs": [
        {
          "internalType": "uint256",
          "name": "",
          "type": "uint256"
        },
        {
          "internalType": "bytes32",
          "name": "",
          "type": "bytes32"
        },
        {
          "internalType": "uint256",
          "name": "",
          "type": "uint256"
        },
        {
          "internalType": "bytes32",
          "name": "",
          "type": "bytes32"
        },
        {
          "internalType": "uint256",
          "name": "",
          "type": "uint256"
        },
        {
          "internalType": "bytes32",
          "name": "",
          "type": "bytes32"
        }
      ],
      "stateMutability": "nonpayable",
      "type": "function"
    },
    {
      "inputs": [
        {
          "internalType": "bytes",
          "name": "oldRevSecret",
          "type": "bytes"
        },
        {
          "internalType": "bytes",
          "name": "rawTxP_unlocked",
          "type": "bytes"
        },
        {
          "internalType": "bytes",
          "name": "sigV",
          "type": "bytes"
        }
      ],
      "name": "resolveDispute",
      "outputs": [],
      "stateMutability": "nonpayable",
      "type": "function"
    },
    {
      "inputs": [],
      "name": "settle",
      "outputs": [],
      "stateMutability": "nonpayable",
      "type": "function"
    },
    {
      "inputs": [
        {
          "internalType": "bytes32",
          "name": "_fundingTxId",
          "type": "bytes32"
        },
        {
          "internalType": "bytes32",
          "name": "_pkProver",
          "type": "bytes32"
        },
        {
          "internalType": "bytes32",
          "name": "_pkVerifier",
          "type": "bytes32"
        },
        {
          "internalType": "uint256",
          "name": "_index",
          "type": "uint256"
        },
        {
          "internalType": "uint256",
          "name": "_timestamp",
          "type": "uint256"
        }
      ],
      "name": "setup",
      "outputs": [],
      "stateMutability": "nonpayable",
      "type": "function"
    },
    {
      "inputs": [
        {
          "internalType": "bytes",
          "name": "rawTxP_unlocked",
          "type": "bytes"
        },
        {
          "internalType": "bytes",
          "name": "sigV",
          "type": "bytes"
        },
        {
          "internalType": "bytes",
          "name": "rawTxV_unlocked",
          "type": "bytes"
        },
        {
          "internalType": "bytes",
          "name": "sigP",
          "type": "bytes"
        }
      ],
      "name": "submitProof",
      "outputs": [],
      "stateMutability": "nonpayable",
      "type": "function"
    },
    {
      "inputs": [],
      "name": "timestamp",
      "outputs": [
        {
          "internalType": "uint256",
          "name": "",
          "type": "uint256"
        }
      ],
      "stateMutability": "view",
      "type": "function"
    },
    {
      "inputs": [],
      "name": "timestamp_dispute",
      "outputs": [
        {
          "internalType": "uint256",
          "name": "",
          "type": "uint256"
        }
      ],
      "stateMutability": "view",
      "type": "function"
    },
    {
      "inputs": [
        {
          "internalType": "bytes",
          "name": "pk",
          "type": "bytes"
        },
        {
          "internalType": "bytes32",
          "name": "digest",
          "type": "bytes32"
        },
        {
          "internalType": "uint8",
          "name": "v",
          "type": "uint8"
        },
        {
          "internalType": "bytes32",
          "name": "r",
          "type": "bytes32"
        },
        {
          "internalType": "bytes32",
          "name": "s",
          "type": "bytes32"
        }
      ],
      "name": "verifySignature",
      "outputs": [
        {
          "internalType": "bool",
          "name": "",
          "type": "bool"
        }
      ],
      "stateMutability": "view",
      "type": "function"
    }
  ],
  "bytecode": "0x608060405234801561001057600080fd5b506128ae806100206000396000f3fe608060405234801561001057600080fd5b50600436106100935760003560e01c806343f104d21161006657806343f104d21461010f57806347aa95731461012b57806379a85bd91461015b578063a5dd32ac14610177578063b80777ea1461019557610093565b806306ac0e261461009857806311da60b4146100b45780633740d249146100be5780633c1c0699146100da575b600080fd5b6100b260048036038101906100ad9190611c78565b6101b3565b005b6100bc6101dd565b005b6100d860048036038101906100d39190611e39565b6101df565b005b6100f460048036038101906100ef9190611f10565b6101e5565b60405161010696959493929190611f77565b60405180910390f35b61012960048036038101906101249190611e39565b6103da565b005b61014560048036038101906101409190612011565b6103e0565b60405161015291906120c3565b60405180910390f35b610175600480360381019061017091906120de565b6103fa565b005b61017f6103ff565b60405161018c9190612185565b60405180910390f35b61019d610405565b6040516101aa9190612185565b60405180910390f35b84600081905550836001819055508260028190555081600381905550806004819055505050505050565b565b50505050565b6000806000806000806000806000806000806102008d61040b565b809650819750829850839950849a50859b505050505050506102576040518060400160405280601581526020017f436865636b2076616c75655f6f75747075745f313a000000000000000000000081525087610716565b6102a36040518060400160405280601481526020017f436865636b207363726970745f646174615f313a00000000000000000000000081525061029e8760001c60206107b2565b6109f8565b6102e26040518060400160405280601581526020017f436865636b2076616c75655f6f75747075745f323a000000000000000000000081525085610716565b61032e6040518060400160405280601481526020017f436865636b207363726970745f646174615f323a0000000000000000000000008152506103298560001c60206107b2565b6109f8565b61036d6040518060400160405280601581526020017f436865636b2076616c75655f6f75747075745f333a000000000000000000000081525083610716565b6103b96040518060400160405280601481526020017f436865636b207363726970745f646174615f333a0000000000000000000000008152506103b48360001c60206107b2565b6109f8565b8585858585859b509b509b509b509b509b5050505050505091939550919395565b50505050565b60006103ef8686868686610a94565b905095945050505050565b505050565b60055481565b60045481565b600080600080600080600080600267ffffffffffffffff81111561043257610431611d0e565b5b6040519080825280602002602001820160405280156104605781602001602082028036833780820191505090505b5090506000600367ffffffffffffffff8111156104805761047f611d0e565b5b6040519080825280602002602001820160405280156104ae5781602001602082028036833780820191505090505b5090506000600367ffffffffffffffff8111156104ce576104cd611d0e565b5b6040519080825280602002602001820160405280156104fc5781602001602082028036833780820191505090505b5090506000600367ffffffffffffffff81111561051c5761051b611d0e565b5b60405190808252806020026020018201604052801561054a5781602001602082028036833780820191505090505b5090506000600367ffffffffffffffff81111561056a57610569611d0e565b5b6040519080825280602002602001820160405280156105985781602001602082028036833780820191505090505b509050600495506105ab8d876000610b76565b80975081965050506105bf8d876000610c88565b8099508197508296508395505050505060005b600381101561065257600061061c8f8684815181106105f4576105f36121a0565b5b602002602001015188858151811061060f5761060e6121a0565b5b6020026020010151610e7f565b905080838381518110610632576106316121a0565b5b60200260200101818152505050808061064a906121fe565b9150506105d2565b5081600081518110610667576106666121a0565b5b602002602001015181600081518110610683576106826121a0565b5b60200260200101518360018151811061069f5761069e6121a0565b5b6020026020010151836001815181106106bb576106ba6121a0565b5b6020026020010151856002815181106106d7576106d66121a0565b5b6020026020010151856002815181106106f3576106f26121a0565b5b60200260200101519b509b509b509b509b509b5050505050505091939550919395565b6107ae828260405160240161072c9291906122c5565b6040516020818303038152906040527fb60e72cc000000000000000000000000000000000000000000000000000000007bffffffffffffffffffffffffffffffffffffffffffffffffffffffff19166020820180517bffffffffffffffffffffffffffffffffffffffffffffffffffffffff8381831617835250505050610f34565b5050565b60606000839050600060028460026107ca91906122f5565b6107d49190612337565b67ffffffffffffffff8111156107ed576107ec611d0e565b5b6040519080825280601f01601f19166020018201604052801561081f5781602001600182028036833780820191505090505b5090507f300000000000000000000000000000000000000000000000000000000000000081600081518110610857576108566121a0565b5b60200101907effffffffffffffffffffffffffffffffffffffffffffffffffffffffffffff1916908160001a9053507f7800000000000000000000000000000000000000000000000000000000000000816001815181106108bb576108ba6121a0565b5b60200101907effffffffffffffffffffffffffffffffffffffffffffffffffffffffffffff1916908160001a905350600060018560026108fb91906122f5565b6109059190612337565b90505b60018111156109a5577f3031323334353637383961626364656600000000000000000000000000000000600f841660108110610947576109466121a0565b5b1a60f81b82828151811061095e5761095d6121a0565b5b60200101907effffffffffffffffffffffffffffffffffffffffffffffffffffffffffffff1916908160001a905350600483901c92508061099e9061236b565b9050610908565b50600082146109ed5784846040517fe22e27eb0000000000000000000000000000000000000000000000000000000081526004016109e4929190612394565b60405180910390fd5b809250505092915050565b610a908282604051602401610a0e9291906123bd565b6040516020818303038152906040527f4b5c4277000000000000000000000000000000000000000000000000000000007bffffffffffffffffffffffffffffffffffffffffffffffffffffffff19166020820180517bffffffffffffffffffffffffffffffffffffffffffffffffffffffff8381831617835250505050610f34565b5050565b60006040865114610ada576040517f08c379a0000000000000000000000000000000000000000000000000000000008152600401610ad19061248c565b60405180910390fd5b6000610ae587610f4e565b9050600060018787878760405160008152602001604052604051610b0c94939291906124bb565b6020604051602081039080840390855afa158015610b2e573d6000803e3d6000fd5b5050506020604051035190508173ffffffffffffffffffffffffffffffffffffffff168173ffffffffffffffffffffffffffffffffffffffff16149250505095945050505050565b6060600080600080610b888888610fc6565b80985081945050506000861480610b9e57508286115b15610bab57829150610baf565b8591505b60008267ffffffffffffffff811115610bcb57610bca611d0e565b5b604051908082528060200260200182016040528015610bf95781602001602082028036833780820191505090505b50905060005b83811015610c7557602489610c149190612337565b9850610c208a8a610fc6565b809a50819450505082828281518110610c3c57610c3b6121a0565b5b602002602001018181525050600483610c559190612337565b89610c609190612337565b98508080610c6d906121fe565b915050610bff565b5080889550955050505050935093915050565b6060806060600080600080610c9d8a8a610fc6565b809a5081945050506000881480610cb357508288115b15610cc057829150610cc4565b8791505b60008267ffffffffffffffff811115610ce057610cdf611d0e565b5b604051908082528060200260200182016040528015610d0e5781602001602082028036833780820191505090505b50905060008367ffffffffffffffff811115610d2d57610d2c611d0e565b5b604051908082528060200260200182016040528015610d5b5781602001602082028036833780820191505090505b50905060008467ffffffffffffffff811115610d7a57610d79611d0e565b5b604051908082528060200260200182016040528015610da85781602001602082028036833780820191505090505b50905060005b85811015610e6357610dc28e8e60406110ae565b828281518110610dd557610dd46121a0565b5b60200260200101818152505060088d610dee9190612337565b9c50610dfa8e8e610fc6565b809e5081965050508c848281518110610e1657610e156121a0565b5b60200260200101818152505084838281518110610e3657610e356121a0565b5b602002602001018181525050848d610e4e9190612337565b9c508080610e5b906121fe565b915050610dae565b508083838e995099509950995050505050505093509350935093565b6000610e8c848484611519565b15610ebd57610ea784600385610ea29190612337565b6116de565b6bffffffffffffffffffffffff19169050610f2d565b610ec88484846117c1565b15610ef957610ee384600285610ede9190612337565b6116de565b6bffffffffffffffffffffffff19169050610f2d565b610f048484846118de565b15610f2657610f1f84600285610f1a9190612337565b6119a1565b9050610f2d565b6000801b90505b9392505050565b610f4b81610f43611a2c611a4d565b63ffffffff16565b50565b60006040825114610f94576040517f08c379a0000000000000000000000000000000000000000000000000000000008152600401610f8b90612572565b60405180910390fd5b6000610fb8610fad600085611a5890919063ffffffff16565b62ffffff1916611a83565b90508060001c915050919050565b6000806000848481518110610fde57610fdd6121a0565b5b602001015160f81c60f81b60f81c9050600184610ffb9190612337565b935060fd8160ff16101561101b5780848160ff16915092509250506110a7565b60fd8160ff160361104957611032858560106110ae565b60028561103f9190612337565b92509250506110a7565b60fe8160ff160361107757611060858560206110ae565b60048561106d9190612337565b92509250506110a7565b60ff8160ff16036110a55761108e858560406110ae565b60088561109b9190612337565b92509250506110a7565b505b9250929050565b6000600882036110e3578383815181106110cb576110ca6121a0565b5b602001015160f81c60f81b60f81c60ff169050611512565b6010820361116557610100846001856110fc9190612337565b8151811061110d5761110c6121a0565b5b602001015160f81c60f81b60f81c60ff1661112891906125a0565b61ffff1684848151811061113f5761113e6121a0565b5b602001015160f81c60f81b60f81c60ff1661ffff1661115e9190612337565b9050611512565b60208203611288576301000000846003856111809190612337565b81518110611191576111906121a0565b5b602001015160f81c60f81b60f81c60ff166111ac91906125ed565b63ffffffff1662010000856002866111c49190612337565b815181106111d5576111d46121a0565b5b602001015160f81c60f81b60f81c60ff166111f091906125ed565b63ffffffff16610100866001876112079190612337565b81518110611218576112176121a0565b5b602001015160f81c60f81b60f81c60ff1661123391906125ed565b63ffffffff1686868151811061124c5761124b6121a0565b5b602001015160f81c60f81b60f81c60ff1663ffffffff1661126d9190612337565b6112779190612337565b6112819190612337565b9050611512565b6040820361151157670100000000000000846007856112a79190612337565b815181106112b8576112b76121a0565b5b602001015160f81c60f81b60f81c60ff166112d3919061263e565b67ffffffffffffffff166601000000000000856006866112f39190612337565b81518110611304576113036121a0565b5b602001015160f81c60f81b60f81c60ff1661131f919061263e565b67ffffffffffffffff16650100000000008660058761133e9190612337565b8151811061134f5761134e6121a0565b5b602001015160f81c60f81b60f81c60ff1661136a919061263e565b67ffffffffffffffff16640100000000876004886113889190612337565b81518110611399576113986121a0565b5b602001015160f81c60f81b60f81c60ff166113b4919061263e565b67ffffffffffffffff166301000000886003896113d19190612337565b815181106113e2576113e16121a0565b5b602001015160f81c60f81b60f81c60ff166113fd919061263e565b67ffffffffffffffff16620100008960028a6114199190612337565b8151811061142a576114296121a0565b5b602001015160f81c60f81b60f81c60ff16611445919061263e565b67ffffffffffffffff166101008a60018b6114609190612337565b81518110611471576114706121a0565b5b602001015160f81c60f81b60f81c60ff1661148c919061263e565b67ffffffffffffffff168a8a815181106114a9576114a86121a0565b5b602001015160f81c60f81b60f81c60ff1667ffffffffffffffff166114ce9190612337565b6114d89190612337565b6114e29190612337565b6114ec9190612337565b6114f69190612337565b6115009190612337565b61150a9190612337565b9050611512565b5b9392505050565b600060198214801561156d5750607660f81b84848151811061153e5761153d6121a0565b5b602001015160f81c60f81b7effffffffffffffffffffffffffffffffffffffffffffffffffffffffffffff1916145b80156115c7575060a960f81b846001856115879190612337565b81518110611598576115976121a0565b5b602001015160f81c60f81b7effffffffffffffffffffffffffffffffffffffffffffffffffffffffffffff1916145b80156116215750601460f81b846002856115e19190612337565b815181106115f2576115f16121a0565b5b602001015160f81c60f81b7effffffffffffffffffffffffffffffffffffffffffffffffffffffffffffff1916145b801561167b5750608860f81b8460178561163b9190612337565b8151811061164c5761164b6121a0565b5b602001015160f81c60f81b7effffffffffffffffffffffffffffffffffffffffffffffffffffffffffffff1916145b80156116d5575060ac60f81b846018856116959190612337565b815181106116a6576116a56121a0565b5b602001015160f81c60f81b7effffffffffffffffffffffffffffffffffffffffffffffffffffffffffffff1916145b90509392505050565b6000806000905060005b60148173ffffffffffffffffffffffffffffffffffffffff1610156117b357806013611714919061269b565b600861172091906126e3565b73ffffffffffffffffffffffffffffffffffffffff1685858373ffffffffffffffffffffffffffffffffffffffff166117599190612337565b8151811061176a576117696121a0565b5b602001015160f81c60f81b60f81c60ff1673ffffffffffffffffffffffffffffffffffffffff16901b8261179e9190612725565b915080806117ab9061276d565b9150506116e8565b508060601b91505092915050565b6000601782148015611821575060a960f81b846000856117e19190612337565b815181106117f2576117f16121a0565b5b602001015160f81c60f81b7effffffffffffffffffffffffffffffffffffffffffffffffffffffffffffff1916145b801561187b5750601460f81b8460018561183b9190612337565b8151811061184c5761184b6121a0565b5b602001015160f81c60f81b7effffffffffffffffffffffffffffffffffffffffffffffffffffffffffffff1916145b80156118d55750608760f81b846016856118959190612337565b815181106118a6576118a56121a0565b5b602001015160f81c60f81b7effffffffffffffffffffffffffffffffffffffffffffffffffffffffffffff1916145b90509392505050565b600060228214801561193e5750606a60f81b846000856118fe9190612337565b8151811061190f5761190e6121a0565b5b602001015160f81c60f81b7effffffffffffffffffffffffffffffffffffffffffffffffffffffffffffff1916145b80156119985750602060f81b846001856119589190612337565b81518110611969576119686121a0565b5b602001015160f81c60f81b7effffffffffffffffffffffffffffffffffffffffffffffffffffffffffffff1916145b90509392505050565b6000806000905060005b6020811015611a1e5780601f6119c191906127a9565b60086119cd91906122f5565b8585836119da9190612337565b815181106119eb576119ea6121a0565b5b602001015160f81c60f81b60f81c60ff16901b82611a099190612337565b91508080611a16906121fe565b9150506119ab565b508060001b91505092915050565b60006a636f6e736f6c652e6c6f679050600080835160208501845afa505050565b611bee819050919050565b600080835190506000602085019050611a798464ffffffffff168284611ac6565b9250505092915050565b600080611a8f83611b34565b6bffffffffffffffffffffffff1690506000611aaa84611b54565b6bffffffffffffffffffffffff16905080822092505050919050565b600080611adc8385611b7490919063ffffffff16565b9050604051811115611aed57600090505b60008103611b1e577fffffffffffffffffffffffffffffffffffffffffffffffffffffffffff000000915050611b2d565b611b29858585611bcd565b9150505b9392505050565b6000806bffffffffffffffffffffffff9050808360781c16915050919050565b6000806bffffffffffffffffffffffff9050808360181c16915050919050565b60008183611b829190612337565b905082811015611bc7576040517f08c379a0000000000000000000000000000000000000000000000000000000008152600401611bbe90612829565b60405180910390fd5b92915050565b600083811760601b905082811760601b905081811760181b90509392505050565b611bf6612849565b565b6000604051905090565b600080fd5b600080fd5b6000819050919050565b611c1f81611c0c565b8114611c2a57600080fd5b50565b600081359050611c3c81611c16565b92915050565b6000819050919050565b611c5581611c42565b8114611c6057600080fd5b50565b600081359050611c7281611c4c565b92915050565b600080600080600060a08688031215611c9457611c93611c02565b5b6000611ca288828901611c2d565b9550506020611cb388828901611c2d565b9450506040611cc488828901611c2d565b9350506060611cd588828901611c63565b9250506080611ce688828901611c63565b9150509295509295909350565b600080fd5b600080fd5b6000601f19601f8301169050919050565b7f4e487b7100000000000000000000000000000000000000000000000000000000600052604160045260246000fd5b611d4682611cfd565b810181811067ffffffffffffffff82111715611d6557611d64611d0e565b5b80604052505050565b6000611d78611bf8565b9050611d848282611d3d565b919050565b600067ffffffffffffffff821115611da457611da3611d0e565b5b611dad82611cfd565b9050602081019050919050565b82818337600083830152505050565b6000611ddc611dd784611d89565b611d6e565b905082815260208101848484011115611df857611df7611cf8565b5b611e03848285611dba565b509392505050565b600082601f830112611e2057611e1f611cf3565b5b8135611e30848260208601611dc9565b91505092915050565b60008060008060808587031215611e5357611e52611c02565b5b600085013567ffffffffffffffff811115611e7157611e70611c07565b5b611e7d87828801611e0b565b945050602085013567ffffffffffffffff811115611e9e57611e9d611c07565b5b611eaa87828801611e0b565b935050604085013567ffffffffffffffff811115611ecb57611eca611c07565b5b611ed787828801611e0b565b925050606085013567ffffffffffffffff811115611ef857611ef7611c07565b5b611f0487828801611e0b565b91505092959194509250565b600060208284031215611f2657611f25611c02565b5b600082013567ffffffffffffffff811115611f4457611f43611c07565b5b611f5084828501611e0b565b91505092915050565b611f6281611c42565b82525050565b611f7181611c0c565b82525050565b600060c082019050611f8c6000830189611f59565b611f996020830188611f68565b611fa66040830187611f59565b611fb36060830186611f68565b611fc06080830185611f59565b611fcd60a0830184611f68565b979650505050505050565b600060ff82169050919050565b611fee81611fd8565b8114611ff957600080fd5b50565b60008135905061200b81611fe5565b92915050565b600080600080600060a0868803121561202d5761202c611c02565b5b600086013567ffffffffffffffff81111561204b5761204a611c07565b5b61205788828901611e0b565b955050602061206888828901611c2d565b945050604061207988828901611ffc565b935050606061208a88828901611c2d565b925050608061209b88828901611c2d565b9150509295509295909350565b60008115159050919050565b6120bd816120a8565b82525050565b60006020820190506120d860008301846120b4565b92915050565b6000806000606084860312156120f7576120f6611c02565b5b600084013567ffffffffffffffff81111561211557612114611c07565b5b61212186828701611e0b565b935050602084013567ffffffffffffffff81111561214257612141611c07565b5b61214e86828701611e0b565b925050604084013567ffffffffffffffff81111561216f5761216e611c07565b5b61217b86828701611e0b565b9150509250925092565b600060208201905061219a6000830184611f59565b92915050565b7f4e487b7100000000000000000000000000000000000000000000000000000000600052603260045260246000fd5b7f4e487b7100000000000000000000000000000000000000000000000000000000600052601160045260246000fd5b600061220982611c42565b91507fffffffffffffffffffffffffffffffffffffffffffffffffffffffffffffffff820361223b5761223a6121cf565b5b600182019050919050565b600081519050919050565b600082825260208201905092915050565b60005b83811015612280578082015181840152602081019050612265565b60008484015250505050565b600061229782612246565b6122a18185612251565b93506122b1818560208601612262565b6122ba81611cfd565b840191505092915050565b600060408201905081810360008301526122df818561228c565b90506122ee6020830184611f59565b9392505050565b600061230082611c42565b915061230b83611c42565b925082820261231981611c42565b915082820484148315176123305761232f6121cf565b5b5092915050565b600061234282611c42565b915061234d83611c42565b9250828201905080821115612365576123646121cf565b5b92915050565b600061237682611c42565b915060008203612389576123886121cf565b5b600182039050919050565b60006040820190506123a96000830185611f59565b6123b66020830184611f59565b9392505050565b600060408201905081810360008301526123d7818561228c565b905081810360208301526123eb818461228c565b90509392505050565b7f436865636b426974636f696e536967732f636865636b536967202d2d2052657160008201527f756972657320756e636f6d7072657373656420756e707265666978656420707560208201527f626b657900000000000000000000000000000000000000000000000000000000604082015250565b6000612476604483612251565b9150612481826123f4565b606082019050919050565b600060208201905081810360008301526124a581612469565b9050919050565b6124b581611fd8565b82525050565b60006080820190506124d06000830187611f68565b6124dd60208301866124ac565b6124ea6040830185611f68565b6124f76060830184611f68565b95945050505050565b7f5075626b6579206d7573742062652036342d62797465207261772c20756e636f60008201527f6d70726573736564206b65792e00000000000000000000000000000000000000602082015250565b600061255c602d83612251565b915061256782612500565b604082019050919050565b6000602082019050818103600083015261258b8161254f565b9050919050565b600061ffff82169050919050565b60006125ab82612592565b91506125b683612592565b92508282026125c481612592565b91508082146125d6576125d56121cf565b5b5092915050565b600063ffffffff82169050919050565b60006125f8826125dd565b9150612603836125dd565b9250828202612611816125dd565b9150808214612623576126226121cf565b5b5092915050565b600067ffffffffffffffff82169050919050565b60006126498261262a565b91506126548361262a565b92508282026126628161262a565b9150808214612674576126736121cf565b5b5092915050565b600073ffffffffffffffffffffffffffffffffffffffff82169050919050565b60006126a68261267b565b91506126b18361267b565b9250828203905073ffffffffffffffffffffffffffffffffffffffff8111156126dd576126dc6121cf565b5b92915050565b60006126ee8261267b565b91506126f98361267b565b92508282026127078161267b565b9150828204841483151761271e5761271d6121cf565b5b5092915050565b60006127308261267b565b915061273b8361267b565b9250828201905073ffffffffffffffffffffffffffffffffffffffff811115612767576127666121cf565b5b92915050565b60006127788261267b565b915073ffffffffffffffffffffffffffffffffffffffff820361279e5761279d6121cf565b5b600182019050919050565b60006127b482611c42565b91506127bf83611c42565b92508282039050818111156127d7576127d66121cf565b5b92915050565b7f4f766572666c6f7720647572696e67206164646974696f6e2e00000000000000600082015250565b6000612813601983612251565b915061281e826127dd565b602082019050919050565b6000602082019050818103600083015261284281612806565b9050919050565b7f4e487b7100000000000000000000000000000000000000000000000000000000600052605160045260246000fdfea26469706673582212206e6f05ed2ad8d48324548ea0433526e9c0becc6240a8f4dcdeca8ae0a94674b564736f6c63430008130033",
  "linkReferences": {},
  "deployedLinkReferences": {}
}