{
  "_format": "hh-sol-artifact-1",
  "contractName": "LNBridge",
  "sourceName": "contracts/LNBridge.sol",
  "abi": [
    {
      "inputs": [
        {
          "internalType": "uint256",
          "name": "value",
          "type": "uint256"
        },
        {
          "internalType": "uint256",
          "name": "length",
          "type": "uint256"
        }
      ],
      "name": "StringsInsufficientHexLength",
      "type": "error"
    },
    {
      "inputs": [],
      "name": "bridge",
      "outputs": [
        {
          "internalType": "bytes32",
          "name": "fundingTxId",
          "type": "bytes32"
        },
        {
          "internalType": "bytes32",
          "name": "pkProver",
          "type": "bytes32"
        },
        {
          "internalType": "bytes32",
          "name": "pkVerifier",
          "type": "bytes32"
        },
        {
          "internalType": "uint256",
          "name": "index",
          "type": "uint256"
        },
        {
          "internalType": "uint256",
          "name": "timelock",
          "type": "uint256"
        },
        {
          "internalType": "uint256",
          "name": "timelock_dispute",
          "type": "uint256"
        }
      ],
      "stateMutability": "view",
      "type": "function"
    },
    {
      "inputs": [
        {
          "internalType": "bytes",
          "name": "rawTxP_locked",
          "type": "bytes"
        },
        {
          "internalType": "bytes",
          "name": "sigV",
          "type": "bytes"
        },
        {
          "internalType": "bytes",
          "name": "rawTxV_unlocked",
          "type": "bytes"
        },
        {
          "internalType": "bytes",
          "name": "sigP",
          "type": "bytes"
        }
      ],
      "name": "dispute",
      "outputs": [],
      "stateMutability": "nonpayable",
      "type": "function"
    },
    {
      "inputs": [
        {
          "internalType": "bytes",
          "name": "_txBytes",
          "type": "bytes"
        }
      ],
      "name": "getInputsData",
      "outputs": [
        {
          "components": [
            {
              "internalType": "uint256",
              "name": "number_of_inputs",
              "type": "uint256"
            },
            {
              "internalType": "bytes32",
              "name": "txid",
              "type": "bytes32"
            },
            {
              "internalType": "bytes4",
              "name": "inputIndex",
              "type": "bytes4"
            }
          ],
          "internalType": "struct LNBridge.Input",
          "name": "",
          "type": "tuple"
        }
      ],
      "stateMutability": "view",
      "type": "function"
    },
    {
      "inputs": [
        {
          "internalType": "bytes",
          "name": "_txBytes",
          "type": "bytes"
        }
      ],
      "name": "getOutputsData",
      "outputs": [
        {
          "components": [
            {
              "internalType": "uint256",
              "name": "value",
              "type": "uint256"
            },
            {
              "internalType": "bytes32",
              "name": "pk1",
              "type": "bytes32"
            },
            {
              "internalType": "bytes32",
              "name": "pk2",
              "type": "bytes32"
            },
            {
              "internalType": "bytes32",
              "name": "rev_secret",
              "type": "bytes32"
            }
          ],
          "internalType": "struct LNBridge.LightningHTLCData",
          "name": "",
          "type": "tuple"
        },
        {
          "components": [
            {
              "internalType": "uint256",
              "name": "value",
              "type": "uint256"
            },
            {
              "internalType": "bytes20",
              "name": "pkhash",
              "type": "bytes20"
            }
          ],
          "internalType": "struct LNBridge.P2PKHData",
          "name": "",
          "type": "tuple"
        },
        {
          "components": [
            {
              "internalType": "uint256",
              "name": "value",
              "type": "uint256"
            },
            {
              "internalType": "bytes32",
              "name": "data",
              "type": "bytes32"
            }
          ],
          "internalType": "struct LNBridge.OpReturnData",
          "name": "",
          "type": "tuple"
        }
      ],
      "stateMutability": "view",
      "type": "function"
    },
    {
      "inputs": [
        {
          "internalType": "bytes",
          "name": "_txBytes",
          "type": "bytes"
        }
      ],
      "name": "getSignatures",
      "outputs": [
        {
          "components": [
            {
              "internalType": "uint8",
              "name": "v",
              "type": "uint8"
            },
            {
              "internalType": "bytes32",
              "name": "r",
              "type": "bytes32"
            },
            {
              "internalType": "bytes32",
              "name": "s",
              "type": "bytes32"
            }
          ],
          "internalType": "struct LNBridge.Signature[]",
          "name": "",
          "type": "tuple[]"
        }
      ],
      "stateMutability": "nonpayable",
      "type": "function"
    },
    {
      "inputs": [
        {
          "internalType": "bytes",
          "name": "_txBytes",
          "type": "bytes"
        }
      ],
      "name": "getTimelock",
      "outputs": [
        {
          "internalType": "bytes4",
          "name": "",
          "type": "bytes4"
        }
      ],
      "stateMutability": "view",
      "type": "function"
    },
    {
      "inputs": [
        {
          "internalType": "bytes",
          "name": "oldRevSecret",
          "type": "bytes"
        },
        {
          "internalType": "bytes",
          "name": "rawTxP_unlocked",
          "type": "bytes"
        },
        {
          "internalType": "bytes",
          "name": "sigV",
          "type": "bytes"
        }
      ],
      "name": "resolveDispute",
      "outputs": [],
      "stateMutability": "nonpayable",
      "type": "function"
    },
    {
      "inputs": [],
      "name": "settle",
      "outputs": [],
      "stateMutability": "nonpayable",
      "type": "function"
    },
    {
      "inputs": [
        {
          "internalType": "bytes32",
          "name": "_fundingTxId",
          "type": "bytes32"
        },
        {
          "internalType": "bytes32",
          "name": "_pkProver",
          "type": "bytes32"
        },
        {
          "internalType": "bytes32",
          "name": "_pkVerifier",
          "type": "bytes32"
        },
        {
          "internalType": "uint256",
          "name": "_index",
          "type": "uint256"
        },
        {
          "internalType": "uint256",
          "name": "_timelock",
          "type": "uint256"
        }
      ],
      "name": "setup",
      "outputs": [],
      "stateMutability": "nonpayable",
      "type": "function"
    },
    {
      "inputs": [
        {
          "internalType": "bytes",
          "name": "rawTxP_unlocked",
          "type": "bytes"
        },
        {
          "internalType": "bytes",
          "name": "sigV",
          "type": "bytes"
        },
        {
          "internalType": "bytes",
          "name": "rawTxV_unlocked",
          "type": "bytes"
        },
        {
          "internalType": "bytes",
          "name": "sigP",
          "type": "bytes"
        }
      ],
      "name": "submitProof",
      "outputs": [],
      "stateMutability": "nonpayable",
      "type": "function"
    },
    {
      "inputs": [
        {
          "internalType": "bytes32",
          "name": "message",
          "type": "bytes32"
        },
        {
          "internalType": "bytes",
          "name": "signature",
          "type": "bytes"
        }
      ],
      "name": "testSigFunction",
      "outputs": [
        {
          "internalType": "address",
          "name": "",
          "type": "address"
        }
      ],
      "stateMutability": "view",
      "type": "function"
    },
    {
      "inputs": [
        {
          "internalType": "bytes32",
          "name": "message",
          "type": "bytes32"
        },
        {
          "internalType": "bytes",
          "name": "signature",
          "type": "bytes"
        },
        {
          "internalType": "bytes",
          "name": "pk",
          "type": "bytes"
        }
      ],
      "name": "testSigFunctionBTC",
      "outputs": [
        {
          "internalType": "bytes",
          "name": "",
          "type": "bytes"
        }
      ],
      "stateMutability": "view",
      "type": "function"
    },
    {
      "inputs": [
        {
          "internalType": "bytes",
          "name": "pk",
          "type": "bytes"
        },
        {
          "internalType": "bytes",
          "name": "message",
          "type": "bytes"
        },
        {
          "internalType": "uint8",
          "name": "_v",
          "type": "uint8"
        },
        {
          "internalType": "bytes32",
          "name": "_r",
          "type": "bytes32"
        },
        {
          "internalType": "bytes32",
          "name": "_s",
          "type": "bytes32"
        }
      ],
      "name": "verifySignature",
      "outputs": [
        {
          "internalType": "bool",
          "name": "",
          "type": "bool"
        }
      ],
      "stateMutability": "nonpayable",
      "type": "function"
    }
  ],
  "bytecode": "0x608060405234801561001057600080fd5b506144ca806100206000396000f3fe608060405234801561001057600080fd5b50600436106100cf5760003560e01c8063497c6cf61161008c5780636b45b4e3116100665780636b45b4e3146102245780637592088d1461025457806379a85bd914610284578063e78cea92146102a0576100cf565b8063497c6cf6146101925780634f500ea9146101c4578063604877a0146101f4576100cf565b806306ac0e26146100d457806311da60b4146100f05780631b72d91b146100fa578063369464801461012a5780633740d2491461015a57806343f104d214610176575b600080fd5b6100ee60048036038101906100e99190612dac565b6102c3565b005b6100f86102fb565b005b610114600480360381019061010f9190612f6d565b6102fd565b6040516101219190613077565b60405180910390f35b610144600480360381019061013f9190613099565b610345565b604051610151919061311d565b60405180910390f35b610174600480360381019061016f9190613138565b61037b565b005b610190600480360381019061018b9190613138565b610381565b005b6101ac60048036038101906101a79190613099565b610387565b6040516101bb9392919061331b565b60405180910390f35b6101de60048036038101906101d99190613099565b61062e565b6040516101eb91906133a4565b60405180910390f35b61020e600480360381019061020991906133f8565b610729565b60405161021b91906134c6565b60405180910390f35b61023e60048036038101906102399190613099565b610951565b60405161024b91906135e1565b60405180910390f35b61026e60048036038101906102699190613603565b61095d565b60405161027b91906136a0565b60405180910390f35b61029e600480360381019061029991906136bb565b610976565b005b6102a861097b565b6040516102ba96959493929190613780565b60405180910390f35b846000800181905550836000600101819055508260006002018190555081600060030181905550806000600401819055505050505050565b565b6060600061030b85856109a5565b9050600061033784604051602001610323919061381d565b604051602081830303815290604052610a6e565b905080925050509392505050565b6000808251905060006103668460058461035f9190613863565b6004610b3b565b61036f906138c9565b90508092505050919050565b50505050565b50505050565b61038f612c39565b610397612c6a565b61039f612c93565b6103a7612c39565b6103af612c93565b6103b7612c6a565b6103bf612cb0565b60048160000181815250506103da8882600001516000610c59565b82602001836000018281525082905250506103fb8882600001516000610d6b565b84608001856060018660400187600001848152508490528490528490525050505060005b600381101561061957600081036104bb57610477898360600151838151811061044b5761044a613930565b5b60200260200101518460400151848151811061046a57610469613930565b5b6020026020010151610f62565b876020018860600189604001838152508381525083815250505050816080015181815181106104a9576104a8613930565b5b60200260200101518560000181815250505b600181036105855761053361050d8a846060015184815181106104e1576104e0613930565b5b602002602001015185604001518581518110610500576104ff613930565b5b602002602001015161101e565b60405160200161051d9190613980565b60405160208183030381529060405260006111f8565b83602001906bffffffffffffffffffffffff191690816bffffffffffffffffffffffff1916815250508160800151818151811061057357610572613930565b5b60200260200101518360000181815250505b60028103610606576105d489836060015183815181106105a8576105a7613930565b5b6020026020010151846040015184815181106105c7576105c6613930565b5b602002602001015161101e565b846020018181525050816080015181815181106105f4576105f3613930565b5b60200260200101518460000181815250505b80806106119061399b565b91505061041f565b50838284965096509650505050509193909250565b610636612cdf565b61063e612cdf565b6106498360046112db565b508160000181815250506106608360256004610b3b565b610669906138c9565b81604001907bffffffffffffffffffffffffffffffffffffffffffffffffffffffff191690817bffffffffffffffffffffffffffffffffffffffffffffffffffffffff1916815250506106d06106c28460056025610b3b565b6106cb906139f8565b6113c3565b8160200181815250506001816000015114610720576040517f08c379a000000000000000000000000000000000000000000000000000000000815260040161071790613abc565b60405180910390fd5b80915050919050565b6000604086511461076f576040517f08c379a000000000000000000000000000000000000000000000000000000000815260040161076690613b74565b60405180910390fd5b600061077a876114c1565b90506107bb6040518060400160405280601181526020017f457870656374656420616464726573733a00000000000000000000000000000081525082611539565b60006107c6876115d5565b90506108146040518060400160405280600881526020017f6469676573743a2000000000000000000000000000000000000000000000000081525061080f8360001c602061169b565b6118e1565b6000600182888888604051600081526020016040526040516108399493929190613ba3565b6020604051602081039080840390855afa15801561085b573d6000803e3d6000fd5b5050506020604051035190506108a66040518060400160405280601181526020017f41637475616c20616464726573733a202000000000000000000000000000000081525082611539565b8273ffffffffffffffffffffffffffffffffffffffff168173ffffffffffffffffffffffffffffffffffffffff1614610914576040517f08c379a000000000000000000000000000000000000000000000000000000000815260040161090b90613c34565b60405180910390fd5b8273ffffffffffffffffffffffffffffffffffffffff168173ffffffffffffffffffffffffffffffffffffffff1614935050505095945050505050565b60608080915050919050565b60008061096a84846109a5565b90508091505092915050565b505050565b60008060000154908060010154908060020154908060030154908060040154908060050154905086565b600060418251036109ff5760008060006020850151925060408501519150606085015160001a9050601b8160ff1610156109e957601b816109e69190613c54565b90505b6109f58682858561197d565b9350505050610a68565b6040825103610a2d576000806020840151915060408401519050610a24858383611b07565b92505050610a68565b6040517f08c379a0000000000000000000000000000000000000000000000000000000008152600401610a5f90613cd5565b60405180910390fd5b92915050565b60606003600283604051610a82919061381d565b602060405180830381855afa158015610a9f573d6000803e3d6000fd5b5050506040513d601f19601f82011682018060405250810190610ac29190613d0a565b604051602001610ad29190613980565b604051602081830303815290604052604051610aee919061381d565b602060405180830381855afa158015610b0b573d6000803e3d6000fd5b5050506040515160601b604051602001610b259190613d58565b6040516020818303038152906040529050919050565b606081601f83610b4b9190613d73565b1015610b8c576040517f08c379a0000000000000000000000000000000000000000000000000000000008152600401610b8390613df3565b60405180910390fd5b8183610b989190613d73565b84511015610bdb576040517f08c379a0000000000000000000000000000000000000000000000000000000008152600401610bd290613e5f565b60405180910390fd5b6060821560008114610bfc5760405191506000825260208201604052610c4d565b6040519150601f8416801560200281840101858101878315602002848b0101015b81831015610c3a5780518352602083019250602081019050610c1d565b50868552601f19601f8301166040525050505b50809150509392505050565b6060600080600080610c6b88886112db565b80985081945050506000861480610c8157508286115b15610c8e57829150610c92565b8591505b60008267ffffffffffffffff811115610cae57610cad612e42565b5b604051908082528060200260200182016040528015610cdc5781602001602082028036833780820191505090505b50905060005b83811015610d5857602489610cf79190613d73565b9850610d038a8a6112db565b809a50819450505082828281518110610d1f57610d1e613930565b5b602002602001018181525050600483610d389190613d73565b89610d439190613d73565b98508080610d509061399b565b915050610ce2565b5080889550955050505050935093915050565b6060806060600080600080610d808a8a6112db565b809a5081945050506000881480610d9657508288115b15610da357829150610da7565b8791505b60008267ffffffffffffffff811115610dc357610dc2612e42565b5b604051908082528060200260200182016040528015610df15781602001602082028036833780820191505090505b50905060008367ffffffffffffffff811115610e1057610e0f612e42565b5b604051908082528060200260200182016040528015610e3e5781602001602082028036833780820191505090505b50905060008467ffffffffffffffff811115610e5d57610e5c612e42565b5b604051908082528060200260200182016040528015610e8b5781602001602082028036833780820191505090505b50905060005b85811015610f4657610ea58e8e6040611b51565b828281518110610eb857610eb7613930565b5b60200260200101818152505060088d610ed19190613d73565b9c50610edd8e8e6112db565b809e5081965050508c848281518110610ef957610ef8613930565b5b60200260200101818152505084838281518110610f1957610f18613930565b5b602002602001018181525050848d610f319190613d73565b9c508080610f3e9061399b565b915050610e91565b508083838e995099509950995050505050505093509350935093565b6000806000610f72868686611fbc565b1561100257610fb56040518060400160405280601b81526020017f506172736564204c696768746e696e6748544c43206f7574707574000000000081525061256b565b610fcb86600387610fc69190613d73565b612604565b610fe187602888610fdc9190613d73565b612604565b610ff788604c89610ff29190613d73565b612604565b925092509250611015565b6000801b6000801b6000801b9250925092505b93509350939050565b600061102b84848461268f565b1561109a5761106e6040518060400160405280601381526020017f506172736564205032504b48206f75747075740000000000000000000000000081525061256b565b6110848460038561107f9190613d73565b6111f8565b6bffffffffffffffffffffffff191690506111f1565b6110a5848484612854565b15611114576110e86040518060400160405280601281526020017f5061727365642050325348206f7574707574000000000000000000000000000081525061256b565b6110fe846002856110f99190613d73565b6111f8565b6bffffffffffffffffffffffff191690506111f1565b61111f848484612971565b1561117f576111626040518060400160405280601781526020017f506172736564204f505f52455455524e206f757470757400000000000000000081525061256b565b611178846002856111739190613d73565b612604565b90506111f1565b61118a848484611fbc565b156111ea576111cd6040518060400160405280601b81526020017f506172736564204c696768746e696e6748544c43206f7574707574000000000081525061256b565b6111e3846002856111de9190613d73565b612604565b90506111f1565b6000801b90505b9392505050565b6000806000905060005b60148173ffffffffffffffffffffffffffffffffffffffff1610156112cd5780601361122e9190613e7f565b600861123a9190613ec7565b73ffffffffffffffffffffffffffffffffffffffff1685858373ffffffffffffffffffffffffffffffffffffffff166112739190613d73565b8151811061128457611283613930565b5b602001015160f81c60f81b60f81c60ff1673ffffffffffffffffffffffffffffffffffffffff16901b826112b89190613f09565b915080806112c590613f51565b915050611202565b508060601b91505092915050565b60008060008484815181106112f3576112f2613930565b5b602001015160f81c60f81b60f81c90506001846113109190613d73565b935060fd8160ff1610156113305780848160ff16915092509250506113bc565b60fd8160ff160361135e5761134785856010611b51565b6002856113549190613d73565b92509250506113bc565b60fe8160ff160361138c5761137585856020611b51565b6004856113829190613d73565b92509250506113bc565b60ff8160ff16036113ba576113a385856040611b51565b6008856113b09190613d73565b92509250506113bc565b505b9250929050565b600080602060ff1667ffffffffffffffff8111156113e4576113e3612e42565b5b6040519080825280601f01601f1916602001820160405280156114165781602001600182028036833780820191505090505b50905060005b602060ff168110156114af5783816020811061143b5761143a613930565b5b1a60f81b82600183602060ff166114529190613863565b61145c9190613863565b8151811061146d5761146c613930565b5b60200101907effffffffffffffffffffffffffffffffffffffffffffffffffffffffffffff1916908160001a90535080806114a79061399b565b91505061141c565b506114b981612a34565b915050919050565b60006040825114611507576040517f08c379a00000000000000000000000000000000000000000000000000000000081526004016114fe90613fff565b60405180910390fd5b600061152b611520600085612a5d90919063ffffffff16565b62ffffff1916612a88565b90508060001c915050919050565b6115d1828260405160240161154f929190614063565b6040516020818303038152906040527f319af333000000000000000000000000000000000000000000000000000000007bffffffffffffffffffffffffffffffffffffffffffffffffffffffff19166020820180517bffffffffffffffffffffffffffffffffffffffffffffffffffffffff8381831617835250505050612acb565b5050565b6000600280836040516115e8919061381d565b602060405180830381855afa158015611605573d6000803e3d6000fd5b5050506040513d601f19601f820116820180604052508101906116289190613d0a565b6040516020016116389190613980565b604051602081830303815290604052604051611654919061381d565b602060405180830381855afa158015611671573d6000803e3d6000fd5b5050506040513d601f19601f820116820180604052508101906116949190613d0a565b9050919050565b60606000839050600060028460026116b39190614093565b6116bd9190613d73565b67ffffffffffffffff8111156116d6576116d5612e42565b5b6040519080825280601f01601f1916602001820160405280156117085781602001600182028036833780820191505090505b5090507f3000000000000000000000000000000000000000000000000000000000000000816000815181106117405761173f613930565b5b60200101907effffffffffffffffffffffffffffffffffffffffffffffffffffffffffffff1916908160001a9053507f7800000000000000000000000000000000000000000000000000000000000000816001815181106117a4576117a3613930565b5b60200101907effffffffffffffffffffffffffffffffffffffffffffffffffffffffffffff1916908160001a905350600060018560026117e49190614093565b6117ee9190613d73565b90505b600181111561188e577f3031323334353637383961626364656600000000000000000000000000000000600f8416601081106118305761182f613930565b5b1a60f81b82828151811061184757611846613930565b5b60200101907effffffffffffffffffffffffffffffffffffffffffffffffffffffffffffff1916908160001a905350600483901c925080611887906140d5565b90506117f1565b50600082146118d65784846040517fe22e27eb0000000000000000000000000000000000000000000000000000000081526004016118cd9291906140fe565b60405180910390fd5b809250505092915050565b61197982826040516024016118f7929190614127565b6040516020818303038152906040527f4b5c4277000000000000000000000000000000000000000000000000000000007bffffffffffffffffffffffffffffffffffffffffffffffffffffffff19166020820180517bffffffffffffffffffffffffffffffffffffffffffffffffffffffff8381831617835250505050612acb565b5050565b60007f7fffffffffffffffffffffffffffffff5d576e7357a4501ddfe92f46681b20a08260001c11156119e5576040517f08c379a00000000000000000000000000000000000000000000000000000000081526004016119dc906141d0565b60405180910390fd5b601b8460ff1614806119fa5750601c8460ff16145b611a39576040517f08c379a0000000000000000000000000000000000000000000000000000000008152600401611a3090614262565b60405180910390fd5b600060018686868660405160008152602001604052604051611a5e9493929190613ba3565b6020604051602081039080840390855afa158015611a80573d6000803e3d6000fd5b505050602060405103519050600073ffffffffffffffffffffffffffffffffffffffff168173ffffffffffffffffffffffffffffffffffffffff1603611afb576040517f08c379a0000000000000000000000000000000000000000000000000000000008152600401611af2906142ce565b60405180910390fd5b80915050949350505050565b60008060007f7fffffffffffffffffffffffffffffffffffffffffffffffffffffffffffffff84169150601b8460ff1c019050611b468682878561197d565b925050509392505050565b600060088203611b8657838381518110611b6e57611b6d613930565b5b602001015160f81c60f81b60f81c60ff169050611fb5565b60108203611c085761010084600185611b9f9190613d73565b81518110611bb057611baf613930565b5b602001015160f81c60f81b60f81c60ff16611bcb91906142fc565b61ffff16848481518110611be257611be1613930565b5b602001015160f81c60f81b60f81c60ff1661ffff16611c019190613d73565b9050611fb5565b60208203611d2b57630100000084600385611c239190613d73565b81518110611c3457611c33613930565b5b602001015160f81c60f81b60f81c60ff16611c4f9190614349565b63ffffffff166201000085600286611c679190613d73565b81518110611c7857611c77613930565b5b602001015160f81c60f81b60f81c60ff16611c939190614349565b63ffffffff1661010086600187611caa9190613d73565b81518110611cbb57611cba613930565b5b602001015160f81c60f81b60f81c60ff16611cd69190614349565b63ffffffff16868681518110611cef57611cee613930565b5b602001015160f81c60f81b60f81c60ff1663ffffffff16611d109190613d73565b611d1a9190613d73565b611d249190613d73565b9050611fb5565b60408203611fb45767010000000000000084600785611d4a9190613d73565b81518110611d5b57611d5a613930565b5b602001015160f81c60f81b60f81c60ff16611d76919061439a565b67ffffffffffffffff16660100000000000085600686611d969190613d73565b81518110611da757611da6613930565b5b602001015160f81c60f81b60f81c60ff16611dc2919061439a565b67ffffffffffffffff166501000000000086600587611de19190613d73565b81518110611df257611df1613930565b5b602001015160f81c60f81b60f81c60ff16611e0d919061439a565b67ffffffffffffffff1664010000000087600488611e2b9190613d73565b81518110611e3c57611e3b613930565b5b602001015160f81c60f81b60f81c60ff16611e57919061439a565b67ffffffffffffffff16630100000088600389611e749190613d73565b81518110611e8557611e84613930565b5b602001015160f81c60f81b60f81c60ff16611ea0919061439a565b67ffffffffffffffff16620100008960028a611ebc9190613d73565b81518110611ecd57611ecc613930565b5b602001015160f81c60f81b60f81c60ff16611ee8919061439a565b67ffffffffffffffff166101008a60018b611f039190613d73565b81518110611f1457611f13613930565b5b602001015160f81c60f81b60f81c60ff16611f2f919061439a565b67ffffffffffffffff168a8a81518110611f4c57611f4b613930565b5b602001015160f81c60f81b60f81c60ff1667ffffffffffffffff16611f719190613d73565b611f7b9190613d73565b611f859190613d73565b611f8f9190613d73565b611f999190613d73565b611fa39190613d73565b611fad9190613d73565b9050611fb5565b5b9392505050565b600060728214801561201c5750607660f81b84600085611fdc9190613d73565b81518110611fed57611fec613930565b5b602001015160f81c60f81b7effffffffffffffffffffffffffffffffffffffffffffffffffffffffffffff1916145b80156120765750602160f81b846001856120369190613d73565b8151811061204757612046613930565b5b602001015160f81c60f81b7effffffffffffffffffffffffffffffffffffffffffffffffffffffffffffff1916145b80156120d0575060ac60f81b846023856120909190613d73565b815181106120a1576120a0613930565b5b602001015160f81c60f81b7effffffffffffffffffffffffffffffffffffffffffffffffffffffffffffff1916145b801561212a5750606360f81b846024856120ea9190613d73565b815181106120fb576120fa613930565b5b602001015160f81c60f81b7effffffffffffffffffffffffffffffffffffffffffffffffffffffffffffff1916145b80156121845750607560f81b846025856121449190613d73565b8151811061215557612154613930565b5b602001015160f81c60f81b7effffffffffffffffffffffffffffffffffffffffffffffffffffffffffffff1916145b80156121de575060aa60f81b8460268561219e9190613d73565b815181106121af576121ae613930565b5b602001015160f81c60f81b7effffffffffffffffffffffffffffffffffffffffffffffffffffffffffffff1916145b80156122385750602060f81b846027856121f89190613d73565b8151811061220957612208613930565b5b602001015160f81c60f81b7effffffffffffffffffffffffffffffffffffffffffffffffffffffffffffff1916145b80156122925750608860f81b846048856122529190613d73565b8151811061226357612262613930565b5b602001015160f81c60f81b7effffffffffffffffffffffffffffffffffffffffffffffffffffffffffffff1916145b80156122ec5750606760f81b846049856122ac9190613d73565b815181106122bd576122bc613930565b5b602001015160f81c60f81b7effffffffffffffffffffffffffffffffffffffffffffffffffffffffffffff1916145b80156123465750602160f81b84604a856123069190613d73565b8151811061231757612316613930565b5b602001015160f81c60f81b7effffffffffffffffffffffffffffffffffffffffffffffffffffffffffffff1916145b80156123a0575060ad60f81b84606c856123609190613d73565b8151811061237157612370613930565b5b602001015160f81c60f81b7effffffffffffffffffffffffffffffffffffffffffffffffffffffffffffff1916145b80156123fa5750605260f81b84606d856123ba9190613d73565b815181106123cb576123ca613930565b5b602001015160f81c60f81b7effffffffffffffffffffffffffffffffffffffffffffffffffffffffffffff1916145b8015612454575060b260f81b84606e856124149190613d73565b8151811061242557612424613930565b5b602001015160f81c60f81b7effffffffffffffffffffffffffffffffffffffffffffffffffffffffffffff1916145b80156124ae5750607560f81b84606f8561246e9190613d73565b8151811061247f5761247e613930565b5b602001015160f81c60f81b7effffffffffffffffffffffffffffffffffffffffffffffffffffffffffffff1916145b80156125085750606860f81b846070856124c89190613d73565b815181106124d9576124d8613930565b5b602001015160f81c60f81b7effffffffffffffffffffffffffffffffffffffffffffffffffffffffffffff1916145b80156125625750605160f81b846071856125229190613d73565b8151811061253357612532613930565b5b602001015160f81c60f81b7effffffffffffffffffffffffffffffffffffffffffffffffffffffffffffff1916145b90509392505050565b6126018160405160240161257f91906143d7565b6040516020818303038152906040527f41304fac000000000000000000000000000000000000000000000000000000007bffffffffffffffffffffffffffffffffffffffffffffffffffffffff19166020820180517bffffffffffffffffffffffffffffffffffffffffffffffffffffffff8381831617835250505050612acb565b50565b6000806000905060005b60208110156126815780601f6126249190613863565b60086126309190614093565b85858361263d9190613d73565b8151811061264e5761264d613930565b5b602001015160f81c60f81b60f81c60ff16901b8261266c9190613d73565b915080806126799061399b565b91505061260e565b508060001b91505092915050565b60006019821480156126e35750607660f81b8484815181106126b4576126b3613930565b5b602001015160f81c60f81b7effffffffffffffffffffffffffffffffffffffffffffffffffffffffffffff1916145b801561273d575060a960f81b846001856126fd9190613d73565b8151811061270e5761270d613930565b5b602001015160f81c60f81b7effffffffffffffffffffffffffffffffffffffffffffffffffffffffffffff1916145b80156127975750601460f81b846002856127579190613d73565b8151811061276857612767613930565b5b602001015160f81c60f81b7effffffffffffffffffffffffffffffffffffffffffffffffffffffffffffff1916145b80156127f15750608860f81b846017856127b19190613d73565b815181106127c2576127c1613930565b5b602001015160f81c60f81b7effffffffffffffffffffffffffffffffffffffffffffffffffffffffffffff1916145b801561284b575060ac60f81b8460188561280b9190613d73565b8151811061281c5761281b613930565b5b602001015160f81c60f81b7effffffffffffffffffffffffffffffffffffffffffffffffffffffffffffff1916145b90509392505050565b60006017821480156128b4575060a960f81b846000856128749190613d73565b8151811061288557612884613930565b5b602001015160f81c60f81b7effffffffffffffffffffffffffffffffffffffffffffffffffffffffffffff1916145b801561290e5750601460f81b846001856128ce9190613d73565b815181106128df576128de613930565b5b602001015160f81c60f81b7effffffffffffffffffffffffffffffffffffffffffffffffffffffffffffff1916145b80156129685750608760f81b846016856129289190613d73565b8151811061293957612938613930565b5b602001015160f81c60f81b7effffffffffffffffffffffffffffffffffffffffffffffffffffffffffffff1916145b90509392505050565b60006022821480156129d15750606a60f81b846000856129919190613d73565b815181106129a2576129a1613930565b5b602001015160f81c60f81b7effffffffffffffffffffffffffffffffffffffffffffffffffffffffffffff1916145b8015612a2b5750602060f81b846001856129eb9190613d73565b815181106129fc576129fb613930565b5b602001015160f81c60f81b7effffffffffffffffffffffffffffffffffffffffffffffffffffffffffffff1916145b90509392505050565b6000808290506000815103612a4f576000801b915050612a58565b60208301519150505b919050565b600080835190506000602085019050612a7e8464ffffffffff168284612ae5565b9250505092915050565b600080612a9483612b53565b6bffffffffffffffffffffffff1690506000612aaf84612b73565b6bffffffffffffffffffffffff16905080822092505050919050565b612ae281612ada612b93612bb4565b63ffffffff16565b50565b600080612afb8385612bbf90919063ffffffff16565b9050604051811115612b0c57600090505b60008103612b3d577fffffffffffffffffffffffffffffffffffffffffffffffffffffffffff000000915050612b4c565b612b48858585612c18565b9150505b9392505050565b6000806bffffffffffffffffffffffff9050808360781c16915050919050565b6000806bffffffffffffffffffffffff9050808360181c16915050919050565b60006a636f6e736f6c652e6c6f679050600080835160208501845afa505050565b612d22819050919050565b60008183612bcd9190613d73565b905082811015612c12576040517f08c379a0000000000000000000000000000000000000000000000000000000008152600401612c0990614445565b60405180910390fd5b92915050565b600083811760601b905082811760601b905081811760181b90509392505050565b6040518060800160405280600081526020016000801916815260200160008019168152602001600080191681525090565b60405180604001604052806000815260200160006bffffffffffffffffffffffff191681525090565b604051806040016040528060008152602001600080191681525090565b6040518060a0016040528060008152602001606081526020016060815260200160608152602001606081525090565b6040518060600160405280600081526020016000801916815260200160007bffffffffffffffffffffffffffffffffffffffffffffffffffffffff191681525090565b612d2a614465565b565b6000604051905090565b600080fd5b600080fd5b6000819050919050565b612d5381612d40565b8114612d5e57600080fd5b50565b600081359050612d7081612d4a565b92915050565b6000819050919050565b612d8981612d76565b8114612d9457600080fd5b50565b600081359050612da681612d80565b92915050565b600080600080600060a08688031215612dc857612dc7612d36565b5b6000612dd688828901612d61565b9550506020612de788828901612d61565b9450506040612df888828901612d61565b9350506060612e0988828901612d97565b9250506080612e1a88828901612d97565b9150509295509295909350565b600080fd5b600080fd5b6000601f19601f8301169050919050565b7f4e487b7100000000000000000000000000000000000000000000000000000000600052604160045260246000fd5b612e7a82612e31565b810181811067ffffffffffffffff82111715612e9957612e98612e42565b5b80604052505050565b6000612eac612d2c565b9050612eb88282612e71565b919050565b600067ffffffffffffffff821115612ed857612ed7612e42565b5b612ee182612e31565b9050602081019050919050565b82818337600083830152505050565b6000612f10612f0b84612ebd565b612ea2565b905082815260208101848484011115612f2c57612f2b612e2c565b5b612f37848285612eee565b509392505050565b600082601f830112612f5457612f53612e27565b5b8135612f64848260208601612efd565b91505092915050565b600080600060608486031215612f8657612f85612d36565b5b6000612f9486828701612d61565b935050602084013567ffffffffffffffff811115612fb557612fb4612d3b565b5b612fc186828701612f3f565b925050604084013567ffffffffffffffff811115612fe257612fe1612d3b565b5b612fee86828701612f3f565b9150509250925092565b600081519050919050565b600082825260208201905092915050565b60005b83811015613032578082015181840152602081019050613017565b60008484015250505050565b600061304982612ff8565b6130538185613003565b9350613063818560208601613014565b61306c81612e31565b840191505092915050565b60006020820190508181036000830152613091818461303e565b905092915050565b6000602082840312156130af576130ae612d36565b5b600082013567ffffffffffffffff8111156130cd576130cc612d3b565b5b6130d984828501612f3f565b91505092915050565b60007fffffffff0000000000000000000000000000000000000000000000000000000082169050919050565b613117816130e2565b82525050565b6000602082019050613132600083018461310e565b92915050565b6000806000806080858703121561315257613151612d36565b5b600085013567ffffffffffffffff8111156131705761316f612d3b565b5b61317c87828801612f3f565b945050602085013567ffffffffffffffff81111561319d5761319c612d3b565b5b6131a987828801612f3f565b935050604085013567ffffffffffffffff8111156131ca576131c9612d3b565b5b6131d687828801612f3f565b925050606085013567ffffffffffffffff8111156131f7576131f6612d3b565b5b61320387828801612f3f565b91505092959194509250565b61321881612d76565b82525050565b61322781612d40565b82525050565b608082016000820151613243600085018261320f565b506020820151613256602085018261321e565b506040820151613269604085018261321e565b50606082015161327c606085018261321e565b50505050565b60007fffffffffffffffffffffffffffffffffffffffff00000000000000000000000082169050919050565b6132b781613282565b82525050565b6040820160008201516132d3600085018261320f565b5060208201516132e660208501826132ae565b50505050565b604082016000820151613302600085018261320f565b506020820151613315602085018261321e565b50505050565b600061010082019050613331600083018661322d565b61333e60808301856132bd565b61334b60c08301846132ec565b949350505050565b61335c816130e2565b82525050565b606082016000820151613378600085018261320f565b50602082015161338b602085018261321e565b50604082015161339e6040850182613353565b50505050565b60006060820190506133b96000830184613362565b92915050565b600060ff82169050919050565b6133d5816133bf565b81146133e057600080fd5b50565b6000813590506133f2816133cc565b92915050565b600080600080600060a0868803121561341457613413612d36565b5b600086013567ffffffffffffffff81111561343257613431612d3b565b5b61343e88828901612f3f565b955050602086013567ffffffffffffffff81111561345f5761345e612d3b565b5b61346b88828901612f3f565b945050604061347c888289016133e3565b935050606061348d88828901612d61565b925050608061349e88828901612d61565b9150509295509295909350565b60008115159050919050565b6134c0816134ab565b82525050565b60006020820190506134db60008301846134b7565b92915050565b600081519050919050565b600082825260208201905092915050565b6000819050602082019050919050565b613516816133bf565b82525050565b606082016000820151613532600085018261350d565b506020820151613545602085018261321e565b506040820151613558604085018261321e565b50505050565b600061356a838361351c565b60608301905092915050565b6000602082019050919050565b600061358e826134e1565b61359881856134ec565b93506135a3836134fd565b8060005b838110156135d45781516135bb888261355e565b97506135c683613576565b9250506001810190506135a7565b5085935050505092915050565b600060208201905081810360008301526135fb8184613583565b905092915050565b6000806040838503121561361a57613619612d36565b5b600061362885828601612d61565b925050602083013567ffffffffffffffff81111561364957613648612d3b565b5b61365585828601612f3f565b9150509250929050565b600073ffffffffffffffffffffffffffffffffffffffff82169050919050565b600061368a8261365f565b9050919050565b61369a8161367f565b82525050565b60006020820190506136b56000830184613691565b92915050565b6000806000606084860312156136d4576136d3612d36565b5b600084013567ffffffffffffffff8111156136f2576136f1612d3b565b5b6136fe86828701612f3f565b935050602084013567ffffffffffffffff81111561371f5761371e612d3b565b5b61372b86828701612f3f565b925050604084013567ffffffffffffffff81111561374c5761374b612d3b565b5b61375886828701612f3f565b9150509250925092565b61376b81612d40565b82525050565b61377a81612d76565b82525050565b600060c0820190506137956000830189613762565b6137a26020830188613762565b6137af6040830187613762565b6137bc6060830186613771565b6137c96080830185613771565b6137d660a0830184613771565b979650505050505050565b600081905092915050565b60006137f782612ff8565b61380181856137e1565b9350613811818560208601613014565b80840191505092915050565b600061382982846137ec565b915081905092915050565b7f4e487b7100000000000000000000000000000000000000000000000000000000600052601160045260246000fd5b600061386e82612d76565b915061387983612d76565b925082820390508181111561389157613890613834565b5b92915050565b6000819050602082019050919050565b60006138b382516130e2565b80915050919050565b600082821b905092915050565b60006138d482612ff8565b826138de84613897565b90506138e9816138a7565b92506004821015613929576139247fffffffff00000000000000000000000000000000000000000000000000000000836004036008026138bc565b831692505b5050919050565b7f4e487b7100000000000000000000000000000000000000000000000000000000600052603260045260246000fd5b6000819050919050565b61397a61397582612d40565b61395f565b82525050565b600061398c8284613969565b60208201915081905092915050565b60006139a682612d76565b91507fffffffffffffffffffffffffffffffffffffffffffffffffffffffffffffffff82036139d8576139d7613834565b5b600182019050919050565b60006139ef8251612d40565b80915050919050565b6000613a0382612ff8565b82613a0d84613897565b9050613a18816139e3565b92506020821015613a5857613a537fffffffffffffffffffffffffffffffffffffffffffffffffffffffffffffffff836020036008026138bc565b831692505b5050919050565b600082825260208201905092915050565b7f54782068617320746f6f206d616e7920696e7075747320283e31290000000000600082015250565b6000613aa6601b83613a5f565b9150613ab182613a70565b602082019050919050565b60006020820190508181036000830152613ad581613a99565b9050919050565b7f436865636b426974636f696e536967732f636865636b536967202d2d2052657160008201527f756972657320756e636f6d7072657373656420756e707265666978656420707560208201527f626b657900000000000000000000000000000000000000000000000000000000604082015250565b6000613b5e604483613a5f565b9150613b6982613adc565b606082019050919050565b60006020820190508181036000830152613b8d81613b51565b9050919050565b613b9d816133bf565b82525050565b6000608082019050613bb86000830187613762565b613bc56020830186613b94565b613bd26040830185613762565b613bdf6060830184613762565b95945050505050565b7f496e76616c6964205369676e6174757265000000000000000000000000000000600082015250565b6000613c1e601183613a5f565b9150613c2982613be8565b602082019050919050565b60006020820190508181036000830152613c4d81613c11565b9050919050565b6000613c5f826133bf565b9150613c6a836133bf565b9250828201905060ff811115613c8357613c82613834565b5b92915050565b7f45434453413a20696e76616c6964207369676e6174757265206c656e67746800600082015250565b6000613cbf601f83613a5f565b9150613cca82613c89565b602082019050919050565b60006020820190508181036000830152613cee81613cb2565b9050919050565b600081519050613d0481612d4a565b92915050565b600060208284031215613d2057613d1f612d36565b5b6000613d2e84828501613cf5565b91505092915050565b6000819050919050565b613d52613d4d82613282565b613d37565b82525050565b6000613d648284613d41565b60148201915081905092915050565b6000613d7e82612d76565b9150613d8983612d76565b9250828201905080821115613da157613da0613834565b5b92915050565b7f736c6963655f6f766572666c6f77000000000000000000000000000000000000600082015250565b6000613ddd600e83613a5f565b9150613de882613da7565b602082019050919050565b60006020820190508181036000830152613e0c81613dd0565b9050919050565b7f736c6963655f6f75744f66426f756e6473000000000000000000000000000000600082015250565b6000613e49601183613a5f565b9150613e5482613e13565b602082019050919050565b60006020820190508181036000830152613e7881613e3c565b9050919050565b6000613e8a8261365f565b9150613e958361365f565b9250828203905073ffffffffffffffffffffffffffffffffffffffff811115613ec157613ec0613834565b5b92915050565b6000613ed28261365f565b9150613edd8361365f565b9250828202613eeb8161365f565b91508282048414831517613f0257613f01613834565b5b5092915050565b6000613f148261365f565b9150613f1f8361365f565b9250828201905073ffffffffffffffffffffffffffffffffffffffff811115613f4b57613f4a613834565b5b92915050565b6000613f5c8261365f565b915073ffffffffffffffffffffffffffffffffffffffff8203613f8257613f81613834565b5b600182019050919050565b7f5075626b6579206d7573742062652036342d62797465207261772c20756e636f60008201527f6d70726573736564206b65792e00000000000000000000000000000000000000602082015250565b6000613fe9602d83613a5f565b9150613ff482613f8d565b604082019050919050565b6000602082019050818103600083015261401881613fdc565b9050919050565b600081519050919050565b60006140358261401f565b61403f8185613a5f565b935061404f818560208601613014565b61405881612e31565b840191505092915050565b6000604082019050818103600083015261407d818561402a565b905061408c6020830184613691565b9392505050565b600061409e82612d76565b91506140a983612d76565b92508282026140b781612d76565b915082820484148315176140ce576140cd613834565b5b5092915050565b60006140e082612d76565b9150600082036140f3576140f2613834565b5b600182039050919050565b60006040820190506141136000830185613771565b6141206020830184613771565b9392505050565b60006040820190508181036000830152614141818561402a565b90508181036020830152614155818461402a565b90509392505050565b7f45434453413a20696e76616c6964207369676e6174757265202773272076616c60008201527f7565000000000000000000000000000000000000000000000000000000000000602082015250565b60006141ba602283613a5f565b91506141c58261415e565b604082019050919050565b600060208201905081810360008301526141e9816141ad565b9050919050565b7f45434453413a20696e76616c6964207369676e6174757265202776272076616c60008201527f7565000000000000000000000000000000000000000000000000000000000000602082015250565b600061424c602283613a5f565b9150614257826141f0565b604082019050919050565b6000602082019050818103600083015261427b8161423f565b9050919050565b7f45434453413a20696e76616c6964207369676e61747572650000000000000000600082015250565b60006142b8601883613a5f565b91506142c382614282565b602082019050919050565b600060208201905081810360008301526142e7816142ab565b9050919050565b600061ffff82169050919050565b6000614307826142ee565b9150614312836142ee565b9250828202614320816142ee565b915080821461433257614331613834565b5b5092915050565b600063ffffffff82169050919050565b600061435482614339565b915061435f83614339565b925082820261436d81614339565b915080821461437f5761437e613834565b5b5092915050565b600067ffffffffffffffff82169050919050565b60006143a582614386565b91506143b083614386565b92508282026143be81614386565b91508082146143d0576143cf613834565b5b5092915050565b600060208201905081810360008301526143f1818461402a565b905092915050565b7f4f766572666c6f7720647572696e67206164646974696f6e2e00000000000000600082015250565b600061442f601983613a5f565b915061443a826143f9565b602082019050919050565b6000602082019050818103600083015261445e81614422565b9050919050565b7f4e487b7100000000000000000000000000000000000000000000000000000000600052605160045260246000fdfea2646970667358221220123553cfadc7691bf18a0df8053de867b17a91be5f0b1ddec07fc46db9b83d9c64736f6c63430008130033",
  "linkReferences": {},
  "deployedLinkReferences": {}
}