{
  "_format": "hh-sol-artifact-1",
  "contractName": "LNBridge",
  "sourceName": "contracts/LNBridge.sol",
  "abi": [
    {
      "inputs": [],
      "name": "bridge",
      "outputs": [
        {
          "internalType": "bytes32",
          "name": "fundingTxId",
          "type": "bytes32"
        },
        {
          "internalType": "bytes",
          "name": "fundingTx_script",
          "type": "bytes"
        },
        {
          "internalType": "bytes4",
          "name": "fundingTx_index",
          "type": "bytes4"
        },
        {
          "internalType": "bytes",
          "name": "sighash",
          "type": "bytes"
        },
        {
          "internalType": "bytes",
          "name": "pkProver_Uncompressed",
          "type": "bytes"
        },
        {
          "internalType": "bytes",
          "name": "pkProver_Compressed",
          "type": "bytes"
        },
        {
          "internalType": "bytes",
          "name": "pkVerifier_Uncompressed",
          "type": "bytes"
        },
        {
          "internalType": "bytes",
          "name": "pkVerifier_Compressed",
          "type": "bytes"
        },
        {
          "internalType": "uint256",
          "name": "index",
          "type": "uint256"
        },
        {
          "internalType": "uint256",
          "name": "timelock",
          "type": "uint256"
        },
        {
          "internalType": "uint256",
          "name": "timelock_dispute",
          "type": "uint256"
        }
      ],
      "stateMutability": "view",
      "type": "function"
    },
    {
      "inputs": [
        {
          "internalType": "bytes",
          "name": "rawTxP_locked",
          "type": "bytes"
        },
        {
          "internalType": "bytes",
          "name": "sigV",
          "type": "bytes"
        },
        {
          "internalType": "bytes",
          "name": "rawTxV_unlocked",
          "type": "bytes"
        },
        {
          "internalType": "bytes",
          "name": "sigP",
          "type": "bytes"
        }
      ],
      "name": "dispute",
      "outputs": [],
      "stateMutability": "nonpayable",
      "type": "function"
    },
    {
      "inputs": [
        {
          "internalType": "bytes",
          "name": "oldRevSecret",
          "type": "bytes"
        },
        {
          "internalType": "bytes",
          "name": "rawTxP_unlocked",
          "type": "bytes"
        },
        {
          "internalType": "bytes",
          "name": "sigV",
          "type": "bytes"
        }
      ],
      "name": "resolveDispute",
      "outputs": [],
      "stateMutability": "nonpayable",
      "type": "function"
    },
    {
      "inputs": [],
      "name": "settle",
      "outputs": [],
      "stateMutability": "nonpayable",
      "type": "function"
    },
    {
      "inputs": [
        {
          "internalType": "bytes32",
          "name": "_fundingTxId",
          "type": "bytes32"
        },
        {
          "internalType": "bytes",
          "name": "_fundingTx_script",
          "type": "bytes"
        },
        {
          "internalType": "bytes4",
          "name": "_fundingTx_index",
          "type": "bytes4"
        },
        {
          "internalType": "bytes",
          "name": "_sighash",
          "type": "bytes"
        },
        {
          "internalType": "bytes",
          "name": "_pkProver_Uncompressed",
          "type": "bytes"
        },
        {
          "internalType": "bytes",
          "name": "_pkProver_Compressed",
          "type": "bytes"
        },
        {
          "internalType": "bytes",
          "name": "_pkVerifier_Uncompressed",
          "type": "bytes"
        },
        {
          "internalType": "bytes",
          "name": "_pkVerifier_Compressed",
          "type": "bytes"
        },
        {
          "internalType": "uint256",
          "name": "_index",
          "type": "uint256"
        },
        {
          "internalType": "uint256",
          "name": "_timelock",
          "type": "uint256"
        }
      ],
      "name": "setup",
      "outputs": [],
      "stateMutability": "nonpayable",
      "type": "function"
    },
    {
      "inputs": [
        {
          "internalType": "bytes",
          "name": "CT_P_unlocked",
          "type": "bytes"
        },
        {
          "internalType": "bytes",
          "name": "CT_V_unlocked",
          "type": "bytes"
        }
      ],
      "name": "submitProof",
      "outputs": [
        {
          "internalType": "bool",
          "name": "",
          "type": "bool"
        }
      ],
      "stateMutability": "view",
      "type": "function"
    }
  ],
  "bytecode": "0x608060405234801561001057600080fd5b5061644780620000216000396000f3fe608060405234801561001057600080fd5b50600436106100625760003560e01c806311da60b4146100675780631690ff4d146100715780633aef14771461008d57806343f104d2146100bd57806379a85bd9146100d9578063e78cea92146100f5575b600080fd5b61006f61011d565b005b61008b60048036038101906100869190614cd4565b61011f565b005b6100a760048036038101906100a29190614e5b565b6101db565b6040516100b49190614eee565b60405180910390f35b6100d760048036038101906100d29190614f09565b610e19565b005b6100f360048036038101906100ee9190614fe0565b610e1f565b005b6100fd610e24565b6040516101149b9a99989796959493929190615133565b60405180910390f35b565b896000800181905550886000600101908161013a9190615414565b5087600060020160006101000a81548163ffffffff021916908360e01c0217905550866000600301908161016e9190615414565b5085600060040190816101819190615414565b5084600060050190816101949190615414565b5083600060060190816101a79190615414565b5082600060070190816101ba9190615414565b50816000600801819055508060006009018190555050505050505050505050565b60008060e01b7bffffffffffffffffffffffffffffffffffffffffffffffffffffffff1916610209846111a9565b7bffffffffffffffffffffffffffffffffffffffffffffffffffffffff191614610268576040517f08c379a000000000000000000000000000000000000000000000000000000000815260040161025f90615569565b60405180910390fd5b600060e01b7bffffffffffffffffffffffffffffffffffffffffffffffffffffffff1916610295836111a9565b7bffffffffffffffffffffffffffffffffffffffffffffffffffffffff1916146102f4576040517f08c379a00000000000000000000000000000000000000000000000000000000081526004016102eb906155fb565b60405180910390fd5b6102fc614921565b61030461494e565b61030c61497b565b610315866111d4565b856000600281106103295761032861561b565b5b60200201856000600281106103415761034061561b565b5b6020020182955083905283905250505061035a8561147b565b8460016002811061036e5761036d61561b565b5b60200201846001600281106103865761038561561b565b5b602002018290528290525050826001600281106103a6576103a561561b565b5b6020020151606001518160200151146103f4576040517f08c379a00000000000000000000000000000000000000000000000000000000081526004016103eb906156bc565b60405180910390fd5b826001600281106104085761040761561b565b5b602002015160000151826000600281106104255761042461561b565b5b6020020151600001511461046e576040517f08c379a00000000000000000000000000000000000000000000000000000000081526004016104659061574e565b60405180910390fd5b816001600281106104825761048161561b565b5b6020020151600001518360006002811061049f5761049e61561b565b5b602002015160000151146104e8576040517f08c379a00000000000000000000000000000000000000000000000000000000081526004016104df906157e0565b60405180910390fd5b6002826000600281106104fe576104fd61561b565b5b602002015160200151604051602001610517919061584d565b60405160208183030381529060405260405161053391906158a4565b602060405180830381855afa158015610550573d6000803e3d6000fd5b5050506040513d601f19601f8201168201806040525081019061057391906158d0565b600261060b6000600701805461058890615237565b80601f01602080910402602001604051908101604052809291908181526020018280546105b490615237565b80156106015780601f106105d657610100808354040283529160200191610601565b820191906000526020600020905b8154815290600101906020018083116105e457829003601f168201915b5050505050611690565b60405161061891906158a4565b602060405180830381855afa158015610635573d6000803e3d6000fd5b5050506040513d601f19601f8201168201806040525081019061065891906158d0565b14610698576040517f08c379a000000000000000000000000000000000000000000000000000000000815260040161068f90615995565b60405180910390fd5b6002826001600281106106ae576106ad61561b565b5b6020020151602001516040516020016106c7919061584d565b6040516020818303038152906040526040516106e391906158a4565b602060405180830381855afa158015610700573d6000803e3d6000fd5b5050506040513d601f19601f8201168201806040525081019061072391906158d0565b60026107bb6000600501805461073890615237565b80601f016020809104026020016040519081016040528092919081815260200182805461076490615237565b80156107b15780601f10610786576101008083540402835291602001916107b1565b820191906000526020600020905b81548152906001019060200180831161079457829003601f168201915b5050505050611690565b6040516107c891906158a4565b602060405180830381855afa1580156107e5573d6000803e3d6000fd5b5050506040513d601f19601f8201168201806040525081019061080891906158d0565b14610848576040517f08c379a000000000000000000000000000000000000000000000000000000000815260040161083f90615a4d565b60405180910390fd5b610850614998565b6108598761175d565b8160016002811061086d5761086c61561b565b5b602002018190525061087e8661175d565b816000600281106108925761089161561b565b5b60200201819052506108a26149c5565b6109c788600060010180546108b690615237565b80601f01602080910402602001604051908101604052809291908181526020018280546108e290615237565b801561092f5780601f106109045761010080835404028352916020019161092f565b820191906000526020600020905b81548152906001019060200180831161091257829003601f168201915b50505050506000600301805461094490615237565b80601f016020809104026020016040519081016040528092919081815260200182805461097090615237565b80156109bd5780601f10610992576101008083540402835291602001916109bd565b820191906000526020600020905b8154815290600101906020018083116109a057829003601f168201915b50505050506118aa565b816000600281106109db576109da61561b565b5b602002018181525050600260006006016040516109f89190615af0565b602060405180830381855afa158015610a15573d6000803e3d6000fd5b5050506040513d601f19601f82011682018060405250810190610a3891906158d0565b6002610ac983600060028110610a5157610a5061561b565b5b602002015160001c85600160028110610a6d57610a6c61561b565b5b602002015160000151610a9d87600160028110610a8d57610a8c61561b565b5b602002015160200151600061190b565b610ac488600160028110610ab457610ab361561b565b5b602002015160400151600061190b565b611972565b604051610ad691906158a4565b602060405180830381855afa158015610af3573d6000803e3d6000fd5b5050506040513d601f19601f82011682018060405250810190610b1691906158d0565b14610b56576040517f08c379a0000000000000000000000000000000000000000000000000000000008152600401610b4d90615b79565b60405180910390fd5b610c7b8760006001018054610b6a90615237565b80601f0160208091040260200160405190810160405280929190818152602001828054610b9690615237565b8015610be35780601f10610bb857610100808354040283529160200191610be3565b820191906000526020600020905b815481529060010190602001808311610bc657829003601f168201915b505050505060006003018054610bf890615237565b80601f0160208091040260200160405190810160405280929190818152602001828054610c2490615237565b8015610c715780601f10610c4657610100808354040283529160200191610c71565b820191906000526020600020905b815481529060010190602001808311610c5457829003601f168201915b50505050506118aa565b81600160028110610c8f57610c8e61561b565b5b60200201818152505060026000600401604051610cac9190615af0565b602060405180830381855afa158015610cc9573d6000803e3d6000fd5b5050506040513d601f19601f82011682018060405250810190610cec91906158d0565b6002610d7d83600160028110610d0557610d0461561b565b5b602002015160001c85600060028110610d2157610d2061561b565b5b602002015160000151610d5187600060028110610d4157610d4061561b565b5b602002015160200151600061190b565b610d7888600060028110610d6857610d6761561b565b5b602002015160400151600061190b565b611972565b604051610d8a91906158a4565b602060405180830381855afa158015610da7573d6000803e3d6000fd5b5050506040513d601f19601f82011682018060405250810190610dca91906158d0565b14610e0a576040517f08c379a0000000000000000000000000000000000000000000000000000000008152600401610e0190615c0b565b60405180910390fd5b60019550505050505092915050565b50505050565b505050565b6000806000015490806001018054610e3b90615237565b80601f0160208091040260200160405190810160405280929190818152602001828054610e6790615237565b8015610eb45780601f10610e8957610100808354040283529160200191610eb4565b820191906000526020600020905b815481529060010190602001808311610e9757829003601f168201915b5050505050908060020160009054906101000a900460e01b90806003018054610edc90615237565b80601f0160208091040260200160405190810160405280929190818152602001828054610f0890615237565b8015610f555780601f10610f2a57610100808354040283529160200191610f55565b820191906000526020600020905b815481529060010190602001808311610f3857829003601f168201915b505050505090806004018054610f6a90615237565b80601f0160208091040260200160405190810160405280929190818152602001828054610f9690615237565b8015610fe35780601f10610fb857610100808354040283529160200191610fe3565b820191906000526020600020905b815481529060010190602001808311610fc657829003601f168201915b505050505090806005018054610ff890615237565b80601f016020809104026020016040519081016040528092919081815260200182805461102490615237565b80156110715780601f1061104657610100808354040283529160200191611071565b820191906000526020600020905b81548152906001019060200180831161105457829003601f168201915b50505050509080600601805461108690615237565b80601f01602080910402602001604051908101604052809291908181526020018280546110b290615237565b80156110ff5780601f106110d4576101008083540402835291602001916110ff565b820191906000526020600020905b8154815290600101906020018083116110e257829003601f168201915b50505050509080600701805461111490615237565b80601f016020809104026020016040519081016040528092919081815260200182805461114090615237565b801561118d5780601f106111625761010080835404028352916020019161118d565b820191906000526020600020905b81548152906001019060200180831161117057829003601f168201915b50505050509080600801549080600901549080600a015490508b565b60006111c482600484516111bd9190615c5a565b60046119c1565b6111cd90615cb3565b9050919050565b6111dc6149e7565b6111e4614a18565b6111ec61497b565b6111f46149e7565b6111fc61497b565b611204614a18565b61120c614a41565b60048160000181815250506112278882600001516000611adf565b82602001836000018281525082905250506112488882600001516000611bf1565b84608001856060018660400187600001848152508490528490528490525050505060005b60038110156114665760008103611308576112c489836060015183815181106112985761129761561b565b5b6020026020010151846040015184815181106112b7576112b661561b565b5b6020026020010151611de8565b876020018860600189604001838152508381525083815250505050816080015181815181106112f6576112f561561b565b5b60200260200101518560000181815250505b600181036113d25761138061135a8a8460600151848151811061132e5761132d61561b565b5b60200260200101518560400151858151811061134d5761134c61561b565b5b6020026020010151611e66565b60405160200161136a9190615d3b565b6040516020818303038152906040526000611f48565b83602001906bffffffffffffffffffffffff191690816bffffffffffffffffffffffff191681525050816080015181815181106113c0576113bf61561b565b5b60200260200101518360000181815250505b600281036114535761142189836060015183815181106113f5576113f461561b565b5b6020026020010151846040015184815181106114145761141361561b565b5b6020026020010151611e66565b846020018181525050816080015181815181106114415761144061561b565b5b60200260200101518460000181815250505b808061145e90615d56565b91505061126c565b50838284965096509650505050509193909250565b6114836149e7565b61148b614a18565b6114936149e7565b61149b614a18565b6114a3614a41565b60048160000181815250506114be8682600001516000611adf565b82602001836000018281525082905250506114df8682600001516000611bf1565b84608001856060018660400187600001848152508490528490528490525050505060005b600281101561168157600081036115a35761155b878360600151838151811061152f5761152e61561b565b5b60200260200101518460400151848151811061154e5761154d61561b565b5b6020026020010151611de8565b8660200187606001886040018381525083815250838152505050508160800151818151811061158d5761158c61561b565b5b602002602001015184600001818152505061166e565b6001810361166d5761161b6115f588846060015184815181106115c9576115c861561b565b5b6020026020010151856040015185815181106115e8576115e761561b565b5b6020026020010151611e66565b6040516020016116059190615d3b565b6040516020818303038152906040526000611f48565b83602001906bffffffffffffffffffffffff191690816bffffffffffffffffffffffff1916815250508160800151818151811061165b5761165a61561b565b5b60200260200101518360000181815250505b5b808061167990615d56565b915050611503565b50828294509450505050915091565b606060036002836040516116a491906158a4565b602060405180830381855afa1580156116c1573d6000803e3d6000fd5b5050506040513d601f19601f820116820180604052508101906116e491906158d0565b6040516020016116f49190615d3b565b60405160208183030381529060405260405161171091906158a4565b602060405180830381855afa15801561172d573d6000803e3d6000fd5b5050506040515160601b604051602001611747919061584d565b6040516020818303038152906040529050919050565b611765614a70565b61176d614a70565b604760f81b83602a815181106117865761178561561b565b5b602001015160f81c60f81b7effffffffffffffffffffffffffffffffffffffffffffffffffffffffffffff1916036117d8576117cb6117c684602f61202b565b6120b6565b8160200181905250611838565b604660f81b83602a815181106117f1576117f061561b565b5b602001015160f81c60f81b7effffffffffffffffffffffffffffffffffffffffffffffffffffffffffffff1916036118375761182e83602f6120df565b81602001819052505b5b61184b61184684605161202b565b6120b6565b8160400181905250600060026118668360200151600061190b565b6118709190615dcd565b0361188d57601c816000019060ff16908160ff16815250506118a1565b601b816000019060ff16908160ff16815250505b80915050919050565b6000806118ba85600060296119c1565b846118d3876072808a516118ce9190615c5a565b6119c1565b856040516020016118e79493929190615dfe565b60405160208183030381529060405290506119018161216b565b9150509392505050565b600060208261191a9190615e3c565b8351101561195d576040517f08c379a000000000000000000000000000000000000000000000000000000000815260040161195490615ebc565b60405180910390fd5b60008260208501015190508091505092915050565b606060008061198f87601b886119889190615ee9565b8787612231565b9150915081816040516020016119a6929190615f3f565b60405160208183030381529060405292505050949350505050565b606081601f836119d19190615e3c565b1015611a12576040517f08c379a0000000000000000000000000000000000000000000000000000000008152600401611a0990615fb7565b60405180910390fd5b8183611a1e9190615e3c565b84511015611a61576040517f08c379a0000000000000000000000000000000000000000000000000000000008152600401611a5890616023565b60405180910390fd5b6060821560008114611a825760405191506000825260208201604052611ad3565b6040519150601f8416801560200281840101858101878315602002848b0101015b81831015611ac05780518352602083019250602081019050611aa3565b50868552601f19601f8301166040525050505b50809150509392505050565b6060600080600080611af18888612643565b80985081945050506000861480611b0757508286115b15611b1457829150611b18565b8591505b60008267ffffffffffffffff811115611b3457611b33614b1b565b5b604051908082528060200260200182016040528015611b625781602001602082028036833780820191505090505b50905060005b83811015611bde57602489611b7d9190615e3c565b9850611b898a8a612643565b809a50819450505082828281518110611ba557611ba461561b565b5b602002602001018181525050600483611bbe9190615e3c565b89611bc99190615e3c565b98508080611bd690615d56565b915050611b68565b5080889550955050505050935093915050565b6060806060600080600080611c068a8a612643565b809a5081945050506000881480611c1c57508288115b15611c2957829150611c2d565b8791505b60008267ffffffffffffffff811115611c4957611c48614b1b565b5b604051908082528060200260200182016040528015611c775781602001602082028036833780820191505090505b50905060008367ffffffffffffffff811115611c9657611c95614b1b565b5b604051908082528060200260200182016040528015611cc45781602001602082028036833780820191505090505b50905060008467ffffffffffffffff811115611ce357611ce2614b1b565b5b604051908082528060200260200182016040528015611d115781602001602082028036833780820191505090505b50905060005b85811015611dcc57611d2b8e8e604061272b565b828281518110611d3e57611d3d61561b565b5b60200260200101818152505060088d611d579190615e3c565b9c50611d638e8e612643565b809e5081965050508c848281518110611d7f57611d7e61561b565b5b60200260200101818152505084838281518110611d9f57611d9e61561b565b5b602002602001018181525050848d611db79190615e3c565b9c508080611dc490615d56565b915050611d17565b508083838e995099509950995050505050505093509350935093565b6000806000611df8868686612b96565b15611e4a57611e1386600387611e0e9190615e3c565b61202b565b611e2987602888611e249190615e3c565b61202b565b611e3f88604c89611e3a9190615e3c565b61202b565b925092509250611e5d565b6000801b6000801b6000801b9250925092505b93509350939050565b6000611e73848484613145565b15611ea457611e8e84600385611e899190615e3c565b611f48565b6bffffffffffffffffffffffff19169050611f41565b611eaf84848461330a565b15611ee057611eca84600285611ec59190615e3c565b611f48565b6bffffffffffffffffffffffff19169050611f41565b611eeb848484613427565b15611f0d57611f0684600285611f019190615e3c565b61202b565b9050611f41565b611f18848484612b96565b15611f3a57611f3384600285611f2e9190615e3c565b61202b565b9050611f41565b6000801b90505b9392505050565b6000806000905060005b60148173ffffffffffffffffffffffffffffffffffffffff16101561201d57806013611f7e9190616063565b6008611f8a91906160ab565b73ffffffffffffffffffffffffffffffffffffffff1685858373ffffffffffffffffffffffffffffffffffffffff16611fc39190615e3c565b81518110611fd457611fd361561b565b5b602001015160f81c60f81b60f81c60ff1673ffffffffffffffffffffffffffffffffffffffff16901b8261200891906160ed565b9150808061201590616135565b915050611f52565b508060601b91505092915050565b6000806000905060005b60208110156120a85780601f61204b9190615c5a565b60086120579190616171565b8585836120649190615e3c565b815181106120755761207461561b565b5b602001015160f81c60f81b60f81c60ff16901b826120939190615e3c565b915080806120a090615d56565b915050612035565b508060001b91505092915050565b6060816040516020016120c99190615d3b565b6040516020818303038152906040529050919050565b60606000805b601f8110156121585780601e6120fb9190615c5a565b60086121079190616171565b8585836121149190615e3c565b815181106121255761212461561b565b5b602001015160f81c60f81b60f81c60ff16901b826121439190615e3c565b9150808061215090615d56565b9150506120e5565b50612162816134ea565b91505092915050565b60006002808360405161217e91906158a4565b602060405180830381855afa15801561219b573d6000803e3d6000fd5b5050506040513d601f19601f820116820180604052508101906121be91906158d0565b6040516020016121ce9190615d3b565b6040516020818303038152906040526040516121ea91906158a4565b602060405180830381855afa158015612207573d6000803e3d6000fd5b5050506040513d601f19601f8201168201806040525081019061222a91906158d0565b9050919050565b60008060007ffffffffffffffffffffffffffffffffffffffffffffffffffffffffefffffc2f8061226557612264615d9e565b5b60018760ff16901c60ff167ffffffffffffffffffffffffffffffffffffffffffffffffffffffffefffffc2f61229b9190616171565b860890507ffffffffffffffffffffffffffffffffffffffffffffffffffffffffefffffc2f8111806122ec57507ffffffffffffffffffffffffffffffffebaaedce6af48a03bbfd25e8cd036414184115b8061231657507ffffffffffffffffffffffffffffffffebaaedce6af48a03bbfd25e8cd036414185115b806123215750600084145b8061232c5750600085145b8061233a575060018660ff16115b1561234c57600080925092505061263a565b6000612378867ffffffffffffffffffffffffffffffffebaaedce6af48a03bbfd25e8cd036414161356a565b905060007ffffffffffffffffffffffffffffffffffffffffffffffffffffffffefffffc2f806123ab576123aa615d9e565b5b7ffffffffffffffffffffffffffffffffffffffffffffffffffffffffefffffc2f806123da576123d9615d9e565b5b60077ffffffffffffffffffffffffffffffffffffffffffffffffffffffffefffffc2f8061240b5761240a615d9e565b5b60008709087ffffffffffffffffffffffffffffffffffffffffffffffffffffffffefffffc2f8061243f5761243e615d9e565b5b7ffffffffffffffffffffffffffffffffffffffffffffffffffffffffefffffc2f8061246e5761246d615d9e565b5b86870986090890506124b881600460017ffffffffffffffffffffffffffffffffffffffffffffffffffffffffefffffc2f6124a99190615e3c565b6124b391906161b3565b613656565b9050600080600160028b60ff16856124d09190615e3c565b6124da9190615e3c565b161461251157817ffffffffffffffffffffffffffffffffffffffffffffffffffffffffefffffc2f61250c9190615c5a565b612513565b815b905060008060006125c37ffffffffffffffffffffffffffffffffebaaedce6af48a03bbfd25e8cd03641418061254c5761254b615d9e565b5b8e7ffffffffffffffffffffffffffffffffebaaedce6af48a03bbfd25e8cd03641416125789190615c5a565b88097f79be667ef9dcbbac55a06295ce870b07029bfcdb2dce28d959f2815b16f817987f483ada7726a3c4655da4fbfc0e1108a8fd17b448a68554199c47d08ffb10d4b8600161380a565b925092509250600080600061260c7ffffffffffffffffffffffffffffffffebaaedce6af48a03bbfd25e8cd036414180612600576125ff615d9e565b5b8e8b098b89600161380a565b9250925092506000806126238888888888886138a4565b9150915081819d509d505050505050505050505050505b94509492505050565b600080600084848151811061265b5761265a61561b565b5b602001015160f81c60f81b60f81c90506001846126789190615e3c565b935060fd8160ff1610156126985780848160ff1691509250925050612724565b60fd8160ff16036126c6576126af8585601061272b565b6002856126bc9190615e3c565b9250925050612724565b60fe8160ff16036126f4576126dd8585602061272b565b6004856126ea9190615e3c565b9250925050612724565b60ff8160ff16036127225761270b8585604061272b565b6008856127189190615e3c565b9250925050612724565b505b9250929050565b600060088203612760578383815181106127485761274761561b565b5b602001015160f81c60f81b60f81c60ff169050612b8f565b601082036127e257610100846001856127799190615e3c565b8151811061278a5761278961561b565b5b602001015160f81c60f81b60f81c60ff166127a591906161f2565b61ffff168484815181106127bc576127bb61561b565b5b602001015160f81c60f81b60f81c60ff1661ffff166127db9190615e3c565b9050612b8f565b60208203612905576301000000846003856127fd9190615e3c565b8151811061280e5761280d61561b565b5b602001015160f81c60f81b60f81c60ff16612829919061623f565b63ffffffff1662010000856002866128419190615e3c565b815181106128525761285161561b565b5b602001015160f81c60f81b60f81c60ff1661286d919061623f565b63ffffffff16610100866001876128849190615e3c565b815181106128955761289461561b565b5b602001015160f81c60f81b60f81c60ff166128b0919061623f565b63ffffffff168686815181106128c9576128c861561b565b5b602001015160f81c60f81b60f81c60ff1663ffffffff166128ea9190615e3c565b6128f49190615e3c565b6128fe9190615e3c565b9050612b8f565b60408203612b8e57670100000000000000846007856129249190615e3c565b815181106129355761293461561b565b5b602001015160f81c60f81b60f81c60ff166129509190616290565b67ffffffffffffffff166601000000000000856006866129709190615e3c565b815181106129815761298061561b565b5b602001015160f81c60f81b60f81c60ff1661299c9190616290565b67ffffffffffffffff1665010000000000866005876129bb9190615e3c565b815181106129cc576129cb61561b565b5b602001015160f81c60f81b60f81c60ff166129e79190616290565b67ffffffffffffffff1664010000000087600488612a059190615e3c565b81518110612a1657612a1561561b565b5b602001015160f81c60f81b60f81c60ff16612a319190616290565b67ffffffffffffffff16630100000088600389612a4e9190615e3c565b81518110612a5f57612a5e61561b565b5b602001015160f81c60f81b60f81c60ff16612a7a9190616290565b67ffffffffffffffff16620100008960028a612a969190615e3c565b81518110612aa757612aa661561b565b5b602001015160f81c60f81b60f81c60ff16612ac29190616290565b67ffffffffffffffff166101008a60018b612add9190615e3c565b81518110612aee57612aed61561b565b5b602001015160f81c60f81b60f81c60ff16612b099190616290565b67ffffffffffffffff168a8a81518110612b2657612b2561561b565b5b602001015160f81c60f81b60f81c60ff1667ffffffffffffffff16612b4b9190615e3c565b612b559190615e3c565b612b5f9190615e3c565b612b699190615e3c565b612b739190615e3c565b612b7d9190615e3c565b612b879190615e3c565b9050612b8f565b5b9392505050565b6000607282148015612bf65750607660f81b84600085612bb69190615e3c565b81518110612bc757612bc661561b565b5b602001015160f81c60f81b7effffffffffffffffffffffffffffffffffffffffffffffffffffffffffffff1916145b8015612c505750602160f81b84600185612c109190615e3c565b81518110612c2157612c2061561b565b5b602001015160f81c60f81b7effffffffffffffffffffffffffffffffffffffffffffffffffffffffffffff1916145b8015612caa575060ac60f81b84602385612c6a9190615e3c565b81518110612c7b57612c7a61561b565b5b602001015160f81c60f81b7effffffffffffffffffffffffffffffffffffffffffffffffffffffffffffff1916145b8015612d045750606360f81b84602485612cc49190615e3c565b81518110612cd557612cd461561b565b5b602001015160f81c60f81b7effffffffffffffffffffffffffffffffffffffffffffffffffffffffffffff1916145b8015612d5e5750607560f81b84602585612d1e9190615e3c565b81518110612d2f57612d2e61561b565b5b602001015160f81c60f81b7effffffffffffffffffffffffffffffffffffffffffffffffffffffffffffff1916145b8015612db8575060aa60f81b84602685612d789190615e3c565b81518110612d8957612d8861561b565b5b602001015160f81c60f81b7effffffffffffffffffffffffffffffffffffffffffffffffffffffffffffff1916145b8015612e125750602060f81b84602785612dd29190615e3c565b81518110612de357612de261561b565b5b602001015160f81c60f81b7effffffffffffffffffffffffffffffffffffffffffffffffffffffffffffff1916145b8015612e6c5750608860f81b84604885612e2c9190615e3c565b81518110612e3d57612e3c61561b565b5b602001015160f81c60f81b7effffffffffffffffffffffffffffffffffffffffffffffffffffffffffffff1916145b8015612ec65750606760f81b84604985612e869190615e3c565b81518110612e9757612e9661561b565b5b602001015160f81c60f81b7effffffffffffffffffffffffffffffffffffffffffffffffffffffffffffff1916145b8015612f205750602160f81b84604a85612ee09190615e3c565b81518110612ef157612ef061561b565b5b602001015160f81c60f81b7effffffffffffffffffffffffffffffffffffffffffffffffffffffffffffff1916145b8015612f7a575060ad60f81b84606c85612f3a9190615e3c565b81518110612f4b57612f4a61561b565b5b602001015160f81c60f81b7effffffffffffffffffffffffffffffffffffffffffffffffffffffffffffff1916145b8015612fd45750605260f81b84606d85612f949190615e3c565b81518110612fa557612fa461561b565b5b602001015160f81c60f81b7effffffffffffffffffffffffffffffffffffffffffffffffffffffffffffff1916145b801561302e575060b260f81b84606e85612fee9190615e3c565b81518110612fff57612ffe61561b565b5b602001015160f81c60f81b7effffffffffffffffffffffffffffffffffffffffffffffffffffffffffffff1916145b80156130885750607560f81b84606f856130489190615e3c565b815181106130595761305861561b565b5b602001015160f81c60f81b7effffffffffffffffffffffffffffffffffffffffffffffffffffffffffffff1916145b80156130e25750606860f81b846070856130a29190615e3c565b815181106130b3576130b261561b565b5b602001015160f81c60f81b7effffffffffffffffffffffffffffffffffffffffffffffffffffffffffffff1916145b801561313c5750605160f81b846071856130fc9190615e3c565b8151811061310d5761310c61561b565b5b602001015160f81c60f81b7effffffffffffffffffffffffffffffffffffffffffffffffffffffffffffff1916145b90509392505050565b60006019821480156131995750607660f81b84848151811061316a5761316961561b565b5b602001015160f81c60f81b7effffffffffffffffffffffffffffffffffffffffffffffffffffffffffffff1916145b80156131f3575060a960f81b846001856131b39190615e3c565b815181106131c4576131c361561b565b5b602001015160f81c60f81b7effffffffffffffffffffffffffffffffffffffffffffffffffffffffffffff1916145b801561324d5750601460f81b8460028561320d9190615e3c565b8151811061321e5761321d61561b565b5b602001015160f81c60f81b7effffffffffffffffffffffffffffffffffffffffffffffffffffffffffffff1916145b80156132a75750608860f81b846017856132679190615e3c565b815181106132785761327761561b565b5b602001015160f81c60f81b7effffffffffffffffffffffffffffffffffffffffffffffffffffffffffffff1916145b8015613301575060ac60f81b846018856132c19190615e3c565b815181106132d2576132d161561b565b5b602001015160f81c60f81b7effffffffffffffffffffffffffffffffffffffffffffffffffffffffffffff1916145b90509392505050565b600060178214801561336a575060a960f81b8460008561332a9190615e3c565b8151811061333b5761333a61561b565b5b602001015160f81c60f81b7effffffffffffffffffffffffffffffffffffffffffffffffffffffffffffff1916145b80156133c45750601460f81b846001856133849190615e3c565b815181106133955761339461561b565b5b602001015160f81c60f81b7effffffffffffffffffffffffffffffffffffffffffffffffffffffffffffff1916145b801561341e5750608760f81b846016856133de9190615e3c565b815181106133ef576133ee61561b565b5b602001015160f81c60f81b7effffffffffffffffffffffffffffffffffffffffffffffffffffffffffffff1916145b90509392505050565b60006022821480156134875750606a60f81b846000856134479190615e3c565b815181106134585761345761561b565b5b602001015160f81c60f81b7effffffffffffffffffffffffffffffffffffffffffffffffffffffffffffff1916145b80156134e15750602060f81b846001856134a19190615e3c565b815181106134b2576134b161561b565b5b602001015160f81c60f81b7effffffffffffffffffffffffffffffffffffffffffffffffffffffffffffff1916145b90509392505050565b60607f7fffffffffffffffffffffffffffffffffffffffffffffffffffffffffffffff82111561354f576040517f08c379a000000000000000000000000000000000000000000000000000000000815260040161354690616319565b60405180910390fd5b60405190506020815281602082015260408101604052919050565b600080831415801561357c5750818314155b8015613589575060008214155b6135c8576040517f08c379a00000000000000000000000000000000000000000000000000000000081526004016135bf90616385565b60405180910390fd5b60008060019050600084905060005b600087146136495786826135eb91906161b3565b90508286806135fd576135fc615d9e565b5b878061360c5761360b615d9e565b5b8584098861361a9190615c5a565b860880945081955050508687826136319190616171565b8361363c9190615c5a565b80985081935050506135d7565b8394505050505092915050565b60008083036136685760009050613804565b600082036136795760019050613804565b60006001905060007f800000000000000000000000000000000000000000000000000000000000000090505b60008111156137fe577ffffffffffffffffffffffffffffffffffffffffffffffffffffffffefffffc2f8185161515860a7ffffffffffffffffffffffffffffffffffffffffffffffffffffffffefffffc2f8485090991507ffffffffffffffffffffffffffffffffffffffffffffffffffffffffefffffc2f6002820485161515860a7ffffffffffffffffffffffffffffffffffffffffffffffffffffffffefffffc2f8485090991507ffffffffffffffffffffffffffffffffffffffffffffffffffffffffefffffc2f6004820485161515860a7ffffffffffffffffffffffffffffffffffffffffffffffffffffffffefffffc2f8485090991507ffffffffffffffffffffffffffffffffffffffffffffffffffffffffefffffc2f6008820485161515860a7ffffffffffffffffffffffffffffffffffffffffffffffffffffffffefffffc2f8485090991506010810490506136a5565b81925050505b92915050565b60008060008087036138245785858592509250925061389a565b60008790506000806000600190505b6000841461388c5760006001851614613861576138548383838d8d8d613950565b8093508194508295505050505b60028461386e91906161b3565b935061387b8a8a8a61438e565b809a50819b50829c50505050613833565b828282965096509650505050505b9450945094915050565b6000806000806000878b036139175760007ffffffffffffffffffffffffffffffffffffffffffffffffffffffffefffffc2f806138e4576138e3615d9e565b5b888c08036138fb5760008094509450505050613945565b6139068b8b8b61438e565b809350819450829550505050613932565b6139258b8b8b8b8b8b613950565b8093508194508295505050505b61393d83838361480b565b945094505050505b965096945050505050565b600080600080891480156139645750600088145b1561397757858585925092509250614382565b6000861480156139875750600085145b1561399a57888888925092509250614382565b6139a2614a94565b7ffffffffffffffffffffffffffffffffffffffffffffffffffffffffefffffc2f806139d1576139d0615d9e565b5b888909816000600481106139e8576139e761561b565b5b6020020181815250507ffffffffffffffffffffffffffffffffffffffffffffffffffffffffefffffc2f80613a2057613a1f615d9e565b5b81600060048110613a3457613a3361561b565b5b6020020151890981600160048110613a4f57613a4e61561b565b5b6020020181815250507ffffffffffffffffffffffffffffffffffffffffffffffffffffffffefffffc2f80613a8757613a86615d9e565b5b85860981600260048110613a9e57613a9d61561b565b5b6020020181815250507ffffffffffffffffffffffffffffffffffffffffffffffffffffffffefffffc2f80613ad657613ad5615d9e565b5b81600260048110613aea57613ae961561b565b5b6020020151860981600360048110613b0557613b0461561b565b5b60200201818152505060405180608001604052807ffffffffffffffffffffffffffffffffffffffffffffffffffffffffefffffc2f80613b4857613b47615d9e565b5b83600260048110613b5c57613b5b61561b565b5b60200201518d0981526020017ffffffffffffffffffffffffffffffffffffffffffffffffffffffffefffffc2f80613b9757613b96615d9e565b5b83600360048110613bab57613baa61561b565b5b60200201518c0981526020017ffffffffffffffffffffffffffffffffffffffffffffffffffffffffefffffc2f80613be657613be5615d9e565b5b83600060048110613bfa57613bf961561b565b5b60200201518a0981526020017ffffffffffffffffffffffffffffffffffffffffffffffffffffffffefffffc2f80613c3557613c34615d9e565b5b83600160048110613c4957613c4861561b565b5b60200201518909815250905080600260048110613c6957613c6861561b565b5b602002015181600060048110613c8257613c8161561b565b5b6020020151141580613cc4575080600360048110613ca357613ca261561b565b5b602002015181600160048110613cbc57613cbb61561b565b5b602002015114155b613d03576040517f08c379a0000000000000000000000000000000000000000000000000000000008152600401613cfa906163f1565b60405180910390fd5b613d0b614a94565b7ffffffffffffffffffffffffffffffffffffffffffffffffffffffffefffffc2f80613d3a57613d39615d9e565b5b82600060048110613d4e57613d4d61561b565b5b60200201517ffffffffffffffffffffffffffffffffffffffffffffffffffffffffefffffc2f613d7e9190615c5a565b83600260048110613d9257613d9161561b565b5b60200201510881600060048110613dac57613dab61561b565b5b6020020181815250507ffffffffffffffffffffffffffffffffffffffffffffffffffffffffefffffc2f80613de457613de3615d9e565b5b82600160048110613df857613df761561b565b5b60200201517ffffffffffffffffffffffffffffffffffffffffffffffffffffffffefffffc2f613e289190615c5a565b83600360048110613e3c57613e3b61561b565b5b60200201510881600160048110613e5657613e5561561b565b5b6020020181815250507ffffffffffffffffffffffffffffffffffffffffffffffffffffffffefffffc2f80613e8e57613e8d615d9e565b5b81600060048110613ea257613ea161561b565b5b602002015182600060048110613ebb57613eba61561b565b5b60200201510981600260048110613ed557613ed461561b565b5b6020020181815250507ffffffffffffffffffffffffffffffffffffffffffffffffffffffffefffffc2f80613f0d57613f0c615d9e565b5b81600060048110613f2157613f2061561b565b5b602002015182600260048110613f3a57613f3961561b565b5b60200201510981600360048110613f5457613f5361561b565b5b60200201818152505060007ffffffffffffffffffffffffffffffffffffffffffffffffffffffffefffffc2f80613f8e57613f8d615d9e565b5b82600360048110613fa257613fa161561b565b5b60200201517ffffffffffffffffffffffffffffffffffffffffffffffffffffffffefffffc2f613fd29190615c5a565b7ffffffffffffffffffffffffffffffffffffffffffffffffffffffffefffffc2f8061400157614000615d9e565b5b846001600481106140155761401461561b565b5b60200201518560016004811061402e5761402d61561b565b5b6020020151090890507ffffffffffffffffffffffffffffffffffffffffffffffffffffffffefffffc2f8061406657614065615d9e565b5b7ffffffffffffffffffffffffffffffffffffffffffffffffffffffffefffffc2f8061409557614094615d9e565b5b7ffffffffffffffffffffffffffffffffffffffffffffffffffffffffefffffc2f806140c4576140c3615d9e565b5b846002600481106140d8576140d761561b565b5b6020020151866000600481106140f1576140f061561b565b5b6020020151096002097ffffffffffffffffffffffffffffffffffffffffffffffffffffffffefffffc2f6141259190615c5a565b8208905060007ffffffffffffffffffffffffffffffffffffffffffffffffffffffffefffffc2f8061415a57614159615d9e565b5b7ffffffffffffffffffffffffffffffffffffffffffffffffffffffffefffffc2f8061418957614188615d9e565b5b837ffffffffffffffffffffffffffffffffffffffffffffffffffffffffefffffc2f6141b59190615c5a565b7ffffffffffffffffffffffffffffffffffffffffffffffffffffffffefffffc2f806141e4576141e3615d9e565b5b866002600481106141f8576141f761561b565b5b6020020151886000600481106142115761421061561b565b5b602002015109088460016004811061422c5761422b61561b565b5b60200201510990507ffffffffffffffffffffffffffffffffffffffffffffffffffffffffefffffc2f8061426357614262615d9e565b5b7ffffffffffffffffffffffffffffffffffffffffffffffffffffffffefffffc2f8061429257614291615d9e565b5b846003600481106142a6576142a561561b565b5b6020020151866001600481106142bf576142be61561b565b5b6020020151097ffffffffffffffffffffffffffffffffffffffffffffffffffffffffefffffc2f6142f09190615c5a565b8208905060007ffffffffffffffffffffffffffffffffffffffffffffffffffffffffefffffc2f8061432557614324615d9e565b5b7ffffffffffffffffffffffffffffffffffffffffffffffffffffffffefffffc2f8061435457614353615d9e565b5b8a8e098560006004811061436b5761436a61561b565b5b602002015109905082828297509750975050505050505b96509650969350505050565b60008060008084036143a857858585925092509250614802565b60007ffffffffffffffffffffffffffffffffffffffffffffffffffffffffefffffc2f806143d9576143d8615d9e565b5b878809905060007ffffffffffffffffffffffffffffffffffffffffffffffffffffffffefffffc2f8061440f5761440e615d9e565b5b878809905060007ffffffffffffffffffffffffffffffffffffffffffffffffffffffffefffffc2f8061444557614444615d9e565b5b878809905060007ffffffffffffffffffffffffffffffffffffffffffffffffffffffffefffffc2f8061447b5761447a615d9e565b5b7ffffffffffffffffffffffffffffffffffffffffffffffffffffffffefffffc2f806144aa576144a9615d9e565b5b848c09600409905060007ffffffffffffffffffffffffffffffffffffffffffffffffffffffffefffffc2f806144e3576144e2615d9e565b5b7ffffffffffffffffffffffffffffffffffffffffffffffffffffffffefffffc2f8061451257614511615d9e565b5b7ffffffffffffffffffffffffffffffffffffffffffffffffffffffffefffffc2f8061454157614540615d9e565b5b8586096000097ffffffffffffffffffffffffffffffffffffffffffffffffffffffffefffffc2f8061457657614575615d9e565b5b876003090890507ffffffffffffffffffffffffffffffffffffffffffffffffffffffffefffffc2f806145ac576145ab615d9e565b5b7ffffffffffffffffffffffffffffffffffffffffffffffffffffffffefffffc2f806145db576145da615d9e565b5b8384087ffffffffffffffffffffffffffffffffffffffffffffffffffffffffefffffc2f6146099190615c5a565b7ffffffffffffffffffffffffffffffffffffffffffffffffffffffffefffffc2f8061463857614637615d9e565b5b8384090894507ffffffffffffffffffffffffffffffffffffffffffffffffffffffffefffffc2f8061466d5761466c615d9e565b5b7ffffffffffffffffffffffffffffffffffffffffffffffffffffffffefffffc2f8061469c5761469b615d9e565b5b7ffffffffffffffffffffffffffffffffffffffffffffffffffffffffefffffc2f806146cb576146ca615d9e565b5b8687096008097ffffffffffffffffffffffffffffffffffffffffffffffffffffffffefffffc2f6146fc9190615c5a565b7ffffffffffffffffffffffffffffffffffffffffffffffffffffffffefffffc2f8061472b5761472a615d9e565b5b7ffffffffffffffffffffffffffffffffffffffffffffffffffffffffefffffc2f8061475a57614759615d9e565b5b887ffffffffffffffffffffffffffffffffffffffffffffffffffffffffefffffc2f6147869190615c5a565b860884090893507ffffffffffffffffffffffffffffffffffffffffffffffffffffffffefffffc2f806147bc576147bb615d9e565b5b7ffffffffffffffffffffffffffffffffffffffffffffffffffffffffefffffc2f806147eb576147ea615d9e565b5b8a8c09600209925084848497509750975050505050505b93509350939050565b600080600061483a847ffffffffffffffffffffffffffffffffffffffffffffffffffffffffefffffc2f61356a565b905060007ffffffffffffffffffffffffffffffffffffffffffffffffffffffffefffffc2f8061486d5761486c615d9e565b5b828309905060007ffffffffffffffffffffffffffffffffffffffffffffffffffffffffefffffc2f806148a3576148a2615d9e565b5b828909905060007ffffffffffffffffffffffffffffffffffffffffffffffffffffffffefffffc2f806148d9576148d8615d9e565b5b7ffffffffffffffffffffffffffffffffffffffffffffffffffffffffefffffc2f8061490857614907615d9e565b5b8486098909905081819550955050505050935093915050565b60405180604001604052806002905b6149386149e7565b8152602001906001900390816149305790505090565b60405180604001604052806002905b614965614a18565b81526020019060019003908161495d5790505090565b604051806040016040528060008152602001600080191681525090565b60405180604001604052806002905b6149af614a70565b8152602001906001900390816149a75790505090565b6040518060400160405280600290602082028036833780820191505090505090565b6040518060800160405280600081526020016000801916815260200160008019168152602001600080191681525090565b60405180604001604052806000815260200160006bffffffffffffffffffffffff191681525090565b6040518060a0016040528060008152602001606081526020016060815260200160608152602001606081525090565b6040518060600160405280600060ff16815260200160608152602001606081525090565b6040518060800160405280600490602082028036833780820191505090505090565b6000604051905090565b600080fd5b600080fd5b6000819050919050565b614add81614aca565b8114614ae857600080fd5b50565b600081359050614afa81614ad4565b92915050565b600080fd5b600080fd5b6000601f19601f8301169050919050565b7f4e487b7100000000000000000000000000000000000000000000000000000000600052604160045260246000fd5b614b5382614b0a565b810181811067ffffffffffffffff82111715614b7257614b71614b1b565b5b80604052505050565b6000614b85614ab6565b9050614b918282614b4a565b919050565b600067ffffffffffffffff821115614bb157614bb0614b1b565b5b614bba82614b0a565b9050602081019050919050565b82818337600083830152505050565b6000614be9614be484614b96565b614b7b565b905082815260208101848484011115614c0557614c04614b05565b5b614c10848285614bc7565b509392505050565b600082601f830112614c2d57614c2c614b00565b5b8135614c3d848260208601614bd6565b91505092915050565b60007fffffffff0000000000000000000000000000000000000000000000000000000082169050919050565b614c7b81614c46565b8114614c8657600080fd5b50565b600081359050614c9881614c72565b92915050565b6000819050919050565b614cb181614c9e565b8114614cbc57600080fd5b50565b600081359050614cce81614ca8565b92915050565b6000806000806000806000806000806101408b8d031215614cf857614cf7614ac0565b5b6000614d068d828e01614aeb565b9a505060208b013567ffffffffffffffff811115614d2757614d26614ac5565b5b614d338d828e01614c18565b9950506040614d448d828e01614c89565b98505060608b013567ffffffffffffffff811115614d6557614d64614ac5565b5b614d718d828e01614c18565b97505060808b013567ffffffffffffffff811115614d9257614d91614ac5565b5b614d9e8d828e01614c18565b96505060a08b013567ffffffffffffffff811115614dbf57614dbe614ac5565b5b614dcb8d828e01614c18565b95505060c08b013567ffffffffffffffff811115614dec57614deb614ac5565b5b614df88d828e01614c18565b94505060e08b013567ffffffffffffffff811115614e1957614e18614ac5565b5b614e258d828e01614c18565b935050610100614e378d828e01614cbf565b925050610120614e498d828e01614cbf565b9150509295989b9194979a5092959850565b60008060408385031215614e7257614e71614ac0565b5b600083013567ffffffffffffffff811115614e9057614e8f614ac5565b5b614e9c85828601614c18565b925050602083013567ffffffffffffffff811115614ebd57614ebc614ac5565b5b614ec985828601614c18565b9150509250929050565b60008115159050919050565b614ee881614ed3565b82525050565b6000602082019050614f036000830184614edf565b92915050565b60008060008060808587031215614f2357614f22614ac0565b5b600085013567ffffffffffffffff811115614f4157614f40614ac5565b5b614f4d87828801614c18565b945050602085013567ffffffffffffffff811115614f6e57614f6d614ac5565b5b614f7a87828801614c18565b935050604085013567ffffffffffffffff811115614f9b57614f9a614ac5565b5b614fa787828801614c18565b925050606085013567ffffffffffffffff811115614fc857614fc7614ac5565b5b614fd487828801614c18565b91505092959194509250565b600080600060608486031215614ff957614ff8614ac0565b5b600084013567ffffffffffffffff81111561501757615016614ac5565b5b61502386828701614c18565b935050602084013567ffffffffffffffff81111561504457615043614ac5565b5b61505086828701614c18565b925050604084013567ffffffffffffffff81111561507157615070614ac5565b5b61507d86828701614c18565b9150509250925092565b61509081614aca565b82525050565b600081519050919050565b600082825260208201905092915050565b60005b838110156150d05780820151818401526020810190506150b5565b60008484015250505050565b60006150e782615096565b6150f181856150a1565b93506151018185602086016150b2565b61510a81614b0a565b840191505092915050565b61511e81614c46565b82525050565b61512d81614c9e565b82525050565b600061016082019050615149600083018e615087565b818103602083015261515b818d6150dc565b905061516a604083018c615115565b818103606083015261517c818b6150dc565b90508181036080830152615190818a6150dc565b905081810360a08301526151a481896150dc565b905081810360c08301526151b881886150dc565b905081810360e08301526151cc81876150dc565b90506151dc610100830186615124565b6151ea610120830185615124565b6151f8610140830184615124565b9c9b505050505050505050505050565b7f4e487b7100000000000000000000000000000000000000000000000000000000600052602260045260246000fd5b6000600282049050600182168061524f57607f821691505b60208210810361526257615261615208565b5b50919050565b60008190508160005260206000209050919050565b60006020601f8301049050919050565b600082821b905092915050565b6000600883026152ca7fffffffffffffffffffffffffffffffffffffffffffffffffffffffffffffffff8261528d565b6152d4868361528d565b95508019841693508086168417925050509392505050565b6000819050919050565b600061531161530c61530784614c9e565b6152ec565b614c9e565b9050919050565b6000819050919050565b61532b836152f6565b61533f61533782615318565b84845461529a565b825550505050565b600090565b615354615347565b61535f818484615322565b505050565b5b818110156153835761537860008261534c565b600181019050615365565b5050565b601f8211156153c85761539981615268565b6153a28461527d565b810160208510156153b1578190505b6153c56153bd8561527d565b830182615364565b50505b505050565b600082821c905092915050565b60006153eb600019846008026153cd565b1980831691505092915050565b600061540483836153da565b9150826002028217905092915050565b61541d82615096565b67ffffffffffffffff81111561543657615435614b1b565b5b6154408254615237565b61544b828285615387565b600060209050601f83116001811461547e576000841561546c578287015190505b61547685826153f8565b8655506154de565b601f19841661548c86615268565b60005b828110156154b45784890151825560018201915060208501945060208101905061548f565b868310156154d157848901516154cd601f8916826153da565b8355505b6001600288020188555050505b505050505050565b600082825260208201905092915050565b7f436f6d6d69746d656e74207472616e73616374696f6e206f662050206973206c60008201527f6f636b6564000000000000000000000000000000000000000000000000000000602082015250565b60006155536025836154e6565b915061555e826154f7565b604082019050919050565b6000602082019050818103600083015261558281615546565b9050919050565b7f436f6d6d69746d656e74207472616e73616374696f6e206f662056206973206c60008201527f6f636b6564000000000000000000000000000000000000000000000000000000602082015250565b60006155e56025836154e6565b91506155f082615589565b604082019050919050565b60006020820190508181036000830152615614816155d8565b9050919050565b7f4e487b7100000000000000000000000000000000000000000000000000000000600052603260045260246000fd5b7f50277320636f6d6d69746d656e74207472616e73616374696f6e20646f65732060008201527f6e6f742068617264636f646520562773207265766f636174696f6e206b657900602082015250565b60006156a6603f836154e6565b91506156b18261564a565b604082019050919050565b600060208201905081810360008301526156d581615699565b9050919050565b7f416d6f756e74206d69736d61746368206265747765656e207032706b68206f6660008201527f205020616e64206c696768746e696e672048544c43206f662056000000000000602082015250565b6000615738603a836154e6565b9150615743826156dc565b604082019050919050565b600060208201905081810360008301526157678161572b565b9050919050565b7f416d6f756e74206d69736d61746368206265747765656e207032706b68206f6660008201527f205620616e64206c696768746e696e672048544c43206f662050000000000000602082015250565b60006157ca603a836154e6565b91506157d58261576e565b604082019050919050565b600060208201905081810360008301526157f9816157bd565b9050919050565b60007fffffffffffffffffffffffffffffffffffffffff00000000000000000000000082169050919050565b6000819050919050565b61584761584282615800565b61582c565b82525050565b60006158598284615836565b60148201915081905092915050565b600081905092915050565b600061587e82615096565b6158888185615868565b93506158988185602086016150b2565b80840191505092915050565b60006158b08284615873565b915081905092915050565b6000815190506158ca81614ad4565b92915050565b6000602082840312156158e6576158e5614ac0565b5b60006158f4848285016158bb565b91505092915050565b7f546865207032706b6820696e2050277320756e6c6f636b656420636f6d6d697460008201527f6d656e74207472616e73616374696f6e20646f6573206e6f7420636f7272657360208201527f706f6e6420746f2056657269666965722773206f6e6500000000000000000000604082015250565b600061597f6056836154e6565b915061598a826158fd565b606082019050919050565b600060208201905081810360008301526159ae81615972565b9050919050565b7f546865207032706b6820696e2056277320756e6c6f636b656420636f6d6d697460008201527f6d656e74207472616e73616374696f6e20646f6573206e6f7420636f7272657360208201527f706f6e6420746f2050726f7665722773206f6e65000000000000000000000000604082015250565b6000615a376054836154e6565b9150615a42826159b5565b606082019050919050565b60006020820190508181036000830152615a6681615a2a565b9050919050565b60008154615a7a81615237565b615a848186615868565b94506001821660008114615a9f5760018114615ab457615ae7565b60ff1983168652811515820286019350615ae7565b615abd85615268565b60005b83811015615adf57815481890152600182019150602081019050615ac0565b838801955050505b50505092915050565b6000615afc8284615a6d565b915081905092915050565b7f496e76616c6964207369676e6174757265206f662056206f76657220636f6d6d60008201527f69746d656e74207472616e73616374696f6e206f662050000000000000000000602082015250565b6000615b636037836154e6565b9150615b6e82615b07565b604082019050919050565b60006020820190508181036000830152615b9281615b56565b9050919050565b7f496e76616c6964207369676e6174757265206f662050206f76657220636f6d6d60008201527f69746d656e74207472616e73616374696f6e206f662056000000000000000000602082015250565b6000615bf56037836154e6565b9150615c0082615b99565b604082019050919050565b60006020820190508181036000830152615c2481615be8565b9050919050565b7f4e487b7100000000000000000000000000000000000000000000000000000000600052601160045260246000fd5b6000615c6582614c9e565b9150615c7083614c9e565b9250828203905081811115615c8857615c87615c2b565b5b92915050565b6000819050602082019050919050565b6000615caa8251614c46565b80915050919050565b6000615cbe82615096565b82615cc884615c8e565b9050615cd381615c9e565b92506004821015615d1357615d0e7fffffffff000000000000000000000000000000000000000000000000000000008360040360080261528d565b831692505b5050919050565b6000819050919050565b615d35615d3082614aca565b615d1a565b82525050565b6000615d478284615d24565b60208201915081905092915050565b6000615d6182614c9e565b91507fffffffffffffffffffffffffffffffffffffffffffffffffffffffffffffffff8203615d9357615d92615c2b565b5b600182019050919050565b7f4e487b7100000000000000000000000000000000000000000000000000000000600052601260045260246000fd5b6000615dd882614c9e565b9150615de383614c9e565b925082615df357615df2615d9e565b5b828206905092915050565b6000615e0a8287615873565b9150615e168286615873565b9150615e228285615873565b9150615e2e8284615873565b915081905095945050505050565b6000615e4782614c9e565b9150615e5283614c9e565b9250828201905080821115615e6a57615e69615c2b565b5b92915050565b7f746f55696e743235365f6f75744f66426f756e64730000000000000000000000600082015250565b6000615ea66015836154e6565b9150615eb182615e70565b602082019050919050565b60006020820190508181036000830152615ed581615e99565b9050919050565b600060ff82169050919050565b6000615ef482615edc565b9150615eff83615edc565b9250828203905060ff811115615f1857615f17615c2b565b5b92915050565b6000819050919050565b615f39615f3482614c9e565b615f1e565b82525050565b6000615f4b8285615f28565b602082019150615f5b8284615f28565b6020820191508190509392505050565b7f736c6963655f6f766572666c6f77000000000000000000000000000000000000600082015250565b6000615fa1600e836154e6565b9150615fac82615f6b565b602082019050919050565b60006020820190508181036000830152615fd081615f94565b9050919050565b7f736c6963655f6f75744f66426f756e6473000000000000000000000000000000600082015250565b600061600d6011836154e6565b915061601882615fd7565b602082019050919050565b6000602082019050818103600083015261603c81616000565b9050919050565b600073ffffffffffffffffffffffffffffffffffffffff82169050919050565b600061606e82616043565b915061607983616043565b9250828203905073ffffffffffffffffffffffffffffffffffffffff8111156160a5576160a4615c2b565b5b92915050565b60006160b682616043565b91506160c183616043565b92508282026160cf81616043565b915082820484148315176160e6576160e5615c2b565b5b5092915050565b60006160f882616043565b915061610383616043565b9250828201905073ffffffffffffffffffffffffffffffffffffffff81111561612f5761612e615c2b565b5b92915050565b600061614082616043565b915073ffffffffffffffffffffffffffffffffffffffff820361616657616165615c2b565b5b600182019050919050565b600061617c82614c9e565b915061618783614c9e565b925082820261619581614c9e565b915082820484148315176161ac576161ab615c2b565b5b5092915050565b60006161be82614c9e565b91506161c983614c9e565b9250826161d9576161d8615d9e565b5b828204905092915050565b600061ffff82169050919050565b60006161fd826161e4565b9150616208836161e4565b9250828202616216816161e4565b915080821461622857616227615c2b565b5b5092915050565b600063ffffffff82169050919050565b600061624a8261622f565b91506162558361622f565b92508282026162638161622f565b915080821461627557616274615c2b565b5b5092915050565b600067ffffffffffffffff82169050919050565b600061629b8261627c565b91506162a68361627c565b92508282026162b48161627c565b91508082146162c6576162c5615c2b565b5b5092915050565b7f56616c75652065786365656473207468652072616e6765000000000000000000600082015250565b60006163036017836154e6565b915061630e826162cd565b602082019050919050565b60006020820190508181036000830152616332816162f6565b9050919050565b7f496e76616c6964206e756d626572000000000000000000000000000000000000600082015250565b600061636f600e836154e6565b915061637a82616339565b602082019050919050565b6000602082019050818103600083015261639e81616362565b9050919050565b7f557365206a6163446f75626c652066756e6374696f6e20696e73746561640000600082015250565b60006163db601e836154e6565b91506163e6826163a5565b602082019050919050565b6000602082019050818103600083015261640a816163ce565b905091905056fea26469706673582212208e9874c762879157a40a5be04a4d7347b84c01efe4378073d3865e812f609af864736f6c63430008130033",
  "linkReferences": {},
  "deployedLinkReferences": {}
}