{
  "_format": "hh-sol-artifact-1",
  "contractName": "LNBridge",
  "sourceName": "contracts/LNBridge.sol",
  "abi": [
    {
      "inputs": [],
      "name": "bridge",
      "outputs": [
        {
          "internalType": "bytes32",
          "name": "fundingTxId",
          "type": "bytes32"
        },
        {
          "internalType": "bytes",
          "name": "fundingTx_script",
          "type": "bytes"
        },
        {
          "internalType": "bytes4",
          "name": "fundingTx_index",
          "type": "bytes4"
        },
        {
          "internalType": "bytes",
          "name": "sighash",
          "type": "bytes"
        },
        {
          "internalType": "bytes",
          "name": "pkProver_Uncompressed",
          "type": "bytes"
        },
        {
          "internalType": "bytes",
          "name": "pkVerifier_Uncompressed",
          "type": "bytes"
        }
      ],
      "stateMutability": "view",
      "type": "function"
    },
    {
      "inputs": [
        {
          "internalType": "bytes",
          "name": "rawTxP_locked",
          "type": "bytes"
        },
        {
          "internalType": "bytes",
          "name": "sigV",
          "type": "bytes"
        },
        {
          "internalType": "bytes",
          "name": "rawTxV_unlocked",
          "type": "bytes"
        },
        {
          "internalType": "bytes",
          "name": "sigP",
          "type": "bytes"
        }
      ],
      "name": "dispute",
      "outputs": [],
      "stateMutability": "nonpayable",
      "type": "function"
    },
    {
      "inputs": [
        {
          "internalType": "bytes",
          "name": "oldRevSecret",
          "type": "bytes"
        },
        {
          "internalType": "bytes",
          "name": "rawTxP_unlocked",
          "type": "bytes"
        },
        {
          "internalType": "bytes",
          "name": "sigV",
          "type": "bytes"
        }
      ],
      "name": "resolveDispute",
      "outputs": [],
      "stateMutability": "nonpayable",
      "type": "function"
    },
    {
      "inputs": [],
      "name": "settle",
      "outputs": [],
      "stateMutability": "nonpayable",
      "type": "function"
    },
    {
      "inputs": [
        {
          "internalType": "bytes32",
          "name": "_fundingTxId",
          "type": "bytes32"
        },
        {
          "internalType": "bytes",
          "name": "_fundingTx_script",
          "type": "bytes"
        },
        {
          "internalType": "bytes4",
          "name": "_fundingTx_index",
          "type": "bytes4"
        },
        {
          "internalType": "bytes",
          "name": "_sighash",
          "type": "bytes"
        },
        {
          "internalType": "bytes",
          "name": "_pkProver_Uncompressed",
          "type": "bytes"
        },
        {
          "internalType": "bytes",
          "name": "_pkVerifier_Uncompressed",
          "type": "bytes"
        }
      ],
      "name": "setup",
      "outputs": [],
      "stateMutability": "nonpayable",
      "type": "function"
    },
    {
      "inputs": [],
      "name": "state",
      "outputs": [
        {
          "internalType": "bool",
          "name": "validProofSubmitted",
          "type": "bool"
        },
        {
          "internalType": "bool",
          "name": "disputeOpened",
          "type": "bool"
        },
        {
          "internalType": "bool",
          "name": "disputeClosedP",
          "type": "bool"
        },
        {
          "internalType": "bool",
          "name": "disputeClosedV",
          "type": "bool"
        }
      ],
      "stateMutability": "view",
      "type": "function"
    },
    {
      "inputs": [
        {
          "internalType": "bytes",
          "name": "CT_P_unlocked",
          "type": "bytes"
        },
        {
          "internalType": "bytes",
          "name": "CT_V_unlocked",
          "type": "bytes"
        }
      ],
      "name": "submitProof",
      "outputs": [],
      "stateMutability": "nonpayable",
      "type": "function"
    }
  ],
  "bytecode": "0x608060405234801561001057600080fd5b50613c87806100206000396000f3fe608060405234801561001057600080fd5b506004361061007d5760003560e01c806379a85bd91161005b57806379a85bd9146100ab578063940c1bfa146100be578063c19d93fb146100d1578063e78cea921461012957600080fd5b806311da60b4146100825780633aef14771461008457806343f104d214610097575b600080fd5b005b61008261009236600461354a565b610143565b6100826100a53660046135ad565b50505050565b6100826100b9366004613659565b505050565b6100826100cc3660046136fd565b610c7d565b6006546100fa9060ff808216916101008104821691620100008204811691630100000090041684565b604080519415158552921515602085015290151591830191909152151560608201526080015b60405180910390f35b610131610cfa565b6040516101209695949392919061381a565b600061014e83610f4e565b6001600160e01b031916146101b85760405162461bcd60e51b815260206004820152602560248201527f436f6d6d69746d656e74207472616e73616374696f6e206f662050206973206c6044820152641bd8dad95960da1b60648201526084015b60405180910390fd5b60006101c382610f4e565b6001600160e01b031916146102285760405162461bcd60e51b815260206004820152602560248201527f436f6d6d69746d656e74207472616e73616374696f6e206f662056206973206c6044820152641bd8dad95960da1b60648201526084016101af565b610230613308565b61023861334e565b604080518082019091526000808252602082015261025585610f78565b90845290845290506102668461123b565b60208481019190915280850182905260609091015190820151146102f25760405162461bcd60e51b815260206004820152603f60248201527f50277320636f6d6d69746d656e74207472616e73616374696f6e20646f65732060448201527f6e6f742068617264636f646520562773207265766f636174696f6e206b65790060648201526084016101af565b6020830151518251511461036e5760405162461bcd60e51b815260206004820152603a60248201527f416d6f756e74206d69736d61746368206265747765656e207032706b68206f6660448201527f205020616e64206c696768746e696e672048544c43206f66205600000000000060648201526084016101af565b602082015151835151146103ea5760405162461bcd60e51b815260206004820152603a60248201527f416d6f756e74206d69736d61746368206265747765656e207032706b68206f6660448201527f205620616e64206c696768746e696e672048544c43206f66205000000000000060648201526084016101af565b60008061048360006001018054610400906138a0565b80601f016020809104026020016040519081016040528092919081815260200182805461042c906138a0565b80156104795780601f1061044e57610100808354040283529160200191610479565b820191906000526020600020905b81548152906001019060200180831161045c57829003601f168201915b50505050506113f3565b85516020908101516040516001600160601b031990911691810191909152919350915060029060340160408051601f19818403018152908290526104c6916138db565b602060405180830381855afa1580156104e3573d6000803e3d6000fd5b5050506040513d601f19601f8201168201806040525081019061050691906138f7565b600261051183611419565b60405161051e91906138db565b602060405180830381855afa15801561053b573d6000803e3d6000fd5b5050506040513d601f19601f8201168201806040525081019061055e91906138f7565b146105f05760405162461bcd60e51b815260206004820152605660248201527f546865207032706b6820696e2050277320756e6c6f636b656420636f6d6d697460448201527f6d656e74207472616e73616374696f6e20646f6573206e6f7420636f72726573606482015275706f6e6420746f2056657269666965722773206f6e6560501b608482015260a4016101af565b6020808501518101516040516001600160601b03199091169181019190915260029060340160408051601f198184030181529082905261062f916138db565b602060405180830381855afa15801561064c573d6000803e3d6000fd5b5050506040513d601f19601f8201168201806040525081019061066f91906138f7565b600261067a84611419565b60405161068791906138db565b602060405180830381855afa1580156106a4573d6000803e3d6000fd5b5050506040513d601f19601f820116820180604052508101906106c791906138f7565b146107575760405162461bcd60e51b815260206004820152605460248201527f546865207032706b6820696e2056277320756e6c6f636b656420636f6d6d697460448201527f6d656e74207472616e73616374696f6e20646f6573206e6f7420636f72726573606482015273706f6e6420746f2050726f7665722773206f6e6560601b608482015260a4016101af565b600054610763886114eb565b60200151146107e45760405162461bcd60e51b815260206004820152604160248201527f50277320636f6d6d69746d656e74207472616e73616374696f6e20646f65732060448201527f6e6f74207370656e64207468652066756e64696e67207472616e73616374696f6064820152603760f91b608482015260a4016101af565b6000546107f0876114eb565b60200151146108715760405162461bcd60e51b815260206004820152604160248201527f56277320636f6d6d69746d656e74207472616e73616374696f6e20646f65732060448201527f6e6f74207370656e64207468652066756e64696e67207472616e73616374696f6064820152603760f91b608482015260a4016101af565b610879613387565b610882886115c7565b6020820152610890876115c7565b815261089a6133d3565b6109bf89600060010180546108ae906138a0565b80601f01602080910402602001604051908101604052809291908181526020018280546108da906138a0565b80156109275780601f106108fc57610100808354040283529160200191610927565b820191906000526020600020905b81548152906001019060200180831161090a57829003601f168201915b50505050506000600301805461093c906138a0565b80601f0160208091040260200160405190810160405280929190818152602001828054610968906138a0565b80156109b55780601f1061098a576101008083540402835291602001916109b5565b820191906000526020600020905b81548152906001019060200180831161099857829003601f168201915b50505050506116e6565b81526040516002906109d390600590613910565b602060405180830381855afa1580156109f0573d6000803e3d6000fd5b5050506040513d601f19601f82011682018060405250810190610a1391906138f7565b8151602084015151600291610a5591610a398760015b6020020151602001516000611748565b610a508860015b6020020151604001516000611748565b6117a6565b604051610a6291906138db565b602060405180830381855afa158015610a7f573d6000803e3d6000fd5b5050506040513d601f19601f82011682018060405250810190610aa291906138f7565b14610b155760405162461bcd60e51b815260206004820152603760248201527f496e76616c6964207369676e6174757265206f662056206f76657220636f6d6d60448201527f69746d656e74207472616e73616374696f6e206f66205000000000000000000060648201526084016101af565b610b2988600060010180546108ae906138a0565b6020820152604051600290610b4090600490613910565b602060405180830381855afa158015610b5d573d6000803e3d6000fd5b5050506040513d601f19601f82011682018060405250810190610b8091906138f7565b6020820151835151600291610ba591610b9a876000610a29565b610a50886000610a40565b604051610bb291906138db565b602060405180830381855afa158015610bcf573d6000803e3d6000fd5b5050506040513d601f19601f82011682018060405250810190610bf291906138f7565b14610c655760405162461bcd60e51b815260206004820152603760248201527f496e76616c6964207369676e6174757265206f662050206f76657220636f6d6d60448201527f69746d656e74207472616e73616374696f6e206f66205600000000000000000060648201526084016101af565b50506006805460ff1916600117905550505050505050565b60008690558451610c959060019060208801906133f1565b506002805463ffffffff191660e086901c1790558251610cbc9060039060208601906133f1565b508151610cd09060049060208501906133f1565b508051610ce49060059060208401906133f1565b50506006805463ffffffff191690555050505050565b6000805460018054919291610d0e906138a0565b80601f0160208091040260200160405190810160405280929190818152602001828054610d3a906138a0565b8015610d875780601f10610d5c57610100808354040283529160200191610d87565b820191906000526020600020905b815481529060010190602001808311610d6a57829003601f168201915b5050505050908060020160009054906101000a900460e01b90806003018054610daf906138a0565b80601f0160208091040260200160405190810160405280929190818152602001828054610ddb906138a0565b8015610e285780601f10610dfd57610100808354040283529160200191610e28565b820191906000526020600020905b815481529060010190602001808311610e0b57829003601f168201915b505050505090806004018054610e3d906138a0565b80601f0160208091040260200160405190810160405280929190818152602001828054610e69906138a0565b8015610eb65780601f10610e8b57610100808354040283529160200191610eb6565b820191906000526020600020905b815481529060010190602001808311610e9957829003601f168201915b505050505090806005018054610ecb906138a0565b80601f0160208091040260200160405190810160405280929190818152602001828054610ef7906138a0565b8015610f445780601f10610f1957610100808354040283529160200191610f44565b820191906000526020600020905b815481529060010190602001808311610f2757829003601f168201915b5050505050905086565b6000610f698260048451610f6291906139c2565b60046117ef565b610f72906139d9565b92915050565b60408051608081018252600080825260208201819052918101829052606081019190915260408051808201909152600080825260208201526040805180820182526000808252602080830182905283516080810185528281529081018290529283018190526060830152906040805180820190915260008082526020820152604080518082019091526000808252602082015261103d6040518060a0016040528060008152602001606081526020016060815260200160608152602001606081525090565b600480825261104f90899060006118fc565b808352602083019190915261106790899060006119f3565b845260408401526060830152608082015260005b600381101561122c5780611102576110ce89836060015183815181106110a3576110a361388a565b6020026020010151846040015184815181106110c1576110c161388a565b6020026020010151611bbb565b60408801526060870152602086015260808201518051829081106110f4576110f461388a565b602090810291909101015185525b80600114156111af5761117b6111538a846060015184815181106111285761112861388a565b6020026020010151856040015185815181106111465761114661388a565b6020026020010151611c20565b60405160200161116591815260200190565b6040516020818303038152906040526000611cc3565b6001600160601b031916602084015260808201518051829081106111a1576111a161388a565b602090810291909101015183525b806002141561121a576111f089836060015183815181106111d2576111d261388a565b6020026020010151846040015184815181106111465761114661388a565b6020850152608082015180518290811061120c5761120c61388a565b602090810291909101015184525b8061122481613a10565b91505061107b565b50929790965090945092505050565b604080516080810182526000808252602082018190529181018290526060810191909152604080518082019091526000808252602082015260408051608081018252600080825260208201819052918101829052606081019190915260408051808201909152600080825260208201526112dd6040518060a0016040528060008152602001606081526020016060815260200160608152602001606081525090565b60048082526112ef90879060006118fc565b808352602083019190915261130790879060006119f3565b845260408401526060830152608082015260005b60028110156113e7578061137b5761134387836060015183815181106110a3576110a361388a565b60408701526060860152602085015260808201518051829081106113695761136961388a565b602090810291909101015184526113d5565b80600114156113d5576113a161115388846060015184815181106111285761112861388a565b6001600160601b031916602084015260808201518051829081106113c7576113c761388a565b602090810291909101015183525b806113df81613a10565b91505061131b565b50919590945092505050565b60608061140383600260216117ef565b61141084602560216117ef565b91509150915091565b6060600360028360405161142d91906138db565b602060405180830381855afa15801561144a573d6000803e3d6000fd5b5050506040513d601f19601f8201168201806040525081019061146d91906138f7565b60405160200161147f91815260200190565b60408051601f1981840301815290829052611499916138db565b602060405180830381855afa1580156114b6573d6000803e3d6000fd5b5050604051805160601b6001600160601b031916602082015260340190505b6040516020818303038152906040529050919050565b604080516060808201835260008083526020808401829052838501829052845192830185528183528201819052928101929092529061152b836004611d55565b50815261153b83602560046117ef565b611544906139d9565b6001600160e01b031916604082015261157161156384600560256117ef565b61156c90613a2b565b611e18565b60208201528051600114610f725760405162461bcd60e51b815260206004820152601b60248201527f54782068617320746f6f206d616e7920696e7075747320283e3129000000000060448201526064016101af565b6115ee6040518060600160405280600060ff16815260200160608152602001606081525090565b6116156040518060600160405280600060ff16815260200160608152602001606081525090565b82602a815181106116285761162861388a565b6020910101516001600160f81b031916604760f81b14156116605761165661165184602f611eb9565b611f2b565b602082015261169f565b82602a815181106116735761167361388a565b6020910101516001600160f81b031916602360f91b141561169f5761169983602f611f40565b60208201525b6116ad611651846051611eb9565b604082015260208101516002906116c5906000611748565b6116cf9190613a65565b6116dc57601c8152610f72565b601b815292915050565b6000806116f685600060296117ef565b8461170f876072808a5161170a91906139c2565b6117ef565b856040516020016117239493929190613a79565b604051602081830303815290604052905061173d81611fbd565b9150505b9392505050565b6000611755826020613ad0565b8351101561179d5760405162461bcd60e51b8152602060048201526015602482015274746f55696e743235365f6f75744f66426f756e647360581b60448201526064016101af565b50016020015190565b60606000806117c1876117ba601b89613ae8565b878761207c565b6040805160208101939093528281019190915280518083038201815260609092019052979650505050505050565b6060816117fd81601f613ad0565b101561183c5760405162461bcd60e51b815260206004820152600e60248201526d736c6963655f6f766572666c6f7760901b60448201526064016101af565b6118468284613ad0565b8451101561188a5760405162461bcd60e51b8152602060048201526011602482015270736c6963655f6f75744f66426f756e647360781b60448201526064016101af565b6060821580156118a957604051915060008252602082016040526118f3565b6040519150601f8416801560200281840101858101878315602002848b0101015b818310156118e25780518352602092830192016118ca565b5050858452601f01601f1916604052505b50949350505050565b606060008060008061190e8888611d55565b9750925085158061191e57508286115b1561192b5782915061192f565b8591505b6000826001600160401b03811115611949576119496134a8565b604051908082528060200260200182016040528015611972578160200160208202803683370190505b50905060005b838110156119e65761198b60248a613ad0565b98506119978a8a611d55565b809a508194505050828282815181106119b2576119b261388a565b60209081029190910101526119c8836004613ad0565b6119d2908a613ad0565b9850806119de81613a10565b915050611978565b5098969750505050505050565b6060806060600080600080611a088a8a611d55565b99509250871580611a1857508288115b15611a2557829150611a29565b8791505b6000826001600160401b03811115611a4357611a436134a8565b604051908082528060200260200182016040528015611a6c578160200160208202803683370190505b5090506000836001600160401b03811115611a8957611a896134a8565b604051908082528060200260200182016040528015611ab2578160200160208202803683370190505b5090506000846001600160401b03811115611acf57611acf6134a8565b604051908082528060200260200182016040528015611af8578160200160208202803683370190505b50905060005b85811015611ba957611b128e8e60406122ad565b828281518110611b2457611b2461388a565b6020908102919091010152611b3a60088e613ad0565b9c50611b468e8e611d55565b809e5081965050508c848281518110611b6157611b6161388a565b60200260200101818152505084838281518110611b8057611b8061388a565b6020908102919091010152611b95858e613ad0565b9c5080611ba181613a10565b915050611afe565b509c919b509998509650505050505050565b6000806000611bcb868686612619565b15611c0d57611be486611bdf876003613ad0565b611eb9565b611bf387611bdf886028613ad0565b611c0288611bdf89604c613ad0565b925092509250611c17565b5060009150819050805b93509350939050565b6000611c2d8484846129c6565b15611c5757611c4684611c41856003613ad0565b611cc3565b6001600160601b0319169050611741565b611c62848484612aeb565b15611c7657611c4684611c41856002613ad0565b611c81848484612ba6565b15611c9c57611c9584611bdf856002613ad0565b9050611741565b611ca7848484612619565b15611cbb57611c9584611bdf856002613ad0565b506000611741565b600080805b6014816001600160a01b03161015611d4a57611ce5816013613b0b565b611cf0906008613b33565b6001600160a01b03168585836001600160a01b0316611d0f9190613ad0565b81518110611d1f57611d1f61388a565b0160200151611d369160f89190911c901b83613b62565b915080611d4281613b8d565b915050611cc8565b5060601b9392505050565b6000806000848481518110611d6c57611d6c61388a565b016020015160f81c9050611d81600185613ad0565b935060fd8160ff161015611d9c5760ff169150829050611e11565b8060ff1660fd1415611dc957611db4858560106122ad565b611dbf856002613ad0565b9250925050611e11565b8060ff1660fe1415611dec57611de1858560206122ad565b611dbf856004613ad0565b8060ff1660ff1415611e0f57611e04858560406122ad565b611dbf856008613ad0565b505b9250929050565b60408051602080825281830190925260009182919060208201818036833701905050905060005b6020811015611eaf57838160208110611e5a57611e5a61388a565b1a60f81b826001611e6c8460206139c2565b611e7691906139c2565b81518110611e8657611e8661388a565b60200101906001600160f81b031916908160001a90535080611ea781613a10565b915050611e3f565b5061174181612c27565b600080805b6020811015611f2357611ed281601f6139c2565b611edd906008613bb4565b85611ee88684613ad0565b81518110611ef857611ef861388a565b0160200151611f0f9160f89190911c901b83613ad0565b915080611f1b81613a10565b915050611ebe565b509392505050565b6060816040516020016114d591815260200190565b60606000805b601f811015611fab57611f5a81601e6139c2565b611f65906008613bb4565b85611f708684613ad0565b81518110611f8057611f8061388a565b0160200151611f979160f89190911c901b83613ad0565b915080611fa381613a10565b915050611f46565b50611fb581612c44565b949350505050565b600060028083604051611fd091906138db565b602060405180830381855afa158015611fed573d6000803e3d6000fd5b5050506040513d601f19601f8201168201806040525081019061201091906138f7565b60405160200161202291815260200190565b60408051601f198184030181529082905261203c916138db565b602060405180830381855afa158015612059573d6000803e3d6000fd5b5050506040513d601f19601f82011682018060405250810190610f7291906138f7565b600080806401000003d01961209e607f600189901c166401000003d019613bb4565b860890506401000003d0198111806120c7575070014551231950b75fc4402da1732fc9bebe1984115b806120e3575070014551231950b75fc4402da1732fc9bebe1985115b806120ec575083155b806120f5575084155b80612103575060018660ff16115b156121155760008092509250506122a4565b60006121338670014551231950b75fc4402da1732fc9bebe19612cb8565b905060006401000003d0198060076401000003d01960008709086401000003d0198086870986090890506121838160046121746401000003d0196001613ad0565b61217e9190613bd3565b612d84565b9050600061219460ff8a1683613ad0565b61219f906002613ad0565b600116156121bc576121b7826401000003d0196139c2565b6121be565b815b90506000808061224170014551231950b75fc4402da1732fc9bebe196121f68f70014551231950b75fc4402da1732fc9bebe196139c2565b88097f79be667ef9dcbbac55a06295ce870b07029bfcdb2dce28d959f2815b16f817987f483ada7726a3c4655da4fbfc0e1108a8fd17b448a68554199c47d08ffb10d4b86001612e2c565b925092509250600080600061227b70014551231950b75fc4402da1732fc9bebe198061226f5761226f613a4f565b8e8b098b896001612e2c565b925092509250600080612292888888888888612ea5565b909e509c505050505050505050505050505b94509492505050565b600081600814156122d9578383815181106122ca576122ca61388a565b016020015160f81c9050611741565b816010141561233a57836122ee846001613ad0565b815181106122fe576122fe61388a565b01602001516123129060f81c610100613be7565b61ffff168484815181106123285761232861388a565b0160200151611c95919060f81c613ad0565b8160201415612420578361234f846003613ad0565b8151811061235f5761235f61388a565b01602001516123759060f81c6301000000613c08565b63ffffffff1684612387856002613ad0565b815181106123975761239761388a565b01602001516123ac9060f81c62010000613c08565b63ffffffff16856123be866001613ad0565b815181106123ce576123ce61388a565b01602001516123e29060f81c610100613c08565b63ffffffff168686815181106123fa576123fa61388a565b016020015161240c919060f81c613ad0565b6124169190613ad0565b611c959190613ad0565b81604014156117415783612435846007613ad0565b815181106124455761244561388a565b016020015161245f9060f81c670100000000000000613c2b565b6001600160401b031684612474856006613ad0565b815181106124845761248461388a565b016020015161249d9060f81c6601000000000000613c2b565b6001600160401b0316856124b2866005613ad0565b815181106124c2576124c261388a565b01602001516124da9060f81c65010000000000613c2b565b6001600160401b0316866124ef876004613ad0565b815181106124ff576124ff61388a565b01602001516125169060f81c640100000000613c2b565b6001600160401b03168761252b886003613ad0565b8151811061253b5761253b61388a565b01602001516125519060f81c6301000000613c2b565b6001600160401b031688612566896002613ad0565b815181106125765761257661388a565b016020015161258b9060f81c62010000613c2b565b6001600160401b0316896125a08a6001613ad0565b815181106125b0576125b061388a565b01602001516125c49060f81c610100613c2b565b6001600160401b03168a8a815181106125df576125df61388a565b01602001516125f1919060f81c613ad0565b6125fb9190613ad0565b6126059190613ad0565b61260f9190613ad0565b61240c9190613ad0565b6000816072148015612659575083612632846000613ad0565b815181106126425761264261388a565b6020910101516001600160f81b031916603b60f91b145b801561269357508361266c846001613ad0565b8151811061267c5761267c61388a565b6020910101516001600160f81b031916602160f81b145b80156126cd5750836126a6846023613ad0565b815181106126b6576126b661388a565b6020910101516001600160f81b031916602b60fa1b145b80156127075750836126e0846024613ad0565b815181106126f0576126f061388a565b6020910101516001600160f81b031916606360f81b145b801561274157508361271a846025613ad0565b8151811061272a5761272a61388a565b6020910101516001600160f81b031916607560f81b145b801561277b575083612754846026613ad0565b815181106127645761276461388a565b6020910101516001600160f81b031916605560f91b145b80156127b557508361278e846027613ad0565b8151811061279e5761279e61388a565b6020910101516001600160f81b031916600160fd1b145b80156127ef5750836127c8846048613ad0565b815181106127d8576127d861388a565b6020910101516001600160f81b031916601160fb1b145b8015612829575083612802846049613ad0565b815181106128125761281261388a565b6020910101516001600160f81b031916606760f81b145b801561286357508361283c84604a613ad0565b8151811061284c5761284c61388a565b6020910101516001600160f81b031916602160f81b145b801561289d57508361287684606c613ad0565b815181106128865761288661388a565b6020910101516001600160f81b03191660ad60f81b145b80156128d75750836128b084606d613ad0565b815181106128c0576128c061388a565b6020910101516001600160f81b031916602960f91b145b80156129115750836128ea84606e613ad0565b815181106128fa576128fa61388a565b6020910101516001600160f81b031916605960f91b145b801561294b57508361292484606f613ad0565b815181106129345761293461388a565b6020910101516001600160f81b031916607560f81b145b801561298557508361295e846070613ad0565b8151811061296e5761296e61388a565b6020910101516001600160f81b031916600d60fb1b145b8015611fb5575083612998846071613ad0565b815181106129a8576129a861388a565b6020910101516001600160f81b031916605160f81b14949350505050565b60008160191480156129fc57508383815181106129e5576129e561388a565b6020910101516001600160f81b031916603b60f91b145b8015612a36575083612a0f846001613ad0565b81518110612a1f57612a1f61388a565b6020910101516001600160f81b03191660a960f81b145b8015612a70575083612a49846002613ad0565b81518110612a5957612a5961388a565b6020910101516001600160f81b031916600560fa1b145b8015612aaa575083612a83846017613ad0565b81518110612a9357612a9361388a565b6020910101516001600160f81b031916601160fb1b145b8015611fb5575083612abd846018613ad0565b81518110612acd57612acd61388a565b6020910101516001600160f81b031916602b60fa1b14949350505050565b6000816017148015612b2b575083612b04846000613ad0565b81518110612b1457612b1461388a565b6020910101516001600160f81b03191660a960f81b145b8015612b65575083612b3e846001613ad0565b81518110612b4e57612b4e61388a565b6020910101516001600160f81b031916600560fa1b145b8015611fb5575083612b78846016613ad0565b81518110612b8857612b8861388a565b6020910101516001600160f81b031916608760f81b14949350505050565b6000816022148015612be6575083612bbf846000613ad0565b81518110612bcf57612bcf61388a565b6020910101516001600160f81b031916603560f91b145b8015611fb5575083612bf9846001613ad0565b81518110612c0957612c0961388a565b6020910101516001600160f81b031916600160fd1b14949350505050565b80516000908290612c3b5750600092915050565b50506020015190565b60606001600160ff1b03821115612c9d5760405162461bcd60e51b815260206004820152601760248201527f56616c75652065786365656473207468652072616e676500000000000000000060448201526064016101af565b60405190506020815281602082015260408101604052919050565b60008215801590612cc95750818314155b8015612cd457508115155b612d115760405162461bcd60e51b815260206004820152600e60248201526d24b73b30b634b210373ab6b132b960911b60448201526064016101af565b6000600183825b8615612d7957612d288783613bd3565b9050828680612d3957612d39613a4f565b8780612d4757612d47613a4f565b858409612d5490896139c2565b8608909450925086612d668183613bb4565b612d7090846139c2565b97509150612d18565b509195945050505050565b600082612d9357506000610f72565b81612da057506001610f72565b6001600160ff1b5b8015611f23576401000003d0198185161515860a6401000003d0198485090991506401000003d0196002820485161515860a6401000003d0198485090991506401000003d0196004820485161515860a6401000003d0198485090991506401000003d0196008820485161515860a6401000003d01984850909915060109004612da8565b6000808086612e42575084915083905082612e9b565b8660008060015b8315612e92576001841615612e6e57612e668383838d8d8d612f1d565b919450925090505b612e79600285613bd3565b9350612e868a8a8a6131b2565b919b5099509750612e49565b91955093509150505b9450945094915050565b6000806000806000878b1415612ee9576401000003d019878b08612ed25760008094509450505050612f12565b612edd8b8b8b6131b2565b91945092509050612eff565b612ef78b8b8b8b8b8b612f1d565b919450925090505b612f0a8383836132b6565b945094505050505b965096945050505050565b6000808088158015612f2d575087155b15612f3f5750849150839050826131a6565b85158015612f4b575084155b15612f5d5750879150869050856131a6565b612f65613475565b6401000003d0198889098082526401000003d01990890960208201526401000003d019858009604082018190526401000003d0199086096060820152604080516080810182529082015181906401000003d019908d0981526020016401000003d01983600360200201518c0981526020016401000003d01983600060200201518a0981526020016401000003d0198360016020020151890990526040810151815191925014158061301e57506060810151602082015114155b61306a5760405162461bcd60e51b815260206004820152601e60248201527f557365206a6163446f75626c652066756e6374696f6e20696e7374656164000060448201526064016101af565b613072613475565b81516401000003d0199061308690826139c2565b604084015108815260208201516401000003d019906130a590826139c2565b606084015108602082015280516401000003d0199080096040820181905281516401000003d0199109606082018190526000906401000003d019906130ea90826139c2565b60208401516401000003d01990800908604083015184519192506401000003d019918291829109600209613124906401000003d0196139c2565b8208905060006401000003d01980613142846401000003d0196139c2565b604086015187516401000003d0199190090860208501510990506401000003d019808460036020020151866001602002015109613185906401000003d0196139c2565b8208905060006401000003d019808a8e098551099297509095509093505050505b96509650969350505050565b60008080836131c8575084915083905082611c17565b60006401000003d019878809905060006401000003d019878809905060006401000003d019878809905060006401000003d01980848c09600409905060006401000003d019806401000003d0198586096000096401000003d019876003090890506401000003d01980838408613244906401000003d0196139c2565b6401000003d0198384090894506401000003d019806401000003d019868709600809613276906401000003d0196139c2565b6401000003d0198061328e896401000003d0196139c2565b860884090893506401000003d019808a8c09600209949b939a50939850919650505050505050565b60008060006132cb846401000003d019612cb8565b905060006401000003d019828309905060006401000003d019828909905060006401000003d0198084860989099199919850909650505050505050565b60405180604001604052806002905b6040805160808101825260008082526020808301829052928201819052606082015282526000199092019101816133175790505090565b60405180604001604052806002905b604080518082019091526000808252602082015281526020019060019003908161335d5790505090565b60405180604001604052806002905b6133bd6040518060600160405280600060ff16815260200160608152602001606081525090565b8152602001906001900390816133965790505090565b60405180604001604052806002906020820280368337509192915050565b8280546133fd906138a0565b90600052602060002090601f01602090048101928261341f5760008555613465565b82601f1061343857805160ff1916838001178555613465565b82800160010185558215613465579182015b8281111561346557825182559160200191906001019061344a565b50613471929150613493565b5090565b60405180608001604052806004906020820280368337509192915050565b5b808211156134715760008155600101613494565b634e487b7160e01b600052604160045260246000fd5b600082601f8301126134cf57600080fd5b81356001600160401b03808211156134e9576134e96134a8565b604051601f8301601f19908116603f01168101908282118183101715613511576135116134a8565b8160405283815286602085880101111561352a57600080fd5b836020870160208301376000602085830101528094505050505092915050565b6000806040838503121561355d57600080fd5b82356001600160401b038082111561357457600080fd5b613580868387016134be565b9350602085013591508082111561359657600080fd5b506135a3858286016134be565b9150509250929050565b600080600080608085870312156135c357600080fd5b84356001600160401b03808211156135da57600080fd5b6135e6888389016134be565b955060208701359150808211156135fc57600080fd5b613608888389016134be565b9450604087013591508082111561361e57600080fd5b61362a888389016134be565b9350606087013591508082111561364057600080fd5b5061364d878288016134be565b91505092959194509250565b60008060006060848603121561366e57600080fd5b83356001600160401b038082111561368557600080fd5b613691878388016134be565b945060208601359150808211156136a757600080fd5b6136b3878388016134be565b935060408601359150808211156136c957600080fd5b506136d6868287016134be565b9150509250925092565b80356001600160e01b0319811681146136f857600080fd5b919050565b60008060008060008060c0878903121561371657600080fd5b8635955060208701356001600160401b038082111561373457600080fd5b6137408a838b016134be565b965061374e60408a016136e0565b9550606089013591508082111561376457600080fd5b6137708a838b016134be565b9450608089013591508082111561378657600080fd5b6137928a838b016134be565b935060a08901359150808211156137a857600080fd5b506137b589828a016134be565b9150509295509295509295565b60005b838110156137dd5781810151838201526020016137c5565b838111156100a55750506000910152565b600081518084526138068160208601602086016137c2565b601f01601f19169290920160200192915050565b86815260c06020820152600061383360c08301886137ee565b6001600160e01b031987166040840152828103606084015261385581876137ee565b9050828103608084015261386981866137ee565b905082810360a084015261387d81856137ee565b9998505050505050505050565b634e487b7160e01b600052603260045260246000fd5b600181811c908216806138b457607f821691505b602082108114156138d557634e487b7160e01b600052602260045260246000fd5b50919050565b600082516138ed8184602087016137c2565b9190910192915050565b60006020828403121561390957600080fd5b5051919050565b600080835481600182811c91508083168061392c57607f831692505b602080841082141561394c57634e487b7160e01b86526022600452602486fd5b81801561396057600181146139715761399e565b60ff1986168952848901965061399e565b60008a81526020902060005b868110156139965781548b82015290850190830161397d565b505084890196505b509498975050505050505050565b634e487b7160e01b600052601160045260246000fd5b6000828210156139d4576139d46139ac565b500390565b805160208201516001600160e01b03198082169291906004831015613a085780818460040360031b1b83161693505b505050919050565b6000600019821415613a2457613a246139ac565b5060010190565b805160208083015191908110156138d55760001960209190910360031b1b16919050565b634e487b7160e01b600052601260045260246000fd5b600082613a7457613a74613a4f565b500690565b60008551613a8b818460208a016137c2565b855190830190613a9f818360208a016137c2565b8551910190613ab28183602089016137c2565b8451910190613ac58183602088016137c2565b019695505050505050565b60008219821115613ae357613ae36139ac565b500190565b600060ff821660ff841680821015613b0257613b026139ac565b90039392505050565b60006001600160a01b0383811690831681811015613b2b57613b2b6139ac565b039392505050565b60006001600160a01b0382811684821681151582840482111615613b5957613b596139ac565b02949350505050565b60006001600160a01b03828116848216808303821115613b8457613b846139ac565b01949350505050565b60006001600160a01b0382811680821415613baa57613baa6139ac565b6001019392505050565b6000816000190483118215151615613bce57613bce6139ac565b500290565b600082613be257613be2613a4f565b500490565b600061ffff80831681851681830481118215151615613b5957613b596139ac565b600063ffffffff80831681851681830481118215151615613b5957613b596139ac565b60006001600160401b0380831681851681830481118215151615613b5957613b596139ac56fea26469706673582212202b023030925d3e569c2733bfec7ec0724067243010df0e0921a555083a46c9f164736f6c63430008090033",
  "linkReferences": {},
  "deployedLinkReferences": {}
}