{
  "_format": "hh-sol-artifact-1",
  "contractName": "LNBridge",
  "sourceName": "contracts/LNBridge.sol",
  "abi": [
    {
      "anonymous": false,
      "inputs": [
        {
          "indexed": false,
          "internalType": "string",
          "name": "label",
          "type": "string"
        },
        {
          "indexed": false,
          "internalType": "bool",
          "name": "stateStatus",
          "type": "bool"
        }
      ],
      "name": "stateEvent",
      "type": "event"
    },
    {
      "inputs": [],
      "name": "bridge",
      "outputs": [
        {
          "internalType": "bytes32",
          "name": "fundingTxId",
          "type": "bytes32"
        },
        {
          "internalType": "bytes",
          "name": "fundingTx_script",
          "type": "bytes"
        },
        {
          "internalType": "bytes4",
          "name": "fundingTx_index",
          "type": "bytes4"
        },
        {
          "internalType": "bytes",
          "name": "sighash",
          "type": "bytes"
        },
        {
          "internalType": "bytes",
          "name": "pkProver_Uncompressed",
          "type": "bytes"
        },
        {
          "internalType": "bytes",
          "name": "pkVerifier_Uncompressed",
          "type": "bytes"
        },
        {
          "internalType": "uint256",
          "name": "timelock",
          "type": "uint256"
        },
        {
          "internalType": "uint256",
          "name": "timelock_dispute",
          "type": "uint256"
        }
      ],
      "stateMutability": "view",
      "type": "function"
    },
    {
      "inputs": [],
      "name": "contractStorage",
      "outputs": [
        {
          "internalType": "uint256",
          "name": "balP",
          "type": "uint256"
        },
        {
          "internalType": "uint256",
          "name": "balV",
          "type": "uint256"
        },
        {
          "internalType": "bytes32",
          "name": "revKey",
          "type": "bytes32"
        }
      ],
      "stateMutability": "view",
      "type": "function"
    },
    {
      "inputs": [
        {
          "internalType": "bytes",
          "name": "CT_P_locked",
          "type": "bytes"
        },
        {
          "internalType": "bytes",
          "name": "CT_V_unlocked",
          "type": "bytes"
        }
      ],
      "name": "dispute",
      "outputs": [],
      "stateMutability": "nonpayable",
      "type": "function"
    },
    {
      "inputs": [
        {
          "internalType": "string",
          "name": "revSecret",
          "type": "string"
        }
      ],
      "name": "resolveInvalidDispute",
      "outputs": [],
      "stateMutability": "nonpayable",
      "type": "function"
    },
    {
      "inputs": [
        {
          "internalType": "bytes",
          "name": "CT_P_unlocked",
          "type": "bytes"
        }
      ],
      "name": "resolveValidDispute",
      "outputs": [],
      "stateMutability": "nonpayable",
      "type": "function"
    },
    {
      "inputs": [],
      "name": "settle",
      "outputs": [],
      "stateMutability": "payable",
      "type": "function"
    },
    {
      "inputs": [
        {
          "internalType": "bytes32",
          "name": "_fundingTxId",
          "type": "bytes32"
        },
        {
          "internalType": "bytes",
          "name": "_fundingTx_script",
          "type": "bytes"
        },
        {
          "internalType": "bytes4",
          "name": "_fundingTx_index",
          "type": "bytes4"
        },
        {
          "internalType": "bytes",
          "name": "_sighash",
          "type": "bytes"
        },
        {
          "internalType": "bytes",
          "name": "_pkProver_Uncompressed",
          "type": "bytes"
        },
        {
          "internalType": "bytes",
          "name": "_pkVerifier_Uncompressed",
          "type": "bytes"
        },
        {
          "internalType": "uint256",
          "name": "_timelock",
          "type": "uint256"
        },
        {
          "internalType": "uint256",
          "name": "_timelock_dispute",
          "type": "uint256"
        }
      ],
      "name": "setup",
      "outputs": [],
      "stateMutability": "nonpayable",
      "type": "function"
    },
    {
      "inputs": [],
      "name": "state",
      "outputs": [
        {
          "internalType": "bool",
          "name": "setupDone",
          "type": "bool"
        },
        {
          "internalType": "bool",
          "name": "validProofSubmitted",
          "type": "bool"
        },
        {
          "internalType": "bool",
          "name": "disputeOpened",
          "type": "bool"
        },
        {
          "internalType": "bool",
          "name": "disputeClosedP",
          "type": "bool"
        },
        {
          "internalType": "bool",
          "name": "disputeClosedV",
          "type": "bool"
        }
      ],
      "stateMutability": "view",
      "type": "function"
    },
    {
      "inputs": [
        {
          "internalType": "bytes",
          "name": "CT_P_unlocked",
          "type": "bytes"
        },
        {
          "internalType": "bytes",
          "name": "CT_V_unlocked",
          "type": "bytes"
        }
      ],
      "name": "submitProof",
      "outputs": [],
      "stateMutability": "nonpayable",
      "type": "function"
    }
  ],
  "bytecode": "0x608060405234801561001057600080fd5b50614e3e806100206000396000f3fe6080604052600436106100865760003560e01c80637236d92f116100595780637236d92f146101145780637615539114610134578063c19d93fb14610154578063e78cea92146101c8578063f5cae57d146101f157600080fd5b80630549b27e1461008b5780630cb82369146100ca57806311da60b4146100ec5780633aef1477146100f4575b600080fd5b34801561009757600080fd5b50600954600a54600b546100aa92919083565b604080519384526020840192909252908201526060015b60405180910390f35b3480156100d657600080fd5b506100ea6100e5366004614399565b610211565b005b6100ea610480565b34801561010057600080fd5b506100ea61010f366004614401565b61056a565b34801561012057600080fd5b506100ea61012f366004614464565b610ebc565b34801561014057600080fd5b506100ea61014f366004614401565b611193565b34801561016057600080fd5b506008546101969060ff808216916101008104821691620100008204811691630100000081048216916401000000009091041685565b60408051951515865293151560208601529115159284019290925290151560608301521515608082015260a0016100c1565b3480156101d457600080fd5b506101dd611981565b6040516100c19897969594939291906144f4565b3480156101fd57600080fd5b506100ea61020c36600461458f565b611be1565b600754600654610221919061467f565b42108015610262575060085460ff16151560011480156102495750600854610100900460ff16155b8015610262575060085462010000900460ff1615156001145b801561032b57506002808260405161027a9190614697565b602060405180830381855afa158015610297573d6000803e3d6000fd5b5050506040513d601f19601f820116820180604052508101906102ba91906146b3565b6040516020016102cc91815260200190565b60408051601f19818403018152908290526102e691614697565b602060405180830381855afa158015610303573d6000803e3d6000fd5b5050506040513d601f19601f8201168201806040525081019061032691906146b3565b600b54145b156103f35760006009556001600a556008805464ff00000000191664010000000090811791829055604051600080516020614de9833981519152926103e892900460ff16906040808252604a908201527f5265736f6c766520496e76616c6964204469737075746520737563636573736660608201527f756c6c792065786563757465643a2073746174652e64697370757465436c6f73608082015269656456203d207472756560b01b60a0820152901515602082015260c00190565b60405180910390a150565b60085460408051818152603c918101919091527f5265736f6c766520496e76616c69642044697370757465206661696c65643a2060608201527f73746174652e64697370757465436c6f73656456203d2066616c736500000000608082015264010000000090910460ff1615156020820152600080516020614de98339815191529060a0016103e8565b50565b60085460ff6101009091041615156001141561049857565b60085462010000900460ff16151560011480156104d557506008546301000000900460ff161580156104d55750600854640100000000900460ff16155b156104dc57565b60085462010000900460ff161515600114801561050757506008546301000000900460ff1615156001145b1561050e57565b60085462010000900460ff161515600114801561053a5750600854640100000000900460ff1615156001145b1561054157565b60085460ff1615156001148015610561575060085462010000900460ff16155b801561047d5750565b600654421080156105aa575060085460ff16151560011480156105955750600854610100900460ff16155b80156105aa575060085462010000900460ff16155b15610e2d5760006105ba83611c6b565b6001600160e01b031916146105ea5760405162461bcd60e51b81526004016105e1906146cc565b60405180910390fd5b60006105f582611c6b565b6001600160e01b0319161461061c5760405162461bcd60e51b81526004016105e190614711565b61062461416e565b61062c6141b4565b604080518082019091526000808252602082015261064985611c95565b908452908452905061065a84611f58565b60208481019190915280850182905260609091015190820151146106905760405162461bcd60e51b81526004016105e19061476c565b602083015151825151146106b65760405162461bcd60e51b81526004016105e1906147c9565b602082015151835151146106dc5760405162461bcd60e51b81526004016105e190614826565b600080610775600060010180546106f290614883565b80601f016020809104026020016040519081016040528092919081815260200182805461071e90614883565b801561076b5780601f106107405761010080835404028352916020019161076b565b820191906000526020600020905b81548152906001019060200180831161074e57829003601f168201915b5050505050612110565b85516020908101516040519395509193506002926107949291016148be565b60408051601f19818403018152908290526107ae91614697565b602060405180830381855afa1580156107cb573d6000803e3d6000fd5b5050506040513d601f19601f820116820180604052508101906107ee91906146b3565b60026107f983612136565b6040516108069190614697565b602060405180830381855afa158015610823573d6000803e3d6000fd5b5050506040513d601f19601f8201168201806040525081019061084691906146b3565b146108d85760405162461bcd60e51b815260206004820152605660248201527f546865207032706b6820696e2050277320756e6c6f636b656420636f6d6d697460448201527f6d656e74207472616e73616374696f6e20646f6573206e6f7420636f72726573606482015275706f6e6420746f2056657269666965722773206f6e6560501b608482015260a4016105e1565b6020808501518101516040516002926108f29291016148be565b60408051601f198184030181529082905261090c91614697565b602060405180830381855afa158015610929573d6000803e3d6000fd5b5050506040513d601f19601f8201168201806040525081019061094c91906146b3565b600261095784612136565b6040516109649190614697565b602060405180830381855afa158015610981573d6000803e3d6000fd5b5050506040513d601f19601f820116820180604052508101906109a491906146b3565b146109c15760405162461bcd60e51b81526004016105e1906148d3565b6000546109cd88612201565b60200151146109ee5760405162461bcd60e51b81526004016105e19061494d565b6000546109fa87612201565b6020015114610a1b5760405162461bcd60e51b81526004016105e1906149b4565b610a236141ed565b610a2c886122dd565b6020820152610a3a876122dd565b8152610a44614239565b610b698960006001018054610a5890614883565b80601f0160208091040260200160405190810160405280929190818152602001828054610a8490614883565b8015610ad15780601f10610aa657610100808354040283529160200191610ad1565b820191906000526020600020905b815481529060010190602001808311610ab457829003601f168201915b505050505060006003018054610ae690614883565b80601f0160208091040260200160405190810160405280929190818152602001828054610b1290614883565b8015610b5f5780601f10610b3457610100808354040283529160200191610b5f565b820191906000526020600020905b815481529060010190602001808311610b4257829003601f168201915b50505050506123fc565b8152604051600290610b7d90600590614a1b565b602060405180830381855afa158015610b9a573d6000803e3d6000fd5b5050506040513d601f19601f82011682018060405250810190610bbd91906146b3565b6002610c078360005b6020020151856001602002015151610beb8760015b602002015160200151600061245e565b610c028860015b602002015160400151600061245e565b6124bc565b604051610c149190614697565b602060405180830381855afa158015610c31573d6000803e3d6000fd5b5050506040513d601f19601f82011682018060405250810190610c5491906146b3565b14610c715760405162461bcd60e51b81526004016105e190614ab7565b610c858860006001018054610a5890614883565b6020820152604051600290610c9c90600490614a1b565b602060405180830381855afa158015610cb9573d6000803e3d6000fd5b5050506040513d601f19601f82011682018060405250810190610cdc91906146b3565b6002610d038360015b6020020151855151610cf8876000610bdb565b610c02886000610bf2565b604051610d109190614697565b602060405180830381855afa158015610d2d573d6000803e3d6000fd5b5050506040513d601f19601f82011682018060405250810190610d5091906146b3565b14610d6d5760405162461bcd60e51b81526004016105e190614b14565b866000602002015151600955866001602002015151600a556008805461ff00191661010090811791829055604051600080516020614de983398151915292610e1a92900460ff16906040808252603d908201527f50726f6f66207375636365737366756c6c792076657269666965643a2073746160608201527f74652e76616c696450726f6f665375626d6974746564203d20747275650000006080820152901515602082015260a00190565b60405180910390a1505050505050505050565b60085460408051818152603b918101919091527f50726f6f66207375626d697474656420746f6f206c6174653a2073746174652e60608201527f76616c696450726f6f665375626d6974746564203d2066616c73650000000000608082015261010090910460ff1615156020820152600080516020614de98339815191529060a0015b60405180910390a15050565b600754600654610ecc919061467f565b42108015610f0d575060085460ff1615156001148015610ef45750600854610100900460ff16155b8015610f0d575060085462010000900460ff1615156001145b1561110a576000610f1d82611c6b565b6001600160e01b03191614610f445760405162461bcd60e51b81526004016105e1906146cc565b6000610f4f826122dd565b90506000610f678360006001018054610a5890614883565b905060026000600501604051610f7d9190614a1b565b602060405180830381855afa158015610f9a573d6000803e3d6000fd5b5050506040513d601f19601f82011682018060405250810190610fbd91906146b3565b6002610fe98360001c8560000151610fda8760200151600061245e565b610c028860400151600061245e565b604051610ff69190614697565b602060405180830381855afa158015611013573d6000803e3d6000fd5b5050506040513d601f19601f8201168201806040525081019061103691906146b3565b146110535760405162461bcd60e51b81526004016105e190614ab7565b6008805463ff0000001916630100000090811791829055604051600080516020614de9833981519152926110fd92900460ff169060408082526048908201527f5265736f6c76652056616c69642044697370757465207375636365737366756c60608201527f6c792065786563757465643a2073746174652e64697370757465436c6f73656460808201526750203d207472756560c01b60a0820152901515602082015260c00190565b60405180910390a1505050565b60085460408051818152603a918101919091527f5265736f6c76652056616c69642044697370757465206661696c65643a20737460608201527f6174652e64697370757465436c6f73656450203d2066616c73650000000000006080820152630100000090910460ff1615156020820152600080516020614de98339815191529060a0016103e8565b600654421080156111d3575060085460ff16151560011480156111be5750600854610100900460ff16155b80156111d3575060085462010000900460ff16155b15611907576007546006546111e8919061467f565b6111f183612505565b63ffffffff16116112c55760405162461bcd60e51b815260206004820152608660248201527f436f6d6d69746d656e74207472616e73616374696f6e206f662050206973207560448201527f6e6c6f636b6564206f722074696d656c6f636b206f66207468652074696d656c60648201527f6f636b656420547820697320736d616c6c6572206f7220657175616c2074686160848201527f6e2054696d656c6f636b2054202b2052656c61746976652054696d656c6f636b60a482015265081517dc995b60d21b60c482015260e4016105e1565b60006112d082612505565b63ffffffff16146112f35760405162461bcd60e51b81526004016105e190614711565b6112fb61416e565b6113036141b4565b604080518082019091526000808252602082015261132085611c95565b908452908452905061133184611f58565b60208481019190915280850182905260609091015190820151146113675760405162461bcd60e51b81526004016105e19061476c565b6020830151518251511461138d5760405162461bcd60e51b81526004016105e1906147c9565b602082015151835151146113b35760405162461bcd60e51b81526004016105e190614826565b6000806113c9600060010180546106f290614883565b85516020908101516040519395509193506002926113e89291016148be565b60408051601f198184030181529082905261140291614697565b602060405180830381855afa15801561141f573d6000803e3d6000fd5b5050506040513d601f19601f8201168201806040525081019061144291906146b3565b600261144d83612136565b60405161145a9190614697565b602060405180830381855afa158015611477573d6000803e3d6000fd5b5050506040513d601f19601f8201168201806040525081019061149a91906146b3565b1461152a5760405162461bcd60e51b815260206004820152605460248201527f546865207032706b6820696e20502773206c6f636b656420636f6d6d69746d6560448201527f6e74207472616e73616374696f6e20646f6573206e6f7420636f72726573706f6064820152736e6420746f2056657269666965722773206f6e6560601b608482015260a4016105e1565b6020808501518101516040516002926115449291016148be565b60408051601f198184030181529082905261155e91614697565b602060405180830381855afa15801561157b573d6000803e3d6000fd5b5050506040513d601f19601f8201168201806040525081019061159e91906146b3565b60026115a984612136565b6040516115b69190614697565b602060405180830381855afa1580156115d3573d6000803e3d6000fd5b5050506040513d601f19601f820116820180604052508101906115f691906146b3565b146116135760405162461bcd60e51b81526004016105e1906148d3565b60005461161f88612201565b60200151146116405760405162461bcd60e51b81526004016105e19061494d565b60005461164c87612201565b602001511461166d5760405162461bcd60e51b81526004016105e1906149b4565b6116756141ed565b61167e886122dd565b602082015261168c876122dd565b8152611696614239565b6116aa8960006001018054610a5890614883565b81526040516002906116be90600590614a1b565b602060405180830381855afa1580156116db573d6000803e3d6000fd5b5050506040513d601f19601f820116820180604052508101906116fe91906146b3565b600261170b836000610bc6565b6040516117189190614697565b602060405180830381855afa158015611735573d6000803e3d6000fd5b5050506040513d601f19601f8201168201806040525081019061175891906146b3565b146117755760405162461bcd60e51b81526004016105e190614ab7565b6117898860006001018054610a5890614883565b60208201526040516002906117a090600490614a1b565b602060405180830381855afa1580156117bd573d6000803e3d6000fd5b5050506040513d601f19601f820116820180604052508101906117e091906146b3565b60026117ed836001610ce5565b6040516117fa9190614697565b602060405180830381855afa158015611817573d6000803e3d6000fd5b5050506040513d601f19601f8201168201806040525081019061183a91906146b3565b146118575760405162461bcd60e51b81526004016105e190614b14565b8651805160095560208089015151600a55606091820151600b556008805462ff000019166201000090811791829055604080518181526037918101919091527f44697370757465207375636365737366756c6c79206f70656e65643a20737461948101949094527f74652e646973707574654f70656e6564203d20747275650000000000000000006080850152900460ff16151590820152600080516020614de98339815191529060a001610e1a565b60085460408051818152602f918101919091527f44697370757465206e6f74206f70656e65643a2073746174652e64697370757460608201526e654f70656e6564203d2066616c736560881b60808201526201000090910460ff1615156020820152600080516020614de98339815191529060a001610eb0565b600080546001805491929161199590614883565b80601f01602080910402602001604051908101604052809291908181526020018280546119c190614883565b8015611a0e5780601f106119e357610100808354040283529160200191611a0e565b820191906000526020600020905b8154815290600101906020018083116119f157829003601f168201915b5050505050908060020160009054906101000a900460e01b90806003018054611a3690614883565b80601f0160208091040260200160405190810160405280929190818152602001828054611a6290614883565b8015611aaf5780601f10611a8457610100808354040283529160200191611aaf565b820191906000526020600020905b815481529060010190602001808311611a9257829003601f168201915b505050505090806004018054611ac490614883565b80601f0160208091040260200160405190810160405280929190818152602001828054611af090614883565b8015611b3d5780601f10611b1257610100808354040283529160200191611b3d565b820191906000526020600020905b815481529060010190602001808311611b2057829003601f168201915b505050505090806005018054611b5290614883565b80601f0160208091040260200160405190810160405280929190818152602001828054611b7e90614883565b8015611bcb5780601f10611ba057610100808354040283529160200191611bcb565b820191906000526020600020905b815481529060010190602001808311611bae57829003601f168201915b5050505050908060060154908060070154905088565b60008890558651611bf99060019060208a0190614257565b506002805463ffffffff191660e088901c1790558451611c20906003906020880190614257565b508351611c34906004906020870190614257565b508251611c48906005906020860190614257565b5060069190915560075550506008805464ffffffffff1916600117905550505050565b6000611c868260048451611c7f9190614b71565b600461252b565b611c8f90614b88565b92915050565b604080516080810182526000808252602082018190529181018290526060810191909152604080518082019091526000808252602082015260408051808201825260008082526020808301829052835160808101855282815290810182905292830181905260608301529060408051808201909152600080825260208201526040805180820190915260008082526020820152611d5a6040518060a0016040528060008152602001606081526020016060815260200160608152602001606081525090565b6004808252611d6c9089906000612638565b8083526020830191909152611d84908990600061272f565b845260408401526060830152608082015260005b6003811015611f495780611e1f57611deb8983606001518381518110611dc057611dc0614756565b602002602001015184604001518481518110611dde57611dde614756565b60200260200101516128f7565b6040880152606087015260208601526080820151805182908110611e1157611e11614756565b602090810291909101015185525b8060011415611ecc57611e98611e708a84606001518481518110611e4557611e45614756565b602002602001015185604001518581518110611e6357611e63614756565b602002602001015161295c565b604051602001611e8291815260200190565b60405160208183030381529060405260006129ff565b6001600160601b03191660208401526080820151805182908110611ebe57611ebe614756565b602090810291909101015183525b8060021415611f3757611f0d8983606001518381518110611eef57611eef614756565b602002602001015184604001518481518110611e6357611e63614756565b60208501526080820151805182908110611f2957611f29614756565b602090810291909101015184525b80611f4181614bbf565b915050611d98565b50929790965090945092505050565b60408051608081018252600080825260208201819052918101829052606081019190915260408051808201909152600080825260208201526040805160808101825260008082526020820181905291810182905260608101919091526040805180820190915260008082526020820152611ffa6040518060a0016040528060008152602001606081526020016060815260200160608152602001606081525090565b600480825261200c9087906000612638565b8083526020830191909152612024908790600061272f565b845260408401526060830152608082015260005b60028110156121045780612098576120608783606001518381518110611dc057611dc0614756565b604087015260608601526020850152608082015180518290811061208657612086614756565b602090810291909101015184526120f2565b80600114156120f2576120be611e708884606001518481518110611e4557611e45614756565b6001600160601b031916602084015260808201518051829081106120e4576120e4614756565b602090810291909101015183525b806120fc81614bbf565b915050612038565b50919590945092505050565b606080612120836002602161252b565b61212d846025602161252b565b91509150915091565b6060600360028360405161214a9190614697565b602060405180830381855afa158015612167573d6000803e3d6000fd5b5050506040513d601f19601f8201168201806040525081019061218a91906146b3565b60405160200161219c91815260200190565b60408051601f19818403018152908290526121b691614697565b602060405180830381855afa1580156121d3573d6000803e3d6000fd5b505060405180516121eb925060601b906020016148be565b6040516020818303038152906040529050919050565b6040805160608082018352600080835260208084018290528385018290528451928301855281835282018190529281019290925290612241836004612a91565b508152612251836025600461252b565b61225a90614b88565b6001600160e01b0319166040820152612287612279846005602561252b565b61228290614bda565b612b54565b60208201528051600114611c8f5760405162461bcd60e51b815260206004820152601b60248201527f54782068617320746f6f206d616e7920696e7075747320283e3129000000000060448201526064016105e1565b6123046040518060600160405280600060ff16815260200160608152602001606081525090565b61232b6040518060600160405280600060ff16815260200160608152602001606081525090565b82602a8151811061233e5761233e614756565b6020910101516001600160f81b031916604760f81b14156123765761236c61236784602f612bf5565b612c67565b60208201526123b5565b82602a8151811061238957612389614756565b6020910101516001600160f81b031916602360f91b14156123b5576123af83602f612c7c565b60208201525b6123c3612367846051612bf5565b604082015260208101516002906123db90600061245e565b6123e59190614c14565b6123f257601c8152611c8f565b601b815292915050565b60008061240c856000602961252b565b84612425876072808a516124209190614b71565b61252b565b856040516020016124399493929190614c28565b604051602081830303815290604052905061245381612cf9565b9150505b9392505050565b600061246b82602061467f565b835110156124b35760405162461bcd60e51b8152602060048201526015602482015274746f55696e743235365f6f75744f66426f756e647360581b60448201526064016105e1565b50016020015190565b60606000806124d7876124d0601b89614c7f565b8787612db8565b6040805160208101939093528281019190915280518083038201815260609092019052979650505050505050565b6000611c8f61252461251f8460048651611c7f9190614b71565b612fe9565b60006130b6565b60608161253981601f61467f565b10156125785760405162461bcd60e51b815260206004820152600e60248201526d736c6963655f6f766572666c6f7760901b60448201526064016105e1565b612582828461467f565b845110156125c65760405162461bcd60e51b8152602060048201526011602482015270736c6963655f6f75744f66426f756e647360781b60448201526064016105e1565b6060821580156125e5576040519150600082526020820160405261262f565b6040519150601f8416801560200281840101858101878315602002848b0101015b8183101561261e578051835260209283019201612606565b5050858452601f01601f1916604052505b50949350505050565b606060008060008061264a8888612a91565b9750925085158061265a57508286115b156126675782915061266b565b8591505b6000826001600160401b038111156126855761268561430e565b6040519080825280602002602001820160405280156126ae578160200160208202803683370190505b50905060005b83811015612722576126c760248a61467f565b98506126d38a8a612a91565b809a508194505050828282815181106126ee576126ee614756565b602090810291909101015261270483600461467f565b61270e908a61467f565b98508061271a81614bbf565b9150506126b4565b5098969750505050505050565b60608060606000806000806127448a8a612a91565b9950925087158061275457508288115b1561276157829150612765565b8791505b6000826001600160401b0381111561277f5761277f61430e565b6040519080825280602002602001820160405280156127a8578160200160208202803683370190505b5090506000836001600160401b038111156127c5576127c561430e565b6040519080825280602002602001820160405280156127ee578160200160208202803683370190505b5090506000846001600160401b0381111561280b5761280b61430e565b604051908082528060200260200182016040528015612834578160200160208202803683370190505b50905060005b858110156128e55761284e8e8e6040613113565b82828151811061286057612860614756565b602090810291909101015261287660088e61467f565b9c506128828e8e612a91565b809e5081965050508c84828151811061289d5761289d614756565b602002602001018181525050848382815181106128bc576128bc614756565b60209081029190910101526128d1858e61467f565b9c50806128dd81614bbf565b91505061283a565b509c919b509998509650505050505050565b600080600061290786868661347f565b15612949576129208661291b87600361467f565b612bf5565b61292f8761291b88602861467f565b61293e8861291b89604c61467f565b925092509250612953565b5060009150819050805b93509350939050565b600061296984848461382c565b15612993576129828461297d85600361467f565b6129ff565b6001600160601b0319169050612457565b61299e848484613951565b156129b2576129828461297d85600261467f565b6129bd848484613a0c565b156129d8576129d18461291b85600261467f565b9050612457565b6129e384848461347f565b156129f7576129d18461291b85600261467f565b506000612457565b600080805b6014816001600160a01b03161015612a8657612a21816013614ca2565b612a2c906008614cca565b6001600160a01b03168585836001600160a01b0316612a4b919061467f565b81518110612a5b57612a5b614756565b0160200151612a729160f89190911c901b83614cf9565b915080612a7e81614d24565b915050612a04565b5060601b9392505050565b6000806000848481518110612aa857612aa8614756565b016020015160f81c9050612abd60018561467f565b935060fd8160ff161015612ad85760ff169150829050612b4d565b8060ff1660fd1415612b0557612af085856010613113565b612afb85600261467f565b9250925050612b4d565b8060ff1660fe1415612b2857612b1d85856020613113565b612afb85600461467f565b8060ff1660ff1415612b4b57612b4085856040613113565b612afb85600861467f565b505b9250929050565b60408051602080825281830190925260009182919060208201818036833701905050905060005b6020811015612beb57838160208110612b9657612b96614756565b1a60f81b826001612ba8846020614b71565b612bb29190614b71565b81518110612bc257612bc2614756565b60200101906001600160f81b031916908160001a90535080612be381614bbf565b915050612b7b565b5061245781613a8d565b600080805b6020811015612c5f57612c0e81601f614b71565b612c19906008614d4b565b85612c24868461467f565b81518110612c3457612c34614756565b0160200151612c4b9160f89190911c901b8361467f565b915080612c5781614bbf565b915050612bfa565b509392505050565b6060816040516020016121eb91815260200190565b60606000805b601f811015612ce757612c9681601e614b71565b612ca1906008614d4b565b85612cac868461467f565b81518110612cbc57612cbc614756565b0160200151612cd39160f89190911c901b8361467f565b915080612cdf81614bbf565b915050612c82565b50612cf181613aaa565b949350505050565b600060028083604051612d0c9190614697565b602060405180830381855afa158015612d29573d6000803e3d6000fd5b5050506040513d601f19601f82011682018060405250810190612d4c91906146b3565b604051602001612d5e91815260200190565b60408051601f1981840301815290829052612d7891614697565b602060405180830381855afa158015612d95573d6000803e3d6000fd5b5050506040513d601f19601f82011682018060405250810190611c8f91906146b3565b600080806401000003d019612dda607f600189901c166401000003d019614d4b565b860890506401000003d019811180612e03575070014551231950b75fc4402da1732fc9bebe1984115b80612e1f575070014551231950b75fc4402da1732fc9bebe1985115b80612e28575083155b80612e31575084155b80612e3f575060018660ff16115b15612e51576000809250925050612fe0565b6000612e6f8670014551231950b75fc4402da1732fc9bebe19613b1e565b905060006401000003d0198060076401000003d01960008709086401000003d019808687098609089050612ebf816004612eb06401000003d019600161467f565b612eba9190614d6a565b613bea565b90506000612ed060ff8a168361467f565b612edb90600261467f565b60011615612ef857612ef3826401000003d019614b71565b612efa565b815b905060008080612f7d70014551231950b75fc4402da1732fc9bebe19612f328f70014551231950b75fc4402da1732fc9bebe19614b71565b88097f79be667ef9dcbbac55a06295ce870b07029bfcdb2dce28d959f2815b16f817987f483ada7726a3c4655da4fbfc0e1108a8fd17b448a68554199c47d08ffb10d4b86001613c92565b9250925092506000806000612fb770014551231950b75fc4402da1732fc9bebe1980612fab57612fab614bfe565b8e8b098b896001613c92565b925092509250600080612fce888888888888613d0b565b909e509c505050505050505050505050505b94509492505050565b6060600082516001600160401b038111156130065761300661430e565b6040519080825280601f01601f191660200182016040528015613030576020820181803683370190505b50905060005b83518110156130af5783818151811061305157613051614756565b602001015160f81c60f81b82600183875161306c9190614b71565b6130769190614b71565b8151811061308657613086614756565b60200101906001600160f81b031916908160001a905350806130a781614bbf565b915050613036565b5092915050565b60006130c382600461467f565b8351101561310a5760405162461bcd60e51b8152602060048201526014602482015273746f55696e7433325f6f75744f66426f756e647360601b60448201526064016105e1565b50016004015190565b6000816008141561313f5783838151811061313057613130614756565b016020015160f81c9050612457565b81601014156131a0578361315484600161467f565b8151811061316457613164614756565b01602001516131789060f81c610100614d7e565b61ffff1684848151811061318e5761318e614756565b01602001516129d1919060f81c61467f565b816020141561328657836131b584600361467f565b815181106131c5576131c5614756565b01602001516131db9060f81c6301000000614d9f565b63ffffffff16846131ed85600261467f565b815181106131fd576131fd614756565b01602001516132129060f81c62010000614d9f565b63ffffffff168561322486600161467f565b8151811061323457613234614756565b01602001516132489060f81c610100614d9f565b63ffffffff1686868151811061326057613260614756565b0160200151613272919060f81c61467f565b61327c919061467f565b6129d1919061467f565b8160401415612457578361329b84600761467f565b815181106132ab576132ab614756565b01602001516132c59060f81c670100000000000000614dc2565b6001600160401b0316846132da85600661467f565b815181106132ea576132ea614756565b01602001516133039060f81c6601000000000000614dc2565b6001600160401b03168561331886600561467f565b8151811061332857613328614756565b01602001516133409060f81c65010000000000614dc2565b6001600160401b03168661335587600461467f565b8151811061336557613365614756565b016020015161337c9060f81c640100000000614dc2565b6001600160401b03168761339188600361467f565b815181106133a1576133a1614756565b01602001516133b79060f81c6301000000614dc2565b6001600160401b0316886133cc89600261467f565b815181106133dc576133dc614756565b01602001516133f19060f81c62010000614dc2565b6001600160401b0316896134068a600161467f565b8151811061341657613416614756565b016020015161342a9060f81c610100614dc2565b6001600160401b03168a8a8151811061344557613445614756565b0160200151613457919060f81c61467f565b613461919061467f565b61346b919061467f565b613475919061467f565b613272919061467f565b60008160721480156134bf57508361349884600061467f565b815181106134a8576134a8614756565b6020910101516001600160f81b031916603b60f91b145b80156134f95750836134d284600161467f565b815181106134e2576134e2614756565b6020910101516001600160f81b031916602160f81b145b801561353357508361350c84602361467f565b8151811061351c5761351c614756565b6020910101516001600160f81b031916602b60fa1b145b801561356d57508361354684602461467f565b8151811061355657613556614756565b6020910101516001600160f81b031916606360f81b145b80156135a757508361358084602561467f565b8151811061359057613590614756565b6020910101516001600160f81b031916607560f81b145b80156135e15750836135ba84602661467f565b815181106135ca576135ca614756565b6020910101516001600160f81b031916605560f91b145b801561361b5750836135f484602761467f565b8151811061360457613604614756565b6020910101516001600160f81b031916600160fd1b145b801561365557508361362e84604861467f565b8151811061363e5761363e614756565b6020910101516001600160f81b031916601160fb1b145b801561368f57508361366884604961467f565b8151811061367857613678614756565b6020910101516001600160f81b031916606760f81b145b80156136c95750836136a284604a61467f565b815181106136b2576136b2614756565b6020910101516001600160f81b031916602160f81b145b80156137035750836136dc84606c61467f565b815181106136ec576136ec614756565b6020910101516001600160f81b03191660ad60f81b145b801561373d57508361371684606d61467f565b8151811061372657613726614756565b6020910101516001600160f81b031916602960f91b145b801561377757508361375084606e61467f565b8151811061376057613760614756565b6020910101516001600160f81b031916605960f91b145b80156137b157508361378a84606f61467f565b8151811061379a5761379a614756565b6020910101516001600160f81b031916607560f81b145b80156137eb5750836137c484607061467f565b815181106137d4576137d4614756565b6020910101516001600160f81b031916600d60fb1b145b8015612cf15750836137fe84607161467f565b8151811061380e5761380e614756565b6020910101516001600160f81b031916605160f81b14949350505050565b6000816019148015613862575083838151811061384b5761384b614756565b6020910101516001600160f81b031916603b60f91b145b801561389c57508361387584600161467f565b8151811061388557613885614756565b6020910101516001600160f81b03191660a960f81b145b80156138d65750836138af84600261467f565b815181106138bf576138bf614756565b6020910101516001600160f81b031916600560fa1b145b80156139105750836138e984601761467f565b815181106138f9576138f9614756565b6020910101516001600160f81b031916601160fb1b145b8015612cf157508361392384601861467f565b8151811061393357613933614756565b6020910101516001600160f81b031916602b60fa1b14949350505050565b600081601714801561399157508361396a84600061467f565b8151811061397a5761397a614756565b6020910101516001600160f81b03191660a960f81b145b80156139cb5750836139a484600161467f565b815181106139b4576139b4614756565b6020910101516001600160f81b031916600560fa1b145b8015612cf15750836139de84601661467f565b815181106139ee576139ee614756565b6020910101516001600160f81b031916608760f81b14949350505050565b6000816022148015613a4c575083613a2584600061467f565b81518110613a3557613a35614756565b6020910101516001600160f81b031916603560f91b145b8015612cf1575083613a5f84600161467f565b81518110613a6f57613a6f614756565b6020910101516001600160f81b031916600160fd1b14949350505050565b80516000908290613aa15750600092915050565b50506020015190565b60606001600160ff1b03821115613b035760405162461bcd60e51b815260206004820152601760248201527f56616c75652065786365656473207468652072616e676500000000000000000060448201526064016105e1565b60405190506020815281602082015260408101604052919050565b60008215801590613b2f5750818314155b8015613b3a57508115155b613b775760405162461bcd60e51b815260206004820152600e60248201526d24b73b30b634b210373ab6b132b960911b60448201526064016105e1565b6000600183825b8615613bdf57613b8e8783614d6a565b9050828680613b9f57613b9f614bfe565b8780613bad57613bad614bfe565b858409613bba9089614b71565b8608909450925086613bcc8183614d4b565b613bd69084614b71565b97509150613b7e565b509195945050505050565b600082613bf957506000611c8f565b81613c0657506001611c8f565b6001600160ff1b5b8015612c5f576401000003d0198185161515860a6401000003d0198485090991506401000003d0196002820485161515860a6401000003d0198485090991506401000003d0196004820485161515860a6401000003d0198485090991506401000003d0196008820485161515860a6401000003d01984850909915060109004613c0e565b6000808086613ca8575084915083905082613d01565b8660008060015b8315613cf8576001841615613cd457613ccc8383838d8d8d613d83565b919450925090505b613cdf600285614d6a565b9350613cec8a8a8a614018565b919b5099509750613caf565b91955093509150505b9450945094915050565b6000806000806000878b1415613d4f576401000003d019878b08613d385760008094509450505050613d78565b613d438b8b8b614018565b91945092509050613d65565b613d5d8b8b8b8b8b8b613d83565b919450925090505b613d7083838361411c565b945094505050505b965096945050505050565b6000808088158015613d93575087155b15613da557508491508390508261400c565b85158015613db1575084155b15613dc357508791508690508561400c565b613dcb6142db565b6401000003d0198889098082526401000003d01990890960208201526401000003d019858009604082018190526401000003d0199086096060820152604080516080810182529082015181906401000003d019908d0981526020016401000003d01983600360200201518c0981526020016401000003d01983600060200201518a0981526020016401000003d01983600160200201518909905260408101518151919250141580613e8457506060810151602082015114155b613ed05760405162461bcd60e51b815260206004820152601e60248201527f557365206a6163446f75626c652066756e6374696f6e20696e7374656164000060448201526064016105e1565b613ed86142db565b81516401000003d01990613eec9082614b71565b604084015108815260208201516401000003d01990613f0b9082614b71565b606084015108602082015280516401000003d0199080096040820181905281516401000003d0199109606082018190526000906401000003d01990613f509082614b71565b60208401516401000003d01990800908604083015184519192506401000003d019918291829109600209613f8a906401000003d019614b71565b8208905060006401000003d01980613fa8846401000003d019614b71565b604086015187516401000003d0199190090860208501510990506401000003d019808460036020020151866001602002015109613feb906401000003d019614b71565b8208905060006401000003d019808a8e098551099297509095509093505050505b96509650969350505050565b600080808361402e575084915083905082612953565b60006401000003d019878809905060006401000003d019878809905060006401000003d019878809905060006401000003d01980848c09600409905060006401000003d019806401000003d0198586096000096401000003d019876003090890506401000003d019808384086140aa906401000003d019614b71565b6401000003d0198384090894506401000003d019806401000003d0198687096008096140dc906401000003d019614b71565b6401000003d019806140f4896401000003d019614b71565b860884090893506401000003d019808a8c09600209949b939a50939850919650505050505050565b6000806000614131846401000003d019613b1e565b905060006401000003d019828309905060006401000003d019828909905060006401000003d0198084860989099199919850909650505050505050565b60405180604001604052806002905b60408051608081018252600080825260208083018290529282018190526060820152825260001990920191018161417d5790505090565b60405180604001604052806002905b60408051808201909152600080825260208201528152602001906001900390816141c35790505090565b60405180604001604052806002905b6142236040518060600160405280600060ff16815260200160608152602001606081525090565b8152602001906001900390816141fc5790505090565b60405180604001604052806002906020820280368337509192915050565b82805461426390614883565b90600052602060002090601f01602090048101928261428557600085556142cb565b82601f1061429e57805160ff19168380011785556142cb565b828001600101855582156142cb579182015b828111156142cb5782518255916020019190600101906142b0565b506142d79291506142f9565b5090565b60405180608001604052806004906020820280368337509192915050565b5b808211156142d757600081556001016142fa565b634e487b7160e01b600052604160045260246000fd5b60006001600160401b038084111561433e5761433e61430e565b604051601f8501601f19908116603f011681019082821181831017156143665761436661430e565b8160405280935085815286868601111561437f57600080fd5b858560208301376000602087830101525050509392505050565b6000602082840312156143ab57600080fd5b81356001600160401b038111156143c157600080fd5b8201601f810184136143d257600080fd5b612cf184823560208401614324565b600082601f8301126143f257600080fd5b61245783833560208501614324565b6000806040838503121561441457600080fd5b82356001600160401b038082111561442b57600080fd5b614437868387016143e1565b9350602085013591508082111561444d57600080fd5b5061445a858286016143e1565b9150509250929050565b60006020828403121561447657600080fd5b81356001600160401b0381111561448c57600080fd5b612cf1848285016143e1565b60005b838110156144b357818101518382015260200161449b565b838111156144c2576000848401525b50505050565b600081518084526144e0816020860160208601614498565b601f01601f19169290920160200192915050565b60006101008a835280602084015261450e8184018b6144c8565b6001600160e01b03198a1660408501528381036060850152905061453281896144c8565b9050828103608084015261454681886144c8565b905082810360a084015261455a81876144c8565b60c0840195909552505060e001529695505050505050565b80356001600160e01b03198116811461458a57600080fd5b919050565b600080600080600080600080610100898b0312156145ac57600080fd5b8835975060208901356001600160401b03808211156145ca57600080fd5b6145d68c838d016143e1565b98506145e460408c01614572565b975060608b01359150808211156145fa57600080fd5b6146068c838d016143e1565b965060808b013591508082111561461c57600080fd5b6146288c838d016143e1565b955060a08b013591508082111561463e57600080fd5b5061464b8b828c016143e1565b93505060c0890135915060e089013590509295985092959890939650565b634e487b7160e01b600052601160045260246000fd5b6000821982111561469257614692614669565b500190565b600082516146a9818460208701614498565b9190910192915050565b6000602082840312156146c557600080fd5b5051919050565b60208082526025908201527f436f6d6d69746d656e74207472616e73616374696f6e206f662050206973206c6040820152641bd8dad95960da1b606082015260800190565b60208082526025908201527f436f6d6d69746d656e74207472616e73616374696f6e206f662056206973206c6040820152641bd8dad95960da1b606082015260800190565b634e487b7160e01b600052603260045260246000fd5b6020808252603f908201527f50277320636f6d6d69746d656e74207472616e73616374696f6e20646f65732060408201527f6e6f742068617264636f646520562773207265766f636174696f6e206b657900606082015260800190565b6020808252603a908201527f416d6f756e74206d69736d61746368206265747765656e207032706b68206f6660408201527f205020616e64206c696768746e696e672048544c43206f662056000000000000606082015260800190565b6020808252603a908201527f416d6f756e74206d69736d61746368206265747765656e207032706b68206f6660408201527f205620616e64206c696768746e696e672048544c43206f662050000000000000606082015260800190565b600181811c9082168061489757607f821691505b602082108114156148b857634e487b7160e01b600052602260045260246000fd5b50919050565b6001600160601b031991909116815260140190565b60208082526054908201527f546865207032706b6820696e2056277320756e6c6f636b656420636f6d6d697460408201527f6d656e74207472616e73616374696f6e20646f6573206e6f7420636f72726573606082015273706f6e6420746f2050726f7665722773206f6e6560601b608082015260a00190565b60208082526041908201527f50277320636f6d6d69746d656e74207472616e73616374696f6e20646f65732060408201527f6e6f74207370656e64207468652066756e64696e67207472616e73616374696f6060820152603760f91b608082015260a00190565b60208082526041908201527f56277320636f6d6d69746d656e74207472616e73616374696f6e20646f65732060408201527f6e6f74207370656e64207468652066756e64696e67207472616e73616374696f6060820152603760f91b608082015260a00190565b600080835481600182811c915080831680614a3757607f831692505b6020808410821415614a5757634e487b7160e01b86526022600452602486fd5b818015614a6b5760018114614a7c57614aa9565b60ff19861689528489019650614aa9565b60008a81526020902060005b86811015614aa15781548b820152908501908301614a88565b505084890196505b509498975050505050505050565b60208082526037908201527f496e76616c6964207369676e6174757265206f662056206f76657220636f6d6d60408201527f69746d656e74207472616e73616374696f6e206f662050000000000000000000606082015260800190565b60208082526037908201527f496e76616c6964207369676e6174757265206f662050206f76657220636f6d6d60408201527f69746d656e74207472616e73616374696f6e206f662056000000000000000000606082015260800190565b600082821015614b8357614b83614669565b500390565b805160208201516001600160e01b03198082169291906004831015614bb75780818460040360031b1b83161693505b505050919050565b6000600019821415614bd357614bd3614669565b5060010190565b805160208083015191908110156148b85760001960209190910360031b1b16919050565b634e487b7160e01b600052601260045260246000fd5b600082614c2357614c23614bfe565b500690565b60008551614c3a818460208a01614498565b855190830190614c4e818360208a01614498565b8551910190614c61818360208901614498565b8451910190614c74818360208801614498565b019695505050505050565b600060ff821660ff841680821015614c9957614c99614669565b90039392505050565b60006001600160a01b0383811690831681811015614cc257614cc2614669565b039392505050565b60006001600160a01b0382811684821681151582840482111615614cf057614cf0614669565b02949350505050565b60006001600160a01b03828116848216808303821115614d1b57614d1b614669565b01949350505050565b60006001600160a01b0382811680821415614d4157614d41614669565b6001019392505050565b6000816000190483118215151615614d6557614d65614669565b500290565b600082614d7957614d79614bfe565b500490565b600061ffff80831681851681830481118215151615614cf057614cf0614669565b600063ffffffff80831681851681830481118215151615614cf057614cf0614669565b60006001600160401b0380831681851681830481118215151615614cf057614cf061466956fe7cb76fce4caeb1fe1b0dd56de53b408af770b76cf5e9c88a1e2568a7d1e9889fa2646970667358221220aa8909889d78ddf8ce94024eaadec0bc4596d373d91d6978a4fc969dfbc265e564736f6c63430008090033",
  "linkReferences": {},
  "deployedLinkReferences": {}
}