{
  "_format": "hh-sol-artifact-1",
  "contractName": "LNBridge",
  "sourceName": "contracts/LNBridge.sol",
  "abi": [
    {
      "anonymous": false,
      "inputs": [
        {
          "indexed": false,
          "internalType": "address",
          "name": "addr",
          "type": "address"
        },
        {
          "indexed": false,
          "internalType": "uint256",
          "name": "amount",
          "type": "uint256"
        }
      ],
      "name": "lockCoinsEvent",
      "type": "event"
    },
    {
      "anonymous": false,
      "inputs": [
        {
          "indexed": false,
          "internalType": "string",
          "name": "label",
          "type": "string"
        },
        {
          "indexed": false,
          "internalType": "bool",
          "name": "stateStatus",
          "type": "bool"
        }
      ],
      "name": "stateEvent",
      "type": "event"
    },
    {
      "inputs": [],
      "name": "bridge",
      "outputs": [
        {
          "internalType": "bytes32",
          "name": "fundingTxId",
          "type": "bytes32"
        },
        {
          "internalType": "bytes",
          "name": "fundingTx_script",
          "type": "bytes"
        },
        {
          "internalType": "bytes4",
          "name": "fundingTx_index",
          "type": "bytes4"
        },
        {
          "internalType": "bytes",
          "name": "sighash",
          "type": "bytes"
        },
        {
          "internalType": "bytes",
          "name": "pkProver_Uncompressed",
          "type": "bytes"
        },
        {
          "internalType": "bytes",
          "name": "pkVerifier_Uncompressed",
          "type": "bytes"
        },
        {
          "internalType": "uint256",
          "name": "timelock",
          "type": "uint256"
        },
        {
          "internalType": "uint256",
          "name": "timelock_dispute",
          "type": "uint256"
        }
      ],
      "stateMutability": "view",
      "type": "function"
    },
    {
      "inputs": [],
      "name": "contractStorage",
      "outputs": [
        {
          "internalType": "uint256",
          "name": "balP",
          "type": "uint256"
        },
        {
          "internalType": "uint256",
          "name": "balV",
          "type": "uint256"
        },
        {
          "internalType": "bytes32",
          "name": "revKey",
          "type": "bytes32"
        }
      ],
      "stateMutability": "view",
      "type": "function"
    },
    {
      "inputs": [
        {
          "internalType": "bytes",
          "name": "CT_P_locked",
          "type": "bytes"
        },
        {
          "internalType": "bytes",
          "name": "CT_V_unlocked",
          "type": "bytes"
        }
      ],
      "name": "dispute",
      "outputs": [],
      "stateMutability": "nonpayable",
      "type": "function"
    },
    {
      "inputs": [
        {
          "internalType": "string",
          "name": "revSecret",
          "type": "string"
        }
      ],
      "name": "resolveInvalidDispute",
      "outputs": [],
      "stateMutability": "nonpayable",
      "type": "function"
    },
    {
      "inputs": [
        {
          "internalType": "bytes",
          "name": "CT_P_unlocked",
          "type": "bytes"
        }
      ],
      "name": "resolveValidDispute",
      "outputs": [],
      "stateMutability": "nonpayable",
      "type": "function"
    },
    {
      "inputs": [],
      "name": "settle",
      "outputs": [],
      "stateMutability": "payable",
      "type": "function"
    },
    {
      "inputs": [
        {
          "internalType": "bytes32",
          "name": "_fundingTxId",
          "type": "bytes32"
        },
        {
          "internalType": "bytes",
          "name": "_fundingTx_script",
          "type": "bytes"
        },
        {
          "internalType": "bytes4",
          "name": "_fundingTx_index",
          "type": "bytes4"
        },
        {
          "internalType": "bytes",
          "name": "_sighash",
          "type": "bytes"
        },
        {
          "internalType": "bytes",
          "name": "_pkProver_Uncompressed",
          "type": "bytes"
        },
        {
          "internalType": "bytes",
          "name": "_pkVerifier_Uncompressed",
          "type": "bytes"
        },
        {
          "internalType": "uint256",
          "name": "_timelock",
          "type": "uint256"
        },
        {
          "internalType": "uint256",
          "name": "_timelock_dispute",
          "type": "uint256"
        }
      ],
      "name": "setup",
      "outputs": [],
      "stateMutability": "nonpayable",
      "type": "function"
    },
    {
      "inputs": [],
      "name": "state",
      "outputs": [
        {
          "internalType": "bool",
          "name": "setupDone",
          "type": "bool"
        },
        {
          "internalType": "bool",
          "name": "validProofSubmitted",
          "type": "bool"
        },
        {
          "internalType": "bool",
          "name": "disputeOpened",
          "type": "bool"
        },
        {
          "internalType": "bool",
          "name": "disputeClosedP",
          "type": "bool"
        },
        {
          "internalType": "bool",
          "name": "disputeClosedV",
          "type": "bool"
        }
      ],
      "stateMutability": "view",
      "type": "function"
    },
    {
      "inputs": [
        {
          "internalType": "bytes",
          "name": "CT_P_unlocked",
          "type": "bytes"
        },
        {
          "internalType": "bytes",
          "name": "CT_V_unlocked",
          "type": "bytes"
        }
      ],
      "name": "submitProof",
      "outputs": [],
      "stateMutability": "nonpayable",
      "type": "function"
    },
    {
      "stateMutability": "payable",
      "type": "receive"
    }
  ],
  "bytecode": "0x608060405234801561001057600080fd5b50614f38806100206000396000f3fe60806040526004361061008a5760003560e01c80637236d92f116100595780637236d92f1461019557806376155391146101b5578063c19d93fb146101d5578063e78cea9214610249578063f5cae57d1461027257600080fd5b80630549b27e1461010e5780630cb823691461014d57806311da60b41461016d5780633aef14771461017557600080fd5b3661010957336000818152602081815260409182902034908190558251938452908301527fc8cbcf01cc721df748572483c74045c535053c72d70d00dcd2d242b2cef23475910160405180910390a16101076040518060400160405280600d81526020016c636f696e73206c6f636b65642160981b815250610292565b005b600080fd5b34801561011a57600080fd5b50600a54600b54600c5461012d92919083565b604080519384526020840192909252908201526060015b60405180910390f35b34801561015957600080fd5b50610107610168366004614480565b6102d8565b610107610544565b34801561018157600080fd5b506101076101903660046144e8565b61062e565b3480156101a157600080fd5b506101076101b036600461454b565b610f7d565b3480156101c157600080fd5b506101076101d03660046144e8565b611253565b3480156101e157600080fd5b506009546102179060ff808216916101008104821691620100008204811691630100000081048216916401000000009091041685565b60408051951515865293151560208601529115159284019290925290151560608301521515608082015260a001610144565b34801561025557600080fd5b5061025e611a3e565b6040516101449897969594939291906145db565b34801561027e57600080fd5b5061010761028d366004614676565b611c9e565b6102d5816040516024016102a69190614750565b60408051601f198184030181529190526020810180516001600160e01b031663104c13eb60e21b179052611d28565b50565b6008546007546102e89190614779565b42108015610329575060095460ff16151560011480156103105750600954610100900460ff16155b8015610329575060095462010000900460ff1615156001145b80156103f25750600280826040516103419190614791565b602060405180830381855afa15801561035e573d6000803e3d6000fd5b5050506040513d601f19601f8201168201806040525081019061038191906147ad565b60405160200161039391815260200190565b60408051601f19818403018152908290526103ad91614791565b602060405180830381855afa1580156103ca573d6000803e3d6000fd5b5050506040513d601f19601f820116820180604052508101906103ed91906147ad565b600c54145b156104ba576000600a556001600b556009805464ff00000000191664010000000090811791829055604051600080516020614ee3833981519152926104af92900460ff16906040808252604a908201527f5265736f6c766520496e76616c6964204469737075746520737563636573736660608201527f756c6c792065786563757465643a2073746174652e64697370757465436c6f73608082015269656456203d207472756560b01b60a0820152901515602082015260c00190565b60405180910390a150565b60095460408051818152603c918101919091527f5265736f6c766520496e76616c69642044697370757465206661696c65643a2060608201527f73746174652e64697370757465436c6f73656456203d2066616c736500000000608082015264010000000090910460ff1615156020820152600080516020614ee38339815191529060a0016104af565b60095460ff6101009091041615156001141561055c57565b60095462010000900460ff161515600114801561059957506009546301000000900460ff161580156105995750600954640100000000900460ff16155b156105a057565b60095462010000900460ff16151560011480156105cb57506009546301000000900460ff1615156001145b156105d257565b60095462010000900460ff16151560011480156105fe5750600954640100000000900460ff1615156001145b1561060557565b60095460ff1615156001148015610625575060095462010000900460ff16155b80156102d55750565b6007544210801561066e575060095460ff16151560011480156106595750600954610100900460ff16155b801561066e575060095462010000900460ff16155b15610eee57600061067e83611d31565b6001600160e01b031916146106ae5760405162461bcd60e51b81526004016106a5906147c6565b60405180910390fd5b60006106b982611d31565b6001600160e01b031916146106e05760405162461bcd60e51b81526004016106a59061480b565b6106e8614255565b6106f061429b565b604080518082019091526000808252602082015261070d85611d5b565b908452908452905061071e8461201e565b60208481019190915280850182905260609091015190820151146107545760405162461bcd60e51b81526004016106a590614866565b6020830151518251511461077a5760405162461bcd60e51b81526004016106a5906148c3565b602082015151835151146107a05760405162461bcd60e51b81526004016106a590614920565b6000806108386001800180546107b59061497d565b80601f01602080910402602001604051908101604052809291908181526020018280546107e19061497d565b801561082e5780601f106108035761010080835404028352916020019161082e565b820191906000526020600020905b81548152906001019060200180831161081157829003601f168201915b50505050506121d6565b85516020908101516040519395509193506002926108579291016149b8565b60408051601f198184030181529082905261087191614791565b602060405180830381855afa15801561088e573d6000803e3d6000fd5b5050506040513d601f19601f820116820180604052508101906108b191906147ad565b60026108bc836121fc565b6040516108c99190614791565b602060405180830381855afa1580156108e6573d6000803e3d6000fd5b5050506040513d601f19601f8201168201806040525081019061090991906147ad565b1461099b5760405162461bcd60e51b815260206004820152605660248201527f546865207032706b6820696e2050277320756e6c6f636b656420636f6d6d697460448201527f6d656e74207472616e73616374696f6e20646f6573206e6f7420636f72726573606482015275706f6e6420746f2056657269666965722773206f6e6560501b608482015260a4016106a5565b6020808501518101516040516002926109b59291016149b8565b60408051601f19818403018152908290526109cf91614791565b602060405180830381855afa1580156109ec573d6000803e3d6000fd5b5050506040513d601f19601f82011682018060405250810190610a0f91906147ad565b6002610a1a846121fc565b604051610a279190614791565b602060405180830381855afa158015610a44573d6000803e3d6000fd5b5050506040513d601f19601f82011682018060405250810190610a6791906147ad565b14610a845760405162461bcd60e51b81526004016106a5906149cd565b600154610a90886122c7565b6020015114610ab15760405162461bcd60e51b81526004016106a590614a47565b600154610abd876122c7565b6020015114610ade5760405162461bcd60e51b81526004016106a590614aae565b610ae66142d4565b610aef886123a3565b6020820152610afd876123a3565b8152610b07614320565b610c2b89600180018054610b1a9061497d565b80601f0160208091040260200160405190810160405280929190818152602001828054610b469061497d565b8015610b935780601f10610b6857610100808354040283529160200191610b93565b820191906000526020600020905b815481529060010190602001808311610b7657829003601f168201915b505050505060016003018054610ba89061497d565b80601f0160208091040260200160405190810160405280929190818152602001828054610bd49061497d565b8015610c215780601f10610bf657610100808354040283529160200191610c21565b820191906000526020600020905b815481529060010190602001808311610c0457829003601f168201915b50505050506124c2565b8152604051600290610c3f90600690614b15565b602060405180830381855afa158015610c5c573d6000803e3d6000fd5b5050506040513d601f19601f82011682018060405250810190610c7f91906147ad565b6002610cc98360005b6020020151856001602002015151610cad8760015b6020020151602001516000612524565b610cc48860015b6020020151604001516000612524565b612582565b604051610cd69190614791565b602060405180830381855afa158015610cf3573d6000803e3d6000fd5b5050506040513d601f19601f82011682018060405250810190610d1691906147ad565b14610d335760405162461bcd60e51b81526004016106a590614bb1565b610d4688600180018054610b1a9061497d565b6020820152604051600290610d5d90600590614b15565b602060405180830381855afa158015610d7a573d6000803e3d6000fd5b5050506040513d601f19601f82011682018060405250810190610d9d91906147ad565b6002610dc48360015b6020020151855151610db9876000610c9d565b610cc4886000610cb4565b604051610dd19190614791565b602060405180830381855afa158015610dee573d6000803e3d6000fd5b5050506040513d601f19601f82011682018060405250810190610e1191906147ad565b14610e2e5760405162461bcd60e51b81526004016106a590614c0e565b866000602002015151600a55866001602002015151600b556009805461ff00191661010090811791829055604051600080516020614ee383398151915292610edb92900460ff16906040808252603d908201527f50726f6f66207375636365737366756c6c792076657269666965643a2073746160608201527f74652e76616c696450726f6f665375626d6974746564203d20747275650000006080820152901515602082015260a00190565b60405180910390a1505050505050505050565b60095460408051818152603b918101919091527f50726f6f66207375626d697474656420746f6f206c6174653a2073746174652e60608201527f76616c696450726f6f665375626d6974746564203d2066616c73650000000000608082015261010090910460ff1615156020820152600080516020614ee38339815191529060a0015b60405180910390a15050565b600854600754610f8d9190614779565b42108015610fce575060095460ff1615156001148015610fb55750600954610100900460ff16155b8015610fce575060095462010000900460ff1615156001145b156111ca576000610fde82611d31565b6001600160e01b031916146110055760405162461bcd60e51b81526004016106a5906147c6565b6000611010826123a3565b9050600061102783600180018054610b1a9061497d565b90506002600160050160405161103d9190614b15565b602060405180830381855afa15801561105a573d6000803e3d6000fd5b5050506040513d601f19601f8201168201806040525081019061107d91906147ad565b60026110a98360001c856000015161109a87602001516000612524565b610cc488604001516000612524565b6040516110b69190614791565b602060405180830381855afa1580156110d3573d6000803e3d6000fd5b5050506040513d601f19601f820116820180604052508101906110f691906147ad565b146111135760405162461bcd60e51b81526004016106a590614bb1565b6009805463ff0000001916630100000090811791829055604051600080516020614ee3833981519152926111bd92900460ff169060408082526048908201527f5265736f6c76652056616c69642044697370757465207375636365737366756c60608201527f6c792065786563757465643a2073746174652e64697370757465436c6f73656460808201526750203d207472756560c01b60a0820152901515602082015260c00190565b60405180910390a1505050565b60095460408051818152603a918101919091527f5265736f6c76652056616c69642044697370757465206661696c65643a20737460608201527f6174652e64697370757465436c6f73656450203d2066616c73650000000000006080820152630100000090910460ff1615156020820152600080516020614ee38339815191529060a0016104af565b60075442108015611293575060095460ff161515600114801561127e5750600954610100900460ff16155b8015611293575060095462010000900460ff16155b156119c4576008546007546112a89190614779565b6112b1836125cb565b63ffffffff16116113855760405162461bcd60e51b815260206004820152608660248201527f436f6d6d69746d656e74207472616e73616374696f6e206f662050206973207560448201527f6e6c6f636b6564206f722074696d656c6f636b206f66207468652074696d656c60648201527f6f636b656420547820697320736d616c6c6572206f7220657175616c2074686160848201527f6e2054696d656c6f636b2054202b2052656c61746976652054696d656c6f636b60a482015265081517dc995b60d21b60c482015260e4016106a5565b6000611390826125cb565b63ffffffff16146113b35760405162461bcd60e51b81526004016106a59061480b565b6113bb614255565b6113c361429b565b60408051808201909152600080825260208201526113e085611d5b565b90845290845290506113f18461201e565b60208481019190915280850182905260609091015190820151146114275760405162461bcd60e51b81526004016106a590614866565b6020830151518251511461144d5760405162461bcd60e51b81526004016106a5906148c3565b602082015151835151146114735760405162461bcd60e51b81526004016106a590614920565b6000806114886001800180546107b59061497d565b85516020908101516040519395509193506002926114a79291016149b8565b60408051601f19818403018152908290526114c191614791565b602060405180830381855afa1580156114de573d6000803e3d6000fd5b5050506040513d601f19601f8201168201806040525081019061150191906147ad565b600261150c836121fc565b6040516115199190614791565b602060405180830381855afa158015611536573d6000803e3d6000fd5b5050506040513d601f19601f8201168201806040525081019061155991906147ad565b146115e95760405162461bcd60e51b815260206004820152605460248201527f546865207032706b6820696e20502773206c6f636b656420636f6d6d69746d6560448201527f6e74207472616e73616374696f6e20646f6573206e6f7420636f72726573706f6064820152736e6420746f2056657269666965722773206f6e6560601b608482015260a4016106a5565b6020808501518101516040516002926116039291016149b8565b60408051601f198184030181529082905261161d91614791565b602060405180830381855afa15801561163a573d6000803e3d6000fd5b5050506040513d601f19601f8201168201806040525081019061165d91906147ad565b6002611668846121fc565b6040516116759190614791565b602060405180830381855afa158015611692573d6000803e3d6000fd5b5050506040513d601f19601f820116820180604052508101906116b591906147ad565b146116d25760405162461bcd60e51b81526004016106a5906149cd565b6001546116de886122c7565b60200151146116ff5760405162461bcd60e51b81526004016106a590614a47565b60015461170b876122c7565b602001511461172c5760405162461bcd60e51b81526004016106a590614aae565b6117346142d4565b61173d886123a3565b602082015261174b876123a3565b8152611755614320565b61176889600180018054610b1a9061497d565b815260405160029061177c90600690614b15565b602060405180830381855afa158015611799573d6000803e3d6000fd5b5050506040513d601f19601f820116820180604052508101906117bc91906147ad565b60026117c9836000610c88565b6040516117d69190614791565b602060405180830381855afa1580156117f3573d6000803e3d6000fd5b5050506040513d601f19601f8201168201806040525081019061181691906147ad565b146118335760405162461bcd60e51b81526004016106a590614bb1565b61184688600180018054610b1a9061497d565b602082015260405160029061185d90600590614b15565b602060405180830381855afa15801561187a573d6000803e3d6000fd5b5050506040513d601f19601f8201168201806040525081019061189d91906147ad565b60026118aa836001610da6565b6040516118b79190614791565b602060405180830381855afa1580156118d4573d6000803e3d6000fd5b5050506040513d601f19601f820116820180604052508101906118f791906147ad565b146119145760405162461bcd60e51b81526004016106a590614c0e565b86518051600a5560208089015151600b55606091820151600c556009805462ff000019166201000090811791829055604080518181526037918101919091527f44697370757465207375636365737366756c6c79206f70656e65643a20737461948101949094527f74652e646973707574654f70656e6564203d20747275650000000000000000006080850152900460ff16151590820152600080516020614ee38339815191529060a001610edb565b60095460408051818152602f918101919091527f44697370757465206e6f74206f70656e65643a2073746174652e64697370757460608201526e654f70656e6564203d2066616c736560881b60808201526201000090910460ff1615156020820152600080516020614ee38339815191529060a001610f71565b6001805460028054919291611a529061497d565b80601f0160208091040260200160405190810160405280929190818152602001828054611a7e9061497d565b8015611acb5780601f10611aa057610100808354040283529160200191611acb565b820191906000526020600020905b815481529060010190602001808311611aae57829003601f168201915b5050505050908060020160009054906101000a900460e01b90806003018054611af39061497d565b80601f0160208091040260200160405190810160405280929190818152602001828054611b1f9061497d565b8015611b6c5780601f10611b4157610100808354040283529160200191611b6c565b820191906000526020600020905b815481529060010190602001808311611b4f57829003601f168201915b505050505090806004018054611b819061497d565b80601f0160208091040260200160405190810160405280929190818152602001828054611bad9061497d565b8015611bfa5780601f10611bcf57610100808354040283529160200191611bfa565b820191906000526020600020905b815481529060010190602001808311611bdd57829003601f168201915b505050505090806005018054611c0f9061497d565b80601f0160208091040260200160405190810160405280929190818152602001828054611c3b9061497d565b8015611c885780601f10611c5d57610100808354040283529160200191611c88565b820191906000526020600020905b815481529060010190602001808311611c6b57829003601f168201915b5050505050908060060154908060070154905088565b60018890558651611cb69060029060208a019061433e565b506003805463ffffffff191660e088901c1790558451611cdd90600490602088019061433e565b508351611cf190600590602087019061433e565b508251611d0590600690602086019061433e565b5060079190915560085550506009805464ffffffffff1916600117905550505050565b6102d5816125f1565b6000611d4c8260048451611d459190614c6b565b6004612612565b611d5590614c82565b92915050565b604080516080810182526000808252602082018190529181018290526060810191909152604080518082019091526000808252602082015260408051808201825260008082526020808301829052835160808101855282815290810182905292830181905260608301529060408051808201909152600080825260208201526040805180820190915260008082526020820152611e206040518060a0016040528060008152602001606081526020016060815260200160608152602001606081525090565b6004808252611e32908990600061271f565b8083526020830191909152611e4a9089906000612816565b845260408401526060830152608082015260005b600381101561200f5780611ee557611eb18983606001518381518110611e8657611e86614850565b602002602001015184604001518481518110611ea457611ea4614850565b60200260200101516129de565b6040880152606087015260208601526080820151805182908110611ed757611ed7614850565b602090810291909101015185525b8060011415611f9257611f5e611f368a84606001518481518110611f0b57611f0b614850565b602002602001015185604001518581518110611f2957611f29614850565b6020026020010151612a43565b604051602001611f4891815260200190565b6040516020818303038152906040526000612ae6565b6001600160601b03191660208401526080820151805182908110611f8457611f84614850565b602090810291909101015183525b8060021415611ffd57611fd38983606001518381518110611fb557611fb5614850565b602002602001015184604001518481518110611f2957611f29614850565b60208501526080820151805182908110611fef57611fef614850565b602090810291909101015184525b8061200781614cb9565b915050611e5e565b50929790965090945092505050565b604080516080810182526000808252602082018190529181018290526060810191909152604080518082019091526000808252602082015260408051608081018252600080825260208201819052918101829052606081019190915260408051808201909152600080825260208201526120c06040518060a0016040528060008152602001606081526020016060815260200160608152602001606081525090565b60048082526120d2908790600061271f565b80835260208301919091526120ea9087906000612816565b845260408401526060830152608082015260005b60028110156121ca578061215e576121268783606001518381518110611e8657611e86614850565b604087015260608601526020850152608082015180518290811061214c5761214c614850565b602090810291909101015184526121b8565b80600114156121b857612184611f368884606001518481518110611f0b57611f0b614850565b6001600160601b031916602084015260808201518051829081106121aa576121aa614850565b602090810291909101015183525b806121c281614cb9565b9150506120fe565b50919590945092505050565b6060806121e68360026021612612565b6121f38460256021612612565b91509150915091565b606060036002836040516122109190614791565b602060405180830381855afa15801561222d573d6000803e3d6000fd5b5050506040513d601f19601f8201168201806040525081019061225091906147ad565b60405160200161226291815260200190565b60408051601f198184030181529082905261227c91614791565b602060405180830381855afa158015612299573d6000803e3d6000fd5b505060405180516122b1925060601b906020016149b8565b6040516020818303038152906040529050919050565b6040805160608082018352600080835260208084018290528385018290528451928301855281835282018190529281019290925290612307836004612b78565b5081526123178360256004612612565b61232090614c82565b6001600160e01b031916604082015261234d61233f8460056025612612565b61234890614cd4565b612c3b565b60208201528051600114611d555760405162461bcd60e51b815260206004820152601b60248201527f54782068617320746f6f206d616e7920696e7075747320283e3129000000000060448201526064016106a5565b6123ca6040518060600160405280600060ff16815260200160608152602001606081525090565b6123f16040518060600160405280600060ff16815260200160608152602001606081525090565b82602a8151811061240457612404614850565b6020910101516001600160f81b031916604760f81b141561243c5761243261242d84602f612cdc565b612d4e565b602082015261247b565b82602a8151811061244f5761244f614850565b6020910101516001600160f81b031916602360f91b141561247b5761247583602f612d63565b60208201525b61248961242d846051612cdc565b604082015260208101516002906124a1906000612524565b6124ab9190614d0e565b6124b857601c8152611d55565b601b815292915050565b6000806124d28560006029612612565b846124eb876072808a516124e69190614c6b565b612612565b856040516020016124ff9493929190614d22565b604051602081830303815290604052905061251981612de0565b9150505b9392505050565b6000612531826020614779565b835110156125795760405162461bcd60e51b8152602060048201526015602482015274746f55696e743235365f6f75744f66426f756e647360581b60448201526064016106a5565b50016020015190565b606060008061259d87612596601b89614d79565b8787612e9f565b6040805160208101939093528281019190915280518083038201815260609092019052979650505050505050565b6000611d556125ea6125e58460048651611d459190614c6b565b6130d0565b600061319d565b60006a636f6e736f6c652e6c6f679050600080835160208501845afa505050565b60608161262081601f614779565b101561265f5760405162461bcd60e51b815260206004820152600e60248201526d736c6963655f6f766572666c6f7760901b60448201526064016106a5565b6126698284614779565b845110156126ad5760405162461bcd60e51b8152602060048201526011602482015270736c6963655f6f75744f66426f756e647360781b60448201526064016106a5565b6060821580156126cc5760405191506000825260208201604052612716565b6040519150601f8416801560200281840101858101878315602002848b0101015b818310156127055780518352602092830192016126ed565b5050858452601f01601f1916604052505b50949350505050565b60606000806000806127318888612b78565b9750925085158061274157508286115b1561274e57829150612752565b8591505b6000826001600160401b0381111561276c5761276c6143f5565b604051908082528060200260200182016040528015612795578160200160208202803683370190505b50905060005b83811015612809576127ae60248a614779565b98506127ba8a8a612b78565b809a508194505050828282815181106127d5576127d5614850565b60209081029190910101526127eb836004614779565b6127f5908a614779565b98508061280181614cb9565b91505061279b565b5098969750505050505050565b606080606060008060008061282b8a8a612b78565b9950925087158061283b57508288115b156128485782915061284c565b8791505b6000826001600160401b03811115612866576128666143f5565b60405190808252806020026020018201604052801561288f578160200160208202803683370190505b5090506000836001600160401b038111156128ac576128ac6143f5565b6040519080825280602002602001820160405280156128d5578160200160208202803683370190505b5090506000846001600160401b038111156128f2576128f26143f5565b60405190808252806020026020018201604052801561291b578160200160208202803683370190505b50905060005b858110156129cc576129358e8e60406131fa565b82828151811061294757612947614850565b602090810291909101015261295d60088e614779565b9c506129698e8e612b78565b809e5081965050508c84828151811061298457612984614850565b602002602001018181525050848382815181106129a3576129a3614850565b60209081029190910101526129b8858e614779565b9c50806129c481614cb9565b915050612921565b509c919b509998509650505050505050565b60008060006129ee868686613566565b15612a3057612a0786612a02876003614779565b612cdc565b612a1687612a02886028614779565b612a2588612a0289604c614779565b925092509250612a3a565b5060009150819050805b93509350939050565b6000612a50848484613913565b15612a7a57612a6984612a64856003614779565b612ae6565b6001600160601b031916905061251d565b612a85848484613a38565b15612a9957612a6984612a64856002614779565b612aa4848484613af3565b15612abf57612ab884612a02856002614779565b905061251d565b612aca848484613566565b15612ade57612ab884612a02856002614779565b50600061251d565b600080805b6014816001600160a01b03161015612b6d57612b08816013614d9c565b612b13906008614dc4565b6001600160a01b03168585836001600160a01b0316612b329190614779565b81518110612b4257612b42614850565b0160200151612b599160f89190911c901b83614df3565b915080612b6581614e1e565b915050612aeb565b5060601b9392505050565b6000806000848481518110612b8f57612b8f614850565b016020015160f81c9050612ba4600185614779565b935060fd8160ff161015612bbf5760ff169150829050612c34565b8060ff1660fd1415612bec57612bd7858560106131fa565b612be2856002614779565b9250925050612c34565b8060ff1660fe1415612c0f57612c04858560206131fa565b612be2856004614779565b8060ff1660ff1415612c3257612c27858560406131fa565b612be2856008614779565b505b9250929050565b60408051602080825281830190925260009182919060208201818036833701905050905060005b6020811015612cd257838160208110612c7d57612c7d614850565b1a60f81b826001612c8f846020614c6b565b612c999190614c6b565b81518110612ca957612ca9614850565b60200101906001600160f81b031916908160001a90535080612cca81614cb9565b915050612c62565b5061251d81613b74565b600080805b6020811015612d4657612cf581601f614c6b565b612d00906008614e45565b85612d0b8684614779565b81518110612d1b57612d1b614850565b0160200151612d329160f89190911c901b83614779565b915080612d3e81614cb9565b915050612ce1565b509392505050565b6060816040516020016122b191815260200190565b60606000805b601f811015612dce57612d7d81601e614c6b565b612d88906008614e45565b85612d938684614779565b81518110612da357612da3614850565b0160200151612dba9160f89190911c901b83614779565b915080612dc681614cb9565b915050612d69565b50612dd881613b91565b949350505050565b600060028083604051612df39190614791565b602060405180830381855afa158015612e10573d6000803e3d6000fd5b5050506040513d601f19601f82011682018060405250810190612e3391906147ad565b604051602001612e4591815260200190565b60408051601f1981840301815290829052612e5f91614791565b602060405180830381855afa158015612e7c573d6000803e3d6000fd5b5050506040513d601f19601f82011682018060405250810190611d5591906147ad565b600080806401000003d019612ec1607f600189901c166401000003d019614e45565b860890506401000003d019811180612eea575070014551231950b75fc4402da1732fc9bebe1984115b80612f06575070014551231950b75fc4402da1732fc9bebe1985115b80612f0f575083155b80612f18575084155b80612f26575060018660ff16115b15612f385760008092509250506130c7565b6000612f568670014551231950b75fc4402da1732fc9bebe19613c05565b905060006401000003d0198060076401000003d01960008709086401000003d019808687098609089050612fa6816004612f976401000003d0196001614779565b612fa19190614e64565b613cd1565b90506000612fb760ff8a1683614779565b612fc2906002614779565b60011615612fdf57612fda826401000003d019614c6b565b612fe1565b815b90506000808061306470014551231950b75fc4402da1732fc9bebe196130198f70014551231950b75fc4402da1732fc9bebe19614c6b565b88097f79be667ef9dcbbac55a06295ce870b07029bfcdb2dce28d959f2815b16f817987f483ada7726a3c4655da4fbfc0e1108a8fd17b448a68554199c47d08ffb10d4b86001613d79565b925092509250600080600061309e70014551231950b75fc4402da1732fc9bebe198061309257613092614cf8565b8e8b098b896001613d79565b9250925092506000806130b5888888888888613df2565b909e509c505050505050505050505050505b94509492505050565b6060600082516001600160401b038111156130ed576130ed6143f5565b6040519080825280601f01601f191660200182016040528015613117576020820181803683370190505b50905060005b83518110156131965783818151811061313857613138614850565b602001015160f81c60f81b8260018387516131539190614c6b565b61315d9190614c6b565b8151811061316d5761316d614850565b60200101906001600160f81b031916908160001a9053508061318e81614cb9565b91505061311d565b5092915050565b60006131aa826004614779565b835110156131f15760405162461bcd60e51b8152602060048201526014602482015273746f55696e7433325f6f75744f66426f756e647360601b60448201526064016106a5565b50016004015190565b600081600814156132265783838151811061321757613217614850565b016020015160f81c905061251d565b8160101415613287578361323b846001614779565b8151811061324b5761324b614850565b016020015161325f9060f81c610100614e78565b61ffff1684848151811061327557613275614850565b0160200151612ab8919060f81c614779565b816020141561336d578361329c846003614779565b815181106132ac576132ac614850565b01602001516132c29060f81c6301000000614e99565b63ffffffff16846132d4856002614779565b815181106132e4576132e4614850565b01602001516132f99060f81c62010000614e99565b63ffffffff168561330b866001614779565b8151811061331b5761331b614850565b016020015161332f9060f81c610100614e99565b63ffffffff1686868151811061334757613347614850565b0160200151613359919060f81c614779565b6133639190614779565b612ab89190614779565b816040141561251d5783613382846007614779565b8151811061339257613392614850565b01602001516133ac9060f81c670100000000000000614ebc565b6001600160401b0316846133c1856006614779565b815181106133d1576133d1614850565b01602001516133ea9060f81c6601000000000000614ebc565b6001600160401b0316856133ff866005614779565b8151811061340f5761340f614850565b01602001516134279060f81c65010000000000614ebc565b6001600160401b03168661343c876004614779565b8151811061344c5761344c614850565b01602001516134639060f81c640100000000614ebc565b6001600160401b031687613478886003614779565b8151811061348857613488614850565b016020015161349e9060f81c6301000000614ebc565b6001600160401b0316886134b3896002614779565b815181106134c3576134c3614850565b01602001516134d89060f81c62010000614ebc565b6001600160401b0316896134ed8a6001614779565b815181106134fd576134fd614850565b01602001516135119060f81c610100614ebc565b6001600160401b03168a8a8151811061352c5761352c614850565b016020015161353e919060f81c614779565b6135489190614779565b6135529190614779565b61355c9190614779565b6133599190614779565b60008160721480156135a657508361357f846000614779565b8151811061358f5761358f614850565b6020910101516001600160f81b031916603b60f91b145b80156135e05750836135b9846001614779565b815181106135c9576135c9614850565b6020910101516001600160f81b031916602160f81b145b801561361a5750836135f3846023614779565b8151811061360357613603614850565b6020910101516001600160f81b031916602b60fa1b145b801561365457508361362d846024614779565b8151811061363d5761363d614850565b6020910101516001600160f81b031916606360f81b145b801561368e575083613667846025614779565b8151811061367757613677614850565b6020910101516001600160f81b031916607560f81b145b80156136c85750836136a1846026614779565b815181106136b1576136b1614850565b6020910101516001600160f81b031916605560f91b145b80156137025750836136db846027614779565b815181106136eb576136eb614850565b6020910101516001600160f81b031916600160fd1b145b801561373c575083613715846048614779565b8151811061372557613725614850565b6020910101516001600160f81b031916601160fb1b145b801561377657508361374f846049614779565b8151811061375f5761375f614850565b6020910101516001600160f81b031916606760f81b145b80156137b057508361378984604a614779565b8151811061379957613799614850565b6020910101516001600160f81b031916602160f81b145b80156137ea5750836137c384606c614779565b815181106137d3576137d3614850565b6020910101516001600160f81b03191660ad60f81b145b80156138245750836137fd84606d614779565b8151811061380d5761380d614850565b6020910101516001600160f81b031916602960f91b145b801561385e57508361383784606e614779565b8151811061384757613847614850565b6020910101516001600160f81b031916605960f91b145b801561389857508361387184606f614779565b8151811061388157613881614850565b6020910101516001600160f81b031916607560f81b145b80156138d25750836138ab846070614779565b815181106138bb576138bb614850565b6020910101516001600160f81b031916600d60fb1b145b8015612dd85750836138e5846071614779565b815181106138f5576138f5614850565b6020910101516001600160f81b031916605160f81b14949350505050565b6000816019148015613949575083838151811061393257613932614850565b6020910101516001600160f81b031916603b60f91b145b801561398357508361395c846001614779565b8151811061396c5761396c614850565b6020910101516001600160f81b03191660a960f81b145b80156139bd575083613996846002614779565b815181106139a6576139a6614850565b6020910101516001600160f81b031916600560fa1b145b80156139f75750836139d0846017614779565b815181106139e0576139e0614850565b6020910101516001600160f81b031916601160fb1b145b8015612dd8575083613a0a846018614779565b81518110613a1a57613a1a614850565b6020910101516001600160f81b031916602b60fa1b14949350505050565b6000816017148015613a78575083613a51846000614779565b81518110613a6157613a61614850565b6020910101516001600160f81b03191660a960f81b145b8015613ab2575083613a8b846001614779565b81518110613a9b57613a9b614850565b6020910101516001600160f81b031916600560fa1b145b8015612dd8575083613ac5846016614779565b81518110613ad557613ad5614850565b6020910101516001600160f81b031916608760f81b14949350505050565b6000816022148015613b33575083613b0c846000614779565b81518110613b1c57613b1c614850565b6020910101516001600160f81b031916603560f91b145b8015612dd8575083613b46846001614779565b81518110613b5657613b56614850565b6020910101516001600160f81b031916600160fd1b14949350505050565b80516000908290613b885750600092915050565b50506020015190565b60606001600160ff1b03821115613bea5760405162461bcd60e51b815260206004820152601760248201527f56616c75652065786365656473207468652072616e676500000000000000000060448201526064016106a5565b60405190506020815281602082015260408101604052919050565b60008215801590613c165750818314155b8015613c2157508115155b613c5e5760405162461bcd60e51b815260206004820152600e60248201526d24b73b30b634b210373ab6b132b960911b60448201526064016106a5565b6000600183825b8615613cc657613c758783614e64565b9050828680613c8657613c86614cf8565b8780613c9457613c94614cf8565b858409613ca19089614c6b565b8608909450925086613cb38183614e45565b613cbd9084614c6b565b97509150613c65565b509195945050505050565b600082613ce057506000611d55565b81613ced57506001611d55565b6001600160ff1b5b8015612d46576401000003d0198185161515860a6401000003d0198485090991506401000003d0196002820485161515860a6401000003d0198485090991506401000003d0196004820485161515860a6401000003d0198485090991506401000003d0196008820485161515860a6401000003d01984850909915060109004613cf5565b6000808086613d8f575084915083905082613de8565b8660008060015b8315613ddf576001841615613dbb57613db38383838d8d8d613e6a565b919450925090505b613dc6600285614e64565b9350613dd38a8a8a6140ff565b919b5099509750613d96565b91955093509150505b9450945094915050565b6000806000806000878b1415613e36576401000003d019878b08613e1f5760008094509450505050613e5f565b613e2a8b8b8b6140ff565b91945092509050613e4c565b613e448b8b8b8b8b8b613e6a565b919450925090505b613e57838383614203565b945094505050505b965096945050505050565b6000808088158015613e7a575087155b15613e8c5750849150839050826140f3565b85158015613e98575084155b15613eaa5750879150869050856140f3565b613eb26143c2565b6401000003d0198889098082526401000003d01990890960208201526401000003d019858009604082018190526401000003d0199086096060820152604080516080810182529082015181906401000003d019908d0981526020016401000003d01983600360200201518c0981526020016401000003d01983600060200201518a0981526020016401000003d01983600160200201518909905260408101518151919250141580613f6b57506060810151602082015114155b613fb75760405162461bcd60e51b815260206004820152601e60248201527f557365206a6163446f75626c652066756e6374696f6e20696e7374656164000060448201526064016106a5565b613fbf6143c2565b81516401000003d01990613fd39082614c6b565b604084015108815260208201516401000003d01990613ff29082614c6b565b606084015108602082015280516401000003d0199080096040820181905281516401000003d0199109606082018190526000906401000003d019906140379082614c6b565b60208401516401000003d01990800908604083015184519192506401000003d019918291829109600209614071906401000003d019614c6b565b8208905060006401000003d0198061408f846401000003d019614c6b565b604086015187516401000003d0199190090860208501510990506401000003d0198084600360200201518660016020020151096140d2906401000003d019614c6b565b8208905060006401000003d019808a8e098551099297509095509093505050505b96509650969350505050565b6000808083614115575084915083905082612a3a565b60006401000003d019878809905060006401000003d019878809905060006401000003d019878809905060006401000003d01980848c09600409905060006401000003d019806401000003d0198586096000096401000003d019876003090890506401000003d01980838408614191906401000003d019614c6b565b6401000003d0198384090894506401000003d019806401000003d0198687096008096141c3906401000003d019614c6b565b6401000003d019806141db896401000003d019614c6b565b860884090893506401000003d019808a8c09600209949b939a50939850919650505050505050565b6000806000614218846401000003d019613c05565b905060006401000003d019828309905060006401000003d019828909905060006401000003d0198084860989099199919850909650505050505050565b60405180604001604052806002905b6040805160808101825260008082526020808301829052928201819052606082015282526000199092019101816142645790505090565b60405180604001604052806002905b60408051808201909152600080825260208201528152602001906001900390816142aa5790505090565b60405180604001604052806002905b61430a6040518060600160405280600060ff16815260200160608152602001606081525090565b8152602001906001900390816142e35790505090565b60405180604001604052806002906020820280368337509192915050565b82805461434a9061497d565b90600052602060002090601f01602090048101928261436c57600085556143b2565b82601f1061438557805160ff19168380011785556143b2565b828001600101855582156143b2579182015b828111156143b2578251825591602001919060010190614397565b506143be9291506143e0565b5090565b60405180608001604052806004906020820280368337509192915050565b5b808211156143be57600081556001016143e1565b634e487b7160e01b600052604160045260246000fd5b60006001600160401b0380841115614425576144256143f5565b604051601f8501601f19908116603f0116810190828211818310171561444d5761444d6143f5565b8160405280935085815286868601111561446657600080fd5b858560208301376000602087830101525050509392505050565b60006020828403121561449257600080fd5b81356001600160401b038111156144a857600080fd5b8201601f810184136144b957600080fd5b612dd88482356020840161440b565b600082601f8301126144d957600080fd5b61251d8383356020850161440b565b600080604083850312156144fb57600080fd5b82356001600160401b038082111561451257600080fd5b61451e868387016144c8565b9350602085013591508082111561453457600080fd5b50614541858286016144c8565b9150509250929050565b60006020828403121561455d57600080fd5b81356001600160401b0381111561457357600080fd5b612dd8848285016144c8565b60005b8381101561459a578181015183820152602001614582565b838111156145a9576000848401525b50505050565b600081518084526145c781602086016020860161457f565b601f01601f19169290920160200192915050565b60006101008a83528060208401526145f58184018b6145af565b6001600160e01b03198a1660408501528381036060850152905061461981896145af565b9050828103608084015261462d81886145af565b905082810360a084015261464181876145af565b60c0840195909552505060e001529695505050505050565b80356001600160e01b03198116811461467157600080fd5b919050565b600080600080600080600080610100898b03121561469357600080fd5b8835975060208901356001600160401b03808211156146b157600080fd5b6146bd8c838d016144c8565b98506146cb60408c01614659565b975060608b01359150808211156146e157600080fd5b6146ed8c838d016144c8565b965060808b013591508082111561470357600080fd5b61470f8c838d016144c8565b955060a08b013591508082111561472557600080fd5b506147328b828c016144c8565b93505060c0890135915060e089013590509295985092959890939650565b60208152600061251d60208301846145af565b634e487b7160e01b600052601160045260246000fd5b6000821982111561478c5761478c614763565b500190565b600082516147a381846020870161457f565b9190910192915050565b6000602082840312156147bf57600080fd5b5051919050565b60208082526025908201527f436f6d6d69746d656e74207472616e73616374696f6e206f662050206973206c6040820152641bd8dad95960da1b606082015260800190565b60208082526025908201527f436f6d6d69746d656e74207472616e73616374696f6e206f662056206973206c6040820152641bd8dad95960da1b606082015260800190565b634e487b7160e01b600052603260045260246000fd5b6020808252603f908201527f50277320636f6d6d69746d656e74207472616e73616374696f6e20646f65732060408201527f6e6f742068617264636f646520562773207265766f636174696f6e206b657900606082015260800190565b6020808252603a908201527f416d6f756e74206d69736d61746368206265747765656e207032706b68206f6660408201527f205020616e64206c696768746e696e672048544c43206f662056000000000000606082015260800190565b6020808252603a908201527f416d6f756e74206d69736d61746368206265747765656e207032706b68206f6660408201527f205620616e64206c696768746e696e672048544c43206f662050000000000000606082015260800190565b600181811c9082168061499157607f821691505b602082108114156149b257634e487b7160e01b600052602260045260246000fd5b50919050565b6001600160601b031991909116815260140190565b60208082526054908201527f546865207032706b6820696e2056277320756e6c6f636b656420636f6d6d697460408201527f6d656e74207472616e73616374696f6e20646f6573206e6f7420636f72726573606082015273706f6e6420746f2050726f7665722773206f6e6560601b608082015260a00190565b60208082526041908201527f50277320636f6d6d69746d656e74207472616e73616374696f6e20646f65732060408201527f6e6f74207370656e64207468652066756e64696e67207472616e73616374696f6060820152603760f91b608082015260a00190565b60208082526041908201527f56277320636f6d6d69746d656e74207472616e73616374696f6e20646f65732060408201527f6e6f74207370656e64207468652066756e64696e67207472616e73616374696f6060820152603760f91b608082015260a00190565b600080835481600182811c915080831680614b3157607f831692505b6020808410821415614b5157634e487b7160e01b86526022600452602486fd5b818015614b655760018114614b7657614ba3565b60ff19861689528489019650614ba3565b60008a81526020902060005b86811015614b9b5781548b820152908501908301614b82565b505084890196505b509498975050505050505050565b60208082526037908201527f496e76616c6964207369676e6174757265206f662056206f76657220636f6d6d60408201527f69746d656e74207472616e73616374696f6e206f662050000000000000000000606082015260800190565b60208082526037908201527f496e76616c6964207369676e6174757265206f662050206f76657220636f6d6d60408201527f69746d656e74207472616e73616374696f6e206f662056000000000000000000606082015260800190565b600082821015614c7d57614c7d614763565b500390565b805160208201516001600160e01b03198082169291906004831015614cb15780818460040360031b1b83161693505b505050919050565b6000600019821415614ccd57614ccd614763565b5060010190565b805160208083015191908110156149b25760001960209190910360031b1b16919050565b634e487b7160e01b600052601260045260246000fd5b600082614d1d57614d1d614cf8565b500690565b60008551614d34818460208a0161457f565b855190830190614d48818360208a0161457f565b8551910190614d5b81836020890161457f565b8451910190614d6e81836020880161457f565b019695505050505050565b600060ff821660ff841680821015614d9357614d93614763565b90039392505050565b60006001600160a01b0383811690831681811015614dbc57614dbc614763565b039392505050565b60006001600160a01b0382811684821681151582840482111615614dea57614dea614763565b02949350505050565b60006001600160a01b03828116848216808303821115614e1557614e15614763565b01949350505050565b60006001600160a01b0382811680821415614e3b57614e3b614763565b6001019392505050565b6000816000190483118215151615614e5f57614e5f614763565b500290565b600082614e7357614e73614cf8565b500490565b600061ffff80831681851681830481118215151615614dea57614dea614763565b600063ffffffff80831681851681830481118215151615614dea57614dea614763565b60006001600160401b0380831681851681830481118215151615614dea57614dea61476356fe7cb76fce4caeb1fe1b0dd56de53b408af770b76cf5e9c88a1e2568a7d1e9889fa26469706673582212201fa99bac6b3de96b1c5f9bdcf915e7ee13fec7285eb9e06b634a7eb245a1c2ed64736f6c63430008090033",
  "linkReferences": {},
  "deployedLinkReferences": {}
}