{
  "_format": "hh-sol-artifact-1",
  "contractName": "LNBridge",
  "sourceName": "contracts/LNBridge.sol",
  "abi": [
    {
      "inputs": [],
      "name": "bridge",
      "outputs": [
        {
          "internalType": "bytes32",
          "name": "fundingTxId",
          "type": "bytes32"
        },
        {
          "internalType": "bytes32",
          "name": "pkProver",
          "type": "bytes32"
        },
        {
          "internalType": "bytes32",
          "name": "pkVerifier",
          "type": "bytes32"
        },
        {
          "internalType": "uint256",
          "name": "index",
          "type": "uint256"
        },
        {
          "internalType": "uint256",
          "name": "timelock",
          "type": "uint256"
        },
        {
          "internalType": "uint256",
          "name": "timelock_dispute",
          "type": "uint256"
        }
      ],
      "stateMutability": "view",
      "type": "function"
    },
    {
      "inputs": [
        {
          "internalType": "bytes",
          "name": "rawTxP_locked",
          "type": "bytes"
        },
        {
          "internalType": "bytes",
          "name": "sigV",
          "type": "bytes"
        },
        {
          "internalType": "bytes",
          "name": "rawTxV_unlocked",
          "type": "bytes"
        },
        {
          "internalType": "bytes",
          "name": "sigP",
          "type": "bytes"
        }
      ],
      "name": "dispute",
      "outputs": [],
      "stateMutability": "nonpayable",
      "type": "function"
    },
    {
      "inputs": [
        {
          "internalType": "bytes",
          "name": "_txBytes",
          "type": "bytes"
        }
      ],
      "name": "getInputsData",
      "outputs": [
        {
          "components": [
            {
              "internalType": "uint256",
              "name": "number_of_inputs",
              "type": "uint256"
            },
            {
              "internalType": "bytes32",
              "name": "txid",
              "type": "bytes32"
            },
            {
              "internalType": "bytes4",
              "name": "inputIndex",
              "type": "bytes4"
            }
          ],
          "internalType": "struct LNBridge.Input",
          "name": "",
          "type": "tuple"
        }
      ],
      "stateMutability": "view",
      "type": "function"
    },
    {
      "inputs": [
        {
          "internalType": "bytes",
          "name": "_txBytes",
          "type": "bytes"
        }
      ],
      "name": "getOutputsData",
      "outputs": [
        {
          "components": [
            {
              "internalType": "uint256",
              "name": "value",
              "type": "uint256"
            },
            {
              "internalType": "bytes32",
              "name": "pk1",
              "type": "bytes32"
            },
            {
              "internalType": "bytes32",
              "name": "pk2",
              "type": "bytes32"
            },
            {
              "internalType": "bytes32",
              "name": "rev_secret",
              "type": "bytes32"
            }
          ],
          "internalType": "struct LNBridge.LightningHTLCData",
          "name": "",
          "type": "tuple"
        },
        {
          "components": [
            {
              "internalType": "uint256",
              "name": "value",
              "type": "uint256"
            },
            {
              "internalType": "bytes20",
              "name": "pkhash",
              "type": "bytes20"
            }
          ],
          "internalType": "struct LNBridge.P2PKHData",
          "name": "",
          "type": "tuple"
        },
        {
          "components": [
            {
              "internalType": "uint256",
              "name": "value",
              "type": "uint256"
            },
            {
              "internalType": "bytes32",
              "name": "data",
              "type": "bytes32"
            }
          ],
          "internalType": "struct LNBridge.OpReturnData",
          "name": "",
          "type": "tuple"
        }
      ],
      "stateMutability": "view",
      "type": "function"
    },
    {
      "inputs": [
        {
          "internalType": "bytes",
          "name": "_txBytes",
          "type": "bytes"
        }
      ],
      "name": "getSignatures",
      "outputs": [
        {
          "components": [
            {
              "internalType": "uint8",
              "name": "v",
              "type": "uint8"
            },
            {
              "internalType": "bytes32",
              "name": "r",
              "type": "bytes32"
            },
            {
              "internalType": "bytes32",
              "name": "s",
              "type": "bytes32"
            }
          ],
          "internalType": "struct LNBridge.Signature[]",
          "name": "",
          "type": "tuple[]"
        }
      ],
      "stateMutability": "nonpayable",
      "type": "function"
    },
    {
      "inputs": [
        {
          "internalType": "bytes",
          "name": "_txBytes",
          "type": "bytes"
        }
      ],
      "name": "getTimelock",
      "outputs": [
        {
          "internalType": "bytes4",
          "name": "",
          "type": "bytes4"
        }
      ],
      "stateMutability": "view",
      "type": "function"
    },
    {
      "inputs": [
        {
          "internalType": "bytes",
          "name": "oldRevSecret",
          "type": "bytes"
        },
        {
          "internalType": "bytes",
          "name": "rawTxP_unlocked",
          "type": "bytes"
        },
        {
          "internalType": "bytes",
          "name": "sigV",
          "type": "bytes"
        }
      ],
      "name": "resolveDispute",
      "outputs": [],
      "stateMutability": "nonpayable",
      "type": "function"
    },
    {
      "inputs": [],
      "name": "settle",
      "outputs": [],
      "stateMutability": "nonpayable",
      "type": "function"
    },
    {
      "inputs": [
        {
          "internalType": "bytes32",
          "name": "_fundingTxId",
          "type": "bytes32"
        },
        {
          "internalType": "bytes32",
          "name": "_pkProver",
          "type": "bytes32"
        },
        {
          "internalType": "bytes32",
          "name": "_pkVerifier",
          "type": "bytes32"
        },
        {
          "internalType": "uint256",
          "name": "_index",
          "type": "uint256"
        },
        {
          "internalType": "uint256",
          "name": "_timelock",
          "type": "uint256"
        }
      ],
      "name": "setup",
      "outputs": [],
      "stateMutability": "nonpayable",
      "type": "function"
    },
    {
      "inputs": [
        {
          "internalType": "bytes",
          "name": "rawTxP_unlocked",
          "type": "bytes"
        },
        {
          "internalType": "bytes",
          "name": "sigV",
          "type": "bytes"
        },
        {
          "internalType": "bytes",
          "name": "rawTxV_unlocked",
          "type": "bytes"
        },
        {
          "internalType": "bytes",
          "name": "sigP",
          "type": "bytes"
        }
      ],
      "name": "submitProof",
      "outputs": [],
      "stateMutability": "nonpayable",
      "type": "function"
    },
    {
      "inputs": [
        {
          "internalType": "uint256",
          "name": "digest",
          "type": "uint256"
        },
        {
          "internalType": "uint8",
          "name": "v",
          "type": "uint8"
        },
        {
          "internalType": "uint256",
          "name": "r",
          "type": "uint256"
        },
        {
          "internalType": "uint256",
          "name": "s",
          "type": "uint256"
        }
      ],
      "name": "verifyBTCSignature",
      "outputs": [
        {
          "internalType": "bytes",
          "name": "",
          "type": "bytes"
        }
      ],
      "stateMutability": "view",
      "type": "function"
    },
    {
      "inputs": [
        {
          "internalType": "bytes32",
          "name": "message",
          "type": "bytes32"
        },
        {
          "internalType": "bytes",
          "name": "signature",
          "type": "bytes"
        }
      ],
      "name": "verifyETHSignature",
      "outputs": [
        {
          "internalType": "address",
          "name": "",
          "type": "address"
        }
      ],
      "stateMutability": "view",
      "type": "function"
    }
  ],
  "bytecode": "0x608060405234801561001057600080fd5b5061502b806100206000396000f3fe608060405234801561001057600080fd5b50600436106100b45760003560e01c80634f500ea9116100715780634f500ea9146101795780635933bf61146101a95780635cf157e7146101d95780636b45b4e31461020957806379a85bd914610239578063e78cea9214610255576100b4565b806306ac0e26146100b957806311da60b4146100d557806336946480146100df5780633740d2491461010f57806343f104d21461012b578063497c6cf614610147575b600080fd5b6100d360048036038101906100ce9190613c0c565b610278565b005b6100dd6102b0565b005b6100f960048036038101906100f49190613dcd565b6102b2565b6040516101069190613e51565b60405180910390f35b61012960048036038101906101249190613e6c565b6102e8565b005b61014560048036038101906101409190613e6c565b6102ee565b005b610161600480360381019061015c9190613dcd565b6102f4565b6040516101709392919061404f565b60405180910390f35b610193600480360381019061018e9190613dcd565b61059b565b6040516101a091906140d8565b60405180910390f35b6101c360048036038101906101be919061412c565b610696565b6040516101d09190614212565b60405180910390f35b6101f360048036038101906101ee9190614234565b6106e5565b60405161020091906142d1565b60405180910390f35b610223600480360381019061021e9190613dcd565b6106fe565b60405161023091906143ec565b60405180910390f35b610253600480360381019061024e919061440e565b61070a565b005b61025d61070f565b60405161026f969594939291906144d3565b60405180910390f35b846000800181905550836000600101819055508260006002018190555081600060030181905550806000600401819055505050505050565b565b6000808251905060006102d3846005846102cc9190614563565b6004610739565b6102dc906145c9565b90508092505050919050565b50505050565b50505050565b6102fc613a77565b610304613aa8565b61030c613ad1565b610314613a77565b61031c613ad1565b610324613aa8565b61032c613aee565b60048160000181815250506103478882600001516000610857565b82602001836000018281525082905250506103688882600001516000610969565b84608001856060018660400187600001848152508490528490528490525050505060005b60038110156105865760008103610428576103e489836060015183815181106103b8576103b7614630565b5b6020026020010151846040015184815181106103d7576103d6614630565b5b6020026020010151610b60565b8760200188606001896040018381525083815250838152505050508160800151818151811061041657610415614630565b5b60200260200101518560000181815250505b600181036104f2576104a061047a8a8460600151848151811061044e5761044d614630565b5b60200260200101518560400151858151811061046d5761046c614630565b5b6020026020010151610c1c565b60405160200161048a9190614680565b6040516020818303038152906040526000610df6565b83602001906bffffffffffffffffffffffff191690816bffffffffffffffffffffffff191681525050816080015181815181106104e0576104df614630565b5b60200260200101518360000181815250505b6002810361057357610541898360600151838151811061051557610514614630565b5b60200260200101518460400151848151811061053457610533614630565b5b6020026020010151610c1c565b8460200181815250508160800151818151811061056157610560614630565b5b60200260200101518460000181815250505b808061057e9061469b565b91505061038c565b50838284965096509650505050509193909250565b6105a3613b1d565b6105ab613b1d565b6105b6836004610ed9565b508160000181815250506105cd8360256004610739565b6105d6906145c9565b81604001907bffffffffffffffffffffffffffffffffffffffffffffffffffffffff191690817bffffffffffffffffffffffffffffffffffffffffffffffffffffffff19168152505061063d61062f8460056025610739565b610638906146f8565b610fc1565b816020018181525050600181600001511461068d576040517f08c379a0000000000000000000000000000000000000000000000000000000008152600401610684906147bc565b60405180910390fd5b80915050919050565b60606000806106b387601b886106ac91906147dc565b87876110bf565b9150915081816040516020016106ca929190614832565b60405160208183030381529060405292505050949350505050565b6000806106f284846114d1565b90508091505092915050565b60608080915050919050565b505050565b60008060000154908060010154908060020154908060030154908060040154908060050154905086565b606081601f83610749919061485e565b101561078a576040517f08c379a0000000000000000000000000000000000000000000000000000000008152600401610781906148de565b60405180910390fd5b8183610796919061485e565b845110156107d9576040517f08c379a00000000000000000000000000000000000000000000000000000000081526004016107d09061494a565b60405180910390fd5b60608215600081146107fa576040519150600082526020820160405261084b565b6040519150601f8416801560200281840101858101878315602002848b0101015b81831015610838578051835260208301925060208101905061081b565b50868552601f19601f8301166040525050505b50809150509392505050565b60606000806000806108698888610ed9565b8098508194505050600086148061087f57508286115b1561088c57829150610890565b8591505b60008267ffffffffffffffff8111156108ac576108ab613ca2565b5b6040519080825280602002602001820160405280156108da5781602001602082028036833780820191505090505b50905060005b83811015610956576024896108f5919061485e565b98506109018a8a610ed9565b809a5081945050508282828151811061091d5761091c614630565b5b602002602001018181525050600483610936919061485e565b89610941919061485e565b9850808061094e9061469b565b9150506108e0565b5080889550955050505050935093915050565b606080606060008060008061097e8a8a610ed9565b809a508194505050600088148061099457508288115b156109a1578291506109a5565b8791505b60008267ffffffffffffffff8111156109c1576109c0613ca2565b5b6040519080825280602002602001820160405280156109ef5781602001602082028036833780820191505090505b50905060008367ffffffffffffffff811115610a0e57610a0d613ca2565b5b604051908082528060200260200182016040528015610a3c5781602001602082028036833780820191505090505b50905060008467ffffffffffffffff811115610a5b57610a5a613ca2565b5b604051908082528060200260200182016040528015610a895781602001602082028036833780820191505090505b50905060005b85811015610b4457610aa38e8e604061159a565b828281518110610ab657610ab5614630565b5b60200260200101818152505060088d610acf919061485e565b9c50610adb8e8e610ed9565b809e5081965050508c848281518110610af757610af6614630565b5b60200260200101818152505084838281518110610b1757610b16614630565b5b602002602001018181525050848d610b2f919061485e565b9c508080610b3c9061469b565b915050610a8f565b508083838e995099509950995050505050505093509350935093565b6000806000610b70868686611a05565b15610c0057610bb36040518060400160405280601b81526020017f506172736564204c696768746e696e6748544c43206f75747075740000000000815250611fb4565b610bc986600387610bc4919061485e565b61204d565b610bdf87602888610bda919061485e565b61204d565b610bf588604c89610bf0919061485e565b61204d565b925092509250610c13565b6000801b6000801b6000801b9250925092505b93509350939050565b6000610c298484846120d8565b15610c9857610c6c6040518060400160405280601381526020017f506172736564205032504b48206f757470757400000000000000000000000000815250611fb4565b610c8284600385610c7d919061485e565b610df6565b6bffffffffffffffffffffffff19169050610def565b610ca384848461229d565b15610d1257610ce66040518060400160405280601281526020017f5061727365642050325348206f75747075740000000000000000000000000000815250611fb4565b610cfc84600285610cf7919061485e565b610df6565b6bffffffffffffffffffffffff19169050610def565b610d1d8484846123ba565b15610d7d57610d606040518060400160405280601781526020017f506172736564204f505f52455455524e206f7574707574000000000000000000815250611fb4565b610d7684600285610d71919061485e565b61204d565b9050610def565b610d88848484611a05565b15610de857610dcb6040518060400160405280601b81526020017f506172736564204c696768746e696e6748544c43206f75747075740000000000815250611fb4565b610de184600285610ddc919061485e565b61204d565b9050610def565b6000801b90505b9392505050565b6000806000905060005b60148173ffffffffffffffffffffffffffffffffffffffff161015610ecb57806013610e2c919061496a565b6008610e3891906149b2565b73ffffffffffffffffffffffffffffffffffffffff1685858373ffffffffffffffffffffffffffffffffffffffff16610e71919061485e565b81518110610e8257610e81614630565b5b602001015160f81c60f81b60f81c60ff1673ffffffffffffffffffffffffffffffffffffffff16901b82610eb691906149f4565b91508080610ec390614a3c565b915050610e00565b508060601b91505092915050565b6000806000848481518110610ef157610ef0614630565b5b602001015160f81c60f81b60f81c9050600184610f0e919061485e565b935060fd8160ff161015610f2e5780848160ff1691509250925050610fba565b60fd8160ff1603610f5c57610f458585601061159a565b600285610f52919061485e565b9250925050610fba565b60fe8160ff1603610f8a57610f738585602061159a565b600485610f80919061485e565b9250925050610fba565b60ff8160ff1603610fb857610fa18585604061159a565b600885610fae919061485e565b9250925050610fba565b505b9250929050565b600080602060ff1667ffffffffffffffff811115610fe257610fe1613ca2565b5b6040519080825280601f01601f1916602001820160405280156110145781602001600182028036833780820191505090505b50905060005b602060ff168110156110ad5783816020811061103957611038614630565b5b1a60f81b82600183602060ff166110509190614563565b61105a9190614563565b8151811061106b5761106a614630565b5b60200101907effffffffffffffffffffffffffffffffffffffffffffffffffffffffffffff1916908160001a90535080806110a59061469b565b91505061101a565b506110b78161247d565b915050919050565b60008060007ffffffffffffffffffffffffffffffffffffffffffffffffffffffffefffffc2f806110f3576110f2614a78565b5b60018760ff16901c60ff167ffffffffffffffffffffffffffffffffffffffffffffffffffffffffefffffc2f6111299190614aa7565b860890507ffffffffffffffffffffffffffffffffffffffffffffffffffffffffefffffc2f81118061117a57507ffffffffffffffffffffffffffffffffebaaedce6af48a03bbfd25e8cd036414184115b806111a457507ffffffffffffffffffffffffffffffffebaaedce6af48a03bbfd25e8cd036414185115b806111af5750600084145b806111ba5750600085145b806111c8575060018660ff16115b156111da5760008092509250506114c8565b6000611206867ffffffffffffffffffffffffffffffffebaaedce6af48a03bbfd25e8cd03641416124a6565b905060007ffffffffffffffffffffffffffffffffffffffffffffffffffffffffefffffc2f8061123957611238614a78565b5b7ffffffffffffffffffffffffffffffffffffffffffffffffffffffffefffffc2f8061126857611267614a78565b5b60077ffffffffffffffffffffffffffffffffffffffffffffffffffffffffefffffc2f8061129957611298614a78565b5b60008709087ffffffffffffffffffffffffffffffffffffffffffffffffffffffffefffffc2f806112cd576112cc614a78565b5b7ffffffffffffffffffffffffffffffffffffffffffffffffffffffffefffffc2f806112fc576112fb614a78565b5b868709860908905061134681600460017ffffffffffffffffffffffffffffffffffffffffffffffffffffffffefffffc2f611337919061485e565b6113419190614ae9565b612592565b9050600080600160028b60ff168561135e919061485e565b611368919061485e565b161461139f57817ffffffffffffffffffffffffffffffffffffffffffffffffffffffffefffffc2f61139a9190614563565b6113a1565b815b905060008060006114517ffffffffffffffffffffffffffffffffebaaedce6af48a03bbfd25e8cd0364141806113da576113d9614a78565b5b8e7ffffffffffffffffffffffffffffffffebaaedce6af48a03bbfd25e8cd03641416114069190614563565b88097f79be667ef9dcbbac55a06295ce870b07029bfcdb2dce28d959f2815b16f817987f483ada7726a3c4655da4fbfc0e1108a8fd17b448a68554199c47d08ffb10d4b86001612746565b925092509250600080600061149a7ffffffffffffffffffffffffffffffffebaaedce6af48a03bbfd25e8cd03641418061148e5761148d614a78565b5b8e8b098b896001612746565b9250925092506000806114b18888888888886127e0565b9150915081819d509d505050505050505050505050505b94509492505050565b6000604182510361152b5760008060006020850151925060408501519150606085015160001a9050601b8160ff16101561151557601b816115129190614b1a565b90505b6115218682858561288c565b9350505050611594565b6040825103611559576000806020840151915060408401519050611550858383612a16565b92505050611594565b6040517f08c379a000000000000000000000000000000000000000000000000000000000815260040161158b90614b9b565b60405180910390fd5b92915050565b6000600882036115cf578383815181106115b7576115b6614630565b5b602001015160f81c60f81b60f81c60ff1690506119fe565b6010820361165157610100846001856115e8919061485e565b815181106115f9576115f8614630565b5b602001015160f81c60f81b60f81c60ff166116149190614bc9565b61ffff1684848151811061162b5761162a614630565b5b602001015160f81c60f81b60f81c60ff1661ffff1661164a919061485e565b90506119fe565b602082036117745763010000008460038561166c919061485e565b8151811061167d5761167c614630565b5b602001015160f81c60f81b60f81c60ff166116989190614c16565b63ffffffff1662010000856002866116b0919061485e565b815181106116c1576116c0614630565b5b602001015160f81c60f81b60f81c60ff166116dc9190614c16565b63ffffffff16610100866001876116f3919061485e565b8151811061170457611703614630565b5b602001015160f81c60f81b60f81c60ff1661171f9190614c16565b63ffffffff1686868151811061173857611737614630565b5b602001015160f81c60f81b60f81c60ff1663ffffffff16611759919061485e565b611763919061485e565b61176d919061485e565b90506119fe565b604082036119fd5767010000000000000084600785611793919061485e565b815181106117a4576117a3614630565b5b602001015160f81c60f81b60f81c60ff166117bf9190614c67565b67ffffffffffffffff166601000000000000856006866117df919061485e565b815181106117f0576117ef614630565b5b602001015160f81c60f81b60f81c60ff1661180b9190614c67565b67ffffffffffffffff16650100000000008660058761182a919061485e565b8151811061183b5761183a614630565b5b602001015160f81c60f81b60f81c60ff166118569190614c67565b67ffffffffffffffff1664010000000087600488611874919061485e565b8151811061188557611884614630565b5b602001015160f81c60f81b60f81c60ff166118a09190614c67565b67ffffffffffffffff166301000000886003896118bd919061485e565b815181106118ce576118cd614630565b5b602001015160f81c60f81b60f81c60ff166118e99190614c67565b67ffffffffffffffff16620100008960028a611905919061485e565b8151811061191657611915614630565b5b602001015160f81c60f81b60f81c60ff166119319190614c67565b67ffffffffffffffff166101008a60018b61194c919061485e565b8151811061195d5761195c614630565b5b602001015160f81c60f81b60f81c60ff166119789190614c67565b67ffffffffffffffff168a8a8151811061199557611994614630565b5b602001015160f81c60f81b60f81c60ff1667ffffffffffffffff166119ba919061485e565b6119c4919061485e565b6119ce919061485e565b6119d8919061485e565b6119e2919061485e565b6119ec919061485e565b6119f6919061485e565b90506119fe565b5b9392505050565b6000607282148015611a655750607660f81b84600085611a25919061485e565b81518110611a3657611a35614630565b5b602001015160f81c60f81b7effffffffffffffffffffffffffffffffffffffffffffffffffffffffffffff1916145b8015611abf5750602160f81b84600185611a7f919061485e565b81518110611a9057611a8f614630565b5b602001015160f81c60f81b7effffffffffffffffffffffffffffffffffffffffffffffffffffffffffffff1916145b8015611b19575060ac60f81b84602385611ad9919061485e565b81518110611aea57611ae9614630565b5b602001015160f81c60f81b7effffffffffffffffffffffffffffffffffffffffffffffffffffffffffffff1916145b8015611b735750606360f81b84602485611b33919061485e565b81518110611b4457611b43614630565b5b602001015160f81c60f81b7effffffffffffffffffffffffffffffffffffffffffffffffffffffffffffff1916145b8015611bcd5750607560f81b84602585611b8d919061485e565b81518110611b9e57611b9d614630565b5b602001015160f81c60f81b7effffffffffffffffffffffffffffffffffffffffffffffffffffffffffffff1916145b8015611c27575060aa60f81b84602685611be7919061485e565b81518110611bf857611bf7614630565b5b602001015160f81c60f81b7effffffffffffffffffffffffffffffffffffffffffffffffffffffffffffff1916145b8015611c815750602060f81b84602785611c41919061485e565b81518110611c5257611c51614630565b5b602001015160f81c60f81b7effffffffffffffffffffffffffffffffffffffffffffffffffffffffffffff1916145b8015611cdb5750608860f81b84604885611c9b919061485e565b81518110611cac57611cab614630565b5b602001015160f81c60f81b7effffffffffffffffffffffffffffffffffffffffffffffffffffffffffffff1916145b8015611d355750606760f81b84604985611cf5919061485e565b81518110611d0657611d05614630565b5b602001015160f81c60f81b7effffffffffffffffffffffffffffffffffffffffffffffffffffffffffffff1916145b8015611d8f5750602160f81b84604a85611d4f919061485e565b81518110611d6057611d5f614630565b5b602001015160f81c60f81b7effffffffffffffffffffffffffffffffffffffffffffffffffffffffffffff1916145b8015611de9575060ad60f81b84606c85611da9919061485e565b81518110611dba57611db9614630565b5b602001015160f81c60f81b7effffffffffffffffffffffffffffffffffffffffffffffffffffffffffffff1916145b8015611e435750605260f81b84606d85611e03919061485e565b81518110611e1457611e13614630565b5b602001015160f81c60f81b7effffffffffffffffffffffffffffffffffffffffffffffffffffffffffffff1916145b8015611e9d575060b260f81b84606e85611e5d919061485e565b81518110611e6e57611e6d614630565b5b602001015160f81c60f81b7effffffffffffffffffffffffffffffffffffffffffffffffffffffffffffff1916145b8015611ef75750607560f81b84606f85611eb7919061485e565b81518110611ec857611ec7614630565b5b602001015160f81c60f81b7effffffffffffffffffffffffffffffffffffffffffffffffffffffffffffff1916145b8015611f515750606860f81b84607085611f11919061485e565b81518110611f2257611f21614630565b5b602001015160f81c60f81b7effffffffffffffffffffffffffffffffffffffffffffffffffffffffffffff1916145b8015611fab5750605160f81b84607185611f6b919061485e565b81518110611f7c57611f7b614630565b5b602001015160f81c60f81b7effffffffffffffffffffffffffffffffffffffffffffffffffffffffffffff1916145b90509392505050565b61204a81604051602401611fc89190614ce8565b6040516020818303038152906040527f41304fac000000000000000000000000000000000000000000000000000000007bffffffffffffffffffffffffffffffffffffffffffffffffffffffff19166020820180517bffffffffffffffffffffffffffffffffffffffffffffffffffffffff8381831617835250505050612a60565b50565b6000806000905060005b60208110156120ca5780601f61206d9190614563565b60086120799190614aa7565b858583612086919061485e565b8151811061209757612096614630565b5b602001015160f81c60f81b60f81c60ff16901b826120b5919061485e565b915080806120c29061469b565b915050612057565b508060001b91505092915050565b600060198214801561212c5750607660f81b8484815181106120fd576120fc614630565b5b602001015160f81c60f81b7effffffffffffffffffffffffffffffffffffffffffffffffffffffffffffff1916145b8015612186575060a960f81b84600185612146919061485e565b8151811061215757612156614630565b5b602001015160f81c60f81b7effffffffffffffffffffffffffffffffffffffffffffffffffffffffffffff1916145b80156121e05750601460f81b846002856121a0919061485e565b815181106121b1576121b0614630565b5b602001015160f81c60f81b7effffffffffffffffffffffffffffffffffffffffffffffffffffffffffffff1916145b801561223a5750608860f81b846017856121fa919061485e565b8151811061220b5761220a614630565b5b602001015160f81c60f81b7effffffffffffffffffffffffffffffffffffffffffffffffffffffffffffff1916145b8015612294575060ac60f81b84601885612254919061485e565b8151811061226557612264614630565b5b602001015160f81c60f81b7effffffffffffffffffffffffffffffffffffffffffffffffffffffffffffff1916145b90509392505050565b60006017821480156122fd575060a960f81b846000856122bd919061485e565b815181106122ce576122cd614630565b5b602001015160f81c60f81b7effffffffffffffffffffffffffffffffffffffffffffffffffffffffffffff1916145b80156123575750601460f81b84600185612317919061485e565b8151811061232857612327614630565b5b602001015160f81c60f81b7effffffffffffffffffffffffffffffffffffffffffffffffffffffffffffff1916145b80156123b15750608760f81b84601685612371919061485e565b8151811061238257612381614630565b5b602001015160f81c60f81b7effffffffffffffffffffffffffffffffffffffffffffffffffffffffffffff1916145b90509392505050565b600060228214801561241a5750606a60f81b846000856123da919061485e565b815181106123eb576123ea614630565b5b602001015160f81c60f81b7effffffffffffffffffffffffffffffffffffffffffffffffffffffffffffff1916145b80156124745750602060f81b84600185612434919061485e565b8151811061244557612444614630565b5b602001015160f81c60f81b7effffffffffffffffffffffffffffffffffffffffffffffffffffffffffffff1916145b90509392505050565b6000808290506000815103612498576000801b9150506124a1565b60208301519150505b919050565b60008083141580156124b85750818314155b80156124c5575060008214155b612504576040517f08c379a00000000000000000000000000000000000000000000000000000000081526004016124fb90614d56565b60405180910390fd5b60008060019050600084905060005b600087146125855786826125279190614ae9565b905082868061253957612538614a78565b5b878061254857612547614a78565b5b858409886125569190614563565b8608809450819550505086878261256d9190614aa7565b836125789190614563565b8098508193505050612513565b8394505050505092915050565b60008083036125a45760009050612740565b600082036125b55760019050612740565b60006001905060007f800000000000000000000000000000000000000000000000000000000000000090505b600081111561273a577ffffffffffffffffffffffffffffffffffffffffffffffffffffffffefffffc2f8185161515860a7ffffffffffffffffffffffffffffffffffffffffffffffffffffffffefffffc2f8485090991507ffffffffffffffffffffffffffffffffffffffffffffffffffffffffefffffc2f6002820485161515860a7ffffffffffffffffffffffffffffffffffffffffffffffffffffffffefffffc2f8485090991507ffffffffffffffffffffffffffffffffffffffffffffffffffffffffefffffc2f6004820485161515860a7ffffffffffffffffffffffffffffffffffffffffffffffffffffffffefffffc2f8485090991507ffffffffffffffffffffffffffffffffffffffffffffffffffffffffefffffc2f6008820485161515860a7ffffffffffffffffffffffffffffffffffffffffffffffffffffffffefffffc2f8485090991506010810490506125e1565b81925050505b92915050565b6000806000808703612760578585859250925092506127d6565b60008790506000806000600190505b600084146127c8576000600185161461279d576127908383838d8d8d612a7a565b8093508194508295505050505b6002846127aa9190614ae9565b93506127b78a8a8a6134b8565b809a50819b50829c5050505061276f565b828282965096509650505050505b9450945094915050565b6000806000806000878b036128535760007ffffffffffffffffffffffffffffffffffffffffffffffffffffffffefffffc2f806128205761281f614a78565b5b888c08036128375760008094509450505050612881565b6128428b8b8b6134b8565b80935081945082955050505061286e565b6128618b8b8b8b8b8b612a7a565b8093508194508295505050505b612879838383613935565b945094505050505b965096945050505050565b60007f7fffffffffffffffffffffffffffffff5d576e7357a4501ddfe92f46681b20a08260001c11156128f4576040517f08c379a00000000000000000000000000000000000000000000000000000000081526004016128eb90614de8565b60405180910390fd5b601b8460ff1614806129095750601c8460ff16145b612948576040517f08c379a000000000000000000000000000000000000000000000000000000000815260040161293f90614e7a565b60405180910390fd5b60006001868686866040516000815260200160405260405161296d9493929190614ea9565b6020604051602081039080840390855afa15801561298f573d6000803e3d6000fd5b505050602060405103519050600073ffffffffffffffffffffffffffffffffffffffff168173ffffffffffffffffffffffffffffffffffffffff1603612a0a576040517f08c379a0000000000000000000000000000000000000000000000000000000008152600401612a0190614f3a565b60405180910390fd5b80915050949350505050565b60008060007f7fffffffffffffffffffffffffffffffffffffffffffffffffffffffffffffff84169150601b8460ff1c019050612a558682878561288c565b925050509392505050565b612a7781612a6f613a4b613a6c565b63ffffffff16565b50565b60008060008089148015612a8e5750600088145b15612aa1578585859250925092506134ac565b600086148015612ab15750600085145b15612ac4578888889250925092506134ac565b612acc613b60565b7ffffffffffffffffffffffffffffffffffffffffffffffffffffffffefffffc2f80612afb57612afa614a78565b5b88890981600060048110612b1257612b11614630565b5b6020020181815250507ffffffffffffffffffffffffffffffffffffffffffffffffffffffffefffffc2f80612b4a57612b49614a78565b5b81600060048110612b5e57612b5d614630565b5b6020020151890981600160048110612b7957612b78614630565b5b6020020181815250507ffffffffffffffffffffffffffffffffffffffffffffffffffffffffefffffc2f80612bb157612bb0614a78565b5b85860981600260048110612bc857612bc7614630565b5b6020020181815250507ffffffffffffffffffffffffffffffffffffffffffffffffffffffffefffffc2f80612c0057612bff614a78565b5b81600260048110612c1457612c13614630565b5b6020020151860981600360048110612c2f57612c2e614630565b5b60200201818152505060405180608001604052807ffffffffffffffffffffffffffffffffffffffffffffffffffffffffefffffc2f80612c7257612c71614a78565b5b83600260048110612c8657612c85614630565b5b60200201518d0981526020017ffffffffffffffffffffffffffffffffffffffffffffffffffffffffefffffc2f80612cc157612cc0614a78565b5b83600360048110612cd557612cd4614630565b5b60200201518c0981526020017ffffffffffffffffffffffffffffffffffffffffffffffffffffffffefffffc2f80612d1057612d0f614a78565b5b83600060048110612d2457612d23614630565b5b60200201518a0981526020017ffffffffffffffffffffffffffffffffffffffffffffffffffffffffefffffc2f80612d5f57612d5e614a78565b5b83600160048110612d7357612d72614630565b5b60200201518909815250905080600260048110612d9357612d92614630565b5b602002015181600060048110612dac57612dab614630565b5b6020020151141580612dee575080600360048110612dcd57612dcc614630565b5b602002015181600160048110612de657612de5614630565b5b602002015114155b612e2d576040517f08c379a0000000000000000000000000000000000000000000000000000000008152600401612e2490614fa6565b60405180910390fd5b612e35613b60565b7ffffffffffffffffffffffffffffffffffffffffffffffffffffffffefffffc2f80612e6457612e63614a78565b5b82600060048110612e7857612e77614630565b5b60200201517ffffffffffffffffffffffffffffffffffffffffffffffffffffffffefffffc2f612ea89190614563565b83600260048110612ebc57612ebb614630565b5b60200201510881600060048110612ed657612ed5614630565b5b6020020181815250507ffffffffffffffffffffffffffffffffffffffffffffffffffffffffefffffc2f80612f0e57612f0d614a78565b5b82600160048110612f2257612f21614630565b5b60200201517ffffffffffffffffffffffffffffffffffffffffffffffffffffffffefffffc2f612f529190614563565b83600360048110612f6657612f65614630565b5b60200201510881600160048110612f8057612f7f614630565b5b6020020181815250507ffffffffffffffffffffffffffffffffffffffffffffffffffffffffefffffc2f80612fb857612fb7614a78565b5b81600060048110612fcc57612fcb614630565b5b602002015182600060048110612fe557612fe4614630565b5b60200201510981600260048110612fff57612ffe614630565b5b6020020181815250507ffffffffffffffffffffffffffffffffffffffffffffffffffffffffefffffc2f8061303757613036614a78565b5b8160006004811061304b5761304a614630565b5b60200201518260026004811061306457613063614630565b5b6020020151098160036004811061307e5761307d614630565b5b60200201818152505060007ffffffffffffffffffffffffffffffffffffffffffffffffffffffffefffffc2f806130b8576130b7614a78565b5b826003600481106130cc576130cb614630565b5b60200201517ffffffffffffffffffffffffffffffffffffffffffffffffffffffffefffffc2f6130fc9190614563565b7ffffffffffffffffffffffffffffffffffffffffffffffffffffffffefffffc2f8061312b5761312a614a78565b5b8460016004811061313f5761313e614630565b5b60200201518560016004811061315857613157614630565b5b6020020151090890507ffffffffffffffffffffffffffffffffffffffffffffffffffffffffefffffc2f806131905761318f614a78565b5b7ffffffffffffffffffffffffffffffffffffffffffffffffffffffffefffffc2f806131bf576131be614a78565b5b7ffffffffffffffffffffffffffffffffffffffffffffffffffffffffefffffc2f806131ee576131ed614a78565b5b8460026004811061320257613201614630565b5b60200201518660006004811061321b5761321a614630565b5b6020020151096002097ffffffffffffffffffffffffffffffffffffffffffffffffffffffffefffffc2f61324f9190614563565b8208905060007ffffffffffffffffffffffffffffffffffffffffffffffffffffffffefffffc2f8061328457613283614a78565b5b7ffffffffffffffffffffffffffffffffffffffffffffffffffffffffefffffc2f806132b3576132b2614a78565b5b837ffffffffffffffffffffffffffffffffffffffffffffffffffffffffefffffc2f6132df9190614563565b7ffffffffffffffffffffffffffffffffffffffffffffffffffffffffefffffc2f8061330e5761330d614a78565b5b8660026004811061332257613321614630565b5b60200201518860006004811061333b5761333a614630565b5b602002015109088460016004811061335657613355614630565b5b60200201510990507ffffffffffffffffffffffffffffffffffffffffffffffffffffffffefffffc2f8061338d5761338c614a78565b5b7ffffffffffffffffffffffffffffffffffffffffffffffffffffffffefffffc2f806133bc576133bb614a78565b5b846003600481106133d0576133cf614630565b5b6020020151866001600481106133e9576133e8614630565b5b6020020151097ffffffffffffffffffffffffffffffffffffffffffffffffffffffffefffffc2f61341a9190614563565b8208905060007ffffffffffffffffffffffffffffffffffffffffffffffffffffffffefffffc2f8061344f5761344e614a78565b5b7ffffffffffffffffffffffffffffffffffffffffffffffffffffffffefffffc2f8061347e5761347d614a78565b5b8a8e098560006004811061349557613494614630565b5b602002015109905082828297509750975050505050505b96509650969350505050565b60008060008084036134d25785858592509250925061392c565b60007ffffffffffffffffffffffffffffffffffffffffffffffffffffffffefffffc2f8061350357613502614a78565b5b878809905060007ffffffffffffffffffffffffffffffffffffffffffffffffffffffffefffffc2f8061353957613538614a78565b5b878809905060007ffffffffffffffffffffffffffffffffffffffffffffffffffffffffefffffc2f8061356f5761356e614a78565b5b878809905060007ffffffffffffffffffffffffffffffffffffffffffffffffffffffffefffffc2f806135a5576135a4614a78565b5b7ffffffffffffffffffffffffffffffffffffffffffffffffffffffffefffffc2f806135d4576135d3614a78565b5b848c09600409905060007ffffffffffffffffffffffffffffffffffffffffffffffffffffffffefffffc2f8061360d5761360c614a78565b5b7ffffffffffffffffffffffffffffffffffffffffffffffffffffffffefffffc2f8061363c5761363b614a78565b5b7ffffffffffffffffffffffffffffffffffffffffffffffffffffffffefffffc2f8061366b5761366a614a78565b5b8586096000097ffffffffffffffffffffffffffffffffffffffffffffffffffffffffefffffc2f806136a05761369f614a78565b5b876003090890507ffffffffffffffffffffffffffffffffffffffffffffffffffffffffefffffc2f806136d6576136d5614a78565b5b7ffffffffffffffffffffffffffffffffffffffffffffffffffffffffefffffc2f8061370557613704614a78565b5b8384087ffffffffffffffffffffffffffffffffffffffffffffffffffffffffefffffc2f6137339190614563565b7ffffffffffffffffffffffffffffffffffffffffffffffffffffffffefffffc2f8061376257613761614a78565b5b8384090894507ffffffffffffffffffffffffffffffffffffffffffffffffffffffffefffffc2f8061379757613796614a78565b5b7ffffffffffffffffffffffffffffffffffffffffffffffffffffffffefffffc2f806137c6576137c5614a78565b5b7ffffffffffffffffffffffffffffffffffffffffffffffffffffffffefffffc2f806137f5576137f4614a78565b5b8687096008097ffffffffffffffffffffffffffffffffffffffffffffffffffffffffefffffc2f6138269190614563565b7ffffffffffffffffffffffffffffffffffffffffffffffffffffffffefffffc2f8061385557613854614a78565b5b7ffffffffffffffffffffffffffffffffffffffffffffffffffffffffefffffc2f8061388457613883614a78565b5b887ffffffffffffffffffffffffffffffffffffffffffffffffffffffffefffffc2f6138b09190614563565b860884090893507ffffffffffffffffffffffffffffffffffffffffffffffffffffffffefffffc2f806138e6576138e5614a78565b5b7ffffffffffffffffffffffffffffffffffffffffffffffffffffffffefffffc2f8061391557613914614a78565b5b8a8c09600209925084848497509750975050505050505b93509350939050565b6000806000613964847ffffffffffffffffffffffffffffffffffffffffffffffffffffffffefffffc2f6124a6565b905060007ffffffffffffffffffffffffffffffffffffffffffffffffffffffffefffffc2f8061399757613996614a78565b5b828309905060007ffffffffffffffffffffffffffffffffffffffffffffffffffffffffefffffc2f806139cd576139cc614a78565b5b828909905060007ffffffffffffffffffffffffffffffffffffffffffffffffffffffffefffffc2f80613a0357613a02614a78565b5b7ffffffffffffffffffffffffffffffffffffffffffffffffffffffffefffffc2f80613a3257613a31614a78565b5b8486098909905081819550955050505050935093915050565b60006a636f6e736f6c652e6c6f679050600080835160208501845afa505050565b613b82819050919050565b6040518060800160405280600081526020016000801916815260200160008019168152602001600080191681525090565b60405180604001604052806000815260200160006bffffffffffffffffffffffff191681525090565b604051806040016040528060008152602001600080191681525090565b6040518060a0016040528060008152602001606081526020016060815260200160608152602001606081525090565b6040518060600160405280600081526020016000801916815260200160007bffffffffffffffffffffffffffffffffffffffffffffffffffffffff191681525090565b6040518060800160405280600490602082028036833780820191505090505090565b613b8a614fc6565b565b6000604051905090565b600080fd5b600080fd5b6000819050919050565b613bb381613ba0565b8114613bbe57600080fd5b50565b600081359050613bd081613baa565b92915050565b6000819050919050565b613be981613bd6565b8114613bf457600080fd5b50565b600081359050613c0681613be0565b92915050565b600080600080600060a08688031215613c2857613c27613b96565b5b6000613c3688828901613bc1565b9550506020613c4788828901613bc1565b9450506040613c5888828901613bc1565b9350506060613c6988828901613bf7565b9250506080613c7a88828901613bf7565b9150509295509295909350565b600080fd5b600080fd5b6000601f19601f8301169050919050565b7f4e487b7100000000000000000000000000000000000000000000000000000000600052604160045260246000fd5b613cda82613c91565b810181811067ffffffffffffffff82111715613cf957613cf8613ca2565b5b80604052505050565b6000613d0c613b8c565b9050613d188282613cd1565b919050565b600067ffffffffffffffff821115613d3857613d37613ca2565b5b613d4182613c91565b9050602081019050919050565b82818337600083830152505050565b6000613d70613d6b84613d1d565b613d02565b905082815260208101848484011115613d8c57613d8b613c8c565b5b613d97848285613d4e565b509392505050565b600082601f830112613db457613db3613c87565b5b8135613dc4848260208601613d5d565b91505092915050565b600060208284031215613de357613de2613b96565b5b600082013567ffffffffffffffff811115613e0157613e00613b9b565b5b613e0d84828501613d9f565b91505092915050565b60007fffffffff0000000000000000000000000000000000000000000000000000000082169050919050565b613e4b81613e16565b82525050565b6000602082019050613e666000830184613e42565b92915050565b60008060008060808587031215613e8657613e85613b96565b5b600085013567ffffffffffffffff811115613ea457613ea3613b9b565b5b613eb087828801613d9f565b945050602085013567ffffffffffffffff811115613ed157613ed0613b9b565b5b613edd87828801613d9f565b935050604085013567ffffffffffffffff811115613efe57613efd613b9b565b5b613f0a87828801613d9f565b925050606085013567ffffffffffffffff811115613f2b57613f2a613b9b565b5b613f3787828801613d9f565b91505092959194509250565b613f4c81613bd6565b82525050565b613f5b81613ba0565b82525050565b608082016000820151613f776000850182613f43565b506020820151613f8a6020850182613f52565b506040820151613f9d6040850182613f52565b506060820151613fb06060850182613f52565b50505050565b60007fffffffffffffffffffffffffffffffffffffffff00000000000000000000000082169050919050565b613feb81613fb6565b82525050565b6040820160008201516140076000850182613f43565b50602082015161401a6020850182613fe2565b50505050565b6040820160008201516140366000850182613f43565b5060208201516140496020850182613f52565b50505050565b6000610100820190506140656000830186613f61565b6140726080830185613ff1565b61407f60c0830184614020565b949350505050565b61409081613e16565b82525050565b6060820160008201516140ac6000850182613f43565b5060208201516140bf6020850182613f52565b5060408201516140d26040850182614087565b50505050565b60006060820190506140ed6000830184614096565b92915050565b600060ff82169050919050565b614109816140f3565b811461411457600080fd5b50565b60008135905061412681614100565b92915050565b6000806000806080858703121561414657614145613b96565b5b600061415487828801613bf7565b945050602061416587828801614117565b935050604061417687828801613bf7565b925050606061418787828801613bf7565b91505092959194509250565b600081519050919050565b600082825260208201905092915050565b60005b838110156141cd5780820151818401526020810190506141b2565b60008484015250505050565b60006141e482614193565b6141ee818561419e565b93506141fe8185602086016141af565b61420781613c91565b840191505092915050565b6000602082019050818103600083015261422c81846141d9565b905092915050565b6000806040838503121561424b5761424a613b96565b5b600061425985828601613bc1565b925050602083013567ffffffffffffffff81111561427a57614279613b9b565b5b61428685828601613d9f565b9150509250929050565b600073ffffffffffffffffffffffffffffffffffffffff82169050919050565b60006142bb82614290565b9050919050565b6142cb816142b0565b82525050565b60006020820190506142e660008301846142c2565b92915050565b600081519050919050565b600082825260208201905092915050565b6000819050602082019050919050565b614321816140f3565b82525050565b60608201600082015161433d6000850182614318565b5060208201516143506020850182613f52565b5060408201516143636040850182613f52565b50505050565b60006143758383614327565b60608301905092915050565b6000602082019050919050565b6000614399826142ec565b6143a381856142f7565b93506143ae83614308565b8060005b838110156143df5781516143c68882614369565b97506143d183614381565b9250506001810190506143b2565b5085935050505092915050565b60006020820190508181036000830152614406818461438e565b905092915050565b60008060006060848603121561442757614426613b96565b5b600084013567ffffffffffffffff81111561444557614444613b9b565b5b61445186828701613d9f565b935050602084013567ffffffffffffffff81111561447257614471613b9b565b5b61447e86828701613d9f565b925050604084013567ffffffffffffffff81111561449f5761449e613b9b565b5b6144ab86828701613d9f565b9150509250925092565b6144be81613ba0565b82525050565b6144cd81613bd6565b82525050565b600060c0820190506144e860008301896144b5565b6144f560208301886144b5565b61450260408301876144b5565b61450f60608301866144c4565b61451c60808301856144c4565b61452960a08301846144c4565b979650505050505050565b7f4e487b7100000000000000000000000000000000000000000000000000000000600052601160045260246000fd5b600061456e82613bd6565b915061457983613bd6565b925082820390508181111561459157614590614534565b5b92915050565b6000819050602082019050919050565b60006145b38251613e16565b80915050919050565b600082821b905092915050565b60006145d482614193565b826145de84614597565b90506145e9816145a7565b92506004821015614629576146247fffffffff00000000000000000000000000000000000000000000000000000000836004036008026145bc565b831692505b5050919050565b7f4e487b7100000000000000000000000000000000000000000000000000000000600052603260045260246000fd5b6000819050919050565b61467a61467582613ba0565b61465f565b82525050565b600061468c8284614669565b60208201915081905092915050565b60006146a682613bd6565b91507fffffffffffffffffffffffffffffffffffffffffffffffffffffffffffffffff82036146d8576146d7614534565b5b600182019050919050565b60006146ef8251613ba0565b80915050919050565b600061470382614193565b8261470d84614597565b9050614718816146e3565b92506020821015614758576147537fffffffffffffffffffffffffffffffffffffffffffffffffffffffffffffffff836020036008026145bc565b831692505b5050919050565b600082825260208201905092915050565b7f54782068617320746f6f206d616e7920696e7075747320283e31290000000000600082015250565b60006147a6601b8361475f565b91506147b182614770565b602082019050919050565b600060208201905081810360008301526147d581614799565b9050919050565b60006147e7826140f3565b91506147f2836140f3565b9250828203905060ff81111561480b5761480a614534565b5b92915050565b6000819050919050565b61482c61482782613bd6565b614811565b82525050565b600061483e828561481b565b60208201915061484e828461481b565b6020820191508190509392505050565b600061486982613bd6565b915061487483613bd6565b925082820190508082111561488c5761488b614534565b5b92915050565b7f736c6963655f6f766572666c6f77000000000000000000000000000000000000600082015250565b60006148c8600e8361475f565b91506148d382614892565b602082019050919050565b600060208201905081810360008301526148f7816148bb565b9050919050565b7f736c6963655f6f75744f66426f756e6473000000000000000000000000000000600082015250565b600061493460118361475f565b915061493f826148fe565b602082019050919050565b6000602082019050818103600083015261496381614927565b9050919050565b600061497582614290565b915061498083614290565b9250828203905073ffffffffffffffffffffffffffffffffffffffff8111156149ac576149ab614534565b5b92915050565b60006149bd82614290565b91506149c883614290565b92508282026149d681614290565b915082820484148315176149ed576149ec614534565b5b5092915050565b60006149ff82614290565b9150614a0a83614290565b9250828201905073ffffffffffffffffffffffffffffffffffffffff811115614a3657614a35614534565b5b92915050565b6000614a4782614290565b915073ffffffffffffffffffffffffffffffffffffffff8203614a6d57614a6c614534565b5b600182019050919050565b7f4e487b7100000000000000000000000000000000000000000000000000000000600052601260045260246000fd5b6000614ab282613bd6565b9150614abd83613bd6565b9250828202614acb81613bd6565b91508282048414831517614ae257614ae1614534565b5b5092915050565b6000614af482613bd6565b9150614aff83613bd6565b925082614b0f57614b0e614a78565b5b828204905092915050565b6000614b25826140f3565b9150614b30836140f3565b9250828201905060ff811115614b4957614b48614534565b5b92915050565b7f45434453413a20696e76616c6964207369676e6174757265206c656e67746800600082015250565b6000614b85601f8361475f565b9150614b9082614b4f565b602082019050919050565b60006020820190508181036000830152614bb481614b78565b9050919050565b600061ffff82169050919050565b6000614bd482614bbb565b9150614bdf83614bbb565b9250828202614bed81614bbb565b9150808214614bff57614bfe614534565b5b5092915050565b600063ffffffff82169050919050565b6000614c2182614c06565b9150614c2c83614c06565b9250828202614c3a81614c06565b9150808214614c4c57614c4b614534565b5b5092915050565b600067ffffffffffffffff82169050919050565b6000614c7282614c53565b9150614c7d83614c53565b9250828202614c8b81614c53565b9150808214614c9d57614c9c614534565b5b5092915050565b600081519050919050565b6000614cba82614ca4565b614cc4818561475f565b9350614cd48185602086016141af565b614cdd81613c91565b840191505092915050565b60006020820190508181036000830152614d028184614caf565b905092915050565b7f496e76616c6964206e756d626572000000000000000000000000000000000000600082015250565b6000614d40600e8361475f565b9150614d4b82614d0a565b602082019050919050565b60006020820190508181036000830152614d6f81614d33565b9050919050565b7f45434453413a20696e76616c6964207369676e6174757265202773272076616c60008201527f7565000000000000000000000000000000000000000000000000000000000000602082015250565b6000614dd260228361475f565b9150614ddd82614d76565b604082019050919050565b60006020820190508181036000830152614e0181614dc5565b9050919050565b7f45434453413a20696e76616c6964207369676e6174757265202776272076616c60008201527f7565000000000000000000000000000000000000000000000000000000000000602082015250565b6000614e6460228361475f565b9150614e6f82614e08565b604082019050919050565b60006020820190508181036000830152614e9381614e57565b9050919050565b614ea3816140f3565b82525050565b6000608082019050614ebe60008301876144b5565b614ecb6020830186614e9a565b614ed860408301856144b5565b614ee560608301846144b5565b95945050505050565b7f45434453413a20696e76616c6964207369676e61747572650000000000000000600082015250565b6000614f2460188361475f565b9150614f2f82614eee565b602082019050919050565b60006020820190508181036000830152614f5381614f17565b9050919050565b7f557365206a6163446f75626c652066756e6374696f6e20696e73746561640000600082015250565b6000614f90601e8361475f565b9150614f9b82614f5a565b602082019050919050565b60006020820190508181036000830152614fbf81614f83565b9050919050565b7f4e487b7100000000000000000000000000000000000000000000000000000000600052605160045260246000fdfea2646970667358221220d004b5bf6b105639f9a1ffa4b6ee48dcb66f2225706c37e39022e68f360336b264736f6c63430008130033",
  "linkReferences": {},
  "deployedLinkReferences": {}
}