{
  "_format": "hh-sol-artifact-1",
  "contractName": "LNBridge",
  "sourceName": "contracts/LNBridge.sol",
  "abi": [
    {
      "inputs": [],
      "name": "bridge",
      "outputs": [
        {
          "internalType": "bytes32",
          "name": "fundingTxId",
          "type": "bytes32"
        },
        {
          "internalType": "bytes32",
          "name": "pkProver",
          "type": "bytes32"
        },
        {
          "internalType": "bytes32",
          "name": "pkVerifier",
          "type": "bytes32"
        },
        {
          "internalType": "uint256",
          "name": "index",
          "type": "uint256"
        },
        {
          "internalType": "uint256",
          "name": "timelock",
          "type": "uint256"
        },
        {
          "internalType": "uint256",
          "name": "timelock_dispute",
          "type": "uint256"
        }
      ],
      "stateMutability": "view",
      "type": "function"
    },
    {
      "inputs": [
        {
          "internalType": "bytes",
          "name": "rawTxP_locked",
          "type": "bytes"
        },
        {
          "internalType": "bytes",
          "name": "sigV",
          "type": "bytes"
        },
        {
          "internalType": "bytes",
          "name": "rawTxV_unlocked",
          "type": "bytes"
        },
        {
          "internalType": "bytes",
          "name": "sigP",
          "type": "bytes"
        }
      ],
      "name": "dispute",
      "outputs": [],
      "stateMutability": "nonpayable",
      "type": "function"
    },
    {
      "inputs": [
        {
          "internalType": "bytes",
          "name": "_txBytes",
          "type": "bytes"
        }
      ],
      "name": "getInputsData",
      "outputs": [
        {
          "components": [
            {
              "internalType": "uint256",
              "name": "number_of_inputs",
              "type": "uint256"
            },
            {
              "internalType": "bytes32",
              "name": "txid",
              "type": "bytes32"
            },
            {
              "internalType": "bytes4",
              "name": "inputIndex",
              "type": "bytes4"
            }
          ],
          "internalType": "struct LNBridge.Input",
          "name": "",
          "type": "tuple"
        }
      ],
      "stateMutability": "view",
      "type": "function"
    },
    {
      "inputs": [
        {
          "internalType": "bytes",
          "name": "_txBytes",
          "type": "bytes"
        }
      ],
      "name": "getOutputsData",
      "outputs": [
        {
          "components": [
            {
              "internalType": "uint256",
              "name": "value",
              "type": "uint256"
            },
            {
              "internalType": "bytes32",
              "name": "pk1",
              "type": "bytes32"
            },
            {
              "internalType": "bytes32",
              "name": "pk2",
              "type": "bytes32"
            },
            {
              "internalType": "bytes32",
              "name": "rev_secret",
              "type": "bytes32"
            }
          ],
          "internalType": "struct LNBridge.LightningHTLCData",
          "name": "",
          "type": "tuple"
        },
        {
          "components": [
            {
              "internalType": "uint256",
              "name": "value",
              "type": "uint256"
            },
            {
              "internalType": "bytes20",
              "name": "pkhash",
              "type": "bytes20"
            }
          ],
          "internalType": "struct LNBridge.P2PKHData",
          "name": "",
          "type": "tuple"
        },
        {
          "components": [
            {
              "internalType": "uint256",
              "name": "value",
              "type": "uint256"
            },
            {
              "internalType": "bytes32",
              "name": "data",
              "type": "bytes32"
            }
          ],
          "internalType": "struct LNBridge.OpReturnData",
          "name": "",
          "type": "tuple"
        }
      ],
      "stateMutability": "view",
      "type": "function"
    },
    {
      "inputs": [
        {
          "internalType": "bytes",
          "name": "_txBytes",
          "type": "bytes"
        }
      ],
      "name": "getSignatures",
      "outputs": [
        {
          "components": [
            {
              "internalType": "uint8",
              "name": "v",
              "type": "uint8"
            },
            {
              "internalType": "bytes",
              "name": "r",
              "type": "bytes"
            },
            {
              "internalType": "bytes",
              "name": "s",
              "type": "bytes"
            }
          ],
          "internalType": "struct LNBridge.Signature",
          "name": "",
          "type": "tuple"
        },
        {
          "components": [
            {
              "internalType": "uint8",
              "name": "v",
              "type": "uint8"
            },
            {
              "internalType": "bytes",
              "name": "r",
              "type": "bytes"
            },
            {
              "internalType": "bytes",
              "name": "s",
              "type": "bytes"
            }
          ],
          "internalType": "struct LNBridge.Signature",
          "name": "",
          "type": "tuple"
        }
      ],
      "stateMutability": "view",
      "type": "function"
    },
    {
      "inputs": [
        {
          "internalType": "bytes",
          "name": "_txBytes",
          "type": "bytes"
        }
      ],
      "name": "getTimelock",
      "outputs": [
        {
          "internalType": "bytes4",
          "name": "",
          "type": "bytes4"
        }
      ],
      "stateMutability": "view",
      "type": "function"
    },
    {
      "inputs": [
        {
          "internalType": "bytes",
          "name": "oldRevSecret",
          "type": "bytes"
        },
        {
          "internalType": "bytes",
          "name": "rawTxP_unlocked",
          "type": "bytes"
        },
        {
          "internalType": "bytes",
          "name": "sigV",
          "type": "bytes"
        }
      ],
      "name": "resolveDispute",
      "outputs": [],
      "stateMutability": "nonpayable",
      "type": "function"
    },
    {
      "inputs": [],
      "name": "settle",
      "outputs": [],
      "stateMutability": "nonpayable",
      "type": "function"
    },
    {
      "inputs": [
        {
          "internalType": "bytes32",
          "name": "_fundingTxId",
          "type": "bytes32"
        },
        {
          "internalType": "bytes32",
          "name": "_pkProver",
          "type": "bytes32"
        },
        {
          "internalType": "bytes32",
          "name": "_pkVerifier",
          "type": "bytes32"
        },
        {
          "internalType": "uint256",
          "name": "_index",
          "type": "uint256"
        },
        {
          "internalType": "uint256",
          "name": "_timelock",
          "type": "uint256"
        }
      ],
      "name": "setup",
      "outputs": [],
      "stateMutability": "nonpayable",
      "type": "function"
    },
    {
      "inputs": [
        {
          "internalType": "bytes",
          "name": "rawTxP_unlocked",
          "type": "bytes"
        },
        {
          "internalType": "bytes",
          "name": "sigV",
          "type": "bytes"
        },
        {
          "internalType": "bytes",
          "name": "rawTxV_unlocked",
          "type": "bytes"
        },
        {
          "internalType": "bytes",
          "name": "sigP",
          "type": "bytes"
        }
      ],
      "name": "submitProof",
      "outputs": [],
      "stateMutability": "nonpayable",
      "type": "function"
    },
    {
      "inputs": [
        {
          "internalType": "uint256",
          "name": "digest",
          "type": "uint256"
        },
        {
          "internalType": "uint8",
          "name": "v",
          "type": "uint8"
        },
        {
          "internalType": "uint256",
          "name": "r",
          "type": "uint256"
        },
        {
          "internalType": "uint256",
          "name": "s",
          "type": "uint256"
        }
      ],
      "name": "verifyBTCSignature",
      "outputs": [
        {
          "internalType": "bytes",
          "name": "",
          "type": "bytes"
        }
      ],
      "stateMutability": "view",
      "type": "function"
    }
  ],
  "bytecode": "0x608060405234801561001057600080fd5b50614dbb806100206000396000f3fe608060405234801561001057600080fd5b50600436106100a95760003560e01c8063497c6cf611610071578063497c6cf61461013c5780634f500ea91461016e5780635933bf611461019e5780636b45b4e3146101ce57806379a85bd9146101ff578063e78cea921461021b576100a9565b806306ac0e26146100ae57806311da60b4146100ca57806336946480146100d45780633740d2491461010457806343f104d214610120575b600080fd5b6100c860048036038101906100c39190613c88565b61023e565b005b6100d2610276565b005b6100ee60048036038101906100e99190613e49565b610278565b6040516100fb9190613ecd565b60405180910390f35b61011e60048036038101906101199190613ee8565b6102ae565b005b61013a60048036038101906101359190613ee8565b6102b4565b005b61015660048036038101906101519190613e49565b6102ba565b604051610165939291906140cb565b60405180910390f35b61018860048036038101906101839190613e49565b610561565b6040516101959190614154565b60405180910390f35b6101b860048036038101906101b391906141a8565b61065c565b6040516101c5919061428e565b60405180910390f35b6101e860048036038101906101e39190613e49565b6106ab565b6040516101f6929190614360565b60405180910390f35b61021960048036038101906102149190614397565b6108ca565b005b6102236108cf565b6040516102359695949392919061445c565b60405180910390f35b846000800181905550836000600101819055508260006002018190555081600060030181905550806000600401819055505050505050565b565b6000808251905060006102998460058461029291906144ec565b60046108f9565b6102a290614552565b90508092505050919050565b50505050565b50505050565b6102c2613acf565b6102ca613b00565b6102d2613b29565b6102da613acf565b6102e2613b29565b6102ea613b00565b6102f2613b46565b600481600001818152505061030d8882600001516000610a17565b826020018360000182815250829052505061032e8882600001516000610b29565b84608001856060018660400187600001848152508490528490528490525050505060005b600381101561054c57600081036103ee576103aa898360600151838151811061037e5761037d6145b9565b5b60200260200101518460400151848151811061039d5761039c6145b9565b5b6020026020010151610d20565b876020018860600189604001838152508381525083815250505050816080015181815181106103dc576103db6145b9565b5b60200260200101518560000181815250505b600181036104b8576104666104408a84606001518481518110610414576104136145b9565b5b602002602001015185604001518581518110610433576104326145b9565b5b6020026020010151610ddc565b6040516020016104509190614609565b6040516020818303038152906040526000610fb6565b83602001906bffffffffffffffffffffffff191690816bffffffffffffffffffffffff191681525050816080015181815181106104a6576104a56145b9565b5b60200260200101518360000181815250505b600281036105395761050789836060015183815181106104db576104da6145b9565b5b6020026020010151846040015184815181106104fa576104f96145b9565b5b6020026020010151610ddc565b84602001818152505081608001518181518110610527576105266145b9565b5b60200260200101518460000181815250505b808061054490614624565b915050610352565b50838284965096509650505050509193909250565b610569613b75565b610571613b75565b61057c836004611099565b5081600001818152505061059383602560046108f9565b61059c90614552565b81604001907bffffffffffffffffffffffffffffffffffffffffffffffffffffffff191690817bffffffffffffffffffffffffffffffffffffffffffffffffffffffff1916815250506106036105f584600560256108f9565b6105fe90614681565b611181565b8160200181815250506001816000015114610653576040517f08c379a000000000000000000000000000000000000000000000000000000000815260040161064a90614745565b60405180910390fd5b80915050919050565b606060008061067987601b886106729190614765565b878761127f565b9150915081816040516020016106909291906147bb565b60405160208183030381529060405292505050949350505050565b6106b3613bb8565b6106bb613bb8565b6106c3613bb8565b6106cb613bb8565b601b816000019060ff16908160ff16815250506106f16106ec866051611691565b61171c565b8160400181905250604760f81b85602a81518110610712576107116145b9565b5b602001015160f81c60f81b7effffffffffffffffffffffffffffffffffffffffffffffffffffffffffffff1916036107645761075761075286602f611691565b61171c565b81602001819052506107c4565b604660f81b85602a8151811061077d5761077c6145b9565b5b602001015160f81c60f81b7effffffffffffffffffffffffffffffffffffffffffffffffffffffffffffff1916036107c3576107ba85602f611745565b81602001819052505b5b601b826000019060ff16908160ff16815250506107ea6107e5866098611691565b61171c565b8260400181905250604760f81b8560728151811061080b5761080a6145b9565b5b602001015160f81c60f81b7effffffffffffffffffffffffffffffffffffffffffffffffffffffffffffff19160361085d5761085061084b866077611691565b61171c565b82602001819052506108bd565b604660f81b85607281518110610876576108756145b9565b5b602001015160f81c60f81b7effffffffffffffffffffffffffffffffffffffffffffffffffffffffffffff1916036108bc576108b3856077611745565b82602001819052505b5b8181935093505050915091565b505050565b60008060000154908060010154908060020154908060030154908060040154908060050154905086565b606081601f8361090991906147e7565b101561094a576040517f08c379a000000000000000000000000000000000000000000000000000000000815260040161094190614867565b60405180910390fd5b818361095691906147e7565b84511015610999576040517f08c379a0000000000000000000000000000000000000000000000000000000008152600401610990906148d3565b60405180910390fd5b60608215600081146109ba5760405191506000825260208201604052610a0b565b6040519150601f8416801560200281840101858101878315602002848b0101015b818310156109f857805183526020830192506020810190506109db565b50868552601f19601f8301166040525050505b50809150509392505050565b6060600080600080610a298888611099565b80985081945050506000861480610a3f57508286115b15610a4c57829150610a50565b8591505b60008267ffffffffffffffff811115610a6c57610a6b613d1e565b5b604051908082528060200260200182016040528015610a9a5781602001602082028036833780820191505090505b50905060005b83811015610b1657602489610ab591906147e7565b9850610ac18a8a611099565b809a50819450505082828281518110610add57610adc6145b9565b5b602002602001018181525050600483610af691906147e7565b89610b0191906147e7565b98508080610b0e90614624565b915050610aa0565b5080889550955050505050935093915050565b6060806060600080600080610b3e8a8a611099565b809a5081945050506000881480610b5457508288115b15610b6157829150610b65565b8791505b60008267ffffffffffffffff811115610b8157610b80613d1e565b5b604051908082528060200260200182016040528015610baf5781602001602082028036833780820191505090505b50905060008367ffffffffffffffff811115610bce57610bcd613d1e565b5b604051908082528060200260200182016040528015610bfc5781602001602082028036833780820191505090505b50905060008467ffffffffffffffff811115610c1b57610c1a613d1e565b5b604051908082528060200260200182016040528015610c495781602001602082028036833780820191505090505b50905060005b85811015610d0457610c638e8e60406117d1565b828281518110610c7657610c756145b9565b5b60200260200101818152505060088d610c8f91906147e7565b9c50610c9b8e8e611099565b809e5081965050508c848281518110610cb757610cb66145b9565b5b60200260200101818152505084838281518110610cd757610cd66145b9565b5b602002602001018181525050848d610cef91906147e7565b9c508080610cfc90614624565b915050610c4f565b508083838e995099509950995050505050505093509350935093565b6000806000610d30868686611c3c565b15610dc057610d736040518060400160405280601b81526020017f506172736564204c696768746e696e6748544c43206f757470757400000000008152506121eb565b610d8986600387610d8491906147e7565b611691565b610d9f87602888610d9a91906147e7565b611691565b610db588604c89610db091906147e7565b611691565b925092509250610dd3565b6000801b6000801b6000801b9250925092505b93509350939050565b6000610de9848484612284565b15610e5857610e2c6040518060400160405280601381526020017f506172736564205032504b48206f7574707574000000000000000000000000008152506121eb565b610e4284600385610e3d91906147e7565b610fb6565b6bffffffffffffffffffffffff19169050610faf565b610e63848484612449565b15610ed257610ea66040518060400160405280601281526020017f5061727365642050325348206f757470757400000000000000000000000000008152506121eb565b610ebc84600285610eb791906147e7565b610fb6565b6bffffffffffffffffffffffff19169050610faf565b610edd848484612566565b15610f3d57610f206040518060400160405280601781526020017f506172736564204f505f52455455524e206f75747075740000000000000000008152506121eb565b610f3684600285610f3191906147e7565b611691565b9050610faf565b610f48848484611c3c565b15610fa857610f8b6040518060400160405280601b81526020017f506172736564204c696768746e696e6748544c43206f757470757400000000008152506121eb565b610fa184600285610f9c91906147e7565b611691565b9050610faf565b6000801b90505b9392505050565b6000806000905060005b60148173ffffffffffffffffffffffffffffffffffffffff16101561108b57806013610fec9190614913565b6008610ff8919061495b565b73ffffffffffffffffffffffffffffffffffffffff1685858373ffffffffffffffffffffffffffffffffffffffff1661103191906147e7565b81518110611042576110416145b9565b5b602001015160f81c60f81b60f81c60ff1673ffffffffffffffffffffffffffffffffffffffff16901b82611076919061499d565b91508080611083906149e5565b915050610fc0565b508060601b91505092915050565b60008060008484815181106110b1576110b06145b9565b5b602001015160f81c60f81b60f81c90506001846110ce91906147e7565b935060fd8160ff1610156110ee5780848160ff169150925092505061117a565b60fd8160ff160361111c57611105858560106117d1565b60028561111291906147e7565b925092505061117a565b60fe8160ff160361114a57611133858560206117d1565b60048561114091906147e7565b925092505061117a565b60ff8160ff160361117857611161858560406117d1565b60088561116e91906147e7565b925092505061117a565b505b9250929050565b600080602060ff1667ffffffffffffffff8111156111a2576111a1613d1e565b5b6040519080825280601f01601f1916602001820160405280156111d45781602001600182028036833780820191505090505b50905060005b602060ff1681101561126d578381602081106111f9576111f86145b9565b5b1a60f81b82600183602060ff1661121091906144ec565b61121a91906144ec565b8151811061122b5761122a6145b9565b5b60200101907effffffffffffffffffffffffffffffffffffffffffffffffffffffffffffff1916908160001a905350808061126590614624565b9150506111da565b5061127781612629565b915050919050565b60008060007ffffffffffffffffffffffffffffffffffffffffffffffffffffffffefffffc2f806112b3576112b2614a21565b5b60018760ff16901c60ff167ffffffffffffffffffffffffffffffffffffffffffffffffffffffffefffffc2f6112e99190614a50565b860890507ffffffffffffffffffffffffffffffffffffffffffffffffffffffffefffffc2f81118061133a57507ffffffffffffffffffffffffffffffffebaaedce6af48a03bbfd25e8cd036414184115b8061136457507ffffffffffffffffffffffffffffffffebaaedce6af48a03bbfd25e8cd036414185115b8061136f5750600084145b8061137a5750600085145b80611388575060018660ff16115b1561139a576000809250925050611688565b60006113c6867ffffffffffffffffffffffffffffffffebaaedce6af48a03bbfd25e8cd0364141612652565b905060007ffffffffffffffffffffffffffffffffffffffffffffffffffffffffefffffc2f806113f9576113f8614a21565b5b7ffffffffffffffffffffffffffffffffffffffffffffffffffffffffefffffc2f8061142857611427614a21565b5b60077ffffffffffffffffffffffffffffffffffffffffffffffffffffffffefffffc2f8061145957611458614a21565b5b60008709087ffffffffffffffffffffffffffffffffffffffffffffffffffffffffefffffc2f8061148d5761148c614a21565b5b7ffffffffffffffffffffffffffffffffffffffffffffffffffffffffefffffc2f806114bc576114bb614a21565b5b868709860908905061150681600460017ffffffffffffffffffffffffffffffffffffffffffffffffffffffffefffffc2f6114f791906147e7565b6115019190614a92565b61273e565b9050600080600160028b60ff168561151e91906147e7565b61152891906147e7565b161461155f57817ffffffffffffffffffffffffffffffffffffffffffffffffffffffffefffffc2f61155a91906144ec565b611561565b815b905060008060006116117ffffffffffffffffffffffffffffffffebaaedce6af48a03bbfd25e8cd03641418061159a57611599614a21565b5b8e7ffffffffffffffffffffffffffffffffebaaedce6af48a03bbfd25e8cd03641416115c691906144ec565b88097f79be667ef9dcbbac55a06295ce870b07029bfcdb2dce28d959f2815b16f817987f483ada7726a3c4655da4fbfc0e1108a8fd17b448a68554199c47d08ffb10d4b860016128f2565b925092509250600080600061165a7ffffffffffffffffffffffffffffffffebaaedce6af48a03bbfd25e8cd03641418061164e5761164d614a21565b5b8e8b098b8960016128f2565b92509250925060008061167188888888888861298c565b9150915081819d509d505050505050505050505050505b94509492505050565b6000806000905060005b602081101561170e5780601f6116b191906144ec565b60086116bd9190614a50565b8585836116ca91906147e7565b815181106116db576116da6145b9565b5b602001015160f81c60f81b60f81c60ff16901b826116f991906147e7565b9150808061170690614624565b91505061169b565b508060001b91505092915050565b60608160405160200161172f9190614609565b6040516020818303038152906040529050919050565b60606000805b601f8110156117be5780601e61176191906144ec565b600861176d9190614a50565b85858361177a91906147e7565b8151811061178b5761178a6145b9565b5b602001015160f81c60f81b60f81c60ff16901b826117a991906147e7565b915080806117b690614624565b91505061174b565b506117c881612a38565b91505092915050565b600060088203611806578383815181106117ee576117ed6145b9565b5b602001015160f81c60f81b60f81c60ff169050611c35565b60108203611888576101008460018561181f91906147e7565b815181106118305761182f6145b9565b5b602001015160f81c60f81b60f81c60ff1661184b9190614ad1565b61ffff16848481518110611862576118616145b9565b5b602001015160f81c60f81b60f81c60ff1661ffff1661188191906147e7565b9050611c35565b602082036119ab576301000000846003856118a391906147e7565b815181106118b4576118b36145b9565b5b602001015160f81c60f81b60f81c60ff166118cf9190614b1e565b63ffffffff1662010000856002866118e791906147e7565b815181106118f8576118f76145b9565b5b602001015160f81c60f81b60f81c60ff166119139190614b1e565b63ffffffff166101008660018761192a91906147e7565b8151811061193b5761193a6145b9565b5b602001015160f81c60f81b60f81c60ff166119569190614b1e565b63ffffffff1686868151811061196f5761196e6145b9565b5b602001015160f81c60f81b60f81c60ff1663ffffffff1661199091906147e7565b61199a91906147e7565b6119a491906147e7565b9050611c35565b60408203611c3457670100000000000000846007856119ca91906147e7565b815181106119db576119da6145b9565b5b602001015160f81c60f81b60f81c60ff166119f69190614b6f565b67ffffffffffffffff16660100000000000085600686611a1691906147e7565b81518110611a2757611a266145b9565b5b602001015160f81c60f81b60f81c60ff16611a429190614b6f565b67ffffffffffffffff166501000000000086600587611a6191906147e7565b81518110611a7257611a716145b9565b5b602001015160f81c60f81b60f81c60ff16611a8d9190614b6f565b67ffffffffffffffff1664010000000087600488611aab91906147e7565b81518110611abc57611abb6145b9565b5b602001015160f81c60f81b60f81c60ff16611ad79190614b6f565b67ffffffffffffffff16630100000088600389611af491906147e7565b81518110611b0557611b046145b9565b5b602001015160f81c60f81b60f81c60ff16611b209190614b6f565b67ffffffffffffffff16620100008960028a611b3c91906147e7565b81518110611b4d57611b4c6145b9565b5b602001015160f81c60f81b60f81c60ff16611b689190614b6f565b67ffffffffffffffff166101008a60018b611b8391906147e7565b81518110611b9457611b936145b9565b5b602001015160f81c60f81b60f81c60ff16611baf9190614b6f565b67ffffffffffffffff168a8a81518110611bcc57611bcb6145b9565b5b602001015160f81c60f81b60f81c60ff1667ffffffffffffffff16611bf191906147e7565b611bfb91906147e7565b611c0591906147e7565b611c0f91906147e7565b611c1991906147e7565b611c2391906147e7565b611c2d91906147e7565b9050611c35565b5b9392505050565b6000607282148015611c9c5750607660f81b84600085611c5c91906147e7565b81518110611c6d57611c6c6145b9565b5b602001015160f81c60f81b7effffffffffffffffffffffffffffffffffffffffffffffffffffffffffffff1916145b8015611cf65750602160f81b84600185611cb691906147e7565b81518110611cc757611cc66145b9565b5b602001015160f81c60f81b7effffffffffffffffffffffffffffffffffffffffffffffffffffffffffffff1916145b8015611d50575060ac60f81b84602385611d1091906147e7565b81518110611d2157611d206145b9565b5b602001015160f81c60f81b7effffffffffffffffffffffffffffffffffffffffffffffffffffffffffffff1916145b8015611daa5750606360f81b84602485611d6a91906147e7565b81518110611d7b57611d7a6145b9565b5b602001015160f81c60f81b7effffffffffffffffffffffffffffffffffffffffffffffffffffffffffffff1916145b8015611e045750607560f81b84602585611dc491906147e7565b81518110611dd557611dd46145b9565b5b602001015160f81c60f81b7effffffffffffffffffffffffffffffffffffffffffffffffffffffffffffff1916145b8015611e5e575060aa60f81b84602685611e1e91906147e7565b81518110611e2f57611e2e6145b9565b5b602001015160f81c60f81b7effffffffffffffffffffffffffffffffffffffffffffffffffffffffffffff1916145b8015611eb85750602060f81b84602785611e7891906147e7565b81518110611e8957611e886145b9565b5b602001015160f81c60f81b7effffffffffffffffffffffffffffffffffffffffffffffffffffffffffffff1916145b8015611f125750608860f81b84604885611ed291906147e7565b81518110611ee357611ee26145b9565b5b602001015160f81c60f81b7effffffffffffffffffffffffffffffffffffffffffffffffffffffffffffff1916145b8015611f6c5750606760f81b84604985611f2c91906147e7565b81518110611f3d57611f3c6145b9565b5b602001015160f81c60f81b7effffffffffffffffffffffffffffffffffffffffffffffffffffffffffffff1916145b8015611fc65750602160f81b84604a85611f8691906147e7565b81518110611f9757611f966145b9565b5b602001015160f81c60f81b7effffffffffffffffffffffffffffffffffffffffffffffffffffffffffffff1916145b8015612020575060ad60f81b84606c85611fe091906147e7565b81518110611ff157611ff06145b9565b5b602001015160f81c60f81b7effffffffffffffffffffffffffffffffffffffffffffffffffffffffffffff1916145b801561207a5750605260f81b84606d8561203a91906147e7565b8151811061204b5761204a6145b9565b5b602001015160f81c60f81b7effffffffffffffffffffffffffffffffffffffffffffffffffffffffffffff1916145b80156120d4575060b260f81b84606e8561209491906147e7565b815181106120a5576120a46145b9565b5b602001015160f81c60f81b7effffffffffffffffffffffffffffffffffffffffffffffffffffffffffffff1916145b801561212e5750607560f81b84606f856120ee91906147e7565b815181106120ff576120fe6145b9565b5b602001015160f81c60f81b7effffffffffffffffffffffffffffffffffffffffffffffffffffffffffffff1916145b80156121885750606860f81b8460708561214891906147e7565b81518110612159576121586145b9565b5b602001015160f81c60f81b7effffffffffffffffffffffffffffffffffffffffffffffffffffffffffffff1916145b80156121e25750605160f81b846071856121a291906147e7565b815181106121b3576121b26145b9565b5b602001015160f81c60f81b7effffffffffffffffffffffffffffffffffffffffffffffffffffffffffffff1916145b90509392505050565b612281816040516024016121ff9190614bf0565b6040516020818303038152906040527f41304fac000000000000000000000000000000000000000000000000000000007bffffffffffffffffffffffffffffffffffffffffffffffffffffffff19166020820180517bffffffffffffffffffffffffffffffffffffffffffffffffffffffff8381831617835250505050612ab8565b50565b60006019821480156122d85750607660f81b8484815181106122a9576122a86145b9565b5b602001015160f81c60f81b7effffffffffffffffffffffffffffffffffffffffffffffffffffffffffffff1916145b8015612332575060a960f81b846001856122f291906147e7565b81518110612303576123026145b9565b5b602001015160f81c60f81b7effffffffffffffffffffffffffffffffffffffffffffffffffffffffffffff1916145b801561238c5750601460f81b8460028561234c91906147e7565b8151811061235d5761235c6145b9565b5b602001015160f81c60f81b7effffffffffffffffffffffffffffffffffffffffffffffffffffffffffffff1916145b80156123e65750608860f81b846017856123a691906147e7565b815181106123b7576123b66145b9565b5b602001015160f81c60f81b7effffffffffffffffffffffffffffffffffffffffffffffffffffffffffffff1916145b8015612440575060ac60f81b8460188561240091906147e7565b81518110612411576124106145b9565b5b602001015160f81c60f81b7effffffffffffffffffffffffffffffffffffffffffffffffffffffffffffff1916145b90509392505050565b60006017821480156124a9575060a960f81b8460008561246991906147e7565b8151811061247a576124796145b9565b5b602001015160f81c60f81b7effffffffffffffffffffffffffffffffffffffffffffffffffffffffffffff1916145b80156125035750601460f81b846001856124c391906147e7565b815181106124d4576124d36145b9565b5b602001015160f81c60f81b7effffffffffffffffffffffffffffffffffffffffffffffffffffffffffffff1916145b801561255d5750608760f81b8460168561251d91906147e7565b8151811061252e5761252d6145b9565b5b602001015160f81c60f81b7effffffffffffffffffffffffffffffffffffffffffffffffffffffffffffff1916145b90509392505050565b60006022821480156125c65750606a60f81b8460008561258691906147e7565b81518110612597576125966145b9565b5b602001015160f81c60f81b7effffffffffffffffffffffffffffffffffffffffffffffffffffffffffffff1916145b80156126205750602060f81b846001856125e091906147e7565b815181106125f1576125f06145b9565b5b602001015160f81c60f81b7effffffffffffffffffffffffffffffffffffffffffffffffffffffffffffff1916145b90509392505050565b6000808290506000815103612644576000801b91505061264d565b60208301519150505b919050565b60008083141580156126645750818314155b8015612671575060008214155b6126b0576040517f08c379a00000000000000000000000000000000000000000000000000000000081526004016126a790614c5e565b60405180910390fd5b60008060019050600084905060005b600087146127315786826126d39190614a92565b90508286806126e5576126e4614a21565b5b87806126f4576126f3614a21565b5b8584098861270291906144ec565b860880945081955050508687826127199190614a50565b8361272491906144ec565b80985081935050506126bf565b8394505050505092915050565b600080830361275057600090506128ec565b6000820361276157600190506128ec565b60006001905060007f800000000000000000000000000000000000000000000000000000000000000090505b60008111156128e6577ffffffffffffffffffffffffffffffffffffffffffffffffffffffffefffffc2f8185161515860a7ffffffffffffffffffffffffffffffffffffffffffffffffffffffffefffffc2f8485090991507ffffffffffffffffffffffffffffffffffffffffffffffffffffffffefffffc2f6002820485161515860a7ffffffffffffffffffffffffffffffffffffffffffffffffffffffffefffffc2f8485090991507ffffffffffffffffffffffffffffffffffffffffffffffffffffffffefffffc2f6004820485161515860a7ffffffffffffffffffffffffffffffffffffffffffffffffffffffffefffffc2f8485090991507ffffffffffffffffffffffffffffffffffffffffffffffffffffffffefffffc2f6008820485161515860a7ffffffffffffffffffffffffffffffffffffffffffffffffffffffffefffffc2f84850909915060108104905061278d565b81925050505b92915050565b600080600080870361290c57858585925092509250612982565b60008790506000806000600190505b6000841461297457600060018516146129495761293c8383838d8d8d612ad2565b8093508194508295505050505b6002846129569190614a92565b93506129638a8a8a613510565b809a50819b50829c5050505061291b565b828282965096509650505050505b9450945094915050565b6000806000806000878b036129ff5760007ffffffffffffffffffffffffffffffffffffffffffffffffffffffffefffffc2f806129cc576129cb614a21565b5b888c08036129e35760008094509450505050612a2d565b6129ee8b8b8b613510565b809350819450829550505050612a1a565b612a0d8b8b8b8b8b8b612ad2565b8093508194508295505050505b612a2583838361398d565b945094505050505b965096945050505050565b60607f7fffffffffffffffffffffffffffffffffffffffffffffffffffffffffffffff821115612a9d576040517f08c379a0000000000000000000000000000000000000000000000000000000008152600401612a9490614cca565b60405180910390fd5b60405190506020815281602082015260408101604052919050565b612acf81612ac7613aa3613ac4565b63ffffffff16565b50565b60008060008089148015612ae65750600088145b15612af957858585925092509250613504565b600086148015612b095750600085145b15612b1c57888888925092509250613504565b612b24613bdc565b7ffffffffffffffffffffffffffffffffffffffffffffffffffffffffefffffc2f80612b5357612b52614a21565b5b88890981600060048110612b6a57612b696145b9565b5b6020020181815250507ffffffffffffffffffffffffffffffffffffffffffffffffffffffffefffffc2f80612ba257612ba1614a21565b5b81600060048110612bb657612bb56145b9565b5b6020020151890981600160048110612bd157612bd06145b9565b5b6020020181815250507ffffffffffffffffffffffffffffffffffffffffffffffffffffffffefffffc2f80612c0957612c08614a21565b5b85860981600260048110612c2057612c1f6145b9565b5b6020020181815250507ffffffffffffffffffffffffffffffffffffffffffffffffffffffffefffffc2f80612c5857612c57614a21565b5b81600260048110612c6c57612c6b6145b9565b5b6020020151860981600360048110612c8757612c866145b9565b5b60200201818152505060405180608001604052807ffffffffffffffffffffffffffffffffffffffffffffffffffffffffefffffc2f80612cca57612cc9614a21565b5b83600260048110612cde57612cdd6145b9565b5b60200201518d0981526020017ffffffffffffffffffffffffffffffffffffffffffffffffffffffffefffffc2f80612d1957612d18614a21565b5b83600360048110612d2d57612d2c6145b9565b5b60200201518c0981526020017ffffffffffffffffffffffffffffffffffffffffffffffffffffffffefffffc2f80612d6857612d67614a21565b5b83600060048110612d7c57612d7b6145b9565b5b60200201518a0981526020017ffffffffffffffffffffffffffffffffffffffffffffffffffffffffefffffc2f80612db757612db6614a21565b5b83600160048110612dcb57612dca6145b9565b5b60200201518909815250905080600260048110612deb57612dea6145b9565b5b602002015181600060048110612e0457612e036145b9565b5b6020020151141580612e46575080600360048110612e2557612e246145b9565b5b602002015181600160048110612e3e57612e3d6145b9565b5b602002015114155b612e85576040517f08c379a0000000000000000000000000000000000000000000000000000000008152600401612e7c90614d36565b60405180910390fd5b612e8d613bdc565b7ffffffffffffffffffffffffffffffffffffffffffffffffffffffffefffffc2f80612ebc57612ebb614a21565b5b82600060048110612ed057612ecf6145b9565b5b60200201517ffffffffffffffffffffffffffffffffffffffffffffffffffffffffefffffc2f612f0091906144ec565b83600260048110612f1457612f136145b9565b5b60200201510881600060048110612f2e57612f2d6145b9565b5b6020020181815250507ffffffffffffffffffffffffffffffffffffffffffffffffffffffffefffffc2f80612f6657612f65614a21565b5b82600160048110612f7a57612f796145b9565b5b60200201517ffffffffffffffffffffffffffffffffffffffffffffffffffffffffefffffc2f612faa91906144ec565b83600360048110612fbe57612fbd6145b9565b5b60200201510881600160048110612fd857612fd76145b9565b5b6020020181815250507ffffffffffffffffffffffffffffffffffffffffffffffffffffffffefffffc2f806130105761300f614a21565b5b81600060048110613024576130236145b9565b5b60200201518260006004811061303d5761303c6145b9565b5b60200201510981600260048110613057576130566145b9565b5b6020020181815250507ffffffffffffffffffffffffffffffffffffffffffffffffffffffffefffffc2f8061308f5761308e614a21565b5b816000600481106130a3576130a26145b9565b5b6020020151826002600481106130bc576130bb6145b9565b5b602002015109816003600481106130d6576130d56145b9565b5b60200201818152505060007ffffffffffffffffffffffffffffffffffffffffffffffffffffffffefffffc2f806131105761310f614a21565b5b82600360048110613124576131236145b9565b5b60200201517ffffffffffffffffffffffffffffffffffffffffffffffffffffffffefffffc2f61315491906144ec565b7ffffffffffffffffffffffffffffffffffffffffffffffffffffffffefffffc2f8061318357613182614a21565b5b84600160048110613197576131966145b9565b5b6020020151856001600481106131b0576131af6145b9565b5b6020020151090890507ffffffffffffffffffffffffffffffffffffffffffffffffffffffffefffffc2f806131e8576131e7614a21565b5b7ffffffffffffffffffffffffffffffffffffffffffffffffffffffffefffffc2f8061321757613216614a21565b5b7ffffffffffffffffffffffffffffffffffffffffffffffffffffffffefffffc2f8061324657613245614a21565b5b8460026004811061325a576132596145b9565b5b602002015186600060048110613273576132726145b9565b5b6020020151096002097ffffffffffffffffffffffffffffffffffffffffffffffffffffffffefffffc2f6132a791906144ec565b8208905060007ffffffffffffffffffffffffffffffffffffffffffffffffffffffffefffffc2f806132dc576132db614a21565b5b7ffffffffffffffffffffffffffffffffffffffffffffffffffffffffefffffc2f8061330b5761330a614a21565b5b837ffffffffffffffffffffffffffffffffffffffffffffffffffffffffefffffc2f61333791906144ec565b7ffffffffffffffffffffffffffffffffffffffffffffffffffffffffefffffc2f8061336657613365614a21565b5b8660026004811061337a576133796145b9565b5b602002015188600060048110613393576133926145b9565b5b60200201510908846001600481106133ae576133ad6145b9565b5b60200201510990507ffffffffffffffffffffffffffffffffffffffffffffffffffffffffefffffc2f806133e5576133e4614a21565b5b7ffffffffffffffffffffffffffffffffffffffffffffffffffffffffefffffc2f8061341457613413614a21565b5b84600360048110613428576134276145b9565b5b602002015186600160048110613441576134406145b9565b5b6020020151097ffffffffffffffffffffffffffffffffffffffffffffffffffffffffefffffc2f61347291906144ec565b8208905060007ffffffffffffffffffffffffffffffffffffffffffffffffffffffffefffffc2f806134a7576134a6614a21565b5b7ffffffffffffffffffffffffffffffffffffffffffffffffffffffffefffffc2f806134d6576134d5614a21565b5b8a8e09856000600481106134ed576134ec6145b9565b5b602002015109905082828297509750975050505050505b96509650969350505050565b600080600080840361352a57858585925092509250613984565b60007ffffffffffffffffffffffffffffffffffffffffffffffffffffffffefffffc2f8061355b5761355a614a21565b5b878809905060007ffffffffffffffffffffffffffffffffffffffffffffffffffffffffefffffc2f8061359157613590614a21565b5b878809905060007ffffffffffffffffffffffffffffffffffffffffffffffffffffffffefffffc2f806135c7576135c6614a21565b5b878809905060007ffffffffffffffffffffffffffffffffffffffffffffffffffffffffefffffc2f806135fd576135fc614a21565b5b7ffffffffffffffffffffffffffffffffffffffffffffffffffffffffefffffc2f8061362c5761362b614a21565b5b848c09600409905060007ffffffffffffffffffffffffffffffffffffffffffffffffffffffffefffffc2f8061366557613664614a21565b5b7ffffffffffffffffffffffffffffffffffffffffffffffffffffffffefffffc2f8061369457613693614a21565b5b7ffffffffffffffffffffffffffffffffffffffffffffffffffffffffefffffc2f806136c3576136c2614a21565b5b8586096000097ffffffffffffffffffffffffffffffffffffffffffffffffffffffffefffffc2f806136f8576136f7614a21565b5b876003090890507ffffffffffffffffffffffffffffffffffffffffffffffffffffffffefffffc2f8061372e5761372d614a21565b5b7ffffffffffffffffffffffffffffffffffffffffffffffffffffffffefffffc2f8061375d5761375c614a21565b5b8384087ffffffffffffffffffffffffffffffffffffffffffffffffffffffffefffffc2f61378b91906144ec565b7ffffffffffffffffffffffffffffffffffffffffffffffffffffffffefffffc2f806137ba576137b9614a21565b5b8384090894507ffffffffffffffffffffffffffffffffffffffffffffffffffffffffefffffc2f806137ef576137ee614a21565b5b7ffffffffffffffffffffffffffffffffffffffffffffffffffffffffefffffc2f8061381e5761381d614a21565b5b7ffffffffffffffffffffffffffffffffffffffffffffffffffffffffefffffc2f8061384d5761384c614a21565b5b8687096008097ffffffffffffffffffffffffffffffffffffffffffffffffffffffffefffffc2f61387e91906144ec565b7ffffffffffffffffffffffffffffffffffffffffffffffffffffffffefffffc2f806138ad576138ac614a21565b5b7ffffffffffffffffffffffffffffffffffffffffffffffffffffffffefffffc2f806138dc576138db614a21565b5b887ffffffffffffffffffffffffffffffffffffffffffffffffffffffffefffffc2f61390891906144ec565b860884090893507ffffffffffffffffffffffffffffffffffffffffffffffffffffffffefffffc2f8061393e5761393d614a21565b5b7ffffffffffffffffffffffffffffffffffffffffffffffffffffffffefffffc2f8061396d5761396c614a21565b5b8a8c09600209925084848497509750975050505050505b93509350939050565b60008060006139bc847ffffffffffffffffffffffffffffffffffffffffffffffffffffffffefffffc2f612652565b905060007ffffffffffffffffffffffffffffffffffffffffffffffffffffffffefffffc2f806139ef576139ee614a21565b5b828309905060007ffffffffffffffffffffffffffffffffffffffffffffffffffffffffefffffc2f80613a2557613a24614a21565b5b828909905060007ffffffffffffffffffffffffffffffffffffffffffffffffffffffffefffffc2f80613a5b57613a5a614a21565b5b7ffffffffffffffffffffffffffffffffffffffffffffffffffffffffefffffc2f80613a8a57613a89614a21565b5b8486098909905081819550955050505050935093915050565b60006a636f6e736f6c652e6c6f679050600080835160208501845afa505050565b613bfe819050919050565b6040518060800160405280600081526020016000801916815260200160008019168152602001600080191681525090565b60405180604001604052806000815260200160006bffffffffffffffffffffffff191681525090565b604051806040016040528060008152602001600080191681525090565b6040518060a0016040528060008152602001606081526020016060815260200160608152602001606081525090565b6040518060600160405280600081526020016000801916815260200160007bffffffffffffffffffffffffffffffffffffffffffffffffffffffff191681525090565b6040518060600160405280600060ff16815260200160608152602001606081525090565b6040518060800160405280600490602082028036833780820191505090505090565b613c06614d56565b565b6000604051905090565b600080fd5b600080fd5b6000819050919050565b613c2f81613c1c565b8114613c3a57600080fd5b50565b600081359050613c4c81613c26565b92915050565b6000819050919050565b613c6581613c52565b8114613c7057600080fd5b50565b600081359050613c8281613c5c565b92915050565b600080600080600060a08688031215613ca457613ca3613c12565b5b6000613cb288828901613c3d565b9550506020613cc388828901613c3d565b9450506040613cd488828901613c3d565b9350506060613ce588828901613c73565b9250506080613cf688828901613c73565b9150509295509295909350565b600080fd5b600080fd5b6000601f19601f8301169050919050565b7f4e487b7100000000000000000000000000000000000000000000000000000000600052604160045260246000fd5b613d5682613d0d565b810181811067ffffffffffffffff82111715613d7557613d74613d1e565b5b80604052505050565b6000613d88613c08565b9050613d948282613d4d565b919050565b600067ffffffffffffffff821115613db457613db3613d1e565b5b613dbd82613d0d565b9050602081019050919050565b82818337600083830152505050565b6000613dec613de784613d99565b613d7e565b905082815260208101848484011115613e0857613e07613d08565b5b613e13848285613dca565b509392505050565b600082601f830112613e3057613e2f613d03565b5b8135613e40848260208601613dd9565b91505092915050565b600060208284031215613e5f57613e5e613c12565b5b600082013567ffffffffffffffff811115613e7d57613e7c613c17565b5b613e8984828501613e1b565b91505092915050565b60007fffffffff0000000000000000000000000000000000000000000000000000000082169050919050565b613ec781613e92565b82525050565b6000602082019050613ee26000830184613ebe565b92915050565b60008060008060808587031215613f0257613f01613c12565b5b600085013567ffffffffffffffff811115613f2057613f1f613c17565b5b613f2c87828801613e1b565b945050602085013567ffffffffffffffff811115613f4d57613f4c613c17565b5b613f5987828801613e1b565b935050604085013567ffffffffffffffff811115613f7a57613f79613c17565b5b613f8687828801613e1b565b925050606085013567ffffffffffffffff811115613fa757613fa6613c17565b5b613fb387828801613e1b565b91505092959194509250565b613fc881613c52565b82525050565b613fd781613c1c565b82525050565b608082016000820151613ff36000850182613fbf565b5060208201516140066020850182613fce565b5060408201516140196040850182613fce565b50606082015161402c6060850182613fce565b50505050565b60007fffffffffffffffffffffffffffffffffffffffff00000000000000000000000082169050919050565b61406781614032565b82525050565b6040820160008201516140836000850182613fbf565b506020820151614096602085018261405e565b50505050565b6040820160008201516140b26000850182613fbf565b5060208201516140c56020850182613fce565b50505050565b6000610100820190506140e16000830186613fdd565b6140ee608083018561406d565b6140fb60c083018461409c565b949350505050565b61410c81613e92565b82525050565b6060820160008201516141286000850182613fbf565b50602082015161413b6020850182613fce565b50604082015161414e6040850182614103565b50505050565b60006060820190506141696000830184614112565b92915050565b600060ff82169050919050565b6141858161416f565b811461419057600080fd5b50565b6000813590506141a28161417c565b92915050565b600080600080608085870312156141c2576141c1613c12565b5b60006141d087828801613c73565b94505060206141e187828801614193565b93505060406141f287828801613c73565b925050606061420387828801613c73565b91505092959194509250565b600081519050919050565b600082825260208201905092915050565b60005b8381101561424957808201518184015260208101905061422e565b60008484015250505050565b60006142608261420f565b61426a818561421a565b935061427a81856020860161422b565b61428381613d0d565b840191505092915050565b600060208201905081810360008301526142a88184614255565b905092915050565b6142b98161416f565b82525050565b600082825260208201905092915050565b60006142db8261420f565b6142e581856142bf565b93506142f581856020860161422b565b6142fe81613d0d565b840191505092915050565b600060608301600083015161432160008601826142b0565b506020830151848203602086015261433982826142d0565b9150506040830151848203604086015261435382826142d0565b9150508091505092915050565b6000604082019050818103600083015261437a8185614309565b9050818103602083015261438e8184614309565b90509392505050565b6000806000606084860312156143b0576143af613c12565b5b600084013567ffffffffffffffff8111156143ce576143cd613c17565b5b6143da86828701613e1b565b935050602084013567ffffffffffffffff8111156143fb576143fa613c17565b5b61440786828701613e1b565b925050604084013567ffffffffffffffff81111561442857614427613c17565b5b61443486828701613e1b565b9150509250925092565b61444781613c1c565b82525050565b61445681613c52565b82525050565b600060c082019050614471600083018961443e565b61447e602083018861443e565b61448b604083018761443e565b614498606083018661444d565b6144a5608083018561444d565b6144b260a083018461444d565b979650505050505050565b7f4e487b7100000000000000000000000000000000000000000000000000000000600052601160045260246000fd5b60006144f782613c52565b915061450283613c52565b925082820390508181111561451a576145196144bd565b5b92915050565b6000819050602082019050919050565b600061453c8251613e92565b80915050919050565b600082821b905092915050565b600061455d8261420f565b8261456784614520565b905061457281614530565b925060048210156145b2576145ad7fffffffff0000000000000000000000000000000000000000000000000000000083600403600802614545565b831692505b5050919050565b7f4e487b7100000000000000000000000000000000000000000000000000000000600052603260045260246000fd5b6000819050919050565b6146036145fe82613c1c565b6145e8565b82525050565b600061461582846145f2565b60208201915081905092915050565b600061462f82613c52565b91507fffffffffffffffffffffffffffffffffffffffffffffffffffffffffffffffff8203614661576146606144bd565b5b600182019050919050565b60006146788251613c1c565b80915050919050565b600061468c8261420f565b8261469684614520565b90506146a18161466c565b925060208210156146e1576146dc7fffffffffffffffffffffffffffffffffffffffffffffffffffffffffffffffff83602003600802614545565b831692505b5050919050565b600082825260208201905092915050565b7f54782068617320746f6f206d616e7920696e7075747320283e31290000000000600082015250565b600061472f601b836146e8565b915061473a826146f9565b602082019050919050565b6000602082019050818103600083015261475e81614722565b9050919050565b60006147708261416f565b915061477b8361416f565b9250828203905060ff811115614794576147936144bd565b5b92915050565b6000819050919050565b6147b56147b082613c52565b61479a565b82525050565b60006147c782856147a4565b6020820191506147d782846147a4565b6020820191508190509392505050565b60006147f282613c52565b91506147fd83613c52565b9250828201905080821115614815576148146144bd565b5b92915050565b7f736c6963655f6f766572666c6f77000000000000000000000000000000000000600082015250565b6000614851600e836146e8565b915061485c8261481b565b602082019050919050565b6000602082019050818103600083015261488081614844565b9050919050565b7f736c6963655f6f75744f66426f756e6473000000000000000000000000000000600082015250565b60006148bd6011836146e8565b91506148c882614887565b602082019050919050565b600060208201905081810360008301526148ec816148b0565b9050919050565b600073ffffffffffffffffffffffffffffffffffffffff82169050919050565b600061491e826148f3565b9150614929836148f3565b9250828203905073ffffffffffffffffffffffffffffffffffffffff811115614955576149546144bd565b5b92915050565b6000614966826148f3565b9150614971836148f3565b925082820261497f816148f3565b91508282048414831517614996576149956144bd565b5b5092915050565b60006149a8826148f3565b91506149b3836148f3565b9250828201905073ffffffffffffffffffffffffffffffffffffffff8111156149df576149de6144bd565b5b92915050565b60006149f0826148f3565b915073ffffffffffffffffffffffffffffffffffffffff8203614a1657614a156144bd565b5b600182019050919050565b7f4e487b7100000000000000000000000000000000000000000000000000000000600052601260045260246000fd5b6000614a5b82613c52565b9150614a6683613c52565b9250828202614a7481613c52565b91508282048414831517614a8b57614a8a6144bd565b5b5092915050565b6000614a9d82613c52565b9150614aa883613c52565b925082614ab857614ab7614a21565b5b828204905092915050565b600061ffff82169050919050565b6000614adc82614ac3565b9150614ae783614ac3565b9250828202614af581614ac3565b9150808214614b0757614b066144bd565b5b5092915050565b600063ffffffff82169050919050565b6000614b2982614b0e565b9150614b3483614b0e565b9250828202614b4281614b0e565b9150808214614b5457614b536144bd565b5b5092915050565b600067ffffffffffffffff82169050919050565b6000614b7a82614b5b565b9150614b8583614b5b565b9250828202614b9381614b5b565b9150808214614ba557614ba46144bd565b5b5092915050565b600081519050919050565b6000614bc282614bac565b614bcc81856146e8565b9350614bdc81856020860161422b565b614be581613d0d565b840191505092915050565b60006020820190508181036000830152614c0a8184614bb7565b905092915050565b7f496e76616c6964206e756d626572000000000000000000000000000000000000600082015250565b6000614c48600e836146e8565b9150614c5382614c12565b602082019050919050565b60006020820190508181036000830152614c7781614c3b565b9050919050565b7f56616c75652065786365656473207468652072616e6765000000000000000000600082015250565b6000614cb46017836146e8565b9150614cbf82614c7e565b602082019050919050565b60006020820190508181036000830152614ce381614ca7565b9050919050565b7f557365206a6163446f75626c652066756e6374696f6e20696e73746561640000600082015250565b6000614d20601e836146e8565b9150614d2b82614cea565b602082019050919050565b60006020820190508181036000830152614d4f81614d13565b9050919050565b7f4e487b7100000000000000000000000000000000000000000000000000000000600052605160045260246000fdfea2646970667358221220287f5880fd69669c1bcce815c244a1cce4be3778ec3bfa246b62aaa7a200dbee64736f6c63430008130033",
  "linkReferences": {},
  "deployedLinkReferences": {}
}