{
  "_format": "hh-sol-artifact-1",
  "contractName": "LNBridge",
  "sourceName": "contracts/LNBridge.sol",
  "abi": [
    {
      "inputs": [],
      "name": "bridge",
      "outputs": [
        {
          "internalType": "bytes32",
          "name": "fundingTxId",
          "type": "bytes32"
        },
        {
          "internalType": "bytes",
          "name": "fundingTx_script",
          "type": "bytes"
        },
        {
          "internalType": "bytes",
          "name": "sighash",
          "type": "bytes"
        },
        {
          "internalType": "bytes",
          "name": "pkProver_Uncompressed",
          "type": "bytes"
        },
        {
          "internalType": "bytes",
          "name": "pkProver_Compressed",
          "type": "bytes"
        },
        {
          "internalType": "bytes",
          "name": "pkVerifier_Uncompressed",
          "type": "bytes"
        },
        {
          "internalType": "bytes",
          "name": "pkVerifier_Compressed",
          "type": "bytes"
        },
        {
          "internalType": "uint256",
          "name": "index",
          "type": "uint256"
        },
        {
          "internalType": "uint256",
          "name": "timelock",
          "type": "uint256"
        },
        {
          "internalType": "uint256",
          "name": "timelock_dispute",
          "type": "uint256"
        }
      ],
      "stateMutability": "view",
      "type": "function"
    },
    {
      "inputs": [
        {
          "internalType": "bytes",
          "name": "rawTxP_locked",
          "type": "bytes"
        },
        {
          "internalType": "bytes",
          "name": "sigV",
          "type": "bytes"
        },
        {
          "internalType": "bytes",
          "name": "rawTxV_unlocked",
          "type": "bytes"
        },
        {
          "internalType": "bytes",
          "name": "sigP",
          "type": "bytes"
        }
      ],
      "name": "dispute",
      "outputs": [],
      "stateMutability": "nonpayable",
      "type": "function"
    },
    {
      "inputs": [
        {
          "internalType": "bytes",
          "name": "oldRevSecret",
          "type": "bytes"
        },
        {
          "internalType": "bytes",
          "name": "rawTxP_unlocked",
          "type": "bytes"
        },
        {
          "internalType": "bytes",
          "name": "sigV",
          "type": "bytes"
        }
      ],
      "name": "resolveDispute",
      "outputs": [],
      "stateMutability": "nonpayable",
      "type": "function"
    },
    {
      "inputs": [],
      "name": "settle",
      "outputs": [],
      "stateMutability": "nonpayable",
      "type": "function"
    },
    {
      "inputs": [
        {
          "internalType": "bytes32",
          "name": "_fundingTxId",
          "type": "bytes32"
        },
        {
          "internalType": "bytes",
          "name": "_fundingTx_script",
          "type": "bytes"
        },
        {
          "internalType": "bytes",
          "name": "_sighash",
          "type": "bytes"
        },
        {
          "internalType": "bytes",
          "name": "_pkProver_Uncompressed",
          "type": "bytes"
        },
        {
          "internalType": "bytes",
          "name": "_pkProver_Compressed",
          "type": "bytes"
        },
        {
          "internalType": "bytes",
          "name": "_pkVerifier_Uncompressed",
          "type": "bytes"
        },
        {
          "internalType": "bytes",
          "name": "_pkVerifier_Compressed",
          "type": "bytes"
        },
        {
          "internalType": "uint256",
          "name": "_index",
          "type": "uint256"
        },
        {
          "internalType": "uint256",
          "name": "_timelock",
          "type": "uint256"
        }
      ],
      "name": "setup",
      "outputs": [],
      "stateMutability": "nonpayable",
      "type": "function"
    },
    {
      "inputs": [
        {
          "internalType": "bytes",
          "name": "CT_P_unlocked",
          "type": "bytes"
        },
        {
          "internalType": "bytes",
          "name": "CT_V_unlocked",
          "type": "bytes"
        }
      ],
      "name": "submitProof",
      "outputs": [
        {
          "internalType": "bool",
          "name": "",
          "type": "bool"
        }
      ],
      "stateMutability": "view",
      "type": "function"
    }
  ],
  "bytecode": "0x608060405234801561001057600080fd5b50615f7c80620000216000396000f3fe608060405234801561001057600080fd5b50600436106100625760003560e01c806311da60b4146100675780633aef14771461007157806343f104d2146100a157806379a85bd9146100bd578063da3f8c7a146100d9578063e78cea92146100f5575b600080fd5b61006f61011c565b005b61008b600480360381019061008691906148c8565b61011e565b604051610098919061495b565b60405180910390f35b6100bb60048036038101906100b69190614976565b610ad6565b005b6100d760048036038101906100d29190614a4d565b610adc565b005b6100f360048036038101906100ee9190614b60565b610ae1565b005b6100fd610b7b565b6040516101139a99989796959493929190614d6f565b60405180910390f35b565b60008060e01b7bffffffffffffffffffffffffffffffffffffffffffffffffffffffff191661014c84610eed565b7bffffffffffffffffffffffffffffffffffffffffffffffffffffffff1916146101ab576040517f08c379a00000000000000000000000000000000000000000000000000000000081526004016101a290614eb8565b60405180910390fd5b600060e01b7bffffffffffffffffffffffffffffffffffffffffffffffffffffffff19166101d883610eed565b7bffffffffffffffffffffffffffffffffffffffffffffffffffffffff191614610237576040517f08c379a000000000000000000000000000000000000000000000000000000000815260040161022e90614f4a565b60405180910390fd5b61023f614682565b610247614682565b61024f6146b3565b6102576146b3565b61025f6146dc565b61026888610f23565b80935081955082975050505061027d876111ca565b809350819550505083606001518160200151146102cf576040517f08c379a00000000000000000000000000000000000000000000000000000000081526004016102c690614fdc565b60405180910390fd5b8360000151836000015114610319576040517f08c379a00000000000000000000000000000000000000000000000000000000081526004016103109061506e565b60405180910390fd5b8160000151856000015114610363576040517f08c379a000000000000000000000000000000000000000000000000000000000815260040161035a90615100565b60405180910390fd5b6002836020015160405160200161037a919061516d565b60405160208183030381529060405260405161039691906151c4565b602060405180830381855afa1580156103b3573d6000803e3d6000fd5b5050506040513d601f19601f820116820180604052508101906103d691906151f0565b600261046e600060060180546103eb9061524c565b80601f01602080910402602001604051908101604052809291908181526020018280546104179061524c565b80156104645780601f1061043957610100808354040283529160200191610464565b820191906000526020600020905b81548152906001019060200180831161044757829003601f168201915b50505050506113df565b60405161047b91906151c4565b602060405180830381855afa158015610498573d6000803e3d6000fd5b5050506040513d601f19601f820116820180604052508101906104bb91906151f0565b146104fb576040517f08c379a00000000000000000000000000000000000000000000000000000000081526004016104f290615315565b60405180910390fd5b60028260200151604051602001610512919061516d565b60405160208183030381529060405260405161052e91906151c4565b602060405180830381855afa15801561054b573d6000803e3d6000fd5b5050506040513d601f19601f8201168201806040525081019061056e91906151f0565b6002610606600060040180546105839061524c565b80601f01602080910402602001604051908101604052809291908181526020018280546105af9061524c565b80156105fc5780601f106105d1576101008083540402835291602001916105fc565b820191906000526020600020905b8154815290600101906020018083116105df57829003601f168201915b50505050506113df565b60405161061391906151c4565b602060405180830381855afa158015610630573d6000803e3d6000fd5b5050506040513d601f19601f8201168201806040525081019061065391906151f0565b14610693576040517f08c379a000000000000000000000000000000000000000000000000000000000815260040161068a906153cd565b60405180910390fd5b600061069e896114ac565b905060006106ab896114ac565b905060006107d48b600060010180546106c39061524c565b80601f01602080910402602001604051908101604052809291908181526020018280546106ef9061524c565b801561073c5780601f106107115761010080835404028352916020019161073c565b820191906000526020600020905b81548152906001019060200180831161071f57829003601f168201915b5050505050600060020180546107519061524c565b80601f016020809104026020016040519081016040528092919081815260200182805461077d9061524c565b80156107ca5780601f1061079f576101008083540402835291602001916107ca565b820191906000526020600020905b8154815290600101906020018083116107ad57829003601f168201915b50505050506115f9565b905060006108078260001c85600001516107f38760200151600061166c565b6108028860400151600061166c565b6116d3565b90506002600060050160405161081d9190615485565b602060405180830381855afa15801561083a573d6000803e3d6000fd5b5050506040513d601f19601f8201168201806040525081019061085d91906151f0565b60028260405161086d91906151c4565b602060405180830381855afa15801561088a573d6000803e3d6000fd5b5050506040513d601f19601f820116820180604052508101906108ad91906151f0565b146108b757600080fd5b60006109de8c600060010180546108cd9061524c565b80601f01602080910402602001604051908101604052809291908181526020018280546108f99061524c565b80156109465780601f1061091b57610100808354040283529160200191610946565b820191906000526020600020905b81548152906001019060200180831161092957829003601f168201915b50505050506000600201805461095b9061524c565b80601f01602080910402602001604051908101604052809291908181526020018280546109879061524c565b80156109d45780601f106109a9576101008083540402835291602001916109d4565b820191906000526020600020905b8154815290600101906020018083116109b757829003601f168201915b50505050506115f9565b90506000610a118260001c86600001516109fd8860200151600061166c565b610a0c8960400151600061166c565b6116d3565b905060026000600301604051610a279190615485565b602060405180830381855afa158015610a44573d6000803e3d6000fd5b5050506040513d601f19601f82011682018060405250810190610a6791906151f0565b600282604051610a7791906151c4565b602060405180830381855afa158015610a94573d6000803e3d6000fd5b5050506040513d601f19601f82011682018060405250810190610ab791906151f0565b14610ac157600080fd5b60019b50505050505050505050505092915050565b50505050565b505050565b8860008001819055508760006001019081610afc9190615633565b508660006002019081610b0f9190615633565b508560006003019081610b229190615633565b508460006004019081610b359190615633565b508360006005019081610b489190615633565b508260006006019081610b5b9190615633565b508160006007018190555080600060080181905550505050505050505050565b6000806000015490806001018054610b929061524c565b80601f0160208091040260200160405190810160405280929190818152602001828054610bbe9061524c565b8015610c0b5780601f10610be057610100808354040283529160200191610c0b565b820191906000526020600020905b815481529060010190602001808311610bee57829003601f168201915b505050505090806002018054610c209061524c565b80601f0160208091040260200160405190810160405280929190818152602001828054610c4c9061524c565b8015610c995780601f10610c6e57610100808354040283529160200191610c99565b820191906000526020600020905b815481529060010190602001808311610c7c57829003601f168201915b505050505090806003018054610cae9061524c565b80601f0160208091040260200160405190810160405280929190818152602001828054610cda9061524c565b8015610d275780601f10610cfc57610100808354040283529160200191610d27565b820191906000526020600020905b815481529060010190602001808311610d0a57829003601f168201915b505050505090806004018054610d3c9061524c565b80601f0160208091040260200160405190810160405280929190818152602001828054610d689061524c565b8015610db55780601f10610d8a57610100808354040283529160200191610db5565b820191906000526020600020905b815481529060010190602001808311610d9857829003601f168201915b505050505090806005018054610dca9061524c565b80601f0160208091040260200160405190810160405280929190818152602001828054610df69061524c565b8015610e435780601f10610e1857610100808354040283529160200191610e43565b820191906000526020600020905b815481529060010190602001808311610e2657829003601f168201915b505050505090806006018054610e589061524c565b80601f0160208091040260200160405190810160405280929190818152602001828054610e849061524c565b8015610ed15780601f10610ea657610100808354040283529160200191610ed1565b820191906000526020600020905b815481529060010190602001808311610eb457829003601f168201915b505050505090806007015490806008015490806009015490508a565b600080825190506000610f0e84600484610f079190615734565b6004611722565b610f17906157b9565b90508092505050919050565b610f2b614682565b610f336146b3565b610f3b6146dc565b610f43614682565b610f4b6146dc565b610f536146b3565b610f5b6146f9565b6004816000018181525050610f768882600001516000611840565b8260200183600001828152508290525050610f978882600001516000611952565b84608001856060018660400187600001848152508490528490528490525050505060005b60038110156111b55760008103611057576110138983606001518381518110610fe757610fe6615820565b5b60200260200101518460400151848151811061100657611005615820565b5b6020026020010151611b49565b8760200188606001896040018381525083815250838152505050508160800151818151811061104557611044615820565b5b60200260200101518560000181815250505b60018103611121576110cf6110a98a8460600151848151811061107d5761107c615820565b5b60200260200101518560400151858151811061109c5761109b615820565b5b6020026020010151611bc7565b6040516020016110b99190615870565b6040516020818303038152906040526000611ca9565b83602001906bffffffffffffffffffffffff191690816bffffffffffffffffffffffff1916815250508160800151818151811061110f5761110e615820565b5b60200260200101518360000181815250505b600281036111a257611170898360600151838151811061114457611143615820565b5b60200260200101518460400151848151811061116357611162615820565b5b6020026020010151611bc7565b846020018181525050816080015181815181106111905761118f615820565b5b60200260200101518460000181815250505b80806111ad9061588b565b915050610fbb565b50838284965096509650505050509193909250565b6111d2614682565b6111da6146b3565b6111e2614682565b6111ea6146b3565b6111f26146f9565b600481600001818152505061120d8682600001516000611840565b826020018360000182815250829052505061122e8682600001516000611952565b84608001856060018660400187600001848152508490528490528490525050505060005b60028110156113d057600081036112f2576112aa878360600151838151811061127e5761127d615820565b5b60200260200101518460400151848151811061129d5761129c615820565b5b6020026020010151611b49565b866020018760600188604001838152508381525083815250505050816080015181815181106112dc576112db615820565b5b60200260200101518460000181815250506113bd565b600181036113bc5761136a611344888460600151848151811061131857611317615820565b5b60200260200101518560400151858151811061133757611336615820565b5b6020026020010151611bc7565b6040516020016113549190615870565b6040516020818303038152906040526000611ca9565b83602001906bffffffffffffffffffffffff191690816bffffffffffffffffffffffff191681525050816080015181815181106113aa576113a9615820565b5b60200260200101518360000181815250505b5b80806113c89061588b565b915050611252565b50828294509450505050915091565b606060036002836040516113f391906151c4565b602060405180830381855afa158015611410573d6000803e3d6000fd5b5050506040513d601f19601f8201168201806040525081019061143391906151f0565b6040516020016114439190615870565b60405160208183030381529060405260405161145f91906151c4565b602060405180830381855afa15801561147c573d6000803e3d6000fd5b5050506040515160601b604051602001611496919061516d565b6040516020818303038152906040529050919050565b6114b4614728565b6114bc614728565b604760f81b83602a815181106114d5576114d4615820565b5b602001015160f81c60f81b7effffffffffffffffffffffffffffffffffffffffffffffffffffffffffffff1916036115275761151a61151584602f611d8c565b611e17565b8160200181905250611587565b604660f81b83602a815181106115405761153f615820565b5b602001015160f81c60f81b7effffffffffffffffffffffffffffffffffffffffffffffffffffffffffffff1916036115865761157d83602f611e40565b81602001819052505b5b61159a611595846051611d8c565b611e17565b8160400181905250600060026115b58360200151600061166c565b6115bf9190615902565b036115dc57601c816000019060ff16908160ff16815250506115f0565b601b816000019060ff16908160ff16815250505b80915050919050565b6000806116098560006029611722565b905060006116258660728089516116209190615734565b611722565b90506000828683876040516020016116409493929190615933565b6040516020818303038152906040529050600061165c82611ecc565b9050809450505050509392505050565b600060208261167b9190615971565b835110156116be576040517f08c379a00000000000000000000000000000000000000000000000000000000081526004016116b5906159f1565b60405180910390fd5b60008260208501015190508091505092915050565b60606000806116f087601b886116e99190615a1e565b8787611f92565b915091508181604051602001611707929190615a74565b60405160208183030381529060405292505050949350505050565b606081601f836117329190615971565b1015611773576040517f08c379a000000000000000000000000000000000000000000000000000000000815260040161176a90615aec565b60405180910390fd5b818361177f9190615971565b845110156117c2576040517f08c379a00000000000000000000000000000000000000000000000000000000081526004016117b990615b58565b60405180910390fd5b60608215600081146117e35760405191506000825260208201604052611834565b6040519150601f8416801560200281840101858101878315602002848b0101015b818310156118215780518352602083019250602081019050611804565b50868552601f19601f8301166040525050505b50809150509392505050565b606060008060008061185288886123a4565b8098508194505050600086148061186857508286115b1561187557829150611879565b8591505b60008267ffffffffffffffff8111156118955761189461479d565b5b6040519080825280602002602001820160405280156118c35781602001602082028036833780820191505090505b50905060005b8381101561193f576024896118de9190615971565b98506118ea8a8a6123a4565b809a5081945050508282828151811061190657611905615820565b5b60200260200101818152505060048361191f9190615971565b8961192a9190615971565b985080806119379061588b565b9150506118c9565b5080889550955050505050935093915050565b60608060606000806000806119678a8a6123a4565b809a508194505050600088148061197d57508288115b1561198a5782915061198e565b8791505b60008267ffffffffffffffff8111156119aa576119a961479d565b5b6040519080825280602002602001820160405280156119d85781602001602082028036833780820191505090505b50905060008367ffffffffffffffff8111156119f7576119f661479d565b5b604051908082528060200260200182016040528015611a255781602001602082028036833780820191505090505b50905060008467ffffffffffffffff811115611a4457611a4361479d565b5b604051908082528060200260200182016040528015611a725781602001602082028036833780820191505090505b50905060005b85811015611b2d57611a8c8e8e604061248c565b828281518110611a9f57611a9e615820565b5b60200260200101818152505060088d611ab89190615971565b9c50611ac48e8e6123a4565b809e5081965050508c848281518110611ae057611adf615820565b5b60200260200101818152505084838281518110611b0057611aff615820565b5b602002602001018181525050848d611b189190615971565b9c508080611b259061588b565b915050611a78565b508083838e995099509950995050505050505093509350935093565b6000806000611b598686866128f7565b15611bab57611b7486600387611b6f9190615971565b611d8c565b611b8a87602888611b859190615971565b611d8c565b611ba088604c89611b9b9190615971565b611d8c565b925092509250611bbe565b6000801b6000801b6000801b9250925092505b93509350939050565b6000611bd4848484612ea6565b15611c0557611bef84600385611bea9190615971565b611ca9565b6bffffffffffffffffffffffff19169050611ca2565b611c1084848461306b565b15611c4157611c2b84600285611c269190615971565b611ca9565b6bffffffffffffffffffffffff19169050611ca2565b611c4c848484613188565b15611c6e57611c6784600285611c629190615971565b611d8c565b9050611ca2565b611c798484846128f7565b15611c9b57611c9484600285611c8f9190615971565b611d8c565b9050611ca2565b6000801b90505b9392505050565b6000806000905060005b60148173ffffffffffffffffffffffffffffffffffffffff161015611d7e57806013611cdf9190615b98565b6008611ceb9190615be0565b73ffffffffffffffffffffffffffffffffffffffff1685858373ffffffffffffffffffffffffffffffffffffffff16611d249190615971565b81518110611d3557611d34615820565b5b602001015160f81c60f81b60f81c60ff1673ffffffffffffffffffffffffffffffffffffffff16901b82611d699190615c22565b91508080611d7690615c6a565b915050611cb3565b508060601b91505092915050565b6000806000905060005b6020811015611e095780601f611dac9190615734565b6008611db89190615ca6565b858583611dc59190615971565b81518110611dd657611dd5615820565b5b602001015160f81c60f81b60f81c60ff16901b82611df49190615971565b91508080611e019061588b565b915050611d96565b508060001b91505092915050565b606081604051602001611e2a9190615870565b6040516020818303038152906040529050919050565b60606000805b601f811015611eb95780601e611e5c9190615734565b6008611e689190615ca6565b858583611e759190615971565b81518110611e8657611e85615820565b5b602001015160f81c60f81b60f81c60ff16901b82611ea49190615971565b91508080611eb19061588b565b915050611e46565b50611ec38161324b565b91505092915050565b600060028083604051611edf91906151c4565b602060405180830381855afa158015611efc573d6000803e3d6000fd5b5050506040513d601f19601f82011682018060405250810190611f1f91906151f0565b604051602001611f2f9190615870565b604051602081830303815290604052604051611f4b91906151c4565b602060405180830381855afa158015611f68573d6000803e3d6000fd5b5050506040513d601f19601f82011682018060405250810190611f8b91906151f0565b9050919050565b60008060007ffffffffffffffffffffffffffffffffffffffffffffffffffffffffefffffc2f80611fc657611fc56158d3565b5b60018760ff16901c60ff167ffffffffffffffffffffffffffffffffffffffffffffffffffffffffefffffc2f611ffc9190615ca6565b860890507ffffffffffffffffffffffffffffffffffffffffffffffffffffffffefffffc2f81118061204d57507ffffffffffffffffffffffffffffffffebaaedce6af48a03bbfd25e8cd036414184115b8061207757507ffffffffffffffffffffffffffffffffebaaedce6af48a03bbfd25e8cd036414185115b806120825750600084145b8061208d5750600085145b8061209b575060018660ff16115b156120ad57600080925092505061239b565b60006120d9867ffffffffffffffffffffffffffffffffebaaedce6af48a03bbfd25e8cd03641416132cb565b905060007ffffffffffffffffffffffffffffffffffffffffffffffffffffffffefffffc2f8061210c5761210b6158d3565b5b7ffffffffffffffffffffffffffffffffffffffffffffffffffffffffefffffc2f8061213b5761213a6158d3565b5b60077ffffffffffffffffffffffffffffffffffffffffffffffffffffffffefffffc2f8061216c5761216b6158d3565b5b60008709087ffffffffffffffffffffffffffffffffffffffffffffffffffffffffefffffc2f806121a05761219f6158d3565b5b7ffffffffffffffffffffffffffffffffffffffffffffffffffffffffefffffc2f806121cf576121ce6158d3565b5b868709860908905061221981600460017ffffffffffffffffffffffffffffffffffffffffffffffffffffffffefffffc2f61220a9190615971565b6122149190615ce8565b6133b7565b9050600080600160028b60ff16856122319190615971565b61223b9190615971565b161461227257817ffffffffffffffffffffffffffffffffffffffffffffffffffffffffefffffc2f61226d9190615734565b612274565b815b905060008060006123247ffffffffffffffffffffffffffffffffebaaedce6af48a03bbfd25e8cd0364141806122ad576122ac6158d3565b5b8e7ffffffffffffffffffffffffffffffffebaaedce6af48a03bbfd25e8cd03641416122d99190615734565b88097f79be667ef9dcbbac55a06295ce870b07029bfcdb2dce28d959f2815b16f817987f483ada7726a3c4655da4fbfc0e1108a8fd17b448a68554199c47d08ffb10d4b8600161356b565b925092509250600080600061236d7ffffffffffffffffffffffffffffffffebaaedce6af48a03bbfd25e8cd036414180612361576123606158d3565b5b8e8b098b89600161356b565b925092509250600080612384888888888888613605565b9150915081819d509d505050505050505050505050505b94509492505050565b60008060008484815181106123bc576123bb615820565b5b602001015160f81c60f81b60f81c90506001846123d99190615971565b935060fd8160ff1610156123f95780848160ff1691509250925050612485565b60fd8160ff1603612427576124108585601061248c565b60028561241d9190615971565b9250925050612485565b60fe8160ff16036124555761243e8585602061248c565b60048561244b9190615971565b9250925050612485565b60ff8160ff16036124835761246c8585604061248c565b6008856124799190615971565b9250925050612485565b505b9250929050565b6000600882036124c1578383815181106124a9576124a8615820565b5b602001015160f81c60f81b60f81c60ff1690506128f0565b6010820361254357610100846001856124da9190615971565b815181106124eb576124ea615820565b5b602001015160f81c60f81b60f81c60ff166125069190615d27565b61ffff1684848151811061251d5761251c615820565b5b602001015160f81c60f81b60f81c60ff1661ffff1661253c9190615971565b90506128f0565b602082036126665763010000008460038561255e9190615971565b8151811061256f5761256e615820565b5b602001015160f81c60f81b60f81c60ff1661258a9190615d74565b63ffffffff1662010000856002866125a29190615971565b815181106125b3576125b2615820565b5b602001015160f81c60f81b60f81c60ff166125ce9190615d74565b63ffffffff16610100866001876125e59190615971565b815181106125f6576125f5615820565b5b602001015160f81c60f81b60f81c60ff166126119190615d74565b63ffffffff1686868151811061262a57612629615820565b5b602001015160f81c60f81b60f81c60ff1663ffffffff1661264b9190615971565b6126559190615971565b61265f9190615971565b90506128f0565b604082036128ef57670100000000000000846007856126859190615971565b8151811061269657612695615820565b5b602001015160f81c60f81b60f81c60ff166126b19190615dc5565b67ffffffffffffffff166601000000000000856006866126d19190615971565b815181106126e2576126e1615820565b5b602001015160f81c60f81b60f81c60ff166126fd9190615dc5565b67ffffffffffffffff16650100000000008660058761271c9190615971565b8151811061272d5761272c615820565b5b602001015160f81c60f81b60f81c60ff166127489190615dc5565b67ffffffffffffffff16640100000000876004886127669190615971565b8151811061277757612776615820565b5b602001015160f81c60f81b60f81c60ff166127929190615dc5565b67ffffffffffffffff166301000000886003896127af9190615971565b815181106127c0576127bf615820565b5b602001015160f81c60f81b60f81c60ff166127db9190615dc5565b67ffffffffffffffff16620100008960028a6127f79190615971565b8151811061280857612807615820565b5b602001015160f81c60f81b60f81c60ff166128239190615dc5565b67ffffffffffffffff166101008a60018b61283e9190615971565b8151811061284f5761284e615820565b5b602001015160f81c60f81b60f81c60ff1661286a9190615dc5565b67ffffffffffffffff168a8a8151811061288757612886615820565b5b602001015160f81c60f81b60f81c60ff1667ffffffffffffffff166128ac9190615971565b6128b69190615971565b6128c09190615971565b6128ca9190615971565b6128d49190615971565b6128de9190615971565b6128e89190615971565b90506128f0565b5b9392505050565b60006072821480156129575750607660f81b846000856129179190615971565b8151811061292857612927615820565b5b602001015160f81c60f81b7effffffffffffffffffffffffffffffffffffffffffffffffffffffffffffff1916145b80156129b15750602160f81b846001856129719190615971565b8151811061298257612981615820565b5b602001015160f81c60f81b7effffffffffffffffffffffffffffffffffffffffffffffffffffffffffffff1916145b8015612a0b575060ac60f81b846023856129cb9190615971565b815181106129dc576129db615820565b5b602001015160f81c60f81b7effffffffffffffffffffffffffffffffffffffffffffffffffffffffffffff1916145b8015612a655750606360f81b84602485612a259190615971565b81518110612a3657612a35615820565b5b602001015160f81c60f81b7effffffffffffffffffffffffffffffffffffffffffffffffffffffffffffff1916145b8015612abf5750607560f81b84602585612a7f9190615971565b81518110612a9057612a8f615820565b5b602001015160f81c60f81b7effffffffffffffffffffffffffffffffffffffffffffffffffffffffffffff1916145b8015612b19575060aa60f81b84602685612ad99190615971565b81518110612aea57612ae9615820565b5b602001015160f81c60f81b7effffffffffffffffffffffffffffffffffffffffffffffffffffffffffffff1916145b8015612b735750602060f81b84602785612b339190615971565b81518110612b4457612b43615820565b5b602001015160f81c60f81b7effffffffffffffffffffffffffffffffffffffffffffffffffffffffffffff1916145b8015612bcd5750608860f81b84604885612b8d9190615971565b81518110612b9e57612b9d615820565b5b602001015160f81c60f81b7effffffffffffffffffffffffffffffffffffffffffffffffffffffffffffff1916145b8015612c275750606760f81b84604985612be79190615971565b81518110612bf857612bf7615820565b5b602001015160f81c60f81b7effffffffffffffffffffffffffffffffffffffffffffffffffffffffffffff1916145b8015612c815750602160f81b84604a85612c419190615971565b81518110612c5257612c51615820565b5b602001015160f81c60f81b7effffffffffffffffffffffffffffffffffffffffffffffffffffffffffffff1916145b8015612cdb575060ad60f81b84606c85612c9b9190615971565b81518110612cac57612cab615820565b5b602001015160f81c60f81b7effffffffffffffffffffffffffffffffffffffffffffffffffffffffffffff1916145b8015612d355750605260f81b84606d85612cf59190615971565b81518110612d0657612d05615820565b5b602001015160f81c60f81b7effffffffffffffffffffffffffffffffffffffffffffffffffffffffffffff1916145b8015612d8f575060b260f81b84606e85612d4f9190615971565b81518110612d6057612d5f615820565b5b602001015160f81c60f81b7effffffffffffffffffffffffffffffffffffffffffffffffffffffffffffff1916145b8015612de95750607560f81b84606f85612da99190615971565b81518110612dba57612db9615820565b5b602001015160f81c60f81b7effffffffffffffffffffffffffffffffffffffffffffffffffffffffffffff1916145b8015612e435750606860f81b84607085612e039190615971565b81518110612e1457612e13615820565b5b602001015160f81c60f81b7effffffffffffffffffffffffffffffffffffffffffffffffffffffffffffff1916145b8015612e9d5750605160f81b84607185612e5d9190615971565b81518110612e6e57612e6d615820565b5b602001015160f81c60f81b7effffffffffffffffffffffffffffffffffffffffffffffffffffffffffffff1916145b90509392505050565b6000601982148015612efa5750607660f81b848481518110612ecb57612eca615820565b5b602001015160f81c60f81b7effffffffffffffffffffffffffffffffffffffffffffffffffffffffffffff1916145b8015612f54575060a960f81b84600185612f149190615971565b81518110612f2557612f24615820565b5b602001015160f81c60f81b7effffffffffffffffffffffffffffffffffffffffffffffffffffffffffffff1916145b8015612fae5750601460f81b84600285612f6e9190615971565b81518110612f7f57612f7e615820565b5b602001015160f81c60f81b7effffffffffffffffffffffffffffffffffffffffffffffffffffffffffffff1916145b80156130085750608860f81b84601785612fc89190615971565b81518110612fd957612fd8615820565b5b602001015160f81c60f81b7effffffffffffffffffffffffffffffffffffffffffffffffffffffffffffff1916145b8015613062575060ac60f81b846018856130229190615971565b8151811061303357613032615820565b5b602001015160f81c60f81b7effffffffffffffffffffffffffffffffffffffffffffffffffffffffffffff1916145b90509392505050565b60006017821480156130cb575060a960f81b8460008561308b9190615971565b8151811061309c5761309b615820565b5b602001015160f81c60f81b7effffffffffffffffffffffffffffffffffffffffffffffffffffffffffffff1916145b80156131255750601460f81b846001856130e59190615971565b815181106130f6576130f5615820565b5b602001015160f81c60f81b7effffffffffffffffffffffffffffffffffffffffffffffffffffffffffffff1916145b801561317f5750608760f81b8460168561313f9190615971565b815181106131505761314f615820565b5b602001015160f81c60f81b7effffffffffffffffffffffffffffffffffffffffffffffffffffffffffffff1916145b90509392505050565b60006022821480156131e85750606a60f81b846000856131a89190615971565b815181106131b9576131b8615820565b5b602001015160f81c60f81b7effffffffffffffffffffffffffffffffffffffffffffffffffffffffffffff1916145b80156132425750602060f81b846001856132029190615971565b8151811061321357613212615820565b5b602001015160f81c60f81b7effffffffffffffffffffffffffffffffffffffffffffffffffffffffffffff1916145b90509392505050565b60607f7fffffffffffffffffffffffffffffffffffffffffffffffffffffffffffffff8211156132b0576040517f08c379a00000000000000000000000000000000000000000000000000000000081526004016132a790615e4e565b60405180910390fd5b60405190506020815281602082015260408101604052919050565b60008083141580156132dd5750818314155b80156132ea575060008214155b613329576040517f08c379a000000000000000000000000000000000000000000000000000000000815260040161332090615eba565b60405180910390fd5b60008060019050600084905060005b600087146133aa57868261334c9190615ce8565b905082868061335e5761335d6158d3565b5b878061336d5761336c6158d3565b5b8584098861337b9190615734565b860880945081955050508687826133929190615ca6565b8361339d9190615734565b8098508193505050613338565b8394505050505092915050565b60008083036133c95760009050613565565b600082036133da5760019050613565565b60006001905060007f800000000000000000000000000000000000000000000000000000000000000090505b600081111561355f577ffffffffffffffffffffffffffffffffffffffffffffffffffffffffefffffc2f8185161515860a7ffffffffffffffffffffffffffffffffffffffffffffffffffffffffefffffc2f8485090991507ffffffffffffffffffffffffffffffffffffffffffffffffffffffffefffffc2f6002820485161515860a7ffffffffffffffffffffffffffffffffffffffffffffffffffffffffefffffc2f8485090991507ffffffffffffffffffffffffffffffffffffffffffffffffffffffffefffffc2f6004820485161515860a7ffffffffffffffffffffffffffffffffffffffffffffffffffffffffefffffc2f8485090991507ffffffffffffffffffffffffffffffffffffffffffffffffffffffffefffffc2f6008820485161515860a7ffffffffffffffffffffffffffffffffffffffffffffffffffffffffefffffc2f848509099150601081049050613406565b81925050505b92915050565b6000806000808703613585578585859250925092506135fb565b60008790506000806000600190505b600084146135ed57600060018516146135c2576135b58383838d8d8d6136b1565b8093508194508295505050505b6002846135cf9190615ce8565b93506135dc8a8a8a6140ef565b809a50819b50829c50505050613594565b828282965096509650505050505b9450945094915050565b6000806000806000878b036136785760007ffffffffffffffffffffffffffffffffffffffffffffffffffffffffefffffc2f80613645576136446158d3565b5b888c080361365c57600080945094505050506136a6565b6136678b8b8b6140ef565b809350819450829550505050613693565b6136868b8b8b8b8b8b6136b1565b8093508194508295505050505b61369e83838361456c565b945094505050505b965096945050505050565b600080600080891480156136c55750600088145b156136d8578585859250925092506140e3565b6000861480156136e85750600085145b156136fb578888889250925092506140e3565b61370361474c565b7ffffffffffffffffffffffffffffffffffffffffffffffffffffffffefffffc2f80613732576137316158d3565b5b8889098160006004811061374957613748615820565b5b6020020181815250507ffffffffffffffffffffffffffffffffffffffffffffffffffffffffefffffc2f80613781576137806158d3565b5b8160006004811061379557613794615820565b5b60200201518909816001600481106137b0576137af615820565b5b6020020181815250507ffffffffffffffffffffffffffffffffffffffffffffffffffffffffefffffc2f806137e8576137e76158d3565b5b858609816002600481106137ff576137fe615820565b5b6020020181815250507ffffffffffffffffffffffffffffffffffffffffffffffffffffffffefffffc2f80613837576138366158d3565b5b8160026004811061384b5761384a615820565b5b602002015186098160036004811061386657613865615820565b5b60200201818152505060405180608001604052807ffffffffffffffffffffffffffffffffffffffffffffffffffffffffefffffc2f806138a9576138a86158d3565b5b836002600481106138bd576138bc615820565b5b60200201518d0981526020017ffffffffffffffffffffffffffffffffffffffffffffffffffffffffefffffc2f806138f8576138f76158d3565b5b8360036004811061390c5761390b615820565b5b60200201518c0981526020017ffffffffffffffffffffffffffffffffffffffffffffffffffffffffefffffc2f80613947576139466158d3565b5b8360006004811061395b5761395a615820565b5b60200201518a0981526020017ffffffffffffffffffffffffffffffffffffffffffffffffffffffffefffffc2f80613996576139956158d3565b5b836001600481106139aa576139a9615820565b5b602002015189098152509050806002600481106139ca576139c9615820565b5b6020020151816000600481106139e3576139e2615820565b5b6020020151141580613a25575080600360048110613a0457613a03615820565b5b602002015181600160048110613a1d57613a1c615820565b5b602002015114155b613a64576040517f08c379a0000000000000000000000000000000000000000000000000000000008152600401613a5b90615f26565b60405180910390fd5b613a6c61474c565b7ffffffffffffffffffffffffffffffffffffffffffffffffffffffffefffffc2f80613a9b57613a9a6158d3565b5b82600060048110613aaf57613aae615820565b5b60200201517ffffffffffffffffffffffffffffffffffffffffffffffffffffffffefffffc2f613adf9190615734565b83600260048110613af357613af2615820565b5b60200201510881600060048110613b0d57613b0c615820565b5b6020020181815250507ffffffffffffffffffffffffffffffffffffffffffffffffffffffffefffffc2f80613b4557613b446158d3565b5b82600160048110613b5957613b58615820565b5b60200201517ffffffffffffffffffffffffffffffffffffffffffffffffffffffffefffffc2f613b899190615734565b83600360048110613b9d57613b9c615820565b5b60200201510881600160048110613bb757613bb6615820565b5b6020020181815250507ffffffffffffffffffffffffffffffffffffffffffffffffffffffffefffffc2f80613bef57613bee6158d3565b5b81600060048110613c0357613c02615820565b5b602002015182600060048110613c1c57613c1b615820565b5b60200201510981600260048110613c3657613c35615820565b5b6020020181815250507ffffffffffffffffffffffffffffffffffffffffffffffffffffffffefffffc2f80613c6e57613c6d6158d3565b5b81600060048110613c8257613c81615820565b5b602002015182600260048110613c9b57613c9a615820565b5b60200201510981600360048110613cb557613cb4615820565b5b60200201818152505060007ffffffffffffffffffffffffffffffffffffffffffffffffffffffffefffffc2f80613cef57613cee6158d3565b5b82600360048110613d0357613d02615820565b5b60200201517ffffffffffffffffffffffffffffffffffffffffffffffffffffffffefffffc2f613d339190615734565b7ffffffffffffffffffffffffffffffffffffffffffffffffffffffffefffffc2f80613d6257613d616158d3565b5b84600160048110613d7657613d75615820565b5b602002015185600160048110613d8f57613d8e615820565b5b6020020151090890507ffffffffffffffffffffffffffffffffffffffffffffffffffffffffefffffc2f80613dc757613dc66158d3565b5b7ffffffffffffffffffffffffffffffffffffffffffffffffffffffffefffffc2f80613df657613df56158d3565b5b7ffffffffffffffffffffffffffffffffffffffffffffffffffffffffefffffc2f80613e2557613e246158d3565b5b84600260048110613e3957613e38615820565b5b602002015186600060048110613e5257613e51615820565b5b6020020151096002097ffffffffffffffffffffffffffffffffffffffffffffffffffffffffefffffc2f613e869190615734565b8208905060007ffffffffffffffffffffffffffffffffffffffffffffffffffffffffefffffc2f80613ebb57613eba6158d3565b5b7ffffffffffffffffffffffffffffffffffffffffffffffffffffffffefffffc2f80613eea57613ee96158d3565b5b837ffffffffffffffffffffffffffffffffffffffffffffffffffffffffefffffc2f613f169190615734565b7ffffffffffffffffffffffffffffffffffffffffffffffffffffffffefffffc2f80613f4557613f446158d3565b5b86600260048110613f5957613f58615820565b5b602002015188600060048110613f7257613f71615820565b5b6020020151090884600160048110613f8d57613f8c615820565b5b60200201510990507ffffffffffffffffffffffffffffffffffffffffffffffffffffffffefffffc2f80613fc457613fc36158d3565b5b7ffffffffffffffffffffffffffffffffffffffffffffffffffffffffefffffc2f80613ff357613ff26158d3565b5b8460036004811061400757614006615820565b5b6020020151866001600481106140205761401f615820565b5b6020020151097ffffffffffffffffffffffffffffffffffffffffffffffffffffffffefffffc2f6140519190615734565b8208905060007ffffffffffffffffffffffffffffffffffffffffffffffffffffffffefffffc2f80614086576140856158d3565b5b7ffffffffffffffffffffffffffffffffffffffffffffffffffffffffefffffc2f806140b5576140b46158d3565b5b8a8e09856000600481106140cc576140cb615820565b5b602002015109905082828297509750975050505050505b96509650969350505050565b600080600080840361410957858585925092509250614563565b60007ffffffffffffffffffffffffffffffffffffffffffffffffffffffffefffffc2f8061413a576141396158d3565b5b878809905060007ffffffffffffffffffffffffffffffffffffffffffffffffffffffffefffffc2f806141705761416f6158d3565b5b878809905060007ffffffffffffffffffffffffffffffffffffffffffffffffffffffffefffffc2f806141a6576141a56158d3565b5b878809905060007ffffffffffffffffffffffffffffffffffffffffffffffffffffffffefffffc2f806141dc576141db6158d3565b5b7ffffffffffffffffffffffffffffffffffffffffffffffffffffffffefffffc2f8061420b5761420a6158d3565b5b848c09600409905060007ffffffffffffffffffffffffffffffffffffffffffffffffffffffffefffffc2f80614244576142436158d3565b5b7ffffffffffffffffffffffffffffffffffffffffffffffffffffffffefffffc2f80614273576142726158d3565b5b7ffffffffffffffffffffffffffffffffffffffffffffffffffffffffefffffc2f806142a2576142a16158d3565b5b8586096000097ffffffffffffffffffffffffffffffffffffffffffffffffffffffffefffffc2f806142d7576142d66158d3565b5b876003090890507ffffffffffffffffffffffffffffffffffffffffffffffffffffffffefffffc2f8061430d5761430c6158d3565b5b7ffffffffffffffffffffffffffffffffffffffffffffffffffffffffefffffc2f8061433c5761433b6158d3565b5b8384087ffffffffffffffffffffffffffffffffffffffffffffffffffffffffefffffc2f61436a9190615734565b7ffffffffffffffffffffffffffffffffffffffffffffffffffffffffefffffc2f80614399576143986158d3565b5b8384090894507ffffffffffffffffffffffffffffffffffffffffffffffffffffffffefffffc2f806143ce576143cd6158d3565b5b7ffffffffffffffffffffffffffffffffffffffffffffffffffffffffefffffc2f806143fd576143fc6158d3565b5b7ffffffffffffffffffffffffffffffffffffffffffffffffffffffffefffffc2f8061442c5761442b6158d3565b5b8687096008097ffffffffffffffffffffffffffffffffffffffffffffffffffffffffefffffc2f61445d9190615734565b7ffffffffffffffffffffffffffffffffffffffffffffffffffffffffefffffc2f8061448c5761448b6158d3565b5b7ffffffffffffffffffffffffffffffffffffffffffffffffffffffffefffffc2f806144bb576144ba6158d3565b5b887ffffffffffffffffffffffffffffffffffffffffffffffffffffffffefffffc2f6144e79190615734565b860884090893507ffffffffffffffffffffffffffffffffffffffffffffffffffffffffefffffc2f8061451d5761451c6158d3565b5b7ffffffffffffffffffffffffffffffffffffffffffffffffffffffffefffffc2f8061454c5761454b6158d3565b5b8a8c09600209925084848497509750975050505050505b93509350939050565b600080600061459b847ffffffffffffffffffffffffffffffffffffffffffffffffffffffffefffffc2f6132cb565b905060007ffffffffffffffffffffffffffffffffffffffffffffffffffffffffefffffc2f806145ce576145cd6158d3565b5b828309905060007ffffffffffffffffffffffffffffffffffffffffffffffffffffffffefffffc2f80614604576146036158d3565b5b828909905060007ffffffffffffffffffffffffffffffffffffffffffffffffffffffffefffffc2f8061463a576146396158d3565b5b7ffffffffffffffffffffffffffffffffffffffffffffffffffffffffefffffc2f80614669576146686158d3565b5b8486098909905081819550955050505050935093915050565b6040518060800160405280600081526020016000801916815260200160008019168152602001600080191681525090565b60405180604001604052806000815260200160006bffffffffffffffffffffffff191681525090565b604051806040016040528060008152602001600080191681525090565b6040518060a0016040528060008152602001606081526020016060815260200160608152602001606081525090565b6040518060600160405280600060ff16815260200160608152602001606081525090565b6040518060800160405280600490602082028036833780820191505090505090565b6000604051905090565b600080fd5b600080fd5b600080fd5b600080fd5b6000601f19601f8301169050919050565b7f4e487b7100000000000000000000000000000000000000000000000000000000600052604160045260246000fd5b6147d58261478c565b810181811067ffffffffffffffff821117156147f4576147f361479d565b5b80604052505050565b600061480761476e565b905061481382826147cc565b919050565b600067ffffffffffffffff8211156148335761483261479d565b5b61483c8261478c565b9050602081019050919050565b82818337600083830152505050565b600061486b61486684614818565b6147fd565b90508281526020810184848401111561488757614886614787565b5b614892848285614849565b509392505050565b600082601f8301126148af576148ae614782565b5b81356148bf848260208601614858565b91505092915050565b600080604083850312156148df576148de614778565b5b600083013567ffffffffffffffff8111156148fd576148fc61477d565b5b6149098582860161489a565b925050602083013567ffffffffffffffff81111561492a5761492961477d565b5b6149368582860161489a565b9150509250929050565b60008115159050919050565b61495581614940565b82525050565b6000602082019050614970600083018461494c565b92915050565b600080600080608085870312156149905761498f614778565b5b600085013567ffffffffffffffff8111156149ae576149ad61477d565b5b6149ba8782880161489a565b945050602085013567ffffffffffffffff8111156149db576149da61477d565b5b6149e78782880161489a565b935050604085013567ffffffffffffffff811115614a0857614a0761477d565b5b614a148782880161489a565b925050606085013567ffffffffffffffff811115614a3557614a3461477d565b5b614a418782880161489a565b91505092959194509250565b600080600060608486031215614a6657614a65614778565b5b600084013567ffffffffffffffff811115614a8457614a8361477d565b5b614a908682870161489a565b935050602084013567ffffffffffffffff811115614ab157614ab061477d565b5b614abd8682870161489a565b925050604084013567ffffffffffffffff811115614ade57614add61477d565b5b614aea8682870161489a565b9150509250925092565b6000819050919050565b614b0781614af4565b8114614b1257600080fd5b50565b600081359050614b2481614afe565b92915050565b6000819050919050565b614b3d81614b2a565b8114614b4857600080fd5b50565b600081359050614b5a81614b34565b92915050565b60008060008060008060008060006101208a8c031215614b8357614b82614778565b5b6000614b918c828d01614b15565b99505060208a013567ffffffffffffffff811115614bb257614bb161477d565b5b614bbe8c828d0161489a565b98505060408a013567ffffffffffffffff811115614bdf57614bde61477d565b5b614beb8c828d0161489a565b97505060608a013567ffffffffffffffff811115614c0c57614c0b61477d565b5b614c188c828d0161489a565b96505060808a013567ffffffffffffffff811115614c3957614c3861477d565b5b614c458c828d0161489a565b95505060a08a013567ffffffffffffffff811115614c6657614c6561477d565b5b614c728c828d0161489a565b94505060c08a013567ffffffffffffffff811115614c9357614c9261477d565b5b614c9f8c828d0161489a565b93505060e0614cb08c828d01614b4b565b925050610100614cc28c828d01614b4b565b9150509295985092959850929598565b614cdb81614af4565b82525050565b600081519050919050565b600082825260208201905092915050565b60005b83811015614d1b578082015181840152602081019050614d00565b60008484015250505050565b6000614d3282614ce1565b614d3c8185614cec565b9350614d4c818560208601614cfd565b614d558161478c565b840191505092915050565b614d6981614b2a565b82525050565b600061014082019050614d85600083018d614cd2565b8181036020830152614d97818c614d27565b90508181036040830152614dab818b614d27565b90508181036060830152614dbf818a614d27565b90508181036080830152614dd38189614d27565b905081810360a0830152614de78188614d27565b905081810360c0830152614dfb8187614d27565b9050614e0a60e0830186614d60565b614e18610100830185614d60565b614e26610120830184614d60565b9b9a5050505050505050505050565b600082825260208201905092915050565b7f436f6d6d69746d656e74207472616e73616374696f6e206f662050206973206c60008201527f6f636b6564000000000000000000000000000000000000000000000000000000602082015250565b6000614ea2602583614e35565b9150614ead82614e46565b604082019050919050565b60006020820190508181036000830152614ed181614e95565b9050919050565b7f436f6d6d69746d656e74207472616e73616374696f6e206f662056206973206c60008201527f6f636b6564000000000000000000000000000000000000000000000000000000602082015250565b6000614f34602583614e35565b9150614f3f82614ed8565b604082019050919050565b60006020820190508181036000830152614f6381614f27565b9050919050565b7f50277320636f6d6d69746d656e74207472616e73616374696f6e20646f65732060008201527f6e6f742068617264636f646520562773207265766f636174696f6e206b657900602082015250565b6000614fc6603f83614e35565b9150614fd182614f6a565b604082019050919050565b60006020820190508181036000830152614ff581614fb9565b9050919050565b7f416d6f756e74206d69736d61746368206265747765656e207032706b68206f6660008201527f205020616e64206c696768746e696e672048544c43206f662056000000000000602082015250565b6000615058603a83614e35565b915061506382614ffc565b604082019050919050565b600060208201905081810360008301526150878161504b565b9050919050565b7f416d6f756e74206d69736d61746368206265747765656e207032706b68206f6660008201527f205620616e64206c696768746e696e672048544c43206f662050000000000000602082015250565b60006150ea603a83614e35565b91506150f58261508e565b604082019050919050565b60006020820190508181036000830152615119816150dd565b9050919050565b60007fffffffffffffffffffffffffffffffffffffffff00000000000000000000000082169050919050565b6000819050919050565b61516761516282615120565b61514c565b82525050565b60006151798284615156565b60148201915081905092915050565b600081905092915050565b600061519e82614ce1565b6151a88185615188565b93506151b8818560208601614cfd565b80840191505092915050565b60006151d08284615193565b915081905092915050565b6000815190506151ea81614afe565b92915050565b60006020828403121561520657615205614778565b5b6000615214848285016151db565b91505092915050565b7f4e487b7100000000000000000000000000000000000000000000000000000000600052602260045260246000fd5b6000600282049050600182168061526457607f821691505b6020821081036152775761527661521d565b5b50919050565b7f546865207032706b6820696e2050277320756e6c6f636b656420636f6d6d697460008201527f6d656e74207472616e73616374696f6e20646f6573206e6f7420636f7272657360208201527f706f6e6420746f2056657269666965722773206f6e6500000000000000000000604082015250565b60006152ff605683614e35565b915061530a8261527d565b606082019050919050565b6000602082019050818103600083015261532e816152f2565b9050919050565b7f546865207032706b6820696e2056277320756e6c6f636b656420636f6d6d697460008201527f6d656e74207472616e73616374696f6e20646f6573206e6f7420636f7272657360208201527f706f6e6420746f2050726f7665722773206f6e65000000000000000000000000604082015250565b60006153b7605483614e35565b91506153c282615335565b606082019050919050565b600060208201905081810360008301526153e6816153aa565b9050919050565b60008190508160005260206000209050919050565b6000815461540f8161524c565b6154198186615188565b9450600182166000811461543457600181146154495761547c565b60ff198316865281151582028601935061547c565b615452856153ed565b60005b8381101561547457815481890152600182019150602081019050615455565b838801955050505b50505092915050565b60006154918284615402565b915081905092915050565b60006020601f8301049050919050565b600082821b905092915050565b6000600883026154e97fffffffffffffffffffffffffffffffffffffffffffffffffffffffffffffffff826154ac565b6154f386836154ac565b95508019841693508086168417925050509392505050565b6000819050919050565b600061553061552b61552684614b2a565b61550b565b614b2a565b9050919050565b6000819050919050565b61554a83615515565b61555e61555682615537565b8484546154b9565b825550505050565b600090565b615573615566565b61557e818484615541565b505050565b5b818110156155a25761559760008261556b565b600181019050615584565b5050565b601f8211156155e7576155b8816153ed565b6155c18461549c565b810160208510156155d0578190505b6155e46155dc8561549c565b830182615583565b50505b505050565b600082821c905092915050565b600061560a600019846008026155ec565b1980831691505092915050565b600061562383836155f9565b9150826002028217905092915050565b61563c82614ce1565b67ffffffffffffffff8111156156555761565461479d565b5b61565f825461524c565b61566a8282856155a6565b600060209050601f83116001811461569d576000841561568b578287015190505b6156958582615617565b8655506156fd565b601f1984166156ab866153ed565b60005b828110156156d3578489015182556001820191506020850194506020810190506156ae565b868310156156f057848901516156ec601f8916826155f9565b8355505b6001600288020188555050505b505050505050565b7f4e487b7100000000000000000000000000000000000000000000000000000000600052601160045260246000fd5b600061573f82614b2a565b915061574a83614b2a565b925082820390508181111561576257615761615705565b5b92915050565b6000819050602082019050919050565b60007fffffffff0000000000000000000000000000000000000000000000000000000082169050919050565b60006157b08251615778565b80915050919050565b60006157c482614ce1565b826157ce84615768565b90506157d9816157a4565b92506004821015615819576158147fffffffff00000000000000000000000000000000000000000000000000000000836004036008026154ac565b831692505b5050919050565b7f4e487b7100000000000000000000000000000000000000000000000000000000600052603260045260246000fd5b6000819050919050565b61586a61586582614af4565b61584f565b82525050565b600061587c8284615859565b60208201915081905092915050565b600061589682614b2a565b91507fffffffffffffffffffffffffffffffffffffffffffffffffffffffffffffffff82036158c8576158c7615705565b5b600182019050919050565b7f4e487b7100000000000000000000000000000000000000000000000000000000600052601260045260246000fd5b600061590d82614b2a565b915061591883614b2a565b925082615928576159276158d3565b5b828206905092915050565b600061593f8287615193565b915061594b8286615193565b91506159578285615193565b91506159638284615193565b915081905095945050505050565b600061597c82614b2a565b915061598783614b2a565b925082820190508082111561599f5761599e615705565b5b92915050565b7f746f55696e743235365f6f75744f66426f756e64730000000000000000000000600082015250565b60006159db601583614e35565b91506159e6826159a5565b602082019050919050565b60006020820190508181036000830152615a0a816159ce565b9050919050565b600060ff82169050919050565b6000615a2982615a11565b9150615a3483615a11565b9250828203905060ff811115615a4d57615a4c615705565b5b92915050565b6000819050919050565b615a6e615a6982614b2a565b615a53565b82525050565b6000615a808285615a5d565b602082019150615a908284615a5d565b6020820191508190509392505050565b7f736c6963655f6f766572666c6f77000000000000000000000000000000000000600082015250565b6000615ad6600e83614e35565b9150615ae182615aa0565b602082019050919050565b60006020820190508181036000830152615b0581615ac9565b9050919050565b7f736c6963655f6f75744f66426f756e6473000000000000000000000000000000600082015250565b6000615b42601183614e35565b9150615b4d82615b0c565b602082019050919050565b60006020820190508181036000830152615b7181615b35565b9050919050565b600073ffffffffffffffffffffffffffffffffffffffff82169050919050565b6000615ba382615b78565b9150615bae83615b78565b9250828203905073ffffffffffffffffffffffffffffffffffffffff811115615bda57615bd9615705565b5b92915050565b6000615beb82615b78565b9150615bf683615b78565b9250828202615c0481615b78565b91508282048414831517615c1b57615c1a615705565b5b5092915050565b6000615c2d82615b78565b9150615c3883615b78565b9250828201905073ffffffffffffffffffffffffffffffffffffffff811115615c6457615c63615705565b5b92915050565b6000615c7582615b78565b915073ffffffffffffffffffffffffffffffffffffffff8203615c9b57615c9a615705565b5b600182019050919050565b6000615cb182614b2a565b9150615cbc83614b2a565b9250828202615cca81614b2a565b91508282048414831517615ce157615ce0615705565b5b5092915050565b6000615cf382614b2a565b9150615cfe83614b2a565b925082615d0e57615d0d6158d3565b5b828204905092915050565b600061ffff82169050919050565b6000615d3282615d19565b9150615d3d83615d19565b9250828202615d4b81615d19565b9150808214615d5d57615d5c615705565b5b5092915050565b600063ffffffff82169050919050565b6000615d7f82615d64565b9150615d8a83615d64565b9250828202615d9881615d64565b9150808214615daa57615da9615705565b5b5092915050565b600067ffffffffffffffff82169050919050565b6000615dd082615db1565b9150615ddb83615db1565b9250828202615de981615db1565b9150808214615dfb57615dfa615705565b5b5092915050565b7f56616c75652065786365656473207468652072616e6765000000000000000000600082015250565b6000615e38601783614e35565b9150615e4382615e02565b602082019050919050565b60006020820190508181036000830152615e6781615e2b565b9050919050565b7f496e76616c6964206e756d626572000000000000000000000000000000000000600082015250565b6000615ea4600e83614e35565b9150615eaf82615e6e565b602082019050919050565b60006020820190508181036000830152615ed381615e97565b9050919050565b7f557365206a6163446f75626c652066756e6374696f6e20696e73746561640000600082015250565b6000615f10601e83614e35565b9150615f1b82615eda565b602082019050919050565b60006020820190508181036000830152615f3f81615f03565b905091905056fea2646970667358221220be29d060d03e2a333e8eab9a934e4c2af79fb45f973eff171412014a2b26f3ec64736f6c63430008130033",
  "linkReferences": {},
  "deployedLinkReferences": {}
}