{
  "_format": "hh-sol-artifact-1",
  "contractName": "LNBridge",
  "sourceName": "contracts/LNBridge.sol",
  "abi": [
    {
      "inputs": [
        {
          "internalType": "address",
          "name": "_prover",
          "type": "address"
        },
        {
          "internalType": "address",
          "name": "_verifier",
          "type": "address"
        }
      ],
      "stateMutability": "nonpayable",
      "type": "constructor"
    },
    {
      "anonymous": false,
      "inputs": [
        {
          "indexed": false,
          "internalType": "string",
          "name": "label",
          "type": "string"
        },
        {
          "indexed": false,
          "internalType": "address",
          "name": "addr",
          "type": "address"
        },
        {
          "indexed": false,
          "internalType": "uint256",
          "name": "amount",
          "type": "uint256"
        }
      ],
      "name": "lockEvent",
      "type": "event"
    },
    {
      "anonymous": false,
      "inputs": [
        {
          "indexed": false,
          "internalType": "string",
          "name": "label",
          "type": "string"
        },
        {
          "indexed": false,
          "internalType": "bool",
          "name": "status",
          "type": "bool"
        }
      ],
      "name": "stateEvent",
      "type": "event"
    },
    {
      "inputs": [],
      "name": "bridge",
      "outputs": [
        {
          "internalType": "bytes32",
          "name": "fundTxId",
          "type": "bytes32"
        },
        {
          "internalType": "bytes",
          "name": "fundTxScript",
          "type": "bytes"
        },
        {
          "internalType": "bytes4",
          "name": "fundTxIndx",
          "type": "bytes4"
        },
        {
          "internalType": "bytes",
          "name": "sighash",
          "type": "bytes"
        },
        {
          "internalType": "bytes",
          "name": "pkPUncompr",
          "type": "bytes"
        },
        {
          "internalType": "bytes",
          "name": "pkVUncompr",
          "type": "bytes"
        },
        {
          "internalType": "uint256",
          "name": "timelock",
          "type": "uint256"
        },
        {
          "internalType": "uint256",
          "name": "timelockDisp",
          "type": "uint256"
        },
        {
          "internalType": "uint256",
          "name": "balDistr",
          "type": "uint256"
        }
      ],
      "stateMutability": "view",
      "type": "function"
    },
    {
      "inputs": [
        {
          "internalType": "bytes",
          "name": "CT_P_locked",
          "type": "bytes"
        },
        {
          "internalType": "bytes",
          "name": "CT_V_unlocked",
          "type": "bytes"
        }
      ],
      "name": "dispute",
      "outputs": [],
      "stateMutability": "nonpayable",
      "type": "function"
    },
    {
      "inputs": [
        {
          "internalType": "bytes",
          "name": "sigP",
          "type": "bytes"
        },
        {
          "internalType": "bytes",
          "name": "sigV",
          "type": "bytes"
        },
        {
          "internalType": "uint256",
          "name": "seqNumber",
          "type": "uint256"
        }
      ],
      "name": "optimisticProof",
      "outputs": [],
      "stateMutability": "nonpayable",
      "type": "function"
    },
    {
      "inputs": [],
      "name": "paymentChan",
      "outputs": [
        {
          "internalType": "uint256",
          "name": "balP",
          "type": "uint256"
        },
        {
          "internalType": "uint256",
          "name": "balV",
          "type": "uint256"
        },
        {
          "internalType": "bytes32",
          "name": "rKey",
          "type": "bytes32"
        }
      ],
      "stateMutability": "view",
      "type": "function"
    },
    {
      "inputs": [
        {
          "internalType": "string",
          "name": "revSecret",
          "type": "string"
        }
      ],
      "name": "resolveInvalidDispute",
      "outputs": [],
      "stateMutability": "nonpayable",
      "type": "function"
    },
    {
      "inputs": [
        {
          "internalType": "bytes",
          "name": "CT_P_unlocked",
          "type": "bytes"
        }
      ],
      "name": "resolveValidDispute",
      "outputs": [],
      "stateMutability": "nonpayable",
      "type": "function"
    },
    {
      "inputs": [],
      "name": "settle",
      "outputs": [],
      "stateMutability": "payable",
      "type": "function"
    },
    {
      "inputs": [
        {
          "internalType": "bytes32",
          "name": "fundTxId",
          "type": "bytes32"
        },
        {
          "internalType": "bytes",
          "name": "fundTxScript",
          "type": "bytes"
        },
        {
          "internalType": "bytes4",
          "name": "fundTxIndx",
          "type": "bytes4"
        },
        {
          "internalType": "bytes",
          "name": "sighash",
          "type": "bytes"
        },
        {
          "internalType": "bytes",
          "name": "pkPUncompr",
          "type": "bytes"
        },
        {
          "internalType": "bytes",
          "name": "pkVUncompr",
          "type": "bytes"
        },
        {
          "internalType": "uint256",
          "name": "timelock",
          "type": "uint256"
        },
        {
          "internalType": "uint256",
          "name": "timelockDisp",
          "type": "uint256"
        },
        {
          "internalType": "bytes",
          "name": "sigP",
          "type": "bytes"
        },
        {
          "internalType": "bytes",
          "name": "sigV",
          "type": "bytes"
        }
      ],
      "name": "setup",
      "outputs": [],
      "stateMutability": "nonpayable",
      "type": "function"
    },
    {
      "inputs": [],
      "name": "state",
      "outputs": [
        {
          "internalType": "bool",
          "name": "coinsLocked",
          "type": "bool"
        },
        {
          "internalType": "bool",
          "name": "setupDone",
          "type": "bool"
        },
        {
          "internalType": "bool",
          "name": "proofSubmitted",
          "type": "bool"
        },
        {
          "internalType": "bool",
          "name": "disputeOpened",
          "type": "bool"
        },
        {
          "internalType": "bool",
          "name": "disputeClosedP",
          "type": "bool"
        },
        {
          "internalType": "bool",
          "name": "disputeClosedV",
          "type": "bool"
        }
      ],
      "stateMutability": "view",
      "type": "function"
    },
    {
      "inputs": [
        {
          "internalType": "bytes",
          "name": "CT_P_unlocked",
          "type": "bytes"
        },
        {
          "internalType": "bytes",
          "name": "CT_V_unlocked",
          "type": "bytes"
        }
      ],
      "name": "submitProof",
      "outputs": [],
      "stateMutability": "nonpayable",
      "type": "function"
    },
    {
      "stateMutability": "payable",
      "type": "receive"
    }
  ],
  "bytecode": "0x60806040523480156200001157600080fd5b50604051620060c4380380620060c4833981016040819052620000349162000083565b600e80546001600160a01b039384166001600160a01b031991821617909155600f8054929093169116179055620000bb565b80516001600160a01b03811681146200007e57600080fd5b919050565b600080604083850312156200009757600080fd5b620000a28362000066565b9150620000b26020840162000066565b90509250929050565b615ff980620000cb6000396000f3fe6080604052600436106100855760003560e01c80630cb823691461011f5780630ff6ef1f1461014157806311da60b4146101615780633aef14771461016957806361f284ea146101895780637236d92f146101a957806376155391146101c9578063c19d93fb146101e9578063db67a53014610271578063e78cea92146102ab57600080fd5b3661011a57336000908152600d6020526040902034908190556010546100ab9190615567565b6010556009805460ff19166001179055604080516060808252600d908201526c436f696e73206c6f636b65642160981b6080820152336020820152348183015290517f1c6aa042137d34194dd57b7ed5bb0321c3c734d38540b3a9f335a6ae7092dffe9160a0908290030190a1005b600080fd5b34801561012b57600080fd5b5061013f61013a36600461560a565b6102d5565b005b34801561014d57600080fd5b5061013f61015c366004615672565b6104e8565b61013f61072f565b34801561017557600080fd5b5061013f6101843660046156de565b610c7e565b34801561019557600080fd5b5061013f6101a436600461575e565b611174565b3480156101b557600080fd5b5061013f6101c4366004615883565b6113ba565b3480156101d557600080fd5b5061013f6101e43660046156de565b61186c565b3480156101f557600080fd5b506009546102339060ff80821691610100810482169162010000820481169163010000008104821691600160201b8204811691600160281b90041686565b604080519615158752941515602087015292151593850193909352151560608401529015156080830152151560a082015260c0015b60405180910390f35b34801561027d57600080fd5b50600a54600b54600c5461029092919083565b60408051938452602084019290925290820152606001610268565b3480156102b757600080fd5b506102c0611b78565b6040516102689998979695949392919061590f565b6007546006546102e59190615567565b42108015610341575060095460ff1615156001148015610312575060095460ff6101009091041615156001145b8015610327575060095462010000900460ff16155b801561034157506009546301000000900460ff1615156001145b801561040a5750600280826040516103599190615998565b602060405180830381855afa158015610376573d6000803e3d6000fd5b5050506040513d601f19601f8201168201806040525081019061039991906159b4565b6040516020016103ab91815260200190565b60408051601f19818403018152908290526103c591615998565b602060405180830381855afa1580156103e2573d6000803e3d6000fd5b5050506040513d601f19601f8201168201806040525081019061040591906159b4565b600c54145b15610488576009805460ff60281b1916600160281b90811791829055604051600080516020615fa48339815191529261047d92900460ff1690604080825260189082015277125b9d985b1a5908111a5cdc1d5d19481c995cdbdb1d995960421b6060820152901515602082015260800190565b60405180910390a150565b60095460408051818152601a9181019190915279125b9d985b1a5908111a5cdc1d5d19481d5b9c995cdbdb1d995960321b6060820152600160281b90910460ff1615156020820152600080516020615fa48339815191529060800161047d565b600060026104f583611dde565b604080516d1c1c9bdbd994dd589b5a5d1d195960921b60208201528151600e818303018152602e82018352600160f81b604e8301528251602f818403018152604f830190935261054a93929091606f016159cd565b60408051601f198184030181529082905261056491615998565b602060405180830381855afa158015610581573d6000803e3d6000fd5b5050506040513d601f19601f820116820180604052508101906105a491906159b4565b600654909150421080156105bf575060095460ff1615156001145b80156105d8575060095460ff6101009091041615156001145b80156105ed575060095462010000900460ff16155b801561060357506009546301000000900460ff16155b80156106455750610633818560405160200161061f9190615998565b604051602081830303815290604052611e4c565b600e546001600160a01b039081169116145b80156106735750610661818460405160200161061f9190615998565b600f546001600160a01b039081169116145b156106f6576009805462ff000019166201000090811791829055604051600080516020615fa4833981519152926106e992900460ff16906040808252601d908201527f50726f6f66206f7074696d6973746963616c6c792076657269666965640000006060820152901515602082015260800190565b60405180910390a1610729565b600954604051600080516020615fa483398151915291610720916201000090910460ff1690615a10565b60405180910390a15b50505050565b60095462010000900460ff1615156001148061077257506009546301000000900460ff16151560011480156107725750600954600160201b900460ff1615156001145b1561091857600e546008546000916001600160a01b03169061079690606490615a61565b6010546107a39190615a83565b604051600081818185875af1925050503d80600081146107df576040519150601f19603f3d011682016040523d82523d6000602084013e6107e4565b606091505b505090508061080e5760405162461bcd60e51b815260040161080590615aa2565b60405180910390fd5b600f546008546000916001600160a01b03169061082d90606490615a61565b610838906001615ace565b6010546108459190615a83565b604051600081818185875af1925050503d8060008114610881576040519150601f19603f3d011682016040523d82523d6000602084013e610886565b606091505b50509050806108a75760405162461bcd60e51b815260040161080590615aa2565b60408051818152602b918101919091527f56616c69642070726f6f66207375626d697474656420616e642066756e64732060608201526a191a5cdd1c9a589d5d195960aa1b608082015260016020820152600080516020615fa48339815191529060a0015b60405180910390a15050565b6009546301000000900460ff16151560011480156109555750600954600160201b900460ff161580156109555750600954600160281b900460ff16155b15610a1d57600e546010546040516000926001600160a01b031691908381818185875af1925050503d80600081146109a9576040519150601f19603f3d011682016040523d82523d6000602084013e6109ae565b606091505b50509050806109cf5760405162461bcd60e51b815260040161080590615aa2565b60408051818152601481830152730416c6c2066756e647320676976656e20746f20560641b6060820152600160208201529051600080516020615fa48339815191529181900360800190a150565b6009546301000000900460ff1615156001148015610a495750600954600160281b900460ff1615156001145b15610b0f57600f546010546040516000926001600160a01b031691908381818185875af1925050503d8060008114610a9d576040519150601f19603f3d011682016040523d82523d6000602084013e610aa2565b606091505b5050905080610ac35760405162461bcd60e51b815260040161080590615aa2565b604080518181526014918101919091527320b63610333ab732399033b4bb32b7103a37902b60611b606082015260016020820152600080516020615fa48339815191529060800161047d565b60095460ff1615156001148015610b2e5750600954610100900460ff16155b15610c7c57600e546001600160a01b03166000818152600d60205260408082205490519192918381818185875af1925050503d8060008114610b8c576040519150601f19603f3d011682016040523d82523d6000602084013e610b91565b606091505b5050905080610bb25760405162461bcd60e51b815260040161080590615aa2565b600f546001600160a01b03166000818152600d60205260408082205490519192918381818185875af1925050503d8060008114610c0b576040519150601f19603f3d011682016040523d82523d6000602084013e610c10565b606091505b5050905080610c315760405162461bcd60e51b815260040161080590615aa2565b6040805181815260118183015270119d5b991cc8191a5cdd1c9a589d5d1959607a1b6060820152600160208201529051600080516020615fa48339815191529181900360800190a150505b565b60065442108015610cd9575060095460ff1615156001148015610cae575060095460ff6101009091041615156001145b8015610cc3575060095462010000900460ff16155b8015610cd957506009546301000000900460ff16155b1561114a576000610ce983611f0d565b6001600160e01b03191614610d105760405162461bcd60e51b815260040161080590615ae5565b6000610d1b82611f0d565b6001600160e01b03191614610d605760405162461bcd60e51b815260206004820152600b60248201526a10d51e15881b1bd8dad95960aa1b6044820152606401610805565b610d68615344565b610d70615371565b610d7861539e565b610e15858560006001018054610d8d90615b0a565b80601f0160208091040260200160405190810160405280929190818152602001828054610db990615b0a565b8015610e065780601f10610ddb57610100808354040283529160200191610e06565b820191906000526020600020905b815481529060010190602001808311610de957829003601f168201915b50505050506000800154611f31565b60018054939650919450925061105f9187918791610e3290615b0a565b80601f0160208091040260200160405190810160405280929190818152602001828054610e5e90615b0a565b8015610eab5780601f10610e8057610100808354040283529160200191610eab565b820191906000526020600020905b815481529060010190602001808311610e8e57829003601f168201915b505050505060006003018054610ec090615b0a565b80601f0160208091040260200160405190810160405280929190818152602001828054610eec90615b0a565b8015610f395780601f10610f0e57610100808354040283529160200191610f39565b820191906000526020600020905b815481529060010190602001808311610f1c57829003601f168201915b505050505060006004018054610f4e90615b0a565b80601f0160208091040260200160405190810160405280929190818152602001828054610f7a90615b0a565b8015610fc75780601f10610f9c57610100808354040283529160200191610fc7565b820191906000526020600020905b815481529060010190602001808311610faa57829003601f168201915b505050505060006005018054610fdc90615b0a565b80601f016020809104026020016040519081016040528092919081815260200182805461100890615b0a565b80156110555780601f1061102a57610100808354040283529160200191611055565b820191906000526020600020905b81548152906001019060200180831161103857829003601f168201915b5050505050612417565b50825151600a106110cc5760405162461bcd60e51b815260206004820152603160248201527f50726f76657220646f6573206e6f74206861766520612073756666696369656e6044820152707420616d6f756e74206f6620636f696e7360781b6064820152608401610805565b6009805462ff000019166201000090811791829055604051600080516020615fa48339815191529261113b92900460ff16906040808252601b908201527a141c9bdbd9881cdd58d8d95cdcd99d5b1b1e481d995c9a599a5959602a1b6060820152901515602082015260800190565b60405180910390a15050505050565b600954604051600080516020615fa48339815191529161090c916201000090910460ff1690615a10565b60008a9055885161118c9060019060208c01906153b5565b506002805463ffffffff191660e08a901c17905586516111b39060039060208a01906153b5565b5085516111c79060049060208901906153b5565b5084516111db9060059060208801906153b5565b5060068490556007838155600855600080546111f690612b09565b6002546001906112089060e01b612b34565b60065460039060049060059061121d90611dde565b60075461122990611dde565b604051602001611240989796959493929190615bf5565b60405160208183030381529060405290506112b56002826040516112649190615998565b602060405180830381855afa158015611281573d6000803e3d6000fd5b5050506040513d601f19601f820116820180604052508101906112a491906159b4565b8460405160200161061f9190615998565b600e546001600160a01b03908116911614801561134357506113316002826040516112e09190615998565b602060405180830381855afa1580156112fd573d6000803e3d6000fd5b5050506040513d601f19601f8201168201806040525081019061132091906159b4565b8360405160200161061f9190615998565b600f546001600160a01b039081169116145b61139a5760405162461bcd60e51b815260206004820152602260248201527f496e76616c6964207369676e617475726573206f766572207365747570206461604482015261746160f01b6064820152608401610805565b50506009805465ffffffffff001916610100179055505050505050505050565b6007546006546113ca9190615567565b42108015611426575060095460ff16151560011480156113f7575060095460ff6101009091041615156001145b801561140c575060095462010000900460ff16155b801561142657506009546301000000900460ff1615156001145b1561180e57600061143682611f0d565b6001600160e01b0319161461145d5760405162461bcd60e51b815260040161080590615ae5565b60005461146982612b52565b602001511461148a5760405162461bcd60e51b815260040161080590615c78565b611492615439565b61149a61539e565b6114a261539e565b6114ab84612c07565b600a5483519396509194509250146115505760405162461bcd60e51b815260206004820152605c60248201527f5468652076616c756520696e207468652048544c4320646f6573206e6f74206360448201527f6f72726973706f6e6420746f207468652076616c756520696e2074686520485460648201527b26219037b3102813b9903637b1b5b2b2103a3930b739b0b1ba34b7b760211b608482015260a401610805565b600b548251146115ee5760405162461bcd60e51b815260206004820152605f60248201527f5468652076616c756520696e20746865207032706b6820646f6573206e6f742060448201527f636f72726973706f6e6420746f207468652076616c756520696e20746865204860648201527f544c43206f662056277320756e6c6f636b6564207472616e73616374696f6e00608482015260a401610805565b6117a1846000600101805461160290615b0a565b80601f016020809104026020016040519081016040528092919081815260200182805461162e90615b0a565b801561167b5780601f106116505761010080835404028352916020019161167b565b820191906000526020600020905b81548152906001019060200180831161165e57829003601f168201915b50505050506000600301805461169090615b0a565b80601f01602080910402602001604051908101604052809291908181526020018280546116bc90615b0a565b80156117095780601f106116de57610100808354040283529160200191611709565b820191906000526020600020905b8154815290600101906020018083116116ec57829003601f168201915b50505050506000600501805461171e90615b0a565b80601f016020809104026020016040519081016040528092919081815260200182805461174a90615b0a565b80156117975780601f1061176c57610100808354040283529160200191611797565b820191906000526020600020905b81548152906001019060200180831161177a57829003601f168201915b5050505050612e3d565b506009805460ff60201b1916600160201b90811791829055604051600080516020615fa48339815191529261072092900460ff169060408082526016908201527515985b1a5908111a5cdc1d5d19481c995cdbdb1d995960521b6060820152901515602082015260800190565b600954604080518181526018918101919091527715985b1a5908111a5cdc1d5d19481d5b9c995cdbdb1d995960421b6060820152600160201b90910460ff1615156020820152600080516020615fa48339815191529060800161047d565b600654421080156118c7575060095460ff161515600114801561189c575060095460ff6101009091041615156001145b80156118b1575060095462010000900460ff16155b80156118c757506009546301000000900460ff16155b15611b1c576007546006546118dc9190615567565b6118e58361318c565b63ffffffff161161196c5760405162461bcd60e51b815260206004820152604560248201527f4354785020697320756e6c6f636b6564206f72206974732074696d656c6f636b60448201527f656420697320736d616c6c6572207468616e2f657175616c20746f2054202b206064820152641517dc995b60da1b608482015260a401610805565b60006119778261318c565b63ffffffff16146119bb5760405162461bcd60e51b815260206004820152600e60248201526d10d51e15881a5cc81b1bd8dad95960921b6044820152606401610805565b6119c3615344565b6119cb615371565b6119d361539e565b6119e8858560006001018054610d8d90615b0a565b600180549396509194509250611a059187918791610e3290615b0a565b1515600114611a4b5760405162461bcd60e51b8152602060048201526012602482015271496e76616c6964207369676e61747572657360701b6044820152606401610805565b825151600a10611a9d5760405162461bcd60e51b815260206004820152601d60248201527f4e6f2073756666696369656e7420616d6f756e74206f6620636f696e730000006044820152606401610805565b825151600a55602083015151600b55611ab5856131b2565b600c556009805463ff0000001916630100000090811791829055604051600080516020615fa48339815191529261113b92900460ff16906040808252600e908201526d111a5cdc1d5d19481bdc195b995960921b6060820152901515602082015260800190565b60095460408051818152601691810191909152754661696c656420746f206f70656e206469737075746560501b6060820152630100000090910460ff1615156020820152600080516020615fa48339815191529060800161090c565b6000805460018054919291611b8c90615b0a565b80601f0160208091040260200160405190810160405280929190818152602001828054611bb890615b0a565b8015611c055780601f10611bda57610100808354040283529160200191611c05565b820191906000526020600020905b815481529060010190602001808311611be857829003601f168201915b5050505050908060020160009054906101000a900460e01b90806003018054611c2d90615b0a565b80601f0160208091040260200160405190810160405280929190818152602001828054611c5990615b0a565b8015611ca65780601f10611c7b57610100808354040283529160200191611ca6565b820191906000526020600020905b815481529060010190602001808311611c8957829003601f168201915b505050505090806004018054611cbb90615b0a565b80601f0160208091040260200160405190810160405280929190818152602001828054611ce790615b0a565b8015611d345780601f10611d0957610100808354040283529160200191611d34565b820191906000526020600020905b815481529060010190602001808311611d1757829003601f168201915b505050505090806005018054611d4990615b0a565b80601f0160208091040260200160405190810160405280929190818152602001828054611d7590615b0a565b8015611dc25780601f10611d9757610100808354040283529160200191611dc2565b820191906000526020600020905b815481529060010190602001808311611da557829003601f168201915b5050505050908060060154908060070154908060080154905089565b60606001600160ff1b03821115611e315760405162461bcd60e51b815260206004820152601760248201527656616c75652065786365656473207468652072616e676560481b6044820152606401610805565b60405190506020815281602082015260408101604052919050565b6000815160411415611e975760208201516040830151606084015160001a601b811015611e8157611e7e601b82615caf565b90505b611e8d868285856131e4565b9350505050611f07565b815160401415611ebf5760208201516040830151611eb685838361337e565b92505050611f07565b60405162461bcd60e51b815260206004820152601f60248201527f45434453413a20696e76616c6964207369676e6174757265206c656e677468006044820152606401610805565b92915050565b6000611f288260048451611f219190615ace565b60046133aa565b611f0790615cd4565b611f39615344565b611f41615371565b611f4961539e565b611f51615344565b611f59615371565b611f6161539e565b611f6a8a612c07565b9084529084529050611f7b896134b7565b60208481019190915280850182905260609091015190820151146120075760405162461bcd60e51b815260206004820152603f60248201527f50277320636f6d6d69746d656e74207472616e73616374696f6e20646f65732060448201527f6e6f742068617264636f646520562773207265766f636174696f6e206b6579006064820152608401610805565b6020830151518251511461206e5760405162461bcd60e51b815260206004820152603a6024820152600080516020615f8483398151915260448201527910281030b732103634b3b43a3734b73390242a26219037b3102b60311b6064820152608401610805565b602082015151835151146120d55760405162461bcd60e51b815260206004820152603a6024820152600080516020615f848339815191526044820152790205620616e64206c696768746e696e672048544c43206f6620560341b6064820152608401610805565b6000806120e18a6135f5565b8551602090810151604051939550919350600292612100929101615d0b565b60408051601f198184030181529082905261211a91615998565b602060405180830381855afa158015612137573d6000803e3d6000fd5b5050506040513d601f19601f8201168201806040525081019061215a91906159b4565b60026121658361361b565b6040516121729190615998565b602060405180830381855afa15801561218f573d6000803e3d6000fd5b5050506040513d601f19601f820116820180604052508101906121b291906159b4565b146122325760405162461bcd60e51b815260206004820152605660248201527f546865207032706b6820696e2050277320756e6c6f636b656420636f6d6d69746044820152600080516020615f22833981519152606482015275706f6e6420746f2056657269666965722773206f6e6560501b608482015260a401610805565b60208085015181015160405160029261224c929101615d0b565b60408051601f198184030181529082905261226691615998565b602060405180830381855afa158015612283573d6000803e3d6000fd5b5050506040513d601f19601f820116820180604052508101906122a691906159b4565b60026122b18461361b565b6040516122be9190615998565b602060405180830381855afa1580156122db573d6000803e3d6000fd5b5050506040513d601f19601f820116820180604052508101906122fe91906159b4565b1461237c5760405162461bcd60e51b815260206004820152605460248201527f546865207032706b6820696e2056277320756e6c6f636b656420636f6d6d69746044820152600080516020615f22833981519152606482015273706f6e6420746f2050726f7665722773206f6e6560601b608482015260a401610805565b886123868d612b52565b60200151146123a75760405162461bcd60e51b815260040161080590615c78565b886123b18c612b52565b60200151146124025760405162461bcd60e51b815260206004820152601e60248201527f4354785620646f6573206e6f74207370656e642066756e64696e6720547800006044820152606401610805565b509295509093509150505b9450945094915050565b6000612421615460565b61242a886136d0565b6020820152612438876136d0565b815261244261548d565b61244d8988886137a5565b8152604051600290612460908690615998565b602060405180830381855afa15801561247d573d6000803e3d6000fd5b5050506040513d601f19601f820116820180604052508101906124a091906159b4565b81516020840151516002916124e2916124c68760015b60200201516020015160006137fc565b6124dd8860015b60200201516040015160006137fc565b61385a565b6040516124ef9190615998565b602060405180830381855afa15801561250c573d6000803e3d6000fd5b5050506040513d601f19601f8201168201806040525081019061252f91906159b4565b14806125fa57506002846040516125469190615998565b602060405180830381855afa158015612563573d6000803e3d6000fd5b5050506040513d601f19601f8201168201806040525081019061258691906159b4565b81516020840151516002916125ab916125a0906001615caf565b6124c68760016124b6565b6040516125b89190615998565b602060405180830381855afa1580156125d5573d6000803e3d6000fd5b5050506040513d601f19601f820116820180604052508101906125f891906159b4565b145b806126b857506002846040516126109190615998565b602060405180830381855afa15801561262d573d6000803e3d6000fd5b5050506040513d601f19601f8201168201806040525081019061265091906159b4565b8151602084015151600291612669916125a09084615caf565b6040516126769190615998565b602060405180830381855afa158015612693573d6000803e3d6000fd5b5050506040513d601f19601f820116820180604052508101906126b691906159b4565b145b8061277757506002846040516126ce9190615998565b602060405180830381855afa1580156126eb573d6000803e3d6000fd5b5050506040513d601f19601f8201168201806040525081019061270e91906159b4565b8151602084015151600291612728916125a0906003615caf565b6040516127359190615998565b602060405180830381855afa158015612752573d6000803e3d6000fd5b5050506040513d601f19601f8201168201806040525081019061277591906159b4565b145b6127935760405162461bcd60e51b815260040161080590615d20565b61279e8888886137a5565b60208201526040516002906127b4908790615998565b602060405180830381855afa1580156127d1573d6000803e3d6000fd5b5050506040513d601f19601f820116820180604052508101906127f491906159b4565b60208201518351516002916128199161280e8760006124b6565b6124dd8860006124cd565b6040516128269190615998565b602060405180830381855afa158015612843573d6000803e3d6000fd5b5050506040513d601f19601f8201168201806040525081019061286691906159b4565b1480612931575060028560405161287d9190615998565b602060405180830381855afa15801561289a573d6000803e3d6000fd5b5050506040513d601f19601f820116820180604052508101906128bd91906159b4565b60208201518351516002916128e2916128d7906001615caf565b61280e8760006124b6565b6040516128ef9190615998565b602060405180830381855afa15801561290c573d6000803e3d6000fd5b5050506040513d601f19601f8201168201806040525081019061292f91906159b4565b145b806129ef57506002856040516129479190615998565b602060405180830381855afa158015612964573d6000803e3d6000fd5b5050506040513d601f19601f8201168201806040525081019061298791906159b4565b60208201518351516002916129a0916128d79084615caf565b6040516129ad9190615998565b602060405180830381855afa1580156129ca573d6000803e3d6000fd5b5050506040513d601f19601f820116820180604052508101906129ed91906159b4565b145b80612aae5750600285604051612a059190615998565b602060405180830381855afa158015612a22573d6000803e3d6000fd5b5050506040513d601f19601f82011682018060405250810190612a4591906159b4565b6020820151835151600291612a5f916128d7906003615caf565b604051612a6c9190615998565b602060405180830381855afa158015612a89573d6000803e3d6000fd5b5050506040513d601f19601f82011682018060405250810190612aac91906159b4565b145b612afa5760405162461bcd60e51b815260206004820181905260248201527f496e76616c6964207369676e6174757265206f662050206f76657220435478566044820152606401610805565b50600198975050505050505050565b606081604051602001612b1e91815260200190565b6040516020818303038152906040529050919050565b6040516001600160e01b031982166020820152606090602401612b1e565b612b5a6154ab565b612b626154ab565b612b6d8360046138a3565b508152612b7d83602560046133aa565b612b8690615cd4565b6001600160e01b0319166040820152612bb3612ba584600560256133aa565b612bae90615d55565b613966565b60208201528051600114611f075760405162461bcd60e51b815260206004820152601b60248201527a54782068617320746f6f206d616e7920696e7075747320283e312960281b6044820152606401610805565b612c0f615439565b612c1761539e565b612c1f61539e565b612c27615439565b612c2f61539e565b612c3761539e565b612c3f6154cb565b6004808252612c519089906000613a07565b8083526020830191909152612c699089906000613afe565b845260408401526060830152608082015260005b6003811015612e2e5780612d0457612cd08983606001518381518110612ca557612ca5615b45565b602002602001015184604001518481518110612cc357612cc3615b45565b6020026020010151613cc6565b6040880152606087015260208601526080820151805182908110612cf657612cf6615b45565b602090810291909101015185525b8060011415612db157612d7d612d558a84606001518481518110612d2a57612d2a615b45565b602002602001015185604001518581518110612d4857612d48615b45565b6020026020010151613d2b565b604051602001612d6791815260200190565b6040516020818303038152906040526000613dce565b6001600160601b03191660208401526080820151805182908110612da357612da3615b45565b602090810291909101015183525b8060021415612e1c57612df28983606001518381518110612dd457612dd4615b45565b602002602001015184604001518481518110612d4857612d48615b45565b60208501526080820151805182908110612e0e57612e0e615b45565b602090810291909101015184525b80612e2681615d79565b915050612c7d565b50929790965090945092505050565b600080612e49866136d0565b90506000612e588787876137a5565b9050600284604051612e6a9190615998565b602060405180830381855afa158015612e87573d6000803e3d6000fd5b5050506040513d601f19601f82011682018060405250810190612eaa91906159b4565b6002612ed68360001c8560000151612ec7876020015160006137fc565b6124dd886040015160006137fc565b604051612ee39190615998565b602060405180830381855afa158015612f00573d6000803e3d6000fd5b5050506040513d601f19601f82011682018060405250810190612f2391906159b4565b1480612fee5750600284604051612f3a9190615998565b602060405180830381855afa158015612f57573d6000803e3d6000fd5b5050506040513d601f19601f82011682018060405250810190612f7a91906159b4565b8251600290612f9f908490612f90906001615caf565b612ec7876020015160006137fc565b604051612fac9190615998565b602060405180830381855afa158015612fc9573d6000803e3d6000fd5b5050506040513d601f19601f82011682018060405250810190612fec91906159b4565b145b806130a857506002846040516130049190615998565b602060405180830381855afa158015613021573d6000803e3d6000fd5b5050506040513d601f19601f8201168201806040525081019061304491906159b4565b8251600290613059908490612f909084615caf565b6040516130669190615998565b602060405180830381855afa158015613083573d6000803e3d6000fd5b5050506040513d601f19601f820116820180604052508101906130a691906159b4565b145b8061316357506002846040516130be9190615998565b602060405180830381855afa1580156130db573d6000803e3d6000fd5b5050506040513d601f19601f820116820180604052508101906130fe91906159b4565b8251600290613114908490612f90906003615caf565b6040516131219190615998565b602060405180830381855afa15801561313e573d6000803e3d6000fd5b5050506040513d601f19601f8201168201806040525081019061316191906159b4565b145b61317f5760405162461bcd60e51b815260040161080590615d20565b5060019695505050505050565b6000611f076131ab6131a68460048651611f219190615ace565b613e60565b6000613f2d565b60006131bc615439565b6131c461539e565b6131cc61539e565b6131d585612c07565b50506060015195945050505050565b60006fa2a8918ca85bafe22016d0b997e4df60600160ff1b038211156132575760405162461bcd60e51b815260206004820152602260248201527f45434453413a20696e76616c6964207369676e6174757265202773272076616c604482015261756560f01b6064820152608401610805565b8360ff16601b148061326c57508360ff16601c145b6132c35760405162461bcd60e51b815260206004820152602260248201527f45434453413a20696e76616c6964207369676e6174757265202776272076616c604482015261756560f01b6064820152608401610805565b6040805160008082526020820180845288905260ff871692820192909252606081018590526080810184905260019060a0016020604051602081039080840390855afa158015613317573d6000803e3d6000fd5b5050604051601f1901519150506001600160a01b0381166133755760405162461bcd60e51b815260206004820152601860248201527745434453413a20696e76616c6964207369676e617475726560401b6044820152606401610805565b95945050505050565b60006001600160ff1b03821660ff83901c601b0161339e868287856131e4565b925050505b9392505050565b6060816133b881601f615567565b10156133f75760405162461bcd60e51b815260206004820152600e60248201526d736c6963655f6f766572666c6f7760901b6044820152606401610805565b6134018284615567565b845110156134455760405162461bcd60e51b8152602060048201526011602482015270736c6963655f6f75744f66426f756e647360781b6044820152606401610805565b60608215801561346457604051915060008252602082016040526134ae565b6040519150601f8416801560200281840101858101878315602002848b0101015b8183101561349d578051835260209283019201613485565b5050858452601f01601f1916604052505b50949350505050565b6134bf615439565b6134c761539e565b6134cf615439565b6134d761539e565b6134df6154cb565b60048082526134f19087906000613a07565b80835260208301919091526135099087906000613afe565b845260408401526060830152608082015260005b60028110156135e9578061357d576135458783606001518381518110612ca557612ca5615b45565b604087015260608601526020850152608082015180518290811061356b5761356b615b45565b602090810291909101015184526135d7565b80600114156135d7576135a3612d558884606001518481518110612d2a57612d2a615b45565b6001600160601b031916602084015260808201518051829081106135c9576135c9615b45565b602090810291909101015183525b806135e181615d79565b91505061351d565b50919590945092505050565b60608061360583600260216133aa565b61361284602560216133aa565b91509150915091565b6060600360028360405161362f9190615998565b602060405180830381855afa15801561364c573d6000803e3d6000fd5b5050506040513d601f19601f8201168201806040525081019061366f91906159b4565b60405160200161368191815260200190565b60408051601f198184030181529082905261369b91615998565b602060405180830381855afa1580156136b8573d6000803e3d6000fd5b50506040518051612b1e925060601b90602001615d0b565b6136d86154fa565b6136e06154fa565b6000604051806080016040528060428152602001615f4260429139905083602a8151811061371057613710615b45565b6020910101516001600160f81b031916604760f81b14156137485761373e61373985602f613f8a565b612b09565b6020830152613787565b83602a8151811061375b5761375b615b45565b6020910101516001600160f81b031916602360f91b14156137875761378184602f613ffc565b60208301525b613795613739856051613f8a565b604083015250601b815292915050565b6000806137b585600060296133aa565b846137ce876072808a516137c99190615ace565b6133aa565b856040516020016137e29493929190615d94565b604051602081830303815290604052905061337581614079565b6000613809826020615567565b835110156138515760405162461bcd60e51b8152602060048201526015602482015274746f55696e743235365f6f75744f66426f756e647360581b6044820152606401610805565b50016020015190565b60606000806138758761386e601b89615deb565b8787614138565b6040805160208101939093528281019190915280518083038201815260609092019052979650505050505050565b60008060008484815181106138ba576138ba615b45565b016020015160f81c90506138cf600185615567565b935060fd8160ff1610156138ea5760ff16915082905061395f565b8060ff1660fd14156139175761390285856010614369565b61390d856002615567565b925092505061395f565b8060ff1660fe141561393a5761392f85856020614369565b61390d856004615567565b8060ff1660ff141561395d5761395285856040614369565b61390d856008615567565b505b9250929050565b60408051602080825281830190925260009182919060208201818036833701905050905060005b60208110156139fd578381602081106139a8576139a8615b45565b1a60f81b8260016139ba846020615ace565b6139c49190615ace565b815181106139d4576139d4615b45565b60200101906001600160f81b031916908160001a905350806139f581615d79565b91505061398d565b506133a3816146cb565b6060600080600080613a1988886138a3565b97509250851580613a2957508286115b15613a3657829150613a3a565b8591505b6000826001600160401b03811115613a5457613a5461557f565b604051908082528060200260200182016040528015613a7d578160200160208202803683370190505b50905060005b83811015613af157613a9660248a615567565b9850613aa28a8a6138a3565b809a50819450505082828281518110613abd57613abd615b45565b6020908102919091010152613ad3836004615567565b613add908a615567565b985080613ae981615d79565b915050613a83565b5098969750505050505050565b6060806060600080600080613b138a8a6138a3565b99509250871580613b2357508288115b15613b3057829150613b34565b8791505b6000826001600160401b03811115613b4e57613b4e61557f565b604051908082528060200260200182016040528015613b77578160200160208202803683370190505b5090506000836001600160401b03811115613b9457613b9461557f565b604051908082528060200260200182016040528015613bbd578160200160208202803683370190505b5090506000846001600160401b03811115613bda57613bda61557f565b604051908082528060200260200182016040528015613c03578160200160208202803683370190505b50905060005b85811015613cb457613c1d8e8e6040614369565b828281518110613c2f57613c2f615b45565b6020908102919091010152613c4560088e615567565b9c50613c518e8e6138a3565b809e5081965050508c848281518110613c6c57613c6c615b45565b60200260200101818152505084838281518110613c8b57613c8b615b45565b6020908102919091010152613ca0858e615567565b9c5080613cac81615d79565b915050613c09565b509c919b509998509650505050505050565b6000806000613cd68686866146e8565b15613d1857613cef86613cea876003615567565b613f8a565b613cfe87613cea886028615567565b613d0d88613cea89604c615567565b925092509250613d22565b5060009150819050805b93509350939050565b6000613d38848484614a95565b15613d6257613d5184613d4c856003615567565b613dce565b6001600160601b03191690506133a3565b613d6d848484614bba565b15613d8157613d5184613d4c856002615567565b613d8c848484614c75565b15613da757613da084613cea856002615567565b90506133a3565b613db28484846146e8565b15613dc657613da084613cea856002615567565b5060006133a3565b600080805b6014816001600160a01b03161015613e5557613df0816013615e0e565b613dfb906008615e36565b6001600160a01b03168585836001600160a01b0316613e1a9190615567565b81518110613e2a57613e2a615b45565b0160200151613e419160f89190911c901b83615e65565b915080613e4d81615e90565b915050613dd3565b5060601b9392505050565b6060600082516001600160401b03811115613e7d57613e7d61557f565b6040519080825280601f01601f191660200182016040528015613ea7576020820181803683370190505b50905060005b8351811015613f2657838181518110613ec857613ec8615b45565b602001015160f81c60f81b826001838751613ee39190615ace565b613eed9190615ace565b81518110613efd57613efd615b45565b60200101906001600160f81b031916908160001a90535080613f1e81615d79565b915050613ead565b5092915050565b6000613f3a826004615567565b83511015613f815760405162461bcd60e51b8152602060048201526014602482015273746f55696e7433325f6f75744f66426f756e647360601b6044820152606401610805565b50016004015190565b600080805b6020811015613ff457613fa381601f615ace565b613fae906008615a83565b85613fb98684615567565b81518110613fc957613fc9615b45565b0160200151613fe09160f89190911c901b83615567565b915080613fec81615d79565b915050613f8f565b509392505050565b60606000805b601f8110156140675761401681601e615ace565b614021906008615a83565b8561402c8684615567565b8151811061403c5761403c615b45565b01602001516140539160f89190911c901b83615567565b91508061405f81615d79565b915050614002565b5061407181611dde565b949350505050565b60006002808360405161408c9190615998565b602060405180830381855afa1580156140a9573d6000803e3d6000fd5b5050506040513d601f19601f820116820180604052508101906140cc91906159b4565b6040516020016140de91815260200190565b60408051601f19818403018152908290526140f891615998565b602060405180830381855afa158015614115573d6000803e3d6000fd5b5050506040513d601f19601f82011682018060405250810190611f0791906159b4565b600080806401000003d01961415a607f600189901c166401000003d019615a83565b860890506401000003d019811180614183575070014551231950b75fc4402da1732fc9bebe1984115b8061419f575070014551231950b75fc4402da1732fc9bebe1985115b806141a8575083155b806141b1575084155b806141bf575060018660ff16115b156141d1576000809250925050614360565b60006141ef8670014551231950b75fc4402da1732fc9bebe19614cf6565b905060006401000003d0198060076401000003d01960008709086401000003d01980868709860908905061423f8160046142306401000003d0196001615567565b61423a9190615a61565b614dc2565b9050600061425060ff8a1683615567565b61425b906002615567565b6001161561427857614273826401000003d019615ace565b61427a565b815b9050600080806142fd70014551231950b75fc4402da1732fc9bebe196142b28f70014551231950b75fc4402da1732fc9bebe19615ace565b88097f79be667ef9dcbbac55a06295ce870b07029bfcdb2dce28d959f2815b16f817987f483ada7726a3c4655da4fbfc0e1108a8fd17b448a68554199c47d08ffb10d4b86001614e6a565b925092509250600080600061433770014551231950b75fc4402da1732fc9bebe198061432b5761432b615a4b565b8e8b098b896001614e6a565b92509250925060008061434e888888888888614ee1565b909e509c505050505050505050505050505b94509492505050565b600081600814156143955783838151811061438657614386615b45565b016020015160f81c90506133a3565b81601014156143f657836143aa846001615567565b815181106143ba576143ba615b45565b01602001516143ce9060f81c610100615eb7565b61ffff168484815181106143e4576143e4615b45565b0160200151613da0919060f81c615567565b81602014156144dc578361440b846003615567565b8151811061441b5761441b615b45565b01602001516144319060f81c6301000000615ed8565b63ffffffff1684614443856002615567565b8151811061445357614453615b45565b01602001516144689060f81c62010000615ed8565b63ffffffff168561447a866001615567565b8151811061448a5761448a615b45565b016020015161449e9060f81c610100615ed8565b63ffffffff168686815181106144b6576144b6615b45565b01602001516144c8919060f81c615567565b6144d29190615567565b613da09190615567565b81604014156133a357836144f1846007615567565b8151811061450157614501615b45565b01602001516145179060f81c600160381b615efb565b6001600160401b03168461452c856006615567565b8151811061453c5761453c615b45565b01602001516145529060f81c600160301b615efb565b6001600160401b031685614567866005615567565b8151811061457757614577615b45565b016020015161458d9060f81c600160281b615efb565b6001600160401b0316866145a2876004615567565b815181106145b2576145b2615b45565b01602001516145c89060f81c600160201b615efb565b6001600160401b0316876145dd886003615567565b815181106145ed576145ed615b45565b01602001516146039060f81c6301000000615efb565b6001600160401b031688614618896002615567565b8151811061462857614628615b45565b016020015161463d9060f81c62010000615efb565b6001600160401b0316896146528a6001615567565b8151811061466257614662615b45565b01602001516146769060f81c610100615efb565b6001600160401b03168a8a8151811061469157614691615b45565b01602001516146a3919060f81c615567565b6146ad9190615567565b6146b79190615567565b6146c19190615567565b6144c89190615567565b805160009082906146df5750600092915050565b50506020015190565b6000816072148015614728575083614701846000615567565b8151811061471157614711615b45565b6020910101516001600160f81b031916603b60f91b145b801561476257508361473b846001615567565b8151811061474b5761474b615b45565b6020910101516001600160f81b031916602160f81b145b801561479c575083614775846023615567565b8151811061478557614785615b45565b6020910101516001600160f81b031916602b60fa1b145b80156147d65750836147af846024615567565b815181106147bf576147bf615b45565b6020910101516001600160f81b031916606360f81b145b80156148105750836147e9846025615567565b815181106147f9576147f9615b45565b6020910101516001600160f81b031916607560f81b145b801561484a575083614823846026615567565b8151811061483357614833615b45565b6020910101516001600160f81b031916605560f91b145b801561488457508361485d846027615567565b8151811061486d5761486d615b45565b6020910101516001600160f81b031916600160fd1b145b80156148be575083614897846048615567565b815181106148a7576148a7615b45565b6020910101516001600160f81b031916601160fb1b145b80156148f85750836148d1846049615567565b815181106148e1576148e1615b45565b6020910101516001600160f81b031916606760f81b145b801561493257508361490b84604a615567565b8151811061491b5761491b615b45565b6020910101516001600160f81b031916602160f81b145b801561496c57508361494584606c615567565b8151811061495557614955615b45565b6020910101516001600160f81b03191660ad60f81b145b80156149a657508361497f84606d615567565b8151811061498f5761498f615b45565b6020910101516001600160f81b031916602960f91b145b80156149e05750836149b984606e615567565b815181106149c9576149c9615b45565b6020910101516001600160f81b031916605960f91b145b8015614a1a5750836149f384606f615567565b81518110614a0357614a03615b45565b6020910101516001600160f81b031916607560f81b145b8015614a54575083614a2d846070615567565b81518110614a3d57614a3d615b45565b6020910101516001600160f81b031916600d60fb1b145b8015614071575083614a67846071615567565b81518110614a7757614a77615b45565b6020910101516001600160f81b031916605160f81b14949350505050565b6000816019148015614acb5750838381518110614ab457614ab4615b45565b6020910101516001600160f81b031916603b60f91b145b8015614b05575083614ade846001615567565b81518110614aee57614aee615b45565b6020910101516001600160f81b03191660a960f81b145b8015614b3f575083614b18846002615567565b81518110614b2857614b28615b45565b6020910101516001600160f81b031916600560fa1b145b8015614b79575083614b52846017615567565b81518110614b6257614b62615b45565b6020910101516001600160f81b031916601160fb1b145b8015614071575083614b8c846018615567565b81518110614b9c57614b9c615b45565b6020910101516001600160f81b031916602b60fa1b14949350505050565b6000816017148015614bfa575083614bd3846000615567565b81518110614be357614be3615b45565b6020910101516001600160f81b03191660a960f81b145b8015614c34575083614c0d846001615567565b81518110614c1d57614c1d615b45565b6020910101516001600160f81b031916600560fa1b145b8015614071575083614c47846016615567565b81518110614c5757614c57615b45565b6020910101516001600160f81b031916608760f81b14949350505050565b6000816022148015614cb5575083614c8e846000615567565b81518110614c9e57614c9e615b45565b6020910101516001600160f81b031916603560f91b145b8015614071575083614cc8846001615567565b81518110614cd857614cd8615b45565b6020910101516001600160f81b031916600160fd1b14949350505050565b60008215801590614d075750818314155b8015614d1257508115155b614d4f5760405162461bcd60e51b815260206004820152600e60248201526d24b73b30b634b210373ab6b132b960911b6044820152606401610805565b6000600183825b8615614db757614d668783615a61565b9050828680614d7757614d77615a4b565b8780614d8557614d85615a4b565b858409614d929089615ace565b8608909450925086614da48183615a83565b614dae9084615ace565b97509150614d56565b509195945050505050565b600082614dd157506000611f07565b81614dde57506001611f07565b6001600160ff1b5b8015613ff4576401000003d0198185161515860a6401000003d0198485090991506401000003d0196002820485161515860a6401000003d0198485090991506401000003d0196004820485161515860a6401000003d0198485090991506401000003d0196008820485161515860a6401000003d01984850909915060109004614de6565b6000808086614e8057508491508390508261240d565b8660008060015b8315614ed0576001841615614eac57614ea48383838d8d8d614f59565b919450925090505b614eb7600285615a61565b9350614ec48a8a8a6151ee565b919b5099509750614e87565b919a90995090975095505050505050565b6000806000806000878b1415614f25576401000003d019878b08614f0e5760008094509450505050614f4e565b614f198b8b8b6151ee565b91945092509050614f3b565b614f338b8b8b8b8b8b614f59565b919450925090505b614f468383836152f2565b945094505050505b965096945050505050565b6000808088158015614f69575087155b15614f7b5750849150839050826151e2565b85158015614f87575084155b15614f995750879150869050856151e2565b614fa161551e565b6401000003d0198889098082526401000003d01990890960208201526401000003d019858009604082018190526401000003d0199086096060820152604080516080810182529082015181906401000003d019908d0981526020016401000003d01983600360200201518c0981526020016401000003d01983600060200201518a0981526020016401000003d0198360016020020151890990526040810151815191925014158061505a57506060810151602082015114155b6150a65760405162461bcd60e51b815260206004820152601e60248201527f557365206a6163446f75626c652066756e6374696f6e20696e737465616400006044820152606401610805565b6150ae61551e565b81516401000003d019906150c29082615ace565b604084015108815260208201516401000003d019906150e19082615ace565b606084015108602082015280516401000003d0199080096040820181905281516401000003d0199109606082018190526000906401000003d019906151269082615ace565b60208401516401000003d01990800908604083015184519192506401000003d019918291829109600209615160906401000003d019615ace565b8208905060006401000003d0198061517e846401000003d019615ace565b604086015187516401000003d0199190090860208501510990506401000003d0198084600360200201518660016020020151096151c1906401000003d019615ace565b8208905060006401000003d019808a8e098551099297509095509093505050505b96509650969350505050565b6000808083615204575084915083905082613d22565b60006401000003d019878809905060006401000003d019878809905060006401000003d019878809905060006401000003d01980848c09600409905060006401000003d019806401000003d0198586096000096401000003d019876003090890506401000003d01980838408615280906401000003d019615ace565b6401000003d0198384090894506401000003d019806401000003d0198687096008096152b2906401000003d019615ace565b6401000003d019806152ca896401000003d019615ace565b860884090893506401000003d019808a8c09600209949b939a50939850919650505050505050565b6000806000615307846401000003d019614cf6565b905060006401000003d019828309905060006401000003d019828909905060006401000003d0198084860989099199919850909650505050505050565b60405180604001604052806002905b61535b615439565b8152602001906001900390816153535790505090565b60405180604001604052806002905b61538861539e565b8152602001906001900390816153805790505090565b604080518082019091526000808252602082015290565b8280546153c190615b0a565b90600052602060002090601f0160209004810192826153e35760008555615429565b82601f106153fc57805160ff1916838001178555615429565b82800160010185558215615429579182015b8281111561542957825182559160200191906001019061540e565b5061543592915061553c565b5090565b60408051608081018252600080825260208201819052918101829052606081019190915290565b60405180604001604052806002905b6154776154fa565b81526020019060019003908161546f5790505090565b60405180604001604052806002906020820280368337509192915050565b604080516060810182526000808252602082018190529181019190915290565b6040518060a0016040528060008152602001606081526020016060815260200160608152602001606081525090565b6040518060600160405280600060ff16815260200160608152602001606081525090565b60405180608001604052806004906020820280368337509192915050565b5b80821115615435576000815560010161553d565b634e487b7160e01b600052601160045260246000fd5b6000821982111561557a5761557a615551565b500190565b634e487b7160e01b600052604160045260246000fd5b60006001600160401b03808411156155af576155af61557f565b604051601f8501601f19908116603f011681019082821181831017156155d7576155d761557f565b816040528093508581528686860111156155f057600080fd5b858560208301376000602087830101525050509392505050565b60006020828403121561561c57600080fd5b81356001600160401b0381111561563257600080fd5b8201601f8101841361564357600080fd5b61407184823560208401615595565b600082601f83011261566357600080fd5b6133a383833560208501615595565b60008060006060848603121561568757600080fd5b83356001600160401b038082111561569e57600080fd5b6156aa87838801615652565b945060208601359150808211156156c057600080fd5b506156cd86828701615652565b925050604084013590509250925092565b600080604083850312156156f157600080fd5b82356001600160401b038082111561570857600080fd5b61571486838701615652565b9350602085013591508082111561572a57600080fd5b5061573785828601615652565b9150509250929050565b80356001600160e01b03198116811461575957600080fd5b919050565b6000806000806000806000806000806101408b8d03121561577e57600080fd5b8a35995060208b01356001600160401b038082111561579c57600080fd5b6157a88e838f01615652565b9a506157b660408e01615741565b995060608d01359150808211156157cc57600080fd5b6157d88e838f01615652565b985060808d01359150808211156157ee57600080fd5b6157fa8e838f01615652565b975060a08d013591508082111561581057600080fd5b61581c8e838f01615652565b965060c08d0135955060e08d013594506101008d013591508082111561584157600080fd5b61584d8e838f01615652565b93506101208d013591508082111561586457600080fd5b506158718d828e01615652565b9150509295989b9194979a5092959850565b60006020828403121561589557600080fd5b81356001600160401b038111156158ab57600080fd5b61407184828501615652565b60005b838110156158d25781810151838201526020016158ba565b838111156107295750506000910152565b600081518084526158fb8160208601602086016158b7565b601f01601f19169290920160200192915050565b60006101208b83528060208401526159298184018c6158e3565b6001600160e01b03198b1660408501528381036060850152905061594d818a6158e3565b9050828103608084015261596181896158e3565b905082810360a084015261597581886158e3565b60c0840196909652505060e0810192909252610100909101529695505050505050565b600082516159aa8184602087016158b7565b9190910192915050565b6000602082840312156159c657600080fd5b5051919050565b600084516159df8184602089016158b7565b8451908301906159f38183602089016158b7565b8451910190615a068183602088016158b7565b0195945050505050565b604080825260199082015278141c9bdbd9881d995c9a599a58d85d1a5bdb8819985a5b1959603a1b6060820152901515602082015260800190565b634e487b7160e01b600052601260045260246000fd5b600082615a7e57634e487b7160e01b600052601260045260246000fd5b500490565b6000816000190483118215151615615a9d57615a9d615551565b500290565b60208082526012908201527108cc2d2d8cac840e8de40e6cadcc8408aa8960731b604082015260600190565b600082821015615ae057615ae0615551565b500390565b6020808252600b908201526a10d51e14081b1bd8dad95960aa1b604082015260600190565b600181811c90821680615b1e57607f821691505b60208210811415615b3f57634e487b7160e01b600052602260045260246000fd5b50919050565b634e487b7160e01b600052603260045260246000fd5b8054600090600181811c9080831680615b7557607f831692505b6020808410821415615b9757634e487b7160e01b600052602260045260246000fd5b818015615bab5760018114615bbc57615be9565b60ff19861689528489019650615be9565b60008881526020902060005b86811015615be15781548b820152908501908301615bc8565b505084890196505b50505050505092915050565b60008951615c07818460208e016158b7565b615c138184018b615b5b565b90508851615c25818360208d016158b7565b615c43615c3d615c378385018c615b5b565b8a615b5b565b88615b5b565b9150508451615c568183602089016158b7565b8451910190615c698183602088016158b7565b019a9950505050505050505050565b6020808252601e908201527f4354785020646f6573206e6f74207370656e642066756e64696e672054780000604082015260600190565b600060ff821660ff84168060ff03821115615ccc57615ccc615551565b019392505050565b805160208201516001600160e01b03198082169291906004831015615d035780818460040360031b1b83161693505b505050919050565b6001600160601b031991909116815260140190565b6020808252818101527f496e76616c6964207369676e6174757265206f662056206f7665722043547850604082015260600190565b80516020808301519190811015615b3f5760001960209190910360031b1b16919050565b6000600019821415615d8d57615d8d615551565b5060010190565b60008551615da6818460208a016158b7565b855190830190615dba818360208a016158b7565b8551910190615dcd8183602089016158b7565b8451910190615de08183602088016158b7565b019695505050505050565b600060ff821660ff841680821015615e0557615e05615551565b90039392505050565b60006001600160a01b0383811690831681811015615e2e57615e2e615551565b039392505050565b60006001600160a01b0382811684821681151582840482111615615e5c57615e5c615551565b02949350505050565b60006001600160a01b03828116848216808303821115615e8757615e87615551565b01949350505050565b60006001600160a01b0382811680821415615ead57615ead615551565b6001019392505050565b600061ffff80831681851681830481118215151615615e5c57615e5c615551565b600063ffffffff80831681851681830481118215151615615e5c57615e5c615551565b60006001600160401b0382811684821681151582840482111615615e5c57615e5c61555156fe6d656e74207472616e73616374696f6e20646f6573206e6f7420636f72726573307866666666666666666666666666666666666666666666666666666666666666656261616564636536616634386130336262666432356538636430333634313431416d6f756e74206d69736d61746368206265747765656e207032706b68206f667cb76fce4caeb1fe1b0dd56de53b408af770b76cf5e9c88a1e2568a7d1e9889fa2646970667358221220844e7839bb8c865ec871119cb4ee97853d7c82b3259acf23b8ccdf2754af0b3864736f6c63430008090033",
  "linkReferences": {},
  "deployedLinkReferences": {}
}