{
  "_format": "hh-sol-artifact-1",
  "contractName": "LNBridge",
  "sourceName": "contracts/LNBridge.sol",
  "abi": [
    {
      "inputs": [
        {
          "internalType": "uint256",
          "name": "value",
          "type": "uint256"
        },
        {
          "internalType": "uint256",
          "name": "length",
          "type": "uint256"
        }
      ],
      "name": "StringsInsufficientHexLength",
      "type": "error"
    },
    {
      "inputs": [
        {
          "internalType": "bytes",
          "name": "rawTxP_locked",
          "type": "bytes"
        },
        {
          "internalType": "bytes",
          "name": "sigV",
          "type": "bytes"
        },
        {
          "internalType": "bytes",
          "name": "rawTxV_unlocked",
          "type": "bytes"
        },
        {
          "internalType": "bytes",
          "name": "sigP",
          "type": "bytes"
        }
      ],
      "name": "dispute",
      "outputs": [],
      "stateMutability": "nonpayable",
      "type": "function"
    },
    {
      "inputs": [
        {
          "internalType": "bytes",
          "name": "_txBytes",
          "type": "bytes"
        }
      ],
      "name": "readThreeOutputs",
      "outputs": [
        {
          "internalType": "uint256",
          "name": "",
          "type": "uint256"
        },
        {
          "internalType": "bytes32",
          "name": "",
          "type": "bytes32"
        },
        {
          "internalType": "uint256",
          "name": "",
          "type": "uint256"
        },
        {
          "internalType": "bytes32",
          "name": "",
          "type": "bytes32"
        },
        {
          "internalType": "uint256",
          "name": "",
          "type": "uint256"
        },
        {
          "internalType": "bytes32",
          "name": "",
          "type": "bytes32"
        }
      ],
      "stateMutability": "nonpayable",
      "type": "function"
    },
    {
      "inputs": [
        {
          "internalType": "bytes",
          "name": "oldRevSecret",
          "type": "bytes"
        },
        {
          "internalType": "bytes",
          "name": "rawTxP_unlocked",
          "type": "bytes"
        },
        {
          "internalType": "bytes",
          "name": "sigV",
          "type": "bytes"
        }
      ],
      "name": "resolveDispute",
      "outputs": [],
      "stateMutability": "nonpayable",
      "type": "function"
    },
    {
      "inputs": [],
      "name": "settle",
      "outputs": [],
      "stateMutability": "nonpayable",
      "type": "function"
    },
    {
      "inputs": [
        {
          "internalType": "bytes32",
          "name": "_fundingTxId",
          "type": "bytes32"
        },
        {
          "internalType": "bytes32",
          "name": "_pkProver",
          "type": "bytes32"
        },
        {
          "internalType": "bytes32",
          "name": "_pkVerifier",
          "type": "bytes32"
        },
        {
          "internalType": "uint256",
          "name": "_index",
          "type": "uint256"
        },
        {
          "internalType": "uint256",
          "name": "_timestamp",
          "type": "uint256"
        }
      ],
      "name": "setup",
      "outputs": [],
      "stateMutability": "nonpayable",
      "type": "function"
    },
    {
      "inputs": [
        {
          "internalType": "bytes",
          "name": "rawTxP_unlocked",
          "type": "bytes"
        },
        {
          "internalType": "bytes",
          "name": "sigV",
          "type": "bytes"
        },
        {
          "internalType": "bytes",
          "name": "rawTxV_unlocked",
          "type": "bytes"
        },
        {
          "internalType": "bytes",
          "name": "sigP",
          "type": "bytes"
        }
      ],
      "name": "submitProof",
      "outputs": [],
      "stateMutability": "nonpayable",
      "type": "function"
    },
    {
      "inputs": [],
      "name": "timestamp",
      "outputs": [
        {
          "internalType": "uint256",
          "name": "",
          "type": "uint256"
        }
      ],
      "stateMutability": "view",
      "type": "function"
    },
    {
      "inputs": [],
      "name": "timestamp_dispute",
      "outputs": [
        {
          "internalType": "uint256",
          "name": "",
          "type": "uint256"
        }
      ],
      "stateMutability": "view",
      "type": "function"
    },
    {
      "inputs": [
        {
          "internalType": "bytes",
          "name": "pk",
          "type": "bytes"
        },
        {
          "internalType": "bytes32",
          "name": "digest",
          "type": "bytes32"
        },
        {
          "internalType": "uint8",
          "name": "v",
          "type": "uint8"
        },
        {
          "internalType": "bytes32",
          "name": "r",
          "type": "bytes32"
        },
        {
          "internalType": "bytes32",
          "name": "s",
          "type": "bytes32"
        }
      ],
      "name": "verifySignature",
      "outputs": [
        {
          "internalType": "bool",
          "name": "",
          "type": "bool"
        }
      ],
      "stateMutability": "view",
      "type": "function"
    }
  ],
  "bytecode": "0x608060405234801561001057600080fd5b5061303d806100206000396000f3fe608060405234801561001057600080fd5b50600436106100935760003560e01c806343f104d21161006657806343f104d21461010f57806347aa95731461012b57806379a85bd91461015b578063a5dd32ac14610177578063b80777ea1461019557610093565b806306ac0e261461009857806311da60b4146100b45780633740d249146100be5780633c1c0699146100da575b600080fd5b6100b260048036038101906100ad91906123e5565b6101b3565b005b6100bc6101dd565b005b6100d860048036038101906100d391906125a6565b6101df565b005b6100f460048036038101906100ef919061267d565b6101e5565b604051610106969594939291906126e4565b60405180910390f35b610129600480360381019061012491906125a6565b6103da565b005b6101456004803603810190610140919061277e565b6103e0565b6040516101529190612830565b60405180910390f35b6101756004803603810190610170919061284b565b6103fa565b005b61017f6103ff565b60405161018c91906128f2565b60405180910390f35b61019d610405565b6040516101aa91906128f2565b60405180910390f35b84600081905550836001819055508260028190555081600381905550806004819055505050505050565b565b50505050565b6000806000806000806000806000806000806102008d61040b565b809650819750829850839950849a50859b505050505050506102576040518060400160405280601581526020017f436865636b2076616c75655f6f75747075745f313a000000000000000000000081525087610716565b6102a36040518060400160405280601481526020017f436865636b207363726970745f646174615f313a00000000000000000000000081525061029e8760001c60206107b2565b6109f8565b6102e26040518060400160405280601581526020017f436865636b2076616c75655f6f75747075745f323a000000000000000000000081525085610716565b61032e6040518060400160405280601481526020017f436865636b207363726970745f646174615f323a0000000000000000000000008152506103298560001c60206107b2565b6109f8565b61036d6040518060400160405280601581526020017f436865636b2076616c75655f6f75747075745f333a000000000000000000000081525083610716565b6103b96040518060400160405280601481526020017f436865636b207363726970745f646174615f333a0000000000000000000000008152506103b48360001c60206107b2565b6109f8565b8585858585859b509b509b509b509b509b5050505050505091939550919395565b50505050565b60006103ef8686868686610a94565b905095945050505050565b505050565b60055481565b60045481565b600080600080600080600080600267ffffffffffffffff8111156104325761043161247b565b5b6040519080825280602002602001820160405280156104605781602001602082028036833780820191505090505b5090506000600367ffffffffffffffff8111156104805761047f61247b565b5b6040519080825280602002602001820160405280156104ae5781602001602082028036833780820191505090505b5090506000600367ffffffffffffffff8111156104ce576104cd61247b565b5b6040519080825280602002602001820160405280156104fc5781602001602082028036833780820191505090505b5090506000600367ffffffffffffffff81111561051c5761051b61247b565b5b60405190808252806020026020018201604052801561054a5781602001602082028036833780820191505090505b5090506000600367ffffffffffffffff81111561056a5761056961247b565b5b6040519080825280602002602001820160405280156105985781602001602082028036833780820191505090505b509050600495506105ab8d876000610b76565b80975081965050506105bf8d876000610c88565b8099508197508296508395505050505060005b600381101561065257600061061c8f8684815181106105f4576105f361290d565b5b602002602001015188858151811061060f5761060e61290d565b5b6020026020010151610e7f565b9050808383815181106106325761063161290d565b5b60200260200101818152505050808061064a9061296b565b9150506105d2565b50816000815181106106675761066661290d565b5b6020026020010151816000815181106106835761068261290d565b5b60200260200101518360018151811061069f5761069e61290d565b5b6020026020010151836001815181106106bb576106ba61290d565b5b6020026020010151856002815181106106d7576106d661290d565b5b6020026020010151856002815181106106f3576106f261290d565b5b60200260200101519b509b509b509b509b509b5050505050505091939550919395565b6107ae828260405160240161072c929190612a32565b6040516020818303038152906040527fb60e72cc000000000000000000000000000000000000000000000000000000007bffffffffffffffffffffffffffffffffffffffffffffffffffffffff19166020820180517bffffffffffffffffffffffffffffffffffffffffffffffffffffffff8381831617835250505050611059565b5050565b60606000839050600060028460026107ca9190612a62565b6107d49190612aa4565b67ffffffffffffffff8111156107ed576107ec61247b565b5b6040519080825280601f01601f19166020018201604052801561081f5781602001600182028036833780820191505090505b5090507f3000000000000000000000000000000000000000000000000000000000000000816000815181106108575761085661290d565b5b60200101907effffffffffffffffffffffffffffffffffffffffffffffffffffffffffffff1916908160001a9053507f7800000000000000000000000000000000000000000000000000000000000000816001815181106108bb576108ba61290d565b5b60200101907effffffffffffffffffffffffffffffffffffffffffffffffffffffffffffff1916908160001a905350600060018560026108fb9190612a62565b6109059190612aa4565b90505b60018111156109a5577f3031323334353637383961626364656600000000000000000000000000000000600f8416601081106109475761094661290d565b5b1a60f81b82828151811061095e5761095d61290d565b5b60200101907effffffffffffffffffffffffffffffffffffffffffffffffffffffffffffff1916908160001a905350600483901c92508061099e90612ad8565b9050610908565b50600082146109ed5784846040517fe22e27eb0000000000000000000000000000000000000000000000000000000081526004016109e4929190612b01565b60405180910390fd5b809250505092915050565b610a908282604051602401610a0e929190612b2a565b6040516020818303038152906040527f4b5c4277000000000000000000000000000000000000000000000000000000007bffffffffffffffffffffffffffffffffffffffffffffffffffffffff19166020820180517bffffffffffffffffffffffffffffffffffffffffffffffffffffffff8381831617835250505050611059565b5050565b60006040865114610ada576040517f08c379a0000000000000000000000000000000000000000000000000000000008152600401610ad190612bf9565b60405180910390fd5b6000610ae587611073565b9050600060018787878760405160008152602001604052604051610b0c9493929190612c28565b6020604051602081039080840390855afa158015610b2e573d6000803e3d6000fd5b5050506020604051035190508173ffffffffffffffffffffffffffffffffffffffff168173ffffffffffffffffffffffffffffffffffffffff16149250505095945050505050565b6060600080600080610b8888886110eb565b80985081945050506000861480610b9e57508286115b15610bab57829150610baf565b8591505b60008267ffffffffffffffff811115610bcb57610bca61247b565b5b604051908082528060200260200182016040528015610bf95781602001602082028036833780820191505090505b50905060005b83811015610c7557602489610c149190612aa4565b9850610c208a8a6110eb565b809a50819450505082828281518110610c3c57610c3b61290d565b5b602002602001018181525050600483610c559190612aa4565b89610c609190612aa4565b98508080610c6d9061296b565b915050610bff565b5080889550955050505050935093915050565b6060806060600080600080610c9d8a8a6110eb565b809a5081945050506000881480610cb357508288115b15610cc057829150610cc4565b8791505b60008267ffffffffffffffff811115610ce057610cdf61247b565b5b604051908082528060200260200182016040528015610d0e5781602001602082028036833780820191505090505b50905060008367ffffffffffffffff811115610d2d57610d2c61247b565b5b604051908082528060200260200182016040528015610d5b5781602001602082028036833780820191505090505b50905060008467ffffffffffffffff811115610d7a57610d7961247b565b5b604051908082528060200260200182016040528015610da85781602001602082028036833780820191505090505b50905060005b85811015610e6357610dc28e8e60406111d3565b828281518110610dd557610dd461290d565b5b60200260200101818152505060088d610dee9190612aa4565b9c50610dfa8e8e6110eb565b809e5081965050508c848281518110610e1657610e1561290d565b5b60200260200101818152505084838281518110610e3657610e3561290d565b5b602002602001018181525050848d610e4e9190612aa4565b9c508080610e5b9061296b565b915050610dae565b508083838e995099509950995050505050505093509350935093565b6000610e8c84848461163e565b15610efb57610ecf6040518060400160405280601381526020017f506172736564205032504b48206f757470757400000000000000000000000000815250611803565b610ee584600385610ee09190612aa4565b61189c565b6bffffffffffffffffffffffff19169050611052565b610f0684848461197f565b15610f7557610f496040518060400160405280601281526020017f5061727365642050325348206f75747075740000000000000000000000000000815250611803565b610f5f84600285610f5a9190612aa4565b61189c565b6bffffffffffffffffffffffff19169050611052565b610f80848484611a9c565b15610fe057610fc36040518060400160405280601781526020017f506172736564204f505f52455455524e206f7574707574000000000000000000815250611803565b610fd984600285610fd49190612aa4565b611b5f565b9050611052565b610feb848484611bea565b1561104b5761102e6040518060400160405280601b81526020017f506172736564204c696768746e696e6748544c43206f75747075740000000000815250611803565b6110448460028561103f9190612aa4565b611b5f565b9050611052565b6000801b90505b9392505050565b611070816110686121996121ba565b63ffffffff16565b50565b600060408251146110b9576040517f08c379a00000000000000000000000000000000000000000000000000000000081526004016110b090612cdf565b60405180910390fd5b60006110dd6110d26000856121c590919063ffffffff16565b62ffffff19166121f0565b90508060001c915050919050565b60008060008484815181106111035761110261290d565b5b602001015160f81c60f81b60f81c90506001846111209190612aa4565b935060fd8160ff1610156111405780848160ff16915092509250506111cc565b60fd8160ff160361116e57611157858560106111d3565b6002856111649190612aa4565b92509250506111cc565b60fe8160ff160361119c57611185858560206111d3565b6004856111929190612aa4565b92509250506111cc565b60ff8160ff16036111ca576111b3858560406111d3565b6008856111c09190612aa4565b92509250506111cc565b505b9250929050565b600060088203611208578383815181106111f0576111ef61290d565b5b602001015160f81c60f81b60f81c60ff169050611637565b6010820361128a57610100846001856112219190612aa4565b815181106112325761123161290d565b5b602001015160f81c60f81b60f81c60ff1661124d9190612d0d565b61ffff168484815181106112645761126361290d565b5b602001015160f81c60f81b60f81c60ff1661ffff166112839190612aa4565b9050611637565b602082036113ad576301000000846003856112a59190612aa4565b815181106112b6576112b561290d565b5b602001015160f81c60f81b60f81c60ff166112d19190612d5a565b63ffffffff1662010000856002866112e99190612aa4565b815181106112fa576112f961290d565b5b602001015160f81c60f81b60f81c60ff166113159190612d5a565b63ffffffff166101008660018761132c9190612aa4565b8151811061133d5761133c61290d565b5b602001015160f81c60f81b60f81c60ff166113589190612d5a565b63ffffffff168686815181106113715761137061290d565b5b602001015160f81c60f81b60f81c60ff1663ffffffff166113929190612aa4565b61139c9190612aa4565b6113a69190612aa4565b9050611637565b6040820361163657670100000000000000846007856113cc9190612aa4565b815181106113dd576113dc61290d565b5b602001015160f81c60f81b60f81c60ff166113f89190612dab565b67ffffffffffffffff166601000000000000856006866114189190612aa4565b815181106114295761142861290d565b5b602001015160f81c60f81b60f81c60ff166114449190612dab565b67ffffffffffffffff1665010000000000866005876114639190612aa4565b815181106114745761147361290d565b5b602001015160f81c60f81b60f81c60ff1661148f9190612dab565b67ffffffffffffffff16640100000000876004886114ad9190612aa4565b815181106114be576114bd61290d565b5b602001015160f81c60f81b60f81c60ff166114d99190612dab565b67ffffffffffffffff166301000000886003896114f69190612aa4565b815181106115075761150661290d565b5b602001015160f81c60f81b60f81c60ff166115229190612dab565b67ffffffffffffffff16620100008960028a61153e9190612aa4565b8151811061154f5761154e61290d565b5b602001015160f81c60f81b60f81c60ff1661156a9190612dab565b67ffffffffffffffff166101008a60018b6115859190612aa4565b815181106115965761159561290d565b5b602001015160f81c60f81b60f81c60ff166115b19190612dab565b67ffffffffffffffff168a8a815181106115ce576115cd61290d565b5b602001015160f81c60f81b60f81c60ff1667ffffffffffffffff166115f39190612aa4565b6115fd9190612aa4565b6116079190612aa4565b6116119190612aa4565b61161b9190612aa4565b6116259190612aa4565b61162f9190612aa4565b9050611637565b5b9392505050565b60006019821480156116925750607660f81b8484815181106116635761166261290d565b5b602001015160f81c60f81b7effffffffffffffffffffffffffffffffffffffffffffffffffffffffffffff1916145b80156116ec575060a960f81b846001856116ac9190612aa4565b815181106116bd576116bc61290d565b5b602001015160f81c60f81b7effffffffffffffffffffffffffffffffffffffffffffffffffffffffffffff1916145b80156117465750601460f81b846002856117069190612aa4565b815181106117175761171661290d565b5b602001015160f81c60f81b7effffffffffffffffffffffffffffffffffffffffffffffffffffffffffffff1916145b80156117a05750608860f81b846017856117609190612aa4565b815181106117715761177061290d565b5b602001015160f81c60f81b7effffffffffffffffffffffffffffffffffffffffffffffffffffffffffffff1916145b80156117fa575060ac60f81b846018856117ba9190612aa4565b815181106117cb576117ca61290d565b5b602001015160f81c60f81b7effffffffffffffffffffffffffffffffffffffffffffffffffffffffffffff1916145b90509392505050565b611899816040516024016118179190612de8565b6040516020818303038152906040527f41304fac000000000000000000000000000000000000000000000000000000007bffffffffffffffffffffffffffffffffffffffffffffffffffffffff19166020820180517bffffffffffffffffffffffffffffffffffffffffffffffffffffffff8381831617835250505050611059565b50565b6000806000905060005b60148173ffffffffffffffffffffffffffffffffffffffff161015611971578060136118d29190612e2a565b60086118de9190612e72565b73ffffffffffffffffffffffffffffffffffffffff1685858373ffffffffffffffffffffffffffffffffffffffff166119179190612aa4565b815181106119285761192761290d565b5b602001015160f81c60f81b60f81c60ff1673ffffffffffffffffffffffffffffffffffffffff16901b8261195c9190612eb4565b9150808061196990612efc565b9150506118a6565b508060601b91505092915050565b60006017821480156119df575060a960f81b8460008561199f9190612aa4565b815181106119b0576119af61290d565b5b602001015160f81c60f81b7effffffffffffffffffffffffffffffffffffffffffffffffffffffffffffff1916145b8015611a395750601460f81b846001856119f99190612aa4565b81518110611a0a57611a0961290d565b5b602001015160f81c60f81b7effffffffffffffffffffffffffffffffffffffffffffffffffffffffffffff1916145b8015611a935750608760f81b84601685611a539190612aa4565b81518110611a6457611a6361290d565b5b602001015160f81c60f81b7effffffffffffffffffffffffffffffffffffffffffffffffffffffffffffff1916145b90509392505050565b6000602282148015611afc5750606a60f81b84600085611abc9190612aa4565b81518110611acd57611acc61290d565b5b602001015160f81c60f81b7effffffffffffffffffffffffffffffffffffffffffffffffffffffffffffff1916145b8015611b565750602060f81b84600185611b169190612aa4565b81518110611b2757611b2661290d565b5b602001015160f81c60f81b7effffffffffffffffffffffffffffffffffffffffffffffffffffffffffffff1916145b90509392505050565b6000806000905060005b6020811015611bdc5780601f611b7f9190612f38565b6008611b8b9190612a62565b858583611b989190612aa4565b81518110611ba957611ba861290d565b5b602001015160f81c60f81b60f81c60ff16901b82611bc79190612aa4565b91508080611bd49061296b565b915050611b69565b508060001b91505092915050565b6000607282148015611c4a5750607660f81b84600085611c0a9190612aa4565b81518110611c1b57611c1a61290d565b5b602001015160f81c60f81b7effffffffffffffffffffffffffffffffffffffffffffffffffffffffffffff1916145b8015611ca45750602160f81b84600185611c649190612aa4565b81518110611c7557611c7461290d565b5b602001015160f81c60f81b7effffffffffffffffffffffffffffffffffffffffffffffffffffffffffffff1916145b8015611cfe575060ac60f81b84602385611cbe9190612aa4565b81518110611ccf57611cce61290d565b5b602001015160f81c60f81b7effffffffffffffffffffffffffffffffffffffffffffffffffffffffffffff1916145b8015611d585750606360f81b84602485611d189190612aa4565b81518110611d2957611d2861290d565b5b602001015160f81c60f81b7effffffffffffffffffffffffffffffffffffffffffffffffffffffffffffff1916145b8015611db25750607560f81b84602585611d729190612aa4565b81518110611d8357611d8261290d565b5b602001015160f81c60f81b7effffffffffffffffffffffffffffffffffffffffffffffffffffffffffffff1916145b8015611e0c575060aa60f81b84602685611dcc9190612aa4565b81518110611ddd57611ddc61290d565b5b602001015160f81c60f81b7effffffffffffffffffffffffffffffffffffffffffffffffffffffffffffff1916145b8015611e665750602060f81b84602785611e269190612aa4565b81518110611e3757611e3661290d565b5b602001015160f81c60f81b7effffffffffffffffffffffffffffffffffffffffffffffffffffffffffffff1916145b8015611ec05750608860f81b84604885611e809190612aa4565b81518110611e9157611e9061290d565b5b602001015160f81c60f81b7effffffffffffffffffffffffffffffffffffffffffffffffffffffffffffff1916145b8015611f1a5750606760f81b84604985611eda9190612aa4565b81518110611eeb57611eea61290d565b5b602001015160f81c60f81b7effffffffffffffffffffffffffffffffffffffffffffffffffffffffffffff1916145b8015611f745750602160f81b84604a85611f349190612aa4565b81518110611f4557611f4461290d565b5b602001015160f81c60f81b7effffffffffffffffffffffffffffffffffffffffffffffffffffffffffffff1916145b8015611fce575060ad60f81b84606c85611f8e9190612aa4565b81518110611f9f57611f9e61290d565b5b602001015160f81c60f81b7effffffffffffffffffffffffffffffffffffffffffffffffffffffffffffff1916145b80156120285750605260f81b84606d85611fe89190612aa4565b81518110611ff957611ff861290d565b5b602001015160f81c60f81b7effffffffffffffffffffffffffffffffffffffffffffffffffffffffffffff1916145b8015612082575060b260f81b84606e856120429190612aa4565b815181106120535761205261290d565b5b602001015160f81c60f81b7effffffffffffffffffffffffffffffffffffffffffffffffffffffffffffff1916145b80156120dc5750607560f81b84606f8561209c9190612aa4565b815181106120ad576120ac61290d565b5b602001015160f81c60f81b7effffffffffffffffffffffffffffffffffffffffffffffffffffffffffffff1916145b80156121365750606860f81b846070856120f69190612aa4565b815181106121075761210661290d565b5b602001015160f81c60f81b7effffffffffffffffffffffffffffffffffffffffffffffffffffffffffffff1916145b80156121905750605160f81b846071856121509190612aa4565b815181106121615761216061290d565b5b602001015160f81c60f81b7effffffffffffffffffffffffffffffffffffffffffffffffffffffffffffff1916145b90509392505050565b60006a636f6e736f6c652e6c6f679050600080835160208501845afa505050565b61235b819050919050565b6000808351905060006020850190506121e68464ffffffffff168284612233565b9250505092915050565b6000806121fc836122a1565b6bffffffffffffffffffffffff1690506000612217846122c1565b6bffffffffffffffffffffffff16905080822092505050919050565b60008061224983856122e190919063ffffffff16565b905060405181111561225a57600090505b6000810361228b577fffffffffffffffffffffffffffffffffffffffffffffffffffffffffff00000091505061229a565b61229685858561233a565b9150505b9392505050565b6000806bffffffffffffffffffffffff9050808360781c16915050919050565b6000806bffffffffffffffffffffffff9050808360181c16915050919050565b600081836122ef9190612aa4565b905082811015612334576040517f08c379a000000000000000000000000000000000000000000000000000000000815260040161232b90612fb8565b60405180910390fd5b92915050565b600083811760601b905082811760601b905081811760181b90509392505050565b612363612fd8565b565b6000604051905090565b600080fd5b600080fd5b6000819050919050565b61238c81612379565b811461239757600080fd5b50565b6000813590506123a981612383565b92915050565b6000819050919050565b6123c2816123af565b81146123cd57600080fd5b50565b6000813590506123df816123b9565b92915050565b600080600080600060a086880312156124015761240061236f565b5b600061240f8882890161239a565b95505060206124208882890161239a565b94505060406124318882890161239a565b9350506060612442888289016123d0565b9250506080612453888289016123d0565b9150509295509295909350565b600080fd5b600080fd5b6000601f19601f8301169050919050565b7f4e487b7100000000000000000000000000000000000000000000000000000000600052604160045260246000fd5b6124b38261246a565b810181811067ffffffffffffffff821117156124d2576124d161247b565b5b80604052505050565b60006124e5612365565b90506124f182826124aa565b919050565b600067ffffffffffffffff8211156125115761251061247b565b5b61251a8261246a565b9050602081019050919050565b82818337600083830152505050565b6000612549612544846124f6565b6124db565b90508281526020810184848401111561256557612564612465565b5b612570848285612527565b509392505050565b600082601f83011261258d5761258c612460565b5b813561259d848260208601612536565b91505092915050565b600080600080608085870312156125c0576125bf61236f565b5b600085013567ffffffffffffffff8111156125de576125dd612374565b5b6125ea87828801612578565b945050602085013567ffffffffffffffff81111561260b5761260a612374565b5b61261787828801612578565b935050604085013567ffffffffffffffff81111561263857612637612374565b5b61264487828801612578565b925050606085013567ffffffffffffffff81111561266557612664612374565b5b61267187828801612578565b91505092959194509250565b6000602082840312156126935761269261236f565b5b600082013567ffffffffffffffff8111156126b1576126b0612374565b5b6126bd84828501612578565b91505092915050565b6126cf816123af565b82525050565b6126de81612379565b82525050565b600060c0820190506126f960008301896126c6565b61270660208301886126d5565b61271360408301876126c6565b61272060608301866126d5565b61272d60808301856126c6565b61273a60a08301846126d5565b979650505050505050565b600060ff82169050919050565b61275b81612745565b811461276657600080fd5b50565b60008135905061277881612752565b92915050565b600080600080600060a0868803121561279a5761279961236f565b5b600086013567ffffffffffffffff8111156127b8576127b7612374565b5b6127c488828901612578565b95505060206127d58882890161239a565b94505060406127e688828901612769565b93505060606127f78882890161239a565b92505060806128088882890161239a565b9150509295509295909350565b60008115159050919050565b61282a81612815565b82525050565b60006020820190506128456000830184612821565b92915050565b6000806000606084860312156128645761286361236f565b5b600084013567ffffffffffffffff81111561288257612881612374565b5b61288e86828701612578565b935050602084013567ffffffffffffffff8111156128af576128ae612374565b5b6128bb86828701612578565b925050604084013567ffffffffffffffff8111156128dc576128db612374565b5b6128e886828701612578565b9150509250925092565b600060208201905061290760008301846126c6565b92915050565b7f4e487b7100000000000000000000000000000000000000000000000000000000600052603260045260246000fd5b7f4e487b7100000000000000000000000000000000000000000000000000000000600052601160045260246000fd5b6000612976826123af565b91507fffffffffffffffffffffffffffffffffffffffffffffffffffffffffffffffff82036129a8576129a761293c565b5b600182019050919050565b600081519050919050565b600082825260208201905092915050565b60005b838110156129ed5780820151818401526020810190506129d2565b60008484015250505050565b6000612a04826129b3565b612a0e81856129be565b9350612a1e8185602086016129cf565b612a278161246a565b840191505092915050565b60006040820190508181036000830152612a4c81856129f9565b9050612a5b60208301846126c6565b9392505050565b6000612a6d826123af565b9150612a78836123af565b9250828202612a86816123af565b91508282048414831517612a9d57612a9c61293c565b5b5092915050565b6000612aaf826123af565b9150612aba836123af565b9250828201905080821115612ad257612ad161293c565b5b92915050565b6000612ae3826123af565b915060008203612af657612af561293c565b5b600182039050919050565b6000604082019050612b1660008301856126c6565b612b2360208301846126c6565b9392505050565b60006040820190508181036000830152612b4481856129f9565b90508181036020830152612b5881846129f9565b90509392505050565b7f436865636b426974636f696e536967732f636865636b536967202d2d2052657160008201527f756972657320756e636f6d7072657373656420756e707265666978656420707560208201527f626b657900000000000000000000000000000000000000000000000000000000604082015250565b6000612be36044836129be565b9150612bee82612b61565b606082019050919050565b60006020820190508181036000830152612c1281612bd6565b9050919050565b612c2281612745565b82525050565b6000608082019050612c3d60008301876126d5565b612c4a6020830186612c19565b612c5760408301856126d5565b612c6460608301846126d5565b95945050505050565b7f5075626b6579206d7573742062652036342d62797465207261772c20756e636f60008201527f6d70726573736564206b65792e00000000000000000000000000000000000000602082015250565b6000612cc9602d836129be565b9150612cd482612c6d565b604082019050919050565b60006020820190508181036000830152612cf881612cbc565b9050919050565b600061ffff82169050919050565b6000612d1882612cff565b9150612d2383612cff565b9250828202612d3181612cff565b9150808214612d4357612d4261293c565b5b5092915050565b600063ffffffff82169050919050565b6000612d6582612d4a565b9150612d7083612d4a565b9250828202612d7e81612d4a565b9150808214612d9057612d8f61293c565b5b5092915050565b600067ffffffffffffffff82169050919050565b6000612db682612d97565b9150612dc183612d97565b9250828202612dcf81612d97565b9150808214612de157612de061293c565b5b5092915050565b60006020820190508181036000830152612e0281846129f9565b905092915050565b600073ffffffffffffffffffffffffffffffffffffffff82169050919050565b6000612e3582612e0a565b9150612e4083612e0a565b9250828203905073ffffffffffffffffffffffffffffffffffffffff811115612e6c57612e6b61293c565b5b92915050565b6000612e7d82612e0a565b9150612e8883612e0a565b9250828202612e9681612e0a565b91508282048414831517612ead57612eac61293c565b5b5092915050565b6000612ebf82612e0a565b9150612eca83612e0a565b9250828201905073ffffffffffffffffffffffffffffffffffffffff811115612ef657612ef561293c565b5b92915050565b6000612f0782612e0a565b915073ffffffffffffffffffffffffffffffffffffffff8203612f2d57612f2c61293c565b5b600182019050919050565b6000612f43826123af565b9150612f4e836123af565b9250828203905081811115612f6657612f6561293c565b5b92915050565b7f4f766572666c6f7720647572696e67206164646974696f6e2e00000000000000600082015250565b6000612fa26019836129be565b9150612fad82612f6c565b602082019050919050565b60006020820190508181036000830152612fd181612f95565b9050919050565b7f4e487b7100000000000000000000000000000000000000000000000000000000600052605160045260246000fdfea26469706673582212202e27e9c9e9c278b0f60ff9761c76b684148cccca56a763f9a02cd238f638e24364736f6c63430008130033",
  "linkReferences": {},
  "deployedLinkReferences": {}
}