{
  "_format": "hh-sol-artifact-1",
  "contractName": "LNBridge",
  "sourceName": "contracts/LNBridge.sol",
  "abi": [
    {
      "inputs": [
        {
          "internalType": "address",
          "name": "_prover",
          "type": "address"
        },
        {
          "internalType": "address",
          "name": "_verifier",
          "type": "address"
        }
      ],
      "stateMutability": "nonpayable",
      "type": "constructor"
    },
    {
      "anonymous": false,
      "inputs": [
        {
          "indexed": false,
          "internalType": "address",
          "name": "addr",
          "type": "address"
        },
        {
          "indexed": false,
          "internalType": "uint256",
          "name": "amount",
          "type": "uint256"
        }
      ],
      "name": "lockCoinsEvent",
      "type": "event"
    },
    {
      "anonymous": false,
      "inputs": [
        {
          "indexed": false,
          "internalType": "string",
          "name": "label",
          "type": "string"
        },
        {
          "indexed": false,
          "internalType": "bool",
          "name": "stateStatus",
          "type": "bool"
        }
      ],
      "name": "stateEvent",
      "type": "event"
    },
    {
      "inputs": [],
      "name": "bridge",
      "outputs": [
        {
          "internalType": "bytes32",
          "name": "fundingTxId",
          "type": "bytes32"
        },
        {
          "internalType": "bytes",
          "name": "fundingTx_script",
          "type": "bytes"
        },
        {
          "internalType": "bytes4",
          "name": "fundingTx_index",
          "type": "bytes4"
        },
        {
          "internalType": "bytes",
          "name": "sighash",
          "type": "bytes"
        },
        {
          "internalType": "bytes",
          "name": "pkProver_Uncompressed",
          "type": "bytes"
        },
        {
          "internalType": "bytes",
          "name": "pkVerifier_Uncompressed",
          "type": "bytes"
        },
        {
          "internalType": "uint256",
          "name": "timelock",
          "type": "uint256"
        },
        {
          "internalType": "uint256",
          "name": "timelock_dispute",
          "type": "uint256"
        }
      ],
      "stateMutability": "view",
      "type": "function"
    },
    {
      "inputs": [],
      "name": "contractStoragePC",
      "outputs": [
        {
          "internalType": "uint256",
          "name": "balP",
          "type": "uint256"
        },
        {
          "internalType": "uint256",
          "name": "balV",
          "type": "uint256"
        },
        {
          "internalType": "bytes32",
          "name": "revKey",
          "type": "bytes32"
        }
      ],
      "stateMutability": "view",
      "type": "function"
    },
    {
      "inputs": [
        {
          "internalType": "bytes",
          "name": "CT_P_locked",
          "type": "bytes"
        },
        {
          "internalType": "bytes",
          "name": "CT_V_unlocked",
          "type": "bytes"
        }
      ],
      "name": "dispute",
      "outputs": [],
      "stateMutability": "nonpayable",
      "type": "function"
    },
    {
      "inputs": [],
      "name": "initBal",
      "outputs": [
        {
          "internalType": "uint256",
          "name": "balP",
          "type": "uint256"
        },
        {
          "internalType": "uint256",
          "name": "balV",
          "type": "uint256"
        }
      ],
      "stateMutability": "view",
      "type": "function"
    },
    {
      "inputs": [
        {
          "internalType": "string",
          "name": "revSecret",
          "type": "string"
        }
      ],
      "name": "resolveInvalidDispute",
      "outputs": [],
      "stateMutability": "nonpayable",
      "type": "function"
    },
    {
      "inputs": [
        {
          "internalType": "bytes",
          "name": "CT_P_unlocked",
          "type": "bytes"
        }
      ],
      "name": "resolveValidDispute",
      "outputs": [],
      "stateMutability": "nonpayable",
      "type": "function"
    },
    {
      "inputs": [],
      "name": "settle",
      "outputs": [],
      "stateMutability": "payable",
      "type": "function"
    },
    {
      "inputs": [
        {
          "internalType": "bytes32",
          "name": "_fundingTxId",
          "type": "bytes32"
        },
        {
          "internalType": "bytes",
          "name": "_fundingTx_script",
          "type": "bytes"
        },
        {
          "internalType": "bytes4",
          "name": "_fundingTx_index",
          "type": "bytes4"
        },
        {
          "internalType": "bytes",
          "name": "_sighash",
          "type": "bytes"
        },
        {
          "internalType": "bytes",
          "name": "_pkProver_Uncompressed",
          "type": "bytes"
        },
        {
          "internalType": "bytes",
          "name": "_pkVerifier_Uncompressed",
          "type": "bytes"
        },
        {
          "internalType": "uint256",
          "name": "_timelock",
          "type": "uint256"
        },
        {
          "internalType": "uint256",
          "name": "_timelock_dispute",
          "type": "uint256"
        },
        {
          "internalType": "uint256",
          "name": "balConst",
          "type": "uint256"
        }
      ],
      "name": "setup",
      "outputs": [],
      "stateMutability": "nonpayable",
      "type": "function"
    },
    {
      "inputs": [],
      "name": "state",
      "outputs": [
        {
          "internalType": "bool",
          "name": "coinsLocked",
          "type": "bool"
        },
        {
          "internalType": "bool",
          "name": "setupDone",
          "type": "bool"
        },
        {
          "internalType": "bool",
          "name": "validProofSubmitted",
          "type": "bool"
        },
        {
          "internalType": "bool",
          "name": "disputeOpened",
          "type": "bool"
        },
        {
          "internalType": "bool",
          "name": "disputeClosedP",
          "type": "bool"
        },
        {
          "internalType": "bool",
          "name": "disputeClosedV",
          "type": "bool"
        }
      ],
      "stateMutability": "view",
      "type": "function"
    },
    {
      "inputs": [
        {
          "internalType": "bytes",
          "name": "CT_P_unlocked",
          "type": "bytes"
        },
        {
          "internalType": "bytes",
          "name": "CT_V_unlocked",
          "type": "bytes"
        }
      ],
      "name": "submitProof",
      "outputs": [],
      "stateMutability": "nonpayable",
      "type": "function"
    },
    {
      "stateMutability": "payable",
      "type": "receive"
    }
  ],
  "bytecode": "0x60806040523480156200001157600080fd5b506040516200544038038062005440833981016040819052620000349162000083565b601080546001600160a01b039384166001600160a01b03199182161790915560118054929093169116179055620000bb565b80516001600160a01b03811681146200007e57600080fd5b919050565b600080604083850312156200009757600080fd5b620000a28362000066565b9150620000b26020840162000066565b90509250929050565b61537580620000cb6000396000f3fe6080604052600436106100955760003560e01c8063761553911161005957806376155391146102c4578063abdf2f9d146102e4578063c19d93fb14610314578063e78cea9214610398578063fd5fe025146103c157600080fd5b80630cb823691461021d57806311da60b41461023d5780633aef1477146102455780636f6d7a04146102655780637236d92f146102a457600080fd5b36610218576010546001600160a01b031633141561012157336000818152600e6020908152604080832034908190556010546001600160a01b031684529281902054600c556008805460ff191660011790558051938452908301919091527fc8cbcf01cc721df748572483c74045c535053c72d70d00dcd2d242b2cef2347591015b60405180910390a1005b6011546001600160a01b03163314156101a257336000818152600e6020908152604080832034908190556011546001600160a01b031684529281902054600d556008805460ff191660011790558051938452908301919091527fc8cbcf01cc721df748572483c74045c535053c72d70d00dcd2d242b2cef234759101610117565b60085460408051818152602f818301527f4661696c656420746f206c6f636b20636f696e733a206d73672e73656e64657260608201526e1034b9903737ba1028103737b9102b60891b608082015260ff90921615156020830152516000805160206153208339815191529181900360a00190a15b005b600080fd5b34801561022957600080fd5b5061021661023836600461489c565b6103e1565b61021661065d565b34801561025157600080fd5b50610216610260366004614904565b610a31565b34801561027157600080fd5b50600954600a54600b5461028492919083565b604080519384526020840192909252908201526060015b60405180910390f35b3480156102b057600080fd5b506102166102bf366004614967565b611380565b3480156102d057600080fd5b506102166102df366004614904565b611675565b3480156102f057600080fd5b50600c54600d546102ff919082565b6040805192835260208301919091520161029b565b34801561032057600080fd5b5060085461035f9060ff808216916101008104821691620100008204811691630100000081048216916401000000008204811691600160281b90041686565b604080519615158752941515602087015292151593850193909352151560608401529015156080830152151560a082015260c00161029b565b3480156103a457600080fd5b506103ad611e81565b60405161029b9897969594939291906149f3565b3480156103cd57600080fd5b506102166103dc366004614a8e565b6120e1565b6007546006546103f19190614b88565b4210801561044d575060085460ff161515600114801561041e575060085460ff6101009091041615156001145b8015610433575060085462010000900460ff16155b801561044d57506008546301000000900460ff1615156001145b80156105165750600280826040516104659190614ba0565b602060405180830381855afa158015610482573d6000803e3d6000fd5b5050506040513d601f19601f820116820180604052508101906104a59190614bbc565b6040516020016104b791815260200190565b60408051601f19818403018152908290526104d191614ba0565b602060405180830381855afa1580156104ee573d6000803e3d6000fd5b5050506040513d601f19601f820116820180604052508101906105119190614bbc565b600b54145b156105d4576008805465ff00000000001916600160281b90811791829055604051600080516020615320833981519152926105c992900460ff16906040808252604a908201527f5265736f6c766520496e76616c6964204469737075746520737563636573736660608201527f756c6c792065786563757465643a2073746174652e64697370757465436c6f73608082015269656456203d207472756560b01b60a0820152901515602082015260c00190565b60405180910390a150565b60085460408051818152603c918101919091527f5265736f6c766520496e76616c69642044697370757465206661696c65643a2060608201527f73746174652e64697370757465436c6f73656456203d2066616c7365000000006080820152600160281b90910460ff16151560208201526000805160206153208339815191529060a0016105c9565b60085462010000900460ff161515600114806106a157506008546301000000900460ff16151560011480156106a15750600854640100000000900460ff1615156001145b156107f157601054600f546001600160a01b039091166000818152600e602052604081205490928392916106d59190614bd5565b604051600081818185875af1925050503d8060008114610711576040519150601f19603f3d011682016040523d82523d6000602084013e610716565b606091505b5091509150816107415760405162461bcd60e51b815260040161073890614bf4565b60405180910390fd5b601154600f5460009182916001600160a01b0390911690610763906001614c22565b6011546001600160a01b03166000908152600e60205260409020546107889190614bd5565b604051600081818185875af1925050503d80600081146107c4576040519150601f19603f3d011682016040523d82523d6000602084013e6107c9565b606091505b5091509150816107eb5760405162461bcd60e51b815260040161073890614bf4565b50505050565b6008546301000000900460ff161515600114801561082f5750600854640100000000900460ff1615801561082f5750600854600160281b900460ff16155b156108d7576010546011546001600160a01b039081166000908152600e60205260408082205492909316808252928120549092839290916108709190614b88565b604051600081818185875af1925050503d80600081146108ac576040519150601f19603f3d011682016040523d82523d6000602084013e6108b1565b606091505b5091509150816108d35760405162461bcd60e51b815260040161073890614bf4565b5050565b6008546301000000900460ff16151560011480156109035750600854600160281b900460ff1615156001145b15610940576011546001600160a01b039081166000818152600e602052604080822054601054909416825281205490928392916108709190614b88565b60085460ff161515600114801561095f5750600854610100900460ff16155b15610a2f57601054600c5460405160009283926001600160a01b03909116918381818185875af1925050503d80600081146109b6576040519150601f19603f3d011682016040523d82523d6000602084013e6109bb565b606091505b5091509150816109dd5760405162461bcd60e51b815260040161073890614bf4565b601154600d5460405160009283926001600160a01b03909116918381818185875af1925050503d80600081146107c4576040519150601f19603f3d011682016040523d82523d6000602084013e6107c9565b565b60065442108015610a8c575060085460ff1615156001148015610a61575060085460ff6101009091041615156001145b8015610a76575060085462010000900460ff16155b8015610a8c57506008546301000000900460ff16155b156112f0576000610a9c83612170565b6001600160e01b03191614610ac35760405162461bcd60e51b815260040161073890614c39565b6000610ace82612170565b6001600160e01b03191614610af55760405162461bcd60e51b815260040161073890614c7e565b610afd614671565b610b056146b7565b6040805180820190915260008082526020820152610b228561219a565b9084529084529050610b338461245d565b6020848101919091528085018290526060909101519082015114610b695760405162461bcd60e51b815260040161073890614cd9565b60208301515182515114610b8f5760405162461bcd60e51b815260040161073890614d36565b60208201515183515114610bb55760405162461bcd60e51b815260040161073890614d93565b600080610c4e60006001018054610bcb90614df0565b80601f0160208091040260200160405190810160405280929190818152602001828054610bf790614df0565b8015610c445780601f10610c1957610100808354040283529160200191610c44565b820191906000526020600020905b815481529060010190602001808311610c2757829003601f168201915b5050505050612615565b8551602090810151604051939550919350600292610c6d929101614e2b565b60408051601f1981840301815290829052610c8791614ba0565b602060405180830381855afa158015610ca4573d6000803e3d6000fd5b5050506040513d601f19601f82011682018060405250810190610cc79190614bbc565b6002610cd28361263b565b604051610cdf9190614ba0565b602060405180830381855afa158015610cfc573d6000803e3d6000fd5b5050506040513d601f19601f82011682018060405250810190610d1f9190614bbc565b14610db15760405162461bcd60e51b815260206004820152605660248201527f546865207032706b6820696e2050277320756e6c6f636b656420636f6d6d697460448201527f6d656e74207472616e73616374696f6e20646f6573206e6f7420636f72726573606482015275706f6e6420746f2056657269666965722773206f6e6560501b608482015260a401610738565b602080850151810151604051600292610dcb929101614e2b565b60408051601f1981840301815290829052610de591614ba0565b602060405180830381855afa158015610e02573d6000803e3d6000fd5b5050506040513d601f19601f82011682018060405250810190610e259190614bbc565b6002610e308461263b565b604051610e3d9190614ba0565b602060405180830381855afa158015610e5a573d6000803e3d6000fd5b5050506040513d601f19601f82011682018060405250810190610e7d9190614bbc565b14610e9a5760405162461bcd60e51b815260040161073890614e40565b600054610ea688612706565b6020015114610ec75760405162461bcd60e51b815260040161073890614eba565b600054610ed387612706565b6020015114610ef45760405162461bcd60e51b815260040161073890614f21565b610efc6146f0565b610f05886127e2565b6020820152610f13876127e2565b8152610f1d61473c565b6110428960006001018054610f3190614df0565b80601f0160208091040260200160405190810160405280929190818152602001828054610f5d90614df0565b8015610faa5780601f10610f7f57610100808354040283529160200191610faa565b820191906000526020600020905b815481529060010190602001808311610f8d57829003601f168201915b505050505060006003018054610fbf90614df0565b80601f0160208091040260200160405190810160405280929190818152602001828054610feb90614df0565b80156110385780601f1061100d57610100808354040283529160200191611038565b820191906000526020600020905b81548152906001019060200180831161101b57829003601f168201915b5050505050612901565b815260405160029061105690600590614f88565b602060405180830381855afa158015611073573d6000803e3d6000fd5b5050506040513d601f19601f820116820180604052508101906110969190614bbc565b60026110e08360005b60200201518560016020020151516110c48760015b6020020151602001516000612963565b6110db8860015b6020020151604001516000612963565b6129c1565b6040516110ed9190614ba0565b602060405180830381855afa15801561110a573d6000803e3d6000fd5b5050506040513d601f19601f8201168201806040525081019061112d9190614bbc565b1461114a5760405162461bcd60e51b815260040161073890615024565b61115e8860006001018054610f3190614df0565b602082015260405160029061117590600490614f88565b602060405180830381855afa158015611192573d6000803e3d6000fd5b5050506040513d601f19601f820116820180604052508101906111b59190614bbc565b60026111dc8360015b60200201518551516111d18760006110b4565b6110db8860006110cb565b6040516111e99190614ba0565b602060405180830381855afa158015611206573d6000803e3d6000fd5b5050506040513d601f19601f820116820180604052508101906112299190614bbc565b146112465760405162461bcd60e51b815260040161073890615081565b6008805462ff000019166201000090811791829055604051600080516020615320833981519152926112dd92900460ff16906040808252603d908201527f50726f6f66207375636365737366756c6c792076657269666965643a2073746160608201527f74652e76616c696450726f6f665375626d6974746564203d20747275650000006080820152901515602082015260a00190565b60405180910390a1505050505050505050565b60085460408051818152603b918101919091527f50726f6f66207375626d697474656420746f6f206c6174653a2073746174652e60608201527f76616c696450726f6f665375626d6974746564203d2066616c7365000000000060808201526201000090910460ff16151560208201526000805160206153208339815191529060a0015b60405180910390a15050565b6007546006546113909190614b88565b421080156113ec575060085460ff16151560011480156113bd575060085460ff6101009091041615156001145b80156113d2575060085462010000900460ff16155b80156113ec57506008546301000000900460ff1615156001145b156115eb5760006113fc82612170565b6001600160e01b031916146114235760405162461bcd60e51b815260040161073890614c39565b600061142e826127e2565b905060006114468360006001018054610f3190614df0565b90506002600060050160405161145c9190614f88565b602060405180830381855afa158015611479573d6000803e3d6000fd5b5050506040513d601f19601f8201168201806040525081019061149c9190614bbc565b60026114c88360001c85600001516114b987602001516000612963565b6110db88604001516000612963565b6040516114d59190614ba0565b602060405180830381855afa1580156114f2573d6000803e3d6000fd5b5050506040513d601f19601f820116820180604052508101906115159190614bbc565b146115325760405162461bcd60e51b815260040161073890615024565b6008805464ff00000000191664010000000090811791829055604051600080516020615320833981519152926115de92900460ff169060408082526048908201527f5265736f6c76652056616c69642044697370757465207375636365737366756c60608201527f6c792065786563757465643a2073746174652e64697370757465436c6f73656460808201526750203d207472756560c01b60a0820152901515602082015260c00190565b60405180910390a1505050565b60085460408051818152603a918101919091527f5265736f6c76652056616c69642044697370757465206661696c65643a20737460608201527f6174652e64697370757465436c6f73656450203d2066616c7365000000000000608082015264010000000090910460ff16151560208201526000805160206153208339815191529060a0016105c9565b600654421080156116d0575060085460ff16151560011480156116a5575060085460ff6101009091041615156001145b80156116ba575060085462010000900460ff16155b80156116d057506008546301000000900460ff16155b15611e06576007546006546116e59190614b88565b6116ee83612a0a565b63ffffffff16116117c25760405162461bcd60e51b815260206004820152608660248201527f436f6d6d69746d656e74207472616e73616374696f6e206f662050206973207560448201527f6e6c6f636b6564206f722074696d656c6f636b206f66207468652074696d656c60648201527f6f636b656420547820697320736d616c6c6572206f7220657175616c2074686160848201527f6e2054696d656c6f636b2054202b2052656c61746976652054696d656c6f636b60a482015265081517dc995b60d21b60c482015260e401610738565b60006117cd82612a0a565b63ffffffff16146117f05760405162461bcd60e51b815260040161073890614c7e565b6117f8614671565b6118006146b7565b604080518082019091526000808252602082015261181d8561219a565b908452908452905061182e8461245d565b60208481019190915280850182905260609091015190820151146118645760405162461bcd60e51b815260040161073890614cd9565b6020830151518251511461188a5760405162461bcd60e51b815260040161073890614d36565b602082015151835151146118b05760405162461bcd60e51b815260040161073890614d93565b6000806118c660006001018054610bcb90614df0565b85516020908101516040519395509193506002926118e5929101614e2b565b60408051601f19818403018152908290526118ff91614ba0565b602060405180830381855afa15801561191c573d6000803e3d6000fd5b5050506040513d601f19601f8201168201806040525081019061193f9190614bbc565b600261194a8361263b565b6040516119579190614ba0565b602060405180830381855afa158015611974573d6000803e3d6000fd5b5050506040513d601f19601f820116820180604052508101906119979190614bbc565b14611a275760405162461bcd60e51b815260206004820152605460248201527f546865207032706b6820696e20502773206c6f636b656420636f6d6d69746d6560448201527f6e74207472616e73616374696f6e20646f6573206e6f7420636f72726573706f6064820152736e6420746f2056657269666965722773206f6e6560601b608482015260a401610738565b602080850151810151604051600292611a41929101614e2b565b60408051601f1981840301815290829052611a5b91614ba0565b602060405180830381855afa158015611a78573d6000803e3d6000fd5b5050506040513d601f19601f82011682018060405250810190611a9b9190614bbc565b6002611aa68461263b565b604051611ab39190614ba0565b602060405180830381855afa158015611ad0573d6000803e3d6000fd5b5050506040513d601f19601f82011682018060405250810190611af39190614bbc565b14611b105760405162461bcd60e51b815260040161073890614e40565b600054611b1c88612706565b6020015114611b3d5760405162461bcd60e51b815260040161073890614eba565b600054611b4987612706565b6020015114611b6a5760405162461bcd60e51b815260040161073890614f21565b611b726146f0565b611b7b886127e2565b6020820152611b89876127e2565b8152611b9361473c565b611ba78960006001018054610f3190614df0565b8152604051600290611bbb90600590614f88565b602060405180830381855afa158015611bd8573d6000803e3d6000fd5b5050506040513d601f19601f82011682018060405250810190611bfb9190614bbc565b6002611c0883600061109f565b604051611c159190614ba0565b602060405180830381855afa158015611c32573d6000803e3d6000fd5b5050506040513d601f19601f82011682018060405250810190611c559190614bbc565b14611c725760405162461bcd60e51b815260040161073890615024565b611c868860006001018054610f3190614df0565b6020820152604051600290611c9d90600490614f88565b602060405180830381855afa158015611cba573d6000803e3d6000fd5b5050506040513d601f19601f82011682018060405250810190611cdd9190614bbc565b6002611cea8360016111be565b604051611cf79190614ba0565b602060405180830381855afa158015611d14573d6000803e3d6000fd5b5050506040513d601f19601f82011682018060405250810190611d379190614bbc565b14611d545760405162461bcd60e51b815260040161073890615081565b8651805160095560208089015151600a55606091820151600b556008805463ff0000001916630100000090811791829055604080518181526037918101919091527f44697370757465207375636365737366756c6c79206f70656e65643a20737461948101949094527f74652e646973707574654f70656e6564203d20747275650000000000000000006080850152900460ff161515908201526000805160206153208339815191529060a0016112dd565b60085460408051818152602f918101919091527f44697370757465206e6f74206f70656e65643a2073746174652e64697370757460608201526e654f70656e6564203d2066616c736560881b6080820152630100000090910460ff16151560208201526000805160206153208339815191529060a001611374565b6000805460018054919291611e9590614df0565b80601f0160208091040260200160405190810160405280929190818152602001828054611ec190614df0565b8015611f0e5780601f10611ee357610100808354040283529160200191611f0e565b820191906000526020600020905b815481529060010190602001808311611ef157829003601f168201915b5050505050908060020160009054906101000a900460e01b90806003018054611f3690614df0565b80601f0160208091040260200160405190810160405280929190818152602001828054611f6290614df0565b8015611faf5780601f10611f8457610100808354040283529160200191611faf565b820191906000526020600020905b815481529060010190602001808311611f9257829003601f168201915b505050505090806004018054611fc490614df0565b80601f0160208091040260200160405190810160405280929190818152602001828054611ff090614df0565b801561203d5780601f106120125761010080835404028352916020019161203d565b820191906000526020600020905b81548152906001019060200180831161202057829003601f168201915b50505050509080600501805461205290614df0565b80601f016020809104026020016040519081016040528092919081815260200182805461207e90614df0565b80156120cb5780601f106120a0576101008083540402835291602001916120cb565b820191906000526020600020905b8154815290600101906020018083116120ae57829003601f168201915b5050505050908060060154908060070154905088565b600089905587516120f99060019060208b019061475a565b506002805463ffffffff191660e089901c179055855161212090600390602089019061475a565b50845161213490600490602088019061475a565b50835161214890600590602087019061475a565b50600692909255600755600f5550506008805465ffffffffff00191661010017905550505050565b600061218b82600484516121849190614c22565b6004612a30565b612194906150de565b92915050565b60408051608081018252600080825260208201819052918101829052606081019190915260408051808201909152600080825260208201526040805180820182526000808252602080830182905283516080810185528281529081018290529283018190526060830152906040805180820190915260008082526020820152604080518082019091526000808252602082015261225f6040518060a0016040528060008152602001606081526020016060815260200160608152602001606081525090565b60048082526122719089906000612b3d565b80835260208301919091526122899089906000612c34565b845260408401526060830152608082015260005b600381101561244e5780612324576122f089836060015183815181106122c5576122c5614cc3565b6020026020010151846040015184815181106122e3576122e3614cc3565b6020026020010151612dfc565b604088015260608701526020860152608082015180518290811061231657612316614cc3565b602090810291909101015185525b80600114156123d15761239d6123758a8460600151848151811061234a5761234a614cc3565b60200260200101518560400151858151811061236857612368614cc3565b6020026020010151612e61565b60405160200161238791815260200190565b6040516020818303038152906040526000612f04565b6001600160601b031916602084015260808201518051829081106123c3576123c3614cc3565b602090810291909101015183525b806002141561243c5761241289836060015183815181106123f4576123f4614cc3565b60200260200101518460400151848151811061236857612368614cc3565b6020850152608082015180518290811061242e5761242e614cc3565b602090810291909101015184525b8061244681615115565b91505061229d565b50929790965090945092505050565b604080516080810182526000808252602082018190529181018290526060810191909152604080518082019091526000808252602082015260408051608081018252600080825260208201819052918101829052606081019190915260408051808201909152600080825260208201526124ff6040518060a0016040528060008152602001606081526020016060815260200160608152602001606081525090565b60048082526125119087906000612b3d565b80835260208301919091526125299087906000612c34565b845260408401526060830152608082015260005b6002811015612609578061259d5761256587836060015183815181106122c5576122c5614cc3565b604087015260608601526020850152608082015180518290811061258b5761258b614cc3565b602090810291909101015184526125f7565b80600114156125f7576125c3612375888460600151848151811061234a5761234a614cc3565b6001600160601b031916602084015260808201518051829081106125e9576125e9614cc3565b602090810291909101015183525b8061260181615115565b91505061253d565b50919590945092505050565b6060806126258360026021612a30565b6126328460256021612a30565b91509150915091565b6060600360028360405161264f9190614ba0565b602060405180830381855afa15801561266c573d6000803e3d6000fd5b5050506040513d601f19601f8201168201806040525081019061268f9190614bbc565b6040516020016126a191815260200190565b60408051601f19818403018152908290526126bb91614ba0565b602060405180830381855afa1580156126d8573d6000803e3d6000fd5b505060405180516126f0925060601b90602001614e2b565b6040516020818303038152906040529050919050565b6040805160608082018352600080835260208084018290528385018290528451928301855281835282018190529281019290925290612746836004612f96565b5081526127568360256004612a30565b61275f906150de565b6001600160e01b031916604082015261278c61277e8460056025612a30565b61278790615130565b613059565b602082015280516001146121945760405162461bcd60e51b815260206004820152601b60248201527f54782068617320746f6f206d616e7920696e7075747320283e312900000000006044820152606401610738565b6128096040518060600160405280600060ff16815260200160608152602001606081525090565b6128306040518060600160405280600060ff16815260200160608152602001606081525090565b82602a8151811061284357612843614cc3565b6020910101516001600160f81b031916604760f81b141561287b5761287161286c84602f6130fa565b61316c565b60208201526128ba565b82602a8151811061288e5761288e614cc3565b6020910101516001600160f81b031916602360f91b14156128ba576128b483602f613181565b60208201525b6128c861286c8460516130fa565b604082015260208101516002906128e0906000612963565b6128ea919061516a565b6128f757601c8152612194565b601b815292915050565b6000806129118560006029612a30565b8461292a876072808a516129259190614c22565b612a30565b8560405160200161293e949392919061517e565b6040516020818303038152906040529050612958816131fe565b9150505b9392505050565b6000612970826020614b88565b835110156129b85760405162461bcd60e51b8152602060048201526015602482015274746f55696e743235365f6f75744f66426f756e647360581b6044820152606401610738565b50016020015190565b60606000806129dc876129d5601b896151d5565b87876132bd565b6040805160208101939093528281019190915280518083038201815260609092019052979650505050505050565b6000612194612a29612a2484600486516121849190614c22565b6134ee565b60006135bb565b606081612a3e81601f614b88565b1015612a7d5760405162461bcd60e51b815260206004820152600e60248201526d736c6963655f6f766572666c6f7760901b6044820152606401610738565b612a878284614b88565b84511015612acb5760405162461bcd60e51b8152602060048201526011602482015270736c6963655f6f75744f66426f756e647360781b6044820152606401610738565b606082158015612aea5760405191506000825260208201604052612b34565b6040519150601f8416801560200281840101858101878315602002848b0101015b81831015612b23578051835260209283019201612b0b565b5050858452601f01601f1916604052505b50949350505050565b6060600080600080612b4f8888612f96565b97509250851580612b5f57508286115b15612b6c57829150612b70565b8591505b6000826001600160401b03811115612b8a57612b8a614811565b604051908082528060200260200182016040528015612bb3578160200160208202803683370190505b50905060005b83811015612c2757612bcc60248a614b88565b9850612bd88a8a612f96565b809a50819450505082828281518110612bf357612bf3614cc3565b6020908102919091010152612c09836004614b88565b612c13908a614b88565b985080612c1f81615115565b915050612bb9565b5098969750505050505050565b6060806060600080600080612c498a8a612f96565b99509250871580612c5957508288115b15612c6657829150612c6a565b8791505b6000826001600160401b03811115612c8457612c84614811565b604051908082528060200260200182016040528015612cad578160200160208202803683370190505b5090506000836001600160401b03811115612cca57612cca614811565b604051908082528060200260200182016040528015612cf3578160200160208202803683370190505b5090506000846001600160401b03811115612d1057612d10614811565b604051908082528060200260200182016040528015612d39578160200160208202803683370190505b50905060005b85811015612dea57612d538e8e6040613618565b828281518110612d6557612d65614cc3565b6020908102919091010152612d7b60088e614b88565b9c50612d878e8e612f96565b809e5081965050508c848281518110612da257612da2614cc3565b60200260200101818152505084838281518110612dc157612dc1614cc3565b6020908102919091010152612dd6858e614b88565b9c5080612de281615115565b915050612d3f565b509c919b509998509650505050505050565b6000806000612e0c868686613982565b15612e4e57612e2586612e20876003614b88565b6130fa565b612e3487612e20886028614b88565b612e4388612e2089604c614b88565b925092509250612e58565b5060009150819050805b93509350939050565b6000612e6e848484613d2f565b15612e9857612e8784612e82856003614b88565b612f04565b6001600160601b031916905061295c565b612ea3848484613e54565b15612eb757612e8784612e82856002614b88565b612ec2848484613f0f565b15612edd57612ed684612e20856002614b88565b905061295c565b612ee8848484613982565b15612efc57612ed684612e20856002614b88565b50600061295c565b600080805b6014816001600160a01b03161015612f8b57612f268160136151f8565b612f31906008615220565b6001600160a01b03168585836001600160a01b0316612f509190614b88565b81518110612f6057612f60614cc3565b0160200151612f779160f89190911c901b8361524f565b915080612f838161527a565b915050612f09565b5060601b9392505050565b6000806000848481518110612fad57612fad614cc3565b016020015160f81c9050612fc2600185614b88565b935060fd8160ff161015612fdd5760ff169150829050613052565b8060ff1660fd141561300a57612ff585856010613618565b613000856002614b88565b9250925050613052565b8060ff1660fe141561302d5761302285856020613618565b613000856004614b88565b8060ff1660ff14156130505761304585856040613618565b613000856008614b88565b505b9250929050565b60408051602080825281830190925260009182919060208201818036833701905050905060005b60208110156130f05783816020811061309b5761309b614cc3565b1a60f81b8260016130ad846020614c22565b6130b79190614c22565b815181106130c7576130c7614cc3565b60200101906001600160f81b031916908160001a905350806130e881615115565b915050613080565b5061295c81613f90565b600080805b60208110156131645761311381601f614c22565b61311e906008614bd5565b856131298684614b88565b8151811061313957613139614cc3565b01602001516131509160f89190911c901b83614b88565b91508061315c81615115565b9150506130ff565b509392505050565b6060816040516020016126f091815260200190565b60606000805b601f8110156131ec5761319b81601e614c22565b6131a6906008614bd5565b856131b18684614b88565b815181106131c1576131c1614cc3565b01602001516131d89160f89190911c901b83614b88565b9150806131e481615115565b915050613187565b506131f681613fad565b949350505050565b6000600280836040516132119190614ba0565b602060405180830381855afa15801561322e573d6000803e3d6000fd5b5050506040513d601f19601f820116820180604052508101906132519190614bbc565b60405160200161326391815260200190565b60408051601f198184030181529082905261327d91614ba0565b602060405180830381855afa15801561329a573d6000803e3d6000fd5b5050506040513d601f19601f820116820180604052508101906121949190614bbc565b600080806401000003d0196132df607f600189901c166401000003d019614bd5565b860890506401000003d019811180613308575070014551231950b75fc4402da1732fc9bebe1984115b80613324575070014551231950b75fc4402da1732fc9bebe1985115b8061332d575083155b80613336575084155b80613344575060018660ff16115b156133565760008092509250506134e5565b60006133748670014551231950b75fc4402da1732fc9bebe19614021565b905060006401000003d0198060076401000003d01960008709086401000003d0198086870986090890506133c48160046133b56401000003d0196001614b88565b6133bf91906152a1565b6140ed565b905060006133d560ff8a1683614b88565b6133e0906002614b88565b600116156133fd576133f8826401000003d019614c22565b6133ff565b815b90506000808061348270014551231950b75fc4402da1732fc9bebe196134378f70014551231950b75fc4402da1732fc9bebe19614c22565b88097f79be667ef9dcbbac55a06295ce870b07029bfcdb2dce28d959f2815b16f817987f483ada7726a3c4655da4fbfc0e1108a8fd17b448a68554199c47d08ffb10d4b86001614195565b92509250925060008060006134bc70014551231950b75fc4402da1732fc9bebe19806134b0576134b0615154565b8e8b098b896001614195565b9250925092506000806134d388888888888861420e565b909e509c505050505050505050505050505b94509492505050565b6060600082516001600160401b0381111561350b5761350b614811565b6040519080825280601f01601f191660200182016040528015613535576020820181803683370190505b50905060005b83518110156135b45783818151811061355657613556614cc3565b602001015160f81c60f81b8260018387516135719190614c22565b61357b9190614c22565b8151811061358b5761358b614cc3565b60200101906001600160f81b031916908160001a905350806135ac81615115565b91505061353b565b5092915050565b60006135c8826004614b88565b8351101561360f5760405162461bcd60e51b8152602060048201526014602482015273746f55696e7433325f6f75744f66426f756e647360601b6044820152606401610738565b50016004015190565b600081600814156136445783838151811061363557613635614cc3565b016020015160f81c905061295c565b81601014156136a55783613659846001614b88565b8151811061366957613669614cc3565b016020015161367d9060f81c6101006152b5565b61ffff1684848151811061369357613693614cc3565b0160200151612ed6919060f81c614b88565b816020141561378b57836136ba846003614b88565b815181106136ca576136ca614cc3565b01602001516136e09060f81c63010000006152d6565b63ffffffff16846136f2856002614b88565b8151811061370257613702614cc3565b01602001516137179060f81c620100006152d6565b63ffffffff1685613729866001614b88565b8151811061373957613739614cc3565b016020015161374d9060f81c6101006152d6565b63ffffffff1686868151811061376557613765614cc3565b0160200151613777919060f81c614b88565b6137819190614b88565b612ed69190614b88565b816040141561295c57836137a0846007614b88565b815181106137b0576137b0614cc3565b01602001516137ca9060f81c6701000000000000006152f9565b6001600160401b0316846137df856006614b88565b815181106137ef576137ef614cc3565b01602001516138089060f81c66010000000000006152f9565b6001600160401b03168561381d866005614b88565b8151811061382d5761382d614cc3565b01602001516138439060f81c600160281b6152f9565b6001600160401b031686613858876004614b88565b8151811061386857613868614cc3565b016020015161387f9060f81c6401000000006152f9565b6001600160401b031687613894886003614b88565b815181106138a4576138a4614cc3565b01602001516138ba9060f81c63010000006152f9565b6001600160401b0316886138cf896002614b88565b815181106138df576138df614cc3565b01602001516138f49060f81c620100006152f9565b6001600160401b0316896139098a6001614b88565b8151811061391957613919614cc3565b016020015161392d9060f81c6101006152f9565b6001600160401b03168a8a8151811061394857613948614cc3565b016020015161395a919060f81c614b88565b6139649190614b88565b61396e9190614b88565b6139789190614b88565b6137779190614b88565b60008160721480156139c257508361399b846000614b88565b815181106139ab576139ab614cc3565b6020910101516001600160f81b031916603b60f91b145b80156139fc5750836139d5846001614b88565b815181106139e5576139e5614cc3565b6020910101516001600160f81b031916602160f81b145b8015613a36575083613a0f846023614b88565b81518110613a1f57613a1f614cc3565b6020910101516001600160f81b031916602b60fa1b145b8015613a70575083613a49846024614b88565b81518110613a5957613a59614cc3565b6020910101516001600160f81b031916606360f81b145b8015613aaa575083613a83846025614b88565b81518110613a9357613a93614cc3565b6020910101516001600160f81b031916607560f81b145b8015613ae4575083613abd846026614b88565b81518110613acd57613acd614cc3565b6020910101516001600160f81b031916605560f91b145b8015613b1e575083613af7846027614b88565b81518110613b0757613b07614cc3565b6020910101516001600160f81b031916600160fd1b145b8015613b58575083613b31846048614b88565b81518110613b4157613b41614cc3565b6020910101516001600160f81b031916601160fb1b145b8015613b92575083613b6b846049614b88565b81518110613b7b57613b7b614cc3565b6020910101516001600160f81b031916606760f81b145b8015613bcc575083613ba584604a614b88565b81518110613bb557613bb5614cc3565b6020910101516001600160f81b031916602160f81b145b8015613c06575083613bdf84606c614b88565b81518110613bef57613bef614cc3565b6020910101516001600160f81b03191660ad60f81b145b8015613c40575083613c1984606d614b88565b81518110613c2957613c29614cc3565b6020910101516001600160f81b031916602960f91b145b8015613c7a575083613c5384606e614b88565b81518110613c6357613c63614cc3565b6020910101516001600160f81b031916605960f91b145b8015613cb4575083613c8d84606f614b88565b81518110613c9d57613c9d614cc3565b6020910101516001600160f81b031916607560f81b145b8015613cee575083613cc7846070614b88565b81518110613cd757613cd7614cc3565b6020910101516001600160f81b031916600d60fb1b145b80156131f6575083613d01846071614b88565b81518110613d1157613d11614cc3565b6020910101516001600160f81b031916605160f81b14949350505050565b6000816019148015613d655750838381518110613d4e57613d4e614cc3565b6020910101516001600160f81b031916603b60f91b145b8015613d9f575083613d78846001614b88565b81518110613d8857613d88614cc3565b6020910101516001600160f81b03191660a960f81b145b8015613dd9575083613db2846002614b88565b81518110613dc257613dc2614cc3565b6020910101516001600160f81b031916600560fa1b145b8015613e13575083613dec846017614b88565b81518110613dfc57613dfc614cc3565b6020910101516001600160f81b031916601160fb1b145b80156131f6575083613e26846018614b88565b81518110613e3657613e36614cc3565b6020910101516001600160f81b031916602b60fa1b14949350505050565b6000816017148015613e94575083613e6d846000614b88565b81518110613e7d57613e7d614cc3565b6020910101516001600160f81b03191660a960f81b145b8015613ece575083613ea7846001614b88565b81518110613eb757613eb7614cc3565b6020910101516001600160f81b031916600560fa1b145b80156131f6575083613ee1846016614b88565b81518110613ef157613ef1614cc3565b6020910101516001600160f81b031916608760f81b14949350505050565b6000816022148015613f4f575083613f28846000614b88565b81518110613f3857613f38614cc3565b6020910101516001600160f81b031916603560f91b145b80156131f6575083613f62846001614b88565b81518110613f7257613f72614cc3565b6020910101516001600160f81b031916600160fd1b14949350505050565b80516000908290613fa45750600092915050565b50506020015190565b60606001600160ff1b038211156140065760405162461bcd60e51b815260206004820152601760248201527f56616c75652065786365656473207468652072616e67650000000000000000006044820152606401610738565b60405190506020815281602082015260408101604052919050565b600082158015906140325750818314155b801561403d57508115155b61407a5760405162461bcd60e51b815260206004820152600e60248201526d24b73b30b634b210373ab6b132b960911b6044820152606401610738565b6000600183825b86156140e25761409187836152a1565b90508286806140a2576140a2615154565b87806140b0576140b0615154565b8584096140bd9089614c22565b86089094509250866140cf8183614bd5565b6140d99084614c22565b97509150614081565b509195945050505050565b6000826140fc57506000612194565b8161410957506001612194565b6001600160ff1b5b8015613164576401000003d0198185161515860a6401000003d0198485090991506401000003d0196002820485161515860a6401000003d0198485090991506401000003d0196004820485161515860a6401000003d0198485090991506401000003d0196008820485161515860a6401000003d01984850909915060109004614111565b60008080866141ab575084915083905082614204565b8660008060015b83156141fb5760018416156141d7576141cf8383838d8d8d614286565b919450925090505b6141e26002856152a1565b93506141ef8a8a8a61451b565b919b50995097506141b2565b91955093509150505b9450945094915050565b6000806000806000878b1415614252576401000003d019878b0861423b576000809450945050505061427b565b6142468b8b8b61451b565b91945092509050614268565b6142608b8b8b8b8b8b614286565b919450925090505b61427383838361461f565b945094505050505b965096945050505050565b6000808088158015614296575087155b156142a857508491508390508261450f565b851580156142b4575084155b156142c657508791508690508561450f565b6142ce6147de565b6401000003d0198889098082526401000003d01990890960208201526401000003d019858009604082018190526401000003d0199086096060820152604080516080810182529082015181906401000003d019908d0981526020016401000003d01983600360200201518c0981526020016401000003d01983600060200201518a0981526020016401000003d0198360016020020151890990526040810151815191925014158061438757506060810151602082015114155b6143d35760405162461bcd60e51b815260206004820152601e60248201527f557365206a6163446f75626c652066756e6374696f6e20696e737465616400006044820152606401610738565b6143db6147de565b81516401000003d019906143ef9082614c22565b604084015108815260208201516401000003d0199061440e9082614c22565b606084015108602082015280516401000003d0199080096040820181905281516401000003d0199109606082018190526000906401000003d019906144539082614c22565b60208401516401000003d01990800908604083015184519192506401000003d01991829182910960020961448d906401000003d019614c22565b8208905060006401000003d019806144ab846401000003d019614c22565b604086015187516401000003d0199190090860208501510990506401000003d0198084600360200201518660016020020151096144ee906401000003d019614c22565b8208905060006401000003d019808a8e098551099297509095509093505050505b96509650969350505050565b6000808083614531575084915083905082612e58565b60006401000003d019878809905060006401000003d019878809905060006401000003d019878809905060006401000003d01980848c09600409905060006401000003d019806401000003d0198586096000096401000003d019876003090890506401000003d019808384086145ad906401000003d019614c22565b6401000003d0198384090894506401000003d019806401000003d0198687096008096145df906401000003d019614c22565b6401000003d019806145f7896401000003d019614c22565b860884090893506401000003d019808a8c09600209949b939a50939850919650505050505050565b6000806000614634846401000003d019614021565b905060006401000003d019828309905060006401000003d019828909905060006401000003d0198084860989099199919850909650505050505050565b60405180604001604052806002905b6040805160808101825260008082526020808301829052928201819052606082015282526000199092019101816146805790505090565b60405180604001604052806002905b60408051808201909152600080825260208201528152602001906001900390816146c65790505090565b60405180604001604052806002905b6147266040518060600160405280600060ff16815260200160608152602001606081525090565b8152602001906001900390816146ff5790505090565b60405180604001604052806002906020820280368337509192915050565b82805461476690614df0565b90600052602060002090601f01602090048101928261478857600085556147ce565b82601f106147a157805160ff19168380011785556147ce565b828001600101855582156147ce579182015b828111156147ce5782518255916020019190600101906147b3565b506147da9291506147fc565b5090565b60405180608001604052806004906020820280368337509192915050565b5b808211156147da57600081556001016147fd565b634e487b7160e01b600052604160045260246000fd5b60006001600160401b038084111561484157614841614811565b604051601f8501601f19908116603f0116810190828211818310171561486957614869614811565b8160405280935085815286868601111561488257600080fd5b858560208301376000602087830101525050509392505050565b6000602082840312156148ae57600080fd5b81356001600160401b038111156148c457600080fd5b8201601f810184136148d557600080fd5b6131f684823560208401614827565b600082601f8301126148f557600080fd5b61295c83833560208501614827565b6000806040838503121561491757600080fd5b82356001600160401b038082111561492e57600080fd5b61493a868387016148e4565b9350602085013591508082111561495057600080fd5b5061495d858286016148e4565b9150509250929050565b60006020828403121561497957600080fd5b81356001600160401b0381111561498f57600080fd5b6131f6848285016148e4565b60005b838110156149b657818101518382015260200161499e565b838111156107eb5750506000910152565b600081518084526149df81602086016020860161499b565b601f01601f19169290920160200192915050565b60006101008a8352806020840152614a0d8184018b6149c7565b6001600160e01b03198a16604085015283810360608501529050614a3181896149c7565b90508281036080840152614a4581886149c7565b905082810360a0840152614a5981876149c7565b60c0840195909552505060e001529695505050505050565b80356001600160e01b031981168114614a8957600080fd5b919050565b60008060008060008060008060006101208a8c031215614aad57600080fd5b8935985060208a01356001600160401b0380821115614acb57600080fd5b614ad78d838e016148e4565b9950614ae560408d01614a71565b985060608c0135915080821115614afb57600080fd5b614b078d838e016148e4565b975060808c0135915080821115614b1d57600080fd5b614b298d838e016148e4565b965060a08c0135915080821115614b3f57600080fd5b50614b4c8c828d016148e4565b94505060c08a0135925060e08a013591506101008a013590509295985092959850929598565b634e487b7160e01b600052601160045260246000fd5b60008219821115614b9b57614b9b614b72565b500190565b60008251614bb281846020870161499b565b9190910192915050565b600060208284031215614bce57600080fd5b5051919050565b6000816000190483118215151615614bef57614bef614b72565b500290565b6020808252601490820152732330b4b632b2103a379039b2b7321022ba3432b960611b604082015260600190565b600082821015614c3457614c34614b72565b500390565b60208082526025908201527f436f6d6d69746d656e74207472616e73616374696f6e206f662050206973206c6040820152641bd8dad95960da1b606082015260800190565b60208082526025908201527f436f6d6d69746d656e74207472616e73616374696f6e206f662056206973206c6040820152641bd8dad95960da1b606082015260800190565b634e487b7160e01b600052603260045260246000fd5b6020808252603f908201527f50277320636f6d6d69746d656e74207472616e73616374696f6e20646f65732060408201527f6e6f742068617264636f646520562773207265766f636174696f6e206b657900606082015260800190565b6020808252603a908201527f416d6f756e74206d69736d61746368206265747765656e207032706b68206f6660408201527f205020616e64206c696768746e696e672048544c43206f662056000000000000606082015260800190565b6020808252603a908201527f416d6f756e74206d69736d61746368206265747765656e207032706b68206f6660408201527f205620616e64206c696768746e696e672048544c43206f662050000000000000606082015260800190565b600181811c90821680614e0457607f821691505b60208210811415614e2557634e487b7160e01b600052602260045260246000fd5b50919050565b6001600160601b031991909116815260140190565b60208082526054908201527f546865207032706b6820696e2056277320756e6c6f636b656420636f6d6d697460408201527f6d656e74207472616e73616374696f6e20646f6573206e6f7420636f72726573606082015273706f6e6420746f2050726f7665722773206f6e6560601b608082015260a00190565b60208082526041908201527f50277320636f6d6d69746d656e74207472616e73616374696f6e20646f65732060408201527f6e6f74207370656e64207468652066756e64696e67207472616e73616374696f6060820152603760f91b608082015260a00190565b60208082526041908201527f56277320636f6d6d69746d656e74207472616e73616374696f6e20646f65732060408201527f6e6f74207370656e64207468652066756e64696e67207472616e73616374696f6060820152603760f91b608082015260a00190565b600080835481600182811c915080831680614fa457607f831692505b6020808410821415614fc457634e487b7160e01b86526022600452602486fd5b818015614fd85760018114614fe957615016565b60ff19861689528489019650615016565b60008a81526020902060005b8681101561500e5781548b820152908501908301614ff5565b505084890196505b509498975050505050505050565b60208082526037908201527f496e76616c6964207369676e6174757265206f662056206f76657220636f6d6d60408201527f69746d656e74207472616e73616374696f6e206f662050000000000000000000606082015260800190565b60208082526037908201527f496e76616c6964207369676e6174757265206f662050206f76657220636f6d6d60408201527f69746d656e74207472616e73616374696f6e206f662056000000000000000000606082015260800190565b805160208201516001600160e01b0319808216929190600483101561510d5780818460040360031b1b83161693505b505050919050565b600060001982141561512957615129614b72565b5060010190565b80516020808301519190811015614e255760001960209190910360031b1b16919050565b634e487b7160e01b600052601260045260246000fd5b60008261517957615179615154565b500690565b60008551615190818460208a0161499b565b8551908301906151a4818360208a0161499b565b85519101906151b781836020890161499b565b84519101906151ca81836020880161499b565b019695505050505050565b600060ff821660ff8416808210156151ef576151ef614b72565b90039392505050565b60006001600160a01b038381169083168181101561521857615218614b72565b039392505050565b60006001600160a01b038281168482168115158284048211161561524657615246614b72565b02949350505050565b60006001600160a01b0382811684821680830382111561527157615271614b72565b01949350505050565b60006001600160a01b038281168082141561529757615297614b72565b6001019392505050565b6000826152b0576152b0615154565b500490565b600061ffff8083168185168183048111821515161561524657615246614b72565b600063ffffffff8083168185168183048111821515161561524657615246614b72565b60006001600160401b038083168185168183048111821515161561524657615246614b7256fe7cb76fce4caeb1fe1b0dd56de53b408af770b76cf5e9c88a1e2568a7d1e9889fa2646970667358221220805929c1d80fd84f4b30f137fd84c3ba1d19a95fa21e617c745e59968794477864736f6c63430008090033",
  "linkReferences": {},
  "deployedLinkReferences": {}
}