{
  "_format": "hh-sol-artifact-1",
  "contractName": "LNBridge",
  "sourceName": "contracts/LNBridge.sol",
  "abi": [
    {
      "inputs": [],
      "name": "bridge",
      "outputs": [
        {
          "internalType": "bytes32",
          "name": "fundingTxId",
          "type": "bytes32"
        },
        {
          "internalType": "bytes32",
          "name": "pkProver",
          "type": "bytes32"
        },
        {
          "internalType": "bytes32",
          "name": "pkVerifier",
          "type": "bytes32"
        },
        {
          "internalType": "uint256",
          "name": "index",
          "type": "uint256"
        },
        {
          "internalType": "uint256",
          "name": "timelock",
          "type": "uint256"
        },
        {
          "internalType": "uint256",
          "name": "timelock_dispute",
          "type": "uint256"
        }
      ],
      "stateMutability": "view",
      "type": "function"
    },
    {
      "inputs": [
        {
          "internalType": "bytes",
          "name": "rawTxP_locked",
          "type": "bytes"
        },
        {
          "internalType": "bytes",
          "name": "sigV",
          "type": "bytes"
        },
        {
          "internalType": "bytes",
          "name": "rawTxV_unlocked",
          "type": "bytes"
        },
        {
          "internalType": "bytes",
          "name": "sigP",
          "type": "bytes"
        }
      ],
      "name": "dispute",
      "outputs": [],
      "stateMutability": "nonpayable",
      "type": "function"
    },
    {
      "inputs": [
        {
          "internalType": "bytes",
          "name": "_txBytes",
          "type": "bytes"
        }
      ],
      "name": "getInputsData",
      "outputs": [
        {
          "components": [
            {
              "internalType": "uint256",
              "name": "number_of_inputs",
              "type": "uint256"
            },
            {
              "internalType": "bytes32",
              "name": "txid",
              "type": "bytes32"
            },
            {
              "internalType": "bytes4",
              "name": "inputIndex",
              "type": "bytes4"
            }
          ],
          "internalType": "struct LNBridge.Input",
          "name": "",
          "type": "tuple"
        }
      ],
      "stateMutability": "view",
      "type": "function"
    },
    {
      "inputs": [
        {
          "internalType": "bytes",
          "name": "_txBytes",
          "type": "bytes"
        }
      ],
      "name": "getOutputsData",
      "outputs": [
        {
          "components": [
            {
              "internalType": "uint256",
              "name": "value",
              "type": "uint256"
            },
            {
              "internalType": "bytes32",
              "name": "pk1",
              "type": "bytes32"
            },
            {
              "internalType": "bytes32",
              "name": "pk2",
              "type": "bytes32"
            },
            {
              "internalType": "bytes32",
              "name": "rev_secret",
              "type": "bytes32"
            }
          ],
          "internalType": "struct LNBridge.LightningHTLCData",
          "name": "",
          "type": "tuple"
        },
        {
          "components": [
            {
              "internalType": "uint256",
              "name": "value",
              "type": "uint256"
            },
            {
              "internalType": "bytes20",
              "name": "pkhash",
              "type": "bytes20"
            }
          ],
          "internalType": "struct LNBridge.P2PKHData",
          "name": "",
          "type": "tuple"
        },
        {
          "components": [
            {
              "internalType": "uint256",
              "name": "value",
              "type": "uint256"
            },
            {
              "internalType": "bytes32",
              "name": "data",
              "type": "bytes32"
            }
          ],
          "internalType": "struct LNBridge.OpReturnData",
          "name": "",
          "type": "tuple"
        }
      ],
      "stateMutability": "view",
      "type": "function"
    },
    {
      "inputs": [
        {
          "internalType": "bytes",
          "name": "_txBytes",
          "type": "bytes"
        }
      ],
      "name": "getSignatures",
      "outputs": [
        {
          "components": [
            {
              "internalType": "uint8",
              "name": "v",
              "type": "uint8"
            },
            {
              "internalType": "bytes32",
              "name": "r",
              "type": "bytes32"
            },
            {
              "internalType": "bytes32",
              "name": "s",
              "type": "bytes32"
            }
          ],
          "internalType": "struct LNBridge.Signature[]",
          "name": "",
          "type": "tuple[]"
        }
      ],
      "stateMutability": "nonpayable",
      "type": "function"
    },
    {
      "inputs": [
        {
          "internalType": "bytes",
          "name": "_txBytes",
          "type": "bytes"
        }
      ],
      "name": "getTimelock",
      "outputs": [
        {
          "internalType": "bytes4",
          "name": "",
          "type": "bytes4"
        }
      ],
      "stateMutability": "view",
      "type": "function"
    },
    {
      "inputs": [
        {
          "internalType": "bytes",
          "name": "oldRevSecret",
          "type": "bytes"
        },
        {
          "internalType": "bytes",
          "name": "rawTxP_unlocked",
          "type": "bytes"
        },
        {
          "internalType": "bytes",
          "name": "sigV",
          "type": "bytes"
        }
      ],
      "name": "resolveDispute",
      "outputs": [],
      "stateMutability": "nonpayable",
      "type": "function"
    },
    {
      "inputs": [],
      "name": "settle",
      "outputs": [],
      "stateMutability": "nonpayable",
      "type": "function"
    },
    {
      "inputs": [
        {
          "internalType": "bytes32",
          "name": "_fundingTxId",
          "type": "bytes32"
        },
        {
          "internalType": "bytes32",
          "name": "_pkProver",
          "type": "bytes32"
        },
        {
          "internalType": "bytes32",
          "name": "_pkVerifier",
          "type": "bytes32"
        },
        {
          "internalType": "uint256",
          "name": "_index",
          "type": "uint256"
        },
        {
          "internalType": "uint256",
          "name": "_timelock",
          "type": "uint256"
        }
      ],
      "name": "setup",
      "outputs": [],
      "stateMutability": "nonpayable",
      "type": "function"
    },
    {
      "inputs": [
        {
          "internalType": "bytes",
          "name": "rawTxP_unlocked",
          "type": "bytes"
        },
        {
          "internalType": "bytes",
          "name": "sigV",
          "type": "bytes"
        },
        {
          "internalType": "bytes",
          "name": "rawTxV_unlocked",
          "type": "bytes"
        },
        {
          "internalType": "bytes",
          "name": "sigP",
          "type": "bytes"
        }
      ],
      "name": "submitProof",
      "outputs": [],
      "stateMutability": "nonpayable",
      "type": "function"
    },
    {
      "inputs": [
        {
          "internalType": "bytes",
          "name": "pk",
          "type": "bytes"
        },
        {
          "internalType": "bytes",
          "name": "message",
          "type": "bytes"
        },
        {
          "internalType": "uint8",
          "name": "_v",
          "type": "uint8"
        },
        {
          "internalType": "bytes32",
          "name": "_r",
          "type": "bytes32"
        },
        {
          "internalType": "bytes32",
          "name": "_s",
          "type": "bytes32"
        }
      ],
      "name": "verifySignature",
      "outputs": [
        {
          "internalType": "bool",
          "name": "",
          "type": "bool"
        }
      ],
      "stateMutability": "nonpayable",
      "type": "function"
    }
  ],
  "bytecode": "0x608060405234801561001057600080fd5b506139ea806100206000396000f3fe608060405234801561001057600080fd5b50600436106100a95760003560e01c8063497c6cf611610071578063497c6cf61461013c5780634f500ea91461016e578063604877a01461019e5780636b45b4e3146101ce57806379a85bd9146101fe578063e78cea921461021a576100a9565b806306ac0e26146100ae57806311da60b4146100ca57806336946480146100d45780633740d2491461010457806343f104d214610120575b600080fd5b6100c860048036038101906100c39190612700565b61023d565b005b6100d2610275565b005b6100ee60048036038101906100e991906128c1565b610277565b6040516100fb9190612945565b60405180910390f35b61011e60048036038101906101199190612960565b6102ad565b005b61013a60048036038101906101359190612960565b6102b3565b005b610156600480360381019061015191906128c1565b6102b9565b60405161016593929190612b43565b60405180910390f35b610188600480360381019061018391906128c1565b610560565b6040516101959190612bcc565b60405180910390f35b6101b860048036038101906101b39190612c20565b61065b565b6040516101c59190612cee565b60405180910390f35b6101e860048036038101906101e391906128c1565b61070e565b6040516101f59190612e09565b60405180910390f35b61021860048036038101906102139190612e2b565b61071a565b005b61022261071f565b60405161023496959493929190612ef0565b60405180910390f35b846000800181905550836000600101819055508260006002018190555081600060030181905550806000600401819055505050505050565b565b600080825190506000610298846005846102919190612f80565b6004610749565b6102a190612ff1565b90508092505050919050565b50505050565b50505050565b6102c161258d565b6102c96125be565b6102d16125e7565b6102d961258d565b6102e16125e7565b6102e96125be565b6102f1612604565b600481600001818152505061030c8882600001516000610867565b826020018360000182815250829052505061032d8882600001516000610979565b84608001856060018660400187600001848152508490528490528490525050505060005b600381101561054b57600081036103ed576103a9898360600151838151811061037d5761037c613058565b5b60200260200101518460400151848151811061039c5761039b613058565b5b6020026020010151610b70565b876020018860600189604001838152508381525083815250505050816080015181815181106103db576103da613058565b5b60200260200101518560000181815250505b600181036104b75761046561043f8a8460600151848151811061041357610412613058565b5b60200260200101518560400151858151811061043257610431613058565b5b6020026020010151610c2c565b60405160200161044f91906130a8565b6040516020818303038152906040526000610e06565b83602001906bffffffffffffffffffffffff191690816bffffffffffffffffffffffff191681525050816080015181815181106104a5576104a4613058565b5b60200260200101518360000181815250505b600281036105385761050689836060015183815181106104da576104d9613058565b5b6020026020010151846040015184815181106104f9576104f8613058565b5b6020026020010151610c2c565b8460200181815250508160800151818151811061052657610525613058565b5b60200260200101518460000181815250505b8080610543906130c3565b915050610351565b50838284965096509650505050509193909250565b610568612633565b610570612633565b61057b836004610ee9565b508160000181815250506105928360256004610749565b61059b90612ff1565b81604001907bffffffffffffffffffffffffffffffffffffffffffffffffffffffff191690817bffffffffffffffffffffffffffffffffffffffffffffffffffffffff1916815250506106026105f48460056025610749565b6105fd90613120565b610fd1565b8160200181815250506001816000015114610652576040517f08c379a0000000000000000000000000000000000000000000000000000000008152600401610649906131e4565b60405180910390fd5b80915050919050565b600080610667866110cf565b905060006106788883888888611195565b90506106b96040518060400160405280601481526020017f4973207369676e61747572652076616c69643f20000000000000000000000000815250826112f5565b6001151581151514610700576040517f08c379a00000000000000000000000000000000000000000000000000000000081526004016106f790613250565b60405180910390fd5b809250505095945050505050565b60608080915050919050565b505050565b60008060000154908060010154908060020154908060030154908060040154908060050154905086565b606081601f836107599190613270565b101561079a576040517f08c379a0000000000000000000000000000000000000000000000000000000008152600401610791906132f0565b60405180910390fd5b81836107a69190613270565b845110156107e9576040517f08c379a00000000000000000000000000000000000000000000000000000000081526004016107e09061335c565b60405180910390fd5b606082156000811461080a576040519150600082526020820160405261085b565b6040519150601f8416801560200281840101858101878315602002848b0101015b81831015610848578051835260208301925060208101905061082b565b50868552601f19601f8301166040525050505b50809150509392505050565b60606000806000806108798888610ee9565b8098508194505050600086148061088f57508286115b1561089c578291506108a0565b8591505b60008267ffffffffffffffff8111156108bc576108bb612796565b5b6040519080825280602002602001820160405280156108ea5781602001602082028036833780820191505090505b50905060005b83811015610966576024896109059190613270565b98506109118a8a610ee9565b809a5081945050508282828151811061092d5761092c613058565b5b6020026020010181815250506004836109469190613270565b896109519190613270565b9850808061095e906130c3565b9150506108f0565b5080889550955050505050935093915050565b606080606060008060008061098e8a8a610ee9565b809a50819450505060008814806109a457508288115b156109b1578291506109b5565b8791505b60008267ffffffffffffffff8111156109d1576109d0612796565b5b6040519080825280602002602001820160405280156109ff5781602001602082028036833780820191505090505b50905060008367ffffffffffffffff811115610a1e57610a1d612796565b5b604051908082528060200260200182016040528015610a4c5781602001602082028036833780820191505090505b50905060008467ffffffffffffffff811115610a6b57610a6a612796565b5b604051908082528060200260200182016040528015610a995781602001602082028036833780820191505090505b50905060005b85811015610b5457610ab38e8e6040611391565b828281518110610ac657610ac5613058565b5b60200260200101818152505060088d610adf9190613270565b9c50610aeb8e8e610ee9565b809e5081965050508c848281518110610b0757610b06613058565b5b60200260200101818152505084838281518110610b2757610b26613058565b5b602002602001018181525050848d610b3f9190613270565b9c508080610b4c906130c3565b915050610a9f565b508083838e995099509950995050505050505093509350935093565b6000806000610b808686866117fc565b15610c1057610bc36040518060400160405280601b81526020017f506172736564204c696768746e696e6748544c43206f75747075740000000000815250611dab565b610bd986600387610bd49190613270565b611e44565b610bef87602888610bea9190613270565b611e44565b610c0588604c89610c009190613270565b611e44565b925092509250610c23565b6000801b6000801b6000801b9250925092505b93509350939050565b6000610c39848484611ecf565b15610ca857610c7c6040518060400160405280601381526020017f506172736564205032504b48206f757470757400000000000000000000000000815250611dab565b610c9284600385610c8d9190613270565b610e06565b6bffffffffffffffffffffffff19169050610dff565b610cb3848484612094565b15610d2257610cf66040518060400160405280601281526020017f5061727365642050325348206f75747075740000000000000000000000000000815250611dab565b610d0c84600285610d079190613270565b610e06565b6bffffffffffffffffffffffff19169050610dff565b610d2d8484846121b1565b15610d8d57610d706040518060400160405280601781526020017f506172736564204f505f52455455524e206f7574707574000000000000000000815250611dab565b610d8684600285610d819190613270565b611e44565b9050610dff565b610d988484846117fc565b15610df857610ddb6040518060400160405280601b81526020017f506172736564204c696768746e696e6748544c43206f75747075740000000000815250611dab565b610df184600285610dec9190613270565b611e44565b9050610dff565b6000801b90505b9392505050565b6000806000905060005b60148173ffffffffffffffffffffffffffffffffffffffff161015610edb57806013610e3c919061339c565b6008610e4891906133e4565b73ffffffffffffffffffffffffffffffffffffffff1685858373ffffffffffffffffffffffffffffffffffffffff16610e819190613270565b81518110610e9257610e91613058565b5b602001015160f81c60f81b60f81c60ff1673ffffffffffffffffffffffffffffffffffffffff16901b82610ec69190613426565b91508080610ed39061346e565b915050610e10565b508060601b91505092915050565b6000806000848481518110610f0157610f00613058565b5b602001015160f81c60f81b60f81c9050600184610f1e9190613270565b935060fd8160ff161015610f3e5780848160ff1691509250925050610fca565b60fd8160ff1603610f6c57610f5585856010611391565b600285610f629190613270565b9250925050610fca565b60fe8160ff1603610f9a57610f8385856020611391565b600485610f909190613270565b9250925050610fca565b60ff8160ff1603610fc857610fb185856040611391565b600885610fbe9190613270565b9250925050610fca565b505b9250929050565b600080602060ff1667ffffffffffffffff811115610ff257610ff1612796565b5b6040519080825280601f01601f1916602001820160405280156110245781602001600182028036833780820191505090505b50905060005b602060ff168110156110bd5783816020811061104957611048613058565b5b1a60f81b82600183602060ff166110609190612f80565b61106a9190612f80565b8151811061107b5761107a613058565b5b60200101907effffffffffffffffffffffffffffffffffffffffffffffffffffffffffffff1916908160001a90535080806110b5906130c3565b91505061102a565b506110c781612274565b915050919050565b6000600280836040516110e29190613510565b602060405180830381855afa1580156110ff573d6000803e3d6000fd5b5050506040513d601f19601f82011682018060405250810190611122919061353c565b60405160200161113291906130a8565b60405160208183030381529060405260405161114e9190613510565b602060405180830381855afa15801561116b573d6000803e3d6000fd5b5050506040513d601f19601f8201168201806040525081019061118e919061353c565b9050919050565b600060408651146111db576040517f08c379a00000000000000000000000000000000000000000000000000000000081526004016111d290613601565b60405180910390fd5b60006111e68761229d565b90506112276040518060400160405280601181526020017f457870656374656420616464726573733a00000000000000000000000000000081525082612315565b60006001878787876040516000815260200160405260405161124c9493929190613630565b6020604051602081039080840390855afa15801561126e573d6000803e3d6000fd5b5050506020604051035190506112b96040518060400160405280601181526020017f41637475616c20616464726573733a202000000000000000000000000000000081525082612315565b8173ffffffffffffffffffffffffffffffffffffffff168173ffffffffffffffffffffffffffffffffffffffff16149250505095945050505050565b61138d828260405160240161130b9291906136b9565b6040516020818303038152906040527fc3b55635000000000000000000000000000000000000000000000000000000007bffffffffffffffffffffffffffffffffffffffffffffffffffffffff19166020820180517bffffffffffffffffffffffffffffffffffffffffffffffffffffffff83818316178352505050506123b1565b5050565b6000600882036113c6578383815181106113ae576113ad613058565b5b602001015160f81c60f81b60f81c60ff1690506117f5565b6010820361144857610100846001856113df9190613270565b815181106113f0576113ef613058565b5b602001015160f81c60f81b60f81c60ff1661140b91906136f7565b61ffff1684848151811061142257611421613058565b5b602001015160f81c60f81b60f81c60ff1661ffff166114419190613270565b90506117f5565b6020820361156b576301000000846003856114639190613270565b8151811061147457611473613058565b5b602001015160f81c60f81b60f81c60ff1661148f9190613744565b63ffffffff1662010000856002866114a79190613270565b815181106114b8576114b7613058565b5b602001015160f81c60f81b60f81c60ff166114d39190613744565b63ffffffff16610100866001876114ea9190613270565b815181106114fb576114fa613058565b5b602001015160f81c60f81b60f81c60ff166115169190613744565b63ffffffff1686868151811061152f5761152e613058565b5b602001015160f81c60f81b60f81c60ff1663ffffffff166115509190613270565b61155a9190613270565b6115649190613270565b90506117f5565b604082036117f4576701000000000000008460078561158a9190613270565b8151811061159b5761159a613058565b5b602001015160f81c60f81b60f81c60ff166115b69190613795565b67ffffffffffffffff166601000000000000856006866115d69190613270565b815181106115e7576115e6613058565b5b602001015160f81c60f81b60f81c60ff166116029190613795565b67ffffffffffffffff1665010000000000866005876116219190613270565b8151811061163257611631613058565b5b602001015160f81c60f81b60f81c60ff1661164d9190613795565b67ffffffffffffffff166401000000008760048861166b9190613270565b8151811061167c5761167b613058565b5b602001015160f81c60f81b60f81c60ff166116979190613795565b67ffffffffffffffff166301000000886003896116b49190613270565b815181106116c5576116c4613058565b5b602001015160f81c60f81b60f81c60ff166116e09190613795565b67ffffffffffffffff16620100008960028a6116fc9190613270565b8151811061170d5761170c613058565b5b602001015160f81c60f81b60f81c60ff166117289190613795565b67ffffffffffffffff166101008a60018b6117439190613270565b8151811061175457611753613058565b5b602001015160f81c60f81b60f81c60ff1661176f9190613795565b67ffffffffffffffff168a8a8151811061178c5761178b613058565b5b602001015160f81c60f81b60f81c60ff1667ffffffffffffffff166117b19190613270565b6117bb9190613270565b6117c59190613270565b6117cf9190613270565b6117d99190613270565b6117e39190613270565b6117ed9190613270565b90506117f5565b5b9392505050565b600060728214801561185c5750607660f81b8460008561181c9190613270565b8151811061182d5761182c613058565b5b602001015160f81c60f81b7effffffffffffffffffffffffffffffffffffffffffffffffffffffffffffff1916145b80156118b65750602160f81b846001856118769190613270565b8151811061188757611886613058565b5b602001015160f81c60f81b7effffffffffffffffffffffffffffffffffffffffffffffffffffffffffffff1916145b8015611910575060ac60f81b846023856118d09190613270565b815181106118e1576118e0613058565b5b602001015160f81c60f81b7effffffffffffffffffffffffffffffffffffffffffffffffffffffffffffff1916145b801561196a5750606360f81b8460248561192a9190613270565b8151811061193b5761193a613058565b5b602001015160f81c60f81b7effffffffffffffffffffffffffffffffffffffffffffffffffffffffffffff1916145b80156119c45750607560f81b846025856119849190613270565b8151811061199557611994613058565b5b602001015160f81c60f81b7effffffffffffffffffffffffffffffffffffffffffffffffffffffffffffff1916145b8015611a1e575060aa60f81b846026856119de9190613270565b815181106119ef576119ee613058565b5b602001015160f81c60f81b7effffffffffffffffffffffffffffffffffffffffffffffffffffffffffffff1916145b8015611a785750602060f81b84602785611a389190613270565b81518110611a4957611a48613058565b5b602001015160f81c60f81b7effffffffffffffffffffffffffffffffffffffffffffffffffffffffffffff1916145b8015611ad25750608860f81b84604885611a929190613270565b81518110611aa357611aa2613058565b5b602001015160f81c60f81b7effffffffffffffffffffffffffffffffffffffffffffffffffffffffffffff1916145b8015611b2c5750606760f81b84604985611aec9190613270565b81518110611afd57611afc613058565b5b602001015160f81c60f81b7effffffffffffffffffffffffffffffffffffffffffffffffffffffffffffff1916145b8015611b865750602160f81b84604a85611b469190613270565b81518110611b5757611b56613058565b5b602001015160f81c60f81b7effffffffffffffffffffffffffffffffffffffffffffffffffffffffffffff1916145b8015611be0575060ad60f81b84606c85611ba09190613270565b81518110611bb157611bb0613058565b5b602001015160f81c60f81b7effffffffffffffffffffffffffffffffffffffffffffffffffffffffffffff1916145b8015611c3a5750605260f81b84606d85611bfa9190613270565b81518110611c0b57611c0a613058565b5b602001015160f81c60f81b7effffffffffffffffffffffffffffffffffffffffffffffffffffffffffffff1916145b8015611c94575060b260f81b84606e85611c549190613270565b81518110611c6557611c64613058565b5b602001015160f81c60f81b7effffffffffffffffffffffffffffffffffffffffffffffffffffffffffffff1916145b8015611cee5750607560f81b84606f85611cae9190613270565b81518110611cbf57611cbe613058565b5b602001015160f81c60f81b7effffffffffffffffffffffffffffffffffffffffffffffffffffffffffffff1916145b8015611d485750606860f81b84607085611d089190613270565b81518110611d1957611d18613058565b5b602001015160f81c60f81b7effffffffffffffffffffffffffffffffffffffffffffffffffffffffffffff1916145b8015611da25750605160f81b84607185611d629190613270565b81518110611d7357611d72613058565b5b602001015160f81c60f81b7effffffffffffffffffffffffffffffffffffffffffffffffffffffffffffff1916145b90509392505050565b611e4181604051602401611dbf91906137d2565b6040516020818303038152906040527f41304fac000000000000000000000000000000000000000000000000000000007bffffffffffffffffffffffffffffffffffffffffffffffffffffffff19166020820180517bffffffffffffffffffffffffffffffffffffffffffffffffffffffff83818316178352505050506123b1565b50565b6000806000905060005b6020811015611ec15780601f611e649190612f80565b6008611e7091906137f4565b858583611e7d9190613270565b81518110611e8e57611e8d613058565b5b602001015160f81c60f81b60f81c60ff16901b82611eac9190613270565b91508080611eb9906130c3565b915050611e4e565b508060001b91505092915050565b6000601982148015611f235750607660f81b848481518110611ef457611ef3613058565b5b602001015160f81c60f81b7effffffffffffffffffffffffffffffffffffffffffffffffffffffffffffff1916145b8015611f7d575060a960f81b84600185611f3d9190613270565b81518110611f4e57611f4d613058565b5b602001015160f81c60f81b7effffffffffffffffffffffffffffffffffffffffffffffffffffffffffffff1916145b8015611fd75750601460f81b84600285611f979190613270565b81518110611fa857611fa7613058565b5b602001015160f81c60f81b7effffffffffffffffffffffffffffffffffffffffffffffffffffffffffffff1916145b80156120315750608860f81b84601785611ff19190613270565b8151811061200257612001613058565b5b602001015160f81c60f81b7effffffffffffffffffffffffffffffffffffffffffffffffffffffffffffff1916145b801561208b575060ac60f81b8460188561204b9190613270565b8151811061205c5761205b613058565b5b602001015160f81c60f81b7effffffffffffffffffffffffffffffffffffffffffffffffffffffffffffff1916145b90509392505050565b60006017821480156120f4575060a960f81b846000856120b49190613270565b815181106120c5576120c4613058565b5b602001015160f81c60f81b7effffffffffffffffffffffffffffffffffffffffffffffffffffffffffffff1916145b801561214e5750601460f81b8460018561210e9190613270565b8151811061211f5761211e613058565b5b602001015160f81c60f81b7effffffffffffffffffffffffffffffffffffffffffffffffffffffffffffff1916145b80156121a85750608760f81b846016856121689190613270565b8151811061217957612178613058565b5b602001015160f81c60f81b7effffffffffffffffffffffffffffffffffffffffffffffffffffffffffffff1916145b90509392505050565b60006022821480156122115750606a60f81b846000856121d19190613270565b815181106121e2576121e1613058565b5b602001015160f81c60f81b7effffffffffffffffffffffffffffffffffffffffffffffffffffffffffffff1916145b801561226b5750602060f81b8460018561222b9190613270565b8151811061223c5761223b613058565b5b602001015160f81c60f81b7effffffffffffffffffffffffffffffffffffffffffffffffffffffffffffff1916145b90509392505050565b600080829050600081510361228f576000801b915050612298565b60208301519150505b919050565b600060408251146122e3576040517f08c379a00000000000000000000000000000000000000000000000000000000081526004016122da906138a8565b60405180910390fd5b60006123076122fc6000856123cb90919063ffffffff16565b62ffffff19166123f6565b90508060001c915050919050565b6123ad828260405160240161232b9291906138e9565b6040516020818303038152906040527f319af333000000000000000000000000000000000000000000000000000000007bffffffffffffffffffffffffffffffffffffffffffffffffffffffff19166020820180517bffffffffffffffffffffffffffffffffffffffffffffffffffffffff83818316178352505050506123b1565b5050565b6123c8816123c061243961245a565b63ffffffff16565b50565b6000808351905060006020850190506123ec8464ffffffffff168284612465565b9250505092915050565b600080612402836124d3565b6bffffffffffffffffffffffff169050600061241d846124f3565b6bffffffffffffffffffffffff16905080822092505050919050565b60006a636f6e736f6c652e6c6f679050600080835160208501845afa505050565b612676819050919050565b60008061247b838561251390919063ffffffff16565b905060405181111561248c57600090505b600081036124bd577fffffffffffffffffffffffffffffffffffffffffffffffffffffffffff0000009150506124cc565b6124c885858561256c565b9150505b9392505050565b6000806bffffffffffffffffffffffff9050808360781c16915050919050565b6000806bffffffffffffffffffffffff9050808360181c16915050919050565b600081836125219190613270565b905082811015612566576040517f08c379a000000000000000000000000000000000000000000000000000000000815260040161255d90613965565b60405180910390fd5b92915050565b600083811760601b905082811760601b905081811760181b90509392505050565b6040518060800160405280600081526020016000801916815260200160008019168152602001600080191681525090565b60405180604001604052806000815260200160006bffffffffffffffffffffffff191681525090565b604051806040016040528060008152602001600080191681525090565b6040518060a0016040528060008152602001606081526020016060815260200160608152602001606081525090565b6040518060600160405280600081526020016000801916815260200160007bffffffffffffffffffffffffffffffffffffffffffffffffffffffff191681525090565b61267e613985565b565b6000604051905090565b600080fd5b600080fd5b6000819050919050565b6126a781612694565b81146126b257600080fd5b50565b6000813590506126c48161269e565b92915050565b6000819050919050565b6126dd816126ca565b81146126e857600080fd5b50565b6000813590506126fa816126d4565b92915050565b600080600080600060a0868803121561271c5761271b61268a565b5b600061272a888289016126b5565b955050602061273b888289016126b5565b945050604061274c888289016126b5565b935050606061275d888289016126eb565b925050608061276e888289016126eb565b9150509295509295909350565b600080fd5b600080fd5b6000601f19601f8301169050919050565b7f4e487b7100000000000000000000000000000000000000000000000000000000600052604160045260246000fd5b6127ce82612785565b810181811067ffffffffffffffff821117156127ed576127ec612796565b5b80604052505050565b6000612800612680565b905061280c82826127c5565b919050565b600067ffffffffffffffff82111561282c5761282b612796565b5b61283582612785565b9050602081019050919050565b82818337600083830152505050565b600061286461285f84612811565b6127f6565b9050828152602081018484840111156128805761287f612780565b5b61288b848285612842565b509392505050565b600082601f8301126128a8576128a761277b565b5b81356128b8848260208601612851565b91505092915050565b6000602082840312156128d7576128d661268a565b5b600082013567ffffffffffffffff8111156128f5576128f461268f565b5b61290184828501612893565b91505092915050565b60007fffffffff0000000000000000000000000000000000000000000000000000000082169050919050565b61293f8161290a565b82525050565b600060208201905061295a6000830184612936565b92915050565b6000806000806080858703121561297a5761297961268a565b5b600085013567ffffffffffffffff8111156129985761299761268f565b5b6129a487828801612893565b945050602085013567ffffffffffffffff8111156129c5576129c461268f565b5b6129d187828801612893565b935050604085013567ffffffffffffffff8111156129f2576129f161268f565b5b6129fe87828801612893565b925050606085013567ffffffffffffffff811115612a1f57612a1e61268f565b5b612a2b87828801612893565b91505092959194509250565b612a40816126ca565b82525050565b612a4f81612694565b82525050565b608082016000820151612a6b6000850182612a37565b506020820151612a7e6020850182612a46565b506040820151612a916040850182612a46565b506060820151612aa46060850182612a46565b50505050565b60007fffffffffffffffffffffffffffffffffffffffff00000000000000000000000082169050919050565b612adf81612aaa565b82525050565b604082016000820151612afb6000850182612a37565b506020820151612b0e6020850182612ad6565b50505050565b604082016000820151612b2a6000850182612a37565b506020820151612b3d6020850182612a46565b50505050565b600061010082019050612b596000830186612a55565b612b666080830185612ae5565b612b7360c0830184612b14565b949350505050565b612b848161290a565b82525050565b606082016000820151612ba06000850182612a37565b506020820151612bb36020850182612a46565b506040820151612bc66040850182612b7b565b50505050565b6000606082019050612be16000830184612b8a565b92915050565b600060ff82169050919050565b612bfd81612be7565b8114612c0857600080fd5b50565b600081359050612c1a81612bf4565b92915050565b600080600080600060a08688031215612c3c57612c3b61268a565b5b600086013567ffffffffffffffff811115612c5a57612c5961268f565b5b612c6688828901612893565b955050602086013567ffffffffffffffff811115612c8757612c8661268f565b5b612c9388828901612893565b9450506040612ca488828901612c0b565b9350506060612cb5888289016126b5565b9250506080612cc6888289016126b5565b9150509295509295909350565b60008115159050919050565b612ce881612cd3565b82525050565b6000602082019050612d036000830184612cdf565b92915050565b600081519050919050565b600082825260208201905092915050565b6000819050602082019050919050565b612d3e81612be7565b82525050565b606082016000820151612d5a6000850182612d35565b506020820151612d6d6020850182612a46565b506040820151612d806040850182612a46565b50505050565b6000612d928383612d44565b60608301905092915050565b6000602082019050919050565b6000612db682612d09565b612dc08185612d14565b9350612dcb83612d25565b8060005b83811015612dfc578151612de38882612d86565b9750612dee83612d9e565b925050600181019050612dcf565b5085935050505092915050565b60006020820190508181036000830152612e238184612dab565b905092915050565b600080600060608486031215612e4457612e4361268a565b5b600084013567ffffffffffffffff811115612e6257612e6161268f565b5b612e6e86828701612893565b935050602084013567ffffffffffffffff811115612e8f57612e8e61268f565b5b612e9b86828701612893565b925050604084013567ffffffffffffffff811115612ebc57612ebb61268f565b5b612ec886828701612893565b9150509250925092565b612edb81612694565b82525050565b612eea816126ca565b82525050565b600060c082019050612f056000830189612ed2565b612f126020830188612ed2565b612f1f6040830187612ed2565b612f2c6060830186612ee1565b612f396080830185612ee1565b612f4660a0830184612ee1565b979650505050505050565b7f4e487b7100000000000000000000000000000000000000000000000000000000600052601160045260246000fd5b6000612f8b826126ca565b9150612f96836126ca565b9250828203905081811115612fae57612fad612f51565b5b92915050565b600081519050919050565b6000819050602082019050919050565b6000612fdb825161290a565b80915050919050565b600082821b905092915050565b6000612ffc82612fb4565b8261300684612fbf565b905061301181612fcf565b925060048210156130515761304c7fffffffff0000000000000000000000000000000000000000000000000000000083600403600802612fe4565b831692505b5050919050565b7f4e487b7100000000000000000000000000000000000000000000000000000000600052603260045260246000fd5b6000819050919050565b6130a261309d82612694565b613087565b82525050565b60006130b48284613091565b60208201915081905092915050565b60006130ce826126ca565b91507fffffffffffffffffffffffffffffffffffffffffffffffffffffffffffffffff8203613100576130ff612f51565b5b600182019050919050565b60006131178251612694565b80915050919050565b600061312b82612fb4565b8261313584612fbf565b90506131408161310b565b925060208210156131805761317b7fffffffffffffffffffffffffffffffffffffffffffffffffffffffffffffffff83602003600802612fe4565b831692505b5050919050565b600082825260208201905092915050565b7f54782068617320746f6f206d616e7920696e7075747320283e31290000000000600082015250565b60006131ce601b83613187565b91506131d982613198565b602082019050919050565b600060208201905081810360008301526131fd816131c1565b9050919050565b7f496e76616c6964207369676e6174757265000000000000000000000000000000600082015250565b600061323a601183613187565b915061324582613204565b602082019050919050565b600060208201905081810360008301526132698161322d565b9050919050565b600061327b826126ca565b9150613286836126ca565b925082820190508082111561329e5761329d612f51565b5b92915050565b7f736c6963655f6f766572666c6f77000000000000000000000000000000000000600082015250565b60006132da600e83613187565b91506132e5826132a4565b602082019050919050565b60006020820190508181036000830152613309816132cd565b9050919050565b7f736c6963655f6f75744f66426f756e6473000000000000000000000000000000600082015250565b6000613346601183613187565b915061335182613310565b602082019050919050565b6000602082019050818103600083015261337581613339565b9050919050565b600073ffffffffffffffffffffffffffffffffffffffff82169050919050565b60006133a78261337c565b91506133b28361337c565b9250828203905073ffffffffffffffffffffffffffffffffffffffff8111156133de576133dd612f51565b5b92915050565b60006133ef8261337c565b91506133fa8361337c565b92508282026134088161337c565b9150828204841483151761341f5761341e612f51565b5b5092915050565b60006134318261337c565b915061343c8361337c565b9250828201905073ffffffffffffffffffffffffffffffffffffffff81111561346857613467612f51565b5b92915050565b60006134798261337c565b915073ffffffffffffffffffffffffffffffffffffffff820361349f5761349e612f51565b5b600182019050919050565b600081905092915050565b60005b838110156134d35780820151818401526020810190506134b8565b60008484015250505050565b60006134ea82612fb4565b6134f481856134aa565b93506135048185602086016134b5565b80840191505092915050565b600061351c82846134df565b915081905092915050565b6000815190506135368161269e565b92915050565b6000602082840312156135525761355161268a565b5b600061356084828501613527565b91505092915050565b7f436865636b426974636f696e536967732f636865636b536967202d2d2052657160008201527f756972657320756e636f6d7072657373656420756e707265666978656420707560208201527f626b657900000000000000000000000000000000000000000000000000000000604082015250565b60006135eb604483613187565b91506135f682613569565b606082019050919050565b6000602082019050818103600083015261361a816135de565b9050919050565b61362a81612be7565b82525050565b60006080820190506136456000830187612ed2565b6136526020830186613621565b61365f6040830185612ed2565b61366c6060830184612ed2565b95945050505050565b600081519050919050565b600061368b82613675565b6136958185613187565b93506136a58185602086016134b5565b6136ae81612785565b840191505092915050565b600060408201905081810360008301526136d38185613680565b90506136e26020830184612cdf565b9392505050565b600061ffff82169050919050565b6000613702826136e9565b915061370d836136e9565b925082820261371b816136e9565b915080821461372d5761372c612f51565b5b5092915050565b600063ffffffff82169050919050565b600061374f82613734565b915061375a83613734565b925082820261376881613734565b915080821461377a57613779612f51565b5b5092915050565b600067ffffffffffffffff82169050919050565b60006137a082613781565b91506137ab83613781565b92508282026137b981613781565b91508082146137cb576137ca612f51565b5b5092915050565b600060208201905081810360008301526137ec8184613680565b905092915050565b60006137ff826126ca565b915061380a836126ca565b9250828202613818816126ca565b9150828204841483151761382f5761382e612f51565b5b5092915050565b7f5075626b6579206d7573742062652036342d62797465207261772c20756e636f60008201527f6d70726573736564206b65792e00000000000000000000000000000000000000602082015250565b6000613892602d83613187565b915061389d82613836565b604082019050919050565b600060208201905081810360008301526138c181613885565b9050919050565b60006138d38261337c565b9050919050565b6138e3816138c8565b82525050565b600060408201905081810360008301526139038185613680565b905061391260208301846138da565b9392505050565b7f4f766572666c6f7720647572696e67206164646974696f6e2e00000000000000600082015250565b600061394f601983613187565b915061395a82613919565b602082019050919050565b6000602082019050818103600083015261397e81613942565b9050919050565b7f4e487b7100000000000000000000000000000000000000000000000000000000600052605160045260246000fdfea2646970667358221220cd048fa243be77b89d97bfd08197d3017476cb4353bab4e8cfa44c831682004464736f6c63430008130033",
  "linkReferences": {},
  "deployedLinkReferences": {}
}