{
  "_format": "hh-sol-artifact-1",
  "contractName": "LNBridge",
  "sourceName": "contracts/LNBridge.sol",
  "abi": [
    {
      "inputs": [],
      "name": "bridge",
      "outputs": [
        {
          "internalType": "bytes32",
          "name": "fundingTxId",
          "type": "bytes32"
        },
        {
          "internalType": "bytes32",
          "name": "pkProver",
          "type": "bytes32"
        },
        {
          "internalType": "bytes32",
          "name": "pkVerifier",
          "type": "bytes32"
        },
        {
          "internalType": "uint256",
          "name": "index",
          "type": "uint256"
        },
        {
          "internalType": "uint256",
          "name": "timelock",
          "type": "uint256"
        },
        {
          "internalType": "uint256",
          "name": "timelock_dispute",
          "type": "uint256"
        }
      ],
      "stateMutability": "view",
      "type": "function"
    },
    {
      "inputs": [
        {
          "internalType": "bytes",
          "name": "rawTxP_locked",
          "type": "bytes"
        },
        {
          "internalType": "bytes",
          "name": "sigV",
          "type": "bytes"
        },
        {
          "internalType": "bytes",
          "name": "rawTxV_unlocked",
          "type": "bytes"
        },
        {
          "internalType": "bytes",
          "name": "sigP",
          "type": "bytes"
        }
      ],
      "name": "dispute",
      "outputs": [],
      "stateMutability": "nonpayable",
      "type": "function"
    },
    {
      "inputs": [
        {
          "internalType": "bytes",
          "name": "oldRevSecret",
          "type": "bytes"
        },
        {
          "internalType": "bytes",
          "name": "rawTxP_unlocked",
          "type": "bytes"
        },
        {
          "internalType": "bytes",
          "name": "sigV",
          "type": "bytes"
        }
      ],
      "name": "resolveDispute",
      "outputs": [],
      "stateMutability": "nonpayable",
      "type": "function"
    },
    {
      "inputs": [],
      "name": "settle",
      "outputs": [],
      "stateMutability": "nonpayable",
      "type": "function"
    },
    {
      "inputs": [
        {
          "internalType": "bytes32",
          "name": "_fundingTxId",
          "type": "bytes32"
        },
        {
          "internalType": "bytes32",
          "name": "_pkProver",
          "type": "bytes32"
        },
        {
          "internalType": "bytes32",
          "name": "_pkVerifier",
          "type": "bytes32"
        },
        {
          "internalType": "uint256",
          "name": "_index",
          "type": "uint256"
        },
        {
          "internalType": "uint256",
          "name": "_timelock",
          "type": "uint256"
        }
      ],
      "name": "setup",
      "outputs": [],
      "stateMutability": "nonpayable",
      "type": "function"
    },
    {
      "inputs": [
        {
          "internalType": "bytes",
          "name": "CT_P_unlocked",
          "type": "bytes"
        },
        {
          "internalType": "bytes",
          "name": "CT_V_unlocked",
          "type": "bytes"
        }
      ],
      "name": "submitProof",
      "outputs": [
        {
          "internalType": "bool",
          "name": "",
          "type": "bool"
        }
      ],
      "stateMutability": "view",
      "type": "function"
    }
  ],
  "bytecode": "0x608060405234801561001057600080fd5b50610bd5806100206000396000f3fe608060405234801561001057600080fd5b50600436106100625760003560e01c806306ac0e261461006757806311da60b4146100835780633aef14771461008d57806343f104d2146100bd57806379a85bd9146100d9578063e78cea92146100f5575b600080fd5b610081600480360381019061007c919061052a565b610118565b005b61008b610150565b005b6100a760048036038101906100a291906106eb565b610152565b6040516100b4919061077e565b60405180910390f35b6100d760048036038101906100d29190610799565b61017f565b005b6100f360048036038101906100ee9190610870565b610185565b005b6100fd61018a565b60405161010f96959493929190610935565b60405180910390f35b846000800181905550836000600101819055508260006002018190555081600060030181905550806000600401819055505050505050565b565b600080600190506000610164856101b4565b90506000610171856101b4565b905082935050505092915050565b50505050565b505050565b60008060000154908060010154908060020154908060030154908060040154908060050154905086565b6101bc610486565b6101c4610486565b601b816000019060ff16908160ff16815250506101ea6101e58460516102c6565b610351565b8160400181905250604760f81b83602a8151811061020b5761020a610996565b5b602001015160f81c60f81b7effffffffffffffffffffffffffffffffffffffffffffffffffffffffffffff19160361025d5761025061024b84602f6102c6565b610351565b81602001819052506102bd565b604660f81b83602a8151811061027657610275610996565b5b602001015160f81c60f81b7effffffffffffffffffffffffffffffffffffffffffffffffffffffffffffff1916036102bc576102b383602f61037a565b81602001819052505b5b80915050919050565b6000806000905060005b60208110156103435780601f6102e691906109f4565b60086102f29190610a28565b8585836102ff9190610a6a565b815181106103105761030f610996565b5b602001015160f81c60f81b60f81c60ff16901b8261032e9190610a6a565b9150808061033b90610a9e565b9150506102d0565b508060001b91505092915050565b6060816040516020016103649190610b07565b6040516020818303038152906040529050919050565b60606000805b601f8110156103f35780601e61039691906109f4565b60086103a29190610a28565b8585836103af9190610a6a565b815181106103c0576103bf610996565b5b602001015160f81c60f81b60f81c60ff16901b826103de9190610a6a565b915080806103eb90610a9e565b915050610380565b506103fd81610406565b91505092915050565b60607f7fffffffffffffffffffffffffffffffffffffffffffffffffffffffffffffff82111561046b576040517f08c379a000000000000000000000000000000000000000000000000000000000815260040161046290610b7f565b60405180910390fd5b60405190506020815281602082015260408101604052919050565b6040518060600160405280600060ff16815260200160608152602001606081525090565b6000604051905090565b600080fd5b600080fd5b6000819050919050565b6104d1816104be565b81146104dc57600080fd5b50565b6000813590506104ee816104c8565b92915050565b6000819050919050565b610507816104f4565b811461051257600080fd5b50565b600081359050610524816104fe565b92915050565b600080600080600060a08688031215610546576105456104b4565b5b6000610554888289016104df565b9550506020610565888289016104df565b9450506040610576888289016104df565b935050606061058788828901610515565b925050608061059888828901610515565b9150509295509295909350565b600080fd5b600080fd5b6000601f19601f8301169050919050565b7f4e487b7100000000000000000000000000000000000000000000000000000000600052604160045260246000fd5b6105f8826105af565b810181811067ffffffffffffffff82111715610617576106166105c0565b5b80604052505050565b600061062a6104aa565b905061063682826105ef565b919050565b600067ffffffffffffffff821115610656576106556105c0565b5b61065f826105af565b9050602081019050919050565b82818337600083830152505050565b600061068e6106898461063b565b610620565b9050828152602081018484840111156106aa576106a96105aa565b5b6106b584828561066c565b509392505050565b600082601f8301126106d2576106d16105a5565b5b81356106e284826020860161067b565b91505092915050565b60008060408385031215610702576107016104b4565b5b600083013567ffffffffffffffff8111156107205761071f6104b9565b5b61072c858286016106bd565b925050602083013567ffffffffffffffff81111561074d5761074c6104b9565b5b610759858286016106bd565b9150509250929050565b60008115159050919050565b61077881610763565b82525050565b6000602082019050610793600083018461076f565b92915050565b600080600080608085870312156107b3576107b26104b4565b5b600085013567ffffffffffffffff8111156107d1576107d06104b9565b5b6107dd878288016106bd565b945050602085013567ffffffffffffffff8111156107fe576107fd6104b9565b5b61080a878288016106bd565b935050604085013567ffffffffffffffff81111561082b5761082a6104b9565b5b610837878288016106bd565b925050606085013567ffffffffffffffff811115610858576108576104b9565b5b610864878288016106bd565b91505092959194509250565b600080600060608486031215610889576108886104b4565b5b600084013567ffffffffffffffff8111156108a7576108a66104b9565b5b6108b3868287016106bd565b935050602084013567ffffffffffffffff8111156108d4576108d36104b9565b5b6108e0868287016106bd565b925050604084013567ffffffffffffffff811115610901576109006104b9565b5b61090d868287016106bd565b9150509250925092565b610920816104be565b82525050565b61092f816104f4565b82525050565b600060c08201905061094a6000830189610917565b6109576020830188610917565b6109646040830187610917565b6109716060830186610926565b61097e6080830185610926565b61098b60a0830184610926565b979650505050505050565b7f4e487b7100000000000000000000000000000000000000000000000000000000600052603260045260246000fd5b7f4e487b7100000000000000000000000000000000000000000000000000000000600052601160045260246000fd5b60006109ff826104f4565b9150610a0a836104f4565b9250828203905081811115610a2257610a216109c5565b5b92915050565b6000610a33826104f4565b9150610a3e836104f4565b9250828202610a4c816104f4565b91508282048414831517610a6357610a626109c5565b5b5092915050565b6000610a75826104f4565b9150610a80836104f4565b9250828201905080821115610a9857610a976109c5565b5b92915050565b6000610aa9826104f4565b91507fffffffffffffffffffffffffffffffffffffffffffffffffffffffffffffffff8203610adb57610ada6109c5565b5b600182019050919050565b6000819050919050565b610b01610afc826104be565b610ae6565b82525050565b6000610b138284610af0565b60208201915081905092915050565b600082825260208201905092915050565b7f56616c75652065786365656473207468652072616e6765000000000000000000600082015250565b6000610b69601783610b22565b9150610b7482610b33565b602082019050919050565b60006020820190508181036000830152610b9881610b5c565b905091905056fea26469706673582212205461201988b85fcb4a5a502374e5f981cf75760f118dd14037b2808a7bf0857764736f6c63430008130033",
  "linkReferences": {},
  "deployedLinkReferences": {}
}