{
  "_format": "hh-sol-artifact-1",
  "contractName": "LNBridge",
  "sourceName": "contracts/LNBridge.sol",
  "abi": [
    {
      "inputs": [
        {
          "internalType": "uint256",
          "name": "value",
          "type": "uint256"
        },
        {
          "internalType": "uint256",
          "name": "length",
          "type": "uint256"
        }
      ],
      "name": "StringsInsufficientHexLength",
      "type": "error"
    },
    {
      "inputs": [
        {
          "internalType": "bytes",
          "name": "rawTxP_locked",
          "type": "bytes"
        },
        {
          "internalType": "bytes",
          "name": "sigV",
          "type": "bytes"
        },
        {
          "internalType": "bytes",
          "name": "rawTxV_unlocked",
          "type": "bytes"
        },
        {
          "internalType": "bytes",
          "name": "sigP",
          "type": "bytes"
        }
      ],
      "name": "dispute",
      "outputs": [],
      "stateMutability": "nonpayable",
      "type": "function"
    },
    {
      "inputs": [
        {
          "internalType": "bytes",
          "name": "_txBytes",
          "type": "bytes"
        }
      ],
      "name": "getTheTwoOutputs",
      "outputs": [
        {
          "internalType": "uint256",
          "name": "",
          "type": "uint256"
        },
        {
          "internalType": "bytes20",
          "name": "",
          "type": "bytes20"
        },
        {
          "internalType": "uint256",
          "name": "",
          "type": "uint256"
        },
        {
          "internalType": "bytes20",
          "name": "",
          "type": "bytes20"
        }
      ],
      "stateMutability": "nonpayable",
      "type": "function"
    },
    {
      "inputs": [
        {
          "internalType": "bytes",
          "name": "oldRevSecret",
          "type": "bytes"
        },
        {
          "internalType": "bytes",
          "name": "rawTxP_unlocked",
          "type": "bytes"
        },
        {
          "internalType": "bytes",
          "name": "sigV",
          "type": "bytes"
        }
      ],
      "name": "resolveDispute",
      "outputs": [],
      "stateMutability": "nonpayable",
      "type": "function"
    },
    {
      "inputs": [],
      "name": "settle",
      "outputs": [],
      "stateMutability": "nonpayable",
      "type": "function"
    },
    {
      "inputs": [
        {
          "internalType": "bytes32",
          "name": "_fundingTxId",
          "type": "bytes32"
        },
        {
          "internalType": "bytes32",
          "name": "_pkProver",
          "type": "bytes32"
        },
        {
          "internalType": "bytes32",
          "name": "_pkVerifier",
          "type": "bytes32"
        },
        {
          "internalType": "uint256",
          "name": "_index",
          "type": "uint256"
        },
        {
          "internalType": "uint256",
          "name": "_timestamp",
          "type": "uint256"
        }
      ],
      "name": "setup",
      "outputs": [],
      "stateMutability": "nonpayable",
      "type": "function"
    },
    {
      "inputs": [
        {
          "internalType": "bytes",
          "name": "rawTxP_unlocked",
          "type": "bytes"
        },
        {
          "internalType": "bytes",
          "name": "sigV",
          "type": "bytes"
        },
        {
          "internalType": "bytes",
          "name": "rawTxV_unlocked",
          "type": "bytes"
        },
        {
          "internalType": "bytes",
          "name": "sigP",
          "type": "bytes"
        }
      ],
      "name": "submitProof",
      "outputs": [],
      "stateMutability": "nonpayable",
      "type": "function"
    },
    {
      "inputs": [],
      "name": "timestamp",
      "outputs": [
        {
          "internalType": "uint256",
          "name": "",
          "type": "uint256"
        }
      ],
      "stateMutability": "view",
      "type": "function"
    },
    {
      "inputs": [],
      "name": "timestamp_dispute",
      "outputs": [
        {
          "internalType": "uint256",
          "name": "",
          "type": "uint256"
        }
      ],
      "stateMutability": "view",
      "type": "function"
    },
    {
      "inputs": [
        {
          "internalType": "bytes",
          "name": "pk",
          "type": "bytes"
        },
        {
          "internalType": "bytes32",
          "name": "digest",
          "type": "bytes32"
        },
        {
          "internalType": "uint8",
          "name": "v",
          "type": "uint8"
        },
        {
          "internalType": "bytes32",
          "name": "r",
          "type": "bytes32"
        },
        {
          "internalType": "bytes32",
          "name": "s",
          "type": "bytes32"
        }
      ],
      "name": "verifySignature",
      "outputs": [
        {
          "internalType": "bool",
          "name": "",
          "type": "bool"
        }
      ],
      "stateMutability": "view",
      "type": "function"
    }
  ],
  "bytecode": "0x608060405234801561001057600080fd5b50612661806100206000396000f3fe608060405234801561001057600080fd5b50600436106100935760003560e01c806347aa95731161006657806347aa9573146100f657806379a85bd914610126578063a5dd32ac14610142578063b80777ea14610160578063e605c7671461017e57610093565b806306ac0e261461009857806311da60b4146100b45780633740d249146100be57806343f104d2146100da575b600080fd5b6100b260048036038101906100ad9190611a40565b6101b1565b005b6100bc6101db565b005b6100d860048036038101906100d39190611c01565b6101dd565b005b6100f460048036038101906100ef9190611c01565b6101e3565b005b610110600480360381019061010b9190611d11565b6101e9565b60405161011d9190611dc3565b60405180910390f35b610140600480360381019061013b9190611dde565b610203565b005b61014a610208565b6040516101579190611e94565b60405180910390f35b61016861020e565b6040516101759190611e94565b60405180910390f35b61019860048036038101906101939190611eaf565b610214565b6040516101a89493929190611f33565b60405180910390f35b84600081905550836001819055508260028190555081600381905550806004819055505050505050565b565b50505050565b50505050565b60006101f8868686868661035c565b905095945050505050565b505050565b60055481565b60045481565b6000806000806000806000806102298961043e565b809450819550829650839750505050506102786040518060400160405280600a81526020017f436865636b206f6e653a0000000000000000000000000000000000000000000081525085610728565b6102bf6040518060400160405280600a81526020017f436865636b2074776f3a000000000000000000000000000000000000000000008152506102ba856107c4565b6107f4565b6102fe6040518060400160405280600c81526020017f436865636b2074687265653a000000000000000000000000000000000000000081525083610728565b6103456040518060400160405280600b81526020017f436865636b20666f75723a000000000000000000000000000000000000000000815250610340836107c4565b6107f4565b838383839750975097509750505050509193509193565b600060408651146103a2576040517f08c379a000000000000000000000000000000000000000000000000000000000815260040161039990612021565b60405180910390fd5b60006103ad87610890565b90506000600187878787604051600081526020016040526040516103d4949392919061205f565b6020604051602081039080840390855afa1580156103f6573d6000803e3d6000fd5b5050506020604051035190508173ffffffffffffffffffffffffffffffffffffffff168173ffffffffffffffffffffffffffffffffffffffff16149250505095945050505050565b600080600080600080600267ffffffffffffffff81111561046257610461611ad6565b5b6040519080825280602002602001820160405280156104905781602001602082028036833780820191505090505b5090506000600267ffffffffffffffff8111156104b0576104af611ad6565b5b6040519080825280602002602001820160405280156104de5781602001602082028036833780820191505090505b5090506000600267ffffffffffffffff8111156104fe576104fd611ad6565b5b60405190808252806020026020018201604052801561052c5781602001602082028036833780820191505090505b5090506000600267ffffffffffffffff81111561054c5761054b611ad6565b5b60405190808252806020026020018201604052801561057a5781602001602082028036833780820191505090505b5090506000600267ffffffffffffffff81111561059a57610599611ad6565b5b6040519080825280602002602001820160405280156105c85781602001602082028036833780820191505090505b509050600495506105db8b876000610908565b80975081965050506105ef8b876002610a1a565b8099508197508296508395505050505060005b60028110156106a257600061064c8d868481518110610624576106236120a4565b5b602002602001015188858151811061063f5761063e6120a4565b5b6020026020010151610c11565b905080838381518110610662576106616120a4565b5b60200260200101906bffffffffffffffffffffffff191690816bffffffffffffffffffffffff19168152505050808061069a90612102565b915050610602565b50816000815181106106b7576106b66120a4565b5b6020026020010151816000815181106106d3576106d26120a4565b5b6020026020010151836001815181106106ef576106ee6120a4565b5b60200260200101518360018151811061070b5761070a6120a4565b5b602002602001015199509950995099505050505050509193509193565b6107c0828260405160240161073e9291906121b8565b6040516020818303038152906040527fb60e72cc000000000000000000000000000000000000000000000000000000007bffffffffffffffffffffffffffffffffffffffffffffffffffffffff19166020820180517bffffffffffffffffffffffffffffffffffffffffffffffffffffffff8381831617835250505050610c7c565b5050565b60606107ed8260601c73ffffffffffffffffffffffffffffffffffffffff16601460ff16610c96565b9050919050565b61088c828260405160240161080a9291906121e8565b6040516020818303038152906040527f4b5c4277000000000000000000000000000000000000000000000000000000007bffffffffffffffffffffffffffffffffffffffffffffffffffffffff19166020820180517bffffffffffffffffffffffffffffffffffffffffffffffffffffffff8381831617835250505050610c7c565b5050565b600060408251146108d6576040517f08c379a00000000000000000000000000000000000000000000000000000000081526004016108cd90612291565b60405180910390fd5b60006108fa6108ef600085610edc90919063ffffffff16565b62ffffff1916610f07565b90508060001c915050919050565b606060008060008061091a8888610f4a565b8098508194505050600086148061093057508286115b1561093d57829150610941565b8591505b60008267ffffffffffffffff81111561095d5761095c611ad6565b5b60405190808252806020026020018201604052801561098b5781602001602082028036833780820191505090505b50905060005b83811015610a07576024896109a691906122b1565b98506109b28a8a610f4a565b809a508194505050828282815181106109ce576109cd6120a4565b5b6020026020010181815250506004836109e791906122b1565b896109f291906122b1565b985080806109ff90612102565b915050610991565b5080889550955050505050935093915050565b6060806060600080600080610a2f8a8a610f4a565b809a5081945050506000881480610a4557508288115b15610a5257829150610a56565b8791505b60008267ffffffffffffffff811115610a7257610a71611ad6565b5b604051908082528060200260200182016040528015610aa05781602001602082028036833780820191505090505b50905060008367ffffffffffffffff811115610abf57610abe611ad6565b5b604051908082528060200260200182016040528015610aed5781602001602082028036833780820191505090505b50905060008467ffffffffffffffff811115610b0c57610b0b611ad6565b5b604051908082528060200260200182016040528015610b3a5781602001602082028036833780820191505090505b50905060005b85811015610bf557610b548e8e6040611032565b828281518110610b6757610b666120a4565b5b60200260200101818152505060088d610b8091906122b1565b9c50610b8c8e8e610f4a565b809e5081965050508c848281518110610ba857610ba76120a4565b5b60200260200101818152505084838281518110610bc857610bc76120a4565b5b602002602001018181525050848d610be091906122b1565b9c508080610bed90612102565b915050610b40565b508083838e995099509950995050505050505093509350935093565b6000610c1e84848461149d565b15610c4057610c3984600385610c3491906122b1565b611662565b9050610c75565b610c4b848484611745565b15610c6d57610c6684600285610c6191906122b1565b611662565b9050610c75565b600060601b90505b9392505050565b610c9381610c8b611862611883565b63ffffffff16565b50565b6060600083905060006002846002610cae91906122e5565b610cb891906122b1565b67ffffffffffffffff811115610cd157610cd0611ad6565b5b6040519080825280601f01601f191660200182016040528015610d035781602001600182028036833780820191505090505b5090507f300000000000000000000000000000000000000000000000000000000000000081600081518110610d3b57610d3a6120a4565b5b60200101907effffffffffffffffffffffffffffffffffffffffffffffffffffffffffffff1916908160001a9053507f780000000000000000000000000000000000000000000000000000000000000081600181518110610d9f57610d9e6120a4565b5b60200101907effffffffffffffffffffffffffffffffffffffffffffffffffffffffffffff1916908160001a90535060006001856002610ddf91906122e5565b610de991906122b1565b90505b6001811115610e89577f3031323334353637383961626364656600000000000000000000000000000000600f841660108110610e2b57610e2a6120a4565b5b1a60f81b828281518110610e4257610e416120a4565b5b60200101907effffffffffffffffffffffffffffffffffffffffffffffffffffffffffffff1916908160001a905350600483901c925080610e8290612327565b9050610dec565b5060008214610ed15784846040517fe22e27eb000000000000000000000000000000000000000000000000000000008152600401610ec8929190612350565b60405180910390fd5b809250505092915050565b600080835190506000602085019050610efd8464ffffffffff16828461188e565b9250505092915050565b600080610f13836118fc565b6bffffffffffffffffffffffff1690506000610f2e8461191c565b6bffffffffffffffffffffffff16905080822092505050919050565b6000806000848481518110610f6257610f616120a4565b5b602001015160f81c60f81b60f81c9050600184610f7f91906122b1565b935060fd8160ff161015610f9f5780848160ff169150925092505061102b565b60fd8160ff1603610fcd57610fb685856010611032565b600285610fc391906122b1565b925092505061102b565b60fe8160ff1603610ffb57610fe485856020611032565b600485610ff191906122b1565b925092505061102b565b60ff8160ff16036110295761101285856040611032565b60088561101f91906122b1565b925092505061102b565b505b9250929050565b6000600882036110675783838151811061104f5761104e6120a4565b5b602001015160f81c60f81b60f81c60ff169050611496565b601082036110e9576101008460018561108091906122b1565b81518110611091576110906120a4565b5b602001015160f81c60f81b60f81c60ff166110ac9190612387565b61ffff168484815181106110c3576110c26120a4565b5b602001015160f81c60f81b60f81c60ff1661ffff166110e291906122b1565b9050611496565b6020820361120c5763010000008460038561110491906122b1565b81518110611115576111146120a4565b5b602001015160f81c60f81b60f81c60ff1661113091906123d4565b63ffffffff16620100008560028661114891906122b1565b81518110611159576111586120a4565b5b602001015160f81c60f81b60f81c60ff1661117491906123d4565b63ffffffff166101008660018761118b91906122b1565b8151811061119c5761119b6120a4565b5b602001015160f81c60f81b60f81c60ff166111b791906123d4565b63ffffffff168686815181106111d0576111cf6120a4565b5b602001015160f81c60f81b60f81c60ff1663ffffffff166111f191906122b1565b6111fb91906122b1565b61120591906122b1565b9050611496565b60408203611495576701000000000000008460078561122b91906122b1565b8151811061123c5761123b6120a4565b5b602001015160f81c60f81b60f81c60ff166112579190612425565b67ffffffffffffffff1666010000000000008560068661127791906122b1565b81518110611288576112876120a4565b5b602001015160f81c60f81b60f81c60ff166112a39190612425565b67ffffffffffffffff1665010000000000866005876112c291906122b1565b815181106112d3576112d26120a4565b5b602001015160f81c60f81b60f81c60ff166112ee9190612425565b67ffffffffffffffff166401000000008760048861130c91906122b1565b8151811061131d5761131c6120a4565b5b602001015160f81c60f81b60f81c60ff166113389190612425565b67ffffffffffffffff1663010000008860038961135591906122b1565b81518110611366576113656120a4565b5b602001015160f81c60f81b60f81c60ff166113819190612425565b67ffffffffffffffff16620100008960028a61139d91906122b1565b815181106113ae576113ad6120a4565b5b602001015160f81c60f81b60f81c60ff166113c99190612425565b67ffffffffffffffff166101008a60018b6113e491906122b1565b815181106113f5576113f46120a4565b5b602001015160f81c60f81b60f81c60ff166114109190612425565b67ffffffffffffffff168a8a8151811061142d5761142c6120a4565b5b602001015160f81c60f81b60f81c60ff1667ffffffffffffffff1661145291906122b1565b61145c91906122b1565b61146691906122b1565b61147091906122b1565b61147a91906122b1565b61148491906122b1565b61148e91906122b1565b9050611496565b5b9392505050565b60006019821480156114f15750607660f81b8484815181106114c2576114c16120a4565b5b602001015160f81c60f81b7effffffffffffffffffffffffffffffffffffffffffffffffffffffffffffff1916145b801561154b575060a960f81b8460018561150b91906122b1565b8151811061151c5761151b6120a4565b5b602001015160f81c60f81b7effffffffffffffffffffffffffffffffffffffffffffffffffffffffffffff1916145b80156115a55750601460f81b8460028561156591906122b1565b81518110611576576115756120a4565b5b602001015160f81c60f81b7effffffffffffffffffffffffffffffffffffffffffffffffffffffffffffff1916145b80156115ff5750608860f81b846017856115bf91906122b1565b815181106115d0576115cf6120a4565b5b602001015160f81c60f81b7effffffffffffffffffffffffffffffffffffffffffffffffffffffffffffff1916145b8015611659575060ac60f81b8460188561161991906122b1565b8151811061162a576116296120a4565b5b602001015160f81c60f81b7effffffffffffffffffffffffffffffffffffffffffffffffffffffffffffff1916145b90509392505050565b6000806000905060005b60148173ffffffffffffffffffffffffffffffffffffffff161015611737578060136116989190612482565b60086116a491906124ca565b73ffffffffffffffffffffffffffffffffffffffff1685858373ffffffffffffffffffffffffffffffffffffffff166116dd91906122b1565b815181106116ee576116ed6120a4565b5b602001015160f81c60f81b60f81c60ff1673ffffffffffffffffffffffffffffffffffffffff16901b82611722919061250c565b9150808061172f90612554565b91505061166c565b508060601b91505092915050565b60006017821480156117a5575060a960f81b8460008561176591906122b1565b81518110611776576117756120a4565b5b602001015160f81c60f81b7effffffffffffffffffffffffffffffffffffffffffffffffffffffffffffff1916145b80156117ff5750601460f81b846001856117bf91906122b1565b815181106117d0576117cf6120a4565b5b602001015160f81c60f81b7effffffffffffffffffffffffffffffffffffffffffffffffffffffffffffff1916145b80156118595750608760f81b8460168561181991906122b1565b8151811061182a576118296120a4565b5b602001015160f81c60f81b7effffffffffffffffffffffffffffffffffffffffffffffffffffffffffffff1916145b90509392505050565b60006a636f6e736f6c652e6c6f679050600080835160208501845afa505050565b6119b6819050919050565b6000806118a4838561193c90919063ffffffff16565b90506040518111156118b557600090505b600081036118e6577fffffffffffffffffffffffffffffffffffffffffffffffffffffffffff0000009150506118f5565b6118f1858585611995565b9150505b9392505050565b6000806bffffffffffffffffffffffff9050808360781c16915050919050565b6000806bffffffffffffffffffffffff9050808360181c16915050919050565b6000818361194a91906122b1565b90508281101561198f576040517f08c379a0000000000000000000000000000000000000000000000000000000008152600401611986906125dc565b60405180910390fd5b92915050565b600083811760601b905082811760601b905081811760181b90509392505050565b6119be6125fc565b565b6000604051905090565b600080fd5b600080fd5b6000819050919050565b6119e7816119d4565b81146119f257600080fd5b50565b600081359050611a04816119de565b92915050565b6000819050919050565b611a1d81611a0a565b8114611a2857600080fd5b50565b600081359050611a3a81611a14565b92915050565b600080600080600060a08688031215611a5c57611a5b6119ca565b5b6000611a6a888289016119f5565b9550506020611a7b888289016119f5565b9450506040611a8c888289016119f5565b9350506060611a9d88828901611a2b565b9250506080611aae88828901611a2b565b9150509295509295909350565b600080fd5b600080fd5b6000601f19601f8301169050919050565b7f4e487b7100000000000000000000000000000000000000000000000000000000600052604160045260246000fd5b611b0e82611ac5565b810181811067ffffffffffffffff82111715611b2d57611b2c611ad6565b5b80604052505050565b6000611b406119c0565b9050611b4c8282611b05565b919050565b600067ffffffffffffffff821115611b6c57611b6b611ad6565b5b611b7582611ac5565b9050602081019050919050565b82818337600083830152505050565b6000611ba4611b9f84611b51565b611b36565b905082815260208101848484011115611bc057611bbf611ac0565b5b611bcb848285611b82565b509392505050565b600082601f830112611be857611be7611abb565b5b8135611bf8848260208601611b91565b91505092915050565b60008060008060808587031215611c1b57611c1a6119ca565b5b600085013567ffffffffffffffff811115611c3957611c386119cf565b5b611c4587828801611bd3565b945050602085013567ffffffffffffffff811115611c6657611c656119cf565b5b611c7287828801611bd3565b935050604085013567ffffffffffffffff811115611c9357611c926119cf565b5b611c9f87828801611bd3565b925050606085013567ffffffffffffffff811115611cc057611cbf6119cf565b5b611ccc87828801611bd3565b91505092959194509250565b600060ff82169050919050565b611cee81611cd8565b8114611cf957600080fd5b50565b600081359050611d0b81611ce5565b92915050565b600080600080600060a08688031215611d2d57611d2c6119ca565b5b600086013567ffffffffffffffff811115611d4b57611d4a6119cf565b5b611d5788828901611bd3565b9550506020611d68888289016119f5565b9450506040611d7988828901611cfc565b9350506060611d8a888289016119f5565b9250506080611d9b888289016119f5565b9150509295509295909350565b60008115159050919050565b611dbd81611da8565b82525050565b6000602082019050611dd86000830184611db4565b92915050565b600080600060608486031215611df757611df66119ca565b5b600084013567ffffffffffffffff811115611e1557611e146119cf565b5b611e2186828701611bd3565b935050602084013567ffffffffffffffff811115611e4257611e416119cf565b5b611e4e86828701611bd3565b925050604084013567ffffffffffffffff811115611e6f57611e6e6119cf565b5b611e7b86828701611bd3565b9150509250925092565b611e8e81611a0a565b82525050565b6000602082019050611ea96000830184611e85565b92915050565b600060208284031215611ec557611ec46119ca565b5b600082013567ffffffffffffffff811115611ee357611ee26119cf565b5b611eef84828501611bd3565b91505092915050565b60007fffffffffffffffffffffffffffffffffffffffff00000000000000000000000082169050919050565b611f2d81611ef8565b82525050565b6000608082019050611f486000830187611e85565b611f556020830186611f24565b611f626040830185611e85565b611f6f6060830184611f24565b95945050505050565b600082825260208201905092915050565b7f436865636b426974636f696e536967732f636865636b536967202d2d2052657160008201527f756972657320756e636f6d7072657373656420756e707265666978656420707560208201527f626b657900000000000000000000000000000000000000000000000000000000604082015250565b600061200b604483611f78565b915061201682611f89565b606082019050919050565b6000602082019050818103600083015261203a81611ffe565b9050919050565b61204a816119d4565b82525050565b61205981611cd8565b82525050565b60006080820190506120746000830187612041565b6120816020830186612050565b61208e6040830185612041565b61209b6060830184612041565b95945050505050565b7f4e487b7100000000000000000000000000000000000000000000000000000000600052603260045260246000fd5b7f4e487b7100000000000000000000000000000000000000000000000000000000600052601160045260246000fd5b600061210d82611a0a565b91507fffffffffffffffffffffffffffffffffffffffffffffffffffffffffffffffff820361213f5761213e6120d3565b5b600182019050919050565b600081519050919050565b60005b83811015612173578082015181840152602081019050612158565b60008484015250505050565b600061218a8261214a565b6121948185611f78565b93506121a4818560208601612155565b6121ad81611ac5565b840191505092915050565b600060408201905081810360008301526121d2818561217f565b90506121e16020830184611e85565b9392505050565b60006040820190508181036000830152612202818561217f565b90508181036020830152612216818461217f565b90509392505050565b7f5075626b6579206d7573742062652036342d62797465207261772c20756e636f60008201527f6d70726573736564206b65792e00000000000000000000000000000000000000602082015250565b600061227b602d83611f78565b91506122868261221f565b604082019050919050565b600060208201905081810360008301526122aa8161226e565b9050919050565b60006122bc82611a0a565b91506122c783611a0a565b92508282019050808211156122df576122de6120d3565b5b92915050565b60006122f082611a0a565b91506122fb83611a0a565b925082820261230981611a0a565b915082820484148315176123205761231f6120d3565b5b5092915050565b600061233282611a0a565b915060008203612345576123446120d3565b5b600182039050919050565b60006040820190506123656000830185611e85565b6123726020830184611e85565b9392505050565b600061ffff82169050919050565b600061239282612379565b915061239d83612379565b92508282026123ab81612379565b91508082146123bd576123bc6120d3565b5b5092915050565b600063ffffffff82169050919050565b60006123df826123c4565b91506123ea836123c4565b92508282026123f8816123c4565b915080821461240a576124096120d3565b5b5092915050565b600067ffffffffffffffff82169050919050565b600061243082612411565b915061243b83612411565b925082820261244981612411565b915080821461245b5761245a6120d3565b5b5092915050565b600073ffffffffffffffffffffffffffffffffffffffff82169050919050565b600061248d82612462565b915061249883612462565b9250828203905073ffffffffffffffffffffffffffffffffffffffff8111156124c4576124c36120d3565b5b92915050565b60006124d582612462565b91506124e083612462565b92508282026124ee81612462565b91508282048414831517612505576125046120d3565b5b5092915050565b600061251782612462565b915061252283612462565b9250828201905073ffffffffffffffffffffffffffffffffffffffff81111561254e5761254d6120d3565b5b92915050565b600061255f82612462565b915073ffffffffffffffffffffffffffffffffffffffff8203612585576125846120d3565b5b600182019050919050565b7f4f766572666c6f7720647572696e67206164646974696f6e2e00000000000000600082015250565b60006125c6601983611f78565b91506125d182612590565b602082019050919050565b600060208201905081810360008301526125f5816125b9565b9050919050565b7f4e487b7100000000000000000000000000000000000000000000000000000000600052605160045260246000fdfea2646970667358221220013b5c2d55cbe986a7d97cb18f7922dcc184335a90cf0cfee8f4025c9bb72af964736f6c63430008130033",
  "linkReferences": {},
  "deployedLinkReferences": {}
}