{
  "_format": "hh-sol-artifact-1",
  "contractName": "LNBridge",
  "sourceName": "contracts/LNBridge.sol",
  "abi": [
    {
      "inputs": [],
      "name": "bridge",
      "outputs": [
        {
          "internalType": "bytes32",
          "name": "fundingTxId",
          "type": "bytes32"
        },
        {
          "internalType": "bytes",
          "name": "fundingTx_script",
          "type": "bytes"
        },
        {
          "internalType": "bytes4",
          "name": "fundingTx_index",
          "type": "bytes4"
        },
        {
          "internalType": "bytes",
          "name": "sighash",
          "type": "bytes"
        },
        {
          "internalType": "bytes",
          "name": "pkProver_Uncompressed",
          "type": "bytes"
        },
        {
          "internalType": "bytes",
          "name": "pkVerifier_Uncompressed",
          "type": "bytes"
        }
      ],
      "stateMutability": "view",
      "type": "function"
    },
    {
      "inputs": [
        {
          "internalType": "bytes",
          "name": "rawTxP_locked",
          "type": "bytes"
        },
        {
          "internalType": "bytes",
          "name": "sigV",
          "type": "bytes"
        },
        {
          "internalType": "bytes",
          "name": "rawTxV_unlocked",
          "type": "bytes"
        },
        {
          "internalType": "bytes",
          "name": "sigP",
          "type": "bytes"
        }
      ],
      "name": "dispute",
      "outputs": [],
      "stateMutability": "nonpayable",
      "type": "function"
    },
    {
      "inputs": [
        {
          "internalType": "bytes",
          "name": "oldRevSecret",
          "type": "bytes"
        },
        {
          "internalType": "bytes",
          "name": "rawTxP_unlocked",
          "type": "bytes"
        },
        {
          "internalType": "bytes",
          "name": "sigV",
          "type": "bytes"
        }
      ],
      "name": "resolveDispute",
      "outputs": [],
      "stateMutability": "nonpayable",
      "type": "function"
    },
    {
      "inputs": [],
      "name": "settle",
      "outputs": [],
      "stateMutability": "nonpayable",
      "type": "function"
    },
    {
      "inputs": [
        {
          "internalType": "bytes32",
          "name": "_fundingTxId",
          "type": "bytes32"
        },
        {
          "internalType": "bytes",
          "name": "_fundingTx_script",
          "type": "bytes"
        },
        {
          "internalType": "bytes",
          "name": "_sighash",
          "type": "bytes"
        },
        {
          "internalType": "bytes",
          "name": "_pkProver_Uncompressed",
          "type": "bytes"
        },
        {
          "internalType": "bytes",
          "name": "_pkVerifier_Uncompressed",
          "type": "bytes"
        }
      ],
      "name": "setup",
      "outputs": [],
      "stateMutability": "nonpayable",
      "type": "function"
    },
    {
      "inputs": [
        {
          "internalType": "bytes",
          "name": "CT_P_unlocked",
          "type": "bytes"
        },
        {
          "internalType": "bytes",
          "name": "CT_V_unlocked",
          "type": "bytes"
        }
      ],
      "name": "submitProof",
      "outputs": [
        {
          "internalType": "bool",
          "name": "",
          "type": "bool"
        }
      ],
      "stateMutability": "view",
      "type": "function"
    }
  ],
  "bytecode": "0x608060405234801561001057600080fd5b50613bfe806100206000396000f3fe608060405234801561001057600080fd5b50600436106100625760003560e01c806311da60b4146100675780633aef14771461006957806343f104d21461009157806379a85bd9146100a55780639f95fc44146100b8578063e78cea92146100cb575b600080fd5b005b61007c6100773660046134ed565b6100e5565b60405190151581526020015b60405180910390f35b61006761009f366004613550565b50505050565b6100676100b33660046135fc565b505050565b6100676100c6366004613683565b610c1e565b6100d3610c7a565b60405161008896959493929190613791565b6000806100f184610ece565b6001600160e01b0319161461015b5760405162461bcd60e51b815260206004820152602560248201527f436f6d6d69746d656e74207472616e73616374696f6e206f662050206973206c6044820152641bd8dad95960da1b60648201526084015b60405180910390fd5b600061016683610ece565b6001600160e01b031916146101cb5760405162461bcd60e51b815260206004820152602560248201527f436f6d6d69746d656e74207472616e73616374696f6e206f662056206973206c6044820152641bd8dad95960da1b6064820152608401610152565b6101d36132ab565b6101db6132f1565b60408051808201909152600080825260208201526101f886610ef2565b9084529084529050610209856111b5565b60208481019190915280850182905260609091015190820151146102955760405162461bcd60e51b815260206004820152603f60248201527f50277320636f6d6d69746d656e74207472616e73616374696f6e20646f65732060448201527f6e6f742068617264636f646520562773207265766f636174696f6e206b6579006064820152608401610152565b602083015151825151146103115760405162461bcd60e51b815260206004820152603a60248201527f416d6f756e74206d69736d61746368206265747765656e207032706b68206f6660448201527f205020616e64206c696768746e696e672048544c43206f6620560000000000006064820152608401610152565b6020820151518351511461038d5760405162461bcd60e51b815260206004820152603a60248201527f416d6f756e74206d69736d61746368206265747765656e207032706b68206f6660448201527f205620616e64206c696768746e696e672048544c43206f6620500000000000006064820152608401610152565b6000610425600060010180546103a290613817565b80601f01602080910402602001604051908101604052809291908181526020018280546103ce90613817565b801561041b5780601f106103f05761010080835404028352916020019161041b565b820191906000526020600020905b8154815290600101906020018083116103fe57829003601f168201915b505050505061136d565b83516020908101516040516001600160601b03199091169181019190915290915060029060340160408051601f198184030181529082905261046691613852565b602060405180830381855afa158015610483573d6000803e3d6000fd5b5050506040513d601f19601f820116820180604052508101906104a6919061386e565b60026104b583602001516113bc565b6040516104c29190613852565b602060405180830381855afa1580156104df573d6000803e3d6000fd5b5050506040513d601f19601f82011682018060405250810190610502919061386e565b146105945760405162461bcd60e51b815260206004820152605660248201527f546865207032706b6820696e2050277320756e6c6f636b656420636f6d6d697460448201527f6d656e74207472616e73616374696f6e20646f6573206e6f7420636f72726573606482015275706f6e6420746f2056657269666965722773206f6e6560501b608482015260a401610152565b6020808401518101516040516001600160601b03199091169181019190915260029060340160408051601f19818403018152908290526105d391613852565b602060405180830381855afa1580156105f0573d6000803e3d6000fd5b5050506040513d601f19601f82011682018060405250810190610613919061386e565b600261062283600001516113bc565b60405161062f9190613852565b602060405180830381855afa15801561064c573d6000803e3d6000fd5b5050506040513d601f19601f8201168201806040525081019061066f919061386e565b146106ff5760405162461bcd60e51b815260206004820152605460248201527f546865207032706b6820696e2056277320756e6c6f636b656420636f6d6d697460448201527f6d656e74207472616e73616374696f6e20646f6573206e6f7420636f72726573606482015273706f6e6420746f2050726f7665722773206f6e6560601b608482015260a401610152565b60005461070b8861148e565b602001511461078c5760405162461bcd60e51b815260206004820152604160248201527f50277320636f6d6d69746d656e74207472616e73616374696f6e20646f65732060448201527f6e6f74207370656e64207468652066756e64696e67207472616e73616374696f6064820152603760f91b608482015260a401610152565b6000546107988761148e565b60200151146108195760405162461bcd60e51b815260206004820152604160248201527f56277320636f6d6d69746d656e74207472616e73616374696f6e20646f65732060448201527f6e6f74207370656e64207468652066756e64696e67207472616e73616374696f6064820152603760f91b608482015260a401610152565b61082161332a565b61082a8861156a565b60208201526108388761156a565b8152610842613376565b610967896000600101805461085690613817565b80601f016020809104026020016040519081016040528092919081815260200182805461088290613817565b80156108cf5780601f106108a4576101008083540402835291602001916108cf565b820191906000526020600020905b8154815290600101906020018083116108b257829003601f168201915b5050505050600060030180546108e490613817565b80601f016020809104026020016040519081016040528092919081815260200182805461091090613817565b801561095d5780601f106109325761010080835404028352916020019161095d565b820191906000526020600020905b81548152906001019060200180831161094057829003601f168201915b5050505050611689565b815260405160029061097b90600590613887565b602060405180830381855afa158015610998573d6000803e3d6000fd5b5050506040513d601f19601f820116820180604052508101906109bb919061386e565b81516020840151516002916109fd916109e18760015b60200201516020015160006116eb565b6109f88860015b60200201516040015160006116eb565b611749565b604051610a0a9190613852565b602060405180830381855afa158015610a27573d6000803e3d6000fd5b5050506040513d601f19601f82011682018060405250810190610a4a919061386e565b14610abd5760405162461bcd60e51b815260206004820152603760248201527f496e76616c6964207369676e6174757265206f662056206f76657220636f6d6d60448201527f69746d656e74207472616e73616374696f6e206f6620500000000000000000006064820152608401610152565b610ad1886000600101805461085690613817565b6020820152604051600290610ae890600490613887565b602060405180830381855afa158015610b05573d6000803e3d6000fd5b5050506040513d601f19601f82011682018060405250810190610b28919061386e565b6020820151835151600291610b4d91610b428760006109d1565b6109f88860006109e8565b604051610b5a9190613852565b602060405180830381855afa158015610b77573d6000803e3d6000fd5b5050506040513d601f19601f82011682018060405250810190610b9a919061386e565b14610c0d5760405162461bcd60e51b815260206004820152603760248201527f496e76616c6964207369676e6174757265206f662050206f76657220636f6d6d60448201527f69746d656e74207472616e73616374696f6e206f6620560000000000000000006064820152608401610152565b600196505050505050505b92915050565b60008590558351610c36906001906020870190613394565b508251610c4a906003906020860190613394565b508151610c5e906004906020850190613394565b508051610c72906005906020840190613394565b505050505050565b6000805460018054919291610c8e90613817565b80601f0160208091040260200160405190810160405280929190818152602001828054610cba90613817565b8015610d075780601f10610cdc57610100808354040283529160200191610d07565b820191906000526020600020905b815481529060010190602001808311610cea57829003601f168201915b5050505050908060020160009054906101000a900460e01b90806003018054610d2f90613817565b80601f0160208091040260200160405190810160405280929190818152602001828054610d5b90613817565b8015610da85780601f10610d7d57610100808354040283529160200191610da8565b820191906000526020600020905b815481529060010190602001808311610d8b57829003601f168201915b505050505090806004018054610dbd90613817565b80601f0160208091040260200160405190810160405280929190818152602001828054610de990613817565b8015610e365780601f10610e0b57610100808354040283529160200191610e36565b820191906000526020600020905b815481529060010190602001808311610e1957829003601f168201915b505050505090806005018054610e4b90613817565b80601f0160208091040260200160405190810160405280929190818152602001828054610e7790613817565b8015610ec45780601f10610e9957610100808354040283529160200191610ec4565b820191906000526020600020905b815481529060010190602001808311610ea757829003601f168201915b5050505050905086565b6000610ee98260048451610ee29190613939565b6004611792565b610c1890613950565b604080516080810182526000808252602082018190529181018290526060810191909152604080518082019091526000808252602082015260408051808201825260008082526020808301829052835160808101855282815290810182905292830181905260608301529060408051808201909152600080825260208201526040805180820190915260008082526020820152610fb76040518060a0016040528060008152602001606081526020016060815260200160608152602001606081525090565b6004808252610fc9908990600061189f565b8083526020830191909152610fe19089906000611996565b845260408401526060830152608082015260005b60038110156111a6578061107c57611048898360600151838151811061101d5761101d613801565b60200260200101518460400151848151811061103b5761103b613801565b6020026020010151611b5e565b604088015260608701526020860152608082015180518290811061106e5761106e613801565b602090810291909101015185525b8060011415611129576110f56110cd8a846060015184815181106110a2576110a2613801565b6020026020010151856040015185815181106110c0576110c0613801565b6020026020010151611bc3565b6040516020016110df91815260200190565b6040516020818303038152906040526000611c66565b6001600160601b0319166020840152608082015180518290811061111b5761111b613801565b602090810291909101015183525b80600214156111945761116a898360600151838151811061114c5761114c613801565b6020026020010151846040015184815181106110c0576110c0613801565b6020850152608082015180518290811061118657611186613801565b602090810291909101015184525b8061119e81613987565b915050610ff5565b50929790965090945092505050565b604080516080810182526000808252602082018190529181018290526060810191909152604080518082019091526000808252602082015260408051608081018252600080825260208201819052918101829052606081019190915260408051808201909152600080825260208201526112576040518060a0016040528060008152602001606081526020016060815260200160608152602001606081525090565b6004808252611269908790600061189f565b80835260208301919091526112819087906000611996565b845260408401526060830152608082015260005b600281101561136157806112f5576112bd878360600151838151811061101d5761101d613801565b60408701526060860152602085015260808201518051829081106112e3576112e3613801565b6020908102919091010151845261134f565b806001141561134f5761131b6110cd88846060015184815181106110a2576110a2613801565b6001600160601b0319166020840152608082015180518290811061134157611341613801565b602090810291909101015183525b8061135981613987565b915050611295565b50919590945092505050565b604080518082019091526060808252602082015260408051808201909152606080825260208201526113a28360026021611792565b81526113b18360256021611792565b602082015292915050565b606060036002836040516113d09190613852565b602060405180830381855afa1580156113ed573d6000803e3d6000fd5b5050506040513d601f19601f82011682018060405250810190611410919061386e565b60405160200161142291815260200190565b60408051601f198184030181529082905261143c91613852565b602060405180830381855afa158015611459573d6000803e3d6000fd5b5050604051805160601b6001600160601b031916602082015260340190505b6040516020818303038152906040529050919050565b60408051606080820183526000808352602080840182905283850182905284519283018552818352820181905292810192909252906114ce836004611cf8565b5081526114de8360256004611792565b6114e790613950565b6001600160e01b03191660408201526115146115068460056025611792565b61150f906139a2565b611dbb565b60208201528051600114610c185760405162461bcd60e51b815260206004820152601b60248201527f54782068617320746f6f206d616e7920696e7075747320283e312900000000006044820152606401610152565b6115916040518060600160405280600060ff16815260200160608152602001606081525090565b6115b86040518060600160405280600060ff16815260200160608152602001606081525090565b82602a815181106115cb576115cb613801565b6020910101516001600160f81b031916604760f81b1415611603576115f96115f484602f611e5c565b611ece565b6020820152611642565b82602a8151811061161657611616613801565b6020910101516001600160f81b031916602360f91b14156116425761163c83602f611ee3565b60208201525b6116506115f4846051611e5c565b604082015260208101516002906116689060006116eb565b61167291906139dc565b61167f57601c8152610c18565b601b815292915050565b6000806116998560006029611792565b846116b2876072808a516116ad9190613939565b611792565b856040516020016116c694939291906139f0565b60405160208183030381529060405290506116e081611f60565b9150505b9392505050565b60006116f8826020613a47565b835110156117405760405162461bcd60e51b8152602060048201526015602482015274746f55696e743235365f6f75744f66426f756e647360581b6044820152606401610152565b50016020015190565b60606000806117648761175d601b89613a5f565b878761201f565b6040805160208101939093528281019190915280518083038201815260609092019052979650505050505050565b6060816117a081601f613a47565b10156117df5760405162461bcd60e51b815260206004820152600e60248201526d736c6963655f6f766572666c6f7760901b6044820152606401610152565b6117e98284613a47565b8451101561182d5760405162461bcd60e51b8152602060048201526011602482015270736c6963655f6f75744f66426f756e647360781b6044820152606401610152565b60608215801561184c5760405191506000825260208201604052611896565b6040519150601f8416801560200281840101858101878315602002848b0101015b8183101561188557805183526020928301920161186d565b5050858452601f01601f1916604052505b50949350505050565b60606000806000806118b18888611cf8565b975092508515806118c157508286115b156118ce578291506118d2565b8591505b6000826001600160401b038111156118ec576118ec61344b565b604051908082528060200260200182016040528015611915578160200160208202803683370190505b50905060005b838110156119895761192e60248a613a47565b985061193a8a8a611cf8565b809a5081945050508282828151811061195557611955613801565b602090810291909101015261196b836004613a47565b611975908a613a47565b98508061198181613987565b91505061191b565b5098969750505050505050565b60608060606000806000806119ab8a8a611cf8565b995092508715806119bb57508288115b156119c8578291506119cc565b8791505b6000826001600160401b038111156119e6576119e661344b565b604051908082528060200260200182016040528015611a0f578160200160208202803683370190505b5090506000836001600160401b03811115611a2c57611a2c61344b565b604051908082528060200260200182016040528015611a55578160200160208202803683370190505b5090506000846001600160401b03811115611a7257611a7261344b565b604051908082528060200260200182016040528015611a9b578160200160208202803683370190505b50905060005b85811015611b4c57611ab58e8e6040612250565b828281518110611ac757611ac7613801565b6020908102919091010152611add60088e613a47565b9c50611ae98e8e611cf8565b809e5081965050508c848281518110611b0457611b04613801565b60200260200101818152505084838281518110611b2357611b23613801565b6020908102919091010152611b38858e613a47565b9c5080611b4481613987565b915050611aa1565b509c919b509998509650505050505050565b6000806000611b6e8686866125bc565b15611bb057611b8786611b82876003613a47565b611e5c565b611b9687611b82886028613a47565b611ba588611b8289604c613a47565b925092509250611bba565b5060009150819050805b93509350939050565b6000611bd0848484612969565b15611bfa57611be984611be4856003613a47565b611c66565b6001600160601b03191690506116e4565b611c05848484612a8e565b15611c1957611be984611be4856002613a47565b611c24848484612b49565b15611c3f57611c3884611b82856002613a47565b90506116e4565b611c4a8484846125bc565b15611c5e57611c3884611b82856002613a47565b5060006116e4565b600080805b6014816001600160a01b03161015611ced57611c88816013613a82565b611c93906008613aaa565b6001600160a01b03168585836001600160a01b0316611cb29190613a47565b81518110611cc257611cc2613801565b0160200151611cd99160f89190911c901b83613ad9565b915080611ce581613b04565b915050611c6b565b5060601b9392505050565b6000806000848481518110611d0f57611d0f613801565b016020015160f81c9050611d24600185613a47565b935060fd8160ff161015611d3f5760ff169150829050611db4565b8060ff1660fd1415611d6c57611d5785856010612250565b611d62856002613a47565b9250925050611db4565b8060ff1660fe1415611d8f57611d8485856020612250565b611d62856004613a47565b8060ff1660ff1415611db257611da785856040612250565b611d62856008613a47565b505b9250929050565b60408051602080825281830190925260009182919060208201818036833701905050905060005b6020811015611e5257838160208110611dfd57611dfd613801565b1a60f81b826001611e0f846020613939565b611e199190613939565b81518110611e2957611e29613801565b60200101906001600160f81b031916908160001a90535080611e4a81613987565b915050611de2565b506116e481612bca565b600080805b6020811015611ec657611e7581601f613939565b611e80906008613b2b565b85611e8b8684613a47565b81518110611e9b57611e9b613801565b0160200151611eb29160f89190911c901b83613a47565b915080611ebe81613987565b915050611e61565b509392505050565b60608160405160200161147891815260200190565b60606000805b601f811015611f4e57611efd81601e613939565b611f08906008613b2b565b85611f138684613a47565b81518110611f2357611f23613801565b0160200151611f3a9160f89190911c901b83613a47565b915080611f4681613987565b915050611ee9565b50611f5881612be7565b949350505050565b600060028083604051611f739190613852565b602060405180830381855afa158015611f90573d6000803e3d6000fd5b5050506040513d601f19601f82011682018060405250810190611fb3919061386e565b604051602001611fc591815260200190565b60408051601f1981840301815290829052611fdf91613852565b602060405180830381855afa158015611ffc573d6000803e3d6000fd5b5050506040513d601f19601f82011682018060405250810190610c18919061386e565b600080806401000003d019612041607f600189901c166401000003d019613b2b565b860890506401000003d01981118061206a575070014551231950b75fc4402da1732fc9bebe1984115b80612086575070014551231950b75fc4402da1732fc9bebe1985115b8061208f575083155b80612098575084155b806120a6575060018660ff16115b156120b8576000809250925050612247565b60006120d68670014551231950b75fc4402da1732fc9bebe19612c5b565b905060006401000003d0198060076401000003d01960008709086401000003d0198086870986090890506121268160046121176401000003d0196001613a47565b6121219190613b4a565b612d27565b9050600061213760ff8a1683613a47565b612142906002613a47565b6001161561215f5761215a826401000003d019613939565b612161565b815b9050600080806121e470014551231950b75fc4402da1732fc9bebe196121998f70014551231950b75fc4402da1732fc9bebe19613939565b88097f79be667ef9dcbbac55a06295ce870b07029bfcdb2dce28d959f2815b16f817987f483ada7726a3c4655da4fbfc0e1108a8fd17b448a68554199c47d08ffb10d4b86001612dcf565b925092509250600080600061221e70014551231950b75fc4402da1732fc9bebe1980612212576122126139c6565b8e8b098b896001612dcf565b925092509250600080612235888888888888612e48565b909e509c505050505050505050505050505b94509492505050565b6000816008141561227c5783838151811061226d5761226d613801565b016020015160f81c90506116e4565b81601014156122dd5783612291846001613a47565b815181106122a1576122a1613801565b01602001516122b59060f81c610100613b5e565b61ffff168484815181106122cb576122cb613801565b0160200151611c38919060f81c613a47565b81602014156123c357836122f2846003613a47565b8151811061230257612302613801565b01602001516123189060f81c6301000000613b7f565b63ffffffff168461232a856002613a47565b8151811061233a5761233a613801565b016020015161234f9060f81c62010000613b7f565b63ffffffff1685612361866001613a47565b8151811061237157612371613801565b01602001516123859060f81c610100613b7f565b63ffffffff1686868151811061239d5761239d613801565b01602001516123af919060f81c613a47565b6123b99190613a47565b611c389190613a47565b81604014156116e457836123d8846007613a47565b815181106123e8576123e8613801565b01602001516124029060f81c670100000000000000613ba2565b6001600160401b031684612417856006613a47565b8151811061242757612427613801565b01602001516124409060f81c6601000000000000613ba2565b6001600160401b031685612455866005613a47565b8151811061246557612465613801565b016020015161247d9060f81c65010000000000613ba2565b6001600160401b031686612492876004613a47565b815181106124a2576124a2613801565b01602001516124b99060f81c640100000000613ba2565b6001600160401b0316876124ce886003613a47565b815181106124de576124de613801565b01602001516124f49060f81c6301000000613ba2565b6001600160401b031688612509896002613a47565b8151811061251957612519613801565b016020015161252e9060f81c62010000613ba2565b6001600160401b0316896125438a6001613a47565b8151811061255357612553613801565b01602001516125679060f81c610100613ba2565b6001600160401b03168a8a8151811061258257612582613801565b0160200151612594919060f81c613a47565b61259e9190613a47565b6125a89190613a47565b6125b29190613a47565b6123af9190613a47565b60008160721480156125fc5750836125d5846000613a47565b815181106125e5576125e5613801565b6020910101516001600160f81b031916603b60f91b145b801561263657508361260f846001613a47565b8151811061261f5761261f613801565b6020910101516001600160f81b031916602160f81b145b8015612670575083612649846023613a47565b8151811061265957612659613801565b6020910101516001600160f81b031916602b60fa1b145b80156126aa575083612683846024613a47565b8151811061269357612693613801565b6020910101516001600160f81b031916606360f81b145b80156126e45750836126bd846025613a47565b815181106126cd576126cd613801565b6020910101516001600160f81b031916607560f81b145b801561271e5750836126f7846026613a47565b8151811061270757612707613801565b6020910101516001600160f81b031916605560f91b145b8015612758575083612731846027613a47565b8151811061274157612741613801565b6020910101516001600160f81b031916600160fd1b145b801561279257508361276b846048613a47565b8151811061277b5761277b613801565b6020910101516001600160f81b031916601160fb1b145b80156127cc5750836127a5846049613a47565b815181106127b5576127b5613801565b6020910101516001600160f81b031916606760f81b145b80156128065750836127df84604a613a47565b815181106127ef576127ef613801565b6020910101516001600160f81b031916602160f81b145b801561284057508361281984606c613a47565b8151811061282957612829613801565b6020910101516001600160f81b03191660ad60f81b145b801561287a57508361285384606d613a47565b8151811061286357612863613801565b6020910101516001600160f81b031916602960f91b145b80156128b457508361288d84606e613a47565b8151811061289d5761289d613801565b6020910101516001600160f81b031916605960f91b145b80156128ee5750836128c784606f613a47565b815181106128d7576128d7613801565b6020910101516001600160f81b031916607560f81b145b8015612928575083612901846070613a47565b8151811061291157612911613801565b6020910101516001600160f81b031916600d60fb1b145b8015611f5857508361293b846071613a47565b8151811061294b5761294b613801565b6020910101516001600160f81b031916605160f81b14949350505050565b600081601914801561299f575083838151811061298857612988613801565b6020910101516001600160f81b031916603b60f91b145b80156129d95750836129b2846001613a47565b815181106129c2576129c2613801565b6020910101516001600160f81b03191660a960f81b145b8015612a135750836129ec846002613a47565b815181106129fc576129fc613801565b6020910101516001600160f81b031916600560fa1b145b8015612a4d575083612a26846017613a47565b81518110612a3657612a36613801565b6020910101516001600160f81b031916601160fb1b145b8015611f58575083612a60846018613a47565b81518110612a7057612a70613801565b6020910101516001600160f81b031916602b60fa1b14949350505050565b6000816017148015612ace575083612aa7846000613a47565b81518110612ab757612ab7613801565b6020910101516001600160f81b03191660a960f81b145b8015612b08575083612ae1846001613a47565b81518110612af157612af1613801565b6020910101516001600160f81b031916600560fa1b145b8015611f58575083612b1b846016613a47565b81518110612b2b57612b2b613801565b6020910101516001600160f81b031916608760f81b14949350505050565b6000816022148015612b89575083612b62846000613a47565b81518110612b7257612b72613801565b6020910101516001600160f81b031916603560f91b145b8015611f58575083612b9c846001613a47565b81518110612bac57612bac613801565b6020910101516001600160f81b031916600160fd1b14949350505050565b80516000908290612bde5750600092915050565b50506020015190565b60606001600160ff1b03821115612c405760405162461bcd60e51b815260206004820152601760248201527f56616c75652065786365656473207468652072616e67650000000000000000006044820152606401610152565b60405190506020815281602082015260408101604052919050565b60008215801590612c6c5750818314155b8015612c7757508115155b612cb45760405162461bcd60e51b815260206004820152600e60248201526d24b73b30b634b210373ab6b132b960911b6044820152606401610152565b6000600183825b8615612d1c57612ccb8783613b4a565b9050828680612cdc57612cdc6139c6565b8780612cea57612cea6139c6565b858409612cf79089613939565b8608909450925086612d098183613b2b565b612d139084613939565b97509150612cbb565b509195945050505050565b600082612d3657506000610c18565b81612d4357506001610c18565b6001600160ff1b5b8015611ec6576401000003d0198185161515860a6401000003d0198485090991506401000003d0196002820485161515860a6401000003d0198485090991506401000003d0196004820485161515860a6401000003d0198485090991506401000003d0196008820485161515860a6401000003d01984850909915060109004612d4b565b6000808086612de5575084915083905082612e3e565b8660008060015b8315612e35576001841615612e1157612e098383838d8d8d612ec0565b919450925090505b612e1c600285613b4a565b9350612e298a8a8a613155565b919b5099509750612dec565b91955093509150505b9450945094915050565b6000806000806000878b1415612e8c576401000003d019878b08612e755760008094509450505050612eb5565b612e808b8b8b613155565b91945092509050612ea2565b612e9a8b8b8b8b8b8b612ec0565b919450925090505b612ead838383613259565b945094505050505b965096945050505050565b6000808088158015612ed0575087155b15612ee2575084915083905082613149565b85158015612eee575084155b15612f00575087915086905085613149565b612f08613418565b6401000003d0198889098082526401000003d01990890960208201526401000003d019858009604082018190526401000003d0199086096060820152604080516080810182529082015181906401000003d019908d0981526020016401000003d01983600360200201518c0981526020016401000003d01983600060200201518a0981526020016401000003d01983600160200201518909905260408101518151919250141580612fc157506060810151602082015114155b61300d5760405162461bcd60e51b815260206004820152601e60248201527f557365206a6163446f75626c652066756e6374696f6e20696e737465616400006044820152606401610152565b613015613418565b81516401000003d019906130299082613939565b604084015108815260208201516401000003d019906130489082613939565b606084015108602082015280516401000003d0199080096040820181905281516401000003d0199109606082018190526000906401000003d0199061308d9082613939565b60208401516401000003d01990800908604083015184519192506401000003d0199182918291096002096130c7906401000003d019613939565b8208905060006401000003d019806130e5846401000003d019613939565b604086015187516401000003d0199190090860208501510990506401000003d019808460036020020151866001602002015109613128906401000003d019613939565b8208905060006401000003d019808a8e098551099297509095509093505050505b96509650969350505050565b600080808361316b575084915083905082611bba565b60006401000003d019878809905060006401000003d019878809905060006401000003d019878809905060006401000003d01980848c09600409905060006401000003d019806401000003d0198586096000096401000003d019876003090890506401000003d019808384086131e7906401000003d019613939565b6401000003d0198384090894506401000003d019806401000003d019868709600809613219906401000003d019613939565b6401000003d01980613231896401000003d019613939565b860884090893506401000003d019808a8c09600209949b939a50939850919650505050505050565b600080600061326e846401000003d019612c5b565b905060006401000003d019828309905060006401000003d019828909905060006401000003d0198084860989099199919850909650505050505050565b60405180604001604052806002905b6040805160808101825260008082526020808301829052928201819052606082015282526000199092019101816132ba5790505090565b60405180604001604052806002905b60408051808201909152600080825260208201528152602001906001900390816133005790505090565b60405180604001604052806002905b6133606040518060600160405280600060ff16815260200160608152602001606081525090565b8152602001906001900390816133395790505090565b60405180604001604052806002906020820280368337509192915050565b8280546133a090613817565b90600052602060002090601f0160209004810192826133c25760008555613408565b82601f106133db57805160ff1916838001178555613408565b82800160010185558215613408579182015b828111156134085782518255916020019190600101906133ed565b50613414929150613436565b5090565b60405180608001604052806004906020820280368337509192915050565b5b808211156134145760008155600101613437565b634e487b7160e01b600052604160045260246000fd5b600082601f83011261347257600080fd5b81356001600160401b038082111561348c5761348c61344b565b604051601f8301601f19908116603f011681019082821181831017156134b4576134b461344b565b816040528381528660208588010111156134cd57600080fd5b836020870160208301376000602085830101528094505050505092915050565b6000806040838503121561350057600080fd5b82356001600160401b038082111561351757600080fd5b61352386838701613461565b9350602085013591508082111561353957600080fd5b5061354685828601613461565b9150509250929050565b6000806000806080858703121561356657600080fd5b84356001600160401b038082111561357d57600080fd5b61358988838901613461565b9550602087013591508082111561359f57600080fd5b6135ab88838901613461565b945060408701359150808211156135c157600080fd5b6135cd88838901613461565b935060608701359150808211156135e357600080fd5b506135f087828801613461565b91505092959194509250565b60008060006060848603121561361157600080fd5b83356001600160401b038082111561362857600080fd5b61363487838801613461565b9450602086013591508082111561364a57600080fd5b61365687838801613461565b9350604086013591508082111561366c57600080fd5b5061367986828701613461565b9150509250925092565b600080600080600060a0868803121561369b57600080fd5b8535945060208601356001600160401b03808211156136b957600080fd5b6136c589838a01613461565b955060408801359150808211156136db57600080fd5b6136e789838a01613461565b945060608801359150808211156136fd57600080fd5b61370989838a01613461565b9350608088013591508082111561371f57600080fd5b5061372c88828901613461565b9150509295509295909350565b60005b8381101561375457818101518382015260200161373c565b8381111561009f5750506000910152565b6000815180845261377d816020860160208601613739565b601f01601f19169290920160200192915050565b86815260c0602082015260006137aa60c0830188613765565b6001600160e01b03198716604084015282810360608401526137cc8187613765565b905082810360808401526137e08186613765565b905082810360a08401526137f48185613765565b9998505050505050505050565b634e487b7160e01b600052603260045260246000fd5b600181811c9082168061382b57607f821691505b6020821081141561384c57634e487b7160e01b600052602260045260246000fd5b50919050565b60008251613864818460208701613739565b9190910192915050565b60006020828403121561388057600080fd5b5051919050565b600080835481600182811c9150808316806138a357607f831692505b60208084108214156138c357634e487b7160e01b86526022600452602486fd5b8180156138d757600181146138e857613915565b60ff19861689528489019650613915565b60008a81526020902060005b8681101561390d5781548b8201529085019083016138f4565b505084890196505b509498975050505050505050565b634e487b7160e01b600052601160045260246000fd5b60008282101561394b5761394b613923565b500390565b805160208201516001600160e01b0319808216929190600483101561397f5780818460040360031b1b83161693505b505050919050565b600060001982141561399b5761399b613923565b5060010190565b8051602080830151919081101561384c5760001960209190910360031b1b16919050565b634e487b7160e01b600052601260045260246000fd5b6000826139eb576139eb6139c6565b500690565b60008551613a02818460208a01613739565b855190830190613a16818360208a01613739565b8551910190613a29818360208901613739565b8451910190613a3c818360208801613739565b019695505050505050565b60008219821115613a5a57613a5a613923565b500190565b600060ff821660ff841680821015613a7957613a79613923565b90039392505050565b60006001600160a01b0383811690831681811015613aa257613aa2613923565b039392505050565b60006001600160a01b0382811684821681151582840482111615613ad057613ad0613923565b02949350505050565b60006001600160a01b03828116848216808303821115613afb57613afb613923565b01949350505050565b60006001600160a01b0382811680821415613b2157613b21613923565b6001019392505050565b6000816000190483118215151615613b4557613b45613923565b500290565b600082613b5957613b596139c6565b500490565b600061ffff80831681851681830481118215151615613ad057613ad0613923565b600063ffffffff80831681851681830481118215151615613ad057613ad0613923565b60006001600160401b0380831681851681830481118215151615613ad057613ad061392356fea2646970667358221220cc7b3047675eac6f756b694cbfc0573a6987709c255c8151512a8cdbbf64a24264736f6c63430008090033",
  "linkReferences": {},
  "deployedLinkReferences": {}
}