{
  "_format": "hh-sol-artifact-1",
  "contractName": "TypedMemView",
  "sourceName": "contracts/TypedMemView.sol",
  "abi": [
    {
      "inputs": [],
      "name": "NULL",
      "outputs": [
        {
          "internalType": "bytes29",
          "name": "",
          "type": "bytes29"
        }
      ],
      "stateMutability": "view",
      "type": "function"
    }
  ],
  "bytecode": "0x60fe610052600b82828239805160001a607314610045577f4e487b7100000000000000000000000000000000000000000000000000000000600052600060045260246000fd5b30600052607381538281f3fe730000000000000000000000000000000000000000301460806040526004361060335760003560e01c8063f26be3fc146038575b600080fd5b603e6052565b6040516049919060af565b60405180910390f35b7fffffffffffffffffffffffffffffffffffffffffffffffffffffffffff00000081565b60007fffffffffffffffffffffffffffffffffffffffffffffffffffffffffff00000082169050919050565b60a9816076565b82525050565b600060208201905060c2600083018460a2565b9291505056fea2646970667358221220d8ea91124459a75459137aaa2e9d86817b98172c63b74145e378e65c1b252c8b64736f6c63430008130033",
  "linkReferences": {},
  "deployedLinkReferences": {}
}