{
  "_format": "hh-sol-artifact-1",
  "contractName": "TypedMemView",
  "sourceName": "contracts/TypedMemView.sol",
  "abi": [
    {
      "inputs": [],
      "name": "NULL",
      "outputs": [
        {
          "internalType": "bytes29",
          "name": "",
          "type": "bytes29"
        }
      ],
      "stateMutability": "view",
      "type": "function"
    }
  ],
  "bytecode": "0x6091610038600b82828239805160001a607314602b57634e487b7160e01b600052600060045260246000fd5b30600052607381538281f3fe730000000000000000000000000000000000000000301460806040526004361060335760003560e01c8063f26be3fc146038575b600080fd5b604262ffffff1981565b60405162ffffff19909116815260200160405180910390f3fea26469706673582212206af6dd0a888c54f9a7da3bc72ff72ec52fa7e0d18cf48a90c1b3152638606cbe64736f6c63430008090033",
  "linkReferences": {},
  "deployedLinkReferences": {}
}